{
	"webtoken.sol": {
		"CookieCoin": {
			"abi": [
				{
					"inputs": [
						{
							"internalType": "address",
							"name": "_dexRouter",
							"type": "address"
						}
					],
					"stateMutability": "nonpayable",
					"type": "constructor"
				},
				{
					"anonymous": false,
					"inputs": [
						{
							"indexed": true,
							"internalType": "address",
							"name": "owner",
							"type": "address"
						},
						{
							"indexed": true,
							"internalType": "address",
							"name": "spender",
							"type": "address"
						},
						{
							"indexed": false,
							"internalType": "uint256",
							"name": "value",
							"type": "uint256"
						}
					],
					"name": "Approval",
					"type": "event"
				},
				{
					"anonymous": false,
					"inputs": [
						{
							"indexed": false,
							"internalType": "uint256",
							"name": "amountBNB",
							"type": "uint256"
						},
						{
							"indexed": false,
							"internalType": "uint256",
							"name": "amountBOG",
							"type": "uint256"
						}
					],
					"name": "AutoLiquify",
					"type": "event"
				},
				{
					"anonymous": false,
					"inputs": [
						{
							"indexed": false,
							"internalType": "uint256",
							"name": "duration",
							"type": "uint256"
						}
					],
					"name": "BuybackMultiplierActive",
					"type": "event"
				},
				{
					"anonymous": false,
					"inputs": [
						{
							"indexed": false,
							"internalType": "address",
							"name": "owner",
							"type": "address"
						}
					],
					"name": "OwnershipTransferred",
					"type": "event"
				},
				{
					"anonymous": false,
					"inputs": [
						{
							"indexed": true,
							"internalType": "address",
							"name": "from",
							"type": "address"
						},
						{
							"indexed": true,
							"internalType": "address",
							"name": "to",
							"type": "address"
						},
						{
							"indexed": false,
							"internalType": "uint256",
							"name": "value",
							"type": "uint256"
						}
					],
					"name": "Transfer",
					"type": "event"
				},
				{
					"inputs": [],
					"name": "MASK",
					"outputs": [
						{
							"internalType": "uint256",
							"name": "",
							"type": "uint256"
						}
					],
					"stateMutability": "view",
					"type": "function"
				},
				{
					"inputs": [],
					"name": "WBNB",
					"outputs": [
						{
							"internalType": "address",
							"name": "",
							"type": "address"
						}
					],
					"stateMutability": "view",
					"type": "function"
				},
				{
					"inputs": [],
					"name": "_maxTxAmount",
					"outputs": [
						{
							"internalType": "uint256",
							"name": "",
							"type": "uint256"
						}
					],
					"stateMutability": "view",
					"type": "function"
				},
				{
					"inputs": [
						{
							"internalType": "address",
							"name": "holder",
							"type": "address"
						},
						{
							"internalType": "address",
							"name": "spender",
							"type": "address"
						}
					],
					"name": "allowance",
					"outputs": [
						{
							"internalType": "uint256",
							"name": "",
							"type": "uint256"
						}
					],
					"stateMutability": "view",
					"type": "function"
				},
				{
					"inputs": [
						{
							"internalType": "address",
							"name": "spender",
							"type": "address"
						},
						{
							"internalType": "uint256",
							"name": "amount",
							"type": "uint256"
						}
					],
					"name": "approve",
					"outputs": [
						{
							"internalType": "bool",
							"name": "",
							"type": "bool"
						}
					],
					"stateMutability": "nonpayable",
					"type": "function"
				},
				{
					"inputs": [
						{
							"internalType": "address",
							"name": "spender",
							"type": "address"
						}
					],
					"name": "approveMax",
					"outputs": [
						{
							"internalType": "bool",
							"name": "",
							"type": "bool"
						}
					],
					"stateMutability": "nonpayable",
					"type": "function"
				},
				{
					"inputs": [
						{
							"internalType": "address",
							"name": "adr",
							"type": "address"
						}
					],
					"name": "authorize",
					"outputs": [],
					"stateMutability": "nonpayable",
					"type": "function"
				},
				{
					"inputs": [],
					"name": "autoBuybackEnabled",
					"outputs": [
						{
							"internalType": "bool",
							"name": "",
							"type": "bool"
						}
					],
					"stateMutability": "view",
					"type": "function"
				},
				{
					"inputs": [],
					"name": "autoLiquidityReceiver",
					"outputs": [
						{
							"internalType": "address",
							"name": "",
							"type": "address"
						}
					],
					"stateMutability": "view",
					"type": "function"
				},
				{
					"inputs": [
						{
							"internalType": "address",
							"name": "account",
							"type": "address"
						}
					],
					"name": "balanceOf",
					"outputs": [
						{
							"internalType": "uint256",
							"name": "",
							"type": "uint256"
						}
					],
					"stateMutability": "view",
					"type": "function"
				},
				{
					"inputs": [],
					"name": "clearBuybackMultiplier",
					"outputs": [],
					"stateMutability": "nonpayable",
					"type": "function"
				},
				{
					"inputs": [],
					"name": "decimals",
					"outputs": [
						{
							"internalType": "uint8",
							"name": "",
							"type": "uint8"
						}
					],
					"stateMutability": "pure",
					"type": "function"
				},
				{
					"inputs": [],
					"name": "distributorAddress",
					"outputs": [
						{
							"internalType": "address",
							"name": "",
							"type": "address"
						}
					],
					"stateMutability": "view",
					"type": "function"
				},
				{
					"inputs": [],
					"name": "getCirculatingSupply",
					"outputs": [
						{
							"internalType": "uint256",
							"name": "",
							"type": "uint256"
						}
					],
					"stateMutability": "view",
					"type": "function"
				},
				{
					"inputs": [
						{
							"internalType": "uint256",
							"name": "accuracy",
							"type": "uint256"
						}
					],
					"name": "getLiquidityBacking",
					"outputs": [
						{
							"internalType": "uint256",
							"name": "",
							"type": "uint256"
						}
					],
					"stateMutability": "view",
					"type": "function"
				},
				{
					"inputs": [],
					"name": "getMultipliedFee",
					"outputs": [
						{
							"internalType": "uint256",
							"name": "",
							"type": "uint256"
						}
					],
					"stateMutability": "view",
					"type": "function"
				},
				{
					"inputs": [],
					"name": "getOwner",
					"outputs": [
						{
							"internalType": "address",
							"name": "",
							"type": "address"
						}
					],
					"stateMutability": "view",
					"type": "function"
				},
				{
					"inputs": [
						{
							"internalType": "bool",
							"name": "selling",
							"type": "bool"
						}
					],
					"name": "getTotalFee",
					"outputs": [
						{
							"internalType": "uint256",
							"name": "",
							"type": "uint256"
						}
					],
					"stateMutability": "view",
					"type": "function"
				},
				{
					"inputs": [
						{
							"internalType": "address",
							"name": "adr",
							"type": "address"
						}
					],
					"name": "isAuthorized",
					"outputs": [
						{
							"internalType": "bool",
							"name": "",
							"type": "bool"
						}
					],
					"stateMutability": "view",
					"type": "function"
				},
				{
					"inputs": [
						{
							"internalType": "uint256",
							"name": "target",
							"type": "uint256"
						},
						{
							"internalType": "uint256",
							"name": "accuracy",
							"type": "uint256"
						}
					],
					"name": "isOverLiquified",
					"outputs": [
						{
							"internalType": "bool",
							"name": "",
							"type": "bool"
						}
					],
					"stateMutability": "view",
					"type": "function"
				},
				{
					"inputs": [
						{
							"internalType": "address",
							"name": "account",
							"type": "address"
						}
					],
					"name": "isOwner",
					"outputs": [
						{
							"internalType": "bool",
							"name": "",
							"type": "bool"
						}
					],
					"stateMutability": "view",
					"type": "function"
				},
				{
					"inputs": [],
					"name": "launch",
					"outputs": [],
					"stateMutability": "nonpayable",
					"type": "function"
				},
				{
					"inputs": [],
					"name": "launchedAt",
					"outputs": [
						{
							"internalType": "uint256",
							"name": "",
							"type": "uint256"
						}
					],
					"stateMutability": "view",
					"type": "function"
				},
				{
					"inputs": [],
					"name": "launchedAtTimestamp",
					"outputs": [
						{
							"internalType": "uint256",
							"name": "",
							"type": "uint256"
						}
					],
					"stateMutability": "view",
					"type": "function"
				},
				{
					"inputs": [],
					"name": "marketingFeeReceiver",
					"outputs": [
						{
							"internalType": "address",
							"name": "",
							"type": "address"
						}
					],
					"stateMutability": "view",
					"type": "function"
				},
				{
					"inputs": [],
					"name": "name",
					"outputs": [
						{
							"internalType": "string",
							"name": "",
							"type": "string"
						}
					],
					"stateMutability": "pure",
					"type": "function"
				},
				{
					"inputs": [],
					"name": "pair",
					"outputs": [
						{
							"internalType": "address",
							"name": "",
							"type": "address"
						}
					],
					"stateMutability": "view",
					"type": "function"
				},
				{
					"inputs": [],
					"name": "router",
					"outputs": [
						{
							"internalType": "contract IDEXRouter",
							"name": "",
							"type": "address"
						}
					],
					"stateMutability": "view",
					"type": "function"
				},
				{
					"inputs": [
						{
							"internalType": "bool",
							"name": "_enabled",
							"type": "bool"
						},
						{
							"internalType": "uint256",
							"name": "_cap",
							"type": "uint256"
						},
						{
							"internalType": "uint256",
							"name": "_amount",
							"type": "uint256"
						},
						{
							"internalType": "uint256",
							"name": "_period",
							"type": "uint256"
						}
					],
					"name": "setAutoBuybackSettings",
					"outputs": [],
					"stateMutability": "nonpayable",
					"type": "function"
				},
				{
					"inputs": [
						{
							"internalType": "uint256",
							"name": "numerator",
							"type": "uint256"
						},
						{
							"internalType": "uint256",
							"name": "denominator",
							"type": "uint256"
						},
						{
							"internalType": "uint256",
							"name": "length",
							"type": "uint256"
						}
					],
					"name": "setBuybackMultiplierSettings",
					"outputs": [],
					"stateMutability": "nonpayable",
					"type": "function"
				},
				{
					"inputs": [
						{
							"internalType": "uint256",
							"name": "gas",
							"type": "uint256"
						}
					],
					"name": "setDistributorSettings",
					"outputs": [],
					"stateMutability": "nonpayable",
					"type": "function"
				},
				{
					"inputs": [
						{
							"internalType": "address",
							"name": "_autoLiquidityReceiver",
							"type": "address"
						},
						{
							"internalType": "address",
							"name": "_marketingFeeReceiver",
							"type": "address"
						}
					],
					"name": "setFeeReceivers",
					"outputs": [],
					"stateMutability": "nonpayable",
					"type": "function"
				},
				{
					"inputs": [
						{
							"internalType": "uint256",
							"name": "_liquidityFee",
							"type": "uint256"
						},
						{
							"internalType": "uint256",
							"name": "_buybackFee",
							"type": "uint256"
						},
						{
							"internalType": "uint256",
							"name": "_reflectionFee",
							"type": "uint256"
						},
						{
							"internalType": "uint256",
							"name": "_marketingFee",
							"type": "uint256"
						},
						{
							"internalType": "uint256",
							"name": "_feeDenominator",
							"type": "uint256"
						}
					],
					"name": "setFees",
					"outputs": [],
					"stateMutability": "nonpayable",
					"type": "function"
				},
				{
					"inputs": [
						{
							"internalType": "address",
							"name": "holder",
							"type": "address"
						},
						{
							"internalType": "bool",
							"name": "exempt",
							"type": "bool"
						}
					],
					"name": "setIsFeeExempt",
					"outputs": [],
					"stateMutability": "nonpayable",
					"type": "function"
				},
				{
					"inputs": [
						{
							"internalType": "address",
							"name": "holder",
							"type": "address"
						},
						{
							"internalType": "bool",
							"name": "exempt",
							"type": "bool"
						}
					],
					"name": "setIsTxLimitExempt",
					"outputs": [],
					"stateMutability": "nonpayable",
					"type": "function"
				},
				{
					"inputs": [
						{
							"internalType": "bool",
							"name": "_enabled",
							"type": "bool"
						},
						{
							"internalType": "uint256",
							"name": "_amount",
							"type": "uint256"
						}
					],
					"name": "setSwapBackSettings",
					"outputs": [],
					"stateMutability": "nonpayable",
					"type": "function"
				},
				{
					"inputs": [
						{
							"internalType": "uint256",
							"name": "_target",
							"type": "uint256"
						},
						{
							"internalType": "uint256",
							"name": "_denominator",
							"type": "uint256"
						}
					],
					"name": "setTargetLiquidity",
					"outputs": [],
					"stateMutability": "nonpayable",
					"type": "function"
				},
				{
					"inputs": [
						{
							"internalType": "uint256",
							"name": "amount",
							"type": "uint256"
						}
					],
					"name": "setTxLimit",
					"outputs": [],
					"stateMutability": "nonpayable",
					"type": "function"
				},
				{
					"inputs": [],
					"name": "swapEnabled",
					"outputs": [
						{
							"internalType": "bool",
							"name": "",
							"type": "bool"
						}
					],
					"stateMutability": "view",
					"type": "function"
				},
				{
					"inputs": [],
					"name": "swapThreshold",
					"outputs": [
						{
							"internalType": "uint256",
							"name": "",
							"type": "uint256"
						}
					],
					"stateMutability": "view",
					"type": "function"
				},
				{
					"inputs": [],
					"name": "symbol",
					"outputs": [
						{
							"internalType": "string",
							"name": "",
							"type": "string"
						}
					],
					"stateMutability": "pure",
					"type": "function"
				},
				{
					"inputs": [],
					"name": "totalSupply",
					"outputs": [
						{
							"internalType": "uint256",
							"name": "",
							"type": "uint256"
						}
					],
					"stateMutability": "view",
					"type": "function"
				},
				{
					"inputs": [
						{
							"internalType": "address",
							"name": "recipient",
							"type": "address"
						},
						{
							"internalType": "uint256",
							"name": "amount",
							"type": "uint256"
						}
					],
					"name": "transfer",
					"outputs": [
						{
							"internalType": "bool",
							"name": "",
							"type": "bool"
						}
					],
					"stateMutability": "nonpayable",
					"type": "function"
				},
				{
					"inputs": [
						{
							"internalType": "address",
							"name": "sender",
							"type": "address"
						},
						{
							"internalType": "address",
							"name": "recipient",
							"type": "address"
						},
						{
							"internalType": "uint256",
							"name": "amount",
							"type": "uint256"
						}
					],
					"name": "transferFrom",
					"outputs": [
						{
							"internalType": "bool",
							"name": "",
							"type": "bool"
						}
					],
					"stateMutability": "nonpayable",
					"type": "function"
				},
				{
					"inputs": [
						{
							"internalType": "address payable",
							"name": "adr",
							"type": "address"
						}
					],
					"name": "transferOwnership",
					"outputs": [],
					"stateMutability": "nonpayable",
					"type": "function"
				},
				{
					"inputs": [
						{
							"internalType": "uint256",
							"name": "amount",
							"type": "uint256"
						},
						{
							"internalType": "bool",
							"name": "triggerBuybackMultiplier",
							"type": "bool"
						}
					],
					"name": "triggerZeusBuyback",
					"outputs": [],
					"stateMutability": "nonpayable",
					"type": "function"
				},
				{
					"inputs": [
						{
							"internalType": "address",
							"name": "adr",
							"type": "address"
						}
					],
					"name": "unauthorize",
					"outputs": [],
					"stateMutability": "nonpayable",
					"type": "function"
				},
				{
					"stateMutability": "payable",
					"type": "receive"
				}
			],
			"devdoc": {
				"kind": "dev",
				"methods": {},
				"version": 1
			},
			"evm": {
				"assembly": "    /* \"webtoken.sol\":6529:19937  contract CookieCoin is IBEP20, Auth {... */\n  mstore(0x40, 0x80)\n    /* \"webtoken.sol\":6673:6715  0xe9e7CEA3DedcA5984780Bafc599bD69ADd087D56 */\n  0xe9e7cea3dedca5984780bafc599bd69add087d56\n    /* \"webtoken.sol\":6658:6715  address BUSD = 0xe9e7CEA3DedcA5984780Bafc599bD69ADd087D56 */\n  0x02\n  exp(0x0100, 0x00)\n  dup2\n  sload\n  dup2\n  0xffffffffffffffffffffffffffffffffffffffff\n  mul\n  not\n  and\n  swap1\n  dup4\n  0xffffffffffffffffffffffffffffffffffffffff\n  and\n  mul\n  or\n  swap1\n  sstore\n  pop\n    /* \"webtoken.sol\":6743:6785  0xbb4CdB9CBd36B01bD1cBaEBF2De08d9173bc095c */\n  0xbb4cdb9cbd36b01bd1cbaebf2de08d9173bc095c\n    /* \"webtoken.sol\":6721:6785  address public WBNB = 0xbb4CdB9CBd36B01bD1cBaEBF2De08d9173bc095c */\n  0x03\n  exp(0x0100, 0x00)\n  dup2\n  sload\n  dup2\n  0xffffffffffffffffffffffffffffffffffffffff\n  mul\n  not\n  and\n  swap1\n  dup4\n  0xffffffffffffffffffffffffffffffffffffffff\n  and\n  mul\n  or\n  swap1\n  sstore\n  pop\n    /* \"webtoken.sol\":6806:6848  0x000000000000000000000000000000000000dEaD */\n  0xdead\n    /* \"webtoken.sol\":6791:6848  address DEAD = 0x000000000000000000000000000000000000dEaD */\n  0x04\n  exp(0x0100, 0x00)\n  dup2\n  sload\n  dup2\n  0xffffffffffffffffffffffffffffffffffffffff\n  mul\n  not\n  and\n  swap1\n  dup4\n  0xffffffffffffffffffffffffffffffffffffffff\n  and\n  mul\n  or\n  swap1\n  sstore\n  pop\n    /* \"webtoken.sol\":6869:6911  0x0000000000000000000000000000000000000000 */\n  0x00\n    /* \"webtoken.sol\":6854:6911  address ZERO = 0x0000000000000000000000000000000000000000 */\n  0x05\n  exp(0x0100, 0x00)\n  dup2\n  sload\n  dup2\n  0xffffffffffffffffffffffffffffffffffffffff\n  mul\n  not\n  and\n  swap1\n  dup4\n  0xffffffffffffffffffffffffffffffffffffffff\n  and\n  mul\n  or\n  swap1\n  sstore\n  pop\n    /* \"webtoken.sol\":6945:6987  0x000000000000000000000000000000000000dEaD */\n  0xdead\n    /* \"webtoken.sol\":6917:6987  address DEAD_NON_CHECKSUM = 0x000000000000000000000000000000000000dEaD */\n  0x06\n  exp(0x0100, 0x00)\n  dup2\n  sload\n  dup2\n  0xffffffffffffffffffffffffffffffffffffffff\n  mul\n  not\n  and\n  swap1\n  dup4\n  0xffffffffffffffffffffffffffffffffffffffff\n  and\n  mul\n  or\n  swap1\n  sstore\n  pop\n    /* \"webtoken.sol\":7103:7104  9 */\n  0x09\n    /* \"webtoken.sol\":7149:7151  10 */\n  0x0a\n    /* \"webtoken.sol\":7149:7164  10 ** _decimals */\n  tag_1\n  swap2\n  swap1\n  tag_2\n  jump\t// in\ntag_1:\n    /* \"webtoken.sol\":7134:7145  200_000_000 */\n  0x0bebc200\n    /* \"webtoken.sol\":7134:7165  200_000_000 * (10 ** _decimals) */\n  tag_3\n  swap2\n  swap1\n  tag_4\n  jump\t// in\ntag_3:\n    /* \"webtoken.sol\":7111:7165  uint256 _totalSupply = 200_000_000 * (10 ** _decimals) */\n  0x07\n  sstore\n    /* \"webtoken.sol\":7201:7222  _totalSupply.div(400) */\n  tag_5\n    /* \"webtoken.sol\":7218:7221  400 */\n  0x0190\n    /* \"webtoken.sol\":7201:7213  _totalSupply */\n  sload(0x07)\n    /* \"webtoken.sol\":7201:7217  _totalSupply.div */\n  or(tag_0_276, shl(0x20, tag_6))\n  swap1\n    /* \"webtoken.sol\":7201:7222  _totalSupply.div(400) */\n  swap2\n  swap1\n  0x20\n  shr\n  jump\t// in\ntag_5:\n    /* \"webtoken.sol\":7171:7222  uint256 public _maxTxAmount = _totalSupply.div(400) */\n  0x08\n  sstore\n    /* \"webtoken.sol\":7512:7515  300 */\n  0x012c\n    /* \"webtoken.sol\":7489:7515  uint256 liquidityFee = 300 */\n  0x0e\n  sstore\n    /* \"webtoken.sol\":7544:7547  200 */\n  0xc8\n    /* \"webtoken.sol\":7521:7547  uint256 marketingFee = 200 */\n  0x0f\n  sstore\n    /* \"webtoken.sol\":7572:7575  500 */\n  0x01f4\n    /* \"webtoken.sol\":7553:7575  uint256 totalFee = 500 */\n  0x10\n  sstore\n    /* \"webtoken.sol\":7606:7611  10000 */\n  0x2710\n    /* \"webtoken.sol\":7581:7611  uint256 feeDenominator = 10000 */\n  0x11\n  sstore\n    /* \"webtoken.sol\":7728:7730  25 */\n  0x19\n    /* \"webtoken.sol\":7702:7730  uint256 targetLiquidity = 25 */\n  0x14\n  sstore\n    /* \"webtoken.sol\":7773:7776  100 */\n  0x64\n    /* \"webtoken.sol\":7736:7776  uint256 targetLiquidityDenominator = 100 */\n  0x15\n  sstore\n    /* \"webtoken.sol\":7948:7951  200 */\n  0xc8\n    /* \"webtoken.sol\":7911:7951  uint256 buybackMultiplierNumerator = 200 */\n  0x1a\n  sstore\n    /* \"webtoken.sol\":7996:7999  100 */\n  0x64\n    /* \"webtoken.sol\":7957:7999  uint256 buybackMultiplierDenominator = 100 */\n  0x1b\n  sstore\n    /* \"webtoken.sol\":8081:8091  30 minutes */\n  0x0708\n    /* \"webtoken.sol\":8047:8091  uint256 buybackMultiplierLength = 30 minutes */\n  0x1d\n  sstore\n    /* \"webtoken.sol\":8131:8136  false */\n  0x00\n    /* \"webtoken.sol\":8098:8136  bool public autoBuybackEnabled = false */\n  0x1e\n  exp(0x0100, 0x00)\n  dup2\n  sload\n  dup2\n  0xff\n  mul\n  not\n  and\n  swap1\n  dup4\n  iszero\n  iszero\n  mul\n  or\n  swap1\n  sstore\n  pop\n    /* \"webtoken.sol\":8414:8420  500000 */\n  0x07a120\n    /* \"webtoken.sol\":8389:8420  uint256 distributorGas = 500000 */\n  0x26\n  sstore\n    /* \"webtoken.sol\":8453:8457  true */\n  0x01\n    /* \"webtoken.sol\":8427:8457  bool public swapEnabled = true */\n  0x27\n  exp(0x0100, 0x00)\n  dup2\n  sload\n  dup2\n  0xff\n  mul\n  not\n  and\n  swap1\n  dup4\n  iszero\n  iszero\n  mul\n  or\n  swap1\n  sstore\n  pop\n    /* \"webtoken.sol\":8509:8513  2000 */\n  0x07d0\n    /* \"webtoken.sol\":8494:8506  _totalSupply */\n  sload(0x07)\n    /* \"webtoken.sol\":8494:8513  _totalSupply / 2000 */\n  tag_7\n  swap2\n  swap1\n  tag_8\n  jump\t// in\ntag_7:\n    /* \"webtoken.sol\":8463:8513  uint256 public swapThreshold = _totalSupply / 2000 */\n  0x28\n  sstore\n    /* \"webtoken.sol\":8609:9431  constructor (... */\n  callvalue\n  dup1\n  iszero\n  tag_9\n  jumpi\n  0x00\n  dup1\n  revert\ntag_9:\n  pop\n  mload(0x40)\n  sub(codesize, bytecodeSize)\n  dup1\n  bytecodeSize\n  dup4\n  codecopy\n  dup2\n  dup2\n  add\n  0x40\n  mstore\n  dup2\n  add\n  swap1\n  tag_10\n  swap2\n  swap1\n  tag_11\n  jump\t// in\ntag_10:\n    /* \"webtoken.sol\":8661:8671  msg.sender */\n  caller\n    /* \"webtoken.sol\":3738:3744  _owner */\n  dup1\n    /* \"webtoken.sol\":3730:3735  owner */\n  0x00\n  dup1\n    /* \"webtoken.sol\":3730:3744  owner = _owner */\n  0x0100\n  exp\n  dup2\n  sload\n  dup2\n  0xffffffffffffffffffffffffffffffffffffffff\n  mul\n  not\n  and\n  swap1\n  dup4\n  0xffffffffffffffffffffffffffffffffffffffff\n  and\n  mul\n  or\n  swap1\n  sstore\n  pop\n    /* \"webtoken.sol\":3779:3783  true */\n  0x01\n    /* \"webtoken.sol\":3754:3768  authorizations */\n  dup1\n    /* \"webtoken.sol\":3754:3776  authorizations[_owner] */\n  0x00\n    /* \"webtoken.sol\":3769:3775  _owner */\n  dup4\n    /* \"webtoken.sol\":3754:3776  authorizations[_owner] */\n  0xffffffffffffffffffffffffffffffffffffffff\n  and\n  0xffffffffffffffffffffffffffffffffffffffff\n  and\n  dup2\n  mstore\n  0x20\n  add\n  swap1\n  dup2\n  mstore\n  0x20\n  add\n  0x00\n  keccak256\n  0x00\n    /* \"webtoken.sol\":3754:3783  authorizations[_owner] = true */\n  0x0100\n  exp\n  dup2\n  sload\n  dup2\n  0xff\n  mul\n  not\n  and\n  swap1\n  dup4\n  iszero\n  iszero\n  mul\n  or\n  swap1\n  sstore\n  pop\n    /* \"webtoken.sol\":3692:3790  constructor(address _owner) {... */\n  pop\n    /* \"webtoken.sol\":8703:8713  _dexRouter */\n  dup1\n    /* \"webtoken.sol\":8683:8689  router */\n  0x16\n  0x00\n    /* \"webtoken.sol\":8683:8714  router = IDEXRouter(_dexRouter) */\n  0x0100\n  exp\n  dup2\n  sload\n  dup2\n  0xffffffffffffffffffffffffffffffffffffffff\n  mul\n  not\n  and\n  swap1\n  dup4\n  0xffffffffffffffffffffffffffffffffffffffff\n  and\n  mul\n  or\n  swap1\n  sstore\n  pop\n    /* \"webtoken.sol\":8743:8749  router */\n  0x16\n  0x00\n  swap1\n  sload\n  swap1\n  0x0100\n  exp\n  swap1\n  div\n  0xffffffffffffffffffffffffffffffffffffffff\n  and\n    /* \"webtoken.sol\":8743:8757  router.factory */\n  0xffffffffffffffffffffffffffffffffffffffff\n  and\n  0xc45a0155\n    /* \"webtoken.sol\":8743:8759  router.factory() */\n  mload(0x40)\n  dup2\n  0xffffffff\n  and\n  0xe0\n  shl\n  dup2\n  mstore\n  0x04\n  add\n  0x20\n  mload(0x40)\n  dup1\n  dup4\n  sub\n  dup2\n  dup7\n  dup1\n  extcodesize\n  iszero\n  dup1\n  iszero\n  tag_16\n  jumpi\n  0x00\n  dup1\n  revert\ntag_16:\n  pop\n  gas\n  staticcall\n  iszero\n  dup1\n  iszero\n  tag_18\n  jumpi\n  returndatasize\n  0x00\n  dup1\n  returndatacopy\n  revert(0x00, returndatasize)\ntag_18:\n  pop\n  pop\n  pop\n  pop\n  mload(0x40)\n  returndatasize\n  not(0x1f)\n  0x1f\n  dup3\n  add\n  and\n  dup3\n  add\n  dup1\n  0x40\n  mstore\n  pop\n  dup2\n  add\n  swap1\n  tag_19\n  swap2\n  swap1\n  tag_11\n  jump\t// in\ntag_19:\n    /* \"webtoken.sol\":8731:8771  IDEXFactory(router.factory()).createPair */\n  0xffffffffffffffffffffffffffffffffffffffff\n  and\n  0xc9c65396\n    /* \"webtoken.sol\":8772:8776  WBNB */\n  0x03\n  0x00\n  swap1\n  sload\n  swap1\n  0x0100\n  exp\n  swap1\n  div\n  0xffffffffffffffffffffffffffffffffffffffff\n  and\n    /* \"webtoken.sol\":8786:8790  this */\n  address\n    /* \"webtoken.sol\":8731:8792  IDEXFactory(router.factory()).createPair(WBNB, address(this)) */\n  mload(0x40)\n  dup4\n  0xffffffff\n  and\n  0xe0\n  shl\n  dup2\n  mstore\n  0x04\n  add\n  tag_20\n  swap3\n  swap2\n  swap1\n  tag_21\n  jump\t// in\ntag_20:\n  0x20\n  mload(0x40)\n  dup1\n  dup4\n  sub\n  dup2\n  0x00\n  dup8\n  dup1\n  extcodesize\n  iszero\n  dup1\n  iszero\n  tag_22\n  jumpi\n  0x00\n  dup1\n  revert\ntag_22:\n  pop\n  gas\n  call\n  iszero\n  dup1\n  iszero\n  tag_24\n  jumpi\n  returndatasize\n  0x00\n  dup1\n  returndatacopy\n  revert(0x00, returndatasize)\ntag_24:\n  pop\n  pop\n  pop\n  pop\n  mload(0x40)\n  returndatasize\n  not(0x1f)\n  0x1f\n  dup3\n  add\n  and\n  dup3\n  add\n  dup1\n  0x40\n  mstore\n  pop\n  dup2\n  add\n  swap1\n  tag_25\n  swap2\n  swap1\n  tag_11\n  jump\t// in\ntag_25:\n    /* \"webtoken.sol\":8724:8728  pair */\n  0x17\n  0x00\n    /* \"webtoken.sol\":8724:8792  pair = IDEXFactory(router.factory()).createPair(WBNB, address(this)) */\n  0x0100\n  exp\n  dup2\n  sload\n  dup2\n  0xffffffffffffffffffffffffffffffffffffffff\n  mul\n  not\n  and\n  swap1\n  dup4\n  0xffffffffffffffffffffffffffffffffffffffff\n  and\n  mul\n  or\n  swap1\n  sstore\n  pop\n    /* \"webtoken.sol\":8848:8860  _totalSupply */\n  sload(0x07)\n    /* \"webtoken.sol\":8802:8813  _allowances */\n  0x0a\n    /* \"webtoken.sol\":8802:8828  _allowances[address(this)] */\n  0x00\n    /* \"webtoken.sol\":8822:8826  this */\n  address\n    /* \"webtoken.sol\":8802:8828  _allowances[address(this)] */\n  0xffffffffffffffffffffffffffffffffffffffff\n  and\n  0xffffffffffffffffffffffffffffffffffffffff\n  and\n  dup2\n  mstore\n  0x20\n  add\n  swap1\n  dup2\n  mstore\n  0x20\n  add\n  0x00\n  keccak256\n    /* \"webtoken.sol\":8802:8845  _allowances[address(this)][address(router)] */\n  0x00\n    /* \"webtoken.sol\":8837:8843  router */\n  0x16\n  0x00\n  swap1\n  sload\n  swap1\n  0x0100\n  exp\n  swap1\n  div\n  0xffffffffffffffffffffffffffffffffffffffff\n  and\n    /* \"webtoken.sol\":8802:8845  _allowances[address(this)][address(router)] */\n  0xffffffffffffffffffffffffffffffffffffffff\n  and\n  0xffffffffffffffffffffffffffffffffffffffff\n  and\n  dup2\n  mstore\n  0x20\n  add\n  swap1\n  dup2\n  mstore\n  0x20\n  add\n  0x00\n  keccak256\n    /* \"webtoken.sol\":8802:8860  _allowances[address(this)][address(router)] = _totalSupply */\n  dup2\n  swap1\n  sstore\n  pop\n    /* \"webtoken.sol\":8877:8883  router */\n  0x16\n  0x00\n  swap1\n  sload\n  swap1\n  0x0100\n  exp\n  swap1\n  div\n  0xffffffffffffffffffffffffffffffffffffffff\n  and\n    /* \"webtoken.sol\":8877:8888  router.WETH */\n  0xffffffffffffffffffffffffffffffffffffffff\n  and\n  0xad5c4648\n    /* \"webtoken.sol\":8877:8890  router.WETH() */\n  mload(0x40)\n  dup2\n  0xffffffff\n  and\n  0xe0\n  shl\n  dup2\n  mstore\n  0x04\n  add\n  0x20\n  mload(0x40)\n  dup1\n  dup4\n  sub\n  dup2\n  dup7\n  dup1\n  extcodesize\n  iszero\n  dup1\n  iszero\n  tag_26\n  jumpi\n  0x00\n  dup1\n  revert\ntag_26:\n  pop\n  gas\n  staticcall\n  iszero\n  dup1\n  iszero\n  tag_28\n  jumpi\n  returndatasize\n  0x00\n  dup1\n  returndatacopy\n  revert(0x00, returndatasize)\ntag_28:\n  pop\n  pop\n  pop\n  pop\n  mload(0x40)\n  returndatasize\n  not(0x1f)\n  0x1f\n  dup3\n  add\n  and\n  dup3\n  add\n  dup1\n  0x40\n  mstore\n  pop\n  dup2\n  add\n  swap1\n  tag_29\n  swap2\n  swap1\n  tag_11\n  jump\t// in\ntag_29:\n    /* \"webtoken.sol\":8870:8874  WBNB */\n  0x03\n  0x00\n    /* \"webtoken.sol\":8870:8890  WBNB = router.WETH() */\n  0x0100\n  exp\n  dup2\n  sload\n  dup2\n  0xffffffffffffffffffffffffffffffffffffffff\n  mul\n  not\n  and\n  swap1\n  dup4\n  0xffffffffffffffffffffffffffffffffffffffff\n  and\n  mul\n  or\n  swap1\n  sstore\n  pop\n    /* \"webtoken.sol\":8927:8931  true */\n  0x01\n    /* \"webtoken.sol\":8901:8912  isFeeExempt */\n  0x0b\n    /* \"webtoken.sol\":8901:8924  isFeeExempt[msg.sender] */\n  0x00\n    /* \"webtoken.sol\":8913:8923  msg.sender */\n  caller\n    /* \"webtoken.sol\":8901:8924  isFeeExempt[msg.sender] */\n  0xffffffffffffffffffffffffffffffffffffffff\n  and\n  0xffffffffffffffffffffffffffffffffffffffff\n  and\n  dup2\n  mstore\n  0x20\n  add\n  swap1\n  dup2\n  mstore\n  0x20\n  add\n  0x00\n  keccak256\n  0x00\n    /* \"webtoken.sol\":8901:8931  isFeeExempt[msg.sender] = true */\n  0x0100\n  exp\n  dup2\n  sload\n  dup2\n  0xff\n  mul\n  not\n  and\n  swap1\n  dup4\n  iszero\n  iszero\n  mul\n  or\n  swap1\n  sstore\n  pop\n    /* \"webtoken.sol\":8971:8975  true */\n  0x01\n    /* \"webtoken.sol\":8941:8956  isTxLimitExempt */\n  0x0c\n    /* \"webtoken.sol\":8941:8968  isTxLimitExempt[msg.sender] */\n  0x00\n    /* \"webtoken.sol\":8957:8967  msg.sender */\n  caller\n    /* \"webtoken.sol\":8941:8968  isTxLimitExempt[msg.sender] */\n  0xffffffffffffffffffffffffffffffffffffffff\n  and\n  0xffffffffffffffffffffffffffffffffffffffff\n  and\n  dup2\n  mstore\n  0x20\n  add\n  swap1\n  dup2\n  mstore\n  0x20\n  add\n  0x00\n  keccak256\n  0x00\n    /* \"webtoken.sol\":8941:8975  isTxLimitExempt[msg.sender] = true */\n  0x0100\n  exp\n  dup2\n  sload\n  dup2\n  0xff\n  mul\n  not\n  and\n  swap1\n  dup4\n  iszero\n  iszero\n  mul\n  or\n  swap1\n  sstore\n  pop\n    /* \"webtoken.sol\":9010:9014  true */\n  0x01\n    /* \"webtoken.sol\":8985:9001  isDividendExempt */\n  0x0d\n    /* \"webtoken.sol\":8985:9007  isDividendExempt[pair] */\n  0x00\n    /* \"webtoken.sol\":9002:9006  pair */\n  0x17\n  0x00\n  swap1\n  sload\n  swap1\n  0x0100\n  exp\n  swap1\n  div\n  0xffffffffffffffffffffffffffffffffffffffff\n  and\n    /* \"webtoken.sol\":8985:9007  isDividendExempt[pair] */\n  0xffffffffffffffffffffffffffffffffffffffff\n  and\n  0xffffffffffffffffffffffffffffffffffffffff\n  and\n  dup2\n  mstore\n  0x20\n  add\n  swap1\n  dup2\n  mstore\n  0x20\n  add\n  0x00\n  keccak256\n  0x00\n    /* \"webtoken.sol\":8985:9014  isDividendExempt[pair] = true */\n  0x0100\n  exp\n  dup2\n  sload\n  dup2\n  0xff\n  mul\n  not\n  and\n  swap1\n  dup4\n  iszero\n  iszero\n  mul\n  or\n  swap1\n  sstore\n  pop\n    /* \"webtoken.sol\":9058:9062  true */\n  0x01\n    /* \"webtoken.sol\":9024:9040  isDividendExempt */\n  0x0d\n    /* \"webtoken.sol\":9024:9055  isDividendExempt[address(this)] */\n  0x00\n    /* \"webtoken.sol\":9049:9053  this */\n  address\n    /* \"webtoken.sol\":9024:9055  isDividendExempt[address(this)] */\n  0xffffffffffffffffffffffffffffffffffffffff\n  and\n  0xffffffffffffffffffffffffffffffffffffffff\n  and\n  dup2\n  mstore\n  0x20\n  add\n  swap1\n  dup2\n  mstore\n  0x20\n  add\n  0x00\n  keccak256\n  0x00\n    /* \"webtoken.sol\":9024:9062  isDividendExempt[address(this)] = true */\n  0x0100\n  exp\n  dup2\n  sload\n  dup2\n  0xff\n  mul\n  not\n  and\n  swap1\n  dup4\n  iszero\n  iszero\n  mul\n  or\n  swap1\n  sstore\n  pop\n    /* \"webtoken.sol\":9097:9101  true */\n  0x01\n    /* \"webtoken.sol\":9072:9088  isDividendExempt */\n  0x0d\n    /* \"webtoken.sol\":9072:9094  isDividendExempt[DEAD] */\n  0x00\n    /* \"webtoken.sol\":9089:9093  DEAD */\n  0x04\n  0x00\n  swap1\n  sload\n  swap1\n  0x0100\n  exp\n  swap1\n  div\n  0xffffffffffffffffffffffffffffffffffffffff\n  and\n    /* \"webtoken.sol\":9072:9094  isDividendExempt[DEAD] */\n  0xffffffffffffffffffffffffffffffffffffffff\n  and\n  0xffffffffffffffffffffffffffffffffffffffff\n  and\n  dup2\n  mstore\n  0x20\n  add\n  swap1\n  dup2\n  mstore\n  0x20\n  add\n  0x00\n  keccak256\n  0x00\n    /* \"webtoken.sol\":9072:9101  isDividendExempt[DEAD] = true */\n  0x0100\n  exp\n  dup2\n  sload\n  dup2\n  0xff\n  mul\n  not\n  and\n  swap1\n  dup4\n  iszero\n  iszero\n  mul\n  or\n  swap1\n  sstore\n  pop\n    /* \"webtoken.sol\":9135:9139  true */\n  0x01\n    /* \"webtoken.sol\":9111:9120  buyBacker */\n  0x1f\n    /* \"webtoken.sol\":9111:9132  buyBacker[msg.sender] */\n  0x00\n    /* \"webtoken.sol\":9121:9131  msg.sender */\n  caller\n    /* \"webtoken.sol\":9111:9132  buyBacker[msg.sender] */\n  0xffffffffffffffffffffffffffffffffffffffff\n  and\n  0xffffffffffffffffffffffffffffffffffffffff\n  and\n  dup2\n  mstore\n  0x20\n  add\n  swap1\n  dup2\n  mstore\n  0x20\n  add\n  0x00\n  keccak256\n  0x00\n    /* \"webtoken.sol\":9111:9139  buyBacker[msg.sender] = true */\n  0x0100\n  exp\n  dup2\n  sload\n  dup2\n  0xff\n  mul\n  not\n  and\n  swap1\n  dup4\n  iszero\n  iszero\n  mul\n  or\n  swap1\n  sstore\n  pop\n    /* \"webtoken.sol\":9174:9184  msg.sender */\n  caller\n    /* \"webtoken.sol\":9150:9171  autoLiquidityReceiver */\n  0x12\n  0x00\n    /* \"webtoken.sol\":9150:9184  autoLiquidityReceiver = msg.sender */\n  0x0100\n  exp\n  dup2\n  sload\n  dup2\n  0xffffffffffffffffffffffffffffffffffffffff\n  mul\n  not\n  and\n  swap1\n  dup4\n  0xffffffffffffffffffffffffffffffffffffffff\n  and\n  mul\n  or\n  swap1\n  sstore\n  pop\n    /* \"webtoken.sol\":9217:9227  msg.sender */\n  caller\n    /* \"webtoken.sol\":9194:9214  marketingFeeReceiver */\n  0x13\n  0x00\n    /* \"webtoken.sol\":9194:9227  marketingFeeReceiver = msg.sender */\n  0x0100\n  exp\n  dup2\n  sload\n  dup2\n  0xffffffffffffffffffffffffffffffffffffffff\n  mul\n  not\n  and\n  swap1\n  dup4\n  0xffffffffffffffffffffffffffffffffffffffff\n  and\n  mul\n  or\n  swap1\n  sstore\n  pop\n    /* \"webtoken.sol\":9238:9271  approve(_dexRouter, _totalSupply) */\n  tag_30\n    /* \"webtoken.sol\":9246:9256  _dexRouter */\n  dup2\n    /* \"webtoken.sol\":9258:9270  _totalSupply */\n  sload(0x07)\n    /* \"webtoken.sol\":9238:9245  approve */\n  shl(0x20, tag_31)\n    /* \"webtoken.sol\":9238:9271  approve(_dexRouter, _totalSupply) */\n  0x20\n  shr\n  jump\t// in\ntag_30:\n  pop\n    /* \"webtoken.sol\":9281:9317  approve(address(pair), _totalSupply) */\n  tag_32\n    /* \"webtoken.sol\":9297:9301  pair */\n  0x17\n  0x00\n  swap1\n  sload\n  swap1\n  0x0100\n  exp\n  swap1\n  div\n  0xffffffffffffffffffffffffffffffffffffffff\n  and\n    /* \"webtoken.sol\":9304:9316  _totalSupply */\n  sload(0x07)\n    /* \"webtoken.sol\":9281:9288  approve */\n  shl(0x20, tag_31)\n    /* \"webtoken.sol\":9281:9317  approve(address(pair), _totalSupply) */\n  0x20\n  shr\n  jump\t// in\ntag_32:\n  pop\n    /* \"webtoken.sol\":9351:9363  _totalSupply */\n  sload(0x07)\n    /* \"webtoken.sol\":9327:9336  _balances */\n  0x09\n    /* \"webtoken.sol\":9327:9348  _balances[msg.sender] */\n  0x00\n    /* \"webtoken.sol\":9337:9347  msg.sender */\n  caller\n    /* \"webtoken.sol\":9327:9348  _balances[msg.sender] */\n  0xffffffffffffffffffffffffffffffffffffffff\n  and\n  0xffffffffffffffffffffffffffffffffffffffff\n  and\n  dup2\n  mstore\n  0x20\n  add\n  swap1\n  dup2\n  mstore\n  0x20\n  add\n  0x00\n  keccak256\n    /* \"webtoken.sol\":9327:9363  _balances[msg.sender] = _totalSupply */\n  dup2\n  swap1\n  sstore\n  pop\n    /* \"webtoken.sol\":9399:9409  msg.sender */\n  caller\n    /* \"webtoken.sol\":9378:9424  Transfer(address(0), msg.sender, _totalSupply) */\n  0xffffffffffffffffffffffffffffffffffffffff\n  and\n    /* \"webtoken.sol\":9395:9396  0 */\n  0x00\n    /* \"webtoken.sol\":9378:9424  Transfer(address(0), msg.sender, _totalSupply) */\n  0xffffffffffffffffffffffffffffffffffffffff\n  and\n  0xddf252ad1be2c89b69c2b068fc378daa952ba7f163c4a11628f55a4df523b3ef\n    /* \"webtoken.sol\":9411:9423  _totalSupply */\n  sload(0x07)\n    /* \"webtoken.sol\":9378:9424  Transfer(address(0), msg.sender, _totalSupply) */\n  mload(0x40)\n  tag_33\n  swap2\n  swap1\n  tag_34\n  jump\t// in\ntag_33:\n  mload(0x40)\n  dup1\n  swap2\n  sub\n  swap1\n  log3\n    /* \"webtoken.sol\":8609:9431  constructor (... */\n  pop\n    /* \"webtoken.sol\":6529:19937  contract CookieCoin is IBEP20, Auth {... */\n  jump(tag_35)\n    /* \"webtoken.sol\":1859:1955  function div(uint256 a, uint256 b) internal pure returns (uint256) {... */\ntag_6:\n    /* \"webtoken.sol\":1917:1924  uint256 */\n  0x00\n    /* \"webtoken.sol\":1947:1948  b */\n  dup2\n    /* \"webtoken.sol\":1943:1944  a */\n  dup4\n    /* \"webtoken.sol\":1943:1948  a / b */\n  tag_37\n  swap2\n  swap1\n  tag_8\n  jump\t// in\ntag_37:\n    /* \"webtoken.sol\":1936:1948  return a / b */\n  swap1\n  pop\n    /* \"webtoken.sol\":1859:1955  function div(uint256 a, uint256 b) internal pure returns (uint256) {... */\n  swap3\n  swap2\n  pop\n  pop\n  jump\t// out\n    /* \"webtoken.sol\":10237:10449  function approve(address spender, uint256 amount) public override returns (bool) {... */\ntag_31:\n    /* \"webtoken.sol\":10312:10316  bool */\n  0x00\n    /* \"webtoken.sol\":10363:10369  amount */\n  dup2\n    /* \"webtoken.sol\":10328:10339  _allowances */\n  0x0a\n    /* \"webtoken.sol\":10328:10351  _allowances[msg.sender] */\n  0x00\n    /* \"webtoken.sol\":10340:10350  msg.sender */\n  caller\n    /* \"webtoken.sol\":10328:10351  _allowances[msg.sender] */\n  0xffffffffffffffffffffffffffffffffffffffff\n  and\n  0xffffffffffffffffffffffffffffffffffffffff\n  and\n  dup2\n  mstore\n  0x20\n  add\n  swap1\n  dup2\n  mstore\n  0x20\n  add\n  0x00\n  keccak256\n    /* \"webtoken.sol\":10328:10360  _allowances[msg.sender][spender] */\n  0x00\n    /* \"webtoken.sol\":10352:10359  spender */\n  dup6\n    /* \"webtoken.sol\":10328:10360  _allowances[msg.sender][spender] */\n  0xffffffffffffffffffffffffffffffffffffffff\n  and\n  0xffffffffffffffffffffffffffffffffffffffff\n  and\n  dup2\n  mstore\n  0x20\n  add\n  swap1\n  dup2\n  mstore\n  0x20\n  add\n  0x00\n  keccak256\n    /* \"webtoken.sol\":10328:10369  _allowances[msg.sender][spender] = amount */\n  dup2\n  swap1\n  sstore\n  pop\n    /* \"webtoken.sol\":10405:10412  spender */\n  dup3\n    /* \"webtoken.sol\":10384:10421  Approval(msg.sender, spender, amount) */\n  0xffffffffffffffffffffffffffffffffffffffff\n  and\n    /* \"webtoken.sol\":10393:10403  msg.sender */\n  caller\n    /* \"webtoken.sol\":10384:10421  Approval(msg.sender, spender, amount) */\n  0xffffffffffffffffffffffffffffffffffffffff\n  and\n  0x8c5be1e5ebec7d5bd14f71427d1e84f3dd0314c0f7b2291e5b200ac8c7c3b925\n    /* \"webtoken.sol\":10414:10420  amount */\n  dup5\n    /* \"webtoken.sol\":10384:10421  Approval(msg.sender, spender, amount) */\n  mload(0x40)\n  tag_39\n  swap2\n  swap1\n  tag_34\n  jump\t// in\ntag_39:\n  mload(0x40)\n  dup1\n  swap2\n  sub\n  swap1\n  log3\n    /* \"webtoken.sol\":10438:10442  true */\n  0x01\n    /* \"webtoken.sol\":10431:10442  return true */\n  swap1\n  pop\n    /* \"webtoken.sol\":10237:10449  function approve(address spender, uint256 amount) public override returns (bool) {... */\n  swap3\n  swap2\n  pop\n  pop\n  jump\t// out\n    /* \"#utility.yul\":7:150   */\ntag_41:\n    /* \"#utility.yul\":64:69   */\n  0x00\n    /* \"#utility.yul\":95:101   */\n  dup2\n    /* \"#utility.yul\":89:102   */\n  mload\n    /* \"#utility.yul\":80:102   */\n  swap1\n  pop\n    /* \"#utility.yul\":111:144   */\n  tag_43\n    /* \"#utility.yul\":138:143   */\n  dup2\n    /* \"#utility.yul\":111:144   */\n  tag_44\n  jump\t// in\ntag_43:\n    /* \"#utility.yul\":70:150   */\n  swap3\n  swap2\n  pop\n  pop\n  jump\t// out\n    /* \"#utility.yul\":156:440   */\ntag_11:\n    /* \"#utility.yul\":226:232   */\n  0x00\n    /* \"#utility.yul\":275:277   */\n  0x20\n    /* \"#utility.yul\":263:272   */\n  dup3\n    /* \"#utility.yul\":254:261   */\n  dup5\n    /* \"#utility.yul\":250:273   */\n  sub\n    /* \"#utility.yul\":246:278   */\n  slt\n    /* \"#utility.yul\":243:245   */\n  iszero\n  tag_46\n  jumpi\n    /* \"#utility.yul\":291:292   */\n  0x00\n    /* \"#utility.yul\":288:289   */\n  dup1\n    /* \"#utility.yul\":281:293   */\n  revert\n    /* \"#utility.yul\":243:245   */\ntag_46:\n    /* \"#utility.yul\":334:335   */\n  0x00\n    /* \"#utility.yul\":359:423   */\n  tag_47\n    /* \"#utility.yul\":415:422   */\n  dup5\n    /* \"#utility.yul\":406:412   */\n  dup3\n    /* \"#utility.yul\":395:404   */\n  dup6\n    /* \"#utility.yul\":391:413   */\n  add\n    /* \"#utility.yul\":359:423   */\n  tag_41\n  jump\t// in\ntag_47:\n    /* \"#utility.yul\":349:423   */\n  swap2\n  pop\n    /* \"#utility.yul\":305:433   */\n  pop\n    /* \"#utility.yul\":233:440   */\n  swap3\n  swap2\n  pop\n  pop\n  jump\t// out\n    /* \"#utility.yul\":446:564   */\ntag_48:\n    /* \"#utility.yul\":533:557   */\n  tag_50\n    /* \"#utility.yul\":551:556   */\n  dup2\n    /* \"#utility.yul\":533:557   */\n  tag_51\n  jump\t// in\ntag_50:\n    /* \"#utility.yul\":528:531   */\n  dup3\n    /* \"#utility.yul\":521:558   */\n  mstore\n    /* \"#utility.yul\":511:564   */\n  pop\n  pop\n  jump\t// out\n    /* \"#utility.yul\":570:688   */\ntag_52:\n    /* \"#utility.yul\":657:681   */\n  tag_54\n    /* \"#utility.yul\":675:680   */\n  dup2\n    /* \"#utility.yul\":657:681   */\n  tag_55\n  jump\t// in\ntag_54:\n    /* \"#utility.yul\":652:655   */\n  dup3\n    /* \"#utility.yul\":645:682   */\n  mstore\n    /* \"#utility.yul\":635:688   */\n  pop\n  pop\n  jump\t// out\n    /* \"#utility.yul\":694:1026   */\ntag_21:\n    /* \"#utility.yul\":815:819   */\n  0x00\n    /* \"#utility.yul\":853:855   */\n  0x40\n    /* \"#utility.yul\":842:851   */\n  dup3\n    /* \"#utility.yul\":838:856   */\n  add\n    /* \"#utility.yul\":830:856   */\n  swap1\n  pop\n    /* \"#utility.yul\":866:937   */\n  tag_57\n    /* \"#utility.yul\":934:935   */\n  0x00\n    /* \"#utility.yul\":923:932   */\n  dup4\n    /* \"#utility.yul\":919:936   */\n  add\n    /* \"#utility.yul\":910:916   */\n  dup6\n    /* \"#utility.yul\":866:937   */\n  tag_48\n  jump\t// in\ntag_57:\n    /* \"#utility.yul\":947:1019   */\n  tag_58\n    /* \"#utility.yul\":1015:1017   */\n  0x20\n    /* \"#utility.yul\":1004:1013   */\n  dup4\n    /* \"#utility.yul\":1000:1018   */\n  add\n    /* \"#utility.yul\":991:997   */\n  dup5\n    /* \"#utility.yul\":947:1019   */\n  tag_48\n  jump\t// in\ntag_58:\n    /* \"#utility.yul\":820:1026   */\n  swap4\n  swap3\n  pop\n  pop\n  pop\n  jump\t// out\n    /* \"#utility.yul\":1032:1254   */\ntag_34:\n    /* \"#utility.yul\":1125:1129   */\n  0x00\n    /* \"#utility.yul\":1163:1165   */\n  0x20\n    /* \"#utility.yul\":1152:1161   */\n  dup3\n    /* \"#utility.yul\":1148:1166   */\n  add\n    /* \"#utility.yul\":1140:1166   */\n  swap1\n  pop\n    /* \"#utility.yul\":1176:1247   */\n  tag_60\n    /* \"#utility.yul\":1244:1245   */\n  0x00\n    /* \"#utility.yul\":1233:1242   */\n  dup4\n    /* \"#utility.yul\":1229:1246   */\n  add\n    /* \"#utility.yul\":1220:1226   */\n  dup5\n    /* \"#utility.yul\":1176:1247   */\n  tag_52\n  jump\t// in\ntag_60:\n    /* \"#utility.yul\":1130:1254   */\n  swap3\n  swap2\n  pop\n  pop\n  jump\t// out\n    /* \"#utility.yul\":1260:1445   */\ntag_8:\n    /* \"#utility.yul\":1300:1301   */\n  0x00\n    /* \"#utility.yul\":1317:1337   */\n  tag_62\n    /* \"#utility.yul\":1335:1336   */\n  dup3\n    /* \"#utility.yul\":1317:1337   */\n  tag_55\n  jump\t// in\ntag_62:\n    /* \"#utility.yul\":1312:1337   */\n  swap2\n  pop\n    /* \"#utility.yul\":1351:1371   */\n  tag_63\n    /* \"#utility.yul\":1369:1370   */\n  dup4\n    /* \"#utility.yul\":1351:1371   */\n  tag_55\n  jump\t// in\ntag_63:\n    /* \"#utility.yul\":1346:1371   */\n  swap3\n  pop\n    /* \"#utility.yul\":1390:1391   */\n  dup3\n    /* \"#utility.yul\":1380:1382   */\n  tag_64\n  jumpi\n    /* \"#utility.yul\":1395:1413   */\n  tag_65\n  tag_66\n  jump\t// in\ntag_65:\n    /* \"#utility.yul\":1380:1382   */\ntag_64:\n    /* \"#utility.yul\":1437:1438   */\n  dup3\n    /* \"#utility.yul\":1434:1435   */\n  dup3\n    /* \"#utility.yul\":1430:1439   */\n  div\n    /* \"#utility.yul\":1425:1439   */\n  swap1\n  pop\n    /* \"#utility.yul\":1302:1445   */\n  swap3\n  swap2\n  pop\n  pop\n  jump\t// out\n    /* \"#utility.yul\":1451:2299   */\ntag_67:\n    /* \"#utility.yul\":1512:1517   */\n  0x00\n    /* \"#utility.yul\":1519:1523   */\n  dup1\n    /* \"#utility.yul\":1543:1549   */\n  dup3\n    /* \"#utility.yul\":1534:1549   */\n  swap2\n  pop\n    /* \"#utility.yul\":1567:1572   */\n  dup4\n    /* \"#utility.yul\":1558:1572   */\n  swap1\n  pop\n    /* \"#utility.yul\":1581:2293   */\ntag_69:\n    /* \"#utility.yul\":1602:1603   */\n  0x01\n    /* \"#utility.yul\":1592:1600   */\n  dup6\n    /* \"#utility.yul\":1589:1604   */\n  gt\n    /* \"#utility.yul\":1581:2293   */\n  iszero\n  tag_71\n  jumpi\n    /* \"#utility.yul\":1697:1701   */\n  dup1\n    /* \"#utility.yul\":1692:1695   */\n  dup7\n    /* \"#utility.yul\":1688:1702   */\n  div\n    /* \"#utility.yul\":1682:1686   */\n  dup2\n    /* \"#utility.yul\":1679:1703   */\n  gt\n    /* \"#utility.yul\":1676:1678   */\n  iszero\n  tag_72\n  jumpi\n    /* \"#utility.yul\":1706:1724   */\n  tag_73\n  tag_74\n  jump\t// in\ntag_73:\n    /* \"#utility.yul\":1676:1678   */\ntag_72:\n    /* \"#utility.yul\":1756:1757   */\n  0x01\n    /* \"#utility.yul\":1746:1754   */\n  dup6\n    /* \"#utility.yul\":1742:1758   */\n  and\n    /* \"#utility.yul\":1739:1741   */\n  iszero\n  tag_75\n  jumpi\n    /* \"#utility.yul\":2171:2175   */\n  dup1\n    /* \"#utility.yul\":2164:2169   */\n  dup3\n    /* \"#utility.yul\":2160:2176   */\n  mul\n    /* \"#utility.yul\":2151:2176   */\n  swap2\n  pop\n    /* \"#utility.yul\":1739:1741   */\ntag_75:\n    /* \"#utility.yul\":2221:2225   */\n  dup1\n    /* \"#utility.yul\":2215:2219   */\n  dup2\n    /* \"#utility.yul\":2211:2226   */\n  mul\n    /* \"#utility.yul\":2203:2226   */\n  swap1\n  pop\n    /* \"#utility.yul\":2251:2283   */\n  tag_76\n    /* \"#utility.yul\":2274:2282   */\n  dup6\n    /* \"#utility.yul\":2251:2283   */\n  tag_77\n  jump\t// in\ntag_76:\n    /* \"#utility.yul\":2239:2283   */\n  swap5\n  pop\n    /* \"#utility.yul\":1581:2293   */\n  jump(tag_69)\ntag_71:\n    /* \"#utility.yul\":1524:2299   */\n  swap5\n  pop\n  swap5\n  swap3\n  pop\n  pop\n  pop\n  jump\t// out\n    /* \"#utility.yul\":2305:2586   */\ntag_2:\n    /* \"#utility.yul\":2363:2368   */\n  0x00\n    /* \"#utility.yul\":2387:2410   */\n  tag_79\n    /* \"#utility.yul\":2405:2409   */\n  dup3\n    /* \"#utility.yul\":2387:2410   */\n  tag_55\n  jump\t// in\ntag_79:\n    /* \"#utility.yul\":2379:2410   */\n  swap2\n  pop\n    /* \"#utility.yul\":2431:2456   */\n  tag_80\n    /* \"#utility.yul\":2447:2455   */\n  dup4\n    /* \"#utility.yul\":2431:2456   */\n  tag_81\n  jump\t// in\ntag_80:\n    /* \"#utility.yul\":2419:2456   */\n  swap3\n  pop\n    /* \"#utility.yul\":2475:2579   */\n  tag_82\n    /* \"#utility.yul\":2512:2578   */\n  0xffffffffffffffffffffffffffffffffffffffffffffffffffffffffffffffff\n    /* \"#utility.yul\":2502:2510   */\n  dup5\n    /* \"#utility.yul\":2496:2500   */\n  dup5\n    /* \"#utility.yul\":2475:2579   */\n  tag_83\n  jump\t// in\ntag_82:\n    /* \"#utility.yul\":2466:2579   */\n  swap1\n  pop\n    /* \"#utility.yul\":2369:2586   */\n  swap3\n  swap2\n  pop\n  pop\n  jump\t// out\n    /* \"#utility.yul\":2592:3665   */\ntag_83:\n    /* \"#utility.yul\":2646:2651   */\n  0x00\n    /* \"#utility.yul\":2837:2845   */\n  dup3\n    /* \"#utility.yul\":2827:2829   */\n  tag_85\n  jumpi\n    /* \"#utility.yul\":2858:2859   */\n  0x01\n    /* \"#utility.yul\":2849:2859   */\n  swap1\n  pop\n    /* \"#utility.yul\":2860:2865   */\n  jump(tag_84)\n    /* \"#utility.yul\":2827:2829   */\ntag_85:\n    /* \"#utility.yul\":2886:2890   */\n  dup2\n    /* \"#utility.yul\":2876:2878   */\n  tag_86\n  jumpi\n    /* \"#utility.yul\":2903:2904   */\n  0x00\n    /* \"#utility.yul\":2894:2904   */\n  swap1\n  pop\n    /* \"#utility.yul\":2905:2910   */\n  jump(tag_84)\n    /* \"#utility.yul\":2876:2878   */\ntag_86:\n    /* \"#utility.yul\":2972:2976   */\n  dup2\n    /* \"#utility.yul\":3020:3021   */\n  0x01\n    /* \"#utility.yul\":3015:3042   */\n  dup2\n  eq\n  tag_88\n  jumpi\n    /* \"#utility.yul\":3056:3057   */\n  0x02\n    /* \"#utility.yul\":3051:3242   */\n  dup2\n  eq\n  tag_89\n  jumpi\n    /* \"#utility.yul\":2965:3242   */\n  jump(tag_87)\n    /* \"#utility.yul\":3015:3042   */\ntag_88:\n    /* \"#utility.yul\":3033:3034   */\n  0x01\n    /* \"#utility.yul\":3024:3034   */\n  swap2\n  pop\n    /* \"#utility.yul\":3035:3040   */\n  pop\n  jump(tag_84)\n    /* \"#utility.yul\":3051:3242   */\ntag_89:\n    /* \"#utility.yul\":3096:3099   */\n  0xff\n    /* \"#utility.yul\":3086:3094   */\n  dup5\n    /* \"#utility.yul\":3083:3100   */\n  gt\n    /* \"#utility.yul\":3080:3082   */\n  iszero\n  tag_90\n  jumpi\n    /* \"#utility.yul\":3103:3121   */\n  tag_91\n  tag_74\n  jump\t// in\ntag_91:\n    /* \"#utility.yul\":3080:3082   */\ntag_90:\n    /* \"#utility.yul\":3152:3160   */\n  dup4\n    /* \"#utility.yul\":3149:3150   */\n  0x02\n    /* \"#utility.yul\":3145:3161   */\n  exp\n    /* \"#utility.yul\":3136:3161   */\n  swap2\n  pop\n    /* \"#utility.yul\":3187:3190   */\n  dup5\n    /* \"#utility.yul\":3180:3185   */\n  dup3\n    /* \"#utility.yul\":3177:3191   */\n  gt\n    /* \"#utility.yul\":3174:3176   */\n  iszero\n  tag_92\n  jumpi\n    /* \"#utility.yul\":3194:3212   */\n  tag_93\n  tag_74\n  jump\t// in\ntag_93:\n    /* \"#utility.yul\":3174:3176   */\ntag_92:\n    /* \"#utility.yul\":3227:3232   */\n  pop\n  jump(tag_84)\n    /* \"#utility.yul\":2965:3242   */\ntag_87:\n  pop\n    /* \"#utility.yul\":3351:3353   */\n  0x20\n    /* \"#utility.yul\":3341:3349   */\n  dup4\n    /* \"#utility.yul\":3338:3354   */\n  lt\n    /* \"#utility.yul\":3332:3335   */\n  0x0133\n    /* \"#utility.yul\":3326:3330   */\n  dup4\n    /* \"#utility.yul\":3323:3336   */\n  lt\n    /* \"#utility.yul\":3319:3355   */\n  and\n    /* \"#utility.yul\":3301:3303   */\n  0x4e\n    /* \"#utility.yul\":3291:3299   */\n  dup5\n    /* \"#utility.yul\":3288:3304   */\n  lt\n    /* \"#utility.yul\":3283:3285   */\n  0x0b\n    /* \"#utility.yul\":3277:3281   */\n  dup5\n    /* \"#utility.yul\":3274:3286   */\n  lt\n    /* \"#utility.yul\":3270:3305   */\n  and\n    /* \"#utility.yul\":3254:3365   */\n  or\n    /* \"#utility.yul\":3251:3253   */\n  iszero\n  tag_94\n  jumpi\n    /* \"#utility.yul\":3407:3415   */\n  dup3\n    /* \"#utility.yul\":3401:3405   */\n  dup3\n    /* \"#utility.yul\":3397:3416   */\n  exp\n    /* \"#utility.yul\":3388:3416   */\n  swap1\n  pop\n    /* \"#utility.yul\":3442:3445   */\n  dup4\n    /* \"#utility.yul\":3435:3440   */\n  dup2\n    /* \"#utility.yul\":3432:3446   */\n  gt\n    /* \"#utility.yul\":3429:3431   */\n  iszero\n  tag_95\n  jumpi\n    /* \"#utility.yul\":3449:3467   */\n  tag_96\n  tag_74\n  jump\t// in\ntag_96:\n    /* \"#utility.yul\":3429:3431   */\ntag_95:\n    /* \"#utility.yul\":3482:3487   */\n  jump(tag_84)\n    /* \"#utility.yul\":3251:3253   */\ntag_94:\n    /* \"#utility.yul\":3522:3564   */\n  tag_97\n    /* \"#utility.yul\":3560:3563   */\n  dup5\n    /* \"#utility.yul\":3550:3558   */\n  dup5\n    /* \"#utility.yul\":3544:3548   */\n  dup5\n    /* \"#utility.yul\":3541:3542   */\n  0x01\n    /* \"#utility.yul\":3522:3564   */\n  tag_67\n  jump\t// in\ntag_97:\n    /* \"#utility.yul\":3507:3564   */\n  swap3\n  pop\n  swap1\n  pop\n    /* \"#utility.yul\":3596:3600   */\n  dup2\n    /* \"#utility.yul\":3591:3594   */\n  dup5\n    /* \"#utility.yul\":3587:3601   */\n  div\n    /* \"#utility.yul\":3580:3585   */\n  dup2\n    /* \"#utility.yul\":3577:3602   */\n  gt\n    /* \"#utility.yul\":3574:3576   */\n  iszero\n  tag_98\n  jumpi\n    /* \"#utility.yul\":3605:3623   */\n  tag_99\n  tag_74\n  jump\t// in\ntag_99:\n    /* \"#utility.yul\":3574:3576   */\ntag_98:\n    /* \"#utility.yul\":3654:3658   */\n  dup2\n    /* \"#utility.yul\":3647:3652   */\n  dup2\n    /* \"#utility.yul\":3643:3659   */\n  mul\n    /* \"#utility.yul\":3634:3659   */\n  swap1\n  pop\n    /* \"#utility.yul\":2652:3665   */\ntag_84:\n  swap4\n  swap3\n  pop\n  pop\n  pop\n  jump\t// out\n    /* \"#utility.yul\":3671:4019   */\ntag_4:\n    /* \"#utility.yul\":3711:3718   */\n  0x00\n    /* \"#utility.yul\":3734:3754   */\n  tag_101\n    /* \"#utility.yul\":3752:3753   */\n  dup3\n    /* \"#utility.yul\":3734:3754   */\n  tag_55\n  jump\t// in\ntag_101:\n    /* \"#utility.yul\":3729:3754   */\n  swap2\n  pop\n    /* \"#utility.yul\":3768:3788   */\n  tag_102\n    /* \"#utility.yul\":3786:3787   */\n  dup4\n    /* \"#utility.yul\":3768:3788   */\n  tag_55\n  jump\t// in\ntag_102:\n    /* \"#utility.yul\":3763:3788   */\n  swap3\n  pop\n    /* \"#utility.yul\":3956:3957   */\n  dup2\n    /* \"#utility.yul\":3888:3954   */\n  0xffffffffffffffffffffffffffffffffffffffffffffffffffffffffffffffff\n    /* \"#utility.yul\":3884:3958   */\n  div\n    /* \"#utility.yul\":3881:3882   */\n  dup4\n    /* \"#utility.yul\":3878:3959   */\n  gt\n    /* \"#utility.yul\":3873:3874   */\n  dup3\n    /* \"#utility.yul\":3866:3875   */\n  iszero\n    /* \"#utility.yul\":3859:3876   */\n  iszero\n    /* \"#utility.yul\":3855:3960   */\n  and\n    /* \"#utility.yul\":3852:3854   */\n  iszero\n  tag_103\n  jumpi\n    /* \"#utility.yul\":3963:3981   */\n  tag_104\n  tag_74\n  jump\t// in\ntag_104:\n    /* \"#utility.yul\":3852:3854   */\ntag_103:\n    /* \"#utility.yul\":4011:4012   */\n  dup3\n    /* \"#utility.yul\":4008:4009   */\n  dup3\n    /* \"#utility.yul\":4004:4013   */\n  mul\n    /* \"#utility.yul\":3993:4013   */\n  swap1\n  pop\n    /* \"#utility.yul\":3719:4019   */\n  swap3\n  swap2\n  pop\n  pop\n  jump\t// out\n    /* \"#utility.yul\":4025:4121   */\ntag_51:\n    /* \"#utility.yul\":4062:4069   */\n  0x00\n    /* \"#utility.yul\":4091:4115   */\n  tag_106\n    /* \"#utility.yul\":4109:4114   */\n  dup3\n    /* \"#utility.yul\":4091:4115   */\n  tag_107\n  jump\t// in\ntag_106:\n    /* \"#utility.yul\":4080:4115   */\n  swap1\n  pop\n    /* \"#utility.yul\":4070:4121   */\n  swap2\n  swap1\n  pop\n  jump\t// out\n    /* \"#utility.yul\":4127:4253   */\ntag_107:\n    /* \"#utility.yul\":4164:4171   */\n  0x00\n    /* \"#utility.yul\":4204:4246   */\n  0xffffffffffffffffffffffffffffffffffffffff\n    /* \"#utility.yul\":4197:4202   */\n  dup3\n    /* \"#utility.yul\":4193:4247   */\n  and\n    /* \"#utility.yul\":4182:4247   */\n  swap1\n  pop\n    /* \"#utility.yul\":4172:4253   */\n  swap2\n  swap1\n  pop\n  jump\t// out\n    /* \"#utility.yul\":4259:4336   */\ntag_55:\n    /* \"#utility.yul\":4296:4303   */\n  0x00\n    /* \"#utility.yul\":4325:4330   */\n  dup2\n    /* \"#utility.yul\":4314:4330   */\n  swap1\n  pop\n    /* \"#utility.yul\":4304:4336   */\n  swap2\n  swap1\n  pop\n  jump\t// out\n    /* \"#utility.yul\":4342:4428   */\ntag_81:\n    /* \"#utility.yul\":4377:4384   */\n  0x00\n    /* \"#utility.yul\":4417:4421   */\n  0xff\n    /* \"#utility.yul\":4410:4415   */\n  dup3\n    /* \"#utility.yul\":4406:4422   */\n  and\n    /* \"#utility.yul\":4395:4422   */\n  swap1\n  pop\n    /* \"#utility.yul\":4385:4428   */\n  swap2\n  swap1\n  pop\n  jump\t// out\n    /* \"#utility.yul\":4434:4614   */\ntag_74:\n    /* \"#utility.yul\":4482:4559   */\n  0x4e487b7100000000000000000000000000000000000000000000000000000000\n    /* \"#utility.yul\":4479:4480   */\n  0x00\n    /* \"#utility.yul\":4472:4560   */\n  mstore\n    /* \"#utility.yul\":4579:4583   */\n  0x11\n    /* \"#utility.yul\":4576:4577   */\n  0x04\n    /* \"#utility.yul\":4569:4584   */\n  mstore\n    /* \"#utility.yul\":4603:4607   */\n  0x24\n    /* \"#utility.yul\":4600:4601   */\n  0x00\n    /* \"#utility.yul\":4593:4608   */\n  revert\n    /* \"#utility.yul\":4620:4800   */\ntag_66:\n    /* \"#utility.yul\":4668:4745   */\n  0x4e487b7100000000000000000000000000000000000000000000000000000000\n    /* \"#utility.yul\":4665:4666   */\n  0x00\n    /* \"#utility.yul\":4658:4746   */\n  mstore\n    /* \"#utility.yul\":4765:4769   */\n  0x12\n    /* \"#utility.yul\":4762:4763   */\n  0x04\n    /* \"#utility.yul\":4755:4770   */\n  mstore\n    /* \"#utility.yul\":4789:4793   */\n  0x24\n    /* \"#utility.yul\":4786:4787   */\n  0x00\n    /* \"#utility.yul\":4779:4794   */\n  revert\n    /* \"#utility.yul\":4806:4908   */\ntag_77:\n    /* \"#utility.yul\":4848:4856   */\n  0x00\n    /* \"#utility.yul\":4895:4900   */\n  dup2\n    /* \"#utility.yul\":4892:4893   */\n  0x01\n    /* \"#utility.yul\":4888:4901   */\n  shr\n    /* \"#utility.yul\":4867:4901   */\n  swap1\n  pop\n    /* \"#utility.yul\":4857:4908   */\n  swap2\n  swap1\n  pop\n  jump\t// out\n    /* \"#utility.yul\":4914:5036   */\ntag_44:\n    /* \"#utility.yul\":4987:5011   */\n  tag_115\n    /* \"#utility.yul\":5005:5010   */\n  dup2\n    /* \"#utility.yul\":4987:5011   */\n  tag_51\n  jump\t// in\ntag_115:\n    /* \"#utility.yul\":4980:4985   */\n  dup2\n    /* \"#utility.yul\":4977:5012   */\n  eq\n    /* \"#utility.yul\":4967:4969   */\n  tag_116\n  jumpi\n    /* \"#utility.yul\":5026:5027   */\n  0x00\n    /* \"#utility.yul\":5023:5024   */\n  dup1\n    /* \"#utility.yul\":5016:5028   */\n  revert\n    /* \"#utility.yul\":4967:4969   */\ntag_116:\n    /* \"#utility.yul\":4957:5036   */\n  pop\n  jump\t// out\n    /* \"webtoken.sol\":6529:19937  contract CookieCoin is IBEP20, Auth {... */\ntag_35:\n  dataSize(sub_0)\n  dup1\n  dataOffset(sub_0)\n  0x00\n  codecopy\n  0x00\n  return\nstop\n\nsub_0: assembly {\n        /* \"webtoken.sol\":6529:19937  contract CookieCoin is IBEP20, Auth {... */\n      mstore(0x40, 0x80)\n      jumpi(tag_1, lt(calldatasize, 0x04))\n      shr(0xe0, calldataload(0x00))\n      dup1\n      0x95d89b41\n      gt\n      tag_50\n      jumpi\n      dup1\n      0xd806d12f\n      gt\n      tag_51\n      jumpi\n      dup1\n      0xf1f3bca3\n      gt\n      tag_52\n      jumpi\n      dup1\n      0xf1f3bca3\n      eq\n      tag_44\n      jumpi\n      dup1\n      0xf2fde38b\n      eq\n      tag_45\n      jumpi\n      dup1\n      0xf5cfec0a\n      eq\n      tag_46\n      jumpi\n      dup1\n      0xf84ba65d\n      eq\n      tag_47\n      jumpi\n      dup1\n      0xf887ea40\n      eq\n      tag_48\n      jumpi\n      dup1\n      0xfe9fbb80\n      eq\n      tag_49\n      jumpi\n      jump(tag_2)\n    tag_52:\n      dup1\n      0xd806d12f\n      eq\n      tag_38\n      jumpi\n      dup1\n      0xdd62ed3e\n      eq\n      tag_39\n      jumpi\n      dup1\n      0xdf20fd49\n      eq\n      tag_40\n      jumpi\n      dup1\n      0xe91f214e\n      eq\n      tag_41\n      jumpi\n      dup1\n      0xe96fada2\n      eq\n      tag_42\n      jumpi\n      dup1\n      0xf0b37c04\n      eq\n      tag_43\n      jumpi\n      jump(tag_2)\n    tag_51:\n      dup1\n      0xb210b06d\n      gt\n      tag_53\n      jumpi\n      dup1\n      0xb210b06d\n      eq\n      tag_32\n      jumpi\n      dup1\n      0xb6a5d7de\n      eq\n      tag_33\n      jumpi\n      dup1\n      0xbf56b371\n      eq\n      tag_34\n      jumpi\n      dup1\n      0xc6d2577d\n      eq\n      tag_35\n      jumpi\n      dup1\n      0xca33e64c\n      eq\n      tag_36\n      jumpi\n      dup1\n      0xd51ed1c8\n      eq\n      tag_37\n      jumpi\n      jump(tag_2)\n    tag_53:\n      dup1\n      0x95d89b41\n      eq\n      tag_26\n      jumpi\n      dup1\n      0x9d1944f5\n      eq\n      tag_27\n      jumpi\n      dup1\n      0xa4b45c00\n      eq\n      tag_28\n      jumpi\n      dup1\n      0xa51af4c5\n      eq\n      tag_29\n      jumpi\n      dup1\n      0xa8aa1b31\n      eq\n      tag_30\n      jumpi\n      dup1\n      0xa9059cbb\n      eq\n      tag_31\n      jumpi\n      jump(tag_2)\n    tag_50:\n      dup1\n      0x2b112e49\n      gt\n      tag_54\n      jumpi\n      dup1\n      0x658d4b7f\n      gt\n      tag_55\n      jumpi\n      dup1\n      0x658d4b7f\n      eq\n      tag_20\n      jumpi\n      dup1\n      0x6ddd1713\n      eq\n      tag_21\n      jumpi\n      dup1\n      0x70a08231\n      eq\n      tag_22\n      jumpi\n      dup1\n      0x7d1db4a5\n      eq\n      tag_23\n      jumpi\n      dup1\n      0x893d20e8\n      eq\n      tag_24\n      jumpi\n      dup1\n      0x8dd95002\n      eq\n      tag_25\n      jumpi\n      jump(tag_2)\n    tag_55:\n      dup1\n      0x2b112e49\n      eq\n      tag_14\n      jumpi\n      dup1\n      0x2f54bf6e\n      eq\n      tag_15\n      jumpi\n      dup1\n      0x313ce567\n      eq\n      tag_16\n      jumpi\n      dup1\n      0x3bb8a8d4\n      eq\n      tag_17\n      jumpi\n      dup1\n      0x571ac8b0\n      eq\n      tag_18\n      jumpi\n      dup1\n      0x5c85974f\n      eq\n      tag_19\n      jumpi\n      jump(tag_2)\n    tag_54:\n      dup1\n      0x095ea7b3\n      gt\n      tag_56\n      jumpi\n      dup1\n      0x095ea7b3\n      eq\n      tag_8\n      jumpi\n      dup1\n      0x1161ae39\n      eq\n      tag_9\n      jumpi\n      dup1\n      0x18160ddd\n      eq\n      tag_10\n      jumpi\n      dup1\n      0x201e7991\n      eq\n      tag_11\n      jumpi\n      dup1\n      0x2375ce40\n      eq\n      tag_12\n      jumpi\n      dup1\n      0x23b872dd\n      eq\n      tag_13\n      jumpi\n      jump(tag_2)\n    tag_56:\n      dup1\n      0x01339c21\n      eq\n      tag_3\n      jumpi\n      dup1\n      0x0445b667\n      eq\n      tag_4\n      jumpi\n      dup1\n      0x048c7baf\n      eq\n      tag_5\n      jumpi\n      dup1\n      0x04a66b48\n      eq\n      tag_6\n      jumpi\n      dup1\n      0x06fdde03\n      eq\n      tag_7\n      jumpi\n      jump(tag_2)\n    tag_1:\n      jumpi(tag_2, calldatasize)\n      stop\n    tag_2:\n      0x00\n      dup1\n      revert\n        /* \"webtoken.sol\":17622:17805  function launch() public authorized {... */\n    tag_3:\n      callvalue\n      dup1\n      iszero\n      tag_59\n      jumpi\n      0x00\n      dup1\n      revert\n    tag_59:\n      pop\n      tag_60\n      tag_61\n      jump\t// in\n    tag_60:\n      stop\n        /* \"webtoken.sol\":8463:8513  uint256 public swapThreshold = _totalSupply / 2000 */\n    tag_4:\n      callvalue\n      dup1\n      iszero\n      tag_62\n      jumpi\n      0x00\n      dup1\n      revert\n    tag_62:\n      pop\n      tag_63\n      tag_64\n      jump\t// in\n    tag_63:\n      mload(0x40)\n      tag_65\n      swap2\n      swap1\n      tag_66\n      jump\t// in\n    tag_65:\n      mload(0x40)\n      dup1\n      swap2\n      sub\n      swap1\n      return\n        /* \"webtoken.sol\":16827:17179  function setAutoBuybackSettings(bool _enabled, uint256 _cap, uint256 _amount, uint256 _period) external authorized {... */\n    tag_5:\n      callvalue\n      dup1\n      iszero\n      tag_67\n      jumpi\n      0x00\n      dup1\n      revert\n    tag_67:\n      pop\n      tag_68\n      0x04\n      dup1\n      calldatasize\n      sub\n      dup2\n      add\n      swap1\n      tag_69\n      swap2\n      swap1\n      tag_70\n      jump\t// in\n    tag_69:\n      tag_71\n      jump\t// in\n    tag_68:\n      stop\n        /* \"webtoken.sol\":18219:18633  function setFees(uint256 _liquidityFee, uint256 _buybackFee, uint256 _reflectionFee, uint256 _marketingFee, uint256 _feeDenominator) external authorized {... */\n    tag_6:\n      callvalue\n      dup1\n      iszero\n      tag_72\n      jumpi\n      0x00\n      dup1\n      revert\n    tag_72:\n      pop\n      tag_73\n      0x04\n      dup1\n      calldatasize\n      sub\n      dup2\n      add\n      swap1\n      tag_74\n      swap2\n      swap1\n      tag_75\n      jump\t// in\n    tag_74:\n      tag_76\n      jump\t// in\n    tag_73:\n      stop\n        /* \"webtoken.sol\":9740:9820  function name() external pure override returns (string memory) { return _name; } */\n    tag_7:\n      callvalue\n      dup1\n      iszero\n      tag_77\n      jumpi\n      0x00\n      dup1\n      revert\n    tag_77:\n      pop\n      tag_78\n      tag_79\n      jump\t// in\n    tag_78:\n      mload(0x40)\n      tag_80\n      swap2\n      swap1\n      tag_81\n      jump\t// in\n    tag_80:\n      mload(0x40)\n      dup1\n      swap2\n      sub\n      swap1\n      return\n        /* \"webtoken.sol\":10237:10449  function approve(address spender, uint256 amount) public override returns (bool) {... */\n    tag_8:\n      callvalue\n      dup1\n      iszero\n      tag_82\n      jumpi\n      0x00\n      dup1\n      revert\n    tag_82:\n      pop\n      tag_83\n      0x04\n      dup1\n      calldatasize\n      sub\n      dup2\n      add\n      swap1\n      tag_84\n      swap2\n      swap1\n      tag_85\n      jump\t// in\n    tag_84:\n      tag_86\n      jump\t// in\n    tag_83:\n      mload(0x40)\n      tag_87\n      swap2\n      swap1\n      tag_88\n      jump\t// in\n    tag_87:\n      mload(0x40)\n      dup1\n      swap2\n      sub\n      swap1\n      return\n        /* \"webtoken.sol\":19672:19820  function isOverLiquified(uint256 target, uint256 accuracy) public view returns (bool) {... */\n    tag_9:\n      callvalue\n      dup1\n      iszero\n      tag_89\n      jumpi\n      0x00\n      dup1\n      revert\n    tag_89:\n      pop\n      tag_90\n      0x04\n      dup1\n      calldatasize\n      sub\n      dup2\n      add\n      swap1\n      tag_91\n      swap2\n      swap1\n      tag_92\n      jump\t// in\n    tag_91:\n      tag_93\n      jump\t// in\n    tag_90:\n      mload(0x40)\n      tag_94\n      swap2\n      swap1\n      tag_88\n      jump\t// in\n    tag_94:\n      mload(0x40)\n      dup1\n      swap2\n      sub\n      swap1\n      return\n        /* \"webtoken.sol\":9473:9561  function totalSupply() external view override returns (uint256) { return _totalSupply; } */\n    tag_10:\n      callvalue\n      dup1\n      iszero\n      tag_95\n      jumpi\n      0x00\n      dup1\n      revert\n    tag_95:\n      pop\n      tag_96\n      tag_97\n      jump\t// in\n    tag_96:\n      mload(0x40)\n      tag_98\n      swap2\n      swap1\n      tag_66\n      jump\t// in\n    tag_98:\n      mload(0x40)\n      dup1\n      swap2\n      sub\n      swap1\n      return\n        /* \"webtoken.sol\":19029:19209  function setTargetLiquidity(uint256 _target, uint256 _denominator) external authorized {... */\n    tag_11:\n      callvalue\n      dup1\n      iszero\n      tag_99\n      jumpi\n      0x00\n      dup1\n      revert\n    tag_99:\n      pop\n      tag_100\n      0x04\n      dup1\n      calldatasize\n      sub\n      dup2\n      add\n      swap1\n      tag_101\n      swap2\n      swap1\n      tag_92\n      jump\t// in\n    tag_101:\n      tag_102\n      jump\t// in\n    tag_100:\n      stop\n        /* \"webtoken.sol\":17185:17522  function setBuybackMultiplierSettings(uint256 numerator, uint256 denominator, uint256 length) external authorized {... */\n    tag_12:\n      callvalue\n      dup1\n      iszero\n      tag_103\n      jumpi\n      0x00\n      dup1\n      revert\n    tag_103:\n      pop\n      tag_104\n      0x04\n      dup1\n      calldatasize\n      sub\n      dup2\n      add\n      swap1\n      tag_105\n      swap2\n      swap1\n      tag_106\n      jump\t// in\n    tag_105:\n      tag_107\n      jump\t// in\n    tag_104:\n      stop\n        /* \"webtoken.sol\":10736:11095  function transferFrom(address sender, address recipient, uint256 amount) external override returns (bool) {... */\n    tag_13:\n      callvalue\n      dup1\n      iszero\n      tag_108\n      jumpi\n      0x00\n      dup1\n      revert\n    tag_108:\n      pop\n      tag_109\n      0x04\n      dup1\n      calldatasize\n      sub\n      dup2\n      add\n      swap1\n      tag_110\n      swap2\n      swap1\n      tag_111\n      jump\t// in\n    tag_110:\n      tag_112\n      jump\t// in\n    tag_109:\n      mload(0x40)\n      tag_113\n      swap2\n      swap1\n      tag_88\n      jump\t// in\n    tag_113:\n      mload(0x40)\n      dup1\n      swap2\n      sub\n      swap1\n      return\n        /* \"webtoken.sol\":19355:19495  function getCirculatingSupply() public view returns (uint256) {... */\n    tag_14:\n      callvalue\n      dup1\n      iszero\n      tag_114\n      jumpi\n      0x00\n      dup1\n      revert\n    tag_114:\n      pop\n      tag_115\n      tag_116\n      jump\t// in\n    tag_115:\n      mload(0x40)\n      tag_117\n      swap2\n      swap1\n      tag_66\n      jump\t// in\n    tag_117:\n      mload(0x40)\n      dup1\n      swap2\n      sub\n      swap1\n      return\n        /* \"webtoken.sol\":4499:4600  function isOwner(address account) public view returns (bool) {... */\n    tag_15:\n      callvalue\n      dup1\n      iszero\n      tag_118\n      jumpi\n      0x00\n      dup1\n      revert\n    tag_118:\n      pop\n      tag_119\n      0x04\n      dup1\n      calldatasize\n      sub\n      dup2\n      add\n      swap1\n      tag_120\n      swap2\n      swap1\n      tag_121\n      jump\t// in\n    tag_120:\n      tag_122\n      jump\t// in\n    tag_119:\n      mload(0x40)\n      tag_123\n      swap2\n      swap1\n      tag_88\n      jump\t// in\n    tag_123:\n      mload(0x40)\n      dup1\n      swap2\n      sub\n      swap1\n      return\n        /* \"webtoken.sol\":9566:9646  function decimals() external pure override returns (uint8) { return _decimals; } */\n    tag_16:\n      callvalue\n      dup1\n      iszero\n      tag_124\n      jumpi\n      0x00\n      dup1\n      revert\n    tag_124:\n      pop\n      tag_125\n      tag_126\n      jump\t// in\n    tag_125:\n      mload(0x40)\n      tag_127\n      swap2\n      swap1\n      tag_128\n      jump\t// in\n    tag_127:\n      mload(0x40)\n      dup1\n      swap2\n      sub\n      swap1\n      return\n        /* \"webtoken.sol\":8098:8136  bool public autoBuybackEnabled = false */\n    tag_17:\n      callvalue\n      dup1\n      iszero\n      tag_129\n      jumpi\n      0x00\n      dup1\n      revert\n    tag_129:\n      pop\n      tag_130\n      tag_131\n      jump\t// in\n    tag_130:\n      mload(0x40)\n      tag_132\n      swap2\n      swap1\n      tag_88\n      jump\t// in\n    tag_132:\n      mload(0x40)\n      dup1\n      swap2\n      sub\n      swap1\n      return\n        /* \"webtoken.sol\":10455:10570  function approveMax(address spender) external returns (bool) {... */\n    tag_18:\n      callvalue\n      dup1\n      iszero\n      tag_133\n      jumpi\n      0x00\n      dup1\n      revert\n    tag_133:\n      pop\n      tag_134\n      0x04\n      dup1\n      calldatasize\n      sub\n      dup2\n      add\n      swap1\n      tag_135\n      swap2\n      swap1\n      tag_121\n      jump\t// in\n    tag_135:\n      tag_136\n      jump\t// in\n    tag_134:\n      mload(0x40)\n      tag_137\n      swap2\n      swap1\n      tag_88\n      jump\t// in\n    tag_137:\n      mload(0x40)\n      dup1\n      swap2\n      sub\n      swap1\n      return\n        /* \"webtoken.sol\":17811:17953  function setTxLimit(uint256 amount) external authorized {... */\n    tag_19:\n      callvalue\n      dup1\n      iszero\n      tag_138\n      jumpi\n      0x00\n      dup1\n      revert\n    tag_138:\n      pop\n      tag_139\n      0x04\n      dup1\n      calldatasize\n      sub\n      dup2\n      add\n      swap1\n      tag_140\n      swap2\n      swap1\n      tag_141\n      jump\t// in\n    tag_140:\n      tag_142\n      jump\t// in\n    tag_139:\n      stop\n        /* \"webtoken.sol\":17963:18081  function setIsFeeExempt(address holder, bool exempt) external authorized {... */\n    tag_20:\n      callvalue\n      dup1\n      iszero\n      tag_143\n      jumpi\n      0x00\n      dup1\n      revert\n    tag_143:\n      pop\n      tag_144\n      0x04\n      dup1\n      calldatasize\n      sub\n      dup2\n      add\n      swap1\n      tag_145\n      swap2\n      swap1\n      tag_146\n      jump\t// in\n    tag_145:\n      tag_147\n      jump\t// in\n    tag_144:\n      stop\n        /* \"webtoken.sol\":8427:8457  bool public swapEnabled = true */\n    tag_21:\n      callvalue\n      dup1\n      iszero\n      tag_148\n      jumpi\n      0x00\n      dup1\n      revert\n    tag_148:\n      pop\n      tag_149\n      tag_150\n      jump\t// in\n    tag_149:\n      mload(0x40)\n      tag_151\n      swap2\n      swap1\n      tag_88\n      jump\t// in\n    tag_151:\n      mload(0x40)\n      dup1\n      swap2\n      sub\n      swap1\n      return\n        /* \"webtoken.sol\":9988:10093  function balanceOf(address account) public view override returns (uint256) { return _balances[account]; } */\n    tag_22:\n      callvalue\n      dup1\n      iszero\n      tag_152\n      jumpi\n      0x00\n      dup1\n      revert\n    tag_152:\n      pop\n      tag_153\n      0x04\n      dup1\n      calldatasize\n      sub\n      dup2\n      add\n      swap1\n      tag_154\n      swap2\n      swap1\n      tag_121\n      jump\t// in\n    tag_154:\n      tag_155\n      jump\t// in\n    tag_153:\n      mload(0x40)\n      tag_156\n      swap2\n      swap1\n      tag_66\n      jump\t// in\n    tag_156:\n      mload(0x40)\n      dup1\n      swap2\n      sub\n      swap1\n      return\n        /* \"webtoken.sol\":7171:7222  uint256 public _maxTxAmount = _totalSupply.div(400) */\n    tag_23:\n      callvalue\n      dup1\n      iszero\n      tag_157\n      jumpi\n      0x00\n      dup1\n      revert\n    tag_157:\n      pop\n      tag_158\n      tag_159\n      jump\t// in\n    tag_158:\n      mload(0x40)\n      tag_160\n      swap2\n      swap1\n      tag_66\n      jump\t// in\n    tag_160:\n      mload(0x40)\n      dup1\n      swap2\n      sub\n      swap1\n      return\n        /* \"webtoken.sol\":9825:9903  function getOwner() external view override returns (address) { return owner; } */\n    tag_24:\n      callvalue\n      dup1\n      iszero\n      tag_161\n      jumpi\n      0x00\n      dup1\n      revert\n    tag_161:\n      pop\n      tag_162\n      tag_163\n      jump\t// in\n    tag_162:\n      mload(0x40)\n      tag_164\n      swap2\n      swap1\n      tag_165\n      jump\t// in\n    tag_164:\n      mload(0x40)\n      dup1\n      swap2\n      sub\n      swap1\n      return\n        /* \"webtoken.sol\":6721:6785  address public WBNB = 0xbb4CdB9CBd36B01bD1cBaEBF2De08d9173bc095c */\n    tag_25:\n      callvalue\n      dup1\n      iszero\n      tag_166\n      jumpi\n      0x00\n      dup1\n      revert\n    tag_166:\n      pop\n      tag_167\n      tag_168\n      jump\t// in\n    tag_167:\n      mload(0x40)\n      tag_169\n      swap2\n      swap1\n      tag_165\n      jump\t// in\n    tag_169:\n      mload(0x40)\n      dup1\n      swap2\n      sub\n      swap1\n      return\n        /* \"webtoken.sol\":9651:9735  function symbol() external pure override returns (string memory) { return _symbol; } */\n    tag_26:\n      callvalue\n      dup1\n      iszero\n      tag_170\n      jumpi\n      0x00\n      dup1\n      revert\n    tag_170:\n      pop\n      tag_171\n      tag_172\n      jump\t// in\n    tag_171:\n      mload(0x40)\n      tag_173\n      swap2\n      swap1\n      tag_81\n      jump\t// in\n    tag_173:\n      mload(0x40)\n      dup1\n      swap2\n      sub\n      swap1\n      return\n        /* \"webtoken.sol\":19216:19349  function setDistributorSettings(uint256 gas) external authorized {... */\n    tag_27:\n      callvalue\n      dup1\n      iszero\n      tag_174\n      jumpi\n      0x00\n      dup1\n      revert\n    tag_174:\n      pop\n      tag_175\n      0x04\n      dup1\n      calldatasize\n      sub\n      dup2\n      add\n      swap1\n      tag_176\n      swap2\n      swap1\n      tag_141\n      jump\t// in\n    tag_176:\n      tag_177\n      jump\t// in\n    tag_175:\n      stop\n        /* \"webtoken.sol\":18639:18864  function setFeeReceivers(address _autoLiquidityReceiver, address _marketingFeeReceiver) external authorized {... */\n    tag_28:\n      callvalue\n      dup1\n      iszero\n      tag_178\n      jumpi\n      0x00\n      dup1\n      revert\n    tag_178:\n      pop\n      tag_179\n      0x04\n      dup1\n      calldatasize\n      sub\n      dup2\n      add\n      swap1\n      tag_180\n      swap2\n      swap1\n      tag_181\n      jump\t// in\n    tag_180:\n      tag_182\n      jump\t// in\n    tag_179:\n      stop\n        /* \"webtoken.sol\":8349:8382  address public distributorAddress */\n    tag_29:\n      callvalue\n      dup1\n      iszero\n      tag_183\n      jumpi\n      0x00\n      dup1\n      revert\n    tag_183:\n      pop\n      tag_184\n      tag_185\n      jump\t// in\n    tag_184:\n      mload(0x40)\n      tag_186\n      swap2\n      swap1\n      tag_165\n      jump\t// in\n    tag_186:\n      mload(0x40)\n      dup1\n      swap2\n      sub\n      swap1\n      return\n        /* \"webtoken.sol\":7813:7832  address public pair */\n    tag_30:\n      callvalue\n      dup1\n      iszero\n      tag_187\n      jumpi\n      0x00\n      dup1\n      revert\n    tag_187:\n      pop\n      tag_188\n      tag_189\n      jump\t// in\n    tag_188:\n      mload(0x40)\n      tag_190\n      swap2\n      swap1\n      tag_165\n      jump\t// in\n    tag_190:\n      mload(0x40)\n      dup1\n      swap2\n      sub\n      swap1\n      return\n        /* \"webtoken.sol\":10576:10730  function transfer(address recipient, uint256 amount) external override returns (bool) {... */\n    tag_31:\n      callvalue\n      dup1\n      iszero\n      tag_191\n      jumpi\n      0x00\n      dup1\n      revert\n    tag_191:\n      pop\n      tag_192\n      0x04\n      dup1\n      calldatasize\n      sub\n      dup2\n      add\n      swap1\n      tag_193\n      swap2\n      swap1\n      tag_85\n      jump\t// in\n    tag_193:\n      tag_194\n      jump\t// in\n    tag_192:\n      mload(0x40)\n      tag_195\n      swap2\n      swap1\n      tag_88\n      jump\t// in\n    tag_195:\n      mload(0x40)\n      dup1\n      swap2\n      sub\n      swap1\n      return\n        /* \"webtoken.sol\":16058:16161  function clearBuybackMultiplier() external authorized {... */\n    tag_32:\n      callvalue\n      dup1\n      iszero\n      tag_196\n      jumpi\n      0x00\n      dup1\n      revert\n    tag_196:\n      pop\n      tag_197\n      tag_198\n      jump\t// in\n    tag_197:\n      stop\n        /* \"webtoken.sol\":4186:4278  function authorize(address adr) public onlyOwner {... */\n    tag_33:\n      callvalue\n      dup1\n      iszero\n      tag_199\n      jumpi\n      0x00\n      dup1\n      revert\n    tag_199:\n      pop\n      tag_200\n      0x04\n      dup1\n      calldatasize\n      sub\n      dup2\n      add\n      swap1\n      tag_201\n      swap2\n      swap1\n      tag_121\n      jump\t// in\n    tag_201:\n      tag_202\n      jump\t// in\n    tag_200:\n      stop\n        /* \"webtoken.sol\":7839:7864  uint256 public launchedAt */\n    tag_34:\n      callvalue\n      dup1\n      iszero\n      tag_203\n      jumpi\n      0x00\n      dup1\n      revert\n    tag_203:\n      pop\n      tag_204\n      tag_205\n      jump\t// in\n    tag_204:\n      mload(0x40)\n      tag_206\n      swap2\n      swap1\n      tag_66\n      jump\t// in\n    tag_206:\n      mload(0x40)\n      dup1\n      swap2\n      sub\n      swap1\n      return\n        /* \"webtoken.sol\":7870:7904  uint256 public launchedAtTimestamp */\n    tag_35:\n      callvalue\n      dup1\n      iszero\n      tag_207\n      jumpi\n      0x00\n      dup1\n      revert\n    tag_207:\n      pop\n      tag_208\n      tag_209\n      jump\t// in\n    tag_208:\n      mload(0x40)\n      tag_210\n      swap2\n      swap1\n      tag_66\n      jump\t// in\n    tag_210:\n      mload(0x40)\n      dup1\n      swap2\n      sub\n      swap1\n      return\n        /* \"webtoken.sol\":7618:7654  address public autoLiquidityReceiver */\n    tag_36:\n      callvalue\n      dup1\n      iszero\n      tag_211\n      jumpi\n      0x00\n      dup1\n      revert\n    tag_211:\n      pop\n      tag_212\n      tag_213\n      jump\t// in\n    tag_212:\n      mload(0x40)\n      tag_214\n      swap2\n      swap1\n      tag_165\n      jump\t// in\n    tag_214:\n      mload(0x40)\n      dup1\n      swap2\n      sub\n      swap1\n      return\n        /* \"webtoken.sol\":19501:19666  function getLiquidityBacking(uint256 accuracy) public view returns (uint256) {... */\n    tag_37:\n      callvalue\n      dup1\n      iszero\n      tag_215\n      jumpi\n      0x00\n      dup1\n      revert\n    tag_215:\n      pop\n      tag_216\n      0x04\n      dup1\n      calldatasize\n      sub\n      dup2\n      add\n      swap1\n      tag_217\n      swap2\n      swap1\n      tag_141\n      jump\t// in\n    tag_217:\n      tag_218\n      jump\t// in\n    tag_216:\n      mload(0x40)\n      tag_219\n      swap2\n      swap1\n      tag_66\n      jump\t// in\n    tag_219:\n      mload(0x40)\n      dup1\n      swap2\n      sub\n      swap1\n      return\n        /* \"webtoken.sol\":12729:13383  function getMultipliedFee() public view returns (uint256) {... */\n    tag_38:\n      callvalue\n      dup1\n      iszero\n      tag_220\n      jumpi\n      0x00\n      dup1\n      revert\n    tag_220:\n      pop\n      tag_221\n      tag_222\n      jump\t// in\n    tag_221:\n      mload(0x40)\n      tag_223\n      swap2\n      swap1\n      tag_66\n      jump\t// in\n    tag_223:\n      mload(0x40)\n      dup1\n      swap2\n      sub\n      swap1\n      return\n        /* \"webtoken.sol\":10098:10231  function allowance(address holder, address spender) external view override returns (uint256) { return _allowances[holder][spender]; } */\n    tag_39:\n      callvalue\n      dup1\n      iszero\n      tag_224\n      jumpi\n      0x00\n      dup1\n      revert\n    tag_224:\n      pop\n      tag_225\n      0x04\n      dup1\n      calldatasize\n      sub\n      dup2\n      add\n      swap1\n      tag_226\n      swap2\n      swap1\n      tag_181\n      jump\t// in\n    tag_226:\n      tag_227\n      jump\t// in\n    tag_225:\n      mload(0x40)\n      tag_228\n      swap2\n      swap1\n      tag_66\n      jump\t// in\n    tag_228:\n      mload(0x40)\n      dup1\n      swap2\n      sub\n      swap1\n      return\n        /* \"webtoken.sol\":18870:19023  function setSwapBackSettings(bool _enabled, uint256 _amount) external authorized {... */\n    tag_40:\n      callvalue\n      dup1\n      iszero\n      tag_229\n      jumpi\n      0x00\n      dup1\n      revert\n    tag_229:\n      pop\n      tag_230\n      0x04\n      dup1\n      calldatasize\n      sub\n      dup2\n      add\n      swap1\n      tag_231\n      swap2\n      swap1\n      tag_232\n      jump\t// in\n    tag_231:\n      tag_233\n      jump\t// in\n    tag_230:\n      stop\n        /* \"webtoken.sol\":6604:6652  uint256 public constant MASK = type(uint128).max */\n    tag_41:\n      callvalue\n      dup1\n      iszero\n      tag_234\n      jumpi\n      0x00\n      dup1\n      revert\n    tag_234:\n      pop\n      tag_235\n      tag_236\n      jump\t// in\n    tag_235:\n      mload(0x40)\n      tag_237\n      swap2\n      swap1\n      tag_66\n      jump\t// in\n    tag_237:\n      mload(0x40)\n      dup1\n      swap2\n      sub\n      swap1\n      return\n        /* \"webtoken.sol\":7660:7695  address public marketingFeeReceiver */\n    tag_42:\n      callvalue\n      dup1\n      iszero\n      tag_238\n      jumpi\n      0x00\n      dup1\n      revert\n    tag_238:\n      pop\n      tag_239\n      tag_240\n      jump\t// in\n    tag_239:\n      mload(0x40)\n      tag_241\n      swap2\n      swap1\n      tag_165\n      jump\t// in\n    tag_241:\n      mload(0x40)\n      dup1\n      swap2\n      sub\n      swap1\n      return\n        /* \"webtoken.sol\":4349:4444  function unauthorize(address adr) public onlyOwner {... */\n    tag_43:\n      callvalue\n      dup1\n      iszero\n      tag_242\n      jumpi\n      0x00\n      dup1\n      revert\n    tag_242:\n      pop\n      tag_243\n      0x04\n      dup1\n      calldatasize\n      sub\n      dup2\n      add\n      swap1\n      tag_244\n      swap2\n      swap1\n      tag_121\n      jump\t// in\n    tag_244:\n      tag_245\n      jump\t// in\n    tag_243:\n      stop\n        /* \"webtoken.sol\":12500:12723  function getTotalFee(bool selling) public view returns (uint256) {... */\n    tag_44:\n      callvalue\n      dup1\n      iszero\n      tag_246\n      jumpi\n      0x00\n      dup1\n      revert\n    tag_246:\n      pop\n      tag_247\n      0x04\n      dup1\n      calldatasize\n      sub\n      dup2\n      add\n      swap1\n      tag_248\n      swap2\n      swap1\n      tag_249\n      jump\t// in\n    tag_248:\n      tag_250\n      jump\t// in\n    tag_247:\n      mload(0x40)\n      tag_251\n      swap2\n      swap1\n      tag_66\n      jump\t// in\n    tag_251:\n      mload(0x40)\n      dup1\n      swap2\n      sub\n      swap1\n      return\n        /* \"webtoken.sol\":4885:5054  function transferOwnership(address payable adr) public onlyOwner {... */\n    tag_45:\n      callvalue\n      dup1\n      iszero\n      tag_252\n      jumpi\n      0x00\n      dup1\n      revert\n    tag_252:\n      pop\n      tag_253\n      0x04\n      dup1\n      calldatasize\n      sub\n      dup2\n      add\n      swap1\n      tag_254\n      swap2\n      swap1\n      tag_255\n      jump\t// in\n    tag_254:\n      tag_256\n      jump\t// in\n    tag_253:\n      stop\n        /* \"webtoken.sol\":15742:16052  function triggerZeusBuyback(uint256 amount, bool triggerBuybackMultiplier) external authorized {... */\n    tag_46:\n      callvalue\n      dup1\n      iszero\n      tag_257\n      jumpi\n      0x00\n      dup1\n      revert\n    tag_257:\n      pop\n      tag_258\n      0x04\n      dup1\n      calldatasize\n      sub\n      dup2\n      add\n      swap1\n      tag_259\n      swap2\n      swap1\n      tag_260\n      jump\t// in\n    tag_259:\n      tag_261\n      jump\t// in\n    tag_258:\n      stop\n        /* \"webtoken.sol\":18087:18213  function setIsTxLimitExempt(address holder, bool exempt) external authorized {... */\n    tag_47:\n      callvalue\n      dup1\n      iszero\n      tag_262\n      jumpi\n      0x00\n      dup1\n      revert\n    tag_262:\n      pop\n      tag_263\n      0x04\n      dup1\n      calldatasize\n      sub\n      dup2\n      add\n      swap1\n      tag_264\n      swap2\n      swap1\n      tag_146\n      jump\t// in\n    tag_264:\n      tag_265\n      jump\t// in\n    tag_263:\n      stop\n        /* \"webtoken.sol\":7783:7807  IDEXRouter public router */\n    tag_48:\n      callvalue\n      dup1\n      iszero\n      tag_266\n      jumpi\n      0x00\n      dup1\n      revert\n    tag_266:\n      pop\n      tag_267\n      tag_268\n      jump\t// in\n    tag_267:\n      mload(0x40)\n      tag_269\n      swap2\n      swap1\n      tag_270\n      jump\t// in\n    tag_269:\n      mload(0x40)\n      dup1\n      swap2\n      sub\n      swap1\n      return\n        /* \"webtoken.sol\":4666:4771  function isAuthorized(address adr) public view returns (bool) {... */\n    tag_49:\n      callvalue\n      dup1\n      iszero\n      tag_271\n      jumpi\n      0x00\n      dup1\n      revert\n    tag_271:\n      pop\n      tag_272\n      0x04\n      dup1\n      calldatasize\n      sub\n      dup2\n      add\n      swap1\n      tag_273\n      swap2\n      swap1\n      tag_121\n      jump\t// in\n    tag_273:\n      tag_274\n      jump\t// in\n    tag_272:\n      mload(0x40)\n      tag_275\n      swap2\n      swap1\n      tag_88\n      jump\t// in\n    tag_275:\n      mload(0x40)\n      dup1\n      swap2\n      sub\n      swap1\n      return\n        /* \"webtoken.sol\":17622:17805  function launch() public authorized {... */\n    tag_61:\n        /* \"webtoken.sol\":4077:4101  isAuthorized(msg.sender) */\n      tag_278\n        /* \"webtoken.sol\":4090:4100  msg.sender */\n      caller\n        /* \"webtoken.sol\":4077:4089  isAuthorized */\n      tag_274\n        /* \"webtoken.sol\":4077:4101  isAuthorized(msg.sender) */\n      jump\t// in\n    tag_278:\n        /* \"webtoken.sol\":4069:4117  require(isAuthorized(msg.sender), \"!AUTHORIZED\") */\n      tag_279\n      jumpi\n      mload(0x40)\n      0x08c379a000000000000000000000000000000000000000000000000000000000\n      dup2\n      mstore\n      0x04\n      add\n      tag_280\n      swap1\n      tag_281\n      jump\t// in\n    tag_280:\n      mload(0x40)\n      dup1\n      swap2\n      sub\n      swap1\n      revert\n    tag_279:\n        /* \"webtoken.sol\":17690:17691  0 */\n      0x00\n        /* \"webtoken.sol\":17676:17686  launchedAt */\n      sload(0x18)\n        /* \"webtoken.sol\":17676:17691  launchedAt == 0 */\n      eq\n        /* \"webtoken.sol\":17668:17716  require(launchedAt == 0, \"Already launched boi\") */\n      tag_283\n      jumpi\n      mload(0x40)\n      0x08c379a000000000000000000000000000000000000000000000000000000000\n      dup2\n      mstore\n      0x04\n      add\n      tag_284\n      swap1\n      tag_285\n      jump\t// in\n    tag_284:\n      mload(0x40)\n      dup1\n      swap2\n      sub\n      swap1\n      revert\n    tag_283:\n        /* \"webtoken.sol\":17739:17751  block.number */\n      number\n        /* \"webtoken.sol\":17726:17736  launchedAt */\n      0x18\n        /* \"webtoken.sol\":17726:17751  launchedAt = block.number */\n      dup2\n      swap1\n      sstore\n      pop\n        /* \"webtoken.sol\":17783:17798  block.timestamp */\n      timestamp\n        /* \"webtoken.sol\":17761:17780  launchedAtTimestamp */\n      0x19\n        /* \"webtoken.sol\":17761:17798  launchedAtTimestamp = block.timestamp */\n      dup2\n      swap1\n      sstore\n      pop\n        /* \"webtoken.sol\":17622:17805  function launch() public authorized {... */\n      jump\t// out\n        /* \"webtoken.sol\":8463:8513  uint256 public swapThreshold = _totalSupply / 2000 */\n    tag_64:\n      sload(0x28)\n      dup2\n      jump\t// out\n        /* \"webtoken.sol\":16827:17179  function setAutoBuybackSettings(bool _enabled, uint256 _cap, uint256 _amount, uint256 _period) external authorized {... */\n    tag_71:\n        /* \"webtoken.sol\":4077:4101  isAuthorized(msg.sender) */\n      tag_287\n        /* \"webtoken.sol\":4090:4100  msg.sender */\n      caller\n        /* \"webtoken.sol\":4077:4089  isAuthorized */\n      tag_274\n        /* \"webtoken.sol\":4077:4101  isAuthorized(msg.sender) */\n      jump\t// in\n    tag_287:\n        /* \"webtoken.sol\":4069:4117  require(isAuthorized(msg.sender), \"!AUTHORIZED\") */\n      tag_288\n      jumpi\n      mload(0x40)\n      0x08c379a000000000000000000000000000000000000000000000000000000000\n      dup2\n      mstore\n      0x04\n      add\n      tag_289\n      swap1\n      tag_281\n      jump\t// in\n    tag_289:\n      mload(0x40)\n      dup1\n      swap2\n      sub\n      swap1\n      revert\n    tag_288:\n        /* \"webtoken.sol\":16973:16981  _enabled */\n      dup4\n        /* \"webtoken.sol\":16952:16970  autoBuybackEnabled */\n      0x1e\n      0x00\n        /* \"webtoken.sol\":16952:16981  autoBuybackEnabled = _enabled */\n      0x0100\n      exp\n      dup2\n      sload\n      dup2\n      0xff\n      mul\n      not\n      and\n      swap1\n      dup4\n      iszero\n      iszero\n      mul\n      or\n      swap1\n      sstore\n      pop\n        /* \"webtoken.sol\":17008:17012  _cap */\n      dup3\n        /* \"webtoken.sol\":16991:17005  autoBuybackCap */\n      0x20\n        /* \"webtoken.sol\":16991:17012  autoBuybackCap = _cap */\n      dup2\n      swap1\n      sstore\n      pop\n        /* \"webtoken.sol\":17047:17048  0 */\n      0x00\n        /* \"webtoken.sol\":17022:17044  autoBuybackAccumulator */\n      0x21\n        /* \"webtoken.sol\":17022:17048  autoBuybackAccumulator = 0 */\n      dup2\n      swap1\n      sstore\n      pop\n        /* \"webtoken.sol\":17078:17085  _amount */\n      dup2\n        /* \"webtoken.sol\":17058:17075  autoBuybackAmount */\n      0x22\n        /* \"webtoken.sol\":17058:17085  autoBuybackAmount = _amount */\n      dup2\n      swap1\n      sstore\n      pop\n        /* \"webtoken.sol\":17120:17127  _period */\n      dup1\n        /* \"webtoken.sol\":17095:17117  autoBuybackBlockPeriod */\n      0x23\n        /* \"webtoken.sol\":17095:17127  autoBuybackBlockPeriod = _period */\n      dup2\n      swap1\n      sstore\n      pop\n        /* \"webtoken.sol\":17160:17172  block.number */\n      number\n        /* \"webtoken.sol\":17137:17157  autoBuybackBlockLast */\n      0x24\n        /* \"webtoken.sol\":17137:17172  autoBuybackBlockLast = block.number */\n      dup2\n      swap1\n      sstore\n      pop\n        /* \"webtoken.sol\":16827:17179  function setAutoBuybackSettings(bool _enabled, uint256 _cap, uint256 _amount, uint256 _period) external authorized {... */\n      pop\n      pop\n      pop\n      pop\n      jump\t// out\n        /* \"webtoken.sol\":18219:18633  function setFees(uint256 _liquidityFee, uint256 _buybackFee, uint256 _reflectionFee, uint256 _marketingFee, uint256 _feeDenominator) external authorized {... */\n    tag_76:\n        /* \"webtoken.sol\":4077:4101  isAuthorized(msg.sender) */\n      tag_292\n        /* \"webtoken.sol\":4090:4100  msg.sender */\n      caller\n        /* \"webtoken.sol\":4077:4089  isAuthorized */\n      tag_274\n        /* \"webtoken.sol\":4077:4101  isAuthorized(msg.sender) */\n      jump\t// in\n    tag_292:\n        /* \"webtoken.sol\":4069:4117  require(isAuthorized(msg.sender), \"!AUTHORIZED\") */\n      tag_293\n      jumpi\n      mload(0x40)\n      0x08c379a000000000000000000000000000000000000000000000000000000000\n      dup2\n      mstore\n      0x04\n      add\n      tag_294\n      swap1\n      tag_281\n      jump\t// in\n    tag_294:\n      mload(0x40)\n      dup1\n      swap2\n      sub\n      swap1\n      revert\n    tag_293:\n        /* \"webtoken.sol\":18397:18410  _liquidityFee */\n      dup5\n        /* \"webtoken.sol\":18382:18394  liquidityFee */\n      0x0e\n        /* \"webtoken.sol\":18382:18410  liquidityFee = _liquidityFee */\n      dup2\n      swap1\n      sstore\n      pop\n        /* \"webtoken.sol\":18435:18448  _marketingFee */\n      dup2\n        /* \"webtoken.sol\":18420:18432  marketingFee */\n      0x0f\n        /* \"webtoken.sol\":18420:18448  marketingFee = _marketingFee */\n      dup2\n      swap1\n      sstore\n      pop\n        /* \"webtoken.sol\":18469:18538  _liquidityFee.add(_buybackFee).add(_reflectionFee).add(_marketingFee) */\n      tag_296\n        /* \"webtoken.sol\":18524:18537  _marketingFee */\n      dup3\n        /* \"webtoken.sol\":18469:18519  _liquidityFee.add(_buybackFee).add(_reflectionFee) */\n      tag_297\n        /* \"webtoken.sol\":18504:18518  _reflectionFee */\n      dup6\n        /* \"webtoken.sol\":18469:18499  _liquidityFee.add(_buybackFee) */\n      tag_298\n        /* \"webtoken.sol\":18487:18498  _buybackFee */\n      dup9\n        /* \"webtoken.sol\":18469:18482  _liquidityFee */\n      dup11\n        /* \"webtoken.sol\":18469:18486  _liquidityFee.add */\n      tag_299\n      swap1\n        /* \"webtoken.sol\":18469:18499  _liquidityFee.add(_buybackFee) */\n      swap2\n      swap1\n      0xffffffff\n      and\n      jump\t// in\n    tag_298:\n        /* \"webtoken.sol\":18469:18503  _liquidityFee.add(_buybackFee).add */\n      tag_299\n      swap1\n        /* \"webtoken.sol\":18469:18519  _liquidityFee.add(_buybackFee).add(_reflectionFee) */\n      swap2\n      swap1\n      0xffffffff\n      and\n      jump\t// in\n    tag_297:\n        /* \"webtoken.sol\":18469:18523  _liquidityFee.add(_buybackFee).add(_reflectionFee).add */\n      tag_299\n      swap1\n        /* \"webtoken.sol\":18469:18538  _liquidityFee.add(_buybackFee).add(_reflectionFee).add(_marketingFee) */\n      swap2\n      swap1\n      0xffffffff\n      and\n      jump\t// in\n    tag_296:\n        /* \"webtoken.sol\":18458:18466  totalFee */\n      0x10\n        /* \"webtoken.sol\":18458:18538  totalFee = _liquidityFee.add(_buybackFee).add(_reflectionFee).add(_marketingFee) */\n      dup2\n      swap1\n      sstore\n      pop\n        /* \"webtoken.sol\":18565:18580  _feeDenominator */\n      dup1\n        /* \"webtoken.sol\":18548:18562  feeDenominator */\n      0x11\n        /* \"webtoken.sol\":18548:18580  feeDenominator = _feeDenominator */\n      dup2\n      swap1\n      sstore\n      pop\n        /* \"webtoken.sol\":18624:18625  4 */\n      0x04\n        /* \"webtoken.sol\":18609:18623  feeDenominator */\n      sload(0x11)\n        /* \"webtoken.sol\":18609:18625  feeDenominator/4 */\n      tag_300\n      swap2\n      swap1\n      tag_301\n      jump\t// in\n    tag_300:\n        /* \"webtoken.sol\":18598:18606  totalFee */\n      sload(0x10)\n        /* \"webtoken.sol\":18598:18625  totalFee < feeDenominator/4 */\n      lt\n        /* \"webtoken.sol\":18590:18626  require(totalFee < feeDenominator/4) */\n      tag_302\n      jumpi\n      0x00\n      dup1\n      revert\n    tag_302:\n        /* \"webtoken.sol\":18219:18633  function setFees(uint256 _liquidityFee, uint256 _buybackFee, uint256 _reflectionFee, uint256 _marketingFee, uint256 _feeDenominator) external authorized {... */\n      pop\n      pop\n      pop\n      pop\n      pop\n      jump\t// out\n        /* \"webtoken.sol\":9740:9820  function name() external pure override returns (string memory) { return _name; } */\n    tag_79:\n        /* \"webtoken.sol\":9788:9801  string memory */\n      0x60\n        /* \"webtoken.sol\":9812:9817  _name */\n      mload(0x40)\n      dup1\n      0x40\n      add\n      0x40\n      mstore\n      dup1\n      0x0a\n      dup2\n      mstore\n      0x20\n      add\n      0x436f6f6b6965436f696e00000000000000000000000000000000000000000000\n      dup2\n      mstore\n      pop\n        /* \"webtoken.sol\":9805:9817  return _name */\n      swap1\n      pop\n        /* \"webtoken.sol\":9740:9820  function name() external pure override returns (string memory) { return _name; } */\n      swap1\n      jump\t// out\n        /* \"webtoken.sol\":10237:10449  function approve(address spender, uint256 amount) public override returns (bool) {... */\n    tag_86:\n        /* \"webtoken.sol\":10312:10316  bool */\n      0x00\n        /* \"webtoken.sol\":10363:10369  amount */\n      dup2\n        /* \"webtoken.sol\":10328:10339  _allowances */\n      0x0a\n        /* \"webtoken.sol\":10328:10351  _allowances[msg.sender] */\n      0x00\n        /* \"webtoken.sol\":10340:10350  msg.sender */\n      caller\n        /* \"webtoken.sol\":10328:10351  _allowances[msg.sender] */\n      0xffffffffffffffffffffffffffffffffffffffff\n      and\n      0xffffffffffffffffffffffffffffffffffffffff\n      and\n      dup2\n      mstore\n      0x20\n      add\n      swap1\n      dup2\n      mstore\n      0x20\n      add\n      0x00\n      keccak256\n        /* \"webtoken.sol\":10328:10360  _allowances[msg.sender][spender] */\n      0x00\n        /* \"webtoken.sol\":10352:10359  spender */\n      dup6\n        /* \"webtoken.sol\":10328:10360  _allowances[msg.sender][spender] */\n      0xffffffffffffffffffffffffffffffffffffffff\n      and\n      0xffffffffffffffffffffffffffffffffffffffff\n      and\n      dup2\n      mstore\n      0x20\n      add\n      swap1\n      dup2\n      mstore\n      0x20\n      add\n      0x00\n      keccak256\n        /* \"webtoken.sol\":10328:10369  _allowances[msg.sender][spender] = amount */\n      dup2\n      swap1\n      sstore\n      pop\n        /* \"webtoken.sol\":10405:10412  spender */\n      dup3\n        /* \"webtoken.sol\":10384:10421  Approval(msg.sender, spender, amount) */\n      0xffffffffffffffffffffffffffffffffffffffff\n      and\n        /* \"webtoken.sol\":10393:10403  msg.sender */\n      caller\n        /* \"webtoken.sol\":10384:10421  Approval(msg.sender, spender, amount) */\n      0xffffffffffffffffffffffffffffffffffffffff\n      and\n      0x8c5be1e5ebec7d5bd14f71427d1e84f3dd0314c0f7b2291e5b200ac8c7c3b925\n        /* \"webtoken.sol\":10414:10420  amount */\n      dup5\n        /* \"webtoken.sol\":10384:10421  Approval(msg.sender, spender, amount) */\n      mload(0x40)\n      tag_305\n      swap2\n      swap1\n      tag_66\n      jump\t// in\n    tag_305:\n      mload(0x40)\n      dup1\n      swap2\n      sub\n      swap1\n      log3\n        /* \"webtoken.sol\":10438:10442  true */\n      0x01\n        /* \"webtoken.sol\":10431:10442  return true */\n      swap1\n      pop\n        /* \"webtoken.sol\":10237:10449  function approve(address spender, uint256 amount) public override returns (bool) {... */\n      swap3\n      swap2\n      pop\n      pop\n      jump\t// out\n        /* \"webtoken.sol\":19672:19820  function isOverLiquified(uint256 target, uint256 accuracy) public view returns (bool) {... */\n    tag_93:\n        /* \"webtoken.sol\":19752:19756  bool */\n      0x00\n        /* \"webtoken.sol\":19807:19813  target */\n      dup3\n        /* \"webtoken.sol\":19775:19804  getLiquidityBacking(accuracy) */\n      tag_307\n        /* \"webtoken.sol\":19795:19803  accuracy */\n      dup4\n        /* \"webtoken.sol\":19775:19794  getLiquidityBacking */\n      tag_218\n        /* \"webtoken.sol\":19775:19804  getLiquidityBacking(accuracy) */\n      jump\t// in\n    tag_307:\n        /* \"webtoken.sol\":19775:19813  getLiquidityBacking(accuracy) > target */\n      gt\n        /* \"webtoken.sol\":19768:19813  return getLiquidityBacking(accuracy) > target */\n      swap1\n      pop\n        /* \"webtoken.sol\":19672:19820  function isOverLiquified(uint256 target, uint256 accuracy) public view returns (bool) {... */\n      swap3\n      swap2\n      pop\n      pop\n      jump\t// out\n        /* \"webtoken.sol\":9473:9561  function totalSupply() external view override returns (uint256) { return _totalSupply; } */\n    tag_97:\n        /* \"webtoken.sol\":9528:9535  uint256 */\n      0x00\n        /* \"webtoken.sol\":9546:9558  _totalSupply */\n      sload(0x07)\n        /* \"webtoken.sol\":9539:9558  return _totalSupply */\n      swap1\n      pop\n        /* \"webtoken.sol\":9473:9561  function totalSupply() external view override returns (uint256) { return _totalSupply; } */\n      swap1\n      jump\t// out\n        /* \"webtoken.sol\":19029:19209  function setTargetLiquidity(uint256 _target, uint256 _denominator) external authorized {... */\n    tag_102:\n        /* \"webtoken.sol\":4077:4101  isAuthorized(msg.sender) */\n      tag_310\n        /* \"webtoken.sol\":4090:4100  msg.sender */\n      caller\n        /* \"webtoken.sol\":4077:4089  isAuthorized */\n      tag_274\n        /* \"webtoken.sol\":4077:4101  isAuthorized(msg.sender) */\n      jump\t// in\n    tag_310:\n        /* \"webtoken.sol\":4069:4117  require(isAuthorized(msg.sender), \"!AUTHORIZED\") */\n      tag_311\n      jumpi\n      mload(0x40)\n      0x08c379a000000000000000000000000000000000000000000000000000000000\n      dup2\n      mstore\n      0x04\n      add\n      tag_312\n      swap1\n      tag_281\n      jump\t// in\n    tag_312:\n      mload(0x40)\n      dup1\n      swap2\n      sub\n      swap1\n      revert\n    tag_311:\n        /* \"webtoken.sol\":19144:19151  _target */\n      dup2\n        /* \"webtoken.sol\":19126:19141  targetLiquidity */\n      0x14\n        /* \"webtoken.sol\":19126:19151  targetLiquidity = _target */\n      dup2\n      swap1\n      sstore\n      pop\n        /* \"webtoken.sol\":19190:19202  _denominator */\n      dup1\n        /* \"webtoken.sol\":19161:19187  targetLiquidityDenominator */\n      0x15\n        /* \"webtoken.sol\":19161:19202  targetLiquidityDenominator = _denominator */\n      dup2\n      swap1\n      sstore\n      pop\n        /* \"webtoken.sol\":19029:19209  function setTargetLiquidity(uint256 _target, uint256 _denominator) external authorized {... */\n      pop\n      pop\n      jump\t// out\n        /* \"webtoken.sol\":17185:17522  function setBuybackMultiplierSettings(uint256 numerator, uint256 denominator, uint256 length) external authorized {... */\n    tag_107:\n        /* \"webtoken.sol\":4077:4101  isAuthorized(msg.sender) */\n      tag_315\n        /* \"webtoken.sol\":4090:4100  msg.sender */\n      caller\n        /* \"webtoken.sol\":4077:4089  isAuthorized */\n      tag_274\n        /* \"webtoken.sol\":4077:4101  isAuthorized(msg.sender) */\n      jump\t// in\n    tag_315:\n        /* \"webtoken.sol\":4069:4117  require(isAuthorized(msg.sender), \"!AUTHORIZED\") */\n      tag_316\n      jumpi\n      mload(0x40)\n      0x08c379a000000000000000000000000000000000000000000000000000000000\n      dup2\n      mstore\n      0x04\n      add\n      tag_317\n      swap1\n      tag_281\n      jump\t// in\n    tag_317:\n      mload(0x40)\n      dup1\n      swap2\n      sub\n      swap1\n      revert\n    tag_316:\n        /* \"webtoken.sol\":17344:17345  2 */\n      0x02\n        /* \"webtoken.sol\":17329:17340  denominator */\n      dup3\n        /* \"webtoken.sol\":17317:17326  numerator */\n      dup5\n        /* \"webtoken.sol\":17317:17340  numerator / denominator */\n      tag_319\n      swap2\n      swap1\n      tag_301\n      jump\t// in\n    tag_319:\n        /* \"webtoken.sol\":17317:17345  numerator / denominator <= 2 */\n      gt\n      iszero\n        /* \"webtoken.sol\":17317:17372  numerator / denominator <= 2 && numerator > denominator */\n      dup1\n      iszero\n      tag_320\n      jumpi\n      pop\n        /* \"webtoken.sol\":17361:17372  denominator */\n      dup2\n        /* \"webtoken.sol\":17349:17358  numerator */\n      dup4\n        /* \"webtoken.sol\":17349:17372  numerator > denominator */\n      gt\n        /* \"webtoken.sol\":17317:17372  numerator / denominator <= 2 && numerator > denominator */\n    tag_320:\n        /* \"webtoken.sol\":17309:17373  require(numerator / denominator <= 2 && numerator > denominator) */\n      tag_321\n      jumpi\n      0x00\n      dup1\n      revert\n    tag_321:\n        /* \"webtoken.sol\":17412:17421  numerator */\n      dup3\n        /* \"webtoken.sol\":17383:17409  buybackMultiplierNumerator */\n      0x1a\n        /* \"webtoken.sol\":17383:17421  buybackMultiplierNumerator = numerator */\n      dup2\n      swap1\n      sstore\n      pop\n        /* \"webtoken.sol\":17462:17473  denominator */\n      dup2\n        /* \"webtoken.sol\":17431:17459  buybackMultiplierDenominator */\n      0x1b\n        /* \"webtoken.sol\":17431:17473  buybackMultiplierDenominator = denominator */\n      dup2\n      swap1\n      sstore\n      pop\n        /* \"webtoken.sol\":17509:17515  length */\n      dup1\n        /* \"webtoken.sol\":17483:17506  buybackMultiplierLength */\n      0x1d\n        /* \"webtoken.sol\":17483:17515  buybackMultiplierLength = length */\n      dup2\n      swap1\n      sstore\n      pop\n        /* \"webtoken.sol\":17185:17522  function setBuybackMultiplierSettings(uint256 numerator, uint256 denominator, uint256 length) external authorized {... */\n      pop\n      pop\n      pop\n      jump\t// out\n        /* \"webtoken.sol\":10736:11095  function transferFrom(address sender, address recipient, uint256 amount) external override returns (bool) {... */\n    tag_112:\n        /* \"webtoken.sol\":10836:10840  bool */\n      0x00\n        /* \"webtoken.sol\":10890:10902  _totalSupply */\n      sload(0x07)\n        /* \"webtoken.sol\":10855:10866  _allowances */\n      0x0a\n        /* \"webtoken.sol\":10855:10874  _allowances[sender] */\n      0x00\n        /* \"webtoken.sol\":10867:10873  sender */\n      dup7\n        /* \"webtoken.sol\":10855:10874  _allowances[sender] */\n      0xffffffffffffffffffffffffffffffffffffffff\n      and\n      0xffffffffffffffffffffffffffffffffffffffff\n      and\n      dup2\n      mstore\n      0x20\n      add\n      swap1\n      dup2\n      mstore\n      0x20\n      add\n      0x00\n      keccak256\n        /* \"webtoken.sol\":10855:10886  _allowances[sender][msg.sender] */\n      0x00\n        /* \"webtoken.sol\":10875:10885  msg.sender */\n      caller\n        /* \"webtoken.sol\":10855:10886  _allowances[sender][msg.sender] */\n      0xffffffffffffffffffffffffffffffffffffffff\n      and\n      0xffffffffffffffffffffffffffffffffffffffff\n      and\n      dup2\n      mstore\n      0x20\n      add\n      swap1\n      dup2\n      mstore\n      0x20\n      add\n      0x00\n      keccak256\n      sload\n        /* \"webtoken.sol\":10855:10902  _allowances[sender][msg.sender] != _totalSupply */\n      eq\n        /* \"webtoken.sol\":10852:11031  if(_allowances[sender][msg.sender] != _totalSupply){... */\n      tag_323\n      jumpi\n        /* \"webtoken.sol\":10951:11020  _allowances[sender][msg.sender].sub(amount, \"Insufficient Allowance\") */\n      tag_324\n        /* \"webtoken.sol\":10987:10993  amount */\n      dup3\n        /* \"webtoken.sol\":10951:11020  _allowances[sender][msg.sender].sub(amount, \"Insufficient Allowance\") */\n      mload(0x40)\n      dup1\n      0x40\n      add\n      0x40\n      mstore\n      dup1\n      0x16\n      dup2\n      mstore\n      0x20\n      add\n      0x496e73756666696369656e7420416c6c6f77616e636500000000000000000000\n      dup2\n      mstore\n      pop\n        /* \"webtoken.sol\":10951:10962  _allowances */\n      0x0a\n        /* \"webtoken.sol\":10951:10970  _allowances[sender] */\n      0x00\n        /* \"webtoken.sol\":10963:10969  sender */\n      dup9\n        /* \"webtoken.sol\":10951:10970  _allowances[sender] */\n      0xffffffffffffffffffffffffffffffffffffffff\n      and\n      0xffffffffffffffffffffffffffffffffffffffff\n      and\n      dup2\n      mstore\n      0x20\n      add\n      swap1\n      dup2\n      mstore\n      0x20\n      add\n      0x00\n      keccak256\n        /* \"webtoken.sol\":10951:10982  _allowances[sender][msg.sender] */\n      0x00\n        /* \"webtoken.sol\":10971:10981  msg.sender */\n      caller\n        /* \"webtoken.sol\":10951:10982  _allowances[sender][msg.sender] */\n      0xffffffffffffffffffffffffffffffffffffffff\n      and\n      0xffffffffffffffffffffffffffffffffffffffff\n      and\n      dup2\n      mstore\n      0x20\n      add\n      swap1\n      dup2\n      mstore\n      0x20\n      add\n      0x00\n      keccak256\n      sload\n        /* \"webtoken.sol\":10951:10986  _allowances[sender][msg.sender].sub */\n      tag_325\n      swap1\n        /* \"webtoken.sol\":10951:11020  _allowances[sender][msg.sender].sub(amount, \"Insufficient Allowance\") */\n      swap3\n      swap2\n      swap1\n      0xffffffff\n      and\n      jump\t// in\n    tag_324:\n        /* \"webtoken.sol\":10917:10928  _allowances */\n      0x0a\n        /* \"webtoken.sol\":10917:10936  _allowances[sender] */\n      0x00\n        /* \"webtoken.sol\":10929:10935  sender */\n      dup7\n        /* \"webtoken.sol\":10917:10936  _allowances[sender] */\n      0xffffffffffffffffffffffffffffffffffffffff\n      and\n      0xffffffffffffffffffffffffffffffffffffffff\n      and\n      dup2\n      mstore\n      0x20\n      add\n      swap1\n      dup2\n      mstore\n      0x20\n      add\n      0x00\n      keccak256\n        /* \"webtoken.sol\":10917:10948  _allowances[sender][msg.sender] */\n      0x00\n        /* \"webtoken.sol\":10937:10947  msg.sender */\n      caller\n        /* \"webtoken.sol\":10917:10948  _allowances[sender][msg.sender] */\n      0xffffffffffffffffffffffffffffffffffffffff\n      and\n      0xffffffffffffffffffffffffffffffffffffffff\n      and\n      dup2\n      mstore\n      0x20\n      add\n      swap1\n      dup2\n      mstore\n      0x20\n      add\n      0x00\n      keccak256\n        /* \"webtoken.sol\":10917:11020  _allowances[sender][msg.sender] = _allowances[sender][msg.sender].sub(amount, \"Insufficient Allowance\") */\n      dup2\n      swap1\n      sstore\n      pop\n        /* \"webtoken.sol\":10852:11031  if(_allowances[sender][msg.sender] != _totalSupply){... */\n    tag_323:\n        /* \"webtoken.sol\":11048:11088  _transferFrom(sender, recipient, amount) */\n      tag_326\n        /* \"webtoken.sol\":11062:11068  sender */\n      dup5\n        /* \"webtoken.sol\":11070:11079  recipient */\n      dup5\n        /* \"webtoken.sol\":11081:11087  amount */\n      dup5\n        /* \"webtoken.sol\":11048:11061  _transferFrom */\n      tag_327\n        /* \"webtoken.sol\":11048:11088  _transferFrom(sender, recipient, amount) */\n      jump\t// in\n    tag_326:\n        /* \"webtoken.sol\":11041:11088  return _transferFrom(sender, recipient, amount) */\n      swap1\n      pop\n        /* \"webtoken.sol\":10736:11095  function transferFrom(address sender, address recipient, uint256 amount) external override returns (bool) {... */\n      swap4\n      swap3\n      pop\n      pop\n      pop\n      jump\t// out\n        /* \"webtoken.sol\":19355:19495  function getCirculatingSupply() public view returns (uint256) {... */\n    tag_116:\n        /* \"webtoken.sol\":19408:19415  uint256 */\n      0x00\n        /* \"webtoken.sol\":19434:19488  _totalSupply.sub(balanceOf(DEAD)).sub(balanceOf(ZERO)) */\n      tag_329\n        /* \"webtoken.sol\":19472:19487  balanceOf(ZERO) */\n      tag_330\n        /* \"webtoken.sol\":19482:19486  ZERO */\n      0x05\n      0x00\n      swap1\n      sload\n      swap1\n      0x0100\n      exp\n      swap1\n      div\n      0xffffffffffffffffffffffffffffffffffffffff\n      and\n        /* \"webtoken.sol\":19472:19481  balanceOf */\n      tag_155\n        /* \"webtoken.sol\":19472:19487  balanceOf(ZERO) */\n      jump\t// in\n    tag_330:\n        /* \"webtoken.sol\":19434:19467  _totalSupply.sub(balanceOf(DEAD)) */\n      tag_331\n        /* \"webtoken.sol\":19451:19466  balanceOf(DEAD) */\n      tag_332\n        /* \"webtoken.sol\":19461:19465  DEAD */\n      0x04\n      0x00\n      swap1\n      sload\n      swap1\n      0x0100\n      exp\n      swap1\n      div\n      0xffffffffffffffffffffffffffffffffffffffff\n      and\n        /* \"webtoken.sol\":19451:19460  balanceOf */\n      tag_155\n        /* \"webtoken.sol\":19451:19466  balanceOf(DEAD) */\n      jump\t// in\n    tag_332:\n        /* \"webtoken.sol\":19434:19446  _totalSupply */\n      sload(0x07)\n        /* \"webtoken.sol\":19434:19450  _totalSupply.sub */\n      tag_333\n      swap1\n        /* \"webtoken.sol\":19434:19467  _totalSupply.sub(balanceOf(DEAD)) */\n      swap2\n      swap1\n      0xffffffff\n      and\n      jump\t// in\n    tag_331:\n        /* \"webtoken.sol\":19434:19471  _totalSupply.sub(balanceOf(DEAD)).sub */\n      tag_333\n      swap1\n        /* \"webtoken.sol\":19434:19488  _totalSupply.sub(balanceOf(DEAD)).sub(balanceOf(ZERO)) */\n      swap2\n      swap1\n      0xffffffff\n      and\n      jump\t// in\n    tag_329:\n        /* \"webtoken.sol\":19427:19488  return _totalSupply.sub(balanceOf(DEAD)).sub(balanceOf(ZERO)) */\n      swap1\n      pop\n        /* \"webtoken.sol\":19355:19495  function getCirculatingSupply() public view returns (uint256) {... */\n      swap1\n      jump\t// out\n        /* \"webtoken.sol\":4499:4600  function isOwner(address account) public view returns (bool) {... */\n    tag_122:\n        /* \"webtoken.sol\":4554:4558  bool */\n      0x00\n        /* \"webtoken.sol\":4588:4593  owner */\n      dup1\n      0x00\n      swap1\n      sload\n      swap1\n      0x0100\n      exp\n      swap1\n      div\n      0xffffffffffffffffffffffffffffffffffffffff\n      and\n        /* \"webtoken.sol\":4577:4593  account == owner */\n      0xffffffffffffffffffffffffffffffffffffffff\n      and\n        /* \"webtoken.sol\":4577:4584  account */\n      dup3\n        /* \"webtoken.sol\":4577:4593  account == owner */\n      0xffffffffffffffffffffffffffffffffffffffff\n      and\n      eq\n        /* \"webtoken.sol\":4570:4593  return account == owner */\n      swap1\n      pop\n        /* \"webtoken.sol\":4499:4600  function isOwner(address account) public view returns (bool) {... */\n      swap2\n      swap1\n      pop\n      jump\t// out\n        /* \"webtoken.sol\":9566:9646  function decimals() external pure override returns (uint8) { return _decimals; } */\n    tag_126:\n        /* \"webtoken.sol\":9618:9623  uint8 */\n      0x00\n        /* \"webtoken.sol\":7103:7104  9 */\n      0x09\n        /* \"webtoken.sol\":9627:9643  return _decimals */\n      swap1\n      pop\n        /* \"webtoken.sol\":9566:9646  function decimals() external pure override returns (uint8) { return _decimals; } */\n      swap1\n      jump\t// out\n        /* \"webtoken.sol\":8098:8136  bool public autoBuybackEnabled = false */\n    tag_131:\n      0x1e\n      0x00\n      swap1\n      sload\n      swap1\n      0x0100\n      exp\n      swap1\n      div\n      0xff\n      and\n      dup2\n      jump\t// out\n        /* \"webtoken.sol\":10455:10570  function approveMax(address spender) external returns (bool) {... */\n    tag_136:\n        /* \"webtoken.sol\":10510:10514  bool */\n      0x00\n        /* \"webtoken.sol\":10533:10563  approve(spender, _totalSupply) */\n      tag_337\n        /* \"webtoken.sol\":10541:10548  spender */\n      dup3\n        /* \"webtoken.sol\":10550:10562  _totalSupply */\n      sload(0x07)\n        /* \"webtoken.sol\":10533:10540  approve */\n      tag_86\n        /* \"webtoken.sol\":10533:10563  approve(spender, _totalSupply) */\n      jump\t// in\n    tag_337:\n        /* \"webtoken.sol\":10526:10563  return approve(spender, _totalSupply) */\n      swap1\n      pop\n        /* \"webtoken.sol\":10455:10570  function approveMax(address spender) external returns (bool) {... */\n      swap2\n      swap1\n      pop\n      jump\t// out\n        /* \"webtoken.sol\":17811:17953  function setTxLimit(uint256 amount) external authorized {... */\n    tag_142:\n        /* \"webtoken.sol\":4077:4101  isAuthorized(msg.sender) */\n      tag_339\n        /* \"webtoken.sol\":4090:4100  msg.sender */\n      caller\n        /* \"webtoken.sol\":4077:4089  isAuthorized */\n      tag_274\n        /* \"webtoken.sol\":4077:4101  isAuthorized(msg.sender) */\n      jump\t// in\n    tag_339:\n        /* \"webtoken.sol\":4069:4117  require(isAuthorized(msg.sender), \"!AUTHORIZED\") */\n      tag_340\n      jumpi\n      mload(0x40)\n      0x08c379a000000000000000000000000000000000000000000000000000000000\n      dup2\n      mstore\n      0x04\n      add\n      tag_341\n      swap1\n      tag_281\n      jump\t// in\n    tag_341:\n      mload(0x40)\n      dup1\n      swap2\n      sub\n      swap1\n      revert\n    tag_340:\n        /* \"webtoken.sol\":17910:17914  1000 */\n      0x03e8\n        /* \"webtoken.sol\":17895:17907  _totalSupply */\n      sload(0x07)\n        /* \"webtoken.sol\":17895:17914  _totalSupply / 1000 */\n      tag_343\n      swap2\n      swap1\n      tag_301\n      jump\t// in\n    tag_343:\n        /* \"webtoken.sol\":17885:17891  amount */\n      dup2\n        /* \"webtoken.sol\":17885:17914  amount >= _totalSupply / 1000 */\n      lt\n      iszero\n        /* \"webtoken.sol\":17877:17915  require(amount >= _totalSupply / 1000) */\n      tag_344\n      jumpi\n      0x00\n      dup1\n      revert\n    tag_344:\n        /* \"webtoken.sol\":17940:17946  amount */\n      dup1\n        /* \"webtoken.sol\":17925:17937  _maxTxAmount */\n      0x08\n        /* \"webtoken.sol\":17925:17946  _maxTxAmount = amount */\n      dup2\n      swap1\n      sstore\n      pop\n        /* \"webtoken.sol\":17811:17953  function setTxLimit(uint256 amount) external authorized {... */\n      pop\n      jump\t// out\n        /* \"webtoken.sol\":17963:18081  function setIsFeeExempt(address holder, bool exempt) external authorized {... */\n    tag_147:\n        /* \"webtoken.sol\":4077:4101  isAuthorized(msg.sender) */\n      tag_346\n        /* \"webtoken.sol\":4090:4100  msg.sender */\n      caller\n        /* \"webtoken.sol\":4077:4089  isAuthorized */\n      tag_274\n        /* \"webtoken.sol\":4077:4101  isAuthorized(msg.sender) */\n      jump\t// in\n    tag_346:\n        /* \"webtoken.sol\":4069:4117  require(isAuthorized(msg.sender), \"!AUTHORIZED\") */\n      tag_347\n      jumpi\n      mload(0x40)\n      0x08c379a000000000000000000000000000000000000000000000000000000000\n      dup2\n      mstore\n      0x04\n      add\n      tag_348\n      swap1\n      tag_281\n      jump\t// in\n    tag_348:\n      mload(0x40)\n      dup1\n      swap2\n      sub\n      swap1\n      revert\n    tag_347:\n        /* \"webtoken.sol\":18068:18074  exempt */\n      dup1\n        /* \"webtoken.sol\":18046:18057  isFeeExempt */\n      0x0b\n        /* \"webtoken.sol\":18046:18065  isFeeExempt[holder] */\n      0x00\n        /* \"webtoken.sol\":18058:18064  holder */\n      dup5\n        /* \"webtoken.sol\":18046:18065  isFeeExempt[holder] */\n      0xffffffffffffffffffffffffffffffffffffffff\n      and\n      0xffffffffffffffffffffffffffffffffffffffff\n      and\n      dup2\n      mstore\n      0x20\n      add\n      swap1\n      dup2\n      mstore\n      0x20\n      add\n      0x00\n      keccak256\n      0x00\n        /* \"webtoken.sol\":18046:18074  isFeeExempt[holder] = exempt */\n      0x0100\n      exp\n      dup2\n      sload\n      dup2\n      0xff\n      mul\n      not\n      and\n      swap1\n      dup4\n      iszero\n      iszero\n      mul\n      or\n      swap1\n      sstore\n      pop\n        /* \"webtoken.sol\":17963:18081  function setIsFeeExempt(address holder, bool exempt) external authorized {... */\n      pop\n      pop\n      jump\t// out\n        /* \"webtoken.sol\":8427:8457  bool public swapEnabled = true */\n    tag_150:\n      0x27\n      0x00\n      swap1\n      sload\n      swap1\n      0x0100\n      exp\n      swap1\n      div\n      0xff\n      and\n      dup2\n      jump\t// out\n        /* \"webtoken.sol\":9988:10093  function balanceOf(address account) public view override returns (uint256) { return _balances[account]; } */\n    tag_155:\n        /* \"webtoken.sol\":10054:10061  uint256 */\n      0x00\n        /* \"webtoken.sol\":10072:10081  _balances */\n      0x09\n        /* \"webtoken.sol\":10072:10090  _balances[account] */\n      0x00\n        /* \"webtoken.sol\":10082:10089  account */\n      dup4\n        /* \"webtoken.sol\":10072:10090  _balances[account] */\n      0xffffffffffffffffffffffffffffffffffffffff\n      and\n      0xffffffffffffffffffffffffffffffffffffffff\n      and\n      dup2\n      mstore\n      0x20\n      add\n      swap1\n      dup2\n      mstore\n      0x20\n      add\n      0x00\n      keccak256\n      sload\n        /* \"webtoken.sol\":10065:10090  return _balances[account] */\n      swap1\n      pop\n        /* \"webtoken.sol\":9988:10093  function balanceOf(address account) public view override returns (uint256) { return _balances[account]; } */\n      swap2\n      swap1\n      pop\n      jump\t// out\n        /* \"webtoken.sol\":7171:7222  uint256 public _maxTxAmount = _totalSupply.div(400) */\n    tag_159:\n      sload(0x08)\n      dup2\n      jump\t// out\n        /* \"webtoken.sol\":9825:9903  function getOwner() external view override returns (address) { return owner; } */\n    tag_163:\n        /* \"webtoken.sol\":9877:9884  address */\n      0x00\n        /* \"webtoken.sol\":9895:9900  owner */\n      dup1\n      0x00\n      swap1\n      sload\n      swap1\n      0x0100\n      exp\n      swap1\n      div\n      0xffffffffffffffffffffffffffffffffffffffff\n      and\n        /* \"webtoken.sol\":9888:9900  return owner */\n      swap1\n      pop\n        /* \"webtoken.sol\":9825:9903  function getOwner() external view override returns (address) { return owner; } */\n      swap1\n      jump\t// out\n        /* \"webtoken.sol\":6721:6785  address public WBNB = 0xbb4CdB9CBd36B01bD1cBaEBF2De08d9173bc095c */\n    tag_168:\n      0x03\n      0x00\n      swap1\n      sload\n      swap1\n      0x0100\n      exp\n      swap1\n      div\n      0xffffffffffffffffffffffffffffffffffffffff\n      and\n      dup2\n      jump\t// out\n        /* \"webtoken.sol\":9651:9735  function symbol() external pure override returns (string memory) { return _symbol; } */\n    tag_172:\n        /* \"webtoken.sol\":9701:9714  string memory */\n      0x60\n        /* \"webtoken.sol\":9725:9732  _symbol */\n      mload(0x40)\n      dup1\n      0x40\n      add\n      0x40\n      mstore\n      dup1\n      0x06\n      dup2\n      mstore\n      0x20\n      add\n      0x434f4f4b49450000000000000000000000000000000000000000000000000000\n      dup2\n      mstore\n      pop\n        /* \"webtoken.sol\":9718:9732  return _symbol */\n      swap1\n      pop\n        /* \"webtoken.sol\":9651:9735  function symbol() external pure override returns (string memory) { return _symbol; } */\n      swap1\n      jump\t// out\n        /* \"webtoken.sol\":19216:19349  function setDistributorSettings(uint256 gas) external authorized {... */\n    tag_177:\n        /* \"webtoken.sol\":4077:4101  isAuthorized(msg.sender) */\n      tag_354\n        /* \"webtoken.sol\":4090:4100  msg.sender */\n      caller\n        /* \"webtoken.sol\":4077:4089  isAuthorized */\n      tag_274\n        /* \"webtoken.sol\":4077:4101  isAuthorized(msg.sender) */\n      jump\t// in\n    tag_354:\n        /* \"webtoken.sol\":4069:4117  require(isAuthorized(msg.sender), \"!AUTHORIZED\") */\n      tag_355\n      jumpi\n      mload(0x40)\n      0x08c379a000000000000000000000000000000000000000000000000000000000\n      dup2\n      mstore\n      0x04\n      add\n      tag_356\n      swap1\n      tag_281\n      jump\t// in\n    tag_356:\n      mload(0x40)\n      dup1\n      swap2\n      sub\n      swap1\n      revert\n    tag_355:\n        /* \"webtoken.sol\":19305:19311  750000 */\n      0x0b71b0\n        /* \"webtoken.sol\":19299:19302  gas */\n      dup2\n        /* \"webtoken.sol\":19299:19311  gas < 750000 */\n      lt\n        /* \"webtoken.sol\":19291:19312  require(gas < 750000) */\n      tag_358\n      jumpi\n      0x00\n      dup1\n      revert\n    tag_358:\n        /* \"webtoken.sol\":19339:19342  gas */\n      dup1\n        /* \"webtoken.sol\":19322:19336  distributorGas */\n      0x26\n        /* \"webtoken.sol\":19322:19342  distributorGas = gas */\n      dup2\n      swap1\n      sstore\n      pop\n        /* \"webtoken.sol\":19216:19349  function setDistributorSettings(uint256 gas) external authorized {... */\n      pop\n      jump\t// out\n        /* \"webtoken.sol\":18639:18864  function setFeeReceivers(address _autoLiquidityReceiver, address _marketingFeeReceiver) external authorized {... */\n    tag_182:\n        /* \"webtoken.sol\":4077:4101  isAuthorized(msg.sender) */\n      tag_360\n        /* \"webtoken.sol\":4090:4100  msg.sender */\n      caller\n        /* \"webtoken.sol\":4077:4089  isAuthorized */\n      tag_274\n        /* \"webtoken.sol\":4077:4101  isAuthorized(msg.sender) */\n      jump\t// in\n    tag_360:\n        /* \"webtoken.sol\":4069:4117  require(isAuthorized(msg.sender), \"!AUTHORIZED\") */\n      tag_361\n      jumpi\n      mload(0x40)\n      0x08c379a000000000000000000000000000000000000000000000000000000000\n      dup2\n      mstore\n      0x04\n      add\n      tag_362\n      swap1\n      tag_281\n      jump\t// in\n    tag_362:\n      mload(0x40)\n      dup1\n      swap2\n      sub\n      swap1\n      revert\n    tag_361:\n        /* \"webtoken.sol\":18781:18803  _autoLiquidityReceiver */\n      dup2\n        /* \"webtoken.sol\":18757:18778  autoLiquidityReceiver */\n      0x12\n      0x00\n        /* \"webtoken.sol\":18757:18803  autoLiquidityReceiver = _autoLiquidityReceiver */\n      0x0100\n      exp\n      dup2\n      sload\n      dup2\n      0xffffffffffffffffffffffffffffffffffffffff\n      mul\n      not\n      and\n      swap1\n      dup4\n      0xffffffffffffffffffffffffffffffffffffffff\n      and\n      mul\n      or\n      swap1\n      sstore\n      pop\n        /* \"webtoken.sol\":18836:18857  _marketingFeeReceiver */\n      dup1\n        /* \"webtoken.sol\":18813:18833  marketingFeeReceiver */\n      0x13\n      0x00\n        /* \"webtoken.sol\":18813:18857  marketingFeeReceiver = _marketingFeeReceiver */\n      0x0100\n      exp\n      dup2\n      sload\n      dup2\n      0xffffffffffffffffffffffffffffffffffffffff\n      mul\n      not\n      and\n      swap1\n      dup4\n      0xffffffffffffffffffffffffffffffffffffffff\n      and\n      mul\n      or\n      swap1\n      sstore\n      pop\n        /* \"webtoken.sol\":18639:18864  function setFeeReceivers(address _autoLiquidityReceiver, address _marketingFeeReceiver) external authorized {... */\n      pop\n      pop\n      jump\t// out\n        /* \"webtoken.sol\":8349:8382  address public distributorAddress */\n    tag_185:\n      0x25\n      0x00\n      swap1\n      sload\n      swap1\n      0x0100\n      exp\n      swap1\n      div\n      0xffffffffffffffffffffffffffffffffffffffff\n      and\n      dup2\n      jump\t// out\n        /* \"webtoken.sol\":7813:7832  address public pair */\n    tag_189:\n      0x17\n      0x00\n      swap1\n      sload\n      swap1\n      0x0100\n      exp\n      swap1\n      div\n      0xffffffffffffffffffffffffffffffffffffffff\n      and\n      dup2\n      jump\t// out\n        /* \"webtoken.sol\":10576:10730  function transfer(address recipient, uint256 amount) external override returns (bool) {... */\n    tag_194:\n        /* \"webtoken.sol\":10656:10660  bool */\n      0x00\n        /* \"webtoken.sol\":10679:10723  _transferFrom(msg.sender, recipient, amount) */\n      tag_365\n        /* \"webtoken.sol\":10693:10703  msg.sender */\n      caller\n        /* \"webtoken.sol\":10705:10714  recipient */\n      dup5\n        /* \"webtoken.sol\":10716:10722  amount */\n      dup5\n        /* \"webtoken.sol\":10679:10692  _transferFrom */\n      tag_327\n        /* \"webtoken.sol\":10679:10723  _transferFrom(msg.sender, recipient, amount) */\n      jump\t// in\n    tag_365:\n        /* \"webtoken.sol\":10672:10723  return _transferFrom(msg.sender, recipient, amount) */\n      swap1\n      pop\n        /* \"webtoken.sol\":10576:10730  function transfer(address recipient, uint256 amount) external override returns (bool) {... */\n      swap3\n      swap2\n      pop\n      pop\n      jump\t// out\n        /* \"webtoken.sol\":16058:16161  function clearBuybackMultiplier() external authorized {... */\n    tag_198:\n        /* \"webtoken.sol\":4077:4101  isAuthorized(msg.sender) */\n      tag_367\n        /* \"webtoken.sol\":4090:4100  msg.sender */\n      caller\n        /* \"webtoken.sol\":4077:4089  isAuthorized */\n      tag_274\n        /* \"webtoken.sol\":4077:4101  isAuthorized(msg.sender) */\n      jump\t// in\n    tag_367:\n        /* \"webtoken.sol\":4069:4117  require(isAuthorized(msg.sender), \"!AUTHORIZED\") */\n      tag_368\n      jumpi\n      mload(0x40)\n      0x08c379a000000000000000000000000000000000000000000000000000000000\n      dup2\n      mstore\n      0x04\n      add\n      tag_369\n      swap1\n      tag_281\n      jump\t// in\n    tag_369:\n      mload(0x40)\n      dup1\n      swap2\n      sub\n      swap1\n      revert\n    tag_368:\n        /* \"webtoken.sol\":16153:16154  0 */\n      0x00\n        /* \"webtoken.sol\":16122:16150  buybackMultiplierTriggeredAt */\n      0x1c\n        /* \"webtoken.sol\":16122:16154  buybackMultiplierTriggeredAt = 0 */\n      dup2\n      swap1\n      sstore\n      pop\n        /* \"webtoken.sol\":16058:16161  function clearBuybackMultiplier() external authorized {... */\n      jump\t// out\n        /* \"webtoken.sol\":4186:4278  function authorize(address adr) public onlyOwner {... */\n    tag_202:\n        /* \"webtoken.sol\":3915:3934  isOwner(msg.sender) */\n      tag_372\n        /* \"webtoken.sol\":3923:3933  msg.sender */\n      caller\n        /* \"webtoken.sol\":3915:3922  isOwner */\n      tag_122\n        /* \"webtoken.sol\":3915:3934  isOwner(msg.sender) */\n      jump\t// in\n    tag_372:\n        /* \"webtoken.sol\":3907:3945  require(isOwner(msg.sender), \"!OWNER\") */\n      tag_373\n      jumpi\n      mload(0x40)\n      0x08c379a000000000000000000000000000000000000000000000000000000000\n      dup2\n      mstore\n      0x04\n      add\n      tag_374\n      swap1\n      tag_375\n      jump\t// in\n    tag_374:\n      mload(0x40)\n      dup1\n      swap2\n      sub\n      swap1\n      revert\n    tag_373:\n        /* \"webtoken.sol\":4267:4271  true */\n      0x01\n        /* \"webtoken.sol\":4245:4259  authorizations */\n      dup1\n        /* \"webtoken.sol\":4245:4264  authorizations[adr] */\n      0x00\n        /* \"webtoken.sol\":4260:4263  adr */\n      dup4\n        /* \"webtoken.sol\":4245:4264  authorizations[adr] */\n      0xffffffffffffffffffffffffffffffffffffffff\n      and\n      0xffffffffffffffffffffffffffffffffffffffff\n      and\n      dup2\n      mstore\n      0x20\n      add\n      swap1\n      dup2\n      mstore\n      0x20\n      add\n      0x00\n      keccak256\n      0x00\n        /* \"webtoken.sol\":4245:4271  authorizations[adr] = true */\n      0x0100\n      exp\n      dup2\n      sload\n      dup2\n      0xff\n      mul\n      not\n      and\n      swap1\n      dup4\n      iszero\n      iszero\n      mul\n      or\n      swap1\n      sstore\n      pop\n        /* \"webtoken.sol\":4186:4278  function authorize(address adr) public onlyOwner {... */\n      pop\n      jump\t// out\n        /* \"webtoken.sol\":7839:7864  uint256 public launchedAt */\n    tag_205:\n      sload(0x18)\n      dup2\n      jump\t// out\n        /* \"webtoken.sol\":7870:7904  uint256 public launchedAtTimestamp */\n    tag_209:\n      sload(0x19)\n      dup2\n      jump\t// out\n        /* \"webtoken.sol\":7618:7654  address public autoLiquidityReceiver */\n    tag_213:\n      0x12\n      0x00\n      swap1\n      sload\n      swap1\n      0x0100\n      exp\n      swap1\n      div\n      0xffffffffffffffffffffffffffffffffffffffff\n      and\n      dup2\n      jump\t// out\n        /* \"webtoken.sol\":19501:19666  function getLiquidityBacking(uint256 accuracy) public view returns (uint256) {... */\n    tag_218:\n        /* \"webtoken.sol\":19569:19576  uint256 */\n      0x00\n        /* \"webtoken.sol\":19595:19659  accuracy.mul(balanceOf(pair).mul(2)).div(getCirculatingSupply()) */\n      tag_378\n        /* \"webtoken.sol\":19636:19658  getCirculatingSupply() */\n      tag_379\n        /* \"webtoken.sol\":19636:19656  getCirculatingSupply */\n      tag_116\n        /* \"webtoken.sol\":19636:19658  getCirculatingSupply() */\n      jump\t// in\n    tag_379:\n        /* \"webtoken.sol\":19595:19631  accuracy.mul(balanceOf(pair).mul(2)) */\n      tag_380\n        /* \"webtoken.sol\":19608:19630  balanceOf(pair).mul(2) */\n      tag_381\n        /* \"webtoken.sol\":19628:19629  2 */\n      0x02\n        /* \"webtoken.sol\":19608:19623  balanceOf(pair) */\n      tag_382\n        /* \"webtoken.sol\":19618:19622  pair */\n      0x17\n      0x00\n      swap1\n      sload\n      swap1\n      0x0100\n      exp\n      swap1\n      div\n      0xffffffffffffffffffffffffffffffffffffffff\n      and\n        /* \"webtoken.sol\":19608:19617  balanceOf */\n      tag_155\n        /* \"webtoken.sol\":19608:19623  balanceOf(pair) */\n      jump\t// in\n    tag_382:\n        /* \"webtoken.sol\":19608:19627  balanceOf(pair).mul */\n      tag_383\n      swap1\n        /* \"webtoken.sol\":19608:19630  balanceOf(pair).mul(2) */\n      swap2\n      swap1\n      0xffffffff\n      and\n      jump\t// in\n    tag_381:\n        /* \"webtoken.sol\":19595:19603  accuracy */\n      dup6\n        /* \"webtoken.sol\":19595:19607  accuracy.mul */\n      tag_383\n      swap1\n        /* \"webtoken.sol\":19595:19631  accuracy.mul(balanceOf(pair).mul(2)) */\n      swap2\n      swap1\n      0xffffffff\n      and\n      jump\t// in\n    tag_380:\n        /* \"webtoken.sol\":19595:19635  accuracy.mul(balanceOf(pair).mul(2)).div */\n      tag_276\n      swap1\n        /* \"webtoken.sol\":19595:19659  accuracy.mul(balanceOf(pair).mul(2)).div(getCirculatingSupply()) */\n      swap2\n      swap1\n      0xffffffff\n      and\n      jump\t// in\n    tag_378:\n        /* \"webtoken.sol\":19588:19659  return accuracy.mul(balanceOf(pair).mul(2)).div(getCirculatingSupply()) */\n      swap1\n      pop\n        /* \"webtoken.sol\":19501:19666  function getLiquidityBacking(uint256 accuracy) public view returns (uint256) {... */\n      swap2\n      swap1\n      pop\n      jump\t// out\n        /* \"webtoken.sol\":12729:13383  function getMultipliedFee() public view returns (uint256) {... */\n    tag_222:\n        /* \"webtoken.sol\":12778:12785  uint256 */\n      0x00\n        /* \"webtoken.sol\":12832:12847  block.timestamp */\n      timestamp\n        /* \"webtoken.sol\":12823:12829  1 days */\n      0x015180\n        /* \"webtoken.sol\":12801:12820  launchedAtTimestamp */\n      sload(0x19)\n        /* \"webtoken.sol\":12801:12829  launchedAtTimestamp + 1 days */\n      tag_385\n      swap2\n      swap1\n      tag_386\n      jump\t// in\n    tag_385:\n        /* \"webtoken.sol\":12801:12847  launchedAtTimestamp + 1 days > block.timestamp */\n      gt\n        /* \"webtoken.sol\":12797:13352  if (launchedAtTimestamp + 1 days > block.timestamp) {... */\n      iszero\n      tag_387\n      jumpi\n        /* \"webtoken.sol\":12870:12909  totalFee.mul(18000).div(feeDenominator) */\n      tag_388\n        /* \"webtoken.sol\":12894:12908  feeDenominator */\n      sload(0x11)\n        /* \"webtoken.sol\":12870:12889  totalFee.mul(18000) */\n      tag_389\n        /* \"webtoken.sol\":12883:12888  18000 */\n      0x4650\n        /* \"webtoken.sol\":12870:12878  totalFee */\n      sload(0x10)\n        /* \"webtoken.sol\":12870:12882  totalFee.mul */\n      tag_383\n      swap1\n        /* \"webtoken.sol\":12870:12889  totalFee.mul(18000) */\n      swap2\n      swap1\n      0xffffffff\n      and\n      jump\t// in\n    tag_389:\n        /* \"webtoken.sol\":12870:12893  totalFee.mul(18000).div */\n      tag_276\n      swap1\n        /* \"webtoken.sol\":12870:12909  totalFee.mul(18000).div(feeDenominator) */\n      swap2\n      swap1\n      0xffffffff\n      and\n      jump\t// in\n    tag_388:\n        /* \"webtoken.sol\":12863:12909  return totalFee.mul(18000).div(feeDenominator) */\n      swap1\n      pop\n      jump(tag_384)\n        /* \"webtoken.sol\":12797:13352  if (launchedAtTimestamp + 1 days > block.timestamp) {... */\n    tag_387:\n        /* \"webtoken.sol\":12990:13005  block.timestamp */\n      timestamp\n        /* \"webtoken.sol\":12930:12987  buybackMultiplierTriggeredAt.add(buybackMultiplierLength) */\n      tag_391\n        /* \"webtoken.sol\":12963:12986  buybackMultiplierLength */\n      sload(0x1d)\n        /* \"webtoken.sol\":12930:12958  buybackMultiplierTriggeredAt */\n      sload(0x1c)\n        /* \"webtoken.sol\":12930:12962  buybackMultiplierTriggeredAt.add */\n      tag_299\n      swap1\n        /* \"webtoken.sol\":12930:12987  buybackMultiplierTriggeredAt.add(buybackMultiplierLength) */\n      swap2\n      swap1\n      0xffffffff\n      and\n      jump\t// in\n    tag_391:\n        /* \"webtoken.sol\":12930:13005  buybackMultiplierTriggeredAt.add(buybackMultiplierLength) > block.timestamp */\n      gt\n        /* \"webtoken.sol\":12926:13352  if (buybackMultiplierTriggeredAt.add(buybackMultiplierLength) > block.timestamp) {... */\n      iszero\n      tag_392\n      jumpi\n        /* \"webtoken.sol\":13021:13042  uint256 remainingTime */\n      0x00\n        /* \"webtoken.sol\":13045:13123  buybackMultiplierTriggeredAt.add(buybackMultiplierLength).sub(block.timestamp) */\n      tag_393\n        /* \"webtoken.sol\":13107:13122  block.timestamp */\n      timestamp\n        /* \"webtoken.sol\":13045:13102  buybackMultiplierTriggeredAt.add(buybackMultiplierLength) */\n      tag_394\n        /* \"webtoken.sol\":13078:13101  buybackMultiplierLength */\n      sload(0x1d)\n        /* \"webtoken.sol\":13045:13073  buybackMultiplierTriggeredAt */\n      sload(0x1c)\n        /* \"webtoken.sol\":13045:13077  buybackMultiplierTriggeredAt.add */\n      tag_299\n      swap1\n        /* \"webtoken.sol\":13045:13102  buybackMultiplierTriggeredAt.add(buybackMultiplierLength) */\n      swap2\n      swap1\n      0xffffffff\n      and\n      jump\t// in\n    tag_394:\n        /* \"webtoken.sol\":13045:13106  buybackMultiplierTriggeredAt.add(buybackMultiplierLength).sub */\n      tag_333\n      swap1\n        /* \"webtoken.sol\":13045:13123  buybackMultiplierTriggeredAt.add(buybackMultiplierLength).sub(block.timestamp) */\n      swap2\n      swap1\n      0xffffffff\n      and\n      jump\t// in\n    tag_393:\n        /* \"webtoken.sol\":13021:13123  uint256 remainingTime = buybackMultiplierTriggeredAt.add(buybackMultiplierLength).sub(block.timestamp) */\n      swap1\n      pop\n        /* \"webtoken.sol\":13137:13156  uint256 feeIncrease */\n      0x00\n        /* \"webtoken.sol\":13159:13247  totalFee.mul(buybackMultiplierNumerator).div(buybackMultiplierDenominator).sub(totalFee) */\n      tag_395\n        /* \"webtoken.sol\":13238:13246  totalFee */\n      sload(0x10)\n        /* \"webtoken.sol\":13159:13233  totalFee.mul(buybackMultiplierNumerator).div(buybackMultiplierDenominator) */\n      tag_396\n        /* \"webtoken.sol\":13204:13232  buybackMultiplierDenominator */\n      sload(0x1b)\n        /* \"webtoken.sol\":13159:13199  totalFee.mul(buybackMultiplierNumerator) */\n      tag_397\n        /* \"webtoken.sol\":13172:13198  buybackMultiplierNumerator */\n      sload(0x1a)\n        /* \"webtoken.sol\":13159:13167  totalFee */\n      sload(0x10)\n        /* \"webtoken.sol\":13159:13171  totalFee.mul */\n      tag_383\n      swap1\n        /* \"webtoken.sol\":13159:13199  totalFee.mul(buybackMultiplierNumerator) */\n      swap2\n      swap1\n      0xffffffff\n      and\n      jump\t// in\n    tag_397:\n        /* \"webtoken.sol\":13159:13203  totalFee.mul(buybackMultiplierNumerator).div */\n      tag_276\n      swap1\n        /* \"webtoken.sol\":13159:13233  totalFee.mul(buybackMultiplierNumerator).div(buybackMultiplierDenominator) */\n      swap2\n      swap1\n      0xffffffff\n      and\n      jump\t// in\n    tag_396:\n        /* \"webtoken.sol\":13159:13237  totalFee.mul(buybackMultiplierNumerator).div(buybackMultiplierDenominator).sub */\n      tag_333\n      swap1\n        /* \"webtoken.sol\":13159:13247  totalFee.mul(buybackMultiplierNumerator).div(buybackMultiplierDenominator).sub(totalFee) */\n      swap2\n      swap1\n      0xffffffff\n      and\n      jump\t// in\n    tag_395:\n        /* \"webtoken.sol\":13137:13247  uint256 feeIncrease = totalFee.mul(buybackMultiplierNumerator).div(buybackMultiplierDenominator).sub(totalFee) */\n      swap1\n      pop\n        /* \"webtoken.sol\":13268:13341  totalFee.add(feeIncrease.mul(remainingTime).div(buybackMultiplierLength)) */\n      tag_398\n        /* \"webtoken.sol\":13281:13340  feeIncrease.mul(remainingTime).div(buybackMultiplierLength) */\n      tag_399\n        /* \"webtoken.sol\":13316:13339  buybackMultiplierLength */\n      sload(0x1d)\n        /* \"webtoken.sol\":13281:13311  feeIncrease.mul(remainingTime) */\n      tag_400\n        /* \"webtoken.sol\":13297:13310  remainingTime */\n      dup6\n        /* \"webtoken.sol\":13281:13292  feeIncrease */\n      dup6\n        /* \"webtoken.sol\":13281:13296  feeIncrease.mul */\n      tag_383\n      swap1\n        /* \"webtoken.sol\":13281:13311  feeIncrease.mul(remainingTime) */\n      swap2\n      swap1\n      0xffffffff\n      and\n      jump\t// in\n    tag_400:\n        /* \"webtoken.sol\":13281:13315  feeIncrease.mul(remainingTime).div */\n      tag_276\n      swap1\n        /* \"webtoken.sol\":13281:13340  feeIncrease.mul(remainingTime).div(buybackMultiplierLength) */\n      swap2\n      swap1\n      0xffffffff\n      and\n      jump\t// in\n    tag_399:\n        /* \"webtoken.sol\":13268:13276  totalFee */\n      sload(0x10)\n        /* \"webtoken.sol\":13268:13280  totalFee.add */\n      tag_299\n      swap1\n        /* \"webtoken.sol\":13268:13341  totalFee.add(feeIncrease.mul(remainingTime).div(buybackMultiplierLength)) */\n      swap2\n      swap1\n      0xffffffff\n      and\n      jump\t// in\n    tag_398:\n        /* \"webtoken.sol\":13261:13341  return totalFee.add(feeIncrease.mul(remainingTime).div(buybackMultiplierLength)) */\n      swap3\n      pop\n      pop\n      pop\n      jump(tag_384)\n        /* \"webtoken.sol\":12926:13352  if (buybackMultiplierTriggeredAt.add(buybackMultiplierLength) > block.timestamp) {... */\n    tag_392:\n        /* \"webtoken.sol\":13368:13376  totalFee */\n      sload(0x10)\n        /* \"webtoken.sol\":13361:13376  return totalFee */\n      swap1\n      pop\n        /* \"webtoken.sol\":12729:13383  function getMultipliedFee() public view returns (uint256) {... */\n    tag_384:\n      swap1\n      jump\t// out\n        /* \"webtoken.sol\":10098:10231  function allowance(address holder, address spender) external view override returns (uint256) { return _allowances[holder][spender]; } */\n    tag_227:\n        /* \"webtoken.sol\":10182:10189  uint256 */\n      0x00\n        /* \"webtoken.sol\":10200:10211  _allowances */\n      0x0a\n        /* \"webtoken.sol\":10200:10219  _allowances[holder] */\n      0x00\n        /* \"webtoken.sol\":10212:10218  holder */\n      dup5\n        /* \"webtoken.sol\":10200:10219  _allowances[holder] */\n      0xffffffffffffffffffffffffffffffffffffffff\n      and\n      0xffffffffffffffffffffffffffffffffffffffff\n      and\n      dup2\n      mstore\n      0x20\n      add\n      swap1\n      dup2\n      mstore\n      0x20\n      add\n      0x00\n      keccak256\n        /* \"webtoken.sol\":10200:10228  _allowances[holder][spender] */\n      0x00\n        /* \"webtoken.sol\":10220:10227  spender */\n      dup4\n        /* \"webtoken.sol\":10200:10228  _allowances[holder][spender] */\n      0xffffffffffffffffffffffffffffffffffffffff\n      and\n      0xffffffffffffffffffffffffffffffffffffffff\n      and\n      dup2\n      mstore\n      0x20\n      add\n      swap1\n      dup2\n      mstore\n      0x20\n      add\n      0x00\n      keccak256\n      sload\n        /* \"webtoken.sol\":10193:10228  return _allowances[holder][spender] */\n      swap1\n      pop\n        /* \"webtoken.sol\":10098:10231  function allowance(address holder, address spender) external view override returns (uint256) { return _allowances[holder][spender]; } */\n      swap3\n      swap2\n      pop\n      pop\n      jump\t// out\n        /* \"webtoken.sol\":18870:19023  function setSwapBackSettings(bool _enabled, uint256 _amount) external authorized {... */\n    tag_233:\n        /* \"webtoken.sol\":4077:4101  isAuthorized(msg.sender) */\n      tag_403\n        /* \"webtoken.sol\":4090:4100  msg.sender */\n      caller\n        /* \"webtoken.sol\":4077:4089  isAuthorized */\n      tag_274\n        /* \"webtoken.sol\":4077:4101  isAuthorized(msg.sender) */\n      jump\t// in\n    tag_403:\n        /* \"webtoken.sol\":4069:4117  require(isAuthorized(msg.sender), \"!AUTHORIZED\") */\n      tag_404\n      jumpi\n      mload(0x40)\n      0x08c379a000000000000000000000000000000000000000000000000000000000\n      dup2\n      mstore\n      0x04\n      add\n      tag_405\n      swap1\n      tag_281\n      jump\t// in\n    tag_405:\n      mload(0x40)\n      dup1\n      swap2\n      sub\n      swap1\n      revert\n    tag_404:\n        /* \"webtoken.sol\":18975:18983  _enabled */\n      dup2\n        /* \"webtoken.sol\":18961:18972  swapEnabled */\n      0x27\n      0x00\n        /* \"webtoken.sol\":18961:18983  swapEnabled = _enabled */\n      0x0100\n      exp\n      dup2\n      sload\n      dup2\n      0xff\n      mul\n      not\n      and\n      swap1\n      dup4\n      iszero\n      iszero\n      mul\n      or\n      swap1\n      sstore\n      pop\n        /* \"webtoken.sol\":19009:19016  _amount */\n      dup1\n        /* \"webtoken.sol\":18993:19006  swapThreshold */\n      0x28\n        /* \"webtoken.sol\":18993:19016  swapThreshold = _amount */\n      dup2\n      swap1\n      sstore\n      pop\n        /* \"webtoken.sol\":18870:19023  function setSwapBackSettings(bool _enabled, uint256 _amount) external authorized {... */\n      pop\n      pop\n      jump\t// out\n        /* \"webtoken.sol\":6604:6652  uint256 public constant MASK = type(uint128).max */\n    tag_236:\n        /* \"webtoken.sol\":6635:6652  type(uint128).max */\n      0xffffffffffffffffffffffffffffffff\n        /* \"webtoken.sol\":6604:6652  uint256 public constant MASK = type(uint128).max */\n      dup1\n      and\n      dup2\n      jump\t// out\n        /* \"webtoken.sol\":7660:7695  address public marketingFeeReceiver */\n    tag_240:\n      0x13\n      0x00\n      swap1\n      sload\n      swap1\n      0x0100\n      exp\n      swap1\n      div\n      0xffffffffffffffffffffffffffffffffffffffff\n      and\n      dup2\n      jump\t// out\n        /* \"webtoken.sol\":4349:4444  function unauthorize(address adr) public onlyOwner {... */\n    tag_245:\n        /* \"webtoken.sol\":3915:3934  isOwner(msg.sender) */\n      tag_408\n        /* \"webtoken.sol\":3923:3933  msg.sender */\n      caller\n        /* \"webtoken.sol\":3915:3922  isOwner */\n      tag_122\n        /* \"webtoken.sol\":3915:3934  isOwner(msg.sender) */\n      jump\t// in\n    tag_408:\n        /* \"webtoken.sol\":3907:3945  require(isOwner(msg.sender), \"!OWNER\") */\n      tag_409\n      jumpi\n      mload(0x40)\n      0x08c379a000000000000000000000000000000000000000000000000000000000\n      dup2\n      mstore\n      0x04\n      add\n      tag_410\n      swap1\n      tag_375\n      jump\t// in\n    tag_410:\n      mload(0x40)\n      dup1\n      swap2\n      sub\n      swap1\n      revert\n    tag_409:\n        /* \"webtoken.sol\":4432:4437  false */\n      0x00\n        /* \"webtoken.sol\":4410:4424  authorizations */\n      0x01\n        /* \"webtoken.sol\":4410:4429  authorizations[adr] */\n      0x00\n        /* \"webtoken.sol\":4425:4428  adr */\n      dup4\n        /* \"webtoken.sol\":4410:4429  authorizations[adr] */\n      0xffffffffffffffffffffffffffffffffffffffff\n      and\n      0xffffffffffffffffffffffffffffffffffffffff\n      and\n      dup2\n      mstore\n      0x20\n      add\n      swap1\n      dup2\n      mstore\n      0x20\n      add\n      0x00\n      keccak256\n      0x00\n        /* \"webtoken.sol\":4410:4437  authorizations[adr] = false */\n      0x0100\n      exp\n      dup2\n      sload\n      dup2\n      0xff\n      mul\n      not\n      and\n      swap1\n      dup4\n      iszero\n      iszero\n      mul\n      or\n      swap1\n      sstore\n      pop\n        /* \"webtoken.sol\":4349:4444  function unauthorize(address adr) public onlyOwner {... */\n      pop\n      jump\t// out\n        /* \"webtoken.sol\":12500:12723  function getTotalFee(bool selling) public view returns (uint256) {... */\n    tag_250:\n        /* \"webtoken.sol\":12556:12563  uint256 */\n      0x00\n        /* \"webtoken.sol\":12596:12608  block.number */\n      number\n        /* \"webtoken.sol\":12591:12592  1 */\n      0x01\n        /* \"webtoken.sol\":12578:12588  launchedAt */\n      sload(0x18)\n        /* \"webtoken.sol\":12578:12592  launchedAt + 1 */\n      tag_413\n      swap2\n      swap1\n      tag_386\n      jump\t// in\n    tag_413:\n        /* \"webtoken.sol\":12578:12608  launchedAt + 1 >= block.number */\n      lt\n        /* \"webtoken.sol\":12575:12642  if(launchedAt + 1 >= block.number){ return feeDenominator.sub(1); } */\n      tag_414\n      jumpi\n        /* \"webtoken.sol\":12618:12639  feeDenominator.sub(1) */\n      tag_415\n        /* \"webtoken.sol\":12637:12638  1 */\n      0x01\n        /* \"webtoken.sol\":12618:12632  feeDenominator */\n      sload(0x11)\n        /* \"webtoken.sol\":12618:12636  feeDenominator.sub */\n      tag_333\n      swap1\n        /* \"webtoken.sol\":12618:12639  feeDenominator.sub(1) */\n      swap2\n      swap1\n      0xffffffff\n      and\n      jump\t// in\n    tag_415:\n        /* \"webtoken.sol\":12611:12639  return feeDenominator.sub(1) */\n      swap1\n      pop\n      jump(tag_412)\n        /* \"webtoken.sol\":12575:12642  if(launchedAt + 1 >= block.number){ return feeDenominator.sub(1); } */\n    tag_414:\n        /* \"webtoken.sol\":12654:12661  selling */\n      dup2\n        /* \"webtoken.sol\":12651:12692  if(selling){ return getMultipliedFee(); } */\n      iszero\n      tag_416\n      jumpi\n        /* \"webtoken.sol\":12671:12689  getMultipliedFee() */\n      tag_417\n        /* \"webtoken.sol\":12671:12687  getMultipliedFee */\n      tag_222\n        /* \"webtoken.sol\":12671:12689  getMultipliedFee() */\n      jump\t// in\n    tag_417:\n        /* \"webtoken.sol\":12664:12689  return getMultipliedFee() */\n      swap1\n      pop\n      jump(tag_412)\n        /* \"webtoken.sol\":12651:12692  if(selling){ return getMultipliedFee(); } */\n    tag_416:\n        /* \"webtoken.sol\":12708:12716  totalFee */\n      sload(0x10)\n        /* \"webtoken.sol\":12701:12716  return totalFee */\n      swap1\n      pop\n        /* \"webtoken.sol\":12500:12723  function getTotalFee(bool selling) public view returns (uint256) {... */\n    tag_412:\n      swap2\n      swap1\n      pop\n      jump\t// out\n        /* \"webtoken.sol\":4885:5054  function transferOwnership(address payable adr) public onlyOwner {... */\n    tag_256:\n        /* \"webtoken.sol\":3915:3934  isOwner(msg.sender) */\n      tag_419\n        /* \"webtoken.sol\":3923:3933  msg.sender */\n      caller\n        /* \"webtoken.sol\":3915:3922  isOwner */\n      tag_122\n        /* \"webtoken.sol\":3915:3934  isOwner(msg.sender) */\n      jump\t// in\n    tag_419:\n        /* \"webtoken.sol\":3907:3945  require(isOwner(msg.sender), \"!OWNER\") */\n      tag_420\n      jumpi\n      mload(0x40)\n      0x08c379a000000000000000000000000000000000000000000000000000000000\n      dup2\n      mstore\n      0x04\n      add\n      tag_421\n      swap1\n      tag_375\n      jump\t// in\n    tag_421:\n      mload(0x40)\n      dup1\n      swap2\n      sub\n      swap1\n      revert\n    tag_420:\n        /* \"webtoken.sol\":4968:4971  adr */\n      dup1\n        /* \"webtoken.sol\":4960:4965  owner */\n      0x00\n      dup1\n        /* \"webtoken.sol\":4960:4971  owner = adr */\n      0x0100\n      exp\n      dup2\n      sload\n      dup2\n      0xffffffffffffffffffffffffffffffffffffffff\n      mul\n      not\n      and\n      swap1\n      dup4\n      0xffffffffffffffffffffffffffffffffffffffff\n      and\n      mul\n      or\n      swap1\n      sstore\n      pop\n        /* \"webtoken.sol\":5003:5007  true */\n      0x01\n        /* \"webtoken.sol\":4981:4995  authorizations */\n      dup1\n        /* \"webtoken.sol\":4981:5000  authorizations[adr] */\n      0x00\n        /* \"webtoken.sol\":4996:4999  adr */\n      dup4\n        /* \"webtoken.sol\":4981:5000  authorizations[adr] */\n      0xffffffffffffffffffffffffffffffffffffffff\n      and\n      0xffffffffffffffffffffffffffffffffffffffff\n      and\n      dup2\n      mstore\n      0x20\n      add\n      swap1\n      dup2\n      mstore\n      0x20\n      add\n      0x00\n      keccak256\n      0x00\n        /* \"webtoken.sol\":4981:5007  authorizations[adr] = true */\n      0x0100\n      exp\n      dup2\n      sload\n      dup2\n      0xff\n      mul\n      not\n      and\n      swap1\n      dup4\n      iszero\n      iszero\n      mul\n      or\n      swap1\n      sstore\n      pop\n        /* \"webtoken.sol\":5022:5047  OwnershipTransferred(adr) */\n      0x04dba622d284ed0014ee4b9a6a68386be1a4c08a4913ae272de89199cc686163\n        /* \"webtoken.sol\":5043:5046  adr */\n      dup2\n        /* \"webtoken.sol\":5022:5047  OwnershipTransferred(adr) */\n      mload(0x40)\n      tag_423\n      swap2\n      swap1\n      tag_424\n      jump\t// in\n    tag_423:\n      mload(0x40)\n      dup1\n      swap2\n      sub\n      swap1\n      log1\n        /* \"webtoken.sol\":4885:5054  function transferOwnership(address payable adr) public onlyOwner {... */\n      pop\n      jump\t// out\n        /* \"webtoken.sol\":15742:16052  function triggerZeusBuyback(uint256 amount, bool triggerBuybackMultiplier) external authorized {... */\n    tag_261:\n        /* \"webtoken.sol\":4077:4101  isAuthorized(msg.sender) */\n      tag_426\n        /* \"webtoken.sol\":4090:4100  msg.sender */\n      caller\n        /* \"webtoken.sol\":4077:4089  isAuthorized */\n      tag_274\n        /* \"webtoken.sol\":4077:4101  isAuthorized(msg.sender) */\n      jump\t// in\n    tag_426:\n        /* \"webtoken.sol\":4069:4117  require(isAuthorized(msg.sender), \"!AUTHORIZED\") */\n      tag_427\n      jumpi\n      mload(0x40)\n      0x08c379a000000000000000000000000000000000000000000000000000000000\n      dup2\n      mstore\n      0x04\n      add\n      tag_428\n      swap1\n      tag_281\n      jump\t// in\n    tag_428:\n      mload(0x40)\n      dup1\n      swap2\n      sub\n      swap1\n      revert\n    tag_427:\n        /* \"webtoken.sol\":15847:15870  buyTokens(amount, DEAD) */\n      tag_430\n        /* \"webtoken.sol\":15857:15863  amount */\n      dup3\n        /* \"webtoken.sol\":15865:15869  DEAD */\n      0x04\n      0x00\n      swap1\n      sload\n      swap1\n      0x0100\n      exp\n      swap1\n      div\n      0xffffffffffffffffffffffffffffffffffffffff\n      and\n        /* \"webtoken.sol\":15847:15856  buyTokens */\n      tag_431\n        /* \"webtoken.sol\":15847:15870  buyTokens(amount, DEAD) */\n      jump\t// in\n    tag_430:\n        /* \"webtoken.sol\":15883:15907  triggerBuybackMultiplier */\n      dup1\n        /* \"webtoken.sol\":15880:16046  if(triggerBuybackMultiplier){... */\n      iszero\n      tag_432\n      jumpi\n        /* \"webtoken.sol\":15953:15968  block.timestamp */\n      timestamp\n        /* \"webtoken.sol\":15922:15950  buybackMultiplierTriggeredAt */\n      0x1c\n        /* \"webtoken.sol\":15922:15968  buybackMultiplierTriggeredAt = block.timestamp */\n      dup2\n      swap1\n      sstore\n      pop\n        /* \"webtoken.sol\":15987:16035  BuybackMultiplierActive(buybackMultiplierLength) */\n      0x39d2389ec5c1fa77b2c0d374bc61b6d7bd97ccba280fcdeb4e9c7644898d7c3a\n        /* \"webtoken.sol\":16011:16034  buybackMultiplierLength */\n      sload(0x1d)\n        /* \"webtoken.sol\":15987:16035  BuybackMultiplierActive(buybackMultiplierLength) */\n      mload(0x40)\n      tag_433\n      swap2\n      swap1\n      tag_66\n      jump\t// in\n    tag_433:\n      mload(0x40)\n      dup1\n      swap2\n      sub\n      swap1\n      log1\n        /* \"webtoken.sol\":15880:16046  if(triggerBuybackMultiplier){... */\n    tag_432:\n        /* \"webtoken.sol\":15742:16052  function triggerZeusBuyback(uint256 amount, bool triggerBuybackMultiplier) external authorized {... */\n      pop\n      pop\n      jump\t// out\n        /* \"webtoken.sol\":18087:18213  function setIsTxLimitExempt(address holder, bool exempt) external authorized {... */\n    tag_265:\n        /* \"webtoken.sol\":4077:4101  isAuthorized(msg.sender) */\n      tag_435\n        /* \"webtoken.sol\":4090:4100  msg.sender */\n      caller\n        /* \"webtoken.sol\":4077:4089  isAuthorized */\n      tag_274\n        /* \"webtoken.sol\":4077:4101  isAuthorized(msg.sender) */\n      jump\t// in\n    tag_435:\n        /* \"webtoken.sol\":4069:4117  require(isAuthorized(msg.sender), \"!AUTHORIZED\") */\n      tag_436\n      jumpi\n      mload(0x40)\n      0x08c379a000000000000000000000000000000000000000000000000000000000\n      dup2\n      mstore\n      0x04\n      add\n      tag_437\n      swap1\n      tag_281\n      jump\t// in\n    tag_437:\n      mload(0x40)\n      dup1\n      swap2\n      sub\n      swap1\n      revert\n    tag_436:\n        /* \"webtoken.sol\":18200:18206  exempt */\n      dup1\n        /* \"webtoken.sol\":18174:18189  isTxLimitExempt */\n      0x0c\n        /* \"webtoken.sol\":18174:18197  isTxLimitExempt[holder] */\n      0x00\n        /* \"webtoken.sol\":18190:18196  holder */\n      dup5\n        /* \"webtoken.sol\":18174:18197  isTxLimitExempt[holder] */\n      0xffffffffffffffffffffffffffffffffffffffff\n      and\n      0xffffffffffffffffffffffffffffffffffffffff\n      and\n      dup2\n      mstore\n      0x20\n      add\n      swap1\n      dup2\n      mstore\n      0x20\n      add\n      0x00\n      keccak256\n      0x00\n        /* \"webtoken.sol\":18174:18206  isTxLimitExempt[holder] = exempt */\n      0x0100\n      exp\n      dup2\n      sload\n      dup2\n      0xff\n      mul\n      not\n      and\n      swap1\n      dup4\n      iszero\n      iszero\n      mul\n      or\n      swap1\n      sstore\n      pop\n        /* \"webtoken.sol\":18087:18213  function setIsTxLimitExempt(address holder, bool exempt) external authorized {... */\n      pop\n      pop\n      jump\t// out\n        /* \"webtoken.sol\":7783:7807  IDEXRouter public router */\n    tag_268:\n      0x16\n      0x00\n      swap1\n      sload\n      swap1\n      0x0100\n      exp\n      swap1\n      div\n      0xffffffffffffffffffffffffffffffffffffffff\n      and\n      dup2\n      jump\t// out\n        /* \"webtoken.sol\":4666:4771  function isAuthorized(address adr) public view returns (bool) {... */\n    tag_274:\n        /* \"webtoken.sol\":4722:4726  bool */\n      0x00\n        /* \"webtoken.sol\":4745:4759  authorizations */\n      0x01\n        /* \"webtoken.sol\":4745:4764  authorizations[adr] */\n      0x00\n        /* \"webtoken.sol\":4760:4763  adr */\n      dup4\n        /* \"webtoken.sol\":4745:4764  authorizations[adr] */\n      0xffffffffffffffffffffffffffffffffffffffff\n      and\n      0xffffffffffffffffffffffffffffffffffffffff\n      and\n      dup2\n      mstore\n      0x20\n      add\n      swap1\n      dup2\n      mstore\n      0x20\n      add\n      0x00\n      keccak256\n      0x00\n      swap1\n      sload\n      swap1\n      0x0100\n      exp\n      swap1\n      div\n      0xff\n      and\n        /* \"webtoken.sol\":4738:4764  return authorizations[adr] */\n      swap1\n      pop\n        /* \"webtoken.sol\":4666:4771  function isAuthorized(address adr) public view returns (bool) {... */\n      swap2\n      swap1\n      pop\n      jump\t// out\n        /* \"webtoken.sol\":1859:1955  function div(uint256 a, uint256 b) internal pure returns (uint256) {... */\n    tag_276:\n        /* \"webtoken.sol\":1917:1924  uint256 */\n      0x00\n        /* \"webtoken.sol\":1947:1948  b */\n      dup2\n        /* \"webtoken.sol\":1943:1944  a */\n      dup4\n        /* \"webtoken.sol\":1943:1948  a / b */\n      tag_441\n      swap2\n      swap1\n      tag_301\n      jump\t// in\n    tag_441:\n        /* \"webtoken.sol\":1936:1948  return a / b */\n      swap1\n      pop\n        /* \"webtoken.sol\":1859:1955  function div(uint256 a, uint256 b) internal pure returns (uint256) {... */\n      swap3\n      swap2\n      pop\n      pop\n      jump\t// out\n        /* \"webtoken.sol\":1553:1649  function add(uint256 a, uint256 b) internal pure returns (uint256) {... */\n    tag_299:\n        /* \"webtoken.sol\":1611:1618  uint256 */\n      0x00\n        /* \"webtoken.sol\":1641:1642  b */\n      dup2\n        /* \"webtoken.sol\":1637:1638  a */\n      dup4\n        /* \"webtoken.sol\":1637:1642  a + b */\n      tag_443\n      swap2\n      swap1\n      tag_386\n      jump\t// in\n    tag_443:\n        /* \"webtoken.sol\":1630:1642  return a + b */\n      swap1\n      pop\n        /* \"webtoken.sol\":1553:1649  function add(uint256 a, uint256 b) internal pure returns (uint256) {... */\n      swap3\n      swap2\n      pop\n      pop\n      jump\t// out\n        /* \"webtoken.sol\":2063:2264  function sub(uint256 a, uint256 b, string memory errorMessage) internal pure returns (uint256) {... */\n    tag_325:\n        /* \"webtoken.sol\":2149:2156  uint256 */\n      0x00\n        /* \"webtoken.sol\":2205:2206  a */\n      dup4\n        /* \"webtoken.sol\":2200:2201  b */\n      dup4\n        /* \"webtoken.sol\":2200:2206  b <= a */\n      gt\n      iszero\n        /* \"webtoken.sol\":2208:2220  errorMessage */\n      dup3\n        /* \"webtoken.sol\":2192:2221  require(b <= a, errorMessage) */\n      swap1\n      tag_445\n      jumpi\n      mload(0x40)\n      0x08c379a000000000000000000000000000000000000000000000000000000000\n      dup2\n      mstore\n      0x04\n      add\n      tag_446\n      swap2\n      swap1\n      tag_81\n      jump\t// in\n    tag_446:\n      mload(0x40)\n      dup1\n      swap2\n      sub\n      swap1\n      revert\n    tag_445:\n      pop\n        /* \"webtoken.sol\":2246:2247  b */\n      dup3\n        /* \"webtoken.sol\":2242:2243  a */\n      dup5\n        /* \"webtoken.sol\":2242:2247  a - b */\n      sub\n        /* \"webtoken.sol\":2235:2247  return a - b */\n      swap1\n      pop\n        /* \"webtoken.sol\":2063:2264  function sub(uint256 a, uint256 b, string memory errorMessage) internal pure returns (uint256) {... */\n      swap4\n      swap3\n      pop\n      pop\n      pop\n      jump\t// out\n        /* \"webtoken.sol\":11101:11871  function _transferFrom(address sender, address recipient, uint256 amount) internal returns (bool) {... */\n    tag_327:\n        /* \"webtoken.sol\":11193:11197  bool */\n      0x00\n        /* \"webtoken.sol\":11212:11218  inSwap */\n      0x29\n      0x00\n      swap1\n      sload\n      swap1\n      0x0100\n      exp\n      swap1\n      div\n      0xff\n      and\n        /* \"webtoken.sol\":11209:11272  if(inSwap){ return _basicTransfer(sender, recipient, amount); } */\n      iszero\n      tag_448\n      jumpi\n        /* \"webtoken.sol\":11228:11269  _basicTransfer(sender, recipient, amount) */\n      tag_449\n        /* \"webtoken.sol\":11243:11249  sender */\n      dup5\n        /* \"webtoken.sol\":11251:11260  recipient */\n      dup5\n        /* \"webtoken.sol\":11262:11268  amount */\n      dup5\n        /* \"webtoken.sol\":11228:11242  _basicTransfer */\n      tag_450\n        /* \"webtoken.sol\":11228:11269  _basicTransfer(sender, recipient, amount) */\n      jump\t// in\n    tag_449:\n        /* \"webtoken.sol\":11221:11269  return _basicTransfer(sender, recipient, amount) */\n      swap1\n      pop\n      jump(tag_447)\n        /* \"webtoken.sol\":11209:11272  if(inSwap){ return _basicTransfer(sender, recipient, amount); } */\n    tag_448:\n        /* \"webtoken.sol\":11282:11310  checkTxLimit(sender, amount) */\n      tag_451\n        /* \"webtoken.sol\":11295:11301  sender */\n      dup5\n        /* \"webtoken.sol\":11303:11309  amount */\n      dup4\n        /* \"webtoken.sol\":11282:11294  checkTxLimit */\n      tag_452\n        /* \"webtoken.sol\":11282:11310  checkTxLimit(sender, amount) */\n      jump\t// in\n    tag_451:\n        /* \"webtoken.sol\":11334:11350  shouldSwapBack() */\n      tag_453\n        /* \"webtoken.sol\":11334:11348  shouldSwapBack */\n      tag_454\n        /* \"webtoken.sol\":11334:11350  shouldSwapBack() */\n      jump\t// in\n    tag_453:\n        /* \"webtoken.sol\":11331:11366  if(shouldSwapBack()){ swapBack(); } */\n      iszero\n      tag_455\n      jumpi\n        /* \"webtoken.sol\":11353:11363  swapBack() */\n      tag_456\n        /* \"webtoken.sol\":11353:11361  swapBack */\n      tag_457\n        /* \"webtoken.sol\":11353:11363  swapBack() */\n      jump\t// in\n    tag_456:\n        /* \"webtoken.sol\":11331:11366  if(shouldSwapBack()){ swapBack(); } */\n    tag_455:\n        /* \"webtoken.sol\":11378:11397  shouldAutoBuyback() */\n      tag_458\n        /* \"webtoken.sol\":11378:11395  shouldAutoBuyback */\n      tag_459\n        /* \"webtoken.sol\":11378:11397  shouldAutoBuyback() */\n      jump\t// in\n    tag_458:\n        /* \"webtoken.sol\":11375:11423  if(shouldAutoBuyback()){ triggerAutoBuyback(); } */\n      iszero\n      tag_460\n      jumpi\n        /* \"webtoken.sol\":11400:11420  triggerAutoBuyback() */\n      tag_461\n        /* \"webtoken.sol\":11400:11418  triggerAutoBuyback */\n      tag_462\n        /* \"webtoken.sol\":11400:11420  triggerAutoBuyback() */\n      jump\t// in\n    tag_461:\n        /* \"webtoken.sol\":11375:11423  if(shouldAutoBuyback()){ triggerAutoBuyback(); } */\n    tag_460:\n        /* \"webtoken.sol\":11554:11607  _balances[sender].sub(amount, \"Insufficient Balance\") */\n      tag_463\n        /* \"webtoken.sol\":11576:11582  amount */\n      dup3\n        /* \"webtoken.sol\":11554:11607  _balances[sender].sub(amount, \"Insufficient Balance\") */\n      mload(0x40)\n      dup1\n      0x40\n      add\n      0x40\n      mstore\n      dup1\n      0x14\n      dup2\n      mstore\n      0x20\n      add\n      0x496e73756666696369656e742042616c616e6365000000000000000000000000\n      dup2\n      mstore\n      pop\n        /* \"webtoken.sol\":11554:11563  _balances */\n      0x09\n        /* \"webtoken.sol\":11554:11571  _balances[sender] */\n      0x00\n        /* \"webtoken.sol\":11564:11570  sender */\n      dup9\n        /* \"webtoken.sol\":11554:11571  _balances[sender] */\n      0xffffffffffffffffffffffffffffffffffffffff\n      and\n      0xffffffffffffffffffffffffffffffffffffffff\n      and\n      dup2\n      mstore\n      0x20\n      add\n      swap1\n      dup2\n      mstore\n      0x20\n      add\n      0x00\n      keccak256\n      sload\n        /* \"webtoken.sol\":11554:11575  _balances[sender].sub */\n      tag_325\n      swap1\n        /* \"webtoken.sol\":11554:11607  _balances[sender].sub(amount, \"Insufficient Balance\") */\n      swap3\n      swap2\n      swap1\n      0xffffffff\n      and\n      jump\t// in\n    tag_463:\n        /* \"webtoken.sol\":11534:11543  _balances */\n      0x09\n        /* \"webtoken.sol\":11534:11551  _balances[sender] */\n      0x00\n        /* \"webtoken.sol\":11544:11550  sender */\n      dup7\n        /* \"webtoken.sol\":11534:11551  _balances[sender] */\n      0xffffffffffffffffffffffffffffffffffffffff\n      and\n      0xffffffffffffffffffffffffffffffffffffffff\n      and\n      dup2\n      mstore\n      0x20\n      add\n      swap1\n      dup2\n      mstore\n      0x20\n      add\n      0x00\n      keccak256\n        /* \"webtoken.sol\":11534:11607  _balances[sender] = _balances[sender].sub(amount, \"Insufficient Balance\") */\n      dup2\n      swap1\n      sstore\n      pop\n        /* \"webtoken.sol\":11618:11640  uint256 amountReceived */\n      0x00\n        /* \"webtoken.sol\":11643:11664  shouldTakeFee(sender) */\n      tag_464\n        /* \"webtoken.sol\":11657:11663  sender */\n      dup6\n        /* \"webtoken.sol\":11643:11656  shouldTakeFee */\n      tag_465\n        /* \"webtoken.sol\":11643:11664  shouldTakeFee(sender) */\n      jump\t// in\n    tag_464:\n        /* \"webtoken.sol\":11643:11710  shouldTakeFee(sender) ? takeFee(sender, recipient, amount) : amount */\n      tag_466\n      jumpi\n        /* \"webtoken.sol\":11704:11710  amount */\n      dup3\n        /* \"webtoken.sol\":11643:11710  shouldTakeFee(sender) ? takeFee(sender, recipient, amount) : amount */\n      jump(tag_467)\n    tag_466:\n        /* \"webtoken.sol\":11667:11701  takeFee(sender, recipient, amount) */\n      tag_468\n        /* \"webtoken.sol\":11675:11681  sender */\n      dup6\n        /* \"webtoken.sol\":11683:11692  recipient */\n      dup6\n        /* \"webtoken.sol\":11694:11700  amount */\n      dup6\n        /* \"webtoken.sol\":11667:11674  takeFee */\n      tag_469\n        /* \"webtoken.sol\":11667:11701  takeFee(sender, recipient, amount) */\n      jump\t// in\n    tag_468:\n        /* \"webtoken.sol\":11643:11710  shouldTakeFee(sender) ? takeFee(sender, recipient, amount) : amount */\n    tag_467:\n        /* \"webtoken.sol\":11618:11710  uint256 amountReceived = shouldTakeFee(sender) ? takeFee(sender, recipient, amount) : amount */\n      swap1\n      pop\n        /* \"webtoken.sol\":11744:11784  _balances[recipient].add(amountReceived) */\n      tag_470\n        /* \"webtoken.sol\":11769:11783  amountReceived */\n      dup2\n        /* \"webtoken.sol\":11744:11753  _balances */\n      0x09\n        /* \"webtoken.sol\":11744:11764  _balances[recipient] */\n      0x00\n        /* \"webtoken.sol\":11754:11763  recipient */\n      dup8\n        /* \"webtoken.sol\":11744:11764  _balances[recipient] */\n      0xffffffffffffffffffffffffffffffffffffffff\n      and\n      0xffffffffffffffffffffffffffffffffffffffff\n      and\n      dup2\n      mstore\n      0x20\n      add\n      swap1\n      dup2\n      mstore\n      0x20\n      add\n      0x00\n      keccak256\n      sload\n        /* \"webtoken.sol\":11744:11768  _balances[recipient].add */\n      tag_299\n      swap1\n        /* \"webtoken.sol\":11744:11784  _balances[recipient].add(amountReceived) */\n      swap2\n      swap1\n      0xffffffff\n      and\n      jump\t// in\n    tag_470:\n        /* \"webtoken.sol\":11721:11730  _balances */\n      0x09\n        /* \"webtoken.sol\":11721:11741  _balances[recipient] */\n      0x00\n        /* \"webtoken.sol\":11731:11740  recipient */\n      dup7\n        /* \"webtoken.sol\":11721:11741  _balances[recipient] */\n      0xffffffffffffffffffffffffffffffffffffffff\n      and\n      0xffffffffffffffffffffffffffffffffffffffff\n      and\n      dup2\n      mstore\n      0x20\n      add\n      swap1\n      dup2\n      mstore\n      0x20\n      add\n      0x00\n      keccak256\n        /* \"webtoken.sol\":11721:11784  _balances[recipient] = _balances[recipient].add(amountReceived) */\n      dup2\n      swap1\n      sstore\n      pop\n        /* \"webtoken.sol\":11817:11826  recipient */\n      dup4\n        /* \"webtoken.sol\":11800:11843  Transfer(sender, recipient, amountReceived) */\n      0xffffffffffffffffffffffffffffffffffffffff\n      and\n        /* \"webtoken.sol\":11809:11815  sender */\n      dup6\n        /* \"webtoken.sol\":11800:11843  Transfer(sender, recipient, amountReceived) */\n      0xffffffffffffffffffffffffffffffffffffffff\n      and\n      0xddf252ad1be2c89b69c2b068fc378daa952ba7f163c4a11628f55a4df523b3ef\n        /* \"webtoken.sol\":11828:11842  amountReceived */\n      dup4\n        /* \"webtoken.sol\":11800:11843  Transfer(sender, recipient, amountReceived) */\n      mload(0x40)\n      tag_471\n      swap2\n      swap1\n      tag_66\n      jump\t// in\n    tag_471:\n      mload(0x40)\n      dup1\n      swap2\n      sub\n      swap1\n      log3\n        /* \"webtoken.sol\":11860:11864  true */\n      0x01\n        /* \"webtoken.sol\":11853:11864  return true */\n      swap2\n      pop\n      pop\n        /* \"webtoken.sol\":11101:11871  function _transferFrom(address sender, address recipient, uint256 amount) internal returns (bool) {... */\n    tag_447:\n      swap4\n      swap3\n      pop\n      pop\n      pop\n      jump\t// out\n        /* \"webtoken.sol\":1655:1751  function sub(uint256 a, uint256 b) internal pure returns (uint256) {... */\n    tag_333:\n        /* \"webtoken.sol\":1713:1720  uint256 */\n      0x00\n        /* \"webtoken.sol\":1743:1744  b */\n      dup2\n        /* \"webtoken.sol\":1739:1740  a */\n      dup4\n        /* \"webtoken.sol\":1739:1744  a - b */\n      tag_473\n      swap2\n      swap1\n      tag_474\n      jump\t// in\n    tag_473:\n        /* \"webtoken.sol\":1732:1744  return a - b */\n      swap1\n      pop\n        /* \"webtoken.sol\":1655:1751  function sub(uint256 a, uint256 b) internal pure returns (uint256) {... */\n      swap3\n      swap2\n      pop\n      pop\n      jump\t// out\n        /* \"webtoken.sol\":1757:1853  function mul(uint256 a, uint256 b) internal pure returns (uint256) {... */\n    tag_383:\n        /* \"webtoken.sol\":1815:1822  uint256 */\n      0x00\n        /* \"webtoken.sol\":1845:1846  b */\n      dup2\n        /* \"webtoken.sol\":1841:1842  a */\n      dup4\n        /* \"webtoken.sol\":1841:1846  a * b */\n      tag_476\n      swap2\n      swap1\n      tag_477\n      jump\t// in\n    tag_476:\n        /* \"webtoken.sol\":1834:1846  return a * b */\n      swap1\n      pop\n        /* \"webtoken.sol\":1757:1853  function mul(uint256 a, uint256 b) internal pure returns (uint256) {... */\n      swap3\n      swap2\n      pop\n      pop\n      jump\t// out\n        /* \"webtoken.sol\":16471:16821  function buyTokens(uint256 amount, address to) internal swapping {... */\n    tag_431:\n        /* \"webtoken.sol\":8577:8581  true */\n      0x01\n        /* \"webtoken.sol\":8568:8574  inSwap */\n      0x29\n      0x00\n        /* \"webtoken.sol\":8568:8581  inSwap = true */\n      0x0100\n      exp\n      dup2\n      sload\n      dup2\n      0xff\n      mul\n      not\n      and\n      swap1\n      dup4\n      iszero\n      iszero\n      mul\n      or\n      swap1\n      sstore\n      pop\n        /* \"webtoken.sol\":16546:16567  address[] memory path */\n      0x00\n        /* \"webtoken.sol\":16584:16585  2 */\n      0x02\n        /* \"webtoken.sol\":16570:16586  new address[](2) */\n      0xffffffffffffffff\n      dup2\n      gt\n      iszero\n      tag_480\n      jumpi\n      mstore(0x00, 0x4e487b7100000000000000000000000000000000000000000000000000000000)\n      mstore(0x04, 0x41)\n      revert(0x00, 0x24)\n    tag_480:\n      mload(0x40)\n      swap1\n      dup1\n      dup3\n      mstore\n      dup1\n      0x20\n      mul\n      0x20\n      add\n      dup3\n      add\n      0x40\n      mstore\n      dup1\n      iszero\n      tag_481\n      jumpi\n      dup2\n      0x20\n      add\n      0x20\n      dup3\n      mul\n      dup1\n      calldatasize\n      dup4\n      calldatacopy\n      dup1\n      dup3\n      add\n      swap2\n      pop\n      pop\n      swap1\n      pop\n    tag_481:\n      pop\n        /* \"webtoken.sol\":16546:16586  address[] memory path = new address[](2) */\n      swap1\n      pop\n        /* \"webtoken.sol\":16606:16610  WBNB */\n      0x03\n      0x00\n      swap1\n      sload\n      swap1\n      0x0100\n      exp\n      swap1\n      div\n      0xffffffffffffffffffffffffffffffffffffffff\n      and\n        /* \"webtoken.sol\":16596:16600  path */\n      dup2\n        /* \"webtoken.sol\":16601:16602  0 */\n      0x00\n        /* \"webtoken.sol\":16596:16603  path[0] */\n      dup2\n      mload\n      dup2\n      lt\n      tag_482\n      jumpi\n      mstore(0x00, 0x4e487b7100000000000000000000000000000000000000000000000000000000)\n      mstore(0x04, 0x32)\n      revert(0x00, 0x24)\n    tag_482:\n      0x20\n      mul\n      0x20\n      add\n      add\n        /* \"webtoken.sol\":16596:16610  path[0] = WBNB */\n      swap1\n      0xffffffffffffffffffffffffffffffffffffffff\n      and\n      swap1\n      dup2\n      0xffffffffffffffffffffffffffffffffffffffff\n      and\n      dup2\n      mstore\n      pop\n      pop\n        /* \"webtoken.sol\":16638:16642  this */\n      address\n        /* \"webtoken.sol\":16620:16624  path */\n      dup2\n        /* \"webtoken.sol\":16625:16626  1 */\n      0x01\n        /* \"webtoken.sol\":16620:16627  path[1] */\n      dup2\n      mload\n      dup2\n      lt\n      tag_483\n      jumpi\n      mstore(0x00, 0x4e487b7100000000000000000000000000000000000000000000000000000000)\n      mstore(0x04, 0x32)\n      revert(0x00, 0x24)\n    tag_483:\n      0x20\n      mul\n      0x20\n      add\n      add\n        /* \"webtoken.sol\":16620:16643  path[1] = address(this) */\n      swap1\n      0xffffffffffffffffffffffffffffffffffffffff\n      and\n      swap1\n      dup2\n      0xffffffffffffffffffffffffffffffffffffffff\n      and\n      dup2\n      mstore\n      pop\n      pop\n        /* \"webtoken.sol\":16654:16660  router */\n      0x16\n      0x00\n      swap1\n      sload\n      swap1\n      0x0100\n      exp\n      swap1\n      div\n      0xffffffffffffffffffffffffffffffffffffffff\n      and\n        /* \"webtoken.sol\":16654:16711  router.swapExactETHForTokensSupportingFeeOnTransferTokens */\n      0xffffffffffffffffffffffffffffffffffffffff\n      and\n      0xb6f9de95\n        /* \"webtoken.sol\":16719:16725  amount */\n      dup5\n        /* \"webtoken.sol\":16740:16741  0 */\n      0x00\n        /* \"webtoken.sol\":16755:16759  path */\n      dup5\n        /* \"webtoken.sol\":16773:16775  to */\n      dup7\n        /* \"webtoken.sol\":16789:16804  block.timestamp */\n      timestamp\n        /* \"webtoken.sol\":16654:16814  router.swapExactETHForTokensSupportingFeeOnTransferTokens{value: amount}(... */\n      mload(0x40)\n      dup7\n      0xffffffff\n      and\n      0xe0\n      shl\n      dup2\n      mstore\n      0x04\n      add\n      tag_484\n      swap5\n      swap4\n      swap3\n      swap2\n      swap1\n      tag_485\n      jump\t// in\n    tag_484:\n      0x00\n      mload(0x40)\n      dup1\n      dup4\n      sub\n      dup2\n      dup6\n      dup9\n      dup1\n      extcodesize\n      iszero\n      dup1\n      iszero\n      tag_486\n      jumpi\n      0x00\n      dup1\n      revert\n    tag_486:\n      pop\n      gas\n      call\n      iszero\n      dup1\n      iszero\n      tag_488\n      jumpi\n      returndatasize\n      0x00\n      dup1\n      returndatacopy\n      revert(0x00, returndatasize)\n    tag_488:\n      pop\n      pop\n      pop\n      pop\n      pop\n        /* \"webtoken.sol\":8583:8584  _ */\n      pop\n        /* \"webtoken.sol\":8595:8600  false */\n      0x00\n        /* \"webtoken.sol\":8586:8592  inSwap */\n      0x29\n      0x00\n        /* \"webtoken.sol\":8586:8600  inSwap = false */\n      0x0100\n      exp\n      dup2\n      sload\n      dup2\n      0xff\n      mul\n      not\n      and\n      swap1\n      dup4\n      iszero\n      iszero\n      mul\n      or\n      swap1\n      sstore\n      pop\n        /* \"webtoken.sol\":16471:16821  function buyTokens(uint256 amount, address to) internal swapping {... */\n      pop\n      pop\n      jump\t// out\n        /* \"webtoken.sol\":11877:12204  function _basicTransfer(address sender, address recipient, uint256 amount) internal returns (bool) {... */\n    tag_450:\n        /* \"webtoken.sol\":11970:11974  bool */\n      0x00\n        /* \"webtoken.sol\":12006:12059  _balances[sender].sub(amount, \"Insufficient Balance\") */\n      tag_490\n        /* \"webtoken.sol\":12028:12034  amount */\n      dup3\n        /* \"webtoken.sol\":12006:12059  _balances[sender].sub(amount, \"Insufficient Balance\") */\n      mload(0x40)\n      dup1\n      0x40\n      add\n      0x40\n      mstore\n      dup1\n      0x14\n      dup2\n      mstore\n      0x20\n      add\n      0x496e73756666696369656e742042616c616e6365000000000000000000000000\n      dup2\n      mstore\n      pop\n        /* \"webtoken.sol\":12006:12015  _balances */\n      0x09\n        /* \"webtoken.sol\":12006:12023  _balances[sender] */\n      0x00\n        /* \"webtoken.sol\":12016:12022  sender */\n      dup9\n        /* \"webtoken.sol\":12006:12023  _balances[sender] */\n      0xffffffffffffffffffffffffffffffffffffffff\n      and\n      0xffffffffffffffffffffffffffffffffffffffff\n      and\n      dup2\n      mstore\n      0x20\n      add\n      swap1\n      dup2\n      mstore\n      0x20\n      add\n      0x00\n      keccak256\n      sload\n        /* \"webtoken.sol\":12006:12027  _balances[sender].sub */\n      tag_325\n      swap1\n        /* \"webtoken.sol\":12006:12059  _balances[sender].sub(amount, \"Insufficient Balance\") */\n      swap3\n      swap2\n      swap1\n      0xffffffff\n      and\n      jump\t// in\n    tag_490:\n        /* \"webtoken.sol\":11986:11995  _balances */\n      0x09\n        /* \"webtoken.sol\":11986:12003  _balances[sender] */\n      0x00\n        /* \"webtoken.sol\":11996:12002  sender */\n      dup7\n        /* \"webtoken.sol\":11986:12003  _balances[sender] */\n      0xffffffffffffffffffffffffffffffffffffffff\n      and\n      0xffffffffffffffffffffffffffffffffffffffff\n      and\n      dup2\n      mstore\n      0x20\n      add\n      swap1\n      dup2\n      mstore\n      0x20\n      add\n      0x00\n      keccak256\n        /* \"webtoken.sol\":11986:12059  _balances[sender] = _balances[sender].sub(amount, \"Insufficient Balance\") */\n      dup2\n      swap1\n      sstore\n      pop\n        /* \"webtoken.sol\":12092:12124  _balances[recipient].add(amount) */\n      tag_491\n        /* \"webtoken.sol\":12117:12123  amount */\n      dup3\n        /* \"webtoken.sol\":12092:12101  _balances */\n      0x09\n        /* \"webtoken.sol\":12092:12112  _balances[recipient] */\n      0x00\n        /* \"webtoken.sol\":12102:12111  recipient */\n      dup7\n        /* \"webtoken.sol\":12092:12112  _balances[recipient] */\n      0xffffffffffffffffffffffffffffffffffffffff\n      and\n      0xffffffffffffffffffffffffffffffffffffffff\n      and\n      dup2\n      mstore\n      0x20\n      add\n      swap1\n      dup2\n      mstore\n      0x20\n      add\n      0x00\n      keccak256\n      sload\n        /* \"webtoken.sol\":12092:12116  _balances[recipient].add */\n      tag_299\n      swap1\n        /* \"webtoken.sol\":12092:12124  _balances[recipient].add(amount) */\n      swap2\n      swap1\n      0xffffffff\n      and\n      jump\t// in\n    tag_491:\n        /* \"webtoken.sol\":12069:12078  _balances */\n      0x09\n        /* \"webtoken.sol\":12069:12089  _balances[recipient] */\n      0x00\n        /* \"webtoken.sol\":12079:12088  recipient */\n      dup6\n        /* \"webtoken.sol\":12069:12089  _balances[recipient] */\n      0xffffffffffffffffffffffffffffffffffffffff\n      and\n      0xffffffffffffffffffffffffffffffffffffffff\n      and\n      dup2\n      mstore\n      0x20\n      add\n      swap1\n      dup2\n      mstore\n      0x20\n      add\n      0x00\n      keccak256\n        /* \"webtoken.sol\":12069:12124  _balances[recipient] = _balances[recipient].add(amount) */\n      dup2\n      swap1\n      sstore\n      pop\n        /* \"webtoken.sol\":12193:12197  true */\n      0x01\n        /* \"webtoken.sol\":12186:12197  return true */\n      swap1\n      pop\n        /* \"webtoken.sol\":11877:12204  function _basicTransfer(address sender, address recipient, uint256 amount) internal returns (bool) {... */\n      swap4\n      swap3\n      pop\n      pop\n      pop\n      jump\t// out\n        /* \"webtoken.sol\":12212:12376  function checkTxLimit(address sender, uint256 amount) internal view {... */\n    tag_452:\n        /* \"webtoken.sol\":12308:12320  _maxTxAmount */\n      sload(0x08)\n        /* \"webtoken.sol\":12298:12304  amount */\n      dup2\n        /* \"webtoken.sol\":12298:12320  amount <= _maxTxAmount */\n      gt\n      iszero\n        /* \"webtoken.sol\":12298:12347  amount <= _maxTxAmount || isTxLimitExempt[sender] */\n      dup1\n      tag_493\n      jumpi\n      pop\n        /* \"webtoken.sol\":12324:12339  isTxLimitExempt */\n      0x0c\n        /* \"webtoken.sol\":12324:12347  isTxLimitExempt[sender] */\n      0x00\n        /* \"webtoken.sol\":12340:12346  sender */\n      dup4\n        /* \"webtoken.sol\":12324:12347  isTxLimitExempt[sender] */\n      0xffffffffffffffffffffffffffffffffffffffff\n      and\n      0xffffffffffffffffffffffffffffffffffffffff\n      and\n      dup2\n      mstore\n      0x20\n      add\n      swap1\n      dup2\n      mstore\n      0x20\n      add\n      0x00\n      keccak256\n      0x00\n      swap1\n      sload\n      swap1\n      0x0100\n      exp\n      swap1\n      div\n      0xff\n      and\n        /* \"webtoken.sol\":12298:12347  amount <= _maxTxAmount || isTxLimitExempt[sender] */\n    tag_493:\n        /* \"webtoken.sol\":12290:12369  require(amount <= _maxTxAmount || isTxLimitExempt[sender], \"TX Limit Exceeded\") */\n      tag_494\n      jumpi\n      mload(0x40)\n      0x08c379a000000000000000000000000000000000000000000000000000000000\n      dup2\n      mstore\n      0x04\n      add\n      tag_495\n      swap1\n      tag_496\n      jump\t// in\n    tag_495:\n      mload(0x40)\n      dup1\n      swap2\n      sub\n      swap1\n      revert\n    tag_494:\n        /* \"webtoken.sol\":12212:12376  function checkTxLimit(address sender, uint256 amount) internal view {... */\n      pop\n      pop\n      jump\t// out\n        /* \"webtoken.sol\":13760:13952  function shouldSwapBack() internal view returns (bool) {... */\n    tag_454:\n        /* \"webtoken.sol\":13809:13813  bool */\n      0x00\n        /* \"webtoken.sol\":13846:13850  pair */\n      0x17\n      0x00\n      swap1\n      sload\n      swap1\n      0x0100\n      exp\n      swap1\n      div\n      0xffffffffffffffffffffffffffffffffffffffff\n      and\n        /* \"webtoken.sol\":13832:13850  msg.sender != pair */\n      0xffffffffffffffffffffffffffffffffffffffff\n      and\n        /* \"webtoken.sol\":13832:13842  msg.sender */\n      caller\n        /* \"webtoken.sol\":13832:13850  msg.sender != pair */\n      0xffffffffffffffffffffffffffffffffffffffff\n      and\n      eq\n      iszero\n        /* \"webtoken.sol\":13832:13869  msg.sender != pair... */\n      dup1\n      iszero\n      tag_498\n      jumpi\n      pop\n        /* \"webtoken.sol\":13863:13869  inSwap */\n      0x29\n      0x00\n      swap1\n      sload\n      swap1\n      0x0100\n      exp\n      swap1\n      div\n      0xff\n      and\n        /* \"webtoken.sol\":13862:13869  !inSwap */\n      iszero\n        /* \"webtoken.sol\":13832:13869  msg.sender != pair... */\n    tag_498:\n        /* \"webtoken.sol\":13832:13892  msg.sender != pair... */\n      dup1\n      iszero\n      tag_499\n      jumpi\n      pop\n        /* \"webtoken.sol\":13881:13892  swapEnabled */\n      0x27\n      0x00\n      swap1\n      sload\n      swap1\n      0x0100\n      exp\n      swap1\n      div\n      0xff\n      and\n        /* \"webtoken.sol\":13832:13892  msg.sender != pair... */\n    tag_499:\n        /* \"webtoken.sol\":13832:13945  msg.sender != pair... */\n      dup1\n      iszero\n      tag_500\n      jumpi\n      pop\n        /* \"webtoken.sol\":13932:13945  swapThreshold */\n      sload(0x28)\n        /* \"webtoken.sol\":13904:13913  _balances */\n      0x09\n        /* \"webtoken.sol\":13904:13928  _balances[address(this)] */\n      0x00\n        /* \"webtoken.sol\":13922:13926  this */\n      address\n        /* \"webtoken.sol\":13904:13928  _balances[address(this)] */\n      0xffffffffffffffffffffffffffffffffffffffff\n      and\n      0xffffffffffffffffffffffffffffffffffffffff\n      and\n      dup2\n      mstore\n      0x20\n      add\n      swap1\n      dup2\n      mstore\n      0x20\n      add\n      0x00\n      keccak256\n      sload\n        /* \"webtoken.sol\":13904:13945  _balances[address(this)] >= swapThreshold */\n      lt\n      iszero\n        /* \"webtoken.sol\":13832:13945  msg.sender != pair... */\n    tag_500:\n        /* \"webtoken.sol\":13825:13945  return msg.sender != pair... */\n      swap1\n      pop\n        /* \"webtoken.sol\":13760:13952  function shouldSwapBack() internal view returns (bool) {... */\n      swap1\n      jump\t// out\n        /* \"webtoken.sol\":13958:15418  function swapBack() internal swapping {... */\n    tag_457:\n        /* \"webtoken.sol\":8577:8581  true */\n      0x01\n        /* \"webtoken.sol\":8568:8574  inSwap */\n      0x29\n      0x00\n        /* \"webtoken.sol\":8568:8581  inSwap = true */\n      0x0100\n      exp\n      dup2\n      sload\n      dup2\n      0xff\n      mul\n      not\n      and\n      swap1\n      dup4\n      iszero\n      iszero\n      mul\n      or\n      swap1\n      sstore\n      pop\n        /* \"webtoken.sol\":14006:14033  uint256 dynamicLiquidityFee */\n      0x00\n        /* \"webtoken.sol\":14036:14096  isOverLiquified(targetLiquidity, targetLiquidityDenominator) */\n      tag_503\n        /* \"webtoken.sol\":14052:14067  targetLiquidity */\n      sload(0x14)\n        /* \"webtoken.sol\":14069:14095  targetLiquidityDenominator */\n      sload(0x15)\n        /* \"webtoken.sol\":14036:14051  isOverLiquified */\n      tag_93\n        /* \"webtoken.sol\":14036:14096  isOverLiquified(targetLiquidity, targetLiquidityDenominator) */\n      jump\t// in\n    tag_503:\n        /* \"webtoken.sol\":14036:14115  isOverLiquified(targetLiquidity, targetLiquidityDenominator) ? 0 : liquidityFee */\n      tag_504\n      jumpi\n        /* \"webtoken.sol\":14103:14115  liquidityFee */\n      sload(0x0e)\n        /* \"webtoken.sol\":14036:14115  isOverLiquified(targetLiquidity, targetLiquidityDenominator) ? 0 : liquidityFee */\n      jump(tag_505)\n    tag_504:\n        /* \"webtoken.sol\":14099:14100  0 */\n      0x00\n        /* \"webtoken.sol\":14036:14115  isOverLiquified(targetLiquidity, targetLiquidityDenominator) ? 0 : liquidityFee */\n    tag_505:\n        /* \"webtoken.sol\":14006:14115  uint256 dynamicLiquidityFee = isOverLiquified(targetLiquidity, targetLiquidityDenominator) ? 0 : liquidityFee */\n      swap1\n      pop\n        /* \"webtoken.sol\":14125:14148  uint256 amountToLiquify */\n      0x00\n        /* \"webtoken.sol\":14151:14210  swapThreshold.mul(dynamicLiquidityFee).div(totalFee).div(2) */\n      tag_506\n        /* \"webtoken.sol\":14208:14209  2 */\n      0x02\n        /* \"webtoken.sol\":14151:14203  swapThreshold.mul(dynamicLiquidityFee).div(totalFee) */\n      tag_507\n        /* \"webtoken.sol\":14194:14202  totalFee */\n      sload(0x10)\n        /* \"webtoken.sol\":14151:14189  swapThreshold.mul(dynamicLiquidityFee) */\n      tag_508\n        /* \"webtoken.sol\":14169:14188  dynamicLiquidityFee */\n      dup7\n        /* \"webtoken.sol\":14151:14164  swapThreshold */\n      sload(0x28)\n        /* \"webtoken.sol\":14151:14168  swapThreshold.mul */\n      tag_383\n      swap1\n        /* \"webtoken.sol\":14151:14189  swapThreshold.mul(dynamicLiquidityFee) */\n      swap2\n      swap1\n      0xffffffff\n      and\n      jump\t// in\n    tag_508:\n        /* \"webtoken.sol\":14151:14193  swapThreshold.mul(dynamicLiquidityFee).div */\n      tag_276\n      swap1\n        /* \"webtoken.sol\":14151:14203  swapThreshold.mul(dynamicLiquidityFee).div(totalFee) */\n      swap2\n      swap1\n      0xffffffff\n      and\n      jump\t// in\n    tag_507:\n        /* \"webtoken.sol\":14151:14207  swapThreshold.mul(dynamicLiquidityFee).div(totalFee).div */\n      tag_276\n      swap1\n        /* \"webtoken.sol\":14151:14210  swapThreshold.mul(dynamicLiquidityFee).div(totalFee).div(2) */\n      swap2\n      swap1\n      0xffffffff\n      and\n      jump\t// in\n    tag_506:\n        /* \"webtoken.sol\":14125:14210  uint256 amountToLiquify = swapThreshold.mul(dynamicLiquidityFee).div(totalFee).div(2) */\n      swap1\n      pop\n        /* \"webtoken.sol\":14220:14240  uint256 amountToSwap */\n      0x00\n        /* \"webtoken.sol\":14243:14277  swapThreshold.sub(amountToLiquify) */\n      tag_509\n        /* \"webtoken.sol\":14261:14276  amountToLiquify */\n      dup3\n        /* \"webtoken.sol\":14243:14256  swapThreshold */\n      sload(0x28)\n        /* \"webtoken.sol\":14243:14260  swapThreshold.sub */\n      tag_333\n      swap1\n        /* \"webtoken.sol\":14243:14277  swapThreshold.sub(amountToLiquify) */\n      swap2\n      swap1\n      0xffffffff\n      and\n      jump\t// in\n    tag_509:\n        /* \"webtoken.sol\":14220:14277  uint256 amountToSwap = swapThreshold.sub(amountToLiquify) */\n      swap1\n      pop\n        /* \"webtoken.sol\":14288:14309  address[] memory path */\n      0x00\n        /* \"webtoken.sol\":14326:14327  2 */\n      0x02\n        /* \"webtoken.sol\":14312:14328  new address[](2) */\n      0xffffffffffffffff\n      dup2\n      gt\n      iszero\n      tag_510\n      jumpi\n      mstore(0x00, 0x4e487b7100000000000000000000000000000000000000000000000000000000)\n      mstore(0x04, 0x41)\n      revert(0x00, 0x24)\n    tag_510:\n      mload(0x40)\n      swap1\n      dup1\n      dup3\n      mstore\n      dup1\n      0x20\n      mul\n      0x20\n      add\n      dup3\n      add\n      0x40\n      mstore\n      dup1\n      iszero\n      tag_511\n      jumpi\n      dup2\n      0x20\n      add\n      0x20\n      dup3\n      mul\n      dup1\n      calldatasize\n      dup4\n      calldatacopy\n      dup1\n      dup3\n      add\n      swap2\n      pop\n      pop\n      swap1\n      pop\n    tag_511:\n      pop\n        /* \"webtoken.sol\":14288:14328  address[] memory path = new address[](2) */\n      swap1\n      pop\n        /* \"webtoken.sol\":14356:14360  this */\n      address\n        /* \"webtoken.sol\":14338:14342  path */\n      dup2\n        /* \"webtoken.sol\":14343:14344  0 */\n      0x00\n        /* \"webtoken.sol\":14338:14345  path[0] */\n      dup2\n      mload\n      dup2\n      lt\n      tag_512\n      jumpi\n      mstore(0x00, 0x4e487b7100000000000000000000000000000000000000000000000000000000)\n      mstore(0x04, 0x32)\n      revert(0x00, 0x24)\n    tag_512:\n      0x20\n      mul\n      0x20\n      add\n      add\n        /* \"webtoken.sol\":14338:14361  path[0] = address(this) */\n      swap1\n      0xffffffffffffffffffffffffffffffffffffffff\n      and\n      swap1\n      dup2\n      0xffffffffffffffffffffffffffffffffffffffff\n      and\n      dup2\n      mstore\n      pop\n      pop\n        /* \"webtoken.sol\":14381:14385  WBNB */\n      0x03\n      0x00\n      swap1\n      sload\n      swap1\n      0x0100\n      exp\n      swap1\n      div\n      0xffffffffffffffffffffffffffffffffffffffff\n      and\n        /* \"webtoken.sol\":14371:14375  path */\n      dup2\n        /* \"webtoken.sol\":14376:14377  1 */\n      0x01\n        /* \"webtoken.sol\":14371:14378  path[1] */\n      dup2\n      mload\n      dup2\n      lt\n      tag_513\n      jumpi\n      mstore(0x00, 0x4e487b7100000000000000000000000000000000000000000000000000000000)\n      mstore(0x04, 0x32)\n      revert(0x00, 0x24)\n    tag_513:\n      0x20\n      mul\n      0x20\n      add\n      add\n        /* \"webtoken.sol\":14371:14385  path[1] = WBNB */\n      swap1\n      0xffffffffffffffffffffffffffffffffffffffff\n      and\n      swap1\n      dup2\n      0xffffffffffffffffffffffffffffffffffffffff\n      and\n      dup2\n      mstore\n      pop\n      pop\n        /* \"webtoken.sol\":14395:14416  uint256 balanceBefore */\n      0x00\n        /* \"webtoken.sol\":14419:14440  address(this).balance */\n      selfbalance\n        /* \"webtoken.sol\":14395:14440  uint256 balanceBefore = address(this).balance */\n      swap1\n      pop\n        /* \"webtoken.sol\":14451:14457  router */\n      0x16\n      0x00\n      swap1\n      sload\n      swap1\n      0x0100\n      exp\n      swap1\n      div\n      0xffffffffffffffffffffffffffffffffffffffff\n      and\n        /* \"webtoken.sol\":14451:14508  router.swapExactTokensForETHSupportingFeeOnTransferTokens */\n      0xffffffffffffffffffffffffffffffffffffffff\n      and\n      0x791ac947\n        /* \"webtoken.sol\":14522:14534  amountToSwap */\n      dup5\n        /* \"webtoken.sol\":14548:14549  0 */\n      0x00\n        /* \"webtoken.sol\":14563:14567  path */\n      dup6\n        /* \"webtoken.sol\":14589:14593  this */\n      address\n        /* \"webtoken.sol\":14608:14623  block.timestamp */\n      timestamp\n        /* \"webtoken.sol\":14451:14633  router.swapExactTokensForETHSupportingFeeOnTransferTokens(... */\n      mload(0x40)\n      dup7\n      0xffffffff\n      and\n      0xe0\n      shl\n      dup2\n      mstore\n      0x04\n      add\n      tag_514\n      swap6\n      swap5\n      swap4\n      swap3\n      swap2\n      swap1\n      tag_515\n      jump\t// in\n    tag_514:\n      0x00\n      mload(0x40)\n      dup1\n      dup4\n      sub\n      dup2\n      0x00\n      dup8\n      dup1\n      extcodesize\n      iszero\n      dup1\n      iszero\n      tag_516\n      jumpi\n      0x00\n      dup1\n      revert\n    tag_516:\n      pop\n      gas\n      call\n      iszero\n      dup1\n      iszero\n      tag_518\n      jumpi\n      returndatasize\n      0x00\n      dup1\n      returndatacopy\n      revert(0x00, returndatasize)\n    tag_518:\n      pop\n      pop\n      pop\n      pop\n        /* \"webtoken.sol\":14644:14661  uint256 amountBNB */\n      0x00\n        /* \"webtoken.sol\":14664:14704  address(this).balance.sub(balanceBefore) */\n      tag_519\n        /* \"webtoken.sol\":14690:14703  balanceBefore */\n      dup3\n        /* \"webtoken.sol\":14664:14685  address(this).balance */\n      selfbalance\n        /* \"webtoken.sol\":14664:14689  address(this).balance.sub */\n      tag_333\n      swap1\n        /* \"webtoken.sol\":14664:14704  address(this).balance.sub(balanceBefore) */\n      swap2\n      swap1\n      0xffffffff\n      and\n      jump\t// in\n    tag_519:\n        /* \"webtoken.sol\":14644:14704  uint256 amountBNB = address(this).balance.sub(balanceBefore) */\n      swap1\n      pop\n        /* \"webtoken.sol\":14715:14734  uint256 totalBNBFee */\n      0x00\n        /* \"webtoken.sol\":14737:14777  totalFee.sub(dynamicLiquidityFee.div(2)) */\n      tag_520\n        /* \"webtoken.sol\":14750:14776  dynamicLiquidityFee.div(2) */\n      tag_521\n        /* \"webtoken.sol\":14774:14775  2 */\n      0x02\n        /* \"webtoken.sol\":14750:14769  dynamicLiquidityFee */\n      dup10\n        /* \"webtoken.sol\":14750:14773  dynamicLiquidityFee.div */\n      tag_276\n      swap1\n        /* \"webtoken.sol\":14750:14776  dynamicLiquidityFee.div(2) */\n      swap2\n      swap1\n      0xffffffff\n      and\n      jump\t// in\n    tag_521:\n        /* \"webtoken.sol\":14737:14745  totalFee */\n      sload(0x10)\n        /* \"webtoken.sol\":14737:14749  totalFee.sub */\n      tag_333\n      swap1\n        /* \"webtoken.sol\":14737:14777  totalFee.sub(dynamicLiquidityFee.div(2)) */\n      swap2\n      swap1\n      0xffffffff\n      and\n      jump\t// in\n    tag_520:\n        /* \"webtoken.sol\":14715:14777  uint256 totalBNBFee = totalFee.sub(dynamicLiquidityFee.div(2)) */\n      swap1\n      pop\n        /* \"webtoken.sol\":14788:14814  uint256 amountBNBLiquidity */\n      0x00\n        /* \"webtoken.sol\":14817:14875  amountBNB.mul(dynamicLiquidityFee).div(totalBNBFee).div(2) */\n      tag_522\n        /* \"webtoken.sol\":14873:14874  2 */\n      0x02\n        /* \"webtoken.sol\":14817:14868  amountBNB.mul(dynamicLiquidityFee).div(totalBNBFee) */\n      tag_523\n        /* \"webtoken.sol\":14856:14867  totalBNBFee */\n      dup5\n        /* \"webtoken.sol\":14817:14851  amountBNB.mul(dynamicLiquidityFee) */\n      tag_524\n        /* \"webtoken.sol\":14831:14850  dynamicLiquidityFee */\n      dup13\n        /* \"webtoken.sol\":14817:14826  amountBNB */\n      dup9\n        /* \"webtoken.sol\":14817:14830  amountBNB.mul */\n      tag_383\n      swap1\n        /* \"webtoken.sol\":14817:14851  amountBNB.mul(dynamicLiquidityFee) */\n      swap2\n      swap1\n      0xffffffff\n      and\n      jump\t// in\n    tag_524:\n        /* \"webtoken.sol\":14817:14855  amountBNB.mul(dynamicLiquidityFee).div */\n      tag_276\n      swap1\n        /* \"webtoken.sol\":14817:14868  amountBNB.mul(dynamicLiquidityFee).div(totalBNBFee) */\n      swap2\n      swap1\n      0xffffffff\n      and\n      jump\t// in\n    tag_523:\n        /* \"webtoken.sol\":14817:14872  amountBNB.mul(dynamicLiquidityFee).div(totalBNBFee).div */\n      tag_276\n      swap1\n        /* \"webtoken.sol\":14817:14875  amountBNB.mul(dynamicLiquidityFee).div(totalBNBFee).div(2) */\n      swap2\n      swap1\n      0xffffffff\n      and\n      jump\t// in\n    tag_522:\n        /* \"webtoken.sol\":14788:14875  uint256 amountBNBLiquidity = amountBNB.mul(dynamicLiquidityFee).div(totalBNBFee).div(2) */\n      swap1\n      pop\n        /* \"webtoken.sol\":14885:14911  uint256 amountBNBMarketing */\n      0x00\n        /* \"webtoken.sol\":14914:14958  amountBNB.mul(marketingFee).div(totalBNBFee) */\n      tag_525\n        /* \"webtoken.sol\":14946:14957  totalBNBFee */\n      dup4\n        /* \"webtoken.sol\":14914:14941  amountBNB.mul(marketingFee) */\n      tag_526\n        /* \"webtoken.sol\":14928:14940  marketingFee */\n      sload(0x0f)\n        /* \"webtoken.sol\":14914:14923  amountBNB */\n      dup8\n        /* \"webtoken.sol\":14914:14927  amountBNB.mul */\n      tag_383\n      swap1\n        /* \"webtoken.sol\":14914:14941  amountBNB.mul(marketingFee) */\n      swap2\n      swap1\n      0xffffffff\n      and\n      jump\t// in\n    tag_526:\n        /* \"webtoken.sol\":14914:14945  amountBNB.mul(marketingFee).div */\n      tag_276\n      swap1\n        /* \"webtoken.sol\":14914:14958  amountBNB.mul(marketingFee).div(totalBNBFee) */\n      swap2\n      swap1\n      0xffffffff\n      and\n      jump\t// in\n    tag_525:\n        /* \"webtoken.sol\":14885:14958  uint256 amountBNBMarketing = amountBNB.mul(marketingFee).div(totalBNBFee) */\n      swap1\n      pop\n        /* \"webtoken.sol\":14977:14997  marketingFeeReceiver */\n      0x13\n      0x00\n      swap1\n      sload\n      swap1\n      0x0100\n      exp\n      swap1\n      div\n      0xffffffffffffffffffffffffffffffffffffffff\n      and\n        /* \"webtoken.sol\":14969:15007  payable(marketingFeeReceiver).transfer */\n      0xffffffffffffffffffffffffffffffffffffffff\n      and\n        /* \"webtoken.sol\":14969:15027  payable(marketingFeeReceiver).transfer(amountBNBMarketing) */\n      0x08fc\n        /* \"webtoken.sol\":15008:15026  amountBNBMarketing */\n      dup3\n        /* \"webtoken.sol\":14969:15027  payable(marketingFeeReceiver).transfer(amountBNBMarketing) */\n      swap1\n      dup2\n      iszero\n      mul\n      swap1\n      mload(0x40)\n      0x00\n      mload(0x40)\n      dup1\n      dup4\n      sub\n      dup2\n      dup6\n      dup9\n      dup9\n      call\n      swap4\n      pop\n      pop\n      pop\n      pop\n      iszero\n      dup1\n      iszero\n      tag_528\n      jumpi\n      returndatasize\n      0x00\n      dup1\n      returndatacopy\n      revert(0x00, returndatasize)\n    tag_528:\n      pop\n        /* \"webtoken.sol\":15081:15082  0 */\n      0x00\n        /* \"webtoken.sol\":15063:15078  amountToLiquify */\n      dup9\n        /* \"webtoken.sol\":15063:15082  amountToLiquify > 0 */\n      gt\n        /* \"webtoken.sol\":15060:15412  if(amountToLiquify > 0){... */\n      iszero\n      tag_529\n      jumpi\n        /* \"webtoken.sol\":15097:15103  router */\n      0x16\n      0x00\n      swap1\n      sload\n      swap1\n      0x0100\n      exp\n      swap1\n      div\n      0xffffffffffffffffffffffffffffffffffffffff\n      and\n        /* \"webtoken.sol\":15097:15119  router.addLiquidityETH */\n      0xffffffffffffffffffffffffffffffffffffffff\n      and\n      0xf305d719\n        /* \"webtoken.sol\":15127:15145  amountBNBLiquidity */\n      dup4\n        /* \"webtoken.sol\":15172:15176  this */\n      address\n        /* \"webtoken.sol\":15195:15210  amountToLiquify */\n      dup12\n        /* \"webtoken.sol\":15228:15229  0 */\n      0x00\n        /* \"webtoken.sol\":15247:15248  0 */\n      dup1\n        /* \"webtoken.sol\":15266:15287  autoLiquidityReceiver */\n      0x12\n      0x00\n      swap1\n      sload\n      swap1\n      0x0100\n      exp\n      swap1\n      div\n      0xffffffffffffffffffffffffffffffffffffffff\n      and\n        /* \"webtoken.sol\":15305:15320  block.timestamp */\n      timestamp\n        /* \"webtoken.sol\":15097:15334  router.addLiquidityETH{value: amountBNBLiquidity}(... */\n      mload(0x40)\n      dup9\n      0xffffffff\n      and\n      0xe0\n      shl\n      dup2\n      mstore\n      0x04\n      add\n      tag_530\n      swap7\n      swap6\n      swap5\n      swap4\n      swap3\n      swap2\n      swap1\n      tag_531\n      jump\t// in\n    tag_530:\n      0x60\n      mload(0x40)\n      dup1\n      dup4\n      sub\n      dup2\n      dup6\n      dup9\n      dup1\n      extcodesize\n      iszero\n      dup1\n      iszero\n      tag_532\n      jumpi\n      0x00\n      dup1\n      revert\n    tag_532:\n      pop\n      gas\n      call\n      iszero\n      dup1\n      iszero\n      tag_534\n      jumpi\n      returndatasize\n      0x00\n      dup1\n      returndatacopy\n      revert(0x00, returndatasize)\n    tag_534:\n      pop\n      pop\n      pop\n      pop\n      pop\n      mload(0x40)\n      returndatasize\n      not(0x1f)\n      0x1f\n      dup3\n      add\n      and\n      dup3\n      add\n      dup1\n      0x40\n      mstore\n      pop\n      dup2\n      add\n      swap1\n      tag_535\n      swap2\n      swap1\n      tag_536\n      jump\t// in\n    tag_535:\n      pop\n      pop\n      pop\n        /* \"webtoken.sol\":15353:15401  AutoLiquify(amountBNBLiquidity, amountToLiquify) */\n      0x424db2872186fa7e7afa7a5e902ed3b49a2ef19c2f5431e672462495dd6b4506\n        /* \"webtoken.sol\":15365:15383  amountBNBLiquidity */\n      dup3\n        /* \"webtoken.sol\":15385:15400  amountToLiquify */\n      dup10\n        /* \"webtoken.sol\":15353:15401  AutoLiquify(amountBNBLiquidity, amountToLiquify) */\n      mload(0x40)\n      tag_537\n      swap3\n      swap2\n      swap1\n      tag_538\n      jump\t// in\n    tag_537:\n      mload(0x40)\n      dup1\n      swap2\n      sub\n      swap1\n      log1\n        /* \"webtoken.sol\":15060:15412  if(amountToLiquify > 0){... */\n    tag_529:\n        /* \"webtoken.sol\":8583:8584  _ */\n      pop\n      pop\n      pop\n      pop\n      pop\n      pop\n      pop\n      pop\n      pop\n        /* \"webtoken.sol\":8595:8600  false */\n      0x00\n        /* \"webtoken.sol\":8586:8592  inSwap */\n      0x29\n      0x00\n        /* \"webtoken.sol\":8586:8600  inSwap = false */\n      0x0100\n      exp\n      dup2\n      sload\n      dup2\n      0xff\n      mul\n      not\n      and\n      swap1\n      dup4\n      iszero\n      iszero\n      mul\n      or\n      swap1\n      sstore\n      pop\n        /* \"webtoken.sol\":13958:15418  function swapBack() internal swapping {... */\n      jump\t// out\n        /* \"webtoken.sol\":15424:15736  function shouldAutoBuyback() internal view returns (bool) {... */\n    tag_459:\n        /* \"webtoken.sol\":15476:15480  bool */\n      0x00\n        /* \"webtoken.sol\":15513:15517  pair */\n      0x17\n      0x00\n      swap1\n      sload\n      swap1\n      0x0100\n      exp\n      swap1\n      div\n      0xffffffffffffffffffffffffffffffffffffffff\n      and\n        /* \"webtoken.sol\":15499:15517  msg.sender != pair */\n      0xffffffffffffffffffffffffffffffffffffffff\n      and\n        /* \"webtoken.sol\":15499:15509  msg.sender */\n      caller\n        /* \"webtoken.sol\":15499:15517  msg.sender != pair */\n      0xffffffffffffffffffffffffffffffffffffffff\n      and\n      eq\n      iszero\n        /* \"webtoken.sol\":15499:15536  msg.sender != pair... */\n      dup1\n      iszero\n      tag_540\n      jumpi\n      pop\n        /* \"webtoken.sol\":15530:15536  inSwap */\n      0x29\n      0x00\n      swap1\n      sload\n      swap1\n      0x0100\n      exp\n      swap1\n      div\n      0xff\n      and\n        /* \"webtoken.sol\":15529:15536  !inSwap */\n      iszero\n        /* \"webtoken.sol\":15499:15536  msg.sender != pair... */\n    tag_540:\n        /* \"webtoken.sol\":15499:15566  msg.sender != pair... */\n      dup1\n      iszero\n      tag_541\n      jumpi\n      pop\n        /* \"webtoken.sol\":15548:15566  autoBuybackEnabled */\n      0x1e\n      0x00\n      swap1\n      sload\n      swap1\n      0x0100\n      exp\n      swap1\n      div\n      0xff\n      and\n        /* \"webtoken.sol\":15499:15566  msg.sender != pair... */\n    tag_541:\n        /* \"webtoken.sol\":15499:15639  msg.sender != pair... */\n      dup1\n      iszero\n      tag_542\n      jumpi\n      pop\n        /* \"webtoken.sol\":15627:15639  block.number */\n      number\n        /* \"webtoken.sol\":15601:15623  autoBuybackBlockPeriod */\n      sload(0x23)\n        /* \"webtoken.sol\":15578:15598  autoBuybackBlockLast */\n      sload(0x24)\n        /* \"webtoken.sol\":15578:15623  autoBuybackBlockLast + autoBuybackBlockPeriod */\n      tag_543\n      swap2\n      swap1\n      tag_386\n      jump\t// in\n    tag_543:\n        /* \"webtoken.sol\":15578:15639  autoBuybackBlockLast + autoBuybackBlockPeriod <= block.number */\n      gt\n      iszero\n        /* \"webtoken.sol\":15499:15639  msg.sender != pair... */\n    tag_542:\n        /* \"webtoken.sol\":15499:15729  msg.sender != pair... */\n      dup1\n      iszero\n      tag_544\n      jumpi\n      pop\n        /* \"webtoken.sol\":15712:15729  autoBuybackAmount */\n      sload(0x22)\n        /* \"webtoken.sol\":15687:15708  address(this).balance */\n      selfbalance\n        /* \"webtoken.sol\":15687:15729  address(this).balance >= autoBuybackAmount */\n      lt\n      iszero\n        /* \"webtoken.sol\":15499:15729  msg.sender != pair... */\n    tag_544:\n        /* \"webtoken.sol\":15492:15729  return msg.sender != pair... */\n      swap1\n      pop\n        /* \"webtoken.sol\":15424:15736  function shouldAutoBuyback() internal view returns (bool) {... */\n      swap1\n      jump\t// out\n        /* \"webtoken.sol\":16167:16465  function triggerAutoBuyback() internal {... */\n    tag_462:\n        /* \"webtoken.sol\":16216:16250  buyTokens(autoBuybackAmount, DEAD) */\n      tag_546\n        /* \"webtoken.sol\":16226:16243  autoBuybackAmount */\n      sload(0x22)\n        /* \"webtoken.sol\":16245:16249  DEAD */\n      0x04\n      0x00\n      swap1\n      sload\n      swap1\n      0x0100\n      exp\n      swap1\n      div\n      0xffffffffffffffffffffffffffffffffffffffff\n      and\n        /* \"webtoken.sol\":16216:16225  buyTokens */\n      tag_431\n        /* \"webtoken.sol\":16216:16250  buyTokens(autoBuybackAmount, DEAD) */\n      jump\t// in\n    tag_546:\n        /* \"webtoken.sol\":16283:16295  block.number */\n      number\n        /* \"webtoken.sol\":16260:16280  autoBuybackBlockLast */\n      0x24\n        /* \"webtoken.sol\":16260:16295  autoBuybackBlockLast = block.number */\n      dup2\n      swap1\n      sstore\n      pop\n        /* \"webtoken.sol\":16330:16375  autoBuybackAccumulator.add(autoBuybackAmount) */\n      tag_547\n        /* \"webtoken.sol\":16357:16374  autoBuybackAmount */\n      sload(0x22)\n        /* \"webtoken.sol\":16330:16352  autoBuybackAccumulator */\n      sload(0x21)\n        /* \"webtoken.sol\":16330:16356  autoBuybackAccumulator.add */\n      tag_299\n      swap1\n        /* \"webtoken.sol\":16330:16375  autoBuybackAccumulator.add(autoBuybackAmount) */\n      swap2\n      swap1\n      0xffffffff\n      and\n      jump\t// in\n    tag_547:\n        /* \"webtoken.sol\":16305:16327  autoBuybackAccumulator */\n      0x21\n        /* \"webtoken.sol\":16305:16375  autoBuybackAccumulator = autoBuybackAccumulator.add(autoBuybackAmount) */\n      dup2\n      swap1\n      sstore\n      pop\n        /* \"webtoken.sol\":16413:16427  autoBuybackCap */\n      sload(0x20)\n        /* \"webtoken.sol\":16388:16410  autoBuybackAccumulator */\n      sload(0x21)\n        /* \"webtoken.sol\":16388:16427  autoBuybackAccumulator > autoBuybackCap */\n      gt\n        /* \"webtoken.sol\":16385:16459  if(autoBuybackAccumulator > autoBuybackCap){ autoBuybackEnabled = false; } */\n      iszero\n      tag_548\n      jumpi\n        /* \"webtoken.sol\":16451:16456  false */\n      0x00\n        /* \"webtoken.sol\":16430:16448  autoBuybackEnabled */\n      0x1e\n      0x00\n        /* \"webtoken.sol\":16430:16456  autoBuybackEnabled = false */\n      0x0100\n      exp\n      dup2\n      sload\n      dup2\n      0xff\n      mul\n      not\n      and\n      swap1\n      dup4\n      iszero\n      iszero\n      mul\n      or\n      swap1\n      sstore\n      pop\n        /* \"webtoken.sol\":16385:16459  if(autoBuybackAccumulator > autoBuybackCap){ autoBuybackEnabled = false; } */\n    tag_548:\n        /* \"webtoken.sol\":16167:16465  function triggerAutoBuyback() internal {... */\n      jump\t// out\n        /* \"webtoken.sol\":12382:12494  function shouldTakeFee(address sender) internal view returns (bool) {... */\n    tag_465:\n        /* \"webtoken.sol\":12444:12448  bool */\n      0x00\n        /* \"webtoken.sol\":12468:12479  isFeeExempt */\n      0x0b\n        /* \"webtoken.sol\":12468:12487  isFeeExempt[sender] */\n      0x00\n        /* \"webtoken.sol\":12480:12486  sender */\n      dup4\n        /* \"webtoken.sol\":12468:12487  isFeeExempt[sender] */\n      0xffffffffffffffffffffffffffffffffffffffff\n      and\n      0xffffffffffffffffffffffffffffffffffffffff\n      and\n      dup2\n      mstore\n      0x20\n      add\n      swap1\n      dup2\n      mstore\n      0x20\n      add\n      0x00\n      keccak256\n      0x00\n      swap1\n      sload\n      swap1\n      0x0100\n      exp\n      swap1\n      div\n      0xff\n      and\n        /* \"webtoken.sol\":12467:12487  !isFeeExempt[sender] */\n      iszero\n        /* \"webtoken.sol\":12460:12487  return !isFeeExempt[sender] */\n      swap1\n      pop\n        /* \"webtoken.sol\":12382:12494  function shouldTakeFee(address sender) internal view returns (bool) {... */\n      swap2\n      swap1\n      pop\n      jump\t// out\n        /* \"webtoken.sol\":13389:13754  function takeFee(address sender, address receiver, uint256 amount) internal returns (uint256) {... */\n    tag_469:\n        /* \"webtoken.sol\":13474:13481  uint256 */\n      0x00\n        /* \"webtoken.sol\":13493:13510  uint256 feeAmount */\n      dup1\n        /* \"webtoken.sol\":13513:13574  amount.mul(getTotalFee(receiver == pair)).div(feeDenominator) */\n      tag_551\n        /* \"webtoken.sol\":13559:13573  feeDenominator */\n      sload(0x11)\n        /* \"webtoken.sol\":13513:13554  amount.mul(getTotalFee(receiver == pair)) */\n      tag_552\n        /* \"webtoken.sol\":13524:13553  getTotalFee(receiver == pair) */\n      tag_553\n        /* \"webtoken.sol\":13548:13552  pair */\n      0x17\n      0x00\n      swap1\n      sload\n      swap1\n      0x0100\n      exp\n      swap1\n      div\n      0xffffffffffffffffffffffffffffffffffffffff\n      and\n        /* \"webtoken.sol\":13536:13552  receiver == pair */\n      0xffffffffffffffffffffffffffffffffffffffff\n      and\n        /* \"webtoken.sol\":13536:13544  receiver */\n      dup9\n        /* \"webtoken.sol\":13536:13552  receiver == pair */\n      0xffffffffffffffffffffffffffffffffffffffff\n      and\n      eq\n        /* \"webtoken.sol\":13524:13535  getTotalFee */\n      tag_250\n        /* \"webtoken.sol\":13524:13553  getTotalFee(receiver == pair) */\n      jump\t// in\n    tag_553:\n        /* \"webtoken.sol\":13513:13519  amount */\n      dup7\n        /* \"webtoken.sol\":13513:13523  amount.mul */\n      tag_383\n      swap1\n        /* \"webtoken.sol\":13513:13554  amount.mul(getTotalFee(receiver == pair)) */\n      swap2\n      swap1\n      0xffffffff\n      and\n      jump\t// in\n    tag_552:\n        /* \"webtoken.sol\":13513:13558  amount.mul(getTotalFee(receiver == pair)).div */\n      tag_276\n      swap1\n        /* \"webtoken.sol\":13513:13574  amount.mul(getTotalFee(receiver == pair)).div(feeDenominator) */\n      swap2\n      swap1\n      0xffffffff\n      and\n      jump\t// in\n    tag_551:\n        /* \"webtoken.sol\":13493:13574  uint256 feeAmount = amount.mul(getTotalFee(receiver == pair)).div(feeDenominator) */\n      swap1\n      pop\n        /* \"webtoken.sol\":13612:13651  _balances[address(this)].add(feeAmount) */\n      tag_554\n        /* \"webtoken.sol\":13641:13650  feeAmount */\n      dup2\n        /* \"webtoken.sol\":13612:13621  _balances */\n      0x09\n        /* \"webtoken.sol\":13612:13636  _balances[address(this)] */\n      0x00\n        /* \"webtoken.sol\":13630:13634  this */\n      address\n        /* \"webtoken.sol\":13612:13636  _balances[address(this)] */\n      0xffffffffffffffffffffffffffffffffffffffff\n      and\n      0xffffffffffffffffffffffffffffffffffffffff\n      and\n      dup2\n      mstore\n      0x20\n      add\n      swap1\n      dup2\n      mstore\n      0x20\n      add\n      0x00\n      keccak256\n      sload\n        /* \"webtoken.sol\":13612:13640  _balances[address(this)].add */\n      tag_299\n      swap1\n        /* \"webtoken.sol\":13612:13651  _balances[address(this)].add(feeAmount) */\n      swap2\n      swap1\n      0xffffffff\n      and\n      jump\t// in\n    tag_554:\n        /* \"webtoken.sol\":13585:13594  _balances */\n      0x09\n        /* \"webtoken.sol\":13585:13609  _balances[address(this)] */\n      0x00\n        /* \"webtoken.sol\":13603:13607  this */\n      address\n        /* \"webtoken.sol\":13585:13609  _balances[address(this)] */\n      0xffffffffffffffffffffffffffffffffffffffff\n      and\n      0xffffffffffffffffffffffffffffffffffffffff\n      and\n      dup2\n      mstore\n      0x20\n      add\n      swap1\n      dup2\n      mstore\n      0x20\n      add\n      0x00\n      keccak256\n        /* \"webtoken.sol\":13585:13651  _balances[address(this)] = _balances[address(this)].add(feeAmount) */\n      dup2\n      swap1\n      sstore\n      pop\n        /* \"webtoken.sol\":13691:13695  this */\n      address\n        /* \"webtoken.sol\":13666:13708  Transfer(sender, address(this), feeAmount) */\n      0xffffffffffffffffffffffffffffffffffffffff\n      and\n        /* \"webtoken.sol\":13675:13681  sender */\n      dup6\n        /* \"webtoken.sol\":13666:13708  Transfer(sender, address(this), feeAmount) */\n      0xffffffffffffffffffffffffffffffffffffffff\n      and\n      0xddf252ad1be2c89b69c2b068fc378daa952ba7f163c4a11628f55a4df523b3ef\n        /* \"webtoken.sol\":13698:13707  feeAmount */\n      dup4\n        /* \"webtoken.sol\":13666:13708  Transfer(sender, address(this), feeAmount) */\n      mload(0x40)\n      tag_555\n      swap2\n      swap1\n      tag_66\n      jump\t// in\n    tag_555:\n      mload(0x40)\n      dup1\n      swap2\n      sub\n      swap1\n      log3\n        /* \"webtoken.sol\":13726:13747  amount.sub(feeAmount) */\n      tag_556\n        /* \"webtoken.sol\":13737:13746  feeAmount */\n      dup2\n        /* \"webtoken.sol\":13726:13732  amount */\n      dup5\n        /* \"webtoken.sol\":13726:13736  amount.sub */\n      tag_333\n      swap1\n        /* \"webtoken.sol\":13726:13747  amount.sub(feeAmount) */\n      swap2\n      swap1\n      0xffffffff\n      and\n      jump\t// in\n    tag_556:\n        /* \"webtoken.sol\":13719:13747  return amount.sub(feeAmount) */\n      swap2\n      pop\n      pop\n        /* \"webtoken.sol\":13389:13754  function takeFee(address sender, address receiver, uint256 amount) internal returns (uint256) {... */\n      swap4\n      swap3\n      pop\n      pop\n      pop\n      jump\t// out\n        /* \"#utility.yul\":7:146   */\n    tag_558:\n        /* \"#utility.yul\":53:58   */\n      0x00\n        /* \"#utility.yul\":91:97   */\n      dup2\n        /* \"#utility.yul\":78:98   */\n      calldataload\n        /* \"#utility.yul\":69:98   */\n      swap1\n      pop\n        /* \"#utility.yul\":107:140   */\n      tag_560\n        /* \"#utility.yul\":134:139   */\n      dup2\n        /* \"#utility.yul\":107:140   */\n      tag_561\n      jump\t// in\n    tag_560:\n        /* \"#utility.yul\":59:146   */\n      swap3\n      swap2\n      pop\n      pop\n      jump\t// out\n        /* \"#utility.yul\":152:307   */\n    tag_562:\n        /* \"#utility.yul\":206:211   */\n      0x00\n        /* \"#utility.yul\":244:250   */\n      dup2\n        /* \"#utility.yul\":231:251   */\n      calldataload\n        /* \"#utility.yul\":222:251   */\n      swap1\n      pop\n        /* \"#utility.yul\":260:301   */\n      tag_564\n        /* \"#utility.yul\":295:300   */\n      dup2\n        /* \"#utility.yul\":260:301   */\n      tag_565\n      jump\t// in\n    tag_564:\n        /* \"#utility.yul\":212:307   */\n      swap3\n      swap2\n      pop\n      pop\n      jump\t// out\n        /* \"#utility.yul\":313:446   */\n    tag_566:\n        /* \"#utility.yul\":356:361   */\n      0x00\n        /* \"#utility.yul\":394:400   */\n      dup2\n        /* \"#utility.yul\":381:401   */\n      calldataload\n        /* \"#utility.yul\":372:401   */\n      swap1\n      pop\n        /* \"#utility.yul\":410:440   */\n      tag_568\n        /* \"#utility.yul\":434:439   */\n      dup2\n        /* \"#utility.yul\":410:440   */\n      tag_569\n      jump\t// in\n    tag_568:\n        /* \"#utility.yul\":362:446   */\n      swap3\n      swap2\n      pop\n      pop\n      jump\t// out\n        /* \"#utility.yul\":452:591   */\n    tag_570:\n        /* \"#utility.yul\":498:503   */\n      0x00\n        /* \"#utility.yul\":536:542   */\n      dup2\n        /* \"#utility.yul\":523:543   */\n      calldataload\n        /* \"#utility.yul\":514:543   */\n      swap1\n      pop\n        /* \"#utility.yul\":552:585   */\n      tag_572\n        /* \"#utility.yul\":579:584   */\n      dup2\n        /* \"#utility.yul\":552:585   */\n      tag_573\n      jump\t// in\n    tag_572:\n        /* \"#utility.yul\":504:591   */\n      swap3\n      swap2\n      pop\n      pop\n      jump\t// out\n        /* \"#utility.yul\":597:740   */\n    tag_574:\n        /* \"#utility.yul\":654:659   */\n      0x00\n        /* \"#utility.yul\":685:691   */\n      dup2\n        /* \"#utility.yul\":679:692   */\n      mload\n        /* \"#utility.yul\":670:692   */\n      swap1\n      pop\n        /* \"#utility.yul\":701:734   */\n      tag_576\n        /* \"#utility.yul\":728:733   */\n      dup2\n        /* \"#utility.yul\":701:734   */\n      tag_573\n      jump\t// in\n    tag_576:\n        /* \"#utility.yul\":660:740   */\n      swap3\n      swap2\n      pop\n      pop\n      jump\t// out\n        /* \"#utility.yul\":746:1008   */\n    tag_121:\n        /* \"#utility.yul\":805:811   */\n      0x00\n        /* \"#utility.yul\":854:856   */\n      0x20\n        /* \"#utility.yul\":842:851   */\n      dup3\n        /* \"#utility.yul\":833:840   */\n      dup5\n        /* \"#utility.yul\":829:852   */\n      sub\n        /* \"#utility.yul\":825:857   */\n      slt\n        /* \"#utility.yul\":822:824   */\n      iszero\n      tag_578\n      jumpi\n        /* \"#utility.yul\":870:871   */\n      0x00\n        /* \"#utility.yul\":867:868   */\n      dup1\n        /* \"#utility.yul\":860:872   */\n      revert\n        /* \"#utility.yul\":822:824   */\n    tag_578:\n        /* \"#utility.yul\":913:914   */\n      0x00\n        /* \"#utility.yul\":938:991   */\n      tag_579\n        /* \"#utility.yul\":983:990   */\n      dup5\n        /* \"#utility.yul\":974:980   */\n      dup3\n        /* \"#utility.yul\":963:972   */\n      dup6\n        /* \"#utility.yul\":959:981   */\n      add\n        /* \"#utility.yul\":938:991   */\n      tag_558\n      jump\t// in\n    tag_579:\n        /* \"#utility.yul\":928:991   */\n      swap2\n      pop\n        /* \"#utility.yul\":884:1001   */\n      pop\n        /* \"#utility.yul\":812:1008   */\n      swap3\n      swap2\n      pop\n      pop\n      jump\t// out\n        /* \"#utility.yul\":1014:1292   */\n    tag_255:\n        /* \"#utility.yul\":1081:1087   */\n      0x00\n        /* \"#utility.yul\":1130:1132   */\n      0x20\n        /* \"#utility.yul\":1118:1127   */\n      dup3\n        /* \"#utility.yul\":1109:1116   */\n      dup5\n        /* \"#utility.yul\":1105:1128   */\n      sub\n        /* \"#utility.yul\":1101:1133   */\n      slt\n        /* \"#utility.yul\":1098:1100   */\n      iszero\n      tag_581\n      jumpi\n        /* \"#utility.yul\":1146:1147   */\n      0x00\n        /* \"#utility.yul\":1143:1144   */\n      dup1\n        /* \"#utility.yul\":1136:1148   */\n      revert\n        /* \"#utility.yul\":1098:1100   */\n    tag_581:\n        /* \"#utility.yul\":1189:1190   */\n      0x00\n        /* \"#utility.yul\":1214:1275   */\n      tag_582\n        /* \"#utility.yul\":1267:1274   */\n      dup5\n        /* \"#utility.yul\":1258:1264   */\n      dup3\n        /* \"#utility.yul\":1247:1256   */\n      dup6\n        /* \"#utility.yul\":1243:1265   */\n      add\n        /* \"#utility.yul\":1214:1275   */\n      tag_562\n      jump\t// in\n    tag_582:\n        /* \"#utility.yul\":1204:1275   */\n      swap2\n      pop\n        /* \"#utility.yul\":1160:1285   */\n      pop\n        /* \"#utility.yul\":1088:1292   */\n      swap3\n      swap2\n      pop\n      pop\n      jump\t// out\n        /* \"#utility.yul\":1298:1705   */\n    tag_181:\n        /* \"#utility.yul\":1366:1372   */\n      0x00\n        /* \"#utility.yul\":1374:1380   */\n      dup1\n        /* \"#utility.yul\":1423:1425   */\n      0x40\n        /* \"#utility.yul\":1411:1420   */\n      dup4\n        /* \"#utility.yul\":1402:1409   */\n      dup6\n        /* \"#utility.yul\":1398:1421   */\n      sub\n        /* \"#utility.yul\":1394:1426   */\n      slt\n        /* \"#utility.yul\":1391:1393   */\n      iszero\n      tag_584\n      jumpi\n        /* \"#utility.yul\":1439:1440   */\n      0x00\n        /* \"#utility.yul\":1436:1437   */\n      dup1\n        /* \"#utility.yul\":1429:1441   */\n      revert\n        /* \"#utility.yul\":1391:1393   */\n    tag_584:\n        /* \"#utility.yul\":1482:1483   */\n      0x00\n        /* \"#utility.yul\":1507:1560   */\n      tag_585\n        /* \"#utility.yul\":1552:1559   */\n      dup6\n        /* \"#utility.yul\":1543:1549   */\n      dup3\n        /* \"#utility.yul\":1532:1541   */\n      dup7\n        /* \"#utility.yul\":1528:1550   */\n      add\n        /* \"#utility.yul\":1507:1560   */\n      tag_558\n      jump\t// in\n    tag_585:\n        /* \"#utility.yul\":1497:1560   */\n      swap3\n      pop\n        /* \"#utility.yul\":1453:1570   */\n      pop\n        /* \"#utility.yul\":1609:1611   */\n      0x20\n        /* \"#utility.yul\":1635:1688   */\n      tag_586\n        /* \"#utility.yul\":1680:1687   */\n      dup6\n        /* \"#utility.yul\":1671:1677   */\n      dup3\n        /* \"#utility.yul\":1660:1669   */\n      dup7\n        /* \"#utility.yul\":1656:1678   */\n      add\n        /* \"#utility.yul\":1635:1688   */\n      tag_558\n      jump\t// in\n    tag_586:\n        /* \"#utility.yul\":1625:1688   */\n      swap2\n      pop\n        /* \"#utility.yul\":1580:1698   */\n      pop\n        /* \"#utility.yul\":1381:1705   */\n      swap3\n      pop\n      swap3\n      swap1\n      pop\n      jump\t// out\n        /* \"#utility.yul\":1711:2263   */\n    tag_111:\n        /* \"#utility.yul\":1788:1794   */\n      0x00\n        /* \"#utility.yul\":1796:1802   */\n      dup1\n        /* \"#utility.yul\":1804:1810   */\n      0x00\n        /* \"#utility.yul\":1853:1855   */\n      0x60\n        /* \"#utility.yul\":1841:1850   */\n      dup5\n        /* \"#utility.yul\":1832:1839   */\n      dup7\n        /* \"#utility.yul\":1828:1851   */\n      sub\n        /* \"#utility.yul\":1824:1856   */\n      slt\n        /* \"#utility.yul\":1821:1823   */\n      iszero\n      tag_588\n      jumpi\n        /* \"#utility.yul\":1869:1870   */\n      0x00\n        /* \"#utility.yul\":1866:1867   */\n      dup1\n        /* \"#utility.yul\":1859:1871   */\n      revert\n        /* \"#utility.yul\":1821:1823   */\n    tag_588:\n        /* \"#utility.yul\":1912:1913   */\n      0x00\n        /* \"#utility.yul\":1937:1990   */\n      tag_589\n        /* \"#utility.yul\":1982:1989   */\n      dup7\n        /* \"#utility.yul\":1973:1979   */\n      dup3\n        /* \"#utility.yul\":1962:1971   */\n      dup8\n        /* \"#utility.yul\":1958:1980   */\n      add\n        /* \"#utility.yul\":1937:1990   */\n      tag_558\n      jump\t// in\n    tag_589:\n        /* \"#utility.yul\":1927:1990   */\n      swap4\n      pop\n        /* \"#utility.yul\":1883:2000   */\n      pop\n        /* \"#utility.yul\":2039:2041   */\n      0x20\n        /* \"#utility.yul\":2065:2118   */\n      tag_590\n        /* \"#utility.yul\":2110:2117   */\n      dup7\n        /* \"#utility.yul\":2101:2107   */\n      dup3\n        /* \"#utility.yul\":2090:2099   */\n      dup8\n        /* \"#utility.yul\":2086:2108   */\n      add\n        /* \"#utility.yul\":2065:2118   */\n      tag_558\n      jump\t// in\n    tag_590:\n        /* \"#utility.yul\":2055:2118   */\n      swap3\n      pop\n        /* \"#utility.yul\":2010:2128   */\n      pop\n        /* \"#utility.yul\":2167:2169   */\n      0x40\n        /* \"#utility.yul\":2193:2246   */\n      tag_591\n        /* \"#utility.yul\":2238:2245   */\n      dup7\n        /* \"#utility.yul\":2229:2235   */\n      dup3\n        /* \"#utility.yul\":2218:2227   */\n      dup8\n        /* \"#utility.yul\":2214:2236   */\n      add\n        /* \"#utility.yul\":2193:2246   */\n      tag_570\n      jump\t// in\n    tag_591:\n        /* \"#utility.yul\":2183:2246   */\n      swap2\n      pop\n        /* \"#utility.yul\":2138:2256   */\n      pop\n        /* \"#utility.yul\":1811:2263   */\n      swap3\n      pop\n      swap3\n      pop\n      swap3\n      jump\t// out\n        /* \"#utility.yul\":2269:2670   */\n    tag_146:\n        /* \"#utility.yul\":2334:2340   */\n      0x00\n        /* \"#utility.yul\":2342:2348   */\n      dup1\n        /* \"#utility.yul\":2391:2393   */\n      0x40\n        /* \"#utility.yul\":2379:2388   */\n      dup4\n        /* \"#utility.yul\":2370:2377   */\n      dup6\n        /* \"#utility.yul\":2366:2389   */\n      sub\n        /* \"#utility.yul\":2362:2394   */\n      slt\n        /* \"#utility.yul\":2359:2361   */\n      iszero\n      tag_593\n      jumpi\n        /* \"#utility.yul\":2407:2408   */\n      0x00\n        /* \"#utility.yul\":2404:2405   */\n      dup1\n        /* \"#utility.yul\":2397:2409   */\n      revert\n        /* \"#utility.yul\":2359:2361   */\n    tag_593:\n        /* \"#utility.yul\":2450:2451   */\n      0x00\n        /* \"#utility.yul\":2475:2528   */\n      tag_594\n        /* \"#utility.yul\":2520:2527   */\n      dup6\n        /* \"#utility.yul\":2511:2517   */\n      dup3\n        /* \"#utility.yul\":2500:2509   */\n      dup7\n        /* \"#utility.yul\":2496:2518   */\n      add\n        /* \"#utility.yul\":2475:2528   */\n      tag_558\n      jump\t// in\n    tag_594:\n        /* \"#utility.yul\":2465:2528   */\n      swap3\n      pop\n        /* \"#utility.yul\":2421:2538   */\n      pop\n        /* \"#utility.yul\":2577:2579   */\n      0x20\n        /* \"#utility.yul\":2603:2653   */\n      tag_595\n        /* \"#utility.yul\":2645:2652   */\n      dup6\n        /* \"#utility.yul\":2636:2642   */\n      dup3\n        /* \"#utility.yul\":2625:2634   */\n      dup7\n        /* \"#utility.yul\":2621:2643   */\n      add\n        /* \"#utility.yul\":2603:2653   */\n      tag_566\n      jump\t// in\n    tag_595:\n        /* \"#utility.yul\":2593:2653   */\n      swap2\n      pop\n        /* \"#utility.yul\":2548:2663   */\n      pop\n        /* \"#utility.yul\":2349:2670   */\n      swap3\n      pop\n      swap3\n      swap1\n      pop\n      jump\t// out\n        /* \"#utility.yul\":2676:3083   */\n    tag_85:\n        /* \"#utility.yul\":2744:2750   */\n      0x00\n        /* \"#utility.yul\":2752:2758   */\n      dup1\n        /* \"#utility.yul\":2801:2803   */\n      0x40\n        /* \"#utility.yul\":2789:2798   */\n      dup4\n        /* \"#utility.yul\":2780:2787   */\n      dup6\n        /* \"#utility.yul\":2776:2799   */\n      sub\n        /* \"#utility.yul\":2772:2804   */\n      slt\n        /* \"#utility.yul\":2769:2771   */\n      iszero\n      tag_597\n      jumpi\n        /* \"#utility.yul\":2817:2818   */\n      0x00\n        /* \"#utility.yul\":2814:2815   */\n      dup1\n        /* \"#utility.yul\":2807:2819   */\n      revert\n        /* \"#utility.yul\":2769:2771   */\n    tag_597:\n        /* \"#utility.yul\":2860:2861   */\n      0x00\n        /* \"#utility.yul\":2885:2938   */\n      tag_598\n        /* \"#utility.yul\":2930:2937   */\n      dup6\n        /* \"#utility.yul\":2921:2927   */\n      dup3\n        /* \"#utility.yul\":2910:2919   */\n      dup7\n        /* \"#utility.yul\":2906:2928   */\n      add\n        /* \"#utility.yul\":2885:2938   */\n      tag_558\n      jump\t// in\n    tag_598:\n        /* \"#utility.yul\":2875:2938   */\n      swap3\n      pop\n        /* \"#utility.yul\":2831:2948   */\n      pop\n        /* \"#utility.yul\":2987:2989   */\n      0x20\n        /* \"#utility.yul\":3013:3066   */\n      tag_599\n        /* \"#utility.yul\":3058:3065   */\n      dup6\n        /* \"#utility.yul\":3049:3055   */\n      dup3\n        /* \"#utility.yul\":3038:3047   */\n      dup7\n        /* \"#utility.yul\":3034:3056   */\n      add\n        /* \"#utility.yul\":3013:3066   */\n      tag_570\n      jump\t// in\n    tag_599:\n        /* \"#utility.yul\":3003:3066   */\n      swap2\n      pop\n        /* \"#utility.yul\":2958:3076   */\n      pop\n        /* \"#utility.yul\":2759:3083   */\n      swap3\n      pop\n      swap3\n      swap1\n      pop\n      jump\t// out\n        /* \"#utility.yul\":3089:3345   */\n    tag_249:\n        /* \"#utility.yul\":3145:3151   */\n      0x00\n        /* \"#utility.yul\":3194:3196   */\n      0x20\n        /* \"#utility.yul\":3182:3191   */\n      dup3\n        /* \"#utility.yul\":3173:3180   */\n      dup5\n        /* \"#utility.yul\":3169:3192   */\n      sub\n        /* \"#utility.yul\":3165:3197   */\n      slt\n        /* \"#utility.yul\":3162:3164   */\n      iszero\n      tag_601\n      jumpi\n        /* \"#utility.yul\":3210:3211   */\n      0x00\n        /* \"#utility.yul\":3207:3208   */\n      dup1\n        /* \"#utility.yul\":3200:3212   */\n      revert\n        /* \"#utility.yul\":3162:3164   */\n    tag_601:\n        /* \"#utility.yul\":3253:3254   */\n      0x00\n        /* \"#utility.yul\":3278:3328   */\n      tag_602\n        /* \"#utility.yul\":3320:3327   */\n      dup5\n        /* \"#utility.yul\":3311:3317   */\n      dup3\n        /* \"#utility.yul\":3300:3309   */\n      dup6\n        /* \"#utility.yul\":3296:3318   */\n      add\n        /* \"#utility.yul\":3278:3328   */\n      tag_566\n      jump\t// in\n    tag_602:\n        /* \"#utility.yul\":3268:3328   */\n      swap2\n      pop\n        /* \"#utility.yul\":3224:3338   */\n      pop\n        /* \"#utility.yul\":3152:3345   */\n      swap3\n      swap2\n      pop\n      pop\n      jump\t// out\n        /* \"#utility.yul\":3351:3752   */\n    tag_232:\n        /* \"#utility.yul\":3416:3422   */\n      0x00\n        /* \"#utility.yul\":3424:3430   */\n      dup1\n        /* \"#utility.yul\":3473:3475   */\n      0x40\n        /* \"#utility.yul\":3461:3470   */\n      dup4\n        /* \"#utility.yul\":3452:3459   */\n      dup6\n        /* \"#utility.yul\":3448:3471   */\n      sub\n        /* \"#utility.yul\":3444:3476   */\n      slt\n        /* \"#utility.yul\":3441:3443   */\n      iszero\n      tag_604\n      jumpi\n        /* \"#utility.yul\":3489:3490   */\n      0x00\n        /* \"#utility.yul\":3486:3487   */\n      dup1\n        /* \"#utility.yul\":3479:3491   */\n      revert\n        /* \"#utility.yul\":3441:3443   */\n    tag_604:\n        /* \"#utility.yul\":3532:3533   */\n      0x00\n        /* \"#utility.yul\":3557:3607   */\n      tag_605\n        /* \"#utility.yul\":3599:3606   */\n      dup6\n        /* \"#utility.yul\":3590:3596   */\n      dup3\n        /* \"#utility.yul\":3579:3588   */\n      dup7\n        /* \"#utility.yul\":3575:3597   */\n      add\n        /* \"#utility.yul\":3557:3607   */\n      tag_566\n      jump\t// in\n    tag_605:\n        /* \"#utility.yul\":3547:3607   */\n      swap3\n      pop\n        /* \"#utility.yul\":3503:3617   */\n      pop\n        /* \"#utility.yul\":3656:3658   */\n      0x20\n        /* \"#utility.yul\":3682:3735   */\n      tag_606\n        /* \"#utility.yul\":3727:3734   */\n      dup6\n        /* \"#utility.yul\":3718:3724   */\n      dup3\n        /* \"#utility.yul\":3707:3716   */\n      dup7\n        /* \"#utility.yul\":3703:3725   */\n      add\n        /* \"#utility.yul\":3682:3735   */\n      tag_570\n      jump\t// in\n    tag_606:\n        /* \"#utility.yul\":3672:3735   */\n      swap2\n      pop\n        /* \"#utility.yul\":3627:3745   */\n      pop\n        /* \"#utility.yul\":3431:3752   */\n      swap3\n      pop\n      swap3\n      swap1\n      pop\n      jump\t// out\n        /* \"#utility.yul\":3758:4450   */\n    tag_70:\n        /* \"#utility.yul\":3841:3847   */\n      0x00\n        /* \"#utility.yul\":3849:3855   */\n      dup1\n        /* \"#utility.yul\":3857:3863   */\n      0x00\n        /* \"#utility.yul\":3865:3871   */\n      dup1\n        /* \"#utility.yul\":3914:3917   */\n      0x80\n        /* \"#utility.yul\":3902:3911   */\n      dup6\n        /* \"#utility.yul\":3893:3900   */\n      dup8\n        /* \"#utility.yul\":3889:3912   */\n      sub\n        /* \"#utility.yul\":3885:3918   */\n      slt\n        /* \"#utility.yul\":3882:3884   */\n      iszero\n      tag_608\n      jumpi\n        /* \"#utility.yul\":3931:3932   */\n      0x00\n        /* \"#utility.yul\":3928:3929   */\n      dup1\n        /* \"#utility.yul\":3921:3933   */\n      revert\n        /* \"#utility.yul\":3882:3884   */\n    tag_608:\n        /* \"#utility.yul\":3974:3975   */\n      0x00\n        /* \"#utility.yul\":3999:4049   */\n      tag_609\n        /* \"#utility.yul\":4041:4048   */\n      dup8\n        /* \"#utility.yul\":4032:4038   */\n      dup3\n        /* \"#utility.yul\":4021:4030   */\n      dup9\n        /* \"#utility.yul\":4017:4039   */\n      add\n        /* \"#utility.yul\":3999:4049   */\n      tag_566\n      jump\t// in\n    tag_609:\n        /* \"#utility.yul\":3989:4049   */\n      swap5\n      pop\n        /* \"#utility.yul\":3945:4059   */\n      pop\n        /* \"#utility.yul\":4098:4100   */\n      0x20\n        /* \"#utility.yul\":4124:4177   */\n      tag_610\n        /* \"#utility.yul\":4169:4176   */\n      dup8\n        /* \"#utility.yul\":4160:4166   */\n      dup3\n        /* \"#utility.yul\":4149:4158   */\n      dup9\n        /* \"#utility.yul\":4145:4167   */\n      add\n        /* \"#utility.yul\":4124:4177   */\n      tag_570\n      jump\t// in\n    tag_610:\n        /* \"#utility.yul\":4114:4177   */\n      swap4\n      pop\n        /* \"#utility.yul\":4069:4187   */\n      pop\n        /* \"#utility.yul\":4226:4228   */\n      0x40\n        /* \"#utility.yul\":4252:4305   */\n      tag_611\n        /* \"#utility.yul\":4297:4304   */\n      dup8\n        /* \"#utility.yul\":4288:4294   */\n      dup3\n        /* \"#utility.yul\":4277:4286   */\n      dup9\n        /* \"#utility.yul\":4273:4295   */\n      add\n        /* \"#utility.yul\":4252:4305   */\n      tag_570\n      jump\t// in\n    tag_611:\n        /* \"#utility.yul\":4242:4305   */\n      swap3\n      pop\n        /* \"#utility.yul\":4197:4315   */\n      pop\n        /* \"#utility.yul\":4354:4356   */\n      0x60\n        /* \"#utility.yul\":4380:4433   */\n      tag_612\n        /* \"#utility.yul\":4425:4432   */\n      dup8\n        /* \"#utility.yul\":4416:4422   */\n      dup3\n        /* \"#utility.yul\":4405:4414   */\n      dup9\n        /* \"#utility.yul\":4401:4423   */\n      add\n        /* \"#utility.yul\":4380:4433   */\n      tag_570\n      jump\t// in\n    tag_612:\n        /* \"#utility.yul\":4370:4433   */\n      swap2\n      pop\n        /* \"#utility.yul\":4325:4443   */\n      pop\n        /* \"#utility.yul\":3872:4450   */\n      swap3\n      swap6\n      swap2\n      swap5\n      pop\n      swap3\n      pop\n      jump\t// out\n        /* \"#utility.yul\":4456:4718   */\n    tag_141:\n        /* \"#utility.yul\":4515:4521   */\n      0x00\n        /* \"#utility.yul\":4564:4566   */\n      0x20\n        /* \"#utility.yul\":4552:4561   */\n      dup3\n        /* \"#utility.yul\":4543:4550   */\n      dup5\n        /* \"#utility.yul\":4539:4562   */\n      sub\n        /* \"#utility.yul\":4535:4567   */\n      slt\n        /* \"#utility.yul\":4532:4534   */\n      iszero\n      tag_614\n      jumpi\n        /* \"#utility.yul\":4580:4581   */\n      0x00\n        /* \"#utility.yul\":4577:4578   */\n      dup1\n        /* \"#utility.yul\":4570:4582   */\n      revert\n        /* \"#utility.yul\":4532:4534   */\n    tag_614:\n        /* \"#utility.yul\":4623:4624   */\n      0x00\n        /* \"#utility.yul\":4648:4701   */\n      tag_615\n        /* \"#utility.yul\":4693:4700   */\n      dup5\n        /* \"#utility.yul\":4684:4690   */\n      dup3\n        /* \"#utility.yul\":4673:4682   */\n      dup6\n        /* \"#utility.yul\":4669:4691   */\n      add\n        /* \"#utility.yul\":4648:4701   */\n      tag_570\n      jump\t// in\n    tag_615:\n        /* \"#utility.yul\":4638:4701   */\n      swap2\n      pop\n        /* \"#utility.yul\":4594:4711   */\n      pop\n        /* \"#utility.yul\":4522:4718   */\n      swap3\n      swap2\n      pop\n      pop\n      jump\t// out\n        /* \"#utility.yul\":4724:5125   */\n    tag_260:\n        /* \"#utility.yul\":4789:4795   */\n      0x00\n        /* \"#utility.yul\":4797:4803   */\n      dup1\n        /* \"#utility.yul\":4846:4848   */\n      0x40\n        /* \"#utility.yul\":4834:4843   */\n      dup4\n        /* \"#utility.yul\":4825:4832   */\n      dup6\n        /* \"#utility.yul\":4821:4844   */\n      sub\n        /* \"#utility.yul\":4817:4849   */\n      slt\n        /* \"#utility.yul\":4814:4816   */\n      iszero\n      tag_617\n      jumpi\n        /* \"#utility.yul\":4862:4863   */\n      0x00\n        /* \"#utility.yul\":4859:4860   */\n      dup1\n        /* \"#utility.yul\":4852:4864   */\n      revert\n        /* \"#utility.yul\":4814:4816   */\n    tag_617:\n        /* \"#utility.yul\":4905:4906   */\n      0x00\n        /* \"#utility.yul\":4930:4983   */\n      tag_618\n        /* \"#utility.yul\":4975:4982   */\n      dup6\n        /* \"#utility.yul\":4966:4972   */\n      dup3\n        /* \"#utility.yul\":4955:4964   */\n      dup7\n        /* \"#utility.yul\":4951:4973   */\n      add\n        /* \"#utility.yul\":4930:4983   */\n      tag_570\n      jump\t// in\n    tag_618:\n        /* \"#utility.yul\":4920:4983   */\n      swap3\n      pop\n        /* \"#utility.yul\":4876:4993   */\n      pop\n        /* \"#utility.yul\":5032:5034   */\n      0x20\n        /* \"#utility.yul\":5058:5108   */\n      tag_619\n        /* \"#utility.yul\":5100:5107   */\n      dup6\n        /* \"#utility.yul\":5091:5097   */\n      dup3\n        /* \"#utility.yul\":5080:5089   */\n      dup7\n        /* \"#utility.yul\":5076:5098   */\n      add\n        /* \"#utility.yul\":5058:5108   */\n      tag_566\n      jump\t// in\n    tag_619:\n        /* \"#utility.yul\":5048:5108   */\n      swap2\n      pop\n        /* \"#utility.yul\":5003:5118   */\n      pop\n        /* \"#utility.yul\":4804:5125   */\n      swap3\n      pop\n      swap3\n      swap1\n      pop\n      jump\t// out\n        /* \"#utility.yul\":5131:5538   */\n    tag_92:\n        /* \"#utility.yul\":5199:5205   */\n      0x00\n        /* \"#utility.yul\":5207:5213   */\n      dup1\n        /* \"#utility.yul\":5256:5258   */\n      0x40\n        /* \"#utility.yul\":5244:5253   */\n      dup4\n        /* \"#utility.yul\":5235:5242   */\n      dup6\n        /* \"#utility.yul\":5231:5254   */\n      sub\n        /* \"#utility.yul\":5227:5259   */\n      slt\n        /* \"#utility.yul\":5224:5226   */\n      iszero\n      tag_621\n      jumpi\n        /* \"#utility.yul\":5272:5273   */\n      0x00\n        /* \"#utility.yul\":5269:5270   */\n      dup1\n        /* \"#utility.yul\":5262:5274   */\n      revert\n        /* \"#utility.yul\":5224:5226   */\n    tag_621:\n        /* \"#utility.yul\":5315:5316   */\n      0x00\n        /* \"#utility.yul\":5340:5393   */\n      tag_622\n        /* \"#utility.yul\":5385:5392   */\n      dup6\n        /* \"#utility.yul\":5376:5382   */\n      dup3\n        /* \"#utility.yul\":5365:5374   */\n      dup7\n        /* \"#utility.yul\":5361:5383   */\n      add\n        /* \"#utility.yul\":5340:5393   */\n      tag_570\n      jump\t// in\n    tag_622:\n        /* \"#utility.yul\":5330:5393   */\n      swap3\n      pop\n        /* \"#utility.yul\":5286:5403   */\n      pop\n        /* \"#utility.yul\":5442:5444   */\n      0x20\n        /* \"#utility.yul\":5468:5521   */\n      tag_623\n        /* \"#utility.yul\":5513:5520   */\n      dup6\n        /* \"#utility.yul\":5504:5510   */\n      dup3\n        /* \"#utility.yul\":5493:5502   */\n      dup7\n        /* \"#utility.yul\":5489:5511   */\n      add\n        /* \"#utility.yul\":5468:5521   */\n      tag_570\n      jump\t// in\n    tag_623:\n        /* \"#utility.yul\":5458:5521   */\n      swap2\n      pop\n        /* \"#utility.yul\":5413:5531   */\n      pop\n        /* \"#utility.yul\":5214:5538   */\n      swap3\n      pop\n      swap3\n      swap1\n      pop\n      jump\t// out\n        /* \"#utility.yul\":5544:6096   */\n    tag_106:\n        /* \"#utility.yul\":5621:5627   */\n      0x00\n        /* \"#utility.yul\":5629:5635   */\n      dup1\n        /* \"#utility.yul\":5637:5643   */\n      0x00\n        /* \"#utility.yul\":5686:5688   */\n      0x60\n        /* \"#utility.yul\":5674:5683   */\n      dup5\n        /* \"#utility.yul\":5665:5672   */\n      dup7\n        /* \"#utility.yul\":5661:5684   */\n      sub\n        /* \"#utility.yul\":5657:5689   */\n      slt\n        /* \"#utility.yul\":5654:5656   */\n      iszero\n      tag_625\n      jumpi\n        /* \"#utility.yul\":5702:5703   */\n      0x00\n        /* \"#utility.yul\":5699:5700   */\n      dup1\n        /* \"#utility.yul\":5692:5704   */\n      revert\n        /* \"#utility.yul\":5654:5656   */\n    tag_625:\n        /* \"#utility.yul\":5745:5746   */\n      0x00\n        /* \"#utility.yul\":5770:5823   */\n      tag_626\n        /* \"#utility.yul\":5815:5822   */\n      dup7\n        /* \"#utility.yul\":5806:5812   */\n      dup3\n        /* \"#utility.yul\":5795:5804   */\n      dup8\n        /* \"#utility.yul\":5791:5813   */\n      add\n        /* \"#utility.yul\":5770:5823   */\n      tag_570\n      jump\t// in\n    tag_626:\n        /* \"#utility.yul\":5760:5823   */\n      swap4\n      pop\n        /* \"#utility.yul\":5716:5833   */\n      pop\n        /* \"#utility.yul\":5872:5874   */\n      0x20\n        /* \"#utility.yul\":5898:5951   */\n      tag_627\n        /* \"#utility.yul\":5943:5950   */\n      dup7\n        /* \"#utility.yul\":5934:5940   */\n      dup3\n        /* \"#utility.yul\":5923:5932   */\n      dup8\n        /* \"#utility.yul\":5919:5941   */\n      add\n        /* \"#utility.yul\":5898:5951   */\n      tag_570\n      jump\t// in\n    tag_627:\n        /* \"#utility.yul\":5888:5951   */\n      swap3\n      pop\n        /* \"#utility.yul\":5843:5961   */\n      pop\n        /* \"#utility.yul\":6000:6002   */\n      0x40\n        /* \"#utility.yul\":6026:6079   */\n      tag_628\n        /* \"#utility.yul\":6071:6078   */\n      dup7\n        /* \"#utility.yul\":6062:6068   */\n      dup3\n        /* \"#utility.yul\":6051:6060   */\n      dup8\n        /* \"#utility.yul\":6047:6069   */\n      add\n        /* \"#utility.yul\":6026:6079   */\n      tag_570\n      jump\t// in\n    tag_628:\n        /* \"#utility.yul\":6016:6079   */\n      swap2\n      pop\n        /* \"#utility.yul\":5971:6089   */\n      pop\n        /* \"#utility.yul\":5644:6096   */\n      swap3\n      pop\n      swap3\n      pop\n      swap3\n      jump\t// out\n        /* \"#utility.yul\":6102:6698   */\n    tag_536:\n        /* \"#utility.yul\":6190:6196   */\n      0x00\n        /* \"#utility.yul\":6198:6204   */\n      dup1\n        /* \"#utility.yul\":6206:6212   */\n      0x00\n        /* \"#utility.yul\":6255:6257   */\n      0x60\n        /* \"#utility.yul\":6243:6252   */\n      dup5\n        /* \"#utility.yul\":6234:6241   */\n      dup7\n        /* \"#utility.yul\":6230:6253   */\n      sub\n        /* \"#utility.yul\":6226:6258   */\n      slt\n        /* \"#utility.yul\":6223:6225   */\n      iszero\n      tag_630\n      jumpi\n        /* \"#utility.yul\":6271:6272   */\n      0x00\n        /* \"#utility.yul\":6268:6269   */\n      dup1\n        /* \"#utility.yul\":6261:6273   */\n      revert\n        /* \"#utility.yul\":6223:6225   */\n    tag_630:\n        /* \"#utility.yul\":6314:6315   */\n      0x00\n        /* \"#utility.yul\":6339:6403   */\n      tag_631\n        /* \"#utility.yul\":6395:6402   */\n      dup7\n        /* \"#utility.yul\":6386:6392   */\n      dup3\n        /* \"#utility.yul\":6375:6384   */\n      dup8\n        /* \"#utility.yul\":6371:6393   */\n      add\n        /* \"#utility.yul\":6339:6403   */\n      tag_574\n      jump\t// in\n    tag_631:\n        /* \"#utility.yul\":6329:6403   */\n      swap4\n      pop\n        /* \"#utility.yul\":6285:6413   */\n      pop\n        /* \"#utility.yul\":6452:6454   */\n      0x20\n        /* \"#utility.yul\":6478:6542   */\n      tag_632\n        /* \"#utility.yul\":6534:6541   */\n      dup7\n        /* \"#utility.yul\":6525:6531   */\n      dup3\n        /* \"#utility.yul\":6514:6523   */\n      dup8\n        /* \"#utility.yul\":6510:6532   */\n      add\n        /* \"#utility.yul\":6478:6542   */\n      tag_574\n      jump\t// in\n    tag_632:\n        /* \"#utility.yul\":6468:6542   */\n      swap3\n      pop\n        /* \"#utility.yul\":6423:6552   */\n      pop\n        /* \"#utility.yul\":6591:6593   */\n      0x40\n        /* \"#utility.yul\":6617:6681   */\n      tag_633\n        /* \"#utility.yul\":6673:6680   */\n      dup7\n        /* \"#utility.yul\":6664:6670   */\n      dup3\n        /* \"#utility.yul\":6653:6662   */\n      dup8\n        /* \"#utility.yul\":6649:6671   */\n      add\n        /* \"#utility.yul\":6617:6681   */\n      tag_574\n      jump\t// in\n    tag_633:\n        /* \"#utility.yul\":6607:6681   */\n      swap2\n      pop\n        /* \"#utility.yul\":6562:6691   */\n      pop\n        /* \"#utility.yul\":6213:6698   */\n      swap3\n      pop\n      swap3\n      pop\n      swap3\n      jump\t// out\n        /* \"#utility.yul\":6704:7548   */\n    tag_75:\n        /* \"#utility.yul\":6799:6805   */\n      0x00\n        /* \"#utility.yul\":6807:6813   */\n      dup1\n        /* \"#utility.yul\":6815:6821   */\n      0x00\n        /* \"#utility.yul\":6823:6829   */\n      dup1\n        /* \"#utility.yul\":6831:6837   */\n      0x00\n        /* \"#utility.yul\":6880:6883   */\n      0xa0\n        /* \"#utility.yul\":6868:6877   */\n      dup7\n        /* \"#utility.yul\":6859:6866   */\n      dup9\n        /* \"#utility.yul\":6855:6878   */\n      sub\n        /* \"#utility.yul\":6851:6884   */\n      slt\n        /* \"#utility.yul\":6848:6850   */\n      iszero\n      tag_635\n      jumpi\n        /* \"#utility.yul\":6897:6898   */\n      0x00\n        /* \"#utility.yul\":6894:6895   */\n      dup1\n        /* \"#utility.yul\":6887:6899   */\n      revert\n        /* \"#utility.yul\":6848:6850   */\n    tag_635:\n        /* \"#utility.yul\":6940:6941   */\n      0x00\n        /* \"#utility.yul\":6965:7018   */\n      tag_636\n        /* \"#utility.yul\":7010:7017   */\n      dup9\n        /* \"#utility.yul\":7001:7007   */\n      dup3\n        /* \"#utility.yul\":6990:6999   */\n      dup10\n        /* \"#utility.yul\":6986:7008   */\n      add\n        /* \"#utility.yul\":6965:7018   */\n      tag_570\n      jump\t// in\n    tag_636:\n        /* \"#utility.yul\":6955:7018   */\n      swap6\n      pop\n        /* \"#utility.yul\":6911:7028   */\n      pop\n        /* \"#utility.yul\":7067:7069   */\n      0x20\n        /* \"#utility.yul\":7093:7146   */\n      tag_637\n        /* \"#utility.yul\":7138:7145   */\n      dup9\n        /* \"#utility.yul\":7129:7135   */\n      dup3\n        /* \"#utility.yul\":7118:7127   */\n      dup10\n        /* \"#utility.yul\":7114:7136   */\n      add\n        /* \"#utility.yul\":7093:7146   */\n      tag_570\n      jump\t// in\n    tag_637:\n        /* \"#utility.yul\":7083:7146   */\n      swap5\n      pop\n        /* \"#utility.yul\":7038:7156   */\n      pop\n        /* \"#utility.yul\":7195:7197   */\n      0x40\n        /* \"#utility.yul\":7221:7274   */\n      tag_638\n        /* \"#utility.yul\":7266:7273   */\n      dup9\n        /* \"#utility.yul\":7257:7263   */\n      dup3\n        /* \"#utility.yul\":7246:7255   */\n      dup10\n        /* \"#utility.yul\":7242:7264   */\n      add\n        /* \"#utility.yul\":7221:7274   */\n      tag_570\n      jump\t// in\n    tag_638:\n        /* \"#utility.yul\":7211:7274   */\n      swap4\n      pop\n        /* \"#utility.yul\":7166:7284   */\n      pop\n        /* \"#utility.yul\":7323:7325   */\n      0x60\n        /* \"#utility.yul\":7349:7402   */\n      tag_639\n        /* \"#utility.yul\":7394:7401   */\n      dup9\n        /* \"#utility.yul\":7385:7391   */\n      dup3\n        /* \"#utility.yul\":7374:7383   */\n      dup10\n        /* \"#utility.yul\":7370:7392   */\n      add\n        /* \"#utility.yul\":7349:7402   */\n      tag_570\n      jump\t// in\n    tag_639:\n        /* \"#utility.yul\":7339:7402   */\n      swap3\n      pop\n        /* \"#utility.yul\":7294:7412   */\n      pop\n        /* \"#utility.yul\":7451:7454   */\n      0x80\n        /* \"#utility.yul\":7478:7531   */\n      tag_640\n        /* \"#utility.yul\":7523:7530   */\n      dup9\n        /* \"#utility.yul\":7514:7520   */\n      dup3\n        /* \"#utility.yul\":7503:7512   */\n      dup10\n        /* \"#utility.yul\":7499:7521   */\n      add\n        /* \"#utility.yul\":7478:7531   */\n      tag_570\n      jump\t// in\n    tag_640:\n        /* \"#utility.yul\":7468:7531   */\n      swap2\n      pop\n        /* \"#utility.yul\":7422:7541   */\n      pop\n        /* \"#utility.yul\":6838:7548   */\n      swap3\n      swap6\n      pop\n      swap3\n      swap6\n      swap1\n      swap4\n      pop\n      jump\t// out\n        /* \"#utility.yul\":7554:7733   */\n    tag_641:\n        /* \"#utility.yul\":7623:7633   */\n      0x00\n        /* \"#utility.yul\":7644:7690   */\n      tag_643\n        /* \"#utility.yul\":7686:7689   */\n      dup4\n        /* \"#utility.yul\":7678:7684   */\n      dup4\n        /* \"#utility.yul\":7644:7690   */\n      tag_644\n      jump\t// in\n    tag_643:\n        /* \"#utility.yul\":7722:7726   */\n      0x20\n        /* \"#utility.yul\":7717:7720   */\n      dup4\n        /* \"#utility.yul\":7713:7727   */\n      add\n        /* \"#utility.yul\":7699:7727   */\n      swap1\n      pop\n        /* \"#utility.yul\":7634:7733   */\n      swap3\n      swap2\n      pop\n      pop\n      jump\t// out\n        /* \"#utility.yul\":7739:7886   */\n    tag_645:\n        /* \"#utility.yul\":7834:7879   */\n      tag_647\n        /* \"#utility.yul\":7873:7878   */\n      dup2\n        /* \"#utility.yul\":7834:7879   */\n      tag_648\n      jump\t// in\n    tag_647:\n        /* \"#utility.yul\":7829:7832   */\n      dup3\n        /* \"#utility.yul\":7822:7880   */\n      mstore\n        /* \"#utility.yul\":7812:7886   */\n      pop\n      pop\n      jump\t// out\n        /* \"#utility.yul\":7892:8000   */\n    tag_644:\n        /* \"#utility.yul\":7969:7993   */\n      tag_650\n        /* \"#utility.yul\":7987:7992   */\n      dup2\n        /* \"#utility.yul\":7969:7993   */\n      tag_651\n      jump\t// in\n    tag_650:\n        /* \"#utility.yul\":7964:7967   */\n      dup3\n        /* \"#utility.yul\":7957:7994   */\n      mstore\n        /* \"#utility.yul\":7947:8000   */\n      pop\n      pop\n      jump\t// out\n        /* \"#utility.yul\":8006:8124   */\n    tag_652:\n        /* \"#utility.yul\":8093:8117   */\n      tag_654\n        /* \"#utility.yul\":8111:8116   */\n      dup2\n        /* \"#utility.yul\":8093:8117   */\n      tag_651\n      jump\t// in\n    tag_654:\n        /* \"#utility.yul\":8088:8091   */\n      dup3\n        /* \"#utility.yul\":8081:8118   */\n      mstore\n        /* \"#utility.yul\":8071:8124   */\n      pop\n      pop\n      jump\t// out\n        /* \"#utility.yul\":8160:8892   */\n    tag_655:\n        /* \"#utility.yul\":8279:8282   */\n      0x00\n        /* \"#utility.yul\":8308:8362   */\n      tag_657\n        /* \"#utility.yul\":8356:8361   */\n      dup3\n        /* \"#utility.yul\":8308:8362   */\n      tag_658\n      jump\t// in\n    tag_657:\n        /* \"#utility.yul\":8378:8464   */\n      tag_659\n        /* \"#utility.yul\":8457:8463   */\n      dup2\n        /* \"#utility.yul\":8452:8455   */\n      dup6\n        /* \"#utility.yul\":8378:8464   */\n      tag_660\n      jump\t// in\n    tag_659:\n        /* \"#utility.yul\":8371:8464   */\n      swap4\n      pop\n        /* \"#utility.yul\":8488:8544   */\n      tag_661\n        /* \"#utility.yul\":8538:8543   */\n      dup4\n        /* \"#utility.yul\":8488:8544   */\n      tag_662\n      jump\t// in\n    tag_661:\n        /* \"#utility.yul\":8567:8574   */\n      dup1\n        /* \"#utility.yul\":8598:8599   */\n      0x00\n        /* \"#utility.yul\":8583:8867   */\n    tag_663:\n        /* \"#utility.yul\":8608:8614   */\n      dup4\n        /* \"#utility.yul\":8605:8606   */\n      dup2\n        /* \"#utility.yul\":8602:8615   */\n      lt\n        /* \"#utility.yul\":8583:8867   */\n      iszero\n      tag_665\n      jumpi\n        /* \"#utility.yul\":8684:8690   */\n      dup2\n        /* \"#utility.yul\":8678:8691   */\n      mload\n        /* \"#utility.yul\":8711:8774   */\n      tag_666\n        /* \"#utility.yul\":8770:8773   */\n      dup9\n        /* \"#utility.yul\":8755:8768   */\n      dup3\n        /* \"#utility.yul\":8711:8774   */\n      tag_641\n      jump\t// in\n    tag_666:\n        /* \"#utility.yul\":8704:8774   */\n      swap8\n      pop\n        /* \"#utility.yul\":8797:8857   */\n      tag_667\n        /* \"#utility.yul\":8850:8856   */\n      dup4\n        /* \"#utility.yul\":8797:8857   */\n      tag_668\n      jump\t// in\n    tag_667:\n        /* \"#utility.yul\":8787:8857   */\n      swap3\n      pop\n        /* \"#utility.yul\":8643:8867   */\n      pop\n        /* \"#utility.yul\":8630:8631   */\n      0x01\n        /* \"#utility.yul\":8627:8628   */\n      dup2\n        /* \"#utility.yul\":8623:8632   */\n      add\n        /* \"#utility.yul\":8618:8632   */\n      swap1\n      pop\n        /* \"#utility.yul\":8583:8867   */\n      jump(tag_663)\n    tag_665:\n        /* \"#utility.yul\":8587:8601   */\n      pop\n        /* \"#utility.yul\":8883:8886   */\n      dup6\n        /* \"#utility.yul\":8876:8886   */\n      swap4\n      pop\n        /* \"#utility.yul\":8284:8892   */\n      pop\n      pop\n      pop\n      swap3\n      swap2\n      pop\n      pop\n      jump\t// out\n        /* \"#utility.yul\":8898:9007   */\n    tag_669:\n        /* \"#utility.yul\":8979:9000   */\n      tag_671\n        /* \"#utility.yul\":8994:8999   */\n      dup2\n        /* \"#utility.yul\":8979:9000   */\n      tag_672\n      jump\t// in\n    tag_671:\n        /* \"#utility.yul\":8974:8977   */\n      dup3\n        /* \"#utility.yul\":8967:9001   */\n      mstore\n        /* \"#utility.yul\":8957:9007   */\n      pop\n      pop\n      jump\t// out\n        /* \"#utility.yul\":9013:9180   */\n    tag_673:\n        /* \"#utility.yul\":9118:9173   */\n      tag_675\n        /* \"#utility.yul\":9167:9172   */\n      dup2\n        /* \"#utility.yul\":9118:9173   */\n      tag_676\n      jump\t// in\n    tag_675:\n        /* \"#utility.yul\":9113:9116   */\n      dup3\n        /* \"#utility.yul\":9106:9174   */\n      mstore\n        /* \"#utility.yul\":9096:9180   */\n      pop\n      pop\n      jump\t// out\n        /* \"#utility.yul\":9186:9333   */\n    tag_677:\n        /* \"#utility.yul\":9281:9326   */\n      tag_679\n        /* \"#utility.yul\":9320:9325   */\n      dup2\n        /* \"#utility.yul\":9281:9326   */\n      tag_680\n      jump\t// in\n    tag_679:\n        /* \"#utility.yul\":9276:9279   */\n      dup3\n        /* \"#utility.yul\":9269:9327   */\n      mstore\n        /* \"#utility.yul\":9259:9333   */\n      pop\n      pop\n      jump\t// out\n        /* \"#utility.yul\":9339:9703   */\n    tag_681:\n        /* \"#utility.yul\":9427:9430   */\n      0x00\n        /* \"#utility.yul\":9455:9494   */\n      tag_683\n        /* \"#utility.yul\":9488:9493   */\n      dup3\n        /* \"#utility.yul\":9455:9494   */\n      tag_684\n      jump\t// in\n    tag_683:\n        /* \"#utility.yul\":9510:9581   */\n      tag_685\n        /* \"#utility.yul\":9574:9580   */\n      dup2\n        /* \"#utility.yul\":9569:9572   */\n      dup6\n        /* \"#utility.yul\":9510:9581   */\n      tag_686\n      jump\t// in\n    tag_685:\n        /* \"#utility.yul\":9503:9581   */\n      swap4\n      pop\n        /* \"#utility.yul\":9590:9642   */\n      tag_687\n        /* \"#utility.yul\":9635:9641   */\n      dup2\n        /* \"#utility.yul\":9630:9633   */\n      dup6\n        /* \"#utility.yul\":9623:9627   */\n      0x20\n        /* \"#utility.yul\":9616:9621   */\n      dup7\n        /* \"#utility.yul\":9612:9628   */\n      add\n        /* \"#utility.yul\":9590:9642   */\n      tag_688\n      jump\t// in\n    tag_687:\n        /* \"#utility.yul\":9667:9696   */\n      tag_689\n        /* \"#utility.yul\":9689:9695   */\n      dup2\n        /* \"#utility.yul\":9667:9696   */\n      tag_690\n      jump\t// in\n    tag_689:\n        /* \"#utility.yul\":9662:9665   */\n      dup5\n        /* \"#utility.yul\":9658:9697   */\n      add\n        /* \"#utility.yul\":9651:9697   */\n      swap2\n      pop\n        /* \"#utility.yul\":9431:9703   */\n      pop\n      swap3\n      swap2\n      pop\n      pop\n      jump\t// out\n        /* \"#utility.yul\":9709:10075   */\n    tag_691:\n        /* \"#utility.yul\":9851:9854   */\n      0x00\n        /* \"#utility.yul\":9872:9939   */\n      tag_693\n        /* \"#utility.yul\":9936:9938   */\n      0x11\n        /* \"#utility.yul\":9931:9934   */\n      dup4\n        /* \"#utility.yul\":9872:9939   */\n      tag_686\n      jump\t// in\n    tag_693:\n        /* \"#utility.yul\":9865:9939   */\n      swap2\n      pop\n        /* \"#utility.yul\":9948:10041   */\n      tag_694\n        /* \"#utility.yul\":10037:10040   */\n      dup3\n        /* \"#utility.yul\":9948:10041   */\n      tag_695\n      jump\t// in\n    tag_694:\n        /* \"#utility.yul\":10066:10068   */\n      0x20\n        /* \"#utility.yul\":10061:10064   */\n      dup3\n        /* \"#utility.yul\":10057:10069   */\n      add\n        /* \"#utility.yul\":10050:10069   */\n      swap1\n      pop\n        /* \"#utility.yul\":9855:10075   */\n      swap2\n      swap1\n      pop\n      jump\t// out\n        /* \"#utility.yul\":10081:10447   */\n    tag_696:\n        /* \"#utility.yul\":10223:10226   */\n      0x00\n        /* \"#utility.yul\":10244:10311   */\n      tag_698\n        /* \"#utility.yul\":10308:10310   */\n      0x14\n        /* \"#utility.yul\":10303:10306   */\n      dup4\n        /* \"#utility.yul\":10244:10311   */\n      tag_686\n      jump\t// in\n    tag_698:\n        /* \"#utility.yul\":10237:10311   */\n      swap2\n      pop\n        /* \"#utility.yul\":10320:10413   */\n      tag_699\n        /* \"#utility.yul\":10409:10412   */\n      dup3\n        /* \"#utility.yul\":10320:10413   */\n      tag_700\n      jump\t// in\n    tag_699:\n        /* \"#utility.yul\":10438:10440   */\n      0x20\n        /* \"#utility.yul\":10433:10436   */\n      dup3\n        /* \"#utility.yul\":10429:10441   */\n      add\n        /* \"#utility.yul\":10422:10441   */\n      swap1\n      pop\n        /* \"#utility.yul\":10227:10447   */\n      swap2\n      swap1\n      pop\n      jump\t// out\n        /* \"#utility.yul\":10453:10818   */\n    tag_701:\n        /* \"#utility.yul\":10595:10598   */\n      0x00\n        /* \"#utility.yul\":10616:10682   */\n      tag_703\n        /* \"#utility.yul\":10680:10681   */\n      0x06\n        /* \"#utility.yul\":10675:10678   */\n      dup4\n        /* \"#utility.yul\":10616:10682   */\n      tag_686\n      jump\t// in\n    tag_703:\n        /* \"#utility.yul\":10609:10682   */\n      swap2\n      pop\n        /* \"#utility.yul\":10691:10784   */\n      tag_704\n        /* \"#utility.yul\":10780:10783   */\n      dup3\n        /* \"#utility.yul\":10691:10784   */\n      tag_705\n      jump\t// in\n    tag_704:\n        /* \"#utility.yul\":10809:10811   */\n      0x20\n        /* \"#utility.yul\":10804:10807   */\n      dup3\n        /* \"#utility.yul\":10800:10812   */\n      add\n        /* \"#utility.yul\":10793:10812   */\n      swap1\n      pop\n        /* \"#utility.yul\":10599:10818   */\n      swap2\n      swap1\n      pop\n      jump\t// out\n        /* \"#utility.yul\":10824:11190   */\n    tag_706:\n        /* \"#utility.yul\":10966:10969   */\n      0x00\n        /* \"#utility.yul\":10987:11054   */\n      tag_708\n        /* \"#utility.yul\":11051:11053   */\n      0x0b\n        /* \"#utility.yul\":11046:11049   */\n      dup4\n        /* \"#utility.yul\":10987:11054   */\n      tag_686\n      jump\t// in\n    tag_708:\n        /* \"#utility.yul\":10980:11054   */\n      swap2\n      pop\n        /* \"#utility.yul\":11063:11156   */\n      tag_709\n        /* \"#utility.yul\":11152:11155   */\n      dup3\n        /* \"#utility.yul\":11063:11156   */\n      tag_710\n      jump\t// in\n    tag_709:\n        /* \"#utility.yul\":11181:11183   */\n      0x20\n        /* \"#utility.yul\":11176:11179   */\n      dup3\n        /* \"#utility.yul\":11172:11184   */\n      add\n        /* \"#utility.yul\":11165:11184   */\n      swap1\n      pop\n        /* \"#utility.yul\":10970:11190   */\n      swap2\n      swap1\n      pop\n      jump\t// out\n        /* \"#utility.yul\":11196:11314   */\n    tag_711:\n        /* \"#utility.yul\":11283:11307   */\n      tag_713\n        /* \"#utility.yul\":11301:11306   */\n      dup2\n        /* \"#utility.yul\":11283:11307   */\n      tag_714\n      jump\t// in\n    tag_713:\n        /* \"#utility.yul\":11278:11281   */\n      dup3\n        /* \"#utility.yul\":11271:11308   */\n      mstore\n        /* \"#utility.yul\":11261:11314   */\n      pop\n      pop\n      jump\t// out\n        /* \"#utility.yul\":11320:11432   */\n    tag_715:\n        /* \"#utility.yul\":11403:11425   */\n      tag_717\n        /* \"#utility.yul\":11419:11424   */\n      dup2\n        /* \"#utility.yul\":11403:11425   */\n      tag_718\n      jump\t// in\n    tag_717:\n        /* \"#utility.yul\":11398:11401   */\n      dup3\n        /* \"#utility.yul\":11391:11426   */\n      mstore\n        /* \"#utility.yul\":11381:11432   */\n      pop\n      pop\n      jump\t// out\n        /* \"#utility.yul\":11438:11660   */\n    tag_165:\n        /* \"#utility.yul\":11531:11535   */\n      0x00\n        /* \"#utility.yul\":11569:11571   */\n      0x20\n        /* \"#utility.yul\":11558:11567   */\n      dup3\n        /* \"#utility.yul\":11554:11572   */\n      add\n        /* \"#utility.yul\":11546:11572   */\n      swap1\n      pop\n        /* \"#utility.yul\":11582:11653   */\n      tag_720\n        /* \"#utility.yul\":11650:11651   */\n      0x00\n        /* \"#utility.yul\":11639:11648   */\n      dup4\n        /* \"#utility.yul\":11635:11652   */\n      add\n        /* \"#utility.yul\":11626:11632   */\n      dup5\n        /* \"#utility.yul\":11582:11653   */\n      tag_652\n      jump\t// in\n    tag_720:\n        /* \"#utility.yul\":11536:11660   */\n      swap3\n      swap2\n      pop\n      pop\n      jump\t// out\n        /* \"#utility.yul\":11666:11904   */\n    tag_424:\n        /* \"#utility.yul\":11767:11771   */\n      0x00\n        /* \"#utility.yul\":11805:11807   */\n      0x20\n        /* \"#utility.yul\":11794:11803   */\n      dup3\n        /* \"#utility.yul\":11790:11808   */\n      add\n        /* \"#utility.yul\":11782:11808   */\n      swap1\n      pop\n        /* \"#utility.yul\":11818:11897   */\n      tag_722\n        /* \"#utility.yul\":11894:11895   */\n      0x00\n        /* \"#utility.yul\":11883:11892   */\n      dup4\n        /* \"#utility.yul\":11879:11896   */\n      add\n        /* \"#utility.yul\":11870:11876   */\n      dup5\n        /* \"#utility.yul\":11818:11897   */\n      tag_645\n      jump\t// in\n    tag_722:\n        /* \"#utility.yul\":11772:11904   */\n      swap3\n      swap2\n      pop\n      pop\n      jump\t// out\n        /* \"#utility.yul\":11910:12717   */\n    tag_531:\n        /* \"#utility.yul\":12159:12163   */\n      0x00\n        /* \"#utility.yul\":12197:12200   */\n      0xc0\n        /* \"#utility.yul\":12186:12195   */\n      dup3\n        /* \"#utility.yul\":12182:12201   */\n      add\n        /* \"#utility.yul\":12174:12201   */\n      swap1\n      pop\n        /* \"#utility.yul\":12211:12282   */\n      tag_724\n        /* \"#utility.yul\":12279:12280   */\n      0x00\n        /* \"#utility.yul\":12268:12277   */\n      dup4\n        /* \"#utility.yul\":12264:12281   */\n      add\n        /* \"#utility.yul\":12255:12261   */\n      dup10\n        /* \"#utility.yul\":12211:12282   */\n      tag_652\n      jump\t// in\n    tag_724:\n        /* \"#utility.yul\":12292:12364   */\n      tag_725\n        /* \"#utility.yul\":12360:12362   */\n      0x20\n        /* \"#utility.yul\":12349:12358   */\n      dup4\n        /* \"#utility.yul\":12345:12363   */\n      add\n        /* \"#utility.yul\":12336:12342   */\n      dup9\n        /* \"#utility.yul\":12292:12364   */\n      tag_711\n      jump\t// in\n    tag_725:\n        /* \"#utility.yul\":12374:12454   */\n      tag_726\n        /* \"#utility.yul\":12450:12452   */\n      0x40\n        /* \"#utility.yul\":12439:12448   */\n      dup4\n        /* \"#utility.yul\":12435:12453   */\n      add\n        /* \"#utility.yul\":12426:12432   */\n      dup8\n        /* \"#utility.yul\":12374:12454   */\n      tag_677\n      jump\t// in\n    tag_726:\n        /* \"#utility.yul\":12464:12544   */\n      tag_727\n        /* \"#utility.yul\":12540:12542   */\n      0x60\n        /* \"#utility.yul\":12529:12538   */\n      dup4\n        /* \"#utility.yul\":12525:12543   */\n      add\n        /* \"#utility.yul\":12516:12522   */\n      dup7\n        /* \"#utility.yul\":12464:12544   */\n      tag_677\n      jump\t// in\n    tag_727:\n        /* \"#utility.yul\":12554:12627   */\n      tag_728\n        /* \"#utility.yul\":12622:12625   */\n      0x80\n        /* \"#utility.yul\":12611:12620   */\n      dup4\n        /* \"#utility.yul\":12607:12626   */\n      add\n        /* \"#utility.yul\":12598:12604   */\n      dup6\n        /* \"#utility.yul\":12554:12627   */\n      tag_652\n      jump\t// in\n    tag_728:\n        /* \"#utility.yul\":12637:12710   */\n      tag_729\n        /* \"#utility.yul\":12705:12708   */\n      0xa0\n        /* \"#utility.yul\":12694:12703   */\n      dup4\n        /* \"#utility.yul\":12690:12709   */\n      add\n        /* \"#utility.yul\":12681:12687   */\n      dup5\n        /* \"#utility.yul\":12637:12710   */\n      tag_711\n      jump\t// in\n    tag_729:\n        /* \"#utility.yul\":12164:12717   */\n      swap8\n      swap7\n      pop\n      pop\n      pop\n      pop\n      pop\n      pop\n      pop\n      jump\t// out\n        /* \"#utility.yul\":12723:12933   */\n    tag_88:\n        /* \"#utility.yul\":12810:12814   */\n      0x00\n        /* \"#utility.yul\":12848:12850   */\n      0x20\n        /* \"#utility.yul\":12837:12846   */\n      dup3\n        /* \"#utility.yul\":12833:12851   */\n      add\n        /* \"#utility.yul\":12825:12851   */\n      swap1\n      pop\n        /* \"#utility.yul\":12861:12926   */\n      tag_731\n        /* \"#utility.yul\":12923:12924   */\n      0x00\n        /* \"#utility.yul\":12912:12921   */\n      dup4\n        /* \"#utility.yul\":12908:12925   */\n      add\n        /* \"#utility.yul\":12899:12905   */\n      dup5\n        /* \"#utility.yul\":12861:12926   */\n      tag_669\n      jump\t// in\n    tag_731:\n        /* \"#utility.yul\":12815:12933   */\n      swap3\n      swap2\n      pop\n      pop\n      jump\t// out\n        /* \"#utility.yul\":12939:13197   */\n    tag_270:\n        /* \"#utility.yul\":13050:13054   */\n      0x00\n        /* \"#utility.yul\":13088:13090   */\n      0x20\n        /* \"#utility.yul\":13077:13086   */\n      dup3\n        /* \"#utility.yul\":13073:13091   */\n      add\n        /* \"#utility.yul\":13065:13091   */\n      swap1\n      pop\n        /* \"#utility.yul\":13101:13190   */\n      tag_733\n        /* \"#utility.yul\":13187:13188   */\n      0x00\n        /* \"#utility.yul\":13176:13185   */\n      dup4\n        /* \"#utility.yul\":13172:13189   */\n      add\n        /* \"#utility.yul\":13163:13169   */\n      dup5\n        /* \"#utility.yul\":13101:13190   */\n      tag_673\n      jump\t// in\n    tag_733:\n        /* \"#utility.yul\":13055:13197   */\n      swap3\n      swap2\n      pop\n      pop\n      jump\t// out\n        /* \"#utility.yul\":13203:13923   */\n    tag_485:\n        /* \"#utility.yul\":13438:13442   */\n      0x00\n        /* \"#utility.yul\":13476:13479   */\n      0x80\n        /* \"#utility.yul\":13465:13474   */\n      dup3\n        /* \"#utility.yul\":13461:13480   */\n      add\n        /* \"#utility.yul\":13453:13480   */\n      swap1\n      pop\n        /* \"#utility.yul\":13490:13569   */\n      tag_735\n        /* \"#utility.yul\":13566:13567   */\n      0x00\n        /* \"#utility.yul\":13555:13564   */\n      dup4\n        /* \"#utility.yul\":13551:13568   */\n      add\n        /* \"#utility.yul\":13542:13548   */\n      dup8\n        /* \"#utility.yul\":13490:13569   */\n      tag_677\n      jump\t// in\n    tag_735:\n        /* \"#utility.yul\":13616:13625   */\n      dup2\n        /* \"#utility.yul\":13610:13614   */\n      dup2\n        /* \"#utility.yul\":13606:13626   */\n      sub\n        /* \"#utility.yul\":13601:13603   */\n      0x20\n        /* \"#utility.yul\":13590:13599   */\n      dup4\n        /* \"#utility.yul\":13586:13604   */\n      add\n        /* \"#utility.yul\":13579:13627   */\n      mstore\n        /* \"#utility.yul\":13644:13752   */\n      tag_736\n        /* \"#utility.yul\":13747:13751   */\n      dup2\n        /* \"#utility.yul\":13738:13744   */\n      dup7\n        /* \"#utility.yul\":13644:13752   */\n      tag_655\n      jump\t// in\n    tag_736:\n        /* \"#utility.yul\":13636:13752   */\n      swap1\n      pop\n        /* \"#utility.yul\":13762:13834   */\n      tag_737\n        /* \"#utility.yul\":13830:13832   */\n      0x40\n        /* \"#utility.yul\":13819:13828   */\n      dup4\n        /* \"#utility.yul\":13815:13833   */\n      add\n        /* \"#utility.yul\":13806:13812   */\n      dup6\n        /* \"#utility.yul\":13762:13834   */\n      tag_652\n      jump\t// in\n    tag_737:\n        /* \"#utility.yul\":13844:13916   */\n      tag_738\n        /* \"#utility.yul\":13912:13914   */\n      0x60\n        /* \"#utility.yul\":13901:13910   */\n      dup4\n        /* \"#utility.yul\":13897:13915   */\n      add\n        /* \"#utility.yul\":13888:13894   */\n      dup5\n        /* \"#utility.yul\":13844:13916   */\n      tag_711\n      jump\t// in\n    tag_738:\n        /* \"#utility.yul\":13443:13923   */\n      swap6\n      swap5\n      pop\n      pop\n      pop\n      pop\n      pop\n      jump\t// out\n        /* \"#utility.yul\":13929:14242   */\n    tag_81:\n        /* \"#utility.yul\":14042:14046   */\n      0x00\n        /* \"#utility.yul\":14080:14082   */\n      0x20\n        /* \"#utility.yul\":14069:14078   */\n      dup3\n        /* \"#utility.yul\":14065:14083   */\n      add\n        /* \"#utility.yul\":14057:14083   */\n      swap1\n      pop\n        /* \"#utility.yul\":14129:14138   */\n      dup2\n        /* \"#utility.yul\":14123:14127   */\n      dup2\n        /* \"#utility.yul\":14119:14139   */\n      sub\n        /* \"#utility.yul\":14115:14116   */\n      0x00\n        /* \"#utility.yul\":14104:14113   */\n      dup4\n        /* \"#utility.yul\":14100:14117   */\n      add\n        /* \"#utility.yul\":14093:14140   */\n      mstore\n        /* \"#utility.yul\":14157:14235   */\n      tag_740\n        /* \"#utility.yul\":14230:14234   */\n      dup2\n        /* \"#utility.yul\":14221:14227   */\n      dup5\n        /* \"#utility.yul\":14157:14235   */\n      tag_681\n      jump\t// in\n    tag_740:\n        /* \"#utility.yul\":14149:14235   */\n      swap1\n      pop\n        /* \"#utility.yul\":14047:14242   */\n      swap3\n      swap2\n      pop\n      pop\n      jump\t// out\n        /* \"#utility.yul\":14248:14667   */\n    tag_496:\n        /* \"#utility.yul\":14414:14418   */\n      0x00\n        /* \"#utility.yul\":14452:14454   */\n      0x20\n        /* \"#utility.yul\":14441:14450   */\n      dup3\n        /* \"#utility.yul\":14437:14455   */\n      add\n        /* \"#utility.yul\":14429:14455   */\n      swap1\n      pop\n        /* \"#utility.yul\":14501:14510   */\n      dup2\n        /* \"#utility.yul\":14495:14499   */\n      dup2\n        /* \"#utility.yul\":14491:14511   */\n      sub\n        /* \"#utility.yul\":14487:14488   */\n      0x00\n        /* \"#utility.yul\":14476:14485   */\n      dup4\n        /* \"#utility.yul\":14472:14489   */\n      add\n        /* \"#utility.yul\":14465:14512   */\n      mstore\n        /* \"#utility.yul\":14529:14660   */\n      tag_742\n        /* \"#utility.yul\":14655:14659   */\n      dup2\n        /* \"#utility.yul\":14529:14660   */\n      tag_691\n      jump\t// in\n    tag_742:\n        /* \"#utility.yul\":14521:14660   */\n      swap1\n      pop\n        /* \"#utility.yul\":14419:14667   */\n      swap2\n      swap1\n      pop\n      jump\t// out\n        /* \"#utility.yul\":14673:15092   */\n    tag_285:\n        /* \"#utility.yul\":14839:14843   */\n      0x00\n        /* \"#utility.yul\":14877:14879   */\n      0x20\n        /* \"#utility.yul\":14866:14875   */\n      dup3\n        /* \"#utility.yul\":14862:14880   */\n      add\n        /* \"#utility.yul\":14854:14880   */\n      swap1\n      pop\n        /* \"#utility.yul\":14926:14935   */\n      dup2\n        /* \"#utility.yul\":14920:14924   */\n      dup2\n        /* \"#utility.yul\":14916:14936   */\n      sub\n        /* \"#utility.yul\":14912:14913   */\n      0x00\n        /* \"#utility.yul\":14901:14910   */\n      dup4\n        /* \"#utility.yul\":14897:14914   */\n      add\n        /* \"#utility.yul\":14890:14937   */\n      mstore\n        /* \"#utility.yul\":14954:15085   */\n      tag_744\n        /* \"#utility.yul\":15080:15084   */\n      dup2\n        /* \"#utility.yul\":14954:15085   */\n      tag_696\n      jump\t// in\n    tag_744:\n        /* \"#utility.yul\":14946:15085   */\n      swap1\n      pop\n        /* \"#utility.yul\":14844:15092   */\n      swap2\n      swap1\n      pop\n      jump\t// out\n        /* \"#utility.yul\":15098:15517   */\n    tag_375:\n        /* \"#utility.yul\":15264:15268   */\n      0x00\n        /* \"#utility.yul\":15302:15304   */\n      0x20\n        /* \"#utility.yul\":15291:15300   */\n      dup3\n        /* \"#utility.yul\":15287:15305   */\n      add\n        /* \"#utility.yul\":15279:15305   */\n      swap1\n      pop\n        /* \"#utility.yul\":15351:15360   */\n      dup2\n        /* \"#utility.yul\":15345:15349   */\n      dup2\n        /* \"#utility.yul\":15341:15361   */\n      sub\n        /* \"#utility.yul\":15337:15338   */\n      0x00\n        /* \"#utility.yul\":15326:15335   */\n      dup4\n        /* \"#utility.yul\":15322:15339   */\n      add\n        /* \"#utility.yul\":15315:15362   */\n      mstore\n        /* \"#utility.yul\":15379:15510   */\n      tag_746\n        /* \"#utility.yul\":15505:15509   */\n      dup2\n        /* \"#utility.yul\":15379:15510   */\n      tag_701\n      jump\t// in\n    tag_746:\n        /* \"#utility.yul\":15371:15510   */\n      swap1\n      pop\n        /* \"#utility.yul\":15269:15517   */\n      swap2\n      swap1\n      pop\n      jump\t// out\n        /* \"#utility.yul\":15523:15942   */\n    tag_281:\n        /* \"#utility.yul\":15689:15693   */\n      0x00\n        /* \"#utility.yul\":15727:15729   */\n      0x20\n        /* \"#utility.yul\":15716:15725   */\n      dup3\n        /* \"#utility.yul\":15712:15730   */\n      add\n        /* \"#utility.yul\":15704:15730   */\n      swap1\n      pop\n        /* \"#utility.yul\":15776:15785   */\n      dup2\n        /* \"#utility.yul\":15770:15774   */\n      dup2\n        /* \"#utility.yul\":15766:15786   */\n      sub\n        /* \"#utility.yul\":15762:15763   */\n      0x00\n        /* \"#utility.yul\":15751:15760   */\n      dup4\n        /* \"#utility.yul\":15747:15764   */\n      add\n        /* \"#utility.yul\":15740:15787   */\n      mstore\n        /* \"#utility.yul\":15804:15935   */\n      tag_748\n        /* \"#utility.yul\":15930:15934   */\n      dup2\n        /* \"#utility.yul\":15804:15935   */\n      tag_706\n      jump\t// in\n    tag_748:\n        /* \"#utility.yul\":15796:15935   */\n      swap1\n      pop\n        /* \"#utility.yul\":15694:15942   */\n      swap2\n      swap1\n      pop\n      jump\t// out\n        /* \"#utility.yul\":15948:16170   */\n    tag_66:\n        /* \"#utility.yul\":16041:16045   */\n      0x00\n        /* \"#utility.yul\":16079:16081   */\n      0x20\n        /* \"#utility.yul\":16068:16077   */\n      dup3\n        /* \"#utility.yul\":16064:16082   */\n      add\n        /* \"#utility.yul\":16056:16082   */\n      swap1\n      pop\n        /* \"#utility.yul\":16092:16163   */\n      tag_750\n        /* \"#utility.yul\":16160:16161   */\n      0x00\n        /* \"#utility.yul\":16149:16158   */\n      dup4\n        /* \"#utility.yul\":16145:16162   */\n      add\n        /* \"#utility.yul\":16136:16142   */\n      dup5\n        /* \"#utility.yul\":16092:16163   */\n      tag_711\n      jump\t// in\n    tag_750:\n        /* \"#utility.yul\":16046:16170   */\n      swap3\n      swap2\n      pop\n      pop\n      jump\t// out\n        /* \"#utility.yul\":16176:17007   */\n    tag_515:\n        /* \"#utility.yul\":16439:16443   */\n      0x00\n        /* \"#utility.yul\":16477:16480   */\n      0xa0\n        /* \"#utility.yul\":16466:16475   */\n      dup3\n        /* \"#utility.yul\":16462:16481   */\n      add\n        /* \"#utility.yul\":16454:16481   */\n      swap1\n      pop\n        /* \"#utility.yul\":16491:16562   */\n      tag_752\n        /* \"#utility.yul\":16559:16560   */\n      0x00\n        /* \"#utility.yul\":16548:16557   */\n      dup4\n        /* \"#utility.yul\":16544:16561   */\n      add\n        /* \"#utility.yul\":16535:16541   */\n      dup9\n        /* \"#utility.yul\":16491:16562   */\n      tag_711\n      jump\t// in\n    tag_752:\n        /* \"#utility.yul\":16572:16652   */\n      tag_753\n        /* \"#utility.yul\":16648:16650   */\n      0x20\n        /* \"#utility.yul\":16637:16646   */\n      dup4\n        /* \"#utility.yul\":16633:16651   */\n      add\n        /* \"#utility.yul\":16624:16630   */\n      dup8\n        /* \"#utility.yul\":16572:16652   */\n      tag_677\n      jump\t// in\n    tag_753:\n        /* \"#utility.yul\":16699:16708   */\n      dup2\n        /* \"#utility.yul\":16693:16697   */\n      dup2\n        /* \"#utility.yul\":16689:16709   */\n      sub\n        /* \"#utility.yul\":16684:16686   */\n      0x40\n        /* \"#utility.yul\":16673:16682   */\n      dup4\n        /* \"#utility.yul\":16669:16687   */\n      add\n        /* \"#utility.yul\":16662:16710   */\n      mstore\n        /* \"#utility.yul\":16727:16835   */\n      tag_754\n        /* \"#utility.yul\":16830:16834   */\n      dup2\n        /* \"#utility.yul\":16821:16827   */\n      dup7\n        /* \"#utility.yul\":16727:16835   */\n      tag_655\n      jump\t// in\n    tag_754:\n        /* \"#utility.yul\":16719:16835   */\n      swap1\n      pop\n        /* \"#utility.yul\":16845:16917   */\n      tag_755\n        /* \"#utility.yul\":16913:16915   */\n      0x60\n        /* \"#utility.yul\":16902:16911   */\n      dup4\n        /* \"#utility.yul\":16898:16916   */\n      add\n        /* \"#utility.yul\":16889:16895   */\n      dup6\n        /* \"#utility.yul\":16845:16917   */\n      tag_652\n      jump\t// in\n    tag_755:\n        /* \"#utility.yul\":16927:17000   */\n      tag_756\n        /* \"#utility.yul\":16995:16998   */\n      0x80\n        /* \"#utility.yul\":16984:16993   */\n      dup4\n        /* \"#utility.yul\":16980:16999   */\n      add\n        /* \"#utility.yul\":16971:16977   */\n      dup5\n        /* \"#utility.yul\":16927:17000   */\n      tag_711\n      jump\t// in\n    tag_756:\n        /* \"#utility.yul\":16444:17007   */\n      swap7\n      swap6\n      pop\n      pop\n      pop\n      pop\n      pop\n      pop\n      jump\t// out\n        /* \"#utility.yul\":17013:17345   */\n    tag_538:\n        /* \"#utility.yul\":17134:17138   */\n      0x00\n        /* \"#utility.yul\":17172:17174   */\n      0x40\n        /* \"#utility.yul\":17161:17170   */\n      dup3\n        /* \"#utility.yul\":17157:17175   */\n      add\n        /* \"#utility.yul\":17149:17175   */\n      swap1\n      pop\n        /* \"#utility.yul\":17185:17256   */\n      tag_758\n        /* \"#utility.yul\":17253:17254   */\n      0x00\n        /* \"#utility.yul\":17242:17251   */\n      dup4\n        /* \"#utility.yul\":17238:17255   */\n      add\n        /* \"#utility.yul\":17229:17235   */\n      dup6\n        /* \"#utility.yul\":17185:17256   */\n      tag_711\n      jump\t// in\n    tag_758:\n        /* \"#utility.yul\":17266:17338   */\n      tag_759\n        /* \"#utility.yul\":17334:17336   */\n      0x20\n        /* \"#utility.yul\":17323:17332   */\n      dup4\n        /* \"#utility.yul\":17319:17337   */\n      add\n        /* \"#utility.yul\":17310:17316   */\n      dup5\n        /* \"#utility.yul\":17266:17338   */\n      tag_711\n      jump\t// in\n    tag_759:\n        /* \"#utility.yul\":17139:17345   */\n      swap4\n      swap3\n      pop\n      pop\n      pop\n      jump\t// out\n        /* \"#utility.yul\":17351:17565   */\n    tag_128:\n        /* \"#utility.yul\":17440:17444   */\n      0x00\n        /* \"#utility.yul\":17478:17480   */\n      0x20\n        /* \"#utility.yul\":17467:17476   */\n      dup3\n        /* \"#utility.yul\":17463:17481   */\n      add\n        /* \"#utility.yul\":17455:17481   */\n      swap1\n      pop\n        /* \"#utility.yul\":17491:17558   */\n      tag_761\n        /* \"#utility.yul\":17555:17556   */\n      0x00\n        /* \"#utility.yul\":17544:17553   */\n      dup4\n        /* \"#utility.yul\":17540:17557   */\n      add\n        /* \"#utility.yul\":17531:17537   */\n      dup5\n        /* \"#utility.yul\":17491:17558   */\n      tag_715\n      jump\t// in\n    tag_761:\n        /* \"#utility.yul\":17445:17565   */\n      swap3\n      swap2\n      pop\n      pop\n      jump\t// out\n        /* \"#utility.yul\":17571:17703   */\n    tag_662:\n        /* \"#utility.yul\":17638:17642   */\n      0x00\n        /* \"#utility.yul\":17661:17664   */\n      dup2\n        /* \"#utility.yul\":17653:17664   */\n      swap1\n      pop\n        /* \"#utility.yul\":17691:17695   */\n      0x20\n        /* \"#utility.yul\":17686:17689   */\n      dup3\n        /* \"#utility.yul\":17682:17696   */\n      add\n        /* \"#utility.yul\":17674:17696   */\n      swap1\n      pop\n        /* \"#utility.yul\":17643:17703   */\n      swap2\n      swap1\n      pop\n      jump\t// out\n        /* \"#utility.yul\":17709:17823   */\n    tag_658:\n        /* \"#utility.yul\":17776:17782   */\n      0x00\n        /* \"#utility.yul\":17810:17815   */\n      dup2\n        /* \"#utility.yul\":17804:17816   */\n      mload\n        /* \"#utility.yul\":17794:17816   */\n      swap1\n      pop\n        /* \"#utility.yul\":17783:17823   */\n      swap2\n      swap1\n      pop\n      jump\t// out\n        /* \"#utility.yul\":17829:17928   */\n    tag_684:\n        /* \"#utility.yul\":17881:17887   */\n      0x00\n        /* \"#utility.yul\":17915:17920   */\n      dup2\n        /* \"#utility.yul\":17909:17921   */\n      mload\n        /* \"#utility.yul\":17899:17921   */\n      swap1\n      pop\n        /* \"#utility.yul\":17888:17928   */\n      swap2\n      swap1\n      pop\n      jump\t// out\n        /* \"#utility.yul\":17934:18047   */\n    tag_668:\n        /* \"#utility.yul\":18004:18008   */\n      0x00\n        /* \"#utility.yul\":18036:18040   */\n      0x20\n        /* \"#utility.yul\":18031:18034   */\n      dup3\n        /* \"#utility.yul\":18027:18041   */\n      add\n        /* \"#utility.yul\":18019:18041   */\n      swap1\n      pop\n        /* \"#utility.yul\":18009:18047   */\n      swap2\n      swap1\n      pop\n      jump\t// out\n        /* \"#utility.yul\":18053:18237   */\n    tag_660:\n        /* \"#utility.yul\":18152:18163   */\n      0x00\n        /* \"#utility.yul\":18186:18192   */\n      dup3\n        /* \"#utility.yul\":18181:18184   */\n      dup3\n        /* \"#utility.yul\":18174:18193   */\n      mstore\n        /* \"#utility.yul\":18226:18230   */\n      0x20\n        /* \"#utility.yul\":18221:18224   */\n      dup3\n        /* \"#utility.yul\":18217:18231   */\n      add\n        /* \"#utility.yul\":18202:18231   */\n      swap1\n      pop\n        /* \"#utility.yul\":18164:18237   */\n      swap3\n      swap2\n      pop\n      pop\n      jump\t// out\n        /* \"#utility.yul\":18243:18412   */\n    tag_686:\n        /* \"#utility.yul\":18327:18338   */\n      0x00\n        /* \"#utility.yul\":18361:18367   */\n      dup3\n        /* \"#utility.yul\":18356:18359   */\n      dup3\n        /* \"#utility.yul\":18349:18368   */\n      mstore\n        /* \"#utility.yul\":18401:18405   */\n      0x20\n        /* \"#utility.yul\":18396:18399   */\n      dup3\n        /* \"#utility.yul\":18392:18406   */\n      add\n        /* \"#utility.yul\":18377:18406   */\n      swap1\n      pop\n        /* \"#utility.yul\":18339:18412   */\n      swap3\n      swap2\n      pop\n      pop\n      jump\t// out\n        /* \"#utility.yul\":18418:18723   */\n    tag_386:\n        /* \"#utility.yul\":18458:18461   */\n      0x00\n        /* \"#utility.yul\":18477:18497   */\n      tag_769\n        /* \"#utility.yul\":18495:18496   */\n      dup3\n        /* \"#utility.yul\":18477:18497   */\n      tag_714\n      jump\t// in\n    tag_769:\n        /* \"#utility.yul\":18472:18497   */\n      swap2\n      pop\n        /* \"#utility.yul\":18511:18531   */\n      tag_770\n        /* \"#utility.yul\":18529:18530   */\n      dup4\n        /* \"#utility.yul\":18511:18531   */\n      tag_714\n      jump\t// in\n    tag_770:\n        /* \"#utility.yul\":18506:18531   */\n      swap3\n      pop\n        /* \"#utility.yul\":18665:18666   */\n      dup3\n        /* \"#utility.yul\":18597:18663   */\n      0xffffffffffffffffffffffffffffffffffffffffffffffffffffffffffffffff\n        /* \"#utility.yul\":18593:18667   */\n      sub\n        /* \"#utility.yul\":18590:18591   */\n      dup3\n        /* \"#utility.yul\":18587:18668   */\n      gt\n        /* \"#utility.yul\":18584:18586   */\n      iszero\n      tag_771\n      jumpi\n        /* \"#utility.yul\":18671:18689   */\n      tag_772\n      tag_773\n      jump\t// in\n    tag_772:\n        /* \"#utility.yul\":18584:18586   */\n    tag_771:\n        /* \"#utility.yul\":18715:18716   */\n      dup3\n        /* \"#utility.yul\":18712:18713   */\n      dup3\n        /* \"#utility.yul\":18708:18717   */\n      add\n        /* \"#utility.yul\":18701:18717   */\n      swap1\n      pop\n        /* \"#utility.yul\":18462:18723   */\n      swap3\n      swap2\n      pop\n      pop\n      jump\t// out\n        /* \"#utility.yul\":18729:18914   */\n    tag_301:\n        /* \"#utility.yul\":18769:18770   */\n      0x00\n        /* \"#utility.yul\":18786:18806   */\n      tag_775\n        /* \"#utility.yul\":18804:18805   */\n      dup3\n        /* \"#utility.yul\":18786:18806   */\n      tag_714\n      jump\t// in\n    tag_775:\n        /* \"#utility.yul\":18781:18806   */\n      swap2\n      pop\n        /* \"#utility.yul\":18820:18840   */\n      tag_776\n        /* \"#utility.yul\":18838:18839   */\n      dup4\n        /* \"#utility.yul\":18820:18840   */\n      tag_714\n      jump\t// in\n    tag_776:\n        /* \"#utility.yul\":18815:18840   */\n      swap3\n      pop\n        /* \"#utility.yul\":18859:18860   */\n      dup3\n        /* \"#utility.yul\":18849:18851   */\n      tag_777\n      jumpi\n        /* \"#utility.yul\":18864:18882   */\n      tag_778\n      tag_779\n      jump\t// in\n    tag_778:\n        /* \"#utility.yul\":18849:18851   */\n    tag_777:\n        /* \"#utility.yul\":18906:18907   */\n      dup3\n        /* \"#utility.yul\":18903:18904   */\n      dup3\n        /* \"#utility.yul\":18899:18908   */\n      div\n        /* \"#utility.yul\":18894:18908   */\n      swap1\n      pop\n        /* \"#utility.yul\":18771:18914   */\n      swap3\n      swap2\n      pop\n      pop\n      jump\t// out\n        /* \"#utility.yul\":18920:19268   */\n    tag_477:\n        /* \"#utility.yul\":18960:18967   */\n      0x00\n        /* \"#utility.yul\":18983:19003   */\n      tag_781\n        /* \"#utility.yul\":19001:19002   */\n      dup3\n        /* \"#utility.yul\":18983:19003   */\n      tag_714\n      jump\t// in\n    tag_781:\n        /* \"#utility.yul\":18978:19003   */\n      swap2\n      pop\n        /* \"#utility.yul\":19017:19037   */\n      tag_782\n        /* \"#utility.yul\":19035:19036   */\n      dup4\n        /* \"#utility.yul\":19017:19037   */\n      tag_714\n      jump\t// in\n    tag_782:\n        /* \"#utility.yul\":19012:19037   */\n      swap3\n      pop\n        /* \"#utility.yul\":19205:19206   */\n      dup2\n        /* \"#utility.yul\":19137:19203   */\n      0xffffffffffffffffffffffffffffffffffffffffffffffffffffffffffffffff\n        /* \"#utility.yul\":19133:19207   */\n      div\n        /* \"#utility.yul\":19130:19131   */\n      dup4\n        /* \"#utility.yul\":19127:19208   */\n      gt\n        /* \"#utility.yul\":19122:19123   */\n      dup3\n        /* \"#utility.yul\":19115:19124   */\n      iszero\n        /* \"#utility.yul\":19108:19125   */\n      iszero\n        /* \"#utility.yul\":19104:19209   */\n      and\n        /* \"#utility.yul\":19101:19103   */\n      iszero\n      tag_783\n      jumpi\n        /* \"#utility.yul\":19212:19230   */\n      tag_784\n      tag_773\n      jump\t// in\n    tag_784:\n        /* \"#utility.yul\":19101:19103   */\n    tag_783:\n        /* \"#utility.yul\":19260:19261   */\n      dup3\n        /* \"#utility.yul\":19257:19258   */\n      dup3\n        /* \"#utility.yul\":19253:19262   */\n      mul\n        /* \"#utility.yul\":19242:19262   */\n      swap1\n      pop\n        /* \"#utility.yul\":18968:19268   */\n      swap3\n      swap2\n      pop\n      pop\n      jump\t// out\n        /* \"#utility.yul\":19274:19465   */\n    tag_474:\n        /* \"#utility.yul\":19314:19318   */\n      0x00\n        /* \"#utility.yul\":19334:19354   */\n      tag_786\n        /* \"#utility.yul\":19352:19353   */\n      dup3\n        /* \"#utility.yul\":19334:19354   */\n      tag_714\n      jump\t// in\n    tag_786:\n        /* \"#utility.yul\":19329:19354   */\n      swap2\n      pop\n        /* \"#utility.yul\":19368:19388   */\n      tag_787\n        /* \"#utility.yul\":19386:19387   */\n      dup4\n        /* \"#utility.yul\":19368:19388   */\n      tag_714\n      jump\t// in\n    tag_787:\n        /* \"#utility.yul\":19363:19388   */\n      swap3\n      pop\n        /* \"#utility.yul\":19407:19408   */\n      dup3\n        /* \"#utility.yul\":19404:19405   */\n      dup3\n        /* \"#utility.yul\":19401:19409   */\n      lt\n        /* \"#utility.yul\":19398:19400   */\n      iszero\n      tag_788\n      jumpi\n        /* \"#utility.yul\":19412:19430   */\n      tag_789\n      tag_773\n      jump\t// in\n    tag_789:\n        /* \"#utility.yul\":19398:19400   */\n    tag_788:\n        /* \"#utility.yul\":19457:19458   */\n      dup3\n        /* \"#utility.yul\":19454:19455   */\n      dup3\n        /* \"#utility.yul\":19450:19459   */\n      sub\n        /* \"#utility.yul\":19442:19459   */\n      swap1\n      pop\n        /* \"#utility.yul\":19319:19465   */\n      swap3\n      swap2\n      pop\n      pop\n      jump\t// out\n        /* \"#utility.yul\":19471:19567   */\n    tag_651:\n        /* \"#utility.yul\":19508:19515   */\n      0x00\n        /* \"#utility.yul\":19537:19561   */\n      tag_791\n        /* \"#utility.yul\":19555:19560   */\n      dup3\n        /* \"#utility.yul\":19537:19561   */\n      tag_792\n      jump\t// in\n    tag_791:\n        /* \"#utility.yul\":19526:19561   */\n      swap1\n      pop\n        /* \"#utility.yul\":19516:19567   */\n      swap2\n      swap1\n      pop\n      jump\t// out\n        /* \"#utility.yul\":19573:19677   */\n    tag_793:\n        /* \"#utility.yul\":19618:19625   */\n      0x00\n        /* \"#utility.yul\":19647:19671   */\n      tag_795\n        /* \"#utility.yul\":19665:19670   */\n      dup3\n        /* \"#utility.yul\":19647:19671   */\n      tag_792\n      jump\t// in\n    tag_795:\n        /* \"#utility.yul\":19636:19671   */\n      swap1\n      pop\n        /* \"#utility.yul\":19626:19677   */\n      swap2\n      swap1\n      pop\n      jump\t// out\n        /* \"#utility.yul\":19683:19773   */\n    tag_672:\n        /* \"#utility.yul\":19717:19724   */\n      0x00\n        /* \"#utility.yul\":19760:19765   */\n      dup2\n        /* \"#utility.yul\":19753:19766   */\n      iszero\n        /* \"#utility.yul\":19746:19767   */\n      iszero\n        /* \"#utility.yul\":19735:19767   */\n      swap1\n      pop\n        /* \"#utility.yul\":19725:19773   */\n      swap2\n      swap1\n      pop\n      jump\t// out\n        /* \"#utility.yul\":19779:19905   */\n    tag_792:\n        /* \"#utility.yul\":19816:19823   */\n      0x00\n        /* \"#utility.yul\":19856:19898   */\n      0xffffffffffffffffffffffffffffffffffffffff\n        /* \"#utility.yul\":19849:19854   */\n      dup3\n        /* \"#utility.yul\":19845:19899   */\n      and\n        /* \"#utility.yul\":19834:19899   */\n      swap1\n      pop\n        /* \"#utility.yul\":19824:19905   */\n      swap2\n      swap1\n      pop\n      jump\t// out\n        /* \"#utility.yul\":19911:19988   */\n    tag_714:\n        /* \"#utility.yul\":19948:19955   */\n      0x00\n        /* \"#utility.yul\":19977:19982   */\n      dup2\n        /* \"#utility.yul\":19966:19982   */\n      swap1\n      pop\n        /* \"#utility.yul\":19956:19988   */\n      swap2\n      swap1\n      pop\n      jump\t// out\n        /* \"#utility.yul\":19994:20080   */\n    tag_718:\n        /* \"#utility.yul\":20029:20036   */\n      0x00\n        /* \"#utility.yul\":20069:20073   */\n      0xff\n        /* \"#utility.yul\":20062:20067   */\n      dup3\n        /* \"#utility.yul\":20058:20074   */\n      and\n        /* \"#utility.yul\":20047:20074   */\n      swap1\n      pop\n        /* \"#utility.yul\":20037:20080   */\n      swap2\n      swap1\n      pop\n      jump\t// out\n        /* \"#utility.yul\":20086:20220   */\n    tag_648:\n        /* \"#utility.yul\":20144:20153   */\n      0x00\n        /* \"#utility.yul\":20177:20214   */\n      tag_801\n        /* \"#utility.yul\":20208:20213   */\n      dup3\n        /* \"#utility.yul\":20177:20214   */\n      tag_802\n      jump\t// in\n    tag_801:\n        /* \"#utility.yul\":20164:20214   */\n      swap1\n      pop\n        /* \"#utility.yul\":20154:20220   */\n      swap2\n      swap1\n      pop\n      jump\t// out\n        /* \"#utility.yul\":20226:20388   */\n    tag_676:\n        /* \"#utility.yul\":20294:20303   */\n      0x00\n        /* \"#utility.yul\":20327:20382   */\n      tag_804\n        /* \"#utility.yul\":20376:20381   */\n      dup3\n        /* \"#utility.yul\":20327:20382   */\n      tag_805\n      jump\t// in\n    tag_804:\n        /* \"#utility.yul\":20314:20382   */\n      swap1\n      pop\n        /* \"#utility.yul\":20304:20388   */\n      swap2\n      swap1\n      pop\n      jump\t// out\n        /* \"#utility.yul\":20394:20525   */\n    tag_805:\n        /* \"#utility.yul\":20462:20471   */\n      0x00\n        /* \"#utility.yul\":20495:20519   */\n      tag_807\n        /* \"#utility.yul\":20513:20518   */\n      dup3\n        /* \"#utility.yul\":20495:20519   */\n      tag_792\n      jump\t// in\n    tag_807:\n        /* \"#utility.yul\":20482:20519   */\n      swap1\n      pop\n        /* \"#utility.yul\":20472:20525   */\n      swap2\n      swap1\n      pop\n      jump\t// out\n        /* \"#utility.yul\":20531:20652   */\n    tag_680:\n        /* \"#utility.yul\":20589:20598   */\n      0x00\n        /* \"#utility.yul\":20622:20646   */\n      tag_809\n        /* \"#utility.yul\":20640:20645   */\n      dup3\n        /* \"#utility.yul\":20622:20646   */\n      tag_714\n      jump\t// in\n    tag_809:\n        /* \"#utility.yul\":20609:20646   */\n      swap1\n      pop\n        /* \"#utility.yul\":20599:20652   */\n      swap2\n      swap1\n      pop\n      jump\t// out\n        /* \"#utility.yul\":20658:20784   */\n    tag_802:\n        /* \"#utility.yul\":20708:20717   */\n      0x00\n        /* \"#utility.yul\":20741:20778   */\n      tag_811\n        /* \"#utility.yul\":20772:20777   */\n      dup3\n        /* \"#utility.yul\":20741:20778   */\n      tag_812\n      jump\t// in\n    tag_811:\n        /* \"#utility.yul\":20728:20778   */\n      swap1\n      pop\n        /* \"#utility.yul\":20718:20784   */\n      swap2\n      swap1\n      pop\n      jump\t// out\n        /* \"#utility.yul\":20790:20903   */\n    tag_812:\n        /* \"#utility.yul\":20840:20849   */\n      0x00\n        /* \"#utility.yul\":20873:20897   */\n      tag_814\n        /* \"#utility.yul\":20891:20896   */\n      dup3\n        /* \"#utility.yul\":20873:20897   */\n      tag_792\n      jump\t// in\n    tag_814:\n        /* \"#utility.yul\":20860:20897   */\n      swap1\n      pop\n        /* \"#utility.yul\":20850:20903   */\n      swap2\n      swap1\n      pop\n      jump\t// out\n        /* \"#utility.yul\":20909:21216   */\n    tag_688:\n        /* \"#utility.yul\":20977:20978   */\n      0x00\n        /* \"#utility.yul\":20987:21100   */\n    tag_816:\n        /* \"#utility.yul\":21001:21007   */\n      dup4\n        /* \"#utility.yul\":20998:20999   */\n      dup2\n        /* \"#utility.yul\":20995:21008   */\n      lt\n        /* \"#utility.yul\":20987:21100   */\n      iszero\n      tag_818\n      jumpi\n        /* \"#utility.yul\":21086:21087   */\n      dup1\n        /* \"#utility.yul\":21081:21084   */\n      dup3\n        /* \"#utility.yul\":21077:21088   */\n      add\n        /* \"#utility.yul\":21071:21089   */\n      mload\n        /* \"#utility.yul\":21067:21068   */\n      dup2\n        /* \"#utility.yul\":21062:21065   */\n      dup5\n        /* \"#utility.yul\":21058:21069   */\n      add\n        /* \"#utility.yul\":21051:21090   */\n      mstore\n        /* \"#utility.yul\":21023:21025   */\n      0x20\n        /* \"#utility.yul\":21020:21021   */\n      dup2\n        /* \"#utility.yul\":21016:21026   */\n      add\n        /* \"#utility.yul\":21011:21026   */\n      swap1\n      pop\n        /* \"#utility.yul\":20987:21100   */\n      jump(tag_816)\n    tag_818:\n        /* \"#utility.yul\":21118:21124   */\n      dup4\n        /* \"#utility.yul\":21115:21116   */\n      dup2\n        /* \"#utility.yul\":21112:21125   */\n      gt\n        /* \"#utility.yul\":21109:21111   */\n      iszero\n      tag_819\n      jumpi\n        /* \"#utility.yul\":21198:21199   */\n      0x00\n        /* \"#utility.yul\":21189:21195   */\n      dup5\n        /* \"#utility.yul\":21184:21187   */\n      dup5\n        /* \"#utility.yul\":21180:21196   */\n      add\n        /* \"#utility.yul\":21173:21200   */\n      mstore\n        /* \"#utility.yul\":21109:21111   */\n    tag_819:\n        /* \"#utility.yul\":20958:21216   */\n      pop\n      pop\n      pop\n      pop\n      jump\t// out\n        /* \"#utility.yul\":21222:21402   */\n    tag_773:\n        /* \"#utility.yul\":21270:21347   */\n      0x4e487b7100000000000000000000000000000000000000000000000000000000\n        /* \"#utility.yul\":21267:21268   */\n      0x00\n        /* \"#utility.yul\":21260:21348   */\n      mstore\n        /* \"#utility.yul\":21367:21371   */\n      0x11\n        /* \"#utility.yul\":21364:21365   */\n      0x04\n        /* \"#utility.yul\":21357:21372   */\n      mstore\n        /* \"#utility.yul\":21391:21395   */\n      0x24\n        /* \"#utility.yul\":21388:21389   */\n      0x00\n        /* \"#utility.yul\":21381:21396   */\n      revert\n        /* \"#utility.yul\":21408:21588   */\n    tag_779:\n        /* \"#utility.yul\":21456:21533   */\n      0x4e487b7100000000000000000000000000000000000000000000000000000000\n        /* \"#utility.yul\":21453:21454   */\n      0x00\n        /* \"#utility.yul\":21446:21534   */\n      mstore\n        /* \"#utility.yul\":21553:21557   */\n      0x12\n        /* \"#utility.yul\":21550:21551   */\n      0x04\n        /* \"#utility.yul\":21543:21558   */\n      mstore\n        /* \"#utility.yul\":21577:21581   */\n      0x24\n        /* \"#utility.yul\":21574:21575   */\n      0x00\n        /* \"#utility.yul\":21567:21582   */\n      revert\n        /* \"#utility.yul\":21594:21696   */\n    tag_690:\n        /* \"#utility.yul\":21635:21641   */\n      0x00\n        /* \"#utility.yul\":21686:21688   */\n      0x1f\n        /* \"#utility.yul\":21682:21689   */\n      not\n        /* \"#utility.yul\":21677:21679   */\n      0x1f\n        /* \"#utility.yul\":21670:21675   */\n      dup4\n        /* \"#utility.yul\":21666:21680   */\n      add\n        /* \"#utility.yul\":21662:21690   */\n      and\n        /* \"#utility.yul\":21652:21690   */\n      swap1\n      pop\n        /* \"#utility.yul\":21642:21696   */\n      swap2\n      swap1\n      pop\n      jump\t// out\n        /* \"#utility.yul\":21702:21869   */\n    tag_695:\n        /* \"#utility.yul\":21842:21861   */\n      0x5458204c696d6974204578636565646564000000000000000000000000000000\n        /* \"#utility.yul\":21838:21839   */\n      0x00\n        /* \"#utility.yul\":21830:21836   */\n      dup3\n        /* \"#utility.yul\":21826:21840   */\n      add\n        /* \"#utility.yul\":21819:21862   */\n      mstore\n        /* \"#utility.yul\":21808:21869   */\n      pop\n      jump\t// out\n        /* \"#utility.yul\":21875:22045   */\n    tag_700:\n        /* \"#utility.yul\":22015:22037   */\n      0x416c7265616479206c61756e6368656420626f69000000000000000000000000\n        /* \"#utility.yul\":22011:22012   */\n      0x00\n        /* \"#utility.yul\":22003:22009   */\n      dup3\n        /* \"#utility.yul\":21999:22013   */\n      add\n        /* \"#utility.yul\":21992:22038   */\n      mstore\n        /* \"#utility.yul\":21981:22045   */\n      pop\n      jump\t// out\n        /* \"#utility.yul\":22051:22207   */\n    tag_705:\n        /* \"#utility.yul\":22191:22199   */\n      0x214f574e45520000000000000000000000000000000000000000000000000000\n        /* \"#utility.yul\":22187:22188   */\n      0x00\n        /* \"#utility.yul\":22179:22185   */\n      dup3\n        /* \"#utility.yul\":22175:22189   */\n      add\n        /* \"#utility.yul\":22168:22200   */\n      mstore\n        /* \"#utility.yul\":22157:22207   */\n      pop\n      jump\t// out\n        /* \"#utility.yul\":22213:22374   */\n    tag_710:\n        /* \"#utility.yul\":22353:22366   */\n      0x21415554484f52495a4544000000000000000000000000000000000000000000\n        /* \"#utility.yul\":22349:22350   */\n      0x00\n        /* \"#utility.yul\":22341:22347   */\n      dup3\n        /* \"#utility.yul\":22337:22351   */\n      add\n        /* \"#utility.yul\":22330:22367   */\n      mstore\n        /* \"#utility.yul\":22319:22374   */\n      pop\n      jump\t// out\n        /* \"#utility.yul\":22380:22502   */\n    tag_561:\n        /* \"#utility.yul\":22453:22477   */\n      tag_828\n        /* \"#utility.yul\":22471:22476   */\n      dup2\n        /* \"#utility.yul\":22453:22477   */\n      tag_651\n      jump\t// in\n    tag_828:\n        /* \"#utility.yul\":22446:22451   */\n      dup2\n        /* \"#utility.yul\":22443:22478   */\n      eq\n        /* \"#utility.yul\":22433:22435   */\n      tag_829\n      jumpi\n        /* \"#utility.yul\":22492:22493   */\n      0x00\n        /* \"#utility.yul\":22489:22490   */\n      dup1\n        /* \"#utility.yul\":22482:22494   */\n      revert\n        /* \"#utility.yul\":22433:22435   */\n    tag_829:\n        /* \"#utility.yul\":22423:22502   */\n      pop\n      jump\t// out\n        /* \"#utility.yul\":22508:22646   */\n    tag_565:\n        /* \"#utility.yul\":22589:22621   */\n      tag_831\n        /* \"#utility.yul\":22615:22620   */\n      dup2\n        /* \"#utility.yul\":22589:22621   */\n      tag_793\n      jump\t// in\n    tag_831:\n        /* \"#utility.yul\":22582:22587   */\n      dup2\n        /* \"#utility.yul\":22579:22622   */\n      eq\n        /* \"#utility.yul\":22569:22571   */\n      tag_832\n      jumpi\n        /* \"#utility.yul\":22636:22637   */\n      0x00\n        /* \"#utility.yul\":22633:22634   */\n      dup1\n        /* \"#utility.yul\":22626:22638   */\n      revert\n        /* \"#utility.yul\":22569:22571   */\n    tag_832:\n        /* \"#utility.yul\":22559:22646   */\n      pop\n      jump\t// out\n        /* \"#utility.yul\":22652:22768   */\n    tag_569:\n        /* \"#utility.yul\":22722:22743   */\n      tag_834\n        /* \"#utility.yul\":22737:22742   */\n      dup2\n        /* \"#utility.yul\":22722:22743   */\n      tag_672\n      jump\t// in\n    tag_834:\n        /* \"#utility.yul\":22715:22720   */\n      dup2\n        /* \"#utility.yul\":22712:22744   */\n      eq\n        /* \"#utility.yul\":22702:22704   */\n      tag_835\n      jumpi\n        /* \"#utility.yul\":22758:22759   */\n      0x00\n        /* \"#utility.yul\":22755:22756   */\n      dup1\n        /* \"#utility.yul\":22748:22760   */\n      revert\n        /* \"#utility.yul\":22702:22704   */\n    tag_835:\n        /* \"#utility.yul\":22692:22768   */\n      pop\n      jump\t// out\n        /* \"#utility.yul\":22774:22896   */\n    tag_573:\n        /* \"#utility.yul\":22847:22871   */\n      tag_837\n        /* \"#utility.yul\":22865:22870   */\n      dup2\n        /* \"#utility.yul\":22847:22871   */\n      tag_714\n      jump\t// in\n    tag_837:\n        /* \"#utility.yul\":22840:22845   */\n      dup2\n        /* \"#utility.yul\":22837:22872   */\n      eq\n        /* \"#utility.yul\":22827:22829   */\n      tag_838\n      jumpi\n        /* \"#utility.yul\":22886:22887   */\n      0x00\n        /* \"#utility.yul\":22883:22884   */\n      dup1\n        /* \"#utility.yul\":22876:22888   */\n      revert\n        /* \"#utility.yul\":22827:22829   */\n    tag_838:\n        /* \"#utility.yul\":22817:22896   */\n      pop\n      jump\t// out\n\n    auxdata: 0xa264697066735822122092667f4ee39d69f69a79955e3d9d0214675a30552d34f475d3e37f7fef72173464736f6c63430008040033\n}\n",
				"bytecode": {
					"linkReferences": {},
					"object": "608060405273e9e7cea3dedca5984780bafc599bd69add087d56600260006101000a81548173ffffffffffffffffffffffffffffffffffffffff021916908373ffffffffffffffffffffffffffffffffffffffff16021790555073bb4cdb9cbd36b01bd1cbaebf2de08d9173bc095c600360006101000a81548173ffffffffffffffffffffffffffffffffffffffff021916908373ffffffffffffffffffffffffffffffffffffffff16021790555061dead600460006101000a81548173ffffffffffffffffffffffffffffffffffffffff021916908373ffffffffffffffffffffffffffffffffffffffff1602179055506000600560006101000a81548173ffffffffffffffffffffffffffffffffffffffff021916908373ffffffffffffffffffffffffffffffffffffffff16021790555061dead600660006101000a81548173ffffffffffffffffffffffffffffffffffffffff021916908373ffffffffffffffffffffffffffffffffffffffff1602179055506009600a62000186919062000c93565b630bebc20062000197919062000dd0565b600755620001b861019060075462000a4560201b62001d731790919060201c565b60085561012c600e5560c8600f556101f46010556127106011556019601455606460155560c8601a556064601b55610708601d556000601e60006101000a81548160ff0219169083151502179055506207a1206026556001602760006101000a81548160ff0219169083151502179055506107d06007546200023b919062000c00565b6028553480156200024b57600080fd5b506040516200495b3803806200495b833981810160405281019062000271919062000b68565b33806000806101000a81548173ffffffffffffffffffffffffffffffffffffffff021916908373ffffffffffffffffffffffffffffffffffffffff16021790555060018060008373ffffffffffffffffffffffffffffffffffffffff1673ffffffffffffffffffffffffffffffffffffffff16815260200190815260200160002060006101000a81548160ff0219169083151502179055505080601660006101000a81548173ffffffffffffffffffffffffffffffffffffffff021916908373ffffffffffffffffffffffffffffffffffffffff160217905550601660009054906101000a900473ffffffffffffffffffffffffffffffffffffffff1673ffffffffffffffffffffffffffffffffffffffff1663c45a01556040518163ffffffff1660e01b815260040160206040518083038186803b158015620003b457600080fd5b505afa158015620003c9573d6000803e3d6000fd5b505050506040513d601f19601f82011682018060405250810190620003ef919062000b68565b73ffffffffffffffffffffffffffffffffffffffff1663c9c65396600360009054906101000a900473ffffffffffffffffffffffffffffffffffffffff16306040518363ffffffff1660e01b81526004016200044d92919062000bb6565b602060405180830381600087803b1580156200046857600080fd5b505af11580156200047d573d6000803e3d6000fd5b505050506040513d601f19601f82011682018060405250810190620004a3919062000b68565b601760006101000a81548173ffffffffffffffffffffffffffffffffffffffff021916908373ffffffffffffffffffffffffffffffffffffffff160217905550600754600a60003073ffffffffffffffffffffffffffffffffffffffff1673ffffffffffffffffffffffffffffffffffffffff1681526020019081526020016000206000601660009054906101000a900473ffffffffffffffffffffffffffffffffffffffff1673ffffffffffffffffffffffffffffffffffffffff1673ffffffffffffffffffffffffffffffffffffffff16815260200190815260200160002081905550601660009054906101000a900473ffffffffffffffffffffffffffffffffffffffff1673ffffffffffffffffffffffffffffffffffffffff1663ad5c46486040518163ffffffff1660e01b815260040160206040518083038186803b158015620005f157600080fd5b505afa15801562000606573d6000803e3d6000fd5b505050506040513d601f19601f820116820180604052508101906200062c919062000b68565b600360006101000a81548173ffffffffffffffffffffffffffffffffffffffff021916908373ffffffffffffffffffffffffffffffffffffffff1602179055506001600b60003373ffffffffffffffffffffffffffffffffffffffff1673ffffffffffffffffffffffffffffffffffffffff16815260200190815260200160002060006101000a81548160ff0219169083151502179055506001600c60003373ffffffffffffffffffffffffffffffffffffffff1673ffffffffffffffffffffffffffffffffffffffff16815260200190815260200160002060006101000a81548160ff0219169083151502179055506001600d6000601760009054906101000a900473ffffffffffffffffffffffffffffffffffffffff1673ffffffffffffffffffffffffffffffffffffffff1673ffffffffffffffffffffffffffffffffffffffff16815260200190815260200160002060006101000a81548160ff0219169083151502179055506001600d60003073ffffffffffffffffffffffffffffffffffffffff1673ffffffffffffffffffffffffffffffffffffffff16815260200190815260200160002060006101000a81548160ff0219169083151502179055506001600d6000600460009054906101000a900473ffffffffffffffffffffffffffffffffffffffff1673ffffffffffffffffffffffffffffffffffffffff1673ffffffffffffffffffffffffffffffffffffffff16815260200190815260200160002060006101000a81548160ff0219169083151502179055506001601f60003373ffffffffffffffffffffffffffffffffffffffff1673ffffffffffffffffffffffffffffffffffffffff16815260200190815260200160002060006101000a81548160ff02191690831515021790555033601260006101000a81548173ffffffffffffffffffffffffffffffffffffffff021916908373ffffffffffffffffffffffffffffffffffffffff16021790555033601360006101000a81548173ffffffffffffffffffffffffffffffffffffffff021916908373ffffffffffffffffffffffffffffffffffffffff160217905550620009568160075462000a5d60201b60201c565b506200098d601760009054906101000a900473ffffffffffffffffffffffffffffffffffffffff1660075462000a5d60201b60201c565b50600754600960003373ffffffffffffffffffffffffffffffffffffffff1673ffffffffffffffffffffffffffffffffffffffff168152602001908152602001600020819055503373ffffffffffffffffffffffffffffffffffffffff16600073ffffffffffffffffffffffffffffffffffffffff167fddf252ad1be2c89b69c2b068fc378daa952ba7f163c4a11628f55a4df523b3ef60075460405162000a36919062000be3565b60405180910390a35062000f01565b6000818362000a55919062000c00565b905092915050565b600081600a60003373ffffffffffffffffffffffffffffffffffffffff1673ffffffffffffffffffffffffffffffffffffffff16815260200190815260200160002060008573ffffffffffffffffffffffffffffffffffffffff1673ffffffffffffffffffffffffffffffffffffffff168152602001908152602001600020819055508273ffffffffffffffffffffffffffffffffffffffff163373ffffffffffffffffffffffffffffffffffffffff167f8c5be1e5ebec7d5bd14f71427d1e84f3dd0314c0f7b2291e5b200ac8c7c3b9258460405162000b3f919062000be3565b60405180910390a36001905092915050565b60008151905062000b628162000ee7565b92915050565b60006020828403121562000b7b57600080fd5b600062000b8b8482850162000b51565b91505092915050565b62000b9f8162000e31565b82525050565b62000bb08162000e65565b82525050565b600060408201905062000bcd600083018562000b94565b62000bdc602083018462000b94565b9392505050565b600060208201905062000bfa600083018462000ba5565b92915050565b600062000c0d8262000e65565b915062000c1a8362000e65565b92508262000c2d5762000c2c62000eab565b5b828204905092915050565b6000808291508390505b600185111562000c8a5780860481111562000c625762000c6162000e7c565b5b600185161562000c725780820291505b808102905062000c828562000eda565b945062000c42565b94509492505050565b600062000ca08262000e65565b915062000cad8362000e6f565b925062000cdc7fffffffffffffffffffffffffffffffffffffffffffffffffffffffffffffffff848462000ce4565b905092915050565b60008262000cf6576001905062000dc9565b8162000d06576000905062000dc9565b816001811462000d1f576002811462000d2a5762000d60565b600191505062000dc9565b60ff84111562000d3f5762000d3e62000e7c565b5b8360020a91508482111562000d595762000d5862000e7c565b5b5062000dc9565b5060208310610133831016604e8410600b841016171562000d9a5782820a90508381111562000d945762000d9362000e7c565b5b62000dc9565b62000da9848484600162000c38565b9250905081840481111562000dc35762000dc262000e7c565b5b81810290505b9392505050565b600062000ddd8262000e65565b915062000dea8362000e65565b9250817fffffffffffffffffffffffffffffffffffffffffffffffffffffffffffffffff048311821515161562000e265762000e2562000e7c565b5b828202905092915050565b600062000e3e8262000e45565b9050919050565b600073ffffffffffffffffffffffffffffffffffffffff82169050919050565b6000819050919050565b600060ff82169050919050565b7f4e487b7100000000000000000000000000000000000000000000000000000000600052601160045260246000fd5b7f4e487b7100000000000000000000000000000000000000000000000000000000600052601260045260246000fd5b60008160011c9050919050565b62000ef28162000e31565b811462000efe57600080fd5b50565b613a4a8062000f116000396000f3fe60806040526004361061028c5760003560e01c806395d89b411161015a578063d806d12f116100c1578063f1f3bca31161007a578063f1f3bca3146109df578063f2fde38b14610a1c578063f5cfec0a14610a45578063f84ba65d14610a6e578063f887ea4014610a97578063fe9fbb8014610ac257610293565b8063d806d12f146108cf578063dd62ed3e146108fa578063df20fd4914610937578063e91f214e14610960578063e96fada21461098b578063f0b37c04146109b657610293565b8063b210b06d11610113578063b210b06d146107d1578063b6a5d7de146107e8578063bf56b37114610811578063c6d2577d1461083c578063ca33e64c14610867578063d51ed1c81461089257610293565b806395d89b41146106c15780639d1944f5146106ec578063a4b45c0014610715578063a51af4c51461073e578063a8aa1b3114610769578063a9059cbb1461079457610293565b80632b112e49116101fe578063658d4b7f116101b7578063658d4b7f146105af5780636ddd1713146105d857806370a08231146106035780637d1db4a514610640578063893d20e81461066b5780638dd950021461069657610293565b80632b112e491461048b5780632f54bf6e146104b6578063313ce567146104f35780633bb8a8d41461051e578063571ac8b0146105495780635c85974f1461058657610293565b8063095ea7b311610250578063095ea7b3146103575780631161ae391461039457806318160ddd146103d1578063201e7991146103fc5780632375ce401461042557806323b872dd1461044e57610293565b806301339c21146102985780630445b667146102af578063048c7baf146102da57806304a66b481461030357806306fdde031461032c57610293565b3661029357005b600080fd5b3480156102a457600080fd5b506102ad610aff565b005b3480156102bb57600080fd5b506102c4610b9c565b6040516102d1919061357c565b60405180910390f35b3480156102e657600080fd5b5061030160048036038101906102fc9190612ff5565b610ba2565b005b34801561030f57600080fd5b5061032a60048036038101906103259190613197565b610c2e565b005b34801561033857600080fd5b50610341610ceb565b60405161034e91906134da565b60405180910390f35b34801561036357600080fd5b5061037e60048036038101906103799190612f54565b610d28565b60405161038b9190613458565b60405180910390f35b3480156103a057600080fd5b506103bb60048036038101906103b691906130bd565b610e1a565b6040516103c89190613458565b60405180910390f35b3480156103dd57600080fd5b506103e6610e2f565b6040516103f3919061357c565b60405180910390f35b34801561040857600080fd5b50610423600480360381019061041e91906130bd565b610e39565b005b34801561043157600080fd5b5061044c600480360381019061044791906130f9565b610e93565b005b34801561045a57600080fd5b5061047560048036038101906104709190612ec9565b610f19565b6040516104829190613458565b60405180910390f35b34801561049757600080fd5b506104a06110fb565b6040516104ad919061357c565b60405180910390f35b3480156104c257600080fd5b506104dd60048036038101906104d89190612e3b565b61117d565b6040516104ea9190613458565b60405180910390f35b3480156104ff57600080fd5b506105086111d6565b604051610515919061361a565b60405180910390f35b34801561052a57600080fd5b506105336111df565b6040516105409190613458565b60405180910390f35b34801561055557600080fd5b50610570600480360381019061056b9190612e3b565b6111f2565b60405161057d9190613458565b60405180910390f35b34801561059257600080fd5b506105ad60048036038101906105a89190613058565b611207565b005b3480156105bb57600080fd5b506105d660048036038101906105d19190612f18565b611275565b005b3480156105e457600080fd5b506105ed611318565b6040516105fa9190613458565b60405180910390f35b34801561060f57600080fd5b5061062a60048036038101906106259190612e3b565b61132b565b604051610637919061357c565b60405180910390f35b34801561064c57600080fd5b50610655611374565b604051610662919061357c565b60405180910390f35b34801561067757600080fd5b5061068061137a565b60405161068d91906133c1565b60405180910390f35b3480156106a257600080fd5b506106ab6113a3565b6040516106b891906133c1565b60405180910390f35b3480156106cd57600080fd5b506106d66113c9565b6040516106e391906134da565b60405180910390f35b3480156106f857600080fd5b50610713600480360381019061070e9190613058565b611406565b005b34801561072157600080fd5b5061073c60048036038101906107379190612e8d565b611467565b005b34801561074a57600080fd5b50610753611535565b60405161076091906133c1565b60405180910390f35b34801561077557600080fd5b5061077e61155b565b60405161078b91906133c1565b60405180910390f35b3480156107a057600080fd5b506107bb60048036038101906107b69190612f54565b611581565b6040516107c89190613458565b60405180910390f35b3480156107dd57600080fd5b506107e6611596565b005b3480156107f457600080fd5b5061080f600480360381019061080a9190612e3b565b6115e8565b005b34801561081d57600080fd5b5061082661168a565b604051610833919061357c565b60405180910390f35b34801561084857600080fd5b50610851611690565b60405161085e919061357c565b60405180910390f35b34801561087357600080fd5b5061087c611696565b60405161088991906133c1565b60405180910390f35b34801561089e57600080fd5b506108b960048036038101906108b49190613058565b6116bc565b6040516108c6919061357c565b60405180910390f35b3480156108db57600080fd5b506108e461172e565b6040516108f1919061357c565b60405180910390f35b34801561090657600080fd5b50610921600480360381019061091c9190612e8d565b611855565b60405161092e919061357c565b60405180910390f35b34801561094357600080fd5b5061095e60048036038101906109599190612fb9565b6118dc565b005b34801561096c57600080fd5b50610975611949565b604051610982919061357c565b60405180910390f35b34801561099757600080fd5b506109a061195f565b6040516109ad91906133c1565b60405180910390f35b3480156109c257600080fd5b506109dd60048036038101906109d89190612e3b565b611985565b005b3480156109eb57600080fd5b50610a066004803603810190610a019190612f90565b611a28565b604051610a13919061357c565b60405180910390f35b348015610a2857600080fd5b50610a436004803603810190610a3e9190612e64565b611a7c565b005b348015610a5157600080fd5b50610a6c6004803603810190610a679190613081565b611b95565b005b348015610a7a57600080fd5b50610a956004803603810190610a909190612f18565b611c54565b005b348015610aa357600080fd5b50610aac611cf7565b604051610ab99190613473565b60405180910390f35b348015610ace57600080fd5b50610ae96004803603810190610ae49190612e3b565b611d1d565b604051610af69190613458565b60405180910390f35b610b0833611d1d565b610b47576040517f08c379a0000000000000000000000000000000000000000000000000000000008152600401610b3e9061355c565b60405180910390fd5b600060185414610b8c576040517f08c379a0000000000000000000000000000000000000000000000000000000008152600401610b839061351c565b60405180910390fd5b4360188190555042601981905550565b60285481565b610bab33611d1d565b610bea576040517f08c379a0000000000000000000000000000000000000000000000000000000008152600401610be19061355c565b60405180910390fd5b83601e60006101000a81548160ff02191690831515021790555082602081905550600060218190555081602281905550806023819055504360248190555050505050565b610c3733611d1d565b610c76576040517f08c379a0000000000000000000000000000000000000000000000000000000008152600401610c6d9061355c565b60405180910390fd5b84600e8190555081600f81905550610cbb82610cad85610c9f888a611d8990919063ffffffff16565b611d8990919063ffffffff16565b611d8990919063ffffffff16565b601081905550806011819055506004601154610cd791906136e0565b60105410610ce457600080fd5b5050505050565b60606040518060400160405280600a81526020017f436f6f6b6965436f696e00000000000000000000000000000000000000000000815250905090565b600081600a60003373ffffffffffffffffffffffffffffffffffffffff1673ffffffffffffffffffffffffffffffffffffffff16815260200190815260200160002060008573ffffffffffffffffffffffffffffffffffffffff1673ffffffffffffffffffffffffffffffffffffffff168152602001908152602001600020819055508273ffffffffffffffffffffffffffffffffffffffff163373ffffffffffffffffffffffffffffffffffffffff167f8c5be1e5ebec7d5bd14f71427d1e84f3dd0314c0f7b2291e5b200ac8c7c3b92584604051610e08919061357c565b60405180910390a36001905092915050565b600082610e26836116bc565b11905092915050565b6000600754905090565b610e4233611d1d565b610e81576040517f08c379a0000000000000000000000000000000000000000000000000000000008152600401610e789061355c565b60405180910390fd5b81601481905550806015819055505050565b610e9c33611d1d565b610edb576040517f08c379a0000000000000000000000000000000000000000000000000000000008152600401610ed29061355c565b60405180910390fd5b60028284610ee991906136e0565b11158015610ef657508183115b610eff57600080fd5b82601a8190555081601b8190555080601d81905550505050565b6000600754600a60008673ffffffffffffffffffffffffffffffffffffffff1673ffffffffffffffffffffffffffffffffffffffff16815260200190815260200160002060003373ffffffffffffffffffffffffffffffffffffffff1673ffffffffffffffffffffffffffffffffffffffff16815260200190815260200160002054146110e757611066826040518060400160405280601681526020017f496e73756666696369656e7420416c6c6f77616e636500000000000000000000815250600a60008873ffffffffffffffffffffffffffffffffffffffff1673ffffffffffffffffffffffffffffffffffffffff16815260200190815260200160002060003373ffffffffffffffffffffffffffffffffffffffff1673ffffffffffffffffffffffffffffffffffffffff16815260200190815260200160002054611d9f9092919063ffffffff16565b600a60008673ffffffffffffffffffffffffffffffffffffffff1673ffffffffffffffffffffffffffffffffffffffff16815260200190815260200160002060003373ffffffffffffffffffffffffffffffffffffffff1673ffffffffffffffffffffffffffffffffffffffff168152602001908152602001600020819055505b6110f2848484611df4565b90509392505050565b600061117861112b600560009054906101000a900473ffffffffffffffffffffffffffffffffffffffff1661132b565b61116a611159600460009054906101000a900473ffffffffffffffffffffffffffffffffffffffff1661132b565b60075461204990919063ffffffff16565b61204990919063ffffffff16565b905090565b60008060009054906101000a900473ffffffffffffffffffffffffffffffffffffffff1673ffffffffffffffffffffffffffffffffffffffff168273ffffffffffffffffffffffffffffffffffffffff16149050919050565b60006009905090565b601e60009054906101000a900460ff1681565b600061120082600754610d28565b9050919050565b61121033611d1d565b61124f576040517f08c379a00000000000000000000000000000000000000000000000000000000081526004016112469061355c565b60405180910390fd5b6103e860075461125f91906136e0565b81101561126b57600080fd5b8060088190555050565b61127e33611d1d565b6112bd576040517f08c379a00000000000000000000000000000000000000000000000000000000081526004016112b49061355c565b60405180910390fd5b80600b60008473ffffffffffffffffffffffffffffffffffffffff1673ffffffffffffffffffffffffffffffffffffffff16815260200190815260200160002060006101000a81548160ff0219169083151502179055505050565b602760009054906101000a900460ff1681565b6000600960008373ffffffffffffffffffffffffffffffffffffffff1673ffffffffffffffffffffffffffffffffffffffff168152602001908152602001600020549050919050565b60085481565b60008060009054906101000a900473ffffffffffffffffffffffffffffffffffffffff16905090565b600360009054906101000a900473ffffffffffffffffffffffffffffffffffffffff1681565b60606040518060400160405280600681526020017f434f4f4b49450000000000000000000000000000000000000000000000000000815250905090565b61140f33611d1d565b61144e576040517f08c379a00000000000000000000000000000000000000000000000000000000081526004016114459061355c565b60405180910390fd5b620b71b0811061145d57600080fd5b8060268190555050565b61147033611d1d565b6114af576040517f08c379a00000000000000000000000000000000000000000000000000000000081526004016114a69061355c565b60405180910390fd5b81601260006101000a81548173ffffffffffffffffffffffffffffffffffffffff021916908373ffffffffffffffffffffffffffffffffffffffff16021790555080601360006101000a81548173ffffffffffffffffffffffffffffffffffffffff021916908373ffffffffffffffffffffffffffffffffffffffff1602179055505050565b602560009054906101000a900473ffffffffffffffffffffffffffffffffffffffff1681565b601760009054906101000a900473ffffffffffffffffffffffffffffffffffffffff1681565b600061158e338484611df4565b905092915050565b61159f33611d1d565b6115de576040517f08c379a00000000000000000000000000000000000000000000000000000000081526004016115d59061355c565b60405180910390fd5b6000601c81905550565b6115f13361117d565b611630576040517f08c379a00000000000000000000000000000000000000000000000000000000081526004016116279061353c565b60405180910390fd5b60018060008373ffffffffffffffffffffffffffffffffffffffff1673ffffffffffffffffffffffffffffffffffffffff16815260200190815260200160002060006101000a81548160ff02191690831515021790555050565b60185481565b60195481565b601260009054906101000a900473ffffffffffffffffffffffffffffffffffffffff1681565b60006117276116c96110fb565b61171961170a60026116fc601760009054906101000a900473ffffffffffffffffffffffffffffffffffffffff1661132b565b61205f90919063ffffffff16565b8561205f90919063ffffffff16565b611d7390919063ffffffff16565b9050919050565b60004262015180601954611742919061368a565b111561177a5761177360115461176561465060105461205f90919063ffffffff16565b611d7390919063ffffffff16565b9050611852565b42611792601d54601c54611d8990919063ffffffff16565b111561184c5760006117c3426117b5601d54601c54611d8990919063ffffffff16565b61204990919063ffffffff16565b905060006118066010546117f8601b546117ea601a5460105461205f90919063ffffffff16565b611d7390919063ffffffff16565b61204990919063ffffffff16565b9050611843611832601d54611824858561205f90919063ffffffff16565b611d7390919063ffffffff16565b601054611d8990919063ffffffff16565b92505050611852565b60105490505b90565b6000600a60008473ffffffffffffffffffffffffffffffffffffffff1673ffffffffffffffffffffffffffffffffffffffff16815260200190815260200160002060008373ffffffffffffffffffffffffffffffffffffffff1673ffffffffffffffffffffffffffffffffffffffff16815260200190815260200160002054905092915050565b6118e533611d1d565b611924576040517f08c379a000000000000000000000000000000000000000000000000000000000815260040161191b9061355c565b60405180910390fd5b81602760006101000a81548160ff021916908315150217905550806028819055505050565b6fffffffffffffffffffffffffffffffff801681565b601360009054906101000a900473ffffffffffffffffffffffffffffffffffffffff1681565b61198e3361117d565b6119cd576040517f08c379a00000000000000000000000000000000000000000000000000000000081526004016119c49061353c565b60405180910390fd5b6000600160008373ffffffffffffffffffffffffffffffffffffffff1673ffffffffffffffffffffffffffffffffffffffff16815260200190815260200160002060006101000a81548160ff02191690831515021790555050565b6000436001601854611a3a919061368a565b10611a5c57611a55600160115461204990919063ffffffff16565b9050611a77565b8115611a7157611a6a61172e565b9050611a77565b60105490505b919050565b611a853361117d565b611ac4576040517f08c379a0000000000000000000000000000000000000000000000000000000008152600401611abb9061353c565b60405180910390fd5b806000806101000a81548173ffffffffffffffffffffffffffffffffffffffff021916908373ffffffffffffffffffffffffffffffffffffffff16021790555060018060008373ffffffffffffffffffffffffffffffffffffffff1673ffffffffffffffffffffffffffffffffffffffff16815260200190815260200160002060006101000a81548160ff0219169083151502179055507f04dba622d284ed0014ee4b9a6a68386be1a4c08a4913ae272de89199cc68616381604051611b8a91906133dc565b60405180910390a150565b611b9e33611d1d565b611bdd576040517f08c379a0000000000000000000000000000000000000000000000000000000008152600401611bd49061355c565b60405180910390fd5b611c0982600460009054906101000a900473ffffffffffffffffffffffffffffffffffffffff16612075565b8015611c505742601c819055507f39d2389ec5c1fa77b2c0d374bc61b6d7bd97ccba280fcdeb4e9c7644898d7c3a601d54604051611c47919061357c565b60405180910390a15b5050565b611c5d33611d1d565b611c9c576040517f08c379a0000000000000000000000000000000000000000000000000000000008152600401611c939061355c565b60405180910390fd5b80600c60008473ffffffffffffffffffffffffffffffffffffffff1673ffffffffffffffffffffffffffffffffffffffff16815260200190815260200160002060006101000a81548160ff0219169083151502179055505050565b601660009054906101000a900473ffffffffffffffffffffffffffffffffffffffff1681565b6000600160008373ffffffffffffffffffffffffffffffffffffffff1673ffffffffffffffffffffffffffffffffffffffff16815260200190815260200160002060009054906101000a900460ff169050919050565b60008183611d8191906136e0565b905092915050565b60008183611d97919061368a565b905092915050565b6000838311158290611de7576040517f08c379a0000000000000000000000000000000000000000000000000000000008152600401611dde91906134da565b60405180910390fd5b5082840390509392505050565b6000602960009054906101000a900460ff1615611e1d57611e168484846122c5565b9050612042565b611e278483612433565b611e2f6124d0565b15611e3d57611e3c6125a7565b5b611e45612ab1565b15611e5357611e52612b64565b5b611edc826040518060400160405280601481526020017f496e73756666696369656e742042616c616e6365000000000000000000000000815250600960008873ffffffffffffffffffffffffffffffffffffffff1673ffffffffffffffffffffffffffffffffffffffff16815260200190815260200160002054611d9f9092919063ffffffff16565b600960008673ffffffffffffffffffffffffffffffffffffffff1673ffffffffffffffffffffffffffffffffffffffff168152602001908152602001600020819055506000611f2a85612be0565b611f345782611f40565b611f3f858585612c37565b5b9050611f9481600960008773ffffffffffffffffffffffffffffffffffffffff1673ffffffffffffffffffffffffffffffffffffffff16815260200190815260200160002054611d8990919063ffffffff16565b600960008673ffffffffffffffffffffffffffffffffffffffff1673ffffffffffffffffffffffffffffffffffffffff168152602001908152602001600020819055508373ffffffffffffffffffffffffffffffffffffffff168573ffffffffffffffffffffffffffffffffffffffff167fddf252ad1be2c89b69c2b068fc378daa952ba7f163c4a11628f55a4df523b3ef83604051612034919061357c565b60405180910390a360019150505b9392505050565b60008183612057919061376b565b905092915050565b6000818361206d9190613711565b905092915050565b6001602960006101000a81548160ff0219169083151502179055506000600267ffffffffffffffff8111156120d3577f4e487b7100000000000000000000000000000000000000000000000000000000600052604160045260246000fd5b6040519080825280602002602001820160405280156121015781602001602082028036833780820191505090505b509050600360009054906101000a900473ffffffffffffffffffffffffffffffffffffffff1681600081518110612161577f4e487b7100000000000000000000000000000000000000000000000000000000600052603260045260246000fd5b602002602001019073ffffffffffffffffffffffffffffffffffffffff16908173ffffffffffffffffffffffffffffffffffffffff168152505030816001815181106121d6577f4e487b7100000000000000000000000000000000000000000000000000000000600052603260045260246000fd5b602002602001019073ffffffffffffffffffffffffffffffffffffffff16908173ffffffffffffffffffffffffffffffffffffffff1681525050601660009054906101000a900473ffffffffffffffffffffffffffffffffffffffff1673ffffffffffffffffffffffffffffffffffffffff1663b6f9de958460008486426040518663ffffffff1660e01b8152600401612273949392919061348e565b6000604051808303818588803b15801561228c57600080fd5b505af11580156122a0573d6000803e3d6000fd5b5050505050506000602960006101000a81548160ff0219169083151502179055505050565b6000612350826040518060400160405280601481526020017f496e73756666696369656e742042616c616e6365000000000000000000000000815250600960008873ffffffffffffffffffffffffffffffffffffffff1673ffffffffffffffffffffffffffffffffffffffff16815260200190815260200160002054611d9f9092919063ffffffff16565b600960008673ffffffffffffffffffffffffffffffffffffffff1673ffffffffffffffffffffffffffffffffffffffff168152602001908152602001600020819055506123e582600960008673ffffffffffffffffffffffffffffffffffffffff1673ffffffffffffffffffffffffffffffffffffffff16815260200190815260200160002054611d8990919063ffffffff16565b600960008573ffffffffffffffffffffffffffffffffffffffff1673ffffffffffffffffffffffffffffffffffffffff16815260200190815260200160002081905550600190509392505050565b6008548111158061248d5750600c60008373ffffffffffffffffffffffffffffffffffffffff1673ffffffffffffffffffffffffffffffffffffffff16815260200190815260200160002060009054906101000a900460ff165b6124cc576040517f08c379a00000000000000000000000000000000000000000000000000000000081526004016124c3906134fc565b60405180910390fd5b5050565b6000601760009054906101000a900473ffffffffffffffffffffffffffffffffffffffff1673ffffffffffffffffffffffffffffffffffffffff163373ffffffffffffffffffffffffffffffffffffffff161415801561253d5750602960009054906101000a900460ff16155b80156125555750602760009054906101000a900460ff165b80156125a25750602854600960003073ffffffffffffffffffffffffffffffffffffffff1673ffffffffffffffffffffffffffffffffffffffff1681526020019081526020016000205410155b905090565b6001602960006101000a81548160ff02191690831515021790555060006125d2601454601554610e1a565b6125de57600e546125e1565b60005b9050600061262160026126136010546126058660285461205f90919063ffffffff16565b611d7390919063ffffffff16565b611d7390919063ffffffff16565b9050600061263a8260285461204990919063ffffffff16565b90506000600267ffffffffffffffff81111561267f577f4e487b7100000000000000000000000000000000000000000000000000000000600052604160045260246000fd5b6040519080825280602002602001820160405280156126ad5781602001602082028036833780820191505090505b50905030816000815181106126eb577f4e487b7100000000000000000000000000000000000000000000000000000000600052603260045260246000fd5b602002602001019073ffffffffffffffffffffffffffffffffffffffff16908173ffffffffffffffffffffffffffffffffffffffff1681525050600360009054906101000a900473ffffffffffffffffffffffffffffffffffffffff1681600181518110612782577f4e487b7100000000000000000000000000000000000000000000000000000000600052603260045260246000fd5b602002602001019073ffffffffffffffffffffffffffffffffffffffff16908173ffffffffffffffffffffffffffffffffffffffff16815250506000479050601660009054906101000a900473ffffffffffffffffffffffffffffffffffffffff1673ffffffffffffffffffffffffffffffffffffffff1663791ac9478460008530426040518663ffffffff1660e01b8152600401612825959493929190613597565b600060405180830381600087803b15801561283f57600080fd5b505af1158015612853573d6000803e3d6000fd5b50505050600061286c824761204990919063ffffffff16565b90506000612898612887600289611d7390919063ffffffff16565b60105461204990919063ffffffff16565b905060006128d460026128c6846128b88c8861205f90919063ffffffff16565b611d7390919063ffffffff16565b611d7390919063ffffffff16565b905060006128ff836128f1600f548761205f90919063ffffffff16565b611d7390919063ffffffff16565b9050601360009054906101000a900473ffffffffffffffffffffffffffffffffffffffff1673ffffffffffffffffffffffffffffffffffffffff166108fc829081150290604051600060405180830381858888f19350505050158015612969573d6000803e3d6000fd5b506000881115612a8b57601660009054906101000a900473ffffffffffffffffffffffffffffffffffffffff1673ffffffffffffffffffffffffffffffffffffffff1663f305d71983308b600080601260009054906101000a900473ffffffffffffffffffffffffffffffffffffffff16426040518863ffffffff1660e01b81526004016129fc969594939291906133f7565b6060604051808303818588803b158015612a1557600080fd5b505af1158015612a29573d6000803e3d6000fd5b50505050506040513d601f19601f82011682018060405250810190612a4e9190613148565b5050507f424db2872186fa7e7afa7a5e902ed3b49a2ef19c2f5431e672462495dd6b45068289604051612a829291906135f1565b60405180910390a15b5050505050505050506000602960006101000a81548160ff021916908315150217905550565b6000601760009054906101000a900473ffffffffffffffffffffffffffffffffffffffff1673ffffffffffffffffffffffffffffffffffffffff163373ffffffffffffffffffffffffffffffffffffffff1614158015612b1e5750602960009054906101000a900460ff16155b8015612b365750601e60009054906101000a900460ff165b8015612b51575043602354602454612b4e919061368a565b11155b8015612b5f57506022544710155b905090565b612b92602254600460009054906101000a900473ffffffffffffffffffffffffffffffffffffffff16612075565b43602481905550612bb0602254602154611d8990919063ffffffff16565b6021819055506020546021541115612bde576000601e60006101000a81548160ff0219169083151502179055505b565b6000600b60008373ffffffffffffffffffffffffffffffffffffffff1673ffffffffffffffffffffffffffffffffffffffff16815260200190815260200160002060009054906101000a900460ff16159050919050565b600080612cb9601154612cab612c9c601760009054906101000a900473ffffffffffffffffffffffffffffffffffffffff1673ffffffffffffffffffffffffffffffffffffffff168873ffffffffffffffffffffffffffffffffffffffff1614611a28565b8661205f90919063ffffffff16565b611d7390919063ffffffff16565b9050612d0d81600960003073ffffffffffffffffffffffffffffffffffffffff1673ffffffffffffffffffffffffffffffffffffffff16815260200190815260200160002054611d8990919063ffffffff16565b600960003073ffffffffffffffffffffffffffffffffffffffff1673ffffffffffffffffffffffffffffffffffffffff168152602001908152602001600020819055503073ffffffffffffffffffffffffffffffffffffffff168573ffffffffffffffffffffffffffffffffffffffff167fddf252ad1be2c89b69c2b068fc378daa952ba7f163c4a11628f55a4df523b3ef83604051612dad919061357c565b60405180910390a3612dc8818461204990919063ffffffff16565b9150509392505050565b600081359050612de1816139b8565b92915050565b600081359050612df6816139cf565b92915050565b600081359050612e0b816139e6565b92915050565b600081359050612e20816139fd565b92915050565b600081519050612e35816139fd565b92915050565b600060208284031215612e4d57600080fd5b6000612e5b84828501612dd2565b91505092915050565b600060208284031215612e7657600080fd5b6000612e8484828501612de7565b91505092915050565b60008060408385031215612ea057600080fd5b6000612eae85828601612dd2565b9250506020612ebf85828601612dd2565b9150509250929050565b600080600060608486031215612ede57600080fd5b6000612eec86828701612dd2565b9350506020612efd86828701612dd2565b9250506040612f0e86828701612e11565b9150509250925092565b60008060408385031215612f2b57600080fd5b6000612f3985828601612dd2565b9250506020612f4a85828601612dfc565b9150509250929050565b60008060408385031215612f6757600080fd5b6000612f7585828601612dd2565b9250506020612f8685828601612e11565b9150509250929050565b600060208284031215612fa257600080fd5b6000612fb084828501612dfc565b91505092915050565b60008060408385031215612fcc57600080fd5b6000612fda85828601612dfc565b9250506020612feb85828601612e11565b9150509250929050565b6000806000806080858703121561300b57600080fd5b600061301987828801612dfc565b945050602061302a87828801612e11565b935050604061303b87828801612e11565b925050606061304c87828801612e11565b91505092959194509250565b60006020828403121561306a57600080fd5b600061307884828501612e11565b91505092915050565b6000806040838503121561309457600080fd5b60006130a285828601612e11565b92505060206130b385828601612dfc565b9150509250929050565b600080604083850312156130d057600080fd5b60006130de85828601612e11565b92505060206130ef85828601612e11565b9150509250929050565b60008060006060848603121561310e57600080fd5b600061311c86828701612e11565b935050602061312d86828701612e11565b925050604061313e86828701612e11565b9150509250925092565b60008060006060848603121561315d57600080fd5b600061316b86828701612e26565b935050602061317c86828701612e26565b925050604061318d86828701612e26565b9150509250925092565b600080600080600060a086880312156131af57600080fd5b60006131bd88828901612e11565b95505060206131ce88828901612e11565b94505060406131df88828901612e11565b93505060606131f088828901612e11565b925050608061320188828901612e11565b9150509295509295909350565b600061321a8383613235565b60208301905092915050565b61322f81613806565b82525050565b61323e8161379f565b82525050565b61324d8161379f565b82525050565b600061325e82613645565b6132688185613668565b935061327383613635565b8060005b838110156132a457815161328b888261320e565b97506132968361365b565b925050600181019050613277565b5085935050505092915050565b6132ba816137c3565b82525050565b6132c981613818565b82525050565b6132d88161383c565b82525050565b60006132e982613650565b6132f38185613679565b9350613303818560208601613872565b61330c81613903565b840191505092915050565b6000613324601183613679565b915061332f82613914565b602082019050919050565b6000613347601483613679565b91506133528261393d565b602082019050919050565b600061336a600683613679565b915061337582613966565b602082019050919050565b600061338d600b83613679565b91506133988261398f565b602082019050919050565b6133ac816137ef565b82525050565b6133bb816137f9565b82525050565b60006020820190506133d66000830184613244565b92915050565b60006020820190506133f16000830184613226565b92915050565b600060c08201905061340c6000830189613244565b61341960208301886133a3565b61342660408301876132cf565b61343360608301866132cf565b6134406080830185613244565b61344d60a08301846133a3565b979650505050505050565b600060208201905061346d60008301846132b1565b92915050565b600060208201905061348860008301846132c0565b92915050565b60006080820190506134a360008301876132cf565b81810360208301526134b58186613253565b90506134c46040830185613244565b6134d160608301846133a3565b95945050505050565b600060208201905081810360008301526134f481846132de565b905092915050565b6000602082019050818103600083015261351581613317565b9050919050565b600060208201905081810360008301526135358161333a565b9050919050565b600060208201905081810360008301526135558161335d565b9050919050565b6000602082019050818103600083015261357581613380565b9050919050565b600060208201905061359160008301846133a3565b92915050565b600060a0820190506135ac60008301886133a3565b6135b960208301876132cf565b81810360408301526135cb8186613253565b90506135da6060830185613244565b6135e760808301846133a3565b9695505050505050565b600060408201905061360660008301856133a3565b61361360208301846133a3565b9392505050565b600060208201905061362f60008301846133b2565b92915050565b6000819050602082019050919050565b600081519050919050565b600081519050919050565b6000602082019050919050565b600082825260208201905092915050565b600082825260208201905092915050565b6000613695826137ef565b91506136a0836137ef565b9250827fffffffffffffffffffffffffffffffffffffffffffffffffffffffffffffffff038211156136d5576136d46138a5565b5b828201905092915050565b60006136eb826137ef565b91506136f6836137ef565b925082613706576137056138d4565b5b828204905092915050565b600061371c826137ef565b9150613727836137ef565b9250817fffffffffffffffffffffffffffffffffffffffffffffffffffffffffffffffff04831182151516156137605761375f6138a5565b5b828202905092915050565b6000613776826137ef565b9150613781836137ef565b925082821015613794576137936138a5565b5b828203905092915050565b60006137aa826137cf565b9050919050565b60006137bc826137cf565b9050919050565b60008115159050919050565b600073ffffffffffffffffffffffffffffffffffffffff82169050919050565b6000819050919050565b600060ff82169050919050565b60006138118261384e565b9050919050565b60006138238261382a565b9050919050565b6000613835826137cf565b9050919050565b6000613847826137ef565b9050919050565b600061385982613860565b9050919050565b600061386b826137cf565b9050919050565b60005b83811015613890578082015181840152602081019050613875565b8381111561389f576000848401525b50505050565b7f4e487b7100000000000000000000000000000000000000000000000000000000600052601160045260246000fd5b7f4e487b7100000000000000000000000000000000000000000000000000000000600052601260045260246000fd5b6000601f19601f8301169050919050565b7f5458204c696d6974204578636565646564000000000000000000000000000000600082015250565b7f416c7265616479206c61756e6368656420626f69000000000000000000000000600082015250565b7f214f574e45520000000000000000000000000000000000000000000000000000600082015250565b7f21415554484f52495a4544000000000000000000000000000000000000000000600082015250565b6139c18161379f565b81146139cc57600080fd5b50565b6139d8816137b1565b81146139e357600080fd5b50565b6139ef816137c3565b81146139fa57600080fd5b50565b613a06816137ef565b8114613a1157600080fd5b5056fea264697066735822122092667f4ee39d69f69a79955e3d9d0214675a30552d34f475d3e37f7fef72173464736f6c63430008040033",
					"opcodes": "PUSH1 0x80 PUSH1 0x40 MSTORE PUSH20 0xE9E7CEA3DEDCA5984780BAFC599BD69ADD087D56 PUSH1 0x2 PUSH1 0x0 PUSH2 0x100 EXP DUP2 SLOAD DUP2 PUSH20 0xFFFFFFFFFFFFFFFFFFFFFFFFFFFFFFFFFFFFFFFF MUL NOT AND SWAP1 DUP4 PUSH20 0xFFFFFFFFFFFFFFFFFFFFFFFFFFFFFFFFFFFFFFFF AND MUL OR SWAP1 SSTORE POP PUSH20 0xBB4CDB9CBD36B01BD1CBAEBF2DE08D9173BC095C PUSH1 0x3 PUSH1 0x0 PUSH2 0x100 EXP DUP2 SLOAD DUP2 PUSH20 0xFFFFFFFFFFFFFFFFFFFFFFFFFFFFFFFFFFFFFFFF MUL NOT AND SWAP1 DUP4 PUSH20 0xFFFFFFFFFFFFFFFFFFFFFFFFFFFFFFFFFFFFFFFF AND MUL OR SWAP1 SSTORE POP PUSH2 0xDEAD PUSH1 0x4 PUSH1 0x0 PUSH2 0x100 EXP DUP2 SLOAD DUP2 PUSH20 0xFFFFFFFFFFFFFFFFFFFFFFFFFFFFFFFFFFFFFFFF MUL NOT AND SWAP1 DUP4 PUSH20 0xFFFFFFFFFFFFFFFFFFFFFFFFFFFFFFFFFFFFFFFF AND MUL OR SWAP1 SSTORE POP PUSH1 0x0 PUSH1 0x5 PUSH1 0x0 PUSH2 0x100 EXP DUP2 SLOAD DUP2 PUSH20 0xFFFFFFFFFFFFFFFFFFFFFFFFFFFFFFFFFFFFFFFF MUL NOT AND SWAP1 DUP4 PUSH20 0xFFFFFFFFFFFFFFFFFFFFFFFFFFFFFFFFFFFFFFFF AND MUL OR SWAP1 SSTORE POP PUSH2 0xDEAD PUSH1 0x6 PUSH1 0x0 PUSH2 0x100 EXP DUP2 SLOAD DUP2 PUSH20 0xFFFFFFFFFFFFFFFFFFFFFFFFFFFFFFFFFFFFFFFF MUL NOT AND SWAP1 DUP4 PUSH20 0xFFFFFFFFFFFFFFFFFFFFFFFFFFFFFFFFFFFFFFFF AND MUL OR SWAP1 SSTORE POP PUSH1 0x9 PUSH1 0xA PUSH3 0x186 SWAP2 SWAP1 PUSH3 0xC93 JUMP JUMPDEST PUSH4 0xBEBC200 PUSH3 0x197 SWAP2 SWAP1 PUSH3 0xDD0 JUMP JUMPDEST PUSH1 0x7 SSTORE PUSH3 0x1B8 PUSH2 0x190 PUSH1 0x7 SLOAD PUSH3 0xA45 PUSH1 0x20 SHL PUSH3 0x1D73 OR SWAP1 SWAP2 SWAP1 PUSH1 0x20 SHR JUMP JUMPDEST PUSH1 0x8 SSTORE PUSH2 0x12C PUSH1 0xE SSTORE PUSH1 0xC8 PUSH1 0xF SSTORE PUSH2 0x1F4 PUSH1 0x10 SSTORE PUSH2 0x2710 PUSH1 0x11 SSTORE PUSH1 0x19 PUSH1 0x14 SSTORE PUSH1 0x64 PUSH1 0x15 SSTORE PUSH1 0xC8 PUSH1 0x1A SSTORE PUSH1 0x64 PUSH1 0x1B SSTORE PUSH2 0x708 PUSH1 0x1D SSTORE PUSH1 0x0 PUSH1 0x1E PUSH1 0x0 PUSH2 0x100 EXP DUP2 SLOAD DUP2 PUSH1 0xFF MUL NOT AND SWAP1 DUP4 ISZERO ISZERO MUL OR SWAP1 SSTORE POP PUSH3 0x7A120 PUSH1 0x26 SSTORE PUSH1 0x1 PUSH1 0x27 PUSH1 0x0 PUSH2 0x100 EXP DUP2 SLOAD DUP2 PUSH1 0xFF MUL NOT AND SWAP1 DUP4 ISZERO ISZERO MUL OR SWAP1 SSTORE POP PUSH2 0x7D0 PUSH1 0x7 SLOAD PUSH3 0x23B SWAP2 SWAP1 PUSH3 0xC00 JUMP JUMPDEST PUSH1 0x28 SSTORE CALLVALUE DUP1 ISZERO PUSH3 0x24B JUMPI PUSH1 0x0 DUP1 REVERT JUMPDEST POP PUSH1 0x40 MLOAD PUSH3 0x495B CODESIZE SUB DUP1 PUSH3 0x495B DUP4 CODECOPY DUP2 DUP2 ADD PUSH1 0x40 MSTORE DUP2 ADD SWAP1 PUSH3 0x271 SWAP2 SWAP1 PUSH3 0xB68 JUMP JUMPDEST CALLER DUP1 PUSH1 0x0 DUP1 PUSH2 0x100 EXP DUP2 SLOAD DUP2 PUSH20 0xFFFFFFFFFFFFFFFFFFFFFFFFFFFFFFFFFFFFFFFF MUL NOT AND SWAP1 DUP4 PUSH20 0xFFFFFFFFFFFFFFFFFFFFFFFFFFFFFFFFFFFFFFFF AND MUL OR SWAP1 SSTORE POP PUSH1 0x1 DUP1 PUSH1 0x0 DUP4 PUSH20 0xFFFFFFFFFFFFFFFFFFFFFFFFFFFFFFFFFFFFFFFF AND PUSH20 0xFFFFFFFFFFFFFFFFFFFFFFFFFFFFFFFFFFFFFFFF AND DUP2 MSTORE PUSH1 0x20 ADD SWAP1 DUP2 MSTORE PUSH1 0x20 ADD PUSH1 0x0 KECCAK256 PUSH1 0x0 PUSH2 0x100 EXP DUP2 SLOAD DUP2 PUSH1 0xFF MUL NOT AND SWAP1 DUP4 ISZERO ISZERO MUL OR SWAP1 SSTORE POP POP DUP1 PUSH1 0x16 PUSH1 0x0 PUSH2 0x100 EXP DUP2 SLOAD DUP2 PUSH20 0xFFFFFFFFFFFFFFFFFFFFFFFFFFFFFFFFFFFFFFFF MUL NOT AND SWAP1 DUP4 PUSH20 0xFFFFFFFFFFFFFFFFFFFFFFFFFFFFFFFFFFFFFFFF AND MUL OR SWAP1 SSTORE POP PUSH1 0x16 PUSH1 0x0 SWAP1 SLOAD SWAP1 PUSH2 0x100 EXP SWAP1 DIV PUSH20 0xFFFFFFFFFFFFFFFFFFFFFFFFFFFFFFFFFFFFFFFF AND PUSH20 0xFFFFFFFFFFFFFFFFFFFFFFFFFFFFFFFFFFFFFFFF AND PUSH4 0xC45A0155 PUSH1 0x40 MLOAD DUP2 PUSH4 0xFFFFFFFF AND PUSH1 0xE0 SHL DUP2 MSTORE PUSH1 0x4 ADD PUSH1 0x20 PUSH1 0x40 MLOAD DUP1 DUP4 SUB DUP2 DUP7 DUP1 EXTCODESIZE ISZERO DUP1 ISZERO PUSH3 0x3B4 JUMPI PUSH1 0x0 DUP1 REVERT JUMPDEST POP GAS STATICCALL ISZERO DUP1 ISZERO PUSH3 0x3C9 JUMPI RETURNDATASIZE PUSH1 0x0 DUP1 RETURNDATACOPY RETURNDATASIZE PUSH1 0x0 REVERT JUMPDEST POP POP POP POP PUSH1 0x40 MLOAD RETURNDATASIZE PUSH1 0x1F NOT PUSH1 0x1F DUP3 ADD AND DUP3 ADD DUP1 PUSH1 0x40 MSTORE POP DUP2 ADD SWAP1 PUSH3 0x3EF SWAP2 SWAP1 PUSH3 0xB68 JUMP JUMPDEST PUSH20 0xFFFFFFFFFFFFFFFFFFFFFFFFFFFFFFFFFFFFFFFF AND PUSH4 0xC9C65396 PUSH1 0x3 PUSH1 0x0 SWAP1 SLOAD SWAP1 PUSH2 0x100 EXP SWAP1 DIV PUSH20 0xFFFFFFFFFFFFFFFFFFFFFFFFFFFFFFFFFFFFFFFF AND ADDRESS PUSH1 0x40 MLOAD DUP4 PUSH4 0xFFFFFFFF AND PUSH1 0xE0 SHL DUP2 MSTORE PUSH1 0x4 ADD PUSH3 0x44D SWAP3 SWAP2 SWAP1 PUSH3 0xBB6 JUMP JUMPDEST PUSH1 0x20 PUSH1 0x40 MLOAD DUP1 DUP4 SUB DUP2 PUSH1 0x0 DUP8 DUP1 EXTCODESIZE ISZERO DUP1 ISZERO PUSH3 0x468 JUMPI PUSH1 0x0 DUP1 REVERT JUMPDEST POP GAS CALL ISZERO DUP1 ISZERO PUSH3 0x47D JUMPI RETURNDATASIZE PUSH1 0x0 DUP1 RETURNDATACOPY RETURNDATASIZE PUSH1 0x0 REVERT JUMPDEST POP POP POP POP PUSH1 0x40 MLOAD RETURNDATASIZE PUSH1 0x1F NOT PUSH1 0x1F DUP3 ADD AND DUP3 ADD DUP1 PUSH1 0x40 MSTORE POP DUP2 ADD SWAP1 PUSH3 0x4A3 SWAP2 SWAP1 PUSH3 0xB68 JUMP JUMPDEST PUSH1 0x17 PUSH1 0x0 PUSH2 0x100 EXP DUP2 SLOAD DUP2 PUSH20 0xFFFFFFFFFFFFFFFFFFFFFFFFFFFFFFFFFFFFFFFF MUL NOT AND SWAP1 DUP4 PUSH20 0xFFFFFFFFFFFFFFFFFFFFFFFFFFFFFFFFFFFFFFFF AND MUL OR SWAP1 SSTORE POP PUSH1 0x7 SLOAD PUSH1 0xA PUSH1 0x0 ADDRESS PUSH20 0xFFFFFFFFFFFFFFFFFFFFFFFFFFFFFFFFFFFFFFFF AND PUSH20 0xFFFFFFFFFFFFFFFFFFFFFFFFFFFFFFFFFFFFFFFF AND DUP2 MSTORE PUSH1 0x20 ADD SWAP1 DUP2 MSTORE PUSH1 0x20 ADD PUSH1 0x0 KECCAK256 PUSH1 0x0 PUSH1 0x16 PUSH1 0x0 SWAP1 SLOAD SWAP1 PUSH2 0x100 EXP SWAP1 DIV PUSH20 0xFFFFFFFFFFFFFFFFFFFFFFFFFFFFFFFFFFFFFFFF AND PUSH20 0xFFFFFFFFFFFFFFFFFFFFFFFFFFFFFFFFFFFFFFFF AND PUSH20 0xFFFFFFFFFFFFFFFFFFFFFFFFFFFFFFFFFFFFFFFF AND DUP2 MSTORE PUSH1 0x20 ADD SWAP1 DUP2 MSTORE PUSH1 0x20 ADD PUSH1 0x0 KECCAK256 DUP2 SWAP1 SSTORE POP PUSH1 0x16 PUSH1 0x0 SWAP1 SLOAD SWAP1 PUSH2 0x100 EXP SWAP1 DIV PUSH20 0xFFFFFFFFFFFFFFFFFFFFFFFFFFFFFFFFFFFFFFFF AND PUSH20 0xFFFFFFFFFFFFFFFFFFFFFFFFFFFFFFFFFFFFFFFF AND PUSH4 0xAD5C4648 PUSH1 0x40 MLOAD DUP2 PUSH4 0xFFFFFFFF AND PUSH1 0xE0 SHL DUP2 MSTORE PUSH1 0x4 ADD PUSH1 0x20 PUSH1 0x40 MLOAD DUP1 DUP4 SUB DUP2 DUP7 DUP1 EXTCODESIZE ISZERO DUP1 ISZERO PUSH3 0x5F1 JUMPI PUSH1 0x0 DUP1 REVERT JUMPDEST POP GAS STATICCALL ISZERO DUP1 ISZERO PUSH3 0x606 JUMPI RETURNDATASIZE PUSH1 0x0 DUP1 RETURNDATACOPY RETURNDATASIZE PUSH1 0x0 REVERT JUMPDEST POP POP POP POP PUSH1 0x40 MLOAD RETURNDATASIZE PUSH1 0x1F NOT PUSH1 0x1F DUP3 ADD AND DUP3 ADD DUP1 PUSH1 0x40 MSTORE POP DUP2 ADD SWAP1 PUSH3 0x62C SWAP2 SWAP1 PUSH3 0xB68 JUMP JUMPDEST PUSH1 0x3 PUSH1 0x0 PUSH2 0x100 EXP DUP2 SLOAD DUP2 PUSH20 0xFFFFFFFFFFFFFFFFFFFFFFFFFFFFFFFFFFFFFFFF MUL NOT AND SWAP1 DUP4 PUSH20 0xFFFFFFFFFFFFFFFFFFFFFFFFFFFFFFFFFFFFFFFF AND MUL OR SWAP1 SSTORE POP PUSH1 0x1 PUSH1 0xB PUSH1 0x0 CALLER PUSH20 0xFFFFFFFFFFFFFFFFFFFFFFFFFFFFFFFFFFFFFFFF AND PUSH20 0xFFFFFFFFFFFFFFFFFFFFFFFFFFFFFFFFFFFFFFFF AND DUP2 MSTORE PUSH1 0x20 ADD SWAP1 DUP2 MSTORE PUSH1 0x20 ADD PUSH1 0x0 KECCAK256 PUSH1 0x0 PUSH2 0x100 EXP DUP2 SLOAD DUP2 PUSH1 0xFF MUL NOT AND SWAP1 DUP4 ISZERO ISZERO MUL OR SWAP1 SSTORE POP PUSH1 0x1 PUSH1 0xC PUSH1 0x0 CALLER PUSH20 0xFFFFFFFFFFFFFFFFFFFFFFFFFFFFFFFFFFFFFFFF AND PUSH20 0xFFFFFFFFFFFFFFFFFFFFFFFFFFFFFFFFFFFFFFFF AND DUP2 MSTORE PUSH1 0x20 ADD SWAP1 DUP2 MSTORE PUSH1 0x20 ADD PUSH1 0x0 KECCAK256 PUSH1 0x0 PUSH2 0x100 EXP DUP2 SLOAD DUP2 PUSH1 0xFF MUL NOT AND SWAP1 DUP4 ISZERO ISZERO MUL OR SWAP1 SSTORE POP PUSH1 0x1 PUSH1 0xD PUSH1 0x0 PUSH1 0x17 PUSH1 0x0 SWAP1 SLOAD SWAP1 PUSH2 0x100 EXP SWAP1 DIV PUSH20 0xFFFFFFFFFFFFFFFFFFFFFFFFFFFFFFFFFFFFFFFF AND PUSH20 0xFFFFFFFFFFFFFFFFFFFFFFFFFFFFFFFFFFFFFFFF AND PUSH20 0xFFFFFFFFFFFFFFFFFFFFFFFFFFFFFFFFFFFFFFFF AND DUP2 MSTORE PUSH1 0x20 ADD SWAP1 DUP2 MSTORE PUSH1 0x20 ADD PUSH1 0x0 KECCAK256 PUSH1 0x0 PUSH2 0x100 EXP DUP2 SLOAD DUP2 PUSH1 0xFF MUL NOT AND SWAP1 DUP4 ISZERO ISZERO MUL OR SWAP1 SSTORE POP PUSH1 0x1 PUSH1 0xD PUSH1 0x0 ADDRESS PUSH20 0xFFFFFFFFFFFFFFFFFFFFFFFFFFFFFFFFFFFFFFFF AND PUSH20 0xFFFFFFFFFFFFFFFFFFFFFFFFFFFFFFFFFFFFFFFF AND DUP2 MSTORE PUSH1 0x20 ADD SWAP1 DUP2 MSTORE PUSH1 0x20 ADD PUSH1 0x0 KECCAK256 PUSH1 0x0 PUSH2 0x100 EXP DUP2 SLOAD DUP2 PUSH1 0xFF MUL NOT AND SWAP1 DUP4 ISZERO ISZERO MUL OR SWAP1 SSTORE POP PUSH1 0x1 PUSH1 0xD PUSH1 0x0 PUSH1 0x4 PUSH1 0x0 SWAP1 SLOAD SWAP1 PUSH2 0x100 EXP SWAP1 DIV PUSH20 0xFFFFFFFFFFFFFFFFFFFFFFFFFFFFFFFFFFFFFFFF AND PUSH20 0xFFFFFFFFFFFFFFFFFFFFFFFFFFFFFFFFFFFFFFFF AND PUSH20 0xFFFFFFFFFFFFFFFFFFFFFFFFFFFFFFFFFFFFFFFF AND DUP2 MSTORE PUSH1 0x20 ADD SWAP1 DUP2 MSTORE PUSH1 0x20 ADD PUSH1 0x0 KECCAK256 PUSH1 0x0 PUSH2 0x100 EXP DUP2 SLOAD DUP2 PUSH1 0xFF MUL NOT AND SWAP1 DUP4 ISZERO ISZERO MUL OR SWAP1 SSTORE POP PUSH1 0x1 PUSH1 0x1F PUSH1 0x0 CALLER PUSH20 0xFFFFFFFFFFFFFFFFFFFFFFFFFFFFFFFFFFFFFFFF AND PUSH20 0xFFFFFFFFFFFFFFFFFFFFFFFFFFFFFFFFFFFFFFFF AND DUP2 MSTORE PUSH1 0x20 ADD SWAP1 DUP2 MSTORE PUSH1 0x20 ADD PUSH1 0x0 KECCAK256 PUSH1 0x0 PUSH2 0x100 EXP DUP2 SLOAD DUP2 PUSH1 0xFF MUL NOT AND SWAP1 DUP4 ISZERO ISZERO MUL OR SWAP1 SSTORE POP CALLER PUSH1 0x12 PUSH1 0x0 PUSH2 0x100 EXP DUP2 SLOAD DUP2 PUSH20 0xFFFFFFFFFFFFFFFFFFFFFFFFFFFFFFFFFFFFFFFF MUL NOT AND SWAP1 DUP4 PUSH20 0xFFFFFFFFFFFFFFFFFFFFFFFFFFFFFFFFFFFFFFFF AND MUL OR SWAP1 SSTORE POP CALLER PUSH1 0x13 PUSH1 0x0 PUSH2 0x100 EXP DUP2 SLOAD DUP2 PUSH20 0xFFFFFFFFFFFFFFFFFFFFFFFFFFFFFFFFFFFFFFFF MUL NOT AND SWAP1 DUP4 PUSH20 0xFFFFFFFFFFFFFFFFFFFFFFFFFFFFFFFFFFFFFFFF AND MUL OR SWAP1 SSTORE POP PUSH3 0x956 DUP2 PUSH1 0x7 SLOAD PUSH3 0xA5D PUSH1 0x20 SHL PUSH1 0x20 SHR JUMP JUMPDEST POP PUSH3 0x98D PUSH1 0x17 PUSH1 0x0 SWAP1 SLOAD SWAP1 PUSH2 0x100 EXP SWAP1 DIV PUSH20 0xFFFFFFFFFFFFFFFFFFFFFFFFFFFFFFFFFFFFFFFF AND PUSH1 0x7 SLOAD PUSH3 0xA5D PUSH1 0x20 SHL PUSH1 0x20 SHR JUMP JUMPDEST POP PUSH1 0x7 SLOAD PUSH1 0x9 PUSH1 0x0 CALLER PUSH20 0xFFFFFFFFFFFFFFFFFFFFFFFFFFFFFFFFFFFFFFFF AND PUSH20 0xFFFFFFFFFFFFFFFFFFFFFFFFFFFFFFFFFFFFFFFF AND DUP2 MSTORE PUSH1 0x20 ADD SWAP1 DUP2 MSTORE PUSH1 0x20 ADD PUSH1 0x0 KECCAK256 DUP2 SWAP1 SSTORE POP CALLER PUSH20 0xFFFFFFFFFFFFFFFFFFFFFFFFFFFFFFFFFFFFFFFF AND PUSH1 0x0 PUSH20 0xFFFFFFFFFFFFFFFFFFFFFFFFFFFFFFFFFFFFFFFF AND PUSH32 0xDDF252AD1BE2C89B69C2B068FC378DAA952BA7F163C4A11628F55A4DF523B3EF PUSH1 0x7 SLOAD PUSH1 0x40 MLOAD PUSH3 0xA36 SWAP2 SWAP1 PUSH3 0xBE3 JUMP JUMPDEST PUSH1 0x40 MLOAD DUP1 SWAP2 SUB SWAP1 LOG3 POP PUSH3 0xF01 JUMP JUMPDEST PUSH1 0x0 DUP2 DUP4 PUSH3 0xA55 SWAP2 SWAP1 PUSH3 0xC00 JUMP JUMPDEST SWAP1 POP SWAP3 SWAP2 POP POP JUMP JUMPDEST PUSH1 0x0 DUP2 PUSH1 0xA PUSH1 0x0 CALLER PUSH20 0xFFFFFFFFFFFFFFFFFFFFFFFFFFFFFFFFFFFFFFFF AND PUSH20 0xFFFFFFFFFFFFFFFFFFFFFFFFFFFFFFFFFFFFFFFF AND DUP2 MSTORE PUSH1 0x20 ADD SWAP1 DUP2 MSTORE PUSH1 0x20 ADD PUSH1 0x0 KECCAK256 PUSH1 0x0 DUP6 PUSH20 0xFFFFFFFFFFFFFFFFFFFFFFFFFFFFFFFFFFFFFFFF AND PUSH20 0xFFFFFFFFFFFFFFFFFFFFFFFFFFFFFFFFFFFFFFFF AND DUP2 MSTORE PUSH1 0x20 ADD SWAP1 DUP2 MSTORE PUSH1 0x20 ADD PUSH1 0x0 KECCAK256 DUP2 SWAP1 SSTORE POP DUP3 PUSH20 0xFFFFFFFFFFFFFFFFFFFFFFFFFFFFFFFFFFFFFFFF AND CALLER PUSH20 0xFFFFFFFFFFFFFFFFFFFFFFFFFFFFFFFFFFFFFFFF AND PUSH32 0x8C5BE1E5EBEC7D5BD14F71427D1E84F3DD0314C0F7B2291E5B200AC8C7C3B925 DUP5 PUSH1 0x40 MLOAD PUSH3 0xB3F SWAP2 SWAP1 PUSH3 0xBE3 JUMP JUMPDEST PUSH1 0x40 MLOAD DUP1 SWAP2 SUB SWAP1 LOG3 PUSH1 0x1 SWAP1 POP SWAP3 SWAP2 POP POP JUMP JUMPDEST PUSH1 0x0 DUP2 MLOAD SWAP1 POP PUSH3 0xB62 DUP2 PUSH3 0xEE7 JUMP JUMPDEST SWAP3 SWAP2 POP POP JUMP JUMPDEST PUSH1 0x0 PUSH1 0x20 DUP3 DUP5 SUB SLT ISZERO PUSH3 0xB7B JUMPI PUSH1 0x0 DUP1 REVERT JUMPDEST PUSH1 0x0 PUSH3 0xB8B DUP5 DUP3 DUP6 ADD PUSH3 0xB51 JUMP JUMPDEST SWAP2 POP POP SWAP3 SWAP2 POP POP JUMP JUMPDEST PUSH3 0xB9F DUP2 PUSH3 0xE31 JUMP JUMPDEST DUP3 MSTORE POP POP JUMP JUMPDEST PUSH3 0xBB0 DUP2 PUSH3 0xE65 JUMP JUMPDEST DUP3 MSTORE POP POP JUMP JUMPDEST PUSH1 0x0 PUSH1 0x40 DUP3 ADD SWAP1 POP PUSH3 0xBCD PUSH1 0x0 DUP4 ADD DUP6 PUSH3 0xB94 JUMP JUMPDEST PUSH3 0xBDC PUSH1 0x20 DUP4 ADD DUP5 PUSH3 0xB94 JUMP JUMPDEST SWAP4 SWAP3 POP POP POP JUMP JUMPDEST PUSH1 0x0 PUSH1 0x20 DUP3 ADD SWAP1 POP PUSH3 0xBFA PUSH1 0x0 DUP4 ADD DUP5 PUSH3 0xBA5 JUMP JUMPDEST SWAP3 SWAP2 POP POP JUMP JUMPDEST PUSH1 0x0 PUSH3 0xC0D DUP3 PUSH3 0xE65 JUMP JUMPDEST SWAP2 POP PUSH3 0xC1A DUP4 PUSH3 0xE65 JUMP JUMPDEST SWAP3 POP DUP3 PUSH3 0xC2D JUMPI PUSH3 0xC2C PUSH3 0xEAB JUMP JUMPDEST JUMPDEST DUP3 DUP3 DIV SWAP1 POP SWAP3 SWAP2 POP POP JUMP JUMPDEST PUSH1 0x0 DUP1 DUP3 SWAP2 POP DUP4 SWAP1 POP JUMPDEST PUSH1 0x1 DUP6 GT ISZERO PUSH3 0xC8A JUMPI DUP1 DUP7 DIV DUP2 GT ISZERO PUSH3 0xC62 JUMPI PUSH3 0xC61 PUSH3 0xE7C JUMP JUMPDEST JUMPDEST PUSH1 0x1 DUP6 AND ISZERO PUSH3 0xC72 JUMPI DUP1 DUP3 MUL SWAP2 POP JUMPDEST DUP1 DUP2 MUL SWAP1 POP PUSH3 0xC82 DUP6 PUSH3 0xEDA JUMP JUMPDEST SWAP5 POP PUSH3 0xC42 JUMP JUMPDEST SWAP5 POP SWAP5 SWAP3 POP POP POP JUMP JUMPDEST PUSH1 0x0 PUSH3 0xCA0 DUP3 PUSH3 0xE65 JUMP JUMPDEST SWAP2 POP PUSH3 0xCAD DUP4 PUSH3 0xE6F JUMP JUMPDEST SWAP3 POP PUSH3 0xCDC PUSH32 0xFFFFFFFFFFFFFFFFFFFFFFFFFFFFFFFFFFFFFFFFFFFFFFFFFFFFFFFFFFFFFFFF DUP5 DUP5 PUSH3 0xCE4 JUMP JUMPDEST SWAP1 POP SWAP3 SWAP2 POP POP JUMP JUMPDEST PUSH1 0x0 DUP3 PUSH3 0xCF6 JUMPI PUSH1 0x1 SWAP1 POP PUSH3 0xDC9 JUMP JUMPDEST DUP2 PUSH3 0xD06 JUMPI PUSH1 0x0 SWAP1 POP PUSH3 0xDC9 JUMP JUMPDEST DUP2 PUSH1 0x1 DUP2 EQ PUSH3 0xD1F JUMPI PUSH1 0x2 DUP2 EQ PUSH3 0xD2A JUMPI PUSH3 0xD60 JUMP JUMPDEST PUSH1 0x1 SWAP2 POP POP PUSH3 0xDC9 JUMP JUMPDEST PUSH1 0xFF DUP5 GT ISZERO PUSH3 0xD3F JUMPI PUSH3 0xD3E PUSH3 0xE7C JUMP JUMPDEST JUMPDEST DUP4 PUSH1 0x2 EXP SWAP2 POP DUP5 DUP3 GT ISZERO PUSH3 0xD59 JUMPI PUSH3 0xD58 PUSH3 0xE7C JUMP JUMPDEST JUMPDEST POP PUSH3 0xDC9 JUMP JUMPDEST POP PUSH1 0x20 DUP4 LT PUSH2 0x133 DUP4 LT AND PUSH1 0x4E DUP5 LT PUSH1 0xB DUP5 LT AND OR ISZERO PUSH3 0xD9A JUMPI DUP3 DUP3 EXP SWAP1 POP DUP4 DUP2 GT ISZERO PUSH3 0xD94 JUMPI PUSH3 0xD93 PUSH3 0xE7C JUMP JUMPDEST JUMPDEST PUSH3 0xDC9 JUMP JUMPDEST PUSH3 0xDA9 DUP5 DUP5 DUP5 PUSH1 0x1 PUSH3 0xC38 JUMP JUMPDEST SWAP3 POP SWAP1 POP DUP2 DUP5 DIV DUP2 GT ISZERO PUSH3 0xDC3 JUMPI PUSH3 0xDC2 PUSH3 0xE7C JUMP JUMPDEST JUMPDEST DUP2 DUP2 MUL SWAP1 POP JUMPDEST SWAP4 SWAP3 POP POP POP JUMP JUMPDEST PUSH1 0x0 PUSH3 0xDDD DUP3 PUSH3 0xE65 JUMP JUMPDEST SWAP2 POP PUSH3 0xDEA DUP4 PUSH3 0xE65 JUMP JUMPDEST SWAP3 POP DUP2 PUSH32 0xFFFFFFFFFFFFFFFFFFFFFFFFFFFFFFFFFFFFFFFFFFFFFFFFFFFFFFFFFFFFFFFF DIV DUP4 GT DUP3 ISZERO ISZERO AND ISZERO PUSH3 0xE26 JUMPI PUSH3 0xE25 PUSH3 0xE7C JUMP JUMPDEST JUMPDEST DUP3 DUP3 MUL SWAP1 POP SWAP3 SWAP2 POP POP JUMP JUMPDEST PUSH1 0x0 PUSH3 0xE3E DUP3 PUSH3 0xE45 JUMP JUMPDEST SWAP1 POP SWAP2 SWAP1 POP JUMP JUMPDEST PUSH1 0x0 PUSH20 0xFFFFFFFFFFFFFFFFFFFFFFFFFFFFFFFFFFFFFFFF DUP3 AND SWAP1 POP SWAP2 SWAP1 POP JUMP JUMPDEST PUSH1 0x0 DUP2 SWAP1 POP SWAP2 SWAP1 POP JUMP JUMPDEST PUSH1 0x0 PUSH1 0xFF DUP3 AND SWAP1 POP SWAP2 SWAP1 POP JUMP JUMPDEST PUSH32 0x4E487B7100000000000000000000000000000000000000000000000000000000 PUSH1 0x0 MSTORE PUSH1 0x11 PUSH1 0x4 MSTORE PUSH1 0x24 PUSH1 0x0 REVERT JUMPDEST PUSH32 0x4E487B7100000000000000000000000000000000000000000000000000000000 PUSH1 0x0 MSTORE PUSH1 0x12 PUSH1 0x4 MSTORE PUSH1 0x24 PUSH1 0x0 REVERT JUMPDEST PUSH1 0x0 DUP2 PUSH1 0x1 SHR SWAP1 POP SWAP2 SWAP1 POP JUMP JUMPDEST PUSH3 0xEF2 DUP2 PUSH3 0xE31 JUMP JUMPDEST DUP2 EQ PUSH3 0xEFE JUMPI PUSH1 0x0 DUP1 REVERT JUMPDEST POP JUMP JUMPDEST PUSH2 0x3A4A DUP1 PUSH3 0xF11 PUSH1 0x0 CODECOPY PUSH1 0x0 RETURN INVALID PUSH1 0x80 PUSH1 0x40 MSTORE PUSH1 0x4 CALLDATASIZE LT PUSH2 0x28C JUMPI PUSH1 0x0 CALLDATALOAD PUSH1 0xE0 SHR DUP1 PUSH4 0x95D89B41 GT PUSH2 0x15A JUMPI DUP1 PUSH4 0xD806D12F GT PUSH2 0xC1 JUMPI DUP1 PUSH4 0xF1F3BCA3 GT PUSH2 0x7A JUMPI DUP1 PUSH4 0xF1F3BCA3 EQ PUSH2 0x9DF JUMPI DUP1 PUSH4 0xF2FDE38B EQ PUSH2 0xA1C JUMPI DUP1 PUSH4 0xF5CFEC0A EQ PUSH2 0xA45 JUMPI DUP1 PUSH4 0xF84BA65D EQ PUSH2 0xA6E JUMPI DUP1 PUSH4 0xF887EA40 EQ PUSH2 0xA97 JUMPI DUP1 PUSH4 0xFE9FBB80 EQ PUSH2 0xAC2 JUMPI PUSH2 0x293 JUMP JUMPDEST DUP1 PUSH4 0xD806D12F EQ PUSH2 0x8CF JUMPI DUP1 PUSH4 0xDD62ED3E EQ PUSH2 0x8FA JUMPI DUP1 PUSH4 0xDF20FD49 EQ PUSH2 0x937 JUMPI DUP1 PUSH4 0xE91F214E EQ PUSH2 0x960 JUMPI DUP1 PUSH4 0xE96FADA2 EQ PUSH2 0x98B JUMPI DUP1 PUSH4 0xF0B37C04 EQ PUSH2 0x9B6 JUMPI PUSH2 0x293 JUMP JUMPDEST DUP1 PUSH4 0xB210B06D GT PUSH2 0x113 JUMPI DUP1 PUSH4 0xB210B06D EQ PUSH2 0x7D1 JUMPI DUP1 PUSH4 0xB6A5D7DE EQ PUSH2 0x7E8 JUMPI DUP1 PUSH4 0xBF56B371 EQ PUSH2 0x811 JUMPI DUP1 PUSH4 0xC6D2577D EQ PUSH2 0x83C JUMPI DUP1 PUSH4 0xCA33E64C EQ PUSH2 0x867 JUMPI DUP1 PUSH4 0xD51ED1C8 EQ PUSH2 0x892 JUMPI PUSH2 0x293 JUMP JUMPDEST DUP1 PUSH4 0x95D89B41 EQ PUSH2 0x6C1 JUMPI DUP1 PUSH4 0x9D1944F5 EQ PUSH2 0x6EC JUMPI DUP1 PUSH4 0xA4B45C00 EQ PUSH2 0x715 JUMPI DUP1 PUSH4 0xA51AF4C5 EQ PUSH2 0x73E JUMPI DUP1 PUSH4 0xA8AA1B31 EQ PUSH2 0x769 JUMPI DUP1 PUSH4 0xA9059CBB EQ PUSH2 0x794 JUMPI PUSH2 0x293 JUMP JUMPDEST DUP1 PUSH4 0x2B112E49 GT PUSH2 0x1FE JUMPI DUP1 PUSH4 0x658D4B7F GT PUSH2 0x1B7 JUMPI DUP1 PUSH4 0x658D4B7F EQ PUSH2 0x5AF JUMPI DUP1 PUSH4 0x6DDD1713 EQ PUSH2 0x5D8 JUMPI DUP1 PUSH4 0x70A08231 EQ PUSH2 0x603 JUMPI DUP1 PUSH4 0x7D1DB4A5 EQ PUSH2 0x640 JUMPI DUP1 PUSH4 0x893D20E8 EQ PUSH2 0x66B JUMPI DUP1 PUSH4 0x8DD95002 EQ PUSH2 0x696 JUMPI PUSH2 0x293 JUMP JUMPDEST DUP1 PUSH4 0x2B112E49 EQ PUSH2 0x48B JUMPI DUP1 PUSH4 0x2F54BF6E EQ PUSH2 0x4B6 JUMPI DUP1 PUSH4 0x313CE567 EQ PUSH2 0x4F3 JUMPI DUP1 PUSH4 0x3BB8A8D4 EQ PUSH2 0x51E JUMPI DUP1 PUSH4 0x571AC8B0 EQ PUSH2 0x549 JUMPI DUP1 PUSH4 0x5C85974F EQ PUSH2 0x586 JUMPI PUSH2 0x293 JUMP JUMPDEST DUP1 PUSH4 0x95EA7B3 GT PUSH2 0x250 JUMPI DUP1 PUSH4 0x95EA7B3 EQ PUSH2 0x357 JUMPI DUP1 PUSH4 0x1161AE39 EQ PUSH2 0x394 JUMPI DUP1 PUSH4 0x18160DDD EQ PUSH2 0x3D1 JUMPI DUP1 PUSH4 0x201E7991 EQ PUSH2 0x3FC JUMPI DUP1 PUSH4 0x2375CE40 EQ PUSH2 0x425 JUMPI DUP1 PUSH4 0x23B872DD EQ PUSH2 0x44E JUMPI PUSH2 0x293 JUMP JUMPDEST DUP1 PUSH4 0x1339C21 EQ PUSH2 0x298 JUMPI DUP1 PUSH4 0x445B667 EQ PUSH2 0x2AF JUMPI DUP1 PUSH4 0x48C7BAF EQ PUSH2 0x2DA JUMPI DUP1 PUSH4 0x4A66B48 EQ PUSH2 0x303 JUMPI DUP1 PUSH4 0x6FDDE03 EQ PUSH2 0x32C JUMPI PUSH2 0x293 JUMP JUMPDEST CALLDATASIZE PUSH2 0x293 JUMPI STOP JUMPDEST PUSH1 0x0 DUP1 REVERT JUMPDEST CALLVALUE DUP1 ISZERO PUSH2 0x2A4 JUMPI PUSH1 0x0 DUP1 REVERT JUMPDEST POP PUSH2 0x2AD PUSH2 0xAFF JUMP JUMPDEST STOP JUMPDEST CALLVALUE DUP1 ISZERO PUSH2 0x2BB JUMPI PUSH1 0x0 DUP1 REVERT JUMPDEST POP PUSH2 0x2C4 PUSH2 0xB9C JUMP JUMPDEST PUSH1 0x40 MLOAD PUSH2 0x2D1 SWAP2 SWAP1 PUSH2 0x357C JUMP JUMPDEST PUSH1 0x40 MLOAD DUP1 SWAP2 SUB SWAP1 RETURN JUMPDEST CALLVALUE DUP1 ISZERO PUSH2 0x2E6 JUMPI PUSH1 0x0 DUP1 REVERT JUMPDEST POP PUSH2 0x301 PUSH1 0x4 DUP1 CALLDATASIZE SUB DUP2 ADD SWAP1 PUSH2 0x2FC SWAP2 SWAP1 PUSH2 0x2FF5 JUMP JUMPDEST PUSH2 0xBA2 JUMP JUMPDEST STOP JUMPDEST CALLVALUE DUP1 ISZERO PUSH2 0x30F JUMPI PUSH1 0x0 DUP1 REVERT JUMPDEST POP PUSH2 0x32A PUSH1 0x4 DUP1 CALLDATASIZE SUB DUP2 ADD SWAP1 PUSH2 0x325 SWAP2 SWAP1 PUSH2 0x3197 JUMP JUMPDEST PUSH2 0xC2E JUMP JUMPDEST STOP JUMPDEST CALLVALUE DUP1 ISZERO PUSH2 0x338 JUMPI PUSH1 0x0 DUP1 REVERT JUMPDEST POP PUSH2 0x341 PUSH2 0xCEB JUMP JUMPDEST PUSH1 0x40 MLOAD PUSH2 0x34E SWAP2 SWAP1 PUSH2 0x34DA JUMP JUMPDEST PUSH1 0x40 MLOAD DUP1 SWAP2 SUB SWAP1 RETURN JUMPDEST CALLVALUE DUP1 ISZERO PUSH2 0x363 JUMPI PUSH1 0x0 DUP1 REVERT JUMPDEST POP PUSH2 0x37E PUSH1 0x4 DUP1 CALLDATASIZE SUB DUP2 ADD SWAP1 PUSH2 0x379 SWAP2 SWAP1 PUSH2 0x2F54 JUMP JUMPDEST PUSH2 0xD28 JUMP JUMPDEST PUSH1 0x40 MLOAD PUSH2 0x38B SWAP2 SWAP1 PUSH2 0x3458 JUMP JUMPDEST PUSH1 0x40 MLOAD DUP1 SWAP2 SUB SWAP1 RETURN JUMPDEST CALLVALUE DUP1 ISZERO PUSH2 0x3A0 JUMPI PUSH1 0x0 DUP1 REVERT JUMPDEST POP PUSH2 0x3BB PUSH1 0x4 DUP1 CALLDATASIZE SUB DUP2 ADD SWAP1 PUSH2 0x3B6 SWAP2 SWAP1 PUSH2 0x30BD JUMP JUMPDEST PUSH2 0xE1A JUMP JUMPDEST PUSH1 0x40 MLOAD PUSH2 0x3C8 SWAP2 SWAP1 PUSH2 0x3458 JUMP JUMPDEST PUSH1 0x40 MLOAD DUP1 SWAP2 SUB SWAP1 RETURN JUMPDEST CALLVALUE DUP1 ISZERO PUSH2 0x3DD JUMPI PUSH1 0x0 DUP1 REVERT JUMPDEST POP PUSH2 0x3E6 PUSH2 0xE2F JUMP JUMPDEST PUSH1 0x40 MLOAD PUSH2 0x3F3 SWAP2 SWAP1 PUSH2 0x357C JUMP JUMPDEST PUSH1 0x40 MLOAD DUP1 SWAP2 SUB SWAP1 RETURN JUMPDEST CALLVALUE DUP1 ISZERO PUSH2 0x408 JUMPI PUSH1 0x0 DUP1 REVERT JUMPDEST POP PUSH2 0x423 PUSH1 0x4 DUP1 CALLDATASIZE SUB DUP2 ADD SWAP1 PUSH2 0x41E SWAP2 SWAP1 PUSH2 0x30BD JUMP JUMPDEST PUSH2 0xE39 JUMP JUMPDEST STOP JUMPDEST CALLVALUE DUP1 ISZERO PUSH2 0x431 JUMPI PUSH1 0x0 DUP1 REVERT JUMPDEST POP PUSH2 0x44C PUSH1 0x4 DUP1 CALLDATASIZE SUB DUP2 ADD SWAP1 PUSH2 0x447 SWAP2 SWAP1 PUSH2 0x30F9 JUMP JUMPDEST PUSH2 0xE93 JUMP JUMPDEST STOP JUMPDEST CALLVALUE DUP1 ISZERO PUSH2 0x45A JUMPI PUSH1 0x0 DUP1 REVERT JUMPDEST POP PUSH2 0x475 PUSH1 0x4 DUP1 CALLDATASIZE SUB DUP2 ADD SWAP1 PUSH2 0x470 SWAP2 SWAP1 PUSH2 0x2EC9 JUMP JUMPDEST PUSH2 0xF19 JUMP JUMPDEST PUSH1 0x40 MLOAD PUSH2 0x482 SWAP2 SWAP1 PUSH2 0x3458 JUMP JUMPDEST PUSH1 0x40 MLOAD DUP1 SWAP2 SUB SWAP1 RETURN JUMPDEST CALLVALUE DUP1 ISZERO PUSH2 0x497 JUMPI PUSH1 0x0 DUP1 REVERT JUMPDEST POP PUSH2 0x4A0 PUSH2 0x10FB JUMP JUMPDEST PUSH1 0x40 MLOAD PUSH2 0x4AD SWAP2 SWAP1 PUSH2 0x357C JUMP JUMPDEST PUSH1 0x40 MLOAD DUP1 SWAP2 SUB SWAP1 RETURN JUMPDEST CALLVALUE DUP1 ISZERO PUSH2 0x4C2 JUMPI PUSH1 0x0 DUP1 REVERT JUMPDEST POP PUSH2 0x4DD PUSH1 0x4 DUP1 CALLDATASIZE SUB DUP2 ADD SWAP1 PUSH2 0x4D8 SWAP2 SWAP1 PUSH2 0x2E3B JUMP JUMPDEST PUSH2 0x117D JUMP JUMPDEST PUSH1 0x40 MLOAD PUSH2 0x4EA SWAP2 SWAP1 PUSH2 0x3458 JUMP JUMPDEST PUSH1 0x40 MLOAD DUP1 SWAP2 SUB SWAP1 RETURN JUMPDEST CALLVALUE DUP1 ISZERO PUSH2 0x4FF JUMPI PUSH1 0x0 DUP1 REVERT JUMPDEST POP PUSH2 0x508 PUSH2 0x11D6 JUMP JUMPDEST PUSH1 0x40 MLOAD PUSH2 0x515 SWAP2 SWAP1 PUSH2 0x361A JUMP JUMPDEST PUSH1 0x40 MLOAD DUP1 SWAP2 SUB SWAP1 RETURN JUMPDEST CALLVALUE DUP1 ISZERO PUSH2 0x52A JUMPI PUSH1 0x0 DUP1 REVERT JUMPDEST POP PUSH2 0x533 PUSH2 0x11DF JUMP JUMPDEST PUSH1 0x40 MLOAD PUSH2 0x540 SWAP2 SWAP1 PUSH2 0x3458 JUMP JUMPDEST PUSH1 0x40 MLOAD DUP1 SWAP2 SUB SWAP1 RETURN JUMPDEST CALLVALUE DUP1 ISZERO PUSH2 0x555 JUMPI PUSH1 0x0 DUP1 REVERT JUMPDEST POP PUSH2 0x570 PUSH1 0x4 DUP1 CALLDATASIZE SUB DUP2 ADD SWAP1 PUSH2 0x56B SWAP2 SWAP1 PUSH2 0x2E3B JUMP JUMPDEST PUSH2 0x11F2 JUMP JUMPDEST PUSH1 0x40 MLOAD PUSH2 0x57D SWAP2 SWAP1 PUSH2 0x3458 JUMP JUMPDEST PUSH1 0x40 MLOAD DUP1 SWAP2 SUB SWAP1 RETURN JUMPDEST CALLVALUE DUP1 ISZERO PUSH2 0x592 JUMPI PUSH1 0x0 DUP1 REVERT JUMPDEST POP PUSH2 0x5AD PUSH1 0x4 DUP1 CALLDATASIZE SUB DUP2 ADD SWAP1 PUSH2 0x5A8 SWAP2 SWAP1 PUSH2 0x3058 JUMP JUMPDEST PUSH2 0x1207 JUMP JUMPDEST STOP JUMPDEST CALLVALUE DUP1 ISZERO PUSH2 0x5BB JUMPI PUSH1 0x0 DUP1 REVERT JUMPDEST POP PUSH2 0x5D6 PUSH1 0x4 DUP1 CALLDATASIZE SUB DUP2 ADD SWAP1 PUSH2 0x5D1 SWAP2 SWAP1 PUSH2 0x2F18 JUMP JUMPDEST PUSH2 0x1275 JUMP JUMPDEST STOP JUMPDEST CALLVALUE DUP1 ISZERO PUSH2 0x5E4 JUMPI PUSH1 0x0 DUP1 REVERT JUMPDEST POP PUSH2 0x5ED PUSH2 0x1318 JUMP JUMPDEST PUSH1 0x40 MLOAD PUSH2 0x5FA SWAP2 SWAP1 PUSH2 0x3458 JUMP JUMPDEST PUSH1 0x40 MLOAD DUP1 SWAP2 SUB SWAP1 RETURN JUMPDEST CALLVALUE DUP1 ISZERO PUSH2 0x60F JUMPI PUSH1 0x0 DUP1 REVERT JUMPDEST POP PUSH2 0x62A PUSH1 0x4 DUP1 CALLDATASIZE SUB DUP2 ADD SWAP1 PUSH2 0x625 SWAP2 SWAP1 PUSH2 0x2E3B JUMP JUMPDEST PUSH2 0x132B JUMP JUMPDEST PUSH1 0x40 MLOAD PUSH2 0x637 SWAP2 SWAP1 PUSH2 0x357C JUMP JUMPDEST PUSH1 0x40 MLOAD DUP1 SWAP2 SUB SWAP1 RETURN JUMPDEST CALLVALUE DUP1 ISZERO PUSH2 0x64C JUMPI PUSH1 0x0 DUP1 REVERT JUMPDEST POP PUSH2 0x655 PUSH2 0x1374 JUMP JUMPDEST PUSH1 0x40 MLOAD PUSH2 0x662 SWAP2 SWAP1 PUSH2 0x357C JUMP JUMPDEST PUSH1 0x40 MLOAD DUP1 SWAP2 SUB SWAP1 RETURN JUMPDEST CALLVALUE DUP1 ISZERO PUSH2 0x677 JUMPI PUSH1 0x0 DUP1 REVERT JUMPDEST POP PUSH2 0x680 PUSH2 0x137A JUMP JUMPDEST PUSH1 0x40 MLOAD PUSH2 0x68D SWAP2 SWAP1 PUSH2 0x33C1 JUMP JUMPDEST PUSH1 0x40 MLOAD DUP1 SWAP2 SUB SWAP1 RETURN JUMPDEST CALLVALUE DUP1 ISZERO PUSH2 0x6A2 JUMPI PUSH1 0x0 DUP1 REVERT JUMPDEST POP PUSH2 0x6AB PUSH2 0x13A3 JUMP JUMPDEST PUSH1 0x40 MLOAD PUSH2 0x6B8 SWAP2 SWAP1 PUSH2 0x33C1 JUMP JUMPDEST PUSH1 0x40 MLOAD DUP1 SWAP2 SUB SWAP1 RETURN JUMPDEST CALLVALUE DUP1 ISZERO PUSH2 0x6CD JUMPI PUSH1 0x0 DUP1 REVERT JUMPDEST POP PUSH2 0x6D6 PUSH2 0x13C9 JUMP JUMPDEST PUSH1 0x40 MLOAD PUSH2 0x6E3 SWAP2 SWAP1 PUSH2 0x34DA JUMP JUMPDEST PUSH1 0x40 MLOAD DUP1 SWAP2 SUB SWAP1 RETURN JUMPDEST CALLVALUE DUP1 ISZERO PUSH2 0x6F8 JUMPI PUSH1 0x0 DUP1 REVERT JUMPDEST POP PUSH2 0x713 PUSH1 0x4 DUP1 CALLDATASIZE SUB DUP2 ADD SWAP1 PUSH2 0x70E SWAP2 SWAP1 PUSH2 0x3058 JUMP JUMPDEST PUSH2 0x1406 JUMP JUMPDEST STOP JUMPDEST CALLVALUE DUP1 ISZERO PUSH2 0x721 JUMPI PUSH1 0x0 DUP1 REVERT JUMPDEST POP PUSH2 0x73C PUSH1 0x4 DUP1 CALLDATASIZE SUB DUP2 ADD SWAP1 PUSH2 0x737 SWAP2 SWAP1 PUSH2 0x2E8D JUMP JUMPDEST PUSH2 0x1467 JUMP JUMPDEST STOP JUMPDEST CALLVALUE DUP1 ISZERO PUSH2 0x74A JUMPI PUSH1 0x0 DUP1 REVERT JUMPDEST POP PUSH2 0x753 PUSH2 0x1535 JUMP JUMPDEST PUSH1 0x40 MLOAD PUSH2 0x760 SWAP2 SWAP1 PUSH2 0x33C1 JUMP JUMPDEST PUSH1 0x40 MLOAD DUP1 SWAP2 SUB SWAP1 RETURN JUMPDEST CALLVALUE DUP1 ISZERO PUSH2 0x775 JUMPI PUSH1 0x0 DUP1 REVERT JUMPDEST POP PUSH2 0x77E PUSH2 0x155B JUMP JUMPDEST PUSH1 0x40 MLOAD PUSH2 0x78B SWAP2 SWAP1 PUSH2 0x33C1 JUMP JUMPDEST PUSH1 0x40 MLOAD DUP1 SWAP2 SUB SWAP1 RETURN JUMPDEST CALLVALUE DUP1 ISZERO PUSH2 0x7A0 JUMPI PUSH1 0x0 DUP1 REVERT JUMPDEST POP PUSH2 0x7BB PUSH1 0x4 DUP1 CALLDATASIZE SUB DUP2 ADD SWAP1 PUSH2 0x7B6 SWAP2 SWAP1 PUSH2 0x2F54 JUMP JUMPDEST PUSH2 0x1581 JUMP JUMPDEST PUSH1 0x40 MLOAD PUSH2 0x7C8 SWAP2 SWAP1 PUSH2 0x3458 JUMP JUMPDEST PUSH1 0x40 MLOAD DUP1 SWAP2 SUB SWAP1 RETURN JUMPDEST CALLVALUE DUP1 ISZERO PUSH2 0x7DD JUMPI PUSH1 0x0 DUP1 REVERT JUMPDEST POP PUSH2 0x7E6 PUSH2 0x1596 JUMP JUMPDEST STOP JUMPDEST CALLVALUE DUP1 ISZERO PUSH2 0x7F4 JUMPI PUSH1 0x0 DUP1 REVERT JUMPDEST POP PUSH2 0x80F PUSH1 0x4 DUP1 CALLDATASIZE SUB DUP2 ADD SWAP1 PUSH2 0x80A SWAP2 SWAP1 PUSH2 0x2E3B JUMP JUMPDEST PUSH2 0x15E8 JUMP JUMPDEST STOP JUMPDEST CALLVALUE DUP1 ISZERO PUSH2 0x81D JUMPI PUSH1 0x0 DUP1 REVERT JUMPDEST POP PUSH2 0x826 PUSH2 0x168A JUMP JUMPDEST PUSH1 0x40 MLOAD PUSH2 0x833 SWAP2 SWAP1 PUSH2 0x357C JUMP JUMPDEST PUSH1 0x40 MLOAD DUP1 SWAP2 SUB SWAP1 RETURN JUMPDEST CALLVALUE DUP1 ISZERO PUSH2 0x848 JUMPI PUSH1 0x0 DUP1 REVERT JUMPDEST POP PUSH2 0x851 PUSH2 0x1690 JUMP JUMPDEST PUSH1 0x40 MLOAD PUSH2 0x85E SWAP2 SWAP1 PUSH2 0x357C JUMP JUMPDEST PUSH1 0x40 MLOAD DUP1 SWAP2 SUB SWAP1 RETURN JUMPDEST CALLVALUE DUP1 ISZERO PUSH2 0x873 JUMPI PUSH1 0x0 DUP1 REVERT JUMPDEST POP PUSH2 0x87C PUSH2 0x1696 JUMP JUMPDEST PUSH1 0x40 MLOAD PUSH2 0x889 SWAP2 SWAP1 PUSH2 0x33C1 JUMP JUMPDEST PUSH1 0x40 MLOAD DUP1 SWAP2 SUB SWAP1 RETURN JUMPDEST CALLVALUE DUP1 ISZERO PUSH2 0x89E JUMPI PUSH1 0x0 DUP1 REVERT JUMPDEST POP PUSH2 0x8B9 PUSH1 0x4 DUP1 CALLDATASIZE SUB DUP2 ADD SWAP1 PUSH2 0x8B4 SWAP2 SWAP1 PUSH2 0x3058 JUMP JUMPDEST PUSH2 0x16BC JUMP JUMPDEST PUSH1 0x40 MLOAD PUSH2 0x8C6 SWAP2 SWAP1 PUSH2 0x357C JUMP JUMPDEST PUSH1 0x40 MLOAD DUP1 SWAP2 SUB SWAP1 RETURN JUMPDEST CALLVALUE DUP1 ISZERO PUSH2 0x8DB JUMPI PUSH1 0x0 DUP1 REVERT JUMPDEST POP PUSH2 0x8E4 PUSH2 0x172E JUMP JUMPDEST PUSH1 0x40 MLOAD PUSH2 0x8F1 SWAP2 SWAP1 PUSH2 0x357C JUMP JUMPDEST PUSH1 0x40 MLOAD DUP1 SWAP2 SUB SWAP1 RETURN JUMPDEST CALLVALUE DUP1 ISZERO PUSH2 0x906 JUMPI PUSH1 0x0 DUP1 REVERT JUMPDEST POP PUSH2 0x921 PUSH1 0x4 DUP1 CALLDATASIZE SUB DUP2 ADD SWAP1 PUSH2 0x91C SWAP2 SWAP1 PUSH2 0x2E8D JUMP JUMPDEST PUSH2 0x1855 JUMP JUMPDEST PUSH1 0x40 MLOAD PUSH2 0x92E SWAP2 SWAP1 PUSH2 0x357C JUMP JUMPDEST PUSH1 0x40 MLOAD DUP1 SWAP2 SUB SWAP1 RETURN JUMPDEST CALLVALUE DUP1 ISZERO PUSH2 0x943 JUMPI PUSH1 0x0 DUP1 REVERT JUMPDEST POP PUSH2 0x95E PUSH1 0x4 DUP1 CALLDATASIZE SUB DUP2 ADD SWAP1 PUSH2 0x959 SWAP2 SWAP1 PUSH2 0x2FB9 JUMP JUMPDEST PUSH2 0x18DC JUMP JUMPDEST STOP JUMPDEST CALLVALUE DUP1 ISZERO PUSH2 0x96C JUMPI PUSH1 0x0 DUP1 REVERT JUMPDEST POP PUSH2 0x975 PUSH2 0x1949 JUMP JUMPDEST PUSH1 0x40 MLOAD PUSH2 0x982 SWAP2 SWAP1 PUSH2 0x357C JUMP JUMPDEST PUSH1 0x40 MLOAD DUP1 SWAP2 SUB SWAP1 RETURN JUMPDEST CALLVALUE DUP1 ISZERO PUSH2 0x997 JUMPI PUSH1 0x0 DUP1 REVERT JUMPDEST POP PUSH2 0x9A0 PUSH2 0x195F JUMP JUMPDEST PUSH1 0x40 MLOAD PUSH2 0x9AD SWAP2 SWAP1 PUSH2 0x33C1 JUMP JUMPDEST PUSH1 0x40 MLOAD DUP1 SWAP2 SUB SWAP1 RETURN JUMPDEST CALLVALUE DUP1 ISZERO PUSH2 0x9C2 JUMPI PUSH1 0x0 DUP1 REVERT JUMPDEST POP PUSH2 0x9DD PUSH1 0x4 DUP1 CALLDATASIZE SUB DUP2 ADD SWAP1 PUSH2 0x9D8 SWAP2 SWAP1 PUSH2 0x2E3B JUMP JUMPDEST PUSH2 0x1985 JUMP JUMPDEST STOP JUMPDEST CALLVALUE DUP1 ISZERO PUSH2 0x9EB JUMPI PUSH1 0x0 DUP1 REVERT JUMPDEST POP PUSH2 0xA06 PUSH1 0x4 DUP1 CALLDATASIZE SUB DUP2 ADD SWAP1 PUSH2 0xA01 SWAP2 SWAP1 PUSH2 0x2F90 JUMP JUMPDEST PUSH2 0x1A28 JUMP JUMPDEST PUSH1 0x40 MLOAD PUSH2 0xA13 SWAP2 SWAP1 PUSH2 0x357C JUMP JUMPDEST PUSH1 0x40 MLOAD DUP1 SWAP2 SUB SWAP1 RETURN JUMPDEST CALLVALUE DUP1 ISZERO PUSH2 0xA28 JUMPI PUSH1 0x0 DUP1 REVERT JUMPDEST POP PUSH2 0xA43 PUSH1 0x4 DUP1 CALLDATASIZE SUB DUP2 ADD SWAP1 PUSH2 0xA3E SWAP2 SWAP1 PUSH2 0x2E64 JUMP JUMPDEST PUSH2 0x1A7C JUMP JUMPDEST STOP JUMPDEST CALLVALUE DUP1 ISZERO PUSH2 0xA51 JUMPI PUSH1 0x0 DUP1 REVERT JUMPDEST POP PUSH2 0xA6C PUSH1 0x4 DUP1 CALLDATASIZE SUB DUP2 ADD SWAP1 PUSH2 0xA67 SWAP2 SWAP1 PUSH2 0x3081 JUMP JUMPDEST PUSH2 0x1B95 JUMP JUMPDEST STOP JUMPDEST CALLVALUE DUP1 ISZERO PUSH2 0xA7A JUMPI PUSH1 0x0 DUP1 REVERT JUMPDEST POP PUSH2 0xA95 PUSH1 0x4 DUP1 CALLDATASIZE SUB DUP2 ADD SWAP1 PUSH2 0xA90 SWAP2 SWAP1 PUSH2 0x2F18 JUMP JUMPDEST PUSH2 0x1C54 JUMP JUMPDEST STOP JUMPDEST CALLVALUE DUP1 ISZERO PUSH2 0xAA3 JUMPI PUSH1 0x0 DUP1 REVERT JUMPDEST POP PUSH2 0xAAC PUSH2 0x1CF7 JUMP JUMPDEST PUSH1 0x40 MLOAD PUSH2 0xAB9 SWAP2 SWAP1 PUSH2 0x3473 JUMP JUMPDEST PUSH1 0x40 MLOAD DUP1 SWAP2 SUB SWAP1 RETURN JUMPDEST CALLVALUE DUP1 ISZERO PUSH2 0xACE JUMPI PUSH1 0x0 DUP1 REVERT JUMPDEST POP PUSH2 0xAE9 PUSH1 0x4 DUP1 CALLDATASIZE SUB DUP2 ADD SWAP1 PUSH2 0xAE4 SWAP2 SWAP1 PUSH2 0x2E3B JUMP JUMPDEST PUSH2 0x1D1D JUMP JUMPDEST PUSH1 0x40 MLOAD PUSH2 0xAF6 SWAP2 SWAP1 PUSH2 0x3458 JUMP JUMPDEST PUSH1 0x40 MLOAD DUP1 SWAP2 SUB SWAP1 RETURN JUMPDEST PUSH2 0xB08 CALLER PUSH2 0x1D1D JUMP JUMPDEST PUSH2 0xB47 JUMPI PUSH1 0x40 MLOAD PUSH32 0x8C379A000000000000000000000000000000000000000000000000000000000 DUP2 MSTORE PUSH1 0x4 ADD PUSH2 0xB3E SWAP1 PUSH2 0x355C JUMP JUMPDEST PUSH1 0x40 MLOAD DUP1 SWAP2 SUB SWAP1 REVERT JUMPDEST PUSH1 0x0 PUSH1 0x18 SLOAD EQ PUSH2 0xB8C JUMPI PUSH1 0x40 MLOAD PUSH32 0x8C379A000000000000000000000000000000000000000000000000000000000 DUP2 MSTORE PUSH1 0x4 ADD PUSH2 0xB83 SWAP1 PUSH2 0x351C JUMP JUMPDEST PUSH1 0x40 MLOAD DUP1 SWAP2 SUB SWAP1 REVERT JUMPDEST NUMBER PUSH1 0x18 DUP2 SWAP1 SSTORE POP TIMESTAMP PUSH1 0x19 DUP2 SWAP1 SSTORE POP JUMP JUMPDEST PUSH1 0x28 SLOAD DUP2 JUMP JUMPDEST PUSH2 0xBAB CALLER PUSH2 0x1D1D JUMP JUMPDEST PUSH2 0xBEA JUMPI PUSH1 0x40 MLOAD PUSH32 0x8C379A000000000000000000000000000000000000000000000000000000000 DUP2 MSTORE PUSH1 0x4 ADD PUSH2 0xBE1 SWAP1 PUSH2 0x355C JUMP JUMPDEST PUSH1 0x40 MLOAD DUP1 SWAP2 SUB SWAP1 REVERT JUMPDEST DUP4 PUSH1 0x1E PUSH1 0x0 PUSH2 0x100 EXP DUP2 SLOAD DUP2 PUSH1 0xFF MUL NOT AND SWAP1 DUP4 ISZERO ISZERO MUL OR SWAP1 SSTORE POP DUP3 PUSH1 0x20 DUP2 SWAP1 SSTORE POP PUSH1 0x0 PUSH1 0x21 DUP2 SWAP1 SSTORE POP DUP2 PUSH1 0x22 DUP2 SWAP1 SSTORE POP DUP1 PUSH1 0x23 DUP2 SWAP1 SSTORE POP NUMBER PUSH1 0x24 DUP2 SWAP1 SSTORE POP POP POP POP POP JUMP JUMPDEST PUSH2 0xC37 CALLER PUSH2 0x1D1D JUMP JUMPDEST PUSH2 0xC76 JUMPI PUSH1 0x40 MLOAD PUSH32 0x8C379A000000000000000000000000000000000000000000000000000000000 DUP2 MSTORE PUSH1 0x4 ADD PUSH2 0xC6D SWAP1 PUSH2 0x355C JUMP JUMPDEST PUSH1 0x40 MLOAD DUP1 SWAP2 SUB SWAP1 REVERT JUMPDEST DUP5 PUSH1 0xE DUP2 SWAP1 SSTORE POP DUP2 PUSH1 0xF DUP2 SWAP1 SSTORE POP PUSH2 0xCBB DUP3 PUSH2 0xCAD DUP6 PUSH2 0xC9F DUP9 DUP11 PUSH2 0x1D89 SWAP1 SWAP2 SWAP1 PUSH4 0xFFFFFFFF AND JUMP JUMPDEST PUSH2 0x1D89 SWAP1 SWAP2 SWAP1 PUSH4 0xFFFFFFFF AND JUMP JUMPDEST PUSH2 0x1D89 SWAP1 SWAP2 SWAP1 PUSH4 0xFFFFFFFF AND JUMP JUMPDEST PUSH1 0x10 DUP2 SWAP1 SSTORE POP DUP1 PUSH1 0x11 DUP2 SWAP1 SSTORE POP PUSH1 0x4 PUSH1 0x11 SLOAD PUSH2 0xCD7 SWAP2 SWAP1 PUSH2 0x36E0 JUMP JUMPDEST PUSH1 0x10 SLOAD LT PUSH2 0xCE4 JUMPI PUSH1 0x0 DUP1 REVERT JUMPDEST POP POP POP POP POP JUMP JUMPDEST PUSH1 0x60 PUSH1 0x40 MLOAD DUP1 PUSH1 0x40 ADD PUSH1 0x40 MSTORE DUP1 PUSH1 0xA DUP2 MSTORE PUSH1 0x20 ADD PUSH32 0x436F6F6B6965436F696E00000000000000000000000000000000000000000000 DUP2 MSTORE POP SWAP1 POP SWAP1 JUMP JUMPDEST PUSH1 0x0 DUP2 PUSH1 0xA PUSH1 0x0 CALLER PUSH20 0xFFFFFFFFFFFFFFFFFFFFFFFFFFFFFFFFFFFFFFFF AND PUSH20 0xFFFFFFFFFFFFFFFFFFFFFFFFFFFFFFFFFFFFFFFF AND DUP2 MSTORE PUSH1 0x20 ADD SWAP1 DUP2 MSTORE PUSH1 0x20 ADD PUSH1 0x0 KECCAK256 PUSH1 0x0 DUP6 PUSH20 0xFFFFFFFFFFFFFFFFFFFFFFFFFFFFFFFFFFFFFFFF AND PUSH20 0xFFFFFFFFFFFFFFFFFFFFFFFFFFFFFFFFFFFFFFFF AND DUP2 MSTORE PUSH1 0x20 ADD SWAP1 DUP2 MSTORE PUSH1 0x20 ADD PUSH1 0x0 KECCAK256 DUP2 SWAP1 SSTORE POP DUP3 PUSH20 0xFFFFFFFFFFFFFFFFFFFFFFFFFFFFFFFFFFFFFFFF AND CALLER PUSH20 0xFFFFFFFFFFFFFFFFFFFFFFFFFFFFFFFFFFFFFFFF AND PUSH32 0x8C5BE1E5EBEC7D5BD14F71427D1E84F3DD0314C0F7B2291E5B200AC8C7C3B925 DUP5 PUSH1 0x40 MLOAD PUSH2 0xE08 SWAP2 SWAP1 PUSH2 0x357C JUMP JUMPDEST PUSH1 0x40 MLOAD DUP1 SWAP2 SUB SWAP1 LOG3 PUSH1 0x1 SWAP1 POP SWAP3 SWAP2 POP POP JUMP JUMPDEST PUSH1 0x0 DUP3 PUSH2 0xE26 DUP4 PUSH2 0x16BC JUMP JUMPDEST GT SWAP1 POP SWAP3 SWAP2 POP POP JUMP JUMPDEST PUSH1 0x0 PUSH1 0x7 SLOAD SWAP1 POP SWAP1 JUMP JUMPDEST PUSH2 0xE42 CALLER PUSH2 0x1D1D JUMP JUMPDEST PUSH2 0xE81 JUMPI PUSH1 0x40 MLOAD PUSH32 0x8C379A000000000000000000000000000000000000000000000000000000000 DUP2 MSTORE PUSH1 0x4 ADD PUSH2 0xE78 SWAP1 PUSH2 0x355C JUMP JUMPDEST PUSH1 0x40 MLOAD DUP1 SWAP2 SUB SWAP1 REVERT JUMPDEST DUP2 PUSH1 0x14 DUP2 SWAP1 SSTORE POP DUP1 PUSH1 0x15 DUP2 SWAP1 SSTORE POP POP POP JUMP JUMPDEST PUSH2 0xE9C CALLER PUSH2 0x1D1D JUMP JUMPDEST PUSH2 0xEDB JUMPI PUSH1 0x40 MLOAD PUSH32 0x8C379A000000000000000000000000000000000000000000000000000000000 DUP2 MSTORE PUSH1 0x4 ADD PUSH2 0xED2 SWAP1 PUSH2 0x355C JUMP JUMPDEST PUSH1 0x40 MLOAD DUP1 SWAP2 SUB SWAP1 REVERT JUMPDEST PUSH1 0x2 DUP3 DUP5 PUSH2 0xEE9 SWAP2 SWAP1 PUSH2 0x36E0 JUMP JUMPDEST GT ISZERO DUP1 ISZERO PUSH2 0xEF6 JUMPI POP DUP2 DUP4 GT JUMPDEST PUSH2 0xEFF JUMPI PUSH1 0x0 DUP1 REVERT JUMPDEST DUP3 PUSH1 0x1A DUP2 SWAP1 SSTORE POP DUP2 PUSH1 0x1B DUP2 SWAP1 SSTORE POP DUP1 PUSH1 0x1D DUP2 SWAP1 SSTORE POP POP POP POP JUMP JUMPDEST PUSH1 0x0 PUSH1 0x7 SLOAD PUSH1 0xA PUSH1 0x0 DUP7 PUSH20 0xFFFFFFFFFFFFFFFFFFFFFFFFFFFFFFFFFFFFFFFF AND PUSH20 0xFFFFFFFFFFFFFFFFFFFFFFFFFFFFFFFFFFFFFFFF AND DUP2 MSTORE PUSH1 0x20 ADD SWAP1 DUP2 MSTORE PUSH1 0x20 ADD PUSH1 0x0 KECCAK256 PUSH1 0x0 CALLER PUSH20 0xFFFFFFFFFFFFFFFFFFFFFFFFFFFFFFFFFFFFFFFF AND PUSH20 0xFFFFFFFFFFFFFFFFFFFFFFFFFFFFFFFFFFFFFFFF AND DUP2 MSTORE PUSH1 0x20 ADD SWAP1 DUP2 MSTORE PUSH1 0x20 ADD PUSH1 0x0 KECCAK256 SLOAD EQ PUSH2 0x10E7 JUMPI PUSH2 0x1066 DUP3 PUSH1 0x40 MLOAD DUP1 PUSH1 0x40 ADD PUSH1 0x40 MSTORE DUP1 PUSH1 0x16 DUP2 MSTORE PUSH1 0x20 ADD PUSH32 0x496E73756666696369656E7420416C6C6F77616E636500000000000000000000 DUP2 MSTORE POP PUSH1 0xA PUSH1 0x0 DUP9 PUSH20 0xFFFFFFFFFFFFFFFFFFFFFFFFFFFFFFFFFFFFFFFF AND PUSH20 0xFFFFFFFFFFFFFFFFFFFFFFFFFFFFFFFFFFFFFFFF AND DUP2 MSTORE PUSH1 0x20 ADD SWAP1 DUP2 MSTORE PUSH1 0x20 ADD PUSH1 0x0 KECCAK256 PUSH1 0x0 CALLER PUSH20 0xFFFFFFFFFFFFFFFFFFFFFFFFFFFFFFFFFFFFFFFF AND PUSH20 0xFFFFFFFFFFFFFFFFFFFFFFFFFFFFFFFFFFFFFFFF AND DUP2 MSTORE PUSH1 0x20 ADD SWAP1 DUP2 MSTORE PUSH1 0x20 ADD PUSH1 0x0 KECCAK256 SLOAD PUSH2 0x1D9F SWAP1 SWAP3 SWAP2 SWAP1 PUSH4 0xFFFFFFFF AND JUMP JUMPDEST PUSH1 0xA PUSH1 0x0 DUP7 PUSH20 0xFFFFFFFFFFFFFFFFFFFFFFFFFFFFFFFFFFFFFFFF AND PUSH20 0xFFFFFFFFFFFFFFFFFFFFFFFFFFFFFFFFFFFFFFFF AND DUP2 MSTORE PUSH1 0x20 ADD SWAP1 DUP2 MSTORE PUSH1 0x20 ADD PUSH1 0x0 KECCAK256 PUSH1 0x0 CALLER PUSH20 0xFFFFFFFFFFFFFFFFFFFFFFFFFFFFFFFFFFFFFFFF AND PUSH20 0xFFFFFFFFFFFFFFFFFFFFFFFFFFFFFFFFFFFFFFFF AND DUP2 MSTORE PUSH1 0x20 ADD SWAP1 DUP2 MSTORE PUSH1 0x20 ADD PUSH1 0x0 KECCAK256 DUP2 SWAP1 SSTORE POP JUMPDEST PUSH2 0x10F2 DUP5 DUP5 DUP5 PUSH2 0x1DF4 JUMP JUMPDEST SWAP1 POP SWAP4 SWAP3 POP POP POP JUMP JUMPDEST PUSH1 0x0 PUSH2 0x1178 PUSH2 0x112B PUSH1 0x5 PUSH1 0x0 SWAP1 SLOAD SWAP1 PUSH2 0x100 EXP SWAP1 DIV PUSH20 0xFFFFFFFFFFFFFFFFFFFFFFFFFFFFFFFFFFFFFFFF AND PUSH2 0x132B JUMP JUMPDEST PUSH2 0x116A PUSH2 0x1159 PUSH1 0x4 PUSH1 0x0 SWAP1 SLOAD SWAP1 PUSH2 0x100 EXP SWAP1 DIV PUSH20 0xFFFFFFFFFFFFFFFFFFFFFFFFFFFFFFFFFFFFFFFF AND PUSH2 0x132B JUMP JUMPDEST PUSH1 0x7 SLOAD PUSH2 0x2049 SWAP1 SWAP2 SWAP1 PUSH4 0xFFFFFFFF AND JUMP JUMPDEST PUSH2 0x2049 SWAP1 SWAP2 SWAP1 PUSH4 0xFFFFFFFF AND JUMP JUMPDEST SWAP1 POP SWAP1 JUMP JUMPDEST PUSH1 0x0 DUP1 PUSH1 0x0 SWAP1 SLOAD SWAP1 PUSH2 0x100 EXP SWAP1 DIV PUSH20 0xFFFFFFFFFFFFFFFFFFFFFFFFFFFFFFFFFFFFFFFF AND PUSH20 0xFFFFFFFFFFFFFFFFFFFFFFFFFFFFFFFFFFFFFFFF AND DUP3 PUSH20 0xFFFFFFFFFFFFFFFFFFFFFFFFFFFFFFFFFFFFFFFF AND EQ SWAP1 POP SWAP2 SWAP1 POP JUMP JUMPDEST PUSH1 0x0 PUSH1 0x9 SWAP1 POP SWAP1 JUMP JUMPDEST PUSH1 0x1E PUSH1 0x0 SWAP1 SLOAD SWAP1 PUSH2 0x100 EXP SWAP1 DIV PUSH1 0xFF AND DUP2 JUMP JUMPDEST PUSH1 0x0 PUSH2 0x1200 DUP3 PUSH1 0x7 SLOAD PUSH2 0xD28 JUMP JUMPDEST SWAP1 POP SWAP2 SWAP1 POP JUMP JUMPDEST PUSH2 0x1210 CALLER PUSH2 0x1D1D JUMP JUMPDEST PUSH2 0x124F JUMPI PUSH1 0x40 MLOAD PUSH32 0x8C379A000000000000000000000000000000000000000000000000000000000 DUP2 MSTORE PUSH1 0x4 ADD PUSH2 0x1246 SWAP1 PUSH2 0x355C JUMP JUMPDEST PUSH1 0x40 MLOAD DUP1 SWAP2 SUB SWAP1 REVERT JUMPDEST PUSH2 0x3E8 PUSH1 0x7 SLOAD PUSH2 0x125F SWAP2 SWAP1 PUSH2 0x36E0 JUMP JUMPDEST DUP2 LT ISZERO PUSH2 0x126B JUMPI PUSH1 0x0 DUP1 REVERT JUMPDEST DUP1 PUSH1 0x8 DUP2 SWAP1 SSTORE POP POP JUMP JUMPDEST PUSH2 0x127E CALLER PUSH2 0x1D1D JUMP JUMPDEST PUSH2 0x12BD JUMPI PUSH1 0x40 MLOAD PUSH32 0x8C379A000000000000000000000000000000000000000000000000000000000 DUP2 MSTORE PUSH1 0x4 ADD PUSH2 0x12B4 SWAP1 PUSH2 0x355C JUMP JUMPDEST PUSH1 0x40 MLOAD DUP1 SWAP2 SUB SWAP1 REVERT JUMPDEST DUP1 PUSH1 0xB PUSH1 0x0 DUP5 PUSH20 0xFFFFFFFFFFFFFFFFFFFFFFFFFFFFFFFFFFFFFFFF AND PUSH20 0xFFFFFFFFFFFFFFFFFFFFFFFFFFFFFFFFFFFFFFFF AND DUP2 MSTORE PUSH1 0x20 ADD SWAP1 DUP2 MSTORE PUSH1 0x20 ADD PUSH1 0x0 KECCAK256 PUSH1 0x0 PUSH2 0x100 EXP DUP2 SLOAD DUP2 PUSH1 0xFF MUL NOT AND SWAP1 DUP4 ISZERO ISZERO MUL OR SWAP1 SSTORE POP POP POP JUMP JUMPDEST PUSH1 0x27 PUSH1 0x0 SWAP1 SLOAD SWAP1 PUSH2 0x100 EXP SWAP1 DIV PUSH1 0xFF AND DUP2 JUMP JUMPDEST PUSH1 0x0 PUSH1 0x9 PUSH1 0x0 DUP4 PUSH20 0xFFFFFFFFFFFFFFFFFFFFFFFFFFFFFFFFFFFFFFFF AND PUSH20 0xFFFFFFFFFFFFFFFFFFFFFFFFFFFFFFFFFFFFFFFF AND DUP2 MSTORE PUSH1 0x20 ADD SWAP1 DUP2 MSTORE PUSH1 0x20 ADD PUSH1 0x0 KECCAK256 SLOAD SWAP1 POP SWAP2 SWAP1 POP JUMP JUMPDEST PUSH1 0x8 SLOAD DUP2 JUMP JUMPDEST PUSH1 0x0 DUP1 PUSH1 0x0 SWAP1 SLOAD SWAP1 PUSH2 0x100 EXP SWAP1 DIV PUSH20 0xFFFFFFFFFFFFFFFFFFFFFFFFFFFFFFFFFFFFFFFF AND SWAP1 POP SWAP1 JUMP JUMPDEST PUSH1 0x3 PUSH1 0x0 SWAP1 SLOAD SWAP1 PUSH2 0x100 EXP SWAP1 DIV PUSH20 0xFFFFFFFFFFFFFFFFFFFFFFFFFFFFFFFFFFFFFFFF AND DUP2 JUMP JUMPDEST PUSH1 0x60 PUSH1 0x40 MLOAD DUP1 PUSH1 0x40 ADD PUSH1 0x40 MSTORE DUP1 PUSH1 0x6 DUP2 MSTORE PUSH1 0x20 ADD PUSH32 0x434F4F4B49450000000000000000000000000000000000000000000000000000 DUP2 MSTORE POP SWAP1 POP SWAP1 JUMP JUMPDEST PUSH2 0x140F CALLER PUSH2 0x1D1D JUMP JUMPDEST PUSH2 0x144E JUMPI PUSH1 0x40 MLOAD PUSH32 0x8C379A000000000000000000000000000000000000000000000000000000000 DUP2 MSTORE PUSH1 0x4 ADD PUSH2 0x1445 SWAP1 PUSH2 0x355C JUMP JUMPDEST PUSH1 0x40 MLOAD DUP1 SWAP2 SUB SWAP1 REVERT JUMPDEST PUSH3 0xB71B0 DUP2 LT PUSH2 0x145D JUMPI PUSH1 0x0 DUP1 REVERT JUMPDEST DUP1 PUSH1 0x26 DUP2 SWAP1 SSTORE POP POP JUMP JUMPDEST PUSH2 0x1470 CALLER PUSH2 0x1D1D JUMP JUMPDEST PUSH2 0x14AF JUMPI PUSH1 0x40 MLOAD PUSH32 0x8C379A000000000000000000000000000000000000000000000000000000000 DUP2 MSTORE PUSH1 0x4 ADD PUSH2 0x14A6 SWAP1 PUSH2 0x355C JUMP JUMPDEST PUSH1 0x40 MLOAD DUP1 SWAP2 SUB SWAP1 REVERT JUMPDEST DUP2 PUSH1 0x12 PUSH1 0x0 PUSH2 0x100 EXP DUP2 SLOAD DUP2 PUSH20 0xFFFFFFFFFFFFFFFFFFFFFFFFFFFFFFFFFFFFFFFF MUL NOT AND SWAP1 DUP4 PUSH20 0xFFFFFFFFFFFFFFFFFFFFFFFFFFFFFFFFFFFFFFFF AND MUL OR SWAP1 SSTORE POP DUP1 PUSH1 0x13 PUSH1 0x0 PUSH2 0x100 EXP DUP2 SLOAD DUP2 PUSH20 0xFFFFFFFFFFFFFFFFFFFFFFFFFFFFFFFFFFFFFFFF MUL NOT AND SWAP1 DUP4 PUSH20 0xFFFFFFFFFFFFFFFFFFFFFFFFFFFFFFFFFFFFFFFF AND MUL OR SWAP1 SSTORE POP POP POP JUMP JUMPDEST PUSH1 0x25 PUSH1 0x0 SWAP1 SLOAD SWAP1 PUSH2 0x100 EXP SWAP1 DIV PUSH20 0xFFFFFFFFFFFFFFFFFFFFFFFFFFFFFFFFFFFFFFFF AND DUP2 JUMP JUMPDEST PUSH1 0x17 PUSH1 0x0 SWAP1 SLOAD SWAP1 PUSH2 0x100 EXP SWAP1 DIV PUSH20 0xFFFFFFFFFFFFFFFFFFFFFFFFFFFFFFFFFFFFFFFF AND DUP2 JUMP JUMPDEST PUSH1 0x0 PUSH2 0x158E CALLER DUP5 DUP5 PUSH2 0x1DF4 JUMP JUMPDEST SWAP1 POP SWAP3 SWAP2 POP POP JUMP JUMPDEST PUSH2 0x159F CALLER PUSH2 0x1D1D JUMP JUMPDEST PUSH2 0x15DE JUMPI PUSH1 0x40 MLOAD PUSH32 0x8C379A000000000000000000000000000000000000000000000000000000000 DUP2 MSTORE PUSH1 0x4 ADD PUSH2 0x15D5 SWAP1 PUSH2 0x355C JUMP JUMPDEST PUSH1 0x40 MLOAD DUP1 SWAP2 SUB SWAP1 REVERT JUMPDEST PUSH1 0x0 PUSH1 0x1C DUP2 SWAP1 SSTORE POP JUMP JUMPDEST PUSH2 0x15F1 CALLER PUSH2 0x117D JUMP JUMPDEST PUSH2 0x1630 JUMPI PUSH1 0x40 MLOAD PUSH32 0x8C379A000000000000000000000000000000000000000000000000000000000 DUP2 MSTORE PUSH1 0x4 ADD PUSH2 0x1627 SWAP1 PUSH2 0x353C JUMP JUMPDEST PUSH1 0x40 MLOAD DUP1 SWAP2 SUB SWAP1 REVERT JUMPDEST PUSH1 0x1 DUP1 PUSH1 0x0 DUP4 PUSH20 0xFFFFFFFFFFFFFFFFFFFFFFFFFFFFFFFFFFFFFFFF AND PUSH20 0xFFFFFFFFFFFFFFFFFFFFFFFFFFFFFFFFFFFFFFFF AND DUP2 MSTORE PUSH1 0x20 ADD SWAP1 DUP2 MSTORE PUSH1 0x20 ADD PUSH1 0x0 KECCAK256 PUSH1 0x0 PUSH2 0x100 EXP DUP2 SLOAD DUP2 PUSH1 0xFF MUL NOT AND SWAP1 DUP4 ISZERO ISZERO MUL OR SWAP1 SSTORE POP POP JUMP JUMPDEST PUSH1 0x18 SLOAD DUP2 JUMP JUMPDEST PUSH1 0x19 SLOAD DUP2 JUMP JUMPDEST PUSH1 0x12 PUSH1 0x0 SWAP1 SLOAD SWAP1 PUSH2 0x100 EXP SWAP1 DIV PUSH20 0xFFFFFFFFFFFFFFFFFFFFFFFFFFFFFFFFFFFFFFFF AND DUP2 JUMP JUMPDEST PUSH1 0x0 PUSH2 0x1727 PUSH2 0x16C9 PUSH2 0x10FB JUMP JUMPDEST PUSH2 0x1719 PUSH2 0x170A PUSH1 0x2 PUSH2 0x16FC PUSH1 0x17 PUSH1 0x0 SWAP1 SLOAD SWAP1 PUSH2 0x100 EXP SWAP1 DIV PUSH20 0xFFFFFFFFFFFFFFFFFFFFFFFFFFFFFFFFFFFFFFFF AND PUSH2 0x132B JUMP JUMPDEST PUSH2 0x205F SWAP1 SWAP2 SWAP1 PUSH4 0xFFFFFFFF AND JUMP JUMPDEST DUP6 PUSH2 0x205F SWAP1 SWAP2 SWAP1 PUSH4 0xFFFFFFFF AND JUMP JUMPDEST PUSH2 0x1D73 SWAP1 SWAP2 SWAP1 PUSH4 0xFFFFFFFF AND JUMP JUMPDEST SWAP1 POP SWAP2 SWAP1 POP JUMP JUMPDEST PUSH1 0x0 TIMESTAMP PUSH3 0x15180 PUSH1 0x19 SLOAD PUSH2 0x1742 SWAP2 SWAP1 PUSH2 0x368A JUMP JUMPDEST GT ISZERO PUSH2 0x177A JUMPI PUSH2 0x1773 PUSH1 0x11 SLOAD PUSH2 0x1765 PUSH2 0x4650 PUSH1 0x10 SLOAD PUSH2 0x205F SWAP1 SWAP2 SWAP1 PUSH4 0xFFFFFFFF AND JUMP JUMPDEST PUSH2 0x1D73 SWAP1 SWAP2 SWAP1 PUSH4 0xFFFFFFFF AND JUMP JUMPDEST SWAP1 POP PUSH2 0x1852 JUMP JUMPDEST TIMESTAMP PUSH2 0x1792 PUSH1 0x1D SLOAD PUSH1 0x1C SLOAD PUSH2 0x1D89 SWAP1 SWAP2 SWAP1 PUSH4 0xFFFFFFFF AND JUMP JUMPDEST GT ISZERO PUSH2 0x184C JUMPI PUSH1 0x0 PUSH2 0x17C3 TIMESTAMP PUSH2 0x17B5 PUSH1 0x1D SLOAD PUSH1 0x1C SLOAD PUSH2 0x1D89 SWAP1 SWAP2 SWAP1 PUSH4 0xFFFFFFFF AND JUMP JUMPDEST PUSH2 0x2049 SWAP1 SWAP2 SWAP1 PUSH4 0xFFFFFFFF AND JUMP JUMPDEST SWAP1 POP PUSH1 0x0 PUSH2 0x1806 PUSH1 0x10 SLOAD PUSH2 0x17F8 PUSH1 0x1B SLOAD PUSH2 0x17EA PUSH1 0x1A SLOAD PUSH1 0x10 SLOAD PUSH2 0x205F SWAP1 SWAP2 SWAP1 PUSH4 0xFFFFFFFF AND JUMP JUMPDEST PUSH2 0x1D73 SWAP1 SWAP2 SWAP1 PUSH4 0xFFFFFFFF AND JUMP JUMPDEST PUSH2 0x2049 SWAP1 SWAP2 SWAP1 PUSH4 0xFFFFFFFF AND JUMP JUMPDEST SWAP1 POP PUSH2 0x1843 PUSH2 0x1832 PUSH1 0x1D SLOAD PUSH2 0x1824 DUP6 DUP6 PUSH2 0x205F SWAP1 SWAP2 SWAP1 PUSH4 0xFFFFFFFF AND JUMP JUMPDEST PUSH2 0x1D73 SWAP1 SWAP2 SWAP1 PUSH4 0xFFFFFFFF AND JUMP JUMPDEST PUSH1 0x10 SLOAD PUSH2 0x1D89 SWAP1 SWAP2 SWAP1 PUSH4 0xFFFFFFFF AND JUMP JUMPDEST SWAP3 POP POP POP PUSH2 0x1852 JUMP JUMPDEST PUSH1 0x10 SLOAD SWAP1 POP JUMPDEST SWAP1 JUMP JUMPDEST PUSH1 0x0 PUSH1 0xA PUSH1 0x0 DUP5 PUSH20 0xFFFFFFFFFFFFFFFFFFFFFFFFFFFFFFFFFFFFFFFF AND PUSH20 0xFFFFFFFFFFFFFFFFFFFFFFFFFFFFFFFFFFFFFFFF AND DUP2 MSTORE PUSH1 0x20 ADD SWAP1 DUP2 MSTORE PUSH1 0x20 ADD PUSH1 0x0 KECCAK256 PUSH1 0x0 DUP4 PUSH20 0xFFFFFFFFFFFFFFFFFFFFFFFFFFFFFFFFFFFFFFFF AND PUSH20 0xFFFFFFFFFFFFFFFFFFFFFFFFFFFFFFFFFFFFFFFF AND DUP2 MSTORE PUSH1 0x20 ADD SWAP1 DUP2 MSTORE PUSH1 0x20 ADD PUSH1 0x0 KECCAK256 SLOAD SWAP1 POP SWAP3 SWAP2 POP POP JUMP JUMPDEST PUSH2 0x18E5 CALLER PUSH2 0x1D1D JUMP JUMPDEST PUSH2 0x1924 JUMPI PUSH1 0x40 MLOAD PUSH32 0x8C379A000000000000000000000000000000000000000000000000000000000 DUP2 MSTORE PUSH1 0x4 ADD PUSH2 0x191B SWAP1 PUSH2 0x355C JUMP JUMPDEST PUSH1 0x40 MLOAD DUP1 SWAP2 SUB SWAP1 REVERT JUMPDEST DUP2 PUSH1 0x27 PUSH1 0x0 PUSH2 0x100 EXP DUP2 SLOAD DUP2 PUSH1 0xFF MUL NOT AND SWAP1 DUP4 ISZERO ISZERO MUL OR SWAP1 SSTORE POP DUP1 PUSH1 0x28 DUP2 SWAP1 SSTORE POP POP POP JUMP JUMPDEST PUSH16 0xFFFFFFFFFFFFFFFFFFFFFFFFFFFFFFFF DUP1 AND DUP2 JUMP JUMPDEST PUSH1 0x13 PUSH1 0x0 SWAP1 SLOAD SWAP1 PUSH2 0x100 EXP SWAP1 DIV PUSH20 0xFFFFFFFFFFFFFFFFFFFFFFFFFFFFFFFFFFFFFFFF AND DUP2 JUMP JUMPDEST PUSH2 0x198E CALLER PUSH2 0x117D JUMP JUMPDEST PUSH2 0x19CD JUMPI PUSH1 0x40 MLOAD PUSH32 0x8C379A000000000000000000000000000000000000000000000000000000000 DUP2 MSTORE PUSH1 0x4 ADD PUSH2 0x19C4 SWAP1 PUSH2 0x353C JUMP JUMPDEST PUSH1 0x40 MLOAD DUP1 SWAP2 SUB SWAP1 REVERT JUMPDEST PUSH1 0x0 PUSH1 0x1 PUSH1 0x0 DUP4 PUSH20 0xFFFFFFFFFFFFFFFFFFFFFFFFFFFFFFFFFFFFFFFF AND PUSH20 0xFFFFFFFFFFFFFFFFFFFFFFFFFFFFFFFFFFFFFFFF AND DUP2 MSTORE PUSH1 0x20 ADD SWAP1 DUP2 MSTORE PUSH1 0x20 ADD PUSH1 0x0 KECCAK256 PUSH1 0x0 PUSH2 0x100 EXP DUP2 SLOAD DUP2 PUSH1 0xFF MUL NOT AND SWAP1 DUP4 ISZERO ISZERO MUL OR SWAP1 SSTORE POP POP JUMP JUMPDEST PUSH1 0x0 NUMBER PUSH1 0x1 PUSH1 0x18 SLOAD PUSH2 0x1A3A SWAP2 SWAP1 PUSH2 0x368A JUMP JUMPDEST LT PUSH2 0x1A5C JUMPI PUSH2 0x1A55 PUSH1 0x1 PUSH1 0x11 SLOAD PUSH2 0x2049 SWAP1 SWAP2 SWAP1 PUSH4 0xFFFFFFFF AND JUMP JUMPDEST SWAP1 POP PUSH2 0x1A77 JUMP JUMPDEST DUP2 ISZERO PUSH2 0x1A71 JUMPI PUSH2 0x1A6A PUSH2 0x172E JUMP JUMPDEST SWAP1 POP PUSH2 0x1A77 JUMP JUMPDEST PUSH1 0x10 SLOAD SWAP1 POP JUMPDEST SWAP2 SWAP1 POP JUMP JUMPDEST PUSH2 0x1A85 CALLER PUSH2 0x117D JUMP JUMPDEST PUSH2 0x1AC4 JUMPI PUSH1 0x40 MLOAD PUSH32 0x8C379A000000000000000000000000000000000000000000000000000000000 DUP2 MSTORE PUSH1 0x4 ADD PUSH2 0x1ABB SWAP1 PUSH2 0x353C JUMP JUMPDEST PUSH1 0x40 MLOAD DUP1 SWAP2 SUB SWAP1 REVERT JUMPDEST DUP1 PUSH1 0x0 DUP1 PUSH2 0x100 EXP DUP2 SLOAD DUP2 PUSH20 0xFFFFFFFFFFFFFFFFFFFFFFFFFFFFFFFFFFFFFFFF MUL NOT AND SWAP1 DUP4 PUSH20 0xFFFFFFFFFFFFFFFFFFFFFFFFFFFFFFFFFFFFFFFF AND MUL OR SWAP1 SSTORE POP PUSH1 0x1 DUP1 PUSH1 0x0 DUP4 PUSH20 0xFFFFFFFFFFFFFFFFFFFFFFFFFFFFFFFFFFFFFFFF AND PUSH20 0xFFFFFFFFFFFFFFFFFFFFFFFFFFFFFFFFFFFFFFFF AND DUP2 MSTORE PUSH1 0x20 ADD SWAP1 DUP2 MSTORE PUSH1 0x20 ADD PUSH1 0x0 KECCAK256 PUSH1 0x0 PUSH2 0x100 EXP DUP2 SLOAD DUP2 PUSH1 0xFF MUL NOT AND SWAP1 DUP4 ISZERO ISZERO MUL OR SWAP1 SSTORE POP PUSH32 0x4DBA622D284ED0014EE4B9A6A68386BE1A4C08A4913AE272DE89199CC686163 DUP2 PUSH1 0x40 MLOAD PUSH2 0x1B8A SWAP2 SWAP1 PUSH2 0x33DC JUMP JUMPDEST PUSH1 0x40 MLOAD DUP1 SWAP2 SUB SWAP1 LOG1 POP JUMP JUMPDEST PUSH2 0x1B9E CALLER PUSH2 0x1D1D JUMP JUMPDEST PUSH2 0x1BDD JUMPI PUSH1 0x40 MLOAD PUSH32 0x8C379A000000000000000000000000000000000000000000000000000000000 DUP2 MSTORE PUSH1 0x4 ADD PUSH2 0x1BD4 SWAP1 PUSH2 0x355C JUMP JUMPDEST PUSH1 0x40 MLOAD DUP1 SWAP2 SUB SWAP1 REVERT JUMPDEST PUSH2 0x1C09 DUP3 PUSH1 0x4 PUSH1 0x0 SWAP1 SLOAD SWAP1 PUSH2 0x100 EXP SWAP1 DIV PUSH20 0xFFFFFFFFFFFFFFFFFFFFFFFFFFFFFFFFFFFFFFFF AND PUSH2 0x2075 JUMP JUMPDEST DUP1 ISZERO PUSH2 0x1C50 JUMPI TIMESTAMP PUSH1 0x1C DUP2 SWAP1 SSTORE POP PUSH32 0x39D2389EC5C1FA77B2C0D374BC61B6D7BD97CCBA280FCDEB4E9C7644898D7C3A PUSH1 0x1D SLOAD PUSH1 0x40 MLOAD PUSH2 0x1C47 SWAP2 SWAP1 PUSH2 0x357C JUMP JUMPDEST PUSH1 0x40 MLOAD DUP1 SWAP2 SUB SWAP1 LOG1 JUMPDEST POP POP JUMP JUMPDEST PUSH2 0x1C5D CALLER PUSH2 0x1D1D JUMP JUMPDEST PUSH2 0x1C9C JUMPI PUSH1 0x40 MLOAD PUSH32 0x8C379A000000000000000000000000000000000000000000000000000000000 DUP2 MSTORE PUSH1 0x4 ADD PUSH2 0x1C93 SWAP1 PUSH2 0x355C JUMP JUMPDEST PUSH1 0x40 MLOAD DUP1 SWAP2 SUB SWAP1 REVERT JUMPDEST DUP1 PUSH1 0xC PUSH1 0x0 DUP5 PUSH20 0xFFFFFFFFFFFFFFFFFFFFFFFFFFFFFFFFFFFFFFFF AND PUSH20 0xFFFFFFFFFFFFFFFFFFFFFFFFFFFFFFFFFFFFFFFF AND DUP2 MSTORE PUSH1 0x20 ADD SWAP1 DUP2 MSTORE PUSH1 0x20 ADD PUSH1 0x0 KECCAK256 PUSH1 0x0 PUSH2 0x100 EXP DUP2 SLOAD DUP2 PUSH1 0xFF MUL NOT AND SWAP1 DUP4 ISZERO ISZERO MUL OR SWAP1 SSTORE POP POP POP JUMP JUMPDEST PUSH1 0x16 PUSH1 0x0 SWAP1 SLOAD SWAP1 PUSH2 0x100 EXP SWAP1 DIV PUSH20 0xFFFFFFFFFFFFFFFFFFFFFFFFFFFFFFFFFFFFFFFF AND DUP2 JUMP JUMPDEST PUSH1 0x0 PUSH1 0x1 PUSH1 0x0 DUP4 PUSH20 0xFFFFFFFFFFFFFFFFFFFFFFFFFFFFFFFFFFFFFFFF AND PUSH20 0xFFFFFFFFFFFFFFFFFFFFFFFFFFFFFFFFFFFFFFFF AND DUP2 MSTORE PUSH1 0x20 ADD SWAP1 DUP2 MSTORE PUSH1 0x20 ADD PUSH1 0x0 KECCAK256 PUSH1 0x0 SWAP1 SLOAD SWAP1 PUSH2 0x100 EXP SWAP1 DIV PUSH1 0xFF AND SWAP1 POP SWAP2 SWAP1 POP JUMP JUMPDEST PUSH1 0x0 DUP2 DUP4 PUSH2 0x1D81 SWAP2 SWAP1 PUSH2 0x36E0 JUMP JUMPDEST SWAP1 POP SWAP3 SWAP2 POP POP JUMP JUMPDEST PUSH1 0x0 DUP2 DUP4 PUSH2 0x1D97 SWAP2 SWAP1 PUSH2 0x368A JUMP JUMPDEST SWAP1 POP SWAP3 SWAP2 POP POP JUMP JUMPDEST PUSH1 0x0 DUP4 DUP4 GT ISZERO DUP3 SWAP1 PUSH2 0x1DE7 JUMPI PUSH1 0x40 MLOAD PUSH32 0x8C379A000000000000000000000000000000000000000000000000000000000 DUP2 MSTORE PUSH1 0x4 ADD PUSH2 0x1DDE SWAP2 SWAP1 PUSH2 0x34DA JUMP JUMPDEST PUSH1 0x40 MLOAD DUP1 SWAP2 SUB SWAP1 REVERT JUMPDEST POP DUP3 DUP5 SUB SWAP1 POP SWAP4 SWAP3 POP POP POP JUMP JUMPDEST PUSH1 0x0 PUSH1 0x29 PUSH1 0x0 SWAP1 SLOAD SWAP1 PUSH2 0x100 EXP SWAP1 DIV PUSH1 0xFF AND ISZERO PUSH2 0x1E1D JUMPI PUSH2 0x1E16 DUP5 DUP5 DUP5 PUSH2 0x22C5 JUMP JUMPDEST SWAP1 POP PUSH2 0x2042 JUMP JUMPDEST PUSH2 0x1E27 DUP5 DUP4 PUSH2 0x2433 JUMP JUMPDEST PUSH2 0x1E2F PUSH2 0x24D0 JUMP JUMPDEST ISZERO PUSH2 0x1E3D JUMPI PUSH2 0x1E3C PUSH2 0x25A7 JUMP JUMPDEST JUMPDEST PUSH2 0x1E45 PUSH2 0x2AB1 JUMP JUMPDEST ISZERO PUSH2 0x1E53 JUMPI PUSH2 0x1E52 PUSH2 0x2B64 JUMP JUMPDEST JUMPDEST PUSH2 0x1EDC DUP3 PUSH1 0x40 MLOAD DUP1 PUSH1 0x40 ADD PUSH1 0x40 MSTORE DUP1 PUSH1 0x14 DUP2 MSTORE PUSH1 0x20 ADD PUSH32 0x496E73756666696369656E742042616C616E6365000000000000000000000000 DUP2 MSTORE POP PUSH1 0x9 PUSH1 0x0 DUP9 PUSH20 0xFFFFFFFFFFFFFFFFFFFFFFFFFFFFFFFFFFFFFFFF AND PUSH20 0xFFFFFFFFFFFFFFFFFFFFFFFFFFFFFFFFFFFFFFFF AND DUP2 MSTORE PUSH1 0x20 ADD SWAP1 DUP2 MSTORE PUSH1 0x20 ADD PUSH1 0x0 KECCAK256 SLOAD PUSH2 0x1D9F SWAP1 SWAP3 SWAP2 SWAP1 PUSH4 0xFFFFFFFF AND JUMP JUMPDEST PUSH1 0x9 PUSH1 0x0 DUP7 PUSH20 0xFFFFFFFFFFFFFFFFFFFFFFFFFFFFFFFFFFFFFFFF AND PUSH20 0xFFFFFFFFFFFFFFFFFFFFFFFFFFFFFFFFFFFFFFFF AND DUP2 MSTORE PUSH1 0x20 ADD SWAP1 DUP2 MSTORE PUSH1 0x20 ADD PUSH1 0x0 KECCAK256 DUP2 SWAP1 SSTORE POP PUSH1 0x0 PUSH2 0x1F2A DUP6 PUSH2 0x2BE0 JUMP JUMPDEST PUSH2 0x1F34 JUMPI DUP3 PUSH2 0x1F40 JUMP JUMPDEST PUSH2 0x1F3F DUP6 DUP6 DUP6 PUSH2 0x2C37 JUMP JUMPDEST JUMPDEST SWAP1 POP PUSH2 0x1F94 DUP2 PUSH1 0x9 PUSH1 0x0 DUP8 PUSH20 0xFFFFFFFFFFFFFFFFFFFFFFFFFFFFFFFFFFFFFFFF AND PUSH20 0xFFFFFFFFFFFFFFFFFFFFFFFFFFFFFFFFFFFFFFFF AND DUP2 MSTORE PUSH1 0x20 ADD SWAP1 DUP2 MSTORE PUSH1 0x20 ADD PUSH1 0x0 KECCAK256 SLOAD PUSH2 0x1D89 SWAP1 SWAP2 SWAP1 PUSH4 0xFFFFFFFF AND JUMP JUMPDEST PUSH1 0x9 PUSH1 0x0 DUP7 PUSH20 0xFFFFFFFFFFFFFFFFFFFFFFFFFFFFFFFFFFFFFFFF AND PUSH20 0xFFFFFFFFFFFFFFFFFFFFFFFFFFFFFFFFFFFFFFFF AND DUP2 MSTORE PUSH1 0x20 ADD SWAP1 DUP2 MSTORE PUSH1 0x20 ADD PUSH1 0x0 KECCAK256 DUP2 SWAP1 SSTORE POP DUP4 PUSH20 0xFFFFFFFFFFFFFFFFFFFFFFFFFFFFFFFFFFFFFFFF AND DUP6 PUSH20 0xFFFFFFFFFFFFFFFFFFFFFFFFFFFFFFFFFFFFFFFF AND PUSH32 0xDDF252AD1BE2C89B69C2B068FC378DAA952BA7F163C4A11628F55A4DF523B3EF DUP4 PUSH1 0x40 MLOAD PUSH2 0x2034 SWAP2 SWAP1 PUSH2 0x357C JUMP JUMPDEST PUSH1 0x40 MLOAD DUP1 SWAP2 SUB SWAP1 LOG3 PUSH1 0x1 SWAP2 POP POP JUMPDEST SWAP4 SWAP3 POP POP POP JUMP JUMPDEST PUSH1 0x0 DUP2 DUP4 PUSH2 0x2057 SWAP2 SWAP1 PUSH2 0x376B JUMP JUMPDEST SWAP1 POP SWAP3 SWAP2 POP POP JUMP JUMPDEST PUSH1 0x0 DUP2 DUP4 PUSH2 0x206D SWAP2 SWAP1 PUSH2 0x3711 JUMP JUMPDEST SWAP1 POP SWAP3 SWAP2 POP POP JUMP JUMPDEST PUSH1 0x1 PUSH1 0x29 PUSH1 0x0 PUSH2 0x100 EXP DUP2 SLOAD DUP2 PUSH1 0xFF MUL NOT AND SWAP1 DUP4 ISZERO ISZERO MUL OR SWAP1 SSTORE POP PUSH1 0x0 PUSH1 0x2 PUSH8 0xFFFFFFFFFFFFFFFF DUP2 GT ISZERO PUSH2 0x20D3 JUMPI PUSH32 0x4E487B7100000000000000000000000000000000000000000000000000000000 PUSH1 0x0 MSTORE PUSH1 0x41 PUSH1 0x4 MSTORE PUSH1 0x24 PUSH1 0x0 REVERT JUMPDEST PUSH1 0x40 MLOAD SWAP1 DUP1 DUP3 MSTORE DUP1 PUSH1 0x20 MUL PUSH1 0x20 ADD DUP3 ADD PUSH1 0x40 MSTORE DUP1 ISZERO PUSH2 0x2101 JUMPI DUP2 PUSH1 0x20 ADD PUSH1 0x20 DUP3 MUL DUP1 CALLDATASIZE DUP4 CALLDATACOPY DUP1 DUP3 ADD SWAP2 POP POP SWAP1 POP JUMPDEST POP SWAP1 POP PUSH1 0x3 PUSH1 0x0 SWAP1 SLOAD SWAP1 PUSH2 0x100 EXP SWAP1 DIV PUSH20 0xFFFFFFFFFFFFFFFFFFFFFFFFFFFFFFFFFFFFFFFF AND DUP2 PUSH1 0x0 DUP2 MLOAD DUP2 LT PUSH2 0x2161 JUMPI PUSH32 0x4E487B7100000000000000000000000000000000000000000000000000000000 PUSH1 0x0 MSTORE PUSH1 0x32 PUSH1 0x4 MSTORE PUSH1 0x24 PUSH1 0x0 REVERT JUMPDEST PUSH1 0x20 MUL PUSH1 0x20 ADD ADD SWAP1 PUSH20 0xFFFFFFFFFFFFFFFFFFFFFFFFFFFFFFFFFFFFFFFF AND SWAP1 DUP2 PUSH20 0xFFFFFFFFFFFFFFFFFFFFFFFFFFFFFFFFFFFFFFFF AND DUP2 MSTORE POP POP ADDRESS DUP2 PUSH1 0x1 DUP2 MLOAD DUP2 LT PUSH2 0x21D6 JUMPI PUSH32 0x4E487B7100000000000000000000000000000000000000000000000000000000 PUSH1 0x0 MSTORE PUSH1 0x32 PUSH1 0x4 MSTORE PUSH1 0x24 PUSH1 0x0 REVERT JUMPDEST PUSH1 0x20 MUL PUSH1 0x20 ADD ADD SWAP1 PUSH20 0xFFFFFFFFFFFFFFFFFFFFFFFFFFFFFFFFFFFFFFFF AND SWAP1 DUP2 PUSH20 0xFFFFFFFFFFFFFFFFFFFFFFFFFFFFFFFFFFFFFFFF AND DUP2 MSTORE POP POP PUSH1 0x16 PUSH1 0x0 SWAP1 SLOAD SWAP1 PUSH2 0x100 EXP SWAP1 DIV PUSH20 0xFFFFFFFFFFFFFFFFFFFFFFFFFFFFFFFFFFFFFFFF AND PUSH20 0xFFFFFFFFFFFFFFFFFFFFFFFFFFFFFFFFFFFFFFFF AND PUSH4 0xB6F9DE95 DUP5 PUSH1 0x0 DUP5 DUP7 TIMESTAMP PUSH1 0x40 MLOAD DUP7 PUSH4 0xFFFFFFFF AND PUSH1 0xE0 SHL DUP2 MSTORE PUSH1 0x4 ADD PUSH2 0x2273 SWAP5 SWAP4 SWAP3 SWAP2 SWAP1 PUSH2 0x348E JUMP JUMPDEST PUSH1 0x0 PUSH1 0x40 MLOAD DUP1 DUP4 SUB DUP2 DUP6 DUP9 DUP1 EXTCODESIZE ISZERO DUP1 ISZERO PUSH2 0x228C JUMPI PUSH1 0x0 DUP1 REVERT JUMPDEST POP GAS CALL ISZERO DUP1 ISZERO PUSH2 0x22A0 JUMPI RETURNDATASIZE PUSH1 0x0 DUP1 RETURNDATACOPY RETURNDATASIZE PUSH1 0x0 REVERT JUMPDEST POP POP POP POP POP POP PUSH1 0x0 PUSH1 0x29 PUSH1 0x0 PUSH2 0x100 EXP DUP2 SLOAD DUP2 PUSH1 0xFF MUL NOT AND SWAP1 DUP4 ISZERO ISZERO MUL OR SWAP1 SSTORE POP POP POP JUMP JUMPDEST PUSH1 0x0 PUSH2 0x2350 DUP3 PUSH1 0x40 MLOAD DUP1 PUSH1 0x40 ADD PUSH1 0x40 MSTORE DUP1 PUSH1 0x14 DUP2 MSTORE PUSH1 0x20 ADD PUSH32 0x496E73756666696369656E742042616C616E6365000000000000000000000000 DUP2 MSTORE POP PUSH1 0x9 PUSH1 0x0 DUP9 PUSH20 0xFFFFFFFFFFFFFFFFFFFFFFFFFFFFFFFFFFFFFFFF AND PUSH20 0xFFFFFFFFFFFFFFFFFFFFFFFFFFFFFFFFFFFFFFFF AND DUP2 MSTORE PUSH1 0x20 ADD SWAP1 DUP2 MSTORE PUSH1 0x20 ADD PUSH1 0x0 KECCAK256 SLOAD PUSH2 0x1D9F SWAP1 SWAP3 SWAP2 SWAP1 PUSH4 0xFFFFFFFF AND JUMP JUMPDEST PUSH1 0x9 PUSH1 0x0 DUP7 PUSH20 0xFFFFFFFFFFFFFFFFFFFFFFFFFFFFFFFFFFFFFFFF AND PUSH20 0xFFFFFFFFFFFFFFFFFFFFFFFFFFFFFFFFFFFFFFFF AND DUP2 MSTORE PUSH1 0x20 ADD SWAP1 DUP2 MSTORE PUSH1 0x20 ADD PUSH1 0x0 KECCAK256 DUP2 SWAP1 SSTORE POP PUSH2 0x23E5 DUP3 PUSH1 0x9 PUSH1 0x0 DUP7 PUSH20 0xFFFFFFFFFFFFFFFFFFFFFFFFFFFFFFFFFFFFFFFF AND PUSH20 0xFFFFFFFFFFFFFFFFFFFFFFFFFFFFFFFFFFFFFFFF AND DUP2 MSTORE PUSH1 0x20 ADD SWAP1 DUP2 MSTORE PUSH1 0x20 ADD PUSH1 0x0 KECCAK256 SLOAD PUSH2 0x1D89 SWAP1 SWAP2 SWAP1 PUSH4 0xFFFFFFFF AND JUMP JUMPDEST PUSH1 0x9 PUSH1 0x0 DUP6 PUSH20 0xFFFFFFFFFFFFFFFFFFFFFFFFFFFFFFFFFFFFFFFF AND PUSH20 0xFFFFFFFFFFFFFFFFFFFFFFFFFFFFFFFFFFFFFFFF AND DUP2 MSTORE PUSH1 0x20 ADD SWAP1 DUP2 MSTORE PUSH1 0x20 ADD PUSH1 0x0 KECCAK256 DUP2 SWAP1 SSTORE POP PUSH1 0x1 SWAP1 POP SWAP4 SWAP3 POP POP POP JUMP JUMPDEST PUSH1 0x8 SLOAD DUP2 GT ISZERO DUP1 PUSH2 0x248D JUMPI POP PUSH1 0xC PUSH1 0x0 DUP4 PUSH20 0xFFFFFFFFFFFFFFFFFFFFFFFFFFFFFFFFFFFFFFFF AND PUSH20 0xFFFFFFFFFFFFFFFFFFFFFFFFFFFFFFFFFFFFFFFF AND DUP2 MSTORE PUSH1 0x20 ADD SWAP1 DUP2 MSTORE PUSH1 0x20 ADD PUSH1 0x0 KECCAK256 PUSH1 0x0 SWAP1 SLOAD SWAP1 PUSH2 0x100 EXP SWAP1 DIV PUSH1 0xFF AND JUMPDEST PUSH2 0x24CC JUMPI PUSH1 0x40 MLOAD PUSH32 0x8C379A000000000000000000000000000000000000000000000000000000000 DUP2 MSTORE PUSH1 0x4 ADD PUSH2 0x24C3 SWAP1 PUSH2 0x34FC JUMP JUMPDEST PUSH1 0x40 MLOAD DUP1 SWAP2 SUB SWAP1 REVERT JUMPDEST POP POP JUMP JUMPDEST PUSH1 0x0 PUSH1 0x17 PUSH1 0x0 SWAP1 SLOAD SWAP1 PUSH2 0x100 EXP SWAP1 DIV PUSH20 0xFFFFFFFFFFFFFFFFFFFFFFFFFFFFFFFFFFFFFFFF AND PUSH20 0xFFFFFFFFFFFFFFFFFFFFFFFFFFFFFFFFFFFFFFFF AND CALLER PUSH20 0xFFFFFFFFFFFFFFFFFFFFFFFFFFFFFFFFFFFFFFFF AND EQ ISZERO DUP1 ISZERO PUSH2 0x253D JUMPI POP PUSH1 0x29 PUSH1 0x0 SWAP1 SLOAD SWAP1 PUSH2 0x100 EXP SWAP1 DIV PUSH1 0xFF AND ISZERO JUMPDEST DUP1 ISZERO PUSH2 0x2555 JUMPI POP PUSH1 0x27 PUSH1 0x0 SWAP1 SLOAD SWAP1 PUSH2 0x100 EXP SWAP1 DIV PUSH1 0xFF AND JUMPDEST DUP1 ISZERO PUSH2 0x25A2 JUMPI POP PUSH1 0x28 SLOAD PUSH1 0x9 PUSH1 0x0 ADDRESS PUSH20 0xFFFFFFFFFFFFFFFFFFFFFFFFFFFFFFFFFFFFFFFF AND PUSH20 0xFFFFFFFFFFFFFFFFFFFFFFFFFFFFFFFFFFFFFFFF AND DUP2 MSTORE PUSH1 0x20 ADD SWAP1 DUP2 MSTORE PUSH1 0x20 ADD PUSH1 0x0 KECCAK256 SLOAD LT ISZERO JUMPDEST SWAP1 POP SWAP1 JUMP JUMPDEST PUSH1 0x1 PUSH1 0x29 PUSH1 0x0 PUSH2 0x100 EXP DUP2 SLOAD DUP2 PUSH1 0xFF MUL NOT AND SWAP1 DUP4 ISZERO ISZERO MUL OR SWAP1 SSTORE POP PUSH1 0x0 PUSH2 0x25D2 PUSH1 0x14 SLOAD PUSH1 0x15 SLOAD PUSH2 0xE1A JUMP JUMPDEST PUSH2 0x25DE JUMPI PUSH1 0xE SLOAD PUSH2 0x25E1 JUMP JUMPDEST PUSH1 0x0 JUMPDEST SWAP1 POP PUSH1 0x0 PUSH2 0x2621 PUSH1 0x2 PUSH2 0x2613 PUSH1 0x10 SLOAD PUSH2 0x2605 DUP7 PUSH1 0x28 SLOAD PUSH2 0x205F SWAP1 SWAP2 SWAP1 PUSH4 0xFFFFFFFF AND JUMP JUMPDEST PUSH2 0x1D73 SWAP1 SWAP2 SWAP1 PUSH4 0xFFFFFFFF AND JUMP JUMPDEST PUSH2 0x1D73 SWAP1 SWAP2 SWAP1 PUSH4 0xFFFFFFFF AND JUMP JUMPDEST SWAP1 POP PUSH1 0x0 PUSH2 0x263A DUP3 PUSH1 0x28 SLOAD PUSH2 0x2049 SWAP1 SWAP2 SWAP1 PUSH4 0xFFFFFFFF AND JUMP JUMPDEST SWAP1 POP PUSH1 0x0 PUSH1 0x2 PUSH8 0xFFFFFFFFFFFFFFFF DUP2 GT ISZERO PUSH2 0x267F JUMPI PUSH32 0x4E487B7100000000000000000000000000000000000000000000000000000000 PUSH1 0x0 MSTORE PUSH1 0x41 PUSH1 0x4 MSTORE PUSH1 0x24 PUSH1 0x0 REVERT JUMPDEST PUSH1 0x40 MLOAD SWAP1 DUP1 DUP3 MSTORE DUP1 PUSH1 0x20 MUL PUSH1 0x20 ADD DUP3 ADD PUSH1 0x40 MSTORE DUP1 ISZERO PUSH2 0x26AD JUMPI DUP2 PUSH1 0x20 ADD PUSH1 0x20 DUP3 MUL DUP1 CALLDATASIZE DUP4 CALLDATACOPY DUP1 DUP3 ADD SWAP2 POP POP SWAP1 POP JUMPDEST POP SWAP1 POP ADDRESS DUP2 PUSH1 0x0 DUP2 MLOAD DUP2 LT PUSH2 0x26EB JUMPI PUSH32 0x4E487B7100000000000000000000000000000000000000000000000000000000 PUSH1 0x0 MSTORE PUSH1 0x32 PUSH1 0x4 MSTORE PUSH1 0x24 PUSH1 0x0 REVERT JUMPDEST PUSH1 0x20 MUL PUSH1 0x20 ADD ADD SWAP1 PUSH20 0xFFFFFFFFFFFFFFFFFFFFFFFFFFFFFFFFFFFFFFFF AND SWAP1 DUP2 PUSH20 0xFFFFFFFFFFFFFFFFFFFFFFFFFFFFFFFFFFFFFFFF AND DUP2 MSTORE POP POP PUSH1 0x3 PUSH1 0x0 SWAP1 SLOAD SWAP1 PUSH2 0x100 EXP SWAP1 DIV PUSH20 0xFFFFFFFFFFFFFFFFFFFFFFFFFFFFFFFFFFFFFFFF AND DUP2 PUSH1 0x1 DUP2 MLOAD DUP2 LT PUSH2 0x2782 JUMPI PUSH32 0x4E487B7100000000000000000000000000000000000000000000000000000000 PUSH1 0x0 MSTORE PUSH1 0x32 PUSH1 0x4 MSTORE PUSH1 0x24 PUSH1 0x0 REVERT JUMPDEST PUSH1 0x20 MUL PUSH1 0x20 ADD ADD SWAP1 PUSH20 0xFFFFFFFFFFFFFFFFFFFFFFFFFFFFFFFFFFFFFFFF AND SWAP1 DUP2 PUSH20 0xFFFFFFFFFFFFFFFFFFFFFFFFFFFFFFFFFFFFFFFF AND DUP2 MSTORE POP POP PUSH1 0x0 SELFBALANCE SWAP1 POP PUSH1 0x16 PUSH1 0x0 SWAP1 SLOAD SWAP1 PUSH2 0x100 EXP SWAP1 DIV PUSH20 0xFFFFFFFFFFFFFFFFFFFFFFFFFFFFFFFFFFFFFFFF AND PUSH20 0xFFFFFFFFFFFFFFFFFFFFFFFFFFFFFFFFFFFFFFFF AND PUSH4 0x791AC947 DUP5 PUSH1 0x0 DUP6 ADDRESS TIMESTAMP PUSH1 0x40 MLOAD DUP7 PUSH4 0xFFFFFFFF AND PUSH1 0xE0 SHL DUP2 MSTORE PUSH1 0x4 ADD PUSH2 0x2825 SWAP6 SWAP5 SWAP4 SWAP3 SWAP2 SWAP1 PUSH2 0x3597 JUMP JUMPDEST PUSH1 0x0 PUSH1 0x40 MLOAD DUP1 DUP4 SUB DUP2 PUSH1 0x0 DUP8 DUP1 EXTCODESIZE ISZERO DUP1 ISZERO PUSH2 0x283F JUMPI PUSH1 0x0 DUP1 REVERT JUMPDEST POP GAS CALL ISZERO DUP1 ISZERO PUSH2 0x2853 JUMPI RETURNDATASIZE PUSH1 0x0 DUP1 RETURNDATACOPY RETURNDATASIZE PUSH1 0x0 REVERT JUMPDEST POP POP POP POP PUSH1 0x0 PUSH2 0x286C DUP3 SELFBALANCE PUSH2 0x2049 SWAP1 SWAP2 SWAP1 PUSH4 0xFFFFFFFF AND JUMP JUMPDEST SWAP1 POP PUSH1 0x0 PUSH2 0x2898 PUSH2 0x2887 PUSH1 0x2 DUP10 PUSH2 0x1D73 SWAP1 SWAP2 SWAP1 PUSH4 0xFFFFFFFF AND JUMP JUMPDEST PUSH1 0x10 SLOAD PUSH2 0x2049 SWAP1 SWAP2 SWAP1 PUSH4 0xFFFFFFFF AND JUMP JUMPDEST SWAP1 POP PUSH1 0x0 PUSH2 0x28D4 PUSH1 0x2 PUSH2 0x28C6 DUP5 PUSH2 0x28B8 DUP13 DUP9 PUSH2 0x205F SWAP1 SWAP2 SWAP1 PUSH4 0xFFFFFFFF AND JUMP JUMPDEST PUSH2 0x1D73 SWAP1 SWAP2 SWAP1 PUSH4 0xFFFFFFFF AND JUMP JUMPDEST PUSH2 0x1D73 SWAP1 SWAP2 SWAP1 PUSH4 0xFFFFFFFF AND JUMP JUMPDEST SWAP1 POP PUSH1 0x0 PUSH2 0x28FF DUP4 PUSH2 0x28F1 PUSH1 0xF SLOAD DUP8 PUSH2 0x205F SWAP1 SWAP2 SWAP1 PUSH4 0xFFFFFFFF AND JUMP JUMPDEST PUSH2 0x1D73 SWAP1 SWAP2 SWAP1 PUSH4 0xFFFFFFFF AND JUMP JUMPDEST SWAP1 POP PUSH1 0x13 PUSH1 0x0 SWAP1 SLOAD SWAP1 PUSH2 0x100 EXP SWAP1 DIV PUSH20 0xFFFFFFFFFFFFFFFFFFFFFFFFFFFFFFFFFFFFFFFF AND PUSH20 0xFFFFFFFFFFFFFFFFFFFFFFFFFFFFFFFFFFFFFFFF AND PUSH2 0x8FC DUP3 SWAP1 DUP2 ISZERO MUL SWAP1 PUSH1 0x40 MLOAD PUSH1 0x0 PUSH1 0x40 MLOAD DUP1 DUP4 SUB DUP2 DUP6 DUP9 DUP9 CALL SWAP4 POP POP POP POP ISZERO DUP1 ISZERO PUSH2 0x2969 JUMPI RETURNDATASIZE PUSH1 0x0 DUP1 RETURNDATACOPY RETURNDATASIZE PUSH1 0x0 REVERT JUMPDEST POP PUSH1 0x0 DUP9 GT ISZERO PUSH2 0x2A8B JUMPI PUSH1 0x16 PUSH1 0x0 SWAP1 SLOAD SWAP1 PUSH2 0x100 EXP SWAP1 DIV PUSH20 0xFFFFFFFFFFFFFFFFFFFFFFFFFFFFFFFFFFFFFFFF AND PUSH20 0xFFFFFFFFFFFFFFFFFFFFFFFFFFFFFFFFFFFFFFFF AND PUSH4 0xF305D719 DUP4 ADDRESS DUP12 PUSH1 0x0 DUP1 PUSH1 0x12 PUSH1 0x0 SWAP1 SLOAD SWAP1 PUSH2 0x100 EXP SWAP1 DIV PUSH20 0xFFFFFFFFFFFFFFFFFFFFFFFFFFFFFFFFFFFFFFFF AND TIMESTAMP PUSH1 0x40 MLOAD DUP9 PUSH4 0xFFFFFFFF AND PUSH1 0xE0 SHL DUP2 MSTORE PUSH1 0x4 ADD PUSH2 0x29FC SWAP7 SWAP6 SWAP5 SWAP4 SWAP3 SWAP2 SWAP1 PUSH2 0x33F7 JUMP JUMPDEST PUSH1 0x60 PUSH1 0x40 MLOAD DUP1 DUP4 SUB DUP2 DUP6 DUP9 DUP1 EXTCODESIZE ISZERO DUP1 ISZERO PUSH2 0x2A15 JUMPI PUSH1 0x0 DUP1 REVERT JUMPDEST POP GAS CALL ISZERO DUP1 ISZERO PUSH2 0x2A29 JUMPI RETURNDATASIZE PUSH1 0x0 DUP1 RETURNDATACOPY RETURNDATASIZE PUSH1 0x0 REVERT JUMPDEST POP POP POP POP POP PUSH1 0x40 MLOAD RETURNDATASIZE PUSH1 0x1F NOT PUSH1 0x1F DUP3 ADD AND DUP3 ADD DUP1 PUSH1 0x40 MSTORE POP DUP2 ADD SWAP1 PUSH2 0x2A4E SWAP2 SWAP1 PUSH2 0x3148 JUMP JUMPDEST POP POP POP PUSH32 0x424DB2872186FA7E7AFA7A5E902ED3B49A2EF19C2F5431E672462495DD6B4506 DUP3 DUP10 PUSH1 0x40 MLOAD PUSH2 0x2A82 SWAP3 SWAP2 SWAP1 PUSH2 0x35F1 JUMP JUMPDEST PUSH1 0x40 MLOAD DUP1 SWAP2 SUB SWAP1 LOG1 JUMPDEST POP POP POP POP POP POP POP POP POP PUSH1 0x0 PUSH1 0x29 PUSH1 0x0 PUSH2 0x100 EXP DUP2 SLOAD DUP2 PUSH1 0xFF MUL NOT AND SWAP1 DUP4 ISZERO ISZERO MUL OR SWAP1 SSTORE POP JUMP JUMPDEST PUSH1 0x0 PUSH1 0x17 PUSH1 0x0 SWAP1 SLOAD SWAP1 PUSH2 0x100 EXP SWAP1 DIV PUSH20 0xFFFFFFFFFFFFFFFFFFFFFFFFFFFFFFFFFFFFFFFF AND PUSH20 0xFFFFFFFFFFFFFFFFFFFFFFFFFFFFFFFFFFFFFFFF AND CALLER PUSH20 0xFFFFFFFFFFFFFFFFFFFFFFFFFFFFFFFFFFFFFFFF AND EQ ISZERO DUP1 ISZERO PUSH2 0x2B1E JUMPI POP PUSH1 0x29 PUSH1 0x0 SWAP1 SLOAD SWAP1 PUSH2 0x100 EXP SWAP1 DIV PUSH1 0xFF AND ISZERO JUMPDEST DUP1 ISZERO PUSH2 0x2B36 JUMPI POP PUSH1 0x1E PUSH1 0x0 SWAP1 SLOAD SWAP1 PUSH2 0x100 EXP SWAP1 DIV PUSH1 0xFF AND JUMPDEST DUP1 ISZERO PUSH2 0x2B51 JUMPI POP NUMBER PUSH1 0x23 SLOAD PUSH1 0x24 SLOAD PUSH2 0x2B4E SWAP2 SWAP1 PUSH2 0x368A JUMP JUMPDEST GT ISZERO JUMPDEST DUP1 ISZERO PUSH2 0x2B5F JUMPI POP PUSH1 0x22 SLOAD SELFBALANCE LT ISZERO JUMPDEST SWAP1 POP SWAP1 JUMP JUMPDEST PUSH2 0x2B92 PUSH1 0x22 SLOAD PUSH1 0x4 PUSH1 0x0 SWAP1 SLOAD SWAP1 PUSH2 0x100 EXP SWAP1 DIV PUSH20 0xFFFFFFFFFFFFFFFFFFFFFFFFFFFFFFFFFFFFFFFF AND PUSH2 0x2075 JUMP JUMPDEST NUMBER PUSH1 0x24 DUP2 SWAP1 SSTORE POP PUSH2 0x2BB0 PUSH1 0x22 SLOAD PUSH1 0x21 SLOAD PUSH2 0x1D89 SWAP1 SWAP2 SWAP1 PUSH4 0xFFFFFFFF AND JUMP JUMPDEST PUSH1 0x21 DUP2 SWAP1 SSTORE POP PUSH1 0x20 SLOAD PUSH1 0x21 SLOAD GT ISZERO PUSH2 0x2BDE JUMPI PUSH1 0x0 PUSH1 0x1E PUSH1 0x0 PUSH2 0x100 EXP DUP2 SLOAD DUP2 PUSH1 0xFF MUL NOT AND SWAP1 DUP4 ISZERO ISZERO MUL OR SWAP1 SSTORE POP JUMPDEST JUMP JUMPDEST PUSH1 0x0 PUSH1 0xB PUSH1 0x0 DUP4 PUSH20 0xFFFFFFFFFFFFFFFFFFFFFFFFFFFFFFFFFFFFFFFF AND PUSH20 0xFFFFFFFFFFFFFFFFFFFFFFFFFFFFFFFFFFFFFFFF AND DUP2 MSTORE PUSH1 0x20 ADD SWAP1 DUP2 MSTORE PUSH1 0x20 ADD PUSH1 0x0 KECCAK256 PUSH1 0x0 SWAP1 SLOAD SWAP1 PUSH2 0x100 EXP SWAP1 DIV PUSH1 0xFF AND ISZERO SWAP1 POP SWAP2 SWAP1 POP JUMP JUMPDEST PUSH1 0x0 DUP1 PUSH2 0x2CB9 PUSH1 0x11 SLOAD PUSH2 0x2CAB PUSH2 0x2C9C PUSH1 0x17 PUSH1 0x0 SWAP1 SLOAD SWAP1 PUSH2 0x100 EXP SWAP1 DIV PUSH20 0xFFFFFFFFFFFFFFFFFFFFFFFFFFFFFFFFFFFFFFFF AND PUSH20 0xFFFFFFFFFFFFFFFFFFFFFFFFFFFFFFFFFFFFFFFF AND DUP9 PUSH20 0xFFFFFFFFFFFFFFFFFFFFFFFFFFFFFFFFFFFFFFFF AND EQ PUSH2 0x1A28 JUMP JUMPDEST DUP7 PUSH2 0x205F SWAP1 SWAP2 SWAP1 PUSH4 0xFFFFFFFF AND JUMP JUMPDEST PUSH2 0x1D73 SWAP1 SWAP2 SWAP1 PUSH4 0xFFFFFFFF AND JUMP JUMPDEST SWAP1 POP PUSH2 0x2D0D DUP2 PUSH1 0x9 PUSH1 0x0 ADDRESS PUSH20 0xFFFFFFFFFFFFFFFFFFFFFFFFFFFFFFFFFFFFFFFF AND PUSH20 0xFFFFFFFFFFFFFFFFFFFFFFFFFFFFFFFFFFFFFFFF AND DUP2 MSTORE PUSH1 0x20 ADD SWAP1 DUP2 MSTORE PUSH1 0x20 ADD PUSH1 0x0 KECCAK256 SLOAD PUSH2 0x1D89 SWAP1 SWAP2 SWAP1 PUSH4 0xFFFFFFFF AND JUMP JUMPDEST PUSH1 0x9 PUSH1 0x0 ADDRESS PUSH20 0xFFFFFFFFFFFFFFFFFFFFFFFFFFFFFFFFFFFFFFFF AND PUSH20 0xFFFFFFFFFFFFFFFFFFFFFFFFFFFFFFFFFFFFFFFF AND DUP2 MSTORE PUSH1 0x20 ADD SWAP1 DUP2 MSTORE PUSH1 0x20 ADD PUSH1 0x0 KECCAK256 DUP2 SWAP1 SSTORE POP ADDRESS PUSH20 0xFFFFFFFFFFFFFFFFFFFFFFFFFFFFFFFFFFFFFFFF AND DUP6 PUSH20 0xFFFFFFFFFFFFFFFFFFFFFFFFFFFFFFFFFFFFFFFF AND PUSH32 0xDDF252AD1BE2C89B69C2B068FC378DAA952BA7F163C4A11628F55A4DF523B3EF DUP4 PUSH1 0x40 MLOAD PUSH2 0x2DAD SWAP2 SWAP1 PUSH2 0x357C JUMP JUMPDEST PUSH1 0x40 MLOAD DUP1 SWAP2 SUB SWAP1 LOG3 PUSH2 0x2DC8 DUP2 DUP5 PUSH2 0x2049 SWAP1 SWAP2 SWAP1 PUSH4 0xFFFFFFFF AND JUMP JUMPDEST SWAP2 POP POP SWAP4 SWAP3 POP POP POP JUMP JUMPDEST PUSH1 0x0 DUP2 CALLDATALOAD SWAP1 POP PUSH2 0x2DE1 DUP2 PUSH2 0x39B8 JUMP JUMPDEST SWAP3 SWAP2 POP POP JUMP JUMPDEST PUSH1 0x0 DUP2 CALLDATALOAD SWAP1 POP PUSH2 0x2DF6 DUP2 PUSH2 0x39CF JUMP JUMPDEST SWAP3 SWAP2 POP POP JUMP JUMPDEST PUSH1 0x0 DUP2 CALLDATALOAD SWAP1 POP PUSH2 0x2E0B DUP2 PUSH2 0x39E6 JUMP JUMPDEST SWAP3 SWAP2 POP POP JUMP JUMPDEST PUSH1 0x0 DUP2 CALLDATALOAD SWAP1 POP PUSH2 0x2E20 DUP2 PUSH2 0x39FD JUMP JUMPDEST SWAP3 SWAP2 POP POP JUMP JUMPDEST PUSH1 0x0 DUP2 MLOAD SWAP1 POP PUSH2 0x2E35 DUP2 PUSH2 0x39FD JUMP JUMPDEST SWAP3 SWAP2 POP POP JUMP JUMPDEST PUSH1 0x0 PUSH1 0x20 DUP3 DUP5 SUB SLT ISZERO PUSH2 0x2E4D JUMPI PUSH1 0x0 DUP1 REVERT JUMPDEST PUSH1 0x0 PUSH2 0x2E5B DUP5 DUP3 DUP6 ADD PUSH2 0x2DD2 JUMP JUMPDEST SWAP2 POP POP SWAP3 SWAP2 POP POP JUMP JUMPDEST PUSH1 0x0 PUSH1 0x20 DUP3 DUP5 SUB SLT ISZERO PUSH2 0x2E76 JUMPI PUSH1 0x0 DUP1 REVERT JUMPDEST PUSH1 0x0 PUSH2 0x2E84 DUP5 DUP3 DUP6 ADD PUSH2 0x2DE7 JUMP JUMPDEST SWAP2 POP POP SWAP3 SWAP2 POP POP JUMP JUMPDEST PUSH1 0x0 DUP1 PUSH1 0x40 DUP4 DUP6 SUB SLT ISZERO PUSH2 0x2EA0 JUMPI PUSH1 0x0 DUP1 REVERT JUMPDEST PUSH1 0x0 PUSH2 0x2EAE DUP6 DUP3 DUP7 ADD PUSH2 0x2DD2 JUMP JUMPDEST SWAP3 POP POP PUSH1 0x20 PUSH2 0x2EBF DUP6 DUP3 DUP7 ADD PUSH2 0x2DD2 JUMP JUMPDEST SWAP2 POP POP SWAP3 POP SWAP3 SWAP1 POP JUMP JUMPDEST PUSH1 0x0 DUP1 PUSH1 0x0 PUSH1 0x60 DUP5 DUP7 SUB SLT ISZERO PUSH2 0x2EDE JUMPI PUSH1 0x0 DUP1 REVERT JUMPDEST PUSH1 0x0 PUSH2 0x2EEC DUP7 DUP3 DUP8 ADD PUSH2 0x2DD2 JUMP JUMPDEST SWAP4 POP POP PUSH1 0x20 PUSH2 0x2EFD DUP7 DUP3 DUP8 ADD PUSH2 0x2DD2 JUMP JUMPDEST SWAP3 POP POP PUSH1 0x40 PUSH2 0x2F0E DUP7 DUP3 DUP8 ADD PUSH2 0x2E11 JUMP JUMPDEST SWAP2 POP POP SWAP3 POP SWAP3 POP SWAP3 JUMP JUMPDEST PUSH1 0x0 DUP1 PUSH1 0x40 DUP4 DUP6 SUB SLT ISZERO PUSH2 0x2F2B JUMPI PUSH1 0x0 DUP1 REVERT JUMPDEST PUSH1 0x0 PUSH2 0x2F39 DUP6 DUP3 DUP7 ADD PUSH2 0x2DD2 JUMP JUMPDEST SWAP3 POP POP PUSH1 0x20 PUSH2 0x2F4A DUP6 DUP3 DUP7 ADD PUSH2 0x2DFC JUMP JUMPDEST SWAP2 POP POP SWAP3 POP SWAP3 SWAP1 POP JUMP JUMPDEST PUSH1 0x0 DUP1 PUSH1 0x40 DUP4 DUP6 SUB SLT ISZERO PUSH2 0x2F67 JUMPI PUSH1 0x0 DUP1 REVERT JUMPDEST PUSH1 0x0 PUSH2 0x2F75 DUP6 DUP3 DUP7 ADD PUSH2 0x2DD2 JUMP JUMPDEST SWAP3 POP POP PUSH1 0x20 PUSH2 0x2F86 DUP6 DUP3 DUP7 ADD PUSH2 0x2E11 JUMP JUMPDEST SWAP2 POP POP SWAP3 POP SWAP3 SWAP1 POP JUMP JUMPDEST PUSH1 0x0 PUSH1 0x20 DUP3 DUP5 SUB SLT ISZERO PUSH2 0x2FA2 JUMPI PUSH1 0x0 DUP1 REVERT JUMPDEST PUSH1 0x0 PUSH2 0x2FB0 DUP5 DUP3 DUP6 ADD PUSH2 0x2DFC JUMP JUMPDEST SWAP2 POP POP SWAP3 SWAP2 POP POP JUMP JUMPDEST PUSH1 0x0 DUP1 PUSH1 0x40 DUP4 DUP6 SUB SLT ISZERO PUSH2 0x2FCC JUMPI PUSH1 0x0 DUP1 REVERT JUMPDEST PUSH1 0x0 PUSH2 0x2FDA DUP6 DUP3 DUP7 ADD PUSH2 0x2DFC JUMP JUMPDEST SWAP3 POP POP PUSH1 0x20 PUSH2 0x2FEB DUP6 DUP3 DUP7 ADD PUSH2 0x2E11 JUMP JUMPDEST SWAP2 POP POP SWAP3 POP SWAP3 SWAP1 POP JUMP JUMPDEST PUSH1 0x0 DUP1 PUSH1 0x0 DUP1 PUSH1 0x80 DUP6 DUP8 SUB SLT ISZERO PUSH2 0x300B JUMPI PUSH1 0x0 DUP1 REVERT JUMPDEST PUSH1 0x0 PUSH2 0x3019 DUP8 DUP3 DUP9 ADD PUSH2 0x2DFC JUMP JUMPDEST SWAP5 POP POP PUSH1 0x20 PUSH2 0x302A DUP8 DUP3 DUP9 ADD PUSH2 0x2E11 JUMP JUMPDEST SWAP4 POP POP PUSH1 0x40 PUSH2 0x303B DUP8 DUP3 DUP9 ADD PUSH2 0x2E11 JUMP JUMPDEST SWAP3 POP POP PUSH1 0x60 PUSH2 0x304C DUP8 DUP3 DUP9 ADD PUSH2 0x2E11 JUMP JUMPDEST SWAP2 POP POP SWAP3 SWAP6 SWAP2 SWAP5 POP SWAP3 POP JUMP JUMPDEST PUSH1 0x0 PUSH1 0x20 DUP3 DUP5 SUB SLT ISZERO PUSH2 0x306A JUMPI PUSH1 0x0 DUP1 REVERT JUMPDEST PUSH1 0x0 PUSH2 0x3078 DUP5 DUP3 DUP6 ADD PUSH2 0x2E11 JUMP JUMPDEST SWAP2 POP POP SWAP3 SWAP2 POP POP JUMP JUMPDEST PUSH1 0x0 DUP1 PUSH1 0x40 DUP4 DUP6 SUB SLT ISZERO PUSH2 0x3094 JUMPI PUSH1 0x0 DUP1 REVERT JUMPDEST PUSH1 0x0 PUSH2 0x30A2 DUP6 DUP3 DUP7 ADD PUSH2 0x2E11 JUMP JUMPDEST SWAP3 POP POP PUSH1 0x20 PUSH2 0x30B3 DUP6 DUP3 DUP7 ADD PUSH2 0x2DFC JUMP JUMPDEST SWAP2 POP POP SWAP3 POP SWAP3 SWAP1 POP JUMP JUMPDEST PUSH1 0x0 DUP1 PUSH1 0x40 DUP4 DUP6 SUB SLT ISZERO PUSH2 0x30D0 JUMPI PUSH1 0x0 DUP1 REVERT JUMPDEST PUSH1 0x0 PUSH2 0x30DE DUP6 DUP3 DUP7 ADD PUSH2 0x2E11 JUMP JUMPDEST SWAP3 POP POP PUSH1 0x20 PUSH2 0x30EF DUP6 DUP3 DUP7 ADD PUSH2 0x2E11 JUMP JUMPDEST SWAP2 POP POP SWAP3 POP SWAP3 SWAP1 POP JUMP JUMPDEST PUSH1 0x0 DUP1 PUSH1 0x0 PUSH1 0x60 DUP5 DUP7 SUB SLT ISZERO PUSH2 0x310E JUMPI PUSH1 0x0 DUP1 REVERT JUMPDEST PUSH1 0x0 PUSH2 0x311C DUP7 DUP3 DUP8 ADD PUSH2 0x2E11 JUMP JUMPDEST SWAP4 POP POP PUSH1 0x20 PUSH2 0x312D DUP7 DUP3 DUP8 ADD PUSH2 0x2E11 JUMP JUMPDEST SWAP3 POP POP PUSH1 0x40 PUSH2 0x313E DUP7 DUP3 DUP8 ADD PUSH2 0x2E11 JUMP JUMPDEST SWAP2 POP POP SWAP3 POP SWAP3 POP SWAP3 JUMP JUMPDEST PUSH1 0x0 DUP1 PUSH1 0x0 PUSH1 0x60 DUP5 DUP7 SUB SLT ISZERO PUSH2 0x315D JUMPI PUSH1 0x0 DUP1 REVERT JUMPDEST PUSH1 0x0 PUSH2 0x316B DUP7 DUP3 DUP8 ADD PUSH2 0x2E26 JUMP JUMPDEST SWAP4 POP POP PUSH1 0x20 PUSH2 0x317C DUP7 DUP3 DUP8 ADD PUSH2 0x2E26 JUMP JUMPDEST SWAP3 POP POP PUSH1 0x40 PUSH2 0x318D DUP7 DUP3 DUP8 ADD PUSH2 0x2E26 JUMP JUMPDEST SWAP2 POP POP SWAP3 POP SWAP3 POP SWAP3 JUMP JUMPDEST PUSH1 0x0 DUP1 PUSH1 0x0 DUP1 PUSH1 0x0 PUSH1 0xA0 DUP7 DUP9 SUB SLT ISZERO PUSH2 0x31AF JUMPI PUSH1 0x0 DUP1 REVERT JUMPDEST PUSH1 0x0 PUSH2 0x31BD DUP9 DUP3 DUP10 ADD PUSH2 0x2E11 JUMP JUMPDEST SWAP6 POP POP PUSH1 0x20 PUSH2 0x31CE DUP9 DUP3 DUP10 ADD PUSH2 0x2E11 JUMP JUMPDEST SWAP5 POP POP PUSH1 0x40 PUSH2 0x31DF DUP9 DUP3 DUP10 ADD PUSH2 0x2E11 JUMP JUMPDEST SWAP4 POP POP PUSH1 0x60 PUSH2 0x31F0 DUP9 DUP3 DUP10 ADD PUSH2 0x2E11 JUMP JUMPDEST SWAP3 POP POP PUSH1 0x80 PUSH2 0x3201 DUP9 DUP3 DUP10 ADD PUSH2 0x2E11 JUMP JUMPDEST SWAP2 POP POP SWAP3 SWAP6 POP SWAP3 SWAP6 SWAP1 SWAP4 POP JUMP JUMPDEST PUSH1 0x0 PUSH2 0x321A DUP4 DUP4 PUSH2 0x3235 JUMP JUMPDEST PUSH1 0x20 DUP4 ADD SWAP1 POP SWAP3 SWAP2 POP POP JUMP JUMPDEST PUSH2 0x322F DUP2 PUSH2 0x3806 JUMP JUMPDEST DUP3 MSTORE POP POP JUMP JUMPDEST PUSH2 0x323E DUP2 PUSH2 0x379F JUMP JUMPDEST DUP3 MSTORE POP POP JUMP JUMPDEST PUSH2 0x324D DUP2 PUSH2 0x379F JUMP JUMPDEST DUP3 MSTORE POP POP JUMP JUMPDEST PUSH1 0x0 PUSH2 0x325E DUP3 PUSH2 0x3645 JUMP JUMPDEST PUSH2 0x3268 DUP2 DUP6 PUSH2 0x3668 JUMP JUMPDEST SWAP4 POP PUSH2 0x3273 DUP4 PUSH2 0x3635 JUMP JUMPDEST DUP1 PUSH1 0x0 JUMPDEST DUP4 DUP2 LT ISZERO PUSH2 0x32A4 JUMPI DUP2 MLOAD PUSH2 0x328B DUP9 DUP3 PUSH2 0x320E JUMP JUMPDEST SWAP8 POP PUSH2 0x3296 DUP4 PUSH2 0x365B JUMP JUMPDEST SWAP3 POP POP PUSH1 0x1 DUP2 ADD SWAP1 POP PUSH2 0x3277 JUMP JUMPDEST POP DUP6 SWAP4 POP POP POP POP SWAP3 SWAP2 POP POP JUMP JUMPDEST PUSH2 0x32BA DUP2 PUSH2 0x37C3 JUMP JUMPDEST DUP3 MSTORE POP POP JUMP JUMPDEST PUSH2 0x32C9 DUP2 PUSH2 0x3818 JUMP JUMPDEST DUP3 MSTORE POP POP JUMP JUMPDEST PUSH2 0x32D8 DUP2 PUSH2 0x383C JUMP JUMPDEST DUP3 MSTORE POP POP JUMP JUMPDEST PUSH1 0x0 PUSH2 0x32E9 DUP3 PUSH2 0x3650 JUMP JUMPDEST PUSH2 0x32F3 DUP2 DUP6 PUSH2 0x3679 JUMP JUMPDEST SWAP4 POP PUSH2 0x3303 DUP2 DUP6 PUSH1 0x20 DUP7 ADD PUSH2 0x3872 JUMP JUMPDEST PUSH2 0x330C DUP2 PUSH2 0x3903 JUMP JUMPDEST DUP5 ADD SWAP2 POP POP SWAP3 SWAP2 POP POP JUMP JUMPDEST PUSH1 0x0 PUSH2 0x3324 PUSH1 0x11 DUP4 PUSH2 0x3679 JUMP JUMPDEST SWAP2 POP PUSH2 0x332F DUP3 PUSH2 0x3914 JUMP JUMPDEST PUSH1 0x20 DUP3 ADD SWAP1 POP SWAP2 SWAP1 POP JUMP JUMPDEST PUSH1 0x0 PUSH2 0x3347 PUSH1 0x14 DUP4 PUSH2 0x3679 JUMP JUMPDEST SWAP2 POP PUSH2 0x3352 DUP3 PUSH2 0x393D JUMP JUMPDEST PUSH1 0x20 DUP3 ADD SWAP1 POP SWAP2 SWAP1 POP JUMP JUMPDEST PUSH1 0x0 PUSH2 0x336A PUSH1 0x6 DUP4 PUSH2 0x3679 JUMP JUMPDEST SWAP2 POP PUSH2 0x3375 DUP3 PUSH2 0x3966 JUMP JUMPDEST PUSH1 0x20 DUP3 ADD SWAP1 POP SWAP2 SWAP1 POP JUMP JUMPDEST PUSH1 0x0 PUSH2 0x338D PUSH1 0xB DUP4 PUSH2 0x3679 JUMP JUMPDEST SWAP2 POP PUSH2 0x3398 DUP3 PUSH2 0x398F JUMP JUMPDEST PUSH1 0x20 DUP3 ADD SWAP1 POP SWAP2 SWAP1 POP JUMP JUMPDEST PUSH2 0x33AC DUP2 PUSH2 0x37EF JUMP JUMPDEST DUP3 MSTORE POP POP JUMP JUMPDEST PUSH2 0x33BB DUP2 PUSH2 0x37F9 JUMP JUMPDEST DUP3 MSTORE POP POP JUMP JUMPDEST PUSH1 0x0 PUSH1 0x20 DUP3 ADD SWAP1 POP PUSH2 0x33D6 PUSH1 0x0 DUP4 ADD DUP5 PUSH2 0x3244 JUMP JUMPDEST SWAP3 SWAP2 POP POP JUMP JUMPDEST PUSH1 0x0 PUSH1 0x20 DUP3 ADD SWAP1 POP PUSH2 0x33F1 PUSH1 0x0 DUP4 ADD DUP5 PUSH2 0x3226 JUMP JUMPDEST SWAP3 SWAP2 POP POP JUMP JUMPDEST PUSH1 0x0 PUSH1 0xC0 DUP3 ADD SWAP1 POP PUSH2 0x340C PUSH1 0x0 DUP4 ADD DUP10 PUSH2 0x3244 JUMP JUMPDEST PUSH2 0x3419 PUSH1 0x20 DUP4 ADD DUP9 PUSH2 0x33A3 JUMP JUMPDEST PUSH2 0x3426 PUSH1 0x40 DUP4 ADD DUP8 PUSH2 0x32CF JUMP JUMPDEST PUSH2 0x3433 PUSH1 0x60 DUP4 ADD DUP7 PUSH2 0x32CF JUMP JUMPDEST PUSH2 0x3440 PUSH1 0x80 DUP4 ADD DUP6 PUSH2 0x3244 JUMP JUMPDEST PUSH2 0x344D PUSH1 0xA0 DUP4 ADD DUP5 PUSH2 0x33A3 JUMP JUMPDEST SWAP8 SWAP7 POP POP POP POP POP POP POP JUMP JUMPDEST PUSH1 0x0 PUSH1 0x20 DUP3 ADD SWAP1 POP PUSH2 0x346D PUSH1 0x0 DUP4 ADD DUP5 PUSH2 0x32B1 JUMP JUMPDEST SWAP3 SWAP2 POP POP JUMP JUMPDEST PUSH1 0x0 PUSH1 0x20 DUP3 ADD SWAP1 POP PUSH2 0x3488 PUSH1 0x0 DUP4 ADD DUP5 PUSH2 0x32C0 JUMP JUMPDEST SWAP3 SWAP2 POP POP JUMP JUMPDEST PUSH1 0x0 PUSH1 0x80 DUP3 ADD SWAP1 POP PUSH2 0x34A3 PUSH1 0x0 DUP4 ADD DUP8 PUSH2 0x32CF JUMP JUMPDEST DUP2 DUP2 SUB PUSH1 0x20 DUP4 ADD MSTORE PUSH2 0x34B5 DUP2 DUP7 PUSH2 0x3253 JUMP JUMPDEST SWAP1 POP PUSH2 0x34C4 PUSH1 0x40 DUP4 ADD DUP6 PUSH2 0x3244 JUMP JUMPDEST PUSH2 0x34D1 PUSH1 0x60 DUP4 ADD DUP5 PUSH2 0x33A3 JUMP JUMPDEST SWAP6 SWAP5 POP POP POP POP POP JUMP JUMPDEST PUSH1 0x0 PUSH1 0x20 DUP3 ADD SWAP1 POP DUP2 DUP2 SUB PUSH1 0x0 DUP4 ADD MSTORE PUSH2 0x34F4 DUP2 DUP5 PUSH2 0x32DE JUMP JUMPDEST SWAP1 POP SWAP3 SWAP2 POP POP JUMP JUMPDEST PUSH1 0x0 PUSH1 0x20 DUP3 ADD SWAP1 POP DUP2 DUP2 SUB PUSH1 0x0 DUP4 ADD MSTORE PUSH2 0x3515 DUP2 PUSH2 0x3317 JUMP JUMPDEST SWAP1 POP SWAP2 SWAP1 POP JUMP JUMPDEST PUSH1 0x0 PUSH1 0x20 DUP3 ADD SWAP1 POP DUP2 DUP2 SUB PUSH1 0x0 DUP4 ADD MSTORE PUSH2 0x3535 DUP2 PUSH2 0x333A JUMP JUMPDEST SWAP1 POP SWAP2 SWAP1 POP JUMP JUMPDEST PUSH1 0x0 PUSH1 0x20 DUP3 ADD SWAP1 POP DUP2 DUP2 SUB PUSH1 0x0 DUP4 ADD MSTORE PUSH2 0x3555 DUP2 PUSH2 0x335D JUMP JUMPDEST SWAP1 POP SWAP2 SWAP1 POP JUMP JUMPDEST PUSH1 0x0 PUSH1 0x20 DUP3 ADD SWAP1 POP DUP2 DUP2 SUB PUSH1 0x0 DUP4 ADD MSTORE PUSH2 0x3575 DUP2 PUSH2 0x3380 JUMP JUMPDEST SWAP1 POP SWAP2 SWAP1 POP JUMP JUMPDEST PUSH1 0x0 PUSH1 0x20 DUP3 ADD SWAP1 POP PUSH2 0x3591 PUSH1 0x0 DUP4 ADD DUP5 PUSH2 0x33A3 JUMP JUMPDEST SWAP3 SWAP2 POP POP JUMP JUMPDEST PUSH1 0x0 PUSH1 0xA0 DUP3 ADD SWAP1 POP PUSH2 0x35AC PUSH1 0x0 DUP4 ADD DUP9 PUSH2 0x33A3 JUMP JUMPDEST PUSH2 0x35B9 PUSH1 0x20 DUP4 ADD DUP8 PUSH2 0x32CF JUMP JUMPDEST DUP2 DUP2 SUB PUSH1 0x40 DUP4 ADD MSTORE PUSH2 0x35CB DUP2 DUP7 PUSH2 0x3253 JUMP JUMPDEST SWAP1 POP PUSH2 0x35DA PUSH1 0x60 DUP4 ADD DUP6 PUSH2 0x3244 JUMP JUMPDEST PUSH2 0x35E7 PUSH1 0x80 DUP4 ADD DUP5 PUSH2 0x33A3 JUMP JUMPDEST SWAP7 SWAP6 POP POP POP POP POP POP JUMP JUMPDEST PUSH1 0x0 PUSH1 0x40 DUP3 ADD SWAP1 POP PUSH2 0x3606 PUSH1 0x0 DUP4 ADD DUP6 PUSH2 0x33A3 JUMP JUMPDEST PUSH2 0x3613 PUSH1 0x20 DUP4 ADD DUP5 PUSH2 0x33A3 JUMP JUMPDEST SWAP4 SWAP3 POP POP POP JUMP JUMPDEST PUSH1 0x0 PUSH1 0x20 DUP3 ADD SWAP1 POP PUSH2 0x362F PUSH1 0x0 DUP4 ADD DUP5 PUSH2 0x33B2 JUMP JUMPDEST SWAP3 SWAP2 POP POP JUMP JUMPDEST PUSH1 0x0 DUP2 SWAP1 POP PUSH1 0x20 DUP3 ADD SWAP1 POP SWAP2 SWAP1 POP JUMP JUMPDEST PUSH1 0x0 DUP2 MLOAD SWAP1 POP SWAP2 SWAP1 POP JUMP JUMPDEST PUSH1 0x0 DUP2 MLOAD SWAP1 POP SWAP2 SWAP1 POP JUMP JUMPDEST PUSH1 0x0 PUSH1 0x20 DUP3 ADD SWAP1 POP SWAP2 SWAP1 POP JUMP JUMPDEST PUSH1 0x0 DUP3 DUP3 MSTORE PUSH1 0x20 DUP3 ADD SWAP1 POP SWAP3 SWAP2 POP POP JUMP JUMPDEST PUSH1 0x0 DUP3 DUP3 MSTORE PUSH1 0x20 DUP3 ADD SWAP1 POP SWAP3 SWAP2 POP POP JUMP JUMPDEST PUSH1 0x0 PUSH2 0x3695 DUP3 PUSH2 0x37EF JUMP JUMPDEST SWAP2 POP PUSH2 0x36A0 DUP4 PUSH2 0x37EF JUMP JUMPDEST SWAP3 POP DUP3 PUSH32 0xFFFFFFFFFFFFFFFFFFFFFFFFFFFFFFFFFFFFFFFFFFFFFFFFFFFFFFFFFFFFFFFF SUB DUP3 GT ISZERO PUSH2 0x36D5 JUMPI PUSH2 0x36D4 PUSH2 0x38A5 JUMP JUMPDEST JUMPDEST DUP3 DUP3 ADD SWAP1 POP SWAP3 SWAP2 POP POP JUMP JUMPDEST PUSH1 0x0 PUSH2 0x36EB DUP3 PUSH2 0x37EF JUMP JUMPDEST SWAP2 POP PUSH2 0x36F6 DUP4 PUSH2 0x37EF JUMP JUMPDEST SWAP3 POP DUP3 PUSH2 0x3706 JUMPI PUSH2 0x3705 PUSH2 0x38D4 JUMP JUMPDEST JUMPDEST DUP3 DUP3 DIV SWAP1 POP SWAP3 SWAP2 POP POP JUMP JUMPDEST PUSH1 0x0 PUSH2 0x371C DUP3 PUSH2 0x37EF JUMP JUMPDEST SWAP2 POP PUSH2 0x3727 DUP4 PUSH2 0x37EF JUMP JUMPDEST SWAP3 POP DUP2 PUSH32 0xFFFFFFFFFFFFFFFFFFFFFFFFFFFFFFFFFFFFFFFFFFFFFFFFFFFFFFFFFFFFFFFF DIV DUP4 GT DUP3 ISZERO ISZERO AND ISZERO PUSH2 0x3760 JUMPI PUSH2 0x375F PUSH2 0x38A5 JUMP JUMPDEST JUMPDEST DUP3 DUP3 MUL SWAP1 POP SWAP3 SWAP2 POP POP JUMP JUMPDEST PUSH1 0x0 PUSH2 0x3776 DUP3 PUSH2 0x37EF JUMP JUMPDEST SWAP2 POP PUSH2 0x3781 DUP4 PUSH2 0x37EF JUMP JUMPDEST SWAP3 POP DUP3 DUP3 LT ISZERO PUSH2 0x3794 JUMPI PUSH2 0x3793 PUSH2 0x38A5 JUMP JUMPDEST JUMPDEST DUP3 DUP3 SUB SWAP1 POP SWAP3 SWAP2 POP POP JUMP JUMPDEST PUSH1 0x0 PUSH2 0x37AA DUP3 PUSH2 0x37CF JUMP JUMPDEST SWAP1 POP SWAP2 SWAP1 POP JUMP JUMPDEST PUSH1 0x0 PUSH2 0x37BC DUP3 PUSH2 0x37CF JUMP JUMPDEST SWAP1 POP SWAP2 SWAP1 POP JUMP JUMPDEST PUSH1 0x0 DUP2 ISZERO ISZERO SWAP1 POP SWAP2 SWAP1 POP JUMP JUMPDEST PUSH1 0x0 PUSH20 0xFFFFFFFFFFFFFFFFFFFFFFFFFFFFFFFFFFFFFFFF DUP3 AND SWAP1 POP SWAP2 SWAP1 POP JUMP JUMPDEST PUSH1 0x0 DUP2 SWAP1 POP SWAP2 SWAP1 POP JUMP JUMPDEST PUSH1 0x0 PUSH1 0xFF DUP3 AND SWAP1 POP SWAP2 SWAP1 POP JUMP JUMPDEST PUSH1 0x0 PUSH2 0x3811 DUP3 PUSH2 0x384E JUMP JUMPDEST SWAP1 POP SWAP2 SWAP1 POP JUMP JUMPDEST PUSH1 0x0 PUSH2 0x3823 DUP3 PUSH2 0x382A JUMP JUMPDEST SWAP1 POP SWAP2 SWAP1 POP JUMP JUMPDEST PUSH1 0x0 PUSH2 0x3835 DUP3 PUSH2 0x37CF JUMP JUMPDEST SWAP1 POP SWAP2 SWAP1 POP JUMP JUMPDEST PUSH1 0x0 PUSH2 0x3847 DUP3 PUSH2 0x37EF JUMP JUMPDEST SWAP1 POP SWAP2 SWAP1 POP JUMP JUMPDEST PUSH1 0x0 PUSH2 0x3859 DUP3 PUSH2 0x3860 JUMP JUMPDEST SWAP1 POP SWAP2 SWAP1 POP JUMP JUMPDEST PUSH1 0x0 PUSH2 0x386B DUP3 PUSH2 0x37CF JUMP JUMPDEST SWAP1 POP SWAP2 SWAP1 POP JUMP JUMPDEST PUSH1 0x0 JUMPDEST DUP4 DUP2 LT ISZERO PUSH2 0x3890 JUMPI DUP1 DUP3 ADD MLOAD DUP2 DUP5 ADD MSTORE PUSH1 0x20 DUP2 ADD SWAP1 POP PUSH2 0x3875 JUMP JUMPDEST DUP4 DUP2 GT ISZERO PUSH2 0x389F JUMPI PUSH1 0x0 DUP5 DUP5 ADD MSTORE JUMPDEST POP POP POP POP JUMP JUMPDEST PUSH32 0x4E487B7100000000000000000000000000000000000000000000000000000000 PUSH1 0x0 MSTORE PUSH1 0x11 PUSH1 0x4 MSTORE PUSH1 0x24 PUSH1 0x0 REVERT JUMPDEST PUSH32 0x4E487B7100000000000000000000000000000000000000000000000000000000 PUSH1 0x0 MSTORE PUSH1 0x12 PUSH1 0x4 MSTORE PUSH1 0x24 PUSH1 0x0 REVERT JUMPDEST PUSH1 0x0 PUSH1 0x1F NOT PUSH1 0x1F DUP4 ADD AND SWAP1 POP SWAP2 SWAP1 POP JUMP JUMPDEST PUSH32 0x5458204C696D6974204578636565646564000000000000000000000000000000 PUSH1 0x0 DUP3 ADD MSTORE POP JUMP JUMPDEST PUSH32 0x416C7265616479206C61756E6368656420626F69000000000000000000000000 PUSH1 0x0 DUP3 ADD MSTORE POP JUMP JUMPDEST PUSH32 0x214F574E45520000000000000000000000000000000000000000000000000000 PUSH1 0x0 DUP3 ADD MSTORE POP JUMP JUMPDEST PUSH32 0x21415554484F52495A4544000000000000000000000000000000000000000000 PUSH1 0x0 DUP3 ADD MSTORE POP JUMP JUMPDEST PUSH2 0x39C1 DUP2 PUSH2 0x379F JUMP JUMPDEST DUP2 EQ PUSH2 0x39CC JUMPI PUSH1 0x0 DUP1 REVERT JUMPDEST POP JUMP JUMPDEST PUSH2 0x39D8 DUP2 PUSH2 0x37B1 JUMP JUMPDEST DUP2 EQ PUSH2 0x39E3 JUMPI PUSH1 0x0 DUP1 REVERT JUMPDEST POP JUMP JUMPDEST PUSH2 0x39EF DUP2 PUSH2 0x37C3 JUMP JUMPDEST DUP2 EQ PUSH2 0x39FA JUMPI PUSH1 0x0 DUP1 REVERT JUMPDEST POP JUMP JUMPDEST PUSH2 0x3A06 DUP2 PUSH2 0x37EF JUMP JUMPDEST DUP2 EQ PUSH2 0x3A11 JUMPI PUSH1 0x0 DUP1 REVERT JUMPDEST POP JUMP INVALID LOG2 PUSH5 0x6970667358 0x22 SLT KECCAK256 SWAP3 PUSH7 0x7F4EE39D69F69A PUSH26 0x955E3D9D0214675A30552D34F475D3E37F7FEF72173464736F6C PUSH4 0x43000804 STOP CALLER "
				},
				"gasEstimates": {
					"creation": {
						"codeDepositCost": "2984400",
						"executionCost": "infinite",
						"totalCost": "infinite"
					},
					"external": {
						"MASK()": "446",
						"WBNB()": "1369",
						"_maxTxAmount()": "1240",
						"allowance(address,address)": "infinite",
						"approve(address,uint256)": "infinite",
						"approveMax(address)": "23784",
						"authorize(address)": "22392",
						"autoBuybackEnabled()": "1283",
						"autoLiquidityReceiver()": "1347",
						"balanceOf(address)": "1630",
						"clearBuybackMultiplier()": "6188",
						"decimals()": "433",
						"distributorAddress()": "1326",
						"getCirculatingSupply()": "infinite",
						"getLiquidityBacking(uint256)": "infinite",
						"getMultipliedFee()": "infinite",
						"getOwner()": "1355",
						"getTotalFee(bool)": "infinite",
						"isAuthorized(address)": "1737",
						"isOverLiquified(uint256,uint256)": "infinite",
						"isOwner(address)": "1579",
						"launch()": "42025",
						"launchedAt()": "1218",
						"launchedAtTimestamp()": "1240",
						"marketingFeeReceiver()": "1347",
						"name()": "infinite",
						"pair()": "1348",
						"router()": "1389",
						"setAutoBuybackSettings(bool,uint256,uint256,uint256)": "infinite",
						"setBuybackMultiplierSettings(uint256,uint256,uint256)": "infinite",
						"setDistributorSettings(uint256)": "21496",
						"setFeeReceivers(address,address)": "infinite",
						"setFees(uint256,uint256,uint256,uint256,uint256)": "infinite",
						"setIsFeeExempt(address,bool)": "22621",
						"setIsTxLimitExempt(address,bool)": "22686",
						"setSwapBackSettings(bool,uint256)": "42540",
						"setTargetLiquidity(uint256,uint256)": "infinite",
						"setTxLimit(uint256)": "infinite",
						"swapEnabled()": "1238",
						"swapThreshold()": "1198",
						"symbol()": "infinite",
						"totalSupply()": "1227",
						"transfer(address,uint256)": "infinite",
						"transferFrom(address,address,uint256)": "infinite",
						"transferOwnership(address)": "infinite",
						"triggerZeusBuyback(uint256,bool)": "infinite",
						"unauthorize(address)": "22480"
					},
					"internal": {
						"_basicTransfer(address,address,uint256)": "infinite",
						"_transferFrom(address,address,uint256)": "infinite",
						"buyTokens(uint256,address)": "infinite",
						"checkTxLimit(address,uint256)": "infinite",
						"launched()": "infinite",
						"shouldAutoBuyback()": "infinite",
						"shouldSwapBack()": "4333",
						"shouldTakeFee(address)": "963",
						"swapBack()": "infinite",
						"takeFee(address,address,uint256)": "infinite",
						"triggerAutoBuyback()": "infinite"
					}
				},
				"methodIdentifiers": {
					"MASK()": "e91f214e",
					"WBNB()": "8dd95002",
					"_maxTxAmount()": "7d1db4a5",
					"allowance(address,address)": "dd62ed3e",
					"approve(address,uint256)": "095ea7b3",
					"approveMax(address)": "571ac8b0",
					"authorize(address)": "b6a5d7de",
					"autoBuybackEnabled()": "3bb8a8d4",
					"autoLiquidityReceiver()": "ca33e64c",
					"balanceOf(address)": "70a08231",
					"clearBuybackMultiplier()": "b210b06d",
					"decimals()": "313ce567",
					"distributorAddress()": "a51af4c5",
					"getCirculatingSupply()": "2b112e49",
					"getLiquidityBacking(uint256)": "d51ed1c8",
					"getMultipliedFee()": "d806d12f",
					"getOwner()": "893d20e8",
					"getTotalFee(bool)": "f1f3bca3",
					"isAuthorized(address)": "fe9fbb80",
					"isOverLiquified(uint256,uint256)": "1161ae39",
					"isOwner(address)": "2f54bf6e",
					"launch()": "01339c21",
					"launchedAt()": "bf56b371",
					"launchedAtTimestamp()": "c6d2577d",
					"marketingFeeReceiver()": "e96fada2",
					"name()": "06fdde03",
					"pair()": "a8aa1b31",
					"router()": "f887ea40",
					"setAutoBuybackSettings(bool,uint256,uint256,uint256)": "048c7baf",
					"setBuybackMultiplierSettings(uint256,uint256,uint256)": "2375ce40",
					"setDistributorSettings(uint256)": "9d1944f5",
					"setFeeReceivers(address,address)": "a4b45c00",
					"setFees(uint256,uint256,uint256,uint256,uint256)": "04a66b48",
					"setIsFeeExempt(address,bool)": "658d4b7f",
					"setIsTxLimitExempt(address,bool)": "f84ba65d",
					"setSwapBackSettings(bool,uint256)": "df20fd49",
					"setTargetLiquidity(uint256,uint256)": "201e7991",
					"setTxLimit(uint256)": "5c85974f",
					"swapEnabled()": "6ddd1713",
					"swapThreshold()": "0445b667",
					"symbol()": "95d89b41",
					"totalSupply()": "18160ddd",
					"transfer(address,uint256)": "a9059cbb",
					"transferFrom(address,address,uint256)": "23b872dd",
					"transferOwnership(address)": "f2fde38b",
					"triggerZeusBuyback(uint256,bool)": "f5cfec0a",
					"unauthorize(address)": "f0b37c04"
				}
			},
			"storageLayout": {
				"storage": [
					{
						"astId": 387,
						"contract": "webtoken.sol:CookieCoin",
						"label": "owner",
						"offset": 0,
						"slot": "0",
						"type": "t_address"
					},
					{
						"astId": 391,
						"contract": "webtoken.sol:CookieCoin",
						"label": "authorizations",
						"offset": 0,
						"slot": "1",
						"type": "t_mapping(t_address,t_bool)"
					},
					{
						"astId": 641,
						"contract": "webtoken.sol:CookieCoin",
						"label": "BUSD",
						"offset": 0,
						"slot": "2",
						"type": "t_address"
					},
					{
						"astId": 644,
						"contract": "webtoken.sol:CookieCoin",
						"label": "WBNB",
						"offset": 0,
						"slot": "3",
						"type": "t_address"
					},
					{
						"astId": 647,
						"contract": "webtoken.sol:CookieCoin",
						"label": "DEAD",
						"offset": 0,
						"slot": "4",
						"type": "t_address"
					},
					{
						"astId": 650,
						"contract": "webtoken.sol:CookieCoin",
						"label": "ZERO",
						"offset": 0,
						"slot": "5",
						"type": "t_address"
					},
					{
						"astId": 653,
						"contract": "webtoken.sol:CookieCoin",
						"label": "DEAD_NON_CHECKSUM",
						"offset": 0,
						"slot": "6",
						"type": "t_address"
					},
					{
						"astId": 670,
						"contract": "webtoken.sol:CookieCoin",
						"label": "_totalSupply",
						"offset": 0,
						"slot": "7",
						"type": "t_uint256"
					},
					{
						"astId": 676,
						"contract": "webtoken.sol:CookieCoin",
						"label": "_maxTxAmount",
						"offset": 0,
						"slot": "8",
						"type": "t_uint256"
					},
					{
						"astId": 680,
						"contract": "webtoken.sol:CookieCoin",
						"label": "_balances",
						"offset": 0,
						"slot": "9",
						"type": "t_mapping(t_address,t_uint256)"
					},
					{
						"astId": 686,
						"contract": "webtoken.sol:CookieCoin",
						"label": "_allowances",
						"offset": 0,
						"slot": "10",
						"type": "t_mapping(t_address,t_mapping(t_address,t_uint256))"
					},
					{
						"astId": 690,
						"contract": "webtoken.sol:CookieCoin",
						"label": "isFeeExempt",
						"offset": 0,
						"slot": "11",
						"type": "t_mapping(t_address,t_bool)"
					},
					{
						"astId": 694,
						"contract": "webtoken.sol:CookieCoin",
						"label": "isTxLimitExempt",
						"offset": 0,
						"slot": "12",
						"type": "t_mapping(t_address,t_bool)"
					},
					{
						"astId": 698,
						"contract": "webtoken.sol:CookieCoin",
						"label": "isDividendExempt",
						"offset": 0,
						"slot": "13",
						"type": "t_mapping(t_address,t_bool)"
					},
					{
						"astId": 701,
						"contract": "webtoken.sol:CookieCoin",
						"label": "liquidityFee",
						"offset": 0,
						"slot": "14",
						"type": "t_uint256"
					},
					{
						"astId": 704,
						"contract": "webtoken.sol:CookieCoin",
						"label": "marketingFee",
						"offset": 0,
						"slot": "15",
						"type": "t_uint256"
					},
					{
						"astId": 707,
						"contract": "webtoken.sol:CookieCoin",
						"label": "totalFee",
						"offset": 0,
						"slot": "16",
						"type": "t_uint256"
					},
					{
						"astId": 710,
						"contract": "webtoken.sol:CookieCoin",
						"label": "feeDenominator",
						"offset": 0,
						"slot": "17",
						"type": "t_uint256"
					},
					{
						"astId": 712,
						"contract": "webtoken.sol:CookieCoin",
						"label": "autoLiquidityReceiver",
						"offset": 0,
						"slot": "18",
						"type": "t_address"
					},
					{
						"astId": 714,
						"contract": "webtoken.sol:CookieCoin",
						"label": "marketingFeeReceiver",
						"offset": 0,
						"slot": "19",
						"type": "t_address"
					},
					{
						"astId": 717,
						"contract": "webtoken.sol:CookieCoin",
						"label": "targetLiquidity",
						"offset": 0,
						"slot": "20",
						"type": "t_uint256"
					},
					{
						"astId": 720,
						"contract": "webtoken.sol:CookieCoin",
						"label": "targetLiquidityDenominator",
						"offset": 0,
						"slot": "21",
						"type": "t_uint256"
					},
					{
						"astId": 723,
						"contract": "webtoken.sol:CookieCoin",
						"label": "router",
						"offset": 0,
						"slot": "22",
						"type": "t_contract(IDEXRouter)624"
					},
					{
						"astId": 725,
						"contract": "webtoken.sol:CookieCoin",
						"label": "pair",
						"offset": 0,
						"slot": "23",
						"type": "t_address"
					},
					{
						"astId": 727,
						"contract": "webtoken.sol:CookieCoin",
						"label": "launchedAt",
						"offset": 0,
						"slot": "24",
						"type": "t_uint256"
					},
					{
						"astId": 729,
						"contract": "webtoken.sol:CookieCoin",
						"label": "launchedAtTimestamp",
						"offset": 0,
						"slot": "25",
						"type": "t_uint256"
					},
					{
						"astId": 732,
						"contract": "webtoken.sol:CookieCoin",
						"label": "buybackMultiplierNumerator",
						"offset": 0,
						"slot": "26",
						"type": "t_uint256"
					},
					{
						"astId": 735,
						"contract": "webtoken.sol:CookieCoin",
						"label": "buybackMultiplierDenominator",
						"offset": 0,
						"slot": "27",
						"type": "t_uint256"
					},
					{
						"astId": 737,
						"contract": "webtoken.sol:CookieCoin",
						"label": "buybackMultiplierTriggeredAt",
						"offset": 0,
						"slot": "28",
						"type": "t_uint256"
					},
					{
						"astId": 740,
						"contract": "webtoken.sol:CookieCoin",
						"label": "buybackMultiplierLength",
						"offset": 0,
						"slot": "29",
						"type": "t_uint256"
					},
					{
						"astId": 743,
						"contract": "webtoken.sol:CookieCoin",
						"label": "autoBuybackEnabled",
						"offset": 0,
						"slot": "30",
						"type": "t_bool"
					},
					{
						"astId": 747,
						"contract": "webtoken.sol:CookieCoin",
						"label": "buyBacker",
						"offset": 0,
						"slot": "31",
						"type": "t_mapping(t_address,t_bool)"
					},
					{
						"astId": 749,
						"contract": "webtoken.sol:CookieCoin",
						"label": "autoBuybackCap",
						"offset": 0,
						"slot": "32",
						"type": "t_uint256"
					},
					{
						"astId": 751,
						"contract": "webtoken.sol:CookieCoin",
						"label": "autoBuybackAccumulator",
						"offset": 0,
						"slot": "33",
						"type": "t_uint256"
					},
					{
						"astId": 753,
						"contract": "webtoken.sol:CookieCoin",
						"label": "autoBuybackAmount",
						"offset": 0,
						"slot": "34",
						"type": "t_uint256"
					},
					{
						"astId": 755,
						"contract": "webtoken.sol:CookieCoin",
						"label": "autoBuybackBlockPeriod",
						"offset": 0,
						"slot": "35",
						"type": "t_uint256"
					},
					{
						"astId": 757,
						"contract": "webtoken.sol:CookieCoin",
						"label": "autoBuybackBlockLast",
						"offset": 0,
						"slot": "36",
						"type": "t_uint256"
					},
					{
						"astId": 759,
						"contract": "webtoken.sol:CookieCoin",
						"label": "distributorAddress",
						"offset": 0,
						"slot": "37",
						"type": "t_address"
					},
					{
						"astId": 762,
						"contract": "webtoken.sol:CookieCoin",
						"label": "distributorGas",
						"offset": 0,
						"slot": "38",
						"type": "t_uint256"
					},
					{
						"astId": 765,
						"contract": "webtoken.sol:CookieCoin",
						"label": "swapEnabled",
						"offset": 0,
						"slot": "39",
						"type": "t_bool"
					},
					{
						"astId": 770,
						"contract": "webtoken.sol:CookieCoin",
						"label": "swapThreshold",
						"offset": 0,
						"slot": "40",
						"type": "t_uint256"
					},
					{
						"astId": 772,
						"contract": "webtoken.sol:CookieCoin",
						"label": "inSwap",
						"offset": 0,
						"slot": "41",
						"type": "t_bool"
					}
				],
				"types": {
					"t_address": {
						"encoding": "inplace",
						"label": "address",
						"numberOfBytes": "20"
					},
					"t_bool": {
						"encoding": "inplace",
						"label": "bool",
						"numberOfBytes": "1"
					},
					"t_contract(IDEXRouter)624": {
						"encoding": "inplace",
						"label": "contract IDEXRouter",
						"numberOfBytes": "20"
					},
					"t_mapping(t_address,t_bool)": {
						"encoding": "mapping",
						"key": "t_address",
						"label": "mapping(address => bool)",
						"numberOfBytes": "32",
						"value": "t_bool"
					},
					"t_mapping(t_address,t_mapping(t_address,t_uint256))": {
						"encoding": "mapping",
						"key": "t_address",
						"label": "mapping(address => mapping(address => uint256))",
						"numberOfBytes": "32",
						"value": "t_mapping(t_address,t_uint256)"
					},
					"t_mapping(t_address,t_uint256)": {
						"encoding": "mapping",
						"key": "t_address",
						"label": "mapping(address => uint256)",
						"numberOfBytes": "32",
						"value": "t_uint256"
					},
					"t_uint256": {
						"encoding": "inplace",
						"label": "uint256",
						"numberOfBytes": "32"
					}
				}
			},
			"userdoc": {
				"kind": "user",
				"methods": {
					"authorize(address)": {
						"notice": "Authorize address. Owner only"
					},
					"isAuthorized(address)": {
						"notice": "Return address' authorization status"
					},
					"isOwner(address)": {
						"notice": "Check if address is owner"
					},
					"transferOwnership(address)": {
						"notice": "Transfer ownership to new address. Caller must be owner. Leaves old owner authorized"
					},
					"unauthorize(address)": {
						"notice": "Remove address' authorization. Owner only"
					}
				},
				"version": 1
			}
		}
	}
}