{
	"bep-20.sol": {
		"Lost": {
			"abi": [
				{
					"inputs": [],
					"stateMutability": "nonpayable",
					"type": "constructor"
				},
				{
					"anonymous": false,
					"inputs": [
						{
							"indexed": true,
							"internalType": "address",
							"name": "owner",
							"type": "address"
						},
						{
							"indexed": true,
							"internalType": "address",
							"name": "spender",
							"type": "address"
						},
						{
							"indexed": false,
							"internalType": "uint256",
							"name": "value",
							"type": "uint256"
						}
					],
					"name": "Approval",
					"type": "event"
				},
				{
					"anonymous": false,
					"inputs": [
						{
							"indexed": true,
							"internalType": "uint256",
							"name": "epoch",
							"type": "uint256"
						},
						{
							"indexed": false,
							"internalType": "uint256",
							"name": "totalSupply",
							"type": "uint256"
						}
					],
					"name": "LogRebase",
					"type": "event"
				},
				{
					"anonymous": false,
					"inputs": [
						{
							"indexed": true,
							"internalType": "address",
							"name": "account",
							"type": "address"
						}
					],
					"name": "MinterAdded",
					"type": "event"
				},
				{
					"anonymous": false,
					"inputs": [
						{
							"indexed": true,
							"internalType": "address",
							"name": "account",
							"type": "address"
						}
					],
					"name": "MinterRemoved",
					"type": "event"
				},
				{
					"anonymous": false,
					"inputs": [
						{
							"indexed": true,
							"internalType": "address",
							"name": "previousOwner",
							"type": "address"
						}
					],
					"name": "OwnershipRenounced",
					"type": "event"
				},
				{
					"anonymous": false,
					"inputs": [
						{
							"indexed": true,
							"internalType": "address",
							"name": "previousOwner",
							"type": "address"
						},
						{
							"indexed": true,
							"internalType": "address",
							"name": "newOwner",
							"type": "address"
						}
					],
					"name": "OwnershipTransferred",
					"type": "event"
				},
				{
					"anonymous": false,
					"inputs": [
						{
							"indexed": true,
							"internalType": "address",
							"name": "from",
							"type": "address"
						},
						{
							"indexed": true,
							"internalType": "address",
							"name": "to",
							"type": "address"
						},
						{
							"indexed": false,
							"internalType": "uint256",
							"name": "value",
							"type": "uint256"
						}
					],
					"name": "Transfer",
					"type": "event"
				},
				{
					"inputs": [],
					"name": "RiskFreeValue",
					"outputs": [
						{
							"internalType": "uint256",
							"name": "",
							"type": "uint256"
						}
					],
					"stateMutability": "view",
					"type": "function"
				},
				{
					"inputs": [],
					"name": "RiskFreeValueReceiver",
					"outputs": [
						{
							"internalType": "address",
							"name": "",
							"type": "address"
						}
					],
					"stateMutability": "view",
					"type": "function"
				},
				{
					"inputs": [],
					"name": "Treasury",
					"outputs": [
						{
							"internalType": "uint256",
							"name": "",
							"type": "uint256"
						}
					],
					"stateMutability": "view",
					"type": "function"
				},
				{
					"inputs": [],
					"name": "TreasuryReceiver",
					"outputs": [
						{
							"internalType": "address",
							"name": "",
							"type": "address"
						}
					],
					"stateMutability": "view",
					"type": "function"
				},
				{
					"inputs": [
						{
							"internalType": "address",
							"name": "account",
							"type": "address"
						}
					],
					"name": "addMinter",
					"outputs": [],
					"stateMutability": "nonpayable",
					"type": "function"
				},
				{
					"inputs": [
						{
							"internalType": "address",
							"name": "owner_",
							"type": "address"
						},
						{
							"internalType": "address",
							"name": "spender",
							"type": "address"
						}
					],
					"name": "allowance",
					"outputs": [
						{
							"internalType": "uint256",
							"name": "",
							"type": "uint256"
						}
					],
					"stateMutability": "view",
					"type": "function"
				},
				{
					"inputs": [
						{
							"internalType": "address",
							"name": "spender",
							"type": "address"
						},
						{
							"internalType": "uint256",
							"name": "value",
							"type": "uint256"
						}
					],
					"name": "approve",
					"outputs": [
						{
							"internalType": "bool",
							"name": "",
							"type": "bool"
						}
					],
					"stateMutability": "nonpayable",
					"type": "function"
				},
				{
					"inputs": [],
					"name": "autoLiquidityReceiver",
					"outputs": [
						{
							"internalType": "address",
							"name": "",
							"type": "address"
						}
					],
					"stateMutability": "view",
					"type": "function"
				},
				{
					"inputs": [
						{
							"internalType": "address",
							"name": "who",
							"type": "address"
						}
					],
					"name": "balanceOf",
					"outputs": [
						{
							"internalType": "uint256",
							"name": "",
							"type": "uint256"
						}
					],
					"stateMutability": "view",
					"type": "function"
				},
				{
					"inputs": [
						{
							"internalType": "address",
							"name": "",
							"type": "address"
						}
					],
					"name": "blacklist",
					"outputs": [
						{
							"internalType": "bool",
							"name": "",
							"type": "bool"
						}
					],
					"stateMutability": "view",
					"type": "function"
				},
				{
					"inputs": [
						{
							"internalType": "address",
							"name": "_addr",
							"type": "address"
						}
					],
					"name": "checkFeeExempt",
					"outputs": [
						{
							"internalType": "bool",
							"name": "",
							"type": "bool"
						}
					],
					"stateMutability": "view",
					"type": "function"
				},
				{
					"inputs": [],
					"name": "checkSwapThreshold",
					"outputs": [
						{
							"internalType": "uint256",
							"name": "",
							"type": "uint256"
						}
					],
					"stateMutability": "view",
					"type": "function"
				},
				{
					"inputs": [
						{
							"internalType": "uint256",
							"name": "amountPercentage",
							"type": "uint256"
						},
						{
							"internalType": "address",
							"name": "adr",
							"type": "address"
						}
					],
					"name": "clearStuckBalance",
					"outputs": [],
					"stateMutability": "nonpayable",
					"type": "function"
				},
				{
					"inputs": [],
					"name": "decimals",
					"outputs": [
						{
							"internalType": "uint8",
							"name": "",
							"type": "uint8"
						}
					],
					"stateMutability": "view",
					"type": "function"
				},
				{
					"inputs": [
						{
							"internalType": "address",
							"name": "spender",
							"type": "address"
						},
						{
							"internalType": "uint256",
							"name": "subtractedValue",
							"type": "uint256"
						}
					],
					"name": "decreaseAllowance",
					"outputs": [
						{
							"internalType": "bool",
							"name": "",
							"type": "bool"
						}
					],
					"stateMutability": "nonpayable",
					"type": "function"
				},
				{
					"inputs": [
						{
							"internalType": "address",
							"name": "_addr",
							"type": "address"
						}
					],
					"name": "enableTransfer",
					"outputs": [],
					"stateMutability": "nonpayable",
					"type": "function"
				},
				{
					"inputs": [],
					"name": "feeDenominator",
					"outputs": [
						{
							"internalType": "uint256",
							"name": "",
							"type": "uint256"
						}
					],
					"stateMutability": "view",
					"type": "function"
				},
				{
					"inputs": [],
					"name": "getCirculatingSupply",
					"outputs": [
						{
							"internalType": "uint256",
							"name": "",
							"type": "uint256"
						}
					],
					"stateMutability": "view",
					"type": "function"
				},
				{
					"inputs": [
						{
							"internalType": "uint256",
							"name": "accuracy",
							"type": "uint256"
						}
					],
					"name": "getLiquidityBacking",
					"outputs": [
						{
							"internalType": "uint256",
							"name": "",
							"type": "uint256"
						}
					],
					"stateMutability": "view",
					"type": "function"
				},
				{
					"inputs": [
						{
							"internalType": "address",
							"name": "spender",
							"type": "address"
						},
						{
							"internalType": "uint256",
							"name": "addedValue",
							"type": "uint256"
						}
					],
					"name": "increaseAllowance",
					"outputs": [
						{
							"internalType": "bool",
							"name": "",
							"type": "bool"
						}
					],
					"stateMutability": "nonpayable",
					"type": "function"
				},
				{
					"inputs": [],
					"name": "initialDistributionFinished",
					"outputs": [
						{
							"internalType": "bool",
							"name": "",
							"type": "bool"
						}
					],
					"stateMutability": "view",
					"type": "function"
				},
				{
					"inputs": [
						{
							"internalType": "address",
							"name": "account",
							"type": "address"
						}
					],
					"name": "isMinter",
					"outputs": [
						{
							"internalType": "bool",
							"name": "",
							"type": "bool"
						}
					],
					"stateMutability": "view",
					"type": "function"
				},
				{
					"inputs": [],
					"name": "isNotInSwap",
					"outputs": [
						{
							"internalType": "bool",
							"name": "",
							"type": "bool"
						}
					],
					"stateMutability": "view",
					"type": "function"
				},
				{
					"inputs": [
						{
							"internalType": "uint256",
							"name": "target",
							"type": "uint256"
						},
						{
							"internalType": "uint256",
							"name": "accuracy",
							"type": "uint256"
						}
					],
					"name": "isOverLiquified",
					"outputs": [
						{
							"internalType": "bool",
							"name": "",
							"type": "bool"
						}
					],
					"stateMutability": "view",
					"type": "function"
				},
				{
					"inputs": [],
					"name": "isOwner",
					"outputs": [
						{
							"internalType": "bool",
							"name": "",
							"type": "bool"
						}
					],
					"stateMutability": "view",
					"type": "function"
				},
				{
					"inputs": [],
					"name": "liquidityFee",
					"outputs": [
						{
							"internalType": "uint256",
							"name": "",
							"type": "uint256"
						}
					],
					"stateMutability": "view",
					"type": "function"
				},
				{
					"inputs": [],
					"name": "manualSync",
					"outputs": [],
					"stateMutability": "nonpayable",
					"type": "function"
				},
				{
					"inputs": [
						{
							"internalType": "address",
							"name": "recipient",
							"type": "address"
						},
						{
							"internalType": "uint256",
							"name": "amount",
							"type": "uint256"
						}
					],
					"name": "mint",
					"outputs": [],
					"stateMutability": "nonpayable",
					"type": "function"
				},
				{
					"inputs": [],
					"name": "name",
					"outputs": [
						{
							"internalType": "string",
							"name": "",
							"type": "string"
						}
					],
					"stateMutability": "view",
					"type": "function"
				},
				{
					"inputs": [],
					"name": "owner",
					"outputs": [
						{
							"internalType": "address",
							"name": "",
							"type": "address"
						}
					],
					"stateMutability": "view",
					"type": "function"
				},
				{
					"inputs": [],
					"name": "pair",
					"outputs": [
						{
							"internalType": "address",
							"name": "",
							"type": "address"
						}
					],
					"stateMutability": "view",
					"type": "function"
				},
				{
					"inputs": [],
					"name": "pairContract",
					"outputs": [
						{
							"internalType": "contract InterfaceLP",
							"name": "",
							"type": "address"
						}
					],
					"stateMutability": "view",
					"type": "function"
				},
				{
					"inputs": [
						{
							"internalType": "uint256",
							"name": "epoch",
							"type": "uint256"
						},
						{
							"internalType": "int256",
							"name": "supplyDelta",
							"type": "int256"
						}
					],
					"name": "rebase",
					"outputs": [
						{
							"internalType": "uint256",
							"name": "",
							"type": "uint256"
						}
					],
					"stateMutability": "nonpayable",
					"type": "function"
				},
				{
					"inputs": [
						{
							"internalType": "address",
							"name": "account",
							"type": "address"
						}
					],
					"name": "removeMinter",
					"outputs": [],
					"stateMutability": "nonpayable",
					"type": "function"
				},
				{
					"inputs": [],
					"name": "renounceMinter",
					"outputs": [],
					"stateMutability": "nonpayable",
					"type": "function"
				},
				{
					"inputs": [],
					"name": "renounceOwnership",
					"outputs": [],
					"stateMutability": "nonpayable",
					"type": "function"
				},
				{
					"inputs": [
						{
							"internalType": "address",
							"name": "tokenAddress",
							"type": "address"
						},
						{
							"internalType": "uint256",
							"name": "tokens",
							"type": "uint256"
						}
					],
					"name": "rescueToken",
					"outputs": [
						{
							"internalType": "bool",
							"name": "success",
							"type": "bool"
						}
					],
					"stateMutability": "nonpayable",
					"type": "function"
				},
				{
					"inputs": [],
					"name": "router",
					"outputs": [
						{
							"internalType": "contract IDEXRouter",
							"name": "",
							"type": "address"
						}
					],
					"stateMutability": "view",
					"type": "function"
				},
				{
					"inputs": [],
					"name": "sellFee",
					"outputs": [
						{
							"internalType": "uint256",
							"name": "",
							"type": "uint256"
						}
					],
					"stateMutability": "view",
					"type": "function"
				},
				{
					"inputs": [
						{
							"internalType": "address[]",
							"name": "recipients",
							"type": "address[]"
						},
						{
							"internalType": "uint256[]",
							"name": "values",
							"type": "uint256[]"
						}
					],
					"name": "sendPresale",
					"outputs": [],
					"stateMutability": "nonpayable",
					"type": "function"
				},
				{
					"inputs": [
						{
							"internalType": "address",
							"name": "_addr",
							"type": "address"
						}
					],
					"name": "setFeeExempt",
					"outputs": [],
					"stateMutability": "nonpayable",
					"type": "function"
				},
				{
					"inputs": [
						{
							"internalType": "address",
							"name": "_autoLiquidityReceiver",
							"type": "address"
						},
						{
							"internalType": "address",
							"name": "_TreasuryReceiver",
							"type": "address"
						},
						{
							"internalType": "address",
							"name": "_RiskFreeValueReceiver",
							"type": "address"
						}
					],
					"name": "setFeeReceivers",
					"outputs": [],
					"stateMutability": "nonpayable",
					"type": "function"
				},
				{
					"inputs": [
						{
							"internalType": "uint256",
							"name": "_liquidityFee",
							"type": "uint256"
						},
						{
							"internalType": "uint256",
							"name": "_RiskFreeValue",
							"type": "uint256"
						},
						{
							"internalType": "uint256",
							"name": "_Treasury",
							"type": "uint256"
						},
						{
							"internalType": "uint256",
							"name": "_sellFee",
							"type": "uint256"
						},
						{
							"internalType": "uint256",
							"name": "_feeDenominator",
							"type": "uint256"
						}
					],
					"name": "setFees",
					"outputs": [],
					"stateMutability": "nonpayable",
					"type": "function"
				},
				{
					"inputs": [],
					"name": "setInitialDistributionFinished",
					"outputs": [],
					"stateMutability": "nonpayable",
					"type": "function"
				},
				{
					"inputs": [
						{
							"internalType": "address",
							"name": "_address",
							"type": "address"
						}
					],
					"name": "setLP",
					"outputs": [],
					"stateMutability": "nonpayable",
					"type": "function"
				},
				{
					"inputs": [
						{
							"internalType": "bool",
							"name": "_enabled",
							"type": "bool"
						},
						{
							"internalType": "uint256",
							"name": "_num",
							"type": "uint256"
						},
						{
							"internalType": "uint256",
							"name": "_denom",
							"type": "uint256"
						}
					],
					"name": "setSwapBackSettings",
					"outputs": [],
					"stateMutability": "nonpayable",
					"type": "function"
				},
				{
					"inputs": [
						{
							"internalType": "uint256",
							"name": "target",
							"type": "uint256"
						},
						{
							"internalType": "uint256",
							"name": "accuracy",
							"type": "uint256"
						}
					],
					"name": "setTargetLiquidity",
					"outputs": [],
					"stateMutability": "nonpayable",
					"type": "function"
				},
				{
					"inputs": [],
					"name": "swapEnabled",
					"outputs": [
						{
							"internalType": "bool",
							"name": "",
							"type": "bool"
						}
					],
					"stateMutability": "view",
					"type": "function"
				},
				{
					"inputs": [],
					"name": "symbol",
					"outputs": [
						{
							"internalType": "string",
							"name": "",
							"type": "string"
						}
					],
					"stateMutability": "view",
					"type": "function"
				},
				{
					"inputs": [],
					"name": "totalFee",
					"outputs": [
						{
							"internalType": "uint256",
							"name": "",
							"type": "uint256"
						}
					],
					"stateMutability": "view",
					"type": "function"
				},
				{
					"inputs": [],
					"name": "totalSupply",
					"outputs": [
						{
							"internalType": "uint256",
							"name": "",
							"type": "uint256"
						}
					],
					"stateMutability": "view",
					"type": "function"
				},
				{
					"inputs": [
						{
							"internalType": "address",
							"name": "to",
							"type": "address"
						},
						{
							"internalType": "uint256",
							"name": "value",
							"type": "uint256"
						}
					],
					"name": "transfer",
					"outputs": [
						{
							"internalType": "bool",
							"name": "",
							"type": "bool"
						}
					],
					"stateMutability": "nonpayable",
					"type": "function"
				},
				{
					"inputs": [
						{
							"internalType": "address",
							"name": "from",
							"type": "address"
						},
						{
							"internalType": "address",
							"name": "to",
							"type": "address"
						},
						{
							"internalType": "uint256",
							"name": "value",
							"type": "uint256"
						}
					],
					"name": "transferFrom",
					"outputs": [
						{
							"internalType": "bool",
							"name": "",
							"type": "bool"
						}
					],
					"stateMutability": "nonpayable",
					"type": "function"
				},
				{
					"inputs": [
						{
							"internalType": "address",
							"name": "newOwner",
							"type": "address"
						}
					],
					"name": "transferOwnership",
					"outputs": [],
					"stateMutability": "nonpayable",
					"type": "function"
				},
				{
					"inputs": [
						{
							"internalType": "address",
							"name": "_user",
							"type": "address"
						},
						{
							"internalType": "bool",
							"name": "_flag",
							"type": "bool"
						}
					],
					"name": "updateBlacklist",
					"outputs": [],
					"stateMutability": "nonpayable",
					"type": "function"
				},
				{
					"stateMutability": "payable",
					"type": "receive"
				}
			],
			"devdoc": {
				"kind": "dev",
				"methods": {},
				"version": 1
			},
			"evm": {
				"assembly": "    /* \"bep-20.sol\":8036:23052  contract Lost is ERC20Detailed, Ownable, MinterRole {... */\n  mstore(0x40, 0x80)\n    /* \"bep-20.sol\":8911:8912  5 */\n  0x05\n    /* \"bep-20.sol\":8881:8912  uint256 public liquidityFee = 5 */\n  0x07\n  sstore\n    /* \"bep-20.sol\":8944:8945  3 */\n  0x03\n    /* \"bep-20.sol\":8918:8945  uint256 public Treasury = 3 */\n  0x08\n  sstore\n    /* \"bep-20.sol\":8982:8983  5 */\n  0x05\n    /* \"bep-20.sol\":8951:8983  uint256 public RiskFreeValue = 5 */\n  0x09\n  sstore\n    /* \"bep-20.sol\":9014:9015  5 */\n  0x05\n    /* \"bep-20.sol\":8989:9015  uint256 public sellFee = 5 */\n  0x0a\n  sstore\n    /* \"bep-20.sol\":9055:9100  liquidityFee.add(Treasury).add(RiskFreeValue) */\n  tag_1\n    /* \"bep-20.sol\":9086:9099  RiskFreeValue */\n  sload(0x09)\n    /* \"bep-20.sol\":9055:9081  liquidityFee.add(Treasury) */\n  tag_2\n    /* \"bep-20.sol\":9072:9080  Treasury */\n  sload(0x08)\n    /* \"bep-20.sol\":9055:9067  liquidityFee */\n  sload(0x07)\n    /* \"bep-20.sol\":9055:9071  liquidityFee.add */\n  or(tag_0_281, shl(0x20, tag_3))\n  swap1\n    /* \"bep-20.sol\":9055:9081  liquidityFee.add(Treasury) */\n  swap2\n  swap1\n  0x20\n  shr\n  jump\t// in\ntag_2:\n    /* \"bep-20.sol\":9055:9085  liquidityFee.add(Treasury).add */\n  or(tag_0_281, shl(0x20, tag_3))\n  swap1\n    /* \"bep-20.sol\":9055:9100  liquidityFee.add(Treasury).add(RiskFreeValue) */\n  swap2\n  swap1\n  0x20\n  shr\n  jump\t// in\ntag_1:\n    /* \"bep-20.sol\":9021:9100  uint256 public totalFee =... */\n  0x0b\n  sstore\n    /* \"bep-20.sol\":9138:9141  100 */\n  0x64\n    /* \"bep-20.sol\":9106:9141  uint256 public feeDenominator = 100 */\n  0x0c\n  sstore\n    /* \"bep-20.sol\":9163:9205  0x000000000000000000000000000000000000dEaD */\n  0xdead\n    /* \"bep-20.sol\":9148:9205  address DEAD = 0x000000000000000000000000000000000000dEaD */\n  0x0d\n  exp(0x0100, 0x00)\n  dup2\n  sload\n  dup2\n  0xffffffffffffffffffffffffffffffffffffffff\n  mul\n  not\n  and\n  swap1\n  dup4\n  0xffffffffffffffffffffffffffffffffffffffff\n  and\n  mul\n  or\n  swap1\n  sstore\n  pop\n    /* \"bep-20.sol\":9226:9268  0x0000000000000000000000000000000000000000 */\n  0x00\n    /* \"bep-20.sol\":9211:9268  address ZERO = 0x0000000000000000000000000000000000000000 */\n  0x0e\n  exp(0x0100, 0x00)\n  dup2\n  sload\n  dup2\n  0xffffffffffffffffffffffffffffffffffffffff\n  mul\n  not\n  and\n  swap1\n  dup4\n  0xffffffffffffffffffffffffffffffffffffffff\n  and\n  mul\n  or\n  swap1\n  sstore\n  pop\n    /* \"bep-20.sol\":9423:9425  50 */\n  0x32\n    /* \"bep-20.sol\":9397:9425  uint256 targetLiquidity = 50 */\n  0x12\n  sstore\n    /* \"bep-20.sol\":9468:9471  100 */\n  0x64\n    /* \"bep-20.sol\":9431:9471  uint256 targetLiquidityDenominator = 100 */\n  0x13\n  sstore\n    /* \"bep-20.sol\":9560:9564  true */\n  0x01\n    /* \"bep-20.sol\":9534:9564  bool public swapEnabled = true */\n  0x15\n  exp(0x0100, 0x14)\n  dup2\n  sload\n  dup2\n  0xff\n  mul\n  not\n  and\n  swap1\n  dup4\n  iszero\n  iszero\n  mul\n  or\n  swap1\n  sstore\n  pop\n    /* \"bep-20.sol\":9625:9630  10000 */\n  0x2710\n    /* \"bep-20.sol\":9619:9621  10 */\n  0x0a\n    /* \"bep-20.sol\":8733:8735  18 */\n  0x12\n    /* \"bep-20.sol\":8862:8864  10 */\n  0x0a\n    /* \"bep-20.sol\":8862:8874  10**DECIMALS */\n  exp\n    /* \"bep-20.sol\":8850:8859  4 * 10**9 */\n  0xee6b2800\n    /* \"bep-20.sol\":8850:8874  4 * 10**9 * 10**DECIMALS */\n  mul\n    /* \"bep-20.sol\":8789:8790  0 */\n  0x00\n    /* \"bep-20.sol\":8780:8791  ~uint256(0) */\n  not\n    /* \"bep-20.sol\":9805:9843  MAX_UINT256 % INITIAL_FRAGMENTS_SUPPLY */\n  dup2\n  tag_4\n  jumpi\n  invalid\ntag_4:\n  mod\n    /* \"bep-20.sol\":8789:8790  0 */\n  0x00\n    /* \"bep-20.sol\":8780:8791  ~uint256(0) */\n  not\n    /* \"bep-20.sol\":9790:9844  MAX_UINT256 - (MAX_UINT256 % INITIAL_FRAGMENTS_SUPPLY) */\n  sub\n    /* \"bep-20.sol\":9606:9621  TOTAL_GONS * 10 */\n  mul\n    /* \"bep-20.sol\":9605:9630  (TOTAL_GONS * 10) / 10000 */\n  dup2\n  tag_5\n  jumpi\n  invalid\ntag_5:\n  div\n    /* \"bep-20.sol\":9570:9630  uint256 private gonSwapThreshold = (TOTAL_GONS * 10) / 10000 */\n  0x16\n  sstore\n    /* \"bep-20.sol\":10161:11279  constructor() ERC20Detailed(\"Lost\", \"Lost\", uint8(DECIMALS)) {... */\n  callvalue\n  dup1\n  iszero\n  tag_6\n  jumpi\n  0x00\n  dup1\n  revert\ntag_6:\n  pop\n    /* \"bep-20.sol\":4978:5163  constructor(... */\n  mload(0x40)\n  dup1\n  0x40\n  add\n  0x40\n  mstore\n  dup1\n  0x04\n  dup2\n  mstore\n  0x20\n  add\n  0x4c6f737400000000000000000000000000000000000000000000000000000000\n  dup2\n  mstore\n  pop\n  mload(0x40)\n  dup1\n  0x40\n  add\n  0x40\n  mstore\n  dup1\n  0x04\n  dup2\n  mstore\n  0x20\n  add\n  0x4c6f737400000000000000000000000000000000000000000000000000000000\n  dup2\n  mstore\n  pop\n    /* \"bep-20.sol\":8733:8735  18 */\n  0x12\n    /* \"bep-20.sol\":5096:5100  name */\n  dup3\n    /* \"bep-20.sol\":5088:5093  _name */\n  0x00\n    /* \"bep-20.sol\":5088:5100  _name = name */\n  swap1\n  dup1\n  mload\n  swap1\n  0x20\n  add\n  swap1\n  tag_12\n  swap3\n  swap2\n  swap1\n  tag_13\n  jump\t// in\ntag_12:\n  pop\n    /* \"bep-20.sol\":5120:5126  symbol */\n  dup2\n    /* \"bep-20.sol\":5110:5117  _symbol */\n  0x01\n    /* \"bep-20.sol\":5110:5126  _symbol = symbol */\n  swap1\n  dup1\n  mload\n  swap1\n  0x20\n  add\n  swap1\n  tag_14\n  swap3\n  swap2\n  swap1\n  tag_13\n  jump\t// in\ntag_14:\n  pop\n    /* \"bep-20.sol\":5148:5156  decimals */\n  dup1\n    /* \"bep-20.sol\":5136:5145  _decimals */\n  0x02\n  0x00\n    /* \"bep-20.sol\":5136:5156  _decimals = decimals */\n  0x0100\n  exp\n  dup2\n  sload\n  dup2\n  0xff\n  mul\n  not\n  and\n  swap1\n  dup4\n  0xff\n  and\n  mul\n  or\n  swap1\n  sstore\n  pop\n    /* \"bep-20.sol\":4978:5163  constructor(... */\n  pop\n  pop\n  pop\n    /* \"bep-20.sol\":7332:7342  msg.sender */\n  caller\n    /* \"bep-20.sol\":7323:7329  _owner */\n  0x02\n  0x01\n    /* \"bep-20.sol\":7323:7342  _owner = msg.sender */\n  0x0100\n  exp\n  dup2\n  sload\n  dup2\n  0xffffffffffffffffffffffffffffffffffffffff\n  mul\n  not\n  and\n  swap1\n  dup4\n  0xffffffffffffffffffffffffffffffffffffffff\n  and\n  mul\n  or\n  swap1\n  sstore\n  pop\n    /* \"bep-20.sol\":4224:4246  _addMinter(msg.sender) */\n  tag_17\n    /* \"bep-20.sol\":4235:4245  msg.sender */\n  caller\n    /* \"bep-20.sol\":4224:4234  _addMinter */\n  shl(0x20, tag_18)\n    /* \"bep-20.sol\":4224:4246  _addMinter(msg.sender) */\n  0x20\n  shr\n  jump\t// in\ntag_17:\n    /* \"bep-20.sol\":10252:10294  0x10ED43C718714eb63d5aA57B78B54704E256024E */\n  0x10ed43c718714eb63d5aa57b78b54704e256024e\n    /* \"bep-20.sol\":10232:10238  router */\n  0x14\n  0x00\n    /* \"bep-20.sol\":10232:10295  router = IDEXRouter(0x10ED43C718714eb63d5aA57B78B54704E256024E) */\n  0x0100\n  exp\n  dup2\n  sload\n  dup2\n  0xffffffffffffffffffffffffffffffffffffffff\n  mul\n  not\n  and\n  swap1\n  dup4\n  0xffffffffffffffffffffffffffffffffffffffff\n  and\n  mul\n  or\n  swap1\n  sstore\n  pop\n    /* \"bep-20.sol\":10427:10433  router */\n  0x14\n  0x00\n  swap1\n  sload\n  swap1\n  0x0100\n  exp\n  swap1\n  div\n  0xffffffffffffffffffffffffffffffffffffffff\n  and\n    /* \"bep-20.sol\":10427:10441  router.factory */\n  0xffffffffffffffffffffffffffffffffffffffff\n  and\n  0xc45a0155\n    /* \"bep-20.sol\":10427:10443  router.factory() */\n  mload(0x40)\n  dup2\n  0xffffffff\n  and\n  0xe0\n  shl\n  dup2\n  mstore\n  0x04\n  add\n  0x20\n  mload(0x40)\n  dup1\n  dup4\n  sub\n  dup2\n  dup7\n  dup1\n  extcodesize\n  iszero\n  dup1\n  iszero\n  tag_20\n  jumpi\n  0x00\n  dup1\n  revert\ntag_20:\n  pop\n  gas\n  staticcall\n  iszero\n  dup1\n  iszero\n  tag_22\n  jumpi\n  returndatasize\n  0x00\n  dup1\n  returndatacopy\n  revert(0x00, returndatasize)\ntag_22:\n  pop\n  pop\n  pop\n  pop\n  mload(0x40)\n  returndatasize\n  0x20\n  dup2\n  lt\n  iszero\n  tag_23\n  jumpi\n  0x00\n  dup1\n  revert\ntag_23:\n  dup2\n  add\n  swap1\n  dup1\n  dup1\n  mload\n  swap1\n  0x20\n  add\n  swap1\n  swap3\n  swap2\n  swap1\n  pop\n  pop\n  pop\n    /* \"bep-20.sol\":10415:10455  IDEXFactory(router.factory()).createPair */\n  0xffffffffffffffffffffffffffffffffffffffff\n  and\n  0xc9c65396\n    /* \"bep-20.sol\":10469:10475  router */\n  0x14\n  0x00\n  swap1\n  sload\n  swap1\n  0x0100\n  exp\n  swap1\n  div\n  0xffffffffffffffffffffffffffffffffffffffff\n  and\n    /* \"bep-20.sol\":10469:10480  router.WETH */\n  0xffffffffffffffffffffffffffffffffffffffff\n  and\n  0xad5c4648\n    /* \"bep-20.sol\":10469:10482  router.WETH() */\n  mload(0x40)\n  dup2\n  0xffffffff\n  and\n  0xe0\n  shl\n  dup2\n  mstore\n  0x04\n  add\n  0x20\n  mload(0x40)\n  dup1\n  dup4\n  sub\n  dup2\n  dup7\n  dup1\n  extcodesize\n  iszero\n  dup1\n  iszero\n  tag_24\n  jumpi\n  0x00\n  dup1\n  revert\ntag_24:\n  pop\n  gas\n  staticcall\n  iszero\n  dup1\n  iszero\n  tag_26\n  jumpi\n  returndatasize\n  0x00\n  dup1\n  returndatacopy\n  revert(0x00, returndatasize)\ntag_26:\n  pop\n  pop\n  pop\n  pop\n  mload(0x40)\n  returndatasize\n  0x20\n  dup2\n  lt\n  iszero\n  tag_27\n  jumpi\n  0x00\n  dup1\n  revert\ntag_27:\n  dup2\n  add\n  swap1\n  dup1\n  dup1\n  mload\n  swap1\n  0x20\n  add\n  swap1\n  swap3\n  swap2\n  swap1\n  pop\n  pop\n  pop\n    /* \"bep-20.sol\":10504:10508  this */\n  address\n    /* \"bep-20.sol\":10415:10519  IDEXFactory(router.factory()).createPair(... */\n  mload(0x40)\n  dup4\n  0xffffffff\n  and\n  0xe0\n  shl\n  dup2\n  mstore\n  0x04\n  add\n  dup1\n  dup4\n  0xffffffffffffffffffffffffffffffffffffffff\n  and\n  dup2\n  mstore\n  0x20\n  add\n  dup3\n  0xffffffffffffffffffffffffffffffffffffffff\n  and\n  dup2\n  mstore\n  0x20\n  add\n  swap3\n  pop\n  pop\n  pop\n  0x20\n  mload(0x40)\n  dup1\n  dup4\n  sub\n  dup2\n  0x00\n  dup8\n  dup1\n  extcodesize\n  iszero\n  dup1\n  iszero\n  tag_28\n  jumpi\n  0x00\n  dup1\n  revert\ntag_28:\n  pop\n  gas\n  call\n  iszero\n  dup1\n  iszero\n  tag_30\n  jumpi\n  returndatasize\n  0x00\n  dup1\n  returndatacopy\n  revert(0x00, returndatasize)\ntag_30:\n  pop\n  pop\n  pop\n  pop\n  mload(0x40)\n  returndatasize\n  0x20\n  dup2\n  lt\n  iszero\n  tag_31\n  jumpi\n  0x00\n  dup1\n  revert\ntag_31:\n  dup2\n  add\n  swap1\n  dup1\n  dup1\n  mload\n  swap1\n  0x20\n  add\n  swap1\n  swap3\n  swap2\n  swap1\n  pop\n  pop\n  pop\n    /* \"bep-20.sol\":10408:10412  pair */\n  0x15\n  0x00\n    /* \"bep-20.sol\":10408:10519  pair = IDEXFactory(router.factory()).createPair(... */\n  0x0100\n  exp\n  dup2\n  sload\n  dup2\n  0xffffffffffffffffffffffffffffffffffffffff\n  mul\n  not\n  and\n  swap1\n  dup4\n  0xffffffffffffffffffffffffffffffffffffffff\n  and\n  mul\n  or\n  swap1\n  sstore\n  pop\n    /* \"bep-20.sol\":10554:10596  0x2efEBB6C26E709b9240A9c102116D1831BAC6319 */\n  0x2efebb6c26e709b9240a9c102116d1831bac6319\n    /* \"bep-20.sol\":10530:10551  autoLiquidityReceiver */\n  0x0f\n  0x00\n    /* \"bep-20.sol\":10530:10596  autoLiquidityReceiver = 0x2efEBB6C26E709b9240A9c102116D1831BAC6319 */\n  0x0100\n  exp\n  dup2\n  sload\n  dup2\n  0xffffffffffffffffffffffffffffffffffffffff\n  mul\n  not\n  and\n  swap1\n  dup4\n  0xffffffffffffffffffffffffffffffffffffffff\n  and\n  mul\n  or\n  swap1\n  sstore\n  pop\n    /* \"bep-20.sol\":10625:10667  0x2efEBB6C26E709b9240A9c102116D1831BAC6319 */\n  0x2efebb6c26e709b9240a9c102116d1831bac6319\n    /* \"bep-20.sol\":10606:10622  TreasuryReceiver */\n  0x10\n  0x00\n    /* \"bep-20.sol\":10606:10667  TreasuryReceiver = 0x2efEBB6C26E709b9240A9c102116D1831BAC6319 */\n  0x0100\n  exp\n  dup2\n  sload\n  dup2\n  0xffffffffffffffffffffffffffffffffffffffff\n  mul\n  not\n  and\n  swap1\n  dup4\n  0xffffffffffffffffffffffffffffffffffffffff\n  and\n  mul\n  or\n  swap1\n  sstore\n  pop\n    /* \"bep-20.sol\":10701:10743  0x2efEBB6C26E709b9240A9c102116D1831BAC6319 */\n  0x2efebb6c26e709b9240a9c102116d1831bac6319\n    /* \"bep-20.sol\":10677:10698  RiskFreeValueReceiver */\n  0x11\n  0x00\n    /* \"bep-20.sol\":10677:10743  RiskFreeValueReceiver = 0x2efEBB6C26E709b9240A9c102116D1831BAC6319 */\n  0x0100\n  exp\n  dup2\n  sload\n  dup2\n  0xffffffffffffffffffffffffffffffffffffffff\n  mul\n  not\n  and\n  swap1\n  dup4\n  0xffffffffffffffffffffffffffffffffffffffff\n  and\n  mul\n  or\n  swap1\n  sstore\n  pop\n    /* \"bep-20.sol\":10814:10816  -1 */\n  0xffffffffffffffffffffffffffffffffffffffffffffffffffffffffffffffff\n    /* \"bep-20.sol\":10754:10771  _allowedFragments */\n  0x1b\n    /* \"bep-20.sol\":10754:10786  _allowedFragments[address(this)] */\n  0x00\n    /* \"bep-20.sol\":10780:10784  this */\n  address\n    /* \"bep-20.sol\":10754:10786  _allowedFragments[address(this)] */\n  0xffffffffffffffffffffffffffffffffffffffff\n  and\n  0xffffffffffffffffffffffffffffffffffffffff\n  and\n  dup2\n  mstore\n  0x20\n  add\n  swap1\n  dup2\n  mstore\n  0x20\n  add\n  0x00\n  keccak256\n    /* \"bep-20.sol\":10754:10803  _allowedFragments[address(this)][address(router)] */\n  0x00\n    /* \"bep-20.sol\":10795:10801  router */\n  0x14\n  0x00\n  swap1\n  sload\n  swap1\n  0x0100\n  exp\n  swap1\n  div\n  0xffffffffffffffffffffffffffffffffffffffff\n  and\n    /* \"bep-20.sol\":10754:10803  _allowedFragments[address(this)][address(router)] */\n  0xffffffffffffffffffffffffffffffffffffffff\n  and\n  0xffffffffffffffffffffffffffffffffffffffff\n  and\n  dup2\n  mstore\n  0x20\n  add\n  swap1\n  dup2\n  mstore\n  0x20\n  add\n  0x00\n  keccak256\n    /* \"bep-20.sol\":10754:10817  _allowedFragments[address(this)][address(router)] = uint256(-1) */\n  dup2\n  swap1\n  sstore\n  pop\n    /* \"bep-20.sol\":10854:10858  pair */\n  0x15\n  0x00\n  swap1\n  sload\n  swap1\n  0x0100\n  exp\n  swap1\n  div\n  0xffffffffffffffffffffffffffffffffffffffff\n  and\n    /* \"bep-20.sol\":10827:10839  pairContract */\n  0x04\n  0x00\n    /* \"bep-20.sol\":10827:10859  pairContract = InterfaceLP(pair) */\n  0x0100\n  exp\n  dup2\n  sload\n  dup2\n  0xffffffffffffffffffffffffffffffffffffffff\n  mul\n  not\n  and\n  swap1\n  dup4\n  0xffffffffffffffffffffffffffffffffffffffff\n  and\n  mul\n  or\n  swap1\n  sstore\n  pop\n    /* \"bep-20.sol\":8733:8735  18 */\n  0x12\n    /* \"bep-20.sol\":8862:8864  10 */\n  0x0a\n    /* \"bep-20.sol\":8862:8874  10**DECIMALS */\n  exp\n    /* \"bep-20.sol\":8850:8859  4 * 10**9 */\n  0xee6b2800\n    /* \"bep-20.sol\":8850:8874  4 * 10**9 * 10**DECIMALS */\n  mul\n    /* \"bep-20.sol\":10870:10882  _totalSupply */\n  0x18\n    /* \"bep-20.sol\":10870:10909  _totalSupply = INITIAL_FRAGMENTS_SUPPLY */\n  dup2\n  swap1\n  sstore\n  pop\n    /* \"bep-20.sol\":8733:8735  18 */\n  0x12\n    /* \"bep-20.sol\":8862:8864  10 */\n  0x0a\n    /* \"bep-20.sol\":8862:8874  10**DECIMALS */\n  exp\n    /* \"bep-20.sol\":8850:8859  4 * 10**9 */\n  0xee6b2800\n    /* \"bep-20.sol\":8850:8874  4 * 10**9 * 10**DECIMALS */\n  mul\n    /* \"bep-20.sol\":8789:8790  0 */\n  0x00\n    /* \"bep-20.sol\":8780:8791  ~uint256(0) */\n  not\n    /* \"bep-20.sol\":9805:9843  MAX_UINT256 % INITIAL_FRAGMENTS_SUPPLY */\n  dup2\n  tag_32\n  jumpi\n  invalid\ntag_32:\n  mod\n    /* \"bep-20.sol\":8789:8790  0 */\n  0x00\n    /* \"bep-20.sol\":8780:8791  ~uint256(0) */\n  not\n    /* \"bep-20.sol\":9790:9844  MAX_UINT256 - (MAX_UINT256 % INITIAL_FRAGMENTS_SUPPLY) */\n  sub\n    /* \"bep-20.sol\":10919:10931  _gonBalances */\n  0x1a\n    /* \"bep-20.sol\":10919:10949  _gonBalances[TreasuryReceiver] */\n  0x00\n    /* \"bep-20.sol\":10932:10948  TreasuryReceiver */\n  0x10\n  0x00\n  swap1\n  sload\n  swap1\n  0x0100\n  exp\n  swap1\n  div\n  0xffffffffffffffffffffffffffffffffffffffff\n  and\n    /* \"bep-20.sol\":10919:10949  _gonBalances[TreasuryReceiver] */\n  0xffffffffffffffffffffffffffffffffffffffff\n  and\n  0xffffffffffffffffffffffffffffffffffffffff\n  and\n  dup2\n  mstore\n  0x20\n  add\n  swap1\n  dup2\n  mstore\n  0x20\n  add\n  0x00\n  keccak256\n    /* \"bep-20.sol\":10919:10962  _gonBalances[TreasuryReceiver] = TOTAL_GONS */\n  dup2\n  swap1\n  sstore\n  pop\n    /* \"bep-20.sol\":10991:11019  TOTAL_GONS.div(_totalSupply) */\n  tag_33\n    /* \"bep-20.sol\":11006:11018  _totalSupply */\n  sload(0x18)\n    /* \"bep-20.sol\":8733:8735  18 */\n  0x12\n    /* \"bep-20.sol\":8862:8864  10 */\n  0x0a\n    /* \"bep-20.sol\":8862:8874  10**DECIMALS */\n  exp\n    /* \"bep-20.sol\":8850:8859  4 * 10**9 */\n  0xee6b2800\n    /* \"bep-20.sol\":8850:8874  4 * 10**9 * 10**DECIMALS */\n  mul\n    /* \"bep-20.sol\":8789:8790  0 */\n  0x00\n    /* \"bep-20.sol\":8780:8791  ~uint256(0) */\n  not\n    /* \"bep-20.sol\":9805:9843  MAX_UINT256 % INITIAL_FRAGMENTS_SUPPLY */\n  dup2\n  tag_34\n  jumpi\n  invalid\ntag_34:\n  mod\n    /* \"bep-20.sol\":8789:8790  0 */\n  0x00\n    /* \"bep-20.sol\":8780:8791  ~uint256(0) */\n  not\n    /* \"bep-20.sol\":9790:9844  MAX_UINT256 - (MAX_UINT256 % INITIAL_FRAGMENTS_SUPPLY) */\n  sub\n    /* \"bep-20.sol\":10991:11005  TOTAL_GONS.div */\n  or(tag_0_282, shl(0x20, tag_35))\n  swap1\n    /* \"bep-20.sol\":10991:11019  TOTAL_GONS.div(_totalSupply) */\n  swap2\n  swap1\n  0x20\n  shr\n  jump\t// in\ntag_33:\n    /* \"bep-20.sol\":10972:10988  _gonsPerFragment */\n  0x19\n    /* \"bep-20.sol\":10972:11019  _gonsPerFragment = TOTAL_GONS.div(_totalSupply) */\n  dup2\n  swap1\n  sstore\n  pop\n    /* \"bep-20.sol\":11060:11065  false */\n  0x00\n    /* \"bep-20.sol\":11030:11057  initialDistributionFinished */\n  0x04\n  0x14\n    /* \"bep-20.sol\":11030:11065  initialDistributionFinished = false */\n  0x0100\n  exp\n  dup2\n  sload\n  dup2\n  0xff\n  mul\n  not\n  and\n  swap1\n  dup4\n  iszero\n  iszero\n  mul\n  or\n  swap1\n  sstore\n  pop\n    /* \"bep-20.sol\":11108:11112  true */\n  0x01\n    /* \"bep-20.sol\":11075:11087  _isFeeExempt */\n  0x06\n    /* \"bep-20.sol\":11075:11105  _isFeeExempt[TreasuryReceiver] */\n  0x00\n    /* \"bep-20.sol\":11088:11104  TreasuryReceiver */\n  0x10\n  0x00\n  swap1\n  sload\n  swap1\n  0x0100\n  exp\n  swap1\n  div\n  0xffffffffffffffffffffffffffffffffffffffff\n  and\n    /* \"bep-20.sol\":11075:11105  _isFeeExempt[TreasuryReceiver] */\n  0xffffffffffffffffffffffffffffffffffffffff\n  and\n  0xffffffffffffffffffffffffffffffffffffffff\n  and\n  dup2\n  mstore\n  0x20\n  add\n  swap1\n  dup2\n  mstore\n  0x20\n  add\n  0x00\n  keccak256\n  0x00\n    /* \"bep-20.sol\":11075:11112  _isFeeExempt[TreasuryReceiver] = true */\n  0x0100\n  exp\n  dup2\n  sload\n  dup2\n  0xff\n  mul\n  not\n  and\n  swap1\n  dup4\n  iszero\n  iszero\n  mul\n  or\n  swap1\n  sstore\n  pop\n    /* \"bep-20.sol\":11152:11156  true */\n  0x01\n    /* \"bep-20.sol\":11122:11134  _isFeeExempt */\n  0x06\n    /* \"bep-20.sol\":11122:11149  _isFeeExempt[address(this)] */\n  0x00\n    /* \"bep-20.sol\":11143:11147  this */\n  address\n    /* \"bep-20.sol\":11122:11149  _isFeeExempt[address(this)] */\n  0xffffffffffffffffffffffffffffffffffffffff\n  and\n  0xffffffffffffffffffffffffffffffffffffffff\n  and\n  dup2\n  mstore\n  0x20\n  add\n  swap1\n  dup2\n  mstore\n  0x20\n  add\n  0x00\n  keccak256\n  0x00\n    /* \"bep-20.sol\":11122:11156  _isFeeExempt[address(this)] = true */\n  0x0100\n  exp\n  dup2\n  sload\n  dup2\n  0xff\n  mul\n  not\n  and\n  swap1\n  dup4\n  iszero\n  iszero\n  mul\n  or\n  swap1\n  sstore\n  pop\n    /* \"bep-20.sol\":11167:11203  _transferOwnership(TreasuryReceiver) */\n  tag_36\n    /* \"bep-20.sol\":11186:11202  TreasuryReceiver */\n  0x10\n  0x00\n  swap1\n  sload\n  swap1\n  0x0100\n  exp\n  swap1\n  div\n  0xffffffffffffffffffffffffffffffffffffffff\n  and\n    /* \"bep-20.sol\":11167:11185  _transferOwnership */\n  shl(0x20, tag_37)\n    /* \"bep-20.sol\":11167:11203  _transferOwnership(TreasuryReceiver) */\n  0x20\n  shr\n  jump\t// in\ntag_36:\n    /* \"bep-20.sol\":11241:11257  TreasuryReceiver */\n  0x10\n  0x00\n  swap1\n  sload\n  swap1\n  0x0100\n  exp\n  swap1\n  div\n  0xffffffffffffffffffffffffffffffffffffffff\n  and\n    /* \"bep-20.sol\":11218:11272  Transfer(address(0x0), TreasuryReceiver, _totalSupply) */\n  0xffffffffffffffffffffffffffffffffffffffff\n  and\n    /* \"bep-20.sol\":11235:11238  0x0 */\n  0x00\n    /* \"bep-20.sol\":11218:11272  Transfer(address(0x0), TreasuryReceiver, _totalSupply) */\n  0xffffffffffffffffffffffffffffffffffffffff\n  and\n  0xddf252ad1be2c89b69c2b068fc378daa952ba7f163c4a11628f55a4df523b3ef\n    /* \"bep-20.sol\":11259:11271  _totalSupply */\n  sload(0x18)\n    /* \"bep-20.sol\":11218:11272  Transfer(address(0x0), TreasuryReceiver, _totalSupply) */\n  mload(0x40)\n  dup1\n  dup3\n  dup2\n  mstore\n  0x20\n  add\n  swap2\n  pop\n  pop\n  mload(0x40)\n  dup1\n  swap2\n  sub\n  swap1\n  log3\n    /* \"bep-20.sol\":8036:23052  contract Lost is ERC20Detailed, Ownable, MinterRole {... */\n  jump(tag_38)\n    /* \"bep-20.sol\":1800:1976  function add(uint256 a, uint256 b) internal pure returns (uint256) {... */\ntag_3:\n    /* \"bep-20.sol\":1858:1865  uint256 */\n  0x00\n    /* \"bep-20.sol\":1877:1886  uint256 c */\n  dup1\n    /* \"bep-20.sol\":1893:1894  b */\n  dup3\n    /* \"bep-20.sol\":1889:1890  a */\n  dup5\n    /* \"bep-20.sol\":1889:1894  a + b */\n  add\n    /* \"bep-20.sol\":1877:1894  uint256 c = a + b */\n  swap1\n  pop\n    /* \"bep-20.sol\":1917:1918  a */\n  dup4\n    /* \"bep-20.sol\":1912:1913  c */\n  dup2\n    /* \"bep-20.sol\":1912:1918  c >= a */\n  lt\n  iszero\n    /* \"bep-20.sol\":1904:1950  require(c >= a, \"SafeMath: addition overflow\") */\n  tag_40\n  jumpi\n  mload(0x40)\n  0x08c379a000000000000000000000000000000000000000000000000000000000\n  dup2\n  mstore\n  0x04\n  add\n  dup1\n  dup1\n  0x20\n  add\n  dup3\n  dup2\n  sub\n  dup3\n  mstore\n  0x1b\n  dup2\n  mstore\n  0x20\n  add\n  dup1\n  0x536166654d6174683a206164646974696f6e206f766572666c6f770000000000\n  dup2\n  mstore\n  pop\n  0x20\n  add\n  swap2\n  pop\n  pop\n  mload(0x40)\n  dup1\n  swap2\n  sub\n  swap1\n  revert\ntag_40:\n    /* \"bep-20.sol\":1968:1969  c */\n  dup1\n    /* \"bep-20.sol\":1961:1969  return c */\n  swap2\n  pop\n  pop\n    /* \"bep-20.sol\":1800:1976  function add(uint256 a, uint256 b) internal pure returns (uint256) {... */\n  swap3\n  swap2\n  pop\n  pop\n  jump\t// out\n    /* \"bep-20.sol\":4590:4709  function _addMinter(address account) internal {... */\ntag_18:\n    /* \"bep-20.sol\":4646:4667  _minters.add(account) */\n  tag_42\n    /* \"bep-20.sol\":4659:4666  account */\n  dup2\n    /* \"bep-20.sol\":4646:4654  _minters */\n  0x03\n    /* \"bep-20.sol\":4646:4658  _minters.add */\n  or(tag_0_283, shl(0x20, tag_43))\n  swap1\n    /* \"bep-20.sol\":4646:4667  _minters.add(account) */\n  swap2\n  swap1\n  0x20\n  shr\n  jump\t// in\ntag_42:\n    /* \"bep-20.sol\":4694:4701  account */\n  dup1\n    /* \"bep-20.sol\":4682:4702  MinterAdded(account) */\n  0xffffffffffffffffffffffffffffffffffffffff\n  and\n  0x6ae172837ea30b801fbfcdd4108aa1d5bf8ff775444fd70256b44e6bf3dfc3f6\n  mload(0x40)\n  mload(0x40)\n  dup1\n  swap2\n  sub\n  swap1\n  log2\n    /* \"bep-20.sol\":4590:4709  function _addMinter(address account) internal {... */\n  pop\n  jump\t// out\n    /* \"bep-20.sol\":2592:2722  function div(uint256 a, uint256 b) internal pure returns (uint256) {... */\ntag_35:\n    /* \"bep-20.sol\":2650:2657  uint256 */\n  0x00\n    /* \"bep-20.sol\":2676:2715  div(a, b, \"SafeMath: division by zero\") */\n  tag_45\n    /* \"bep-20.sol\":2680:2681  a */\n  dup4\n    /* \"bep-20.sol\":2683:2684  b */\n  dup4\n    /* \"bep-20.sol\":2676:2715  div(a, b, \"SafeMath: division by zero\") */\n  mload(0x40)\n  dup1\n  0x40\n  add\n  0x40\n  mstore\n  dup1\n  0x1a\n  dup2\n  mstore\n  0x20\n  add\n  0x536166654d6174683a206469766973696f6e206279207a65726f000000000000\n  dup2\n  mstore\n  pop\n    /* \"bep-20.sol\":2676:2679  div */\n  shl(0x20, tag_46)\n    /* \"bep-20.sol\":2676:2715  div(a, b, \"SafeMath: division by zero\") */\n  0x20\n  shr\n  jump\t// in\ntag_45:\n    /* \"bep-20.sol\":2669:2715  return div(a, b, \"SafeMath: division by zero\") */\n  swap1\n  pop\n    /* \"bep-20.sol\":2592:2722  function div(uint256 a, uint256 b) internal pure returns (uint256) {... */\n  swap3\n  swap2\n  pop\n  pop\n  jump\t// out\n    /* \"bep-20.sol\":7849:8032  function _transferOwnership(address newOwner) internal {... */\ntag_37:\n    /* \"bep-20.sol\":7942:7943  0 */\n  0x00\n    /* \"bep-20.sol\":7922:7944  newOwner != address(0) */\n  0xffffffffffffffffffffffffffffffffffffffff\n  and\n    /* \"bep-20.sol\":7922:7930  newOwner */\n  dup2\n    /* \"bep-20.sol\":7922:7944  newOwner != address(0) */\n  0xffffffffffffffffffffffffffffffffffffffff\n  and\n  eq\n  iszero\n    /* \"bep-20.sol\":7914:7945  require(newOwner != address(0)) */\n  tag_48\n  jumpi\n  0x00\n  dup1\n  revert\ntag_48:\n    /* \"bep-20.sol\":7989:7997  newOwner */\n  dup1\n    /* \"bep-20.sol\":7960:7998  OwnershipTransferred(_owner, newOwner) */\n  0xffffffffffffffffffffffffffffffffffffffff\n  and\n    /* \"bep-20.sol\":7981:7987  _owner */\n  0x02\n  0x01\n  swap1\n  sload\n  swap1\n  0x0100\n  exp\n  swap1\n  div\n  0xffffffffffffffffffffffffffffffffffffffff\n  and\n    /* \"bep-20.sol\":7960:7998  OwnershipTransferred(_owner, newOwner) */\n  0xffffffffffffffffffffffffffffffffffffffff\n  and\n  0x8be0079c531659141344cd1fd0a4f28419497f9722a3daafe3b4186f6b6457e0\n  mload(0x40)\n  mload(0x40)\n  dup1\n  swap2\n  sub\n  swap1\n  log3\n    /* \"bep-20.sol\":8017:8025  newOwner */\n  dup1\n    /* \"bep-20.sol\":8008:8014  _owner */\n  0x02\n  0x01\n    /* \"bep-20.sol\":8008:8025  _owner = newOwner */\n  0x0100\n  exp\n  dup2\n  sload\n  dup2\n  0xffffffffffffffffffffffffffffffffffffffff\n  mul\n  not\n  and\n  swap1\n  dup4\n  0xffffffffffffffffffffffffffffffffffffffff\n  and\n  mul\n  or\n  swap1\n  sstore\n  pop\n    /* \"bep-20.sol\":7849:8032  function _transferOwnership(address newOwner) internal {... */\n  pop\n  jump\t// out\n    /* \"bep-20.sol\":3284:3459  function add(Role storage role, address account) internal {... */\ntag_43:\n    /* \"bep-20.sol\":3361:3379  has(role, account) */\n  tag_50\n    /* \"bep-20.sol\":3365:3369  role */\n  dup3\n    /* \"bep-20.sol\":3371:3378  account */\n  dup3\n    /* \"bep-20.sol\":3361:3364  has */\n  shl(0x20, tag_51)\n    /* \"bep-20.sol\":3361:3379  has(role, account) */\n  0x20\n  shr\n  jump\t// in\ntag_50:\n    /* \"bep-20.sol\":3360:3379  !has(role, account) */\n  iszero\n    /* \"bep-20.sol\":3352:3415  require(!has(role, account), \"Roles: account already has role\") */\n  tag_52\n  jumpi\n  mload(0x40)\n  0x08c379a000000000000000000000000000000000000000000000000000000000\n  dup2\n  mstore\n  0x04\n  add\n  dup1\n  dup1\n  0x20\n  add\n  dup3\n  dup2\n  sub\n  dup3\n  mstore\n  0x1f\n  dup2\n  mstore\n  0x20\n  add\n  dup1\n  0x526f6c65733a206163636f756e7420616c72656164792068617320726f6c6500\n  dup2\n  mstore\n  pop\n  0x20\n  add\n  swap2\n  pop\n  pop\n  mload(0x40)\n  dup1\n  swap2\n  sub\n  swap1\n  revert\ntag_52:\n    /* \"bep-20.sol\":3448:3452  true */\n  0x01\n    /* \"bep-20.sol\":3425:3429  role */\n  dup3\n    /* \"bep-20.sol\":3425:3436  role.bearer */\n  0x00\n  add\n    /* \"bep-20.sol\":3425:3445  role.bearer[account] */\n  0x00\n    /* \"bep-20.sol\":3437:3444  account */\n  dup4\n    /* \"bep-20.sol\":3425:3445  role.bearer[account] */\n  0xffffffffffffffffffffffffffffffffffffffff\n  and\n  0xffffffffffffffffffffffffffffffffffffffff\n  and\n  dup2\n  mstore\n  0x20\n  add\n  swap1\n  dup2\n  mstore\n  0x20\n  add\n  0x00\n  keccak256\n  0x00\n    /* \"bep-20.sol\":3425:3452  role.bearer[account] = true */\n  0x0100\n  exp\n  dup2\n  sload\n  dup2\n  0xff\n  mul\n  not\n  and\n  swap1\n  dup4\n  iszero\n  iszero\n  mul\n  or\n  swap1\n  sstore\n  pop\n    /* \"bep-20.sol\":3284:3459  function add(Role storage role, address account) internal {... */\n  pop\n  pop\n  jump\t// out\n    /* \"bep-20.sol\":2728:2944  function div(... */\ntag_46:\n    /* \"bep-20.sol\":2844:2851  uint256 */\n  0x00\n    /* \"bep-20.sol\":2875:2876  0 */\n  dup1\n    /* \"bep-20.sol\":2871:2872  b */\n  dup4\n    /* \"bep-20.sol\":2871:2876  b > 0 */\n  gt\n    /* \"bep-20.sol\":2878:2890  errorMessage */\n  dup3\n    /* \"bep-20.sol\":2863:2891  require(b > 0, errorMessage) */\n  swap1\n  tag_54\n  jumpi\n  mload(0x40)\n  0x08c379a000000000000000000000000000000000000000000000000000000000\n  dup2\n  mstore\n  0x04\n  add\n  dup1\n  dup1\n  0x20\n  add\n  dup3\n  dup2\n  sub\n  dup3\n  mstore\n  dup4\n  dup2\n  dup2\n  mload\n  dup2\n  mstore\n  0x20\n  add\n  swap2\n  pop\n  dup1\n  mload\n  swap1\n  0x20\n  add\n  swap1\n  dup1\n  dup4\n  dup4\n  0x00\ntag_55:\n  dup4\n  dup2\n  lt\n  iszero\n  tag_57\n  jumpi\n  dup1\n  dup3\n  add\n  mload\n  dup2\n  dup5\n  add\n  mstore\n  0x20\n  dup2\n  add\n  swap1\n  pop\n  jump(tag_55)\ntag_57:\n  pop\n  pop\n  pop\n  pop\n  swap1\n  pop\n  swap1\n  dup2\n  add\n  swap1\n  0x1f\n  and\n  dup1\n  iszero\n  tag_58\n  jumpi\n  dup1\n  dup3\n  sub\n  dup1\n  mload\n  0x01\n  dup4\n  0x20\n  sub\n  0x0100\n  exp\n  sub\n  not\n  and\n  dup2\n  mstore\n  0x20\n  add\n  swap2\n  pop\ntag_58:\n  pop\n  swap3\n  pop\n  pop\n  pop\n  mload(0x40)\n  dup1\n  swap2\n  sub\n  swap1\n  revert\ntag_54:\n  pop\n    /* \"bep-20.sol\":2901:2910  uint256 c */\n  0x00\n    /* \"bep-20.sol\":2917:2918  b */\n  dup4\n    /* \"bep-20.sol\":2913:2914  a */\n  dup6\n    /* \"bep-20.sol\":2913:2918  a / b */\n  dup2\n  tag_59\n  jumpi\n  invalid\ntag_59:\n  div\n    /* \"bep-20.sol\":2901:2918  uint256 c = a / b */\n  swap1\n  pop\n    /* \"bep-20.sol\":2936:2937  c */\n  dup1\n    /* \"bep-20.sol\":2929:2937  return c */\n  swap2\n  pop\n  pop\n    /* \"bep-20.sol\":2728:2944  function div(... */\n  swap4\n  swap3\n  pop\n  pop\n  pop\n  jump\t// out\n    /* \"bep-20.sol\":3803:4003  function has(Role storage role, address account) internal view returns (bool) {... */\ntag_51:\n    /* \"bep-20.sol\":3875:3879  bool */\n  0x00\n    /* \"bep-20.sol\":3918:3919  0 */\n  dup1\n    /* \"bep-20.sol\":3899:3920  account != address(0) */\n  0xffffffffffffffffffffffffffffffffffffffff\n  and\n    /* \"bep-20.sol\":3899:3906  account */\n  dup3\n    /* \"bep-20.sol\":3899:3920  account != address(0) */\n  0xffffffffffffffffffffffffffffffffffffffff\n  and\n  eq\n  iszero\n    /* \"bep-20.sol\":3891:3959  require(account != address(0), \"Roles: account is the zero address\") */\n  tag_61\n  jumpi\n  mload(0x40)\n  0x08c379a000000000000000000000000000000000000000000000000000000000\n  dup2\n  mstore\n  0x04\n  add\n  dup1\n  dup1\n  0x20\n  add\n  dup3\n  dup2\n  sub\n  dup3\n  mstore\n  0x22\n  dup2\n  mstore\n  0x20\n  add\n  dup1\n  data_9d214fa89563f4e6456a3929327e54500ea1cde2c0ba9fb2035ec106190d682f\n  0x22\n  swap2\n  codecopy\n  0x40\n  add\n  swap2\n  pop\n  pop\n  mload(0x40)\n  dup1\n  swap2\n  sub\n  swap1\n  revert\ntag_61:\n    /* \"bep-20.sol\":3976:3980  role */\n  dup3\n    /* \"bep-20.sol\":3976:3987  role.bearer */\n  0x00\n  add\n    /* \"bep-20.sol\":3976:3996  role.bearer[account] */\n  0x00\n    /* \"bep-20.sol\":3988:3995  account */\n  dup4\n    /* \"bep-20.sol\":3976:3996  role.bearer[account] */\n  0xffffffffffffffffffffffffffffffffffffffff\n  and\n  0xffffffffffffffffffffffffffffffffffffffff\n  and\n  dup2\n  mstore\n  0x20\n  add\n  swap1\n  dup2\n  mstore\n  0x20\n  add\n  0x00\n  keccak256\n  0x00\n  swap1\n  sload\n  swap1\n  0x0100\n  exp\n  swap1\n  div\n  0xff\n  and\n    /* \"bep-20.sol\":3969:3996  return role.bearer[account] */\n  swap1\n  pop\n    /* \"bep-20.sol\":3803:4003  function has(Role storage role, address account) internal view returns (bool) {... */\n  swap3\n  swap2\n  pop\n  pop\n  jump\t// out\n    /* \"bep-20.sol\":8036:23052  contract Lost is ERC20Detailed, Ownable, MinterRole {... */\ntag_13:\n  dup3\n  dup1\n  sload\n  0x01\n  dup2\n  0x01\n  and\n  iszero\n  0x0100\n  mul\n  sub\n  and\n  0x02\n  swap1\n  div\n  swap1\n  0x00\n  mstore\n  keccak256(0x00, 0x20)\n  swap1\n  0x1f\n  add\n  0x20\n  swap1\n  div\n  dup2\n  add\n  swap3\n  dup3\n  tag_63\n  jumpi\n  0x00\n  dup6\n  sstore\n  jump(tag_62)\ntag_63:\n  dup3\n  0x1f\n  lt\n  tag_64\n  jumpi\n  dup1\n  mload\n  not(0xff)\n  and\n  dup4\n  dup1\n  add\n  or\n  dup6\n  sstore\n  jump(tag_62)\ntag_64:\n  dup3\n  dup1\n  add\n  0x01\n  add\n  dup6\n  sstore\n  dup3\n  iszero\n  tag_62\n  jumpi\n  swap2\n  dup3\n  add\ntag_65:\n  dup3\n  dup2\n  gt\n  iszero\n  tag_66\n  jumpi\n  dup3\n  mload\n  dup3\n  sstore\n  swap2\n  0x20\n  add\n  swap2\n  swap1\n  0x01\n  add\n  swap1\n  jump(tag_65)\ntag_66:\ntag_62:\n  pop\n  swap1\n  pop\n  tag_67\n  swap2\n  swap1\n  tag_68\n  jump\t// in\ntag_67:\n  pop\n  swap1\n  jump\t// out\ntag_68:\ntag_69:\n  dup1\n  dup3\n  gt\n  iszero\n  tag_70\n  jumpi\n  0x00\n  dup2\n  0x00\n  swap1\n  sstore\n  pop\n  0x01\n  add\n  jump(tag_69)\ntag_70:\n  pop\n  swap1\n  jump\t// out\ntag_38:\n  dataSize(sub_0)\n  dup1\n  dataOffset(sub_0)\n  0x00\n  codecopy\n  0x00\n  return\nstop\ndata_9d214fa89563f4e6456a3929327e54500ea1cde2c0ba9fb2035ec106190d682f 526f6c65733a206163636f756e7420697320746865207a65726f2061646472657373\n\nsub_0: assembly {\n        /* \"bep-20.sol\":8036:23052  contract Lost is ERC20Detailed, Ownable, MinterRole {... */\n      mstore(0x40, 0x80)\n      jumpi(tag_1, lt(calldatasize, 0x04))\n      shr(0xe0, calldataload(0x00))\n      dup1\n      0x7a43e23f\n      gt\n      tag_58\n      jumpi\n      dup1\n      0xbda5c8bb\n      gt\n      tag_59\n      jumpi\n      dup1\n      0xd5938aac\n      gt\n      tag_60\n      jumpi\n      dup1\n      0xdd62ed3e\n      gt\n      tag_61\n      jumpi\n      dup1\n      0xdd62ed3e\n      eq\n      tag_54\n      jumpi\n      dup1\n      0xf2fde38b\n      eq\n      tag_55\n      jumpi\n      dup1\n      0xf887ea40\n      eq\n      tag_56\n      jumpi\n      dup1\n      0xf9f92be4\n      eq\n      tag_57\n      jumpi\n      jump(tag_2)\n    tag_61:\n      dup1\n      0xd5938aac\n      eq\n      tag_51\n      jumpi\n      dup1\n      0xd7ac6585\n      eq\n      tag_52\n      jumpi\n      dup1\n      0xd7c01032\n      eq\n      tag_53\n      jumpi\n      jump(tag_2)\n    tag_60:\n      dup1\n      0xd1fce264\n      gt\n      tag_62\n      jumpi\n      dup1\n      0xd1fce264\n      eq\n      tag_47\n      jumpi\n      dup1\n      0xd37e219d\n      eq\n      tag_48\n      jumpi\n      dup1\n      0xd4399790\n      eq\n      tag_49\n      jumpi\n      dup1\n      0xd51ed1c8\n      eq\n      tag_50\n      jumpi\n      jump(tag_2)\n    tag_62:\n      dup1\n      0xbda5c8bb\n      eq\n      tag_44\n      jumpi\n      dup1\n      0xca33e64c\n      eq\n      tag_45\n      jumpi\n      dup1\n      0xd0889358\n      eq\n      tag_46\n      jumpi\n      jump(tag_2)\n    tag_59:\n      dup1\n      0x98118cb4\n      gt\n      tag_63\n      jumpi\n      dup1\n      0xa457c2d7\n      gt\n      tag_64\n      jumpi\n      dup1\n      0xa457c2d7\n      eq\n      tag_40\n      jumpi\n      dup1\n      0xa8aa1b31\n      eq\n      tag_41\n      jumpi\n      dup1\n      0xa9059cbb\n      eq\n      tag_42\n      jumpi\n      dup1\n      0xaa271e1a\n      eq\n      tag_43\n      jumpi\n      jump(tag_2)\n    tag_64:\n      dup1\n      0x98118cb4\n      eq\n      tag_37\n      jumpi\n      dup1\n      0x983b2d56\n      eq\n      tag_38\n      jumpi\n      dup1\n      0x98650275\n      eq\n      tag_39\n      jumpi\n      jump(tag_2)\n    tag_63:\n      dup1\n      0x8da5cb5b\n      gt\n      tag_65\n      jumpi\n      dup1\n      0x8da5cb5b\n      eq\n      tag_33\n      jumpi\n      dup1\n      0x8f32d59b\n      eq\n      tag_34\n      jumpi\n      dup1\n      0x9155e083\n      eq\n      tag_35\n      jumpi\n      dup1\n      0x95d89b41\n      eq\n      tag_36\n      jumpi\n      jump(tag_2)\n    tag_65:\n      dup1\n      0x7a43e23f\n      eq\n      tag_30\n      jumpi\n      dup1\n      0x800cee51\n      eq\n      tag_31\n      jumpi\n      dup1\n      0x83b4ac68\n      eq\n      tag_32\n      jumpi\n      jump(tag_2)\n    tag_58:\n      dup1\n      0x3092afd5\n      gt\n      tag_66\n      jumpi\n      dup1\n      0x56a227f2\n      gt\n      tag_67\n      jumpi\n      dup1\n      0x70a08231\n      gt\n      tag_68\n      jumpi\n      dup1\n      0x70a08231\n      eq\n      tag_26\n      jumpi\n      dup1\n      0x715018a6\n      eq\n      tag_27\n      jumpi\n      dup1\n      0x749796a5\n      eq\n      tag_28\n      jumpi\n      dup1\n      0x753d02a1\n      eq\n      tag_29\n      jumpi\n      jump(tag_2)\n    tag_68:\n      dup1\n      0x56a227f2\n      eq\n      tag_23\n      jumpi\n      dup1\n      0x6d351d1a\n      eq\n      tag_24\n      jumpi\n      dup1\n      0x6ddd1713\n      eq\n      tag_25\n      jumpi\n      jump(tag_2)\n    tag_67:\n      dup1\n      0x39509351\n      gt\n      tag_69\n      jumpi\n      dup1\n      0x39509351\n      eq\n      tag_19\n      jumpi\n      dup1\n      0x40c10f19\n      eq\n      tag_20\n      jumpi\n      dup1\n      0x4d709adf\n      eq\n      tag_21\n      jumpi\n      dup1\n      0x563df32f\n      eq\n      tag_22\n      jumpi\n      jump(tag_2)\n    tag_69:\n      dup1\n      0x3092afd5\n      eq\n      tag_16\n      jumpi\n      dup1\n      0x313ce567\n      eq\n      tag_17\n      jumpi\n      dup1\n      0x33f3d628\n      eq\n      tag_18\n      jumpi\n      jump(tag_2)\n    tag_66:\n      dup1\n      0x1df4ccfc\n      gt\n      tag_70\n      jumpi\n      dup1\n      0x2b112e49\n      gt\n      tag_71\n      jumpi\n      dup1\n      0x2b112e49\n      eq\n      tag_12\n      jumpi\n      dup1\n      0x2b14ca56\n      eq\n      tag_13\n      jumpi\n      dup1\n      0x2be6937d\n      eq\n      tag_14\n      jumpi\n      dup1\n      0x2f34d282\n      eq\n      tag_15\n      jumpi\n      jump(tag_2)\n    tag_71:\n      dup1\n      0x1df4ccfc\n      eq\n      tag_9\n      jumpi\n      dup1\n      0x201e7991\n      eq\n      tag_10\n      jumpi\n      dup1\n      0x23b872dd\n      eq\n      tag_11\n      jumpi\n      jump(tag_2)\n    tag_70:\n      dup1\n      0x04a66b48\n      eq\n      tag_3\n      jumpi\n      dup1\n      0x06fdde03\n      eq\n      tag_4\n      jumpi\n      dup1\n      0x095ea7b3\n      eq\n      tag_5\n      jumpi\n      dup1\n      0x1161ae39\n      eq\n      tag_6\n      jumpi\n      dup1\n      0x180b0d7e\n      eq\n      tag_7\n      jumpi\n      dup1\n      0x18160ddd\n      eq\n      tag_8\n      jumpi\n      jump(tag_2)\n    tag_1:\n      jumpi(tag_2, calldatasize)\n      stop\n    tag_2:\n      0x00\n      dup1\n      revert\n        /* \"bep-20.sol\":21455:21945  function setFees(... */\n    tag_3:\n      callvalue\n      dup1\n      iszero\n      tag_74\n      jumpi\n      0x00\n      dup1\n      revert\n    tag_74:\n      pop\n      tag_75\n      0x04\n      dup1\n      calldatasize\n      sub\n      0xa0\n      dup2\n      lt\n      iszero\n      tag_76\n      jumpi\n      0x00\n      dup1\n      revert\n    tag_76:\n      dup2\n      add\n      swap1\n      dup1\n      dup1\n      calldataload\n      swap1\n      0x20\n      add\n      swap1\n      swap3\n      swap2\n      swap1\n      dup1\n      calldataload\n      swap1\n      0x20\n      add\n      swap1\n      swap3\n      swap2\n      swap1\n      dup1\n      calldataload\n      swap1\n      0x20\n      add\n      swap1\n      swap3\n      swap2\n      swap1\n      dup1\n      calldataload\n      swap1\n      0x20\n      add\n      swap1\n      swap3\n      swap2\n      swap1\n      dup1\n      calldataload\n      swap1\n      0x20\n      add\n      swap1\n      swap3\n      swap2\n      swap1\n      pop\n      pop\n      pop\n      tag_77\n      jump\t// in\n    tag_75:\n      stop\n        /* \"bep-20.sol\":5169:5250  function name() public view returns (string memory) {... */\n    tag_4:\n      callvalue\n      dup1\n      iszero\n      tag_78\n      jumpi\n      0x00\n      dup1\n      revert\n    tag_78:\n      pop\n      tag_79\n      tag_80\n      jump\t// in\n    tag_79:\n      mload(0x40)\n      dup1\n      dup1\n      0x20\n      add\n      dup3\n      dup2\n      sub\n      dup3\n      mstore\n      dup4\n      dup2\n      dup2\n      mload\n      dup2\n      mstore\n      0x20\n      add\n      swap2\n      pop\n      dup1\n      mload\n      swap1\n      0x20\n      add\n      swap1\n      dup1\n      dup4\n      dup4\n      0x00\n    tag_81:\n      dup4\n      dup2\n      lt\n      iszero\n      tag_83\n      jumpi\n      dup1\n      dup3\n      add\n      mload\n      dup2\n      dup5\n      add\n      mstore\n      0x20\n      dup2\n      add\n      swap1\n      pop\n      jump(tag_81)\n    tag_83:\n      pop\n      pop\n      pop\n      pop\n      swap1\n      pop\n      swap1\n      dup2\n      add\n      swap1\n      0x1f\n      and\n      dup1\n      iszero\n      tag_84\n      jumpi\n      dup1\n      dup3\n      sub\n      dup1\n      mload\n      0x01\n      dup4\n      0x20\n      sub\n      0x0100\n      exp\n      sub\n      not\n      and\n      dup2\n      mstore\n      0x20\n      add\n      swap2\n      pop\n    tag_84:\n      pop\n      swap3\n      pop\n      pop\n      pop\n      mload(0x40)\n      dup1\n      swap2\n      sub\n      swap1\n      return\n        /* \"bep-20.sol\":18240:18517  function approve(address spender, uint256 value)... */\n    tag_5:\n      callvalue\n      dup1\n      iszero\n      tag_85\n      jumpi\n      0x00\n      dup1\n      revert\n    tag_85:\n      pop\n      tag_86\n      0x04\n      dup1\n      calldatasize\n      sub\n      0x40\n      dup2\n      lt\n      iszero\n      tag_87\n      jumpi\n      0x00\n      dup1\n      revert\n    tag_87:\n      dup2\n      add\n      swap1\n      dup1\n      dup1\n      calldataload\n      0xffffffffffffffffffffffffffffffffffffffff\n      and\n      swap1\n      0x20\n      add\n      swap1\n      swap3\n      swap2\n      swap1\n      dup1\n      calldataload\n      swap1\n      0x20\n      add\n      swap1\n      swap3\n      swap2\n      swap1\n      pop\n      pop\n      pop\n      tag_88\n      jump\t// in\n    tag_86:\n      mload(0x40)\n      dup1\n      dup3\n      iszero\n      iszero\n      dup2\n      mstore\n      0x20\n      add\n      swap2\n      pop\n      pop\n      mload(0x40)\n      dup1\n      swap2\n      sub\n      swap1\n      return\n        /* \"bep-20.sol\":22839:23015  function isOverLiquified(uint256 target, uint256 accuracy)... */\n    tag_6:\n      callvalue\n      dup1\n      iszero\n      tag_89\n      jumpi\n      0x00\n      dup1\n      revert\n    tag_89:\n      pop\n      tag_90\n      0x04\n      dup1\n      calldatasize\n      sub\n      0x40\n      dup2\n      lt\n      iszero\n      tag_91\n      jumpi\n      0x00\n      dup1\n      revert\n    tag_91:\n      dup2\n      add\n      swap1\n      dup1\n      dup1\n      calldataload\n      swap1\n      0x20\n      add\n      swap1\n      swap3\n      swap2\n      swap1\n      dup1\n      calldataload\n      swap1\n      0x20\n      add\n      swap1\n      swap3\n      swap2\n      swap1\n      pop\n      pop\n      pop\n      tag_92\n      jump\t// in\n    tag_90:\n      mload(0x40)\n      dup1\n      dup3\n      iszero\n      iszero\n      dup2\n      mstore\n      0x20\n      add\n      swap2\n      pop\n      pop\n      mload(0x40)\n      dup1\n      swap2\n      sub\n      swap1\n      return\n        /* \"bep-20.sol\":9106:9141  uint256 public feeDenominator = 100 */\n    tag_7:\n      callvalue\n      dup1\n      iszero\n      tag_93\n      jumpi\n      0x00\n      dup1\n      revert\n    tag_93:\n      pop\n      tag_94\n      tag_95\n      jump\t// in\n    tag_94:\n      mload(0x40)\n      dup1\n      dup3\n      dup2\n      mstore\n      0x20\n      add\n      swap2\n      pop\n      pop\n      mload(0x40)\n      dup1\n      swap2\n      sub\n      swap1\n      return\n        /* \"bep-20.sol\":12139:12239  function totalSupply() external view override returns (uint256) {... */\n    tag_8:\n      callvalue\n      dup1\n      iszero\n      tag_96\n      jumpi\n      0x00\n      dup1\n      revert\n    tag_96:\n      pop\n      tag_97\n      tag_98\n      jump\t// in\n    tag_97:\n      mload(0x40)\n      dup1\n      dup3\n      dup2\n      mstore\n      0x20\n      add\n      swap2\n      pop\n      pop\n      mload(0x40)\n      dup1\n      swap2\n      sub\n      swap1\n      return\n        /* \"bep-20.sol\":9021:9100  uint256 public totalFee =... */\n    tag_9:\n      callvalue\n      dup1\n      iszero\n      tag_99\n      jumpi\n      0x00\n      dup1\n      revert\n    tag_99:\n      pop\n      tag_100\n      tag_101\n      jump\t// in\n    tag_100:\n      mload(0x40)\n      dup1\n      dup3\n      dup2\n      mstore\n      0x20\n      add\n      swap2\n      pop\n      pop\n      mload(0x40)\n      dup1\n      swap2\n      sub\n      swap1\n      return\n        /* \"bep-20.sol\":20195:20364  function setTargetLiquidity(uint256 target, uint256 accuracy) external onlyOwner {... */\n    tag_10:\n      callvalue\n      dup1\n      iszero\n      tag_102\n      jumpi\n      0x00\n      dup1\n      revert\n    tag_102:\n      pop\n      tag_103\n      0x04\n      dup1\n      calldatasize\n      sub\n      0x40\n      dup2\n      lt\n      iszero\n      tag_104\n      jumpi\n      0x00\n      dup1\n      revert\n    tag_104:\n      dup2\n      add\n      swap1\n      dup1\n      dup1\n      calldataload\n      swap1\n      0x20\n      add\n      swap1\n      swap3\n      swap2\n      swap1\n      dup1\n      calldataload\n      swap1\n      0x20\n      add\n      swap1\n      swap3\n      swap2\n      swap1\n      pop\n      pop\n      pop\n      tag_105\n      jump\t// in\n    tag_103:\n      stop\n        /* \"bep-20.sol\":14214:14658  function transferFrom(... */\n    tag_11:\n      callvalue\n      dup1\n      iszero\n      tag_106\n      jumpi\n      0x00\n      dup1\n      revert\n    tag_106:\n      pop\n      tag_107\n      0x04\n      dup1\n      calldatasize\n      sub\n      0x60\n      dup2\n      lt\n      iszero\n      tag_108\n      jumpi\n      0x00\n      dup1\n      revert\n    tag_108:\n      dup2\n      add\n      swap1\n      dup1\n      dup1\n      calldataload\n      0xffffffffffffffffffffffffffffffffffffffff\n      and\n      swap1\n      0x20\n      add\n      swap1\n      swap3\n      swap2\n      swap1\n      dup1\n      calldataload\n      0xffffffffffffffffffffffffffffffffffffffff\n      and\n      swap1\n      0x20\n      add\n      swap1\n      swap3\n      swap2\n      swap1\n      dup1\n      calldataload\n      swap1\n      0x20\n      add\n      swap1\n      swap3\n      swap2\n      swap1\n      pop\n      pop\n      pop\n      tag_109\n      jump\t// in\n    tag_107:\n      mload(0x40)\n      dup1\n      dup3\n      iszero\n      iszero\n      dup2\n      mstore\n      0x20\n      add\n      swap2\n      pop\n      pop\n      mload(0x40)\n      dup1\n      swap2\n      sub\n      swap1\n      return\n        /* \"bep-20.sol\":19979:20189  function getCirculatingSupply() public view returns (uint256) {... */\n    tag_12:\n      callvalue\n      dup1\n      iszero\n      tag_110\n      jumpi\n      0x00\n      dup1\n      revert\n    tag_110:\n      pop\n      tag_111\n      tag_112\n      jump\t// in\n    tag_111:\n      mload(0x40)\n      dup1\n      dup3\n      dup2\n      mstore\n      0x20\n      add\n      swap2\n      pop\n      pop\n      mload(0x40)\n      dup1\n      swap2\n      sub\n      swap1\n      return\n        /* \"bep-20.sol\":8989:9015  uint256 public sellFee = 5 */\n    tag_13:\n      callvalue\n      dup1\n      iszero\n      tag_113\n      jumpi\n      0x00\n      dup1\n      revert\n    tag_113:\n      pop\n      tag_114\n      tag_115\n      jump\t// in\n    tag_114:\n      mload(0x40)\n      dup1\n      dup3\n      dup2\n      mstore\n      0x20\n      add\n      swap2\n      pop\n      pop\n      mload(0x40)\n      dup1\n      swap2\n      sub\n      swap1\n      return\n        /* \"bep-20.sol\":18640:18752  function setInitialDistributionFinished() external onlyOwner {... */\n    tag_14:\n      callvalue\n      dup1\n      iszero\n      tag_116\n      jumpi\n      0x00\n      dup1\n      revert\n    tag_116:\n      pop\n      tag_117\n      tag_118\n      jump\t// in\n    tag_117:\n      stop\n        /* \"bep-20.sol\":12490:12627  function setLP(address _address) external onlyOwner {... */\n    tag_15:\n      callvalue\n      dup1\n      iszero\n      tag_119\n      jumpi\n      0x00\n      dup1\n      revert\n    tag_119:\n      pop\n      tag_120\n      0x04\n      dup1\n      calldatasize\n      sub\n      0x20\n      dup2\n      lt\n      iszero\n      tag_121\n      jumpi\n      0x00\n      dup1\n      revert\n    tag_121:\n      dup2\n      add\n      swap1\n      dup1\n      dup1\n      calldataload\n      0xffffffffffffffffffffffffffffffffffffffff\n      and\n      swap1\n      0x20\n      add\n      swap1\n      swap3\n      swap2\n      swap1\n      pop\n      pop\n      pop\n      tag_122\n      jump\t// in\n    tag_120:\n      stop\n        /* \"bep-20.sol\":20465:20560  function removeMinter(address account) public onlyOwner {... */\n    tag_16:\n      callvalue\n      dup1\n      iszero\n      tag_123\n      jumpi\n      0x00\n      dup1\n      revert\n    tag_123:\n      pop\n      tag_124\n      0x04\n      dup1\n      calldatasize\n      sub\n      0x20\n      dup2\n      lt\n      iszero\n      tag_125\n      jumpi\n      0x00\n      dup1\n      revert\n    tag_125:\n      dup2\n      add\n      swap1\n      dup1\n      dup1\n      calldataload\n      0xffffffffffffffffffffffffffffffffffffffff\n      and\n      swap1\n      0x20\n      add\n      swap1\n      swap3\n      swap2\n      swap1\n      pop\n      pop\n      pop\n      tag_126\n      jump\t// in\n    tag_124:\n      stop\n        /* \"bep-20.sol\":5347:5428  function decimals() public view returns (uint8) {... */\n    tag_17:\n      callvalue\n      dup1\n      iszero\n      tag_127\n      jumpi\n      0x00\n      dup1\n      revert\n    tag_127:\n      pop\n      tag_128\n      tag_129\n      jump\t// in\n    tag_128:\n      mload(0x40)\n      dup1\n      dup3\n      0xff\n      and\n      dup2\n      mstore\n      0x20\n      add\n      swap2\n      pop\n      pop\n      mload(0x40)\n      dup1\n      swap2\n      sub\n      swap1\n      return\n        /* \"bep-20.sol\":22191:22398  function rescueToken(address tokenAddress, uint256 tokens)... */\n    tag_18:\n      callvalue\n      dup1\n      iszero\n      tag_130\n      jumpi\n      0x00\n      dup1\n      revert\n    tag_130:\n      pop\n      tag_131\n      0x04\n      dup1\n      calldatasize\n      sub\n      0x40\n      dup2\n      lt\n      iszero\n      tag_132\n      jumpi\n      0x00\n      dup1\n      revert\n    tag_132:\n      dup2\n      add\n      swap1\n      dup1\n      dup1\n      calldataload\n      0xffffffffffffffffffffffffffffffffffffffff\n      and\n      swap1\n      0x20\n      add\n      swap1\n      swap3\n      swap2\n      swap1\n      dup1\n      calldataload\n      swap1\n      0x20\n      add\n      swap1\n      swap3\n      swap2\n      swap1\n      pop\n      pop\n      pop\n      tag_133\n      jump\t// in\n    tag_131:\n      mload(0x40)\n      dup1\n      dup3\n      iszero\n      iszero\n      dup2\n      mstore\n      0x20\n      add\n      swap2\n      pop\n      pop\n      mload(0x40)\n      dup1\n      swap2\n      sub\n      swap1\n      return\n        /* \"bep-20.sol\":17809:18234  function increaseAllowance(address spender, uint256 addedValue)... */\n    tag_19:\n      callvalue\n      dup1\n      iszero\n      tag_134\n      jumpi\n      0x00\n      dup1\n      revert\n    tag_134:\n      pop\n      tag_135\n      0x04\n      dup1\n      calldatasize\n      sub\n      0x40\n      dup2\n      lt\n      iszero\n      tag_136\n      jumpi\n      0x00\n      dup1\n      revert\n    tag_136:\n      dup2\n      add\n      swap1\n      dup1\n      dup1\n      calldataload\n      0xffffffffffffffffffffffffffffffffffffffff\n      and\n      swap1\n      0x20\n      add\n      swap1\n      swap3\n      swap2\n      swap1\n      dup1\n      calldataload\n      swap1\n      0x20\n      add\n      swap1\n      swap3\n      swap2\n      swap1\n      pop\n      pop\n      pop\n      tag_137\n      jump\t// in\n    tag_135:\n      mload(0x40)\n      dup1\n      dup3\n      iszero\n      iszero\n      dup2\n      mstore\n      0x20\n      add\n      swap2\n      pop\n      pop\n      mload(0x40)\n      dup1\n      swap2\n      sub\n      swap1\n      return\n        /* \"bep-20.sol\":19132:19516  function mint(address recipient, uint256 amount) external onlyMinter {... */\n    tag_20:\n      callvalue\n      dup1\n      iszero\n      tag_138\n      jumpi\n      0x00\n      dup1\n      revert\n    tag_138:\n      pop\n      tag_139\n      0x04\n      dup1\n      calldatasize\n      sub\n      0x40\n      dup2\n      lt\n      iszero\n      tag_140\n      jumpi\n      0x00\n      dup1\n      revert\n    tag_140:\n      dup2\n      add\n      swap1\n      dup1\n      dup1\n      calldataload\n      0xffffffffffffffffffffffffffffffffffffffff\n      and\n      swap1\n      0x20\n      add\n      swap1\n      swap3\n      swap2\n      swap1\n      dup1\n      calldataload\n      swap1\n      0x20\n      add\n      swap1\n      swap3\n      swap2\n      swap1\n      pop\n      pop\n      pop\n      tag_141\n      jump\t// in\n    tag_139:\n      stop\n        /* \"bep-20.sol\":8227:8258  InterfaceLP public pairContract */\n    tag_21:\n      callvalue\n      dup1\n      iszero\n      tag_142\n      jumpi\n      0x00\n      dup1\n      revert\n    tag_142:\n      pop\n      tag_143\n      tag_144\n      jump\t// in\n    tag_143:\n      mload(0x40)\n      dup1\n      dup3\n      0xffffffffffffffffffffffffffffffffffffffff\n      and\n      dup2\n      mstore\n      0x20\n      add\n      swap2\n      pop\n      pop\n      mload(0x40)\n      dup1\n      swap2\n      sub\n      swap1\n      return\n        /* \"bep-20.sol\":8918:8945  uint256 public Treasury = 3 */\n    tag_22:\n      callvalue\n      dup1\n      iszero\n      tag_145\n      jumpi\n      0x00\n      dup1\n      revert\n    tag_145:\n      pop\n      tag_146\n      tag_147\n      jump\t// in\n    tag_146:\n      mload(0x40)\n      dup1\n      dup3\n      dup2\n      mstore\n      0x20\n      add\n      swap2\n      pop\n      pop\n      mload(0x40)\n      dup1\n      swap2\n      sub\n      swap1\n      return\n        /* \"bep-20.sol\":21951:22185  function clearStuckBalance(uint256 amountPercentage, address adr) external onlyOwner {... */\n    tag_23:\n      callvalue\n      dup1\n      iszero\n      tag_148\n      jumpi\n      0x00\n      dup1\n      revert\n    tag_148:\n      pop\n      tag_149\n      0x04\n      dup1\n      calldatasize\n      sub\n      0x40\n      dup2\n      lt\n      iszero\n      tag_150\n      jumpi\n      0x00\n      dup1\n      revert\n    tag_150:\n      dup2\n      add\n      swap1\n      dup1\n      dup1\n      calldataload\n      swap1\n      0x20\n      add\n      swap1\n      swap3\n      swap2\n      swap1\n      dup1\n      calldataload\n      0xffffffffffffffffffffffffffffffffffffffff\n      and\n      swap1\n      0x20\n      add\n      swap1\n      swap3\n      swap2\n      swap1\n      pop\n      pop\n      pop\n      tag_151\n      jump\t// in\n    tag_149:\n      stop\n        /* \"bep-20.sol\":20911:21035  function checkSwapThreshold() external view returns (uint256) {... */\n    tag_24:\n      callvalue\n      dup1\n      iszero\n      tag_152\n      jumpi\n      0x00\n      dup1\n      revert\n    tag_152:\n      pop\n      tag_153\n      tag_154\n      jump\t// in\n    tag_153:\n      mload(0x40)\n      dup1\n      dup3\n      dup2\n      mstore\n      0x20\n      add\n      swap2\n      pop\n      pop\n      mload(0x40)\n      dup1\n      swap2\n      sub\n      swap1\n      return\n        /* \"bep-20.sol\":9534:9564  bool public swapEnabled = true */\n    tag_25:\n      callvalue\n      dup1\n      iszero\n      tag_155\n      jumpi\n      0x00\n      dup1\n      revert\n    tag_155:\n      pop\n      tag_156\n      tag_157\n      jump\t// in\n    tag_156:\n      mload(0x40)\n      dup1\n      dup3\n      iszero\n      iszero\n      dup2\n      mstore\n      0x20\n      add\n      swap2\n      pop\n      pop\n      mload(0x40)\n      dup1\n      swap2\n      sub\n      swap1\n      return\n        /* \"bep-20.sol\":12826:12962  function balanceOf(address who) external view override returns (uint256) {... */\n    tag_26:\n      callvalue\n      dup1\n      iszero\n      tag_158\n      jumpi\n      0x00\n      dup1\n      revert\n    tag_158:\n      pop\n      tag_159\n      0x04\n      dup1\n      calldatasize\n      sub\n      0x20\n      dup2\n      lt\n      iszero\n      tag_160\n      jumpi\n      0x00\n      dup1\n      revert\n    tag_160:\n      dup2\n      add\n      swap1\n      dup1\n      dup1\n      calldataload\n      0xffffffffffffffffffffffffffffffffffffffff\n      and\n      swap1\n      0x20\n      add\n      swap1\n      swap3\n      swap2\n      swap1\n      pop\n      pop\n      pop\n      tag_161\n      jump\t// in\n    tag_159:\n      mload(0x40)\n      dup1\n      dup3\n      dup2\n      mstore\n      0x20\n      add\n      swap2\n      pop\n      pop\n      mload(0x40)\n      dup1\n      swap2\n      sub\n      swap1\n      return\n        /* \"bep-20.sol\":7607:7730  function renounceOwnership() public onlyOwner {... */\n    tag_27:\n      callvalue\n      dup1\n      iszero\n      tag_162\n      jumpi\n      0x00\n      dup1\n      revert\n    tag_162:\n      pop\n      tag_163\n      tag_164\n      jump\t// in\n    tag_163:\n      stop\n        /* \"bep-20.sol\":18866:18965  function setFeeExempt(address _addr) external onlyOwner {... */\n    tag_28:\n      callvalue\n      dup1\n      iszero\n      tag_165\n      jumpi\n      0x00\n      dup1\n      revert\n    tag_165:\n      pop\n      tag_166\n      0x04\n      dup1\n      calldatasize\n      sub\n      0x20\n      dup2\n      lt\n      iszero\n      tag_167\n      jumpi\n      0x00\n      dup1\n      revert\n    tag_167:\n      dup2\n      add\n      swap1\n      dup1\n      dup1\n      calldataload\n      0xffffffffffffffffffffffffffffffffffffffff\n      and\n      swap1\n      0x20\n      add\n      swap1\n      swap3\n      swap2\n      swap1\n      pop\n      pop\n      pop\n      tag_168\n      jump\t// in\n    tag_166:\n      stop\n        /* \"bep-20.sol\":21041:21113  function manualSync() external {... */\n    tag_29:\n      callvalue\n      dup1\n      iszero\n      tag_169\n      jumpi\n      0x00\n      dup1\n      revert\n    tag_169:\n      pop\n      tag_170\n      tag_171\n      jump\t// in\n    tag_170:\n      stop\n        /* \"bep-20.sol\":11400:12133  function rebase(uint256 epoch, int256 supplyDelta)... */\n    tag_30:\n      callvalue\n      dup1\n      iszero\n      tag_172\n      jumpi\n      0x00\n      dup1\n      revert\n    tag_172:\n      pop\n      tag_173\n      0x04\n      dup1\n      calldatasize\n      sub\n      0x40\n      dup2\n      lt\n      iszero\n      tag_174\n      jumpi\n      0x00\n      dup1\n      revert\n    tag_174:\n      dup2\n      add\n      swap1\n      dup1\n      dup1\n      calldataload\n      swap1\n      0x20\n      add\n      swap1\n      swap3\n      swap2\n      swap1\n      dup1\n      calldataload\n      swap1\n      0x20\n      add\n      swap1\n      swap3\n      swap2\n      swap1\n      pop\n      pop\n      pop\n      tag_175\n      jump\t// in\n    tag_173:\n      mload(0x40)\n      dup1\n      dup3\n      dup2\n      mstore\n      0x20\n      add\n      swap2\n      pop\n      pop\n      mload(0x40)\n      dup1\n      swap2\n      sub\n      swap1\n      return\n        /* \"bep-20.sol\":9317:9348  address public TreasuryReceiver */\n    tag_31:\n      callvalue\n      dup1\n      iszero\n      tag_176\n      jumpi\n      0x00\n      dup1\n      revert\n    tag_176:\n      pop\n      tag_177\n      tag_178\n      jump\t// in\n    tag_177:\n      mload(0x40)\n      dup1\n      dup3\n      0xffffffffffffffffffffffffffffffffffffffff\n      and\n      dup2\n      mstore\n      0x20\n      add\n      swap2\n      pop\n      pop\n      mload(0x40)\n      dup1\n      swap2\n      sub\n      swap1\n      return\n        /* \"bep-20.sol\":20566:20649  function isNotInSwap() external view returns (bool) {... */\n    tag_32:\n      callvalue\n      dup1\n      iszero\n      tag_179\n      jumpi\n      0x00\n      dup1\n      revert\n    tag_179:\n      pop\n      tag_180\n      tag_181\n      jump\t// in\n    tag_180:\n      mload(0x40)\n      dup1\n      dup3\n      iszero\n      iszero\n      dup2\n      mstore\n      0x20\n      add\n      swap2\n      pop\n      pop\n      mload(0x40)\n      dup1\n      swap2\n      sub\n      swap1\n      return\n        /* \"bep-20.sol\":7355:7432  function owner() public view returns (address) {... */\n    tag_33:\n      callvalue\n      dup1\n      iszero\n      tag_182\n      jumpi\n      0x00\n      dup1\n      revert\n    tag_182:\n      pop\n      tag_183\n      tag_184\n      jump\t// in\n    tag_183:\n      mload(0x40)\n      dup1\n      dup3\n      0xffffffffffffffffffffffffffffffffffffffff\n      and\n      dup2\n      mstore\n      0x20\n      add\n      swap2\n      pop\n      pop\n      mload(0x40)\n      dup1\n      swap2\n      sub\n      swap1\n      return\n        /* \"bep-20.sol\":7511:7601  function isOwner() public view returns (bool) {... */\n    tag_34:\n      callvalue\n      dup1\n      iszero\n      tag_185\n      jumpi\n      0x00\n      dup1\n      revert\n    tag_185:\n      pop\n      tag_186\n      tag_187\n      jump\t// in\n    tag_186:\n      mload(0x40)\n      dup1\n      dup3\n      iszero\n      iszero\n      dup2\n      mstore\n      0x20\n      add\n      swap2\n      pop\n      pop\n      mload(0x40)\n      dup1\n      swap2\n      sub\n      swap1\n      return\n        /* \"bep-20.sol\":11285:11394  function updateBlacklist(address _user, bool _flag) public onlyOwner{... */\n    tag_35:\n      callvalue\n      dup1\n      iszero\n      tag_188\n      jumpi\n      0x00\n      dup1\n      revert\n    tag_188:\n      pop\n      tag_189\n      0x04\n      dup1\n      calldatasize\n      sub\n      0x40\n      dup2\n      lt\n      iszero\n      tag_190\n      jumpi\n      0x00\n      dup1\n      revert\n    tag_190:\n      dup2\n      add\n      swap1\n      dup1\n      dup1\n      calldataload\n      0xffffffffffffffffffffffffffffffffffffffff\n      and\n      swap1\n      0x20\n      add\n      swap1\n      swap3\n      swap2\n      swap1\n      dup1\n      calldataload\n      iszero\n      iszero\n      swap1\n      0x20\n      add\n      swap1\n      swap3\n      swap2\n      swap1\n      pop\n      pop\n      pop\n      tag_191\n      jump\t// in\n    tag_189:\n      stop\n        /* \"bep-20.sol\":5256:5341  function symbol() public view returns (string memory) {... */\n    tag_36:\n      callvalue\n      dup1\n      iszero\n      tag_192\n      jumpi\n      0x00\n      dup1\n      revert\n    tag_192:\n      pop\n      tag_193\n      tag_194\n      jump\t// in\n    tag_193:\n      mload(0x40)\n      dup1\n      dup1\n      0x20\n      add\n      dup3\n      dup2\n      sub\n      dup3\n      mstore\n      dup4\n      dup2\n      dup2\n      mload\n      dup2\n      mstore\n      0x20\n      add\n      swap2\n      pop\n      dup1\n      mload\n      swap1\n      0x20\n      add\n      swap1\n      dup1\n      dup4\n      dup4\n      0x00\n    tag_195:\n      dup4\n      dup2\n      lt\n      iszero\n      tag_197\n      jumpi\n      dup1\n      dup3\n      add\n      mload\n      dup2\n      dup5\n      add\n      mstore\n      0x20\n      dup2\n      add\n      swap1\n      pop\n      jump(tag_195)\n    tag_197:\n      pop\n      pop\n      pop\n      pop\n      swap1\n      pop\n      swap1\n      dup2\n      add\n      swap1\n      0x1f\n      and\n      dup1\n      iszero\n      tag_198\n      jumpi\n      dup1\n      dup3\n      sub\n      dup1\n      mload\n      0x01\n      dup4\n      0x20\n      sub\n      0x0100\n      exp\n      sub\n      not\n      and\n      dup2\n      mstore\n      0x20\n      add\n      swap2\n      pop\n    tag_198:\n      pop\n      swap3\n      pop\n      pop\n      pop\n      mload(0x40)\n      dup1\n      swap2\n      sub\n      swap1\n      return\n        /* \"bep-20.sol\":8881:8912  uint256 public liquidityFee = 5 */\n    tag_37:\n      callvalue\n      dup1\n      iszero\n      tag_199\n      jumpi\n      0x00\n      dup1\n      revert\n    tag_199:\n      pop\n      tag_200\n      tag_201\n      jump\t// in\n    tag_200:\n      mload(0x40)\n      dup1\n      dup3\n      dup2\n      mstore\n      0x20\n      add\n      swap2\n      pop\n      pop\n      mload(0x40)\n      dup1\n      swap2\n      sub\n      swap1\n      return\n        /* \"bep-20.sol\":20370:20459  function addMinter(address account) public onlyOwner {... */\n    tag_38:\n      callvalue\n      dup1\n      iszero\n      tag_202\n      jumpi\n      0x00\n      dup1\n      revert\n    tag_202:\n      pop\n      tag_203\n      0x04\n      dup1\n      calldatasize\n      sub\n      0x20\n      dup2\n      lt\n      iszero\n      tag_204\n      jumpi\n      0x00\n      dup1\n      revert\n    tag_204:\n      dup2\n      add\n      swap1\n      dup1\n      dup1\n      calldataload\n      0xffffffffffffffffffffffffffffffffffffffff\n      and\n      swap1\n      0x20\n      add\n      swap1\n      swap3\n      swap2\n      swap1\n      pop\n      pop\n      pop\n      tag_205\n      jump\t// in\n    tag_203:\n      stop\n        /* \"bep-20.sol\":4509:4584  function renounceMinter() public {... */\n    tag_39:\n      callvalue\n      dup1\n      iszero\n      tag_206\n      jumpi\n      0x00\n      dup1\n      revert\n    tag_206:\n      pop\n      tag_207\n      tag_208\n      jump\t// in\n    tag_207:\n      stop\n        /* \"bep-20.sol\":17193:17803  function decreaseAllowance(address spender, uint256 subtractedValue)... */\n    tag_40:\n      callvalue\n      dup1\n      iszero\n      tag_209\n      jumpi\n      0x00\n      dup1\n      revert\n    tag_209:\n      pop\n      tag_210\n      0x04\n      dup1\n      calldatasize\n      sub\n      0x40\n      dup2\n      lt\n      iszero\n      tag_211\n      jumpi\n      0x00\n      dup1\n      revert\n    tag_211:\n      dup2\n      add\n      swap1\n      dup1\n      dup1\n      calldataload\n      0xffffffffffffffffffffffffffffffffffffffff\n      and\n      swap1\n      0x20\n      add\n      swap1\n      swap3\n      swap2\n      swap1\n      dup1\n      calldataload\n      swap1\n      0x20\n      add\n      swap1\n      swap3\n      swap2\n      swap1\n      pop\n      pop\n      pop\n      tag_212\n      jump\t// in\n    tag_210:\n      mload(0x40)\n      dup1\n      dup3\n      iszero\n      iszero\n      dup2\n      mstore\n      0x20\n      add\n      swap2\n      pop\n      pop\n      mload(0x40)\n      dup1\n      swap2\n      sub\n      swap1\n      return\n        /* \"bep-20.sol\":9508:9527  address public pair */\n    tag_41:\n      callvalue\n      dup1\n      iszero\n      tag_213\n      jumpi\n      0x00\n      dup1\n      revert\n    tag_213:\n      pop\n      tag_214\n      tag_215\n      jump\t// in\n    tag_214:\n      mload(0x40)\n      dup1\n      dup3\n      0xffffffffffffffffffffffffffffffffffffffff\n      and\n      dup2\n      mstore\n      0x20\n      add\n      swap2\n      pop\n      pop\n      mload(0x40)\n      dup1\n      swap2\n      sub\n      swap1\n      return\n        /* \"bep-20.sol\":12245:12484  function transfer(address to, uint256 value)... */\n    tag_42:\n      callvalue\n      dup1\n      iszero\n      tag_216\n      jumpi\n      0x00\n      dup1\n      revert\n    tag_216:\n      pop\n      tag_217\n      0x04\n      dup1\n      calldatasize\n      sub\n      0x40\n      dup2\n      lt\n      iszero\n      tag_218\n      jumpi\n      0x00\n      dup1\n      revert\n    tag_218:\n      dup2\n      add\n      swap1\n      dup1\n      dup1\n      calldataload\n      0xffffffffffffffffffffffffffffffffffffffff\n      and\n      swap1\n      0x20\n      add\n      swap1\n      swap3\n      swap2\n      swap1\n      dup1\n      calldataload\n      swap1\n      0x20\n      add\n      swap1\n      swap3\n      swap2\n      swap1\n      pop\n      pop\n      pop\n      tag_219\n      jump\t// in\n    tag_217:\n      mload(0x40)\n      dup1\n      dup3\n      iszero\n      iszero\n      dup2\n      mstore\n      0x20\n      add\n      swap2\n      pop\n      pop\n      mload(0x40)\n      dup1\n      swap2\n      sub\n      swap1\n      return\n        /* \"bep-20.sol\":4396:4503  function isMinter(address account) public view returns (bool) {... */\n    tag_43:\n      callvalue\n      dup1\n      iszero\n      tag_220\n      jumpi\n      0x00\n      dup1\n      revert\n    tag_220:\n      pop\n      tag_221\n      0x04\n      dup1\n      calldatasize\n      sub\n      0x20\n      dup2\n      lt\n      iszero\n      tag_222\n      jumpi\n      0x00\n      dup1\n      revert\n    tag_222:\n      dup2\n      add\n      swap1\n      dup1\n      dup1\n      calldataload\n      0xffffffffffffffffffffffffffffffffffffffff\n      and\n      swap1\n      0x20\n      add\n      swap1\n      swap3\n      swap2\n      swap1\n      pop\n      pop\n      pop\n      tag_223\n      jump\t// in\n    tag_221:\n      mload(0x40)\n      dup1\n      dup3\n      iszero\n      iszero\n      dup2\n      mstore\n      0x20\n      add\n      swap2\n      pop\n      pop\n      mload(0x40)\n      dup1\n      swap2\n      sub\n      swap1\n      return\n        /* \"bep-20.sol\":8951:8983  uint256 public RiskFreeValue = 5 */\n    tag_44:\n      callvalue\n      dup1\n      iszero\n      tag_224\n      jumpi\n      0x00\n      dup1\n      revert\n    tag_224:\n      pop\n      tag_225\n      tag_226\n      jump\t// in\n    tag_225:\n      mload(0x40)\n      dup1\n      dup3\n      dup2\n      mstore\n      0x20\n      add\n      swap2\n      pop\n      pop\n      mload(0x40)\n      dup1\n      swap2\n      sub\n      swap1\n      return\n        /* \"bep-20.sol\":9275:9311  address public autoLiquidityReceiver */\n    tag_45:\n      callvalue\n      dup1\n      iszero\n      tag_227\n      jumpi\n      0x00\n      dup1\n      revert\n    tag_227:\n      pop\n      tag_228\n      tag_229\n      jump\t// in\n    tag_228:\n      mload(0x40)\n      dup1\n      dup3\n      0xffffffffffffffffffffffffffffffffffffffff\n      and\n      dup2\n      mstore\n      0x20\n      add\n      swap2\n      pop\n      pop\n      mload(0x40)\n      dup1\n      swap2\n      sub\n      swap1\n      return\n        /* \"bep-20.sol\":19522:19745  function setSwapBackSettings(... */\n    tag_46:\n      callvalue\n      dup1\n      iszero\n      tag_230\n      jumpi\n      0x00\n      dup1\n      revert\n    tag_230:\n      pop\n      tag_231\n      0x04\n      dup1\n      calldatasize\n      sub\n      0x60\n      dup2\n      lt\n      iszero\n      tag_232\n      jumpi\n      0x00\n      dup1\n      revert\n    tag_232:\n      dup2\n      add\n      swap1\n      dup1\n      dup1\n      calldataload\n      iszero\n      iszero\n      swap1\n      0x20\n      add\n      swap1\n      swap3\n      swap2\n      swap1\n      dup1\n      calldataload\n      swap1\n      0x20\n      add\n      swap1\n      swap3\n      swap2\n      swap1\n      dup1\n      calldataload\n      swap1\n      0x20\n      add\n      swap1\n      swap3\n      swap2\n      swap1\n      pop\n      pop\n      pop\n      tag_233\n      jump\t// in\n    tag_231:\n      stop\n        /* \"bep-20.sol\":8265:8304  bool public initialDistributionFinished */\n    tag_47:\n      callvalue\n      dup1\n      iszero\n      tag_234\n      jumpi\n      0x00\n      dup1\n      revert\n    tag_234:\n      pop\n      tag_235\n      tag_236\n      jump\t// in\n    tag_235:\n      mload(0x40)\n      dup1\n      dup3\n      iszero\n      iszero\n      dup2\n      mstore\n      0x20\n      add\n      swap2\n      pop\n      pop\n      mload(0x40)\n      dup1\n      swap2\n      sub\n      swap1\n      return\n        /* \"bep-20.sol\":20655:20905  function sendPresale(address[] calldata recipients, uint256[] calldata values)... */\n    tag_48:\n      callvalue\n      dup1\n      iszero\n      tag_237\n      jumpi\n      0x00\n      dup1\n      revert\n    tag_237:\n      pop\n      tag_238\n      0x04\n      dup1\n      calldatasize\n      sub\n      0x40\n      dup2\n      lt\n      iszero\n      tag_239\n      jumpi\n      0x00\n      dup1\n      revert\n    tag_239:\n      dup2\n      add\n      swap1\n      dup1\n      dup1\n      calldataload\n      swap1\n      0x20\n      add\n      swap1\n      0x0100000000\n      dup2\n      gt\n      iszero\n      tag_240\n      jumpi\n      0x00\n      dup1\n      revert\n    tag_240:\n      dup3\n      add\n      dup4\n      0x20\n      dup3\n      add\n      gt\n      iszero\n      tag_241\n      jumpi\n      0x00\n      dup1\n      revert\n    tag_241:\n      dup1\n      calldataload\n      swap1\n      0x20\n      add\n      swap2\n      dup5\n      0x20\n      dup4\n      mul\n      dup5\n      add\n      gt\n      0x0100000000\n      dup4\n      gt\n      or\n      iszero\n      tag_242\n      jumpi\n      0x00\n      dup1\n      revert\n    tag_242:\n      swap1\n      swap2\n      swap3\n      swap4\n      swap2\n      swap3\n      swap4\n      swap1\n      dup1\n      calldataload\n      swap1\n      0x20\n      add\n      swap1\n      0x0100000000\n      dup2\n      gt\n      iszero\n      tag_243\n      jumpi\n      0x00\n      dup1\n      revert\n    tag_243:\n      dup3\n      add\n      dup4\n      0x20\n      dup3\n      add\n      gt\n      iszero\n      tag_244\n      jumpi\n      0x00\n      dup1\n      revert\n    tag_244:\n      dup1\n      calldataload\n      swap1\n      0x20\n      add\n      swap2\n      dup5\n      0x20\n      dup4\n      mul\n      dup5\n      add\n      gt\n      0x0100000000\n      dup4\n      gt\n      or\n      iszero\n      tag_245\n      jumpi\n      0x00\n      dup1\n      revert\n    tag_245:\n      swap1\n      swap2\n      swap3\n      swap4\n      swap2\n      swap3\n      swap4\n      swap1\n      pop\n      pop\n      pop\n      tag_246\n      jump\t// in\n    tag_238:\n      stop\n        /* \"bep-20.sol\":18523:18634  function checkFeeExempt(address _addr) external view returns (bool) {... */\n    tag_49:\n      callvalue\n      dup1\n      iszero\n      tag_247\n      jumpi\n      0x00\n      dup1\n      revert\n    tag_247:\n      pop\n      tag_248\n      0x04\n      dup1\n      calldatasize\n      sub\n      0x20\n      dup2\n      lt\n      iszero\n      tag_249\n      jumpi\n      0x00\n      dup1\n      revert\n    tag_249:\n      dup2\n      add\n      swap1\n      dup1\n      dup1\n      calldataload\n      0xffffffffffffffffffffffffffffffffffffffff\n      and\n      swap1\n      0x20\n      add\n      swap1\n      swap3\n      swap2\n      swap1\n      pop\n      pop\n      pop\n      tag_250\n      jump\t// in\n    tag_248:\n      mload(0x40)\n      dup1\n      dup3\n      iszero\n      iszero\n      dup2\n      mstore\n      0x20\n      add\n      swap2\n      pop\n      pop\n      mload(0x40)\n      dup1\n      swap2\n      sub\n      swap1\n      return\n        /* \"bep-20.sol\":22546:22829  function getLiquidityBacking(uint256 accuracy)... */\n    tag_50:\n      callvalue\n      dup1\n      iszero\n      tag_251\n      jumpi\n      0x00\n      dup1\n      revert\n    tag_251:\n      pop\n      tag_252\n      0x04\n      dup1\n      calldatasize\n      sub\n      0x20\n      dup2\n      lt\n      iszero\n      tag_253\n      jumpi\n      0x00\n      dup1\n      revert\n    tag_253:\n      dup2\n      add\n      swap1\n      dup1\n      dup1\n      calldataload\n      swap1\n      0x20\n      add\n      swap1\n      swap3\n      swap2\n      swap1\n      pop\n      pop\n      pop\n      tag_254\n      jump\t// in\n    tag_252:\n      mload(0x40)\n      dup1\n      dup3\n      dup2\n      mstore\n      0x20\n      add\n      swap2\n      pop\n      pop\n      mload(0x40)\n      dup1\n      swap2\n      sub\n      swap1\n      return\n        /* \"bep-20.sol\":18758:18860  function enableTransfer(address _addr) external onlyOwner {... */\n    tag_51:\n      callvalue\n      dup1\n      iszero\n      tag_255\n      jumpi\n      0x00\n      dup1\n      revert\n    tag_255:\n      pop\n      tag_256\n      0x04\n      dup1\n      calldatasize\n      sub\n      0x20\n      dup2\n      lt\n      iszero\n      tag_257\n      jumpi\n      0x00\n      dup1\n      revert\n    tag_257:\n      dup2\n      add\n      swap1\n      dup1\n      dup1\n      calldataload\n      0xffffffffffffffffffffffffffffffffffffffff\n      and\n      swap1\n      0x20\n      add\n      swap1\n      swap3\n      swap2\n      swap1\n      pop\n      pop\n      pop\n      tag_258\n      jump\t// in\n    tag_256:\n      stop\n        /* \"bep-20.sol\":9354:9390  address public RiskFreeValueReceiver */\n    tag_52:\n      callvalue\n      dup1\n      iszero\n      tag_259\n      jumpi\n      0x00\n      dup1\n      revert\n    tag_259:\n      pop\n      tag_260\n      tag_261\n      jump\t// in\n    tag_260:\n      mload(0x40)\n      dup1\n      dup3\n      0xffffffffffffffffffffffffffffffffffffffff\n      and\n      dup2\n      mstore\n      0x20\n      add\n      swap2\n      pop\n      pop\n      mload(0x40)\n      dup1\n      swap2\n      sub\n      swap1\n      return\n        /* \"bep-20.sol\":21119:21449  function setFeeReceivers(... */\n    tag_53:\n      callvalue\n      dup1\n      iszero\n      tag_262\n      jumpi\n      0x00\n      dup1\n      revert\n    tag_262:\n      pop\n      tag_263\n      0x04\n      dup1\n      calldatasize\n      sub\n      0x60\n      dup2\n      lt\n      iszero\n      tag_264\n      jumpi\n      0x00\n      dup1\n      revert\n    tag_264:\n      dup2\n      add\n      swap1\n      dup1\n      dup1\n      calldataload\n      0xffffffffffffffffffffffffffffffffffffffff\n      and\n      swap1\n      0x20\n      add\n      swap1\n      swap3\n      swap2\n      swap1\n      dup1\n      calldataload\n      0xffffffffffffffffffffffffffffffffffffffff\n      and\n      swap1\n      0x20\n      add\n      swap1\n      swap3\n      swap2\n      swap1\n      dup1\n      calldataload\n      0xffffffffffffffffffffffffffffffffffffffff\n      and\n      swap1\n      0x20\n      add\n      swap1\n      swap3\n      swap2\n      swap1\n      pop\n      pop\n      pop\n      tag_265\n      jump\t// in\n    tag_263:\n      stop\n        /* \"bep-20.sol\":12633:12820  function allowance(address owner_, address spender)... */\n    tag_54:\n      callvalue\n      dup1\n      iszero\n      tag_266\n      jumpi\n      0x00\n      dup1\n      revert\n    tag_266:\n      pop\n      tag_267\n      0x04\n      dup1\n      calldatasize\n      sub\n      0x40\n      dup2\n      lt\n      iszero\n      tag_268\n      jumpi\n      0x00\n      dup1\n      revert\n    tag_268:\n      dup2\n      add\n      swap1\n      dup1\n      dup1\n      calldataload\n      0xffffffffffffffffffffffffffffffffffffffff\n      and\n      swap1\n      0x20\n      add\n      swap1\n      swap3\n      swap2\n      swap1\n      dup1\n      calldataload\n      0xffffffffffffffffffffffffffffffffffffffff\n      and\n      swap1\n      0x20\n      add\n      swap1\n      swap3\n      swap2\n      swap1\n      pop\n      pop\n      pop\n      tag_269\n      jump\t// in\n    tag_267:\n      mload(0x40)\n      dup1\n      dup3\n      dup2\n      mstore\n      0x20\n      add\n      swap2\n      pop\n      pop\n      mload(0x40)\n      dup1\n      swap2\n      sub\n      swap1\n      return\n        /* \"bep-20.sol\":7736:7843  function transferOwnership(address newOwner) public onlyOwner {... */\n    tag_55:\n      callvalue\n      dup1\n      iszero\n      tag_270\n      jumpi\n      0x00\n      dup1\n      revert\n    tag_270:\n      pop\n      tag_271\n      0x04\n      dup1\n      calldatasize\n      sub\n      0x20\n      dup2\n      lt\n      iszero\n      tag_272\n      jumpi\n      0x00\n      dup1\n      revert\n    tag_272:\n      dup2\n      add\n      swap1\n      dup1\n      dup1\n      calldataload\n      0xffffffffffffffffffffffffffffffffffffffff\n      and\n      swap1\n      0x20\n      add\n      swap1\n      swap3\n      swap2\n      swap1\n      pop\n      pop\n      pop\n      tag_273\n      jump\t// in\n    tag_271:\n      stop\n        /* \"bep-20.sol\":9478:9502  IDEXRouter public router */\n    tag_56:\n      callvalue\n      dup1\n      iszero\n      tag_274\n      jumpi\n      0x00\n      dup1\n      revert\n    tag_274:\n      pop\n      tag_275\n      tag_276\n      jump\t// in\n    tag_275:\n      mload(0x40)\n      dup1\n      dup3\n      0xffffffffffffffffffffffffffffffffffffffff\n      and\n      dup2\n      mstore\n      0x20\n      add\n      swap2\n      pop\n      pop\n      mload(0x40)\n      dup1\n      swap2\n      sub\n      swap1\n      return\n        /* \"bep-20.sol\":10113:10154  mapping(address => bool) public blacklist */\n    tag_57:\n      callvalue\n      dup1\n      iszero\n      tag_277\n      jumpi\n      0x00\n      dup1\n      revert\n    tag_277:\n      pop\n      tag_278\n      0x04\n      dup1\n      calldatasize\n      sub\n      0x20\n      dup2\n      lt\n      iszero\n      tag_279\n      jumpi\n      0x00\n      dup1\n      revert\n    tag_279:\n      dup2\n      add\n      swap1\n      dup1\n      dup1\n      calldataload\n      0xffffffffffffffffffffffffffffffffffffffff\n      and\n      swap1\n      0x20\n      add\n      swap1\n      swap3\n      swap2\n      swap1\n      pop\n      pop\n      pop\n      tag_280\n      jump\t// in\n    tag_278:\n      mload(0x40)\n      dup1\n      dup3\n      iszero\n      iszero\n      dup2\n      mstore\n      0x20\n      add\n      swap2\n      pop\n      pop\n      mload(0x40)\n      dup1\n      swap2\n      sub\n      swap1\n      return\n        /* \"bep-20.sol\":21455:21945  function setFees(... */\n    tag_77:\n        /* \"bep-20.sol\":7477:7486  isOwner() */\n      tag_285\n        /* \"bep-20.sol\":7477:7484  isOwner */\n      tag_187\n        /* \"bep-20.sol\":7477:7486  isOwner() */\n      jump\t// in\n    tag_285:\n        /* \"bep-20.sol\":7469:7487  require(isOwner()) */\n      tag_286\n      jumpi\n      0x00\n      dup1\n      revert\n    tag_286:\n        /* \"bep-20.sol\":21671:21684  _liquidityFee */\n      dup5\n        /* \"bep-20.sol\":21656:21668  liquidityFee */\n      0x07\n        /* \"bep-20.sol\":21656:21684  liquidityFee = _liquidityFee */\n      dup2\n      swap1\n      sstore\n      pop\n        /* \"bep-20.sol\":21710:21724  _RiskFreeValue */\n      dup4\n        /* \"bep-20.sol\":21694:21707  RiskFreeValue */\n      0x09\n        /* \"bep-20.sol\":21694:21724  RiskFreeValue = _RiskFreeValue */\n      dup2\n      swap1\n      sstore\n      pop\n        /* \"bep-20.sol\":21745:21754  _Treasury */\n      dup3\n        /* \"bep-20.sol\":21734:21742  Treasury */\n      0x08\n        /* \"bep-20.sol\":21734:21754  Treasury = _Treasury */\n      dup2\n      swap1\n      sstore\n      pop\n        /* \"bep-20.sol\":21774:21782  _sellFee */\n      dup2\n        /* \"bep-20.sol\":21764:21771  sellFee */\n      0x0a\n        /* \"bep-20.sol\":21764:21782  sellFee = _sellFee */\n      dup2\n      swap1\n      sstore\n      pop\n        /* \"bep-20.sol\":21803:21848  liquidityFee.add(Treasury).add(RiskFreeValue) */\n      tag_288\n        /* \"bep-20.sol\":21834:21847  RiskFreeValue */\n      sload(0x09)\n        /* \"bep-20.sol\":21803:21829  liquidityFee.add(Treasury) */\n      tag_289\n        /* \"bep-20.sol\":21820:21828  Treasury */\n      sload(0x08)\n        /* \"bep-20.sol\":21803:21815  liquidityFee */\n      sload(0x07)\n        /* \"bep-20.sol\":21803:21819  liquidityFee.add */\n      tag_281\n      swap1\n        /* \"bep-20.sol\":21803:21829  liquidityFee.add(Treasury) */\n      swap2\n      swap1\n      0xffffffff\n      and\n      jump\t// in\n    tag_289:\n        /* \"bep-20.sol\":21803:21833  liquidityFee.add(Treasury).add */\n      tag_281\n      swap1\n        /* \"bep-20.sol\":21803:21848  liquidityFee.add(Treasury).add(RiskFreeValue) */\n      swap2\n      swap1\n      0xffffffff\n      and\n      jump\t// in\n    tag_288:\n        /* \"bep-20.sol\":21792:21800  totalFee */\n      0x0b\n        /* \"bep-20.sol\":21792:21848  totalFee = liquidityFee.add(Treasury).add(RiskFreeValue) */\n      dup2\n      swap1\n      sstore\n      pop\n        /* \"bep-20.sol\":21875:21890  _feeDenominator */\n      dup1\n        /* \"bep-20.sol\":21858:21872  feeDenominator */\n      0x0c\n        /* \"bep-20.sol\":21858:21890  feeDenominator = _feeDenominator */\n      dup2\n      swap1\n      sstore\n      pop\n        /* \"bep-20.sol\":21936:21937  4 */\n      0x04\n        /* \"bep-20.sol\":21919:21933  feeDenominator */\n      sload(0x0c)\n        /* \"bep-20.sol\":21919:21937  feeDenominator / 4 */\n      dup2\n      tag_290\n      jumpi\n      invalid\n    tag_290:\n      div\n        /* \"bep-20.sol\":21908:21916  totalFee */\n      sload(0x0b)\n        /* \"bep-20.sol\":21908:21937  totalFee < feeDenominator / 4 */\n      lt\n        /* \"bep-20.sol\":21900:21938  require(totalFee < feeDenominator / 4) */\n      tag_291\n      jumpi\n      0x00\n      dup1\n      revert\n    tag_291:\n        /* \"bep-20.sol\":21455:21945  function setFees(... */\n      pop\n      pop\n      pop\n      pop\n      pop\n      jump\t// out\n        /* \"bep-20.sol\":5169:5250  function name() public view returns (string memory) {... */\n    tag_80:\n        /* \"bep-20.sol\":5206:5219  string memory */\n      0x60\n        /* \"bep-20.sol\":5238:5243  _name */\n      0x00\n        /* \"bep-20.sol\":5231:5243  return _name */\n      dup1\n      sload\n      0x01\n      dup2\n      0x01\n      and\n      iszero\n      0x0100\n      mul\n      sub\n      and\n      0x02\n      swap1\n      div\n      dup1\n      0x1f\n      add\n      0x20\n      dup1\n      swap2\n      div\n      mul\n      0x20\n      add\n      mload(0x40)\n      swap1\n      dup2\n      add\n      0x40\n      mstore\n      dup1\n      swap3\n      swap2\n      swap1\n      dup2\n      dup2\n      mstore\n      0x20\n      add\n      dup3\n      dup1\n      sload\n      0x01\n      dup2\n      0x01\n      and\n      iszero\n      0x0100\n      mul\n      sub\n      and\n      0x02\n      swap1\n      div\n      dup1\n      iszero\n      tag_293\n      jumpi\n      dup1\n      0x1f\n      lt\n      tag_294\n      jumpi\n      0x0100\n      dup1\n      dup4\n      sload\n      div\n      mul\n      dup4\n      mstore\n      swap2\n      0x20\n      add\n      swap2\n      jump(tag_293)\n    tag_294:\n      dup3\n      add\n      swap2\n      swap1\n      0x00\n      mstore\n      keccak256(0x00, 0x20)\n      swap1\n    tag_295:\n      dup2\n      sload\n      dup2\n      mstore\n      swap1\n      0x01\n      add\n      swap1\n      0x20\n      add\n      dup1\n      dup4\n      gt\n      tag_295\n      jumpi\n      dup3\n      swap1\n      sub\n      0x1f\n      and\n      dup3\n      add\n      swap2\n    tag_293:\n      pop\n      pop\n      pop\n      pop\n      pop\n      swap1\n      pop\n        /* \"bep-20.sol\":5169:5250  function name() public view returns (string memory) {... */\n      swap1\n      jump\t// out\n        /* \"bep-20.sol\":18240:18517  function approve(address spender, uint256 value)... */\n    tag_88:\n        /* \"bep-20.sol\":18372:18376  bool */\n      0x00\n        /* \"bep-20.sol\":8465:8492  initialDistributionFinished */\n      0x04\n      0x14\n      swap1\n      sload\n      swap1\n      0x0100\n      exp\n      swap1\n      div\n      0xff\n      and\n        /* \"bep-20.sol\":8465:8521  initialDistributionFinished ||... */\n      dup1\n      tag_297\n      jumpi\n      pop\n        /* \"bep-20.sol\":8512:8521  isOwner() */\n      tag_298\n        /* \"bep-20.sol\":8512:8519  isOwner */\n      tag_187\n        /* \"bep-20.sol\":8512:8521  isOwner() */\n      jump\t// in\n    tag_298:\n        /* \"bep-20.sol\":8465:8521  initialDistributionFinished ||... */\n    tag_297:\n        /* \"bep-20.sol\":8465:8566  initialDistributionFinished ||... */\n      dup1\n      tag_299\n      jumpi\n      pop\n        /* \"bep-20.sol\":8541:8554  allowTransfer */\n      0x05\n        /* \"bep-20.sol\":8541:8566  allowTransfer[msg.sender] */\n      0x00\n        /* \"bep-20.sol\":8555:8565  msg.sender */\n      caller\n        /* \"bep-20.sol\":8541:8566  allowTransfer[msg.sender] */\n      0xffffffffffffffffffffffffffffffffffffffff\n      and\n      0xffffffffffffffffffffffffffffffffffffffff\n      and\n      dup2\n      mstore\n      0x20\n      add\n      swap1\n      dup2\n      mstore\n      0x20\n      add\n      0x00\n      keccak256\n      0x00\n      swap1\n      sload\n      swap1\n      0x0100\n      exp\n      swap1\n      div\n      0xff\n      and\n        /* \"bep-20.sol\":8465:8566  initialDistributionFinished ||... */\n    tag_299:\n        /* \"bep-20.sol\":8444:8576  require(... */\n      tag_300\n      jumpi\n      0x00\n      dup1\n      revert\n    tag_300:\n        /* \"bep-20.sol\":18433:18438  value */\n      dup2\n        /* \"bep-20.sol\":18392:18409  _allowedFragments */\n      0x1b\n        /* \"bep-20.sol\":18392:18421  _allowedFragments[msg.sender] */\n      0x00\n        /* \"bep-20.sol\":18410:18420  msg.sender */\n      caller\n        /* \"bep-20.sol\":18392:18421  _allowedFragments[msg.sender] */\n      0xffffffffffffffffffffffffffffffffffffffff\n      and\n      0xffffffffffffffffffffffffffffffffffffffff\n      and\n      dup2\n      mstore\n      0x20\n      add\n      swap1\n      dup2\n      mstore\n      0x20\n      add\n      0x00\n      keccak256\n        /* \"bep-20.sol\":18392:18430  _allowedFragments[msg.sender][spender] */\n      0x00\n        /* \"bep-20.sol\":18422:18429  spender */\n      dup6\n        /* \"bep-20.sol\":18392:18430  _allowedFragments[msg.sender][spender] */\n      0xffffffffffffffffffffffffffffffffffffffff\n      and\n      0xffffffffffffffffffffffffffffffffffffffff\n      and\n      dup2\n      mstore\n      0x20\n      add\n      swap1\n      dup2\n      mstore\n      0x20\n      add\n      0x00\n      keccak256\n        /* \"bep-20.sol\":18392:18438  _allowedFragments[msg.sender][spender] = value */\n      dup2\n      swap1\n      sstore\n      pop\n        /* \"bep-20.sol\":18474:18481  spender */\n      dup3\n        /* \"bep-20.sol\":18453:18489  Approval(msg.sender, spender, value) */\n      0xffffffffffffffffffffffffffffffffffffffff\n      and\n        /* \"bep-20.sol\":18462:18472  msg.sender */\n      caller\n        /* \"bep-20.sol\":18453:18489  Approval(msg.sender, spender, value) */\n      0xffffffffffffffffffffffffffffffffffffffff\n      and\n      0x8c5be1e5ebec7d5bd14f71427d1e84f3dd0314c0f7b2291e5b200ac8c7c3b925\n        /* \"bep-20.sol\":18483:18488  value */\n      dup5\n        /* \"bep-20.sol\":18453:18489  Approval(msg.sender, spender, value) */\n      mload(0x40)\n      dup1\n      dup3\n      dup2\n      mstore\n      0x20\n      add\n      swap2\n      pop\n      pop\n      mload(0x40)\n      dup1\n      swap2\n      sub\n      swap1\n      log3\n        /* \"bep-20.sol\":18506:18510  true */\n      0x01\n        /* \"bep-20.sol\":18499:18510  return true */\n      swap1\n      pop\n        /* \"bep-20.sol\":18240:18517  function approve(address spender, uint256 value)... */\n      swap3\n      swap2\n      pop\n      pop\n      jump\t// out\n        /* \"bep-20.sol\":22839:23015  function isOverLiquified(uint256 target, uint256 accuracy)... */\n    tag_92:\n        /* \"bep-20.sol\":22943:22947  bool */\n      0x00\n        /* \"bep-20.sol\":23002:23008  target */\n      dup3\n        /* \"bep-20.sol\":22970:22999  getLiquidityBacking(accuracy) */\n      tag_303\n        /* \"bep-20.sol\":22990:22998  accuracy */\n      dup4\n        /* \"bep-20.sol\":22970:22989  getLiquidityBacking */\n      tag_254\n        /* \"bep-20.sol\":22970:22999  getLiquidityBacking(accuracy) */\n      jump\t// in\n    tag_303:\n        /* \"bep-20.sol\":22970:23008  getLiquidityBacking(accuracy) > target */\n      gt\n        /* \"bep-20.sol\":22963:23008  return getLiquidityBacking(accuracy) > target */\n      swap1\n      pop\n        /* \"bep-20.sol\":22839:23015  function isOverLiquified(uint256 target, uint256 accuracy)... */\n      swap3\n      swap2\n      pop\n      pop\n      jump\t// out\n        /* \"bep-20.sol\":9106:9141  uint256 public feeDenominator = 100 */\n    tag_95:\n      sload(0x0c)\n      dup2\n      jump\t// out\n        /* \"bep-20.sol\":12139:12239  function totalSupply() external view override returns (uint256) {... */\n    tag_98:\n        /* \"bep-20.sol\":12194:12201  uint256 */\n      0x00\n        /* \"bep-20.sol\":12220:12232  _totalSupply */\n      sload(0x18)\n        /* \"bep-20.sol\":12213:12232  return _totalSupply */\n      swap1\n      pop\n        /* \"bep-20.sol\":12139:12239  function totalSupply() external view override returns (uint256) {... */\n      swap1\n      jump\t// out\n        /* \"bep-20.sol\":9021:9100  uint256 public totalFee =... */\n    tag_101:\n      sload(0x0b)\n      dup2\n      jump\t// out\n        /* \"bep-20.sol\":20195:20364  function setTargetLiquidity(uint256 target, uint256 accuracy) external onlyOwner {... */\n    tag_105:\n        /* \"bep-20.sol\":7477:7486  isOwner() */\n      tag_306\n        /* \"bep-20.sol\":7477:7484  isOwner */\n      tag_187\n        /* \"bep-20.sol\":7477:7486  isOwner() */\n      jump\t// in\n    tag_306:\n        /* \"bep-20.sol\":7469:7487  require(isOwner()) */\n      tag_307\n      jumpi\n      0x00\n      dup1\n      revert\n    tag_307:\n        /* \"bep-20.sol\":20304:20310  target */\n      dup2\n        /* \"bep-20.sol\":20286:20301  targetLiquidity */\n      0x12\n        /* \"bep-20.sol\":20286:20310  targetLiquidity = target */\n      dup2\n      swap1\n      sstore\n      pop\n        /* \"bep-20.sol\":20349:20357  accuracy */\n      dup1\n        /* \"bep-20.sol\":20320:20346  targetLiquidityDenominator */\n      0x13\n        /* \"bep-20.sol\":20320:20357  targetLiquidityDenominator = accuracy */\n      dup2\n      swap1\n      sstore\n      pop\n        /* \"bep-20.sol\":20195:20364  function setTargetLiquidity(uint256 target, uint256 accuracy) external onlyOwner {... */\n      pop\n      pop\n      jump\t// out\n        /* \"bep-20.sol\":14214:14658  function transferFrom(... */\n    tag_109:\n        /* \"bep-20.sol\":14353:14357  bool */\n      0x00\n        /* \"bep-20.sol\":14340:14342  to */\n      dup3\n        /* \"bep-20.sol\":8668:8671  0x0 */\n      0x00\n        /* \"bep-20.sol\":8654:8672  to != address(0x0) */\n      0xffffffffffffffffffffffffffffffffffffffff\n      and\n        /* \"bep-20.sol\":8654:8656  to */\n      dup2\n        /* \"bep-20.sol\":8654:8672  to != address(0x0) */\n      0xffffffffffffffffffffffffffffffffffffffff\n      and\n      eq\n      iszero\n        /* \"bep-20.sol\":8646:8673  require(to != address(0x0)) */\n      tag_310\n      jumpi\n      0x00\n      dup1\n      revert\n    tag_310:\n        /* \"bep-20.sol\":14420:14422  -1 */\n      0xffffffffffffffffffffffffffffffffffffffffffffffffffffffffffffffff\n        /* \"bep-20.sol\":14373:14390  _allowedFragments */\n      0x1b\n        /* \"bep-20.sol\":14373:14396  _allowedFragments[from] */\n      0x00\n        /* \"bep-20.sol\":14391:14395  from */\n      dup8\n        /* \"bep-20.sol\":14373:14396  _allowedFragments[from] */\n      0xffffffffffffffffffffffffffffffffffffffff\n      and\n      0xffffffffffffffffffffffffffffffffffffffff\n      and\n      dup2\n      mstore\n      0x20\n      add\n      swap1\n      dup2\n      mstore\n      0x20\n      add\n      0x00\n      keccak256\n        /* \"bep-20.sol\":14373:14408  _allowedFragments[from][msg.sender] */\n      0x00\n        /* \"bep-20.sol\":14397:14407  msg.sender */\n      caller\n        /* \"bep-20.sol\":14373:14408  _allowedFragments[from][msg.sender] */\n      0xffffffffffffffffffffffffffffffffffffffff\n      and\n      0xffffffffffffffffffffffffffffffffffffffff\n      and\n      dup2\n      mstore\n      0x20\n      add\n      swap1\n      dup2\n      mstore\n      0x20\n      add\n      0x00\n      keccak256\n      sload\n        /* \"bep-20.sol\":14373:14423  _allowedFragments[from][msg.sender] != uint256(-1) */\n      eq\n        /* \"bep-20.sol\":14369:14590  if (_allowedFragments[from][msg.sender] != uint256(-1)) {... */\n      tag_312\n      jumpi\n        /* \"bep-20.sol\":14477:14579  _allowedFragments[from][... */\n      tag_313\n        /* \"bep-20.sol\":14547:14552  value */\n      dup4\n        /* \"bep-20.sol\":14477:14579  _allowedFragments[from][... */\n      mload(0x40)\n      dup1\n      0x40\n      add\n      0x40\n      mstore\n      dup1\n      0x16\n      dup2\n      mstore\n      0x20\n      add\n      0x496e73756666696369656e7420416c6c6f77616e636500000000000000000000\n      dup2\n      mstore\n      pop\n        /* \"bep-20.sol\":14477:14494  _allowedFragments */\n      0x1b\n        /* \"bep-20.sol\":14477:14500  _allowedFragments[from] */\n      0x00\n        /* \"bep-20.sol\":14495:14499  from */\n      dup10\n        /* \"bep-20.sol\":14477:14500  _allowedFragments[from] */\n      0xffffffffffffffffffffffffffffffffffffffff\n      and\n      0xffffffffffffffffffffffffffffffffffffffff\n      and\n      dup2\n      mstore\n      0x20\n      add\n      swap1\n      dup2\n      mstore\n      0x20\n      add\n      0x00\n      keccak256\n        /* \"bep-20.sol\":14477:14542  _allowedFragments[from][... */\n      0x00\n        /* \"bep-20.sol\":14518:14528  msg.sender */\n      caller\n        /* \"bep-20.sol\":14477:14542  _allowedFragments[from][... */\n      0xffffffffffffffffffffffffffffffffffffffff\n      and\n      0xffffffffffffffffffffffffffffffffffffffff\n      and\n      dup2\n      mstore\n      0x20\n      add\n      swap1\n      dup2\n      mstore\n      0x20\n      add\n      0x00\n      keccak256\n      sload\n        /* \"bep-20.sol\":14477:14546  _allowedFragments[from][... */\n      tag_314\n      swap1\n        /* \"bep-20.sol\":14477:14579  _allowedFragments[from][... */\n      swap3\n      swap2\n      swap1\n      0xffffffff\n      and\n      jump\t// in\n    tag_313:\n        /* \"bep-20.sol\":14439:14456  _allowedFragments */\n      0x1b\n        /* \"bep-20.sol\":14439:14462  _allowedFragments[from] */\n      0x00\n        /* \"bep-20.sol\":14457:14461  from */\n      dup8\n        /* \"bep-20.sol\":14439:14462  _allowedFragments[from] */\n      0xffffffffffffffffffffffffffffffffffffffff\n      and\n      0xffffffffffffffffffffffffffffffffffffffff\n      and\n      dup2\n      mstore\n      0x20\n      add\n      swap1\n      dup2\n      mstore\n      0x20\n      add\n      0x00\n      keccak256\n        /* \"bep-20.sol\":14439:14474  _allowedFragments[from][msg.sender] */\n      0x00\n        /* \"bep-20.sol\":14463:14473  msg.sender */\n      caller\n        /* \"bep-20.sol\":14439:14474  _allowedFragments[from][msg.sender] */\n      0xffffffffffffffffffffffffffffffffffffffff\n      and\n      0xffffffffffffffffffffffffffffffffffffffff\n      and\n      dup2\n      mstore\n      0x20\n      add\n      swap1\n      dup2\n      mstore\n      0x20\n      add\n      0x00\n      keccak256\n        /* \"bep-20.sol\":14439:14579  _allowedFragments[from][msg.sender] = _allowedFragments[from][... */\n      dup2\n      swap1\n      sstore\n      pop\n        /* \"bep-20.sol\":14369:14590  if (_allowedFragments[from][msg.sender] != uint256(-1)) {... */\n    tag_312:\n        /* \"bep-20.sol\":14600:14630  _transferFrom(from, to, value) */\n      tag_315\n        /* \"bep-20.sol\":14614:14618  from */\n      dup6\n        /* \"bep-20.sol\":14620:14622  to */\n      dup6\n        /* \"bep-20.sol\":14624:14629  value */\n      dup6\n        /* \"bep-20.sol\":14600:14613  _transferFrom */\n      tag_316\n        /* \"bep-20.sol\":14600:14630  _transferFrom(from, to, value) */\n      jump\t// in\n    tag_315:\n      pop\n        /* \"bep-20.sol\":14647:14651  true */\n      0x01\n        /* \"bep-20.sol\":14640:14651  return true */\n      swap2\n      pop\n        /* \"bep-20.sol\":14214:14658  function transferFrom(... */\n      pop\n      swap4\n      swap3\n      pop\n      pop\n      pop\n      jump\t// out\n        /* \"bep-20.sol\":19979:20189  function getCirculatingSupply() public view returns (uint256) {... */\n    tag_112:\n        /* \"bep-20.sol\":20032:20039  uint256 */\n      0x00\n        /* \"bep-20.sol\":20070:20182  (TOTAL_GONS.sub(_gonBalances[DEAD]).sub(_gonBalances[ZERO])).div(... */\n      tag_318\n        /* \"bep-20.sol\":20152:20168  _gonsPerFragment */\n      sload(0x19)\n        /* \"bep-20.sol\":20071:20129  TOTAL_GONS.sub(_gonBalances[DEAD]).sub(_gonBalances[ZERO]) */\n      tag_319\n        /* \"bep-20.sol\":20110:20122  _gonBalances */\n      0x1a\n        /* \"bep-20.sol\":20110:20128  _gonBalances[ZERO] */\n      0x00\n        /* \"bep-20.sol\":20123:20127  ZERO */\n      0x0e\n      0x00\n      swap1\n      sload\n      swap1\n      0x0100\n      exp\n      swap1\n      div\n      0xffffffffffffffffffffffffffffffffffffffff\n      and\n        /* \"bep-20.sol\":20110:20128  _gonBalances[ZERO] */\n      0xffffffffffffffffffffffffffffffffffffffff\n      and\n      0xffffffffffffffffffffffffffffffffffffffff\n      and\n      dup2\n      mstore\n      0x20\n      add\n      swap1\n      dup2\n      mstore\n      0x20\n      add\n      0x00\n      keccak256\n      sload\n        /* \"bep-20.sol\":20071:20105  TOTAL_GONS.sub(_gonBalances[DEAD]) */\n      tag_320\n        /* \"bep-20.sol\":20086:20098  _gonBalances */\n      0x1a\n        /* \"bep-20.sol\":20086:20104  _gonBalances[DEAD] */\n      0x00\n        /* \"bep-20.sol\":20099:20103  DEAD */\n      0x0d\n      0x00\n      swap1\n      sload\n      swap1\n      0x0100\n      exp\n      swap1\n      div\n      0xffffffffffffffffffffffffffffffffffffffff\n      and\n        /* \"bep-20.sol\":20086:20104  _gonBalances[DEAD] */\n      0xffffffffffffffffffffffffffffffffffffffff\n      and\n      0xffffffffffffffffffffffffffffffffffffffff\n      and\n      dup2\n      mstore\n      0x20\n      add\n      swap1\n      dup2\n      mstore\n      0x20\n      add\n      0x00\n      keccak256\n      sload\n        /* \"bep-20.sol\":8733:8735  18 */\n      0x12\n        /* \"bep-20.sol\":8862:8864  10 */\n      0x0a\n        /* \"bep-20.sol\":8862:8874  10**DECIMALS */\n      exp\n        /* \"bep-20.sol\":8850:8859  4 * 10**9 */\n      0xee6b2800\n        /* \"bep-20.sol\":8850:8874  4 * 10**9 * 10**DECIMALS */\n      mul\n        /* \"bep-20.sol\":8789:8790  0 */\n      0x00\n        /* \"bep-20.sol\":8780:8791  ~uint256(0) */\n      not\n        /* \"bep-20.sol\":9805:9843  MAX_UINT256 % INITIAL_FRAGMENTS_SUPPLY */\n      dup2\n      tag_321\n      jumpi\n      invalid\n    tag_321:\n      mod\n        /* \"bep-20.sol\":8789:8790  0 */\n      0x00\n        /* \"bep-20.sol\":8780:8791  ~uint256(0) */\n      not\n        /* \"bep-20.sol\":9790:9844  MAX_UINT256 - (MAX_UINT256 % INITIAL_FRAGMENTS_SUPPLY) */\n      sub\n        /* \"bep-20.sol\":20071:20085  TOTAL_GONS.sub */\n      tag_322\n      swap1\n        /* \"bep-20.sol\":20071:20105  TOTAL_GONS.sub(_gonBalances[DEAD]) */\n      swap2\n      swap1\n      0xffffffff\n      and\n      jump\t// in\n    tag_320:\n        /* \"bep-20.sol\":20071:20109  TOTAL_GONS.sub(_gonBalances[DEAD]).sub */\n      tag_322\n      swap1\n        /* \"bep-20.sol\":20071:20129  TOTAL_GONS.sub(_gonBalances[DEAD]).sub(_gonBalances[ZERO]) */\n      swap2\n      swap1\n      0xffffffff\n      and\n      jump\t// in\n    tag_319:\n        /* \"bep-20.sol\":20070:20134  (TOTAL_GONS.sub(_gonBalances[DEAD]).sub(_gonBalances[ZERO])).div */\n      tag_282\n      swap1\n        /* \"bep-20.sol\":20070:20182  (TOTAL_GONS.sub(_gonBalances[DEAD]).sub(_gonBalances[ZERO])).div(... */\n      swap2\n      swap1\n      0xffffffff\n      and\n      jump\t// in\n    tag_318:\n        /* \"bep-20.sol\":20051:20182  return... */\n      swap1\n      pop\n        /* \"bep-20.sol\":19979:20189  function getCirculatingSupply() public view returns (uint256) {... */\n      swap1\n      jump\t// out\n        /* \"bep-20.sol\":8989:9015  uint256 public sellFee = 5 */\n    tag_115:\n      sload(0x0a)\n      dup2\n      jump\t// out\n        /* \"bep-20.sol\":18640:18752  function setInitialDistributionFinished() external onlyOwner {... */\n    tag_118:\n        /* \"bep-20.sol\":7477:7486  isOwner() */\n      tag_324\n        /* \"bep-20.sol\":7477:7484  isOwner */\n      tag_187\n        /* \"bep-20.sol\":7477:7486  isOwner() */\n      jump\t// in\n    tag_324:\n        /* \"bep-20.sol\":7469:7487  require(isOwner()) */\n      tag_325\n      jumpi\n      0x00\n      dup1\n      revert\n    tag_325:\n        /* \"bep-20.sol\":18741:18745  true */\n      0x01\n        /* \"bep-20.sol\":18711:18738  initialDistributionFinished */\n      0x04\n      0x14\n        /* \"bep-20.sol\":18711:18745  initialDistributionFinished = true */\n      0x0100\n      exp\n      dup2\n      sload\n      dup2\n      0xff\n      mul\n      not\n      and\n      swap1\n      dup4\n      iszero\n      iszero\n      mul\n      or\n      swap1\n      sstore\n      pop\n        /* \"bep-20.sol\":18640:18752  function setInitialDistributionFinished() external onlyOwner {... */\n      jump\t// out\n        /* \"bep-20.sol\":12490:12627  function setLP(address _address) external onlyOwner {... */\n    tag_122:\n        /* \"bep-20.sol\":7477:7486  isOwner() */\n      tag_328\n        /* \"bep-20.sol\":7477:7484  isOwner */\n      tag_187\n        /* \"bep-20.sol\":7477:7486  isOwner() */\n      jump\t// in\n    tag_328:\n        /* \"bep-20.sol\":7469:7487  require(isOwner()) */\n      tag_329\n      jumpi\n      0x00\n      dup1\n      revert\n    tag_329:\n        /* \"bep-20.sol\":12579:12587  _address */\n      dup1\n        /* \"bep-20.sol\":12552:12564  pairContract */\n      0x04\n      0x00\n        /* \"bep-20.sol\":12552:12588  pairContract = InterfaceLP(_address) */\n      0x0100\n      exp\n      dup2\n      sload\n      dup2\n      0xffffffffffffffffffffffffffffffffffffffff\n      mul\n      not\n      and\n      swap1\n      dup4\n      0xffffffffffffffffffffffffffffffffffffffff\n      and\n      mul\n      or\n      swap1\n      sstore\n      pop\n        /* \"bep-20.sol\":12598:12610  _isFeeExempt */\n      0x06\n        /* \"bep-20.sol\":12598:12620  _isFeeExempt[_address] */\n      0x00\n        /* \"bep-20.sol\":12611:12619  _address */\n      dup3\n        /* \"bep-20.sol\":12598:12620  _isFeeExempt[_address] */\n      0xffffffffffffffffffffffffffffffffffffffff\n      and\n      0xffffffffffffffffffffffffffffffffffffffff\n      and\n      dup2\n      mstore\n      0x20\n      add\n      swap1\n      dup2\n      mstore\n      0x20\n      add\n      0x00\n      keccak256\n      0x00\n      swap1\n      sload\n      swap1\n      0x0100\n      exp\n      swap1\n      pop\n      pop\n        /* \"bep-20.sol\":12490:12627  function setLP(address _address) external onlyOwner {... */\n      pop\n      jump\t// out\n        /* \"bep-20.sol\":20465:20560  function removeMinter(address account) public onlyOwner {... */\n    tag_126:\n        /* \"bep-20.sol\":7477:7486  isOwner() */\n      tag_332\n        /* \"bep-20.sol\":7477:7484  isOwner */\n      tag_187\n        /* \"bep-20.sol\":7477:7486  isOwner() */\n      jump\t// in\n    tag_332:\n        /* \"bep-20.sol\":7469:7487  require(isOwner()) */\n      tag_333\n      jumpi\n      0x00\n      dup1\n      revert\n    tag_333:\n        /* \"bep-20.sol\":20531:20553  _removeMinter(account) */\n      tag_335\n        /* \"bep-20.sol\":20545:20552  account */\n      dup2\n        /* \"bep-20.sol\":20531:20544  _removeMinter */\n      tag_336\n        /* \"bep-20.sol\":20531:20553  _removeMinter(account) */\n      jump\t// in\n    tag_335:\n        /* \"bep-20.sol\":20465:20560  function removeMinter(address account) public onlyOwner {... */\n      pop\n      jump\t// out\n        /* \"bep-20.sol\":5347:5428  function decimals() public view returns (uint8) {... */\n    tag_129:\n        /* \"bep-20.sol\":5388:5393  uint8 */\n      0x00\n        /* \"bep-20.sol\":5412:5421  _decimals */\n      0x02\n      0x00\n      swap1\n      sload\n      swap1\n      0x0100\n      exp\n      swap1\n      div\n      0xff\n      and\n        /* \"bep-20.sol\":5405:5421  return _decimals */\n      swap1\n      pop\n        /* \"bep-20.sol\":5347:5428  function decimals() public view returns (uint8) {... */\n      swap1\n      jump\t// out\n        /* \"bep-20.sol\":22191:22398  function rescueToken(address tokenAddress, uint256 tokens)... */\n    tag_133:\n        /* \"bep-20.sol\":22300:22312  bool success */\n      0x00\n        /* \"bep-20.sol\":7477:7486  isOwner() */\n      tag_339\n        /* \"bep-20.sol\":7477:7484  isOwner */\n      tag_187\n        /* \"bep-20.sol\":7477:7486  isOwner() */\n      jump\t// in\n    tag_339:\n        /* \"bep-20.sol\":7469:7487  require(isOwner()) */\n      tag_340\n      jumpi\n      0x00\n      dup1\n      revert\n    tag_340:\n        /* \"bep-20.sol\":22349:22361  tokenAddress */\n      dup3\n        /* \"bep-20.sol\":22335:22371  ERC20Detailed(tokenAddress).transfer */\n      0xffffffffffffffffffffffffffffffffffffffff\n      and\n      0xa9059cbb\n        /* \"bep-20.sol\":22372:22382  msg.sender */\n      caller\n        /* \"bep-20.sol\":22384:22390  tokens */\n      dup5\n        /* \"bep-20.sol\":22335:22391  ERC20Detailed(tokenAddress).transfer(msg.sender, tokens) */\n      mload(0x40)\n      dup4\n      0xffffffff\n      and\n      0xe0\n      shl\n      dup2\n      mstore\n      0x04\n      add\n      dup1\n      dup4\n      0xffffffffffffffffffffffffffffffffffffffff\n      and\n      dup2\n      mstore\n      0x20\n      add\n      dup3\n      dup2\n      mstore\n      0x20\n      add\n      swap3\n      pop\n      pop\n      pop\n      0x20\n      mload(0x40)\n      dup1\n      dup4\n      sub\n      dup2\n      0x00\n      dup8\n      dup1\n      extcodesize\n      iszero\n      dup1\n      iszero\n      tag_342\n      jumpi\n      0x00\n      dup1\n      revert\n    tag_342:\n      pop\n      gas\n      call\n      iszero\n      dup1\n      iszero\n      tag_344\n      jumpi\n      returndatasize\n      0x00\n      dup1\n      returndatacopy\n      revert(0x00, returndatasize)\n    tag_344:\n      pop\n      pop\n      pop\n      pop\n      mload(0x40)\n      returndatasize\n      0x20\n      dup2\n      lt\n      iszero\n      tag_345\n      jumpi\n      0x00\n      dup1\n      revert\n    tag_345:\n      dup2\n      add\n      swap1\n      dup1\n      dup1\n      mload\n      swap1\n      0x20\n      add\n      swap1\n      swap3\n      swap2\n      swap1\n      pop\n      pop\n      pop\n        /* \"bep-20.sol\":22328:22391  return ERC20Detailed(tokenAddress).transfer(msg.sender, tokens) */\n      swap1\n      pop\n        /* \"bep-20.sol\":22191:22398  function rescueToken(address tokenAddress, uint256 tokens)... */\n      swap3\n      swap2\n      pop\n      pop\n      jump\t// out\n        /* \"bep-20.sol\":17809:18234  function increaseAllowance(address spender, uint256 addedValue)... */\n    tag_137:\n        /* \"bep-20.sol\":17939:17943  bool */\n      0x00\n        /* \"bep-20.sol\":8465:8492  initialDistributionFinished */\n      0x04\n      0x14\n      swap1\n      sload\n      swap1\n      0x0100\n      exp\n      swap1\n      div\n      0xff\n      and\n        /* \"bep-20.sol\":8465:8521  initialDistributionFinished ||... */\n      dup1\n      tag_347\n      jumpi\n      pop\n        /* \"bep-20.sol\":8512:8521  isOwner() */\n      tag_348\n        /* \"bep-20.sol\":8512:8519  isOwner */\n      tag_187\n        /* \"bep-20.sol\":8512:8521  isOwner() */\n      jump\t// in\n    tag_348:\n        /* \"bep-20.sol\":8465:8521  initialDistributionFinished ||... */\n    tag_347:\n        /* \"bep-20.sol\":8465:8566  initialDistributionFinished ||... */\n      dup1\n      tag_349\n      jumpi\n      pop\n        /* \"bep-20.sol\":8541:8554  allowTransfer */\n      0x05\n        /* \"bep-20.sol\":8541:8566  allowTransfer[msg.sender] */\n      0x00\n        /* \"bep-20.sol\":8555:8565  msg.sender */\n      caller\n        /* \"bep-20.sol\":8541:8566  allowTransfer[msg.sender] */\n      0xffffffffffffffffffffffffffffffffffffffff\n      and\n      0xffffffffffffffffffffffffffffffffffffffff\n      and\n      dup2\n      mstore\n      0x20\n      add\n      swap1\n      dup2\n      mstore\n      0x20\n      add\n      0x00\n      keccak256\n      0x00\n      swap1\n      sload\n      swap1\n      0x0100\n      exp\n      swap1\n      div\n      0xff\n      and\n        /* \"bep-20.sol\":8465:8566  initialDistributionFinished ||... */\n    tag_349:\n        /* \"bep-20.sol\":8444:8576  require(... */\n      tag_350\n      jumpi\n      0x00\n      dup1\n      revert\n    tag_350:\n        /* \"bep-20.sol\":18000:18076  _allowedFragments[msg.sender][... */\n      tag_352\n        /* \"bep-20.sol\":18065:18075  addedValue */\n      dup3\n        /* \"bep-20.sol\":18000:18017  _allowedFragments */\n      0x1b\n        /* \"bep-20.sol\":18000:18029  _allowedFragments[msg.sender] */\n      0x00\n        /* \"bep-20.sol\":18018:18028  msg.sender */\n      caller\n        /* \"bep-20.sol\":18000:18029  _allowedFragments[msg.sender] */\n      0xffffffffffffffffffffffffffffffffffffffff\n      and\n      0xffffffffffffffffffffffffffffffffffffffff\n      and\n      dup2\n      mstore\n      0x20\n      add\n      swap1\n      dup2\n      mstore\n      0x20\n      add\n      0x00\n      keccak256\n        /* \"bep-20.sol\":18000:18060  _allowedFragments[msg.sender][... */\n      0x00\n        /* \"bep-20.sol\":18043:18050  spender */\n      dup7\n        /* \"bep-20.sol\":18000:18060  _allowedFragments[msg.sender][... */\n      0xffffffffffffffffffffffffffffffffffffffff\n      and\n      0xffffffffffffffffffffffffffffffffffffffff\n      and\n      dup2\n      mstore\n      0x20\n      add\n      swap1\n      dup2\n      mstore\n      0x20\n      add\n      0x00\n      keccak256\n      sload\n        /* \"bep-20.sol\":18000:18064  _allowedFragments[msg.sender][... */\n      tag_281\n      swap1\n        /* \"bep-20.sol\":18000:18076  _allowedFragments[msg.sender][... */\n      swap2\n      swap1\n      0xffffffff\n      and\n      jump\t// in\n    tag_352:\n        /* \"bep-20.sol\":17959:17976  _allowedFragments */\n      0x1b\n        /* \"bep-20.sol\":17959:17988  _allowedFragments[msg.sender] */\n      0x00\n        /* \"bep-20.sol\":17977:17987  msg.sender */\n      caller\n        /* \"bep-20.sol\":17959:17988  _allowedFragments[msg.sender] */\n      0xffffffffffffffffffffffffffffffffffffffff\n      and\n      0xffffffffffffffffffffffffffffffffffffffff\n      and\n      dup2\n      mstore\n      0x20\n      add\n      swap1\n      dup2\n      mstore\n      0x20\n      add\n      0x00\n      keccak256\n        /* \"bep-20.sol\":17959:17997  _allowedFragments[msg.sender][spender] */\n      0x00\n        /* \"bep-20.sol\":17989:17996  spender */\n      dup6\n        /* \"bep-20.sol\":17959:17997  _allowedFragments[msg.sender][spender] */\n      0xffffffffffffffffffffffffffffffffffffffff\n      and\n      0xffffffffffffffffffffffffffffffffffffffff\n      and\n      dup2\n      mstore\n      0x20\n      add\n      swap1\n      dup2\n      mstore\n      0x20\n      add\n      0x00\n      keccak256\n        /* \"bep-20.sol\":17959:18076  _allowedFragments[msg.sender][spender] = _allowedFragments[msg.sender][... */\n      dup2\n      swap1\n      sstore\n      pop\n        /* \"bep-20.sol\":18137:18144  spender */\n      dup3\n        /* \"bep-20.sol\":18091:18206  Approval(... */\n      0xffffffffffffffffffffffffffffffffffffffff\n      and\n        /* \"bep-20.sol\":18113:18123  msg.sender */\n      caller\n        /* \"bep-20.sol\":18091:18206  Approval(... */\n      0xffffffffffffffffffffffffffffffffffffffff\n      and\n      0x8c5be1e5ebec7d5bd14f71427d1e84f3dd0314c0f7b2291e5b200ac8c7c3b925\n        /* \"bep-20.sol\":18158:18175  _allowedFragments */\n      0x1b\n        /* \"bep-20.sol\":18158:18187  _allowedFragments[msg.sender] */\n      0x00\n        /* \"bep-20.sol\":18176:18186  msg.sender */\n      caller\n        /* \"bep-20.sol\":18158:18187  _allowedFragments[msg.sender] */\n      0xffffffffffffffffffffffffffffffffffffffff\n      and\n      0xffffffffffffffffffffffffffffffffffffffff\n      and\n      dup2\n      mstore\n      0x20\n      add\n      swap1\n      dup2\n      mstore\n      0x20\n      add\n      0x00\n      keccak256\n        /* \"bep-20.sol\":18158:18196  _allowedFragments[msg.sender][spender] */\n      0x00\n        /* \"bep-20.sol\":18188:18195  spender */\n      dup8\n        /* \"bep-20.sol\":18158:18196  _allowedFragments[msg.sender][spender] */\n      0xffffffffffffffffffffffffffffffffffffffff\n      and\n      0xffffffffffffffffffffffffffffffffffffffff\n      and\n      dup2\n      mstore\n      0x20\n      add\n      swap1\n      dup2\n      mstore\n      0x20\n      add\n      0x00\n      keccak256\n      sload\n        /* \"bep-20.sol\":18091:18206  Approval(... */\n      mload(0x40)\n      dup1\n      dup3\n      dup2\n      mstore\n      0x20\n      add\n      swap2\n      pop\n      pop\n      mload(0x40)\n      dup1\n      swap2\n      sub\n      swap1\n      log3\n        /* \"bep-20.sol\":18223:18227  true */\n      0x01\n        /* \"bep-20.sol\":18216:18227  return true */\n      swap1\n      pop\n        /* \"bep-20.sol\":17809:18234  function increaseAllowance(address spender, uint256 addedValue)... */\n      swap3\n      swap2\n      pop\n      pop\n      jump\t// out\n        /* \"bep-20.sol\":19132:19516  function mint(address recipient, uint256 amount) external onlyMinter {... */\n    tag_141:\n        /* \"bep-20.sol\":4299:4319  isMinter(msg.sender) */\n      tag_354\n        /* \"bep-20.sol\":4308:4318  msg.sender */\n      caller\n        /* \"bep-20.sol\":4299:4307  isMinter */\n      tag_223\n        /* \"bep-20.sol\":4299:4319  isMinter(msg.sender) */\n      jump\t// in\n    tag_354:\n        /* \"bep-20.sol\":4291:4372  require(isMinter(msg.sender), \"MinterRole: caller does not have the Minter role\") */\n      tag_355\n      jumpi\n      mload(0x40)\n      0x08c379a000000000000000000000000000000000000000000000000000000000\n      dup2\n      mstore\n      0x04\n      add\n      dup1\n      dup1\n      0x20\n      add\n      dup3\n      dup2\n      sub\n      dup3\n      mstore\n      0x30\n      dup2\n      mstore\n      0x20\n      add\n      dup1\n      data_79ecb50133735b20228dea9d08fe36a462bbc1350f591a146908848db91104cd\n      0x30\n      swap2\n      codecopy\n      0x40\n      add\n      swap2\n      pop\n      pop\n      mload(0x40)\n      dup1\n      swap2\n      sub\n      swap1\n      revert\n    tag_355:\n        /* \"bep-20.sol\":19226:19259  _totalSupply.add(uint256(amount)) */\n      tag_357\n        /* \"bep-20.sol\":19251:19257  amount */\n      dup2\n        /* \"bep-20.sol\":19226:19238  _totalSupply */\n      sload(0x18)\n        /* \"bep-20.sol\":19226:19242  _totalSupply.add */\n      tag_281\n      swap1\n        /* \"bep-20.sol\":19226:19259  _totalSupply.add(uint256(amount)) */\n      swap2\n      swap1\n      0xffffffff\n      and\n      jump\t// in\n    tag_357:\n        /* \"bep-20.sol\":19211:19223  _totalSupply */\n      0x18\n        /* \"bep-20.sol\":19211:19259  _totalSupply = _totalSupply.add(uint256(amount)) */\n      dup2\n      swap1\n      sstore\n      pop\n        /* \"bep-20.sol\":9898:9899  0 */\n      0x00\n        /* \"bep-20.sol\":9889:9900  ~uint128(0) */\n      not\n        /* \"bep-20.sol\":19289:19299  MAX_SUPPLY */\n      0xffffffffffffffffffffffffffffffff\n      and\n        /* \"bep-20.sol\":19274:19286  _totalSupply */\n      sload(0x18)\n        /* \"bep-20.sol\":19274:19299  _totalSupply > MAX_SUPPLY */\n      gt\n        /* \"bep-20.sol\":19270:19351  if (_totalSupply > MAX_SUPPLY) {... */\n      iszero\n      tag_358\n      jumpi\n        /* \"bep-20.sol\":9898:9899  0 */\n      0x00\n        /* \"bep-20.sol\":9889:9900  ~uint128(0) */\n      not\n        /* \"bep-20.sol\":19330:19340  MAX_SUPPLY */\n      0xffffffffffffffffffffffffffffffff\n      and\n        /* \"bep-20.sol\":19315:19327  _totalSupply */\n      0x18\n        /* \"bep-20.sol\":19315:19340  _totalSupply = MAX_SUPPLY */\n      dup2\n      swap1\n      sstore\n      pop\n        /* \"bep-20.sol\":19270:19351  if (_totalSupply > MAX_SUPPLY) {... */\n    tag_358:\n        /* \"bep-20.sol\":19380:19408  TOTAL_GONS.div(_totalSupply) */\n      tag_359\n        /* \"bep-20.sol\":19395:19407  _totalSupply */\n      sload(0x18)\n        /* \"bep-20.sol\":8733:8735  18 */\n      0x12\n        /* \"bep-20.sol\":8862:8864  10 */\n      0x0a\n        /* \"bep-20.sol\":8862:8874  10**DECIMALS */\n      exp\n        /* \"bep-20.sol\":8850:8859  4 * 10**9 */\n      0xee6b2800\n        /* \"bep-20.sol\":8850:8874  4 * 10**9 * 10**DECIMALS */\n      mul\n        /* \"bep-20.sol\":8789:8790  0 */\n      0x00\n        /* \"bep-20.sol\":8780:8791  ~uint256(0) */\n      not\n        /* \"bep-20.sol\":9805:9843  MAX_UINT256 % INITIAL_FRAGMENTS_SUPPLY */\n      dup2\n      tag_360\n      jumpi\n      invalid\n    tag_360:\n      mod\n        /* \"bep-20.sol\":8789:8790  0 */\n      0x00\n        /* \"bep-20.sol\":8780:8791  ~uint256(0) */\n      not\n        /* \"bep-20.sol\":9790:9844  MAX_UINT256 - (MAX_UINT256 % INITIAL_FRAGMENTS_SUPPLY) */\n      sub\n        /* \"bep-20.sol\":19380:19394  TOTAL_GONS.div */\n      tag_282\n      swap1\n        /* \"bep-20.sol\":19380:19408  TOTAL_GONS.div(_totalSupply) */\n      swap2\n      swap1\n      0xffffffff\n      and\n      jump\t// in\n    tag_359:\n        /* \"bep-20.sol\":19361:19377  _gonsPerFragment */\n      0x19\n        /* \"bep-20.sol\":19361:19408  _gonsPerFragment = TOTAL_GONS.div(_totalSupply) */\n      dup2\n      swap1\n      sstore\n      pop\n        /* \"bep-20.sol\":19418:19430  pairContract */\n      0x04\n      0x00\n      swap1\n      sload\n      swap1\n      0x0100\n      exp\n      swap1\n      div\n      0xffffffffffffffffffffffffffffffffffffffff\n      and\n        /* \"bep-20.sol\":19418:19435  pairContract.sync */\n      0xffffffffffffffffffffffffffffffffffffffff\n      and\n      0xfff6cae9\n        /* \"bep-20.sol\":19418:19437  pairContract.sync() */\n      mload(0x40)\n      dup2\n      0xffffffff\n      and\n      0xe0\n      shl\n      dup2\n      mstore\n      0x04\n      add\n      0x00\n      mload(0x40)\n      dup1\n      dup4\n      sub\n      dup2\n      0x00\n      dup8\n      dup1\n      extcodesize\n      iszero\n      dup1\n      iszero\n      tag_361\n      jumpi\n      0x00\n      dup1\n      revert\n    tag_361:\n      pop\n      gas\n      call\n      iszero\n      dup1\n      iszero\n      tag_363\n      jumpi\n      returndatasize\n      0x00\n      dup1\n      returndatacopy\n      revert(0x00, returndatasize)\n    tag_363:\n      pop\n      pop\n      pop\n      pop\n        /* \"bep-20.sol\":19474:19509  _gonBalances[recipient].add(amount) */\n      tag_364\n        /* \"bep-20.sol\":19502:19508  amount */\n      dup2\n        /* \"bep-20.sol\":19474:19486  _gonBalances */\n      0x1a\n        /* \"bep-20.sol\":19474:19497  _gonBalances[recipient] */\n      0x00\n        /* \"bep-20.sol\":19487:19496  recipient */\n      dup6\n        /* \"bep-20.sol\":19474:19497  _gonBalances[recipient] */\n      0xffffffffffffffffffffffffffffffffffffffff\n      and\n      0xffffffffffffffffffffffffffffffffffffffff\n      and\n      dup2\n      mstore\n      0x20\n      add\n      swap1\n      dup2\n      mstore\n      0x20\n      add\n      0x00\n      keccak256\n      sload\n        /* \"bep-20.sol\":19474:19501  _gonBalances[recipient].add */\n      tag_281\n      swap1\n        /* \"bep-20.sol\":19474:19509  _gonBalances[recipient].add(amount) */\n      swap2\n      swap1\n      0xffffffff\n      and\n      jump\t// in\n    tag_364:\n        /* \"bep-20.sol\":19448:19460  _gonBalances */\n      0x1a\n        /* \"bep-20.sol\":19448:19471  _gonBalances[recipient] */\n      0x00\n        /* \"bep-20.sol\":19461:19470  recipient */\n      dup5\n        /* \"bep-20.sol\":19448:19471  _gonBalances[recipient] */\n      0xffffffffffffffffffffffffffffffffffffffff\n      and\n      0xffffffffffffffffffffffffffffffffffffffff\n      and\n      dup2\n      mstore\n      0x20\n      add\n      swap1\n      dup2\n      mstore\n      0x20\n      add\n      0x00\n      keccak256\n        /* \"bep-20.sol\":19448:19509  _gonBalances[recipient] = _gonBalances[recipient].add(amount) */\n      dup2\n      swap1\n      sstore\n      pop\n        /* \"bep-20.sol\":19132:19516  function mint(address recipient, uint256 amount) external onlyMinter {... */\n      pop\n      pop\n      jump\t// out\n        /* \"bep-20.sol\":8227:8258  InterfaceLP public pairContract */\n    tag_144:\n      0x04\n      0x00\n      swap1\n      sload\n      swap1\n      0x0100\n      exp\n      swap1\n      div\n      0xffffffffffffffffffffffffffffffffffffffff\n      and\n      dup2\n      jump\t// out\n        /* \"bep-20.sol\":8918:8945  uint256 public Treasury = 3 */\n    tag_147:\n      sload(0x08)\n      dup2\n      jump\t// out\n        /* \"bep-20.sol\":21951:22185  function clearStuckBalance(uint256 amountPercentage, address adr) external onlyOwner {... */\n    tag_151:\n        /* \"bep-20.sol\":7477:7486  isOwner() */\n      tag_366\n        /* \"bep-20.sol\":7477:7484  isOwner */\n      tag_187\n        /* \"bep-20.sol\":7477:7486  isOwner() */\n      jump\t// in\n    tag_366:\n        /* \"bep-20.sol\":7469:7487  require(isOwner()) */\n      tag_367\n      jumpi\n      0x00\n      dup1\n      revert\n    tag_367:\n        /* \"bep-20.sol\":22046:22063  uint256 amountETH */\n      0x00\n        /* \"bep-20.sol\":22066:22087  address(this).balance */\n      selfbalance\n        /* \"bep-20.sol\":22046:22087  uint256 amountETH = address(this).balance */\n      swap1\n      pop\n        /* \"bep-20.sol\":22105:22108  adr */\n      dup2\n        /* \"bep-20.sol\":22097:22118  payable(adr).transfer */\n      0xffffffffffffffffffffffffffffffffffffffff\n      and\n        /* \"bep-20.sol\":22097:22178  payable(adr).transfer(... */\n      0x08fc\n        /* \"bep-20.sol\":22165:22168  100 */\n      0x64\n        /* \"bep-20.sol\":22145:22161  amountPercentage */\n      dup6\n        /* \"bep-20.sol\":22133:22142  amountETH */\n      dup5\n        /* \"bep-20.sol\":22133:22161  amountETH * amountPercentage */\n      mul\n        /* \"bep-20.sol\":22132:22168  (amountETH * amountPercentage) / 100 */\n      dup2\n      tag_369\n      jumpi\n      invalid\n    tag_369:\n      div\n        /* \"bep-20.sol\":22097:22178  payable(adr).transfer(... */\n      swap1\n      dup2\n      iszero\n      mul\n      swap1\n      mload(0x40)\n      0x00\n      mload(0x40)\n      dup1\n      dup4\n      sub\n      dup2\n      dup6\n      dup9\n      dup9\n      call\n      swap4\n      pop\n      pop\n      pop\n      pop\n      iszero\n      dup1\n      iszero\n      tag_371\n      jumpi\n      returndatasize\n      0x00\n      dup1\n      returndatacopy\n      revert(0x00, returndatasize)\n    tag_371:\n      pop\n        /* \"bep-20.sol\":7497:7498  _ */\n      pop\n        /* \"bep-20.sol\":21951:22185  function clearStuckBalance(uint256 amountPercentage, address adr) external onlyOwner {... */\n      pop\n      pop\n      jump\t// out\n        /* \"bep-20.sol\":20911:21035  function checkSwapThreshold() external view returns (uint256) {... */\n    tag_154:\n        /* \"bep-20.sol\":20964:20971  uint256 */\n      0x00\n        /* \"bep-20.sol\":20990:21028  gonSwapThreshold.div(_gonsPerFragment) */\n      tag_373\n        /* \"bep-20.sol\":21011:21027  _gonsPerFragment */\n      sload(0x19)\n        /* \"bep-20.sol\":20990:21006  gonSwapThreshold */\n      sload(0x16)\n        /* \"bep-20.sol\":20990:21010  gonSwapThreshold.div */\n      tag_282\n      swap1\n        /* \"bep-20.sol\":20990:21028  gonSwapThreshold.div(_gonsPerFragment) */\n      swap2\n      swap1\n      0xffffffff\n      and\n      jump\t// in\n    tag_373:\n        /* \"bep-20.sol\":20983:21028  return gonSwapThreshold.div(_gonsPerFragment) */\n      swap1\n      pop\n        /* \"bep-20.sol\":20911:21035  function checkSwapThreshold() external view returns (uint256) {... */\n      swap1\n      jump\t// out\n        /* \"bep-20.sol\":9534:9564  bool public swapEnabled = true */\n    tag_157:\n      0x15\n      0x14\n      swap1\n      sload\n      swap1\n      0x0100\n      exp\n      swap1\n      div\n      0xff\n      and\n      dup2\n      jump\t// out\n        /* \"bep-20.sol\":12826:12962  function balanceOf(address who) external view override returns (uint256) {... */\n    tag_161:\n        /* \"bep-20.sol\":12890:12897  uint256 */\n      0x00\n        /* \"bep-20.sol\":12916:12955  _gonBalances[who].div(_gonsPerFragment) */\n      tag_375\n        /* \"bep-20.sol\":12938:12954  _gonsPerFragment */\n      sload(0x19)\n        /* \"bep-20.sol\":12916:12928  _gonBalances */\n      0x1a\n        /* \"bep-20.sol\":12916:12933  _gonBalances[who] */\n      0x00\n        /* \"bep-20.sol\":12929:12932  who */\n      dup6\n        /* \"bep-20.sol\":12916:12933  _gonBalances[who] */\n      0xffffffffffffffffffffffffffffffffffffffff\n      and\n      0xffffffffffffffffffffffffffffffffffffffff\n      and\n      dup2\n      mstore\n      0x20\n      add\n      swap1\n      dup2\n      mstore\n      0x20\n      add\n      0x00\n      keccak256\n      sload\n        /* \"bep-20.sol\":12916:12937  _gonBalances[who].div */\n      tag_282\n      swap1\n        /* \"bep-20.sol\":12916:12955  _gonBalances[who].div(_gonsPerFragment) */\n      swap2\n      swap1\n      0xffffffff\n      and\n      jump\t// in\n    tag_375:\n        /* \"bep-20.sol\":12909:12955  return _gonBalances[who].div(_gonsPerFragment) */\n      swap1\n      pop\n        /* \"bep-20.sol\":12826:12962  function balanceOf(address who) external view override returns (uint256) {... */\n      swap2\n      swap1\n      pop\n      jump\t// out\n        /* \"bep-20.sol\":7607:7730  function renounceOwnership() public onlyOwner {... */\n    tag_164:\n        /* \"bep-20.sol\":7477:7486  isOwner() */\n      tag_377\n        /* \"bep-20.sol\":7477:7484  isOwner */\n      tag_187\n        /* \"bep-20.sol\":7477:7486  isOwner() */\n      jump\t// in\n    tag_377:\n        /* \"bep-20.sol\":7469:7487  require(isOwner()) */\n      tag_378\n      jumpi\n      0x00\n      dup1\n      revert\n    tag_378:\n        /* \"bep-20.sol\":7687:7693  _owner */\n      0x02\n      0x01\n      swap1\n      sload\n      swap1\n      0x0100\n      exp\n      swap1\n      div\n      0xffffffffffffffffffffffffffffffffffffffff\n      and\n        /* \"bep-20.sol\":7668:7694  OwnershipRenounced(_owner) */\n      0xffffffffffffffffffffffffffffffffffffffff\n      and\n      0xf8df31144d9c2f0f6b59d69b8b98abd5459d07f2742c4df920b25aae33c64820\n      mload(0x40)\n      mload(0x40)\n      dup1\n      swap2\n      sub\n      swap1\n      log2\n        /* \"bep-20.sol\":7721:7722  0 */\n      0x00\n        /* \"bep-20.sol\":7704:7710  _owner */\n      0x02\n      0x01\n        /* \"bep-20.sol\":7704:7723  _owner = address(0) */\n      0x0100\n      exp\n      dup2\n      sload\n      dup2\n      0xffffffffffffffffffffffffffffffffffffffff\n      mul\n      not\n      and\n      swap1\n      dup4\n      0xffffffffffffffffffffffffffffffffffffffff\n      and\n      mul\n      or\n      swap1\n      sstore\n      pop\n        /* \"bep-20.sol\":7607:7730  function renounceOwnership() public onlyOwner {... */\n      jump\t// out\n        /* \"bep-20.sol\":18866:18965  function setFeeExempt(address _addr) external onlyOwner {... */\n    tag_168:\n        /* \"bep-20.sol\":7477:7486  isOwner() */\n      tag_381\n        /* \"bep-20.sol\":7477:7484  isOwner */\n      tag_187\n        /* \"bep-20.sol\":7477:7486  isOwner() */\n      jump\t// in\n    tag_381:\n        /* \"bep-20.sol\":7469:7487  require(isOwner()) */\n      tag_382\n      jumpi\n      0x00\n      dup1\n      revert\n    tag_382:\n        /* \"bep-20.sol\":18954:18958  true */\n      0x01\n        /* \"bep-20.sol\":18932:18944  _isFeeExempt */\n      0x06\n        /* \"bep-20.sol\":18932:18951  _isFeeExempt[_addr] */\n      0x00\n        /* \"bep-20.sol\":18945:18950  _addr */\n      dup4\n        /* \"bep-20.sol\":18932:18951  _isFeeExempt[_addr] */\n      0xffffffffffffffffffffffffffffffffffffffff\n      and\n      0xffffffffffffffffffffffffffffffffffffffff\n      and\n      dup2\n      mstore\n      0x20\n      add\n      swap1\n      dup2\n      mstore\n      0x20\n      add\n      0x00\n      keccak256\n      0x00\n        /* \"bep-20.sol\":18932:18958  _isFeeExempt[_addr] = true */\n      0x0100\n      exp\n      dup2\n      sload\n      dup2\n      0xff\n      mul\n      not\n      and\n      swap1\n      dup4\n      iszero\n      iszero\n      mul\n      or\n      swap1\n      sstore\n      pop\n        /* \"bep-20.sol\":18866:18965  function setFeeExempt(address _addr) external onlyOwner {... */\n      pop\n      jump\t// out\n        /* \"bep-20.sol\":21041:21113  function manualSync() external {... */\n    tag_171:\n        /* \"bep-20.sol\":21094:21098  pair */\n      0x15\n      0x00\n      swap1\n      sload\n      swap1\n      0x0100\n      exp\n      swap1\n      div\n      0xffffffffffffffffffffffffffffffffffffffff\n      and\n        /* \"bep-20.sol\":21082:21104  InterfaceLP(pair).sync */\n      0xffffffffffffffffffffffffffffffffffffffff\n      and\n      0xfff6cae9\n        /* \"bep-20.sol\":21082:21106  InterfaceLP(pair).sync() */\n      mload(0x40)\n      dup2\n      0xffffffff\n      and\n      0xe0\n      shl\n      dup2\n      mstore\n      0x04\n      add\n      0x00\n      mload(0x40)\n      dup1\n      dup4\n      sub\n      dup2\n      0x00\n      dup8\n      dup1\n      extcodesize\n      iszero\n      dup1\n      iszero\n      tag_385\n      jumpi\n      0x00\n      dup1\n      revert\n    tag_385:\n      pop\n      gas\n      call\n      iszero\n      dup1\n      iszero\n      tag_387\n      jumpi\n      returndatasize\n      0x00\n      dup1\n      returndatacopy\n      revert(0x00, returndatasize)\n    tag_387:\n      pop\n      pop\n      pop\n      pop\n        /* \"bep-20.sol\":21041:21113  function manualSync() external {... */\n      jump\t// out\n        /* \"bep-20.sol\":11400:12133  function rebase(uint256 epoch, int256 supplyDelta)... */\n    tag_175:\n        /* \"bep-20.sol\":11503:11510  uint256 */\n      0x00\n        /* \"bep-20.sol\":7477:7486  isOwner() */\n      tag_389\n        /* \"bep-20.sol\":7477:7484  isOwner */\n      tag_187\n        /* \"bep-20.sol\":7477:7486  isOwner() */\n      jump\t// in\n    tag_389:\n        /* \"bep-20.sol\":7469:7487  require(isOwner()) */\n      tag_390\n      jumpi\n      0x00\n      dup1\n      revert\n    tag_390:\n        /* \"bep-20.sol\":11535:11541  inSwap */\n      0x17\n      0x00\n      swap1\n      sload\n      swap1\n      0x0100\n      exp\n      swap1\n      div\n      0xff\n      and\n        /* \"bep-20.sol\":11534:11541  !inSwap */\n      iszero\n        /* \"bep-20.sol\":11526:11555  require(!inSwap, \"Try again\") */\n      tag_392\n      jumpi\n      mload(0x40)\n      0x08c379a000000000000000000000000000000000000000000000000000000000\n      dup2\n      mstore\n      0x04\n      add\n      dup1\n      dup1\n      0x20\n      add\n      dup3\n      dup2\n      sub\n      dup3\n      mstore\n      0x09\n      dup2\n      mstore\n      0x20\n      add\n      dup1\n      0x54727920616761696e0000000000000000000000000000000000000000000000\n      dup2\n      mstore\n      pop\n      0x20\n      add\n      swap2\n      pop\n      pop\n      mload(0x40)\n      dup1\n      swap2\n      sub\n      swap1\n      revert\n    tag_392:\n        /* \"bep-20.sol\":11584:11585  0 */\n      0x00\n        /* \"bep-20.sol\":11569:11580  supplyDelta */\n      dup3\n        /* \"bep-20.sol\":11569:11585  supplyDelta == 0 */\n      eq\n        /* \"bep-20.sol\":11565:11680  if (supplyDelta == 0) {... */\n      iszero\n      tag_393\n      jumpi\n        /* \"bep-20.sol\":11616:11621  epoch */\n      dup3\n        /* \"bep-20.sol\":11606:11636  LogRebase(epoch, _totalSupply) */\n      0x72725a3b1e5bd622d6bcd1339bb31279c351abe8f541ac7fd320f24e1b1641f2\n        /* \"bep-20.sol\":11623:11635  _totalSupply */\n      sload(0x18)\n        /* \"bep-20.sol\":11606:11636  LogRebase(epoch, _totalSupply) */\n      mload(0x40)\n      dup1\n      dup3\n      dup2\n      mstore\n      0x20\n      add\n      swap2\n      pop\n      pop\n      mload(0x40)\n      dup1\n      swap2\n      sub\n      swap1\n      log2\n        /* \"bep-20.sol\":11657:11669  _totalSupply */\n      sload(0x18)\n        /* \"bep-20.sol\":11650:11669  return _totalSupply */\n      swap1\n      pop\n      jump(tag_391)\n        /* \"bep-20.sol\":11565:11680  if (supplyDelta == 0) {... */\n    tag_393:\n        /* \"bep-20.sol\":11708:11709  0 */\n      0x00\n        /* \"bep-20.sol\":11694:11705  supplyDelta */\n      dup3\n        /* \"bep-20.sol\":11694:11709  supplyDelta < 0 */\n      slt\n        /* \"bep-20.sol\":11690:11874  if (supplyDelta < 0) {... */\n      iszero\n      tag_394\n      jumpi\n        /* \"bep-20.sol\":11740:11779  _totalSupply.sub(uint256(-supplyDelta)) */\n      tag_395\n        /* \"bep-20.sol\":11766:11777  supplyDelta */\n      dup3\n        /* \"bep-20.sol\":11765:11777  -supplyDelta */\n      0x00\n      sub\n        /* \"bep-20.sol\":11740:11752  _totalSupply */\n      sload(0x18)\n        /* \"bep-20.sol\":11740:11756  _totalSupply.sub */\n      tag_322\n      swap1\n        /* \"bep-20.sol\":11740:11779  _totalSupply.sub(uint256(-supplyDelta)) */\n      swap2\n      swap1\n      0xffffffff\n      and\n      jump\t// in\n    tag_395:\n        /* \"bep-20.sol\":11725:11737  _totalSupply */\n      0x18\n        /* \"bep-20.sol\":11725:11779  _totalSupply = _totalSupply.sub(uint256(-supplyDelta)) */\n      dup2\n      swap1\n      sstore\n      pop\n        /* \"bep-20.sol\":11690:11874  if (supplyDelta < 0) {... */\n      jump(tag_396)\n    tag_394:\n        /* \"bep-20.sol\":11825:11863  _totalSupply.add(uint256(supplyDelta)) */\n      tag_397\n        /* \"bep-20.sol\":11850:11861  supplyDelta */\n      dup3\n        /* \"bep-20.sol\":11825:11837  _totalSupply */\n      sload(0x18)\n        /* \"bep-20.sol\":11825:11841  _totalSupply.add */\n      tag_281\n      swap1\n        /* \"bep-20.sol\":11825:11863  _totalSupply.add(uint256(supplyDelta)) */\n      swap2\n      swap1\n      0xffffffff\n      and\n      jump\t// in\n    tag_397:\n        /* \"bep-20.sol\":11810:11822  _totalSupply */\n      0x18\n        /* \"bep-20.sol\":11810:11863  _totalSupply = _totalSupply.add(uint256(supplyDelta)) */\n      dup2\n      swap1\n      sstore\n      pop\n        /* \"bep-20.sol\":11690:11874  if (supplyDelta < 0) {... */\n    tag_396:\n        /* \"bep-20.sol\":9898:9899  0 */\n      0x00\n        /* \"bep-20.sol\":9889:9900  ~uint128(0) */\n      not\n        /* \"bep-20.sol\":11903:11913  MAX_SUPPLY */\n      0xffffffffffffffffffffffffffffffff\n      and\n        /* \"bep-20.sol\":11888:11900  _totalSupply */\n      sload(0x18)\n        /* \"bep-20.sol\":11888:11913  _totalSupply > MAX_SUPPLY */\n      gt\n        /* \"bep-20.sol\":11884:11965  if (_totalSupply > MAX_SUPPLY) {... */\n      iszero\n      tag_398\n      jumpi\n        /* \"bep-20.sol\":9898:9899  0 */\n      0x00\n        /* \"bep-20.sol\":9889:9900  ~uint128(0) */\n      not\n        /* \"bep-20.sol\":11944:11954  MAX_SUPPLY */\n      0xffffffffffffffffffffffffffffffff\n      and\n        /* \"bep-20.sol\":11929:11941  _totalSupply */\n      0x18\n        /* \"bep-20.sol\":11929:11954  _totalSupply = MAX_SUPPLY */\n      dup2\n      swap1\n      sstore\n      pop\n        /* \"bep-20.sol\":11884:11965  if (_totalSupply > MAX_SUPPLY) {... */\n    tag_398:\n        /* \"bep-20.sol\":11994:12022  TOTAL_GONS.div(_totalSupply) */\n      tag_399\n        /* \"bep-20.sol\":12009:12021  _totalSupply */\n      sload(0x18)\n        /* \"bep-20.sol\":8733:8735  18 */\n      0x12\n        /* \"bep-20.sol\":8862:8864  10 */\n      0x0a\n        /* \"bep-20.sol\":8862:8874  10**DECIMALS */\n      exp\n        /* \"bep-20.sol\":8850:8859  4 * 10**9 */\n      0xee6b2800\n        /* \"bep-20.sol\":8850:8874  4 * 10**9 * 10**DECIMALS */\n      mul\n        /* \"bep-20.sol\":8789:8790  0 */\n      0x00\n        /* \"bep-20.sol\":8780:8791  ~uint256(0) */\n      not\n        /* \"bep-20.sol\":9805:9843  MAX_UINT256 % INITIAL_FRAGMENTS_SUPPLY */\n      dup2\n      tag_400\n      jumpi\n      invalid\n    tag_400:\n      mod\n        /* \"bep-20.sol\":8789:8790  0 */\n      0x00\n        /* \"bep-20.sol\":8780:8791  ~uint256(0) */\n      not\n        /* \"bep-20.sol\":9790:9844  MAX_UINT256 - (MAX_UINT256 % INITIAL_FRAGMENTS_SUPPLY) */\n      sub\n        /* \"bep-20.sol\":11994:12008  TOTAL_GONS.div */\n      tag_282\n      swap1\n        /* \"bep-20.sol\":11994:12022  TOTAL_GONS.div(_totalSupply) */\n      swap2\n      swap1\n      0xffffffff\n      and\n      jump\t// in\n    tag_399:\n        /* \"bep-20.sol\":11975:11991  _gonsPerFragment */\n      0x19\n        /* \"bep-20.sol\":11975:12022  _gonsPerFragment = TOTAL_GONS.div(_totalSupply) */\n      dup2\n      swap1\n      sstore\n      pop\n        /* \"bep-20.sol\":12032:12044  pairContract */\n      0x04\n      0x00\n      swap1\n      sload\n      swap1\n      0x0100\n      exp\n      swap1\n      div\n      0xffffffffffffffffffffffffffffffffffffffff\n      and\n        /* \"bep-20.sol\":12032:12049  pairContract.sync */\n      0xffffffffffffffffffffffffffffffffffffffff\n      and\n      0xfff6cae9\n        /* \"bep-20.sol\":12032:12051  pairContract.sync() */\n      mload(0x40)\n      dup2\n      0xffffffff\n      and\n      0xe0\n      shl\n      dup2\n      mstore\n      0x04\n      add\n      0x00\n      mload(0x40)\n      dup1\n      dup4\n      sub\n      dup2\n      0x00\n      dup8\n      dup1\n      extcodesize\n      iszero\n      dup1\n      iszero\n      tag_401\n      jumpi\n      0x00\n      dup1\n      revert\n    tag_401:\n      pop\n      gas\n      call\n      iszero\n      dup1\n      iszero\n      tag_403\n      jumpi\n      returndatasize\n      0x00\n      dup1\n      returndatacopy\n      revert(0x00, returndatasize)\n    tag_403:\n      pop\n      pop\n      pop\n      pop\n        /* \"bep-20.sol\":12077:12082  epoch */\n      dup3\n        /* \"bep-20.sol\":12067:12097  LogRebase(epoch, _totalSupply) */\n      0x72725a3b1e5bd622d6bcd1339bb31279c351abe8f541ac7fd320f24e1b1641f2\n        /* \"bep-20.sol\":12084:12096  _totalSupply */\n      sload(0x18)\n        /* \"bep-20.sol\":12067:12097  LogRebase(epoch, _totalSupply) */\n      mload(0x40)\n      dup1\n      dup3\n      dup2\n      mstore\n      0x20\n      add\n      swap2\n      pop\n      pop\n      mload(0x40)\n      dup1\n      swap2\n      sub\n      swap1\n      log2\n        /* \"bep-20.sol\":12114:12126  _totalSupply */\n      sload(0x18)\n        /* \"bep-20.sol\":12107:12126  return _totalSupply */\n      swap1\n      pop\n        /* \"bep-20.sol\":7497:7498  _ */\n    tag_391:\n        /* \"bep-20.sol\":11400:12133  function rebase(uint256 epoch, int256 supplyDelta)... */\n      swap3\n      swap2\n      pop\n      pop\n      jump\t// out\n        /* \"bep-20.sol\":9317:9348  address public TreasuryReceiver */\n    tag_178:\n      0x10\n      0x00\n      swap1\n      sload\n      swap1\n      0x0100\n      exp\n      swap1\n      div\n      0xffffffffffffffffffffffffffffffffffffffff\n      and\n      dup2\n      jump\t// out\n        /* \"bep-20.sol\":20566:20649  function isNotInSwap() external view returns (bool) {... */\n    tag_181:\n        /* \"bep-20.sol\":20612:20616  bool */\n      0x00\n        /* \"bep-20.sol\":20636:20642  inSwap */\n      0x17\n      0x00\n      swap1\n      sload\n      swap1\n      0x0100\n      exp\n      swap1\n      div\n      0xff\n      and\n        /* \"bep-20.sol\":20635:20642  !inSwap */\n      iszero\n        /* \"bep-20.sol\":20628:20642  return !inSwap */\n      swap1\n      pop\n        /* \"bep-20.sol\":20566:20649  function isNotInSwap() external view returns (bool) {... */\n      swap1\n      jump\t// out\n        /* \"bep-20.sol\":7355:7432  function owner() public view returns (address) {... */\n    tag_184:\n        /* \"bep-20.sol\":7393:7400  address */\n      0x00\n        /* \"bep-20.sol\":7419:7425  _owner */\n      0x02\n      0x01\n      swap1\n      sload\n      swap1\n      0x0100\n      exp\n      swap1\n      div\n      0xffffffffffffffffffffffffffffffffffffffff\n      and\n        /* \"bep-20.sol\":7412:7425  return _owner */\n      swap1\n      pop\n        /* \"bep-20.sol\":7355:7432  function owner() public view returns (address) {... */\n      swap1\n      jump\t// out\n        /* \"bep-20.sol\":7511:7601  function isOwner() public view returns (bool) {... */\n    tag_187:\n        /* \"bep-20.sol\":7551:7555  bool */\n      0x00\n        /* \"bep-20.sol\":7588:7594  _owner */\n      0x02\n      0x01\n      swap1\n      sload\n      swap1\n      0x0100\n      exp\n      swap1\n      div\n      0xffffffffffffffffffffffffffffffffffffffff\n      and\n        /* \"bep-20.sol\":7574:7594  msg.sender == _owner */\n      0xffffffffffffffffffffffffffffffffffffffff\n      and\n        /* \"bep-20.sol\":7574:7584  msg.sender */\n      caller\n        /* \"bep-20.sol\":7574:7594  msg.sender == _owner */\n      0xffffffffffffffffffffffffffffffffffffffff\n      and\n      eq\n        /* \"bep-20.sol\":7567:7594  return msg.sender == _owner */\n      swap1\n      pop\n        /* \"bep-20.sol\":7511:7601  function isOwner() public view returns (bool) {... */\n      swap1\n      jump\t// out\n        /* \"bep-20.sol\":11285:11394  function updateBlacklist(address _user, bool _flag) public onlyOwner{... */\n    tag_191:\n        /* \"bep-20.sol\":7477:7486  isOwner() */\n      tag_408\n        /* \"bep-20.sol\":7477:7484  isOwner */\n      tag_187\n        /* \"bep-20.sol\":7477:7486  isOwner() */\n      jump\t// in\n    tag_408:\n        /* \"bep-20.sol\":7469:7487  require(isOwner()) */\n      tag_409\n      jumpi\n      0x00\n      dup1\n      revert\n    tag_409:\n        /* \"bep-20.sol\":11382:11387  _flag */\n      dup1\n        /* \"bep-20.sol\":11363:11372  blacklist */\n      0x1c\n        /* \"bep-20.sol\":11363:11379  blacklist[_user] */\n      0x00\n        /* \"bep-20.sol\":11373:11378  _user */\n      dup5\n        /* \"bep-20.sol\":11363:11379  blacklist[_user] */\n      0xffffffffffffffffffffffffffffffffffffffff\n      and\n      0xffffffffffffffffffffffffffffffffffffffff\n      and\n      dup2\n      mstore\n      0x20\n      add\n      swap1\n      dup2\n      mstore\n      0x20\n      add\n      0x00\n      keccak256\n      0x00\n        /* \"bep-20.sol\":11363:11387  blacklist[_user] = _flag */\n      0x0100\n      exp\n      dup2\n      sload\n      dup2\n      0xff\n      mul\n      not\n      and\n      swap1\n      dup4\n      iszero\n      iszero\n      mul\n      or\n      swap1\n      sstore\n      pop\n        /* \"bep-20.sol\":11285:11394  function updateBlacklist(address _user, bool _flag) public onlyOwner{... */\n      pop\n      pop\n      jump\t// out\n        /* \"bep-20.sol\":5256:5341  function symbol() public view returns (string memory) {... */\n    tag_194:\n        /* \"bep-20.sol\":5295:5308  string memory */\n      0x60\n        /* \"bep-20.sol\":5327:5334  _symbol */\n      0x01\n        /* \"bep-20.sol\":5320:5334  return _symbol */\n      dup1\n      sload\n      0x01\n      dup2\n      0x01\n      and\n      iszero\n      0x0100\n      mul\n      sub\n      and\n      0x02\n      swap1\n      div\n      dup1\n      0x1f\n      add\n      0x20\n      dup1\n      swap2\n      div\n      mul\n      0x20\n      add\n      mload(0x40)\n      swap1\n      dup2\n      add\n      0x40\n      mstore\n      dup1\n      swap3\n      swap2\n      swap1\n      dup2\n      dup2\n      mstore\n      0x20\n      add\n      dup3\n      dup1\n      sload\n      0x01\n      dup2\n      0x01\n      and\n      iszero\n      0x0100\n      mul\n      sub\n      and\n      0x02\n      swap1\n      div\n      dup1\n      iszero\n      tag_412\n      jumpi\n      dup1\n      0x1f\n      lt\n      tag_413\n      jumpi\n      0x0100\n      dup1\n      dup4\n      sload\n      div\n      mul\n      dup4\n      mstore\n      swap2\n      0x20\n      add\n      swap2\n      jump(tag_412)\n    tag_413:\n      dup3\n      add\n      swap2\n      swap1\n      0x00\n      mstore\n      keccak256(0x00, 0x20)\n      swap1\n    tag_414:\n      dup2\n      sload\n      dup2\n      mstore\n      swap1\n      0x01\n      add\n      swap1\n      0x20\n      add\n      dup1\n      dup4\n      gt\n      tag_414\n      jumpi\n      dup3\n      swap1\n      sub\n      0x1f\n      and\n      dup3\n      add\n      swap2\n    tag_412:\n      pop\n      pop\n      pop\n      pop\n      pop\n      swap1\n      pop\n        /* \"bep-20.sol\":5256:5341  function symbol() public view returns (string memory) {... */\n      swap1\n      jump\t// out\n        /* \"bep-20.sol\":8881:8912  uint256 public liquidityFee = 5 */\n    tag_201:\n      sload(0x07)\n      dup2\n      jump\t// out\n        /* \"bep-20.sol\":20370:20459  function addMinter(address account) public onlyOwner {... */\n    tag_205:\n        /* \"bep-20.sol\":7477:7486  isOwner() */\n      tag_416\n        /* \"bep-20.sol\":7477:7484  isOwner */\n      tag_187\n        /* \"bep-20.sol\":7477:7486  isOwner() */\n      jump\t// in\n    tag_416:\n        /* \"bep-20.sol\":7469:7487  require(isOwner()) */\n      tag_417\n      jumpi\n      0x00\n      dup1\n      revert\n    tag_417:\n        /* \"bep-20.sol\":20433:20452  _addMinter(account) */\n      tag_419\n        /* \"bep-20.sol\":20444:20451  account */\n      dup2\n        /* \"bep-20.sol\":20433:20443  _addMinter */\n      tag_420\n        /* \"bep-20.sol\":20433:20452  _addMinter(account) */\n      jump\t// in\n    tag_419:\n        /* \"bep-20.sol\":20370:20459  function addMinter(address account) public onlyOwner {... */\n      pop\n      jump\t// out\n        /* \"bep-20.sol\":4509:4584  function renounceMinter() public {... */\n    tag_208:\n        /* \"bep-20.sol\":4552:4577  _removeMinter(msg.sender) */\n      tag_422\n        /* \"bep-20.sol\":4566:4576  msg.sender */\n      caller\n        /* \"bep-20.sol\":4552:4565  _removeMinter */\n      tag_336\n        /* \"bep-20.sol\":4552:4577  _removeMinter(msg.sender) */\n      jump\t// in\n    tag_422:\n        /* \"bep-20.sol\":4509:4584  function renounceMinter() public {... */\n      jump\t// out\n        /* \"bep-20.sol\":17193:17803  function decreaseAllowance(address spender, uint256 subtractedValue)... */\n    tag_212:\n        /* \"bep-20.sol\":17328:17332  bool */\n      0x00\n        /* \"bep-20.sol\":8465:8492  initialDistributionFinished */\n      0x04\n      0x14\n      swap1\n      sload\n      swap1\n      0x0100\n      exp\n      swap1\n      div\n      0xff\n      and\n        /* \"bep-20.sol\":8465:8521  initialDistributionFinished ||... */\n      dup1\n      tag_424\n      jumpi\n      pop\n        /* \"bep-20.sol\":8512:8521  isOwner() */\n      tag_425\n        /* \"bep-20.sol\":8512:8519  isOwner */\n      tag_187\n        /* \"bep-20.sol\":8512:8521  isOwner() */\n      jump\t// in\n    tag_425:\n        /* \"bep-20.sol\":8465:8521  initialDistributionFinished ||... */\n    tag_424:\n        /* \"bep-20.sol\":8465:8566  initialDistributionFinished ||... */\n      dup1\n      tag_426\n      jumpi\n      pop\n        /* \"bep-20.sol\":8541:8554  allowTransfer */\n      0x05\n        /* \"bep-20.sol\":8541:8566  allowTransfer[msg.sender] */\n      0x00\n        /* \"bep-20.sol\":8555:8565  msg.sender */\n      caller\n        /* \"bep-20.sol\":8541:8566  allowTransfer[msg.sender] */\n      0xffffffffffffffffffffffffffffffffffffffff\n      and\n      0xffffffffffffffffffffffffffffffffffffffff\n      and\n      dup2\n      mstore\n      0x20\n      add\n      swap1\n      dup2\n      mstore\n      0x20\n      add\n      0x00\n      keccak256\n      0x00\n      swap1\n      sload\n      swap1\n      0x0100\n      exp\n      swap1\n      div\n      0xff\n      and\n        /* \"bep-20.sol\":8465:8566  initialDistributionFinished ||... */\n    tag_426:\n        /* \"bep-20.sol\":8444:8576  require(... */\n      tag_427\n      jumpi\n      0x00\n      dup1\n      revert\n    tag_427:\n        /* \"bep-20.sol\":17348:17364  uint256 oldValue */\n      0x00\n        /* \"bep-20.sol\":17367:17384  _allowedFragments */\n      0x1b\n        /* \"bep-20.sol\":17367:17396  _allowedFragments[msg.sender] */\n      0x00\n        /* \"bep-20.sol\":17385:17395  msg.sender */\n      caller\n        /* \"bep-20.sol\":17367:17396  _allowedFragments[msg.sender] */\n      0xffffffffffffffffffffffffffffffffffffffff\n      and\n      0xffffffffffffffffffffffffffffffffffffffff\n      and\n      dup2\n      mstore\n      0x20\n      add\n      swap1\n      dup2\n      mstore\n      0x20\n      add\n      0x00\n      keccak256\n        /* \"bep-20.sol\":17367:17405  _allowedFragments[msg.sender][spender] */\n      0x00\n        /* \"bep-20.sol\":17397:17404  spender */\n      dup6\n        /* \"bep-20.sol\":17367:17405  _allowedFragments[msg.sender][spender] */\n      0xffffffffffffffffffffffffffffffffffffffff\n      and\n      0xffffffffffffffffffffffffffffffffffffffff\n      and\n      dup2\n      mstore\n      0x20\n      add\n      swap1\n      dup2\n      mstore\n      0x20\n      add\n      0x00\n      keccak256\n      sload\n        /* \"bep-20.sol\":17348:17405  uint256 oldValue = _allowedFragments[msg.sender][spender] */\n      swap1\n      pop\n        /* \"bep-20.sol\":17438:17446  oldValue */\n      dup1\n        /* \"bep-20.sol\":17419:17434  subtractedValue */\n      dup4\n        /* \"bep-20.sol\":17419:17446  subtractedValue >= oldValue */\n      lt\n        /* \"bep-20.sol\":17415:17646  if (subtractedValue >= oldValue) {... */\n      tag_429\n      jumpi\n        /* \"bep-20.sol\":17503:17504  0 */\n      0x00\n        /* \"bep-20.sol\":17462:17479  _allowedFragments */\n      0x1b\n        /* \"bep-20.sol\":17462:17491  _allowedFragments[msg.sender] */\n      0x00\n        /* \"bep-20.sol\":17480:17490  msg.sender */\n      caller\n        /* \"bep-20.sol\":17462:17491  _allowedFragments[msg.sender] */\n      0xffffffffffffffffffffffffffffffffffffffff\n      and\n      0xffffffffffffffffffffffffffffffffffffffff\n      and\n      dup2\n      mstore\n      0x20\n      add\n      swap1\n      dup2\n      mstore\n      0x20\n      add\n      0x00\n      keccak256\n        /* \"bep-20.sol\":17462:17500  _allowedFragments[msg.sender][spender] */\n      0x00\n        /* \"bep-20.sol\":17492:17499  spender */\n      dup7\n        /* \"bep-20.sol\":17462:17500  _allowedFragments[msg.sender][spender] */\n      0xffffffffffffffffffffffffffffffffffffffff\n      and\n      0xffffffffffffffffffffffffffffffffffffffff\n      and\n      dup2\n      mstore\n      0x20\n      add\n      swap1\n      dup2\n      mstore\n      0x20\n      add\n      0x00\n      keccak256\n        /* \"bep-20.sol\":17462:17504  _allowedFragments[msg.sender][spender] = 0 */\n      dup2\n      swap1\n      sstore\n      pop\n        /* \"bep-20.sol\":17415:17646  if (subtractedValue >= oldValue) {... */\n      jump(tag_430)\n    tag_429:\n        /* \"bep-20.sol\":17576:17635  oldValue.sub(... */\n      tag_431\n        /* \"bep-20.sol\":17606:17621  subtractedValue */\n      dup4\n        /* \"bep-20.sol\":17576:17584  oldValue */\n      dup3\n        /* \"bep-20.sol\":17576:17588  oldValue.sub */\n      tag_322\n      swap1\n        /* \"bep-20.sol\":17576:17635  oldValue.sub(... */\n      swap2\n      swap1\n      0xffffffff\n      and\n      jump\t// in\n    tag_431:\n        /* \"bep-20.sol\":17535:17552  _allowedFragments */\n      0x1b\n        /* \"bep-20.sol\":17535:17564  _allowedFragments[msg.sender] */\n      0x00\n        /* \"bep-20.sol\":17553:17563  msg.sender */\n      caller\n        /* \"bep-20.sol\":17535:17564  _allowedFragments[msg.sender] */\n      0xffffffffffffffffffffffffffffffffffffffff\n      and\n      0xffffffffffffffffffffffffffffffffffffffff\n      and\n      dup2\n      mstore\n      0x20\n      add\n      swap1\n      dup2\n      mstore\n      0x20\n      add\n      0x00\n      keccak256\n        /* \"bep-20.sol\":17535:17573  _allowedFragments[msg.sender][spender] */\n      0x00\n        /* \"bep-20.sol\":17565:17572  spender */\n      dup7\n        /* \"bep-20.sol\":17535:17573  _allowedFragments[msg.sender][spender] */\n      0xffffffffffffffffffffffffffffffffffffffff\n      and\n      0xffffffffffffffffffffffffffffffffffffffff\n      and\n      dup2\n      mstore\n      0x20\n      add\n      swap1\n      dup2\n      mstore\n      0x20\n      add\n      0x00\n      keccak256\n        /* \"bep-20.sol\":17535:17635  _allowedFragments[msg.sender][spender] = oldValue.sub(... */\n      dup2\n      swap1\n      sstore\n      pop\n        /* \"bep-20.sol\":17415:17646  if (subtractedValue >= oldValue) {... */\n    tag_430:\n        /* \"bep-20.sol\":17706:17713  spender */\n      dup4\n        /* \"bep-20.sol\":17660:17775  Approval(... */\n      0xffffffffffffffffffffffffffffffffffffffff\n      and\n        /* \"bep-20.sol\":17682:17692  msg.sender */\n      caller\n        /* \"bep-20.sol\":17660:17775  Approval(... */\n      0xffffffffffffffffffffffffffffffffffffffff\n      and\n      0x8c5be1e5ebec7d5bd14f71427d1e84f3dd0314c0f7b2291e5b200ac8c7c3b925\n        /* \"bep-20.sol\":17727:17744  _allowedFragments */\n      0x1b\n        /* \"bep-20.sol\":17727:17756  _allowedFragments[msg.sender] */\n      0x00\n        /* \"bep-20.sol\":17745:17755  msg.sender */\n      caller\n        /* \"bep-20.sol\":17727:17756  _allowedFragments[msg.sender] */\n      0xffffffffffffffffffffffffffffffffffffffff\n      and\n      0xffffffffffffffffffffffffffffffffffffffff\n      and\n      dup2\n      mstore\n      0x20\n      add\n      swap1\n      dup2\n      mstore\n      0x20\n      add\n      0x00\n      keccak256\n        /* \"bep-20.sol\":17727:17765  _allowedFragments[msg.sender][spender] */\n      0x00\n        /* \"bep-20.sol\":17757:17764  spender */\n      dup9\n        /* \"bep-20.sol\":17727:17765  _allowedFragments[msg.sender][spender] */\n      0xffffffffffffffffffffffffffffffffffffffff\n      and\n      0xffffffffffffffffffffffffffffffffffffffff\n      and\n      dup2\n      mstore\n      0x20\n      add\n      swap1\n      dup2\n      mstore\n      0x20\n      add\n      0x00\n      keccak256\n      sload\n        /* \"bep-20.sol\":17660:17775  Approval(... */\n      mload(0x40)\n      dup1\n      dup3\n      dup2\n      mstore\n      0x20\n      add\n      swap2\n      pop\n      pop\n      mload(0x40)\n      dup1\n      swap2\n      sub\n      swap1\n      log3\n        /* \"bep-20.sol\":17792:17796  true */\n      0x01\n        /* \"bep-20.sol\":17785:17796  return true */\n      swap2\n      pop\n      pop\n        /* \"bep-20.sol\":17193:17803  function decreaseAllowance(address spender, uint256 subtractedValue)... */\n      swap3\n      swap2\n      pop\n      pop\n      jump\t// out\n        /* \"bep-20.sol\":9508:9527  address public pair */\n    tag_215:\n      0x15\n      0x00\n      swap1\n      sload\n      swap1\n      0x0100\n      exp\n      swap1\n      div\n      0xffffffffffffffffffffffffffffffffffffffff\n      and\n      dup2\n      jump\t// out\n        /* \"bep-20.sol\":12245:12484  function transfer(address to, uint256 value)... */\n    tag_219:\n        /* \"bep-20.sol\":12400:12404  bool */\n      0x00\n        /* \"bep-20.sol\":12347:12349  to */\n      dup3\n        /* \"bep-20.sol\":8668:8671  0x0 */\n      0x00\n        /* \"bep-20.sol\":8654:8672  to != address(0x0) */\n      0xffffffffffffffffffffffffffffffffffffffff\n      and\n        /* \"bep-20.sol\":8654:8656  to */\n      dup2\n        /* \"bep-20.sol\":8654:8672  to != address(0x0) */\n      0xffffffffffffffffffffffffffffffffffffffff\n      and\n      eq\n      iszero\n        /* \"bep-20.sol\":8646:8673  require(to != address(0x0)) */\n      tag_433\n      jumpi\n      0x00\n      dup1\n      revert\n    tag_433:\n        /* \"bep-20.sol\":8465:8492  initialDistributionFinished */\n      0x04\n      0x14\n      swap1\n      sload\n      swap1\n      0x0100\n      exp\n      swap1\n      div\n      0xff\n      and\n        /* \"bep-20.sol\":8465:8521  initialDistributionFinished ||... */\n      dup1\n      tag_435\n      jumpi\n      pop\n        /* \"bep-20.sol\":8512:8521  isOwner() */\n      tag_436\n        /* \"bep-20.sol\":8512:8519  isOwner */\n      tag_187\n        /* \"bep-20.sol\":8512:8521  isOwner() */\n      jump\t// in\n    tag_436:\n        /* \"bep-20.sol\":8465:8521  initialDistributionFinished ||... */\n    tag_435:\n        /* \"bep-20.sol\":8465:8566  initialDistributionFinished ||... */\n      dup1\n      tag_437\n      jumpi\n      pop\n        /* \"bep-20.sol\":8541:8554  allowTransfer */\n      0x05\n        /* \"bep-20.sol\":8541:8566  allowTransfer[msg.sender] */\n      0x00\n        /* \"bep-20.sol\":8555:8565  msg.sender */\n      caller\n        /* \"bep-20.sol\":8541:8566  allowTransfer[msg.sender] */\n      0xffffffffffffffffffffffffffffffffffffffff\n      and\n      0xffffffffffffffffffffffffffffffffffffffff\n      and\n      dup2\n      mstore\n      0x20\n      add\n      swap1\n      dup2\n      mstore\n      0x20\n      add\n      0x00\n      keccak256\n      0x00\n      swap1\n      sload\n      swap1\n      0x0100\n      exp\n      swap1\n      div\n      0xff\n      and\n        /* \"bep-20.sol\":8465:8566  initialDistributionFinished ||... */\n    tag_437:\n        /* \"bep-20.sol\":8444:8576  require(... */\n      tag_438\n      jumpi\n      0x00\n      dup1\n      revert\n    tag_438:\n        /* \"bep-20.sol\":12420:12456  _transferFrom(msg.sender, to, value) */\n      tag_440\n        /* \"bep-20.sol\":12434:12444  msg.sender */\n      caller\n        /* \"bep-20.sol\":12446:12448  to */\n      dup6\n        /* \"bep-20.sol\":12450:12455  value */\n      dup6\n        /* \"bep-20.sol\":12420:12433  _transferFrom */\n      tag_316\n        /* \"bep-20.sol\":12420:12456  _transferFrom(msg.sender, to, value) */\n      jump\t// in\n    tag_440:\n      pop\n        /* \"bep-20.sol\":12473:12477  true */\n      0x01\n        /* \"bep-20.sol\":12466:12477  return true */\n      swap2\n      pop\n        /* \"bep-20.sol\":12245:12484  function transfer(address to, uint256 value)... */\n      pop\n      swap3\n      swap2\n      pop\n      pop\n      jump\t// out\n        /* \"bep-20.sol\":4396:4503  function isMinter(address account) public view returns (bool) {... */\n    tag_223:\n        /* \"bep-20.sol\":4452:4456  bool */\n      0x00\n        /* \"bep-20.sol\":4475:4496  _minters.has(account) */\n      tag_442\n        /* \"bep-20.sol\":4488:4495  account */\n      dup3\n        /* \"bep-20.sol\":4475:4483  _minters */\n      0x03\n        /* \"bep-20.sol\":4475:4487  _minters.has */\n      tag_443\n      swap1\n        /* \"bep-20.sol\":4475:4496  _minters.has(account) */\n      swap2\n      swap1\n      0xffffffff\n      and\n      jump\t// in\n    tag_442:\n        /* \"bep-20.sol\":4468:4496  return _minters.has(account) */\n      swap1\n      pop\n        /* \"bep-20.sol\":4396:4503  function isMinter(address account) public view returns (bool) {... */\n      swap2\n      swap1\n      pop\n      jump\t// out\n        /* \"bep-20.sol\":8951:8983  uint256 public RiskFreeValue = 5 */\n    tag_226:\n      sload(0x09)\n      dup2\n      jump\t// out\n        /* \"bep-20.sol\":9275:9311  address public autoLiquidityReceiver */\n    tag_229:\n      0x0f\n      0x00\n      swap1\n      sload\n      swap1\n      0x0100\n      exp\n      swap1\n      div\n      0xffffffffffffffffffffffffffffffffffffffff\n      and\n      dup2\n      jump\t// out\n        /* \"bep-20.sol\":19522:19745  function setSwapBackSettings(... */\n    tag_233:\n        /* \"bep-20.sol\":7477:7486  isOwner() */\n      tag_445\n        /* \"bep-20.sol\":7477:7484  isOwner */\n      tag_187\n        /* \"bep-20.sol\":7477:7486  isOwner() */\n      jump\t// in\n    tag_445:\n        /* \"bep-20.sol\":7469:7487  require(isOwner()) */\n      tag_446\n      jumpi\n      0x00\n      dup1\n      revert\n    tag_446:\n        /* \"bep-20.sol\":19669:19677  _enabled */\n      dup3\n        /* \"bep-20.sol\":19655:19666  swapEnabled */\n      0x15\n      0x14\n        /* \"bep-20.sol\":19655:19677  swapEnabled = _enabled */\n      0x0100\n      exp\n      dup2\n      sload\n      dup2\n      0xff\n      mul\n      not\n      and\n      swap1\n      dup4\n      iszero\n      iszero\n      mul\n      or\n      swap1\n      sstore\n      pop\n        /* \"bep-20.sol\":19706:19738  TOTAL_GONS.div(_denom).mul(_num) */\n      tag_448\n        /* \"bep-20.sol\":19733:19737  _num */\n      dup3\n        /* \"bep-20.sol\":19706:19728  TOTAL_GONS.div(_denom) */\n      tag_449\n        /* \"bep-20.sol\":19721:19727  _denom */\n      dup4\n        /* \"bep-20.sol\":8733:8735  18 */\n      0x12\n        /* \"bep-20.sol\":8862:8864  10 */\n      0x0a\n        /* \"bep-20.sol\":8862:8874  10**DECIMALS */\n      exp\n        /* \"bep-20.sol\":8850:8859  4 * 10**9 */\n      0xee6b2800\n        /* \"bep-20.sol\":8850:8874  4 * 10**9 * 10**DECIMALS */\n      mul\n        /* \"bep-20.sol\":8789:8790  0 */\n      0x00\n        /* \"bep-20.sol\":8780:8791  ~uint256(0) */\n      not\n        /* \"bep-20.sol\":9805:9843  MAX_UINT256 % INITIAL_FRAGMENTS_SUPPLY */\n      dup2\n      tag_450\n      jumpi\n      invalid\n    tag_450:\n      mod\n        /* \"bep-20.sol\":8789:8790  0 */\n      0x00\n        /* \"bep-20.sol\":8780:8791  ~uint256(0) */\n      not\n        /* \"bep-20.sol\":9790:9844  MAX_UINT256 - (MAX_UINT256 % INITIAL_FRAGMENTS_SUPPLY) */\n      sub\n        /* \"bep-20.sol\":19706:19720  TOTAL_GONS.div */\n      tag_282\n      swap1\n        /* \"bep-20.sol\":19706:19728  TOTAL_GONS.div(_denom) */\n      swap2\n      swap1\n      0xffffffff\n      and\n      jump\t// in\n    tag_449:\n        /* \"bep-20.sol\":19706:19732  TOTAL_GONS.div(_denom).mul */\n      tag_451\n      swap1\n        /* \"bep-20.sol\":19706:19738  TOTAL_GONS.div(_denom).mul(_num) */\n      swap2\n      swap1\n      0xffffffff\n      and\n      jump\t// in\n    tag_448:\n        /* \"bep-20.sol\":19687:19703  gonSwapThreshold */\n      0x16\n        /* \"bep-20.sol\":19687:19738  gonSwapThreshold = TOTAL_GONS.div(_denom).mul(_num) */\n      dup2\n      swap1\n      sstore\n      pop\n        /* \"bep-20.sol\":19522:19745  function setSwapBackSettings(... */\n      pop\n      pop\n      pop\n      jump\t// out\n        /* \"bep-20.sol\":8265:8304  bool public initialDistributionFinished */\n    tag_236:\n      0x04\n      0x14\n      swap1\n      sload\n      swap1\n      0x0100\n      exp\n      swap1\n      div\n      0xff\n      and\n      dup2\n      jump\t// out\n        /* \"bep-20.sol\":20655:20905  function sendPresale(address[] calldata recipients, uint256[] calldata values)... */\n    tag_246:\n        /* \"bep-20.sol\":7477:7486  isOwner() */\n      tag_453\n        /* \"bep-20.sol\":7477:7484  isOwner */\n      tag_187\n        /* \"bep-20.sol\":7477:7486  isOwner() */\n      jump\t// in\n    tag_453:\n        /* \"bep-20.sol\":7469:7487  require(isOwner()) */\n      tag_454\n      jumpi\n      0x00\n      dup1\n      revert\n    tag_454:\n        /* \"bep-20.sol\":20786:20795  uint256 i */\n      0x00\n        /* \"bep-20.sol\":20781:20899  for (uint256 i = 0; i < recipients.length; i++) {... */\n    tag_456:\n        /* \"bep-20.sol\":20805:20815  recipients */\n      dup5\n      dup5\n        /* \"bep-20.sol\":20805:20822  recipients.length */\n      swap1\n      pop\n        /* \"bep-20.sol\":20801:20802  i */\n      dup2\n        /* \"bep-20.sol\":20801:20822  i < recipients.length */\n      lt\n        /* \"bep-20.sol\":20781:20899  for (uint256 i = 0; i < recipients.length; i++) {... */\n      iszero\n      tag_457\n      jumpi\n        /* \"bep-20.sol\":20839:20890  _transferFrom(msg.sender, recipients[i], values[i]) */\n      tag_459\n        /* \"bep-20.sol\":20853:20863  msg.sender */\n      caller\n        /* \"bep-20.sol\":20865:20875  recipients */\n      dup7\n      dup7\n        /* \"bep-20.sol\":20876:20877  i */\n      dup5\n        /* \"bep-20.sol\":20865:20878  recipients[i] */\n      dup2\n      dup2\n      lt\n      tag_460\n      jumpi\n      invalid\n    tag_460:\n      swap1\n      pop\n      0x20\n      mul\n      add\n      calldataload\n      0xffffffffffffffffffffffffffffffffffffffff\n      and\n        /* \"bep-20.sol\":20880:20886  values */\n      dup6\n      dup6\n        /* \"bep-20.sol\":20887:20888  i */\n      dup6\n        /* \"bep-20.sol\":20880:20889  values[i] */\n      dup2\n      dup2\n      lt\n      tag_461\n      jumpi\n      invalid\n    tag_461:\n      swap1\n      pop\n      0x20\n      mul\n      add\n      calldataload\n        /* \"bep-20.sol\":20839:20852  _transferFrom */\n      tag_316\n        /* \"bep-20.sol\":20839:20890  _transferFrom(msg.sender, recipients[i], values[i]) */\n      jump\t// in\n    tag_459:\n      pop\n        /* \"bep-20.sol\":20824:20827  i++ */\n      dup1\n      dup1\n      0x01\n      add\n      swap2\n      pop\n      pop\n        /* \"bep-20.sol\":20781:20899  for (uint256 i = 0; i < recipients.length; i++) {... */\n      jump(tag_456)\n    tag_457:\n      pop\n        /* \"bep-20.sol\":20655:20905  function sendPresale(address[] calldata recipients, uint256[] calldata values)... */\n      pop\n      pop\n      pop\n      pop\n      jump\t// out\n        /* \"bep-20.sol\":18523:18634  function checkFeeExempt(address _addr) external view returns (bool) {... */\n    tag_250:\n        /* \"bep-20.sol\":18585:18589  bool */\n      0x00\n        /* \"bep-20.sol\":18608:18620  _isFeeExempt */\n      0x06\n        /* \"bep-20.sol\":18608:18627  _isFeeExempt[_addr] */\n      0x00\n        /* \"bep-20.sol\":18621:18626  _addr */\n      dup4\n        /* \"bep-20.sol\":18608:18627  _isFeeExempt[_addr] */\n      0xffffffffffffffffffffffffffffffffffffffff\n      and\n      0xffffffffffffffffffffffffffffffffffffffff\n      and\n      dup2\n      mstore\n      0x20\n      add\n      swap1\n      dup2\n      mstore\n      0x20\n      add\n      0x00\n      keccak256\n      0x00\n      swap1\n      sload\n      swap1\n      0x0100\n      exp\n      swap1\n      div\n      0xff\n      and\n        /* \"bep-20.sol\":18601:18627  return _isFeeExempt[_addr] */\n      swap1\n      pop\n        /* \"bep-20.sol\":18523:18634  function checkFeeExempt(address _addr) external view returns (bool) {... */\n      swap2\n      swap1\n      pop\n      jump\t// out\n        /* \"bep-20.sol\":22546:22829  function getLiquidityBacking(uint256 accuracy)... */\n    tag_254:\n        /* \"bep-20.sol\":22638:22645  uint256 */\n      0x00\n        /* \"bep-20.sol\":22661:22685  uint256 liquidityBalance */\n      dup1\n        /* \"bep-20.sol\":22688:22728  _gonBalances[pair].div(_gonsPerFragment) */\n      tag_464\n        /* \"bep-20.sol\":22711:22727  _gonsPerFragment */\n      sload(0x19)\n        /* \"bep-20.sol\":22688:22700  _gonBalances */\n      0x1a\n        /* \"bep-20.sol\":22688:22706  _gonBalances[pair] */\n      0x00\n        /* \"bep-20.sol\":22701:22705  pair */\n      0x15\n      0x00\n      swap1\n      sload\n      swap1\n      0x0100\n      exp\n      swap1\n      div\n      0xffffffffffffffffffffffffffffffffffffffff\n      and\n        /* \"bep-20.sol\":22688:22706  _gonBalances[pair] */\n      0xffffffffffffffffffffffffffffffffffffffff\n      and\n      0xffffffffffffffffffffffffffffffffffffffff\n      and\n      dup2\n      mstore\n      0x20\n      add\n      swap1\n      dup2\n      mstore\n      0x20\n      add\n      0x00\n      keccak256\n      sload\n        /* \"bep-20.sol\":22688:22710  _gonBalances[pair].div */\n      tag_282\n      swap1\n        /* \"bep-20.sol\":22688:22728  _gonBalances[pair].div(_gonsPerFragment) */\n      swap2\n      swap1\n      0xffffffff\n      and\n      jump\t// in\n    tag_464:\n        /* \"bep-20.sol\":22661:22728  uint256 liquidityBalance = _gonBalances[pair].div(_gonsPerFragment) */\n      swap1\n      pop\n        /* \"bep-20.sol\":22757:22822  accuracy.mul(liquidityBalance.mul(2)).div(getCirculatingSupply()) */\n      tag_465\n        /* \"bep-20.sol\":22799:22821  getCirculatingSupply() */\n      tag_466\n        /* \"bep-20.sol\":22799:22819  getCirculatingSupply */\n      tag_112\n        /* \"bep-20.sol\":22799:22821  getCirculatingSupply() */\n      jump\t// in\n    tag_466:\n        /* \"bep-20.sol\":22757:22794  accuracy.mul(liquidityBalance.mul(2)) */\n      tag_467\n        /* \"bep-20.sol\":22770:22793  liquidityBalance.mul(2) */\n      tag_468\n        /* \"bep-20.sol\":22791:22792  2 */\n      0x02\n        /* \"bep-20.sol\":22770:22786  liquidityBalance */\n      dup6\n        /* \"bep-20.sol\":22770:22790  liquidityBalance.mul */\n      tag_451\n      swap1\n        /* \"bep-20.sol\":22770:22793  liquidityBalance.mul(2) */\n      swap2\n      swap1\n      0xffffffff\n      and\n      jump\t// in\n    tag_468:\n        /* \"bep-20.sol\":22757:22765  accuracy */\n      dup7\n        /* \"bep-20.sol\":22757:22769  accuracy.mul */\n      tag_451\n      swap1\n        /* \"bep-20.sol\":22757:22794  accuracy.mul(liquidityBalance.mul(2)) */\n      swap2\n      swap1\n      0xffffffff\n      and\n      jump\t// in\n    tag_467:\n        /* \"bep-20.sol\":22757:22798  accuracy.mul(liquidityBalance.mul(2)).div */\n      tag_282\n      swap1\n        /* \"bep-20.sol\":22757:22822  accuracy.mul(liquidityBalance.mul(2)).div(getCirculatingSupply()) */\n      swap2\n      swap1\n      0xffffffff\n      and\n      jump\t// in\n    tag_465:\n        /* \"bep-20.sol\":22738:22822  return... */\n      swap2\n      pop\n      pop\n        /* \"bep-20.sol\":22546:22829  function getLiquidityBacking(uint256 accuracy)... */\n      swap2\n      swap1\n      pop\n      jump\t// out\n        /* \"bep-20.sol\":18758:18860  function enableTransfer(address _addr) external onlyOwner {... */\n    tag_258:\n        /* \"bep-20.sol\":7477:7486  isOwner() */\n      tag_470\n        /* \"bep-20.sol\":7477:7484  isOwner */\n      tag_187\n        /* \"bep-20.sol\":7477:7486  isOwner() */\n      jump\t// in\n    tag_470:\n        /* \"bep-20.sol\":7469:7487  require(isOwner()) */\n      tag_471\n      jumpi\n      0x00\n      dup1\n      revert\n    tag_471:\n        /* \"bep-20.sol\":18849:18853  true */\n      0x01\n        /* \"bep-20.sol\":18826:18839  allowTransfer */\n      0x05\n        /* \"bep-20.sol\":18826:18846  allowTransfer[_addr] */\n      0x00\n        /* \"bep-20.sol\":18840:18845  _addr */\n      dup4\n        /* \"bep-20.sol\":18826:18846  allowTransfer[_addr] */\n      0xffffffffffffffffffffffffffffffffffffffff\n      and\n      0xffffffffffffffffffffffffffffffffffffffff\n      and\n      dup2\n      mstore\n      0x20\n      add\n      swap1\n      dup2\n      mstore\n      0x20\n      add\n      0x00\n      keccak256\n      0x00\n        /* \"bep-20.sol\":18826:18853  allowTransfer[_addr] = true */\n      0x0100\n      exp\n      dup2\n      sload\n      dup2\n      0xff\n      mul\n      not\n      and\n      swap1\n      dup4\n      iszero\n      iszero\n      mul\n      or\n      swap1\n      sstore\n      pop\n        /* \"bep-20.sol\":18758:18860  function enableTransfer(address _addr) external onlyOwner {... */\n      pop\n      jump\t// out\n        /* \"bep-20.sol\":9354:9390  address public RiskFreeValueReceiver */\n    tag_261:\n      0x11\n      0x00\n      swap1\n      sload\n      swap1\n      0x0100\n      exp\n      swap1\n      div\n      0xffffffffffffffffffffffffffffffffffffffff\n      and\n      dup2\n      jump\t// out\n        /* \"bep-20.sol\":21119:21449  function setFeeReceivers(... */\n    tag_265:\n        /* \"bep-20.sol\":7477:7486  isOwner() */\n      tag_474\n        /* \"bep-20.sol\":7477:7484  isOwner */\n      tag_187\n        /* \"bep-20.sol\":7477:7486  isOwner() */\n      jump\t// in\n    tag_474:\n        /* \"bep-20.sol\":7469:7487  require(isOwner()) */\n      tag_475\n      jumpi\n      0x00\n      dup1\n      revert\n    tag_475:\n        /* \"bep-20.sol\":21318:21340  _autoLiquidityReceiver */\n      dup3\n        /* \"bep-20.sol\":21294:21315  autoLiquidityReceiver */\n      0x0f\n      0x00\n        /* \"bep-20.sol\":21294:21340  autoLiquidityReceiver = _autoLiquidityReceiver */\n      0x0100\n      exp\n      dup2\n      sload\n      dup2\n      0xffffffffffffffffffffffffffffffffffffffff\n      mul\n      not\n      and\n      swap1\n      dup4\n      0xffffffffffffffffffffffffffffffffffffffff\n      and\n      mul\n      or\n      swap1\n      sstore\n      pop\n        /* \"bep-20.sol\":21369:21386  _TreasuryReceiver */\n      dup2\n        /* \"bep-20.sol\":21350:21366  TreasuryReceiver */\n      0x10\n      0x00\n        /* \"bep-20.sol\":21350:21386  TreasuryReceiver = _TreasuryReceiver */\n      0x0100\n      exp\n      dup2\n      sload\n      dup2\n      0xffffffffffffffffffffffffffffffffffffffff\n      mul\n      not\n      and\n      swap1\n      dup4\n      0xffffffffffffffffffffffffffffffffffffffff\n      and\n      mul\n      or\n      swap1\n      sstore\n      pop\n        /* \"bep-20.sol\":21420:21442  _RiskFreeValueReceiver */\n      dup1\n        /* \"bep-20.sol\":21396:21417  RiskFreeValueReceiver */\n      0x11\n      0x00\n        /* \"bep-20.sol\":21396:21442  RiskFreeValueReceiver = _RiskFreeValueReceiver */\n      0x0100\n      exp\n      dup2\n      sload\n      dup2\n      0xffffffffffffffffffffffffffffffffffffffff\n      mul\n      not\n      and\n      swap1\n      dup4\n      0xffffffffffffffffffffffffffffffffffffffff\n      and\n      mul\n      or\n      swap1\n      sstore\n      pop\n        /* \"bep-20.sol\":21119:21449  function setFeeReceivers(... */\n      pop\n      pop\n      pop\n      jump\t// out\n        /* \"bep-20.sol\":12633:12820  function allowance(address owner_, address spender)... */\n    tag_269:\n        /* \"bep-20.sol\":12749:12756  uint256 */\n      0x00\n        /* \"bep-20.sol\":12779:12796  _allowedFragments */\n      0x1b\n        /* \"bep-20.sol\":12779:12804  _allowedFragments[owner_] */\n      0x00\n        /* \"bep-20.sol\":12797:12803  owner_ */\n      dup5\n        /* \"bep-20.sol\":12779:12804  _allowedFragments[owner_] */\n      0xffffffffffffffffffffffffffffffffffffffff\n      and\n      0xffffffffffffffffffffffffffffffffffffffff\n      and\n      dup2\n      mstore\n      0x20\n      add\n      swap1\n      dup2\n      mstore\n      0x20\n      add\n      0x00\n      keccak256\n        /* \"bep-20.sol\":12779:12813  _allowedFragments[owner_][spender] */\n      0x00\n        /* \"bep-20.sol\":12805:12812  spender */\n      dup4\n        /* \"bep-20.sol\":12779:12813  _allowedFragments[owner_][spender] */\n      0xffffffffffffffffffffffffffffffffffffffff\n      and\n      0xffffffffffffffffffffffffffffffffffffffff\n      and\n      dup2\n      mstore\n      0x20\n      add\n      swap1\n      dup2\n      mstore\n      0x20\n      add\n      0x00\n      keccak256\n      sload\n        /* \"bep-20.sol\":12772:12813  return _allowedFragments[owner_][spender] */\n      swap1\n      pop\n        /* \"bep-20.sol\":12633:12820  function allowance(address owner_, address spender)... */\n      swap3\n      swap2\n      pop\n      pop\n      jump\t// out\n        /* \"bep-20.sol\":7736:7843  function transferOwnership(address newOwner) public onlyOwner {... */\n    tag_273:\n        /* \"bep-20.sol\":7477:7486  isOwner() */\n      tag_479\n        /* \"bep-20.sol\":7477:7484  isOwner */\n      tag_187\n        /* \"bep-20.sol\":7477:7486  isOwner() */\n      jump\t// in\n    tag_479:\n        /* \"bep-20.sol\":7469:7487  require(isOwner()) */\n      tag_480\n      jumpi\n      0x00\n      dup1\n      revert\n    tag_480:\n        /* \"bep-20.sol\":7808:7836  _transferOwnership(newOwner) */\n      tag_482\n        /* \"bep-20.sol\":7827:7835  newOwner */\n      dup2\n        /* \"bep-20.sol\":7808:7826  _transferOwnership */\n      tag_483\n        /* \"bep-20.sol\":7808:7836  _transferOwnership(newOwner) */\n      jump\t// in\n    tag_482:\n        /* \"bep-20.sol\":7736:7843  function transferOwnership(address newOwner) public onlyOwner {... */\n      pop\n      jump\t// out\n        /* \"bep-20.sol\":9478:9502  IDEXRouter public router */\n    tag_276:\n      0x14\n      0x00\n      swap1\n      sload\n      swap1\n      0x0100\n      exp\n      swap1\n      div\n      0xffffffffffffffffffffffffffffffffffffffff\n      and\n      dup2\n      jump\t// out\n        /* \"bep-20.sol\":10113:10154  mapping(address => bool) public blacklist */\n    tag_280:\n      mstore(0x20, 0x1c)\n      dup1\n      0x00\n      mstore\n      keccak256(0x00, 0x40)\n      0x00\n      swap2\n      pop\n      sload\n      swap1\n      0x0100\n      exp\n      swap1\n      div\n      0xff\n      and\n      dup2\n      jump\t// out\n        /* \"bep-20.sol\":1800:1976  function add(uint256 a, uint256 b) internal pure returns (uint256) {... */\n    tag_281:\n        /* \"bep-20.sol\":1858:1865  uint256 */\n      0x00\n        /* \"bep-20.sol\":1877:1886  uint256 c */\n      dup1\n        /* \"bep-20.sol\":1893:1894  b */\n      dup3\n        /* \"bep-20.sol\":1889:1890  a */\n      dup5\n        /* \"bep-20.sol\":1889:1894  a + b */\n      add\n        /* \"bep-20.sol\":1877:1894  uint256 c = a + b */\n      swap1\n      pop\n        /* \"bep-20.sol\":1917:1918  a */\n      dup4\n        /* \"bep-20.sol\":1912:1913  c */\n      dup2\n        /* \"bep-20.sol\":1912:1918  c >= a */\n      lt\n      iszero\n        /* \"bep-20.sol\":1904:1950  require(c >= a, \"SafeMath: addition overflow\") */\n      tag_485\n      jumpi\n      mload(0x40)\n      0x08c379a000000000000000000000000000000000000000000000000000000000\n      dup2\n      mstore\n      0x04\n      add\n      dup1\n      dup1\n      0x20\n      add\n      dup3\n      dup2\n      sub\n      dup3\n      mstore\n      0x1b\n      dup2\n      mstore\n      0x20\n      add\n      dup1\n      0x536166654d6174683a206164646974696f6e206f766572666c6f770000000000\n      dup2\n      mstore\n      pop\n      0x20\n      add\n      swap2\n      pop\n      pop\n      mload(0x40)\n      dup1\n      swap2\n      sub\n      swap1\n      revert\n    tag_485:\n        /* \"bep-20.sol\":1968:1969  c */\n      dup1\n        /* \"bep-20.sol\":1961:1969  return c */\n      swap2\n      pop\n      pop\n        /* \"bep-20.sol\":1800:1976  function add(uint256 a, uint256 b) internal pure returns (uint256) {... */\n      swap3\n      swap2\n      pop\n      pop\n      jump\t// out\n        /* \"bep-20.sol\":2592:2722  function div(uint256 a, uint256 b) internal pure returns (uint256) {... */\n    tag_282:\n        /* \"bep-20.sol\":2650:2657  uint256 */\n      0x00\n        /* \"bep-20.sol\":2676:2715  div(a, b, \"SafeMath: division by zero\") */\n      tag_487\n        /* \"bep-20.sol\":2680:2681  a */\n      dup4\n        /* \"bep-20.sol\":2683:2684  b */\n      dup4\n        /* \"bep-20.sol\":2676:2715  div(a, b, \"SafeMath: division by zero\") */\n      mload(0x40)\n      dup1\n      0x40\n      add\n      0x40\n      mstore\n      dup1\n      0x1a\n      dup2\n      mstore\n      0x20\n      add\n      0x536166654d6174683a206469766973696f6e206279207a65726f000000000000\n      dup2\n      mstore\n      pop\n        /* \"bep-20.sol\":2676:2679  div */\n      tag_488\n        /* \"bep-20.sol\":2676:2715  div(a, b, \"SafeMath: division by zero\") */\n      jump\t// in\n    tag_487:\n        /* \"bep-20.sol\":2669:2715  return div(a, b, \"SafeMath: division by zero\") */\n      swap1\n      pop\n        /* \"bep-20.sol\":2592:2722  function div(uint256 a, uint256 b) internal pure returns (uint256) {... */\n      swap3\n      swap2\n      pop\n      pop\n      jump\t// out\n        /* \"bep-20.sol\":3284:3459  function add(Role storage role, address account) internal {... */\n    tag_283:\n        /* \"bep-20.sol\":3361:3379  has(role, account) */\n      tag_490\n        /* \"bep-20.sol\":3365:3369  role */\n      dup3\n        /* \"bep-20.sol\":3371:3378  account */\n      dup3\n        /* \"bep-20.sol\":3361:3364  has */\n      tag_443\n        /* \"bep-20.sol\":3361:3379  has(role, account) */\n      jump\t// in\n    tag_490:\n        /* \"bep-20.sol\":3360:3379  !has(role, account) */\n      iszero\n        /* \"bep-20.sol\":3352:3415  require(!has(role, account), \"Roles: account already has role\") */\n      tag_491\n      jumpi\n      mload(0x40)\n      0x08c379a000000000000000000000000000000000000000000000000000000000\n      dup2\n      mstore\n      0x04\n      add\n      dup1\n      dup1\n      0x20\n      add\n      dup3\n      dup2\n      sub\n      dup3\n      mstore\n      0x1f\n      dup2\n      mstore\n      0x20\n      add\n      dup1\n      0x526f6c65733a206163636f756e7420616c72656164792068617320726f6c6500\n      dup2\n      mstore\n      pop\n      0x20\n      add\n      swap2\n      pop\n      pop\n      mload(0x40)\n      dup1\n      swap2\n      sub\n      swap1\n      revert\n    tag_491:\n        /* \"bep-20.sol\":3448:3452  true */\n      0x01\n        /* \"bep-20.sol\":3425:3429  role */\n      dup3\n        /* \"bep-20.sol\":3425:3436  role.bearer */\n      0x00\n      add\n        /* \"bep-20.sol\":3425:3445  role.bearer[account] */\n      0x00\n        /* \"bep-20.sol\":3437:3444  account */\n      dup4\n        /* \"bep-20.sol\":3425:3445  role.bearer[account] */\n      0xffffffffffffffffffffffffffffffffffffffff\n      and\n      0xffffffffffffffffffffffffffffffffffffffff\n      and\n      dup2\n      mstore\n      0x20\n      add\n      swap1\n      dup2\n      mstore\n      0x20\n      add\n      0x00\n      keccak256\n      0x00\n        /* \"bep-20.sol\":3425:3452  role.bearer[account] = true */\n      0x0100\n      exp\n      dup2\n      sload\n      dup2\n      0xff\n      mul\n      not\n      and\n      swap1\n      dup4\n      iszero\n      iszero\n      mul\n      or\n      swap1\n      sstore\n      pop\n        /* \"bep-20.sol\":3284:3459  function add(Role storage role, address account) internal {... */\n      pop\n      pop\n      jump\t// out\n        /* \"bep-20.sol\":2122:2339  function sub(... */\n    tag_314:\n        /* \"bep-20.sol\":2238:2245  uint256 */\n      0x00\n        /* \"bep-20.sol\":2270:2271  a */\n      dup4\n        /* \"bep-20.sol\":2265:2266  b */\n      dup4\n        /* \"bep-20.sol\":2265:2271  b <= a */\n      gt\n      iszero\n        /* \"bep-20.sol\":2273:2285  errorMessage */\n      dup3\n        /* \"bep-20.sol\":2257:2286  require(b <= a, errorMessage) */\n      swap1\n      tag_493\n      jumpi\n      mload(0x40)\n      0x08c379a000000000000000000000000000000000000000000000000000000000\n      dup2\n      mstore\n      0x04\n      add\n      dup1\n      dup1\n      0x20\n      add\n      dup3\n      dup2\n      sub\n      dup3\n      mstore\n      dup4\n      dup2\n      dup2\n      mload\n      dup2\n      mstore\n      0x20\n      add\n      swap2\n      pop\n      dup1\n      mload\n      swap1\n      0x20\n      add\n      swap1\n      dup1\n      dup4\n      dup4\n      0x00\n    tag_494:\n      dup4\n      dup2\n      lt\n      iszero\n      tag_496\n      jumpi\n      dup1\n      dup3\n      add\n      mload\n      dup2\n      dup5\n      add\n      mstore\n      0x20\n      dup2\n      add\n      swap1\n      pop\n      jump(tag_494)\n    tag_496:\n      pop\n      pop\n      pop\n      pop\n      swap1\n      pop\n      swap1\n      dup2\n      add\n      swap1\n      0x1f\n      and\n      dup1\n      iszero\n      tag_497\n      jumpi\n      dup1\n      dup3\n      sub\n      dup1\n      mload\n      0x01\n      dup4\n      0x20\n      sub\n      0x0100\n      exp\n      sub\n      not\n      and\n      dup2\n      mstore\n      0x20\n      add\n      swap2\n      pop\n    tag_497:\n      pop\n      swap3\n      pop\n      pop\n      pop\n      mload(0x40)\n      dup1\n      swap2\n      sub\n      swap1\n      revert\n    tag_493:\n      pop\n        /* \"bep-20.sol\":2296:2305  uint256 c */\n      0x00\n        /* \"bep-20.sol\":2312:2313  b */\n      dup4\n        /* \"bep-20.sol\":2308:2309  a */\n      dup6\n        /* \"bep-20.sol\":2308:2313  a - b */\n      sub\n        /* \"bep-20.sol\":2296:2313  uint256 c = a - b */\n      swap1\n      pop\n        /* \"bep-20.sol\":2331:2332  c */\n      dup1\n        /* \"bep-20.sol\":2324:2332  return c */\n      swap2\n      pop\n      pop\n        /* \"bep-20.sol\":2122:2339  function sub(... */\n      swap4\n      swap3\n      pop\n      pop\n      pop\n      jump\t// out\n        /* \"bep-20.sol\":13304:14208  function _transferFrom(... */\n    tag_316:\n        /* \"bep-20.sol\":13426:13430  bool */\n      0x00\n        /* \"bep-20.sol\":13451:13460  blacklist */\n      0x1c\n        /* \"bep-20.sol\":13451:13468  blacklist[sender] */\n      0x00\n        /* \"bep-20.sol\":13461:13467  sender */\n      dup6\n        /* \"bep-20.sol\":13451:13468  blacklist[sender] */\n      0xffffffffffffffffffffffffffffffffffffffff\n      and\n      0xffffffffffffffffffffffffffffffffffffffff\n      and\n      dup2\n      mstore\n      0x20\n      add\n      swap1\n      dup2\n      mstore\n      0x20\n      add\n      0x00\n      keccak256\n      0x00\n      swap1\n      sload\n      swap1\n      0x0100\n      exp\n      swap1\n      div\n      0xff\n      and\n        /* \"bep-20.sol\":13450:13468  !blacklist[sender] */\n      iszero\n        /* \"bep-20.sol\":13450:13493  !blacklist[sender] && !blacklist[recipient] */\n      dup1\n      iszero\n      tag_499\n      jumpi\n      pop\n        /* \"bep-20.sol\":13473:13482  blacklist */\n      0x1c\n        /* \"bep-20.sol\":13473:13493  blacklist[recipient] */\n      0x00\n        /* \"bep-20.sol\":13483:13492  recipient */\n      dup5\n        /* \"bep-20.sol\":13473:13493  blacklist[recipient] */\n      0xffffffffffffffffffffffffffffffffffffffff\n      and\n      0xffffffffffffffffffffffffffffffffffffffff\n      and\n      dup2\n      mstore\n      0x20\n      add\n      swap1\n      dup2\n      mstore\n      0x20\n      add\n      0x00\n      keccak256\n      0x00\n      swap1\n      sload\n      swap1\n      0x0100\n      exp\n      swap1\n      div\n      0xff\n      and\n        /* \"bep-20.sol\":13472:13493  !blacklist[recipient] */\n      iszero\n        /* \"bep-20.sol\":13450:13493  !blacklist[sender] && !blacklist[recipient] */\n    tag_499:\n        /* \"bep-20.sol\":13442:13510  require(!blacklist[sender] && !blacklist[recipient], 'in_blacklist') */\n      tag_500\n      jumpi\n      mload(0x40)\n      0x08c379a000000000000000000000000000000000000000000000000000000000\n      dup2\n      mstore\n      0x04\n      add\n      dup1\n      dup1\n      0x20\n      add\n      dup3\n      dup2\n      sub\n      dup3\n      mstore\n      0x0c\n      dup2\n      mstore\n      0x20\n      add\n      dup1\n      0x696e5f626c61636b6c6973740000000000000000000000000000000000000000\n      dup2\n      mstore\n      pop\n      0x20\n      add\n      swap2\n      pop\n      pop\n      mload(0x40)\n      dup1\n      swap2\n      sub\n      swap1\n      revert\n    tag_500:\n        /* \"bep-20.sol\":13524:13530  inSwap */\n      0x17\n      0x00\n      swap1\n      sload\n      swap1\n      0x0100\n      exp\n      swap1\n      div\n      0xff\n      and\n        /* \"bep-20.sol\":13520:13605  if (inSwap) {... */\n      iszero\n      tag_501\n      jumpi\n        /* \"bep-20.sol\":13553:13594  _basicTransfer(sender, recipient, amount) */\n      tag_502\n        /* \"bep-20.sol\":13568:13574  sender */\n      dup5\n        /* \"bep-20.sol\":13576:13585  recipient */\n      dup5\n        /* \"bep-20.sol\":13587:13593  amount */\n      dup5\n        /* \"bep-20.sol\":13553:13567  _basicTransfer */\n      tag_503\n        /* \"bep-20.sol\":13553:13594  _basicTransfer(sender, recipient, amount) */\n      jump\t// in\n    tag_502:\n        /* \"bep-20.sol\":13546:13594  return _basicTransfer(sender, recipient, amount) */\n      swap1\n      pop\n      jump(tag_498)\n        /* \"bep-20.sol\":13520:13605  if (inSwap) {... */\n    tag_501:\n        /* \"bep-20.sol\":13615:13632  uint256 gonAmount */\n      0x00\n        /* \"bep-20.sol\":13635:13663  amount.mul(_gonsPerFragment) */\n      tag_504\n        /* \"bep-20.sol\":13646:13662  _gonsPerFragment */\n      sload(0x19)\n        /* \"bep-20.sol\":13635:13641  amount */\n      dup5\n        /* \"bep-20.sol\":13635:13645  amount.mul */\n      tag_451\n      swap1\n        /* \"bep-20.sol\":13635:13663  amount.mul(_gonsPerFragment) */\n      swap2\n      swap1\n      0xffffffff\n      and\n      jump\t// in\n    tag_504:\n        /* \"bep-20.sol\":13615:13663  uint256 gonAmount = amount.mul(_gonsPerFragment) */\n      swap1\n      pop\n        /* \"bep-20.sol\":13678:13694  shouldSwapBack() */\n      tag_505\n        /* \"bep-20.sol\":13678:13692  shouldSwapBack */\n      tag_506\n        /* \"bep-20.sol\":13678:13694  shouldSwapBack() */\n      jump\t// in\n    tag_505:\n        /* \"bep-20.sol\":13674:13731  if (shouldSwapBack()) {... */\n      iszero\n      tag_507\n      jumpi\n        /* \"bep-20.sol\":13710:13720  swapBack() */\n      tag_508\n        /* \"bep-20.sol\":13710:13718  swapBack */\n      tag_509\n        /* \"bep-20.sol\":13710:13720  swapBack() */\n      jump\t// in\n    tag_508:\n        /* \"bep-20.sol\":13674:13731  if (shouldSwapBack()) {... */\n    tag_507:\n        /* \"bep-20.sol\":13764:13799  _gonBalances[sender].sub(gonAmount) */\n      tag_510\n        /* \"bep-20.sol\":13789:13798  gonAmount */\n      dup2\n        /* \"bep-20.sol\":13764:13776  _gonBalances */\n      0x1a\n        /* \"bep-20.sol\":13764:13784  _gonBalances[sender] */\n      0x00\n        /* \"bep-20.sol\":13777:13783  sender */\n      dup9\n        /* \"bep-20.sol\":13764:13784  _gonBalances[sender] */\n      0xffffffffffffffffffffffffffffffffffffffff\n      and\n      0xffffffffffffffffffffffffffffffffffffffff\n      and\n      dup2\n      mstore\n      0x20\n      add\n      swap1\n      dup2\n      mstore\n      0x20\n      add\n      0x00\n      keccak256\n      sload\n        /* \"bep-20.sol\":13764:13788  _gonBalances[sender].sub */\n      tag_322\n      swap1\n        /* \"bep-20.sol\":13764:13799  _gonBalances[sender].sub(gonAmount) */\n      swap2\n      swap1\n      0xffffffff\n      and\n      jump\t// in\n    tag_510:\n        /* \"bep-20.sol\":13741:13753  _gonBalances */\n      0x1a\n        /* \"bep-20.sol\":13741:13761  _gonBalances[sender] */\n      0x00\n        /* \"bep-20.sol\":13754:13760  sender */\n      dup8\n        /* \"bep-20.sol\":13741:13761  _gonBalances[sender] */\n      0xffffffffffffffffffffffffffffffffffffffff\n      and\n      0xffffffffffffffffffffffffffffffffffffffff\n      and\n      dup2\n      mstore\n      0x20\n      add\n      swap1\n      dup2\n      mstore\n      0x20\n      add\n      0x00\n      keccak256\n        /* \"bep-20.sol\":13741:13799  _gonBalances[sender] = _gonBalances[sender].sub(gonAmount) */\n      dup2\n      swap1\n      sstore\n      pop\n        /* \"bep-20.sol\":13810:13835  uint256 gonAmountReceived */\n      0x00\n        /* \"bep-20.sol\":13838:13870  shouldTakeFee(sender, recipient) */\n      tag_511\n        /* \"bep-20.sol\":13852:13858  sender */\n      dup7\n        /* \"bep-20.sol\":13860:13869  recipient */\n      dup7\n        /* \"bep-20.sol\":13838:13851  shouldTakeFee */\n      tag_512\n        /* \"bep-20.sol\":13838:13870  shouldTakeFee(sender, recipient) */\n      jump\t// in\n    tag_511:\n        /* \"bep-20.sol\":13838:13946  shouldTakeFee(sender, recipient)... */\n      tag_513\n      jumpi\n        /* \"bep-20.sol\":13937:13946  gonAmount */\n      dup2\n        /* \"bep-20.sol\":13838:13946  shouldTakeFee(sender, recipient)... */\n      jump(tag_514)\n    tag_513:\n        /* \"bep-20.sol\":13885:13922  takeFee(sender, recipient, gonAmount) */\n      tag_515\n        /* \"bep-20.sol\":13893:13899  sender */\n      dup7\n        /* \"bep-20.sol\":13901:13910  recipient */\n      dup7\n        /* \"bep-20.sol\":13912:13921  gonAmount */\n      dup5\n        /* \"bep-20.sol\":13885:13892  takeFee */\n      tag_516\n        /* \"bep-20.sol\":13885:13922  takeFee(sender, recipient, gonAmount) */\n      jump\t// in\n    tag_515:\n        /* \"bep-20.sol\":13838:13946  shouldTakeFee(sender, recipient)... */\n    tag_514:\n        /* \"bep-20.sol\":13810:13946  uint256 gonAmountReceived = shouldTakeFee(sender, recipient)... */\n      swap1\n      pop\n        /* \"bep-20.sol\":13982:14050  _gonBalances[recipient].add(... */\n      tag_517\n        /* \"bep-20.sol\":14023:14040  gonAmountReceived */\n      dup2\n        /* \"bep-20.sol\":13982:13994  _gonBalances */\n      0x1a\n        /* \"bep-20.sol\":13982:14005  _gonBalances[recipient] */\n      0x00\n        /* \"bep-20.sol\":13995:14004  recipient */\n      dup9\n        /* \"bep-20.sol\":13982:14005  _gonBalances[recipient] */\n      0xffffffffffffffffffffffffffffffffffffffff\n      and\n      0xffffffffffffffffffffffffffffffffffffffff\n      and\n      dup2\n      mstore\n      0x20\n      add\n      swap1\n      dup2\n      mstore\n      0x20\n      add\n      0x00\n      keccak256\n      sload\n        /* \"bep-20.sol\":13982:14009  _gonBalances[recipient].add */\n      tag_281\n      swap1\n        /* \"bep-20.sol\":13982:14050  _gonBalances[recipient].add(... */\n      swap2\n      swap1\n      0xffffffff\n      and\n      jump\t// in\n    tag_517:\n        /* \"bep-20.sol\":13956:13968  _gonBalances */\n      0x1a\n        /* \"bep-20.sol\":13956:13979  _gonBalances[recipient] */\n      0x00\n        /* \"bep-20.sol\":13969:13978  recipient */\n      dup8\n        /* \"bep-20.sol\":13956:13979  _gonBalances[recipient] */\n      0xffffffffffffffffffffffffffffffffffffffff\n      and\n      0xffffffffffffffffffffffffffffffffffffffff\n      and\n      dup2\n      mstore\n      0x20\n      add\n      swap1\n      dup2\n      mstore\n      0x20\n      add\n      0x00\n      keccak256\n        /* \"bep-20.sol\":13956:14050  _gonBalances[recipient] = _gonBalances[recipient].add(... */\n      dup2\n      swap1\n      sstore\n      pop\n        /* \"bep-20.sol\":14108:14117  recipient */\n      dup5\n        /* \"bep-20.sol\":14066:14180  Transfer(... */\n      0xffffffffffffffffffffffffffffffffffffffff\n      and\n        /* \"bep-20.sol\":14088:14094  sender */\n      dup7\n        /* \"bep-20.sol\":14066:14180  Transfer(... */\n      0xffffffffffffffffffffffffffffffffffffffff\n      and\n      0xddf252ad1be2c89b69c2b068fc378daa952ba7f163c4a11628f55a4df523b3ef\n        /* \"bep-20.sol\":14131:14170  gonAmountReceived.div(_gonsPerFragment) */\n      tag_518\n        /* \"bep-20.sol\":14153:14169  _gonsPerFragment */\n      sload(0x19)\n        /* \"bep-20.sol\":14131:14148  gonAmountReceived */\n      dup6\n        /* \"bep-20.sol\":14131:14152  gonAmountReceived.div */\n      tag_282\n      swap1\n        /* \"bep-20.sol\":14131:14170  gonAmountReceived.div(_gonsPerFragment) */\n      swap2\n      swap1\n      0xffffffff\n      and\n      jump\t// in\n    tag_518:\n        /* \"bep-20.sol\":14066:14180  Transfer(... */\n      mload(0x40)\n      dup1\n      dup3\n      dup2\n      mstore\n      0x20\n      add\n      swap2\n      pop\n      pop\n      mload(0x40)\n      dup1\n      swap2\n      sub\n      swap1\n      log3\n        /* \"bep-20.sol\":14197:14201  true */\n      0x01\n        /* \"bep-20.sol\":14190:14201  return true */\n      swap3\n      pop\n      pop\n      pop\n        /* \"bep-20.sol\":13304:14208  function _transferFrom(... */\n    tag_498:\n      swap4\n      swap3\n      pop\n      pop\n      pop\n      jump\t// out\n        /* \"bep-20.sol\":1982:2116  function sub(uint256 a, uint256 b) internal pure returns (uint256) {... */\n    tag_322:\n        /* \"bep-20.sol\":2040:2047  uint256 */\n      0x00\n        /* \"bep-20.sol\":2066:2109  sub(a, b, \"SafeMath: subtraction overflow\") */\n      tag_520\n        /* \"bep-20.sol\":2070:2071  a */\n      dup4\n        /* \"bep-20.sol\":2073:2074  b */\n      dup4\n        /* \"bep-20.sol\":2066:2109  sub(a, b, \"SafeMath: subtraction overflow\") */\n      mload(0x40)\n      dup1\n      0x40\n      add\n      0x40\n      mstore\n      dup1\n      0x1e\n      dup2\n      mstore\n      0x20\n      add\n      0x536166654d6174683a207375627472616374696f6e206f766572666c6f770000\n      dup2\n      mstore\n      pop\n        /* \"bep-20.sol\":2066:2069  sub */\n      tag_314\n        /* \"bep-20.sol\":2066:2109  sub(a, b, \"SafeMath: subtraction overflow\") */\n      jump\t// in\n    tag_520:\n        /* \"bep-20.sol\":2059:2109  return sub(a, b, \"SafeMath: subtraction overflow\") */\n      swap1\n      pop\n        /* \"bep-20.sol\":1982:2116  function sub(uint256 a, uint256 b) internal pure returns (uint256) {... */\n      swap3\n      swap2\n      pop\n      pop\n      jump\t// out\n        /* \"bep-20.sol\":4715:4842  function _removeMinter(address account) internal {... */\n    tag_336:\n        /* \"bep-20.sol\":4774:4798  _minters.remove(account) */\n      tag_522\n        /* \"bep-20.sol\":4790:4797  account */\n      dup2\n        /* \"bep-20.sol\":4774:4782  _minters */\n      0x03\n        /* \"bep-20.sol\":4774:4789  _minters.remove */\n      tag_523\n      swap1\n        /* \"bep-20.sol\":4774:4798  _minters.remove(account) */\n      swap2\n      swap1\n      0xffffffff\n      and\n      jump\t// in\n    tag_522:\n        /* \"bep-20.sol\":4827:4834  account */\n      dup1\n        /* \"bep-20.sol\":4813:4835  MinterRemoved(account) */\n      0xffffffffffffffffffffffffffffffffffffffff\n      and\n      0xe94479a9f7e1952cc78f2d6baab678adc1b772d936c6583def489e524cb66692\n      mload(0x40)\n      mload(0x40)\n      dup1\n      swap2\n      sub\n      swap1\n      log2\n        /* \"bep-20.sol\":4715:4842  function _removeMinter(address account) internal {... */\n      pop\n      jump\t// out\n        /* \"bep-20.sol\":4590:4709  function _addMinter(address account) internal {... */\n    tag_420:\n        /* \"bep-20.sol\":4646:4667  _minters.add(account) */\n      tag_525\n        /* \"bep-20.sol\":4659:4666  account */\n      dup2\n        /* \"bep-20.sol\":4646:4654  _minters */\n      0x03\n        /* \"bep-20.sol\":4646:4658  _minters.add */\n      tag_283\n      swap1\n        /* \"bep-20.sol\":4646:4667  _minters.add(account) */\n      swap2\n      swap1\n      0xffffffff\n      and\n      jump\t// in\n    tag_525:\n        /* \"bep-20.sol\":4694:4701  account */\n      dup1\n        /* \"bep-20.sol\":4682:4702  MinterAdded(account) */\n      0xffffffffffffffffffffffffffffffffffffffff\n      and\n      0x6ae172837ea30b801fbfcdd4108aa1d5bf8ff775444fd70256b44e6bf3dfc3f6\n      mload(0x40)\n      mload(0x40)\n      dup1\n      swap2\n      sub\n      swap1\n      log2\n        /* \"bep-20.sol\":4590:4709  function _addMinter(address account) internal {... */\n      pop\n      jump\t// out\n        /* \"bep-20.sol\":3803:4003  function has(Role storage role, address account) internal view returns (bool) {... */\n    tag_443:\n        /* \"bep-20.sol\":3875:3879  bool */\n      0x00\n        /* \"bep-20.sol\":3918:3919  0 */\n      dup1\n        /* \"bep-20.sol\":3899:3920  account != address(0) */\n      0xffffffffffffffffffffffffffffffffffffffff\n      and\n        /* \"bep-20.sol\":3899:3906  account */\n      dup3\n        /* \"bep-20.sol\":3899:3920  account != address(0) */\n      0xffffffffffffffffffffffffffffffffffffffff\n      and\n      eq\n      iszero\n        /* \"bep-20.sol\":3891:3959  require(account != address(0), \"Roles: account is the zero address\") */\n      tag_527\n      jumpi\n      mload(0x40)\n      0x08c379a000000000000000000000000000000000000000000000000000000000\n      dup2\n      mstore\n      0x04\n      add\n      dup1\n      dup1\n      0x20\n      add\n      dup3\n      dup2\n      sub\n      dup3\n      mstore\n      0x22\n      dup2\n      mstore\n      0x20\n      add\n      dup1\n      data_9d214fa89563f4e6456a3929327e54500ea1cde2c0ba9fb2035ec106190d682f\n      0x22\n      swap2\n      codecopy\n      0x40\n      add\n      swap2\n      pop\n      pop\n      mload(0x40)\n      dup1\n      swap2\n      sub\n      swap1\n      revert\n    tag_527:\n        /* \"bep-20.sol\":3976:3980  role */\n      dup3\n        /* \"bep-20.sol\":3976:3987  role.bearer */\n      0x00\n      add\n        /* \"bep-20.sol\":3976:3996  role.bearer[account] */\n      0x00\n        /* \"bep-20.sol\":3988:3995  account */\n      dup4\n        /* \"bep-20.sol\":3976:3996  role.bearer[account] */\n      0xffffffffffffffffffffffffffffffffffffffff\n      and\n      0xffffffffffffffffffffffffffffffffffffffff\n      and\n      dup2\n      mstore\n      0x20\n      add\n      swap1\n      dup2\n      mstore\n      0x20\n      add\n      0x00\n      keccak256\n      0x00\n      swap1\n      sload\n      swap1\n      0x0100\n      exp\n      swap1\n      div\n      0xff\n      and\n        /* \"bep-20.sol\":3969:3996  return role.bearer[account] */\n      swap1\n      pop\n        /* \"bep-20.sol\":3803:4003  function has(Role storage role, address account) internal view returns (bool) {... */\n      swap3\n      swap2\n      pop\n      pop\n      jump\t// out\n        /* \"bep-20.sol\":2345:2586  function mul(uint256 a, uint256 b) internal pure returns (uint256) {... */\n    tag_451:\n        /* \"bep-20.sol\":2403:2410  uint256 */\n      0x00\n        /* \"bep-20.sol\":2431:2432  0 */\n      dup1\n        /* \"bep-20.sol\":2426:2427  a */\n      dup4\n        /* \"bep-20.sol\":2426:2432  a == 0 */\n      eq\n        /* \"bep-20.sol\":2422:2467  if (a == 0) {... */\n      iszero\n      tag_529\n      jumpi\n        /* \"bep-20.sol\":2455:2456  0 */\n      0x00\n        /* \"bep-20.sol\":2448:2456  return 0 */\n      swap1\n      pop\n      jump(tag_528)\n        /* \"bep-20.sol\":2422:2467  if (a == 0) {... */\n    tag_529:\n        /* \"bep-20.sol\":2477:2486  uint256 c */\n      0x00\n        /* \"bep-20.sol\":2493:2494  b */\n      dup3\n        /* \"bep-20.sol\":2489:2490  a */\n      dup5\n        /* \"bep-20.sol\":2489:2494  a * b */\n      mul\n        /* \"bep-20.sol\":2477:2494  uint256 c = a * b */\n      swap1\n      pop\n        /* \"bep-20.sol\":2521:2522  b */\n      dup3\n        /* \"bep-20.sol\":2516:2517  a */\n      dup5\n        /* \"bep-20.sol\":2512:2513  c */\n      dup3\n        /* \"bep-20.sol\":2512:2517  c / a */\n      dup2\n      tag_530\n      jumpi\n      invalid\n    tag_530:\n      div\n        /* \"bep-20.sol\":2512:2522  c / a == b */\n      eq\n        /* \"bep-20.sol\":2504:2560  require(c / a == b, \"SafeMath: multiplication overflow\") */\n      tag_531\n      jumpi\n      mload(0x40)\n      0x08c379a000000000000000000000000000000000000000000000000000000000\n      dup2\n      mstore\n      0x04\n      add\n      dup1\n      dup1\n      0x20\n      add\n      dup3\n      dup2\n      sub\n      dup3\n      mstore\n      0x21\n      dup2\n      mstore\n      0x20\n      add\n      dup1\n      data_9113bb53c2876a3805b2c9242029423fc540a728243ce887ab24c82cf119fba3\n      0x21\n      swap2\n      codecopy\n      0x40\n      add\n      swap2\n      pop\n      pop\n      mload(0x40)\n      dup1\n      swap2\n      sub\n      swap1\n      revert\n    tag_531:\n        /* \"bep-20.sol\":2578:2579  c */\n      dup1\n        /* \"bep-20.sol\":2571:2579  return c */\n      swap2\n      pop\n      pop\n        /* \"bep-20.sol\":2345:2586  function mul(uint256 a, uint256 b) internal pure returns (uint256) {... */\n    tag_528:\n      swap3\n      swap2\n      pop\n      pop\n      jump\t// out\n        /* \"bep-20.sol\":7849:8032  function _transferOwnership(address newOwner) internal {... */\n    tag_483:\n        /* \"bep-20.sol\":7942:7943  0 */\n      0x00\n        /* \"bep-20.sol\":7922:7944  newOwner != address(0) */\n      0xffffffffffffffffffffffffffffffffffffffff\n      and\n        /* \"bep-20.sol\":7922:7930  newOwner */\n      dup2\n        /* \"bep-20.sol\":7922:7944  newOwner != address(0) */\n      0xffffffffffffffffffffffffffffffffffffffff\n      and\n      eq\n      iszero\n        /* \"bep-20.sol\":7914:7945  require(newOwner != address(0)) */\n      tag_533\n      jumpi\n      0x00\n      dup1\n      revert\n    tag_533:\n        /* \"bep-20.sol\":7989:7997  newOwner */\n      dup1\n        /* \"bep-20.sol\":7960:7998  OwnershipTransferred(_owner, newOwner) */\n      0xffffffffffffffffffffffffffffffffffffffff\n      and\n        /* \"bep-20.sol\":7981:7987  _owner */\n      0x02\n      0x01\n      swap1\n      sload\n      swap1\n      0x0100\n      exp\n      swap1\n      div\n      0xffffffffffffffffffffffffffffffffffffffff\n      and\n        /* \"bep-20.sol\":7960:7998  OwnershipTransferred(_owner, newOwner) */\n      0xffffffffffffffffffffffffffffffffffffffff\n      and\n      0x8be0079c531659141344cd1fd0a4f28419497f9722a3daafe3b4186f6b6457e0\n      mload(0x40)\n      mload(0x40)\n      dup1\n      swap2\n      sub\n      swap1\n      log3\n        /* \"bep-20.sol\":8017:8025  newOwner */\n      dup1\n        /* \"bep-20.sol\":8008:8014  _owner */\n      0x02\n      0x01\n        /* \"bep-20.sol\":8008:8025  _owner = newOwner */\n      0x0100\n      exp\n      dup2\n      sload\n      dup2\n      0xffffffffffffffffffffffffffffffffffffffff\n      mul\n      not\n      and\n      swap1\n      dup4\n      0xffffffffffffffffffffffffffffffffffffffff\n      and\n      mul\n      or\n      swap1\n      sstore\n      pop\n        /* \"bep-20.sol\":7849:8032  function _transferOwnership(address newOwner) internal {... */\n      pop\n      jump\t// out\n        /* \"bep-20.sol\":2728:2944  function div(... */\n    tag_488:\n        /* \"bep-20.sol\":2844:2851  uint256 */\n      0x00\n        /* \"bep-20.sol\":2875:2876  0 */\n      dup1\n        /* \"bep-20.sol\":2871:2872  b */\n      dup4\n        /* \"bep-20.sol\":2871:2876  b > 0 */\n      gt\n        /* \"bep-20.sol\":2878:2890  errorMessage */\n      dup3\n        /* \"bep-20.sol\":2863:2891  require(b > 0, errorMessage) */\n      swap1\n      tag_535\n      jumpi\n      mload(0x40)\n      0x08c379a000000000000000000000000000000000000000000000000000000000\n      dup2\n      mstore\n      0x04\n      add\n      dup1\n      dup1\n      0x20\n      add\n      dup3\n      dup2\n      sub\n      dup3\n      mstore\n      dup4\n      dup2\n      dup2\n      mload\n      dup2\n      mstore\n      0x20\n      add\n      swap2\n      pop\n      dup1\n      mload\n      swap1\n      0x20\n      add\n      swap1\n      dup1\n      dup4\n      dup4\n      0x00\n    tag_536:\n      dup4\n      dup2\n      lt\n      iszero\n      tag_538\n      jumpi\n      dup1\n      dup3\n      add\n      mload\n      dup2\n      dup5\n      add\n      mstore\n      0x20\n      dup2\n      add\n      swap1\n      pop\n      jump(tag_536)\n    tag_538:\n      pop\n      pop\n      pop\n      pop\n      swap1\n      pop\n      swap1\n      dup2\n      add\n      swap1\n      0x1f\n      and\n      dup1\n      iszero\n      tag_539\n      jumpi\n      dup1\n      dup3\n      sub\n      dup1\n      mload\n      0x01\n      dup4\n      0x20\n      sub\n      0x0100\n      exp\n      sub\n      not\n      and\n      dup2\n      mstore\n      0x20\n      add\n      swap2\n      pop\n    tag_539:\n      pop\n      swap3\n      pop\n      pop\n      pop\n      mload(0x40)\n      dup1\n      swap2\n      sub\n      swap1\n      revert\n    tag_535:\n      pop\n        /* \"bep-20.sol\":2901:2910  uint256 c */\n      0x00\n        /* \"bep-20.sol\":2917:2918  b */\n      dup4\n        /* \"bep-20.sol\":2913:2914  a */\n      dup6\n        /* \"bep-20.sol\":2913:2918  a / b */\n      dup2\n      tag_540\n      jumpi\n      invalid\n    tag_540:\n      div\n        /* \"bep-20.sol\":2901:2918  uint256 c = a / b */\n      swap1\n      pop\n        /* \"bep-20.sol\":2936:2937  c */\n      dup1\n        /* \"bep-20.sol\":2929:2937  return c */\n      swap2\n      pop\n      pop\n        /* \"bep-20.sol\":2728:2944  function div(... */\n      swap4\n      swap3\n      pop\n      pop\n      pop\n      jump\t// out\n        /* \"bep-20.sol\":12968:13298  function _basicTransfer(... */\n    tag_503:\n        /* \"bep-20.sol\":13082:13086  bool */\n      0x00\n        /* \"bep-20.sol\":13098:13115  uint256 gonAmount */\n      dup1\n        /* \"bep-20.sol\":13118:13146  amount.mul(_gonsPerFragment) */\n      tag_542\n        /* \"bep-20.sol\":13129:13145  _gonsPerFragment */\n      sload(0x19)\n        /* \"bep-20.sol\":13118:13124  amount */\n      dup5\n        /* \"bep-20.sol\":13118:13128  amount.mul */\n      tag_451\n      swap1\n        /* \"bep-20.sol\":13118:13146  amount.mul(_gonsPerFragment) */\n      swap2\n      swap1\n      0xffffffff\n      and\n      jump\t// in\n    tag_542:\n        /* \"bep-20.sol\":13098:13146  uint256 gonAmount = amount.mul(_gonsPerFragment) */\n      swap1\n      pop\n        /* \"bep-20.sol\":13177:13210  _gonBalances[from].sub(gonAmount) */\n      tag_543\n        /* \"bep-20.sol\":13200:13209  gonAmount */\n      dup2\n        /* \"bep-20.sol\":13177:13189  _gonBalances */\n      0x1a\n        /* \"bep-20.sol\":13177:13195  _gonBalances[from] */\n      0x00\n        /* \"bep-20.sol\":13190:13194  from */\n      dup9\n        /* \"bep-20.sol\":13177:13195  _gonBalances[from] */\n      0xffffffffffffffffffffffffffffffffffffffff\n      and\n      0xffffffffffffffffffffffffffffffffffffffff\n      and\n      dup2\n      mstore\n      0x20\n      add\n      swap1\n      dup2\n      mstore\n      0x20\n      add\n      0x00\n      keccak256\n      sload\n        /* \"bep-20.sol\":13177:13199  _gonBalances[from].sub */\n      tag_322\n      swap1\n        /* \"bep-20.sol\":13177:13210  _gonBalances[from].sub(gonAmount) */\n      swap2\n      swap1\n      0xffffffff\n      and\n      jump\t// in\n    tag_543:\n        /* \"bep-20.sol\":13156:13168  _gonBalances */\n      0x1a\n        /* \"bep-20.sol\":13156:13174  _gonBalances[from] */\n      0x00\n        /* \"bep-20.sol\":13169:13173  from */\n      dup8\n        /* \"bep-20.sol\":13156:13174  _gonBalances[from] */\n      0xffffffffffffffffffffffffffffffffffffffff\n      and\n      0xffffffffffffffffffffffffffffffffffffffff\n      and\n      dup2\n      mstore\n      0x20\n      add\n      swap1\n      dup2\n      mstore\n      0x20\n      add\n      0x00\n      keccak256\n        /* \"bep-20.sol\":13156:13210  _gonBalances[from] = _gonBalances[from].sub(gonAmount) */\n      dup2\n      swap1\n      sstore\n      pop\n        /* \"bep-20.sol\":13239:13270  _gonBalances[to].add(gonAmount) */\n      tag_544\n        /* \"bep-20.sol\":13260:13269  gonAmount */\n      dup2\n        /* \"bep-20.sol\":13239:13251  _gonBalances */\n      0x1a\n        /* \"bep-20.sol\":13239:13255  _gonBalances[to] */\n      0x00\n        /* \"bep-20.sol\":13252:13254  to */\n      dup8\n        /* \"bep-20.sol\":13239:13255  _gonBalances[to] */\n      0xffffffffffffffffffffffffffffffffffffffff\n      and\n      0xffffffffffffffffffffffffffffffffffffffff\n      and\n      dup2\n      mstore\n      0x20\n      add\n      swap1\n      dup2\n      mstore\n      0x20\n      add\n      0x00\n      keccak256\n      sload\n        /* \"bep-20.sol\":13239:13259  _gonBalances[to].add */\n      tag_281\n      swap1\n        /* \"bep-20.sol\":13239:13270  _gonBalances[to].add(gonAmount) */\n      swap2\n      swap1\n      0xffffffff\n      and\n      jump\t// in\n    tag_544:\n        /* \"bep-20.sol\":13220:13232  _gonBalances */\n      0x1a\n        /* \"bep-20.sol\":13220:13236  _gonBalances[to] */\n      0x00\n        /* \"bep-20.sol\":13233:13235  to */\n      dup7\n        /* \"bep-20.sol\":13220:13236  _gonBalances[to] */\n      0xffffffffffffffffffffffffffffffffffffffff\n      and\n      0xffffffffffffffffffffffffffffffffffffffff\n      and\n      dup2\n      mstore\n      0x20\n      add\n      swap1\n      dup2\n      mstore\n      0x20\n      add\n      0x00\n      keccak256\n        /* \"bep-20.sol\":13220:13270  _gonBalances[to] = _gonBalances[to].add(gonAmount) */\n      dup2\n      swap1\n      sstore\n      pop\n        /* \"bep-20.sol\":13287:13291  true */\n      0x01\n        /* \"bep-20.sol\":13280:13291  return true */\n      swap2\n      pop\n      pop\n        /* \"bep-20.sol\":12968:13298  function _basicTransfer(... */\n      swap4\n      swap3\n      pop\n      pop\n      pop\n      jump\t// out\n        /* \"bep-20.sol\":19751:19973  function shouldSwapBack() internal view returns (bool) {... */\n    tag_506:\n        /* \"bep-20.sol\":19800:19804  bool */\n      0x00\n        /* \"bep-20.sol\":19849:19853  pair */\n      0x15\n      0x00\n      swap1\n      sload\n      swap1\n      0x0100\n      exp\n      swap1\n      div\n      0xffffffffffffffffffffffffffffffffffffffff\n      and\n        /* \"bep-20.sol\":19835:19853  msg.sender != pair */\n      0xffffffffffffffffffffffffffffffffffffffff\n      and\n        /* \"bep-20.sol\":19835:19845  msg.sender */\n      caller\n        /* \"bep-20.sol\":19835:19853  msg.sender != pair */\n      0xffffffffffffffffffffffffffffffffffffffff\n      and\n      eq\n      iszero\n        /* \"bep-20.sol\":19835:19876  msg.sender != pair &&... */\n      dup1\n      iszero\n      tag_546\n      jumpi\n      pop\n        /* \"bep-20.sol\":19870:19876  inSwap */\n      0x17\n      0x00\n      swap1\n      sload\n      swap1\n      0x0100\n      exp\n      swap1\n      div\n      0xff\n      and\n        /* \"bep-20.sol\":19869:19876  !inSwap */\n      iszero\n        /* \"bep-20.sol\":19835:19876  msg.sender != pair &&... */\n    tag_546:\n        /* \"bep-20.sol\":19835:19903  msg.sender != pair &&... */\n      dup1\n      iszero\n      tag_547\n      jumpi\n      pop\n        /* \"bep-20.sol\":19892:19903  swapEnabled */\n      0x15\n      0x14\n      swap1\n      sload\n      swap1\n      0x0100\n      exp\n      swap1\n      div\n      0xff\n      and\n        /* \"bep-20.sol\":19835:19903  msg.sender != pair &&... */\n    tag_547:\n        /* \"bep-20.sol\":19835:19966  msg.sender != pair &&... */\n      dup1\n      iszero\n      tag_548\n      jumpi\n      pop\n        /* \"bep-20.sol\":19950:19966  gonSwapThreshold */\n      sload(0x16)\n        /* \"bep-20.sol\":19919:19931  _gonBalances */\n      0x1a\n        /* \"bep-20.sol\":19919:19946  _gonBalances[address(this)] */\n      0x00\n        /* \"bep-20.sol\":19940:19944  this */\n      address\n        /* \"bep-20.sol\":19919:19946  _gonBalances[address(this)] */\n      0xffffffffffffffffffffffffffffffffffffffff\n      and\n      0xffffffffffffffffffffffffffffffffffffffff\n      and\n      dup2\n      mstore\n      0x20\n      add\n      swap1\n      dup2\n      mstore\n      0x20\n      add\n      0x00\n      keccak256\n      sload\n        /* \"bep-20.sol\":19919:19966  _gonBalances[address(this)] >= gonSwapThreshold */\n      lt\n      iszero\n        /* \"bep-20.sol\":19835:19966  msg.sender != pair &&... */\n    tag_548:\n        /* \"bep-20.sol\":19816:19966  return... */\n      swap1\n      pop\n        /* \"bep-20.sol\":19751:19973  function shouldSwapBack() internal view returns (bool) {... */\n      swap1\n      jump\t// out\n        /* \"bep-20.sol\":14664:16647  function swapBack() internal swapping {... */\n    tag_509:\n        /* \"bep-20.sol\":9692:9696  true */\n      0x01\n        /* \"bep-20.sol\":9683:9689  inSwap */\n      0x17\n      0x00\n        /* \"bep-20.sol\":9683:9696  inSwap = true */\n      0x0100\n      exp\n      dup2\n      sload\n      dup2\n      0xff\n      mul\n      not\n      and\n      swap1\n      dup4\n      iszero\n      iszero\n      mul\n      or\n      swap1\n      sstore\n      pop\n        /* \"bep-20.sol\":14712:14739  uint256 dynamicLiquidityFee */\n      0x00\n        /* \"bep-20.sol\":14742:14836  isOverLiquified(... */\n      tag_551\n        /* \"bep-20.sol\":14771:14786  targetLiquidity */\n      sload(0x12)\n        /* \"bep-20.sol\":14800:14826  targetLiquidityDenominator */\n      sload(0x13)\n        /* \"bep-20.sol\":14742:14757  isOverLiquified */\n      tag_92\n        /* \"bep-20.sol\":14742:14836  isOverLiquified(... */\n      jump\t// in\n    tag_551:\n        /* \"bep-20.sol\":14742:14879  isOverLiquified(... */\n      tag_552\n      jumpi\n        /* \"bep-20.sol\":14867:14879  liquidityFee */\n      sload(0x07)\n        /* \"bep-20.sol\":14742:14879  isOverLiquified(... */\n      jump(tag_553)\n    tag_552:\n        /* \"bep-20.sol\":14851:14852  0 */\n      0x00\n        /* \"bep-20.sol\":14742:14879  isOverLiquified(... */\n    tag_553:\n        /* \"bep-20.sol\":14712:14879  uint256 dynamicLiquidityFee = isOverLiquified(... */\n      swap1\n      pop\n        /* \"bep-20.sol\":14889:14917  uint256 contractTokenBalance */\n      0x00\n        /* \"bep-20.sol\":14920:14991  _gonBalances[address(this)].div(... */\n      tag_554\n        /* \"bep-20.sol\":14965:14981  _gonsPerFragment */\n      sload(0x19)\n        /* \"bep-20.sol\":14920:14932  _gonBalances */\n      0x1a\n        /* \"bep-20.sol\":14920:14947  _gonBalances[address(this)] */\n      0x00\n        /* \"bep-20.sol\":14941:14945  this */\n      address\n        /* \"bep-20.sol\":14920:14947  _gonBalances[address(this)] */\n      0xffffffffffffffffffffffffffffffffffffffff\n      and\n      0xffffffffffffffffffffffffffffffffffffffff\n      and\n      dup2\n      mstore\n      0x20\n      add\n      swap1\n      dup2\n      mstore\n      0x20\n      add\n      0x00\n      keccak256\n      sload\n        /* \"bep-20.sol\":14920:14951  _gonBalances[address(this)].div */\n      tag_282\n      swap1\n        /* \"bep-20.sol\":14920:14991  _gonBalances[address(this)].div(... */\n      swap2\n      swap1\n      0xffffffff\n      and\n      jump\t// in\n    tag_554:\n        /* \"bep-20.sol\":14889:14991  uint256 contractTokenBalance = _gonBalances[address(this)].div(... */\n      swap1\n      pop\n        /* \"bep-20.sol\":15001:15024  uint256 amountToLiquify */\n      0x00\n        /* \"bep-20.sol\":15027:15132  contractTokenBalance... */\n      tag_555\n        /* \"bep-20.sol\":15130:15131  2 */\n      0x02\n        /* \"bep-20.sol\":15027:15112  contractTokenBalance... */\n      tag_556\n        /* \"bep-20.sol\":15103:15111  totalFee */\n      sload(0x0b)\n        /* \"bep-20.sol\":15027:15085  contractTokenBalance... */\n      tag_557\n        /* \"bep-20.sol\":15065:15084  dynamicLiquidityFee */\n      dup8\n        /* \"bep-20.sol\":15027:15047  contractTokenBalance */\n      dup8\n        /* \"bep-20.sol\":15027:15064  contractTokenBalance... */\n      tag_451\n      swap1\n        /* \"bep-20.sol\":15027:15085  contractTokenBalance... */\n      swap2\n      swap1\n      0xffffffff\n      and\n      jump\t// in\n    tag_557:\n        /* \"bep-20.sol\":15027:15102  contractTokenBalance... */\n      tag_282\n      swap1\n        /* \"bep-20.sol\":15027:15112  contractTokenBalance... */\n      swap2\n      swap1\n      0xffffffff\n      and\n      jump\t// in\n    tag_556:\n        /* \"bep-20.sol\":15027:15129  contractTokenBalance... */\n      tag_282\n      swap1\n        /* \"bep-20.sol\":15027:15132  contractTokenBalance... */\n      swap2\n      swap1\n      0xffffffff\n      and\n      jump\t// in\n    tag_555:\n        /* \"bep-20.sol\":15001:15132  uint256 amountToLiquify = contractTokenBalance... */\n      swap1\n      pop\n        /* \"bep-20.sol\":15142:15162  uint256 amountToSwap */\n      0x00\n        /* \"bep-20.sol\":15165:15206  contractTokenBalance.sub(amountToLiquify) */\n      tag_558\n        /* \"bep-20.sol\":15190:15205  amountToLiquify */\n      dup3\n        /* \"bep-20.sol\":15165:15185  contractTokenBalance */\n      dup5\n        /* \"bep-20.sol\":15165:15189  contractTokenBalance.sub */\n      tag_322\n      swap1\n        /* \"bep-20.sol\":15165:15206  contractTokenBalance.sub(amountToLiquify) */\n      swap2\n      swap1\n      0xffffffff\n      and\n      jump\t// in\n    tag_558:\n        /* \"bep-20.sol\":15142:15206  uint256 amountToSwap = contractTokenBalance.sub(amountToLiquify) */\n      swap1\n      pop\n        /* \"bep-20.sol\":15217:15238  address[] memory path */\n      0x60\n        /* \"bep-20.sol\":15255:15256  2 */\n      0x02\n        /* \"bep-20.sol\":15241:15257  new address[](2) */\n      0xffffffffffffffff\n      dup2\n      gt\n      dup1\n      iszero\n      tag_559\n      jumpi\n      0x00\n      dup1\n      revert\n    tag_559:\n      pop\n      mload(0x40)\n      swap1\n      dup1\n      dup3\n      mstore\n      dup1\n      0x20\n      mul\n      0x20\n      add\n      dup3\n      add\n      0x40\n      mstore\n      dup1\n      iszero\n      tag_560\n      jumpi\n      dup2\n      0x20\n      add\n      0x20\n      dup3\n      mul\n      dup1\n      calldatasize\n      dup4\n      calldatacopy\n      dup1\n      dup3\n      add\n      swap2\n      pop\n      pop\n      swap1\n      pop\n    tag_560:\n      pop\n        /* \"bep-20.sol\":15217:15257  address[] memory path = new address[](2) */\n      swap1\n      pop\n        /* \"bep-20.sol\":15285:15289  this */\n      address\n        /* \"bep-20.sol\":15267:15271  path */\n      dup2\n        /* \"bep-20.sol\":15272:15273  0 */\n      0x00\n        /* \"bep-20.sol\":15267:15274  path[0] */\n      dup2\n      mload\n      dup2\n      lt\n      tag_561\n      jumpi\n      invalid\n    tag_561:\n      0x20\n      mul\n      0x20\n      add\n      add\n        /* \"bep-20.sol\":15267:15290  path[0] = address(this) */\n      swap1\n      0xffffffffffffffffffffffffffffffffffffffff\n      and\n      swap1\n      dup2\n      0xffffffffffffffffffffffffffffffffffffffff\n      and\n      dup2\n      mstore\n      pop\n      pop\n        /* \"bep-20.sol\":15310:15316  router */\n      0x14\n      0x00\n      swap1\n      sload\n      swap1\n      0x0100\n      exp\n      swap1\n      div\n      0xffffffffffffffffffffffffffffffffffffffff\n      and\n        /* \"bep-20.sol\":15310:15321  router.WETH */\n      0xffffffffffffffffffffffffffffffffffffffff\n      and\n      0xad5c4648\n        /* \"bep-20.sol\":15310:15323  router.WETH() */\n      mload(0x40)\n      dup2\n      0xffffffff\n      and\n      0xe0\n      shl\n      dup2\n      mstore\n      0x04\n      add\n      0x20\n      mload(0x40)\n      dup1\n      dup4\n      sub\n      dup2\n      dup7\n      dup1\n      extcodesize\n      iszero\n      dup1\n      iszero\n      tag_562\n      jumpi\n      0x00\n      dup1\n      revert\n    tag_562:\n      pop\n      gas\n      staticcall\n      iszero\n      dup1\n      iszero\n      tag_564\n      jumpi\n      returndatasize\n      0x00\n      dup1\n      returndatacopy\n      revert(0x00, returndatasize)\n    tag_564:\n      pop\n      pop\n      pop\n      pop\n      mload(0x40)\n      returndatasize\n      0x20\n      dup2\n      lt\n      iszero\n      tag_565\n      jumpi\n      0x00\n      dup1\n      revert\n    tag_565:\n      dup2\n      add\n      swap1\n      dup1\n      dup1\n      mload\n      swap1\n      0x20\n      add\n      swap1\n      swap3\n      swap2\n      swap1\n      pop\n      pop\n      pop\n        /* \"bep-20.sol\":15300:15304  path */\n      dup2\n        /* \"bep-20.sol\":15305:15306  1 */\n      0x01\n        /* \"bep-20.sol\":15300:15307  path[1] */\n      dup2\n      mload\n      dup2\n      lt\n      tag_566\n      jumpi\n      invalid\n    tag_566:\n      0x20\n      mul\n      0x20\n      add\n      add\n        /* \"bep-20.sol\":15300:15323  path[1] = router.WETH() */\n      swap1\n      0xffffffffffffffffffffffffffffffffffffffff\n      and\n      swap1\n      dup2\n      0xffffffffffffffffffffffffffffffffffffffff\n      and\n      dup2\n      mstore\n      pop\n      pop\n        /* \"bep-20.sol\":15334:15355  uint256 balanceBefore */\n      0x00\n        /* \"bep-20.sol\":15358:15379  address(this).balance */\n      selfbalance\n        /* \"bep-20.sol\":15334:15379  uint256 balanceBefore = address(this).balance */\n      swap1\n      pop\n        /* \"bep-20.sol\":15390:15396  router */\n      0x14\n      0x00\n      swap1\n      sload\n      swap1\n      0x0100\n      exp\n      swap1\n      div\n      0xffffffffffffffffffffffffffffffffffffffff\n      and\n        /* \"bep-20.sol\":15390:15447  router.swapExactTokensForETHSupportingFeeOnTransferTokens */\n      0xffffffffffffffffffffffffffffffffffffffff\n      and\n      0x791ac947\n        /* \"bep-20.sol\":15461:15473  amountToSwap */\n      dup5\n        /* \"bep-20.sol\":15487:15488  0 */\n      0x00\n        /* \"bep-20.sol\":15502:15506  path */\n      dup6\n        /* \"bep-20.sol\":15528:15532  this */\n      address\n        /* \"bep-20.sol\":15547:15562  block.timestamp */\n      timestamp\n        /* \"bep-20.sol\":15390:15572  router.swapExactTokensForETHSupportingFeeOnTransferTokens(... */\n      mload(0x40)\n      dup7\n      0xffffffff\n      and\n      0xe0\n      shl\n      dup2\n      mstore\n      0x04\n      add\n      dup1\n      dup7\n      dup2\n      mstore\n      0x20\n      add\n      dup6\n      dup2\n      mstore\n      0x20\n      add\n      dup1\n      0x20\n      add\n      dup5\n      0xffffffffffffffffffffffffffffffffffffffff\n      and\n      dup2\n      mstore\n      0x20\n      add\n      dup4\n      dup2\n      mstore\n      0x20\n      add\n      dup3\n      dup2\n      sub\n      dup3\n      mstore\n      dup6\n      dup2\n      dup2\n      mload\n      dup2\n      mstore\n      0x20\n      add\n      swap2\n      pop\n      dup1\n      mload\n      swap1\n      0x20\n      add\n      swap1\n      0x20\n      mul\n      dup1\n      dup4\n      dup4\n      0x00\n    tag_567:\n      dup4\n      dup2\n      lt\n      iszero\n      tag_569\n      jumpi\n      dup1\n      dup3\n      add\n      mload\n      dup2\n      dup5\n      add\n      mstore\n      0x20\n      dup2\n      add\n      swap1\n      pop\n      jump(tag_567)\n    tag_569:\n      pop\n      pop\n      pop\n      pop\n      swap1\n      pop\n      add\n      swap7\n      pop\n      pop\n      pop\n      pop\n      pop\n      pop\n      pop\n      0x00\n      mload(0x40)\n      dup1\n      dup4\n      sub\n      dup2\n      0x00\n      dup8\n      dup1\n      extcodesize\n      iszero\n      dup1\n      iszero\n      tag_570\n      jumpi\n      0x00\n      dup1\n      revert\n    tag_570:\n      pop\n      gas\n      call\n      iszero\n      dup1\n      iszero\n      tag_572\n      jumpi\n      returndatasize\n      0x00\n      dup1\n      returndatacopy\n      revert(0x00, returndatasize)\n    tag_572:\n      pop\n      pop\n      pop\n      pop\n        /* \"bep-20.sol\":15583:15600  uint256 amountETH */\n      0x00\n        /* \"bep-20.sol\":15603:15643  address(this).balance.sub(balanceBefore) */\n      tag_573\n        /* \"bep-20.sol\":15629:15642  balanceBefore */\n      dup3\n        /* \"bep-20.sol\":15603:15624  address(this).balance */\n      selfbalance\n        /* \"bep-20.sol\":15603:15628  address(this).balance.sub */\n      tag_322\n      swap1\n        /* \"bep-20.sol\":15603:15643  address(this).balance.sub(balanceBefore) */\n      swap2\n      swap1\n      0xffffffff\n      and\n      jump\t// in\n    tag_573:\n        /* \"bep-20.sol\":15583:15643  uint256 amountETH = address(this).balance.sub(balanceBefore) */\n      swap1\n      pop\n        /* \"bep-20.sol\":15654:15673  uint256 totalETHFee */\n      0x00\n        /* \"bep-20.sol\":15676:15716  totalFee.sub(dynamicLiquidityFee.div(2)) */\n      tag_574\n        /* \"bep-20.sol\":15689:15715  dynamicLiquidityFee.div(2) */\n      tag_575\n        /* \"bep-20.sol\":15713:15714  2 */\n      0x02\n        /* \"bep-20.sol\":15689:15708  dynamicLiquidityFee */\n      dup11\n        /* \"bep-20.sol\":15689:15712  dynamicLiquidityFee.div */\n      tag_282\n      swap1\n        /* \"bep-20.sol\":15689:15715  dynamicLiquidityFee.div(2) */\n      swap2\n      swap1\n      0xffffffff\n      and\n      jump\t// in\n    tag_575:\n        /* \"bep-20.sol\":15676:15684  totalFee */\n      sload(0x0b)\n        /* \"bep-20.sol\":15676:15688  totalFee.sub */\n      tag_322\n      swap1\n        /* \"bep-20.sol\":15676:15716  totalFee.sub(dynamicLiquidityFee.div(2)) */\n      swap2\n      swap1\n      0xffffffff\n      and\n      jump\t// in\n    tag_574:\n        /* \"bep-20.sol\":15654:15716  uint256 totalETHFee = totalFee.sub(dynamicLiquidityFee.div(2)) */\n      swap1\n      pop\n        /* \"bep-20.sol\":15727:15753  uint256 amountETHLiquidity */\n      0x00\n        /* \"bep-20.sol\":15756:15853  amountETH... */\n      tag_576\n        /* \"bep-20.sol\":15851:15852  2 */\n      0x02\n        /* \"bep-20.sol\":15756:15833  amountETH... */\n      tag_577\n        /* \"bep-20.sol\":15821:15832  totalETHFee */\n      dup5\n        /* \"bep-20.sol\":15756:15803  amountETH... */\n      tag_578\n        /* \"bep-20.sol\":15783:15802  dynamicLiquidityFee */\n      dup14\n        /* \"bep-20.sol\":15756:15765  amountETH */\n      dup9\n        /* \"bep-20.sol\":15756:15782  amountETH... */\n      tag_451\n      swap1\n        /* \"bep-20.sol\":15756:15803  amountETH... */\n      swap2\n      swap1\n      0xffffffff\n      and\n      jump\t// in\n    tag_578:\n        /* \"bep-20.sol\":15756:15820  amountETH... */\n      tag_282\n      swap1\n        /* \"bep-20.sol\":15756:15833  amountETH... */\n      swap2\n      swap1\n      0xffffffff\n      and\n      jump\t// in\n    tag_577:\n        /* \"bep-20.sol\":15756:15850  amountETH... */\n      tag_282\n      swap1\n        /* \"bep-20.sol\":15756:15853  amountETH... */\n      swap2\n      swap1\n      0xffffffff\n      and\n      jump\t// in\n    tag_576:\n        /* \"bep-20.sol\":15727:15853  uint256 amountETHLiquidity = amountETH... */\n      swap1\n      pop\n        /* \"bep-20.sol\":15863:15893  uint256 amountETHRiskFreeValue */\n      0x00\n        /* \"bep-20.sol\":15896:15941  amountETH.mul(RiskFreeValue).div(totalETHFee) */\n      tag_579\n        /* \"bep-20.sol\":15929:15940  totalETHFee */\n      dup4\n        /* \"bep-20.sol\":15896:15924  amountETH.mul(RiskFreeValue) */\n      tag_580\n        /* \"bep-20.sol\":15910:15923  RiskFreeValue */\n      sload(0x09)\n        /* \"bep-20.sol\":15896:15905  amountETH */\n      dup8\n        /* \"bep-20.sol\":15896:15909  amountETH.mul */\n      tag_451\n      swap1\n        /* \"bep-20.sol\":15896:15924  amountETH.mul(RiskFreeValue) */\n      swap2\n      swap1\n      0xffffffff\n      and\n      jump\t// in\n    tag_580:\n        /* \"bep-20.sol\":15896:15928  amountETH.mul(RiskFreeValue).div */\n      tag_282\n      swap1\n        /* \"bep-20.sol\":15896:15941  amountETH.mul(RiskFreeValue).div(totalETHFee) */\n      swap2\n      swap1\n      0xffffffff\n      and\n      jump\t// in\n    tag_579:\n        /* \"bep-20.sol\":15863:15941  uint256 amountETHRiskFreeValue = amountETH.mul(RiskFreeValue).div(totalETHFee) */\n      swap1\n      pop\n        /* \"bep-20.sol\":15951:15976  uint256 amountETHTreasury */\n      0x00\n        /* \"bep-20.sol\":15979:16041  amountETH.mul(Treasury).div(... */\n      tag_581\n        /* \"bep-20.sol\":16020:16031  totalETHFee */\n      dup5\n        /* \"bep-20.sol\":15979:16002  amountETH.mul(Treasury) */\n      tag_582\n        /* \"bep-20.sol\":15993:16001  Treasury */\n      sload(0x08)\n        /* \"bep-20.sol\":15979:15988  amountETH */\n      dup9\n        /* \"bep-20.sol\":15979:15992  amountETH.mul */\n      tag_451\n      swap1\n        /* \"bep-20.sol\":15979:16002  amountETH.mul(Treasury) */\n      swap2\n      swap1\n      0xffffffff\n      and\n      jump\t// in\n    tag_582:\n        /* \"bep-20.sol\":15979:16006  amountETH.mul(Treasury).div */\n      tag_282\n      swap1\n        /* \"bep-20.sol\":15979:16041  amountETH.mul(Treasury).div(... */\n      swap2\n      swap1\n      0xffffffff\n      and\n      jump\t// in\n    tag_581:\n        /* \"bep-20.sol\":15951:16041  uint256 amountETHTreasury = amountETH.mul(Treasury).div(... */\n      swap1\n      pop\n        /* \"bep-20.sol\":16053:16065  bool success */\n      0x00\n        /* \"bep-20.sol\":16079:16095  TreasuryReceiver */\n      0x10\n      0x00\n      swap1\n      sload\n      swap1\n      0x0100\n      exp\n      swap1\n      div\n      0xffffffffffffffffffffffffffffffffffffffff\n      and\n        /* \"bep-20.sol\":16071:16101  payable(TreasuryReceiver).call */\n      0xffffffffffffffffffffffffffffffffffffffff\n      and\n        /* \"bep-20.sol\":16122:16139  amountETHTreasury */\n      dup3\n        /* \"bep-20.sol\":16158:16163  30000 */\n      0x7530\n        /* \"bep-20.sol\":16071:16177  payable(TreasuryReceiver).call{... */\n      swap1\n      mload(0x40)\n      dup1\n      0x00\n      add\n      swap1\n      pop\n      0x00\n      mload(0x40)\n      dup1\n      dup4\n      sub\n      dup2\n      dup6\n      dup9\n      dup9\n      call\n      swap4\n      pop\n      pop\n      pop\n      pop\n      returndatasize\n      dup1\n      0x00\n      dup2\n      eq\n      tag_585\n      jumpi\n      mload(0x40)\n      swap2\n      pop\n      and(add(returndatasize, 0x3f), not(0x1f))\n      dup3\n      add\n      0x40\n      mstore\n      returndatasize\n      dup3\n      mstore\n      returndatasize\n      0x00\n      0x20\n      dup5\n      add\n      returndatacopy\n      jump(tag_584)\n    tag_585:\n      0x60\n      swap2\n      pop\n    tag_584:\n      pop\n        /* \"bep-20.sol\":16052:16177  (bool success, ) = payable(TreasuryReceiver).call{... */\n      pop\n      swap1\n      pop\n        /* \"bep-20.sol\":16209:16230  RiskFreeValueReceiver */\n      0x11\n      0x00\n      swap1\n      sload\n      swap1\n      0x0100\n      exp\n      swap1\n      div\n      0xffffffffffffffffffffffffffffffffffffffff\n      and\n        /* \"bep-20.sol\":16201:16236  payable(RiskFreeValueReceiver).call */\n      0xffffffffffffffffffffffffffffffffffffffff\n      and\n        /* \"bep-20.sol\":16257:16279  amountETHRiskFreeValue */\n      dup4\n        /* \"bep-20.sol\":16298:16303  30000 */\n      0x7530\n        /* \"bep-20.sol\":16201:16317  payable(RiskFreeValueReceiver).call{... */\n      swap1\n      mload(0x40)\n      dup1\n      0x00\n      add\n      swap1\n      pop\n      0x00\n      mload(0x40)\n      dup1\n      dup4\n      sub\n      dup2\n      dup6\n      dup9\n      dup9\n      call\n      swap4\n      pop\n      pop\n      pop\n      pop\n      returndatasize\n      dup1\n      0x00\n      dup2\n      eq\n      tag_588\n      jumpi\n      mload(0x40)\n      swap2\n      pop\n      and(add(returndatasize, 0x3f), not(0x1f))\n      dup3\n      add\n      0x40\n      mstore\n      returndatasize\n      dup3\n      mstore\n      returndatasize\n      0x00\n      0x20\n      dup5\n      add\n      returndatacopy\n      jump(tag_587)\n    tag_588:\n      0x60\n      swap2\n      pop\n    tag_587:\n      pop\n        /* \"bep-20.sol\":16187:16317  (success, ) = payable(RiskFreeValueReceiver).call{... */\n      pop\n      dup1\n      swap2\n      pop\n      pop\n        /* \"bep-20.sol\":16338:16343  false */\n      0x00\n        /* \"bep-20.sol\":16328:16343  success = false */\n      swap1\n      pop\n        /* \"bep-20.sol\":16376:16377  0 */\n      0x00\n        /* \"bep-20.sol\":16358:16373  amountToLiquify */\n      dup11\n        /* \"bep-20.sol\":16358:16377  amountToLiquify > 0 */\n      gt\n        /* \"bep-20.sol\":16354:16641  if (amountToLiquify > 0) {... */\n      iszero\n      tag_589\n      jumpi\n        /* \"bep-20.sol\":16393:16399  router */\n      0x14\n      0x00\n      swap1\n      sload\n      swap1\n      0x0100\n      exp\n      swap1\n      div\n      0xffffffffffffffffffffffffffffffffffffffff\n      and\n        /* \"bep-20.sol\":16393:16415  router.addLiquidityETH */\n      0xffffffffffffffffffffffffffffffffffffffff\n      and\n      0xf305d719\n        /* \"bep-20.sol\":16423:16441  amountETHLiquidity */\n      dup6\n        /* \"bep-20.sol\":16468:16472  this */\n      address\n        /* \"bep-20.sol\":16491:16506  amountToLiquify */\n      dup14\n        /* \"bep-20.sol\":16524:16525  0 */\n      0x00\n        /* \"bep-20.sol\":16543:16544  0 */\n      dup1\n        /* \"bep-20.sol\":16562:16583  autoLiquidityReceiver */\n      0x0f\n      0x00\n      swap1\n      sload\n      swap1\n      0x0100\n      exp\n      swap1\n      div\n      0xffffffffffffffffffffffffffffffffffffffff\n      and\n        /* \"bep-20.sol\":16601:16616  block.timestamp */\n      timestamp\n        /* \"bep-20.sol\":16393:16630  router.addLiquidityETH{value: amountETHLiquidity}(... */\n      mload(0x40)\n      dup9\n      0xffffffff\n      and\n      0xe0\n      shl\n      dup2\n      mstore\n      0x04\n      add\n      dup1\n      dup8\n      0xffffffffffffffffffffffffffffffffffffffff\n      and\n      dup2\n      mstore\n      0x20\n      add\n      dup7\n      dup2\n      mstore\n      0x20\n      add\n      dup6\n      dup2\n      mstore\n      0x20\n      add\n      dup5\n      dup2\n      mstore\n      0x20\n      add\n      dup4\n      0xffffffffffffffffffffffffffffffffffffffff\n      and\n      dup2\n      mstore\n      0x20\n      add\n      dup3\n      dup2\n      mstore\n      0x20\n      add\n      swap7\n      pop\n      pop\n      pop\n      pop\n      pop\n      pop\n      pop\n      0x60\n      mload(0x40)\n      dup1\n      dup4\n      sub\n      dup2\n      dup6\n      dup9\n      dup1\n      extcodesize\n      iszero\n      dup1\n      iszero\n      tag_590\n      jumpi\n      0x00\n      dup1\n      revert\n    tag_590:\n      pop\n      gas\n      call\n      iszero\n      dup1\n      iszero\n      tag_592\n      jumpi\n      returndatasize\n      0x00\n      dup1\n      returndatacopy\n      revert(0x00, returndatasize)\n    tag_592:\n      pop\n      pop\n      pop\n      pop\n      pop\n      mload(0x40)\n      returndatasize\n      0x60\n      dup2\n      lt\n      iszero\n      tag_593\n      jumpi\n      0x00\n      dup1\n      revert\n    tag_593:\n      dup2\n      add\n      swap1\n      dup1\n      dup1\n      mload\n      swap1\n      0x20\n      add\n      swap1\n      swap3\n      swap2\n      swap1\n      dup1\n      mload\n      swap1\n      0x20\n      add\n      swap1\n      swap3\n      swap2\n      swap1\n      dup1\n      mload\n      swap1\n      0x20\n      add\n      swap1\n      swap3\n      swap2\n      swap1\n      pop\n      pop\n      pop\n      pop\n      pop\n      pop\n        /* \"bep-20.sol\":16354:16641  if (amountToLiquify > 0) {... */\n    tag_589:\n        /* \"bep-20.sol\":9706:9707  _ */\n      pop\n      pop\n      pop\n      pop\n      pop\n      pop\n      pop\n      pop\n      pop\n      pop\n      pop\n      pop\n        /* \"bep-20.sol\":9726:9731  false */\n      0x00\n        /* \"bep-20.sol\":9717:9723  inSwap */\n      0x17\n      0x00\n        /* \"bep-20.sol\":9717:9731  inSwap = false */\n      0x0100\n      exp\n      dup2\n      sload\n      dup2\n      0xff\n      mul\n      not\n      and\n      swap1\n      dup4\n      iszero\n      iszero\n      mul\n      or\n      swap1\n      sstore\n      pop\n        /* \"bep-20.sol\":14664:16647  function swapBack() internal swapping {... */\n      jump\t// out\n        /* \"bep-20.sol\":18971:19126  function shouldTakeFee(address from, address to) internal view returns (bool) {... */\n    tag_512:\n        /* \"bep-20.sol\":19043:19047  bool */\n      0x00\n        /* \"bep-20.sol\":19075:19079  from */\n      dup3\n        /* \"bep-20.sol\":19067:19079  pair == from */\n      0xffffffffffffffffffffffffffffffffffffffff\n      and\n        /* \"bep-20.sol\":19067:19071  pair */\n      0x15\n      0x00\n      swap1\n      sload\n      swap1\n      0x0100\n      exp\n      swap1\n      div\n      0xffffffffffffffffffffffffffffffffffffffff\n      and\n        /* \"bep-20.sol\":19067:19079  pair == from */\n      0xffffffffffffffffffffffffffffffffffffffff\n      and\n      eq\n        /* \"bep-20.sol\":19067:19093  pair == from || pair == to */\n      dup1\n      tag_595\n      jumpi\n      pop\n        /* \"bep-20.sol\":19091:19093  to */\n      dup2\n        /* \"bep-20.sol\":19083:19093  pair == to */\n      0xffffffffffffffffffffffffffffffffffffffff\n      and\n        /* \"bep-20.sol\":19083:19087  pair */\n      0x15\n      0x00\n      swap1\n      sload\n      swap1\n      0x0100\n      exp\n      swap1\n      div\n      0xffffffffffffffffffffffffffffffffffffffff\n      and\n        /* \"bep-20.sol\":19083:19093  pair == to */\n      0xffffffffffffffffffffffffffffffffffffffff\n      and\n      eq\n        /* \"bep-20.sol\":19067:19093  pair == from || pair == to */\n    tag_595:\n        /* \"bep-20.sol\":19066:19119  (pair == from || pair == to) && (!_isFeeExempt[from]) */\n      dup1\n      iszero\n      tag_596\n      jumpi\n      pop\n        /* \"bep-20.sol\":19100:19112  _isFeeExempt */\n      0x06\n        /* \"bep-20.sol\":19100:19118  _isFeeExempt[from] */\n      0x00\n        /* \"bep-20.sol\":19113:19117  from */\n      dup5\n        /* \"bep-20.sol\":19100:19118  _isFeeExempt[from] */\n      0xffffffffffffffffffffffffffffffffffffffff\n      and\n      0xffffffffffffffffffffffffffffffffffffffff\n      and\n      dup2\n      mstore\n      0x20\n      add\n      swap1\n      dup2\n      mstore\n      0x20\n      add\n      0x00\n      keccak256\n      0x00\n      swap1\n      sload\n      swap1\n      0x0100\n      exp\n      swap1\n      div\n      0xff\n      and\n        /* \"bep-20.sol\":19099:19118  !_isFeeExempt[from] */\n      iszero\n        /* \"bep-20.sol\":19066:19119  (pair == from || pair == to) && (!_isFeeExempt[from]) */\n    tag_596:\n        /* \"bep-20.sol\":19059:19119  return (pair == from || pair == to) && (!_isFeeExempt[from]) */\n      swap1\n      pop\n        /* \"bep-20.sol\":18971:19126  function shouldTakeFee(address from, address to) internal view returns (bool) {... */\n      swap3\n      swap2\n      pop\n      pop\n      jump\t// out\n        /* \"bep-20.sol\":16653:17183  function takeFee(address sender, address recipient, uint256 gonAmount)... */\n    tag_516:\n        /* \"bep-20.sol\":16758:16765  uint256 */\n      0x00\n        /* \"bep-20.sol\":16781:16798  uint256 _totalFee */\n      dup1\n        /* \"bep-20.sol\":16801:16809  totalFee */\n      sload(0x0b)\n        /* \"bep-20.sol\":16781:16809  uint256 _totalFee = totalFee */\n      swap1\n      pop\n        /* \"bep-20.sol\":16835:16839  pair */\n      0x15\n      0x00\n      swap1\n      sload\n      swap1\n      0x0100\n      exp\n      swap1\n      div\n      0xffffffffffffffffffffffffffffffffffffffff\n      and\n        /* \"bep-20.sol\":16822:16839  recipient == pair */\n      0xffffffffffffffffffffffffffffffffffffffff\n      and\n        /* \"bep-20.sol\":16822:16831  recipient */\n      dup5\n        /* \"bep-20.sol\":16822:16839  recipient == pair */\n      0xffffffffffffffffffffffffffffffffffffffff\n      and\n      eq\n        /* \"bep-20.sol\":16819:16875  if(recipient == pair) _totalFee = _totalFee.add(sellFee) */\n      iszero\n      tag_598\n      jumpi\n        /* \"bep-20.sol\":16853:16875  _totalFee.add(sellFee) */\n      tag_599\n        /* \"bep-20.sol\":16867:16874  sellFee */\n      sload(0x0a)\n        /* \"bep-20.sol\":16853:16862  _totalFee */\n      dup3\n        /* \"bep-20.sol\":16853:16866  _totalFee.add */\n      tag_281\n      swap1\n        /* \"bep-20.sol\":16853:16875  _totalFee.add(sellFee) */\n      swap2\n      swap1\n      0xffffffff\n      and\n      jump\t// in\n    tag_599:\n        /* \"bep-20.sol\":16841:16875  _totalFee = _totalFee.add(sellFee) */\n      swap1\n      pop\n        /* \"bep-20.sol\":16819:16875  if(recipient == pair) _totalFee = _totalFee.add(sellFee) */\n    tag_598:\n        /* \"bep-20.sol\":16886:16903  uint256 feeAmount */\n      0x00\n        /* \"bep-20.sol\":16906:16950  gonAmount.mul(_totalFee).div(feeDenominator) */\n      tag_600\n        /* \"bep-20.sol\":16935:16949  feeDenominator */\n      sload(0x0c)\n        /* \"bep-20.sol\":16906:16930  gonAmount.mul(_totalFee) */\n      tag_601\n        /* \"bep-20.sol\":16920:16929  _totalFee */\n      dup5\n        /* \"bep-20.sol\":16906:16915  gonAmount */\n      dup8\n        /* \"bep-20.sol\":16906:16919  gonAmount.mul */\n      tag_451\n      swap1\n        /* \"bep-20.sol\":16906:16930  gonAmount.mul(_totalFee) */\n      swap2\n      swap1\n      0xffffffff\n      and\n      jump\t// in\n    tag_601:\n        /* \"bep-20.sol\":16906:16934  gonAmount.mul(_totalFee).div */\n      tag_282\n      swap1\n        /* \"bep-20.sol\":16906:16950  gonAmount.mul(_totalFee).div(feeDenominator) */\n      swap2\n      swap1\n      0xffffffff\n      and\n      jump\t// in\n    tag_600:\n        /* \"bep-20.sol\":16886:16950  uint256 feeAmount = gonAmount.mul(_totalFee).div(feeDenominator) */\n      swap1\n      pop\n        /* \"bep-20.sol\":16991:17055  _gonBalances[address(this)].add(... */\n      tag_602\n        /* \"bep-20.sol\":17036:17045  feeAmount */\n      dup2\n        /* \"bep-20.sol\":16991:17003  _gonBalances */\n      0x1a\n        /* \"bep-20.sol\":16991:17018  _gonBalances[address(this)] */\n      0x00\n        /* \"bep-20.sol\":17012:17016  this */\n      address\n        /* \"bep-20.sol\":16991:17018  _gonBalances[address(this)] */\n      0xffffffffffffffffffffffffffffffffffffffff\n      and\n      0xffffffffffffffffffffffffffffffffffffffff\n      and\n      dup2\n      mstore\n      0x20\n      add\n      swap1\n      dup2\n      mstore\n      0x20\n      add\n      0x00\n      keccak256\n      sload\n        /* \"bep-20.sol\":16991:17022  _gonBalances[address(this)].add */\n      tag_281\n      swap1\n        /* \"bep-20.sol\":16991:17055  _gonBalances[address(this)].add(... */\n      swap2\n      swap1\n      0xffffffff\n      and\n      jump\t// in\n    tag_602:\n        /* \"bep-20.sol\":16961:16973  _gonBalances */\n      0x1a\n        /* \"bep-20.sol\":16961:16988  _gonBalances[address(this)] */\n      0x00\n        /* \"bep-20.sol\":16982:16986  this */\n      address\n        /* \"bep-20.sol\":16961:16988  _gonBalances[address(this)] */\n      0xffffffffffffffffffffffffffffffffffffffff\n      and\n      0xffffffffffffffffffffffffffffffffffffffff\n      and\n      dup2\n      mstore\n      0x20\n      add\n      swap1\n      dup2\n      mstore\n      0x20\n      add\n      0x00\n      keccak256\n        /* \"bep-20.sol\":16961:17055  _gonBalances[address(this)] = _gonBalances[address(this)].add(... */\n      dup2\n      swap1\n      sstore\n      pop\n        /* \"bep-20.sol\":17095:17099  this */\n      address\n        /* \"bep-20.sol\":17070:17134  Transfer(sender, address(this), feeAmount.div(_gonsPerFragment)) */\n      0xffffffffffffffffffffffffffffffffffffffff\n      and\n        /* \"bep-20.sol\":17079:17085  sender */\n      dup7\n        /* \"bep-20.sol\":17070:17134  Transfer(sender, address(this), feeAmount.div(_gonsPerFragment)) */\n      0xffffffffffffffffffffffffffffffffffffffff\n      and\n      0xddf252ad1be2c89b69c2b068fc378daa952ba7f163c4a11628f55a4df523b3ef\n        /* \"bep-20.sol\":17102:17133  feeAmount.div(_gonsPerFragment) */\n      tag_603\n        /* \"bep-20.sol\":17116:17132  _gonsPerFragment */\n      sload(0x19)\n        /* \"bep-20.sol\":17102:17111  feeAmount */\n      dup6\n        /* \"bep-20.sol\":17102:17115  feeAmount.div */\n      tag_282\n      swap1\n        /* \"bep-20.sol\":17102:17133  feeAmount.div(_gonsPerFragment) */\n      swap2\n      swap1\n      0xffffffff\n      and\n      jump\t// in\n    tag_603:\n        /* \"bep-20.sol\":17070:17134  Transfer(sender, address(this), feeAmount.div(_gonsPerFragment)) */\n      mload(0x40)\n      dup1\n      dup3\n      dup2\n      mstore\n      0x20\n      add\n      swap2\n      pop\n      pop\n      mload(0x40)\n      dup1\n      swap2\n      sub\n      swap1\n      log3\n        /* \"bep-20.sol\":17152:17176  gonAmount.sub(feeAmount) */\n      tag_604\n        /* \"bep-20.sol\":17166:17175  feeAmount */\n      dup2\n        /* \"bep-20.sol\":17152:17161  gonAmount */\n      dup6\n        /* \"bep-20.sol\":17152:17165  gonAmount.sub */\n      tag_322\n      swap1\n        /* \"bep-20.sol\":17152:17176  gonAmount.sub(feeAmount) */\n      swap2\n      swap1\n      0xffffffff\n      and\n      jump\t// in\n    tag_604:\n        /* \"bep-20.sol\":17145:17176  return gonAmount.sub(feeAmount) */\n      swap3\n      pop\n      pop\n      pop\n        /* \"bep-20.sol\":16653:17183  function takeFee(address sender, address recipient, uint256 gonAmount)... */\n      swap4\n      swap3\n      pop\n      pop\n      pop\n      jump\t// out\n        /* \"bep-20.sol\":3534:3714  function remove(Role storage role, address account) internal {... */\n    tag_523:\n        /* \"bep-20.sol\":3613:3631  has(role, account) */\n      tag_606\n        /* \"bep-20.sol\":3617:3621  role */\n      dup3\n        /* \"bep-20.sol\":3623:3630  account */\n      dup3\n        /* \"bep-20.sol\":3613:3616  has */\n      tag_443\n        /* \"bep-20.sol\":3613:3631  has(role, account) */\n      jump\t// in\n    tag_606:\n        /* \"bep-20.sol\":3605:3669  require(has(role, account), \"Roles: account does not have role\") */\n      tag_607\n      jumpi\n      mload(0x40)\n      0x08c379a000000000000000000000000000000000000000000000000000000000\n      dup2\n      mstore\n      0x04\n      add\n      dup1\n      dup1\n      0x20\n      add\n      dup3\n      dup2\n      sub\n      dup3\n      mstore\n      0x21\n      dup2\n      mstore\n      0x20\n      add\n      dup1\n      data_7bd893145ac435f339bb7c288622d270324b7033b011f693aca172f5cbc3c257\n      0x21\n      swap2\n      codecopy\n      0x40\n      add\n      swap2\n      pop\n      pop\n      mload(0x40)\n      dup1\n      swap2\n      sub\n      swap1\n      revert\n    tag_607:\n        /* \"bep-20.sol\":3702:3707  false */\n      0x00\n        /* \"bep-20.sol\":3679:3683  role */\n      dup3\n        /* \"bep-20.sol\":3679:3690  role.bearer */\n      0x00\n      add\n        /* \"bep-20.sol\":3679:3699  role.bearer[account] */\n      0x00\n        /* \"bep-20.sol\":3691:3698  account */\n      dup4\n        /* \"bep-20.sol\":3679:3699  role.bearer[account] */\n      0xffffffffffffffffffffffffffffffffffffffff\n      and\n      0xffffffffffffffffffffffffffffffffffffffff\n      and\n      dup2\n      mstore\n      0x20\n      add\n      swap1\n      dup2\n      mstore\n      0x20\n      add\n      0x00\n      keccak256\n      0x00\n        /* \"bep-20.sol\":3679:3707  role.bearer[account] = false */\n      0x0100\n      exp\n      dup2\n      sload\n      dup2\n      0xff\n      mul\n      not\n      and\n      swap1\n      dup4\n      iszero\n      iszero\n      mul\n      or\n      swap1\n      sstore\n      pop\n        /* \"bep-20.sol\":3534:3714  function remove(Role storage role, address account) internal {... */\n      pop\n      pop\n      jump\t// out\n    stop\n    data_79ecb50133735b20228dea9d08fe36a462bbc1350f591a146908848db91104cd 4d696e746572526f6c653a2063616c6c657220646f6573206e6f74206861766520746865204d696e74657220726f6c65\n    data_7bd893145ac435f339bb7c288622d270324b7033b011f693aca172f5cbc3c257 526f6c65733a206163636f756e7420646f6573206e6f74206861766520726f6c65\n    data_9113bb53c2876a3805b2c9242029423fc540a728243ce887ab24c82cf119fba3 536166654d6174683a206d756c7469706c69636174696f6e206f766572666c6f77\n    data_9d214fa89563f4e6456a3929327e54500ea1cde2c0ba9fb2035ec106190d682f 526f6c65733a206163636f756e7420697320746865207a65726f2061646472657373\n\n    auxdata: 0xa264697066735822122014b685f657fd8a42d2c4a11448212d911d3654f9e1cb18f3293f30d5118eb84c64736f6c63430007040033\n}\n",
				"bytecode": {
					"linkReferences": {},
					"object": "60806040526005600755600360085560056009556005600a55620000516009546200003d6008546007546200099460201b620030bd1790919060201c565b6200099460201b620030bd1790919060201c565b600b556064600c5561dead600d60006101000a81548173ffffffffffffffffffffffffffffffffffffffff021916908373ffffffffffffffffffffffffffffffffffffffff1602179055506000600e60006101000a81548173ffffffffffffffffffffffffffffffffffffffff021916908373ffffffffffffffffffffffffffffffffffffffff160217905550603260125560646013556001601560146101000a81548160ff021916908315150217905550612710600a6012600a0a63ee6b280002600019816200011e57fe5b066000190302816200012c57fe5b046016553480156200013d57600080fd5b506040518060400160405280600481526020017f4c6f7374000000000000000000000000000000000000000000000000000000008152506040518060400160405280600481526020017f4c6f73740000000000000000000000000000000000000000000000000000000081525060128260009080519060200190620001c492919062000e5a565b508160019080519060200190620001dd92919062000e5a565b5080600260006101000a81548160ff021916908360ff16021790555050505033600260016101000a81548173ffffffffffffffffffffffffffffffffffffffff021916908373ffffffffffffffffffffffffffffffffffffffff1602179055506200024e3362000a1d60201b60201c565b7310ed43c718714eb63d5aa57b78b54704e256024e601460006101000a81548173ffffffffffffffffffffffffffffffffffffffff021916908373ffffffffffffffffffffffffffffffffffffffff160217905550601460009054906101000a900473ffffffffffffffffffffffffffffffffffffffff1673ffffffffffffffffffffffffffffffffffffffff1663c45a01556040518163ffffffff1660e01b815260040160206040518083038186803b1580156200030c57600080fd5b505afa15801562000321573d6000803e3d6000fd5b505050506040513d60208110156200033857600080fd5b810190808051906020019092919050505073ffffffffffffffffffffffffffffffffffffffff1663c9c65396601460009054906101000a900473ffffffffffffffffffffffffffffffffffffffff1673ffffffffffffffffffffffffffffffffffffffff1663ad5c46486040518163ffffffff1660e01b815260040160206040518083038186803b158015620003cd57600080fd5b505afa158015620003e2573d6000803e3d6000fd5b505050506040513d6020811015620003f957600080fd5b8101908080519060200190929190505050306040518363ffffffff1660e01b8152600401808373ffffffffffffffffffffffffffffffffffffffff1681526020018273ffffffffffffffffffffffffffffffffffffffff16815260200192505050602060405180830381600087803b1580156200047557600080fd5b505af11580156200048a573d6000803e3d6000fd5b505050506040513d6020811015620004a157600080fd5b8101908080519060200190929190505050601560006101000a81548173ffffffffffffffffffffffffffffffffffffffff021916908373ffffffffffffffffffffffffffffffffffffffff160217905550732efebb6c26e709b9240a9c102116d1831bac6319600f60006101000a81548173ffffffffffffffffffffffffffffffffffffffff021916908373ffffffffffffffffffffffffffffffffffffffff160217905550732efebb6c26e709b9240a9c102116d1831bac6319601060006101000a81548173ffffffffffffffffffffffffffffffffffffffff021916908373ffffffffffffffffffffffffffffffffffffffff160217905550732efebb6c26e709b9240a9c102116d1831bac6319601160006101000a81548173ffffffffffffffffffffffffffffffffffffffff021916908373ffffffffffffffffffffffffffffffffffffffff1602179055507fffffffffffffffffffffffffffffffffffffffffffffffffffffffffffffffff601b60003073ffffffffffffffffffffffffffffffffffffffff1673ffffffffffffffffffffffffffffffffffffffff1681526020019081526020016000206000601460009054906101000a900473ffffffffffffffffffffffffffffffffffffffff1673ffffffffffffffffffffffffffffffffffffffff1673ffffffffffffffffffffffffffffffffffffffff16815260200190815260200160002081905550601560009054906101000a900473ffffffffffffffffffffffffffffffffffffffff16600460006101000a81548173ffffffffffffffffffffffffffffffffffffffff021916908373ffffffffffffffffffffffffffffffffffffffff1602179055506012600a0a63ee6b2800026018819055506012600a0a63ee6b280002600019816200073e57fe5b0660001903601a6000601060009054906101000a900473ffffffffffffffffffffffffffffffffffffffff1673ffffffffffffffffffffffffffffffffffffffff1673ffffffffffffffffffffffffffffffffffffffff16815260200190815260200160002081905550620007de6018546012600a0a63ee6b28000260001981620007c557fe5b066000190362000a7e60201b620031451790919060201c565b6019819055506000600460146101000a81548160ff021916908315150217905550600160066000601060009054906101000a900473ffffffffffffffffffffffffffffffffffffffff1673ffffffffffffffffffffffffffffffffffffffff1673ffffffffffffffffffffffffffffffffffffffff16815260200190815260200160002060006101000a81548160ff0219169083151502179055506001600660003073ffffffffffffffffffffffffffffffffffffffff1673ffffffffffffffffffffffffffffffffffffffff16815260200190815260200160002060006101000a81548160ff02191690831515021790555062000904601060009054906101000a900473ffffffffffffffffffffffffffffffffffffffff1662000ad060201b60201c565b601060009054906101000a900473ffffffffffffffffffffffffffffffffffffffff1673ffffffffffffffffffffffffffffffffffffffff16600073ffffffffffffffffffffffffffffffffffffffff167fddf252ad1be2c89b69c2b068fc378daa952ba7f163c4a11628f55a4df523b3ef6018546040518082815260200191505060405180910390a362000f10565b60008082840190508381101562000a13576040517f08c379a000000000000000000000000000000000000000000000000000000000815260040180806020018281038252601b8152602001807f536166654d6174683a206164646974696f6e206f766572666c6f77000000000081525060200191505060405180910390fd5b8091505092915050565b62000a3881600362000bcb60201b6200318f1790919060201c565b8073ffffffffffffffffffffffffffffffffffffffff167f6ae172837ea30b801fbfcdd4108aa1d5bf8ff775444fd70256b44e6bf3dfc3f660405160405180910390a250565b600062000ac883836040518060400160405280601a81526020017f536166654d6174683a206469766973696f6e206279207a65726f00000000000081525062000caf60201b60201c565b905092915050565b600073ffffffffffffffffffffffffffffffffffffffff168173ffffffffffffffffffffffffffffffffffffffff16141562000b0b57600080fd5b8073ffffffffffffffffffffffffffffffffffffffff16600260019054906101000a900473ffffffffffffffffffffffffffffffffffffffff1673ffffffffffffffffffffffffffffffffffffffff167f8be0079c531659141344cd1fd0a4f28419497f9722a3daafe3b4186f6b6457e060405160405180910390a380600260016101000a81548173ffffffffffffffffffffffffffffffffffffffff021916908373ffffffffffffffffffffffffffffffffffffffff16021790555050565b62000bdd828262000d7a60201b60201c565b1562000c51576040517f08c379a000000000000000000000000000000000000000000000000000000000815260040180806020018281038252601f8152602001807f526f6c65733a206163636f756e7420616c72656164792068617320726f6c650081525060200191505060405180910390fd5b60018260000160008373ffffffffffffffffffffffffffffffffffffffff1673ffffffffffffffffffffffffffffffffffffffff16815260200190815260200160002060006101000a81548160ff0219169083151502179055505050565b6000808311829062000d5f576040517f08c379a00000000000000000000000000000000000000000000000000000000081526004018080602001828103825283818151815260200191508051906020019080838360005b8381101562000d2357808201518184015260208101905062000d06565b50505050905090810190601f16801562000d515780820380516001836020036101000a031916815260200191505b509250505060405180910390fd5b50600083858162000d6c57fe5b049050809150509392505050565b60008073ffffffffffffffffffffffffffffffffffffffff168273ffffffffffffffffffffffffffffffffffffffff16141562000e03576040517f08c379a00000000000000000000000000000000000000000000000000000000081526004018080602001828103825260228152602001806200570f6022913960400191505060405180910390fd5b8260000160008373ffffffffffffffffffffffffffffffffffffffff1673ffffffffffffffffffffffffffffffffffffffff16815260200190815260200160002060009054906101000a900460ff16905092915050565b828054600181600116156101000203166002900490600052602060002090601f01602090048101928262000e92576000855562000ede565b82601f1062000ead57805160ff191683800117855562000ede565b8280016001018555821562000ede579182015b8281111562000edd57825182559160200191906001019062000ec0565b5b50905062000eed919062000ef1565b5090565b5b8082111562000f0c57600081600090555060010162000ef2565b5090565b6147ef8062000f206000396000f3fe6080604052600436106103545760003560e01c80637a43e23f116101c6578063bda5c8bb116100f7578063d5938aac11610095578063dd62ed3e1161006f578063dd62ed3e146112d0578063f2fde38b14611355578063f887ea40146113a6578063f9f92be4146113e75761035b565b8063d5938aac146111ad578063d7ac6585146111fe578063d7c010321461123f5761035b565b8063d1fce264116100d1578063d1fce26414610fef578063d37e219d1461101c578063d4399790146110f7578063d51ed1c81461115e5761035b565b8063bda5c8bb14610f32578063ca33e64c14610f5d578063d088935814610f9e5761035b565b806398118cb411610164578063a457c2d71161013e578063a457c2d714610da8578063a8aa1b3114610e19578063a9059cbb14610e5a578063aa271e1a14610ecb5761035b565b806398118cb414610d15578063983b2d5614610d405780639865027514610d915761035b565b80638da5cb5b116101a05780638da5cb5b14610bba5780638f32d59b14610bfb5780639155e08314610c2857806395d89b4114610c855761035b565b80637a43e23f14610af3578063800cee5114610b4c57806383b4ac6814610b8d5761035b565b80633092afd5116102a057806356a227f21161023e57806370a082311161021857806370a0823114610a0f578063715018a614610a74578063749796a514610a8b578063753d02a114610adc5761035b565b806356a227f21461095c5780636d351d1a146109b75780636ddd1713146109e25761035b565b8063395093511161027a578063395093511461082457806340c10f19146108955780634d709adf146108f0578063563df32f146109315761035b565b80633092afd514610734578063313ce5671461078557806333f3d628146107b35761035b565b80631df4ccfc1161030d5780632b112e49116102e75780632b112e49146106765780632b14ca56146106a15780632be6937d146106cc5780632f34d282146106e35761035b565b80631df4ccfc14610575578063201e7991146105a057806323b872dd146105e55761035b565b806304a66b481461036057806306fdde03146103c3578063095ea7b3146104535780631161ae39146104c4578063180b0d7e1461051f57806318160ddd1461054a5761035b565b3661035b57005b600080fd5b34801561036c57600080fd5b506103c1600480360360a081101561038357600080fd5b81019080803590602001909291908035906020019092919080359060200190929190803590602001909291908035906020019092919050505061144e565b005b3480156103cf57600080fd5b506103d86114d4565b6040518080602001828103825283818151815260200191508051906020019080838360005b838110156104185780820151818401526020810190506103fd565b50505050905090810190601f1680156104455780820380516001836020036101000a031916815260200191505b509250505060405180910390f35b34801561045f57600080fd5b506104ac6004803603604081101561047657600080fd5b81019080803573ffffffffffffffffffffffffffffffffffffffff16906020019092919080359060200190929190505050611576565b60405180821515815260200191505060405180910390f35b3480156104d057600080fd5b50610507600480360360408110156104e757600080fd5b8101908080359060200190929190803590602001909291905050506116e4565b60405180821515815260200191505060405180910390f35b34801561052b57600080fd5b506105346116f9565b6040518082815260200191505060405180910390f35b34801561055657600080fd5b5061055f6116ff565b6040518082815260200191505060405180910390f35b34801561058157600080fd5b5061058a611709565b6040518082815260200191505060405180910390f35b3480156105ac57600080fd5b506105e3600480360360408110156105c357600080fd5b81019080803590602001909291908035906020019092919050505061170f565b005b3480156105f157600080fd5b5061065e6004803603606081101561060857600080fd5b81019080803573ffffffffffffffffffffffffffffffffffffffff169060200190929190803573ffffffffffffffffffffffffffffffffffffffff16906020019092919080359060200190929190505050611732565b60405180821515815260200191505060405180910390f35b34801561068257600080fd5b5061068b611971565b6040518082815260200191505060405180910390f35b3480156106ad57600080fd5b506106b6611a8c565b6040518082815260200191505060405180910390f35b3480156106d857600080fd5b506106e1611a92565b005b3480156106ef57600080fd5b506107326004803603602081101561070657600080fd5b81019080803573ffffffffffffffffffffffffffffffffffffffff169060200190929190505050611ac0565b005b34801561074057600080fd5b506107836004803603602081101561075757600080fd5b81019080803573ffffffffffffffffffffffffffffffffffffffff169060200190929190505050611b60565b005b34801561079157600080fd5b5061079a611b7d565b604051808260ff16815260200191505060405180910390f35b3480156107bf57600080fd5b5061080c600480360360408110156107d657600080fd5b81019080803573ffffffffffffffffffffffffffffffffffffffff16906020019092919080359060200190929190505050611b94565b60405180821515815260200191505060405180910390f35b34801561083057600080fd5b5061087d6004803603604081101561084757600080fd5b81019080803573ffffffffffffffffffffffffffffffffffffffff16906020019092919080359060200190929190505050611c5b565b60405180821515815260200191505060405180910390f35b3480156108a157600080fd5b506108ee600480360360408110156108b857600080fd5b81019080803573ffffffffffffffffffffffffffffffffffffffff16906020019092919080359060200190929190505050611ed3565b005b3480156108fc57600080fd5b506109056120d5565b604051808273ffffffffffffffffffffffffffffffffffffffff16815260200191505060405180910390f35b34801561093d57600080fd5b506109466120fb565b6040518082815260200191505060405180910390f35b34801561096857600080fd5b506109b56004803603604081101561097f57600080fd5b8101908080359060200190929190803573ffffffffffffffffffffffffffffffffffffffff169060200190929190505050612101565b005b3480156109c357600080fd5b506109cc61216f565b6040518082815260200191505060405180910390f35b3480156109ee57600080fd5b506109f761218d565b60405180821515815260200191505060405180910390f35b348015610a1b57600080fd5b50610a5e60048036036020811015610a3257600080fd5b81019080803573ffffffffffffffffffffffffffffffffffffffff1690602001909291905050506121a0565b6040518082815260200191505060405180910390f35b348015610a8057600080fd5b50610a896121fd565b005b348015610a9757600080fd5b50610ada60048036036020811015610aae57600080fd5b81019080803573ffffffffffffffffffffffffffffffffffffffff1690602001909291905050506122b7565b005b348015610ae857600080fd5b50610af1612323565b005b348015610aff57600080fd5b50610b3660048036036040811015610b1657600080fd5b8101908080359060200190929190803590602001909291905050506123a7565b6040518082815260200191505060405180910390f35b348015610b5857600080fd5b50610b61612608565b604051808273ffffffffffffffffffffffffffffffffffffffff16815260200191505060405180910390f35b348015610b9957600080fd5b50610ba261262e565b60405180821515815260200191505060405180910390f35b348015610bc657600080fd5b50610bcf612646565b604051808273ffffffffffffffffffffffffffffffffffffffff16815260200191505060405180910390f35b348015610c0757600080fd5b50610c10612670565b60405180821515815260200191505060405180910390f35b348015610c3457600080fd5b50610c8360048036036040811015610c4b57600080fd5b81019080803573ffffffffffffffffffffffffffffffffffffffff1690602001909291908035151590602001909291905050506126c8565b005b348015610c9157600080fd5b50610c9a612734565b6040518080602001828103825283818151815260200191508051906020019080838360005b83811015610cda578082015181840152602081019050610cbf565b50505050905090810190601f168015610d075780820380516001836020036101000a031916815260200191505b509250505060405180910390f35b348015610d2157600080fd5b50610d2a6127d6565b6040518082815260200191505060405180910390f35b348015610d4c57600080fd5b50610d8f60048036036020811015610d6357600080fd5b81019080803573ffffffffffffffffffffffffffffffffffffffff1690602001909291905050506127dc565b005b348015610d9d57600080fd5b50610da66127f9565b005b348015610db457600080fd5b50610e0160048036036040811015610dcb57600080fd5b81019080803573ffffffffffffffffffffffffffffffffffffffff16906020019092919080359060200190929190505050612804565b60405180821515815260200191505060405180910390f35b348015610e2557600080fd5b50610e2e612b11565b604051808273ffffffffffffffffffffffffffffffffffffffff16815260200191505060405180910390f35b348015610e6657600080fd5b50610eb360048036036040811015610e7d57600080fd5b81019080803573ffffffffffffffffffffffffffffffffffffffff16906020019092919080359060200190929190505050612b37565b60405180821515815260200191505060405180910390f35b348015610ed757600080fd5b50610f1a60048036036020811015610eee57600080fd5b81019080803573ffffffffffffffffffffffffffffffffffffffff169060200190929190505050612c07565b60405180821515815260200191505060405180910390f35b348015610f3e57600080fd5b50610f47612c24565b6040518082815260200191505060405180910390f35b348015610f6957600080fd5b50610f72612c2a565b604051808273ffffffffffffffffffffffffffffffffffffffff16815260200191505060405180910390f35b348015610faa57600080fd5b50610fed60048036036060811015610fc157600080fd5b810190808035151590602001909291908035906020019092919080359060200190929190505050612c50565b005b348015610ffb57600080fd5b50611004612cc4565b60405180821515815260200191505060405180910390f35b34801561102857600080fd5b506110f56004803603604081101561103f57600080fd5b810190808035906020019064010000000081111561105c57600080fd5b82018360208201111561106e57600080fd5b8035906020019184602083028401116401000000008311171561109057600080fd5b9091929391929390803590602001906401000000008111156110b157600080fd5b8201836020820111156110c357600080fd5b803590602001918460208302840111640100000000831117156110e557600080fd5b9091929391929390505050612cd7565b005b34801561110357600080fd5b506111466004803603602081101561111a57600080fd5b81019080803573ffffffffffffffffffffffffffffffffffffffff169060200190929190505050612d50565b60405180821515815260200191505060405180910390f35b34801561116a57600080fd5b506111976004803603602081101561118157600080fd5b8101908080359060200190929190505050612da6565b6040518082815260200191505060405180910390f35b3480156111b957600080fd5b506111fc600480360360208110156111d057600080fd5b81019080803573ffffffffffffffffffffffffffffffffffffffff169060200190929190505050612e68565b005b34801561120a57600080fd5b50611213612ed4565b604051808273ffffffffffffffffffffffffffffffffffffffff16815260200191505060405180910390f35b34801561124b57600080fd5b506112ce6004803603606081101561126257600080fd5b81019080803573ffffffffffffffffffffffffffffffffffffffff169060200190929190803573ffffffffffffffffffffffffffffffffffffffff169060200190929190803573ffffffffffffffffffffffffffffffffffffffff169060200190929190505050612efa565b005b3480156112dc57600080fd5b5061133f600480360360408110156112f357600080fd5b81019080803573ffffffffffffffffffffffffffffffffffffffff169060200190929190803573ffffffffffffffffffffffffffffffffffffffff169060200190929190505050612fd3565b6040518082815260200191505060405180910390f35b34801561136157600080fd5b506113a46004803603602081101561137857600080fd5b81019080803573ffffffffffffffffffffffffffffffffffffffff16906020019092919050505061305a565b005b3480156113b257600080fd5b506113bb613077565b604051808273ffffffffffffffffffffffffffffffffffffffff16815260200191505060405180910390f35b3480156113f357600080fd5b506114366004803603602081101561140a57600080fd5b81019080803573ffffffffffffffffffffffffffffffffffffffff16906020019092919050505061309d565b60405180821515815260200191505060405180910390f35b611456612670565b61145f57600080fd5b84600781905550836009819055508260088190555081600a819055506114a66009546114986008546007546130bd90919063ffffffff16565b6130bd90919063ffffffff16565b600b8190555080600c819055506004600c54816114bf57fe5b04600b54106114cd57600080fd5b5050505050565b606060008054600181600116156101000203166002900480601f01602080910402602001604051908101604052809291908181526020018280546001816001161561010002031660029004801561156c5780601f106115415761010080835404028352916020019161156c565b820191906000526020600020905b81548152906001019060200180831161154f57829003601f168201915b5050505050905090565b6000600460149054906101000a900460ff16806115975750611596612670565b5b806115eb5750600560003373ffffffffffffffffffffffffffffffffffffffff1673ffffffffffffffffffffffffffffffffffffffff16815260200190815260200160002060009054906101000a900460ff165b6115f457600080fd5b81601b60003373ffffffffffffffffffffffffffffffffffffffff1673ffffffffffffffffffffffffffffffffffffffff16815260200190815260200160002060008573ffffffffffffffffffffffffffffffffffffffff1673ffffffffffffffffffffffffffffffffffffffff168152602001908152602001600020819055508273ffffffffffffffffffffffffffffffffffffffff163373ffffffffffffffffffffffffffffffffffffffff167f8c5be1e5ebec7d5bd14f71427d1e84f3dd0314c0f7b2291e5b200ac8c7c3b925846040518082815260200191505060405180910390a36001905092915050565b6000826116f083612da6565b11905092915050565b600c5481565b6000601854905090565b600b5481565b611717612670565b61172057600080fd5b81601281905550806013819055505050565b600082600073ffffffffffffffffffffffffffffffffffffffff168173ffffffffffffffffffffffffffffffffffffffff16141561176f57600080fd5b7fffffffffffffffffffffffffffffffffffffffffffffffffffffffffffffffff601b60008773ffffffffffffffffffffffffffffffffffffffff1673ffffffffffffffffffffffffffffffffffffffff16815260200190815260200160002060003373ffffffffffffffffffffffffffffffffffffffff1673ffffffffffffffffffffffffffffffffffffffff1681526020019081526020016000205414611959576118d8836040518060400160405280601681526020017f496e73756666696369656e7420416c6c6f77616e636500000000000000000000815250601b60008973ffffffffffffffffffffffffffffffffffffffff1673ffffffffffffffffffffffffffffffffffffffff16815260200190815260200160002060003373ffffffffffffffffffffffffffffffffffffffff1673ffffffffffffffffffffffffffffffffffffffff1681526020019081526020016000205461326a9092919063ffffffff16565b601b60008773ffffffffffffffffffffffffffffffffffffffff1673ffffffffffffffffffffffffffffffffffffffff16815260200190815260200160002060003373ffffffffffffffffffffffffffffffffffffffff1673ffffffffffffffffffffffffffffffffffffffff168152602001908152602001600020819055505b61196485858561332a565b5060019150509392505050565b6000611a87601954611a79601a6000600e60009054906101000a900473ffffffffffffffffffffffffffffffffffffffff1673ffffffffffffffffffffffffffffffffffffffff1673ffffffffffffffffffffffffffffffffffffffff16815260200190815260200160002054611a6b601a6000600d60009054906101000a900473ffffffffffffffffffffffffffffffffffffffff1673ffffffffffffffffffffffffffffffffffffffff1673ffffffffffffffffffffffffffffffffffffffff168152602001908152602001600020546012600a0a63ee6b28000260001981611a5857fe5b066000190361366d90919063ffffffff16565b61366d90919063ffffffff16565b61314590919063ffffffff16565b905090565b600a5481565b611a9a612670565b611aa357600080fd5b6001600460146101000a81548160ff021916908315150217905550565b611ac8612670565b611ad157600080fd5b80600460006101000a81548173ffffffffffffffffffffffffffffffffffffffff021916908373ffffffffffffffffffffffffffffffffffffffff160217905550600660008273ffffffffffffffffffffffffffffffffffffffff1673ffffffffffffffffffffffffffffffffffffffff16815260200190815260200160002060009054906101000a90505050565b611b68612670565b611b7157600080fd5b611b7a816136b7565b50565b6000600260009054906101000a900460ff16905090565b6000611b9e612670565b611ba757600080fd5b8273ffffffffffffffffffffffffffffffffffffffff1663a9059cbb33846040518363ffffffff1660e01b8152600401808373ffffffffffffffffffffffffffffffffffffffff16815260200182815260200192505050602060405180830381600087803b158015611c1857600080fd5b505af1158015611c2c573d6000803e3d6000fd5b505050506040513d6020811015611c4257600080fd5b8101908080519060200190929190505050905092915050565b6000600460149054906101000a900460ff1680611c7c5750611c7b612670565b5b80611cd05750600560003373ffffffffffffffffffffffffffffffffffffffff1673ffffffffffffffffffffffffffffffffffffffff16815260200190815260200160002060009054906101000a900460ff165b611cd957600080fd5b611d6882601b60003373ffffffffffffffffffffffffffffffffffffffff1673ffffffffffffffffffffffffffffffffffffffff16815260200190815260200160002060008673ffffffffffffffffffffffffffffffffffffffff1673ffffffffffffffffffffffffffffffffffffffff168152602001908152602001600020546130bd90919063ffffffff16565b601b60003373ffffffffffffffffffffffffffffffffffffffff1673ffffffffffffffffffffffffffffffffffffffff16815260200190815260200160002060008573ffffffffffffffffffffffffffffffffffffffff1673ffffffffffffffffffffffffffffffffffffffff168152602001908152602001600020819055508273ffffffffffffffffffffffffffffffffffffffff163373ffffffffffffffffffffffffffffffffffffffff167f8c5be1e5ebec7d5bd14f71427d1e84f3dd0314c0f7b2291e5b200ac8c7c3b925601b60003373ffffffffffffffffffffffffffffffffffffffff1673ffffffffffffffffffffffffffffffffffffffff16815260200190815260200160002060008773ffffffffffffffffffffffffffffffffffffffff1673ffffffffffffffffffffffffffffffffffffffff168152602001908152602001600020546040518082815260200191505060405180910390a36001905092915050565b611edc33612c07565b611f31576040517f08c379a00000000000000000000000000000000000000000000000000000000081526004018080602001828103825260308152602001806147266030913960400191505060405180910390fd5b611f46816018546130bd90919063ffffffff16565b6018819055506000196fffffffffffffffffffffffffffffffff166018541115611f86576000196fffffffffffffffffffffffffffffffff166018819055505b611fb46018546012600a0a63ee6b28000260001981611fa157fe5b066000190361314590919063ffffffff16565b601981905550600460009054906101000a900473ffffffffffffffffffffffffffffffffffffffff1673ffffffffffffffffffffffffffffffffffffffff1663fff6cae96040518163ffffffff1660e01b8152600401600060405180830381600087803b15801561202457600080fd5b505af1158015612038573d6000803e3d6000fd5b5050505061208e81601a60008573ffffffffffffffffffffffffffffffffffffffff1673ffffffffffffffffffffffffffffffffffffffff168152602001908152602001600020546130bd90919063ffffffff16565b601a60008473ffffffffffffffffffffffffffffffffffffffff1673ffffffffffffffffffffffffffffffffffffffff168152602001908152602001600020819055505050565b600460009054906101000a900473ffffffffffffffffffffffffffffffffffffffff1681565b60085481565b612109612670565b61211257600080fd5b60004790508173ffffffffffffffffffffffffffffffffffffffff166108fc60648584028161213d57fe5b049081150290604051600060405180830381858888f19350505050158015612169573d6000803e3d6000fd5b50505050565b600061218860195460165461314590919063ffffffff16565b905090565b601560149054906101000a900460ff1681565b60006121f6601954601a60008573ffffffffffffffffffffffffffffffffffffffff1673ffffffffffffffffffffffffffffffffffffffff1681526020019081526020016000205461314590919063ffffffff16565b9050919050565b612205612670565b61220e57600080fd5b600260019054906101000a900473ffffffffffffffffffffffffffffffffffffffff1673ffffffffffffffffffffffffffffffffffffffff167ff8df31144d9c2f0f6b59d69b8b98abd5459d07f2742c4df920b25aae33c6482060405160405180910390a26000600260016101000a81548173ffffffffffffffffffffffffffffffffffffffff021916908373ffffffffffffffffffffffffffffffffffffffff160217905550565b6122bf612670565b6122c857600080fd5b6001600660008373ffffffffffffffffffffffffffffffffffffffff1673ffffffffffffffffffffffffffffffffffffffff16815260200190815260200160002060006101000a81548160ff02191690831515021790555050565b601560009054906101000a900473ffffffffffffffffffffffffffffffffffffffff1673ffffffffffffffffffffffffffffffffffffffff1663fff6cae96040518163ffffffff1660e01b8152600401600060405180830381600087803b15801561238d57600080fd5b505af11580156123a1573d6000803e3d6000fd5b50505050565b60006123b1612670565b6123ba57600080fd5b601760009054906101000a900460ff161561243d576040517f08c379a00000000000000000000000000000000000000000000000000000000081526004018080602001828103825260098152602001807f54727920616761696e000000000000000000000000000000000000000000000081525060200191505060405180910390fd5b600082141561248a57827f72725a3b1e5bd622d6bcd1339bb31279c351abe8f541ac7fd320f24e1b1641f26018546040518082815260200191505060405180910390a26018549050612602565b60008212156124b6576124ab8260000360185461366d90919063ffffffff16565b6018819055506124d2565b6124cb826018546130bd90919063ffffffff16565b6018819055505b6000196fffffffffffffffffffffffffffffffff16601854111561250c576000196fffffffffffffffffffffffffffffffff166018819055505b61253a6018546012600a0a63ee6b2800026000198161252757fe5b066000190361314590919063ffffffff16565b601981905550600460009054906101000a900473ffffffffffffffffffffffffffffffffffffffff1673ffffffffffffffffffffffffffffffffffffffff1663fff6cae96040518163ffffffff1660e01b8152600401600060405180830381600087803b1580156125aa57600080fd5b505af11580156125be573d6000803e3d6000fd5b50505050827f72725a3b1e5bd622d6bcd1339bb31279c351abe8f541ac7fd320f24e1b1641f26018546040518082815260200191505060405180910390a260185490505b92915050565b601060009054906101000a900473ffffffffffffffffffffffffffffffffffffffff1681565b6000601760009054906101000a900460ff1615905090565b6000600260019054906101000a900473ffffffffffffffffffffffffffffffffffffffff16905090565b6000600260019054906101000a900473ffffffffffffffffffffffffffffffffffffffff1673ffffffffffffffffffffffffffffffffffffffff163373ffffffffffffffffffffffffffffffffffffffff1614905090565b6126d0612670565b6126d957600080fd5b80601c60008473ffffffffffffffffffffffffffffffffffffffff1673ffffffffffffffffffffffffffffffffffffffff16815260200190815260200160002060006101000a81548160ff0219169083151502179055505050565b606060018054600181600116156101000203166002900480601f0160208091040260200160405190810160405280929190818152602001828054600181600116156101000203166002900480156127cc5780601f106127a1576101008083540402835291602001916127cc565b820191906000526020600020905b8154815290600101906020018083116127af57829003601f168201915b5050505050905090565b60075481565b6127e4612670565b6127ed57600080fd5b6127f681613711565b50565b612802336136b7565b565b6000600460149054906101000a900460ff16806128255750612824612670565b5b806128795750600560003373ffffffffffffffffffffffffffffffffffffffff1673ffffffffffffffffffffffffffffffffffffffff16815260200190815260200160002060009054906101000a900460ff165b61288257600080fd5b6000601b60003373ffffffffffffffffffffffffffffffffffffffff1673ffffffffffffffffffffffffffffffffffffffff16815260200190815260200160002060008573ffffffffffffffffffffffffffffffffffffffff1673ffffffffffffffffffffffffffffffffffffffff168152602001908152602001600020549050808310612991576000601b60003373ffffffffffffffffffffffffffffffffffffffff1673ffffffffffffffffffffffffffffffffffffffff16815260200190815260200160002060008673ffffffffffffffffffffffffffffffffffffffff1673ffffffffffffffffffffffffffffffffffffffff16815260200190815260200160002081905550612a25565b6129a4838261366d90919063ffffffff16565b601b60003373ffffffffffffffffffffffffffffffffffffffff1673ffffffffffffffffffffffffffffffffffffffff16815260200190815260200160002060008673ffffffffffffffffffffffffffffffffffffffff1673ffffffffffffffffffffffffffffffffffffffff168152602001908152602001600020819055505b8373ffffffffffffffffffffffffffffffffffffffff163373ffffffffffffffffffffffffffffffffffffffff167f8c5be1e5ebec7d5bd14f71427d1e84f3dd0314c0f7b2291e5b200ac8c7c3b925601b60003373ffffffffffffffffffffffffffffffffffffffff1673ffffffffffffffffffffffffffffffffffffffff16815260200190815260200160002060008873ffffffffffffffffffffffffffffffffffffffff1673ffffffffffffffffffffffffffffffffffffffff168152602001908152602001600020546040518082815260200191505060405180910390a3600191505092915050565b601560009054906101000a900473ffffffffffffffffffffffffffffffffffffffff1681565b600082600073ffffffffffffffffffffffffffffffffffffffff168173ffffffffffffffffffffffffffffffffffffffff161415612b7457600080fd5b600460149054906101000a900460ff1680612b935750612b92612670565b5b80612be75750600560003373ffffffffffffffffffffffffffffffffffffffff1673ffffffffffffffffffffffffffffffffffffffff16815260200190815260200160002060009054906101000a900460ff165b612bf057600080fd5b612bfb33858561332a565b50600191505092915050565b6000612c1d82600361376b90919063ffffffff16565b9050919050565b60095481565b600f60009054906101000a900473ffffffffffffffffffffffffffffffffffffffff1681565b612c58612670565b612c6157600080fd5b82601560146101000a81548160ff021916908315150217905550612cb982612cab836012600a0a63ee6b28000260001981612c9857fe5b066000190361314590919063ffffffff16565b61384990919063ffffffff16565b601681905550505050565b600460149054906101000a900460ff1681565b612cdf612670565b612ce857600080fd5b60005b84849050811015612d4957612d3b33868684818110612d0657fe5b9050602002013573ffffffffffffffffffffffffffffffffffffffff16858585818110612d2f57fe5b9050602002013561332a565b508080600101915050612ceb565b5050505050565b6000600660008373ffffffffffffffffffffffffffffffffffffffff1673ffffffffffffffffffffffffffffffffffffffff16815260200190815260200160002060009054906101000a900460ff169050919050565b600080612e1f601954601a6000601560009054906101000a900473ffffffffffffffffffffffffffffffffffffffff1673ffffffffffffffffffffffffffffffffffffffff1673ffffffffffffffffffffffffffffffffffffffff1681526020019081526020016000205461314590919063ffffffff16565b9050612e60612e2c611971565b612e52612e4360028561384990919063ffffffff16565b8661384990919063ffffffff16565b61314590919063ffffffff16565b915050919050565b612e70612670565b612e7957600080fd5b6001600560008373ffffffffffffffffffffffffffffffffffffffff1673ffffffffffffffffffffffffffffffffffffffff16815260200190815260200160002060006101000a81548160ff02191690831515021790555050565b601160009054906101000a900473ffffffffffffffffffffffffffffffffffffffff1681565b612f02612670565b612f0b57600080fd5b82600f60006101000a81548173ffffffffffffffffffffffffffffffffffffffff021916908373ffffffffffffffffffffffffffffffffffffffff16021790555081601060006101000a81548173ffffffffffffffffffffffffffffffffffffffff021916908373ffffffffffffffffffffffffffffffffffffffff16021790555080601160006101000a81548173ffffffffffffffffffffffffffffffffffffffff021916908373ffffffffffffffffffffffffffffffffffffffff160217905550505050565b6000601b60008473ffffffffffffffffffffffffffffffffffffffff1673ffffffffffffffffffffffffffffffffffffffff16815260200190815260200160002060008373ffffffffffffffffffffffffffffffffffffffff1673ffffffffffffffffffffffffffffffffffffffff16815260200190815260200160002054905092915050565b613062612670565b61306b57600080fd5b613074816138cf565b50565b601460009054906101000a900473ffffffffffffffffffffffffffffffffffffffff1681565b601c6020528060005260406000206000915054906101000a900460ff1681565b60008082840190508381101561313b576040517f08c379a000000000000000000000000000000000000000000000000000000000815260040180806020018281038252601b8152602001807f536166654d6174683a206164646974696f6e206f766572666c6f77000000000081525060200191505060405180910390fd5b8091505092915050565b600061318783836040518060400160405280601a81526020017f536166654d6174683a206469766973696f6e206279207a65726f0000000000008152506139c9565b905092915050565b613199828261376b565b1561320c576040517f08c379a000000000000000000000000000000000000000000000000000000000815260040180806020018281038252601f8152602001807f526f6c65733a206163636f756e7420616c72656164792068617320726f6c650081525060200191505060405180910390fd5b60018260000160008373ffffffffffffffffffffffffffffffffffffffff1673ffffffffffffffffffffffffffffffffffffffff16815260200190815260200160002060006101000a81548160ff0219169083151502179055505050565b6000838311158290613317576040517f08c379a00000000000000000000000000000000000000000000000000000000081526004018080602001828103825283818151815260200191508051906020019080838360005b838110156132dc5780820151818401526020810190506132c1565b50505050905090810190601f1680156133095780820380516001836020036101000a031916815260200191505b509250505060405180910390fd5b5060008385039050809150509392505050565b6000601c60008573ffffffffffffffffffffffffffffffffffffffff1673ffffffffffffffffffffffffffffffffffffffff16815260200190815260200160002060009054906101000a900460ff161580156133d05750601c60008473ffffffffffffffffffffffffffffffffffffffff1673ffffffffffffffffffffffffffffffffffffffff16815260200190815260200160002060009054906101000a900460ff16155b613442576040517f08c379a000000000000000000000000000000000000000000000000000000000815260040180806020018281038252600c8152602001807f696e5f626c61636b6c697374000000000000000000000000000000000000000081525060200191505060405180910390fd5b601760009054906101000a900460ff161561346957613462848484613a8f565b9050613666565b60006134806019548461384990919063ffffffff16565b905061348a613bdf565b1561349857613497613cb6565b5b6134ea81601a60008873ffffffffffffffffffffffffffffffffffffffff1673ffffffffffffffffffffffffffffffffffffffff1681526020019081526020016000205461366d90919063ffffffff16565b601a60008773ffffffffffffffffffffffffffffffffffffffff1673ffffffffffffffffffffffffffffffffffffffff1681526020019081526020016000208190555060006135398686614392565b613543578161354f565b61354e86868461449b565b5b90506135a381601a60008873ffffffffffffffffffffffffffffffffffffffff1673ffffffffffffffffffffffffffffffffffffffff168152602001908152602001600020546130bd90919063ffffffff16565b601a60008773ffffffffffffffffffffffffffffffffffffffff1673ffffffffffffffffffffffffffffffffffffffff168152602001908152602001600020819055508473ffffffffffffffffffffffffffffffffffffffff168673ffffffffffffffffffffffffffffffffffffffff167fddf252ad1be2c89b69c2b068fc378daa952ba7f163c4a11628f55a4df523b3ef61364a6019548561314590919063ffffffff16565b6040518082815260200191505060405180910390a36001925050505b9392505050565b60006136af83836040518060400160405280601e81526020017f536166654d6174683a207375627472616374696f6e206f766572666c6f77000081525061326a565b905092915050565b6136cb81600361466890919063ffffffff16565b8073ffffffffffffffffffffffffffffffffffffffff167fe94479a9f7e1952cc78f2d6baab678adc1b772d936c6583def489e524cb6669260405160405180910390a250565b61372581600361318f90919063ffffffff16565b8073ffffffffffffffffffffffffffffffffffffffff167f6ae172837ea30b801fbfcdd4108aa1d5bf8ff775444fd70256b44e6bf3dfc3f660405160405180910390a250565b60008073ffffffffffffffffffffffffffffffffffffffff168273ffffffffffffffffffffffffffffffffffffffff1614156137f2576040517f08c379a00000000000000000000000000000000000000000000000000000000081526004018080602001828103825260228152602001806147986022913960400191505060405180910390fd5b8260000160008373ffffffffffffffffffffffffffffffffffffffff1673ffffffffffffffffffffffffffffffffffffffff16815260200190815260200160002060009054906101000a900460ff16905092915050565b60008083141561385c57600090506138c9565b600082840290508284828161386d57fe5b04146138c4576040517f08c379a00000000000000000000000000000000000000000000000000000000081526004018080602001828103825260218152602001806147776021913960400191505060405180910390fd5b809150505b92915050565b600073ffffffffffffffffffffffffffffffffffffffff168173ffffffffffffffffffffffffffffffffffffffff16141561390957600080fd5b8073ffffffffffffffffffffffffffffffffffffffff16600260019054906101000a900473ffffffffffffffffffffffffffffffffffffffff1673ffffffffffffffffffffffffffffffffffffffff167f8be0079c531659141344cd1fd0a4f28419497f9722a3daafe3b4186f6b6457e060405160405180910390a380600260016101000a81548173ffffffffffffffffffffffffffffffffffffffff021916908373ffffffffffffffffffffffffffffffffffffffff16021790555050565b60008083118290613a75576040517f08c379a00000000000000000000000000000000000000000000000000000000081526004018080602001828103825283818151815260200191508051906020019080838360005b83811015613a3a578082015181840152602081019050613a1f565b50505050905090810190601f168015613a675780820380516001836020036101000a031916815260200191505b509250505060405180910390fd5b506000838581613a8157fe5b049050809150509392505050565b600080613aa76019548461384990919063ffffffff16565b9050613afb81601a60008873ffffffffffffffffffffffffffffffffffffffff1673ffffffffffffffffffffffffffffffffffffffff1681526020019081526020016000205461366d90919063ffffffff16565b601a60008773ffffffffffffffffffffffffffffffffffffffff1673ffffffffffffffffffffffffffffffffffffffff16815260200190815260200160002081905550613b9081601a60008773ffffffffffffffffffffffffffffffffffffffff1673ffffffffffffffffffffffffffffffffffffffff168152602001908152602001600020546130bd90919063ffffffff16565b601a60008673ffffffffffffffffffffffffffffffffffffffff1673ffffffffffffffffffffffffffffffffffffffff1681526020019081526020016000208190555060019150509392505050565b6000601560009054906101000a900473ffffffffffffffffffffffffffffffffffffffff1673ffffffffffffffffffffffffffffffffffffffff163373ffffffffffffffffffffffffffffffffffffffff1614158015613c4c5750601760009054906101000a900460ff16155b8015613c645750601560149054906101000a900460ff165b8015613cb15750601654601a60003073ffffffffffffffffffffffffffffffffffffffff1673ffffffffffffffffffffffffffffffffffffffff1681526020019081526020016000205410155b905090565b6001601760006101000a81548160ff0219169083151502179055506000613ce16012546013546116e4565b613ced57600754613cf0565b60005b90506000613d48601954601a60003073ffffffffffffffffffffffffffffffffffffffff1673ffffffffffffffffffffffffffffffffffffffff1681526020019081526020016000205461314590919063ffffffff16565b90506000613d866002613d78600b54613d6a878761384990919063ffffffff16565b61314590919063ffffffff16565b61314590919063ffffffff16565b90506000613d9d828461366d90919063ffffffff16565b90506060600267ffffffffffffffff81118015613db957600080fd5b50604051908082528060200260200182016040528015613de85781602001602082028036833780820191505090505b5090503081600081518110613df957fe5b602002602001019073ffffffffffffffffffffffffffffffffffffffff16908173ffffffffffffffffffffffffffffffffffffffff1681525050601460009054906101000a900473ffffffffffffffffffffffffffffffffffffffff1673ffffffffffffffffffffffffffffffffffffffff1663ad5c46486040518163ffffffff1660e01b815260040160206040518083038186803b158015613e9b57600080fd5b505afa158015613eaf573d6000803e3d6000fd5b505050506040513d6020811015613ec557600080fd5b810190808051906020019092919050505081600181518110613ee357fe5b602002602001019073ffffffffffffffffffffffffffffffffffffffff16908173ffffffffffffffffffffffffffffffffffffffff16815250506000479050601460009054906101000a900473ffffffffffffffffffffffffffffffffffffffff1673ffffffffffffffffffffffffffffffffffffffff1663791ac9478460008530426040518663ffffffff1660e01b815260040180868152602001858152602001806020018473ffffffffffffffffffffffffffffffffffffffff168152602001838152602001828103825285818151815260200191508051906020019060200280838360005b83811015613fe6578082015181840152602081019050613fcb565b505050509050019650505050505050600060405180830381600087803b15801561400f57600080fd5b505af1158015614023573d6000803e3d6000fd5b50505050600061403c824761366d90919063ffffffff16565b9050600061406861405760028a61314590919063ffffffff16565b600b5461366d90919063ffffffff16565b905060006140a46002614096846140888d8861384990919063ffffffff16565b61314590919063ffffffff16565b61314590919063ffffffff16565b905060006140cf836140c16009548761384990919063ffffffff16565b61314590919063ffffffff16565b905060006140fa846140ec6008548861384990919063ffffffff16565b61314590919063ffffffff16565b90506000601060009054906101000a900473ffffffffffffffffffffffffffffffffffffffff1673ffffffffffffffffffffffffffffffffffffffff168261753090604051806000019050600060405180830381858888f193505050503d8060008114614183576040519150601f19603f3d011682016040523d82523d6000602084013e614188565b606091505b50509050601160009054906101000a900473ffffffffffffffffffffffffffffffffffffffff1673ffffffffffffffffffffffffffffffffffffffff168361753090604051806000019050600060405180830381858888f193505050503d8060008114614211576040519150601f19603f3d011682016040523d82523d6000602084013e614216565b606091505b5050809150506000905060008a111561436957601460009054906101000a900473ffffffffffffffffffffffffffffffffffffffff1673ffffffffffffffffffffffffffffffffffffffff1663f305d71985308d600080600f60009054906101000a900473ffffffffffffffffffffffffffffffffffffffff16426040518863ffffffff1660e01b8152600401808773ffffffffffffffffffffffffffffffffffffffff1681526020018681526020018581526020018481526020018373ffffffffffffffffffffffffffffffffffffffff16815260200182815260200196505050505050506060604051808303818588803b15801561431557600080fd5b505af1158015614329573d6000803e3d6000fd5b50505050506040513d606081101561434057600080fd5b810190808051906020019092919080519060200190929190805190602001909291905050505050505b5050505050505050505050506000601760006101000a81548160ff021916908315150217905550565b60008273ffffffffffffffffffffffffffffffffffffffff16601560009054906101000a900473ffffffffffffffffffffffffffffffffffffffff1673ffffffffffffffffffffffffffffffffffffffff16148061443d57508173ffffffffffffffffffffffffffffffffffffffff16601560009054906101000a900473ffffffffffffffffffffffffffffffffffffffff1673ffffffffffffffffffffffffffffffffffffffff16145b80156144935750600660008473ffffffffffffffffffffffffffffffffffffffff1673ffffffffffffffffffffffffffffffffffffffff16815260200190815260200160002060009054906101000a900460ff16155b905092915050565b600080600b549050601560009054906101000a900473ffffffffffffffffffffffffffffffffffffffff1673ffffffffffffffffffffffffffffffffffffffff168473ffffffffffffffffffffffffffffffffffffffff1614156145115761450e600a54826130bd90919063ffffffff16565b90505b600061453a600c5461452c848761384990919063ffffffff16565b61314590919063ffffffff16565b905061458e81601a60003073ffffffffffffffffffffffffffffffffffffffff1673ffffffffffffffffffffffffffffffffffffffff168152602001908152602001600020546130bd90919063ffffffff16565b601a60003073ffffffffffffffffffffffffffffffffffffffff1673ffffffffffffffffffffffffffffffffffffffff168152602001908152602001600020819055503073ffffffffffffffffffffffffffffffffffffffff168673ffffffffffffffffffffffffffffffffffffffff167fddf252ad1be2c89b69c2b068fc378daa952ba7f163c4a11628f55a4df523b3ef6146356019548561314590919063ffffffff16565b6040518082815260200191505060405180910390a361465d818561366d90919063ffffffff16565b925050509392505050565b614672828261376b565b6146c7576040517f08c379a00000000000000000000000000000000000000000000000000000000081526004018080602001828103825260218152602001806147566021913960400191505060405180910390fd5b60008260000160008373ffffffffffffffffffffffffffffffffffffffff1673ffffffffffffffffffffffffffffffffffffffff16815260200190815260200160002060006101000a81548160ff021916908315150217905550505056fe4d696e746572526f6c653a2063616c6c657220646f6573206e6f74206861766520746865204d696e74657220726f6c65526f6c65733a206163636f756e7420646f6573206e6f74206861766520726f6c65536166654d6174683a206d756c7469706c69636174696f6e206f766572666c6f77526f6c65733a206163636f756e7420697320746865207a65726f2061646472657373a264697066735822122014b685f657fd8a42d2c4a11448212d911d3654f9e1cb18f3293f30d5118eb84c64736f6c63430007040033526f6c65733a206163636f756e7420697320746865207a65726f2061646472657373",
					"opcodes": "PUSH1 0x80 PUSH1 0x40 MSTORE PUSH1 0x5 PUSH1 0x7 SSTORE PUSH1 0x3 PUSH1 0x8 SSTORE PUSH1 0x5 PUSH1 0x9 SSTORE PUSH1 0x5 PUSH1 0xA SSTORE PUSH3 0x51 PUSH1 0x9 SLOAD PUSH3 0x3D PUSH1 0x8 SLOAD PUSH1 0x7 SLOAD PUSH3 0x994 PUSH1 0x20 SHL PUSH3 0x30BD OR SWAP1 SWAP2 SWAP1 PUSH1 0x20 SHR JUMP JUMPDEST PUSH3 0x994 PUSH1 0x20 SHL PUSH3 0x30BD OR SWAP1 SWAP2 SWAP1 PUSH1 0x20 SHR JUMP JUMPDEST PUSH1 0xB SSTORE PUSH1 0x64 PUSH1 0xC SSTORE PUSH2 0xDEAD PUSH1 0xD PUSH1 0x0 PUSH2 0x100 EXP DUP2 SLOAD DUP2 PUSH20 0xFFFFFFFFFFFFFFFFFFFFFFFFFFFFFFFFFFFFFFFF MUL NOT AND SWAP1 DUP4 PUSH20 0xFFFFFFFFFFFFFFFFFFFFFFFFFFFFFFFFFFFFFFFF AND MUL OR SWAP1 SSTORE POP PUSH1 0x0 PUSH1 0xE PUSH1 0x0 PUSH2 0x100 EXP DUP2 SLOAD DUP2 PUSH20 0xFFFFFFFFFFFFFFFFFFFFFFFFFFFFFFFFFFFFFFFF MUL NOT AND SWAP1 DUP4 PUSH20 0xFFFFFFFFFFFFFFFFFFFFFFFFFFFFFFFFFFFFFFFF AND MUL OR SWAP1 SSTORE POP PUSH1 0x32 PUSH1 0x12 SSTORE PUSH1 0x64 PUSH1 0x13 SSTORE PUSH1 0x1 PUSH1 0x15 PUSH1 0x14 PUSH2 0x100 EXP DUP2 SLOAD DUP2 PUSH1 0xFF MUL NOT AND SWAP1 DUP4 ISZERO ISZERO MUL OR SWAP1 SSTORE POP PUSH2 0x2710 PUSH1 0xA PUSH1 0x12 PUSH1 0xA EXP PUSH4 0xEE6B2800 MUL PUSH1 0x0 NOT DUP2 PUSH3 0x11E JUMPI INVALID JUMPDEST MOD PUSH1 0x0 NOT SUB MUL DUP2 PUSH3 0x12C JUMPI INVALID JUMPDEST DIV PUSH1 0x16 SSTORE CALLVALUE DUP1 ISZERO PUSH3 0x13D JUMPI PUSH1 0x0 DUP1 REVERT JUMPDEST POP PUSH1 0x40 MLOAD DUP1 PUSH1 0x40 ADD PUSH1 0x40 MSTORE DUP1 PUSH1 0x4 DUP2 MSTORE PUSH1 0x20 ADD PUSH32 0x4C6F737400000000000000000000000000000000000000000000000000000000 DUP2 MSTORE POP PUSH1 0x40 MLOAD DUP1 PUSH1 0x40 ADD PUSH1 0x40 MSTORE DUP1 PUSH1 0x4 DUP2 MSTORE PUSH1 0x20 ADD PUSH32 0x4C6F737400000000000000000000000000000000000000000000000000000000 DUP2 MSTORE POP PUSH1 0x12 DUP3 PUSH1 0x0 SWAP1 DUP1 MLOAD SWAP1 PUSH1 0x20 ADD SWAP1 PUSH3 0x1C4 SWAP3 SWAP2 SWAP1 PUSH3 0xE5A JUMP JUMPDEST POP DUP2 PUSH1 0x1 SWAP1 DUP1 MLOAD SWAP1 PUSH1 0x20 ADD SWAP1 PUSH3 0x1DD SWAP3 SWAP2 SWAP1 PUSH3 0xE5A JUMP JUMPDEST POP DUP1 PUSH1 0x2 PUSH1 0x0 PUSH2 0x100 EXP DUP2 SLOAD DUP2 PUSH1 0xFF MUL NOT AND SWAP1 DUP4 PUSH1 0xFF AND MUL OR SWAP1 SSTORE POP POP POP POP CALLER PUSH1 0x2 PUSH1 0x1 PUSH2 0x100 EXP DUP2 SLOAD DUP2 PUSH20 0xFFFFFFFFFFFFFFFFFFFFFFFFFFFFFFFFFFFFFFFF MUL NOT AND SWAP1 DUP4 PUSH20 0xFFFFFFFFFFFFFFFFFFFFFFFFFFFFFFFFFFFFFFFF AND MUL OR SWAP1 SSTORE POP PUSH3 0x24E CALLER PUSH3 0xA1D PUSH1 0x20 SHL PUSH1 0x20 SHR JUMP JUMPDEST PUSH20 0x10ED43C718714EB63D5AA57B78B54704E256024E PUSH1 0x14 PUSH1 0x0 PUSH2 0x100 EXP DUP2 SLOAD DUP2 PUSH20 0xFFFFFFFFFFFFFFFFFFFFFFFFFFFFFFFFFFFFFFFF MUL NOT AND SWAP1 DUP4 PUSH20 0xFFFFFFFFFFFFFFFFFFFFFFFFFFFFFFFFFFFFFFFF AND MUL OR SWAP1 SSTORE POP PUSH1 0x14 PUSH1 0x0 SWAP1 SLOAD SWAP1 PUSH2 0x100 EXP SWAP1 DIV PUSH20 0xFFFFFFFFFFFFFFFFFFFFFFFFFFFFFFFFFFFFFFFF AND PUSH20 0xFFFFFFFFFFFFFFFFFFFFFFFFFFFFFFFFFFFFFFFF AND PUSH4 0xC45A0155 PUSH1 0x40 MLOAD DUP2 PUSH4 0xFFFFFFFF AND PUSH1 0xE0 SHL DUP2 MSTORE PUSH1 0x4 ADD PUSH1 0x20 PUSH1 0x40 MLOAD DUP1 DUP4 SUB DUP2 DUP7 DUP1 EXTCODESIZE ISZERO DUP1 ISZERO PUSH3 0x30C JUMPI PUSH1 0x0 DUP1 REVERT JUMPDEST POP GAS STATICCALL ISZERO DUP1 ISZERO PUSH3 0x321 JUMPI RETURNDATASIZE PUSH1 0x0 DUP1 RETURNDATACOPY RETURNDATASIZE PUSH1 0x0 REVERT JUMPDEST POP POP POP POP PUSH1 0x40 MLOAD RETURNDATASIZE PUSH1 0x20 DUP2 LT ISZERO PUSH3 0x338 JUMPI PUSH1 0x0 DUP1 REVERT JUMPDEST DUP2 ADD SWAP1 DUP1 DUP1 MLOAD SWAP1 PUSH1 0x20 ADD SWAP1 SWAP3 SWAP2 SWAP1 POP POP POP PUSH20 0xFFFFFFFFFFFFFFFFFFFFFFFFFFFFFFFFFFFFFFFF AND PUSH4 0xC9C65396 PUSH1 0x14 PUSH1 0x0 SWAP1 SLOAD SWAP1 PUSH2 0x100 EXP SWAP1 DIV PUSH20 0xFFFFFFFFFFFFFFFFFFFFFFFFFFFFFFFFFFFFFFFF AND PUSH20 0xFFFFFFFFFFFFFFFFFFFFFFFFFFFFFFFFFFFFFFFF AND PUSH4 0xAD5C4648 PUSH1 0x40 MLOAD DUP2 PUSH4 0xFFFFFFFF AND PUSH1 0xE0 SHL DUP2 MSTORE PUSH1 0x4 ADD PUSH1 0x20 PUSH1 0x40 MLOAD DUP1 DUP4 SUB DUP2 DUP7 DUP1 EXTCODESIZE ISZERO DUP1 ISZERO PUSH3 0x3CD JUMPI PUSH1 0x0 DUP1 REVERT JUMPDEST POP GAS STATICCALL ISZERO DUP1 ISZERO PUSH3 0x3E2 JUMPI RETURNDATASIZE PUSH1 0x0 DUP1 RETURNDATACOPY RETURNDATASIZE PUSH1 0x0 REVERT JUMPDEST POP POP POP POP PUSH1 0x40 MLOAD RETURNDATASIZE PUSH1 0x20 DUP2 LT ISZERO PUSH3 0x3F9 JUMPI PUSH1 0x0 DUP1 REVERT JUMPDEST DUP2 ADD SWAP1 DUP1 DUP1 MLOAD SWAP1 PUSH1 0x20 ADD SWAP1 SWAP3 SWAP2 SWAP1 POP POP POP ADDRESS PUSH1 0x40 MLOAD DUP4 PUSH4 0xFFFFFFFF AND PUSH1 0xE0 SHL DUP2 MSTORE PUSH1 0x4 ADD DUP1 DUP4 PUSH20 0xFFFFFFFFFFFFFFFFFFFFFFFFFFFFFFFFFFFFFFFF AND DUP2 MSTORE PUSH1 0x20 ADD DUP3 PUSH20 0xFFFFFFFFFFFFFFFFFFFFFFFFFFFFFFFFFFFFFFFF AND DUP2 MSTORE PUSH1 0x20 ADD SWAP3 POP POP POP PUSH1 0x20 PUSH1 0x40 MLOAD DUP1 DUP4 SUB DUP2 PUSH1 0x0 DUP8 DUP1 EXTCODESIZE ISZERO DUP1 ISZERO PUSH3 0x475 JUMPI PUSH1 0x0 DUP1 REVERT JUMPDEST POP GAS CALL ISZERO DUP1 ISZERO PUSH3 0x48A JUMPI RETURNDATASIZE PUSH1 0x0 DUP1 RETURNDATACOPY RETURNDATASIZE PUSH1 0x0 REVERT JUMPDEST POP POP POP POP PUSH1 0x40 MLOAD RETURNDATASIZE PUSH1 0x20 DUP2 LT ISZERO PUSH3 0x4A1 JUMPI PUSH1 0x0 DUP1 REVERT JUMPDEST DUP2 ADD SWAP1 DUP1 DUP1 MLOAD SWAP1 PUSH1 0x20 ADD SWAP1 SWAP3 SWAP2 SWAP1 POP POP POP PUSH1 0x15 PUSH1 0x0 PUSH2 0x100 EXP DUP2 SLOAD DUP2 PUSH20 0xFFFFFFFFFFFFFFFFFFFFFFFFFFFFFFFFFFFFFFFF MUL NOT AND SWAP1 DUP4 PUSH20 0xFFFFFFFFFFFFFFFFFFFFFFFFFFFFFFFFFFFFFFFF AND MUL OR SWAP1 SSTORE POP PUSH20 0x2EFEBB6C26E709B9240A9C102116D1831BAC6319 PUSH1 0xF PUSH1 0x0 PUSH2 0x100 EXP DUP2 SLOAD DUP2 PUSH20 0xFFFFFFFFFFFFFFFFFFFFFFFFFFFFFFFFFFFFFFFF MUL NOT AND SWAP1 DUP4 PUSH20 0xFFFFFFFFFFFFFFFFFFFFFFFFFFFFFFFFFFFFFFFF AND MUL OR SWAP1 SSTORE POP PUSH20 0x2EFEBB6C26E709B9240A9C102116D1831BAC6319 PUSH1 0x10 PUSH1 0x0 PUSH2 0x100 EXP DUP2 SLOAD DUP2 PUSH20 0xFFFFFFFFFFFFFFFFFFFFFFFFFFFFFFFFFFFFFFFF MUL NOT AND SWAP1 DUP4 PUSH20 0xFFFFFFFFFFFFFFFFFFFFFFFFFFFFFFFFFFFFFFFF AND MUL OR SWAP1 SSTORE POP PUSH20 0x2EFEBB6C26E709B9240A9C102116D1831BAC6319 PUSH1 0x11 PUSH1 0x0 PUSH2 0x100 EXP DUP2 SLOAD DUP2 PUSH20 0xFFFFFFFFFFFFFFFFFFFFFFFFFFFFFFFFFFFFFFFF MUL NOT AND SWAP1 DUP4 PUSH20 0xFFFFFFFFFFFFFFFFFFFFFFFFFFFFFFFFFFFFFFFF AND MUL OR SWAP1 SSTORE POP PUSH32 0xFFFFFFFFFFFFFFFFFFFFFFFFFFFFFFFFFFFFFFFFFFFFFFFFFFFFFFFFFFFFFFFF PUSH1 0x1B PUSH1 0x0 ADDRESS PUSH20 0xFFFFFFFFFFFFFFFFFFFFFFFFFFFFFFFFFFFFFFFF AND PUSH20 0xFFFFFFFFFFFFFFFFFFFFFFFFFFFFFFFFFFFFFFFF AND DUP2 MSTORE PUSH1 0x20 ADD SWAP1 DUP2 MSTORE PUSH1 0x20 ADD PUSH1 0x0 KECCAK256 PUSH1 0x0 PUSH1 0x14 PUSH1 0x0 SWAP1 SLOAD SWAP1 PUSH2 0x100 EXP SWAP1 DIV PUSH20 0xFFFFFFFFFFFFFFFFFFFFFFFFFFFFFFFFFFFFFFFF AND PUSH20 0xFFFFFFFFFFFFFFFFFFFFFFFFFFFFFFFFFFFFFFFF AND PUSH20 0xFFFFFFFFFFFFFFFFFFFFFFFFFFFFFFFFFFFFFFFF AND DUP2 MSTORE PUSH1 0x20 ADD SWAP1 DUP2 MSTORE PUSH1 0x20 ADD PUSH1 0x0 KECCAK256 DUP2 SWAP1 SSTORE POP PUSH1 0x15 PUSH1 0x0 SWAP1 SLOAD SWAP1 PUSH2 0x100 EXP SWAP1 DIV PUSH20 0xFFFFFFFFFFFFFFFFFFFFFFFFFFFFFFFFFFFFFFFF AND PUSH1 0x4 PUSH1 0x0 PUSH2 0x100 EXP DUP2 SLOAD DUP2 PUSH20 0xFFFFFFFFFFFFFFFFFFFFFFFFFFFFFFFFFFFFFFFF MUL NOT AND SWAP1 DUP4 PUSH20 0xFFFFFFFFFFFFFFFFFFFFFFFFFFFFFFFFFFFFFFFF AND MUL OR SWAP1 SSTORE POP PUSH1 0x12 PUSH1 0xA EXP PUSH4 0xEE6B2800 MUL PUSH1 0x18 DUP2 SWAP1 SSTORE POP PUSH1 0x12 PUSH1 0xA EXP PUSH4 0xEE6B2800 MUL PUSH1 0x0 NOT DUP2 PUSH3 0x73E JUMPI INVALID JUMPDEST MOD PUSH1 0x0 NOT SUB PUSH1 0x1A PUSH1 0x0 PUSH1 0x10 PUSH1 0x0 SWAP1 SLOAD SWAP1 PUSH2 0x100 EXP SWAP1 DIV PUSH20 0xFFFFFFFFFFFFFFFFFFFFFFFFFFFFFFFFFFFFFFFF AND PUSH20 0xFFFFFFFFFFFFFFFFFFFFFFFFFFFFFFFFFFFFFFFF AND PUSH20 0xFFFFFFFFFFFFFFFFFFFFFFFFFFFFFFFFFFFFFFFF AND DUP2 MSTORE PUSH1 0x20 ADD SWAP1 DUP2 MSTORE PUSH1 0x20 ADD PUSH1 0x0 KECCAK256 DUP2 SWAP1 SSTORE POP PUSH3 0x7DE PUSH1 0x18 SLOAD PUSH1 0x12 PUSH1 0xA EXP PUSH4 0xEE6B2800 MUL PUSH1 0x0 NOT DUP2 PUSH3 0x7C5 JUMPI INVALID JUMPDEST MOD PUSH1 0x0 NOT SUB PUSH3 0xA7E PUSH1 0x20 SHL PUSH3 0x3145 OR SWAP1 SWAP2 SWAP1 PUSH1 0x20 SHR JUMP JUMPDEST PUSH1 0x19 DUP2 SWAP1 SSTORE POP PUSH1 0x0 PUSH1 0x4 PUSH1 0x14 PUSH2 0x100 EXP DUP2 SLOAD DUP2 PUSH1 0xFF MUL NOT AND SWAP1 DUP4 ISZERO ISZERO MUL OR SWAP1 SSTORE POP PUSH1 0x1 PUSH1 0x6 PUSH1 0x0 PUSH1 0x10 PUSH1 0x0 SWAP1 SLOAD SWAP1 PUSH2 0x100 EXP SWAP1 DIV PUSH20 0xFFFFFFFFFFFFFFFFFFFFFFFFFFFFFFFFFFFFFFFF AND PUSH20 0xFFFFFFFFFFFFFFFFFFFFFFFFFFFFFFFFFFFFFFFF AND PUSH20 0xFFFFFFFFFFFFFFFFFFFFFFFFFFFFFFFFFFFFFFFF AND DUP2 MSTORE PUSH1 0x20 ADD SWAP1 DUP2 MSTORE PUSH1 0x20 ADD PUSH1 0x0 KECCAK256 PUSH1 0x0 PUSH2 0x100 EXP DUP2 SLOAD DUP2 PUSH1 0xFF MUL NOT AND SWAP1 DUP4 ISZERO ISZERO MUL OR SWAP1 SSTORE POP PUSH1 0x1 PUSH1 0x6 PUSH1 0x0 ADDRESS PUSH20 0xFFFFFFFFFFFFFFFFFFFFFFFFFFFFFFFFFFFFFFFF AND PUSH20 0xFFFFFFFFFFFFFFFFFFFFFFFFFFFFFFFFFFFFFFFF AND DUP2 MSTORE PUSH1 0x20 ADD SWAP1 DUP2 MSTORE PUSH1 0x20 ADD PUSH1 0x0 KECCAK256 PUSH1 0x0 PUSH2 0x100 EXP DUP2 SLOAD DUP2 PUSH1 0xFF MUL NOT AND SWAP1 DUP4 ISZERO ISZERO MUL OR SWAP1 SSTORE POP PUSH3 0x904 PUSH1 0x10 PUSH1 0x0 SWAP1 SLOAD SWAP1 PUSH2 0x100 EXP SWAP1 DIV PUSH20 0xFFFFFFFFFFFFFFFFFFFFFFFFFFFFFFFFFFFFFFFF AND PUSH3 0xAD0 PUSH1 0x20 SHL PUSH1 0x20 SHR JUMP JUMPDEST PUSH1 0x10 PUSH1 0x0 SWAP1 SLOAD SWAP1 PUSH2 0x100 EXP SWAP1 DIV PUSH20 0xFFFFFFFFFFFFFFFFFFFFFFFFFFFFFFFFFFFFFFFF AND PUSH20 0xFFFFFFFFFFFFFFFFFFFFFFFFFFFFFFFFFFFFFFFF AND PUSH1 0x0 PUSH20 0xFFFFFFFFFFFFFFFFFFFFFFFFFFFFFFFFFFFFFFFF AND PUSH32 0xDDF252AD1BE2C89B69C2B068FC378DAA952BA7F163C4A11628F55A4DF523B3EF PUSH1 0x18 SLOAD PUSH1 0x40 MLOAD DUP1 DUP3 DUP2 MSTORE PUSH1 0x20 ADD SWAP2 POP POP PUSH1 0x40 MLOAD DUP1 SWAP2 SUB SWAP1 LOG3 PUSH3 0xF10 JUMP JUMPDEST PUSH1 0x0 DUP1 DUP3 DUP5 ADD SWAP1 POP DUP4 DUP2 LT ISZERO PUSH3 0xA13 JUMPI PUSH1 0x40 MLOAD PUSH32 0x8C379A000000000000000000000000000000000000000000000000000000000 DUP2 MSTORE PUSH1 0x4 ADD DUP1 DUP1 PUSH1 0x20 ADD DUP3 DUP2 SUB DUP3 MSTORE PUSH1 0x1B DUP2 MSTORE PUSH1 0x20 ADD DUP1 PUSH32 0x536166654D6174683A206164646974696F6E206F766572666C6F770000000000 DUP2 MSTORE POP PUSH1 0x20 ADD SWAP2 POP POP PUSH1 0x40 MLOAD DUP1 SWAP2 SUB SWAP1 REVERT JUMPDEST DUP1 SWAP2 POP POP SWAP3 SWAP2 POP POP JUMP JUMPDEST PUSH3 0xA38 DUP2 PUSH1 0x3 PUSH3 0xBCB PUSH1 0x20 SHL PUSH3 0x318F OR SWAP1 SWAP2 SWAP1 PUSH1 0x20 SHR JUMP JUMPDEST DUP1 PUSH20 0xFFFFFFFFFFFFFFFFFFFFFFFFFFFFFFFFFFFFFFFF AND PUSH32 0x6AE172837EA30B801FBFCDD4108AA1D5BF8FF775444FD70256B44E6BF3DFC3F6 PUSH1 0x40 MLOAD PUSH1 0x40 MLOAD DUP1 SWAP2 SUB SWAP1 LOG2 POP JUMP JUMPDEST PUSH1 0x0 PUSH3 0xAC8 DUP4 DUP4 PUSH1 0x40 MLOAD DUP1 PUSH1 0x40 ADD PUSH1 0x40 MSTORE DUP1 PUSH1 0x1A DUP2 MSTORE PUSH1 0x20 ADD PUSH32 0x536166654D6174683A206469766973696F6E206279207A65726F000000000000 DUP2 MSTORE POP PUSH3 0xCAF PUSH1 0x20 SHL PUSH1 0x20 SHR JUMP JUMPDEST SWAP1 POP SWAP3 SWAP2 POP POP JUMP JUMPDEST PUSH1 0x0 PUSH20 0xFFFFFFFFFFFFFFFFFFFFFFFFFFFFFFFFFFFFFFFF AND DUP2 PUSH20 0xFFFFFFFFFFFFFFFFFFFFFFFFFFFFFFFFFFFFFFFF AND EQ ISZERO PUSH3 0xB0B JUMPI PUSH1 0x0 DUP1 REVERT JUMPDEST DUP1 PUSH20 0xFFFFFFFFFFFFFFFFFFFFFFFFFFFFFFFFFFFFFFFF AND PUSH1 0x2 PUSH1 0x1 SWAP1 SLOAD SWAP1 PUSH2 0x100 EXP SWAP1 DIV PUSH20 0xFFFFFFFFFFFFFFFFFFFFFFFFFFFFFFFFFFFFFFFF AND PUSH20 0xFFFFFFFFFFFFFFFFFFFFFFFFFFFFFFFFFFFFFFFF AND PUSH32 0x8BE0079C531659141344CD1FD0A4F28419497F9722A3DAAFE3B4186F6B6457E0 PUSH1 0x40 MLOAD PUSH1 0x40 MLOAD DUP1 SWAP2 SUB SWAP1 LOG3 DUP1 PUSH1 0x2 PUSH1 0x1 PUSH2 0x100 EXP DUP2 SLOAD DUP2 PUSH20 0xFFFFFFFFFFFFFFFFFFFFFFFFFFFFFFFFFFFFFFFF MUL NOT AND SWAP1 DUP4 PUSH20 0xFFFFFFFFFFFFFFFFFFFFFFFFFFFFFFFFFFFFFFFF AND MUL OR SWAP1 SSTORE POP POP JUMP JUMPDEST PUSH3 0xBDD DUP3 DUP3 PUSH3 0xD7A PUSH1 0x20 SHL PUSH1 0x20 SHR JUMP JUMPDEST ISZERO PUSH3 0xC51 JUMPI PUSH1 0x40 MLOAD PUSH32 0x8C379A000000000000000000000000000000000000000000000000000000000 DUP2 MSTORE PUSH1 0x4 ADD DUP1 DUP1 PUSH1 0x20 ADD DUP3 DUP2 SUB DUP3 MSTORE PUSH1 0x1F DUP2 MSTORE PUSH1 0x20 ADD DUP1 PUSH32 0x526F6C65733A206163636F756E7420616C72656164792068617320726F6C6500 DUP2 MSTORE POP PUSH1 0x20 ADD SWAP2 POP POP PUSH1 0x40 MLOAD DUP1 SWAP2 SUB SWAP1 REVERT JUMPDEST PUSH1 0x1 DUP3 PUSH1 0x0 ADD PUSH1 0x0 DUP4 PUSH20 0xFFFFFFFFFFFFFFFFFFFFFFFFFFFFFFFFFFFFFFFF AND PUSH20 0xFFFFFFFFFFFFFFFFFFFFFFFFFFFFFFFFFFFFFFFF AND DUP2 MSTORE PUSH1 0x20 ADD SWAP1 DUP2 MSTORE PUSH1 0x20 ADD PUSH1 0x0 KECCAK256 PUSH1 0x0 PUSH2 0x100 EXP DUP2 SLOAD DUP2 PUSH1 0xFF MUL NOT AND SWAP1 DUP4 ISZERO ISZERO MUL OR SWAP1 SSTORE POP POP POP JUMP JUMPDEST PUSH1 0x0 DUP1 DUP4 GT DUP3 SWAP1 PUSH3 0xD5F JUMPI PUSH1 0x40 MLOAD PUSH32 0x8C379A000000000000000000000000000000000000000000000000000000000 DUP2 MSTORE PUSH1 0x4 ADD DUP1 DUP1 PUSH1 0x20 ADD DUP3 DUP2 SUB DUP3 MSTORE DUP4 DUP2 DUP2 MLOAD DUP2 MSTORE PUSH1 0x20 ADD SWAP2 POP DUP1 MLOAD SWAP1 PUSH1 0x20 ADD SWAP1 DUP1 DUP4 DUP4 PUSH1 0x0 JUMPDEST DUP4 DUP2 LT ISZERO PUSH3 0xD23 JUMPI DUP1 DUP3 ADD MLOAD DUP2 DUP5 ADD MSTORE PUSH1 0x20 DUP2 ADD SWAP1 POP PUSH3 0xD06 JUMP JUMPDEST POP POP POP POP SWAP1 POP SWAP1 DUP2 ADD SWAP1 PUSH1 0x1F AND DUP1 ISZERO PUSH3 0xD51 JUMPI DUP1 DUP3 SUB DUP1 MLOAD PUSH1 0x1 DUP4 PUSH1 0x20 SUB PUSH2 0x100 EXP SUB NOT AND DUP2 MSTORE PUSH1 0x20 ADD SWAP2 POP JUMPDEST POP SWAP3 POP POP POP PUSH1 0x40 MLOAD DUP1 SWAP2 SUB SWAP1 REVERT JUMPDEST POP PUSH1 0x0 DUP4 DUP6 DUP2 PUSH3 0xD6C JUMPI INVALID JUMPDEST DIV SWAP1 POP DUP1 SWAP2 POP POP SWAP4 SWAP3 POP POP POP JUMP JUMPDEST PUSH1 0x0 DUP1 PUSH20 0xFFFFFFFFFFFFFFFFFFFFFFFFFFFFFFFFFFFFFFFF AND DUP3 PUSH20 0xFFFFFFFFFFFFFFFFFFFFFFFFFFFFFFFFFFFFFFFF AND EQ ISZERO PUSH3 0xE03 JUMPI PUSH1 0x40 MLOAD PUSH32 0x8C379A000000000000000000000000000000000000000000000000000000000 DUP2 MSTORE PUSH1 0x4 ADD DUP1 DUP1 PUSH1 0x20 ADD DUP3 DUP2 SUB DUP3 MSTORE PUSH1 0x22 DUP2 MSTORE PUSH1 0x20 ADD DUP1 PUSH3 0x570F PUSH1 0x22 SWAP2 CODECOPY PUSH1 0x40 ADD SWAP2 POP POP PUSH1 0x40 MLOAD DUP1 SWAP2 SUB SWAP1 REVERT JUMPDEST DUP3 PUSH1 0x0 ADD PUSH1 0x0 DUP4 PUSH20 0xFFFFFFFFFFFFFFFFFFFFFFFFFFFFFFFFFFFFFFFF AND PUSH20 0xFFFFFFFFFFFFFFFFFFFFFFFFFFFFFFFFFFFFFFFF AND DUP2 MSTORE PUSH1 0x20 ADD SWAP1 DUP2 MSTORE PUSH1 0x20 ADD PUSH1 0x0 KECCAK256 PUSH1 0x0 SWAP1 SLOAD SWAP1 PUSH2 0x100 EXP SWAP1 DIV PUSH1 0xFF AND SWAP1 POP SWAP3 SWAP2 POP POP JUMP JUMPDEST DUP3 DUP1 SLOAD PUSH1 0x1 DUP2 PUSH1 0x1 AND ISZERO PUSH2 0x100 MUL SUB AND PUSH1 0x2 SWAP1 DIV SWAP1 PUSH1 0x0 MSTORE PUSH1 0x20 PUSH1 0x0 KECCAK256 SWAP1 PUSH1 0x1F ADD PUSH1 0x20 SWAP1 DIV DUP2 ADD SWAP3 DUP3 PUSH3 0xE92 JUMPI PUSH1 0x0 DUP6 SSTORE PUSH3 0xEDE JUMP JUMPDEST DUP3 PUSH1 0x1F LT PUSH3 0xEAD JUMPI DUP1 MLOAD PUSH1 0xFF NOT AND DUP4 DUP1 ADD OR DUP6 SSTORE PUSH3 0xEDE JUMP JUMPDEST DUP3 DUP1 ADD PUSH1 0x1 ADD DUP6 SSTORE DUP3 ISZERO PUSH3 0xEDE JUMPI SWAP2 DUP3 ADD JUMPDEST DUP3 DUP2 GT ISZERO PUSH3 0xEDD JUMPI DUP3 MLOAD DUP3 SSTORE SWAP2 PUSH1 0x20 ADD SWAP2 SWAP1 PUSH1 0x1 ADD SWAP1 PUSH3 0xEC0 JUMP JUMPDEST JUMPDEST POP SWAP1 POP PUSH3 0xEED SWAP2 SWAP1 PUSH3 0xEF1 JUMP JUMPDEST POP SWAP1 JUMP JUMPDEST JUMPDEST DUP1 DUP3 GT ISZERO PUSH3 0xF0C JUMPI PUSH1 0x0 DUP2 PUSH1 0x0 SWAP1 SSTORE POP PUSH1 0x1 ADD PUSH3 0xEF2 JUMP JUMPDEST POP SWAP1 JUMP JUMPDEST PUSH2 0x47EF DUP1 PUSH3 0xF20 PUSH1 0x0 CODECOPY PUSH1 0x0 RETURN INVALID PUSH1 0x80 PUSH1 0x40 MSTORE PUSH1 0x4 CALLDATASIZE LT PUSH2 0x354 JUMPI PUSH1 0x0 CALLDATALOAD PUSH1 0xE0 SHR DUP1 PUSH4 0x7A43E23F GT PUSH2 0x1C6 JUMPI DUP1 PUSH4 0xBDA5C8BB GT PUSH2 0xF7 JUMPI DUP1 PUSH4 0xD5938AAC GT PUSH2 0x95 JUMPI DUP1 PUSH4 0xDD62ED3E GT PUSH2 0x6F JUMPI DUP1 PUSH4 0xDD62ED3E EQ PUSH2 0x12D0 JUMPI DUP1 PUSH4 0xF2FDE38B EQ PUSH2 0x1355 JUMPI DUP1 PUSH4 0xF887EA40 EQ PUSH2 0x13A6 JUMPI DUP1 PUSH4 0xF9F92BE4 EQ PUSH2 0x13E7 JUMPI PUSH2 0x35B JUMP JUMPDEST DUP1 PUSH4 0xD5938AAC EQ PUSH2 0x11AD JUMPI DUP1 PUSH4 0xD7AC6585 EQ PUSH2 0x11FE JUMPI DUP1 PUSH4 0xD7C01032 EQ PUSH2 0x123F JUMPI PUSH2 0x35B JUMP JUMPDEST DUP1 PUSH4 0xD1FCE264 GT PUSH2 0xD1 JUMPI DUP1 PUSH4 0xD1FCE264 EQ PUSH2 0xFEF JUMPI DUP1 PUSH4 0xD37E219D EQ PUSH2 0x101C JUMPI DUP1 PUSH4 0xD4399790 EQ PUSH2 0x10F7 JUMPI DUP1 PUSH4 0xD51ED1C8 EQ PUSH2 0x115E JUMPI PUSH2 0x35B JUMP JUMPDEST DUP1 PUSH4 0xBDA5C8BB EQ PUSH2 0xF32 JUMPI DUP1 PUSH4 0xCA33E64C EQ PUSH2 0xF5D JUMPI DUP1 PUSH4 0xD0889358 EQ PUSH2 0xF9E JUMPI PUSH2 0x35B JUMP JUMPDEST DUP1 PUSH4 0x98118CB4 GT PUSH2 0x164 JUMPI DUP1 PUSH4 0xA457C2D7 GT PUSH2 0x13E JUMPI DUP1 PUSH4 0xA457C2D7 EQ PUSH2 0xDA8 JUMPI DUP1 PUSH4 0xA8AA1B31 EQ PUSH2 0xE19 JUMPI DUP1 PUSH4 0xA9059CBB EQ PUSH2 0xE5A JUMPI DUP1 PUSH4 0xAA271E1A EQ PUSH2 0xECB JUMPI PUSH2 0x35B JUMP JUMPDEST DUP1 PUSH4 0x98118CB4 EQ PUSH2 0xD15 JUMPI DUP1 PUSH4 0x983B2D56 EQ PUSH2 0xD40 JUMPI DUP1 PUSH4 0x98650275 EQ PUSH2 0xD91 JUMPI PUSH2 0x35B JUMP JUMPDEST DUP1 PUSH4 0x8DA5CB5B GT PUSH2 0x1A0 JUMPI DUP1 PUSH4 0x8DA5CB5B EQ PUSH2 0xBBA JUMPI DUP1 PUSH4 0x8F32D59B EQ PUSH2 0xBFB JUMPI DUP1 PUSH4 0x9155E083 EQ PUSH2 0xC28 JUMPI DUP1 PUSH4 0x95D89B41 EQ PUSH2 0xC85 JUMPI PUSH2 0x35B JUMP JUMPDEST DUP1 PUSH4 0x7A43E23F EQ PUSH2 0xAF3 JUMPI DUP1 PUSH4 0x800CEE51 EQ PUSH2 0xB4C JUMPI DUP1 PUSH4 0x83B4AC68 EQ PUSH2 0xB8D JUMPI PUSH2 0x35B JUMP JUMPDEST DUP1 PUSH4 0x3092AFD5 GT PUSH2 0x2A0 JUMPI DUP1 PUSH4 0x56A227F2 GT PUSH2 0x23E JUMPI DUP1 PUSH4 0x70A08231 GT PUSH2 0x218 JUMPI DUP1 PUSH4 0x70A08231 EQ PUSH2 0xA0F JUMPI DUP1 PUSH4 0x715018A6 EQ PUSH2 0xA74 JUMPI DUP1 PUSH4 0x749796A5 EQ PUSH2 0xA8B JUMPI DUP1 PUSH4 0x753D02A1 EQ PUSH2 0xADC JUMPI PUSH2 0x35B JUMP JUMPDEST DUP1 PUSH4 0x56A227F2 EQ PUSH2 0x95C JUMPI DUP1 PUSH4 0x6D351D1A EQ PUSH2 0x9B7 JUMPI DUP1 PUSH4 0x6DDD1713 EQ PUSH2 0x9E2 JUMPI PUSH2 0x35B JUMP JUMPDEST DUP1 PUSH4 0x39509351 GT PUSH2 0x27A JUMPI DUP1 PUSH4 0x39509351 EQ PUSH2 0x824 JUMPI DUP1 PUSH4 0x40C10F19 EQ PUSH2 0x895 JUMPI DUP1 PUSH4 0x4D709ADF EQ PUSH2 0x8F0 JUMPI DUP1 PUSH4 0x563DF32F EQ PUSH2 0x931 JUMPI PUSH2 0x35B JUMP JUMPDEST DUP1 PUSH4 0x3092AFD5 EQ PUSH2 0x734 JUMPI DUP1 PUSH4 0x313CE567 EQ PUSH2 0x785 JUMPI DUP1 PUSH4 0x33F3D628 EQ PUSH2 0x7B3 JUMPI PUSH2 0x35B JUMP JUMPDEST DUP1 PUSH4 0x1DF4CCFC GT PUSH2 0x30D JUMPI DUP1 PUSH4 0x2B112E49 GT PUSH2 0x2E7 JUMPI DUP1 PUSH4 0x2B112E49 EQ PUSH2 0x676 JUMPI DUP1 PUSH4 0x2B14CA56 EQ PUSH2 0x6A1 JUMPI DUP1 PUSH4 0x2BE6937D EQ PUSH2 0x6CC JUMPI DUP1 PUSH4 0x2F34D282 EQ PUSH2 0x6E3 JUMPI PUSH2 0x35B JUMP JUMPDEST DUP1 PUSH4 0x1DF4CCFC EQ PUSH2 0x575 JUMPI DUP1 PUSH4 0x201E7991 EQ PUSH2 0x5A0 JUMPI DUP1 PUSH4 0x23B872DD EQ PUSH2 0x5E5 JUMPI PUSH2 0x35B JUMP JUMPDEST DUP1 PUSH4 0x4A66B48 EQ PUSH2 0x360 JUMPI DUP1 PUSH4 0x6FDDE03 EQ PUSH2 0x3C3 JUMPI DUP1 PUSH4 0x95EA7B3 EQ PUSH2 0x453 JUMPI DUP1 PUSH4 0x1161AE39 EQ PUSH2 0x4C4 JUMPI DUP1 PUSH4 0x180B0D7E EQ PUSH2 0x51F JUMPI DUP1 PUSH4 0x18160DDD EQ PUSH2 0x54A JUMPI PUSH2 0x35B JUMP JUMPDEST CALLDATASIZE PUSH2 0x35B JUMPI STOP JUMPDEST PUSH1 0x0 DUP1 REVERT JUMPDEST CALLVALUE DUP1 ISZERO PUSH2 0x36C JUMPI PUSH1 0x0 DUP1 REVERT JUMPDEST POP PUSH2 0x3C1 PUSH1 0x4 DUP1 CALLDATASIZE SUB PUSH1 0xA0 DUP2 LT ISZERO PUSH2 0x383 JUMPI PUSH1 0x0 DUP1 REVERT JUMPDEST DUP2 ADD SWAP1 DUP1 DUP1 CALLDATALOAD SWAP1 PUSH1 0x20 ADD SWAP1 SWAP3 SWAP2 SWAP1 DUP1 CALLDATALOAD SWAP1 PUSH1 0x20 ADD SWAP1 SWAP3 SWAP2 SWAP1 DUP1 CALLDATALOAD SWAP1 PUSH1 0x20 ADD SWAP1 SWAP3 SWAP2 SWAP1 DUP1 CALLDATALOAD SWAP1 PUSH1 0x20 ADD SWAP1 SWAP3 SWAP2 SWAP1 DUP1 CALLDATALOAD SWAP1 PUSH1 0x20 ADD SWAP1 SWAP3 SWAP2 SWAP1 POP POP POP PUSH2 0x144E JUMP JUMPDEST STOP JUMPDEST CALLVALUE DUP1 ISZERO PUSH2 0x3CF JUMPI PUSH1 0x0 DUP1 REVERT JUMPDEST POP PUSH2 0x3D8 PUSH2 0x14D4 JUMP JUMPDEST PUSH1 0x40 MLOAD DUP1 DUP1 PUSH1 0x20 ADD DUP3 DUP2 SUB DUP3 MSTORE DUP4 DUP2 DUP2 MLOAD DUP2 MSTORE PUSH1 0x20 ADD SWAP2 POP DUP1 MLOAD SWAP1 PUSH1 0x20 ADD SWAP1 DUP1 DUP4 DUP4 PUSH1 0x0 JUMPDEST DUP4 DUP2 LT ISZERO PUSH2 0x418 JUMPI DUP1 DUP3 ADD MLOAD DUP2 DUP5 ADD MSTORE PUSH1 0x20 DUP2 ADD SWAP1 POP PUSH2 0x3FD JUMP JUMPDEST POP POP POP POP SWAP1 POP SWAP1 DUP2 ADD SWAP1 PUSH1 0x1F AND DUP1 ISZERO PUSH2 0x445 JUMPI DUP1 DUP3 SUB DUP1 MLOAD PUSH1 0x1 DUP4 PUSH1 0x20 SUB PUSH2 0x100 EXP SUB NOT AND DUP2 MSTORE PUSH1 0x20 ADD SWAP2 POP JUMPDEST POP SWAP3 POP POP POP PUSH1 0x40 MLOAD DUP1 SWAP2 SUB SWAP1 RETURN JUMPDEST CALLVALUE DUP1 ISZERO PUSH2 0x45F JUMPI PUSH1 0x0 DUP1 REVERT JUMPDEST POP PUSH2 0x4AC PUSH1 0x4 DUP1 CALLDATASIZE SUB PUSH1 0x40 DUP2 LT ISZERO PUSH2 0x476 JUMPI PUSH1 0x0 DUP1 REVERT JUMPDEST DUP2 ADD SWAP1 DUP1 DUP1 CALLDATALOAD PUSH20 0xFFFFFFFFFFFFFFFFFFFFFFFFFFFFFFFFFFFFFFFF AND SWAP1 PUSH1 0x20 ADD SWAP1 SWAP3 SWAP2 SWAP1 DUP1 CALLDATALOAD SWAP1 PUSH1 0x20 ADD SWAP1 SWAP3 SWAP2 SWAP1 POP POP POP PUSH2 0x1576 JUMP JUMPDEST PUSH1 0x40 MLOAD DUP1 DUP3 ISZERO ISZERO DUP2 MSTORE PUSH1 0x20 ADD SWAP2 POP POP PUSH1 0x40 MLOAD DUP1 SWAP2 SUB SWAP1 RETURN JUMPDEST CALLVALUE DUP1 ISZERO PUSH2 0x4D0 JUMPI PUSH1 0x0 DUP1 REVERT JUMPDEST POP PUSH2 0x507 PUSH1 0x4 DUP1 CALLDATASIZE SUB PUSH1 0x40 DUP2 LT ISZERO PUSH2 0x4E7 JUMPI PUSH1 0x0 DUP1 REVERT JUMPDEST DUP2 ADD SWAP1 DUP1 DUP1 CALLDATALOAD SWAP1 PUSH1 0x20 ADD SWAP1 SWAP3 SWAP2 SWAP1 DUP1 CALLDATALOAD SWAP1 PUSH1 0x20 ADD SWAP1 SWAP3 SWAP2 SWAP1 POP POP POP PUSH2 0x16E4 JUMP JUMPDEST PUSH1 0x40 MLOAD DUP1 DUP3 ISZERO ISZERO DUP2 MSTORE PUSH1 0x20 ADD SWAP2 POP POP PUSH1 0x40 MLOAD DUP1 SWAP2 SUB SWAP1 RETURN JUMPDEST CALLVALUE DUP1 ISZERO PUSH2 0x52B JUMPI PUSH1 0x0 DUP1 REVERT JUMPDEST POP PUSH2 0x534 PUSH2 0x16F9 JUMP JUMPDEST PUSH1 0x40 MLOAD DUP1 DUP3 DUP2 MSTORE PUSH1 0x20 ADD SWAP2 POP POP PUSH1 0x40 MLOAD DUP1 SWAP2 SUB SWAP1 RETURN JUMPDEST CALLVALUE DUP1 ISZERO PUSH2 0x556 JUMPI PUSH1 0x0 DUP1 REVERT JUMPDEST POP PUSH2 0x55F PUSH2 0x16FF JUMP JUMPDEST PUSH1 0x40 MLOAD DUP1 DUP3 DUP2 MSTORE PUSH1 0x20 ADD SWAP2 POP POP PUSH1 0x40 MLOAD DUP1 SWAP2 SUB SWAP1 RETURN JUMPDEST CALLVALUE DUP1 ISZERO PUSH2 0x581 JUMPI PUSH1 0x0 DUP1 REVERT JUMPDEST POP PUSH2 0x58A PUSH2 0x1709 JUMP JUMPDEST PUSH1 0x40 MLOAD DUP1 DUP3 DUP2 MSTORE PUSH1 0x20 ADD SWAP2 POP POP PUSH1 0x40 MLOAD DUP1 SWAP2 SUB SWAP1 RETURN JUMPDEST CALLVALUE DUP1 ISZERO PUSH2 0x5AC JUMPI PUSH1 0x0 DUP1 REVERT JUMPDEST POP PUSH2 0x5E3 PUSH1 0x4 DUP1 CALLDATASIZE SUB PUSH1 0x40 DUP2 LT ISZERO PUSH2 0x5C3 JUMPI PUSH1 0x0 DUP1 REVERT JUMPDEST DUP2 ADD SWAP1 DUP1 DUP1 CALLDATALOAD SWAP1 PUSH1 0x20 ADD SWAP1 SWAP3 SWAP2 SWAP1 DUP1 CALLDATALOAD SWAP1 PUSH1 0x20 ADD SWAP1 SWAP3 SWAP2 SWAP1 POP POP POP PUSH2 0x170F JUMP JUMPDEST STOP JUMPDEST CALLVALUE DUP1 ISZERO PUSH2 0x5F1 JUMPI PUSH1 0x0 DUP1 REVERT JUMPDEST POP PUSH2 0x65E PUSH1 0x4 DUP1 CALLDATASIZE SUB PUSH1 0x60 DUP2 LT ISZERO PUSH2 0x608 JUMPI PUSH1 0x0 DUP1 REVERT JUMPDEST DUP2 ADD SWAP1 DUP1 DUP1 CALLDATALOAD PUSH20 0xFFFFFFFFFFFFFFFFFFFFFFFFFFFFFFFFFFFFFFFF AND SWAP1 PUSH1 0x20 ADD SWAP1 SWAP3 SWAP2 SWAP1 DUP1 CALLDATALOAD PUSH20 0xFFFFFFFFFFFFFFFFFFFFFFFFFFFFFFFFFFFFFFFF AND SWAP1 PUSH1 0x20 ADD SWAP1 SWAP3 SWAP2 SWAP1 DUP1 CALLDATALOAD SWAP1 PUSH1 0x20 ADD SWAP1 SWAP3 SWAP2 SWAP1 POP POP POP PUSH2 0x1732 JUMP JUMPDEST PUSH1 0x40 MLOAD DUP1 DUP3 ISZERO ISZERO DUP2 MSTORE PUSH1 0x20 ADD SWAP2 POP POP PUSH1 0x40 MLOAD DUP1 SWAP2 SUB SWAP1 RETURN JUMPDEST CALLVALUE DUP1 ISZERO PUSH2 0x682 JUMPI PUSH1 0x0 DUP1 REVERT JUMPDEST POP PUSH2 0x68B PUSH2 0x1971 JUMP JUMPDEST PUSH1 0x40 MLOAD DUP1 DUP3 DUP2 MSTORE PUSH1 0x20 ADD SWAP2 POP POP PUSH1 0x40 MLOAD DUP1 SWAP2 SUB SWAP1 RETURN JUMPDEST CALLVALUE DUP1 ISZERO PUSH2 0x6AD JUMPI PUSH1 0x0 DUP1 REVERT JUMPDEST POP PUSH2 0x6B6 PUSH2 0x1A8C JUMP JUMPDEST PUSH1 0x40 MLOAD DUP1 DUP3 DUP2 MSTORE PUSH1 0x20 ADD SWAP2 POP POP PUSH1 0x40 MLOAD DUP1 SWAP2 SUB SWAP1 RETURN JUMPDEST CALLVALUE DUP1 ISZERO PUSH2 0x6D8 JUMPI PUSH1 0x0 DUP1 REVERT JUMPDEST POP PUSH2 0x6E1 PUSH2 0x1A92 JUMP JUMPDEST STOP JUMPDEST CALLVALUE DUP1 ISZERO PUSH2 0x6EF JUMPI PUSH1 0x0 DUP1 REVERT JUMPDEST POP PUSH2 0x732 PUSH1 0x4 DUP1 CALLDATASIZE SUB PUSH1 0x20 DUP2 LT ISZERO PUSH2 0x706 JUMPI PUSH1 0x0 DUP1 REVERT JUMPDEST DUP2 ADD SWAP1 DUP1 DUP1 CALLDATALOAD PUSH20 0xFFFFFFFFFFFFFFFFFFFFFFFFFFFFFFFFFFFFFFFF AND SWAP1 PUSH1 0x20 ADD SWAP1 SWAP3 SWAP2 SWAP1 POP POP POP PUSH2 0x1AC0 JUMP JUMPDEST STOP JUMPDEST CALLVALUE DUP1 ISZERO PUSH2 0x740 JUMPI PUSH1 0x0 DUP1 REVERT JUMPDEST POP PUSH2 0x783 PUSH1 0x4 DUP1 CALLDATASIZE SUB PUSH1 0x20 DUP2 LT ISZERO PUSH2 0x757 JUMPI PUSH1 0x0 DUP1 REVERT JUMPDEST DUP2 ADD SWAP1 DUP1 DUP1 CALLDATALOAD PUSH20 0xFFFFFFFFFFFFFFFFFFFFFFFFFFFFFFFFFFFFFFFF AND SWAP1 PUSH1 0x20 ADD SWAP1 SWAP3 SWAP2 SWAP1 POP POP POP PUSH2 0x1B60 JUMP JUMPDEST STOP JUMPDEST CALLVALUE DUP1 ISZERO PUSH2 0x791 JUMPI PUSH1 0x0 DUP1 REVERT JUMPDEST POP PUSH2 0x79A PUSH2 0x1B7D JUMP JUMPDEST PUSH1 0x40 MLOAD DUP1 DUP3 PUSH1 0xFF AND DUP2 MSTORE PUSH1 0x20 ADD SWAP2 POP POP PUSH1 0x40 MLOAD DUP1 SWAP2 SUB SWAP1 RETURN JUMPDEST CALLVALUE DUP1 ISZERO PUSH2 0x7BF JUMPI PUSH1 0x0 DUP1 REVERT JUMPDEST POP PUSH2 0x80C PUSH1 0x4 DUP1 CALLDATASIZE SUB PUSH1 0x40 DUP2 LT ISZERO PUSH2 0x7D6 JUMPI PUSH1 0x0 DUP1 REVERT JUMPDEST DUP2 ADD SWAP1 DUP1 DUP1 CALLDATALOAD PUSH20 0xFFFFFFFFFFFFFFFFFFFFFFFFFFFFFFFFFFFFFFFF AND SWAP1 PUSH1 0x20 ADD SWAP1 SWAP3 SWAP2 SWAP1 DUP1 CALLDATALOAD SWAP1 PUSH1 0x20 ADD SWAP1 SWAP3 SWAP2 SWAP1 POP POP POP PUSH2 0x1B94 JUMP JUMPDEST PUSH1 0x40 MLOAD DUP1 DUP3 ISZERO ISZERO DUP2 MSTORE PUSH1 0x20 ADD SWAP2 POP POP PUSH1 0x40 MLOAD DUP1 SWAP2 SUB SWAP1 RETURN JUMPDEST CALLVALUE DUP1 ISZERO PUSH2 0x830 JUMPI PUSH1 0x0 DUP1 REVERT JUMPDEST POP PUSH2 0x87D PUSH1 0x4 DUP1 CALLDATASIZE SUB PUSH1 0x40 DUP2 LT ISZERO PUSH2 0x847 JUMPI PUSH1 0x0 DUP1 REVERT JUMPDEST DUP2 ADD SWAP1 DUP1 DUP1 CALLDATALOAD PUSH20 0xFFFFFFFFFFFFFFFFFFFFFFFFFFFFFFFFFFFFFFFF AND SWAP1 PUSH1 0x20 ADD SWAP1 SWAP3 SWAP2 SWAP1 DUP1 CALLDATALOAD SWAP1 PUSH1 0x20 ADD SWAP1 SWAP3 SWAP2 SWAP1 POP POP POP PUSH2 0x1C5B JUMP JUMPDEST PUSH1 0x40 MLOAD DUP1 DUP3 ISZERO ISZERO DUP2 MSTORE PUSH1 0x20 ADD SWAP2 POP POP PUSH1 0x40 MLOAD DUP1 SWAP2 SUB SWAP1 RETURN JUMPDEST CALLVALUE DUP1 ISZERO PUSH2 0x8A1 JUMPI PUSH1 0x0 DUP1 REVERT JUMPDEST POP PUSH2 0x8EE PUSH1 0x4 DUP1 CALLDATASIZE SUB PUSH1 0x40 DUP2 LT ISZERO PUSH2 0x8B8 JUMPI PUSH1 0x0 DUP1 REVERT JUMPDEST DUP2 ADD SWAP1 DUP1 DUP1 CALLDATALOAD PUSH20 0xFFFFFFFFFFFFFFFFFFFFFFFFFFFFFFFFFFFFFFFF AND SWAP1 PUSH1 0x20 ADD SWAP1 SWAP3 SWAP2 SWAP1 DUP1 CALLDATALOAD SWAP1 PUSH1 0x20 ADD SWAP1 SWAP3 SWAP2 SWAP1 POP POP POP PUSH2 0x1ED3 JUMP JUMPDEST STOP JUMPDEST CALLVALUE DUP1 ISZERO PUSH2 0x8FC JUMPI PUSH1 0x0 DUP1 REVERT JUMPDEST POP PUSH2 0x905 PUSH2 0x20D5 JUMP JUMPDEST PUSH1 0x40 MLOAD DUP1 DUP3 PUSH20 0xFFFFFFFFFFFFFFFFFFFFFFFFFFFFFFFFFFFFFFFF AND DUP2 MSTORE PUSH1 0x20 ADD SWAP2 POP POP PUSH1 0x40 MLOAD DUP1 SWAP2 SUB SWAP1 RETURN JUMPDEST CALLVALUE DUP1 ISZERO PUSH2 0x93D JUMPI PUSH1 0x0 DUP1 REVERT JUMPDEST POP PUSH2 0x946 PUSH2 0x20FB JUMP JUMPDEST PUSH1 0x40 MLOAD DUP1 DUP3 DUP2 MSTORE PUSH1 0x20 ADD SWAP2 POP POP PUSH1 0x40 MLOAD DUP1 SWAP2 SUB SWAP1 RETURN JUMPDEST CALLVALUE DUP1 ISZERO PUSH2 0x968 JUMPI PUSH1 0x0 DUP1 REVERT JUMPDEST POP PUSH2 0x9B5 PUSH1 0x4 DUP1 CALLDATASIZE SUB PUSH1 0x40 DUP2 LT ISZERO PUSH2 0x97F JUMPI PUSH1 0x0 DUP1 REVERT JUMPDEST DUP2 ADD SWAP1 DUP1 DUP1 CALLDATALOAD SWAP1 PUSH1 0x20 ADD SWAP1 SWAP3 SWAP2 SWAP1 DUP1 CALLDATALOAD PUSH20 0xFFFFFFFFFFFFFFFFFFFFFFFFFFFFFFFFFFFFFFFF AND SWAP1 PUSH1 0x20 ADD SWAP1 SWAP3 SWAP2 SWAP1 POP POP POP PUSH2 0x2101 JUMP JUMPDEST STOP JUMPDEST CALLVALUE DUP1 ISZERO PUSH2 0x9C3 JUMPI PUSH1 0x0 DUP1 REVERT JUMPDEST POP PUSH2 0x9CC PUSH2 0x216F JUMP JUMPDEST PUSH1 0x40 MLOAD DUP1 DUP3 DUP2 MSTORE PUSH1 0x20 ADD SWAP2 POP POP PUSH1 0x40 MLOAD DUP1 SWAP2 SUB SWAP1 RETURN JUMPDEST CALLVALUE DUP1 ISZERO PUSH2 0x9EE JUMPI PUSH1 0x0 DUP1 REVERT JUMPDEST POP PUSH2 0x9F7 PUSH2 0x218D JUMP JUMPDEST PUSH1 0x40 MLOAD DUP1 DUP3 ISZERO ISZERO DUP2 MSTORE PUSH1 0x20 ADD SWAP2 POP POP PUSH1 0x40 MLOAD DUP1 SWAP2 SUB SWAP1 RETURN JUMPDEST CALLVALUE DUP1 ISZERO PUSH2 0xA1B JUMPI PUSH1 0x0 DUP1 REVERT JUMPDEST POP PUSH2 0xA5E PUSH1 0x4 DUP1 CALLDATASIZE SUB PUSH1 0x20 DUP2 LT ISZERO PUSH2 0xA32 JUMPI PUSH1 0x0 DUP1 REVERT JUMPDEST DUP2 ADD SWAP1 DUP1 DUP1 CALLDATALOAD PUSH20 0xFFFFFFFFFFFFFFFFFFFFFFFFFFFFFFFFFFFFFFFF AND SWAP1 PUSH1 0x20 ADD SWAP1 SWAP3 SWAP2 SWAP1 POP POP POP PUSH2 0x21A0 JUMP JUMPDEST PUSH1 0x40 MLOAD DUP1 DUP3 DUP2 MSTORE PUSH1 0x20 ADD SWAP2 POP POP PUSH1 0x40 MLOAD DUP1 SWAP2 SUB SWAP1 RETURN JUMPDEST CALLVALUE DUP1 ISZERO PUSH2 0xA80 JUMPI PUSH1 0x0 DUP1 REVERT JUMPDEST POP PUSH2 0xA89 PUSH2 0x21FD JUMP JUMPDEST STOP JUMPDEST CALLVALUE DUP1 ISZERO PUSH2 0xA97 JUMPI PUSH1 0x0 DUP1 REVERT JUMPDEST POP PUSH2 0xADA PUSH1 0x4 DUP1 CALLDATASIZE SUB PUSH1 0x20 DUP2 LT ISZERO PUSH2 0xAAE JUMPI PUSH1 0x0 DUP1 REVERT JUMPDEST DUP2 ADD SWAP1 DUP1 DUP1 CALLDATALOAD PUSH20 0xFFFFFFFFFFFFFFFFFFFFFFFFFFFFFFFFFFFFFFFF AND SWAP1 PUSH1 0x20 ADD SWAP1 SWAP3 SWAP2 SWAP1 POP POP POP PUSH2 0x22B7 JUMP JUMPDEST STOP JUMPDEST CALLVALUE DUP1 ISZERO PUSH2 0xAE8 JUMPI PUSH1 0x0 DUP1 REVERT JUMPDEST POP PUSH2 0xAF1 PUSH2 0x2323 JUMP JUMPDEST STOP JUMPDEST CALLVALUE DUP1 ISZERO PUSH2 0xAFF JUMPI PUSH1 0x0 DUP1 REVERT JUMPDEST POP PUSH2 0xB36 PUSH1 0x4 DUP1 CALLDATASIZE SUB PUSH1 0x40 DUP2 LT ISZERO PUSH2 0xB16 JUMPI PUSH1 0x0 DUP1 REVERT JUMPDEST DUP2 ADD SWAP1 DUP1 DUP1 CALLDATALOAD SWAP1 PUSH1 0x20 ADD SWAP1 SWAP3 SWAP2 SWAP1 DUP1 CALLDATALOAD SWAP1 PUSH1 0x20 ADD SWAP1 SWAP3 SWAP2 SWAP1 POP POP POP PUSH2 0x23A7 JUMP JUMPDEST PUSH1 0x40 MLOAD DUP1 DUP3 DUP2 MSTORE PUSH1 0x20 ADD SWAP2 POP POP PUSH1 0x40 MLOAD DUP1 SWAP2 SUB SWAP1 RETURN JUMPDEST CALLVALUE DUP1 ISZERO PUSH2 0xB58 JUMPI PUSH1 0x0 DUP1 REVERT JUMPDEST POP PUSH2 0xB61 PUSH2 0x2608 JUMP JUMPDEST PUSH1 0x40 MLOAD DUP1 DUP3 PUSH20 0xFFFFFFFFFFFFFFFFFFFFFFFFFFFFFFFFFFFFFFFF AND DUP2 MSTORE PUSH1 0x20 ADD SWAP2 POP POP PUSH1 0x40 MLOAD DUP1 SWAP2 SUB SWAP1 RETURN JUMPDEST CALLVALUE DUP1 ISZERO PUSH2 0xB99 JUMPI PUSH1 0x0 DUP1 REVERT JUMPDEST POP PUSH2 0xBA2 PUSH2 0x262E JUMP JUMPDEST PUSH1 0x40 MLOAD DUP1 DUP3 ISZERO ISZERO DUP2 MSTORE PUSH1 0x20 ADD SWAP2 POP POP PUSH1 0x40 MLOAD DUP1 SWAP2 SUB SWAP1 RETURN JUMPDEST CALLVALUE DUP1 ISZERO PUSH2 0xBC6 JUMPI PUSH1 0x0 DUP1 REVERT JUMPDEST POP PUSH2 0xBCF PUSH2 0x2646 JUMP JUMPDEST PUSH1 0x40 MLOAD DUP1 DUP3 PUSH20 0xFFFFFFFFFFFFFFFFFFFFFFFFFFFFFFFFFFFFFFFF AND DUP2 MSTORE PUSH1 0x20 ADD SWAP2 POP POP PUSH1 0x40 MLOAD DUP1 SWAP2 SUB SWAP1 RETURN JUMPDEST CALLVALUE DUP1 ISZERO PUSH2 0xC07 JUMPI PUSH1 0x0 DUP1 REVERT JUMPDEST POP PUSH2 0xC10 PUSH2 0x2670 JUMP JUMPDEST PUSH1 0x40 MLOAD DUP1 DUP3 ISZERO ISZERO DUP2 MSTORE PUSH1 0x20 ADD SWAP2 POP POP PUSH1 0x40 MLOAD DUP1 SWAP2 SUB SWAP1 RETURN JUMPDEST CALLVALUE DUP1 ISZERO PUSH2 0xC34 JUMPI PUSH1 0x0 DUP1 REVERT JUMPDEST POP PUSH2 0xC83 PUSH1 0x4 DUP1 CALLDATASIZE SUB PUSH1 0x40 DUP2 LT ISZERO PUSH2 0xC4B JUMPI PUSH1 0x0 DUP1 REVERT JUMPDEST DUP2 ADD SWAP1 DUP1 DUP1 CALLDATALOAD PUSH20 0xFFFFFFFFFFFFFFFFFFFFFFFFFFFFFFFFFFFFFFFF AND SWAP1 PUSH1 0x20 ADD SWAP1 SWAP3 SWAP2 SWAP1 DUP1 CALLDATALOAD ISZERO ISZERO SWAP1 PUSH1 0x20 ADD SWAP1 SWAP3 SWAP2 SWAP1 POP POP POP PUSH2 0x26C8 JUMP JUMPDEST STOP JUMPDEST CALLVALUE DUP1 ISZERO PUSH2 0xC91 JUMPI PUSH1 0x0 DUP1 REVERT JUMPDEST POP PUSH2 0xC9A PUSH2 0x2734 JUMP JUMPDEST PUSH1 0x40 MLOAD DUP1 DUP1 PUSH1 0x20 ADD DUP3 DUP2 SUB DUP3 MSTORE DUP4 DUP2 DUP2 MLOAD DUP2 MSTORE PUSH1 0x20 ADD SWAP2 POP DUP1 MLOAD SWAP1 PUSH1 0x20 ADD SWAP1 DUP1 DUP4 DUP4 PUSH1 0x0 JUMPDEST DUP4 DUP2 LT ISZERO PUSH2 0xCDA JUMPI DUP1 DUP3 ADD MLOAD DUP2 DUP5 ADD MSTORE PUSH1 0x20 DUP2 ADD SWAP1 POP PUSH2 0xCBF JUMP JUMPDEST POP POP POP POP SWAP1 POP SWAP1 DUP2 ADD SWAP1 PUSH1 0x1F AND DUP1 ISZERO PUSH2 0xD07 JUMPI DUP1 DUP3 SUB DUP1 MLOAD PUSH1 0x1 DUP4 PUSH1 0x20 SUB PUSH2 0x100 EXP SUB NOT AND DUP2 MSTORE PUSH1 0x20 ADD SWAP2 POP JUMPDEST POP SWAP3 POP POP POP PUSH1 0x40 MLOAD DUP1 SWAP2 SUB SWAP1 RETURN JUMPDEST CALLVALUE DUP1 ISZERO PUSH2 0xD21 JUMPI PUSH1 0x0 DUP1 REVERT JUMPDEST POP PUSH2 0xD2A PUSH2 0x27D6 JUMP JUMPDEST PUSH1 0x40 MLOAD DUP1 DUP3 DUP2 MSTORE PUSH1 0x20 ADD SWAP2 POP POP PUSH1 0x40 MLOAD DUP1 SWAP2 SUB SWAP1 RETURN JUMPDEST CALLVALUE DUP1 ISZERO PUSH2 0xD4C JUMPI PUSH1 0x0 DUP1 REVERT JUMPDEST POP PUSH2 0xD8F PUSH1 0x4 DUP1 CALLDATASIZE SUB PUSH1 0x20 DUP2 LT ISZERO PUSH2 0xD63 JUMPI PUSH1 0x0 DUP1 REVERT JUMPDEST DUP2 ADD SWAP1 DUP1 DUP1 CALLDATALOAD PUSH20 0xFFFFFFFFFFFFFFFFFFFFFFFFFFFFFFFFFFFFFFFF AND SWAP1 PUSH1 0x20 ADD SWAP1 SWAP3 SWAP2 SWAP1 POP POP POP PUSH2 0x27DC JUMP JUMPDEST STOP JUMPDEST CALLVALUE DUP1 ISZERO PUSH2 0xD9D JUMPI PUSH1 0x0 DUP1 REVERT JUMPDEST POP PUSH2 0xDA6 PUSH2 0x27F9 JUMP JUMPDEST STOP JUMPDEST CALLVALUE DUP1 ISZERO PUSH2 0xDB4 JUMPI PUSH1 0x0 DUP1 REVERT JUMPDEST POP PUSH2 0xE01 PUSH1 0x4 DUP1 CALLDATASIZE SUB PUSH1 0x40 DUP2 LT ISZERO PUSH2 0xDCB JUMPI PUSH1 0x0 DUP1 REVERT JUMPDEST DUP2 ADD SWAP1 DUP1 DUP1 CALLDATALOAD PUSH20 0xFFFFFFFFFFFFFFFFFFFFFFFFFFFFFFFFFFFFFFFF AND SWAP1 PUSH1 0x20 ADD SWAP1 SWAP3 SWAP2 SWAP1 DUP1 CALLDATALOAD SWAP1 PUSH1 0x20 ADD SWAP1 SWAP3 SWAP2 SWAP1 POP POP POP PUSH2 0x2804 JUMP JUMPDEST PUSH1 0x40 MLOAD DUP1 DUP3 ISZERO ISZERO DUP2 MSTORE PUSH1 0x20 ADD SWAP2 POP POP PUSH1 0x40 MLOAD DUP1 SWAP2 SUB SWAP1 RETURN JUMPDEST CALLVALUE DUP1 ISZERO PUSH2 0xE25 JUMPI PUSH1 0x0 DUP1 REVERT JUMPDEST POP PUSH2 0xE2E PUSH2 0x2B11 JUMP JUMPDEST PUSH1 0x40 MLOAD DUP1 DUP3 PUSH20 0xFFFFFFFFFFFFFFFFFFFFFFFFFFFFFFFFFFFFFFFF AND DUP2 MSTORE PUSH1 0x20 ADD SWAP2 POP POP PUSH1 0x40 MLOAD DUP1 SWAP2 SUB SWAP1 RETURN JUMPDEST CALLVALUE DUP1 ISZERO PUSH2 0xE66 JUMPI PUSH1 0x0 DUP1 REVERT JUMPDEST POP PUSH2 0xEB3 PUSH1 0x4 DUP1 CALLDATASIZE SUB PUSH1 0x40 DUP2 LT ISZERO PUSH2 0xE7D JUMPI PUSH1 0x0 DUP1 REVERT JUMPDEST DUP2 ADD SWAP1 DUP1 DUP1 CALLDATALOAD PUSH20 0xFFFFFFFFFFFFFFFFFFFFFFFFFFFFFFFFFFFFFFFF AND SWAP1 PUSH1 0x20 ADD SWAP1 SWAP3 SWAP2 SWAP1 DUP1 CALLDATALOAD SWAP1 PUSH1 0x20 ADD SWAP1 SWAP3 SWAP2 SWAP1 POP POP POP PUSH2 0x2B37 JUMP JUMPDEST PUSH1 0x40 MLOAD DUP1 DUP3 ISZERO ISZERO DUP2 MSTORE PUSH1 0x20 ADD SWAP2 POP POP PUSH1 0x40 MLOAD DUP1 SWAP2 SUB SWAP1 RETURN JUMPDEST CALLVALUE DUP1 ISZERO PUSH2 0xED7 JUMPI PUSH1 0x0 DUP1 REVERT JUMPDEST POP PUSH2 0xF1A PUSH1 0x4 DUP1 CALLDATASIZE SUB PUSH1 0x20 DUP2 LT ISZERO PUSH2 0xEEE JUMPI PUSH1 0x0 DUP1 REVERT JUMPDEST DUP2 ADD SWAP1 DUP1 DUP1 CALLDATALOAD PUSH20 0xFFFFFFFFFFFFFFFFFFFFFFFFFFFFFFFFFFFFFFFF AND SWAP1 PUSH1 0x20 ADD SWAP1 SWAP3 SWAP2 SWAP1 POP POP POP PUSH2 0x2C07 JUMP JUMPDEST PUSH1 0x40 MLOAD DUP1 DUP3 ISZERO ISZERO DUP2 MSTORE PUSH1 0x20 ADD SWAP2 POP POP PUSH1 0x40 MLOAD DUP1 SWAP2 SUB SWAP1 RETURN JUMPDEST CALLVALUE DUP1 ISZERO PUSH2 0xF3E JUMPI PUSH1 0x0 DUP1 REVERT JUMPDEST POP PUSH2 0xF47 PUSH2 0x2C24 JUMP JUMPDEST PUSH1 0x40 MLOAD DUP1 DUP3 DUP2 MSTORE PUSH1 0x20 ADD SWAP2 POP POP PUSH1 0x40 MLOAD DUP1 SWAP2 SUB SWAP1 RETURN JUMPDEST CALLVALUE DUP1 ISZERO PUSH2 0xF69 JUMPI PUSH1 0x0 DUP1 REVERT JUMPDEST POP PUSH2 0xF72 PUSH2 0x2C2A JUMP JUMPDEST PUSH1 0x40 MLOAD DUP1 DUP3 PUSH20 0xFFFFFFFFFFFFFFFFFFFFFFFFFFFFFFFFFFFFFFFF AND DUP2 MSTORE PUSH1 0x20 ADD SWAP2 POP POP PUSH1 0x40 MLOAD DUP1 SWAP2 SUB SWAP1 RETURN JUMPDEST CALLVALUE DUP1 ISZERO PUSH2 0xFAA JUMPI PUSH1 0x0 DUP1 REVERT JUMPDEST POP PUSH2 0xFED PUSH1 0x4 DUP1 CALLDATASIZE SUB PUSH1 0x60 DUP2 LT ISZERO PUSH2 0xFC1 JUMPI PUSH1 0x0 DUP1 REVERT JUMPDEST DUP2 ADD SWAP1 DUP1 DUP1 CALLDATALOAD ISZERO ISZERO SWAP1 PUSH1 0x20 ADD SWAP1 SWAP3 SWAP2 SWAP1 DUP1 CALLDATALOAD SWAP1 PUSH1 0x20 ADD SWAP1 SWAP3 SWAP2 SWAP1 DUP1 CALLDATALOAD SWAP1 PUSH1 0x20 ADD SWAP1 SWAP3 SWAP2 SWAP1 POP POP POP PUSH2 0x2C50 JUMP JUMPDEST STOP JUMPDEST CALLVALUE DUP1 ISZERO PUSH2 0xFFB JUMPI PUSH1 0x0 DUP1 REVERT JUMPDEST POP PUSH2 0x1004 PUSH2 0x2CC4 JUMP JUMPDEST PUSH1 0x40 MLOAD DUP1 DUP3 ISZERO ISZERO DUP2 MSTORE PUSH1 0x20 ADD SWAP2 POP POP PUSH1 0x40 MLOAD DUP1 SWAP2 SUB SWAP1 RETURN JUMPDEST CALLVALUE DUP1 ISZERO PUSH2 0x1028 JUMPI PUSH1 0x0 DUP1 REVERT JUMPDEST POP PUSH2 0x10F5 PUSH1 0x4 DUP1 CALLDATASIZE SUB PUSH1 0x40 DUP2 LT ISZERO PUSH2 0x103F JUMPI PUSH1 0x0 DUP1 REVERT JUMPDEST DUP2 ADD SWAP1 DUP1 DUP1 CALLDATALOAD SWAP1 PUSH1 0x20 ADD SWAP1 PUSH5 0x100000000 DUP2 GT ISZERO PUSH2 0x105C JUMPI PUSH1 0x0 DUP1 REVERT JUMPDEST DUP3 ADD DUP4 PUSH1 0x20 DUP3 ADD GT ISZERO PUSH2 0x106E JUMPI PUSH1 0x0 DUP1 REVERT JUMPDEST DUP1 CALLDATALOAD SWAP1 PUSH1 0x20 ADD SWAP2 DUP5 PUSH1 0x20 DUP4 MUL DUP5 ADD GT PUSH5 0x100000000 DUP4 GT OR ISZERO PUSH2 0x1090 JUMPI PUSH1 0x0 DUP1 REVERT JUMPDEST SWAP1 SWAP2 SWAP3 SWAP4 SWAP2 SWAP3 SWAP4 SWAP1 DUP1 CALLDATALOAD SWAP1 PUSH1 0x20 ADD SWAP1 PUSH5 0x100000000 DUP2 GT ISZERO PUSH2 0x10B1 JUMPI PUSH1 0x0 DUP1 REVERT JUMPDEST DUP3 ADD DUP4 PUSH1 0x20 DUP3 ADD GT ISZERO PUSH2 0x10C3 JUMPI PUSH1 0x0 DUP1 REVERT JUMPDEST DUP1 CALLDATALOAD SWAP1 PUSH1 0x20 ADD SWAP2 DUP5 PUSH1 0x20 DUP4 MUL DUP5 ADD GT PUSH5 0x100000000 DUP4 GT OR ISZERO PUSH2 0x10E5 JUMPI PUSH1 0x0 DUP1 REVERT JUMPDEST SWAP1 SWAP2 SWAP3 SWAP4 SWAP2 SWAP3 SWAP4 SWAP1 POP POP POP PUSH2 0x2CD7 JUMP JUMPDEST STOP JUMPDEST CALLVALUE DUP1 ISZERO PUSH2 0x1103 JUMPI PUSH1 0x0 DUP1 REVERT JUMPDEST POP PUSH2 0x1146 PUSH1 0x4 DUP1 CALLDATASIZE SUB PUSH1 0x20 DUP2 LT ISZERO PUSH2 0x111A JUMPI PUSH1 0x0 DUP1 REVERT JUMPDEST DUP2 ADD SWAP1 DUP1 DUP1 CALLDATALOAD PUSH20 0xFFFFFFFFFFFFFFFFFFFFFFFFFFFFFFFFFFFFFFFF AND SWAP1 PUSH1 0x20 ADD SWAP1 SWAP3 SWAP2 SWAP1 POP POP POP PUSH2 0x2D50 JUMP JUMPDEST PUSH1 0x40 MLOAD DUP1 DUP3 ISZERO ISZERO DUP2 MSTORE PUSH1 0x20 ADD SWAP2 POP POP PUSH1 0x40 MLOAD DUP1 SWAP2 SUB SWAP1 RETURN JUMPDEST CALLVALUE DUP1 ISZERO PUSH2 0x116A JUMPI PUSH1 0x0 DUP1 REVERT JUMPDEST POP PUSH2 0x1197 PUSH1 0x4 DUP1 CALLDATASIZE SUB PUSH1 0x20 DUP2 LT ISZERO PUSH2 0x1181 JUMPI PUSH1 0x0 DUP1 REVERT JUMPDEST DUP2 ADD SWAP1 DUP1 DUP1 CALLDATALOAD SWAP1 PUSH1 0x20 ADD SWAP1 SWAP3 SWAP2 SWAP1 POP POP POP PUSH2 0x2DA6 JUMP JUMPDEST PUSH1 0x40 MLOAD DUP1 DUP3 DUP2 MSTORE PUSH1 0x20 ADD SWAP2 POP POP PUSH1 0x40 MLOAD DUP1 SWAP2 SUB SWAP1 RETURN JUMPDEST CALLVALUE DUP1 ISZERO PUSH2 0x11B9 JUMPI PUSH1 0x0 DUP1 REVERT JUMPDEST POP PUSH2 0x11FC PUSH1 0x4 DUP1 CALLDATASIZE SUB PUSH1 0x20 DUP2 LT ISZERO PUSH2 0x11D0 JUMPI PUSH1 0x0 DUP1 REVERT JUMPDEST DUP2 ADD SWAP1 DUP1 DUP1 CALLDATALOAD PUSH20 0xFFFFFFFFFFFFFFFFFFFFFFFFFFFFFFFFFFFFFFFF AND SWAP1 PUSH1 0x20 ADD SWAP1 SWAP3 SWAP2 SWAP1 POP POP POP PUSH2 0x2E68 JUMP JUMPDEST STOP JUMPDEST CALLVALUE DUP1 ISZERO PUSH2 0x120A JUMPI PUSH1 0x0 DUP1 REVERT JUMPDEST POP PUSH2 0x1213 PUSH2 0x2ED4 JUMP JUMPDEST PUSH1 0x40 MLOAD DUP1 DUP3 PUSH20 0xFFFFFFFFFFFFFFFFFFFFFFFFFFFFFFFFFFFFFFFF AND DUP2 MSTORE PUSH1 0x20 ADD SWAP2 POP POP PUSH1 0x40 MLOAD DUP1 SWAP2 SUB SWAP1 RETURN JUMPDEST CALLVALUE DUP1 ISZERO PUSH2 0x124B JUMPI PUSH1 0x0 DUP1 REVERT JUMPDEST POP PUSH2 0x12CE PUSH1 0x4 DUP1 CALLDATASIZE SUB PUSH1 0x60 DUP2 LT ISZERO PUSH2 0x1262 JUMPI PUSH1 0x0 DUP1 REVERT JUMPDEST DUP2 ADD SWAP1 DUP1 DUP1 CALLDATALOAD PUSH20 0xFFFFFFFFFFFFFFFFFFFFFFFFFFFFFFFFFFFFFFFF AND SWAP1 PUSH1 0x20 ADD SWAP1 SWAP3 SWAP2 SWAP1 DUP1 CALLDATALOAD PUSH20 0xFFFFFFFFFFFFFFFFFFFFFFFFFFFFFFFFFFFFFFFF AND SWAP1 PUSH1 0x20 ADD SWAP1 SWAP3 SWAP2 SWAP1 DUP1 CALLDATALOAD PUSH20 0xFFFFFFFFFFFFFFFFFFFFFFFFFFFFFFFFFFFFFFFF AND SWAP1 PUSH1 0x20 ADD SWAP1 SWAP3 SWAP2 SWAP1 POP POP POP PUSH2 0x2EFA JUMP JUMPDEST STOP JUMPDEST CALLVALUE DUP1 ISZERO PUSH2 0x12DC JUMPI PUSH1 0x0 DUP1 REVERT JUMPDEST POP PUSH2 0x133F PUSH1 0x4 DUP1 CALLDATASIZE SUB PUSH1 0x40 DUP2 LT ISZERO PUSH2 0x12F3 JUMPI PUSH1 0x0 DUP1 REVERT JUMPDEST DUP2 ADD SWAP1 DUP1 DUP1 CALLDATALOAD PUSH20 0xFFFFFFFFFFFFFFFFFFFFFFFFFFFFFFFFFFFFFFFF AND SWAP1 PUSH1 0x20 ADD SWAP1 SWAP3 SWAP2 SWAP1 DUP1 CALLDATALOAD PUSH20 0xFFFFFFFFFFFFFFFFFFFFFFFFFFFFFFFFFFFFFFFF AND SWAP1 PUSH1 0x20 ADD SWAP1 SWAP3 SWAP2 SWAP1 POP POP POP PUSH2 0x2FD3 JUMP JUMPDEST PUSH1 0x40 MLOAD DUP1 DUP3 DUP2 MSTORE PUSH1 0x20 ADD SWAP2 POP POP PUSH1 0x40 MLOAD DUP1 SWAP2 SUB SWAP1 RETURN JUMPDEST CALLVALUE DUP1 ISZERO PUSH2 0x1361 JUMPI PUSH1 0x0 DUP1 REVERT JUMPDEST POP PUSH2 0x13A4 PUSH1 0x4 DUP1 CALLDATASIZE SUB PUSH1 0x20 DUP2 LT ISZERO PUSH2 0x1378 JUMPI PUSH1 0x0 DUP1 REVERT JUMPDEST DUP2 ADD SWAP1 DUP1 DUP1 CALLDATALOAD PUSH20 0xFFFFFFFFFFFFFFFFFFFFFFFFFFFFFFFFFFFFFFFF AND SWAP1 PUSH1 0x20 ADD SWAP1 SWAP3 SWAP2 SWAP1 POP POP POP PUSH2 0x305A JUMP JUMPDEST STOP JUMPDEST CALLVALUE DUP1 ISZERO PUSH2 0x13B2 JUMPI PUSH1 0x0 DUP1 REVERT JUMPDEST POP PUSH2 0x13BB PUSH2 0x3077 JUMP JUMPDEST PUSH1 0x40 MLOAD DUP1 DUP3 PUSH20 0xFFFFFFFFFFFFFFFFFFFFFFFFFFFFFFFFFFFFFFFF AND DUP2 MSTORE PUSH1 0x20 ADD SWAP2 POP POP PUSH1 0x40 MLOAD DUP1 SWAP2 SUB SWAP1 RETURN JUMPDEST CALLVALUE DUP1 ISZERO PUSH2 0x13F3 JUMPI PUSH1 0x0 DUP1 REVERT JUMPDEST POP PUSH2 0x1436 PUSH1 0x4 DUP1 CALLDATASIZE SUB PUSH1 0x20 DUP2 LT ISZERO PUSH2 0x140A JUMPI PUSH1 0x0 DUP1 REVERT JUMPDEST DUP2 ADD SWAP1 DUP1 DUP1 CALLDATALOAD PUSH20 0xFFFFFFFFFFFFFFFFFFFFFFFFFFFFFFFFFFFFFFFF AND SWAP1 PUSH1 0x20 ADD SWAP1 SWAP3 SWAP2 SWAP1 POP POP POP PUSH2 0x309D JUMP JUMPDEST PUSH1 0x40 MLOAD DUP1 DUP3 ISZERO ISZERO DUP2 MSTORE PUSH1 0x20 ADD SWAP2 POP POP PUSH1 0x40 MLOAD DUP1 SWAP2 SUB SWAP1 RETURN JUMPDEST PUSH2 0x1456 PUSH2 0x2670 JUMP JUMPDEST PUSH2 0x145F JUMPI PUSH1 0x0 DUP1 REVERT JUMPDEST DUP5 PUSH1 0x7 DUP2 SWAP1 SSTORE POP DUP4 PUSH1 0x9 DUP2 SWAP1 SSTORE POP DUP3 PUSH1 0x8 DUP2 SWAP1 SSTORE POP DUP2 PUSH1 0xA DUP2 SWAP1 SSTORE POP PUSH2 0x14A6 PUSH1 0x9 SLOAD PUSH2 0x1498 PUSH1 0x8 SLOAD PUSH1 0x7 SLOAD PUSH2 0x30BD SWAP1 SWAP2 SWAP1 PUSH4 0xFFFFFFFF AND JUMP JUMPDEST PUSH2 0x30BD SWAP1 SWAP2 SWAP1 PUSH4 0xFFFFFFFF AND JUMP JUMPDEST PUSH1 0xB DUP2 SWAP1 SSTORE POP DUP1 PUSH1 0xC DUP2 SWAP1 SSTORE POP PUSH1 0x4 PUSH1 0xC SLOAD DUP2 PUSH2 0x14BF JUMPI INVALID JUMPDEST DIV PUSH1 0xB SLOAD LT PUSH2 0x14CD JUMPI PUSH1 0x0 DUP1 REVERT JUMPDEST POP POP POP POP POP JUMP JUMPDEST PUSH1 0x60 PUSH1 0x0 DUP1 SLOAD PUSH1 0x1 DUP2 PUSH1 0x1 AND ISZERO PUSH2 0x100 MUL SUB AND PUSH1 0x2 SWAP1 DIV DUP1 PUSH1 0x1F ADD PUSH1 0x20 DUP1 SWAP2 DIV MUL PUSH1 0x20 ADD PUSH1 0x40 MLOAD SWAP1 DUP2 ADD PUSH1 0x40 MSTORE DUP1 SWAP3 SWAP2 SWAP1 DUP2 DUP2 MSTORE PUSH1 0x20 ADD DUP3 DUP1 SLOAD PUSH1 0x1 DUP2 PUSH1 0x1 AND ISZERO PUSH2 0x100 MUL SUB AND PUSH1 0x2 SWAP1 DIV DUP1 ISZERO PUSH2 0x156C JUMPI DUP1 PUSH1 0x1F LT PUSH2 0x1541 JUMPI PUSH2 0x100 DUP1 DUP4 SLOAD DIV MUL DUP4 MSTORE SWAP2 PUSH1 0x20 ADD SWAP2 PUSH2 0x156C JUMP JUMPDEST DUP3 ADD SWAP2 SWAP1 PUSH1 0x0 MSTORE PUSH1 0x20 PUSH1 0x0 KECCAK256 SWAP1 JUMPDEST DUP2 SLOAD DUP2 MSTORE SWAP1 PUSH1 0x1 ADD SWAP1 PUSH1 0x20 ADD DUP1 DUP4 GT PUSH2 0x154F JUMPI DUP3 SWAP1 SUB PUSH1 0x1F AND DUP3 ADD SWAP2 JUMPDEST POP POP POP POP POP SWAP1 POP SWAP1 JUMP JUMPDEST PUSH1 0x0 PUSH1 0x4 PUSH1 0x14 SWAP1 SLOAD SWAP1 PUSH2 0x100 EXP SWAP1 DIV PUSH1 0xFF AND DUP1 PUSH2 0x1597 JUMPI POP PUSH2 0x1596 PUSH2 0x2670 JUMP JUMPDEST JUMPDEST DUP1 PUSH2 0x15EB JUMPI POP PUSH1 0x5 PUSH1 0x0 CALLER PUSH20 0xFFFFFFFFFFFFFFFFFFFFFFFFFFFFFFFFFFFFFFFF AND PUSH20 0xFFFFFFFFFFFFFFFFFFFFFFFFFFFFFFFFFFFFFFFF AND DUP2 MSTORE PUSH1 0x20 ADD SWAP1 DUP2 MSTORE PUSH1 0x20 ADD PUSH1 0x0 KECCAK256 PUSH1 0x0 SWAP1 SLOAD SWAP1 PUSH2 0x100 EXP SWAP1 DIV PUSH1 0xFF AND JUMPDEST PUSH2 0x15F4 JUMPI PUSH1 0x0 DUP1 REVERT JUMPDEST DUP2 PUSH1 0x1B PUSH1 0x0 CALLER PUSH20 0xFFFFFFFFFFFFFFFFFFFFFFFFFFFFFFFFFFFFFFFF AND PUSH20 0xFFFFFFFFFFFFFFFFFFFFFFFFFFFFFFFFFFFFFFFF AND DUP2 MSTORE PUSH1 0x20 ADD SWAP1 DUP2 MSTORE PUSH1 0x20 ADD PUSH1 0x0 KECCAK256 PUSH1 0x0 DUP6 PUSH20 0xFFFFFFFFFFFFFFFFFFFFFFFFFFFFFFFFFFFFFFFF AND PUSH20 0xFFFFFFFFFFFFFFFFFFFFFFFFFFFFFFFFFFFFFFFF AND DUP2 MSTORE PUSH1 0x20 ADD SWAP1 DUP2 MSTORE PUSH1 0x20 ADD PUSH1 0x0 KECCAK256 DUP2 SWAP1 SSTORE POP DUP3 PUSH20 0xFFFFFFFFFFFFFFFFFFFFFFFFFFFFFFFFFFFFFFFF AND CALLER PUSH20 0xFFFFFFFFFFFFFFFFFFFFFFFFFFFFFFFFFFFFFFFF AND PUSH32 0x8C5BE1E5EBEC7D5BD14F71427D1E84F3DD0314C0F7B2291E5B200AC8C7C3B925 DUP5 PUSH1 0x40 MLOAD DUP1 DUP3 DUP2 MSTORE PUSH1 0x20 ADD SWAP2 POP POP PUSH1 0x40 MLOAD DUP1 SWAP2 SUB SWAP1 LOG3 PUSH1 0x1 SWAP1 POP SWAP3 SWAP2 POP POP JUMP JUMPDEST PUSH1 0x0 DUP3 PUSH2 0x16F0 DUP4 PUSH2 0x2DA6 JUMP JUMPDEST GT SWAP1 POP SWAP3 SWAP2 POP POP JUMP JUMPDEST PUSH1 0xC SLOAD DUP2 JUMP JUMPDEST PUSH1 0x0 PUSH1 0x18 SLOAD SWAP1 POP SWAP1 JUMP JUMPDEST PUSH1 0xB SLOAD DUP2 JUMP JUMPDEST PUSH2 0x1717 PUSH2 0x2670 JUMP JUMPDEST PUSH2 0x1720 JUMPI PUSH1 0x0 DUP1 REVERT JUMPDEST DUP2 PUSH1 0x12 DUP2 SWAP1 SSTORE POP DUP1 PUSH1 0x13 DUP2 SWAP1 SSTORE POP POP POP JUMP JUMPDEST PUSH1 0x0 DUP3 PUSH1 0x0 PUSH20 0xFFFFFFFFFFFFFFFFFFFFFFFFFFFFFFFFFFFFFFFF AND DUP2 PUSH20 0xFFFFFFFFFFFFFFFFFFFFFFFFFFFFFFFFFFFFFFFF AND EQ ISZERO PUSH2 0x176F JUMPI PUSH1 0x0 DUP1 REVERT JUMPDEST PUSH32 0xFFFFFFFFFFFFFFFFFFFFFFFFFFFFFFFFFFFFFFFFFFFFFFFFFFFFFFFFFFFFFFFF PUSH1 0x1B PUSH1 0x0 DUP8 PUSH20 0xFFFFFFFFFFFFFFFFFFFFFFFFFFFFFFFFFFFFFFFF AND PUSH20 0xFFFFFFFFFFFFFFFFFFFFFFFFFFFFFFFFFFFFFFFF AND DUP2 MSTORE PUSH1 0x20 ADD SWAP1 DUP2 MSTORE PUSH1 0x20 ADD PUSH1 0x0 KECCAK256 PUSH1 0x0 CALLER PUSH20 0xFFFFFFFFFFFFFFFFFFFFFFFFFFFFFFFFFFFFFFFF AND PUSH20 0xFFFFFFFFFFFFFFFFFFFFFFFFFFFFFFFFFFFFFFFF AND DUP2 MSTORE PUSH1 0x20 ADD SWAP1 DUP2 MSTORE PUSH1 0x20 ADD PUSH1 0x0 KECCAK256 SLOAD EQ PUSH2 0x1959 JUMPI PUSH2 0x18D8 DUP4 PUSH1 0x40 MLOAD DUP1 PUSH1 0x40 ADD PUSH1 0x40 MSTORE DUP1 PUSH1 0x16 DUP2 MSTORE PUSH1 0x20 ADD PUSH32 0x496E73756666696369656E7420416C6C6F77616E636500000000000000000000 DUP2 MSTORE POP PUSH1 0x1B PUSH1 0x0 DUP10 PUSH20 0xFFFFFFFFFFFFFFFFFFFFFFFFFFFFFFFFFFFFFFFF AND PUSH20 0xFFFFFFFFFFFFFFFFFFFFFFFFFFFFFFFFFFFFFFFF AND DUP2 MSTORE PUSH1 0x20 ADD SWAP1 DUP2 MSTORE PUSH1 0x20 ADD PUSH1 0x0 KECCAK256 PUSH1 0x0 CALLER PUSH20 0xFFFFFFFFFFFFFFFFFFFFFFFFFFFFFFFFFFFFFFFF AND PUSH20 0xFFFFFFFFFFFFFFFFFFFFFFFFFFFFFFFFFFFFFFFF AND DUP2 MSTORE PUSH1 0x20 ADD SWAP1 DUP2 MSTORE PUSH1 0x20 ADD PUSH1 0x0 KECCAK256 SLOAD PUSH2 0x326A SWAP1 SWAP3 SWAP2 SWAP1 PUSH4 0xFFFFFFFF AND JUMP JUMPDEST PUSH1 0x1B PUSH1 0x0 DUP8 PUSH20 0xFFFFFFFFFFFFFFFFFFFFFFFFFFFFFFFFFFFFFFFF AND PUSH20 0xFFFFFFFFFFFFFFFFFFFFFFFFFFFFFFFFFFFFFFFF AND DUP2 MSTORE PUSH1 0x20 ADD SWAP1 DUP2 MSTORE PUSH1 0x20 ADD PUSH1 0x0 KECCAK256 PUSH1 0x0 CALLER PUSH20 0xFFFFFFFFFFFFFFFFFFFFFFFFFFFFFFFFFFFFFFFF AND PUSH20 0xFFFFFFFFFFFFFFFFFFFFFFFFFFFFFFFFFFFFFFFF AND DUP2 MSTORE PUSH1 0x20 ADD SWAP1 DUP2 MSTORE PUSH1 0x20 ADD PUSH1 0x0 KECCAK256 DUP2 SWAP1 SSTORE POP JUMPDEST PUSH2 0x1964 DUP6 DUP6 DUP6 PUSH2 0x332A JUMP JUMPDEST POP PUSH1 0x1 SWAP2 POP POP SWAP4 SWAP3 POP POP POP JUMP JUMPDEST PUSH1 0x0 PUSH2 0x1A87 PUSH1 0x19 SLOAD PUSH2 0x1A79 PUSH1 0x1A PUSH1 0x0 PUSH1 0xE PUSH1 0x0 SWAP1 SLOAD SWAP1 PUSH2 0x100 EXP SWAP1 DIV PUSH20 0xFFFFFFFFFFFFFFFFFFFFFFFFFFFFFFFFFFFFFFFF AND PUSH20 0xFFFFFFFFFFFFFFFFFFFFFFFFFFFFFFFFFFFFFFFF AND PUSH20 0xFFFFFFFFFFFFFFFFFFFFFFFFFFFFFFFFFFFFFFFF AND DUP2 MSTORE PUSH1 0x20 ADD SWAP1 DUP2 MSTORE PUSH1 0x20 ADD PUSH1 0x0 KECCAK256 SLOAD PUSH2 0x1A6B PUSH1 0x1A PUSH1 0x0 PUSH1 0xD PUSH1 0x0 SWAP1 SLOAD SWAP1 PUSH2 0x100 EXP SWAP1 DIV PUSH20 0xFFFFFFFFFFFFFFFFFFFFFFFFFFFFFFFFFFFFFFFF AND PUSH20 0xFFFFFFFFFFFFFFFFFFFFFFFFFFFFFFFFFFFFFFFF AND PUSH20 0xFFFFFFFFFFFFFFFFFFFFFFFFFFFFFFFFFFFFFFFF AND DUP2 MSTORE PUSH1 0x20 ADD SWAP1 DUP2 MSTORE PUSH1 0x20 ADD PUSH1 0x0 KECCAK256 SLOAD PUSH1 0x12 PUSH1 0xA EXP PUSH4 0xEE6B2800 MUL PUSH1 0x0 NOT DUP2 PUSH2 0x1A58 JUMPI INVALID JUMPDEST MOD PUSH1 0x0 NOT SUB PUSH2 0x366D SWAP1 SWAP2 SWAP1 PUSH4 0xFFFFFFFF AND JUMP JUMPDEST PUSH2 0x366D SWAP1 SWAP2 SWAP1 PUSH4 0xFFFFFFFF AND JUMP JUMPDEST PUSH2 0x3145 SWAP1 SWAP2 SWAP1 PUSH4 0xFFFFFFFF AND JUMP JUMPDEST SWAP1 POP SWAP1 JUMP JUMPDEST PUSH1 0xA SLOAD DUP2 JUMP JUMPDEST PUSH2 0x1A9A PUSH2 0x2670 JUMP JUMPDEST PUSH2 0x1AA3 JUMPI PUSH1 0x0 DUP1 REVERT JUMPDEST PUSH1 0x1 PUSH1 0x4 PUSH1 0x14 PUSH2 0x100 EXP DUP2 SLOAD DUP2 PUSH1 0xFF MUL NOT AND SWAP1 DUP4 ISZERO ISZERO MUL OR SWAP1 SSTORE POP JUMP JUMPDEST PUSH2 0x1AC8 PUSH2 0x2670 JUMP JUMPDEST PUSH2 0x1AD1 JUMPI PUSH1 0x0 DUP1 REVERT JUMPDEST DUP1 PUSH1 0x4 PUSH1 0x0 PUSH2 0x100 EXP DUP2 SLOAD DUP2 PUSH20 0xFFFFFFFFFFFFFFFFFFFFFFFFFFFFFFFFFFFFFFFF MUL NOT AND SWAP1 DUP4 PUSH20 0xFFFFFFFFFFFFFFFFFFFFFFFFFFFFFFFFFFFFFFFF AND MUL OR SWAP1 SSTORE POP PUSH1 0x6 PUSH1 0x0 DUP3 PUSH20 0xFFFFFFFFFFFFFFFFFFFFFFFFFFFFFFFFFFFFFFFF AND PUSH20 0xFFFFFFFFFFFFFFFFFFFFFFFFFFFFFFFFFFFFFFFF AND DUP2 MSTORE PUSH1 0x20 ADD SWAP1 DUP2 MSTORE PUSH1 0x20 ADD PUSH1 0x0 KECCAK256 PUSH1 0x0 SWAP1 SLOAD SWAP1 PUSH2 0x100 EXP SWAP1 POP POP POP JUMP JUMPDEST PUSH2 0x1B68 PUSH2 0x2670 JUMP JUMPDEST PUSH2 0x1B71 JUMPI PUSH1 0x0 DUP1 REVERT JUMPDEST PUSH2 0x1B7A DUP2 PUSH2 0x36B7 JUMP JUMPDEST POP JUMP JUMPDEST PUSH1 0x0 PUSH1 0x2 PUSH1 0x0 SWAP1 SLOAD SWAP1 PUSH2 0x100 EXP SWAP1 DIV PUSH1 0xFF AND SWAP1 POP SWAP1 JUMP JUMPDEST PUSH1 0x0 PUSH2 0x1B9E PUSH2 0x2670 JUMP JUMPDEST PUSH2 0x1BA7 JUMPI PUSH1 0x0 DUP1 REVERT JUMPDEST DUP3 PUSH20 0xFFFFFFFFFFFFFFFFFFFFFFFFFFFFFFFFFFFFFFFF AND PUSH4 0xA9059CBB CALLER DUP5 PUSH1 0x40 MLOAD DUP4 PUSH4 0xFFFFFFFF AND PUSH1 0xE0 SHL DUP2 MSTORE PUSH1 0x4 ADD DUP1 DUP4 PUSH20 0xFFFFFFFFFFFFFFFFFFFFFFFFFFFFFFFFFFFFFFFF AND DUP2 MSTORE PUSH1 0x20 ADD DUP3 DUP2 MSTORE PUSH1 0x20 ADD SWAP3 POP POP POP PUSH1 0x20 PUSH1 0x40 MLOAD DUP1 DUP4 SUB DUP2 PUSH1 0x0 DUP8 DUP1 EXTCODESIZE ISZERO DUP1 ISZERO PUSH2 0x1C18 JUMPI PUSH1 0x0 DUP1 REVERT JUMPDEST POP GAS CALL ISZERO DUP1 ISZERO PUSH2 0x1C2C JUMPI RETURNDATASIZE PUSH1 0x0 DUP1 RETURNDATACOPY RETURNDATASIZE PUSH1 0x0 REVERT JUMPDEST POP POP POP POP PUSH1 0x40 MLOAD RETURNDATASIZE PUSH1 0x20 DUP2 LT ISZERO PUSH2 0x1C42 JUMPI PUSH1 0x0 DUP1 REVERT JUMPDEST DUP2 ADD SWAP1 DUP1 DUP1 MLOAD SWAP1 PUSH1 0x20 ADD SWAP1 SWAP3 SWAP2 SWAP1 POP POP POP SWAP1 POP SWAP3 SWAP2 POP POP JUMP JUMPDEST PUSH1 0x0 PUSH1 0x4 PUSH1 0x14 SWAP1 SLOAD SWAP1 PUSH2 0x100 EXP SWAP1 DIV PUSH1 0xFF AND DUP1 PUSH2 0x1C7C JUMPI POP PUSH2 0x1C7B PUSH2 0x2670 JUMP JUMPDEST JUMPDEST DUP1 PUSH2 0x1CD0 JUMPI POP PUSH1 0x5 PUSH1 0x0 CALLER PUSH20 0xFFFFFFFFFFFFFFFFFFFFFFFFFFFFFFFFFFFFFFFF AND PUSH20 0xFFFFFFFFFFFFFFFFFFFFFFFFFFFFFFFFFFFFFFFF AND DUP2 MSTORE PUSH1 0x20 ADD SWAP1 DUP2 MSTORE PUSH1 0x20 ADD PUSH1 0x0 KECCAK256 PUSH1 0x0 SWAP1 SLOAD SWAP1 PUSH2 0x100 EXP SWAP1 DIV PUSH1 0xFF AND JUMPDEST PUSH2 0x1CD9 JUMPI PUSH1 0x0 DUP1 REVERT JUMPDEST PUSH2 0x1D68 DUP3 PUSH1 0x1B PUSH1 0x0 CALLER PUSH20 0xFFFFFFFFFFFFFFFFFFFFFFFFFFFFFFFFFFFFFFFF AND PUSH20 0xFFFFFFFFFFFFFFFFFFFFFFFFFFFFFFFFFFFFFFFF AND DUP2 MSTORE PUSH1 0x20 ADD SWAP1 DUP2 MSTORE PUSH1 0x20 ADD PUSH1 0x0 KECCAK256 PUSH1 0x0 DUP7 PUSH20 0xFFFFFFFFFFFFFFFFFFFFFFFFFFFFFFFFFFFFFFFF AND PUSH20 0xFFFFFFFFFFFFFFFFFFFFFFFFFFFFFFFFFFFFFFFF AND DUP2 MSTORE PUSH1 0x20 ADD SWAP1 DUP2 MSTORE PUSH1 0x20 ADD PUSH1 0x0 KECCAK256 SLOAD PUSH2 0x30BD SWAP1 SWAP2 SWAP1 PUSH4 0xFFFFFFFF AND JUMP JUMPDEST PUSH1 0x1B PUSH1 0x0 CALLER PUSH20 0xFFFFFFFFFFFFFFFFFFFFFFFFFFFFFFFFFFFFFFFF AND PUSH20 0xFFFFFFFFFFFFFFFFFFFFFFFFFFFFFFFFFFFFFFFF AND DUP2 MSTORE PUSH1 0x20 ADD SWAP1 DUP2 MSTORE PUSH1 0x20 ADD PUSH1 0x0 KECCAK256 PUSH1 0x0 DUP6 PUSH20 0xFFFFFFFFFFFFFFFFFFFFFFFFFFFFFFFFFFFFFFFF AND PUSH20 0xFFFFFFFFFFFFFFFFFFFFFFFFFFFFFFFFFFFFFFFF AND DUP2 MSTORE PUSH1 0x20 ADD SWAP1 DUP2 MSTORE PUSH1 0x20 ADD PUSH1 0x0 KECCAK256 DUP2 SWAP1 SSTORE POP DUP3 PUSH20 0xFFFFFFFFFFFFFFFFFFFFFFFFFFFFFFFFFFFFFFFF AND CALLER PUSH20 0xFFFFFFFFFFFFFFFFFFFFFFFFFFFFFFFFFFFFFFFF AND PUSH32 0x8C5BE1E5EBEC7D5BD14F71427D1E84F3DD0314C0F7B2291E5B200AC8C7C3B925 PUSH1 0x1B PUSH1 0x0 CALLER PUSH20 0xFFFFFFFFFFFFFFFFFFFFFFFFFFFFFFFFFFFFFFFF AND PUSH20 0xFFFFFFFFFFFFFFFFFFFFFFFFFFFFFFFFFFFFFFFF AND DUP2 MSTORE PUSH1 0x20 ADD SWAP1 DUP2 MSTORE PUSH1 0x20 ADD PUSH1 0x0 KECCAK256 PUSH1 0x0 DUP8 PUSH20 0xFFFFFFFFFFFFFFFFFFFFFFFFFFFFFFFFFFFFFFFF AND PUSH20 0xFFFFFFFFFFFFFFFFFFFFFFFFFFFFFFFFFFFFFFFF AND DUP2 MSTORE PUSH1 0x20 ADD SWAP1 DUP2 MSTORE PUSH1 0x20 ADD PUSH1 0x0 KECCAK256 SLOAD PUSH1 0x40 MLOAD DUP1 DUP3 DUP2 MSTORE PUSH1 0x20 ADD SWAP2 POP POP PUSH1 0x40 MLOAD DUP1 SWAP2 SUB SWAP1 LOG3 PUSH1 0x1 SWAP1 POP SWAP3 SWAP2 POP POP JUMP JUMPDEST PUSH2 0x1EDC CALLER PUSH2 0x2C07 JUMP JUMPDEST PUSH2 0x1F31 JUMPI PUSH1 0x40 MLOAD PUSH32 0x8C379A000000000000000000000000000000000000000000000000000000000 DUP2 MSTORE PUSH1 0x4 ADD DUP1 DUP1 PUSH1 0x20 ADD DUP3 DUP2 SUB DUP3 MSTORE PUSH1 0x30 DUP2 MSTORE PUSH1 0x20 ADD DUP1 PUSH2 0x4726 PUSH1 0x30 SWAP2 CODECOPY PUSH1 0x40 ADD SWAP2 POP POP PUSH1 0x40 MLOAD DUP1 SWAP2 SUB SWAP1 REVERT JUMPDEST PUSH2 0x1F46 DUP2 PUSH1 0x18 SLOAD PUSH2 0x30BD SWAP1 SWAP2 SWAP1 PUSH4 0xFFFFFFFF AND JUMP JUMPDEST PUSH1 0x18 DUP2 SWAP1 SSTORE POP PUSH1 0x0 NOT PUSH16 0xFFFFFFFFFFFFFFFFFFFFFFFFFFFFFFFF AND PUSH1 0x18 SLOAD GT ISZERO PUSH2 0x1F86 JUMPI PUSH1 0x0 NOT PUSH16 0xFFFFFFFFFFFFFFFFFFFFFFFFFFFFFFFF AND PUSH1 0x18 DUP2 SWAP1 SSTORE POP JUMPDEST PUSH2 0x1FB4 PUSH1 0x18 SLOAD PUSH1 0x12 PUSH1 0xA EXP PUSH4 0xEE6B2800 MUL PUSH1 0x0 NOT DUP2 PUSH2 0x1FA1 JUMPI INVALID JUMPDEST MOD PUSH1 0x0 NOT SUB PUSH2 0x3145 SWAP1 SWAP2 SWAP1 PUSH4 0xFFFFFFFF AND JUMP JUMPDEST PUSH1 0x19 DUP2 SWAP1 SSTORE POP PUSH1 0x4 PUSH1 0x0 SWAP1 SLOAD SWAP1 PUSH2 0x100 EXP SWAP1 DIV PUSH20 0xFFFFFFFFFFFFFFFFFFFFFFFFFFFFFFFFFFFFFFFF AND PUSH20 0xFFFFFFFFFFFFFFFFFFFFFFFFFFFFFFFFFFFFFFFF AND PUSH4 0xFFF6CAE9 PUSH1 0x40 MLOAD DUP2 PUSH4 0xFFFFFFFF AND PUSH1 0xE0 SHL DUP2 MSTORE PUSH1 0x4 ADD PUSH1 0x0 PUSH1 0x40 MLOAD DUP1 DUP4 SUB DUP2 PUSH1 0x0 DUP8 DUP1 EXTCODESIZE ISZERO DUP1 ISZERO PUSH2 0x2024 JUMPI PUSH1 0x0 DUP1 REVERT JUMPDEST POP GAS CALL ISZERO DUP1 ISZERO PUSH2 0x2038 JUMPI RETURNDATASIZE PUSH1 0x0 DUP1 RETURNDATACOPY RETURNDATASIZE PUSH1 0x0 REVERT JUMPDEST POP POP POP POP PUSH2 0x208E DUP2 PUSH1 0x1A PUSH1 0x0 DUP6 PUSH20 0xFFFFFFFFFFFFFFFFFFFFFFFFFFFFFFFFFFFFFFFF AND PUSH20 0xFFFFFFFFFFFFFFFFFFFFFFFFFFFFFFFFFFFFFFFF AND DUP2 MSTORE PUSH1 0x20 ADD SWAP1 DUP2 MSTORE PUSH1 0x20 ADD PUSH1 0x0 KECCAK256 SLOAD PUSH2 0x30BD SWAP1 SWAP2 SWAP1 PUSH4 0xFFFFFFFF AND JUMP JUMPDEST PUSH1 0x1A PUSH1 0x0 DUP5 PUSH20 0xFFFFFFFFFFFFFFFFFFFFFFFFFFFFFFFFFFFFFFFF AND PUSH20 0xFFFFFFFFFFFFFFFFFFFFFFFFFFFFFFFFFFFFFFFF AND DUP2 MSTORE PUSH1 0x20 ADD SWAP1 DUP2 MSTORE PUSH1 0x20 ADD PUSH1 0x0 KECCAK256 DUP2 SWAP1 SSTORE POP POP POP JUMP JUMPDEST PUSH1 0x4 PUSH1 0x0 SWAP1 SLOAD SWAP1 PUSH2 0x100 EXP SWAP1 DIV PUSH20 0xFFFFFFFFFFFFFFFFFFFFFFFFFFFFFFFFFFFFFFFF AND DUP2 JUMP JUMPDEST PUSH1 0x8 SLOAD DUP2 JUMP JUMPDEST PUSH2 0x2109 PUSH2 0x2670 JUMP JUMPDEST PUSH2 0x2112 JUMPI PUSH1 0x0 DUP1 REVERT JUMPDEST PUSH1 0x0 SELFBALANCE SWAP1 POP DUP2 PUSH20 0xFFFFFFFFFFFFFFFFFFFFFFFFFFFFFFFFFFFFFFFF AND PUSH2 0x8FC PUSH1 0x64 DUP6 DUP5 MUL DUP2 PUSH2 0x213D JUMPI INVALID JUMPDEST DIV SWAP1 DUP2 ISZERO MUL SWAP1 PUSH1 0x40 MLOAD PUSH1 0x0 PUSH1 0x40 MLOAD DUP1 DUP4 SUB DUP2 DUP6 DUP9 DUP9 CALL SWAP4 POP POP POP POP ISZERO DUP1 ISZERO PUSH2 0x2169 JUMPI RETURNDATASIZE PUSH1 0x0 DUP1 RETURNDATACOPY RETURNDATASIZE PUSH1 0x0 REVERT JUMPDEST POP POP POP POP JUMP JUMPDEST PUSH1 0x0 PUSH2 0x2188 PUSH1 0x19 SLOAD PUSH1 0x16 SLOAD PUSH2 0x3145 SWAP1 SWAP2 SWAP1 PUSH4 0xFFFFFFFF AND JUMP JUMPDEST SWAP1 POP SWAP1 JUMP JUMPDEST PUSH1 0x15 PUSH1 0x14 SWAP1 SLOAD SWAP1 PUSH2 0x100 EXP SWAP1 DIV PUSH1 0xFF AND DUP2 JUMP JUMPDEST PUSH1 0x0 PUSH2 0x21F6 PUSH1 0x19 SLOAD PUSH1 0x1A PUSH1 0x0 DUP6 PUSH20 0xFFFFFFFFFFFFFFFFFFFFFFFFFFFFFFFFFFFFFFFF AND PUSH20 0xFFFFFFFFFFFFFFFFFFFFFFFFFFFFFFFFFFFFFFFF AND DUP2 MSTORE PUSH1 0x20 ADD SWAP1 DUP2 MSTORE PUSH1 0x20 ADD PUSH1 0x0 KECCAK256 SLOAD PUSH2 0x3145 SWAP1 SWAP2 SWAP1 PUSH4 0xFFFFFFFF AND JUMP JUMPDEST SWAP1 POP SWAP2 SWAP1 POP JUMP JUMPDEST PUSH2 0x2205 PUSH2 0x2670 JUMP JUMPDEST PUSH2 0x220E JUMPI PUSH1 0x0 DUP1 REVERT JUMPDEST PUSH1 0x2 PUSH1 0x1 SWAP1 SLOAD SWAP1 PUSH2 0x100 EXP SWAP1 DIV PUSH20 0xFFFFFFFFFFFFFFFFFFFFFFFFFFFFFFFFFFFFFFFF AND PUSH20 0xFFFFFFFFFFFFFFFFFFFFFFFFFFFFFFFFFFFFFFFF AND PUSH32 0xF8DF31144D9C2F0F6B59D69B8B98ABD5459D07F2742C4DF920B25AAE33C64820 PUSH1 0x40 MLOAD PUSH1 0x40 MLOAD DUP1 SWAP2 SUB SWAP1 LOG2 PUSH1 0x0 PUSH1 0x2 PUSH1 0x1 PUSH2 0x100 EXP DUP2 SLOAD DUP2 PUSH20 0xFFFFFFFFFFFFFFFFFFFFFFFFFFFFFFFFFFFFFFFF MUL NOT AND SWAP1 DUP4 PUSH20 0xFFFFFFFFFFFFFFFFFFFFFFFFFFFFFFFFFFFFFFFF AND MUL OR SWAP1 SSTORE POP JUMP JUMPDEST PUSH2 0x22BF PUSH2 0x2670 JUMP JUMPDEST PUSH2 0x22C8 JUMPI PUSH1 0x0 DUP1 REVERT JUMPDEST PUSH1 0x1 PUSH1 0x6 PUSH1 0x0 DUP4 PUSH20 0xFFFFFFFFFFFFFFFFFFFFFFFFFFFFFFFFFFFFFFFF AND PUSH20 0xFFFFFFFFFFFFFFFFFFFFFFFFFFFFFFFFFFFFFFFF AND DUP2 MSTORE PUSH1 0x20 ADD SWAP1 DUP2 MSTORE PUSH1 0x20 ADD PUSH1 0x0 KECCAK256 PUSH1 0x0 PUSH2 0x100 EXP DUP2 SLOAD DUP2 PUSH1 0xFF MUL NOT AND SWAP1 DUP4 ISZERO ISZERO MUL OR SWAP1 SSTORE POP POP JUMP JUMPDEST PUSH1 0x15 PUSH1 0x0 SWAP1 SLOAD SWAP1 PUSH2 0x100 EXP SWAP1 DIV PUSH20 0xFFFFFFFFFFFFFFFFFFFFFFFFFFFFFFFFFFFFFFFF AND PUSH20 0xFFFFFFFFFFFFFFFFFFFFFFFFFFFFFFFFFFFFFFFF AND PUSH4 0xFFF6CAE9 PUSH1 0x40 MLOAD DUP2 PUSH4 0xFFFFFFFF AND PUSH1 0xE0 SHL DUP2 MSTORE PUSH1 0x4 ADD PUSH1 0x0 PUSH1 0x40 MLOAD DUP1 DUP4 SUB DUP2 PUSH1 0x0 DUP8 DUP1 EXTCODESIZE ISZERO DUP1 ISZERO PUSH2 0x238D JUMPI PUSH1 0x0 DUP1 REVERT JUMPDEST POP GAS CALL ISZERO DUP1 ISZERO PUSH2 0x23A1 JUMPI RETURNDATASIZE PUSH1 0x0 DUP1 RETURNDATACOPY RETURNDATASIZE PUSH1 0x0 REVERT JUMPDEST POP POP POP POP JUMP JUMPDEST PUSH1 0x0 PUSH2 0x23B1 PUSH2 0x2670 JUMP JUMPDEST PUSH2 0x23BA JUMPI PUSH1 0x0 DUP1 REVERT JUMPDEST PUSH1 0x17 PUSH1 0x0 SWAP1 SLOAD SWAP1 PUSH2 0x100 EXP SWAP1 DIV PUSH1 0xFF AND ISZERO PUSH2 0x243D JUMPI PUSH1 0x40 MLOAD PUSH32 0x8C379A000000000000000000000000000000000000000000000000000000000 DUP2 MSTORE PUSH1 0x4 ADD DUP1 DUP1 PUSH1 0x20 ADD DUP3 DUP2 SUB DUP3 MSTORE PUSH1 0x9 DUP2 MSTORE PUSH1 0x20 ADD DUP1 PUSH32 0x54727920616761696E0000000000000000000000000000000000000000000000 DUP2 MSTORE POP PUSH1 0x20 ADD SWAP2 POP POP PUSH1 0x40 MLOAD DUP1 SWAP2 SUB SWAP1 REVERT JUMPDEST PUSH1 0x0 DUP3 EQ ISZERO PUSH2 0x248A JUMPI DUP3 PUSH32 0x72725A3B1E5BD622D6BCD1339BB31279C351ABE8F541AC7FD320F24E1B1641F2 PUSH1 0x18 SLOAD PUSH1 0x40 MLOAD DUP1 DUP3 DUP2 MSTORE PUSH1 0x20 ADD SWAP2 POP POP PUSH1 0x40 MLOAD DUP1 SWAP2 SUB SWAP1 LOG2 PUSH1 0x18 SLOAD SWAP1 POP PUSH2 0x2602 JUMP JUMPDEST PUSH1 0x0 DUP3 SLT ISZERO PUSH2 0x24B6 JUMPI PUSH2 0x24AB DUP3 PUSH1 0x0 SUB PUSH1 0x18 SLOAD PUSH2 0x366D SWAP1 SWAP2 SWAP1 PUSH4 0xFFFFFFFF AND JUMP JUMPDEST PUSH1 0x18 DUP2 SWAP1 SSTORE POP PUSH2 0x24D2 JUMP JUMPDEST PUSH2 0x24CB DUP3 PUSH1 0x18 SLOAD PUSH2 0x30BD SWAP1 SWAP2 SWAP1 PUSH4 0xFFFFFFFF AND JUMP JUMPDEST PUSH1 0x18 DUP2 SWAP1 SSTORE POP JUMPDEST PUSH1 0x0 NOT PUSH16 0xFFFFFFFFFFFFFFFFFFFFFFFFFFFFFFFF AND PUSH1 0x18 SLOAD GT ISZERO PUSH2 0x250C JUMPI PUSH1 0x0 NOT PUSH16 0xFFFFFFFFFFFFFFFFFFFFFFFFFFFFFFFF AND PUSH1 0x18 DUP2 SWAP1 SSTORE POP JUMPDEST PUSH2 0x253A PUSH1 0x18 SLOAD PUSH1 0x12 PUSH1 0xA EXP PUSH4 0xEE6B2800 MUL PUSH1 0x0 NOT DUP2 PUSH2 0x2527 JUMPI INVALID JUMPDEST MOD PUSH1 0x0 NOT SUB PUSH2 0x3145 SWAP1 SWAP2 SWAP1 PUSH4 0xFFFFFFFF AND JUMP JUMPDEST PUSH1 0x19 DUP2 SWAP1 SSTORE POP PUSH1 0x4 PUSH1 0x0 SWAP1 SLOAD SWAP1 PUSH2 0x100 EXP SWAP1 DIV PUSH20 0xFFFFFFFFFFFFFFFFFFFFFFFFFFFFFFFFFFFFFFFF AND PUSH20 0xFFFFFFFFFFFFFFFFFFFFFFFFFFFFFFFFFFFFFFFF AND PUSH4 0xFFF6CAE9 PUSH1 0x40 MLOAD DUP2 PUSH4 0xFFFFFFFF AND PUSH1 0xE0 SHL DUP2 MSTORE PUSH1 0x4 ADD PUSH1 0x0 PUSH1 0x40 MLOAD DUP1 DUP4 SUB DUP2 PUSH1 0x0 DUP8 DUP1 EXTCODESIZE ISZERO DUP1 ISZERO PUSH2 0x25AA JUMPI PUSH1 0x0 DUP1 REVERT JUMPDEST POP GAS CALL ISZERO DUP1 ISZERO PUSH2 0x25BE JUMPI RETURNDATASIZE PUSH1 0x0 DUP1 RETURNDATACOPY RETURNDATASIZE PUSH1 0x0 REVERT JUMPDEST POP POP POP POP DUP3 PUSH32 0x72725A3B1E5BD622D6BCD1339BB31279C351ABE8F541AC7FD320F24E1B1641F2 PUSH1 0x18 SLOAD PUSH1 0x40 MLOAD DUP1 DUP3 DUP2 MSTORE PUSH1 0x20 ADD SWAP2 POP POP PUSH1 0x40 MLOAD DUP1 SWAP2 SUB SWAP1 LOG2 PUSH1 0x18 SLOAD SWAP1 POP JUMPDEST SWAP3 SWAP2 POP POP JUMP JUMPDEST PUSH1 0x10 PUSH1 0x0 SWAP1 SLOAD SWAP1 PUSH2 0x100 EXP SWAP1 DIV PUSH20 0xFFFFFFFFFFFFFFFFFFFFFFFFFFFFFFFFFFFFFFFF AND DUP2 JUMP JUMPDEST PUSH1 0x0 PUSH1 0x17 PUSH1 0x0 SWAP1 SLOAD SWAP1 PUSH2 0x100 EXP SWAP1 DIV PUSH1 0xFF AND ISZERO SWAP1 POP SWAP1 JUMP JUMPDEST PUSH1 0x0 PUSH1 0x2 PUSH1 0x1 SWAP1 SLOAD SWAP1 PUSH2 0x100 EXP SWAP1 DIV PUSH20 0xFFFFFFFFFFFFFFFFFFFFFFFFFFFFFFFFFFFFFFFF AND SWAP1 POP SWAP1 JUMP JUMPDEST PUSH1 0x0 PUSH1 0x2 PUSH1 0x1 SWAP1 SLOAD SWAP1 PUSH2 0x100 EXP SWAP1 DIV PUSH20 0xFFFFFFFFFFFFFFFFFFFFFFFFFFFFFFFFFFFFFFFF AND PUSH20 0xFFFFFFFFFFFFFFFFFFFFFFFFFFFFFFFFFFFFFFFF AND CALLER PUSH20 0xFFFFFFFFFFFFFFFFFFFFFFFFFFFFFFFFFFFFFFFF AND EQ SWAP1 POP SWAP1 JUMP JUMPDEST PUSH2 0x26D0 PUSH2 0x2670 JUMP JUMPDEST PUSH2 0x26D9 JUMPI PUSH1 0x0 DUP1 REVERT JUMPDEST DUP1 PUSH1 0x1C PUSH1 0x0 DUP5 PUSH20 0xFFFFFFFFFFFFFFFFFFFFFFFFFFFFFFFFFFFFFFFF AND PUSH20 0xFFFFFFFFFFFFFFFFFFFFFFFFFFFFFFFFFFFFFFFF AND DUP2 MSTORE PUSH1 0x20 ADD SWAP1 DUP2 MSTORE PUSH1 0x20 ADD PUSH1 0x0 KECCAK256 PUSH1 0x0 PUSH2 0x100 EXP DUP2 SLOAD DUP2 PUSH1 0xFF MUL NOT AND SWAP1 DUP4 ISZERO ISZERO MUL OR SWAP1 SSTORE POP POP POP JUMP JUMPDEST PUSH1 0x60 PUSH1 0x1 DUP1 SLOAD PUSH1 0x1 DUP2 PUSH1 0x1 AND ISZERO PUSH2 0x100 MUL SUB AND PUSH1 0x2 SWAP1 DIV DUP1 PUSH1 0x1F ADD PUSH1 0x20 DUP1 SWAP2 DIV MUL PUSH1 0x20 ADD PUSH1 0x40 MLOAD SWAP1 DUP2 ADD PUSH1 0x40 MSTORE DUP1 SWAP3 SWAP2 SWAP1 DUP2 DUP2 MSTORE PUSH1 0x20 ADD DUP3 DUP1 SLOAD PUSH1 0x1 DUP2 PUSH1 0x1 AND ISZERO PUSH2 0x100 MUL SUB AND PUSH1 0x2 SWAP1 DIV DUP1 ISZERO PUSH2 0x27CC JUMPI DUP1 PUSH1 0x1F LT PUSH2 0x27A1 JUMPI PUSH2 0x100 DUP1 DUP4 SLOAD DIV MUL DUP4 MSTORE SWAP2 PUSH1 0x20 ADD SWAP2 PUSH2 0x27CC JUMP JUMPDEST DUP3 ADD SWAP2 SWAP1 PUSH1 0x0 MSTORE PUSH1 0x20 PUSH1 0x0 KECCAK256 SWAP1 JUMPDEST DUP2 SLOAD DUP2 MSTORE SWAP1 PUSH1 0x1 ADD SWAP1 PUSH1 0x20 ADD DUP1 DUP4 GT PUSH2 0x27AF JUMPI DUP3 SWAP1 SUB PUSH1 0x1F AND DUP3 ADD SWAP2 JUMPDEST POP POP POP POP POP SWAP1 POP SWAP1 JUMP JUMPDEST PUSH1 0x7 SLOAD DUP2 JUMP JUMPDEST PUSH2 0x27E4 PUSH2 0x2670 JUMP JUMPDEST PUSH2 0x27ED JUMPI PUSH1 0x0 DUP1 REVERT JUMPDEST PUSH2 0x27F6 DUP2 PUSH2 0x3711 JUMP JUMPDEST POP JUMP JUMPDEST PUSH2 0x2802 CALLER PUSH2 0x36B7 JUMP JUMPDEST JUMP JUMPDEST PUSH1 0x0 PUSH1 0x4 PUSH1 0x14 SWAP1 SLOAD SWAP1 PUSH2 0x100 EXP SWAP1 DIV PUSH1 0xFF AND DUP1 PUSH2 0x2825 JUMPI POP PUSH2 0x2824 PUSH2 0x2670 JUMP JUMPDEST JUMPDEST DUP1 PUSH2 0x2879 JUMPI POP PUSH1 0x5 PUSH1 0x0 CALLER PUSH20 0xFFFFFFFFFFFFFFFFFFFFFFFFFFFFFFFFFFFFFFFF AND PUSH20 0xFFFFFFFFFFFFFFFFFFFFFFFFFFFFFFFFFFFFFFFF AND DUP2 MSTORE PUSH1 0x20 ADD SWAP1 DUP2 MSTORE PUSH1 0x20 ADD PUSH1 0x0 KECCAK256 PUSH1 0x0 SWAP1 SLOAD SWAP1 PUSH2 0x100 EXP SWAP1 DIV PUSH1 0xFF AND JUMPDEST PUSH2 0x2882 JUMPI PUSH1 0x0 DUP1 REVERT JUMPDEST PUSH1 0x0 PUSH1 0x1B PUSH1 0x0 CALLER PUSH20 0xFFFFFFFFFFFFFFFFFFFFFFFFFFFFFFFFFFFFFFFF AND PUSH20 0xFFFFFFFFFFFFFFFFFFFFFFFFFFFFFFFFFFFFFFFF AND DUP2 MSTORE PUSH1 0x20 ADD SWAP1 DUP2 MSTORE PUSH1 0x20 ADD PUSH1 0x0 KECCAK256 PUSH1 0x0 DUP6 PUSH20 0xFFFFFFFFFFFFFFFFFFFFFFFFFFFFFFFFFFFFFFFF AND PUSH20 0xFFFFFFFFFFFFFFFFFFFFFFFFFFFFFFFFFFFFFFFF AND DUP2 MSTORE PUSH1 0x20 ADD SWAP1 DUP2 MSTORE PUSH1 0x20 ADD PUSH1 0x0 KECCAK256 SLOAD SWAP1 POP DUP1 DUP4 LT PUSH2 0x2991 JUMPI PUSH1 0x0 PUSH1 0x1B PUSH1 0x0 CALLER PUSH20 0xFFFFFFFFFFFFFFFFFFFFFFFFFFFFFFFFFFFFFFFF AND PUSH20 0xFFFFFFFFFFFFFFFFFFFFFFFFFFFFFFFFFFFFFFFF AND DUP2 MSTORE PUSH1 0x20 ADD SWAP1 DUP2 MSTORE PUSH1 0x20 ADD PUSH1 0x0 KECCAK256 PUSH1 0x0 DUP7 PUSH20 0xFFFFFFFFFFFFFFFFFFFFFFFFFFFFFFFFFFFFFFFF AND PUSH20 0xFFFFFFFFFFFFFFFFFFFFFFFFFFFFFFFFFFFFFFFF AND DUP2 MSTORE PUSH1 0x20 ADD SWAP1 DUP2 MSTORE PUSH1 0x20 ADD PUSH1 0x0 KECCAK256 DUP2 SWAP1 SSTORE POP PUSH2 0x2A25 JUMP JUMPDEST PUSH2 0x29A4 DUP4 DUP3 PUSH2 0x366D SWAP1 SWAP2 SWAP1 PUSH4 0xFFFFFFFF AND JUMP JUMPDEST PUSH1 0x1B PUSH1 0x0 CALLER PUSH20 0xFFFFFFFFFFFFFFFFFFFFFFFFFFFFFFFFFFFFFFFF AND PUSH20 0xFFFFFFFFFFFFFFFFFFFFFFFFFFFFFFFFFFFFFFFF AND DUP2 MSTORE PUSH1 0x20 ADD SWAP1 DUP2 MSTORE PUSH1 0x20 ADD PUSH1 0x0 KECCAK256 PUSH1 0x0 DUP7 PUSH20 0xFFFFFFFFFFFFFFFFFFFFFFFFFFFFFFFFFFFFFFFF AND PUSH20 0xFFFFFFFFFFFFFFFFFFFFFFFFFFFFFFFFFFFFFFFF AND DUP2 MSTORE PUSH1 0x20 ADD SWAP1 DUP2 MSTORE PUSH1 0x20 ADD PUSH1 0x0 KECCAK256 DUP2 SWAP1 SSTORE POP JUMPDEST DUP4 PUSH20 0xFFFFFFFFFFFFFFFFFFFFFFFFFFFFFFFFFFFFFFFF AND CALLER PUSH20 0xFFFFFFFFFFFFFFFFFFFFFFFFFFFFFFFFFFFFFFFF AND PUSH32 0x8C5BE1E5EBEC7D5BD14F71427D1E84F3DD0314C0F7B2291E5B200AC8C7C3B925 PUSH1 0x1B PUSH1 0x0 CALLER PUSH20 0xFFFFFFFFFFFFFFFFFFFFFFFFFFFFFFFFFFFFFFFF AND PUSH20 0xFFFFFFFFFFFFFFFFFFFFFFFFFFFFFFFFFFFFFFFF AND DUP2 MSTORE PUSH1 0x20 ADD SWAP1 DUP2 MSTORE PUSH1 0x20 ADD PUSH1 0x0 KECCAK256 PUSH1 0x0 DUP9 PUSH20 0xFFFFFFFFFFFFFFFFFFFFFFFFFFFFFFFFFFFFFFFF AND PUSH20 0xFFFFFFFFFFFFFFFFFFFFFFFFFFFFFFFFFFFFFFFF AND DUP2 MSTORE PUSH1 0x20 ADD SWAP1 DUP2 MSTORE PUSH1 0x20 ADD PUSH1 0x0 KECCAK256 SLOAD PUSH1 0x40 MLOAD DUP1 DUP3 DUP2 MSTORE PUSH1 0x20 ADD SWAP2 POP POP PUSH1 0x40 MLOAD DUP1 SWAP2 SUB SWAP1 LOG3 PUSH1 0x1 SWAP2 POP POP SWAP3 SWAP2 POP POP JUMP JUMPDEST PUSH1 0x15 PUSH1 0x0 SWAP1 SLOAD SWAP1 PUSH2 0x100 EXP SWAP1 DIV PUSH20 0xFFFFFFFFFFFFFFFFFFFFFFFFFFFFFFFFFFFFFFFF AND DUP2 JUMP JUMPDEST PUSH1 0x0 DUP3 PUSH1 0x0 PUSH20 0xFFFFFFFFFFFFFFFFFFFFFFFFFFFFFFFFFFFFFFFF AND DUP2 PUSH20 0xFFFFFFFFFFFFFFFFFFFFFFFFFFFFFFFFFFFFFFFF AND EQ ISZERO PUSH2 0x2B74 JUMPI PUSH1 0x0 DUP1 REVERT JUMPDEST PUSH1 0x4 PUSH1 0x14 SWAP1 SLOAD SWAP1 PUSH2 0x100 EXP SWAP1 DIV PUSH1 0xFF AND DUP1 PUSH2 0x2B93 JUMPI POP PUSH2 0x2B92 PUSH2 0x2670 JUMP JUMPDEST JUMPDEST DUP1 PUSH2 0x2BE7 JUMPI POP PUSH1 0x5 PUSH1 0x0 CALLER PUSH20 0xFFFFFFFFFFFFFFFFFFFFFFFFFFFFFFFFFFFFFFFF AND PUSH20 0xFFFFFFFFFFFFFFFFFFFFFFFFFFFFFFFFFFFFFFFF AND DUP2 MSTORE PUSH1 0x20 ADD SWAP1 DUP2 MSTORE PUSH1 0x20 ADD PUSH1 0x0 KECCAK256 PUSH1 0x0 SWAP1 SLOAD SWAP1 PUSH2 0x100 EXP SWAP1 DIV PUSH1 0xFF AND JUMPDEST PUSH2 0x2BF0 JUMPI PUSH1 0x0 DUP1 REVERT JUMPDEST PUSH2 0x2BFB CALLER DUP6 DUP6 PUSH2 0x332A JUMP JUMPDEST POP PUSH1 0x1 SWAP2 POP POP SWAP3 SWAP2 POP POP JUMP JUMPDEST PUSH1 0x0 PUSH2 0x2C1D DUP3 PUSH1 0x3 PUSH2 0x376B SWAP1 SWAP2 SWAP1 PUSH4 0xFFFFFFFF AND JUMP JUMPDEST SWAP1 POP SWAP2 SWAP1 POP JUMP JUMPDEST PUSH1 0x9 SLOAD DUP2 JUMP JUMPDEST PUSH1 0xF PUSH1 0x0 SWAP1 SLOAD SWAP1 PUSH2 0x100 EXP SWAP1 DIV PUSH20 0xFFFFFFFFFFFFFFFFFFFFFFFFFFFFFFFFFFFFFFFF AND DUP2 JUMP JUMPDEST PUSH2 0x2C58 PUSH2 0x2670 JUMP JUMPDEST PUSH2 0x2C61 JUMPI PUSH1 0x0 DUP1 REVERT JUMPDEST DUP3 PUSH1 0x15 PUSH1 0x14 PUSH2 0x100 EXP DUP2 SLOAD DUP2 PUSH1 0xFF MUL NOT AND SWAP1 DUP4 ISZERO ISZERO MUL OR SWAP1 SSTORE POP PUSH2 0x2CB9 DUP3 PUSH2 0x2CAB DUP4 PUSH1 0x12 PUSH1 0xA EXP PUSH4 0xEE6B2800 MUL PUSH1 0x0 NOT DUP2 PUSH2 0x2C98 JUMPI INVALID JUMPDEST MOD PUSH1 0x0 NOT SUB PUSH2 0x3145 SWAP1 SWAP2 SWAP1 PUSH4 0xFFFFFFFF AND JUMP JUMPDEST PUSH2 0x3849 SWAP1 SWAP2 SWAP1 PUSH4 0xFFFFFFFF AND JUMP JUMPDEST PUSH1 0x16 DUP2 SWAP1 SSTORE POP POP POP POP JUMP JUMPDEST PUSH1 0x4 PUSH1 0x14 SWAP1 SLOAD SWAP1 PUSH2 0x100 EXP SWAP1 DIV PUSH1 0xFF AND DUP2 JUMP JUMPDEST PUSH2 0x2CDF PUSH2 0x2670 JUMP JUMPDEST PUSH2 0x2CE8 JUMPI PUSH1 0x0 DUP1 REVERT JUMPDEST PUSH1 0x0 JUMPDEST DUP5 DUP5 SWAP1 POP DUP2 LT ISZERO PUSH2 0x2D49 JUMPI PUSH2 0x2D3B CALLER DUP7 DUP7 DUP5 DUP2 DUP2 LT PUSH2 0x2D06 JUMPI INVALID JUMPDEST SWAP1 POP PUSH1 0x20 MUL ADD CALLDATALOAD PUSH20 0xFFFFFFFFFFFFFFFFFFFFFFFFFFFFFFFFFFFFFFFF AND DUP6 DUP6 DUP6 DUP2 DUP2 LT PUSH2 0x2D2F JUMPI INVALID JUMPDEST SWAP1 POP PUSH1 0x20 MUL ADD CALLDATALOAD PUSH2 0x332A JUMP JUMPDEST POP DUP1 DUP1 PUSH1 0x1 ADD SWAP2 POP POP PUSH2 0x2CEB JUMP JUMPDEST POP POP POP POP POP JUMP JUMPDEST PUSH1 0x0 PUSH1 0x6 PUSH1 0x0 DUP4 PUSH20 0xFFFFFFFFFFFFFFFFFFFFFFFFFFFFFFFFFFFFFFFF AND PUSH20 0xFFFFFFFFFFFFFFFFFFFFFFFFFFFFFFFFFFFFFFFF AND DUP2 MSTORE PUSH1 0x20 ADD SWAP1 DUP2 MSTORE PUSH1 0x20 ADD PUSH1 0x0 KECCAK256 PUSH1 0x0 SWAP1 SLOAD SWAP1 PUSH2 0x100 EXP SWAP1 DIV PUSH1 0xFF AND SWAP1 POP SWAP2 SWAP1 POP JUMP JUMPDEST PUSH1 0x0 DUP1 PUSH2 0x2E1F PUSH1 0x19 SLOAD PUSH1 0x1A PUSH1 0x0 PUSH1 0x15 PUSH1 0x0 SWAP1 SLOAD SWAP1 PUSH2 0x100 EXP SWAP1 DIV PUSH20 0xFFFFFFFFFFFFFFFFFFFFFFFFFFFFFFFFFFFFFFFF AND PUSH20 0xFFFFFFFFFFFFFFFFFFFFFFFFFFFFFFFFFFFFFFFF AND PUSH20 0xFFFFFFFFFFFFFFFFFFFFFFFFFFFFFFFFFFFFFFFF AND DUP2 MSTORE PUSH1 0x20 ADD SWAP1 DUP2 MSTORE PUSH1 0x20 ADD PUSH1 0x0 KECCAK256 SLOAD PUSH2 0x3145 SWAP1 SWAP2 SWAP1 PUSH4 0xFFFFFFFF AND JUMP JUMPDEST SWAP1 POP PUSH2 0x2E60 PUSH2 0x2E2C PUSH2 0x1971 JUMP JUMPDEST PUSH2 0x2E52 PUSH2 0x2E43 PUSH1 0x2 DUP6 PUSH2 0x3849 SWAP1 SWAP2 SWAP1 PUSH4 0xFFFFFFFF AND JUMP JUMPDEST DUP7 PUSH2 0x3849 SWAP1 SWAP2 SWAP1 PUSH4 0xFFFFFFFF AND JUMP JUMPDEST PUSH2 0x3145 SWAP1 SWAP2 SWAP1 PUSH4 0xFFFFFFFF AND JUMP JUMPDEST SWAP2 POP POP SWAP2 SWAP1 POP JUMP JUMPDEST PUSH2 0x2E70 PUSH2 0x2670 JUMP JUMPDEST PUSH2 0x2E79 JUMPI PUSH1 0x0 DUP1 REVERT JUMPDEST PUSH1 0x1 PUSH1 0x5 PUSH1 0x0 DUP4 PUSH20 0xFFFFFFFFFFFFFFFFFFFFFFFFFFFFFFFFFFFFFFFF AND PUSH20 0xFFFFFFFFFFFFFFFFFFFFFFFFFFFFFFFFFFFFFFFF AND DUP2 MSTORE PUSH1 0x20 ADD SWAP1 DUP2 MSTORE PUSH1 0x20 ADD PUSH1 0x0 KECCAK256 PUSH1 0x0 PUSH2 0x100 EXP DUP2 SLOAD DUP2 PUSH1 0xFF MUL NOT AND SWAP1 DUP4 ISZERO ISZERO MUL OR SWAP1 SSTORE POP POP JUMP JUMPDEST PUSH1 0x11 PUSH1 0x0 SWAP1 SLOAD SWAP1 PUSH2 0x100 EXP SWAP1 DIV PUSH20 0xFFFFFFFFFFFFFFFFFFFFFFFFFFFFFFFFFFFFFFFF AND DUP2 JUMP JUMPDEST PUSH2 0x2F02 PUSH2 0x2670 JUMP JUMPDEST PUSH2 0x2F0B JUMPI PUSH1 0x0 DUP1 REVERT JUMPDEST DUP3 PUSH1 0xF PUSH1 0x0 PUSH2 0x100 EXP DUP2 SLOAD DUP2 PUSH20 0xFFFFFFFFFFFFFFFFFFFFFFFFFFFFFFFFFFFFFFFF MUL NOT AND SWAP1 DUP4 PUSH20 0xFFFFFFFFFFFFFFFFFFFFFFFFFFFFFFFFFFFFFFFF AND MUL OR SWAP1 SSTORE POP DUP2 PUSH1 0x10 PUSH1 0x0 PUSH2 0x100 EXP DUP2 SLOAD DUP2 PUSH20 0xFFFFFFFFFFFFFFFFFFFFFFFFFFFFFFFFFFFFFFFF MUL NOT AND SWAP1 DUP4 PUSH20 0xFFFFFFFFFFFFFFFFFFFFFFFFFFFFFFFFFFFFFFFF AND MUL OR SWAP1 SSTORE POP DUP1 PUSH1 0x11 PUSH1 0x0 PUSH2 0x100 EXP DUP2 SLOAD DUP2 PUSH20 0xFFFFFFFFFFFFFFFFFFFFFFFFFFFFFFFFFFFFFFFF MUL NOT AND SWAP1 DUP4 PUSH20 0xFFFFFFFFFFFFFFFFFFFFFFFFFFFFFFFFFFFFFFFF AND MUL OR SWAP1 SSTORE POP POP POP POP JUMP JUMPDEST PUSH1 0x0 PUSH1 0x1B PUSH1 0x0 DUP5 PUSH20 0xFFFFFFFFFFFFFFFFFFFFFFFFFFFFFFFFFFFFFFFF AND PUSH20 0xFFFFFFFFFFFFFFFFFFFFFFFFFFFFFFFFFFFFFFFF AND DUP2 MSTORE PUSH1 0x20 ADD SWAP1 DUP2 MSTORE PUSH1 0x20 ADD PUSH1 0x0 KECCAK256 PUSH1 0x0 DUP4 PUSH20 0xFFFFFFFFFFFFFFFFFFFFFFFFFFFFFFFFFFFFFFFF AND PUSH20 0xFFFFFFFFFFFFFFFFFFFFFFFFFFFFFFFFFFFFFFFF AND DUP2 MSTORE PUSH1 0x20 ADD SWAP1 DUP2 MSTORE PUSH1 0x20 ADD PUSH1 0x0 KECCAK256 SLOAD SWAP1 POP SWAP3 SWAP2 POP POP JUMP JUMPDEST PUSH2 0x3062 PUSH2 0x2670 JUMP JUMPDEST PUSH2 0x306B JUMPI PUSH1 0x0 DUP1 REVERT JUMPDEST PUSH2 0x3074 DUP2 PUSH2 0x38CF JUMP JUMPDEST POP JUMP JUMPDEST PUSH1 0x14 PUSH1 0x0 SWAP1 SLOAD SWAP1 PUSH2 0x100 EXP SWAP1 DIV PUSH20 0xFFFFFFFFFFFFFFFFFFFFFFFFFFFFFFFFFFFFFFFF AND DUP2 JUMP JUMPDEST PUSH1 0x1C PUSH1 0x20 MSTORE DUP1 PUSH1 0x0 MSTORE PUSH1 0x40 PUSH1 0x0 KECCAK256 PUSH1 0x0 SWAP2 POP SLOAD SWAP1 PUSH2 0x100 EXP SWAP1 DIV PUSH1 0xFF AND DUP2 JUMP JUMPDEST PUSH1 0x0 DUP1 DUP3 DUP5 ADD SWAP1 POP DUP4 DUP2 LT ISZERO PUSH2 0x313B JUMPI PUSH1 0x40 MLOAD PUSH32 0x8C379A000000000000000000000000000000000000000000000000000000000 DUP2 MSTORE PUSH1 0x4 ADD DUP1 DUP1 PUSH1 0x20 ADD DUP3 DUP2 SUB DUP3 MSTORE PUSH1 0x1B DUP2 MSTORE PUSH1 0x20 ADD DUP1 PUSH32 0x536166654D6174683A206164646974696F6E206F766572666C6F770000000000 DUP2 MSTORE POP PUSH1 0x20 ADD SWAP2 POP POP PUSH1 0x40 MLOAD DUP1 SWAP2 SUB SWAP1 REVERT JUMPDEST DUP1 SWAP2 POP POP SWAP3 SWAP2 POP POP JUMP JUMPDEST PUSH1 0x0 PUSH2 0x3187 DUP4 DUP4 PUSH1 0x40 MLOAD DUP1 PUSH1 0x40 ADD PUSH1 0x40 MSTORE DUP1 PUSH1 0x1A DUP2 MSTORE PUSH1 0x20 ADD PUSH32 0x536166654D6174683A206469766973696F6E206279207A65726F000000000000 DUP2 MSTORE POP PUSH2 0x39C9 JUMP JUMPDEST SWAP1 POP SWAP3 SWAP2 POP POP JUMP JUMPDEST PUSH2 0x3199 DUP3 DUP3 PUSH2 0x376B JUMP JUMPDEST ISZERO PUSH2 0x320C JUMPI PUSH1 0x40 MLOAD PUSH32 0x8C379A000000000000000000000000000000000000000000000000000000000 DUP2 MSTORE PUSH1 0x4 ADD DUP1 DUP1 PUSH1 0x20 ADD DUP3 DUP2 SUB DUP3 MSTORE PUSH1 0x1F DUP2 MSTORE PUSH1 0x20 ADD DUP1 PUSH32 0x526F6C65733A206163636F756E7420616C72656164792068617320726F6C6500 DUP2 MSTORE POP PUSH1 0x20 ADD SWAP2 POP POP PUSH1 0x40 MLOAD DUP1 SWAP2 SUB SWAP1 REVERT JUMPDEST PUSH1 0x1 DUP3 PUSH1 0x0 ADD PUSH1 0x0 DUP4 PUSH20 0xFFFFFFFFFFFFFFFFFFFFFFFFFFFFFFFFFFFFFFFF AND PUSH20 0xFFFFFFFFFFFFFFFFFFFFFFFFFFFFFFFFFFFFFFFF AND DUP2 MSTORE PUSH1 0x20 ADD SWAP1 DUP2 MSTORE PUSH1 0x20 ADD PUSH1 0x0 KECCAK256 PUSH1 0x0 PUSH2 0x100 EXP DUP2 SLOAD DUP2 PUSH1 0xFF MUL NOT AND SWAP1 DUP4 ISZERO ISZERO MUL OR SWAP1 SSTORE POP POP POP JUMP JUMPDEST PUSH1 0x0 DUP4 DUP4 GT ISZERO DUP3 SWAP1 PUSH2 0x3317 JUMPI PUSH1 0x40 MLOAD PUSH32 0x8C379A000000000000000000000000000000000000000000000000000000000 DUP2 MSTORE PUSH1 0x4 ADD DUP1 DUP1 PUSH1 0x20 ADD DUP3 DUP2 SUB DUP3 MSTORE DUP4 DUP2 DUP2 MLOAD DUP2 MSTORE PUSH1 0x20 ADD SWAP2 POP DUP1 MLOAD SWAP1 PUSH1 0x20 ADD SWAP1 DUP1 DUP4 DUP4 PUSH1 0x0 JUMPDEST DUP4 DUP2 LT ISZERO PUSH2 0x32DC JUMPI DUP1 DUP3 ADD MLOAD DUP2 DUP5 ADD MSTORE PUSH1 0x20 DUP2 ADD SWAP1 POP PUSH2 0x32C1 JUMP JUMPDEST POP POP POP POP SWAP1 POP SWAP1 DUP2 ADD SWAP1 PUSH1 0x1F AND DUP1 ISZERO PUSH2 0x3309 JUMPI DUP1 DUP3 SUB DUP1 MLOAD PUSH1 0x1 DUP4 PUSH1 0x20 SUB PUSH2 0x100 EXP SUB NOT AND DUP2 MSTORE PUSH1 0x20 ADD SWAP2 POP JUMPDEST POP SWAP3 POP POP POP PUSH1 0x40 MLOAD DUP1 SWAP2 SUB SWAP1 REVERT JUMPDEST POP PUSH1 0x0 DUP4 DUP6 SUB SWAP1 POP DUP1 SWAP2 POP POP SWAP4 SWAP3 POP POP POP JUMP JUMPDEST PUSH1 0x0 PUSH1 0x1C PUSH1 0x0 DUP6 PUSH20 0xFFFFFFFFFFFFFFFFFFFFFFFFFFFFFFFFFFFFFFFF AND PUSH20 0xFFFFFFFFFFFFFFFFFFFFFFFFFFFFFFFFFFFFFFFF AND DUP2 MSTORE PUSH1 0x20 ADD SWAP1 DUP2 MSTORE PUSH1 0x20 ADD PUSH1 0x0 KECCAK256 PUSH1 0x0 SWAP1 SLOAD SWAP1 PUSH2 0x100 EXP SWAP1 DIV PUSH1 0xFF AND ISZERO DUP1 ISZERO PUSH2 0x33D0 JUMPI POP PUSH1 0x1C PUSH1 0x0 DUP5 PUSH20 0xFFFFFFFFFFFFFFFFFFFFFFFFFFFFFFFFFFFFFFFF AND PUSH20 0xFFFFFFFFFFFFFFFFFFFFFFFFFFFFFFFFFFFFFFFF AND DUP2 MSTORE PUSH1 0x20 ADD SWAP1 DUP2 MSTORE PUSH1 0x20 ADD PUSH1 0x0 KECCAK256 PUSH1 0x0 SWAP1 SLOAD SWAP1 PUSH2 0x100 EXP SWAP1 DIV PUSH1 0xFF AND ISZERO JUMPDEST PUSH2 0x3442 JUMPI PUSH1 0x40 MLOAD PUSH32 0x8C379A000000000000000000000000000000000000000000000000000000000 DUP2 MSTORE PUSH1 0x4 ADD DUP1 DUP1 PUSH1 0x20 ADD DUP3 DUP2 SUB DUP3 MSTORE PUSH1 0xC DUP2 MSTORE PUSH1 0x20 ADD DUP1 PUSH32 0x696E5F626C61636B6C6973740000000000000000000000000000000000000000 DUP2 MSTORE POP PUSH1 0x20 ADD SWAP2 POP POP PUSH1 0x40 MLOAD DUP1 SWAP2 SUB SWAP1 REVERT JUMPDEST PUSH1 0x17 PUSH1 0x0 SWAP1 SLOAD SWAP1 PUSH2 0x100 EXP SWAP1 DIV PUSH1 0xFF AND ISZERO PUSH2 0x3469 JUMPI PUSH2 0x3462 DUP5 DUP5 DUP5 PUSH2 0x3A8F JUMP JUMPDEST SWAP1 POP PUSH2 0x3666 JUMP JUMPDEST PUSH1 0x0 PUSH2 0x3480 PUSH1 0x19 SLOAD DUP5 PUSH2 0x3849 SWAP1 SWAP2 SWAP1 PUSH4 0xFFFFFFFF AND JUMP JUMPDEST SWAP1 POP PUSH2 0x348A PUSH2 0x3BDF JUMP JUMPDEST ISZERO PUSH2 0x3498 JUMPI PUSH2 0x3497 PUSH2 0x3CB6 JUMP JUMPDEST JUMPDEST PUSH2 0x34EA DUP2 PUSH1 0x1A PUSH1 0x0 DUP9 PUSH20 0xFFFFFFFFFFFFFFFFFFFFFFFFFFFFFFFFFFFFFFFF AND PUSH20 0xFFFFFFFFFFFFFFFFFFFFFFFFFFFFFFFFFFFFFFFF AND DUP2 MSTORE PUSH1 0x20 ADD SWAP1 DUP2 MSTORE PUSH1 0x20 ADD PUSH1 0x0 KECCAK256 SLOAD PUSH2 0x366D SWAP1 SWAP2 SWAP1 PUSH4 0xFFFFFFFF AND JUMP JUMPDEST PUSH1 0x1A PUSH1 0x0 DUP8 PUSH20 0xFFFFFFFFFFFFFFFFFFFFFFFFFFFFFFFFFFFFFFFF AND PUSH20 0xFFFFFFFFFFFFFFFFFFFFFFFFFFFFFFFFFFFFFFFF AND DUP2 MSTORE PUSH1 0x20 ADD SWAP1 DUP2 MSTORE PUSH1 0x20 ADD PUSH1 0x0 KECCAK256 DUP2 SWAP1 SSTORE POP PUSH1 0x0 PUSH2 0x3539 DUP7 DUP7 PUSH2 0x4392 JUMP JUMPDEST PUSH2 0x3543 JUMPI DUP2 PUSH2 0x354F JUMP JUMPDEST PUSH2 0x354E DUP7 DUP7 DUP5 PUSH2 0x449B JUMP JUMPDEST JUMPDEST SWAP1 POP PUSH2 0x35A3 DUP2 PUSH1 0x1A PUSH1 0x0 DUP9 PUSH20 0xFFFFFFFFFFFFFFFFFFFFFFFFFFFFFFFFFFFFFFFF AND PUSH20 0xFFFFFFFFFFFFFFFFFFFFFFFFFFFFFFFFFFFFFFFF AND DUP2 MSTORE PUSH1 0x20 ADD SWAP1 DUP2 MSTORE PUSH1 0x20 ADD PUSH1 0x0 KECCAK256 SLOAD PUSH2 0x30BD SWAP1 SWAP2 SWAP1 PUSH4 0xFFFFFFFF AND JUMP JUMPDEST PUSH1 0x1A PUSH1 0x0 DUP8 PUSH20 0xFFFFFFFFFFFFFFFFFFFFFFFFFFFFFFFFFFFFFFFF AND PUSH20 0xFFFFFFFFFFFFFFFFFFFFFFFFFFFFFFFFFFFFFFFF AND DUP2 MSTORE PUSH1 0x20 ADD SWAP1 DUP2 MSTORE PUSH1 0x20 ADD PUSH1 0x0 KECCAK256 DUP2 SWAP1 SSTORE POP DUP5 PUSH20 0xFFFFFFFFFFFFFFFFFFFFFFFFFFFFFFFFFFFFFFFF AND DUP7 PUSH20 0xFFFFFFFFFFFFFFFFFFFFFFFFFFFFFFFFFFFFFFFF AND PUSH32 0xDDF252AD1BE2C89B69C2B068FC378DAA952BA7F163C4A11628F55A4DF523B3EF PUSH2 0x364A PUSH1 0x19 SLOAD DUP6 PUSH2 0x3145 SWAP1 SWAP2 SWAP1 PUSH4 0xFFFFFFFF AND JUMP JUMPDEST PUSH1 0x40 MLOAD DUP1 DUP3 DUP2 MSTORE PUSH1 0x20 ADD SWAP2 POP POP PUSH1 0x40 MLOAD DUP1 SWAP2 SUB SWAP1 LOG3 PUSH1 0x1 SWAP3 POP POP POP JUMPDEST SWAP4 SWAP3 POP POP POP JUMP JUMPDEST PUSH1 0x0 PUSH2 0x36AF DUP4 DUP4 PUSH1 0x40 MLOAD DUP1 PUSH1 0x40 ADD PUSH1 0x40 MSTORE DUP1 PUSH1 0x1E DUP2 MSTORE PUSH1 0x20 ADD PUSH32 0x536166654D6174683A207375627472616374696F6E206F766572666C6F770000 DUP2 MSTORE POP PUSH2 0x326A JUMP JUMPDEST SWAP1 POP SWAP3 SWAP2 POP POP JUMP JUMPDEST PUSH2 0x36CB DUP2 PUSH1 0x3 PUSH2 0x4668 SWAP1 SWAP2 SWAP1 PUSH4 0xFFFFFFFF AND JUMP JUMPDEST DUP1 PUSH20 0xFFFFFFFFFFFFFFFFFFFFFFFFFFFFFFFFFFFFFFFF AND PUSH32 0xE94479A9F7E1952CC78F2D6BAAB678ADC1B772D936C6583DEF489E524CB66692 PUSH1 0x40 MLOAD PUSH1 0x40 MLOAD DUP1 SWAP2 SUB SWAP1 LOG2 POP JUMP JUMPDEST PUSH2 0x3725 DUP2 PUSH1 0x3 PUSH2 0x318F SWAP1 SWAP2 SWAP1 PUSH4 0xFFFFFFFF AND JUMP JUMPDEST DUP1 PUSH20 0xFFFFFFFFFFFFFFFFFFFFFFFFFFFFFFFFFFFFFFFF AND PUSH32 0x6AE172837EA30B801FBFCDD4108AA1D5BF8FF775444FD70256B44E6BF3DFC3F6 PUSH1 0x40 MLOAD PUSH1 0x40 MLOAD DUP1 SWAP2 SUB SWAP1 LOG2 POP JUMP JUMPDEST PUSH1 0x0 DUP1 PUSH20 0xFFFFFFFFFFFFFFFFFFFFFFFFFFFFFFFFFFFFFFFF AND DUP3 PUSH20 0xFFFFFFFFFFFFFFFFFFFFFFFFFFFFFFFFFFFFFFFF AND EQ ISZERO PUSH2 0x37F2 JUMPI PUSH1 0x40 MLOAD PUSH32 0x8C379A000000000000000000000000000000000000000000000000000000000 DUP2 MSTORE PUSH1 0x4 ADD DUP1 DUP1 PUSH1 0x20 ADD DUP3 DUP2 SUB DUP3 MSTORE PUSH1 0x22 DUP2 MSTORE PUSH1 0x20 ADD DUP1 PUSH2 0x4798 PUSH1 0x22 SWAP2 CODECOPY PUSH1 0x40 ADD SWAP2 POP POP PUSH1 0x40 MLOAD DUP1 SWAP2 SUB SWAP1 REVERT JUMPDEST DUP3 PUSH1 0x0 ADD PUSH1 0x0 DUP4 PUSH20 0xFFFFFFFFFFFFFFFFFFFFFFFFFFFFFFFFFFFFFFFF AND PUSH20 0xFFFFFFFFFFFFFFFFFFFFFFFFFFFFFFFFFFFFFFFF AND DUP2 MSTORE PUSH1 0x20 ADD SWAP1 DUP2 MSTORE PUSH1 0x20 ADD PUSH1 0x0 KECCAK256 PUSH1 0x0 SWAP1 SLOAD SWAP1 PUSH2 0x100 EXP SWAP1 DIV PUSH1 0xFF AND SWAP1 POP SWAP3 SWAP2 POP POP JUMP JUMPDEST PUSH1 0x0 DUP1 DUP4 EQ ISZERO PUSH2 0x385C JUMPI PUSH1 0x0 SWAP1 POP PUSH2 0x38C9 JUMP JUMPDEST PUSH1 0x0 DUP3 DUP5 MUL SWAP1 POP DUP3 DUP5 DUP3 DUP2 PUSH2 0x386D JUMPI INVALID JUMPDEST DIV EQ PUSH2 0x38C4 JUMPI PUSH1 0x40 MLOAD PUSH32 0x8C379A000000000000000000000000000000000000000000000000000000000 DUP2 MSTORE PUSH1 0x4 ADD DUP1 DUP1 PUSH1 0x20 ADD DUP3 DUP2 SUB DUP3 MSTORE PUSH1 0x21 DUP2 MSTORE PUSH1 0x20 ADD DUP1 PUSH2 0x4777 PUSH1 0x21 SWAP2 CODECOPY PUSH1 0x40 ADD SWAP2 POP POP PUSH1 0x40 MLOAD DUP1 SWAP2 SUB SWAP1 REVERT JUMPDEST DUP1 SWAP2 POP POP JUMPDEST SWAP3 SWAP2 POP POP JUMP JUMPDEST PUSH1 0x0 PUSH20 0xFFFFFFFFFFFFFFFFFFFFFFFFFFFFFFFFFFFFFFFF AND DUP2 PUSH20 0xFFFFFFFFFFFFFFFFFFFFFFFFFFFFFFFFFFFFFFFF AND EQ ISZERO PUSH2 0x3909 JUMPI PUSH1 0x0 DUP1 REVERT JUMPDEST DUP1 PUSH20 0xFFFFFFFFFFFFFFFFFFFFFFFFFFFFFFFFFFFFFFFF AND PUSH1 0x2 PUSH1 0x1 SWAP1 SLOAD SWAP1 PUSH2 0x100 EXP SWAP1 DIV PUSH20 0xFFFFFFFFFFFFFFFFFFFFFFFFFFFFFFFFFFFFFFFF AND PUSH20 0xFFFFFFFFFFFFFFFFFFFFFFFFFFFFFFFFFFFFFFFF AND PUSH32 0x8BE0079C531659141344CD1FD0A4F28419497F9722A3DAAFE3B4186F6B6457E0 PUSH1 0x40 MLOAD PUSH1 0x40 MLOAD DUP1 SWAP2 SUB SWAP1 LOG3 DUP1 PUSH1 0x2 PUSH1 0x1 PUSH2 0x100 EXP DUP2 SLOAD DUP2 PUSH20 0xFFFFFFFFFFFFFFFFFFFFFFFFFFFFFFFFFFFFFFFF MUL NOT AND SWAP1 DUP4 PUSH20 0xFFFFFFFFFFFFFFFFFFFFFFFFFFFFFFFFFFFFFFFF AND MUL OR SWAP1 SSTORE POP POP JUMP JUMPDEST PUSH1 0x0 DUP1 DUP4 GT DUP3 SWAP1 PUSH2 0x3A75 JUMPI PUSH1 0x40 MLOAD PUSH32 0x8C379A000000000000000000000000000000000000000000000000000000000 DUP2 MSTORE PUSH1 0x4 ADD DUP1 DUP1 PUSH1 0x20 ADD DUP3 DUP2 SUB DUP3 MSTORE DUP4 DUP2 DUP2 MLOAD DUP2 MSTORE PUSH1 0x20 ADD SWAP2 POP DUP1 MLOAD SWAP1 PUSH1 0x20 ADD SWAP1 DUP1 DUP4 DUP4 PUSH1 0x0 JUMPDEST DUP4 DUP2 LT ISZERO PUSH2 0x3A3A JUMPI DUP1 DUP3 ADD MLOAD DUP2 DUP5 ADD MSTORE PUSH1 0x20 DUP2 ADD SWAP1 POP PUSH2 0x3A1F JUMP JUMPDEST POP POP POP POP SWAP1 POP SWAP1 DUP2 ADD SWAP1 PUSH1 0x1F AND DUP1 ISZERO PUSH2 0x3A67 JUMPI DUP1 DUP3 SUB DUP1 MLOAD PUSH1 0x1 DUP4 PUSH1 0x20 SUB PUSH2 0x100 EXP SUB NOT AND DUP2 MSTORE PUSH1 0x20 ADD SWAP2 POP JUMPDEST POP SWAP3 POP POP POP PUSH1 0x40 MLOAD DUP1 SWAP2 SUB SWAP1 REVERT JUMPDEST POP PUSH1 0x0 DUP4 DUP6 DUP2 PUSH2 0x3A81 JUMPI INVALID JUMPDEST DIV SWAP1 POP DUP1 SWAP2 POP POP SWAP4 SWAP3 POP POP POP JUMP JUMPDEST PUSH1 0x0 DUP1 PUSH2 0x3AA7 PUSH1 0x19 SLOAD DUP5 PUSH2 0x3849 SWAP1 SWAP2 SWAP1 PUSH4 0xFFFFFFFF AND JUMP JUMPDEST SWAP1 POP PUSH2 0x3AFB DUP2 PUSH1 0x1A PUSH1 0x0 DUP9 PUSH20 0xFFFFFFFFFFFFFFFFFFFFFFFFFFFFFFFFFFFFFFFF AND PUSH20 0xFFFFFFFFFFFFFFFFFFFFFFFFFFFFFFFFFFFFFFFF AND DUP2 MSTORE PUSH1 0x20 ADD SWAP1 DUP2 MSTORE PUSH1 0x20 ADD PUSH1 0x0 KECCAK256 SLOAD PUSH2 0x366D SWAP1 SWAP2 SWAP1 PUSH4 0xFFFFFFFF AND JUMP JUMPDEST PUSH1 0x1A PUSH1 0x0 DUP8 PUSH20 0xFFFFFFFFFFFFFFFFFFFFFFFFFFFFFFFFFFFFFFFF AND PUSH20 0xFFFFFFFFFFFFFFFFFFFFFFFFFFFFFFFFFFFFFFFF AND DUP2 MSTORE PUSH1 0x20 ADD SWAP1 DUP2 MSTORE PUSH1 0x20 ADD PUSH1 0x0 KECCAK256 DUP2 SWAP1 SSTORE POP PUSH2 0x3B90 DUP2 PUSH1 0x1A PUSH1 0x0 DUP8 PUSH20 0xFFFFFFFFFFFFFFFFFFFFFFFFFFFFFFFFFFFFFFFF AND PUSH20 0xFFFFFFFFFFFFFFFFFFFFFFFFFFFFFFFFFFFFFFFF AND DUP2 MSTORE PUSH1 0x20 ADD SWAP1 DUP2 MSTORE PUSH1 0x20 ADD PUSH1 0x0 KECCAK256 SLOAD PUSH2 0x30BD SWAP1 SWAP2 SWAP1 PUSH4 0xFFFFFFFF AND JUMP JUMPDEST PUSH1 0x1A PUSH1 0x0 DUP7 PUSH20 0xFFFFFFFFFFFFFFFFFFFFFFFFFFFFFFFFFFFFFFFF AND PUSH20 0xFFFFFFFFFFFFFFFFFFFFFFFFFFFFFFFFFFFFFFFF AND DUP2 MSTORE PUSH1 0x20 ADD SWAP1 DUP2 MSTORE PUSH1 0x20 ADD PUSH1 0x0 KECCAK256 DUP2 SWAP1 SSTORE POP PUSH1 0x1 SWAP2 POP POP SWAP4 SWAP3 POP POP POP JUMP JUMPDEST PUSH1 0x0 PUSH1 0x15 PUSH1 0x0 SWAP1 SLOAD SWAP1 PUSH2 0x100 EXP SWAP1 DIV PUSH20 0xFFFFFFFFFFFFFFFFFFFFFFFFFFFFFFFFFFFFFFFF AND PUSH20 0xFFFFFFFFFFFFFFFFFFFFFFFFFFFFFFFFFFFFFFFF AND CALLER PUSH20 0xFFFFFFFFFFFFFFFFFFFFFFFFFFFFFFFFFFFFFFFF AND EQ ISZERO DUP1 ISZERO PUSH2 0x3C4C JUMPI POP PUSH1 0x17 PUSH1 0x0 SWAP1 SLOAD SWAP1 PUSH2 0x100 EXP SWAP1 DIV PUSH1 0xFF AND ISZERO JUMPDEST DUP1 ISZERO PUSH2 0x3C64 JUMPI POP PUSH1 0x15 PUSH1 0x14 SWAP1 SLOAD SWAP1 PUSH2 0x100 EXP SWAP1 DIV PUSH1 0xFF AND JUMPDEST DUP1 ISZERO PUSH2 0x3CB1 JUMPI POP PUSH1 0x16 SLOAD PUSH1 0x1A PUSH1 0x0 ADDRESS PUSH20 0xFFFFFFFFFFFFFFFFFFFFFFFFFFFFFFFFFFFFFFFF AND PUSH20 0xFFFFFFFFFFFFFFFFFFFFFFFFFFFFFFFFFFFFFFFF AND DUP2 MSTORE PUSH1 0x20 ADD SWAP1 DUP2 MSTORE PUSH1 0x20 ADD PUSH1 0x0 KECCAK256 SLOAD LT ISZERO JUMPDEST SWAP1 POP SWAP1 JUMP JUMPDEST PUSH1 0x1 PUSH1 0x17 PUSH1 0x0 PUSH2 0x100 EXP DUP2 SLOAD DUP2 PUSH1 0xFF MUL NOT AND SWAP1 DUP4 ISZERO ISZERO MUL OR SWAP1 SSTORE POP PUSH1 0x0 PUSH2 0x3CE1 PUSH1 0x12 SLOAD PUSH1 0x13 SLOAD PUSH2 0x16E4 JUMP JUMPDEST PUSH2 0x3CED JUMPI PUSH1 0x7 SLOAD PUSH2 0x3CF0 JUMP JUMPDEST PUSH1 0x0 JUMPDEST SWAP1 POP PUSH1 0x0 PUSH2 0x3D48 PUSH1 0x19 SLOAD PUSH1 0x1A PUSH1 0x0 ADDRESS PUSH20 0xFFFFFFFFFFFFFFFFFFFFFFFFFFFFFFFFFFFFFFFF AND PUSH20 0xFFFFFFFFFFFFFFFFFFFFFFFFFFFFFFFFFFFFFFFF AND DUP2 MSTORE PUSH1 0x20 ADD SWAP1 DUP2 MSTORE PUSH1 0x20 ADD PUSH1 0x0 KECCAK256 SLOAD PUSH2 0x3145 SWAP1 SWAP2 SWAP1 PUSH4 0xFFFFFFFF AND JUMP JUMPDEST SWAP1 POP PUSH1 0x0 PUSH2 0x3D86 PUSH1 0x2 PUSH2 0x3D78 PUSH1 0xB SLOAD PUSH2 0x3D6A DUP8 DUP8 PUSH2 0x3849 SWAP1 SWAP2 SWAP1 PUSH4 0xFFFFFFFF AND JUMP JUMPDEST PUSH2 0x3145 SWAP1 SWAP2 SWAP1 PUSH4 0xFFFFFFFF AND JUMP JUMPDEST PUSH2 0x3145 SWAP1 SWAP2 SWAP1 PUSH4 0xFFFFFFFF AND JUMP JUMPDEST SWAP1 POP PUSH1 0x0 PUSH2 0x3D9D DUP3 DUP5 PUSH2 0x366D SWAP1 SWAP2 SWAP1 PUSH4 0xFFFFFFFF AND JUMP JUMPDEST SWAP1 POP PUSH1 0x60 PUSH1 0x2 PUSH8 0xFFFFFFFFFFFFFFFF DUP2 GT DUP1 ISZERO PUSH2 0x3DB9 JUMPI PUSH1 0x0 DUP1 REVERT JUMPDEST POP PUSH1 0x40 MLOAD SWAP1 DUP1 DUP3 MSTORE DUP1 PUSH1 0x20 MUL PUSH1 0x20 ADD DUP3 ADD PUSH1 0x40 MSTORE DUP1 ISZERO PUSH2 0x3DE8 JUMPI DUP2 PUSH1 0x20 ADD PUSH1 0x20 DUP3 MUL DUP1 CALLDATASIZE DUP4 CALLDATACOPY DUP1 DUP3 ADD SWAP2 POP POP SWAP1 POP JUMPDEST POP SWAP1 POP ADDRESS DUP2 PUSH1 0x0 DUP2 MLOAD DUP2 LT PUSH2 0x3DF9 JUMPI INVALID JUMPDEST PUSH1 0x20 MUL PUSH1 0x20 ADD ADD SWAP1 PUSH20 0xFFFFFFFFFFFFFFFFFFFFFFFFFFFFFFFFFFFFFFFF AND SWAP1 DUP2 PUSH20 0xFFFFFFFFFFFFFFFFFFFFFFFFFFFFFFFFFFFFFFFF AND DUP2 MSTORE POP POP PUSH1 0x14 PUSH1 0x0 SWAP1 SLOAD SWAP1 PUSH2 0x100 EXP SWAP1 DIV PUSH20 0xFFFFFFFFFFFFFFFFFFFFFFFFFFFFFFFFFFFFFFFF AND PUSH20 0xFFFFFFFFFFFFFFFFFFFFFFFFFFFFFFFFFFFFFFFF AND PUSH4 0xAD5C4648 PUSH1 0x40 MLOAD DUP2 PUSH4 0xFFFFFFFF AND PUSH1 0xE0 SHL DUP2 MSTORE PUSH1 0x4 ADD PUSH1 0x20 PUSH1 0x40 MLOAD DUP1 DUP4 SUB DUP2 DUP7 DUP1 EXTCODESIZE ISZERO DUP1 ISZERO PUSH2 0x3E9B JUMPI PUSH1 0x0 DUP1 REVERT JUMPDEST POP GAS STATICCALL ISZERO DUP1 ISZERO PUSH2 0x3EAF JUMPI RETURNDATASIZE PUSH1 0x0 DUP1 RETURNDATACOPY RETURNDATASIZE PUSH1 0x0 REVERT JUMPDEST POP POP POP POP PUSH1 0x40 MLOAD RETURNDATASIZE PUSH1 0x20 DUP2 LT ISZERO PUSH2 0x3EC5 JUMPI PUSH1 0x0 DUP1 REVERT JUMPDEST DUP2 ADD SWAP1 DUP1 DUP1 MLOAD SWAP1 PUSH1 0x20 ADD SWAP1 SWAP3 SWAP2 SWAP1 POP POP POP DUP2 PUSH1 0x1 DUP2 MLOAD DUP2 LT PUSH2 0x3EE3 JUMPI INVALID JUMPDEST PUSH1 0x20 MUL PUSH1 0x20 ADD ADD SWAP1 PUSH20 0xFFFFFFFFFFFFFFFFFFFFFFFFFFFFFFFFFFFFFFFF AND SWAP1 DUP2 PUSH20 0xFFFFFFFFFFFFFFFFFFFFFFFFFFFFFFFFFFFFFFFF AND DUP2 MSTORE POP POP PUSH1 0x0 SELFBALANCE SWAP1 POP PUSH1 0x14 PUSH1 0x0 SWAP1 SLOAD SWAP1 PUSH2 0x100 EXP SWAP1 DIV PUSH20 0xFFFFFFFFFFFFFFFFFFFFFFFFFFFFFFFFFFFFFFFF AND PUSH20 0xFFFFFFFFFFFFFFFFFFFFFFFFFFFFFFFFFFFFFFFF AND PUSH4 0x791AC947 DUP5 PUSH1 0x0 DUP6 ADDRESS TIMESTAMP PUSH1 0x40 MLOAD DUP7 PUSH4 0xFFFFFFFF AND PUSH1 0xE0 SHL DUP2 MSTORE PUSH1 0x4 ADD DUP1 DUP7 DUP2 MSTORE PUSH1 0x20 ADD DUP6 DUP2 MSTORE PUSH1 0x20 ADD DUP1 PUSH1 0x20 ADD DUP5 PUSH20 0xFFFFFFFFFFFFFFFFFFFFFFFFFFFFFFFFFFFFFFFF AND DUP2 MSTORE PUSH1 0x20 ADD DUP4 DUP2 MSTORE PUSH1 0x20 ADD DUP3 DUP2 SUB DUP3 MSTORE DUP6 DUP2 DUP2 MLOAD DUP2 MSTORE PUSH1 0x20 ADD SWAP2 POP DUP1 MLOAD SWAP1 PUSH1 0x20 ADD SWAP1 PUSH1 0x20 MUL DUP1 DUP4 DUP4 PUSH1 0x0 JUMPDEST DUP4 DUP2 LT ISZERO PUSH2 0x3FE6 JUMPI DUP1 DUP3 ADD MLOAD DUP2 DUP5 ADD MSTORE PUSH1 0x20 DUP2 ADD SWAP1 POP PUSH2 0x3FCB JUMP JUMPDEST POP POP POP POP SWAP1 POP ADD SWAP7 POP POP POP POP POP POP POP PUSH1 0x0 PUSH1 0x40 MLOAD DUP1 DUP4 SUB DUP2 PUSH1 0x0 DUP8 DUP1 EXTCODESIZE ISZERO DUP1 ISZERO PUSH2 0x400F JUMPI PUSH1 0x0 DUP1 REVERT JUMPDEST POP GAS CALL ISZERO DUP1 ISZERO PUSH2 0x4023 JUMPI RETURNDATASIZE PUSH1 0x0 DUP1 RETURNDATACOPY RETURNDATASIZE PUSH1 0x0 REVERT JUMPDEST POP POP POP POP PUSH1 0x0 PUSH2 0x403C DUP3 SELFBALANCE PUSH2 0x366D SWAP1 SWAP2 SWAP1 PUSH4 0xFFFFFFFF AND JUMP JUMPDEST SWAP1 POP PUSH1 0x0 PUSH2 0x4068 PUSH2 0x4057 PUSH1 0x2 DUP11 PUSH2 0x3145 SWAP1 SWAP2 SWAP1 PUSH4 0xFFFFFFFF AND JUMP JUMPDEST PUSH1 0xB SLOAD PUSH2 0x366D SWAP1 SWAP2 SWAP1 PUSH4 0xFFFFFFFF AND JUMP JUMPDEST SWAP1 POP PUSH1 0x0 PUSH2 0x40A4 PUSH1 0x2 PUSH2 0x4096 DUP5 PUSH2 0x4088 DUP14 DUP9 PUSH2 0x3849 SWAP1 SWAP2 SWAP1 PUSH4 0xFFFFFFFF AND JUMP JUMPDEST PUSH2 0x3145 SWAP1 SWAP2 SWAP1 PUSH4 0xFFFFFFFF AND JUMP JUMPDEST PUSH2 0x3145 SWAP1 SWAP2 SWAP1 PUSH4 0xFFFFFFFF AND JUMP JUMPDEST SWAP1 POP PUSH1 0x0 PUSH2 0x40CF DUP4 PUSH2 0x40C1 PUSH1 0x9 SLOAD DUP8 PUSH2 0x3849 SWAP1 SWAP2 SWAP1 PUSH4 0xFFFFFFFF AND JUMP JUMPDEST PUSH2 0x3145 SWAP1 SWAP2 SWAP1 PUSH4 0xFFFFFFFF AND JUMP JUMPDEST SWAP1 POP PUSH1 0x0 PUSH2 0x40FA DUP5 PUSH2 0x40EC PUSH1 0x8 SLOAD DUP9 PUSH2 0x3849 SWAP1 SWAP2 SWAP1 PUSH4 0xFFFFFFFF AND JUMP JUMPDEST PUSH2 0x3145 SWAP1 SWAP2 SWAP1 PUSH4 0xFFFFFFFF AND JUMP JUMPDEST SWAP1 POP PUSH1 0x0 PUSH1 0x10 PUSH1 0x0 SWAP1 SLOAD SWAP1 PUSH2 0x100 EXP SWAP1 DIV PUSH20 0xFFFFFFFFFFFFFFFFFFFFFFFFFFFFFFFFFFFFFFFF AND PUSH20 0xFFFFFFFFFFFFFFFFFFFFFFFFFFFFFFFFFFFFFFFF AND DUP3 PUSH2 0x7530 SWAP1 PUSH1 0x40 MLOAD DUP1 PUSH1 0x0 ADD SWAP1 POP PUSH1 0x0 PUSH1 0x40 MLOAD DUP1 DUP4 SUB DUP2 DUP6 DUP9 DUP9 CALL SWAP4 POP POP POP POP RETURNDATASIZE DUP1 PUSH1 0x0 DUP2 EQ PUSH2 0x4183 JUMPI PUSH1 0x40 MLOAD SWAP2 POP PUSH1 0x1F NOT PUSH1 0x3F RETURNDATASIZE ADD AND DUP3 ADD PUSH1 0x40 MSTORE RETURNDATASIZE DUP3 MSTORE RETURNDATASIZE PUSH1 0x0 PUSH1 0x20 DUP5 ADD RETURNDATACOPY PUSH2 0x4188 JUMP JUMPDEST PUSH1 0x60 SWAP2 POP JUMPDEST POP POP SWAP1 POP PUSH1 0x11 PUSH1 0x0 SWAP1 SLOAD SWAP1 PUSH2 0x100 EXP SWAP1 DIV PUSH20 0xFFFFFFFFFFFFFFFFFFFFFFFFFFFFFFFFFFFFFFFF AND PUSH20 0xFFFFFFFFFFFFFFFFFFFFFFFFFFFFFFFFFFFFFFFF AND DUP4 PUSH2 0x7530 SWAP1 PUSH1 0x40 MLOAD DUP1 PUSH1 0x0 ADD SWAP1 POP PUSH1 0x0 PUSH1 0x40 MLOAD DUP1 DUP4 SUB DUP2 DUP6 DUP9 DUP9 CALL SWAP4 POP POP POP POP RETURNDATASIZE DUP1 PUSH1 0x0 DUP2 EQ PUSH2 0x4211 JUMPI PUSH1 0x40 MLOAD SWAP2 POP PUSH1 0x1F NOT PUSH1 0x3F RETURNDATASIZE ADD AND DUP3 ADD PUSH1 0x40 MSTORE RETURNDATASIZE DUP3 MSTORE RETURNDATASIZE PUSH1 0x0 PUSH1 0x20 DUP5 ADD RETURNDATACOPY PUSH2 0x4216 JUMP JUMPDEST PUSH1 0x60 SWAP2 POP JUMPDEST POP POP DUP1 SWAP2 POP POP PUSH1 0x0 SWAP1 POP PUSH1 0x0 DUP11 GT ISZERO PUSH2 0x4369 JUMPI PUSH1 0x14 PUSH1 0x0 SWAP1 SLOAD SWAP1 PUSH2 0x100 EXP SWAP1 DIV PUSH20 0xFFFFFFFFFFFFFFFFFFFFFFFFFFFFFFFFFFFFFFFF AND PUSH20 0xFFFFFFFFFFFFFFFFFFFFFFFFFFFFFFFFFFFFFFFF AND PUSH4 0xF305D719 DUP6 ADDRESS DUP14 PUSH1 0x0 DUP1 PUSH1 0xF PUSH1 0x0 SWAP1 SLOAD SWAP1 PUSH2 0x100 EXP SWAP1 DIV PUSH20 0xFFFFFFFFFFFFFFFFFFFFFFFFFFFFFFFFFFFFFFFF AND TIMESTAMP PUSH1 0x40 MLOAD DUP9 PUSH4 0xFFFFFFFF AND PUSH1 0xE0 SHL DUP2 MSTORE PUSH1 0x4 ADD DUP1 DUP8 PUSH20 0xFFFFFFFFFFFFFFFFFFFFFFFFFFFFFFFFFFFFFFFF AND DUP2 MSTORE PUSH1 0x20 ADD DUP7 DUP2 MSTORE PUSH1 0x20 ADD DUP6 DUP2 MSTORE PUSH1 0x20 ADD DUP5 DUP2 MSTORE PUSH1 0x20 ADD DUP4 PUSH20 0xFFFFFFFFFFFFFFFFFFFFFFFFFFFFFFFFFFFFFFFF AND DUP2 MSTORE PUSH1 0x20 ADD DUP3 DUP2 MSTORE PUSH1 0x20 ADD SWAP7 POP POP POP POP POP POP POP PUSH1 0x60 PUSH1 0x40 MLOAD DUP1 DUP4 SUB DUP2 DUP6 DUP9 DUP1 EXTCODESIZE ISZERO DUP1 ISZERO PUSH2 0x4315 JUMPI PUSH1 0x0 DUP1 REVERT JUMPDEST POP GAS CALL ISZERO DUP1 ISZERO PUSH2 0x4329 JUMPI RETURNDATASIZE PUSH1 0x0 DUP1 RETURNDATACOPY RETURNDATASIZE PUSH1 0x0 REVERT JUMPDEST POP POP POP POP POP PUSH1 0x40 MLOAD RETURNDATASIZE PUSH1 0x60 DUP2 LT ISZERO PUSH2 0x4340 JUMPI PUSH1 0x0 DUP1 REVERT JUMPDEST DUP2 ADD SWAP1 DUP1 DUP1 MLOAD SWAP1 PUSH1 0x20 ADD SWAP1 SWAP3 SWAP2 SWAP1 DUP1 MLOAD SWAP1 PUSH1 0x20 ADD SWAP1 SWAP3 SWAP2 SWAP1 DUP1 MLOAD SWAP1 PUSH1 0x20 ADD SWAP1 SWAP3 SWAP2 SWAP1 POP POP POP POP POP POP JUMPDEST POP POP POP POP POP POP POP POP POP POP POP POP PUSH1 0x0 PUSH1 0x17 PUSH1 0x0 PUSH2 0x100 EXP DUP2 SLOAD DUP2 PUSH1 0xFF MUL NOT AND SWAP1 DUP4 ISZERO ISZERO MUL OR SWAP1 SSTORE POP JUMP JUMPDEST PUSH1 0x0 DUP3 PUSH20 0xFFFFFFFFFFFFFFFFFFFFFFFFFFFFFFFFFFFFFFFF AND PUSH1 0x15 PUSH1 0x0 SWAP1 SLOAD SWAP1 PUSH2 0x100 EXP SWAP1 DIV PUSH20 0xFFFFFFFFFFFFFFFFFFFFFFFFFFFFFFFFFFFFFFFF AND PUSH20 0xFFFFFFFFFFFFFFFFFFFFFFFFFFFFFFFFFFFFFFFF AND EQ DUP1 PUSH2 0x443D JUMPI POP DUP2 PUSH20 0xFFFFFFFFFFFFFFFFFFFFFFFFFFFFFFFFFFFFFFFF AND PUSH1 0x15 PUSH1 0x0 SWAP1 SLOAD SWAP1 PUSH2 0x100 EXP SWAP1 DIV PUSH20 0xFFFFFFFFFFFFFFFFFFFFFFFFFFFFFFFFFFFFFFFF AND PUSH20 0xFFFFFFFFFFFFFFFFFFFFFFFFFFFFFFFFFFFFFFFF AND EQ JUMPDEST DUP1 ISZERO PUSH2 0x4493 JUMPI POP PUSH1 0x6 PUSH1 0x0 DUP5 PUSH20 0xFFFFFFFFFFFFFFFFFFFFFFFFFFFFFFFFFFFFFFFF AND PUSH20 0xFFFFFFFFFFFFFFFFFFFFFFFFFFFFFFFFFFFFFFFF AND DUP2 MSTORE PUSH1 0x20 ADD SWAP1 DUP2 MSTORE PUSH1 0x20 ADD PUSH1 0x0 KECCAK256 PUSH1 0x0 SWAP1 SLOAD SWAP1 PUSH2 0x100 EXP SWAP1 DIV PUSH1 0xFF AND ISZERO JUMPDEST SWAP1 POP SWAP3 SWAP2 POP POP JUMP JUMPDEST PUSH1 0x0 DUP1 PUSH1 0xB SLOAD SWAP1 POP PUSH1 0x15 PUSH1 0x0 SWAP1 SLOAD SWAP1 PUSH2 0x100 EXP SWAP1 DIV PUSH20 0xFFFFFFFFFFFFFFFFFFFFFFFFFFFFFFFFFFFFFFFF AND PUSH20 0xFFFFFFFFFFFFFFFFFFFFFFFFFFFFFFFFFFFFFFFF AND DUP5 PUSH20 0xFFFFFFFFFFFFFFFFFFFFFFFFFFFFFFFFFFFFFFFF AND EQ ISZERO PUSH2 0x4511 JUMPI PUSH2 0x450E PUSH1 0xA SLOAD DUP3 PUSH2 0x30BD SWAP1 SWAP2 SWAP1 PUSH4 0xFFFFFFFF AND JUMP JUMPDEST SWAP1 POP JUMPDEST PUSH1 0x0 PUSH2 0x453A PUSH1 0xC SLOAD PUSH2 0x452C DUP5 DUP8 PUSH2 0x3849 SWAP1 SWAP2 SWAP1 PUSH4 0xFFFFFFFF AND JUMP JUMPDEST PUSH2 0x3145 SWAP1 SWAP2 SWAP1 PUSH4 0xFFFFFFFF AND JUMP JUMPDEST SWAP1 POP PUSH2 0x458E DUP2 PUSH1 0x1A PUSH1 0x0 ADDRESS PUSH20 0xFFFFFFFFFFFFFFFFFFFFFFFFFFFFFFFFFFFFFFFF AND PUSH20 0xFFFFFFFFFFFFFFFFFFFFFFFFFFFFFFFFFFFFFFFF AND DUP2 MSTORE PUSH1 0x20 ADD SWAP1 DUP2 MSTORE PUSH1 0x20 ADD PUSH1 0x0 KECCAK256 SLOAD PUSH2 0x30BD SWAP1 SWAP2 SWAP1 PUSH4 0xFFFFFFFF AND JUMP JUMPDEST PUSH1 0x1A PUSH1 0x0 ADDRESS PUSH20 0xFFFFFFFFFFFFFFFFFFFFFFFFFFFFFFFFFFFFFFFF AND PUSH20 0xFFFFFFFFFFFFFFFFFFFFFFFFFFFFFFFFFFFFFFFF AND DUP2 MSTORE PUSH1 0x20 ADD SWAP1 DUP2 MSTORE PUSH1 0x20 ADD PUSH1 0x0 KECCAK256 DUP2 SWAP1 SSTORE POP ADDRESS PUSH20 0xFFFFFFFFFFFFFFFFFFFFFFFFFFFFFFFFFFFFFFFF AND DUP7 PUSH20 0xFFFFFFFFFFFFFFFFFFFFFFFFFFFFFFFFFFFFFFFF AND PUSH32 0xDDF252AD1BE2C89B69C2B068FC378DAA952BA7F163C4A11628F55A4DF523B3EF PUSH2 0x4635 PUSH1 0x19 SLOAD DUP6 PUSH2 0x3145 SWAP1 SWAP2 SWAP1 PUSH4 0xFFFFFFFF AND JUMP JUMPDEST PUSH1 0x40 MLOAD DUP1 DUP3 DUP2 MSTORE PUSH1 0x20 ADD SWAP2 POP POP PUSH1 0x40 MLOAD DUP1 SWAP2 SUB SWAP1 LOG3 PUSH2 0x465D DUP2 DUP6 PUSH2 0x366D SWAP1 SWAP2 SWAP1 PUSH4 0xFFFFFFFF AND JUMP JUMPDEST SWAP3 POP POP POP SWAP4 SWAP3 POP POP POP JUMP JUMPDEST PUSH2 0x4672 DUP3 DUP3 PUSH2 0x376B JUMP JUMPDEST PUSH2 0x46C7 JUMPI PUSH1 0x40 MLOAD PUSH32 0x8C379A000000000000000000000000000000000000000000000000000000000 DUP2 MSTORE PUSH1 0x4 ADD DUP1 DUP1 PUSH1 0x20 ADD DUP3 DUP2 SUB DUP3 MSTORE PUSH1 0x21 DUP2 MSTORE PUSH1 0x20 ADD DUP1 PUSH2 0x4756 PUSH1 0x21 SWAP2 CODECOPY PUSH1 0x40 ADD SWAP2 POP POP PUSH1 0x40 MLOAD DUP1 SWAP2 SUB SWAP1 REVERT JUMPDEST PUSH1 0x0 DUP3 PUSH1 0x0 ADD PUSH1 0x0 DUP4 PUSH20 0xFFFFFFFFFFFFFFFFFFFFFFFFFFFFFFFFFFFFFFFF AND PUSH20 0xFFFFFFFFFFFFFFFFFFFFFFFFFFFFFFFFFFFFFFFF AND DUP2 MSTORE PUSH1 0x20 ADD SWAP1 DUP2 MSTORE PUSH1 0x20 ADD PUSH1 0x0 KECCAK256 PUSH1 0x0 PUSH2 0x100 EXP DUP2 SLOAD DUP2 PUSH1 0xFF MUL NOT AND SWAP1 DUP4 ISZERO ISZERO MUL OR SWAP1 SSTORE POP POP POP JUMP INVALID 0x4D PUSH10 0x6E746572526F6C653A20 PUSH4 0x616C6C65 PUSH19 0x20646F6573206E6F7420686176652074686520 0x4D PUSH10 0x6E74657220726F6C6552 PUSH16 0x6C65733A206163636F756E7420646F65 PUSH20 0x206E6F74206861766520726F6C65536166654D61 PUSH21 0x683A206D756C7469706C69636174696F6E206F7665 PUSH19 0x666C6F77526F6C65733A206163636F756E7420 PUSH10 0x7320746865207A65726F KECCAK256 PUSH2 0x6464 PUSH19 0x657373A264697066735822122014B685F657FD DUP11 TIMESTAMP 0xD2 0xC4 LOG1 EQ 0x48 0x21 0x2D SWAP2 SAR CALLDATASIZE SLOAD 0xF9 0xE1 0xCB XOR RETURN 0x29 EXTCODEHASH ADDRESS 0xD5 GT DUP15 0xB8 0x4C PUSH5 0x736F6C6343 STOP SMOD DIV STOP CALLER MSTORE PUSH16 0x6C65733A206163636F756E7420697320 PUSH21 0x6865207A65726F2061646472657373000000000000 "
				},
				"gasEstimates": {
					"creation": {
						"codeDepositCost": "3683000",
						"executionCost": "infinite",
						"totalCost": "infinite"
					},
					"external": {
						"RiskFreeValue()": "1073",
						"RiskFreeValueReceiver()": "1136",
						"Treasury()": "1139",
						"TreasuryReceiver()": "1138",
						"addMinter(address)": "infinite",
						"allowance(address,address)": "1387",
						"approve(address,uint256)": "25263",
						"autoLiquidityReceiver()": "1137",
						"balanceOf(address)": "infinite",
						"blacklist(address)": "1332",
						"checkFeeExempt(address)": "1349",
						"checkSwapThreshold()": "infinite",
						"clearStuckBalance(uint256,address)": "infinite",
						"decimals()": "1146",
						"decreaseAllowance(address,uint256)": "infinite",
						"enableTransfer(address)": "22213",
						"feeDenominator()": "1140",
						"getCirculatingSupply()": "infinite",
						"getLiquidityBacking(uint256)": "infinite",
						"increaseAllowance(address,uint256)": "infinite",
						"initialDistributionFinished()": "1164",
						"isMinter(address)": "infinite",
						"isNotInSwap()": "1171",
						"isOverLiquified(uint256,uint256)": "infinite",
						"isOwner()": "1212",
						"liquidityFee()": "1073",
						"manualSync()": "infinite",
						"mint(address,uint256)": "infinite",
						"name()": "infinite",
						"owner()": "1173",
						"pair()": "1136",
						"pairContract()": "1159",
						"rebase(uint256,int256)": "infinite",
						"removeMinter(address)": "infinite",
						"renounceMinter()": "infinite",
						"renounceOwnership()": "24152",
						"rescueToken(address,uint256)": "infinite",
						"router()": "1157",
						"sellFee()": "1095",
						"sendPresale(address[],uint256[])": "infinite",
						"setFeeExempt(address)": "22257",
						"setFeeReceivers(address,address,address)": "63971",
						"setFees(uint256,uint256,uint256,uint256,uint256)": "infinite",
						"setInitialDistributionFinished()": "22128",
						"setLP(address)": "23112",
						"setSwapBackSettings(bool,uint256,uint256)": "infinite",
						"setTargetLiquidity(uint256,uint256)": "41331",
						"swapEnabled()": "1209",
						"symbol()": "infinite",
						"totalFee()": "1074",
						"totalSupply()": "1170",
						"transfer(address,uint256)": "infinite",
						"transferFrom(address,address,uint256)": "infinite",
						"transferOwnership(address)": "24692",
						"updateBlacklist(address,bool)": "22293"
					},
					"internal": {
						"_basicTransfer(address,address,uint256)": "infinite",
						"_transferFrom(address,address,uint256)": "infinite",
						"shouldSwapBack()": "4383",
						"shouldTakeFee(address,address)": "2720",
						"swapBack()": "infinite",
						"takeFee(address,address,uint256)": "infinite",
						"transferToAddressETH(address payable,uint256)": "infinite"
					}
				},
				"methodIdentifiers": {
					"RiskFreeValue()": "bda5c8bb",
					"RiskFreeValueReceiver()": "d7ac6585",
					"Treasury()": "563df32f",
					"TreasuryReceiver()": "800cee51",
					"addMinter(address)": "983b2d56",
					"allowance(address,address)": "dd62ed3e",
					"approve(address,uint256)": "095ea7b3",
					"autoLiquidityReceiver()": "ca33e64c",
					"balanceOf(address)": "70a08231",
					"blacklist(address)": "f9f92be4",
					"checkFeeExempt(address)": "d4399790",
					"checkSwapThreshold()": "6d351d1a",
					"clearStuckBalance(uint256,address)": "56a227f2",
					"decimals()": "313ce567",
					"decreaseAllowance(address,uint256)": "a457c2d7",
					"enableTransfer(address)": "d5938aac",
					"feeDenominator()": "180b0d7e",
					"getCirculatingSupply()": "2b112e49",
					"getLiquidityBacking(uint256)": "d51ed1c8",
					"increaseAllowance(address,uint256)": "39509351",
					"initialDistributionFinished()": "d1fce264",
					"isMinter(address)": "aa271e1a",
					"isNotInSwap()": "83b4ac68",
					"isOverLiquified(uint256,uint256)": "1161ae39",
					"isOwner()": "8f32d59b",
					"liquidityFee()": "98118cb4",
					"manualSync()": "753d02a1",
					"mint(address,uint256)": "40c10f19",
					"name()": "06fdde03",
					"owner()": "8da5cb5b",
					"pair()": "a8aa1b31",
					"pairContract()": "4d709adf",
					"rebase(uint256,int256)": "7a43e23f",
					"removeMinter(address)": "3092afd5",
					"renounceMinter()": "98650275",
					"renounceOwnership()": "715018a6",
					"rescueToken(address,uint256)": "33f3d628",
					"router()": "f887ea40",
					"sellFee()": "2b14ca56",
					"sendPresale(address[],uint256[])": "d37e219d",
					"setFeeExempt(address)": "749796a5",
					"setFeeReceivers(address,address,address)": "d7c01032",
					"setFees(uint256,uint256,uint256,uint256,uint256)": "04a66b48",
					"setInitialDistributionFinished()": "2be6937d",
					"setLP(address)": "2f34d282",
					"setSwapBackSettings(bool,uint256,uint256)": "d0889358",
					"setTargetLiquidity(uint256,uint256)": "201e7991",
					"swapEnabled()": "6ddd1713",
					"symbol()": "95d89b41",
					"totalFee()": "1df4ccfc",
					"totalSupply()": "18160ddd",
					"transfer(address,uint256)": "a9059cbb",
					"transferFrom(address,address,uint256)": "23b872dd",
					"transferOwnership(address)": "f2fde38b",
					"updateBlacklist(address,bool)": "9155e083"
				}
			},
			"storageLayout": {
				"storage": [
					{
						"astId": 604,
						"contract": "bep-20.sol:Lost",
						"label": "_name",
						"offset": 0,
						"slot": "0",
						"type": "t_string_storage"
					},
					{
						"astId": 606,
						"contract": "bep-20.sol:Lost",
						"label": "_symbol",
						"offset": 0,
						"slot": "1",
						"type": "t_string_storage"
					},
					{
						"astId": 608,
						"contract": "bep-20.sol:Lost",
						"label": "_decimals",
						"offset": 0,
						"slot": "2",
						"type": "t_uint8"
					},
					{
						"astId": 764,
						"contract": "bep-20.sol:Lost",
						"label": "_owner",
						"offset": 1,
						"slot": "2",
						"type": "t_address"
					},
					{
						"astId": 524,
						"contract": "bep-20.sol:Lost",
						"label": "_minters",
						"offset": 0,
						"slot": "3",
						"type": "t_struct(Role)433_storage"
					},
					{
						"astId": 885,
						"contract": "bep-20.sol:Lost",
						"label": "pairContract",
						"offset": 0,
						"slot": "4",
						"type": "t_contract(InterfaceLP)428"
					},
					{
						"astId": 887,
						"contract": "bep-20.sol:Lost",
						"label": "initialDistributionFinished",
						"offset": 20,
						"slot": "4",
						"type": "t_bool"
					},
					{
						"astId": 891,
						"contract": "bep-20.sol:Lost",
						"label": "allowTransfer",
						"offset": 0,
						"slot": "5",
						"type": "t_mapping(t_address,t_bool)"
					},
					{
						"astId": 895,
						"contract": "bep-20.sol:Lost",
						"label": "_isFeeExempt",
						"offset": 0,
						"slot": "6",
						"type": "t_mapping(t_address,t_bool)"
					},
					{
						"astId": 950,
						"contract": "bep-20.sol:Lost",
						"label": "liquidityFee",
						"offset": 0,
						"slot": "7",
						"type": "t_uint256"
					},
					{
						"astId": 953,
						"contract": "bep-20.sol:Lost",
						"label": "Treasury",
						"offset": 0,
						"slot": "8",
						"type": "t_uint256"
					},
					{
						"astId": 956,
						"contract": "bep-20.sol:Lost",
						"label": "RiskFreeValue",
						"offset": 0,
						"slot": "9",
						"type": "t_uint256"
					},
					{
						"astId": 959,
						"contract": "bep-20.sol:Lost",
						"label": "sellFee",
						"offset": 0,
						"slot": "10",
						"type": "t_uint256"
					},
					{
						"astId": 968,
						"contract": "bep-20.sol:Lost",
						"label": "totalFee",
						"offset": 0,
						"slot": "11",
						"type": "t_uint256"
					},
					{
						"astId": 971,
						"contract": "bep-20.sol:Lost",
						"label": "feeDenominator",
						"offset": 0,
						"slot": "12",
						"type": "t_uint256"
					},
					{
						"astId": 974,
						"contract": "bep-20.sol:Lost",
						"label": "DEAD",
						"offset": 0,
						"slot": "13",
						"type": "t_address"
					},
					{
						"astId": 977,
						"contract": "bep-20.sol:Lost",
						"label": "ZERO",
						"offset": 0,
						"slot": "14",
						"type": "t_address"
					},
					{
						"astId": 979,
						"contract": "bep-20.sol:Lost",
						"label": "autoLiquidityReceiver",
						"offset": 0,
						"slot": "15",
						"type": "t_address"
					},
					{
						"astId": 981,
						"contract": "bep-20.sol:Lost",
						"label": "TreasuryReceiver",
						"offset": 0,
						"slot": "16",
						"type": "t_address"
					},
					{
						"astId": 983,
						"contract": "bep-20.sol:Lost",
						"label": "RiskFreeValueReceiver",
						"offset": 0,
						"slot": "17",
						"type": "t_address"
					},
					{
						"astId": 986,
						"contract": "bep-20.sol:Lost",
						"label": "targetLiquidity",
						"offset": 0,
						"slot": "18",
						"type": "t_uint256"
					},
					{
						"astId": 989,
						"contract": "bep-20.sol:Lost",
						"label": "targetLiquidityDenominator",
						"offset": 0,
						"slot": "19",
						"type": "t_uint256"
					},
					{
						"astId": 991,
						"contract": "bep-20.sol:Lost",
						"label": "router",
						"offset": 0,
						"slot": "20",
						"type": "t_contract(IDEXRouter)752"
					},
					{
						"astId": 993,
						"contract": "bep-20.sol:Lost",
						"label": "pair",
						"offset": 0,
						"slot": "21",
						"type": "t_address"
					},
					{
						"astId": 996,
						"contract": "bep-20.sol:Lost",
						"label": "swapEnabled",
						"offset": 20,
						"slot": "21",
						"type": "t_bool"
					},
					{
						"astId": 1004,
						"contract": "bep-20.sol:Lost",
						"label": "gonSwapThreshold",
						"offset": 0,
						"slot": "22",
						"type": "t_uint256"
					},
					{
						"astId": 1006,
						"contract": "bep-20.sol:Lost",
						"label": "inSwap",
						"offset": 0,
						"slot": "23",
						"type": "t_bool"
					},
					{
						"astId": 1035,
						"contract": "bep-20.sol:Lost",
						"label": "_totalSupply",
						"offset": 0,
						"slot": "24",
						"type": "t_uint256"
					},
					{
						"astId": 1037,
						"contract": "bep-20.sol:Lost",
						"label": "_gonsPerFragment",
						"offset": 0,
						"slot": "25",
						"type": "t_uint256"
					},
					{
						"astId": 1041,
						"contract": "bep-20.sol:Lost",
						"label": "_gonBalances",
						"offset": 0,
						"slot": "26",
						"type": "t_mapping(t_address,t_uint256)"
					},
					{
						"astId": 1047,
						"contract": "bep-20.sol:Lost",
						"label": "_allowedFragments",
						"offset": 0,
						"slot": "27",
						"type": "t_mapping(t_address,t_mapping(t_address,t_uint256))"
					},
					{
						"astId": 1051,
						"contract": "bep-20.sol:Lost",
						"label": "blacklist",
						"offset": 0,
						"slot": "28",
						"type": "t_mapping(t_address,t_bool)"
					}
				],
				"types": {
					"t_address": {
						"encoding": "inplace",
						"label": "address",
						"numberOfBytes": "20"
					},
					"t_bool": {
						"encoding": "inplace",
						"label": "bool",
						"numberOfBytes": "1"
					},
					"t_contract(IDEXRouter)752": {
						"encoding": "inplace",
						"label": "contract IDEXRouter",
						"numberOfBytes": "20"
					},
					"t_contract(InterfaceLP)428": {
						"encoding": "inplace",
						"label": "contract InterfaceLP",
						"numberOfBytes": "20"
					},
					"t_mapping(t_address,t_bool)": {
						"encoding": "mapping",
						"key": "t_address",
						"label": "mapping(address => bool)",
						"numberOfBytes": "32",
						"value": "t_bool"
					},
					"t_mapping(t_address,t_mapping(t_address,t_uint256))": {
						"encoding": "mapping",
						"key": "t_address",
						"label": "mapping(address => mapping(address => uint256))",
						"numberOfBytes": "32",
						"value": "t_mapping(t_address,t_uint256)"
					},
					"t_mapping(t_address,t_uint256)": {
						"encoding": "mapping",
						"key": "t_address",
						"label": "mapping(address => uint256)",
						"numberOfBytes": "32",
						"value": "t_uint256"
					},
					"t_string_storage": {
						"encoding": "bytes",
						"label": "string",
						"numberOfBytes": "32"
					},
					"t_struct(Role)433_storage": {
						"encoding": "inplace",
						"label": "struct Roles.Role",
						"members": [
							{
								"astId": 432,
								"contract": "bep-20.sol:Lost",
								"label": "bearer",
								"offset": 0,
								"slot": "0",
								"type": "t_mapping(t_address,t_bool)"
							}
						],
						"numberOfBytes": "32"
					},
					"t_uint256": {
						"encoding": "inplace",
						"label": "uint256",
						"numberOfBytes": "32"
					},
					"t_uint8": {
						"encoding": "inplace",
						"label": "uint8",
						"numberOfBytes": "1"
					}
				}
			},
			"userdoc": {
				"kind": "user",
				"methods": {},
				"version": 1
			}
		}
	}
}