{
	"bep-20.sol": {
		"Raventoken": {
			"abi": [
				{
					"inputs": [],
					"stateMutability": "nonpayable",
					"type": "constructor"
				},
				{
					"anonymous": false,
					"inputs": [
						{
							"indexed": true,
							"internalType": "address",
							"name": "owner",
							"type": "address"
						},
						{
							"indexed": true,
							"internalType": "address",
							"name": "spender",
							"type": "address"
						},
						{
							"indexed": false,
							"internalType": "uint256",
							"name": "value",
							"type": "uint256"
						}
					],
					"name": "Approval",
					"type": "event"
				},
				{
					"anonymous": false,
					"inputs": [
						{
							"indexed": true,
							"internalType": "uint256",
							"name": "epoch",
							"type": "uint256"
						},
						{
							"indexed": false,
							"internalType": "uint256",
							"name": "totalSupply",
							"type": "uint256"
						}
					],
					"name": "LogRebase",
					"type": "event"
				},
				{
					"anonymous": false,
					"inputs": [
						{
							"indexed": true,
							"internalType": "address",
							"name": "account",
							"type": "address"
						}
					],
					"name": "MinterAdded",
					"type": "event"
				},
				{
					"anonymous": false,
					"inputs": [
						{
							"indexed": true,
							"internalType": "address",
							"name": "account",
							"type": "address"
						}
					],
					"name": "MinterRemoved",
					"type": "event"
				},
				{
					"anonymous": false,
					"inputs": [
						{
							"indexed": true,
							"internalType": "address",
							"name": "previousOwner",
							"type": "address"
						}
					],
					"name": "OwnershipRenounced",
					"type": "event"
				},
				{
					"anonymous": false,
					"inputs": [
						{
							"indexed": true,
							"internalType": "address",
							"name": "previousOwner",
							"type": "address"
						},
						{
							"indexed": true,
							"internalType": "address",
							"name": "newOwner",
							"type": "address"
						}
					],
					"name": "OwnershipTransferred",
					"type": "event"
				},
				{
					"anonymous": false,
					"inputs": [
						{
							"indexed": true,
							"internalType": "address",
							"name": "from",
							"type": "address"
						},
						{
							"indexed": true,
							"internalType": "address",
							"name": "to",
							"type": "address"
						},
						{
							"indexed": false,
							"internalType": "uint256",
							"name": "value",
							"type": "uint256"
						}
					],
					"name": "Transfer",
					"type": "event"
				},
				{
					"inputs": [],
					"name": "RiskFreeValue",
					"outputs": [
						{
							"internalType": "uint256",
							"name": "",
							"type": "uint256"
						}
					],
					"stateMutability": "view",
					"type": "function"
				},
				{
					"inputs": [],
					"name": "RiskFreeValueReceiver",
					"outputs": [
						{
							"internalType": "address",
							"name": "",
							"type": "address"
						}
					],
					"stateMutability": "view",
					"type": "function"
				},
				{
					"inputs": [],
					"name": "Treasury",
					"outputs": [
						{
							"internalType": "uint256",
							"name": "",
							"type": "uint256"
						}
					],
					"stateMutability": "view",
					"type": "function"
				},
				{
					"inputs": [],
					"name": "TreasuryReceiver",
					"outputs": [
						{
							"internalType": "address",
							"name": "",
							"type": "address"
						}
					],
					"stateMutability": "view",
					"type": "function"
				},
				{
					"inputs": [
						{
							"internalType": "address",
							"name": "account",
							"type": "address"
						}
					],
					"name": "addMinter",
					"outputs": [],
					"stateMutability": "nonpayable",
					"type": "function"
				},
				{
					"inputs": [
						{
							"internalType": "address",
							"name": "owner_",
							"type": "address"
						},
						{
							"internalType": "address",
							"name": "spender",
							"type": "address"
						}
					],
					"name": "allowance",
					"outputs": [
						{
							"internalType": "uint256",
							"name": "",
							"type": "uint256"
						}
					],
					"stateMutability": "view",
					"type": "function"
				},
				{
					"inputs": [
						{
							"internalType": "address",
							"name": "spender",
							"type": "address"
						},
						{
							"internalType": "uint256",
							"name": "value",
							"type": "uint256"
						}
					],
					"name": "approve",
					"outputs": [
						{
							"internalType": "bool",
							"name": "",
							"type": "bool"
						}
					],
					"stateMutability": "nonpayable",
					"type": "function"
				},
				{
					"inputs": [],
					"name": "autoLiquidityReceiver",
					"outputs": [
						{
							"internalType": "address",
							"name": "",
							"type": "address"
						}
					],
					"stateMutability": "view",
					"type": "function"
				},
				{
					"inputs": [
						{
							"internalType": "address",
							"name": "who",
							"type": "address"
						}
					],
					"name": "balanceOf",
					"outputs": [
						{
							"internalType": "uint256",
							"name": "",
							"type": "uint256"
						}
					],
					"stateMutability": "view",
					"type": "function"
				},
				{
					"inputs": [
						{
							"internalType": "address",
							"name": "",
							"type": "address"
						}
					],
					"name": "blacklist",
					"outputs": [
						{
							"internalType": "bool",
							"name": "",
							"type": "bool"
						}
					],
					"stateMutability": "view",
					"type": "function"
				},
				{
					"inputs": [
						{
							"internalType": "address",
							"name": "_addr",
							"type": "address"
						}
					],
					"name": "checkFeeExempt",
					"outputs": [
						{
							"internalType": "bool",
							"name": "",
							"type": "bool"
						}
					],
					"stateMutability": "view",
					"type": "function"
				},
				{
					"inputs": [],
					"name": "checkSwapThreshold",
					"outputs": [
						{
							"internalType": "uint256",
							"name": "",
							"type": "uint256"
						}
					],
					"stateMutability": "view",
					"type": "function"
				},
				{
					"inputs": [
						{
							"internalType": "uint256",
							"name": "amountPercentage",
							"type": "uint256"
						},
						{
							"internalType": "address",
							"name": "adr",
							"type": "address"
						}
					],
					"name": "clearStuckBalance",
					"outputs": [],
					"stateMutability": "nonpayable",
					"type": "function"
				},
				{
					"inputs": [],
					"name": "decimals",
					"outputs": [
						{
							"internalType": "uint8",
							"name": "",
							"type": "uint8"
						}
					],
					"stateMutability": "view",
					"type": "function"
				},
				{
					"inputs": [
						{
							"internalType": "address",
							"name": "spender",
							"type": "address"
						},
						{
							"internalType": "uint256",
							"name": "subtractedValue",
							"type": "uint256"
						}
					],
					"name": "decreaseAllowance",
					"outputs": [
						{
							"internalType": "bool",
							"name": "",
							"type": "bool"
						}
					],
					"stateMutability": "nonpayable",
					"type": "function"
				},
				{
					"inputs": [
						{
							"internalType": "address",
							"name": "_addr",
							"type": "address"
						}
					],
					"name": "enableTransfer",
					"outputs": [],
					"stateMutability": "nonpayable",
					"type": "function"
				},
				{
					"inputs": [],
					"name": "feeDenominator",
					"outputs": [
						{
							"internalType": "uint256",
							"name": "",
							"type": "uint256"
						}
					],
					"stateMutability": "view",
					"type": "function"
				},
				{
					"inputs": [],
					"name": "getCirculatingSupply",
					"outputs": [
						{
							"internalType": "uint256",
							"name": "",
							"type": "uint256"
						}
					],
					"stateMutability": "view",
					"type": "function"
				},
				{
					"inputs": [
						{
							"internalType": "uint256",
							"name": "accuracy",
							"type": "uint256"
						}
					],
					"name": "getLiquidityBacking",
					"outputs": [
						{
							"internalType": "uint256",
							"name": "",
							"type": "uint256"
						}
					],
					"stateMutability": "view",
					"type": "function"
				},
				{
					"inputs": [
						{
							"internalType": "address",
							"name": "spender",
							"type": "address"
						},
						{
							"internalType": "uint256",
							"name": "addedValue",
							"type": "uint256"
						}
					],
					"name": "increaseAllowance",
					"outputs": [
						{
							"internalType": "bool",
							"name": "",
							"type": "bool"
						}
					],
					"stateMutability": "nonpayable",
					"type": "function"
				},
				{
					"inputs": [],
					"name": "initialDistributionFinished",
					"outputs": [
						{
							"internalType": "bool",
							"name": "",
							"type": "bool"
						}
					],
					"stateMutability": "view",
					"type": "function"
				},
				{
					"inputs": [
						{
							"internalType": "address",
							"name": "account",
							"type": "address"
						}
					],
					"name": "isMinter",
					"outputs": [
						{
							"internalType": "bool",
							"name": "",
							"type": "bool"
						}
					],
					"stateMutability": "view",
					"type": "function"
				},
				{
					"inputs": [],
					"name": "isNotInSwap",
					"outputs": [
						{
							"internalType": "bool",
							"name": "",
							"type": "bool"
						}
					],
					"stateMutability": "view",
					"type": "function"
				},
				{
					"inputs": [
						{
							"internalType": "uint256",
							"name": "target",
							"type": "uint256"
						},
						{
							"internalType": "uint256",
							"name": "accuracy",
							"type": "uint256"
						}
					],
					"name": "isOverLiquified",
					"outputs": [
						{
							"internalType": "bool",
							"name": "",
							"type": "bool"
						}
					],
					"stateMutability": "view",
					"type": "function"
				},
				{
					"inputs": [],
					"name": "isOwner",
					"outputs": [
						{
							"internalType": "bool",
							"name": "",
							"type": "bool"
						}
					],
					"stateMutability": "view",
					"type": "function"
				},
				{
					"inputs": [],
					"name": "liquidityFee",
					"outputs": [
						{
							"internalType": "uint256",
							"name": "",
							"type": "uint256"
						}
					],
					"stateMutability": "view",
					"type": "function"
				},
				{
					"inputs": [],
					"name": "manualSync",
					"outputs": [],
					"stateMutability": "nonpayable",
					"type": "function"
				},
				{
					"inputs": [
						{
							"internalType": "address",
							"name": "recipient",
							"type": "address"
						},
						{
							"internalType": "uint256",
							"name": "amount",
							"type": "uint256"
						}
					],
					"name": "mint",
					"outputs": [],
					"stateMutability": "nonpayable",
					"type": "function"
				},
				{
					"inputs": [],
					"name": "name",
					"outputs": [
						{
							"internalType": "string",
							"name": "",
							"type": "string"
						}
					],
					"stateMutability": "view",
					"type": "function"
				},
				{
					"inputs": [],
					"name": "owner",
					"outputs": [
						{
							"internalType": "address",
							"name": "",
							"type": "address"
						}
					],
					"stateMutability": "view",
					"type": "function"
				},
				{
					"inputs": [],
					"name": "pair",
					"outputs": [
						{
							"internalType": "address",
							"name": "",
							"type": "address"
						}
					],
					"stateMutability": "view",
					"type": "function"
				},
				{
					"inputs": [],
					"name": "pairContract",
					"outputs": [
						{
							"internalType": "contract InterfaceLP",
							"name": "",
							"type": "address"
						}
					],
					"stateMutability": "view",
					"type": "function"
				},
				{
					"inputs": [
						{
							"internalType": "uint256",
							"name": "epoch",
							"type": "uint256"
						},
						{
							"internalType": "int256",
							"name": "supplyDelta",
							"type": "int256"
						}
					],
					"name": "rebase",
					"outputs": [
						{
							"internalType": "uint256",
							"name": "",
							"type": "uint256"
						}
					],
					"stateMutability": "nonpayable",
					"type": "function"
				},
				{
					"inputs": [
						{
							"internalType": "address",
							"name": "account",
							"type": "address"
						}
					],
					"name": "removeMinter",
					"outputs": [],
					"stateMutability": "nonpayable",
					"type": "function"
				},
				{
					"inputs": [],
					"name": "renounceMinter",
					"outputs": [],
					"stateMutability": "nonpayable",
					"type": "function"
				},
				{
					"inputs": [],
					"name": "renounceOwnership",
					"outputs": [],
					"stateMutability": "nonpayable",
					"type": "function"
				},
				{
					"inputs": [
						{
							"internalType": "address",
							"name": "tokenAddress",
							"type": "address"
						},
						{
							"internalType": "uint256",
							"name": "tokens",
							"type": "uint256"
						}
					],
					"name": "rescueToken",
					"outputs": [
						{
							"internalType": "bool",
							"name": "success",
							"type": "bool"
						}
					],
					"stateMutability": "nonpayable",
					"type": "function"
				},
				{
					"inputs": [],
					"name": "router",
					"outputs": [
						{
							"internalType": "contract IDEXRouter",
							"name": "",
							"type": "address"
						}
					],
					"stateMutability": "view",
					"type": "function"
				},
				{
					"inputs": [],
					"name": "sellFee",
					"outputs": [
						{
							"internalType": "uint256",
							"name": "",
							"type": "uint256"
						}
					],
					"stateMutability": "view",
					"type": "function"
				},
				{
					"inputs": [
						{
							"internalType": "address[]",
							"name": "recipients",
							"type": "address[]"
						},
						{
							"internalType": "uint256[]",
							"name": "values",
							"type": "uint256[]"
						}
					],
					"name": "sendPresale",
					"outputs": [],
					"stateMutability": "nonpayable",
					"type": "function"
				},
				{
					"inputs": [
						{
							"internalType": "address",
							"name": "_addr",
							"type": "address"
						}
					],
					"name": "setFeeExempt",
					"outputs": [],
					"stateMutability": "nonpayable",
					"type": "function"
				},
				{
					"inputs": [
						{
							"internalType": "address",
							"name": "_autoLiquidityReceiver",
							"type": "address"
						},
						{
							"internalType": "address",
							"name": "_TreasuryReceiver",
							"type": "address"
						},
						{
							"internalType": "address",
							"name": "_RiskFreeValueReceiver",
							"type": "address"
						}
					],
					"name": "setFeeReceivers",
					"outputs": [],
					"stateMutability": "nonpayable",
					"type": "function"
				},
				{
					"inputs": [
						{
							"internalType": "uint256",
							"name": "_liquidityFee",
							"type": "uint256"
						},
						{
							"internalType": "uint256",
							"name": "_RiskFreeValue",
							"type": "uint256"
						},
						{
							"internalType": "uint256",
							"name": "_Treasury",
							"type": "uint256"
						},
						{
							"internalType": "uint256",
							"name": "_sellFee",
							"type": "uint256"
						},
						{
							"internalType": "uint256",
							"name": "_feeDenominator",
							"type": "uint256"
						}
					],
					"name": "setFees",
					"outputs": [],
					"stateMutability": "nonpayable",
					"type": "function"
				},
				{
					"inputs": [],
					"name": "setInitialDistributionFinished",
					"outputs": [],
					"stateMutability": "nonpayable",
					"type": "function"
				},
				{
					"inputs": [
						{
							"internalType": "address",
							"name": "_address",
							"type": "address"
						}
					],
					"name": "setLP",
					"outputs": [],
					"stateMutability": "nonpayable",
					"type": "function"
				},
				{
					"inputs": [
						{
							"internalType": "bool",
							"name": "_enabled",
							"type": "bool"
						},
						{
							"internalType": "uint256",
							"name": "_num",
							"type": "uint256"
						},
						{
							"internalType": "uint256",
							"name": "_denom",
							"type": "uint256"
						}
					],
					"name": "setSwapBackSettings",
					"outputs": [],
					"stateMutability": "nonpayable",
					"type": "function"
				},
				{
					"inputs": [
						{
							"internalType": "uint256",
							"name": "target",
							"type": "uint256"
						},
						{
							"internalType": "uint256",
							"name": "accuracy",
							"type": "uint256"
						}
					],
					"name": "setTargetLiquidity",
					"outputs": [],
					"stateMutability": "nonpayable",
					"type": "function"
				},
				{
					"inputs": [],
					"name": "swapEnabled",
					"outputs": [
						{
							"internalType": "bool",
							"name": "",
							"type": "bool"
						}
					],
					"stateMutability": "view",
					"type": "function"
				},
				{
					"inputs": [],
					"name": "symbol",
					"outputs": [
						{
							"internalType": "string",
							"name": "",
							"type": "string"
						}
					],
					"stateMutability": "view",
					"type": "function"
				},
				{
					"inputs": [],
					"name": "totalFee",
					"outputs": [
						{
							"internalType": "uint256",
							"name": "",
							"type": "uint256"
						}
					],
					"stateMutability": "view",
					"type": "function"
				},
				{
					"inputs": [],
					"name": "totalSupply",
					"outputs": [
						{
							"internalType": "uint256",
							"name": "",
							"type": "uint256"
						}
					],
					"stateMutability": "view",
					"type": "function"
				},
				{
					"inputs": [
						{
							"internalType": "address",
							"name": "to",
							"type": "address"
						},
						{
							"internalType": "uint256",
							"name": "value",
							"type": "uint256"
						}
					],
					"name": "transfer",
					"outputs": [
						{
							"internalType": "bool",
							"name": "",
							"type": "bool"
						}
					],
					"stateMutability": "nonpayable",
					"type": "function"
				},
				{
					"inputs": [
						{
							"internalType": "address",
							"name": "from",
							"type": "address"
						},
						{
							"internalType": "address",
							"name": "to",
							"type": "address"
						},
						{
							"internalType": "uint256",
							"name": "value",
							"type": "uint256"
						}
					],
					"name": "transferFrom",
					"outputs": [
						{
							"internalType": "bool",
							"name": "",
							"type": "bool"
						}
					],
					"stateMutability": "nonpayable",
					"type": "function"
				},
				{
					"inputs": [
						{
							"internalType": "address",
							"name": "newOwner",
							"type": "address"
						}
					],
					"name": "transferOwnership",
					"outputs": [],
					"stateMutability": "nonpayable",
					"type": "function"
				},
				{
					"inputs": [
						{
							"internalType": "address",
							"name": "_user",
							"type": "address"
						},
						{
							"internalType": "bool",
							"name": "_flag",
							"type": "bool"
						}
					],
					"name": "updateBlacklist",
					"outputs": [],
					"stateMutability": "nonpayable",
					"type": "function"
				},
				{
					"stateMutability": "payable",
					"type": "receive"
				}
			],
			"devdoc": {
				"kind": "dev",
				"methods": {},
				"version": 1
			},
			"evm": {
				"assembly": "    /* \"bep-20.sol\":8036:23018  contract Raventoken is ERC20Detailed, Ownable, MinterRole {... */\n  mstore(0x40, 0x80)\n    /* \"bep-20.sol\":8917:8918  5 */\n  0x05\n    /* \"bep-20.sol\":8887:8918  uint256 public liquidityFee = 5 */\n  0x07\n  sstore\n    /* \"bep-20.sol\":8950:8951  3 */\n  0x03\n    /* \"bep-20.sol\":8924:8951  uint256 public Treasury = 3 */\n  0x08\n  sstore\n    /* \"bep-20.sol\":8988:8989  5 */\n  0x05\n    /* \"bep-20.sol\":8957:8989  uint256 public RiskFreeValue = 5 */\n  0x09\n  sstore\n    /* \"bep-20.sol\":9020:9021  5 */\n  0x05\n    /* \"bep-20.sol\":8995:9021  uint256 public sellFee = 5 */\n  0x0a\n  sstore\n    /* \"bep-20.sol\":9061:9106  liquidityFee.add(Treasury).add(RiskFreeValue) */\n  tag_1\n    /* \"bep-20.sol\":9092:9105  RiskFreeValue */\n  sload(0x09)\n    /* \"bep-20.sol\":9061:9087  liquidityFee.add(Treasury) */\n  tag_2\n    /* \"bep-20.sol\":9078:9086  Treasury */\n  sload(0x08)\n    /* \"bep-20.sol\":9061:9073  liquidityFee */\n  sload(0x07)\n    /* \"bep-20.sol\":9061:9077  liquidityFee.add */\n  or(tag_0_281, shl(0x20, tag_3))\n  swap1\n    /* \"bep-20.sol\":9061:9087  liquidityFee.add(Treasury) */\n  swap2\n  swap1\n  0x20\n  shr\n  jump\t// in\ntag_2:\n    /* \"bep-20.sol\":9061:9091  liquidityFee.add(Treasury).add */\n  or(tag_0_281, shl(0x20, tag_3))\n  swap1\n    /* \"bep-20.sol\":9061:9106  liquidityFee.add(Treasury).add(RiskFreeValue) */\n  swap2\n  swap1\n  0x20\n  shr\n  jump\t// in\ntag_1:\n    /* \"bep-20.sol\":9027:9106  uint256 public totalFee =... */\n  0x0b\n  sstore\n    /* \"bep-20.sol\":9144:9147  100 */\n  0x64\n    /* \"bep-20.sol\":9112:9147  uint256 public feeDenominator = 100 */\n  0x0c\n  sstore\n    /* \"bep-20.sol\":9169:9211  0x000000000000000000000000000000000000dEaD */\n  0xdead\n    /* \"bep-20.sol\":9154:9211  address DEAD = 0x000000000000000000000000000000000000dEaD */\n  0x0d\n  exp(0x0100, 0x00)\n  dup2\n  sload\n  dup2\n  0xffffffffffffffffffffffffffffffffffffffff\n  mul\n  not\n  and\n  swap1\n  dup4\n  0xffffffffffffffffffffffffffffffffffffffff\n  and\n  mul\n  or\n  swap1\n  sstore\n  pop\n    /* \"bep-20.sol\":9232:9274  0x0000000000000000000000000000000000000000 */\n  0x00\n    /* \"bep-20.sol\":9217:9274  address ZERO = 0x0000000000000000000000000000000000000000 */\n  0x0e\n  exp(0x0100, 0x00)\n  dup2\n  sload\n  dup2\n  0xffffffffffffffffffffffffffffffffffffffff\n  mul\n  not\n  and\n  swap1\n  dup4\n  0xffffffffffffffffffffffffffffffffffffffff\n  and\n  mul\n  or\n  swap1\n  sstore\n  pop\n    /* \"bep-20.sol\":9429:9431  50 */\n  0x32\n    /* \"bep-20.sol\":9403:9431  uint256 targetLiquidity = 50 */\n  0x12\n  sstore\n    /* \"bep-20.sol\":9474:9477  100 */\n  0x64\n    /* \"bep-20.sol\":9437:9477  uint256 targetLiquidityDenominator = 100 */\n  0x13\n  sstore\n    /* \"bep-20.sol\":9566:9570  true */\n  0x01\n    /* \"bep-20.sol\":9540:9570  bool public swapEnabled = true */\n  0x15\n  exp(0x0100, 0x14)\n  dup2\n  sload\n  dup2\n  0xff\n  mul\n  not\n  and\n  swap1\n  dup4\n  iszero\n  iszero\n  mul\n  or\n  swap1\n  sstore\n  pop\n    /* \"bep-20.sol\":9631:9636  10000 */\n  0x2710\n    /* \"bep-20.sol\":9625:9627  10 */\n  0x0a\n    /* \"bep-20.sol\":8739:8741  18 */\n  0x12\n    /* \"bep-20.sol\":8868:8870  10 */\n  0x0a\n    /* \"bep-20.sol\":8868:8880  10**DECIMALS */\n  exp\n    /* \"bep-20.sol\":8856:8865  4 * 10**9 */\n  0xee6b2800\n    /* \"bep-20.sol\":8856:8880  4 * 10**9 * 10**DECIMALS */\n  mul\n    /* \"bep-20.sol\":8795:8796  0 */\n  0x00\n    /* \"bep-20.sol\":8786:8797  ~uint256(0) */\n  not\n    /* \"bep-20.sol\":9811:9849  MAX_UINT256 % INITIAL_FRAGMENTS_SUPPLY */\n  dup2\n  tag_4\n  jumpi\n  invalid\ntag_4:\n  mod\n    /* \"bep-20.sol\":8795:8796  0 */\n  0x00\n    /* \"bep-20.sol\":8786:8797  ~uint256(0) */\n  not\n    /* \"bep-20.sol\":9796:9850  MAX_UINT256 - (MAX_UINT256 % INITIAL_FRAGMENTS_SUPPLY) */\n  sub\n    /* \"bep-20.sol\":9612:9627  TOTAL_GONS * 10 */\n  mul\n    /* \"bep-20.sol\":9611:9636  (TOTAL_GONS * 10) / 10000 */\n  dup2\n  tag_5\n  jumpi\n  invalid\ntag_5:\n  div\n    /* \"bep-20.sol\":9576:9636  uint256 private gonSwapThreshold = (TOTAL_GONS * 10) / 10000 */\n  0x16\n  sstore\n    /* \"bep-20.sol\":10167:11245  constructor() ERC20Detailed(\"Raventoken\", \"Raventoken\", uint8(DECIMALS)) {... */\n  callvalue\n  dup1\n  iszero\n  tag_6\n  jumpi\n  0x00\n  dup1\n  revert\ntag_6:\n  pop\n    /* \"bep-20.sol\":4978:5163  constructor(... */\n  mload(0x40)\n  dup1\n  0x40\n  add\n  0x40\n  mstore\n  dup1\n  0x0a\n  dup2\n  mstore\n  0x20\n  add\n  0x526176656e746f6b656e00000000000000000000000000000000000000000000\n  dup2\n  mstore\n  pop\n  mload(0x40)\n  dup1\n  0x40\n  add\n  0x40\n  mstore\n  dup1\n  0x0a\n  dup2\n  mstore\n  0x20\n  add\n  0x526176656e746f6b656e00000000000000000000000000000000000000000000\n  dup2\n  mstore\n  pop\n    /* \"bep-20.sol\":8739:8741  18 */\n  0x12\n    /* \"bep-20.sol\":5096:5100  name */\n  dup3\n    /* \"bep-20.sol\":5088:5093  _name */\n  0x00\n    /* \"bep-20.sol\":5088:5100  _name = name */\n  swap1\n  dup1\n  mload\n  swap1\n  0x20\n  add\n  swap1\n  tag_12\n  swap3\n  swap2\n  swap1\n  tag_13\n  jump\t// in\ntag_12:\n  pop\n    /* \"bep-20.sol\":5120:5126  symbol */\n  dup2\n    /* \"bep-20.sol\":5110:5117  _symbol */\n  0x01\n    /* \"bep-20.sol\":5110:5126  _symbol = symbol */\n  swap1\n  dup1\n  mload\n  swap1\n  0x20\n  add\n  swap1\n  tag_14\n  swap3\n  swap2\n  swap1\n  tag_13\n  jump\t// in\ntag_14:\n  pop\n    /* \"bep-20.sol\":5148:5156  decimals */\n  dup1\n    /* \"bep-20.sol\":5136:5145  _decimals */\n  0x02\n  0x00\n    /* \"bep-20.sol\":5136:5156  _decimals = decimals */\n  0x0100\n  exp\n  dup2\n  sload\n  dup2\n  0xff\n  mul\n  not\n  and\n  swap1\n  dup4\n  0xff\n  and\n  mul\n  or\n  swap1\n  sstore\n  pop\n    /* \"bep-20.sol\":4978:5163  constructor(... */\n  pop\n  pop\n  pop\n    /* \"bep-20.sol\":7332:7342  msg.sender */\n  caller\n    /* \"bep-20.sol\":7323:7329  _owner */\n  0x02\n  0x01\n    /* \"bep-20.sol\":7323:7342  _owner = msg.sender */\n  0x0100\n  exp\n  dup2\n  sload\n  dup2\n  0xffffffffffffffffffffffffffffffffffffffff\n  mul\n  not\n  and\n  swap1\n  dup4\n  0xffffffffffffffffffffffffffffffffffffffff\n  and\n  mul\n  or\n  swap1\n  sstore\n  pop\n    /* \"bep-20.sol\":4224:4246  _addMinter(msg.sender) */\n  tag_17\n    /* \"bep-20.sol\":4235:4245  msg.sender */\n  caller\n    /* \"bep-20.sol\":4224:4234  _addMinter */\n  shl(0x20, tag_18)\n    /* \"bep-20.sol\":4224:4246  _addMinter(msg.sender) */\n  0x20\n  shr\n  jump\t// in\ntag_17:\n    /* \"bep-20.sol\":10270:10312  0x10ED43C718714eb63d5aA57B78B54704E256024E */\n  0x10ed43c718714eb63d5aa57b78b54704e256024e\n    /* \"bep-20.sol\":10250:10256  router */\n  0x14\n  0x00\n    /* \"bep-20.sol\":10250:10313  router = IDEXRouter(0x10ED43C718714eb63d5aA57B78B54704E256024E) */\n  0x0100\n  exp\n  dup2\n  sload\n  dup2\n  0xffffffffffffffffffffffffffffffffffffffff\n  mul\n  not\n  and\n  swap1\n  dup4\n  0xffffffffffffffffffffffffffffffffffffffff\n  and\n  mul\n  or\n  swap1\n  sstore\n  pop\n    /* \"bep-20.sol\":10393:10399  router */\n  0x14\n  0x00\n  swap1\n  sload\n  swap1\n  0x0100\n  exp\n  swap1\n  div\n  0xffffffffffffffffffffffffffffffffffffffff\n  and\n    /* \"bep-20.sol\":10393:10407  router.factory */\n  0xffffffffffffffffffffffffffffffffffffffff\n  and\n  0xc45a0155\n    /* \"bep-20.sol\":10393:10409  router.factory() */\n  mload(0x40)\n  dup2\n  0xffffffff\n  and\n  0xe0\n  shl\n  dup2\n  mstore\n  0x04\n  add\n  0x20\n  mload(0x40)\n  dup1\n  dup4\n  sub\n  dup2\n  dup7\n  dup1\n  extcodesize\n  iszero\n  dup1\n  iszero\n  tag_20\n  jumpi\n  0x00\n  dup1\n  revert\ntag_20:\n  pop\n  gas\n  staticcall\n  iszero\n  dup1\n  iszero\n  tag_22\n  jumpi\n  returndatasize\n  0x00\n  dup1\n  returndatacopy\n  revert(0x00, returndatasize)\ntag_22:\n  pop\n  pop\n  pop\n  pop\n  mload(0x40)\n  returndatasize\n  0x20\n  dup2\n  lt\n  iszero\n  tag_23\n  jumpi\n  0x00\n  dup1\n  revert\ntag_23:\n  dup2\n  add\n  swap1\n  dup1\n  dup1\n  mload\n  swap1\n  0x20\n  add\n  swap1\n  swap3\n  swap2\n  swap1\n  pop\n  pop\n  pop\n    /* \"bep-20.sol\":10381:10421  IDEXFactory(router.factory()).createPair */\n  0xffffffffffffffffffffffffffffffffffffffff\n  and\n  0xc9c65396\n    /* \"bep-20.sol\":10435:10441  router */\n  0x14\n  0x00\n  swap1\n  sload\n  swap1\n  0x0100\n  exp\n  swap1\n  div\n  0xffffffffffffffffffffffffffffffffffffffff\n  and\n    /* \"bep-20.sol\":10435:10446  router.WETH */\n  0xffffffffffffffffffffffffffffffffffffffff\n  and\n  0xad5c4648\n    /* \"bep-20.sol\":10435:10448  router.WETH() */\n  mload(0x40)\n  dup2\n  0xffffffff\n  and\n  0xe0\n  shl\n  dup2\n  mstore\n  0x04\n  add\n  0x20\n  mload(0x40)\n  dup1\n  dup4\n  sub\n  dup2\n  dup7\n  dup1\n  extcodesize\n  iszero\n  dup1\n  iszero\n  tag_24\n  jumpi\n  0x00\n  dup1\n  revert\ntag_24:\n  pop\n  gas\n  staticcall\n  iszero\n  dup1\n  iszero\n  tag_26\n  jumpi\n  returndatasize\n  0x00\n  dup1\n  returndatacopy\n  revert(0x00, returndatasize)\ntag_26:\n  pop\n  pop\n  pop\n  pop\n  mload(0x40)\n  returndatasize\n  0x20\n  dup2\n  lt\n  iszero\n  tag_27\n  jumpi\n  0x00\n  dup1\n  revert\ntag_27:\n  dup2\n  add\n  swap1\n  dup1\n  dup1\n  mload\n  swap1\n  0x20\n  add\n  swap1\n  swap3\n  swap2\n  swap1\n  pop\n  pop\n  pop\n    /* \"bep-20.sol\":10470:10474  this */\n  address\n    /* \"bep-20.sol\":10381:10485  IDEXFactory(router.factory()).createPair(... */\n  mload(0x40)\n  dup4\n  0xffffffff\n  and\n  0xe0\n  shl\n  dup2\n  mstore\n  0x04\n  add\n  dup1\n  dup4\n  0xffffffffffffffffffffffffffffffffffffffff\n  and\n  dup2\n  mstore\n  0x20\n  add\n  dup3\n  0xffffffffffffffffffffffffffffffffffffffff\n  and\n  dup2\n  mstore\n  0x20\n  add\n  swap3\n  pop\n  pop\n  pop\n  0x20\n  mload(0x40)\n  dup1\n  dup4\n  sub\n  dup2\n  0x00\n  dup8\n  dup1\n  extcodesize\n  iszero\n  dup1\n  iszero\n  tag_28\n  jumpi\n  0x00\n  dup1\n  revert\ntag_28:\n  pop\n  gas\n  call\n  iszero\n  dup1\n  iszero\n  tag_30\n  jumpi\n  returndatasize\n  0x00\n  dup1\n  returndatacopy\n  revert(0x00, returndatasize)\ntag_30:\n  pop\n  pop\n  pop\n  pop\n  mload(0x40)\n  returndatasize\n  0x20\n  dup2\n  lt\n  iszero\n  tag_31\n  jumpi\n  0x00\n  dup1\n  revert\ntag_31:\n  dup2\n  add\n  swap1\n  dup1\n  dup1\n  mload\n  swap1\n  0x20\n  add\n  swap1\n  swap3\n  swap2\n  swap1\n  pop\n  pop\n  pop\n    /* \"bep-20.sol\":10374:10378  pair */\n  0x15\n  0x00\n    /* \"bep-20.sol\":10374:10485  pair = IDEXFactory(router.factory()).createPair(... */\n  0x0100\n  exp\n  dup2\n  sload\n  dup2\n  0xffffffffffffffffffffffffffffffffffffffff\n  mul\n  not\n  and\n  swap1\n  dup4\n  0xffffffffffffffffffffffffffffffffffffffff\n  and\n  mul\n  or\n  swap1\n  sstore\n  pop\n    /* \"bep-20.sol\":10520:10562  0x2efEBB6C26E709b9240A9c102116D1831BAC6319 */\n  0x2efebb6c26e709b9240a9c102116d1831bac6319\n    /* \"bep-20.sol\":10496:10517  autoLiquidityReceiver */\n  0x0f\n  0x00\n    /* \"bep-20.sol\":10496:10562  autoLiquidityReceiver = 0x2efEBB6C26E709b9240A9c102116D1831BAC6319 */\n  0x0100\n  exp\n  dup2\n  sload\n  dup2\n  0xffffffffffffffffffffffffffffffffffffffff\n  mul\n  not\n  and\n  swap1\n  dup4\n  0xffffffffffffffffffffffffffffffffffffffff\n  and\n  mul\n  or\n  swap1\n  sstore\n  pop\n    /* \"bep-20.sol\":10591:10633  0x2efEBB6C26E709b9240A9c102116D1831BAC6319 */\n  0x2efebb6c26e709b9240a9c102116d1831bac6319\n    /* \"bep-20.sol\":10572:10588  TreasuryReceiver */\n  0x10\n  0x00\n    /* \"bep-20.sol\":10572:10633  TreasuryReceiver = 0x2efEBB6C26E709b9240A9c102116D1831BAC6319 */\n  0x0100\n  exp\n  dup2\n  sload\n  dup2\n  0xffffffffffffffffffffffffffffffffffffffff\n  mul\n  not\n  and\n  swap1\n  dup4\n  0xffffffffffffffffffffffffffffffffffffffff\n  and\n  mul\n  or\n  swap1\n  sstore\n  pop\n    /* \"bep-20.sol\":10667:10709  0x2efEBB6C26E709b9240A9c102116D1831BAC6319 */\n  0x2efebb6c26e709b9240a9c102116d1831bac6319\n    /* \"bep-20.sol\":10643:10664  RiskFreeValueReceiver */\n  0x11\n  0x00\n    /* \"bep-20.sol\":10643:10709  RiskFreeValueReceiver = 0x2efEBB6C26E709b9240A9c102116D1831BAC6319 */\n  0x0100\n  exp\n  dup2\n  sload\n  dup2\n  0xffffffffffffffffffffffffffffffffffffffff\n  mul\n  not\n  and\n  swap1\n  dup4\n  0xffffffffffffffffffffffffffffffffffffffff\n  and\n  mul\n  or\n  swap1\n  sstore\n  pop\n    /* \"bep-20.sol\":10780:10782  -1 */\n  0xffffffffffffffffffffffffffffffffffffffffffffffffffffffffffffffff\n    /* \"bep-20.sol\":10720:10737  _allowedFragments */\n  0x1b\n    /* \"bep-20.sol\":10720:10752  _allowedFragments[address(this)] */\n  0x00\n    /* \"bep-20.sol\":10746:10750  this */\n  address\n    /* \"bep-20.sol\":10720:10752  _allowedFragments[address(this)] */\n  0xffffffffffffffffffffffffffffffffffffffff\n  and\n  0xffffffffffffffffffffffffffffffffffffffff\n  and\n  dup2\n  mstore\n  0x20\n  add\n  swap1\n  dup2\n  mstore\n  0x20\n  add\n  0x00\n  keccak256\n    /* \"bep-20.sol\":10720:10769  _allowedFragments[address(this)][address(router)] */\n  0x00\n    /* \"bep-20.sol\":10761:10767  router */\n  0x14\n  0x00\n  swap1\n  sload\n  swap1\n  0x0100\n  exp\n  swap1\n  div\n  0xffffffffffffffffffffffffffffffffffffffff\n  and\n    /* \"bep-20.sol\":10720:10769  _allowedFragments[address(this)][address(router)] */\n  0xffffffffffffffffffffffffffffffffffffffff\n  and\n  0xffffffffffffffffffffffffffffffffffffffff\n  and\n  dup2\n  mstore\n  0x20\n  add\n  swap1\n  dup2\n  mstore\n  0x20\n  add\n  0x00\n  keccak256\n    /* \"bep-20.sol\":10720:10783  _allowedFragments[address(this)][address(router)] = uint256(-1) */\n  dup2\n  swap1\n  sstore\n  pop\n    /* \"bep-20.sol\":10820:10824  pair */\n  0x15\n  0x00\n  swap1\n  sload\n  swap1\n  0x0100\n  exp\n  swap1\n  div\n  0xffffffffffffffffffffffffffffffffffffffff\n  and\n    /* \"bep-20.sol\":10793:10805  pairContract */\n  0x04\n  0x00\n    /* \"bep-20.sol\":10793:10825  pairContract = InterfaceLP(pair) */\n  0x0100\n  exp\n  dup2\n  sload\n  dup2\n  0xffffffffffffffffffffffffffffffffffffffff\n  mul\n  not\n  and\n  swap1\n  dup4\n  0xffffffffffffffffffffffffffffffffffffffff\n  and\n  mul\n  or\n  swap1\n  sstore\n  pop\n    /* \"bep-20.sol\":8739:8741  18 */\n  0x12\n    /* \"bep-20.sol\":8868:8870  10 */\n  0x0a\n    /* \"bep-20.sol\":8868:8880  10**DECIMALS */\n  exp\n    /* \"bep-20.sol\":8856:8865  4 * 10**9 */\n  0xee6b2800\n    /* \"bep-20.sol\":8856:8880  4 * 10**9 * 10**DECIMALS */\n  mul\n    /* \"bep-20.sol\":10836:10848  _totalSupply */\n  0x18\n    /* \"bep-20.sol\":10836:10875  _totalSupply = INITIAL_FRAGMENTS_SUPPLY */\n  dup2\n  swap1\n  sstore\n  pop\n    /* \"bep-20.sol\":8739:8741  18 */\n  0x12\n    /* \"bep-20.sol\":8868:8870  10 */\n  0x0a\n    /* \"bep-20.sol\":8868:8880  10**DECIMALS */\n  exp\n    /* \"bep-20.sol\":8856:8865  4 * 10**9 */\n  0xee6b2800\n    /* \"bep-20.sol\":8856:8880  4 * 10**9 * 10**DECIMALS */\n  mul\n    /* \"bep-20.sol\":8795:8796  0 */\n  0x00\n    /* \"bep-20.sol\":8786:8797  ~uint256(0) */\n  not\n    /* \"bep-20.sol\":9811:9849  MAX_UINT256 % INITIAL_FRAGMENTS_SUPPLY */\n  dup2\n  tag_32\n  jumpi\n  invalid\ntag_32:\n  mod\n    /* \"bep-20.sol\":8795:8796  0 */\n  0x00\n    /* \"bep-20.sol\":8786:8797  ~uint256(0) */\n  not\n    /* \"bep-20.sol\":9796:9850  MAX_UINT256 - (MAX_UINT256 % INITIAL_FRAGMENTS_SUPPLY) */\n  sub\n    /* \"bep-20.sol\":10885:10897  _gonBalances */\n  0x1a\n    /* \"bep-20.sol\":10885:10915  _gonBalances[TreasuryReceiver] */\n  0x00\n    /* \"bep-20.sol\":10898:10914  TreasuryReceiver */\n  0x10\n  0x00\n  swap1\n  sload\n  swap1\n  0x0100\n  exp\n  swap1\n  div\n  0xffffffffffffffffffffffffffffffffffffffff\n  and\n    /* \"bep-20.sol\":10885:10915  _gonBalances[TreasuryReceiver] */\n  0xffffffffffffffffffffffffffffffffffffffff\n  and\n  0xffffffffffffffffffffffffffffffffffffffff\n  and\n  dup2\n  mstore\n  0x20\n  add\n  swap1\n  dup2\n  mstore\n  0x20\n  add\n  0x00\n  keccak256\n    /* \"bep-20.sol\":10885:10928  _gonBalances[TreasuryReceiver] = TOTAL_GONS */\n  dup2\n  swap1\n  sstore\n  pop\n    /* \"bep-20.sol\":10957:10985  TOTAL_GONS.div(_totalSupply) */\n  tag_33\n    /* \"bep-20.sol\":10972:10984  _totalSupply */\n  sload(0x18)\n    /* \"bep-20.sol\":8739:8741  18 */\n  0x12\n    /* \"bep-20.sol\":8868:8870  10 */\n  0x0a\n    /* \"bep-20.sol\":8868:8880  10**DECIMALS */\n  exp\n    /* \"bep-20.sol\":8856:8865  4 * 10**9 */\n  0xee6b2800\n    /* \"bep-20.sol\":8856:8880  4 * 10**9 * 10**DECIMALS */\n  mul\n    /* \"bep-20.sol\":8795:8796  0 */\n  0x00\n    /* \"bep-20.sol\":8786:8797  ~uint256(0) */\n  not\n    /* \"bep-20.sol\":9811:9849  MAX_UINT256 % INITIAL_FRAGMENTS_SUPPLY */\n  dup2\n  tag_34\n  jumpi\n  invalid\ntag_34:\n  mod\n    /* \"bep-20.sol\":8795:8796  0 */\n  0x00\n    /* \"bep-20.sol\":8786:8797  ~uint256(0) */\n  not\n    /* \"bep-20.sol\":9796:9850  MAX_UINT256 - (MAX_UINT256 % INITIAL_FRAGMENTS_SUPPLY) */\n  sub\n    /* \"bep-20.sol\":10957:10971  TOTAL_GONS.div */\n  or(tag_0_282, shl(0x20, tag_35))\n  swap1\n    /* \"bep-20.sol\":10957:10985  TOTAL_GONS.div(_totalSupply) */\n  swap2\n  swap1\n  0x20\n  shr\n  jump\t// in\ntag_33:\n    /* \"bep-20.sol\":10938:10954  _gonsPerFragment */\n  0x19\n    /* \"bep-20.sol\":10938:10985  _gonsPerFragment = TOTAL_GONS.div(_totalSupply) */\n  dup2\n  swap1\n  sstore\n  pop\n    /* \"bep-20.sol\":11026:11031  false */\n  0x00\n    /* \"bep-20.sol\":10996:11023  initialDistributionFinished */\n  0x04\n  0x14\n    /* \"bep-20.sol\":10996:11031  initialDistributionFinished = false */\n  0x0100\n  exp\n  dup2\n  sload\n  dup2\n  0xff\n  mul\n  not\n  and\n  swap1\n  dup4\n  iszero\n  iszero\n  mul\n  or\n  swap1\n  sstore\n  pop\n    /* \"bep-20.sol\":11074:11078  true */\n  0x01\n    /* \"bep-20.sol\":11041:11053  _isFeeExempt */\n  0x06\n    /* \"bep-20.sol\":11041:11071  _isFeeExempt[TreasuryReceiver] */\n  0x00\n    /* \"bep-20.sol\":11054:11070  TreasuryReceiver */\n  0x10\n  0x00\n  swap1\n  sload\n  swap1\n  0x0100\n  exp\n  swap1\n  div\n  0xffffffffffffffffffffffffffffffffffffffff\n  and\n    /* \"bep-20.sol\":11041:11071  _isFeeExempt[TreasuryReceiver] */\n  0xffffffffffffffffffffffffffffffffffffffff\n  and\n  0xffffffffffffffffffffffffffffffffffffffff\n  and\n  dup2\n  mstore\n  0x20\n  add\n  swap1\n  dup2\n  mstore\n  0x20\n  add\n  0x00\n  keccak256\n  0x00\n    /* \"bep-20.sol\":11041:11078  _isFeeExempt[TreasuryReceiver] = true */\n  0x0100\n  exp\n  dup2\n  sload\n  dup2\n  0xff\n  mul\n  not\n  and\n  swap1\n  dup4\n  iszero\n  iszero\n  mul\n  or\n  swap1\n  sstore\n  pop\n    /* \"bep-20.sol\":11118:11122  true */\n  0x01\n    /* \"bep-20.sol\":11088:11100  _isFeeExempt */\n  0x06\n    /* \"bep-20.sol\":11088:11115  _isFeeExempt[address(this)] */\n  0x00\n    /* \"bep-20.sol\":11109:11113  this */\n  address\n    /* \"bep-20.sol\":11088:11115  _isFeeExempt[address(this)] */\n  0xffffffffffffffffffffffffffffffffffffffff\n  and\n  0xffffffffffffffffffffffffffffffffffffffff\n  and\n  dup2\n  mstore\n  0x20\n  add\n  swap1\n  dup2\n  mstore\n  0x20\n  add\n  0x00\n  keccak256\n  0x00\n    /* \"bep-20.sol\":11088:11122  _isFeeExempt[address(this)] = true */\n  0x0100\n  exp\n  dup2\n  sload\n  dup2\n  0xff\n  mul\n  not\n  and\n  swap1\n  dup4\n  iszero\n  iszero\n  mul\n  or\n  swap1\n  sstore\n  pop\n    /* \"bep-20.sol\":11133:11169  _transferOwnership(TreasuryReceiver) */\n  tag_36\n    /* \"bep-20.sol\":11152:11168  TreasuryReceiver */\n  0x10\n  0x00\n  swap1\n  sload\n  swap1\n  0x0100\n  exp\n  swap1\n  div\n  0xffffffffffffffffffffffffffffffffffffffff\n  and\n    /* \"bep-20.sol\":11133:11151  _transferOwnership */\n  shl(0x20, tag_37)\n    /* \"bep-20.sol\":11133:11169  _transferOwnership(TreasuryReceiver) */\n  0x20\n  shr\n  jump\t// in\ntag_36:\n    /* \"bep-20.sol\":11207:11223  TreasuryReceiver */\n  0x10\n  0x00\n  swap1\n  sload\n  swap1\n  0x0100\n  exp\n  swap1\n  div\n  0xffffffffffffffffffffffffffffffffffffffff\n  and\n    /* \"bep-20.sol\":11184:11238  Transfer(address(0x0), TreasuryReceiver, _totalSupply) */\n  0xffffffffffffffffffffffffffffffffffffffff\n  and\n    /* \"bep-20.sol\":11201:11204  0x0 */\n  0x00\n    /* \"bep-20.sol\":11184:11238  Transfer(address(0x0), TreasuryReceiver, _totalSupply) */\n  0xffffffffffffffffffffffffffffffffffffffff\n  and\n  0xddf252ad1be2c89b69c2b068fc378daa952ba7f163c4a11628f55a4df523b3ef\n    /* \"bep-20.sol\":11225:11237  _totalSupply */\n  sload(0x18)\n    /* \"bep-20.sol\":11184:11238  Transfer(address(0x0), TreasuryReceiver, _totalSupply) */\n  mload(0x40)\n  dup1\n  dup3\n  dup2\n  mstore\n  0x20\n  add\n  swap2\n  pop\n  pop\n  mload(0x40)\n  dup1\n  swap2\n  sub\n  swap1\n  log3\n    /* \"bep-20.sol\":8036:23018  contract Raventoken is ERC20Detailed, Ownable, MinterRole {... */\n  jump(tag_38)\n    /* \"bep-20.sol\":1800:1976  function add(uint256 a, uint256 b) internal pure returns (uint256) {... */\ntag_3:\n    /* \"bep-20.sol\":1858:1865  uint256 */\n  0x00\n    /* \"bep-20.sol\":1877:1886  uint256 c */\n  dup1\n    /* \"bep-20.sol\":1893:1894  b */\n  dup3\n    /* \"bep-20.sol\":1889:1890  a */\n  dup5\n    /* \"bep-20.sol\":1889:1894  a + b */\n  add\n    /* \"bep-20.sol\":1877:1894  uint256 c = a + b */\n  swap1\n  pop\n    /* \"bep-20.sol\":1917:1918  a */\n  dup4\n    /* \"bep-20.sol\":1912:1913  c */\n  dup2\n    /* \"bep-20.sol\":1912:1918  c >= a */\n  lt\n  iszero\n    /* \"bep-20.sol\":1904:1950  require(c >= a, \"SafeMath: addition overflow\") */\n  tag_40\n  jumpi\n  mload(0x40)\n  0x08c379a000000000000000000000000000000000000000000000000000000000\n  dup2\n  mstore\n  0x04\n  add\n  dup1\n  dup1\n  0x20\n  add\n  dup3\n  dup2\n  sub\n  dup3\n  mstore\n  0x1b\n  dup2\n  mstore\n  0x20\n  add\n  dup1\n  0x536166654d6174683a206164646974696f6e206f766572666c6f770000000000\n  dup2\n  mstore\n  pop\n  0x20\n  add\n  swap2\n  pop\n  pop\n  mload(0x40)\n  dup1\n  swap2\n  sub\n  swap1\n  revert\ntag_40:\n    /* \"bep-20.sol\":1968:1969  c */\n  dup1\n    /* \"bep-20.sol\":1961:1969  return c */\n  swap2\n  pop\n  pop\n    /* \"bep-20.sol\":1800:1976  function add(uint256 a, uint256 b) internal pure returns (uint256) {... */\n  swap3\n  swap2\n  pop\n  pop\n  jump\t// out\n    /* \"bep-20.sol\":4590:4709  function _addMinter(address account) internal {... */\ntag_18:\n    /* \"bep-20.sol\":4646:4667  _minters.add(account) */\n  tag_42\n    /* \"bep-20.sol\":4659:4666  account */\n  dup2\n    /* \"bep-20.sol\":4646:4654  _minters */\n  0x03\n    /* \"bep-20.sol\":4646:4658  _minters.add */\n  or(tag_0_283, shl(0x20, tag_43))\n  swap1\n    /* \"bep-20.sol\":4646:4667  _minters.add(account) */\n  swap2\n  swap1\n  0x20\n  shr\n  jump\t// in\ntag_42:\n    /* \"bep-20.sol\":4694:4701  account */\n  dup1\n    /* \"bep-20.sol\":4682:4702  MinterAdded(account) */\n  0xffffffffffffffffffffffffffffffffffffffff\n  and\n  0x6ae172837ea30b801fbfcdd4108aa1d5bf8ff775444fd70256b44e6bf3dfc3f6\n  mload(0x40)\n  mload(0x40)\n  dup1\n  swap2\n  sub\n  swap1\n  log2\n    /* \"bep-20.sol\":4590:4709  function _addMinter(address account) internal {... */\n  pop\n  jump\t// out\n    /* \"bep-20.sol\":2592:2722  function div(uint256 a, uint256 b) internal pure returns (uint256) {... */\ntag_35:\n    /* \"bep-20.sol\":2650:2657  uint256 */\n  0x00\n    /* \"bep-20.sol\":2676:2715  div(a, b, \"SafeMath: division by zero\") */\n  tag_45\n    /* \"bep-20.sol\":2680:2681  a */\n  dup4\n    /* \"bep-20.sol\":2683:2684  b */\n  dup4\n    /* \"bep-20.sol\":2676:2715  div(a, b, \"SafeMath: division by zero\") */\n  mload(0x40)\n  dup1\n  0x40\n  add\n  0x40\n  mstore\n  dup1\n  0x1a\n  dup2\n  mstore\n  0x20\n  add\n  0x536166654d6174683a206469766973696f6e206279207a65726f000000000000\n  dup2\n  mstore\n  pop\n    /* \"bep-20.sol\":2676:2679  div */\n  shl(0x20, tag_46)\n    /* \"bep-20.sol\":2676:2715  div(a, b, \"SafeMath: division by zero\") */\n  0x20\n  shr\n  jump\t// in\ntag_45:\n    /* \"bep-20.sol\":2669:2715  return div(a, b, \"SafeMath: division by zero\") */\n  swap1\n  pop\n    /* \"bep-20.sol\":2592:2722  function div(uint256 a, uint256 b) internal pure returns (uint256) {... */\n  swap3\n  swap2\n  pop\n  pop\n  jump\t// out\n    /* \"bep-20.sol\":7849:8032  function _transferOwnership(address newOwner) internal {... */\ntag_37:\n    /* \"bep-20.sol\":7942:7943  0 */\n  0x00\n    /* \"bep-20.sol\":7922:7944  newOwner != address(0) */\n  0xffffffffffffffffffffffffffffffffffffffff\n  and\n    /* \"bep-20.sol\":7922:7930  newOwner */\n  dup2\n    /* \"bep-20.sol\":7922:7944  newOwner != address(0) */\n  0xffffffffffffffffffffffffffffffffffffffff\n  and\n  eq\n  iszero\n    /* \"bep-20.sol\":7914:7945  require(newOwner != address(0)) */\n  tag_48\n  jumpi\n  0x00\n  dup1\n  revert\ntag_48:\n    /* \"bep-20.sol\":7989:7997  newOwner */\n  dup1\n    /* \"bep-20.sol\":7960:7998  OwnershipTransferred(_owner, newOwner) */\n  0xffffffffffffffffffffffffffffffffffffffff\n  and\n    /* \"bep-20.sol\":7981:7987  _owner */\n  0x02\n  0x01\n  swap1\n  sload\n  swap1\n  0x0100\n  exp\n  swap1\n  div\n  0xffffffffffffffffffffffffffffffffffffffff\n  and\n    /* \"bep-20.sol\":7960:7998  OwnershipTransferred(_owner, newOwner) */\n  0xffffffffffffffffffffffffffffffffffffffff\n  and\n  0x8be0079c531659141344cd1fd0a4f28419497f9722a3daafe3b4186f6b6457e0\n  mload(0x40)\n  mload(0x40)\n  dup1\n  swap2\n  sub\n  swap1\n  log3\n    /* \"bep-20.sol\":8017:8025  newOwner */\n  dup1\n    /* \"bep-20.sol\":8008:8014  _owner */\n  0x02\n  0x01\n    /* \"bep-20.sol\":8008:8025  _owner = newOwner */\n  0x0100\n  exp\n  dup2\n  sload\n  dup2\n  0xffffffffffffffffffffffffffffffffffffffff\n  mul\n  not\n  and\n  swap1\n  dup4\n  0xffffffffffffffffffffffffffffffffffffffff\n  and\n  mul\n  or\n  swap1\n  sstore\n  pop\n    /* \"bep-20.sol\":7849:8032  function _transferOwnership(address newOwner) internal {... */\n  pop\n  jump\t// out\n    /* \"bep-20.sol\":3284:3459  function add(Role storage role, address account) internal {... */\ntag_43:\n    /* \"bep-20.sol\":3361:3379  has(role, account) */\n  tag_50\n    /* \"bep-20.sol\":3365:3369  role */\n  dup3\n    /* \"bep-20.sol\":3371:3378  account */\n  dup3\n    /* \"bep-20.sol\":3361:3364  has */\n  shl(0x20, tag_51)\n    /* \"bep-20.sol\":3361:3379  has(role, account) */\n  0x20\n  shr\n  jump\t// in\ntag_50:\n    /* \"bep-20.sol\":3360:3379  !has(role, account) */\n  iszero\n    /* \"bep-20.sol\":3352:3415  require(!has(role, account), \"Roles: account already has role\") */\n  tag_52\n  jumpi\n  mload(0x40)\n  0x08c379a000000000000000000000000000000000000000000000000000000000\n  dup2\n  mstore\n  0x04\n  add\n  dup1\n  dup1\n  0x20\n  add\n  dup3\n  dup2\n  sub\n  dup3\n  mstore\n  0x1f\n  dup2\n  mstore\n  0x20\n  add\n  dup1\n  0x526f6c65733a206163636f756e7420616c72656164792068617320726f6c6500\n  dup2\n  mstore\n  pop\n  0x20\n  add\n  swap2\n  pop\n  pop\n  mload(0x40)\n  dup1\n  swap2\n  sub\n  swap1\n  revert\ntag_52:\n    /* \"bep-20.sol\":3448:3452  true */\n  0x01\n    /* \"bep-20.sol\":3425:3429  role */\n  dup3\n    /* \"bep-20.sol\":3425:3436  role.bearer */\n  0x00\n  add\n    /* \"bep-20.sol\":3425:3445  role.bearer[account] */\n  0x00\n    /* \"bep-20.sol\":3437:3444  account */\n  dup4\n    /* \"bep-20.sol\":3425:3445  role.bearer[account] */\n  0xffffffffffffffffffffffffffffffffffffffff\n  and\n  0xffffffffffffffffffffffffffffffffffffffff\n  and\n  dup2\n  mstore\n  0x20\n  add\n  swap1\n  dup2\n  mstore\n  0x20\n  add\n  0x00\n  keccak256\n  0x00\n    /* \"bep-20.sol\":3425:3452  role.bearer[account] = true */\n  0x0100\n  exp\n  dup2\n  sload\n  dup2\n  0xff\n  mul\n  not\n  and\n  swap1\n  dup4\n  iszero\n  iszero\n  mul\n  or\n  swap1\n  sstore\n  pop\n    /* \"bep-20.sol\":3284:3459  function add(Role storage role, address account) internal {... */\n  pop\n  pop\n  jump\t// out\n    /* \"bep-20.sol\":2728:2944  function div(... */\ntag_46:\n    /* \"bep-20.sol\":2844:2851  uint256 */\n  0x00\n    /* \"bep-20.sol\":2875:2876  0 */\n  dup1\n    /* \"bep-20.sol\":2871:2872  b */\n  dup4\n    /* \"bep-20.sol\":2871:2876  b > 0 */\n  gt\n    /* \"bep-20.sol\":2878:2890  errorMessage */\n  dup3\n    /* \"bep-20.sol\":2863:2891  require(b > 0, errorMessage) */\n  swap1\n  tag_54\n  jumpi\n  mload(0x40)\n  0x08c379a000000000000000000000000000000000000000000000000000000000\n  dup2\n  mstore\n  0x04\n  add\n  dup1\n  dup1\n  0x20\n  add\n  dup3\n  dup2\n  sub\n  dup3\n  mstore\n  dup4\n  dup2\n  dup2\n  mload\n  dup2\n  mstore\n  0x20\n  add\n  swap2\n  pop\n  dup1\n  mload\n  swap1\n  0x20\n  add\n  swap1\n  dup1\n  dup4\n  dup4\n  0x00\ntag_55:\n  dup4\n  dup2\n  lt\n  iszero\n  tag_57\n  jumpi\n  dup1\n  dup3\n  add\n  mload\n  dup2\n  dup5\n  add\n  mstore\n  0x20\n  dup2\n  add\n  swap1\n  pop\n  jump(tag_55)\ntag_57:\n  pop\n  pop\n  pop\n  pop\n  swap1\n  pop\n  swap1\n  dup2\n  add\n  swap1\n  0x1f\n  and\n  dup1\n  iszero\n  tag_58\n  jumpi\n  dup1\n  dup3\n  sub\n  dup1\n  mload\n  0x01\n  dup4\n  0x20\n  sub\n  0x0100\n  exp\n  sub\n  not\n  and\n  dup2\n  mstore\n  0x20\n  add\n  swap2\n  pop\ntag_58:\n  pop\n  swap3\n  pop\n  pop\n  pop\n  mload(0x40)\n  dup1\n  swap2\n  sub\n  swap1\n  revert\ntag_54:\n  pop\n    /* \"bep-20.sol\":2901:2910  uint256 c */\n  0x00\n    /* \"bep-20.sol\":2917:2918  b */\n  dup4\n    /* \"bep-20.sol\":2913:2914  a */\n  dup6\n    /* \"bep-20.sol\":2913:2918  a / b */\n  dup2\n  tag_59\n  jumpi\n  invalid\ntag_59:\n  div\n    /* \"bep-20.sol\":2901:2918  uint256 c = a / b */\n  swap1\n  pop\n    /* \"bep-20.sol\":2936:2937  c */\n  dup1\n    /* \"bep-20.sol\":2929:2937  return c */\n  swap2\n  pop\n  pop\n    /* \"bep-20.sol\":2728:2944  function div(... */\n  swap4\n  swap3\n  pop\n  pop\n  pop\n  jump\t// out\n    /* \"bep-20.sol\":3803:4003  function has(Role storage role, address account) internal view returns (bool) {... */\ntag_51:\n    /* \"bep-20.sol\":3875:3879  bool */\n  0x00\n    /* \"bep-20.sol\":3918:3919  0 */\n  dup1\n    /* \"bep-20.sol\":3899:3920  account != address(0) */\n  0xffffffffffffffffffffffffffffffffffffffff\n  and\n    /* \"bep-20.sol\":3899:3906  account */\n  dup3\n    /* \"bep-20.sol\":3899:3920  account != address(0) */\n  0xffffffffffffffffffffffffffffffffffffffff\n  and\n  eq\n  iszero\n    /* \"bep-20.sol\":3891:3959  require(account != address(0), \"Roles: account is the zero address\") */\n  tag_61\n  jumpi\n  mload(0x40)\n  0x08c379a000000000000000000000000000000000000000000000000000000000\n  dup2\n  mstore\n  0x04\n  add\n  dup1\n  dup1\n  0x20\n  add\n  dup3\n  dup2\n  sub\n  dup3\n  mstore\n  0x22\n  dup2\n  mstore\n  0x20\n  add\n  dup1\n  data_9d214fa89563f4e6456a3929327e54500ea1cde2c0ba9fb2035ec106190d682f\n  0x22\n  swap2\n  codecopy\n  0x40\n  add\n  swap2\n  pop\n  pop\n  mload(0x40)\n  dup1\n  swap2\n  sub\n  swap1\n  revert\ntag_61:\n    /* \"bep-20.sol\":3976:3980  role */\n  dup3\n    /* \"bep-20.sol\":3976:3987  role.bearer */\n  0x00\n  add\n    /* \"bep-20.sol\":3976:3996  role.bearer[account] */\n  0x00\n    /* \"bep-20.sol\":3988:3995  account */\n  dup4\n    /* \"bep-20.sol\":3976:3996  role.bearer[account] */\n  0xffffffffffffffffffffffffffffffffffffffff\n  and\n  0xffffffffffffffffffffffffffffffffffffffff\n  and\n  dup2\n  mstore\n  0x20\n  add\n  swap1\n  dup2\n  mstore\n  0x20\n  add\n  0x00\n  keccak256\n  0x00\n  swap1\n  sload\n  swap1\n  0x0100\n  exp\n  swap1\n  div\n  0xff\n  and\n    /* \"bep-20.sol\":3969:3996  return role.bearer[account] */\n  swap1\n  pop\n    /* \"bep-20.sol\":3803:4003  function has(Role storage role, address account) internal view returns (bool) {... */\n  swap3\n  swap2\n  pop\n  pop\n  jump\t// out\n    /* \"bep-20.sol\":8036:23018  contract Raventoken is ERC20Detailed, Ownable, MinterRole {... */\ntag_13:\n  dup3\n  dup1\n  sload\n  0x01\n  dup2\n  0x01\n  and\n  iszero\n  0x0100\n  mul\n  sub\n  and\n  0x02\n  swap1\n  div\n  swap1\n  0x00\n  mstore\n  keccak256(0x00, 0x20)\n  swap1\n  0x1f\n  add\n  0x20\n  swap1\n  div\n  dup2\n  add\n  swap3\n  dup3\n  tag_63\n  jumpi\n  0x00\n  dup6\n  sstore\n  jump(tag_62)\ntag_63:\n  dup3\n  0x1f\n  lt\n  tag_64\n  jumpi\n  dup1\n  mload\n  not(0xff)\n  and\n  dup4\n  dup1\n  add\n  or\n  dup6\n  sstore\n  jump(tag_62)\ntag_64:\n  dup3\n  dup1\n  add\n  0x01\n  add\n  dup6\n  sstore\n  dup3\n  iszero\n  tag_62\n  jumpi\n  swap2\n  dup3\n  add\ntag_65:\n  dup3\n  dup2\n  gt\n  iszero\n  tag_66\n  jumpi\n  dup3\n  mload\n  dup3\n  sstore\n  swap2\n  0x20\n  add\n  swap2\n  swap1\n  0x01\n  add\n  swap1\n  jump(tag_65)\ntag_66:\ntag_62:\n  pop\n  swap1\n  pop\n  tag_67\n  swap2\n  swap1\n  tag_68\n  jump\t// in\ntag_67:\n  pop\n  swap1\n  jump\t// out\ntag_68:\ntag_69:\n  dup1\n  dup3\n  gt\n  iszero\n  tag_70\n  jumpi\n  0x00\n  dup2\n  0x00\n  swap1\n  sstore\n  pop\n  0x01\n  add\n  jump(tag_69)\ntag_70:\n  pop\n  swap1\n  jump\t// out\ntag_38:\n  dataSize(sub_0)\n  dup1\n  dataOffset(sub_0)\n  0x00\n  codecopy\n  0x00\n  return\nstop\ndata_9d214fa89563f4e6456a3929327e54500ea1cde2c0ba9fb2035ec106190d682f 526f6c65733a206163636f756e7420697320746865207a65726f2061646472657373\n\nsub_0: assembly {\n        /* \"bep-20.sol\":8036:23018  contract Raventoken is ERC20Detailed, Ownable, MinterRole {... */\n      mstore(0x40, 0x80)\n      jumpi(tag_1, lt(calldatasize, 0x04))\n      shr(0xe0, calldataload(0x00))\n      dup1\n      0x7a43e23f\n      gt\n      tag_58\n      jumpi\n      dup1\n      0xbda5c8bb\n      gt\n      tag_59\n      jumpi\n      dup1\n      0xd5938aac\n      gt\n      tag_60\n      jumpi\n      dup1\n      0xdd62ed3e\n      gt\n      tag_61\n      jumpi\n      dup1\n      0xdd62ed3e\n      eq\n      tag_54\n      jumpi\n      dup1\n      0xf2fde38b\n      eq\n      tag_55\n      jumpi\n      dup1\n      0xf887ea40\n      eq\n      tag_56\n      jumpi\n      dup1\n      0xf9f92be4\n      eq\n      tag_57\n      jumpi\n      jump(tag_2)\n    tag_61:\n      dup1\n      0xd5938aac\n      eq\n      tag_51\n      jumpi\n      dup1\n      0xd7ac6585\n      eq\n      tag_52\n      jumpi\n      dup1\n      0xd7c01032\n      eq\n      tag_53\n      jumpi\n      jump(tag_2)\n    tag_60:\n      dup1\n      0xd1fce264\n      gt\n      tag_62\n      jumpi\n      dup1\n      0xd1fce264\n      eq\n      tag_47\n      jumpi\n      dup1\n      0xd37e219d\n      eq\n      tag_48\n      jumpi\n      dup1\n      0xd4399790\n      eq\n      tag_49\n      jumpi\n      dup1\n      0xd51ed1c8\n      eq\n      tag_50\n      jumpi\n      jump(tag_2)\n    tag_62:\n      dup1\n      0xbda5c8bb\n      eq\n      tag_44\n      jumpi\n      dup1\n      0xca33e64c\n      eq\n      tag_45\n      jumpi\n      dup1\n      0xd0889358\n      eq\n      tag_46\n      jumpi\n      jump(tag_2)\n    tag_59:\n      dup1\n      0x98118cb4\n      gt\n      tag_63\n      jumpi\n      dup1\n      0xa457c2d7\n      gt\n      tag_64\n      jumpi\n      dup1\n      0xa457c2d7\n      eq\n      tag_40\n      jumpi\n      dup1\n      0xa8aa1b31\n      eq\n      tag_41\n      jumpi\n      dup1\n      0xa9059cbb\n      eq\n      tag_42\n      jumpi\n      dup1\n      0xaa271e1a\n      eq\n      tag_43\n      jumpi\n      jump(tag_2)\n    tag_64:\n      dup1\n      0x98118cb4\n      eq\n      tag_37\n      jumpi\n      dup1\n      0x983b2d56\n      eq\n      tag_38\n      jumpi\n      dup1\n      0x98650275\n      eq\n      tag_39\n      jumpi\n      jump(tag_2)\n    tag_63:\n      dup1\n      0x8da5cb5b\n      gt\n      tag_65\n      jumpi\n      dup1\n      0x8da5cb5b\n      eq\n      tag_33\n      jumpi\n      dup1\n      0x8f32d59b\n      eq\n      tag_34\n      jumpi\n      dup1\n      0x9155e083\n      eq\n      tag_35\n      jumpi\n      dup1\n      0x95d89b41\n      eq\n      tag_36\n      jumpi\n      jump(tag_2)\n    tag_65:\n      dup1\n      0x7a43e23f\n      eq\n      tag_30\n      jumpi\n      dup1\n      0x800cee51\n      eq\n      tag_31\n      jumpi\n      dup1\n      0x83b4ac68\n      eq\n      tag_32\n      jumpi\n      jump(tag_2)\n    tag_58:\n      dup1\n      0x3092afd5\n      gt\n      tag_66\n      jumpi\n      dup1\n      0x56a227f2\n      gt\n      tag_67\n      jumpi\n      dup1\n      0x70a08231\n      gt\n      tag_68\n      jumpi\n      dup1\n      0x70a08231\n      eq\n      tag_26\n      jumpi\n      dup1\n      0x715018a6\n      eq\n      tag_27\n      jumpi\n      dup1\n      0x749796a5\n      eq\n      tag_28\n      jumpi\n      dup1\n      0x753d02a1\n      eq\n      tag_29\n      jumpi\n      jump(tag_2)\n    tag_68:\n      dup1\n      0x56a227f2\n      eq\n      tag_23\n      jumpi\n      dup1\n      0x6d351d1a\n      eq\n      tag_24\n      jumpi\n      dup1\n      0x6ddd1713\n      eq\n      tag_25\n      jumpi\n      jump(tag_2)\n    tag_67:\n      dup1\n      0x39509351\n      gt\n      tag_69\n      jumpi\n      dup1\n      0x39509351\n      eq\n      tag_19\n      jumpi\n      dup1\n      0x40c10f19\n      eq\n      tag_20\n      jumpi\n      dup1\n      0x4d709adf\n      eq\n      tag_21\n      jumpi\n      dup1\n      0x563df32f\n      eq\n      tag_22\n      jumpi\n      jump(tag_2)\n    tag_69:\n      dup1\n      0x3092afd5\n      eq\n      tag_16\n      jumpi\n      dup1\n      0x313ce567\n      eq\n      tag_17\n      jumpi\n      dup1\n      0x33f3d628\n      eq\n      tag_18\n      jumpi\n      jump(tag_2)\n    tag_66:\n      dup1\n      0x1df4ccfc\n      gt\n      tag_70\n      jumpi\n      dup1\n      0x2b112e49\n      gt\n      tag_71\n      jumpi\n      dup1\n      0x2b112e49\n      eq\n      tag_12\n      jumpi\n      dup1\n      0x2b14ca56\n      eq\n      tag_13\n      jumpi\n      dup1\n      0x2be6937d\n      eq\n      tag_14\n      jumpi\n      dup1\n      0x2f34d282\n      eq\n      tag_15\n      jumpi\n      jump(tag_2)\n    tag_71:\n      dup1\n      0x1df4ccfc\n      eq\n      tag_9\n      jumpi\n      dup1\n      0x201e7991\n      eq\n      tag_10\n      jumpi\n      dup1\n      0x23b872dd\n      eq\n      tag_11\n      jumpi\n      jump(tag_2)\n    tag_70:\n      dup1\n      0x04a66b48\n      eq\n      tag_3\n      jumpi\n      dup1\n      0x06fdde03\n      eq\n      tag_4\n      jumpi\n      dup1\n      0x095ea7b3\n      eq\n      tag_5\n      jumpi\n      dup1\n      0x1161ae39\n      eq\n      tag_6\n      jumpi\n      dup1\n      0x180b0d7e\n      eq\n      tag_7\n      jumpi\n      dup1\n      0x18160ddd\n      eq\n      tag_8\n      jumpi\n      jump(tag_2)\n    tag_1:\n      jumpi(tag_2, calldatasize)\n      stop\n    tag_2:\n      0x00\n      dup1\n      revert\n        /* \"bep-20.sol\":21421:21911  function setFees(... */\n    tag_3:\n      callvalue\n      dup1\n      iszero\n      tag_74\n      jumpi\n      0x00\n      dup1\n      revert\n    tag_74:\n      pop\n      tag_75\n      0x04\n      dup1\n      calldatasize\n      sub\n      0xa0\n      dup2\n      lt\n      iszero\n      tag_76\n      jumpi\n      0x00\n      dup1\n      revert\n    tag_76:\n      dup2\n      add\n      swap1\n      dup1\n      dup1\n      calldataload\n      swap1\n      0x20\n      add\n      swap1\n      swap3\n      swap2\n      swap1\n      dup1\n      calldataload\n      swap1\n      0x20\n      add\n      swap1\n      swap3\n      swap2\n      swap1\n      dup1\n      calldataload\n      swap1\n      0x20\n      add\n      swap1\n      swap3\n      swap2\n      swap1\n      dup1\n      calldataload\n      swap1\n      0x20\n      add\n      swap1\n      swap3\n      swap2\n      swap1\n      dup1\n      calldataload\n      swap1\n      0x20\n      add\n      swap1\n      swap3\n      swap2\n      swap1\n      pop\n      pop\n      pop\n      tag_77\n      jump\t// in\n    tag_75:\n      stop\n        /* \"bep-20.sol\":5169:5250  function name() public view returns (string memory) {... */\n    tag_4:\n      callvalue\n      dup1\n      iszero\n      tag_78\n      jumpi\n      0x00\n      dup1\n      revert\n    tag_78:\n      pop\n      tag_79\n      tag_80\n      jump\t// in\n    tag_79:\n      mload(0x40)\n      dup1\n      dup1\n      0x20\n      add\n      dup3\n      dup2\n      sub\n      dup3\n      mstore\n      dup4\n      dup2\n      dup2\n      mload\n      dup2\n      mstore\n      0x20\n      add\n      swap2\n      pop\n      dup1\n      mload\n      swap1\n      0x20\n      add\n      swap1\n      dup1\n      dup4\n      dup4\n      0x00\n    tag_81:\n      dup4\n      dup2\n      lt\n      iszero\n      tag_83\n      jumpi\n      dup1\n      dup3\n      add\n      mload\n      dup2\n      dup5\n      add\n      mstore\n      0x20\n      dup2\n      add\n      swap1\n      pop\n      jump(tag_81)\n    tag_83:\n      pop\n      pop\n      pop\n      pop\n      swap1\n      pop\n      swap1\n      dup2\n      add\n      swap1\n      0x1f\n      and\n      dup1\n      iszero\n      tag_84\n      jumpi\n      dup1\n      dup3\n      sub\n      dup1\n      mload\n      0x01\n      dup4\n      0x20\n      sub\n      0x0100\n      exp\n      sub\n      not\n      and\n      dup2\n      mstore\n      0x20\n      add\n      swap2\n      pop\n    tag_84:\n      pop\n      swap3\n      pop\n      pop\n      pop\n      mload(0x40)\n      dup1\n      swap2\n      sub\n      swap1\n      return\n        /* \"bep-20.sol\":18206:18483  function approve(address spender, uint256 value)... */\n    tag_5:\n      callvalue\n      dup1\n      iszero\n      tag_85\n      jumpi\n      0x00\n      dup1\n      revert\n    tag_85:\n      pop\n      tag_86\n      0x04\n      dup1\n      calldatasize\n      sub\n      0x40\n      dup2\n      lt\n      iszero\n      tag_87\n      jumpi\n      0x00\n      dup1\n      revert\n    tag_87:\n      dup2\n      add\n      swap1\n      dup1\n      dup1\n      calldataload\n      0xffffffffffffffffffffffffffffffffffffffff\n      and\n      swap1\n      0x20\n      add\n      swap1\n      swap3\n      swap2\n      swap1\n      dup1\n      calldataload\n      swap1\n      0x20\n      add\n      swap1\n      swap3\n      swap2\n      swap1\n      pop\n      pop\n      pop\n      tag_88\n      jump\t// in\n    tag_86:\n      mload(0x40)\n      dup1\n      dup3\n      iszero\n      iszero\n      dup2\n      mstore\n      0x20\n      add\n      swap2\n      pop\n      pop\n      mload(0x40)\n      dup1\n      swap2\n      sub\n      swap1\n      return\n        /* \"bep-20.sol\":22805:22981  function isOverLiquified(uint256 target, uint256 accuracy)... */\n    tag_6:\n      callvalue\n      dup1\n      iszero\n      tag_89\n      jumpi\n      0x00\n      dup1\n      revert\n    tag_89:\n      pop\n      tag_90\n      0x04\n      dup1\n      calldatasize\n      sub\n      0x40\n      dup2\n      lt\n      iszero\n      tag_91\n      jumpi\n      0x00\n      dup1\n      revert\n    tag_91:\n      dup2\n      add\n      swap1\n      dup1\n      dup1\n      calldataload\n      swap1\n      0x20\n      add\n      swap1\n      swap3\n      swap2\n      swap1\n      dup1\n      calldataload\n      swap1\n      0x20\n      add\n      swap1\n      swap3\n      swap2\n      swap1\n      pop\n      pop\n      pop\n      tag_92\n      jump\t// in\n    tag_90:\n      mload(0x40)\n      dup1\n      dup3\n      iszero\n      iszero\n      dup2\n      mstore\n      0x20\n      add\n      swap2\n      pop\n      pop\n      mload(0x40)\n      dup1\n      swap2\n      sub\n      swap1\n      return\n        /* \"bep-20.sol\":9112:9147  uint256 public feeDenominator = 100 */\n    tag_7:\n      callvalue\n      dup1\n      iszero\n      tag_93\n      jumpi\n      0x00\n      dup1\n      revert\n    tag_93:\n      pop\n      tag_94\n      tag_95\n      jump\t// in\n    tag_94:\n      mload(0x40)\n      dup1\n      dup3\n      dup2\n      mstore\n      0x20\n      add\n      swap2\n      pop\n      pop\n      mload(0x40)\n      dup1\n      swap2\n      sub\n      swap1\n      return\n        /* \"bep-20.sol\":12105:12205  function totalSupply() external view override returns (uint256) {... */\n    tag_8:\n      callvalue\n      dup1\n      iszero\n      tag_96\n      jumpi\n      0x00\n      dup1\n      revert\n    tag_96:\n      pop\n      tag_97\n      tag_98\n      jump\t// in\n    tag_97:\n      mload(0x40)\n      dup1\n      dup3\n      dup2\n      mstore\n      0x20\n      add\n      swap2\n      pop\n      pop\n      mload(0x40)\n      dup1\n      swap2\n      sub\n      swap1\n      return\n        /* \"bep-20.sol\":9027:9106  uint256 public totalFee =... */\n    tag_9:\n      callvalue\n      dup1\n      iszero\n      tag_99\n      jumpi\n      0x00\n      dup1\n      revert\n    tag_99:\n      pop\n      tag_100\n      tag_101\n      jump\t// in\n    tag_100:\n      mload(0x40)\n      dup1\n      dup3\n      dup2\n      mstore\n      0x20\n      add\n      swap2\n      pop\n      pop\n      mload(0x40)\n      dup1\n      swap2\n      sub\n      swap1\n      return\n        /* \"bep-20.sol\":20161:20330  function setTargetLiquidity(uint256 target, uint256 accuracy) external onlyOwner {... */\n    tag_10:\n      callvalue\n      dup1\n      iszero\n      tag_102\n      jumpi\n      0x00\n      dup1\n      revert\n    tag_102:\n      pop\n      tag_103\n      0x04\n      dup1\n      calldatasize\n      sub\n      0x40\n      dup2\n      lt\n      iszero\n      tag_104\n      jumpi\n      0x00\n      dup1\n      revert\n    tag_104:\n      dup2\n      add\n      swap1\n      dup1\n      dup1\n      calldataload\n      swap1\n      0x20\n      add\n      swap1\n      swap3\n      swap2\n      swap1\n      dup1\n      calldataload\n      swap1\n      0x20\n      add\n      swap1\n      swap3\n      swap2\n      swap1\n      pop\n      pop\n      pop\n      tag_105\n      jump\t// in\n    tag_103:\n      stop\n        /* \"bep-20.sol\":14180:14624  function transferFrom(... */\n    tag_11:\n      callvalue\n      dup1\n      iszero\n      tag_106\n      jumpi\n      0x00\n      dup1\n      revert\n    tag_106:\n      pop\n      tag_107\n      0x04\n      dup1\n      calldatasize\n      sub\n      0x60\n      dup2\n      lt\n      iszero\n      tag_108\n      jumpi\n      0x00\n      dup1\n      revert\n    tag_108:\n      dup2\n      add\n      swap1\n      dup1\n      dup1\n      calldataload\n      0xffffffffffffffffffffffffffffffffffffffff\n      and\n      swap1\n      0x20\n      add\n      swap1\n      swap3\n      swap2\n      swap1\n      dup1\n      calldataload\n      0xffffffffffffffffffffffffffffffffffffffff\n      and\n      swap1\n      0x20\n      add\n      swap1\n      swap3\n      swap2\n      swap1\n      dup1\n      calldataload\n      swap1\n      0x20\n      add\n      swap1\n      swap3\n      swap2\n      swap1\n      pop\n      pop\n      pop\n      tag_109\n      jump\t// in\n    tag_107:\n      mload(0x40)\n      dup1\n      dup3\n      iszero\n      iszero\n      dup2\n      mstore\n      0x20\n      add\n      swap2\n      pop\n      pop\n      mload(0x40)\n      dup1\n      swap2\n      sub\n      swap1\n      return\n        /* \"bep-20.sol\":19945:20155  function getCirculatingSupply() public view returns (uint256) {... */\n    tag_12:\n      callvalue\n      dup1\n      iszero\n      tag_110\n      jumpi\n      0x00\n      dup1\n      revert\n    tag_110:\n      pop\n      tag_111\n      tag_112\n      jump\t// in\n    tag_111:\n      mload(0x40)\n      dup1\n      dup3\n      dup2\n      mstore\n      0x20\n      add\n      swap2\n      pop\n      pop\n      mload(0x40)\n      dup1\n      swap2\n      sub\n      swap1\n      return\n        /* \"bep-20.sol\":8995:9021  uint256 public sellFee = 5 */\n    tag_13:\n      callvalue\n      dup1\n      iszero\n      tag_113\n      jumpi\n      0x00\n      dup1\n      revert\n    tag_113:\n      pop\n      tag_114\n      tag_115\n      jump\t// in\n    tag_114:\n      mload(0x40)\n      dup1\n      dup3\n      dup2\n      mstore\n      0x20\n      add\n      swap2\n      pop\n      pop\n      mload(0x40)\n      dup1\n      swap2\n      sub\n      swap1\n      return\n        /* \"bep-20.sol\":18606:18718  function setInitialDistributionFinished() external onlyOwner {... */\n    tag_14:\n      callvalue\n      dup1\n      iszero\n      tag_116\n      jumpi\n      0x00\n      dup1\n      revert\n    tag_116:\n      pop\n      tag_117\n      tag_118\n      jump\t// in\n    tag_117:\n      stop\n        /* \"bep-20.sol\":12456:12593  function setLP(address _address) external onlyOwner {... */\n    tag_15:\n      callvalue\n      dup1\n      iszero\n      tag_119\n      jumpi\n      0x00\n      dup1\n      revert\n    tag_119:\n      pop\n      tag_120\n      0x04\n      dup1\n      calldatasize\n      sub\n      0x20\n      dup2\n      lt\n      iszero\n      tag_121\n      jumpi\n      0x00\n      dup1\n      revert\n    tag_121:\n      dup2\n      add\n      swap1\n      dup1\n      dup1\n      calldataload\n      0xffffffffffffffffffffffffffffffffffffffff\n      and\n      swap1\n      0x20\n      add\n      swap1\n      swap3\n      swap2\n      swap1\n      pop\n      pop\n      pop\n      tag_122\n      jump\t// in\n    tag_120:\n      stop\n        /* \"bep-20.sol\":20431:20526  function removeMinter(address account) public onlyOwner {... */\n    tag_16:\n      callvalue\n      dup1\n      iszero\n      tag_123\n      jumpi\n      0x00\n      dup1\n      revert\n    tag_123:\n      pop\n      tag_124\n      0x04\n      dup1\n      calldatasize\n      sub\n      0x20\n      dup2\n      lt\n      iszero\n      tag_125\n      jumpi\n      0x00\n      dup1\n      revert\n    tag_125:\n      dup2\n      add\n      swap1\n      dup1\n      dup1\n      calldataload\n      0xffffffffffffffffffffffffffffffffffffffff\n      and\n      swap1\n      0x20\n      add\n      swap1\n      swap3\n      swap2\n      swap1\n      pop\n      pop\n      pop\n      tag_126\n      jump\t// in\n    tag_124:\n      stop\n        /* \"bep-20.sol\":5347:5428  function decimals() public view returns (uint8) {... */\n    tag_17:\n      callvalue\n      dup1\n      iszero\n      tag_127\n      jumpi\n      0x00\n      dup1\n      revert\n    tag_127:\n      pop\n      tag_128\n      tag_129\n      jump\t// in\n    tag_128:\n      mload(0x40)\n      dup1\n      dup3\n      0xff\n      and\n      dup2\n      mstore\n      0x20\n      add\n      swap2\n      pop\n      pop\n      mload(0x40)\n      dup1\n      swap2\n      sub\n      swap1\n      return\n        /* \"bep-20.sol\":22157:22364  function rescueToken(address tokenAddress, uint256 tokens)... */\n    tag_18:\n      callvalue\n      dup1\n      iszero\n      tag_130\n      jumpi\n      0x00\n      dup1\n      revert\n    tag_130:\n      pop\n      tag_131\n      0x04\n      dup1\n      calldatasize\n      sub\n      0x40\n      dup2\n      lt\n      iszero\n      tag_132\n      jumpi\n      0x00\n      dup1\n      revert\n    tag_132:\n      dup2\n      add\n      swap1\n      dup1\n      dup1\n      calldataload\n      0xffffffffffffffffffffffffffffffffffffffff\n      and\n      swap1\n      0x20\n      add\n      swap1\n      swap3\n      swap2\n      swap1\n      dup1\n      calldataload\n      swap1\n      0x20\n      add\n      swap1\n      swap3\n      swap2\n      swap1\n      pop\n      pop\n      pop\n      tag_133\n      jump\t// in\n    tag_131:\n      mload(0x40)\n      dup1\n      dup3\n      iszero\n      iszero\n      dup2\n      mstore\n      0x20\n      add\n      swap2\n      pop\n      pop\n      mload(0x40)\n      dup1\n      swap2\n      sub\n      swap1\n      return\n        /* \"bep-20.sol\":17775:18200  function increaseAllowance(address spender, uint256 addedValue)... */\n    tag_19:\n      callvalue\n      dup1\n      iszero\n      tag_134\n      jumpi\n      0x00\n      dup1\n      revert\n    tag_134:\n      pop\n      tag_135\n      0x04\n      dup1\n      calldatasize\n      sub\n      0x40\n      dup2\n      lt\n      iszero\n      tag_136\n      jumpi\n      0x00\n      dup1\n      revert\n    tag_136:\n      dup2\n      add\n      swap1\n      dup1\n      dup1\n      calldataload\n      0xffffffffffffffffffffffffffffffffffffffff\n      and\n      swap1\n      0x20\n      add\n      swap1\n      swap3\n      swap2\n      swap1\n      dup1\n      calldataload\n      swap1\n      0x20\n      add\n      swap1\n      swap3\n      swap2\n      swap1\n      pop\n      pop\n      pop\n      tag_137\n      jump\t// in\n    tag_135:\n      mload(0x40)\n      dup1\n      dup3\n      iszero\n      iszero\n      dup2\n      mstore\n      0x20\n      add\n      swap2\n      pop\n      pop\n      mload(0x40)\n      dup1\n      swap2\n      sub\n      swap1\n      return\n        /* \"bep-20.sol\":19098:19482  function mint(address recipient, uint256 amount) external onlyMinter {... */\n    tag_20:\n      callvalue\n      dup1\n      iszero\n      tag_138\n      jumpi\n      0x00\n      dup1\n      revert\n    tag_138:\n      pop\n      tag_139\n      0x04\n      dup1\n      calldatasize\n      sub\n      0x40\n      dup2\n      lt\n      iszero\n      tag_140\n      jumpi\n      0x00\n      dup1\n      revert\n    tag_140:\n      dup2\n      add\n      swap1\n      dup1\n      dup1\n      calldataload\n      0xffffffffffffffffffffffffffffffffffffffff\n      and\n      swap1\n      0x20\n      add\n      swap1\n      swap3\n      swap2\n      swap1\n      dup1\n      calldataload\n      swap1\n      0x20\n      add\n      swap1\n      swap3\n      swap2\n      swap1\n      pop\n      pop\n      pop\n      tag_141\n      jump\t// in\n    tag_139:\n      stop\n        /* \"bep-20.sol\":8233:8264  InterfaceLP public pairContract */\n    tag_21:\n      callvalue\n      dup1\n      iszero\n      tag_142\n      jumpi\n      0x00\n      dup1\n      revert\n    tag_142:\n      pop\n      tag_143\n      tag_144\n      jump\t// in\n    tag_143:\n      mload(0x40)\n      dup1\n      dup3\n      0xffffffffffffffffffffffffffffffffffffffff\n      and\n      dup2\n      mstore\n      0x20\n      add\n      swap2\n      pop\n      pop\n      mload(0x40)\n      dup1\n      swap2\n      sub\n      swap1\n      return\n        /* \"bep-20.sol\":8924:8951  uint256 public Treasury = 3 */\n    tag_22:\n      callvalue\n      dup1\n      iszero\n      tag_145\n      jumpi\n      0x00\n      dup1\n      revert\n    tag_145:\n      pop\n      tag_146\n      tag_147\n      jump\t// in\n    tag_146:\n      mload(0x40)\n      dup1\n      dup3\n      dup2\n      mstore\n      0x20\n      add\n      swap2\n      pop\n      pop\n      mload(0x40)\n      dup1\n      swap2\n      sub\n      swap1\n      return\n        /* \"bep-20.sol\":21917:22151  function clearStuckBalance(uint256 amountPercentage, address adr) external onlyOwner {... */\n    tag_23:\n      callvalue\n      dup1\n      iszero\n      tag_148\n      jumpi\n      0x00\n      dup1\n      revert\n    tag_148:\n      pop\n      tag_149\n      0x04\n      dup1\n      calldatasize\n      sub\n      0x40\n      dup2\n      lt\n      iszero\n      tag_150\n      jumpi\n      0x00\n      dup1\n      revert\n    tag_150:\n      dup2\n      add\n      swap1\n      dup1\n      dup1\n      calldataload\n      swap1\n      0x20\n      add\n      swap1\n      swap3\n      swap2\n      swap1\n      dup1\n      calldataload\n      0xffffffffffffffffffffffffffffffffffffffff\n      and\n      swap1\n      0x20\n      add\n      swap1\n      swap3\n      swap2\n      swap1\n      pop\n      pop\n      pop\n      tag_151\n      jump\t// in\n    tag_149:\n      stop\n        /* \"bep-20.sol\":20877:21001  function checkSwapThreshold() external view returns (uint256) {... */\n    tag_24:\n      callvalue\n      dup1\n      iszero\n      tag_152\n      jumpi\n      0x00\n      dup1\n      revert\n    tag_152:\n      pop\n      tag_153\n      tag_154\n      jump\t// in\n    tag_153:\n      mload(0x40)\n      dup1\n      dup3\n      dup2\n      mstore\n      0x20\n      add\n      swap2\n      pop\n      pop\n      mload(0x40)\n      dup1\n      swap2\n      sub\n      swap1\n      return\n        /* \"bep-20.sol\":9540:9570  bool public swapEnabled = true */\n    tag_25:\n      callvalue\n      dup1\n      iszero\n      tag_155\n      jumpi\n      0x00\n      dup1\n      revert\n    tag_155:\n      pop\n      tag_156\n      tag_157\n      jump\t// in\n    tag_156:\n      mload(0x40)\n      dup1\n      dup3\n      iszero\n      iszero\n      dup2\n      mstore\n      0x20\n      add\n      swap2\n      pop\n      pop\n      mload(0x40)\n      dup1\n      swap2\n      sub\n      swap1\n      return\n        /* \"bep-20.sol\":12792:12928  function balanceOf(address who) external view override returns (uint256) {... */\n    tag_26:\n      callvalue\n      dup1\n      iszero\n      tag_158\n      jumpi\n      0x00\n      dup1\n      revert\n    tag_158:\n      pop\n      tag_159\n      0x04\n      dup1\n      calldatasize\n      sub\n      0x20\n      dup2\n      lt\n      iszero\n      tag_160\n      jumpi\n      0x00\n      dup1\n      revert\n    tag_160:\n      dup2\n      add\n      swap1\n      dup1\n      dup1\n      calldataload\n      0xffffffffffffffffffffffffffffffffffffffff\n      and\n      swap1\n      0x20\n      add\n      swap1\n      swap3\n      swap2\n      swap1\n      pop\n      pop\n      pop\n      tag_161\n      jump\t// in\n    tag_159:\n      mload(0x40)\n      dup1\n      dup3\n      dup2\n      mstore\n      0x20\n      add\n      swap2\n      pop\n      pop\n      mload(0x40)\n      dup1\n      swap2\n      sub\n      swap1\n      return\n        /* \"bep-20.sol\":7607:7730  function renounceOwnership() public onlyOwner {... */\n    tag_27:\n      callvalue\n      dup1\n      iszero\n      tag_162\n      jumpi\n      0x00\n      dup1\n      revert\n    tag_162:\n      pop\n      tag_163\n      tag_164\n      jump\t// in\n    tag_163:\n      stop\n        /* \"bep-20.sol\":18832:18931  function setFeeExempt(address _addr) external onlyOwner {... */\n    tag_28:\n      callvalue\n      dup1\n      iszero\n      tag_165\n      jumpi\n      0x00\n      dup1\n      revert\n    tag_165:\n      pop\n      tag_166\n      0x04\n      dup1\n      calldatasize\n      sub\n      0x20\n      dup2\n      lt\n      iszero\n      tag_167\n      jumpi\n      0x00\n      dup1\n      revert\n    tag_167:\n      dup2\n      add\n      swap1\n      dup1\n      dup1\n      calldataload\n      0xffffffffffffffffffffffffffffffffffffffff\n      and\n      swap1\n      0x20\n      add\n      swap1\n      swap3\n      swap2\n      swap1\n      pop\n      pop\n      pop\n      tag_168\n      jump\t// in\n    tag_166:\n      stop\n        /* \"bep-20.sol\":21007:21079  function manualSync() external {... */\n    tag_29:\n      callvalue\n      dup1\n      iszero\n      tag_169\n      jumpi\n      0x00\n      dup1\n      revert\n    tag_169:\n      pop\n      tag_170\n      tag_171\n      jump\t// in\n    tag_170:\n      stop\n        /* \"bep-20.sol\":11366:12099  function rebase(uint256 epoch, int256 supplyDelta)... */\n    tag_30:\n      callvalue\n      dup1\n      iszero\n      tag_172\n      jumpi\n      0x00\n      dup1\n      revert\n    tag_172:\n      pop\n      tag_173\n      0x04\n      dup1\n      calldatasize\n      sub\n      0x40\n      dup2\n      lt\n      iszero\n      tag_174\n      jumpi\n      0x00\n      dup1\n      revert\n    tag_174:\n      dup2\n      add\n      swap1\n      dup1\n      dup1\n      calldataload\n      swap1\n      0x20\n      add\n      swap1\n      swap3\n      swap2\n      swap1\n      dup1\n      calldataload\n      swap1\n      0x20\n      add\n      swap1\n      swap3\n      swap2\n      swap1\n      pop\n      pop\n      pop\n      tag_175\n      jump\t// in\n    tag_173:\n      mload(0x40)\n      dup1\n      dup3\n      dup2\n      mstore\n      0x20\n      add\n      swap2\n      pop\n      pop\n      mload(0x40)\n      dup1\n      swap2\n      sub\n      swap1\n      return\n        /* \"bep-20.sol\":9323:9354  address public TreasuryReceiver */\n    tag_31:\n      callvalue\n      dup1\n      iszero\n      tag_176\n      jumpi\n      0x00\n      dup1\n      revert\n    tag_176:\n      pop\n      tag_177\n      tag_178\n      jump\t// in\n    tag_177:\n      mload(0x40)\n      dup1\n      dup3\n      0xffffffffffffffffffffffffffffffffffffffff\n      and\n      dup2\n      mstore\n      0x20\n      add\n      swap2\n      pop\n      pop\n      mload(0x40)\n      dup1\n      swap2\n      sub\n      swap1\n      return\n        /* \"bep-20.sol\":20532:20615  function isNotInSwap() external view returns (bool) {... */\n    tag_32:\n      callvalue\n      dup1\n      iszero\n      tag_179\n      jumpi\n      0x00\n      dup1\n      revert\n    tag_179:\n      pop\n      tag_180\n      tag_181\n      jump\t// in\n    tag_180:\n      mload(0x40)\n      dup1\n      dup3\n      iszero\n      iszero\n      dup2\n      mstore\n      0x20\n      add\n      swap2\n      pop\n      pop\n      mload(0x40)\n      dup1\n      swap2\n      sub\n      swap1\n      return\n        /* \"bep-20.sol\":7355:7432  function owner() public view returns (address) {... */\n    tag_33:\n      callvalue\n      dup1\n      iszero\n      tag_182\n      jumpi\n      0x00\n      dup1\n      revert\n    tag_182:\n      pop\n      tag_183\n      tag_184\n      jump\t// in\n    tag_183:\n      mload(0x40)\n      dup1\n      dup3\n      0xffffffffffffffffffffffffffffffffffffffff\n      and\n      dup2\n      mstore\n      0x20\n      add\n      swap2\n      pop\n      pop\n      mload(0x40)\n      dup1\n      swap2\n      sub\n      swap1\n      return\n        /* \"bep-20.sol\":7511:7601  function isOwner() public view returns (bool) {... */\n    tag_34:\n      callvalue\n      dup1\n      iszero\n      tag_185\n      jumpi\n      0x00\n      dup1\n      revert\n    tag_185:\n      pop\n      tag_186\n      tag_187\n      jump\t// in\n    tag_186:\n      mload(0x40)\n      dup1\n      dup3\n      iszero\n      iszero\n      dup2\n      mstore\n      0x20\n      add\n      swap2\n      pop\n      pop\n      mload(0x40)\n      dup1\n      swap2\n      sub\n      swap1\n      return\n        /* \"bep-20.sol\":11251:11360  function updateBlacklist(address _user, bool _flag) public onlyOwner{... */\n    tag_35:\n      callvalue\n      dup1\n      iszero\n      tag_188\n      jumpi\n      0x00\n      dup1\n      revert\n    tag_188:\n      pop\n      tag_189\n      0x04\n      dup1\n      calldatasize\n      sub\n      0x40\n      dup2\n      lt\n      iszero\n      tag_190\n      jumpi\n      0x00\n      dup1\n      revert\n    tag_190:\n      dup2\n      add\n      swap1\n      dup1\n      dup1\n      calldataload\n      0xffffffffffffffffffffffffffffffffffffffff\n      and\n      swap1\n      0x20\n      add\n      swap1\n      swap3\n      swap2\n      swap1\n      dup1\n      calldataload\n      iszero\n      iszero\n      swap1\n      0x20\n      add\n      swap1\n      swap3\n      swap2\n      swap1\n      pop\n      pop\n      pop\n      tag_191\n      jump\t// in\n    tag_189:\n      stop\n        /* \"bep-20.sol\":5256:5341  function symbol() public view returns (string memory) {... */\n    tag_36:\n      callvalue\n      dup1\n      iszero\n      tag_192\n      jumpi\n      0x00\n      dup1\n      revert\n    tag_192:\n      pop\n      tag_193\n      tag_194\n      jump\t// in\n    tag_193:\n      mload(0x40)\n      dup1\n      dup1\n      0x20\n      add\n      dup3\n      dup2\n      sub\n      dup3\n      mstore\n      dup4\n      dup2\n      dup2\n      mload\n      dup2\n      mstore\n      0x20\n      add\n      swap2\n      pop\n      dup1\n      mload\n      swap1\n      0x20\n      add\n      swap1\n      dup1\n      dup4\n      dup4\n      0x00\n    tag_195:\n      dup4\n      dup2\n      lt\n      iszero\n      tag_197\n      jumpi\n      dup1\n      dup3\n      add\n      mload\n      dup2\n      dup5\n      add\n      mstore\n      0x20\n      dup2\n      add\n      swap1\n      pop\n      jump(tag_195)\n    tag_197:\n      pop\n      pop\n      pop\n      pop\n      swap1\n      pop\n      swap1\n      dup2\n      add\n      swap1\n      0x1f\n      and\n      dup1\n      iszero\n      tag_198\n      jumpi\n      dup1\n      dup3\n      sub\n      dup1\n      mload\n      0x01\n      dup4\n      0x20\n      sub\n      0x0100\n      exp\n      sub\n      not\n      and\n      dup2\n      mstore\n      0x20\n      add\n      swap2\n      pop\n    tag_198:\n      pop\n      swap3\n      pop\n      pop\n      pop\n      mload(0x40)\n      dup1\n      swap2\n      sub\n      swap1\n      return\n        /* \"bep-20.sol\":8887:8918  uint256 public liquidityFee = 5 */\n    tag_37:\n      callvalue\n      dup1\n      iszero\n      tag_199\n      jumpi\n      0x00\n      dup1\n      revert\n    tag_199:\n      pop\n      tag_200\n      tag_201\n      jump\t// in\n    tag_200:\n      mload(0x40)\n      dup1\n      dup3\n      dup2\n      mstore\n      0x20\n      add\n      swap2\n      pop\n      pop\n      mload(0x40)\n      dup1\n      swap2\n      sub\n      swap1\n      return\n        /* \"bep-20.sol\":20336:20425  function addMinter(address account) public onlyOwner {... */\n    tag_38:\n      callvalue\n      dup1\n      iszero\n      tag_202\n      jumpi\n      0x00\n      dup1\n      revert\n    tag_202:\n      pop\n      tag_203\n      0x04\n      dup1\n      calldatasize\n      sub\n      0x20\n      dup2\n      lt\n      iszero\n      tag_204\n      jumpi\n      0x00\n      dup1\n      revert\n    tag_204:\n      dup2\n      add\n      swap1\n      dup1\n      dup1\n      calldataload\n      0xffffffffffffffffffffffffffffffffffffffff\n      and\n      swap1\n      0x20\n      add\n      swap1\n      swap3\n      swap2\n      swap1\n      pop\n      pop\n      pop\n      tag_205\n      jump\t// in\n    tag_203:\n      stop\n        /* \"bep-20.sol\":4509:4584  function renounceMinter() public {... */\n    tag_39:\n      callvalue\n      dup1\n      iszero\n      tag_206\n      jumpi\n      0x00\n      dup1\n      revert\n    tag_206:\n      pop\n      tag_207\n      tag_208\n      jump\t// in\n    tag_207:\n      stop\n        /* \"bep-20.sol\":17159:17769  function decreaseAllowance(address spender, uint256 subtractedValue)... */\n    tag_40:\n      callvalue\n      dup1\n      iszero\n      tag_209\n      jumpi\n      0x00\n      dup1\n      revert\n    tag_209:\n      pop\n      tag_210\n      0x04\n      dup1\n      calldatasize\n      sub\n      0x40\n      dup2\n      lt\n      iszero\n      tag_211\n      jumpi\n      0x00\n      dup1\n      revert\n    tag_211:\n      dup2\n      add\n      swap1\n      dup1\n      dup1\n      calldataload\n      0xffffffffffffffffffffffffffffffffffffffff\n      and\n      swap1\n      0x20\n      add\n      swap1\n      swap3\n      swap2\n      swap1\n      dup1\n      calldataload\n      swap1\n      0x20\n      add\n      swap1\n      swap3\n      swap2\n      swap1\n      pop\n      pop\n      pop\n      tag_212\n      jump\t// in\n    tag_210:\n      mload(0x40)\n      dup1\n      dup3\n      iszero\n      iszero\n      dup2\n      mstore\n      0x20\n      add\n      swap2\n      pop\n      pop\n      mload(0x40)\n      dup1\n      swap2\n      sub\n      swap1\n      return\n        /* \"bep-20.sol\":9514:9533  address public pair */\n    tag_41:\n      callvalue\n      dup1\n      iszero\n      tag_213\n      jumpi\n      0x00\n      dup1\n      revert\n    tag_213:\n      pop\n      tag_214\n      tag_215\n      jump\t// in\n    tag_214:\n      mload(0x40)\n      dup1\n      dup3\n      0xffffffffffffffffffffffffffffffffffffffff\n      and\n      dup2\n      mstore\n      0x20\n      add\n      swap2\n      pop\n      pop\n      mload(0x40)\n      dup1\n      swap2\n      sub\n      swap1\n      return\n        /* \"bep-20.sol\":12211:12450  function transfer(address to, uint256 value)... */\n    tag_42:\n      callvalue\n      dup1\n      iszero\n      tag_216\n      jumpi\n      0x00\n      dup1\n      revert\n    tag_216:\n      pop\n      tag_217\n      0x04\n      dup1\n      calldatasize\n      sub\n      0x40\n      dup2\n      lt\n      iszero\n      tag_218\n      jumpi\n      0x00\n      dup1\n      revert\n    tag_218:\n      dup2\n      add\n      swap1\n      dup1\n      dup1\n      calldataload\n      0xffffffffffffffffffffffffffffffffffffffff\n      and\n      swap1\n      0x20\n      add\n      swap1\n      swap3\n      swap2\n      swap1\n      dup1\n      calldataload\n      swap1\n      0x20\n      add\n      swap1\n      swap3\n      swap2\n      swap1\n      pop\n      pop\n      pop\n      tag_219\n      jump\t// in\n    tag_217:\n      mload(0x40)\n      dup1\n      dup3\n      iszero\n      iszero\n      dup2\n      mstore\n      0x20\n      add\n      swap2\n      pop\n      pop\n      mload(0x40)\n      dup1\n      swap2\n      sub\n      swap1\n      return\n        /* \"bep-20.sol\":4396:4503  function isMinter(address account) public view returns (bool) {... */\n    tag_43:\n      callvalue\n      dup1\n      iszero\n      tag_220\n      jumpi\n      0x00\n      dup1\n      revert\n    tag_220:\n      pop\n      tag_221\n      0x04\n      dup1\n      calldatasize\n      sub\n      0x20\n      dup2\n      lt\n      iszero\n      tag_222\n      jumpi\n      0x00\n      dup1\n      revert\n    tag_222:\n      dup2\n      add\n      swap1\n      dup1\n      dup1\n      calldataload\n      0xffffffffffffffffffffffffffffffffffffffff\n      and\n      swap1\n      0x20\n      add\n      swap1\n      swap3\n      swap2\n      swap1\n      pop\n      pop\n      pop\n      tag_223\n      jump\t// in\n    tag_221:\n      mload(0x40)\n      dup1\n      dup3\n      iszero\n      iszero\n      dup2\n      mstore\n      0x20\n      add\n      swap2\n      pop\n      pop\n      mload(0x40)\n      dup1\n      swap2\n      sub\n      swap1\n      return\n        /* \"bep-20.sol\":8957:8989  uint256 public RiskFreeValue = 5 */\n    tag_44:\n      callvalue\n      dup1\n      iszero\n      tag_224\n      jumpi\n      0x00\n      dup1\n      revert\n    tag_224:\n      pop\n      tag_225\n      tag_226\n      jump\t// in\n    tag_225:\n      mload(0x40)\n      dup1\n      dup3\n      dup2\n      mstore\n      0x20\n      add\n      swap2\n      pop\n      pop\n      mload(0x40)\n      dup1\n      swap2\n      sub\n      swap1\n      return\n        /* \"bep-20.sol\":9281:9317  address public autoLiquidityReceiver */\n    tag_45:\n      callvalue\n      dup1\n      iszero\n      tag_227\n      jumpi\n      0x00\n      dup1\n      revert\n    tag_227:\n      pop\n      tag_228\n      tag_229\n      jump\t// in\n    tag_228:\n      mload(0x40)\n      dup1\n      dup3\n      0xffffffffffffffffffffffffffffffffffffffff\n      and\n      dup2\n      mstore\n      0x20\n      add\n      swap2\n      pop\n      pop\n      mload(0x40)\n      dup1\n      swap2\n      sub\n      swap1\n      return\n        /* \"bep-20.sol\":19488:19711  function setSwapBackSettings(... */\n    tag_46:\n      callvalue\n      dup1\n      iszero\n      tag_230\n      jumpi\n      0x00\n      dup1\n      revert\n    tag_230:\n      pop\n      tag_231\n      0x04\n      dup1\n      calldatasize\n      sub\n      0x60\n      dup2\n      lt\n      iszero\n      tag_232\n      jumpi\n      0x00\n      dup1\n      revert\n    tag_232:\n      dup2\n      add\n      swap1\n      dup1\n      dup1\n      calldataload\n      iszero\n      iszero\n      swap1\n      0x20\n      add\n      swap1\n      swap3\n      swap2\n      swap1\n      dup1\n      calldataload\n      swap1\n      0x20\n      add\n      swap1\n      swap3\n      swap2\n      swap1\n      dup1\n      calldataload\n      swap1\n      0x20\n      add\n      swap1\n      swap3\n      swap2\n      swap1\n      pop\n      pop\n      pop\n      tag_233\n      jump\t// in\n    tag_231:\n      stop\n        /* \"bep-20.sol\":8271:8310  bool public initialDistributionFinished */\n    tag_47:\n      callvalue\n      dup1\n      iszero\n      tag_234\n      jumpi\n      0x00\n      dup1\n      revert\n    tag_234:\n      pop\n      tag_235\n      tag_236\n      jump\t// in\n    tag_235:\n      mload(0x40)\n      dup1\n      dup3\n      iszero\n      iszero\n      dup2\n      mstore\n      0x20\n      add\n      swap2\n      pop\n      pop\n      mload(0x40)\n      dup1\n      swap2\n      sub\n      swap1\n      return\n        /* \"bep-20.sol\":20621:20871  function sendPresale(address[] calldata recipients, uint256[] calldata values)... */\n    tag_48:\n      callvalue\n      dup1\n      iszero\n      tag_237\n      jumpi\n      0x00\n      dup1\n      revert\n    tag_237:\n      pop\n      tag_238\n      0x04\n      dup1\n      calldatasize\n      sub\n      0x40\n      dup2\n      lt\n      iszero\n      tag_239\n      jumpi\n      0x00\n      dup1\n      revert\n    tag_239:\n      dup2\n      add\n      swap1\n      dup1\n      dup1\n      calldataload\n      swap1\n      0x20\n      add\n      swap1\n      0x0100000000\n      dup2\n      gt\n      iszero\n      tag_240\n      jumpi\n      0x00\n      dup1\n      revert\n    tag_240:\n      dup3\n      add\n      dup4\n      0x20\n      dup3\n      add\n      gt\n      iszero\n      tag_241\n      jumpi\n      0x00\n      dup1\n      revert\n    tag_241:\n      dup1\n      calldataload\n      swap1\n      0x20\n      add\n      swap2\n      dup5\n      0x20\n      dup4\n      mul\n      dup5\n      add\n      gt\n      0x0100000000\n      dup4\n      gt\n      or\n      iszero\n      tag_242\n      jumpi\n      0x00\n      dup1\n      revert\n    tag_242:\n      swap1\n      swap2\n      swap3\n      swap4\n      swap2\n      swap3\n      swap4\n      swap1\n      dup1\n      calldataload\n      swap1\n      0x20\n      add\n      swap1\n      0x0100000000\n      dup2\n      gt\n      iszero\n      tag_243\n      jumpi\n      0x00\n      dup1\n      revert\n    tag_243:\n      dup3\n      add\n      dup4\n      0x20\n      dup3\n      add\n      gt\n      iszero\n      tag_244\n      jumpi\n      0x00\n      dup1\n      revert\n    tag_244:\n      dup1\n      calldataload\n      swap1\n      0x20\n      add\n      swap2\n      dup5\n      0x20\n      dup4\n      mul\n      dup5\n      add\n      gt\n      0x0100000000\n      dup4\n      gt\n      or\n      iszero\n      tag_245\n      jumpi\n      0x00\n      dup1\n      revert\n    tag_245:\n      swap1\n      swap2\n      swap3\n      swap4\n      swap2\n      swap3\n      swap4\n      swap1\n      pop\n      pop\n      pop\n      tag_246\n      jump\t// in\n    tag_238:\n      stop\n        /* \"bep-20.sol\":18489:18600  function checkFeeExempt(address _addr) external view returns (bool) {... */\n    tag_49:\n      callvalue\n      dup1\n      iszero\n      tag_247\n      jumpi\n      0x00\n      dup1\n      revert\n    tag_247:\n      pop\n      tag_248\n      0x04\n      dup1\n      calldatasize\n      sub\n      0x20\n      dup2\n      lt\n      iszero\n      tag_249\n      jumpi\n      0x00\n      dup1\n      revert\n    tag_249:\n      dup2\n      add\n      swap1\n      dup1\n      dup1\n      calldataload\n      0xffffffffffffffffffffffffffffffffffffffff\n      and\n      swap1\n      0x20\n      add\n      swap1\n      swap3\n      swap2\n      swap1\n      pop\n      pop\n      pop\n      tag_250\n      jump\t// in\n    tag_248:\n      mload(0x40)\n      dup1\n      dup3\n      iszero\n      iszero\n      dup2\n      mstore\n      0x20\n      add\n      swap2\n      pop\n      pop\n      mload(0x40)\n      dup1\n      swap2\n      sub\n      swap1\n      return\n        /* \"bep-20.sol\":22512:22795  function getLiquidityBacking(uint256 accuracy)... */\n    tag_50:\n      callvalue\n      dup1\n      iszero\n      tag_251\n      jumpi\n      0x00\n      dup1\n      revert\n    tag_251:\n      pop\n      tag_252\n      0x04\n      dup1\n      calldatasize\n      sub\n      0x20\n      dup2\n      lt\n      iszero\n      tag_253\n      jumpi\n      0x00\n      dup1\n      revert\n    tag_253:\n      dup2\n      add\n      swap1\n      dup1\n      dup1\n      calldataload\n      swap1\n      0x20\n      add\n      swap1\n      swap3\n      swap2\n      swap1\n      pop\n      pop\n      pop\n      tag_254\n      jump\t// in\n    tag_252:\n      mload(0x40)\n      dup1\n      dup3\n      dup2\n      mstore\n      0x20\n      add\n      swap2\n      pop\n      pop\n      mload(0x40)\n      dup1\n      swap2\n      sub\n      swap1\n      return\n        /* \"bep-20.sol\":18724:18826  function enableTransfer(address _addr) external onlyOwner {... */\n    tag_51:\n      callvalue\n      dup1\n      iszero\n      tag_255\n      jumpi\n      0x00\n      dup1\n      revert\n    tag_255:\n      pop\n      tag_256\n      0x04\n      dup1\n      calldatasize\n      sub\n      0x20\n      dup2\n      lt\n      iszero\n      tag_257\n      jumpi\n      0x00\n      dup1\n      revert\n    tag_257:\n      dup2\n      add\n      swap1\n      dup1\n      dup1\n      calldataload\n      0xffffffffffffffffffffffffffffffffffffffff\n      and\n      swap1\n      0x20\n      add\n      swap1\n      swap3\n      swap2\n      swap1\n      pop\n      pop\n      pop\n      tag_258\n      jump\t// in\n    tag_256:\n      stop\n        /* \"bep-20.sol\":9360:9396  address public RiskFreeValueReceiver */\n    tag_52:\n      callvalue\n      dup1\n      iszero\n      tag_259\n      jumpi\n      0x00\n      dup1\n      revert\n    tag_259:\n      pop\n      tag_260\n      tag_261\n      jump\t// in\n    tag_260:\n      mload(0x40)\n      dup1\n      dup3\n      0xffffffffffffffffffffffffffffffffffffffff\n      and\n      dup2\n      mstore\n      0x20\n      add\n      swap2\n      pop\n      pop\n      mload(0x40)\n      dup1\n      swap2\n      sub\n      swap1\n      return\n        /* \"bep-20.sol\":21085:21415  function setFeeReceivers(... */\n    tag_53:\n      callvalue\n      dup1\n      iszero\n      tag_262\n      jumpi\n      0x00\n      dup1\n      revert\n    tag_262:\n      pop\n      tag_263\n      0x04\n      dup1\n      calldatasize\n      sub\n      0x60\n      dup2\n      lt\n      iszero\n      tag_264\n      jumpi\n      0x00\n      dup1\n      revert\n    tag_264:\n      dup2\n      add\n      swap1\n      dup1\n      dup1\n      calldataload\n      0xffffffffffffffffffffffffffffffffffffffff\n      and\n      swap1\n      0x20\n      add\n      swap1\n      swap3\n      swap2\n      swap1\n      dup1\n      calldataload\n      0xffffffffffffffffffffffffffffffffffffffff\n      and\n      swap1\n      0x20\n      add\n      swap1\n      swap3\n      swap2\n      swap1\n      dup1\n      calldataload\n      0xffffffffffffffffffffffffffffffffffffffff\n      and\n      swap1\n      0x20\n      add\n      swap1\n      swap3\n      swap2\n      swap1\n      pop\n      pop\n      pop\n      tag_265\n      jump\t// in\n    tag_263:\n      stop\n        /* \"bep-20.sol\":12599:12786  function allowance(address owner_, address spender)... */\n    tag_54:\n      callvalue\n      dup1\n      iszero\n      tag_266\n      jumpi\n      0x00\n      dup1\n      revert\n    tag_266:\n      pop\n      tag_267\n      0x04\n      dup1\n      calldatasize\n      sub\n      0x40\n      dup2\n      lt\n      iszero\n      tag_268\n      jumpi\n      0x00\n      dup1\n      revert\n    tag_268:\n      dup2\n      add\n      swap1\n      dup1\n      dup1\n      calldataload\n      0xffffffffffffffffffffffffffffffffffffffff\n      and\n      swap1\n      0x20\n      add\n      swap1\n      swap3\n      swap2\n      swap1\n      dup1\n      calldataload\n      0xffffffffffffffffffffffffffffffffffffffff\n      and\n      swap1\n      0x20\n      add\n      swap1\n      swap3\n      swap2\n      swap1\n      pop\n      pop\n      pop\n      tag_269\n      jump\t// in\n    tag_267:\n      mload(0x40)\n      dup1\n      dup3\n      dup2\n      mstore\n      0x20\n      add\n      swap2\n      pop\n      pop\n      mload(0x40)\n      dup1\n      swap2\n      sub\n      swap1\n      return\n        /* \"bep-20.sol\":7736:7843  function transferOwnership(address newOwner) public onlyOwner {... */\n    tag_55:\n      callvalue\n      dup1\n      iszero\n      tag_270\n      jumpi\n      0x00\n      dup1\n      revert\n    tag_270:\n      pop\n      tag_271\n      0x04\n      dup1\n      calldatasize\n      sub\n      0x20\n      dup2\n      lt\n      iszero\n      tag_272\n      jumpi\n      0x00\n      dup1\n      revert\n    tag_272:\n      dup2\n      add\n      swap1\n      dup1\n      dup1\n      calldataload\n      0xffffffffffffffffffffffffffffffffffffffff\n      and\n      swap1\n      0x20\n      add\n      swap1\n      swap3\n      swap2\n      swap1\n      pop\n      pop\n      pop\n      tag_273\n      jump\t// in\n    tag_271:\n      stop\n        /* \"bep-20.sol\":9484:9508  IDEXRouter public router */\n    tag_56:\n      callvalue\n      dup1\n      iszero\n      tag_274\n      jumpi\n      0x00\n      dup1\n      revert\n    tag_274:\n      pop\n      tag_275\n      tag_276\n      jump\t// in\n    tag_275:\n      mload(0x40)\n      dup1\n      dup3\n      0xffffffffffffffffffffffffffffffffffffffff\n      and\n      dup2\n      mstore\n      0x20\n      add\n      swap2\n      pop\n      pop\n      mload(0x40)\n      dup1\n      swap2\n      sub\n      swap1\n      return\n        /* \"bep-20.sol\":10119:10160  mapping(address => bool) public blacklist */\n    tag_57:\n      callvalue\n      dup1\n      iszero\n      tag_277\n      jumpi\n      0x00\n      dup1\n      revert\n    tag_277:\n      pop\n      tag_278\n      0x04\n      dup1\n      calldatasize\n      sub\n      0x20\n      dup2\n      lt\n      iszero\n      tag_279\n      jumpi\n      0x00\n      dup1\n      revert\n    tag_279:\n      dup2\n      add\n      swap1\n      dup1\n      dup1\n      calldataload\n      0xffffffffffffffffffffffffffffffffffffffff\n      and\n      swap1\n      0x20\n      add\n      swap1\n      swap3\n      swap2\n      swap1\n      pop\n      pop\n      pop\n      tag_280\n      jump\t// in\n    tag_278:\n      mload(0x40)\n      dup1\n      dup3\n      iszero\n      iszero\n      dup2\n      mstore\n      0x20\n      add\n      swap2\n      pop\n      pop\n      mload(0x40)\n      dup1\n      swap2\n      sub\n      swap1\n      return\n        /* \"bep-20.sol\":21421:21911  function setFees(... */\n    tag_77:\n        /* \"bep-20.sol\":7477:7486  isOwner() */\n      tag_285\n        /* \"bep-20.sol\":7477:7484  isOwner */\n      tag_187\n        /* \"bep-20.sol\":7477:7486  isOwner() */\n      jump\t// in\n    tag_285:\n        /* \"bep-20.sol\":7469:7487  require(isOwner()) */\n      tag_286\n      jumpi\n      0x00\n      dup1\n      revert\n    tag_286:\n        /* \"bep-20.sol\":21637:21650  _liquidityFee */\n      dup5\n        /* \"bep-20.sol\":21622:21634  liquidityFee */\n      0x07\n        /* \"bep-20.sol\":21622:21650  liquidityFee = _liquidityFee */\n      dup2\n      swap1\n      sstore\n      pop\n        /* \"bep-20.sol\":21676:21690  _RiskFreeValue */\n      dup4\n        /* \"bep-20.sol\":21660:21673  RiskFreeValue */\n      0x09\n        /* \"bep-20.sol\":21660:21690  RiskFreeValue = _RiskFreeValue */\n      dup2\n      swap1\n      sstore\n      pop\n        /* \"bep-20.sol\":21711:21720  _Treasury */\n      dup3\n        /* \"bep-20.sol\":21700:21708  Treasury */\n      0x08\n        /* \"bep-20.sol\":21700:21720  Treasury = _Treasury */\n      dup2\n      swap1\n      sstore\n      pop\n        /* \"bep-20.sol\":21740:21748  _sellFee */\n      dup2\n        /* \"bep-20.sol\":21730:21737  sellFee */\n      0x0a\n        /* \"bep-20.sol\":21730:21748  sellFee = _sellFee */\n      dup2\n      swap1\n      sstore\n      pop\n        /* \"bep-20.sol\":21769:21814  liquidityFee.add(Treasury).add(RiskFreeValue) */\n      tag_288\n        /* \"bep-20.sol\":21800:21813  RiskFreeValue */\n      sload(0x09)\n        /* \"bep-20.sol\":21769:21795  liquidityFee.add(Treasury) */\n      tag_289\n        /* \"bep-20.sol\":21786:21794  Treasury */\n      sload(0x08)\n        /* \"bep-20.sol\":21769:21781  liquidityFee */\n      sload(0x07)\n        /* \"bep-20.sol\":21769:21785  liquidityFee.add */\n      tag_281\n      swap1\n        /* \"bep-20.sol\":21769:21795  liquidityFee.add(Treasury) */\n      swap2\n      swap1\n      0xffffffff\n      and\n      jump\t// in\n    tag_289:\n        /* \"bep-20.sol\":21769:21799  liquidityFee.add(Treasury).add */\n      tag_281\n      swap1\n        /* \"bep-20.sol\":21769:21814  liquidityFee.add(Treasury).add(RiskFreeValue) */\n      swap2\n      swap1\n      0xffffffff\n      and\n      jump\t// in\n    tag_288:\n        /* \"bep-20.sol\":21758:21766  totalFee */\n      0x0b\n        /* \"bep-20.sol\":21758:21814  totalFee = liquidityFee.add(Treasury).add(RiskFreeValue) */\n      dup2\n      swap1\n      sstore\n      pop\n        /* \"bep-20.sol\":21841:21856  _feeDenominator */\n      dup1\n        /* \"bep-20.sol\":21824:21838  feeDenominator */\n      0x0c\n        /* \"bep-20.sol\":21824:21856  feeDenominator = _feeDenominator */\n      dup2\n      swap1\n      sstore\n      pop\n        /* \"bep-20.sol\":21902:21903  4 */\n      0x04\n        /* \"bep-20.sol\":21885:21899  feeDenominator */\n      sload(0x0c)\n        /* \"bep-20.sol\":21885:21903  feeDenominator / 4 */\n      dup2\n      tag_290\n      jumpi\n      invalid\n    tag_290:\n      div\n        /* \"bep-20.sol\":21874:21882  totalFee */\n      sload(0x0b)\n        /* \"bep-20.sol\":21874:21903  totalFee < feeDenominator / 4 */\n      lt\n        /* \"bep-20.sol\":21866:21904  require(totalFee < feeDenominator / 4) */\n      tag_291\n      jumpi\n      0x00\n      dup1\n      revert\n    tag_291:\n        /* \"bep-20.sol\":21421:21911  function setFees(... */\n      pop\n      pop\n      pop\n      pop\n      pop\n      jump\t// out\n        /* \"bep-20.sol\":5169:5250  function name() public view returns (string memory) {... */\n    tag_80:\n        /* \"bep-20.sol\":5206:5219  string memory */\n      0x60\n        /* \"bep-20.sol\":5238:5243  _name */\n      0x00\n        /* \"bep-20.sol\":5231:5243  return _name */\n      dup1\n      sload\n      0x01\n      dup2\n      0x01\n      and\n      iszero\n      0x0100\n      mul\n      sub\n      and\n      0x02\n      swap1\n      div\n      dup1\n      0x1f\n      add\n      0x20\n      dup1\n      swap2\n      div\n      mul\n      0x20\n      add\n      mload(0x40)\n      swap1\n      dup2\n      add\n      0x40\n      mstore\n      dup1\n      swap3\n      swap2\n      swap1\n      dup2\n      dup2\n      mstore\n      0x20\n      add\n      dup3\n      dup1\n      sload\n      0x01\n      dup2\n      0x01\n      and\n      iszero\n      0x0100\n      mul\n      sub\n      and\n      0x02\n      swap1\n      div\n      dup1\n      iszero\n      tag_293\n      jumpi\n      dup1\n      0x1f\n      lt\n      tag_294\n      jumpi\n      0x0100\n      dup1\n      dup4\n      sload\n      div\n      mul\n      dup4\n      mstore\n      swap2\n      0x20\n      add\n      swap2\n      jump(tag_293)\n    tag_294:\n      dup3\n      add\n      swap2\n      swap1\n      0x00\n      mstore\n      keccak256(0x00, 0x20)\n      swap1\n    tag_295:\n      dup2\n      sload\n      dup2\n      mstore\n      swap1\n      0x01\n      add\n      swap1\n      0x20\n      add\n      dup1\n      dup4\n      gt\n      tag_295\n      jumpi\n      dup3\n      swap1\n      sub\n      0x1f\n      and\n      dup3\n      add\n      swap2\n    tag_293:\n      pop\n      pop\n      pop\n      pop\n      pop\n      swap1\n      pop\n        /* \"bep-20.sol\":5169:5250  function name() public view returns (string memory) {... */\n      swap1\n      jump\t// out\n        /* \"bep-20.sol\":18206:18483  function approve(address spender, uint256 value)... */\n    tag_88:\n        /* \"bep-20.sol\":18338:18342  bool */\n      0x00\n        /* \"bep-20.sol\":8471:8498  initialDistributionFinished */\n      0x04\n      0x14\n      swap1\n      sload\n      swap1\n      0x0100\n      exp\n      swap1\n      div\n      0xff\n      and\n        /* \"bep-20.sol\":8471:8527  initialDistributionFinished ||... */\n      dup1\n      tag_297\n      jumpi\n      pop\n        /* \"bep-20.sol\":8518:8527  isOwner() */\n      tag_298\n        /* \"bep-20.sol\":8518:8525  isOwner */\n      tag_187\n        /* \"bep-20.sol\":8518:8527  isOwner() */\n      jump\t// in\n    tag_298:\n        /* \"bep-20.sol\":8471:8527  initialDistributionFinished ||... */\n    tag_297:\n        /* \"bep-20.sol\":8471:8572  initialDistributionFinished ||... */\n      dup1\n      tag_299\n      jumpi\n      pop\n        /* \"bep-20.sol\":8547:8560  allowTransfer */\n      0x05\n        /* \"bep-20.sol\":8547:8572  allowTransfer[msg.sender] */\n      0x00\n        /* \"bep-20.sol\":8561:8571  msg.sender */\n      caller\n        /* \"bep-20.sol\":8547:8572  allowTransfer[msg.sender] */\n      0xffffffffffffffffffffffffffffffffffffffff\n      and\n      0xffffffffffffffffffffffffffffffffffffffff\n      and\n      dup2\n      mstore\n      0x20\n      add\n      swap1\n      dup2\n      mstore\n      0x20\n      add\n      0x00\n      keccak256\n      0x00\n      swap1\n      sload\n      swap1\n      0x0100\n      exp\n      swap1\n      div\n      0xff\n      and\n        /* \"bep-20.sol\":8471:8572  initialDistributionFinished ||... */\n    tag_299:\n        /* \"bep-20.sol\":8450:8582  require(... */\n      tag_300\n      jumpi\n      0x00\n      dup1\n      revert\n    tag_300:\n        /* \"bep-20.sol\":18399:18404  value */\n      dup2\n        /* \"bep-20.sol\":18358:18375  _allowedFragments */\n      0x1b\n        /* \"bep-20.sol\":18358:18387  _allowedFragments[msg.sender] */\n      0x00\n        /* \"bep-20.sol\":18376:18386  msg.sender */\n      caller\n        /* \"bep-20.sol\":18358:18387  _allowedFragments[msg.sender] */\n      0xffffffffffffffffffffffffffffffffffffffff\n      and\n      0xffffffffffffffffffffffffffffffffffffffff\n      and\n      dup2\n      mstore\n      0x20\n      add\n      swap1\n      dup2\n      mstore\n      0x20\n      add\n      0x00\n      keccak256\n        /* \"bep-20.sol\":18358:18396  _allowedFragments[msg.sender][spender] */\n      0x00\n        /* \"bep-20.sol\":18388:18395  spender */\n      dup6\n        /* \"bep-20.sol\":18358:18396  _allowedFragments[msg.sender][spender] */\n      0xffffffffffffffffffffffffffffffffffffffff\n      and\n      0xffffffffffffffffffffffffffffffffffffffff\n      and\n      dup2\n      mstore\n      0x20\n      add\n      swap1\n      dup2\n      mstore\n      0x20\n      add\n      0x00\n      keccak256\n        /* \"bep-20.sol\":18358:18404  _allowedFragments[msg.sender][spender] = value */\n      dup2\n      swap1\n      sstore\n      pop\n        /* \"bep-20.sol\":18440:18447  spender */\n      dup3\n        /* \"bep-20.sol\":18419:18455  Approval(msg.sender, spender, value) */\n      0xffffffffffffffffffffffffffffffffffffffff\n      and\n        /* \"bep-20.sol\":18428:18438  msg.sender */\n      caller\n        /* \"bep-20.sol\":18419:18455  Approval(msg.sender, spender, value) */\n      0xffffffffffffffffffffffffffffffffffffffff\n      and\n      0x8c5be1e5ebec7d5bd14f71427d1e84f3dd0314c0f7b2291e5b200ac8c7c3b925\n        /* \"bep-20.sol\":18449:18454  value */\n      dup5\n        /* \"bep-20.sol\":18419:18455  Approval(msg.sender, spender, value) */\n      mload(0x40)\n      dup1\n      dup3\n      dup2\n      mstore\n      0x20\n      add\n      swap2\n      pop\n      pop\n      mload(0x40)\n      dup1\n      swap2\n      sub\n      swap1\n      log3\n        /* \"bep-20.sol\":18472:18476  true */\n      0x01\n        /* \"bep-20.sol\":18465:18476  return true */\n      swap1\n      pop\n        /* \"bep-20.sol\":18206:18483  function approve(address spender, uint256 value)... */\n      swap3\n      swap2\n      pop\n      pop\n      jump\t// out\n        /* \"bep-20.sol\":22805:22981  function isOverLiquified(uint256 target, uint256 accuracy)... */\n    tag_92:\n        /* \"bep-20.sol\":22909:22913  bool */\n      0x00\n        /* \"bep-20.sol\":22968:22974  target */\n      dup3\n        /* \"bep-20.sol\":22936:22965  getLiquidityBacking(accuracy) */\n      tag_303\n        /* \"bep-20.sol\":22956:22964  accuracy */\n      dup4\n        /* \"bep-20.sol\":22936:22955  getLiquidityBacking */\n      tag_254\n        /* \"bep-20.sol\":22936:22965  getLiquidityBacking(accuracy) */\n      jump\t// in\n    tag_303:\n        /* \"bep-20.sol\":22936:22974  getLiquidityBacking(accuracy) > target */\n      gt\n        /* \"bep-20.sol\":22929:22974  return getLiquidityBacking(accuracy) > target */\n      swap1\n      pop\n        /* \"bep-20.sol\":22805:22981  function isOverLiquified(uint256 target, uint256 accuracy)... */\n      swap3\n      swap2\n      pop\n      pop\n      jump\t// out\n        /* \"bep-20.sol\":9112:9147  uint256 public feeDenominator = 100 */\n    tag_95:\n      sload(0x0c)\n      dup2\n      jump\t// out\n        /* \"bep-20.sol\":12105:12205  function totalSupply() external view override returns (uint256) {... */\n    tag_98:\n        /* \"bep-20.sol\":12160:12167  uint256 */\n      0x00\n        /* \"bep-20.sol\":12186:12198  _totalSupply */\n      sload(0x18)\n        /* \"bep-20.sol\":12179:12198  return _totalSupply */\n      swap1\n      pop\n        /* \"bep-20.sol\":12105:12205  function totalSupply() external view override returns (uint256) {... */\n      swap1\n      jump\t// out\n        /* \"bep-20.sol\":9027:9106  uint256 public totalFee =... */\n    tag_101:\n      sload(0x0b)\n      dup2\n      jump\t// out\n        /* \"bep-20.sol\":20161:20330  function setTargetLiquidity(uint256 target, uint256 accuracy) external onlyOwner {... */\n    tag_105:\n        /* \"bep-20.sol\":7477:7486  isOwner() */\n      tag_306\n        /* \"bep-20.sol\":7477:7484  isOwner */\n      tag_187\n        /* \"bep-20.sol\":7477:7486  isOwner() */\n      jump\t// in\n    tag_306:\n        /* \"bep-20.sol\":7469:7487  require(isOwner()) */\n      tag_307\n      jumpi\n      0x00\n      dup1\n      revert\n    tag_307:\n        /* \"bep-20.sol\":20270:20276  target */\n      dup2\n        /* \"bep-20.sol\":20252:20267  targetLiquidity */\n      0x12\n        /* \"bep-20.sol\":20252:20276  targetLiquidity = target */\n      dup2\n      swap1\n      sstore\n      pop\n        /* \"bep-20.sol\":20315:20323  accuracy */\n      dup1\n        /* \"bep-20.sol\":20286:20312  targetLiquidityDenominator */\n      0x13\n        /* \"bep-20.sol\":20286:20323  targetLiquidityDenominator = accuracy */\n      dup2\n      swap1\n      sstore\n      pop\n        /* \"bep-20.sol\":20161:20330  function setTargetLiquidity(uint256 target, uint256 accuracy) external onlyOwner {... */\n      pop\n      pop\n      jump\t// out\n        /* \"bep-20.sol\":14180:14624  function transferFrom(... */\n    tag_109:\n        /* \"bep-20.sol\":14319:14323  bool */\n      0x00\n        /* \"bep-20.sol\":14306:14308  to */\n      dup3\n        /* \"bep-20.sol\":8674:8677  0x0 */\n      0x00\n        /* \"bep-20.sol\":8660:8678  to != address(0x0) */\n      0xffffffffffffffffffffffffffffffffffffffff\n      and\n        /* \"bep-20.sol\":8660:8662  to */\n      dup2\n        /* \"bep-20.sol\":8660:8678  to != address(0x0) */\n      0xffffffffffffffffffffffffffffffffffffffff\n      and\n      eq\n      iszero\n        /* \"bep-20.sol\":8652:8679  require(to != address(0x0)) */\n      tag_310\n      jumpi\n      0x00\n      dup1\n      revert\n    tag_310:\n        /* \"bep-20.sol\":14386:14388  -1 */\n      0xffffffffffffffffffffffffffffffffffffffffffffffffffffffffffffffff\n        /* \"bep-20.sol\":14339:14356  _allowedFragments */\n      0x1b\n        /* \"bep-20.sol\":14339:14362  _allowedFragments[from] */\n      0x00\n        /* \"bep-20.sol\":14357:14361  from */\n      dup8\n        /* \"bep-20.sol\":14339:14362  _allowedFragments[from] */\n      0xffffffffffffffffffffffffffffffffffffffff\n      and\n      0xffffffffffffffffffffffffffffffffffffffff\n      and\n      dup2\n      mstore\n      0x20\n      add\n      swap1\n      dup2\n      mstore\n      0x20\n      add\n      0x00\n      keccak256\n        /* \"bep-20.sol\":14339:14374  _allowedFragments[from][msg.sender] */\n      0x00\n        /* \"bep-20.sol\":14363:14373  msg.sender */\n      caller\n        /* \"bep-20.sol\":14339:14374  _allowedFragments[from][msg.sender] */\n      0xffffffffffffffffffffffffffffffffffffffff\n      and\n      0xffffffffffffffffffffffffffffffffffffffff\n      and\n      dup2\n      mstore\n      0x20\n      add\n      swap1\n      dup2\n      mstore\n      0x20\n      add\n      0x00\n      keccak256\n      sload\n        /* \"bep-20.sol\":14339:14389  _allowedFragments[from][msg.sender] != uint256(-1) */\n      eq\n        /* \"bep-20.sol\":14335:14556  if (_allowedFragments[from][msg.sender] != uint256(-1)) {... */\n      tag_312\n      jumpi\n        /* \"bep-20.sol\":14443:14545  _allowedFragments[from][... */\n      tag_313\n        /* \"bep-20.sol\":14513:14518  value */\n      dup4\n        /* \"bep-20.sol\":14443:14545  _allowedFragments[from][... */\n      mload(0x40)\n      dup1\n      0x40\n      add\n      0x40\n      mstore\n      dup1\n      0x16\n      dup2\n      mstore\n      0x20\n      add\n      0x496e73756666696369656e7420416c6c6f77616e636500000000000000000000\n      dup2\n      mstore\n      pop\n        /* \"bep-20.sol\":14443:14460  _allowedFragments */\n      0x1b\n        /* \"bep-20.sol\":14443:14466  _allowedFragments[from] */\n      0x00\n        /* \"bep-20.sol\":14461:14465  from */\n      dup10\n        /* \"bep-20.sol\":14443:14466  _allowedFragments[from] */\n      0xffffffffffffffffffffffffffffffffffffffff\n      and\n      0xffffffffffffffffffffffffffffffffffffffff\n      and\n      dup2\n      mstore\n      0x20\n      add\n      swap1\n      dup2\n      mstore\n      0x20\n      add\n      0x00\n      keccak256\n        /* \"bep-20.sol\":14443:14508  _allowedFragments[from][... */\n      0x00\n        /* \"bep-20.sol\":14484:14494  msg.sender */\n      caller\n        /* \"bep-20.sol\":14443:14508  _allowedFragments[from][... */\n      0xffffffffffffffffffffffffffffffffffffffff\n      and\n      0xffffffffffffffffffffffffffffffffffffffff\n      and\n      dup2\n      mstore\n      0x20\n      add\n      swap1\n      dup2\n      mstore\n      0x20\n      add\n      0x00\n      keccak256\n      sload\n        /* \"bep-20.sol\":14443:14512  _allowedFragments[from][... */\n      tag_314\n      swap1\n        /* \"bep-20.sol\":14443:14545  _allowedFragments[from][... */\n      swap3\n      swap2\n      swap1\n      0xffffffff\n      and\n      jump\t// in\n    tag_313:\n        /* \"bep-20.sol\":14405:14422  _allowedFragments */\n      0x1b\n        /* \"bep-20.sol\":14405:14428  _allowedFragments[from] */\n      0x00\n        /* \"bep-20.sol\":14423:14427  from */\n      dup8\n        /* \"bep-20.sol\":14405:14428  _allowedFragments[from] */\n      0xffffffffffffffffffffffffffffffffffffffff\n      and\n      0xffffffffffffffffffffffffffffffffffffffff\n      and\n      dup2\n      mstore\n      0x20\n      add\n      swap1\n      dup2\n      mstore\n      0x20\n      add\n      0x00\n      keccak256\n        /* \"bep-20.sol\":14405:14440  _allowedFragments[from][msg.sender] */\n      0x00\n        /* \"bep-20.sol\":14429:14439  msg.sender */\n      caller\n        /* \"bep-20.sol\":14405:14440  _allowedFragments[from][msg.sender] */\n      0xffffffffffffffffffffffffffffffffffffffff\n      and\n      0xffffffffffffffffffffffffffffffffffffffff\n      and\n      dup2\n      mstore\n      0x20\n      add\n      swap1\n      dup2\n      mstore\n      0x20\n      add\n      0x00\n      keccak256\n        /* \"bep-20.sol\":14405:14545  _allowedFragments[from][msg.sender] = _allowedFragments[from][... */\n      dup2\n      swap1\n      sstore\n      pop\n        /* \"bep-20.sol\":14335:14556  if (_allowedFragments[from][msg.sender] != uint256(-1)) {... */\n    tag_312:\n        /* \"bep-20.sol\":14566:14596  _transferFrom(from, to, value) */\n      tag_315\n        /* \"bep-20.sol\":14580:14584  from */\n      dup6\n        /* \"bep-20.sol\":14586:14588  to */\n      dup6\n        /* \"bep-20.sol\":14590:14595  value */\n      dup6\n        /* \"bep-20.sol\":14566:14579  _transferFrom */\n      tag_316\n        /* \"bep-20.sol\":14566:14596  _transferFrom(from, to, value) */\n      jump\t// in\n    tag_315:\n      pop\n        /* \"bep-20.sol\":14613:14617  true */\n      0x01\n        /* \"bep-20.sol\":14606:14617  return true */\n      swap2\n      pop\n        /* \"bep-20.sol\":14180:14624  function transferFrom(... */\n      pop\n      swap4\n      swap3\n      pop\n      pop\n      pop\n      jump\t// out\n        /* \"bep-20.sol\":19945:20155  function getCirculatingSupply() public view returns (uint256) {... */\n    tag_112:\n        /* \"bep-20.sol\":19998:20005  uint256 */\n      0x00\n        /* \"bep-20.sol\":20036:20148  (TOTAL_GONS.sub(_gonBalances[DEAD]).sub(_gonBalances[ZERO])).div(... */\n      tag_318\n        /* \"bep-20.sol\":20118:20134  _gonsPerFragment */\n      sload(0x19)\n        /* \"bep-20.sol\":20037:20095  TOTAL_GONS.sub(_gonBalances[DEAD]).sub(_gonBalances[ZERO]) */\n      tag_319\n        /* \"bep-20.sol\":20076:20088  _gonBalances */\n      0x1a\n        /* \"bep-20.sol\":20076:20094  _gonBalances[ZERO] */\n      0x00\n        /* \"bep-20.sol\":20089:20093  ZERO */\n      0x0e\n      0x00\n      swap1\n      sload\n      swap1\n      0x0100\n      exp\n      swap1\n      div\n      0xffffffffffffffffffffffffffffffffffffffff\n      and\n        /* \"bep-20.sol\":20076:20094  _gonBalances[ZERO] */\n      0xffffffffffffffffffffffffffffffffffffffff\n      and\n      0xffffffffffffffffffffffffffffffffffffffff\n      and\n      dup2\n      mstore\n      0x20\n      add\n      swap1\n      dup2\n      mstore\n      0x20\n      add\n      0x00\n      keccak256\n      sload\n        /* \"bep-20.sol\":20037:20071  TOTAL_GONS.sub(_gonBalances[DEAD]) */\n      tag_320\n        /* \"bep-20.sol\":20052:20064  _gonBalances */\n      0x1a\n        /* \"bep-20.sol\":20052:20070  _gonBalances[DEAD] */\n      0x00\n        /* \"bep-20.sol\":20065:20069  DEAD */\n      0x0d\n      0x00\n      swap1\n      sload\n      swap1\n      0x0100\n      exp\n      swap1\n      div\n      0xffffffffffffffffffffffffffffffffffffffff\n      and\n        /* \"bep-20.sol\":20052:20070  _gonBalances[DEAD] */\n      0xffffffffffffffffffffffffffffffffffffffff\n      and\n      0xffffffffffffffffffffffffffffffffffffffff\n      and\n      dup2\n      mstore\n      0x20\n      add\n      swap1\n      dup2\n      mstore\n      0x20\n      add\n      0x00\n      keccak256\n      sload\n        /* \"bep-20.sol\":8739:8741  18 */\n      0x12\n        /* \"bep-20.sol\":8868:8870  10 */\n      0x0a\n        /* \"bep-20.sol\":8868:8880  10**DECIMALS */\n      exp\n        /* \"bep-20.sol\":8856:8865  4 * 10**9 */\n      0xee6b2800\n        /* \"bep-20.sol\":8856:8880  4 * 10**9 * 10**DECIMALS */\n      mul\n        /* \"bep-20.sol\":8795:8796  0 */\n      0x00\n        /* \"bep-20.sol\":8786:8797  ~uint256(0) */\n      not\n        /* \"bep-20.sol\":9811:9849  MAX_UINT256 % INITIAL_FRAGMENTS_SUPPLY */\n      dup2\n      tag_321\n      jumpi\n      invalid\n    tag_321:\n      mod\n        /* \"bep-20.sol\":8795:8796  0 */\n      0x00\n        /* \"bep-20.sol\":8786:8797  ~uint256(0) */\n      not\n        /* \"bep-20.sol\":9796:9850  MAX_UINT256 - (MAX_UINT256 % INITIAL_FRAGMENTS_SUPPLY) */\n      sub\n        /* \"bep-20.sol\":20037:20051  TOTAL_GONS.sub */\n      tag_322\n      swap1\n        /* \"bep-20.sol\":20037:20071  TOTAL_GONS.sub(_gonBalances[DEAD]) */\n      swap2\n      swap1\n      0xffffffff\n      and\n      jump\t// in\n    tag_320:\n        /* \"bep-20.sol\":20037:20075  TOTAL_GONS.sub(_gonBalances[DEAD]).sub */\n      tag_322\n      swap1\n        /* \"bep-20.sol\":20037:20095  TOTAL_GONS.sub(_gonBalances[DEAD]).sub(_gonBalances[ZERO]) */\n      swap2\n      swap1\n      0xffffffff\n      and\n      jump\t// in\n    tag_319:\n        /* \"bep-20.sol\":20036:20100  (TOTAL_GONS.sub(_gonBalances[DEAD]).sub(_gonBalances[ZERO])).div */\n      tag_282\n      swap1\n        /* \"bep-20.sol\":20036:20148  (TOTAL_GONS.sub(_gonBalances[DEAD]).sub(_gonBalances[ZERO])).div(... */\n      swap2\n      swap1\n      0xffffffff\n      and\n      jump\t// in\n    tag_318:\n        /* \"bep-20.sol\":20017:20148  return... */\n      swap1\n      pop\n        /* \"bep-20.sol\":19945:20155  function getCirculatingSupply() public view returns (uint256) {... */\n      swap1\n      jump\t// out\n        /* \"bep-20.sol\":8995:9021  uint256 public sellFee = 5 */\n    tag_115:\n      sload(0x0a)\n      dup2\n      jump\t// out\n        /* \"bep-20.sol\":18606:18718  function setInitialDistributionFinished() external onlyOwner {... */\n    tag_118:\n        /* \"bep-20.sol\":7477:7486  isOwner() */\n      tag_324\n        /* \"bep-20.sol\":7477:7484  isOwner */\n      tag_187\n        /* \"bep-20.sol\":7477:7486  isOwner() */\n      jump\t// in\n    tag_324:\n        /* \"bep-20.sol\":7469:7487  require(isOwner()) */\n      tag_325\n      jumpi\n      0x00\n      dup1\n      revert\n    tag_325:\n        /* \"bep-20.sol\":18707:18711  true */\n      0x01\n        /* \"bep-20.sol\":18677:18704  initialDistributionFinished */\n      0x04\n      0x14\n        /* \"bep-20.sol\":18677:18711  initialDistributionFinished = true */\n      0x0100\n      exp\n      dup2\n      sload\n      dup2\n      0xff\n      mul\n      not\n      and\n      swap1\n      dup4\n      iszero\n      iszero\n      mul\n      or\n      swap1\n      sstore\n      pop\n        /* \"bep-20.sol\":18606:18718  function setInitialDistributionFinished() external onlyOwner {... */\n      jump\t// out\n        /* \"bep-20.sol\":12456:12593  function setLP(address _address) external onlyOwner {... */\n    tag_122:\n        /* \"bep-20.sol\":7477:7486  isOwner() */\n      tag_328\n        /* \"bep-20.sol\":7477:7484  isOwner */\n      tag_187\n        /* \"bep-20.sol\":7477:7486  isOwner() */\n      jump\t// in\n    tag_328:\n        /* \"bep-20.sol\":7469:7487  require(isOwner()) */\n      tag_329\n      jumpi\n      0x00\n      dup1\n      revert\n    tag_329:\n        /* \"bep-20.sol\":12545:12553  _address */\n      dup1\n        /* \"bep-20.sol\":12518:12530  pairContract */\n      0x04\n      0x00\n        /* \"bep-20.sol\":12518:12554  pairContract = InterfaceLP(_address) */\n      0x0100\n      exp\n      dup2\n      sload\n      dup2\n      0xffffffffffffffffffffffffffffffffffffffff\n      mul\n      not\n      and\n      swap1\n      dup4\n      0xffffffffffffffffffffffffffffffffffffffff\n      and\n      mul\n      or\n      swap1\n      sstore\n      pop\n        /* \"bep-20.sol\":12564:12576  _isFeeExempt */\n      0x06\n        /* \"bep-20.sol\":12564:12586  _isFeeExempt[_address] */\n      0x00\n        /* \"bep-20.sol\":12577:12585  _address */\n      dup3\n        /* \"bep-20.sol\":12564:12586  _isFeeExempt[_address] */\n      0xffffffffffffffffffffffffffffffffffffffff\n      and\n      0xffffffffffffffffffffffffffffffffffffffff\n      and\n      dup2\n      mstore\n      0x20\n      add\n      swap1\n      dup2\n      mstore\n      0x20\n      add\n      0x00\n      keccak256\n      0x00\n      swap1\n      sload\n      swap1\n      0x0100\n      exp\n      swap1\n      pop\n      pop\n        /* \"bep-20.sol\":12456:12593  function setLP(address _address) external onlyOwner {... */\n      pop\n      jump\t// out\n        /* \"bep-20.sol\":20431:20526  function removeMinter(address account) public onlyOwner {... */\n    tag_126:\n        /* \"bep-20.sol\":7477:7486  isOwner() */\n      tag_332\n        /* \"bep-20.sol\":7477:7484  isOwner */\n      tag_187\n        /* \"bep-20.sol\":7477:7486  isOwner() */\n      jump\t// in\n    tag_332:\n        /* \"bep-20.sol\":7469:7487  require(isOwner()) */\n      tag_333\n      jumpi\n      0x00\n      dup1\n      revert\n    tag_333:\n        /* \"bep-20.sol\":20497:20519  _removeMinter(account) */\n      tag_335\n        /* \"bep-20.sol\":20511:20518  account */\n      dup2\n        /* \"bep-20.sol\":20497:20510  _removeMinter */\n      tag_336\n        /* \"bep-20.sol\":20497:20519  _removeMinter(account) */\n      jump\t// in\n    tag_335:\n        /* \"bep-20.sol\":20431:20526  function removeMinter(address account) public onlyOwner {... */\n      pop\n      jump\t// out\n        /* \"bep-20.sol\":5347:5428  function decimals() public view returns (uint8) {... */\n    tag_129:\n        /* \"bep-20.sol\":5388:5393  uint8 */\n      0x00\n        /* \"bep-20.sol\":5412:5421  _decimals */\n      0x02\n      0x00\n      swap1\n      sload\n      swap1\n      0x0100\n      exp\n      swap1\n      div\n      0xff\n      and\n        /* \"bep-20.sol\":5405:5421  return _decimals */\n      swap1\n      pop\n        /* \"bep-20.sol\":5347:5428  function decimals() public view returns (uint8) {... */\n      swap1\n      jump\t// out\n        /* \"bep-20.sol\":22157:22364  function rescueToken(address tokenAddress, uint256 tokens)... */\n    tag_133:\n        /* \"bep-20.sol\":22266:22278  bool success */\n      0x00\n        /* \"bep-20.sol\":7477:7486  isOwner() */\n      tag_339\n        /* \"bep-20.sol\":7477:7484  isOwner */\n      tag_187\n        /* \"bep-20.sol\":7477:7486  isOwner() */\n      jump\t// in\n    tag_339:\n        /* \"bep-20.sol\":7469:7487  require(isOwner()) */\n      tag_340\n      jumpi\n      0x00\n      dup1\n      revert\n    tag_340:\n        /* \"bep-20.sol\":22315:22327  tokenAddress */\n      dup3\n        /* \"bep-20.sol\":22301:22337  ERC20Detailed(tokenAddress).transfer */\n      0xffffffffffffffffffffffffffffffffffffffff\n      and\n      0xa9059cbb\n        /* \"bep-20.sol\":22338:22348  msg.sender */\n      caller\n        /* \"bep-20.sol\":22350:22356  tokens */\n      dup5\n        /* \"bep-20.sol\":22301:22357  ERC20Detailed(tokenAddress).transfer(msg.sender, tokens) */\n      mload(0x40)\n      dup4\n      0xffffffff\n      and\n      0xe0\n      shl\n      dup2\n      mstore\n      0x04\n      add\n      dup1\n      dup4\n      0xffffffffffffffffffffffffffffffffffffffff\n      and\n      dup2\n      mstore\n      0x20\n      add\n      dup3\n      dup2\n      mstore\n      0x20\n      add\n      swap3\n      pop\n      pop\n      pop\n      0x20\n      mload(0x40)\n      dup1\n      dup4\n      sub\n      dup2\n      0x00\n      dup8\n      dup1\n      extcodesize\n      iszero\n      dup1\n      iszero\n      tag_342\n      jumpi\n      0x00\n      dup1\n      revert\n    tag_342:\n      pop\n      gas\n      call\n      iszero\n      dup1\n      iszero\n      tag_344\n      jumpi\n      returndatasize\n      0x00\n      dup1\n      returndatacopy\n      revert(0x00, returndatasize)\n    tag_344:\n      pop\n      pop\n      pop\n      pop\n      mload(0x40)\n      returndatasize\n      0x20\n      dup2\n      lt\n      iszero\n      tag_345\n      jumpi\n      0x00\n      dup1\n      revert\n    tag_345:\n      dup2\n      add\n      swap1\n      dup1\n      dup1\n      mload\n      swap1\n      0x20\n      add\n      swap1\n      swap3\n      swap2\n      swap1\n      pop\n      pop\n      pop\n        /* \"bep-20.sol\":22294:22357  return ERC20Detailed(tokenAddress).transfer(msg.sender, tokens) */\n      swap1\n      pop\n        /* \"bep-20.sol\":22157:22364  function rescueToken(address tokenAddress, uint256 tokens)... */\n      swap3\n      swap2\n      pop\n      pop\n      jump\t// out\n        /* \"bep-20.sol\":17775:18200  function increaseAllowance(address spender, uint256 addedValue)... */\n    tag_137:\n        /* \"bep-20.sol\":17905:17909  bool */\n      0x00\n        /* \"bep-20.sol\":8471:8498  initialDistributionFinished */\n      0x04\n      0x14\n      swap1\n      sload\n      swap1\n      0x0100\n      exp\n      swap1\n      div\n      0xff\n      and\n        /* \"bep-20.sol\":8471:8527  initialDistributionFinished ||... */\n      dup1\n      tag_347\n      jumpi\n      pop\n        /* \"bep-20.sol\":8518:8527  isOwner() */\n      tag_348\n        /* \"bep-20.sol\":8518:8525  isOwner */\n      tag_187\n        /* \"bep-20.sol\":8518:8527  isOwner() */\n      jump\t// in\n    tag_348:\n        /* \"bep-20.sol\":8471:8527  initialDistributionFinished ||... */\n    tag_347:\n        /* \"bep-20.sol\":8471:8572  initialDistributionFinished ||... */\n      dup1\n      tag_349\n      jumpi\n      pop\n        /* \"bep-20.sol\":8547:8560  allowTransfer */\n      0x05\n        /* \"bep-20.sol\":8547:8572  allowTransfer[msg.sender] */\n      0x00\n        /* \"bep-20.sol\":8561:8571  msg.sender */\n      caller\n        /* \"bep-20.sol\":8547:8572  allowTransfer[msg.sender] */\n      0xffffffffffffffffffffffffffffffffffffffff\n      and\n      0xffffffffffffffffffffffffffffffffffffffff\n      and\n      dup2\n      mstore\n      0x20\n      add\n      swap1\n      dup2\n      mstore\n      0x20\n      add\n      0x00\n      keccak256\n      0x00\n      swap1\n      sload\n      swap1\n      0x0100\n      exp\n      swap1\n      div\n      0xff\n      and\n        /* \"bep-20.sol\":8471:8572  initialDistributionFinished ||... */\n    tag_349:\n        /* \"bep-20.sol\":8450:8582  require(... */\n      tag_350\n      jumpi\n      0x00\n      dup1\n      revert\n    tag_350:\n        /* \"bep-20.sol\":17966:18042  _allowedFragments[msg.sender][... */\n      tag_352\n        /* \"bep-20.sol\":18031:18041  addedValue */\n      dup3\n        /* \"bep-20.sol\":17966:17983  _allowedFragments */\n      0x1b\n        /* \"bep-20.sol\":17966:17995  _allowedFragments[msg.sender] */\n      0x00\n        /* \"bep-20.sol\":17984:17994  msg.sender */\n      caller\n        /* \"bep-20.sol\":17966:17995  _allowedFragments[msg.sender] */\n      0xffffffffffffffffffffffffffffffffffffffff\n      and\n      0xffffffffffffffffffffffffffffffffffffffff\n      and\n      dup2\n      mstore\n      0x20\n      add\n      swap1\n      dup2\n      mstore\n      0x20\n      add\n      0x00\n      keccak256\n        /* \"bep-20.sol\":17966:18026  _allowedFragments[msg.sender][... */\n      0x00\n        /* \"bep-20.sol\":18009:18016  spender */\n      dup7\n        /* \"bep-20.sol\":17966:18026  _allowedFragments[msg.sender][... */\n      0xffffffffffffffffffffffffffffffffffffffff\n      and\n      0xffffffffffffffffffffffffffffffffffffffff\n      and\n      dup2\n      mstore\n      0x20\n      add\n      swap1\n      dup2\n      mstore\n      0x20\n      add\n      0x00\n      keccak256\n      sload\n        /* \"bep-20.sol\":17966:18030  _allowedFragments[msg.sender][... */\n      tag_281\n      swap1\n        /* \"bep-20.sol\":17966:18042  _allowedFragments[msg.sender][... */\n      swap2\n      swap1\n      0xffffffff\n      and\n      jump\t// in\n    tag_352:\n        /* \"bep-20.sol\":17925:17942  _allowedFragments */\n      0x1b\n        /* \"bep-20.sol\":17925:17954  _allowedFragments[msg.sender] */\n      0x00\n        /* \"bep-20.sol\":17943:17953  msg.sender */\n      caller\n        /* \"bep-20.sol\":17925:17954  _allowedFragments[msg.sender] */\n      0xffffffffffffffffffffffffffffffffffffffff\n      and\n      0xffffffffffffffffffffffffffffffffffffffff\n      and\n      dup2\n      mstore\n      0x20\n      add\n      swap1\n      dup2\n      mstore\n      0x20\n      add\n      0x00\n      keccak256\n        /* \"bep-20.sol\":17925:17963  _allowedFragments[msg.sender][spender] */\n      0x00\n        /* \"bep-20.sol\":17955:17962  spender */\n      dup6\n        /* \"bep-20.sol\":17925:17963  _allowedFragments[msg.sender][spender] */\n      0xffffffffffffffffffffffffffffffffffffffff\n      and\n      0xffffffffffffffffffffffffffffffffffffffff\n      and\n      dup2\n      mstore\n      0x20\n      add\n      swap1\n      dup2\n      mstore\n      0x20\n      add\n      0x00\n      keccak256\n        /* \"bep-20.sol\":17925:18042  _allowedFragments[msg.sender][spender] = _allowedFragments[msg.sender][... */\n      dup2\n      swap1\n      sstore\n      pop\n        /* \"bep-20.sol\":18103:18110  spender */\n      dup3\n        /* \"bep-20.sol\":18057:18172  Approval(... */\n      0xffffffffffffffffffffffffffffffffffffffff\n      and\n        /* \"bep-20.sol\":18079:18089  msg.sender */\n      caller\n        /* \"bep-20.sol\":18057:18172  Approval(... */\n      0xffffffffffffffffffffffffffffffffffffffff\n      and\n      0x8c5be1e5ebec7d5bd14f71427d1e84f3dd0314c0f7b2291e5b200ac8c7c3b925\n        /* \"bep-20.sol\":18124:18141  _allowedFragments */\n      0x1b\n        /* \"bep-20.sol\":18124:18153  _allowedFragments[msg.sender] */\n      0x00\n        /* \"bep-20.sol\":18142:18152  msg.sender */\n      caller\n        /* \"bep-20.sol\":18124:18153  _allowedFragments[msg.sender] */\n      0xffffffffffffffffffffffffffffffffffffffff\n      and\n      0xffffffffffffffffffffffffffffffffffffffff\n      and\n      dup2\n      mstore\n      0x20\n      add\n      swap1\n      dup2\n      mstore\n      0x20\n      add\n      0x00\n      keccak256\n        /* \"bep-20.sol\":18124:18162  _allowedFragments[msg.sender][spender] */\n      0x00\n        /* \"bep-20.sol\":18154:18161  spender */\n      dup8\n        /* \"bep-20.sol\":18124:18162  _allowedFragments[msg.sender][spender] */\n      0xffffffffffffffffffffffffffffffffffffffff\n      and\n      0xffffffffffffffffffffffffffffffffffffffff\n      and\n      dup2\n      mstore\n      0x20\n      add\n      swap1\n      dup2\n      mstore\n      0x20\n      add\n      0x00\n      keccak256\n      sload\n        /* \"bep-20.sol\":18057:18172  Approval(... */\n      mload(0x40)\n      dup1\n      dup3\n      dup2\n      mstore\n      0x20\n      add\n      swap2\n      pop\n      pop\n      mload(0x40)\n      dup1\n      swap2\n      sub\n      swap1\n      log3\n        /* \"bep-20.sol\":18189:18193  true */\n      0x01\n        /* \"bep-20.sol\":18182:18193  return true */\n      swap1\n      pop\n        /* \"bep-20.sol\":17775:18200  function increaseAllowance(address spender, uint256 addedValue)... */\n      swap3\n      swap2\n      pop\n      pop\n      jump\t// out\n        /* \"bep-20.sol\":19098:19482  function mint(address recipient, uint256 amount) external onlyMinter {... */\n    tag_141:\n        /* \"bep-20.sol\":4299:4319  isMinter(msg.sender) */\n      tag_354\n        /* \"bep-20.sol\":4308:4318  msg.sender */\n      caller\n        /* \"bep-20.sol\":4299:4307  isMinter */\n      tag_223\n        /* \"bep-20.sol\":4299:4319  isMinter(msg.sender) */\n      jump\t// in\n    tag_354:\n        /* \"bep-20.sol\":4291:4372  require(isMinter(msg.sender), \"MinterRole: caller does not have the Minter role\") */\n      tag_355\n      jumpi\n      mload(0x40)\n      0x08c379a000000000000000000000000000000000000000000000000000000000\n      dup2\n      mstore\n      0x04\n      add\n      dup1\n      dup1\n      0x20\n      add\n      dup3\n      dup2\n      sub\n      dup3\n      mstore\n      0x30\n      dup2\n      mstore\n      0x20\n      add\n      dup1\n      data_79ecb50133735b20228dea9d08fe36a462bbc1350f591a146908848db91104cd\n      0x30\n      swap2\n      codecopy\n      0x40\n      add\n      swap2\n      pop\n      pop\n      mload(0x40)\n      dup1\n      swap2\n      sub\n      swap1\n      revert\n    tag_355:\n        /* \"bep-20.sol\":19192:19225  _totalSupply.add(uint256(amount)) */\n      tag_357\n        /* \"bep-20.sol\":19217:19223  amount */\n      dup2\n        /* \"bep-20.sol\":19192:19204  _totalSupply */\n      sload(0x18)\n        /* \"bep-20.sol\":19192:19208  _totalSupply.add */\n      tag_281\n      swap1\n        /* \"bep-20.sol\":19192:19225  _totalSupply.add(uint256(amount)) */\n      swap2\n      swap1\n      0xffffffff\n      and\n      jump\t// in\n    tag_357:\n        /* \"bep-20.sol\":19177:19189  _totalSupply */\n      0x18\n        /* \"bep-20.sol\":19177:19225  _totalSupply = _totalSupply.add(uint256(amount)) */\n      dup2\n      swap1\n      sstore\n      pop\n        /* \"bep-20.sol\":9904:9905  0 */\n      0x00\n        /* \"bep-20.sol\":9895:9906  ~uint128(0) */\n      not\n        /* \"bep-20.sol\":19255:19265  MAX_SUPPLY */\n      0xffffffffffffffffffffffffffffffff\n      and\n        /* \"bep-20.sol\":19240:19252  _totalSupply */\n      sload(0x18)\n        /* \"bep-20.sol\":19240:19265  _totalSupply > MAX_SUPPLY */\n      gt\n        /* \"bep-20.sol\":19236:19317  if (_totalSupply > MAX_SUPPLY) {... */\n      iszero\n      tag_358\n      jumpi\n        /* \"bep-20.sol\":9904:9905  0 */\n      0x00\n        /* \"bep-20.sol\":9895:9906  ~uint128(0) */\n      not\n        /* \"bep-20.sol\":19296:19306  MAX_SUPPLY */\n      0xffffffffffffffffffffffffffffffff\n      and\n        /* \"bep-20.sol\":19281:19293  _totalSupply */\n      0x18\n        /* \"bep-20.sol\":19281:19306  _totalSupply = MAX_SUPPLY */\n      dup2\n      swap1\n      sstore\n      pop\n        /* \"bep-20.sol\":19236:19317  if (_totalSupply > MAX_SUPPLY) {... */\n    tag_358:\n        /* \"bep-20.sol\":19346:19374  TOTAL_GONS.div(_totalSupply) */\n      tag_359\n        /* \"bep-20.sol\":19361:19373  _totalSupply */\n      sload(0x18)\n        /* \"bep-20.sol\":8739:8741  18 */\n      0x12\n        /* \"bep-20.sol\":8868:8870  10 */\n      0x0a\n        /* \"bep-20.sol\":8868:8880  10**DECIMALS */\n      exp\n        /* \"bep-20.sol\":8856:8865  4 * 10**9 */\n      0xee6b2800\n        /* \"bep-20.sol\":8856:8880  4 * 10**9 * 10**DECIMALS */\n      mul\n        /* \"bep-20.sol\":8795:8796  0 */\n      0x00\n        /* \"bep-20.sol\":8786:8797  ~uint256(0) */\n      not\n        /* \"bep-20.sol\":9811:9849  MAX_UINT256 % INITIAL_FRAGMENTS_SUPPLY */\n      dup2\n      tag_360\n      jumpi\n      invalid\n    tag_360:\n      mod\n        /* \"bep-20.sol\":8795:8796  0 */\n      0x00\n        /* \"bep-20.sol\":8786:8797  ~uint256(0) */\n      not\n        /* \"bep-20.sol\":9796:9850  MAX_UINT256 - (MAX_UINT256 % INITIAL_FRAGMENTS_SUPPLY) */\n      sub\n        /* \"bep-20.sol\":19346:19360  TOTAL_GONS.div */\n      tag_282\n      swap1\n        /* \"bep-20.sol\":19346:19374  TOTAL_GONS.div(_totalSupply) */\n      swap2\n      swap1\n      0xffffffff\n      and\n      jump\t// in\n    tag_359:\n        /* \"bep-20.sol\":19327:19343  _gonsPerFragment */\n      0x19\n        /* \"bep-20.sol\":19327:19374  _gonsPerFragment = TOTAL_GONS.div(_totalSupply) */\n      dup2\n      swap1\n      sstore\n      pop\n        /* \"bep-20.sol\":19384:19396  pairContract */\n      0x04\n      0x00\n      swap1\n      sload\n      swap1\n      0x0100\n      exp\n      swap1\n      div\n      0xffffffffffffffffffffffffffffffffffffffff\n      and\n        /* \"bep-20.sol\":19384:19401  pairContract.sync */\n      0xffffffffffffffffffffffffffffffffffffffff\n      and\n      0xfff6cae9\n        /* \"bep-20.sol\":19384:19403  pairContract.sync() */\n      mload(0x40)\n      dup2\n      0xffffffff\n      and\n      0xe0\n      shl\n      dup2\n      mstore\n      0x04\n      add\n      0x00\n      mload(0x40)\n      dup1\n      dup4\n      sub\n      dup2\n      0x00\n      dup8\n      dup1\n      extcodesize\n      iszero\n      dup1\n      iszero\n      tag_361\n      jumpi\n      0x00\n      dup1\n      revert\n    tag_361:\n      pop\n      gas\n      call\n      iszero\n      dup1\n      iszero\n      tag_363\n      jumpi\n      returndatasize\n      0x00\n      dup1\n      returndatacopy\n      revert(0x00, returndatasize)\n    tag_363:\n      pop\n      pop\n      pop\n      pop\n        /* \"bep-20.sol\":19440:19475  _gonBalances[recipient].add(amount) */\n      tag_364\n        /* \"bep-20.sol\":19468:19474  amount */\n      dup2\n        /* \"bep-20.sol\":19440:19452  _gonBalances */\n      0x1a\n        /* \"bep-20.sol\":19440:19463  _gonBalances[recipient] */\n      0x00\n        /* \"bep-20.sol\":19453:19462  recipient */\n      dup6\n        /* \"bep-20.sol\":19440:19463  _gonBalances[recipient] */\n      0xffffffffffffffffffffffffffffffffffffffff\n      and\n      0xffffffffffffffffffffffffffffffffffffffff\n      and\n      dup2\n      mstore\n      0x20\n      add\n      swap1\n      dup2\n      mstore\n      0x20\n      add\n      0x00\n      keccak256\n      sload\n        /* \"bep-20.sol\":19440:19467  _gonBalances[recipient].add */\n      tag_281\n      swap1\n        /* \"bep-20.sol\":19440:19475  _gonBalances[recipient].add(amount) */\n      swap2\n      swap1\n      0xffffffff\n      and\n      jump\t// in\n    tag_364:\n        /* \"bep-20.sol\":19414:19426  _gonBalances */\n      0x1a\n        /* \"bep-20.sol\":19414:19437  _gonBalances[recipient] */\n      0x00\n        /* \"bep-20.sol\":19427:19436  recipient */\n      dup5\n        /* \"bep-20.sol\":19414:19437  _gonBalances[recipient] */\n      0xffffffffffffffffffffffffffffffffffffffff\n      and\n      0xffffffffffffffffffffffffffffffffffffffff\n      and\n      dup2\n      mstore\n      0x20\n      add\n      swap1\n      dup2\n      mstore\n      0x20\n      add\n      0x00\n      keccak256\n        /* \"bep-20.sol\":19414:19475  _gonBalances[recipient] = _gonBalances[recipient].add(amount) */\n      dup2\n      swap1\n      sstore\n      pop\n        /* \"bep-20.sol\":19098:19482  function mint(address recipient, uint256 amount) external onlyMinter {... */\n      pop\n      pop\n      jump\t// out\n        /* \"bep-20.sol\":8233:8264  InterfaceLP public pairContract */\n    tag_144:\n      0x04\n      0x00\n      swap1\n      sload\n      swap1\n      0x0100\n      exp\n      swap1\n      div\n      0xffffffffffffffffffffffffffffffffffffffff\n      and\n      dup2\n      jump\t// out\n        /* \"bep-20.sol\":8924:8951  uint256 public Treasury = 3 */\n    tag_147:\n      sload(0x08)\n      dup2\n      jump\t// out\n        /* \"bep-20.sol\":21917:22151  function clearStuckBalance(uint256 amountPercentage, address adr) external onlyOwner {... */\n    tag_151:\n        /* \"bep-20.sol\":7477:7486  isOwner() */\n      tag_366\n        /* \"bep-20.sol\":7477:7484  isOwner */\n      tag_187\n        /* \"bep-20.sol\":7477:7486  isOwner() */\n      jump\t// in\n    tag_366:\n        /* \"bep-20.sol\":7469:7487  require(isOwner()) */\n      tag_367\n      jumpi\n      0x00\n      dup1\n      revert\n    tag_367:\n        /* \"bep-20.sol\":22012:22029  uint256 amountETH */\n      0x00\n        /* \"bep-20.sol\":22032:22053  address(this).balance */\n      selfbalance\n        /* \"bep-20.sol\":22012:22053  uint256 amountETH = address(this).balance */\n      swap1\n      pop\n        /* \"bep-20.sol\":22071:22074  adr */\n      dup2\n        /* \"bep-20.sol\":22063:22084  payable(adr).transfer */\n      0xffffffffffffffffffffffffffffffffffffffff\n      and\n        /* \"bep-20.sol\":22063:22144  payable(adr).transfer(... */\n      0x08fc\n        /* \"bep-20.sol\":22131:22134  100 */\n      0x64\n        /* \"bep-20.sol\":22111:22127  amountPercentage */\n      dup6\n        /* \"bep-20.sol\":22099:22108  amountETH */\n      dup5\n        /* \"bep-20.sol\":22099:22127  amountETH * amountPercentage */\n      mul\n        /* \"bep-20.sol\":22098:22134  (amountETH * amountPercentage) / 100 */\n      dup2\n      tag_369\n      jumpi\n      invalid\n    tag_369:\n      div\n        /* \"bep-20.sol\":22063:22144  payable(adr).transfer(... */\n      swap1\n      dup2\n      iszero\n      mul\n      swap1\n      mload(0x40)\n      0x00\n      mload(0x40)\n      dup1\n      dup4\n      sub\n      dup2\n      dup6\n      dup9\n      dup9\n      call\n      swap4\n      pop\n      pop\n      pop\n      pop\n      iszero\n      dup1\n      iszero\n      tag_371\n      jumpi\n      returndatasize\n      0x00\n      dup1\n      returndatacopy\n      revert(0x00, returndatasize)\n    tag_371:\n      pop\n        /* \"bep-20.sol\":7497:7498  _ */\n      pop\n        /* \"bep-20.sol\":21917:22151  function clearStuckBalance(uint256 amountPercentage, address adr) external onlyOwner {... */\n      pop\n      pop\n      jump\t// out\n        /* \"bep-20.sol\":20877:21001  function checkSwapThreshold() external view returns (uint256) {... */\n    tag_154:\n        /* \"bep-20.sol\":20930:20937  uint256 */\n      0x00\n        /* \"bep-20.sol\":20956:20994  gonSwapThreshold.div(_gonsPerFragment) */\n      tag_373\n        /* \"bep-20.sol\":20977:20993  _gonsPerFragment */\n      sload(0x19)\n        /* \"bep-20.sol\":20956:20972  gonSwapThreshold */\n      sload(0x16)\n        /* \"bep-20.sol\":20956:20976  gonSwapThreshold.div */\n      tag_282\n      swap1\n        /* \"bep-20.sol\":20956:20994  gonSwapThreshold.div(_gonsPerFragment) */\n      swap2\n      swap1\n      0xffffffff\n      and\n      jump\t// in\n    tag_373:\n        /* \"bep-20.sol\":20949:20994  return gonSwapThreshold.div(_gonsPerFragment) */\n      swap1\n      pop\n        /* \"bep-20.sol\":20877:21001  function checkSwapThreshold() external view returns (uint256) {... */\n      swap1\n      jump\t// out\n        /* \"bep-20.sol\":9540:9570  bool public swapEnabled = true */\n    tag_157:\n      0x15\n      0x14\n      swap1\n      sload\n      swap1\n      0x0100\n      exp\n      swap1\n      div\n      0xff\n      and\n      dup2\n      jump\t// out\n        /* \"bep-20.sol\":12792:12928  function balanceOf(address who) external view override returns (uint256) {... */\n    tag_161:\n        /* \"bep-20.sol\":12856:12863  uint256 */\n      0x00\n        /* \"bep-20.sol\":12882:12921  _gonBalances[who].div(_gonsPerFragment) */\n      tag_375\n        /* \"bep-20.sol\":12904:12920  _gonsPerFragment */\n      sload(0x19)\n        /* \"bep-20.sol\":12882:12894  _gonBalances */\n      0x1a\n        /* \"bep-20.sol\":12882:12899  _gonBalances[who] */\n      0x00\n        /* \"bep-20.sol\":12895:12898  who */\n      dup6\n        /* \"bep-20.sol\":12882:12899  _gonBalances[who] */\n      0xffffffffffffffffffffffffffffffffffffffff\n      and\n      0xffffffffffffffffffffffffffffffffffffffff\n      and\n      dup2\n      mstore\n      0x20\n      add\n      swap1\n      dup2\n      mstore\n      0x20\n      add\n      0x00\n      keccak256\n      sload\n        /* \"bep-20.sol\":12882:12903  _gonBalances[who].div */\n      tag_282\n      swap1\n        /* \"bep-20.sol\":12882:12921  _gonBalances[who].div(_gonsPerFragment) */\n      swap2\n      swap1\n      0xffffffff\n      and\n      jump\t// in\n    tag_375:\n        /* \"bep-20.sol\":12875:12921  return _gonBalances[who].div(_gonsPerFragment) */\n      swap1\n      pop\n        /* \"bep-20.sol\":12792:12928  function balanceOf(address who) external view override returns (uint256) {... */\n      swap2\n      swap1\n      pop\n      jump\t// out\n        /* \"bep-20.sol\":7607:7730  function renounceOwnership() public onlyOwner {... */\n    tag_164:\n        /* \"bep-20.sol\":7477:7486  isOwner() */\n      tag_377\n        /* \"bep-20.sol\":7477:7484  isOwner */\n      tag_187\n        /* \"bep-20.sol\":7477:7486  isOwner() */\n      jump\t// in\n    tag_377:\n        /* \"bep-20.sol\":7469:7487  require(isOwner()) */\n      tag_378\n      jumpi\n      0x00\n      dup1\n      revert\n    tag_378:\n        /* \"bep-20.sol\":7687:7693  _owner */\n      0x02\n      0x01\n      swap1\n      sload\n      swap1\n      0x0100\n      exp\n      swap1\n      div\n      0xffffffffffffffffffffffffffffffffffffffff\n      and\n        /* \"bep-20.sol\":7668:7694  OwnershipRenounced(_owner) */\n      0xffffffffffffffffffffffffffffffffffffffff\n      and\n      0xf8df31144d9c2f0f6b59d69b8b98abd5459d07f2742c4df920b25aae33c64820\n      mload(0x40)\n      mload(0x40)\n      dup1\n      swap2\n      sub\n      swap1\n      log2\n        /* \"bep-20.sol\":7721:7722  0 */\n      0x00\n        /* \"bep-20.sol\":7704:7710  _owner */\n      0x02\n      0x01\n        /* \"bep-20.sol\":7704:7723  _owner = address(0) */\n      0x0100\n      exp\n      dup2\n      sload\n      dup2\n      0xffffffffffffffffffffffffffffffffffffffff\n      mul\n      not\n      and\n      swap1\n      dup4\n      0xffffffffffffffffffffffffffffffffffffffff\n      and\n      mul\n      or\n      swap1\n      sstore\n      pop\n        /* \"bep-20.sol\":7607:7730  function renounceOwnership() public onlyOwner {... */\n      jump\t// out\n        /* \"bep-20.sol\":18832:18931  function setFeeExempt(address _addr) external onlyOwner {... */\n    tag_168:\n        /* \"bep-20.sol\":7477:7486  isOwner() */\n      tag_381\n        /* \"bep-20.sol\":7477:7484  isOwner */\n      tag_187\n        /* \"bep-20.sol\":7477:7486  isOwner() */\n      jump\t// in\n    tag_381:\n        /* \"bep-20.sol\":7469:7487  require(isOwner()) */\n      tag_382\n      jumpi\n      0x00\n      dup1\n      revert\n    tag_382:\n        /* \"bep-20.sol\":18920:18924  true */\n      0x01\n        /* \"bep-20.sol\":18898:18910  _isFeeExempt */\n      0x06\n        /* \"bep-20.sol\":18898:18917  _isFeeExempt[_addr] */\n      0x00\n        /* \"bep-20.sol\":18911:18916  _addr */\n      dup4\n        /* \"bep-20.sol\":18898:18917  _isFeeExempt[_addr] */\n      0xffffffffffffffffffffffffffffffffffffffff\n      and\n      0xffffffffffffffffffffffffffffffffffffffff\n      and\n      dup2\n      mstore\n      0x20\n      add\n      swap1\n      dup2\n      mstore\n      0x20\n      add\n      0x00\n      keccak256\n      0x00\n        /* \"bep-20.sol\":18898:18924  _isFeeExempt[_addr] = true */\n      0x0100\n      exp\n      dup2\n      sload\n      dup2\n      0xff\n      mul\n      not\n      and\n      swap1\n      dup4\n      iszero\n      iszero\n      mul\n      or\n      swap1\n      sstore\n      pop\n        /* \"bep-20.sol\":18832:18931  function setFeeExempt(address _addr) external onlyOwner {... */\n      pop\n      jump\t// out\n        /* \"bep-20.sol\":21007:21079  function manualSync() external {... */\n    tag_171:\n        /* \"bep-20.sol\":21060:21064  pair */\n      0x15\n      0x00\n      swap1\n      sload\n      swap1\n      0x0100\n      exp\n      swap1\n      div\n      0xffffffffffffffffffffffffffffffffffffffff\n      and\n        /* \"bep-20.sol\":21048:21070  InterfaceLP(pair).sync */\n      0xffffffffffffffffffffffffffffffffffffffff\n      and\n      0xfff6cae9\n        /* \"bep-20.sol\":21048:21072  InterfaceLP(pair).sync() */\n      mload(0x40)\n      dup2\n      0xffffffff\n      and\n      0xe0\n      shl\n      dup2\n      mstore\n      0x04\n      add\n      0x00\n      mload(0x40)\n      dup1\n      dup4\n      sub\n      dup2\n      0x00\n      dup8\n      dup1\n      extcodesize\n      iszero\n      dup1\n      iszero\n      tag_385\n      jumpi\n      0x00\n      dup1\n      revert\n    tag_385:\n      pop\n      gas\n      call\n      iszero\n      dup1\n      iszero\n      tag_387\n      jumpi\n      returndatasize\n      0x00\n      dup1\n      returndatacopy\n      revert(0x00, returndatasize)\n    tag_387:\n      pop\n      pop\n      pop\n      pop\n        /* \"bep-20.sol\":21007:21079  function manualSync() external {... */\n      jump\t// out\n        /* \"bep-20.sol\":11366:12099  function rebase(uint256 epoch, int256 supplyDelta)... */\n    tag_175:\n        /* \"bep-20.sol\":11469:11476  uint256 */\n      0x00\n        /* \"bep-20.sol\":7477:7486  isOwner() */\n      tag_389\n        /* \"bep-20.sol\":7477:7484  isOwner */\n      tag_187\n        /* \"bep-20.sol\":7477:7486  isOwner() */\n      jump\t// in\n    tag_389:\n        /* \"bep-20.sol\":7469:7487  require(isOwner()) */\n      tag_390\n      jumpi\n      0x00\n      dup1\n      revert\n    tag_390:\n        /* \"bep-20.sol\":11501:11507  inSwap */\n      0x17\n      0x00\n      swap1\n      sload\n      swap1\n      0x0100\n      exp\n      swap1\n      div\n      0xff\n      and\n        /* \"bep-20.sol\":11500:11507  !inSwap */\n      iszero\n        /* \"bep-20.sol\":11492:11521  require(!inSwap, \"Try again\") */\n      tag_392\n      jumpi\n      mload(0x40)\n      0x08c379a000000000000000000000000000000000000000000000000000000000\n      dup2\n      mstore\n      0x04\n      add\n      dup1\n      dup1\n      0x20\n      add\n      dup3\n      dup2\n      sub\n      dup3\n      mstore\n      0x09\n      dup2\n      mstore\n      0x20\n      add\n      dup1\n      0x54727920616761696e0000000000000000000000000000000000000000000000\n      dup2\n      mstore\n      pop\n      0x20\n      add\n      swap2\n      pop\n      pop\n      mload(0x40)\n      dup1\n      swap2\n      sub\n      swap1\n      revert\n    tag_392:\n        /* \"bep-20.sol\":11550:11551  0 */\n      0x00\n        /* \"bep-20.sol\":11535:11546  supplyDelta */\n      dup3\n        /* \"bep-20.sol\":11535:11551  supplyDelta == 0 */\n      eq\n        /* \"bep-20.sol\":11531:11646  if (supplyDelta == 0) {... */\n      iszero\n      tag_393\n      jumpi\n        /* \"bep-20.sol\":11582:11587  epoch */\n      dup3\n        /* \"bep-20.sol\":11572:11602  LogRebase(epoch, _totalSupply) */\n      0x72725a3b1e5bd622d6bcd1339bb31279c351abe8f541ac7fd320f24e1b1641f2\n        /* \"bep-20.sol\":11589:11601  _totalSupply */\n      sload(0x18)\n        /* \"bep-20.sol\":11572:11602  LogRebase(epoch, _totalSupply) */\n      mload(0x40)\n      dup1\n      dup3\n      dup2\n      mstore\n      0x20\n      add\n      swap2\n      pop\n      pop\n      mload(0x40)\n      dup1\n      swap2\n      sub\n      swap1\n      log2\n        /* \"bep-20.sol\":11623:11635  _totalSupply */\n      sload(0x18)\n        /* \"bep-20.sol\":11616:11635  return _totalSupply */\n      swap1\n      pop\n      jump(tag_391)\n        /* \"bep-20.sol\":11531:11646  if (supplyDelta == 0) {... */\n    tag_393:\n        /* \"bep-20.sol\":11674:11675  0 */\n      0x00\n        /* \"bep-20.sol\":11660:11671  supplyDelta */\n      dup3\n        /* \"bep-20.sol\":11660:11675  supplyDelta < 0 */\n      slt\n        /* \"bep-20.sol\":11656:11840  if (supplyDelta < 0) {... */\n      iszero\n      tag_394\n      jumpi\n        /* \"bep-20.sol\":11706:11745  _totalSupply.sub(uint256(-supplyDelta)) */\n      tag_395\n        /* \"bep-20.sol\":11732:11743  supplyDelta */\n      dup3\n        /* \"bep-20.sol\":11731:11743  -supplyDelta */\n      0x00\n      sub\n        /* \"bep-20.sol\":11706:11718  _totalSupply */\n      sload(0x18)\n        /* \"bep-20.sol\":11706:11722  _totalSupply.sub */\n      tag_322\n      swap1\n        /* \"bep-20.sol\":11706:11745  _totalSupply.sub(uint256(-supplyDelta)) */\n      swap2\n      swap1\n      0xffffffff\n      and\n      jump\t// in\n    tag_395:\n        /* \"bep-20.sol\":11691:11703  _totalSupply */\n      0x18\n        /* \"bep-20.sol\":11691:11745  _totalSupply = _totalSupply.sub(uint256(-supplyDelta)) */\n      dup2\n      swap1\n      sstore\n      pop\n        /* \"bep-20.sol\":11656:11840  if (supplyDelta < 0) {... */\n      jump(tag_396)\n    tag_394:\n        /* \"bep-20.sol\":11791:11829  _totalSupply.add(uint256(supplyDelta)) */\n      tag_397\n        /* \"bep-20.sol\":11816:11827  supplyDelta */\n      dup3\n        /* \"bep-20.sol\":11791:11803  _totalSupply */\n      sload(0x18)\n        /* \"bep-20.sol\":11791:11807  _totalSupply.add */\n      tag_281\n      swap1\n        /* \"bep-20.sol\":11791:11829  _totalSupply.add(uint256(supplyDelta)) */\n      swap2\n      swap1\n      0xffffffff\n      and\n      jump\t// in\n    tag_397:\n        /* \"bep-20.sol\":11776:11788  _totalSupply */\n      0x18\n        /* \"bep-20.sol\":11776:11829  _totalSupply = _totalSupply.add(uint256(supplyDelta)) */\n      dup2\n      swap1\n      sstore\n      pop\n        /* \"bep-20.sol\":11656:11840  if (supplyDelta < 0) {... */\n    tag_396:\n        /* \"bep-20.sol\":9904:9905  0 */\n      0x00\n        /* \"bep-20.sol\":9895:9906  ~uint128(0) */\n      not\n        /* \"bep-20.sol\":11869:11879  MAX_SUPPLY */\n      0xffffffffffffffffffffffffffffffff\n      and\n        /* \"bep-20.sol\":11854:11866  _totalSupply */\n      sload(0x18)\n        /* \"bep-20.sol\":11854:11879  _totalSupply > MAX_SUPPLY */\n      gt\n        /* \"bep-20.sol\":11850:11931  if (_totalSupply > MAX_SUPPLY) {... */\n      iszero\n      tag_398\n      jumpi\n        /* \"bep-20.sol\":9904:9905  0 */\n      0x00\n        /* \"bep-20.sol\":9895:9906  ~uint128(0) */\n      not\n        /* \"bep-20.sol\":11910:11920  MAX_SUPPLY */\n      0xffffffffffffffffffffffffffffffff\n      and\n        /* \"bep-20.sol\":11895:11907  _totalSupply */\n      0x18\n        /* \"bep-20.sol\":11895:11920  _totalSupply = MAX_SUPPLY */\n      dup2\n      swap1\n      sstore\n      pop\n        /* \"bep-20.sol\":11850:11931  if (_totalSupply > MAX_SUPPLY) {... */\n    tag_398:\n        /* \"bep-20.sol\":11960:11988  TOTAL_GONS.div(_totalSupply) */\n      tag_399\n        /* \"bep-20.sol\":11975:11987  _totalSupply */\n      sload(0x18)\n        /* \"bep-20.sol\":8739:8741  18 */\n      0x12\n        /* \"bep-20.sol\":8868:8870  10 */\n      0x0a\n        /* \"bep-20.sol\":8868:8880  10**DECIMALS */\n      exp\n        /* \"bep-20.sol\":8856:8865  4 * 10**9 */\n      0xee6b2800\n        /* \"bep-20.sol\":8856:8880  4 * 10**9 * 10**DECIMALS */\n      mul\n        /* \"bep-20.sol\":8795:8796  0 */\n      0x00\n        /* \"bep-20.sol\":8786:8797  ~uint256(0) */\n      not\n        /* \"bep-20.sol\":9811:9849  MAX_UINT256 % INITIAL_FRAGMENTS_SUPPLY */\n      dup2\n      tag_400\n      jumpi\n      invalid\n    tag_400:\n      mod\n        /* \"bep-20.sol\":8795:8796  0 */\n      0x00\n        /* \"bep-20.sol\":8786:8797  ~uint256(0) */\n      not\n        /* \"bep-20.sol\":9796:9850  MAX_UINT256 - (MAX_UINT256 % INITIAL_FRAGMENTS_SUPPLY) */\n      sub\n        /* \"bep-20.sol\":11960:11974  TOTAL_GONS.div */\n      tag_282\n      swap1\n        /* \"bep-20.sol\":11960:11988  TOTAL_GONS.div(_totalSupply) */\n      swap2\n      swap1\n      0xffffffff\n      and\n      jump\t// in\n    tag_399:\n        /* \"bep-20.sol\":11941:11957  _gonsPerFragment */\n      0x19\n        /* \"bep-20.sol\":11941:11988  _gonsPerFragment = TOTAL_GONS.div(_totalSupply) */\n      dup2\n      swap1\n      sstore\n      pop\n        /* \"bep-20.sol\":11998:12010  pairContract */\n      0x04\n      0x00\n      swap1\n      sload\n      swap1\n      0x0100\n      exp\n      swap1\n      div\n      0xffffffffffffffffffffffffffffffffffffffff\n      and\n        /* \"bep-20.sol\":11998:12015  pairContract.sync */\n      0xffffffffffffffffffffffffffffffffffffffff\n      and\n      0xfff6cae9\n        /* \"bep-20.sol\":11998:12017  pairContract.sync() */\n      mload(0x40)\n      dup2\n      0xffffffff\n      and\n      0xe0\n      shl\n      dup2\n      mstore\n      0x04\n      add\n      0x00\n      mload(0x40)\n      dup1\n      dup4\n      sub\n      dup2\n      0x00\n      dup8\n      dup1\n      extcodesize\n      iszero\n      dup1\n      iszero\n      tag_401\n      jumpi\n      0x00\n      dup1\n      revert\n    tag_401:\n      pop\n      gas\n      call\n      iszero\n      dup1\n      iszero\n      tag_403\n      jumpi\n      returndatasize\n      0x00\n      dup1\n      returndatacopy\n      revert(0x00, returndatasize)\n    tag_403:\n      pop\n      pop\n      pop\n      pop\n        /* \"bep-20.sol\":12043:12048  epoch */\n      dup3\n        /* \"bep-20.sol\":12033:12063  LogRebase(epoch, _totalSupply) */\n      0x72725a3b1e5bd622d6bcd1339bb31279c351abe8f541ac7fd320f24e1b1641f2\n        /* \"bep-20.sol\":12050:12062  _totalSupply */\n      sload(0x18)\n        /* \"bep-20.sol\":12033:12063  LogRebase(epoch, _totalSupply) */\n      mload(0x40)\n      dup1\n      dup3\n      dup2\n      mstore\n      0x20\n      add\n      swap2\n      pop\n      pop\n      mload(0x40)\n      dup1\n      swap2\n      sub\n      swap1\n      log2\n        /* \"bep-20.sol\":12080:12092  _totalSupply */\n      sload(0x18)\n        /* \"bep-20.sol\":12073:12092  return _totalSupply */\n      swap1\n      pop\n        /* \"bep-20.sol\":7497:7498  _ */\n    tag_391:\n        /* \"bep-20.sol\":11366:12099  function rebase(uint256 epoch, int256 supplyDelta)... */\n      swap3\n      swap2\n      pop\n      pop\n      jump\t// out\n        /* \"bep-20.sol\":9323:9354  address public TreasuryReceiver */\n    tag_178:\n      0x10\n      0x00\n      swap1\n      sload\n      swap1\n      0x0100\n      exp\n      swap1\n      div\n      0xffffffffffffffffffffffffffffffffffffffff\n      and\n      dup2\n      jump\t// out\n        /* \"bep-20.sol\":20532:20615  function isNotInSwap() external view returns (bool) {... */\n    tag_181:\n        /* \"bep-20.sol\":20578:20582  bool */\n      0x00\n        /* \"bep-20.sol\":20602:20608  inSwap */\n      0x17\n      0x00\n      swap1\n      sload\n      swap1\n      0x0100\n      exp\n      swap1\n      div\n      0xff\n      and\n        /* \"bep-20.sol\":20601:20608  !inSwap */\n      iszero\n        /* \"bep-20.sol\":20594:20608  return !inSwap */\n      swap1\n      pop\n        /* \"bep-20.sol\":20532:20615  function isNotInSwap() external view returns (bool) {... */\n      swap1\n      jump\t// out\n        /* \"bep-20.sol\":7355:7432  function owner() public view returns (address) {... */\n    tag_184:\n        /* \"bep-20.sol\":7393:7400  address */\n      0x00\n        /* \"bep-20.sol\":7419:7425  _owner */\n      0x02\n      0x01\n      swap1\n      sload\n      swap1\n      0x0100\n      exp\n      swap1\n      div\n      0xffffffffffffffffffffffffffffffffffffffff\n      and\n        /* \"bep-20.sol\":7412:7425  return _owner */\n      swap1\n      pop\n        /* \"bep-20.sol\":7355:7432  function owner() public view returns (address) {... */\n      swap1\n      jump\t// out\n        /* \"bep-20.sol\":7511:7601  function isOwner() public view returns (bool) {... */\n    tag_187:\n        /* \"bep-20.sol\":7551:7555  bool */\n      0x00\n        /* \"bep-20.sol\":7588:7594  _owner */\n      0x02\n      0x01\n      swap1\n      sload\n      swap1\n      0x0100\n      exp\n      swap1\n      div\n      0xffffffffffffffffffffffffffffffffffffffff\n      and\n        /* \"bep-20.sol\":7574:7594  msg.sender == _owner */\n      0xffffffffffffffffffffffffffffffffffffffff\n      and\n        /* \"bep-20.sol\":7574:7584  msg.sender */\n      caller\n        /* \"bep-20.sol\":7574:7594  msg.sender == _owner */\n      0xffffffffffffffffffffffffffffffffffffffff\n      and\n      eq\n        /* \"bep-20.sol\":7567:7594  return msg.sender == _owner */\n      swap1\n      pop\n        /* \"bep-20.sol\":7511:7601  function isOwner() public view returns (bool) {... */\n      swap1\n      jump\t// out\n        /* \"bep-20.sol\":11251:11360  function updateBlacklist(address _user, bool _flag) public onlyOwner{... */\n    tag_191:\n        /* \"bep-20.sol\":7477:7486  isOwner() */\n      tag_408\n        /* \"bep-20.sol\":7477:7484  isOwner */\n      tag_187\n        /* \"bep-20.sol\":7477:7486  isOwner() */\n      jump\t// in\n    tag_408:\n        /* \"bep-20.sol\":7469:7487  require(isOwner()) */\n      tag_409\n      jumpi\n      0x00\n      dup1\n      revert\n    tag_409:\n        /* \"bep-20.sol\":11348:11353  _flag */\n      dup1\n        /* \"bep-20.sol\":11329:11338  blacklist */\n      0x1c\n        /* \"bep-20.sol\":11329:11345  blacklist[_user] */\n      0x00\n        /* \"bep-20.sol\":11339:11344  _user */\n      dup5\n        /* \"bep-20.sol\":11329:11345  blacklist[_user] */\n      0xffffffffffffffffffffffffffffffffffffffff\n      and\n      0xffffffffffffffffffffffffffffffffffffffff\n      and\n      dup2\n      mstore\n      0x20\n      add\n      swap1\n      dup2\n      mstore\n      0x20\n      add\n      0x00\n      keccak256\n      0x00\n        /* \"bep-20.sol\":11329:11353  blacklist[_user] = _flag */\n      0x0100\n      exp\n      dup2\n      sload\n      dup2\n      0xff\n      mul\n      not\n      and\n      swap1\n      dup4\n      iszero\n      iszero\n      mul\n      or\n      swap1\n      sstore\n      pop\n        /* \"bep-20.sol\":11251:11360  function updateBlacklist(address _user, bool _flag) public onlyOwner{... */\n      pop\n      pop\n      jump\t// out\n        /* \"bep-20.sol\":5256:5341  function symbol() public view returns (string memory) {... */\n    tag_194:\n        /* \"bep-20.sol\":5295:5308  string memory */\n      0x60\n        /* \"bep-20.sol\":5327:5334  _symbol */\n      0x01\n        /* \"bep-20.sol\":5320:5334  return _symbol */\n      dup1\n      sload\n      0x01\n      dup2\n      0x01\n      and\n      iszero\n      0x0100\n      mul\n      sub\n      and\n      0x02\n      swap1\n      div\n      dup1\n      0x1f\n      add\n      0x20\n      dup1\n      swap2\n      div\n      mul\n      0x20\n      add\n      mload(0x40)\n      swap1\n      dup2\n      add\n      0x40\n      mstore\n      dup1\n      swap3\n      swap2\n      swap1\n      dup2\n      dup2\n      mstore\n      0x20\n      add\n      dup3\n      dup1\n      sload\n      0x01\n      dup2\n      0x01\n      and\n      iszero\n      0x0100\n      mul\n      sub\n      and\n      0x02\n      swap1\n      div\n      dup1\n      iszero\n      tag_412\n      jumpi\n      dup1\n      0x1f\n      lt\n      tag_413\n      jumpi\n      0x0100\n      dup1\n      dup4\n      sload\n      div\n      mul\n      dup4\n      mstore\n      swap2\n      0x20\n      add\n      swap2\n      jump(tag_412)\n    tag_413:\n      dup3\n      add\n      swap2\n      swap1\n      0x00\n      mstore\n      keccak256(0x00, 0x20)\n      swap1\n    tag_414:\n      dup2\n      sload\n      dup2\n      mstore\n      swap1\n      0x01\n      add\n      swap1\n      0x20\n      add\n      dup1\n      dup4\n      gt\n      tag_414\n      jumpi\n      dup3\n      swap1\n      sub\n      0x1f\n      and\n      dup3\n      add\n      swap2\n    tag_412:\n      pop\n      pop\n      pop\n      pop\n      pop\n      swap1\n      pop\n        /* \"bep-20.sol\":5256:5341  function symbol() public view returns (string memory) {... */\n      swap1\n      jump\t// out\n        /* \"bep-20.sol\":8887:8918  uint256 public liquidityFee = 5 */\n    tag_201:\n      sload(0x07)\n      dup2\n      jump\t// out\n        /* \"bep-20.sol\":20336:20425  function addMinter(address account) public onlyOwner {... */\n    tag_205:\n        /* \"bep-20.sol\":7477:7486  isOwner() */\n      tag_416\n        /* \"bep-20.sol\":7477:7484  isOwner */\n      tag_187\n        /* \"bep-20.sol\":7477:7486  isOwner() */\n      jump\t// in\n    tag_416:\n        /* \"bep-20.sol\":7469:7487  require(isOwner()) */\n      tag_417\n      jumpi\n      0x00\n      dup1\n      revert\n    tag_417:\n        /* \"bep-20.sol\":20399:20418  _addMinter(account) */\n      tag_419\n        /* \"bep-20.sol\":20410:20417  account */\n      dup2\n        /* \"bep-20.sol\":20399:20409  _addMinter */\n      tag_420\n        /* \"bep-20.sol\":20399:20418  _addMinter(account) */\n      jump\t// in\n    tag_419:\n        /* \"bep-20.sol\":20336:20425  function addMinter(address account) public onlyOwner {... */\n      pop\n      jump\t// out\n        /* \"bep-20.sol\":4509:4584  function renounceMinter() public {... */\n    tag_208:\n        /* \"bep-20.sol\":4552:4577  _removeMinter(msg.sender) */\n      tag_422\n        /* \"bep-20.sol\":4566:4576  msg.sender */\n      caller\n        /* \"bep-20.sol\":4552:4565  _removeMinter */\n      tag_336\n        /* \"bep-20.sol\":4552:4577  _removeMinter(msg.sender) */\n      jump\t// in\n    tag_422:\n        /* \"bep-20.sol\":4509:4584  function renounceMinter() public {... */\n      jump\t// out\n        /* \"bep-20.sol\":17159:17769  function decreaseAllowance(address spender, uint256 subtractedValue)... */\n    tag_212:\n        /* \"bep-20.sol\":17294:17298  bool */\n      0x00\n        /* \"bep-20.sol\":8471:8498  initialDistributionFinished */\n      0x04\n      0x14\n      swap1\n      sload\n      swap1\n      0x0100\n      exp\n      swap1\n      div\n      0xff\n      and\n        /* \"bep-20.sol\":8471:8527  initialDistributionFinished ||... */\n      dup1\n      tag_424\n      jumpi\n      pop\n        /* \"bep-20.sol\":8518:8527  isOwner() */\n      tag_425\n        /* \"bep-20.sol\":8518:8525  isOwner */\n      tag_187\n        /* \"bep-20.sol\":8518:8527  isOwner() */\n      jump\t// in\n    tag_425:\n        /* \"bep-20.sol\":8471:8527  initialDistributionFinished ||... */\n    tag_424:\n        /* \"bep-20.sol\":8471:8572  initialDistributionFinished ||... */\n      dup1\n      tag_426\n      jumpi\n      pop\n        /* \"bep-20.sol\":8547:8560  allowTransfer */\n      0x05\n        /* \"bep-20.sol\":8547:8572  allowTransfer[msg.sender] */\n      0x00\n        /* \"bep-20.sol\":8561:8571  msg.sender */\n      caller\n        /* \"bep-20.sol\":8547:8572  allowTransfer[msg.sender] */\n      0xffffffffffffffffffffffffffffffffffffffff\n      and\n      0xffffffffffffffffffffffffffffffffffffffff\n      and\n      dup2\n      mstore\n      0x20\n      add\n      swap1\n      dup2\n      mstore\n      0x20\n      add\n      0x00\n      keccak256\n      0x00\n      swap1\n      sload\n      swap1\n      0x0100\n      exp\n      swap1\n      div\n      0xff\n      and\n        /* \"bep-20.sol\":8471:8572  initialDistributionFinished ||... */\n    tag_426:\n        /* \"bep-20.sol\":8450:8582  require(... */\n      tag_427\n      jumpi\n      0x00\n      dup1\n      revert\n    tag_427:\n        /* \"bep-20.sol\":17314:17330  uint256 oldValue */\n      0x00\n        /* \"bep-20.sol\":17333:17350  _allowedFragments */\n      0x1b\n        /* \"bep-20.sol\":17333:17362  _allowedFragments[msg.sender] */\n      0x00\n        /* \"bep-20.sol\":17351:17361  msg.sender */\n      caller\n        /* \"bep-20.sol\":17333:17362  _allowedFragments[msg.sender] */\n      0xffffffffffffffffffffffffffffffffffffffff\n      and\n      0xffffffffffffffffffffffffffffffffffffffff\n      and\n      dup2\n      mstore\n      0x20\n      add\n      swap1\n      dup2\n      mstore\n      0x20\n      add\n      0x00\n      keccak256\n        /* \"bep-20.sol\":17333:17371  _allowedFragments[msg.sender][spender] */\n      0x00\n        /* \"bep-20.sol\":17363:17370  spender */\n      dup6\n        /* \"bep-20.sol\":17333:17371  _allowedFragments[msg.sender][spender] */\n      0xffffffffffffffffffffffffffffffffffffffff\n      and\n      0xffffffffffffffffffffffffffffffffffffffff\n      and\n      dup2\n      mstore\n      0x20\n      add\n      swap1\n      dup2\n      mstore\n      0x20\n      add\n      0x00\n      keccak256\n      sload\n        /* \"bep-20.sol\":17314:17371  uint256 oldValue = _allowedFragments[msg.sender][spender] */\n      swap1\n      pop\n        /* \"bep-20.sol\":17404:17412  oldValue */\n      dup1\n        /* \"bep-20.sol\":17385:17400  subtractedValue */\n      dup4\n        /* \"bep-20.sol\":17385:17412  subtractedValue >= oldValue */\n      lt\n        /* \"bep-20.sol\":17381:17612  if (subtractedValue >= oldValue) {... */\n      tag_429\n      jumpi\n        /* \"bep-20.sol\":17469:17470  0 */\n      0x00\n        /* \"bep-20.sol\":17428:17445  _allowedFragments */\n      0x1b\n        /* \"bep-20.sol\":17428:17457  _allowedFragments[msg.sender] */\n      0x00\n        /* \"bep-20.sol\":17446:17456  msg.sender */\n      caller\n        /* \"bep-20.sol\":17428:17457  _allowedFragments[msg.sender] */\n      0xffffffffffffffffffffffffffffffffffffffff\n      and\n      0xffffffffffffffffffffffffffffffffffffffff\n      and\n      dup2\n      mstore\n      0x20\n      add\n      swap1\n      dup2\n      mstore\n      0x20\n      add\n      0x00\n      keccak256\n        /* \"bep-20.sol\":17428:17466  _allowedFragments[msg.sender][spender] */\n      0x00\n        /* \"bep-20.sol\":17458:17465  spender */\n      dup7\n        /* \"bep-20.sol\":17428:17466  _allowedFragments[msg.sender][spender] */\n      0xffffffffffffffffffffffffffffffffffffffff\n      and\n      0xffffffffffffffffffffffffffffffffffffffff\n      and\n      dup2\n      mstore\n      0x20\n      add\n      swap1\n      dup2\n      mstore\n      0x20\n      add\n      0x00\n      keccak256\n        /* \"bep-20.sol\":17428:17470  _allowedFragments[msg.sender][spender] = 0 */\n      dup2\n      swap1\n      sstore\n      pop\n        /* \"bep-20.sol\":17381:17612  if (subtractedValue >= oldValue) {... */\n      jump(tag_430)\n    tag_429:\n        /* \"bep-20.sol\":17542:17601  oldValue.sub(... */\n      tag_431\n        /* \"bep-20.sol\":17572:17587  subtractedValue */\n      dup4\n        /* \"bep-20.sol\":17542:17550  oldValue */\n      dup3\n        /* \"bep-20.sol\":17542:17554  oldValue.sub */\n      tag_322\n      swap1\n        /* \"bep-20.sol\":17542:17601  oldValue.sub(... */\n      swap2\n      swap1\n      0xffffffff\n      and\n      jump\t// in\n    tag_431:\n        /* \"bep-20.sol\":17501:17518  _allowedFragments */\n      0x1b\n        /* \"bep-20.sol\":17501:17530  _allowedFragments[msg.sender] */\n      0x00\n        /* \"bep-20.sol\":17519:17529  msg.sender */\n      caller\n        /* \"bep-20.sol\":17501:17530  _allowedFragments[msg.sender] */\n      0xffffffffffffffffffffffffffffffffffffffff\n      and\n      0xffffffffffffffffffffffffffffffffffffffff\n      and\n      dup2\n      mstore\n      0x20\n      add\n      swap1\n      dup2\n      mstore\n      0x20\n      add\n      0x00\n      keccak256\n        /* \"bep-20.sol\":17501:17539  _allowedFragments[msg.sender][spender] */\n      0x00\n        /* \"bep-20.sol\":17531:17538  spender */\n      dup7\n        /* \"bep-20.sol\":17501:17539  _allowedFragments[msg.sender][spender] */\n      0xffffffffffffffffffffffffffffffffffffffff\n      and\n      0xffffffffffffffffffffffffffffffffffffffff\n      and\n      dup2\n      mstore\n      0x20\n      add\n      swap1\n      dup2\n      mstore\n      0x20\n      add\n      0x00\n      keccak256\n        /* \"bep-20.sol\":17501:17601  _allowedFragments[msg.sender][spender] = oldValue.sub(... */\n      dup2\n      swap1\n      sstore\n      pop\n        /* \"bep-20.sol\":17381:17612  if (subtractedValue >= oldValue) {... */\n    tag_430:\n        /* \"bep-20.sol\":17672:17679  spender */\n      dup4\n        /* \"bep-20.sol\":17626:17741  Approval(... */\n      0xffffffffffffffffffffffffffffffffffffffff\n      and\n        /* \"bep-20.sol\":17648:17658  msg.sender */\n      caller\n        /* \"bep-20.sol\":17626:17741  Approval(... */\n      0xffffffffffffffffffffffffffffffffffffffff\n      and\n      0x8c5be1e5ebec7d5bd14f71427d1e84f3dd0314c0f7b2291e5b200ac8c7c3b925\n        /* \"bep-20.sol\":17693:17710  _allowedFragments */\n      0x1b\n        /* \"bep-20.sol\":17693:17722  _allowedFragments[msg.sender] */\n      0x00\n        /* \"bep-20.sol\":17711:17721  msg.sender */\n      caller\n        /* \"bep-20.sol\":17693:17722  _allowedFragments[msg.sender] */\n      0xffffffffffffffffffffffffffffffffffffffff\n      and\n      0xffffffffffffffffffffffffffffffffffffffff\n      and\n      dup2\n      mstore\n      0x20\n      add\n      swap1\n      dup2\n      mstore\n      0x20\n      add\n      0x00\n      keccak256\n        /* \"bep-20.sol\":17693:17731  _allowedFragments[msg.sender][spender] */\n      0x00\n        /* \"bep-20.sol\":17723:17730  spender */\n      dup9\n        /* \"bep-20.sol\":17693:17731  _allowedFragments[msg.sender][spender] */\n      0xffffffffffffffffffffffffffffffffffffffff\n      and\n      0xffffffffffffffffffffffffffffffffffffffff\n      and\n      dup2\n      mstore\n      0x20\n      add\n      swap1\n      dup2\n      mstore\n      0x20\n      add\n      0x00\n      keccak256\n      sload\n        /* \"bep-20.sol\":17626:17741  Approval(... */\n      mload(0x40)\n      dup1\n      dup3\n      dup2\n      mstore\n      0x20\n      add\n      swap2\n      pop\n      pop\n      mload(0x40)\n      dup1\n      swap2\n      sub\n      swap1\n      log3\n        /* \"bep-20.sol\":17758:17762  true */\n      0x01\n        /* \"bep-20.sol\":17751:17762  return true */\n      swap2\n      pop\n      pop\n        /* \"bep-20.sol\":17159:17769  function decreaseAllowance(address spender, uint256 subtractedValue)... */\n      swap3\n      swap2\n      pop\n      pop\n      jump\t// out\n        /* \"bep-20.sol\":9514:9533  address public pair */\n    tag_215:\n      0x15\n      0x00\n      swap1\n      sload\n      swap1\n      0x0100\n      exp\n      swap1\n      div\n      0xffffffffffffffffffffffffffffffffffffffff\n      and\n      dup2\n      jump\t// out\n        /* \"bep-20.sol\":12211:12450  function transfer(address to, uint256 value)... */\n    tag_219:\n        /* \"bep-20.sol\":12366:12370  bool */\n      0x00\n        /* \"bep-20.sol\":12313:12315  to */\n      dup3\n        /* \"bep-20.sol\":8674:8677  0x0 */\n      0x00\n        /* \"bep-20.sol\":8660:8678  to != address(0x0) */\n      0xffffffffffffffffffffffffffffffffffffffff\n      and\n        /* \"bep-20.sol\":8660:8662  to */\n      dup2\n        /* \"bep-20.sol\":8660:8678  to != address(0x0) */\n      0xffffffffffffffffffffffffffffffffffffffff\n      and\n      eq\n      iszero\n        /* \"bep-20.sol\":8652:8679  require(to != address(0x0)) */\n      tag_433\n      jumpi\n      0x00\n      dup1\n      revert\n    tag_433:\n        /* \"bep-20.sol\":8471:8498  initialDistributionFinished */\n      0x04\n      0x14\n      swap1\n      sload\n      swap1\n      0x0100\n      exp\n      swap1\n      div\n      0xff\n      and\n        /* \"bep-20.sol\":8471:8527  initialDistributionFinished ||... */\n      dup1\n      tag_435\n      jumpi\n      pop\n        /* \"bep-20.sol\":8518:8527  isOwner() */\n      tag_436\n        /* \"bep-20.sol\":8518:8525  isOwner */\n      tag_187\n        /* \"bep-20.sol\":8518:8527  isOwner() */\n      jump\t// in\n    tag_436:\n        /* \"bep-20.sol\":8471:8527  initialDistributionFinished ||... */\n    tag_435:\n        /* \"bep-20.sol\":8471:8572  initialDistributionFinished ||... */\n      dup1\n      tag_437\n      jumpi\n      pop\n        /* \"bep-20.sol\":8547:8560  allowTransfer */\n      0x05\n        /* \"bep-20.sol\":8547:8572  allowTransfer[msg.sender] */\n      0x00\n        /* \"bep-20.sol\":8561:8571  msg.sender */\n      caller\n        /* \"bep-20.sol\":8547:8572  allowTransfer[msg.sender] */\n      0xffffffffffffffffffffffffffffffffffffffff\n      and\n      0xffffffffffffffffffffffffffffffffffffffff\n      and\n      dup2\n      mstore\n      0x20\n      add\n      swap1\n      dup2\n      mstore\n      0x20\n      add\n      0x00\n      keccak256\n      0x00\n      swap1\n      sload\n      swap1\n      0x0100\n      exp\n      swap1\n      div\n      0xff\n      and\n        /* \"bep-20.sol\":8471:8572  initialDistributionFinished ||... */\n    tag_437:\n        /* \"bep-20.sol\":8450:8582  require(... */\n      tag_438\n      jumpi\n      0x00\n      dup1\n      revert\n    tag_438:\n        /* \"bep-20.sol\":12386:12422  _transferFrom(msg.sender, to, value) */\n      tag_440\n        /* \"bep-20.sol\":12400:12410  msg.sender */\n      caller\n        /* \"bep-20.sol\":12412:12414  to */\n      dup6\n        /* \"bep-20.sol\":12416:12421  value */\n      dup6\n        /* \"bep-20.sol\":12386:12399  _transferFrom */\n      tag_316\n        /* \"bep-20.sol\":12386:12422  _transferFrom(msg.sender, to, value) */\n      jump\t// in\n    tag_440:\n      pop\n        /* \"bep-20.sol\":12439:12443  true */\n      0x01\n        /* \"bep-20.sol\":12432:12443  return true */\n      swap2\n      pop\n        /* \"bep-20.sol\":12211:12450  function transfer(address to, uint256 value)... */\n      pop\n      swap3\n      swap2\n      pop\n      pop\n      jump\t// out\n        /* \"bep-20.sol\":4396:4503  function isMinter(address account) public view returns (bool) {... */\n    tag_223:\n        /* \"bep-20.sol\":4452:4456  bool */\n      0x00\n        /* \"bep-20.sol\":4475:4496  _minters.has(account) */\n      tag_442\n        /* \"bep-20.sol\":4488:4495  account */\n      dup3\n        /* \"bep-20.sol\":4475:4483  _minters */\n      0x03\n        /* \"bep-20.sol\":4475:4487  _minters.has */\n      tag_443\n      swap1\n        /* \"bep-20.sol\":4475:4496  _minters.has(account) */\n      swap2\n      swap1\n      0xffffffff\n      and\n      jump\t// in\n    tag_442:\n        /* \"bep-20.sol\":4468:4496  return _minters.has(account) */\n      swap1\n      pop\n        /* \"bep-20.sol\":4396:4503  function isMinter(address account) public view returns (bool) {... */\n      swap2\n      swap1\n      pop\n      jump\t// out\n        /* \"bep-20.sol\":8957:8989  uint256 public RiskFreeValue = 5 */\n    tag_226:\n      sload(0x09)\n      dup2\n      jump\t// out\n        /* \"bep-20.sol\":9281:9317  address public autoLiquidityReceiver */\n    tag_229:\n      0x0f\n      0x00\n      swap1\n      sload\n      swap1\n      0x0100\n      exp\n      swap1\n      div\n      0xffffffffffffffffffffffffffffffffffffffff\n      and\n      dup2\n      jump\t// out\n        /* \"bep-20.sol\":19488:19711  function setSwapBackSettings(... */\n    tag_233:\n        /* \"bep-20.sol\":7477:7486  isOwner() */\n      tag_445\n        /* \"bep-20.sol\":7477:7484  isOwner */\n      tag_187\n        /* \"bep-20.sol\":7477:7486  isOwner() */\n      jump\t// in\n    tag_445:\n        /* \"bep-20.sol\":7469:7487  require(isOwner()) */\n      tag_446\n      jumpi\n      0x00\n      dup1\n      revert\n    tag_446:\n        /* \"bep-20.sol\":19635:19643  _enabled */\n      dup3\n        /* \"bep-20.sol\":19621:19632  swapEnabled */\n      0x15\n      0x14\n        /* \"bep-20.sol\":19621:19643  swapEnabled = _enabled */\n      0x0100\n      exp\n      dup2\n      sload\n      dup2\n      0xff\n      mul\n      not\n      and\n      swap1\n      dup4\n      iszero\n      iszero\n      mul\n      or\n      swap1\n      sstore\n      pop\n        /* \"bep-20.sol\":19672:19704  TOTAL_GONS.div(_denom).mul(_num) */\n      tag_448\n        /* \"bep-20.sol\":19699:19703  _num */\n      dup3\n        /* \"bep-20.sol\":19672:19694  TOTAL_GONS.div(_denom) */\n      tag_449\n        /* \"bep-20.sol\":19687:19693  _denom */\n      dup4\n        /* \"bep-20.sol\":8739:8741  18 */\n      0x12\n        /* \"bep-20.sol\":8868:8870  10 */\n      0x0a\n        /* \"bep-20.sol\":8868:8880  10**DECIMALS */\n      exp\n        /* \"bep-20.sol\":8856:8865  4 * 10**9 */\n      0xee6b2800\n        /* \"bep-20.sol\":8856:8880  4 * 10**9 * 10**DECIMALS */\n      mul\n        /* \"bep-20.sol\":8795:8796  0 */\n      0x00\n        /* \"bep-20.sol\":8786:8797  ~uint256(0) */\n      not\n        /* \"bep-20.sol\":9811:9849  MAX_UINT256 % INITIAL_FRAGMENTS_SUPPLY */\n      dup2\n      tag_450\n      jumpi\n      invalid\n    tag_450:\n      mod\n        /* \"bep-20.sol\":8795:8796  0 */\n      0x00\n        /* \"bep-20.sol\":8786:8797  ~uint256(0) */\n      not\n        /* \"bep-20.sol\":9796:9850  MAX_UINT256 - (MAX_UINT256 % INITIAL_FRAGMENTS_SUPPLY) */\n      sub\n        /* \"bep-20.sol\":19672:19686  TOTAL_GONS.div */\n      tag_282\n      swap1\n        /* \"bep-20.sol\":19672:19694  TOTAL_GONS.div(_denom) */\n      swap2\n      swap1\n      0xffffffff\n      and\n      jump\t// in\n    tag_449:\n        /* \"bep-20.sol\":19672:19698  TOTAL_GONS.div(_denom).mul */\n      tag_451\n      swap1\n        /* \"bep-20.sol\":19672:19704  TOTAL_GONS.div(_denom).mul(_num) */\n      swap2\n      swap1\n      0xffffffff\n      and\n      jump\t// in\n    tag_448:\n        /* \"bep-20.sol\":19653:19669  gonSwapThreshold */\n      0x16\n        /* \"bep-20.sol\":19653:19704  gonSwapThreshold = TOTAL_GONS.div(_denom).mul(_num) */\n      dup2\n      swap1\n      sstore\n      pop\n        /* \"bep-20.sol\":19488:19711  function setSwapBackSettings(... */\n      pop\n      pop\n      pop\n      jump\t// out\n        /* \"bep-20.sol\":8271:8310  bool public initialDistributionFinished */\n    tag_236:\n      0x04\n      0x14\n      swap1\n      sload\n      swap1\n      0x0100\n      exp\n      swap1\n      div\n      0xff\n      and\n      dup2\n      jump\t// out\n        /* \"bep-20.sol\":20621:20871  function sendPresale(address[] calldata recipients, uint256[] calldata values)... */\n    tag_246:\n        /* \"bep-20.sol\":7477:7486  isOwner() */\n      tag_453\n        /* \"bep-20.sol\":7477:7484  isOwner */\n      tag_187\n        /* \"bep-20.sol\":7477:7486  isOwner() */\n      jump\t// in\n    tag_453:\n        /* \"bep-20.sol\":7469:7487  require(isOwner()) */\n      tag_454\n      jumpi\n      0x00\n      dup1\n      revert\n    tag_454:\n        /* \"bep-20.sol\":20752:20761  uint256 i */\n      0x00\n        /* \"bep-20.sol\":20747:20865  for (uint256 i = 0; i < recipients.length; i++) {... */\n    tag_456:\n        /* \"bep-20.sol\":20771:20781  recipients */\n      dup5\n      dup5\n        /* \"bep-20.sol\":20771:20788  recipients.length */\n      swap1\n      pop\n        /* \"bep-20.sol\":20767:20768  i */\n      dup2\n        /* \"bep-20.sol\":20767:20788  i < recipients.length */\n      lt\n        /* \"bep-20.sol\":20747:20865  for (uint256 i = 0; i < recipients.length; i++) {... */\n      iszero\n      tag_457\n      jumpi\n        /* \"bep-20.sol\":20805:20856  _transferFrom(msg.sender, recipients[i], values[i]) */\n      tag_459\n        /* \"bep-20.sol\":20819:20829  msg.sender */\n      caller\n        /* \"bep-20.sol\":20831:20841  recipients */\n      dup7\n      dup7\n        /* \"bep-20.sol\":20842:20843  i */\n      dup5\n        /* \"bep-20.sol\":20831:20844  recipients[i] */\n      dup2\n      dup2\n      lt\n      tag_460\n      jumpi\n      invalid\n    tag_460:\n      swap1\n      pop\n      0x20\n      mul\n      add\n      calldataload\n      0xffffffffffffffffffffffffffffffffffffffff\n      and\n        /* \"bep-20.sol\":20846:20852  values */\n      dup6\n      dup6\n        /* \"bep-20.sol\":20853:20854  i */\n      dup6\n        /* \"bep-20.sol\":20846:20855  values[i] */\n      dup2\n      dup2\n      lt\n      tag_461\n      jumpi\n      invalid\n    tag_461:\n      swap1\n      pop\n      0x20\n      mul\n      add\n      calldataload\n        /* \"bep-20.sol\":20805:20818  _transferFrom */\n      tag_316\n        /* \"bep-20.sol\":20805:20856  _transferFrom(msg.sender, recipients[i], values[i]) */\n      jump\t// in\n    tag_459:\n      pop\n        /* \"bep-20.sol\":20790:20793  i++ */\n      dup1\n      dup1\n      0x01\n      add\n      swap2\n      pop\n      pop\n        /* \"bep-20.sol\":20747:20865  for (uint256 i = 0; i < recipients.length; i++) {... */\n      jump(tag_456)\n    tag_457:\n      pop\n        /* \"bep-20.sol\":20621:20871  function sendPresale(address[] calldata recipients, uint256[] calldata values)... */\n      pop\n      pop\n      pop\n      pop\n      jump\t// out\n        /* \"bep-20.sol\":18489:18600  function checkFeeExempt(address _addr) external view returns (bool) {... */\n    tag_250:\n        /* \"bep-20.sol\":18551:18555  bool */\n      0x00\n        /* \"bep-20.sol\":18574:18586  _isFeeExempt */\n      0x06\n        /* \"bep-20.sol\":18574:18593  _isFeeExempt[_addr] */\n      0x00\n        /* \"bep-20.sol\":18587:18592  _addr */\n      dup4\n        /* \"bep-20.sol\":18574:18593  _isFeeExempt[_addr] */\n      0xffffffffffffffffffffffffffffffffffffffff\n      and\n      0xffffffffffffffffffffffffffffffffffffffff\n      and\n      dup2\n      mstore\n      0x20\n      add\n      swap1\n      dup2\n      mstore\n      0x20\n      add\n      0x00\n      keccak256\n      0x00\n      swap1\n      sload\n      swap1\n      0x0100\n      exp\n      swap1\n      div\n      0xff\n      and\n        /* \"bep-20.sol\":18567:18593  return _isFeeExempt[_addr] */\n      swap1\n      pop\n        /* \"bep-20.sol\":18489:18600  function checkFeeExempt(address _addr) external view returns (bool) {... */\n      swap2\n      swap1\n      pop\n      jump\t// out\n        /* \"bep-20.sol\":22512:22795  function getLiquidityBacking(uint256 accuracy)... */\n    tag_254:\n        /* \"bep-20.sol\":22604:22611  uint256 */\n      0x00\n        /* \"bep-20.sol\":22627:22651  uint256 liquidityBalance */\n      dup1\n        /* \"bep-20.sol\":22654:22694  _gonBalances[pair].div(_gonsPerFragment) */\n      tag_464\n        /* \"bep-20.sol\":22677:22693  _gonsPerFragment */\n      sload(0x19)\n        /* \"bep-20.sol\":22654:22666  _gonBalances */\n      0x1a\n        /* \"bep-20.sol\":22654:22672  _gonBalances[pair] */\n      0x00\n        /* \"bep-20.sol\":22667:22671  pair */\n      0x15\n      0x00\n      swap1\n      sload\n      swap1\n      0x0100\n      exp\n      swap1\n      div\n      0xffffffffffffffffffffffffffffffffffffffff\n      and\n        /* \"bep-20.sol\":22654:22672  _gonBalances[pair] */\n      0xffffffffffffffffffffffffffffffffffffffff\n      and\n      0xffffffffffffffffffffffffffffffffffffffff\n      and\n      dup2\n      mstore\n      0x20\n      add\n      swap1\n      dup2\n      mstore\n      0x20\n      add\n      0x00\n      keccak256\n      sload\n        /* \"bep-20.sol\":22654:22676  _gonBalances[pair].div */\n      tag_282\n      swap1\n        /* \"bep-20.sol\":22654:22694  _gonBalances[pair].div(_gonsPerFragment) */\n      swap2\n      swap1\n      0xffffffff\n      and\n      jump\t// in\n    tag_464:\n        /* \"bep-20.sol\":22627:22694  uint256 liquidityBalance = _gonBalances[pair].div(_gonsPerFragment) */\n      swap1\n      pop\n        /* \"bep-20.sol\":22723:22788  accuracy.mul(liquidityBalance.mul(2)).div(getCirculatingSupply()) */\n      tag_465\n        /* \"bep-20.sol\":22765:22787  getCirculatingSupply() */\n      tag_466\n        /* \"bep-20.sol\":22765:22785  getCirculatingSupply */\n      tag_112\n        /* \"bep-20.sol\":22765:22787  getCirculatingSupply() */\n      jump\t// in\n    tag_466:\n        /* \"bep-20.sol\":22723:22760  accuracy.mul(liquidityBalance.mul(2)) */\n      tag_467\n        /* \"bep-20.sol\":22736:22759  liquidityBalance.mul(2) */\n      tag_468\n        /* \"bep-20.sol\":22757:22758  2 */\n      0x02\n        /* \"bep-20.sol\":22736:22752  liquidityBalance */\n      dup6\n        /* \"bep-20.sol\":22736:22756  liquidityBalance.mul */\n      tag_451\n      swap1\n        /* \"bep-20.sol\":22736:22759  liquidityBalance.mul(2) */\n      swap2\n      swap1\n      0xffffffff\n      and\n      jump\t// in\n    tag_468:\n        /* \"bep-20.sol\":22723:22731  accuracy */\n      dup7\n        /* \"bep-20.sol\":22723:22735  accuracy.mul */\n      tag_451\n      swap1\n        /* \"bep-20.sol\":22723:22760  accuracy.mul(liquidityBalance.mul(2)) */\n      swap2\n      swap1\n      0xffffffff\n      and\n      jump\t// in\n    tag_467:\n        /* \"bep-20.sol\":22723:22764  accuracy.mul(liquidityBalance.mul(2)).div */\n      tag_282\n      swap1\n        /* \"bep-20.sol\":22723:22788  accuracy.mul(liquidityBalance.mul(2)).div(getCirculatingSupply()) */\n      swap2\n      swap1\n      0xffffffff\n      and\n      jump\t// in\n    tag_465:\n        /* \"bep-20.sol\":22704:22788  return... */\n      swap2\n      pop\n      pop\n        /* \"bep-20.sol\":22512:22795  function getLiquidityBacking(uint256 accuracy)... */\n      swap2\n      swap1\n      pop\n      jump\t// out\n        /* \"bep-20.sol\":18724:18826  function enableTransfer(address _addr) external onlyOwner {... */\n    tag_258:\n        /* \"bep-20.sol\":7477:7486  isOwner() */\n      tag_470\n        /* \"bep-20.sol\":7477:7484  isOwner */\n      tag_187\n        /* \"bep-20.sol\":7477:7486  isOwner() */\n      jump\t// in\n    tag_470:\n        /* \"bep-20.sol\":7469:7487  require(isOwner()) */\n      tag_471\n      jumpi\n      0x00\n      dup1\n      revert\n    tag_471:\n        /* \"bep-20.sol\":18815:18819  true */\n      0x01\n        /* \"bep-20.sol\":18792:18805  allowTransfer */\n      0x05\n        /* \"bep-20.sol\":18792:18812  allowTransfer[_addr] */\n      0x00\n        /* \"bep-20.sol\":18806:18811  _addr */\n      dup4\n        /* \"bep-20.sol\":18792:18812  allowTransfer[_addr] */\n      0xffffffffffffffffffffffffffffffffffffffff\n      and\n      0xffffffffffffffffffffffffffffffffffffffff\n      and\n      dup2\n      mstore\n      0x20\n      add\n      swap1\n      dup2\n      mstore\n      0x20\n      add\n      0x00\n      keccak256\n      0x00\n        /* \"bep-20.sol\":18792:18819  allowTransfer[_addr] = true */\n      0x0100\n      exp\n      dup2\n      sload\n      dup2\n      0xff\n      mul\n      not\n      and\n      swap1\n      dup4\n      iszero\n      iszero\n      mul\n      or\n      swap1\n      sstore\n      pop\n        /* \"bep-20.sol\":18724:18826  function enableTransfer(address _addr) external onlyOwner {... */\n      pop\n      jump\t// out\n        /* \"bep-20.sol\":9360:9396  address public RiskFreeValueReceiver */\n    tag_261:\n      0x11\n      0x00\n      swap1\n      sload\n      swap1\n      0x0100\n      exp\n      swap1\n      div\n      0xffffffffffffffffffffffffffffffffffffffff\n      and\n      dup2\n      jump\t// out\n        /* \"bep-20.sol\":21085:21415  function setFeeReceivers(... */\n    tag_265:\n        /* \"bep-20.sol\":7477:7486  isOwner() */\n      tag_474\n        /* \"bep-20.sol\":7477:7484  isOwner */\n      tag_187\n        /* \"bep-20.sol\":7477:7486  isOwner() */\n      jump\t// in\n    tag_474:\n        /* \"bep-20.sol\":7469:7487  require(isOwner()) */\n      tag_475\n      jumpi\n      0x00\n      dup1\n      revert\n    tag_475:\n        /* \"bep-20.sol\":21284:21306  _autoLiquidityReceiver */\n      dup3\n        /* \"bep-20.sol\":21260:21281  autoLiquidityReceiver */\n      0x0f\n      0x00\n        /* \"bep-20.sol\":21260:21306  autoLiquidityReceiver = _autoLiquidityReceiver */\n      0x0100\n      exp\n      dup2\n      sload\n      dup2\n      0xffffffffffffffffffffffffffffffffffffffff\n      mul\n      not\n      and\n      swap1\n      dup4\n      0xffffffffffffffffffffffffffffffffffffffff\n      and\n      mul\n      or\n      swap1\n      sstore\n      pop\n        /* \"bep-20.sol\":21335:21352  _TreasuryReceiver */\n      dup2\n        /* \"bep-20.sol\":21316:21332  TreasuryReceiver */\n      0x10\n      0x00\n        /* \"bep-20.sol\":21316:21352  TreasuryReceiver = _TreasuryReceiver */\n      0x0100\n      exp\n      dup2\n      sload\n      dup2\n      0xffffffffffffffffffffffffffffffffffffffff\n      mul\n      not\n      and\n      swap1\n      dup4\n      0xffffffffffffffffffffffffffffffffffffffff\n      and\n      mul\n      or\n      swap1\n      sstore\n      pop\n        /* \"bep-20.sol\":21386:21408  _RiskFreeValueReceiver */\n      dup1\n        /* \"bep-20.sol\":21362:21383  RiskFreeValueReceiver */\n      0x11\n      0x00\n        /* \"bep-20.sol\":21362:21408  RiskFreeValueReceiver = _RiskFreeValueReceiver */\n      0x0100\n      exp\n      dup2\n      sload\n      dup2\n      0xffffffffffffffffffffffffffffffffffffffff\n      mul\n      not\n      and\n      swap1\n      dup4\n      0xffffffffffffffffffffffffffffffffffffffff\n      and\n      mul\n      or\n      swap1\n      sstore\n      pop\n        /* \"bep-20.sol\":21085:21415  function setFeeReceivers(... */\n      pop\n      pop\n      pop\n      jump\t// out\n        /* \"bep-20.sol\":12599:12786  function allowance(address owner_, address spender)... */\n    tag_269:\n        /* \"bep-20.sol\":12715:12722  uint256 */\n      0x00\n        /* \"bep-20.sol\":12745:12762  _allowedFragments */\n      0x1b\n        /* \"bep-20.sol\":12745:12770  _allowedFragments[owner_] */\n      0x00\n        /* \"bep-20.sol\":12763:12769  owner_ */\n      dup5\n        /* \"bep-20.sol\":12745:12770  _allowedFragments[owner_] */\n      0xffffffffffffffffffffffffffffffffffffffff\n      and\n      0xffffffffffffffffffffffffffffffffffffffff\n      and\n      dup2\n      mstore\n      0x20\n      add\n      swap1\n      dup2\n      mstore\n      0x20\n      add\n      0x00\n      keccak256\n        /* \"bep-20.sol\":12745:12779  _allowedFragments[owner_][spender] */\n      0x00\n        /* \"bep-20.sol\":12771:12778  spender */\n      dup4\n        /* \"bep-20.sol\":12745:12779  _allowedFragments[owner_][spender] */\n      0xffffffffffffffffffffffffffffffffffffffff\n      and\n      0xffffffffffffffffffffffffffffffffffffffff\n      and\n      dup2\n      mstore\n      0x20\n      add\n      swap1\n      dup2\n      mstore\n      0x20\n      add\n      0x00\n      keccak256\n      sload\n        /* \"bep-20.sol\":12738:12779  return _allowedFragments[owner_][spender] */\n      swap1\n      pop\n        /* \"bep-20.sol\":12599:12786  function allowance(address owner_, address spender)... */\n      swap3\n      swap2\n      pop\n      pop\n      jump\t// out\n        /* \"bep-20.sol\":7736:7843  function transferOwnership(address newOwner) public onlyOwner {... */\n    tag_273:\n        /* \"bep-20.sol\":7477:7486  isOwner() */\n      tag_479\n        /* \"bep-20.sol\":7477:7484  isOwner */\n      tag_187\n        /* \"bep-20.sol\":7477:7486  isOwner() */\n      jump\t// in\n    tag_479:\n        /* \"bep-20.sol\":7469:7487  require(isOwner()) */\n      tag_480\n      jumpi\n      0x00\n      dup1\n      revert\n    tag_480:\n        /* \"bep-20.sol\":7808:7836  _transferOwnership(newOwner) */\n      tag_482\n        /* \"bep-20.sol\":7827:7835  newOwner */\n      dup2\n        /* \"bep-20.sol\":7808:7826  _transferOwnership */\n      tag_483\n        /* \"bep-20.sol\":7808:7836  _transferOwnership(newOwner) */\n      jump\t// in\n    tag_482:\n        /* \"bep-20.sol\":7736:7843  function transferOwnership(address newOwner) public onlyOwner {... */\n      pop\n      jump\t// out\n        /* \"bep-20.sol\":9484:9508  IDEXRouter public router */\n    tag_276:\n      0x14\n      0x00\n      swap1\n      sload\n      swap1\n      0x0100\n      exp\n      swap1\n      div\n      0xffffffffffffffffffffffffffffffffffffffff\n      and\n      dup2\n      jump\t// out\n        /* \"bep-20.sol\":10119:10160  mapping(address => bool) public blacklist */\n    tag_280:\n      mstore(0x20, 0x1c)\n      dup1\n      0x00\n      mstore\n      keccak256(0x00, 0x40)\n      0x00\n      swap2\n      pop\n      sload\n      swap1\n      0x0100\n      exp\n      swap1\n      div\n      0xff\n      and\n      dup2\n      jump\t// out\n        /* \"bep-20.sol\":1800:1976  function add(uint256 a, uint256 b) internal pure returns (uint256) {... */\n    tag_281:\n        /* \"bep-20.sol\":1858:1865  uint256 */\n      0x00\n        /* \"bep-20.sol\":1877:1886  uint256 c */\n      dup1\n        /* \"bep-20.sol\":1893:1894  b */\n      dup3\n        /* \"bep-20.sol\":1889:1890  a */\n      dup5\n        /* \"bep-20.sol\":1889:1894  a + b */\n      add\n        /* \"bep-20.sol\":1877:1894  uint256 c = a + b */\n      swap1\n      pop\n        /* \"bep-20.sol\":1917:1918  a */\n      dup4\n        /* \"bep-20.sol\":1912:1913  c */\n      dup2\n        /* \"bep-20.sol\":1912:1918  c >= a */\n      lt\n      iszero\n        /* \"bep-20.sol\":1904:1950  require(c >= a, \"SafeMath: addition overflow\") */\n      tag_485\n      jumpi\n      mload(0x40)\n      0x08c379a000000000000000000000000000000000000000000000000000000000\n      dup2\n      mstore\n      0x04\n      add\n      dup1\n      dup1\n      0x20\n      add\n      dup3\n      dup2\n      sub\n      dup3\n      mstore\n      0x1b\n      dup2\n      mstore\n      0x20\n      add\n      dup1\n      0x536166654d6174683a206164646974696f6e206f766572666c6f770000000000\n      dup2\n      mstore\n      pop\n      0x20\n      add\n      swap2\n      pop\n      pop\n      mload(0x40)\n      dup1\n      swap2\n      sub\n      swap1\n      revert\n    tag_485:\n        /* \"bep-20.sol\":1968:1969  c */\n      dup1\n        /* \"bep-20.sol\":1961:1969  return c */\n      swap2\n      pop\n      pop\n        /* \"bep-20.sol\":1800:1976  function add(uint256 a, uint256 b) internal pure returns (uint256) {... */\n      swap3\n      swap2\n      pop\n      pop\n      jump\t// out\n        /* \"bep-20.sol\":2592:2722  function div(uint256 a, uint256 b) internal pure returns (uint256) {... */\n    tag_282:\n        /* \"bep-20.sol\":2650:2657  uint256 */\n      0x00\n        /* \"bep-20.sol\":2676:2715  div(a, b, \"SafeMath: division by zero\") */\n      tag_487\n        /* \"bep-20.sol\":2680:2681  a */\n      dup4\n        /* \"bep-20.sol\":2683:2684  b */\n      dup4\n        /* \"bep-20.sol\":2676:2715  div(a, b, \"SafeMath: division by zero\") */\n      mload(0x40)\n      dup1\n      0x40\n      add\n      0x40\n      mstore\n      dup1\n      0x1a\n      dup2\n      mstore\n      0x20\n      add\n      0x536166654d6174683a206469766973696f6e206279207a65726f000000000000\n      dup2\n      mstore\n      pop\n        /* \"bep-20.sol\":2676:2679  div */\n      tag_488\n        /* \"bep-20.sol\":2676:2715  div(a, b, \"SafeMath: division by zero\") */\n      jump\t// in\n    tag_487:\n        /* \"bep-20.sol\":2669:2715  return div(a, b, \"SafeMath: division by zero\") */\n      swap1\n      pop\n        /* \"bep-20.sol\":2592:2722  function div(uint256 a, uint256 b) internal pure returns (uint256) {... */\n      swap3\n      swap2\n      pop\n      pop\n      jump\t// out\n        /* \"bep-20.sol\":3284:3459  function add(Role storage role, address account) internal {... */\n    tag_283:\n        /* \"bep-20.sol\":3361:3379  has(role, account) */\n      tag_490\n        /* \"bep-20.sol\":3365:3369  role */\n      dup3\n        /* \"bep-20.sol\":3371:3378  account */\n      dup3\n        /* \"bep-20.sol\":3361:3364  has */\n      tag_443\n        /* \"bep-20.sol\":3361:3379  has(role, account) */\n      jump\t// in\n    tag_490:\n        /* \"bep-20.sol\":3360:3379  !has(role, account) */\n      iszero\n        /* \"bep-20.sol\":3352:3415  require(!has(role, account), \"Roles: account already has role\") */\n      tag_491\n      jumpi\n      mload(0x40)\n      0x08c379a000000000000000000000000000000000000000000000000000000000\n      dup2\n      mstore\n      0x04\n      add\n      dup1\n      dup1\n      0x20\n      add\n      dup3\n      dup2\n      sub\n      dup3\n      mstore\n      0x1f\n      dup2\n      mstore\n      0x20\n      add\n      dup1\n      0x526f6c65733a206163636f756e7420616c72656164792068617320726f6c6500\n      dup2\n      mstore\n      pop\n      0x20\n      add\n      swap2\n      pop\n      pop\n      mload(0x40)\n      dup1\n      swap2\n      sub\n      swap1\n      revert\n    tag_491:\n        /* \"bep-20.sol\":3448:3452  true */\n      0x01\n        /* \"bep-20.sol\":3425:3429  role */\n      dup3\n        /* \"bep-20.sol\":3425:3436  role.bearer */\n      0x00\n      add\n        /* \"bep-20.sol\":3425:3445  role.bearer[account] */\n      0x00\n        /* \"bep-20.sol\":3437:3444  account */\n      dup4\n        /* \"bep-20.sol\":3425:3445  role.bearer[account] */\n      0xffffffffffffffffffffffffffffffffffffffff\n      and\n      0xffffffffffffffffffffffffffffffffffffffff\n      and\n      dup2\n      mstore\n      0x20\n      add\n      swap1\n      dup2\n      mstore\n      0x20\n      add\n      0x00\n      keccak256\n      0x00\n        /* \"bep-20.sol\":3425:3452  role.bearer[account] = true */\n      0x0100\n      exp\n      dup2\n      sload\n      dup2\n      0xff\n      mul\n      not\n      and\n      swap1\n      dup4\n      iszero\n      iszero\n      mul\n      or\n      swap1\n      sstore\n      pop\n        /* \"bep-20.sol\":3284:3459  function add(Role storage role, address account) internal {... */\n      pop\n      pop\n      jump\t// out\n        /* \"bep-20.sol\":2122:2339  function sub(... */\n    tag_314:\n        /* \"bep-20.sol\":2238:2245  uint256 */\n      0x00\n        /* \"bep-20.sol\":2270:2271  a */\n      dup4\n        /* \"bep-20.sol\":2265:2266  b */\n      dup4\n        /* \"bep-20.sol\":2265:2271  b <= a */\n      gt\n      iszero\n        /* \"bep-20.sol\":2273:2285  errorMessage */\n      dup3\n        /* \"bep-20.sol\":2257:2286  require(b <= a, errorMessage) */\n      swap1\n      tag_493\n      jumpi\n      mload(0x40)\n      0x08c379a000000000000000000000000000000000000000000000000000000000\n      dup2\n      mstore\n      0x04\n      add\n      dup1\n      dup1\n      0x20\n      add\n      dup3\n      dup2\n      sub\n      dup3\n      mstore\n      dup4\n      dup2\n      dup2\n      mload\n      dup2\n      mstore\n      0x20\n      add\n      swap2\n      pop\n      dup1\n      mload\n      swap1\n      0x20\n      add\n      swap1\n      dup1\n      dup4\n      dup4\n      0x00\n    tag_494:\n      dup4\n      dup2\n      lt\n      iszero\n      tag_496\n      jumpi\n      dup1\n      dup3\n      add\n      mload\n      dup2\n      dup5\n      add\n      mstore\n      0x20\n      dup2\n      add\n      swap1\n      pop\n      jump(tag_494)\n    tag_496:\n      pop\n      pop\n      pop\n      pop\n      swap1\n      pop\n      swap1\n      dup2\n      add\n      swap1\n      0x1f\n      and\n      dup1\n      iszero\n      tag_497\n      jumpi\n      dup1\n      dup3\n      sub\n      dup1\n      mload\n      0x01\n      dup4\n      0x20\n      sub\n      0x0100\n      exp\n      sub\n      not\n      and\n      dup2\n      mstore\n      0x20\n      add\n      swap2\n      pop\n    tag_497:\n      pop\n      swap3\n      pop\n      pop\n      pop\n      mload(0x40)\n      dup1\n      swap2\n      sub\n      swap1\n      revert\n    tag_493:\n      pop\n        /* \"bep-20.sol\":2296:2305  uint256 c */\n      0x00\n        /* \"bep-20.sol\":2312:2313  b */\n      dup4\n        /* \"bep-20.sol\":2308:2309  a */\n      dup6\n        /* \"bep-20.sol\":2308:2313  a - b */\n      sub\n        /* \"bep-20.sol\":2296:2313  uint256 c = a - b */\n      swap1\n      pop\n        /* \"bep-20.sol\":2331:2332  c */\n      dup1\n        /* \"bep-20.sol\":2324:2332  return c */\n      swap2\n      pop\n      pop\n        /* \"bep-20.sol\":2122:2339  function sub(... */\n      swap4\n      swap3\n      pop\n      pop\n      pop\n      jump\t// out\n        /* \"bep-20.sol\":13270:14174  function _transferFrom(... */\n    tag_316:\n        /* \"bep-20.sol\":13392:13396  bool */\n      0x00\n        /* \"bep-20.sol\":13417:13426  blacklist */\n      0x1c\n        /* \"bep-20.sol\":13417:13434  blacklist[sender] */\n      0x00\n        /* \"bep-20.sol\":13427:13433  sender */\n      dup6\n        /* \"bep-20.sol\":13417:13434  blacklist[sender] */\n      0xffffffffffffffffffffffffffffffffffffffff\n      and\n      0xffffffffffffffffffffffffffffffffffffffff\n      and\n      dup2\n      mstore\n      0x20\n      add\n      swap1\n      dup2\n      mstore\n      0x20\n      add\n      0x00\n      keccak256\n      0x00\n      swap1\n      sload\n      swap1\n      0x0100\n      exp\n      swap1\n      div\n      0xff\n      and\n        /* \"bep-20.sol\":13416:13434  !blacklist[sender] */\n      iszero\n        /* \"bep-20.sol\":13416:13459  !blacklist[sender] && !blacklist[recipient] */\n      dup1\n      iszero\n      tag_499\n      jumpi\n      pop\n        /* \"bep-20.sol\":13439:13448  blacklist */\n      0x1c\n        /* \"bep-20.sol\":13439:13459  blacklist[recipient] */\n      0x00\n        /* \"bep-20.sol\":13449:13458  recipient */\n      dup5\n        /* \"bep-20.sol\":13439:13459  blacklist[recipient] */\n      0xffffffffffffffffffffffffffffffffffffffff\n      and\n      0xffffffffffffffffffffffffffffffffffffffff\n      and\n      dup2\n      mstore\n      0x20\n      add\n      swap1\n      dup2\n      mstore\n      0x20\n      add\n      0x00\n      keccak256\n      0x00\n      swap1\n      sload\n      swap1\n      0x0100\n      exp\n      swap1\n      div\n      0xff\n      and\n        /* \"bep-20.sol\":13438:13459  !blacklist[recipient] */\n      iszero\n        /* \"bep-20.sol\":13416:13459  !blacklist[sender] && !blacklist[recipient] */\n    tag_499:\n        /* \"bep-20.sol\":13408:13476  require(!blacklist[sender] && !blacklist[recipient], 'in_blacklist') */\n      tag_500\n      jumpi\n      mload(0x40)\n      0x08c379a000000000000000000000000000000000000000000000000000000000\n      dup2\n      mstore\n      0x04\n      add\n      dup1\n      dup1\n      0x20\n      add\n      dup3\n      dup2\n      sub\n      dup3\n      mstore\n      0x0c\n      dup2\n      mstore\n      0x20\n      add\n      dup1\n      0x696e5f626c61636b6c6973740000000000000000000000000000000000000000\n      dup2\n      mstore\n      pop\n      0x20\n      add\n      swap2\n      pop\n      pop\n      mload(0x40)\n      dup1\n      swap2\n      sub\n      swap1\n      revert\n    tag_500:\n        /* \"bep-20.sol\":13490:13496  inSwap */\n      0x17\n      0x00\n      swap1\n      sload\n      swap1\n      0x0100\n      exp\n      swap1\n      div\n      0xff\n      and\n        /* \"bep-20.sol\":13486:13571  if (inSwap) {... */\n      iszero\n      tag_501\n      jumpi\n        /* \"bep-20.sol\":13519:13560  _basicTransfer(sender, recipient, amount) */\n      tag_502\n        /* \"bep-20.sol\":13534:13540  sender */\n      dup5\n        /* \"bep-20.sol\":13542:13551  recipient */\n      dup5\n        /* \"bep-20.sol\":13553:13559  amount */\n      dup5\n        /* \"bep-20.sol\":13519:13533  _basicTransfer */\n      tag_503\n        /* \"bep-20.sol\":13519:13560  _basicTransfer(sender, recipient, amount) */\n      jump\t// in\n    tag_502:\n        /* \"bep-20.sol\":13512:13560  return _basicTransfer(sender, recipient, amount) */\n      swap1\n      pop\n      jump(tag_498)\n        /* \"bep-20.sol\":13486:13571  if (inSwap) {... */\n    tag_501:\n        /* \"bep-20.sol\":13581:13598  uint256 gonAmount */\n      0x00\n        /* \"bep-20.sol\":13601:13629  amount.mul(_gonsPerFragment) */\n      tag_504\n        /* \"bep-20.sol\":13612:13628  _gonsPerFragment */\n      sload(0x19)\n        /* \"bep-20.sol\":13601:13607  amount */\n      dup5\n        /* \"bep-20.sol\":13601:13611  amount.mul */\n      tag_451\n      swap1\n        /* \"bep-20.sol\":13601:13629  amount.mul(_gonsPerFragment) */\n      swap2\n      swap1\n      0xffffffff\n      and\n      jump\t// in\n    tag_504:\n        /* \"bep-20.sol\":13581:13629  uint256 gonAmount = amount.mul(_gonsPerFragment) */\n      swap1\n      pop\n        /* \"bep-20.sol\":13644:13660  shouldSwapBack() */\n      tag_505\n        /* \"bep-20.sol\":13644:13658  shouldSwapBack */\n      tag_506\n        /* \"bep-20.sol\":13644:13660  shouldSwapBack() */\n      jump\t// in\n    tag_505:\n        /* \"bep-20.sol\":13640:13697  if (shouldSwapBack()) {... */\n      iszero\n      tag_507\n      jumpi\n        /* \"bep-20.sol\":13676:13686  swapBack() */\n      tag_508\n        /* \"bep-20.sol\":13676:13684  swapBack */\n      tag_509\n        /* \"bep-20.sol\":13676:13686  swapBack() */\n      jump\t// in\n    tag_508:\n        /* \"bep-20.sol\":13640:13697  if (shouldSwapBack()) {... */\n    tag_507:\n        /* \"bep-20.sol\":13730:13765  _gonBalances[sender].sub(gonAmount) */\n      tag_510\n        /* \"bep-20.sol\":13755:13764  gonAmount */\n      dup2\n        /* \"bep-20.sol\":13730:13742  _gonBalances */\n      0x1a\n        /* \"bep-20.sol\":13730:13750  _gonBalances[sender] */\n      0x00\n        /* \"bep-20.sol\":13743:13749  sender */\n      dup9\n        /* \"bep-20.sol\":13730:13750  _gonBalances[sender] */\n      0xffffffffffffffffffffffffffffffffffffffff\n      and\n      0xffffffffffffffffffffffffffffffffffffffff\n      and\n      dup2\n      mstore\n      0x20\n      add\n      swap1\n      dup2\n      mstore\n      0x20\n      add\n      0x00\n      keccak256\n      sload\n        /* \"bep-20.sol\":13730:13754  _gonBalances[sender].sub */\n      tag_322\n      swap1\n        /* \"bep-20.sol\":13730:13765  _gonBalances[sender].sub(gonAmount) */\n      swap2\n      swap1\n      0xffffffff\n      and\n      jump\t// in\n    tag_510:\n        /* \"bep-20.sol\":13707:13719  _gonBalances */\n      0x1a\n        /* \"bep-20.sol\":13707:13727  _gonBalances[sender] */\n      0x00\n        /* \"bep-20.sol\":13720:13726  sender */\n      dup8\n        /* \"bep-20.sol\":13707:13727  _gonBalances[sender] */\n      0xffffffffffffffffffffffffffffffffffffffff\n      and\n      0xffffffffffffffffffffffffffffffffffffffff\n      and\n      dup2\n      mstore\n      0x20\n      add\n      swap1\n      dup2\n      mstore\n      0x20\n      add\n      0x00\n      keccak256\n        /* \"bep-20.sol\":13707:13765  _gonBalances[sender] = _gonBalances[sender].sub(gonAmount) */\n      dup2\n      swap1\n      sstore\n      pop\n        /* \"bep-20.sol\":13776:13801  uint256 gonAmountReceived */\n      0x00\n        /* \"bep-20.sol\":13804:13836  shouldTakeFee(sender, recipient) */\n      tag_511\n        /* \"bep-20.sol\":13818:13824  sender */\n      dup7\n        /* \"bep-20.sol\":13826:13835  recipient */\n      dup7\n        /* \"bep-20.sol\":13804:13817  shouldTakeFee */\n      tag_512\n        /* \"bep-20.sol\":13804:13836  shouldTakeFee(sender, recipient) */\n      jump\t// in\n    tag_511:\n        /* \"bep-20.sol\":13804:13912  shouldTakeFee(sender, recipient)... */\n      tag_513\n      jumpi\n        /* \"bep-20.sol\":13903:13912  gonAmount */\n      dup2\n        /* \"bep-20.sol\":13804:13912  shouldTakeFee(sender, recipient)... */\n      jump(tag_514)\n    tag_513:\n        /* \"bep-20.sol\":13851:13888  takeFee(sender, recipient, gonAmount) */\n      tag_515\n        /* \"bep-20.sol\":13859:13865  sender */\n      dup7\n        /* \"bep-20.sol\":13867:13876  recipient */\n      dup7\n        /* \"bep-20.sol\":13878:13887  gonAmount */\n      dup5\n        /* \"bep-20.sol\":13851:13858  takeFee */\n      tag_516\n        /* \"bep-20.sol\":13851:13888  takeFee(sender, recipient, gonAmount) */\n      jump\t// in\n    tag_515:\n        /* \"bep-20.sol\":13804:13912  shouldTakeFee(sender, recipient)... */\n    tag_514:\n        /* \"bep-20.sol\":13776:13912  uint256 gonAmountReceived = shouldTakeFee(sender, recipient)... */\n      swap1\n      pop\n        /* \"bep-20.sol\":13948:14016  _gonBalances[recipient].add(... */\n      tag_517\n        /* \"bep-20.sol\":13989:14006  gonAmountReceived */\n      dup2\n        /* \"bep-20.sol\":13948:13960  _gonBalances */\n      0x1a\n        /* \"bep-20.sol\":13948:13971  _gonBalances[recipient] */\n      0x00\n        /* \"bep-20.sol\":13961:13970  recipient */\n      dup9\n        /* \"bep-20.sol\":13948:13971  _gonBalances[recipient] */\n      0xffffffffffffffffffffffffffffffffffffffff\n      and\n      0xffffffffffffffffffffffffffffffffffffffff\n      and\n      dup2\n      mstore\n      0x20\n      add\n      swap1\n      dup2\n      mstore\n      0x20\n      add\n      0x00\n      keccak256\n      sload\n        /* \"bep-20.sol\":13948:13975  _gonBalances[recipient].add */\n      tag_281\n      swap1\n        /* \"bep-20.sol\":13948:14016  _gonBalances[recipient].add(... */\n      swap2\n      swap1\n      0xffffffff\n      and\n      jump\t// in\n    tag_517:\n        /* \"bep-20.sol\":13922:13934  _gonBalances */\n      0x1a\n        /* \"bep-20.sol\":13922:13945  _gonBalances[recipient] */\n      0x00\n        /* \"bep-20.sol\":13935:13944  recipient */\n      dup8\n        /* \"bep-20.sol\":13922:13945  _gonBalances[recipient] */\n      0xffffffffffffffffffffffffffffffffffffffff\n      and\n      0xffffffffffffffffffffffffffffffffffffffff\n      and\n      dup2\n      mstore\n      0x20\n      add\n      swap1\n      dup2\n      mstore\n      0x20\n      add\n      0x00\n      keccak256\n        /* \"bep-20.sol\":13922:14016  _gonBalances[recipient] = _gonBalances[recipient].add(... */\n      dup2\n      swap1\n      sstore\n      pop\n        /* \"bep-20.sol\":14074:14083  recipient */\n      dup5\n        /* \"bep-20.sol\":14032:14146  Transfer(... */\n      0xffffffffffffffffffffffffffffffffffffffff\n      and\n        /* \"bep-20.sol\":14054:14060  sender */\n      dup7\n        /* \"bep-20.sol\":14032:14146  Transfer(... */\n      0xffffffffffffffffffffffffffffffffffffffff\n      and\n      0xddf252ad1be2c89b69c2b068fc378daa952ba7f163c4a11628f55a4df523b3ef\n        /* \"bep-20.sol\":14097:14136  gonAmountReceived.div(_gonsPerFragment) */\n      tag_518\n        /* \"bep-20.sol\":14119:14135  _gonsPerFragment */\n      sload(0x19)\n        /* \"bep-20.sol\":14097:14114  gonAmountReceived */\n      dup6\n        /* \"bep-20.sol\":14097:14118  gonAmountReceived.div */\n      tag_282\n      swap1\n        /* \"bep-20.sol\":14097:14136  gonAmountReceived.div(_gonsPerFragment) */\n      swap2\n      swap1\n      0xffffffff\n      and\n      jump\t// in\n    tag_518:\n        /* \"bep-20.sol\":14032:14146  Transfer(... */\n      mload(0x40)\n      dup1\n      dup3\n      dup2\n      mstore\n      0x20\n      add\n      swap2\n      pop\n      pop\n      mload(0x40)\n      dup1\n      swap2\n      sub\n      swap1\n      log3\n        /* \"bep-20.sol\":14163:14167  true */\n      0x01\n        /* \"bep-20.sol\":14156:14167  return true */\n      swap3\n      pop\n      pop\n      pop\n        /* \"bep-20.sol\":13270:14174  function _transferFrom(... */\n    tag_498:\n      swap4\n      swap3\n      pop\n      pop\n      pop\n      jump\t// out\n        /* \"bep-20.sol\":1982:2116  function sub(uint256 a, uint256 b) internal pure returns (uint256) {... */\n    tag_322:\n        /* \"bep-20.sol\":2040:2047  uint256 */\n      0x00\n        /* \"bep-20.sol\":2066:2109  sub(a, b, \"SafeMath: subtraction overflow\") */\n      tag_520\n        /* \"bep-20.sol\":2070:2071  a */\n      dup4\n        /* \"bep-20.sol\":2073:2074  b */\n      dup4\n        /* \"bep-20.sol\":2066:2109  sub(a, b, \"SafeMath: subtraction overflow\") */\n      mload(0x40)\n      dup1\n      0x40\n      add\n      0x40\n      mstore\n      dup1\n      0x1e\n      dup2\n      mstore\n      0x20\n      add\n      0x536166654d6174683a207375627472616374696f6e206f766572666c6f770000\n      dup2\n      mstore\n      pop\n        /* \"bep-20.sol\":2066:2069  sub */\n      tag_314\n        /* \"bep-20.sol\":2066:2109  sub(a, b, \"SafeMath: subtraction overflow\") */\n      jump\t// in\n    tag_520:\n        /* \"bep-20.sol\":2059:2109  return sub(a, b, \"SafeMath: subtraction overflow\") */\n      swap1\n      pop\n        /* \"bep-20.sol\":1982:2116  function sub(uint256 a, uint256 b) internal pure returns (uint256) {... */\n      swap3\n      swap2\n      pop\n      pop\n      jump\t// out\n        /* \"bep-20.sol\":4715:4842  function _removeMinter(address account) internal {... */\n    tag_336:\n        /* \"bep-20.sol\":4774:4798  _minters.remove(account) */\n      tag_522\n        /* \"bep-20.sol\":4790:4797  account */\n      dup2\n        /* \"bep-20.sol\":4774:4782  _minters */\n      0x03\n        /* \"bep-20.sol\":4774:4789  _minters.remove */\n      tag_523\n      swap1\n        /* \"bep-20.sol\":4774:4798  _minters.remove(account) */\n      swap2\n      swap1\n      0xffffffff\n      and\n      jump\t// in\n    tag_522:\n        /* \"bep-20.sol\":4827:4834  account */\n      dup1\n        /* \"bep-20.sol\":4813:4835  MinterRemoved(account) */\n      0xffffffffffffffffffffffffffffffffffffffff\n      and\n      0xe94479a9f7e1952cc78f2d6baab678adc1b772d936c6583def489e524cb66692\n      mload(0x40)\n      mload(0x40)\n      dup1\n      swap2\n      sub\n      swap1\n      log2\n        /* \"bep-20.sol\":4715:4842  function _removeMinter(address account) internal {... */\n      pop\n      jump\t// out\n        /* \"bep-20.sol\":4590:4709  function _addMinter(address account) internal {... */\n    tag_420:\n        /* \"bep-20.sol\":4646:4667  _minters.add(account) */\n      tag_525\n        /* \"bep-20.sol\":4659:4666  account */\n      dup2\n        /* \"bep-20.sol\":4646:4654  _minters */\n      0x03\n        /* \"bep-20.sol\":4646:4658  _minters.add */\n      tag_283\n      swap1\n        /* \"bep-20.sol\":4646:4667  _minters.add(account) */\n      swap2\n      swap1\n      0xffffffff\n      and\n      jump\t// in\n    tag_525:\n        /* \"bep-20.sol\":4694:4701  account */\n      dup1\n        /* \"bep-20.sol\":4682:4702  MinterAdded(account) */\n      0xffffffffffffffffffffffffffffffffffffffff\n      and\n      0x6ae172837ea30b801fbfcdd4108aa1d5bf8ff775444fd70256b44e6bf3dfc3f6\n      mload(0x40)\n      mload(0x40)\n      dup1\n      swap2\n      sub\n      swap1\n      log2\n        /* \"bep-20.sol\":4590:4709  function _addMinter(address account) internal {... */\n      pop\n      jump\t// out\n        /* \"bep-20.sol\":3803:4003  function has(Role storage role, address account) internal view returns (bool) {... */\n    tag_443:\n        /* \"bep-20.sol\":3875:3879  bool */\n      0x00\n        /* \"bep-20.sol\":3918:3919  0 */\n      dup1\n        /* \"bep-20.sol\":3899:3920  account != address(0) */\n      0xffffffffffffffffffffffffffffffffffffffff\n      and\n        /* \"bep-20.sol\":3899:3906  account */\n      dup3\n        /* \"bep-20.sol\":3899:3920  account != address(0) */\n      0xffffffffffffffffffffffffffffffffffffffff\n      and\n      eq\n      iszero\n        /* \"bep-20.sol\":3891:3959  require(account != address(0), \"Roles: account is the zero address\") */\n      tag_527\n      jumpi\n      mload(0x40)\n      0x08c379a000000000000000000000000000000000000000000000000000000000\n      dup2\n      mstore\n      0x04\n      add\n      dup1\n      dup1\n      0x20\n      add\n      dup3\n      dup2\n      sub\n      dup3\n      mstore\n      0x22\n      dup2\n      mstore\n      0x20\n      add\n      dup1\n      data_9d214fa89563f4e6456a3929327e54500ea1cde2c0ba9fb2035ec106190d682f\n      0x22\n      swap2\n      codecopy\n      0x40\n      add\n      swap2\n      pop\n      pop\n      mload(0x40)\n      dup1\n      swap2\n      sub\n      swap1\n      revert\n    tag_527:\n        /* \"bep-20.sol\":3976:3980  role */\n      dup3\n        /* \"bep-20.sol\":3976:3987  role.bearer */\n      0x00\n      add\n        /* \"bep-20.sol\":3976:3996  role.bearer[account] */\n      0x00\n        /* \"bep-20.sol\":3988:3995  account */\n      dup4\n        /* \"bep-20.sol\":3976:3996  role.bearer[account] */\n      0xffffffffffffffffffffffffffffffffffffffff\n      and\n      0xffffffffffffffffffffffffffffffffffffffff\n      and\n      dup2\n      mstore\n      0x20\n      add\n      swap1\n      dup2\n      mstore\n      0x20\n      add\n      0x00\n      keccak256\n      0x00\n      swap1\n      sload\n      swap1\n      0x0100\n      exp\n      swap1\n      div\n      0xff\n      and\n        /* \"bep-20.sol\":3969:3996  return role.bearer[account] */\n      swap1\n      pop\n        /* \"bep-20.sol\":3803:4003  function has(Role storage role, address account) internal view returns (bool) {... */\n      swap3\n      swap2\n      pop\n      pop\n      jump\t// out\n        /* \"bep-20.sol\":2345:2586  function mul(uint256 a, uint256 b) internal pure returns (uint256) {... */\n    tag_451:\n        /* \"bep-20.sol\":2403:2410  uint256 */\n      0x00\n        /* \"bep-20.sol\":2431:2432  0 */\n      dup1\n        /* \"bep-20.sol\":2426:2427  a */\n      dup4\n        /* \"bep-20.sol\":2426:2432  a == 0 */\n      eq\n        /* \"bep-20.sol\":2422:2467  if (a == 0) {... */\n      iszero\n      tag_529\n      jumpi\n        /* \"bep-20.sol\":2455:2456  0 */\n      0x00\n        /* \"bep-20.sol\":2448:2456  return 0 */\n      swap1\n      pop\n      jump(tag_528)\n        /* \"bep-20.sol\":2422:2467  if (a == 0) {... */\n    tag_529:\n        /* \"bep-20.sol\":2477:2486  uint256 c */\n      0x00\n        /* \"bep-20.sol\":2493:2494  b */\n      dup3\n        /* \"bep-20.sol\":2489:2490  a */\n      dup5\n        /* \"bep-20.sol\":2489:2494  a * b */\n      mul\n        /* \"bep-20.sol\":2477:2494  uint256 c = a * b */\n      swap1\n      pop\n        /* \"bep-20.sol\":2521:2522  b */\n      dup3\n        /* \"bep-20.sol\":2516:2517  a */\n      dup5\n        /* \"bep-20.sol\":2512:2513  c */\n      dup3\n        /* \"bep-20.sol\":2512:2517  c / a */\n      dup2\n      tag_530\n      jumpi\n      invalid\n    tag_530:\n      div\n        /* \"bep-20.sol\":2512:2522  c / a == b */\n      eq\n        /* \"bep-20.sol\":2504:2560  require(c / a == b, \"SafeMath: multiplication overflow\") */\n      tag_531\n      jumpi\n      mload(0x40)\n      0x08c379a000000000000000000000000000000000000000000000000000000000\n      dup2\n      mstore\n      0x04\n      add\n      dup1\n      dup1\n      0x20\n      add\n      dup3\n      dup2\n      sub\n      dup3\n      mstore\n      0x21\n      dup2\n      mstore\n      0x20\n      add\n      dup1\n      data_9113bb53c2876a3805b2c9242029423fc540a728243ce887ab24c82cf119fba3\n      0x21\n      swap2\n      codecopy\n      0x40\n      add\n      swap2\n      pop\n      pop\n      mload(0x40)\n      dup1\n      swap2\n      sub\n      swap1\n      revert\n    tag_531:\n        /* \"bep-20.sol\":2578:2579  c */\n      dup1\n        /* \"bep-20.sol\":2571:2579  return c */\n      swap2\n      pop\n      pop\n        /* \"bep-20.sol\":2345:2586  function mul(uint256 a, uint256 b) internal pure returns (uint256) {... */\n    tag_528:\n      swap3\n      swap2\n      pop\n      pop\n      jump\t// out\n        /* \"bep-20.sol\":7849:8032  function _transferOwnership(address newOwner) internal {... */\n    tag_483:\n        /* \"bep-20.sol\":7942:7943  0 */\n      0x00\n        /* \"bep-20.sol\":7922:7944  newOwner != address(0) */\n      0xffffffffffffffffffffffffffffffffffffffff\n      and\n        /* \"bep-20.sol\":7922:7930  newOwner */\n      dup2\n        /* \"bep-20.sol\":7922:7944  newOwner != address(0) */\n      0xffffffffffffffffffffffffffffffffffffffff\n      and\n      eq\n      iszero\n        /* \"bep-20.sol\":7914:7945  require(newOwner != address(0)) */\n      tag_533\n      jumpi\n      0x00\n      dup1\n      revert\n    tag_533:\n        /* \"bep-20.sol\":7989:7997  newOwner */\n      dup1\n        /* \"bep-20.sol\":7960:7998  OwnershipTransferred(_owner, newOwner) */\n      0xffffffffffffffffffffffffffffffffffffffff\n      and\n        /* \"bep-20.sol\":7981:7987  _owner */\n      0x02\n      0x01\n      swap1\n      sload\n      swap1\n      0x0100\n      exp\n      swap1\n      div\n      0xffffffffffffffffffffffffffffffffffffffff\n      and\n        /* \"bep-20.sol\":7960:7998  OwnershipTransferred(_owner, newOwner) */\n      0xffffffffffffffffffffffffffffffffffffffff\n      and\n      0x8be0079c531659141344cd1fd0a4f28419497f9722a3daafe3b4186f6b6457e0\n      mload(0x40)\n      mload(0x40)\n      dup1\n      swap2\n      sub\n      swap1\n      log3\n        /* \"bep-20.sol\":8017:8025  newOwner */\n      dup1\n        /* \"bep-20.sol\":8008:8014  _owner */\n      0x02\n      0x01\n        /* \"bep-20.sol\":8008:8025  _owner = newOwner */\n      0x0100\n      exp\n      dup2\n      sload\n      dup2\n      0xffffffffffffffffffffffffffffffffffffffff\n      mul\n      not\n      and\n      swap1\n      dup4\n      0xffffffffffffffffffffffffffffffffffffffff\n      and\n      mul\n      or\n      swap1\n      sstore\n      pop\n        /* \"bep-20.sol\":7849:8032  function _transferOwnership(address newOwner) internal {... */\n      pop\n      jump\t// out\n        /* \"bep-20.sol\":2728:2944  function div(... */\n    tag_488:\n        /* \"bep-20.sol\":2844:2851  uint256 */\n      0x00\n        /* \"bep-20.sol\":2875:2876  0 */\n      dup1\n        /* \"bep-20.sol\":2871:2872  b */\n      dup4\n        /* \"bep-20.sol\":2871:2876  b > 0 */\n      gt\n        /* \"bep-20.sol\":2878:2890  errorMessage */\n      dup3\n        /* \"bep-20.sol\":2863:2891  require(b > 0, errorMessage) */\n      swap1\n      tag_535\n      jumpi\n      mload(0x40)\n      0x08c379a000000000000000000000000000000000000000000000000000000000\n      dup2\n      mstore\n      0x04\n      add\n      dup1\n      dup1\n      0x20\n      add\n      dup3\n      dup2\n      sub\n      dup3\n      mstore\n      dup4\n      dup2\n      dup2\n      mload\n      dup2\n      mstore\n      0x20\n      add\n      swap2\n      pop\n      dup1\n      mload\n      swap1\n      0x20\n      add\n      swap1\n      dup1\n      dup4\n      dup4\n      0x00\n    tag_536:\n      dup4\n      dup2\n      lt\n      iszero\n      tag_538\n      jumpi\n      dup1\n      dup3\n      add\n      mload\n      dup2\n      dup5\n      add\n      mstore\n      0x20\n      dup2\n      add\n      swap1\n      pop\n      jump(tag_536)\n    tag_538:\n      pop\n      pop\n      pop\n      pop\n      swap1\n      pop\n      swap1\n      dup2\n      add\n      swap1\n      0x1f\n      and\n      dup1\n      iszero\n      tag_539\n      jumpi\n      dup1\n      dup3\n      sub\n      dup1\n      mload\n      0x01\n      dup4\n      0x20\n      sub\n      0x0100\n      exp\n      sub\n      not\n      and\n      dup2\n      mstore\n      0x20\n      add\n      swap2\n      pop\n    tag_539:\n      pop\n      swap3\n      pop\n      pop\n      pop\n      mload(0x40)\n      dup1\n      swap2\n      sub\n      swap1\n      revert\n    tag_535:\n      pop\n        /* \"bep-20.sol\":2901:2910  uint256 c */\n      0x00\n        /* \"bep-20.sol\":2917:2918  b */\n      dup4\n        /* \"bep-20.sol\":2913:2914  a */\n      dup6\n        /* \"bep-20.sol\":2913:2918  a / b */\n      dup2\n      tag_540\n      jumpi\n      invalid\n    tag_540:\n      div\n        /* \"bep-20.sol\":2901:2918  uint256 c = a / b */\n      swap1\n      pop\n        /* \"bep-20.sol\":2936:2937  c */\n      dup1\n        /* \"bep-20.sol\":2929:2937  return c */\n      swap2\n      pop\n      pop\n        /* \"bep-20.sol\":2728:2944  function div(... */\n      swap4\n      swap3\n      pop\n      pop\n      pop\n      jump\t// out\n        /* \"bep-20.sol\":12934:13264  function _basicTransfer(... */\n    tag_503:\n        /* \"bep-20.sol\":13048:13052  bool */\n      0x00\n        /* \"bep-20.sol\":13064:13081  uint256 gonAmount */\n      dup1\n        /* \"bep-20.sol\":13084:13112  amount.mul(_gonsPerFragment) */\n      tag_542\n        /* \"bep-20.sol\":13095:13111  _gonsPerFragment */\n      sload(0x19)\n        /* \"bep-20.sol\":13084:13090  amount */\n      dup5\n        /* \"bep-20.sol\":13084:13094  amount.mul */\n      tag_451\n      swap1\n        /* \"bep-20.sol\":13084:13112  amount.mul(_gonsPerFragment) */\n      swap2\n      swap1\n      0xffffffff\n      and\n      jump\t// in\n    tag_542:\n        /* \"bep-20.sol\":13064:13112  uint256 gonAmount = amount.mul(_gonsPerFragment) */\n      swap1\n      pop\n        /* \"bep-20.sol\":13143:13176  _gonBalances[from].sub(gonAmount) */\n      tag_543\n        /* \"bep-20.sol\":13166:13175  gonAmount */\n      dup2\n        /* \"bep-20.sol\":13143:13155  _gonBalances */\n      0x1a\n        /* \"bep-20.sol\":13143:13161  _gonBalances[from] */\n      0x00\n        /* \"bep-20.sol\":13156:13160  from */\n      dup9\n        /* \"bep-20.sol\":13143:13161  _gonBalances[from] */\n      0xffffffffffffffffffffffffffffffffffffffff\n      and\n      0xffffffffffffffffffffffffffffffffffffffff\n      and\n      dup2\n      mstore\n      0x20\n      add\n      swap1\n      dup2\n      mstore\n      0x20\n      add\n      0x00\n      keccak256\n      sload\n        /* \"bep-20.sol\":13143:13165  _gonBalances[from].sub */\n      tag_322\n      swap1\n        /* \"bep-20.sol\":13143:13176  _gonBalances[from].sub(gonAmount) */\n      swap2\n      swap1\n      0xffffffff\n      and\n      jump\t// in\n    tag_543:\n        /* \"bep-20.sol\":13122:13134  _gonBalances */\n      0x1a\n        /* \"bep-20.sol\":13122:13140  _gonBalances[from] */\n      0x00\n        /* \"bep-20.sol\":13135:13139  from */\n      dup8\n        /* \"bep-20.sol\":13122:13140  _gonBalances[from] */\n      0xffffffffffffffffffffffffffffffffffffffff\n      and\n      0xffffffffffffffffffffffffffffffffffffffff\n      and\n      dup2\n      mstore\n      0x20\n      add\n      swap1\n      dup2\n      mstore\n      0x20\n      add\n      0x00\n      keccak256\n        /* \"bep-20.sol\":13122:13176  _gonBalances[from] = _gonBalances[from].sub(gonAmount) */\n      dup2\n      swap1\n      sstore\n      pop\n        /* \"bep-20.sol\":13205:13236  _gonBalances[to].add(gonAmount) */\n      tag_544\n        /* \"bep-20.sol\":13226:13235  gonAmount */\n      dup2\n        /* \"bep-20.sol\":13205:13217  _gonBalances */\n      0x1a\n        /* \"bep-20.sol\":13205:13221  _gonBalances[to] */\n      0x00\n        /* \"bep-20.sol\":13218:13220  to */\n      dup8\n        /* \"bep-20.sol\":13205:13221  _gonBalances[to] */\n      0xffffffffffffffffffffffffffffffffffffffff\n      and\n      0xffffffffffffffffffffffffffffffffffffffff\n      and\n      dup2\n      mstore\n      0x20\n      add\n      swap1\n      dup2\n      mstore\n      0x20\n      add\n      0x00\n      keccak256\n      sload\n        /* \"bep-20.sol\":13205:13225  _gonBalances[to].add */\n      tag_281\n      swap1\n        /* \"bep-20.sol\":13205:13236  _gonBalances[to].add(gonAmount) */\n      swap2\n      swap1\n      0xffffffff\n      and\n      jump\t// in\n    tag_544:\n        /* \"bep-20.sol\":13186:13198  _gonBalances */\n      0x1a\n        /* \"bep-20.sol\":13186:13202  _gonBalances[to] */\n      0x00\n        /* \"bep-20.sol\":13199:13201  to */\n      dup7\n        /* \"bep-20.sol\":13186:13202  _gonBalances[to] */\n      0xffffffffffffffffffffffffffffffffffffffff\n      and\n      0xffffffffffffffffffffffffffffffffffffffff\n      and\n      dup2\n      mstore\n      0x20\n      add\n      swap1\n      dup2\n      mstore\n      0x20\n      add\n      0x00\n      keccak256\n        /* \"bep-20.sol\":13186:13236  _gonBalances[to] = _gonBalances[to].add(gonAmount) */\n      dup2\n      swap1\n      sstore\n      pop\n        /* \"bep-20.sol\":13253:13257  true */\n      0x01\n        /* \"bep-20.sol\":13246:13257  return true */\n      swap2\n      pop\n      pop\n        /* \"bep-20.sol\":12934:13264  function _basicTransfer(... */\n      swap4\n      swap3\n      pop\n      pop\n      pop\n      jump\t// out\n        /* \"bep-20.sol\":19717:19939  function shouldSwapBack() internal view returns (bool) {... */\n    tag_506:\n        /* \"bep-20.sol\":19766:19770  bool */\n      0x00\n        /* \"bep-20.sol\":19815:19819  pair */\n      0x15\n      0x00\n      swap1\n      sload\n      swap1\n      0x0100\n      exp\n      swap1\n      div\n      0xffffffffffffffffffffffffffffffffffffffff\n      and\n        /* \"bep-20.sol\":19801:19819  msg.sender != pair */\n      0xffffffffffffffffffffffffffffffffffffffff\n      and\n        /* \"bep-20.sol\":19801:19811  msg.sender */\n      caller\n        /* \"bep-20.sol\":19801:19819  msg.sender != pair */\n      0xffffffffffffffffffffffffffffffffffffffff\n      and\n      eq\n      iszero\n        /* \"bep-20.sol\":19801:19842  msg.sender != pair &&... */\n      dup1\n      iszero\n      tag_546\n      jumpi\n      pop\n        /* \"bep-20.sol\":19836:19842  inSwap */\n      0x17\n      0x00\n      swap1\n      sload\n      swap1\n      0x0100\n      exp\n      swap1\n      div\n      0xff\n      and\n        /* \"bep-20.sol\":19835:19842  !inSwap */\n      iszero\n        /* \"bep-20.sol\":19801:19842  msg.sender != pair &&... */\n    tag_546:\n        /* \"bep-20.sol\":19801:19869  msg.sender != pair &&... */\n      dup1\n      iszero\n      tag_547\n      jumpi\n      pop\n        /* \"bep-20.sol\":19858:19869  swapEnabled */\n      0x15\n      0x14\n      swap1\n      sload\n      swap1\n      0x0100\n      exp\n      swap1\n      div\n      0xff\n      and\n        /* \"bep-20.sol\":19801:19869  msg.sender != pair &&... */\n    tag_547:\n        /* \"bep-20.sol\":19801:19932  msg.sender != pair &&... */\n      dup1\n      iszero\n      tag_548\n      jumpi\n      pop\n        /* \"bep-20.sol\":19916:19932  gonSwapThreshold */\n      sload(0x16)\n        /* \"bep-20.sol\":19885:19897  _gonBalances */\n      0x1a\n        /* \"bep-20.sol\":19885:19912  _gonBalances[address(this)] */\n      0x00\n        /* \"bep-20.sol\":19906:19910  this */\n      address\n        /* \"bep-20.sol\":19885:19912  _gonBalances[address(this)] */\n      0xffffffffffffffffffffffffffffffffffffffff\n      and\n      0xffffffffffffffffffffffffffffffffffffffff\n      and\n      dup2\n      mstore\n      0x20\n      add\n      swap1\n      dup2\n      mstore\n      0x20\n      add\n      0x00\n      keccak256\n      sload\n        /* \"bep-20.sol\":19885:19932  _gonBalances[address(this)] >= gonSwapThreshold */\n      lt\n      iszero\n        /* \"bep-20.sol\":19801:19932  msg.sender != pair &&... */\n    tag_548:\n        /* \"bep-20.sol\":19782:19932  return... */\n      swap1\n      pop\n        /* \"bep-20.sol\":19717:19939  function shouldSwapBack() internal view returns (bool) {... */\n      swap1\n      jump\t// out\n        /* \"bep-20.sol\":14630:16613  function swapBack() internal swapping {... */\n    tag_509:\n        /* \"bep-20.sol\":9698:9702  true */\n      0x01\n        /* \"bep-20.sol\":9689:9695  inSwap */\n      0x17\n      0x00\n        /* \"bep-20.sol\":9689:9702  inSwap = true */\n      0x0100\n      exp\n      dup2\n      sload\n      dup2\n      0xff\n      mul\n      not\n      and\n      swap1\n      dup4\n      iszero\n      iszero\n      mul\n      or\n      swap1\n      sstore\n      pop\n        /* \"bep-20.sol\":14678:14705  uint256 dynamicLiquidityFee */\n      0x00\n        /* \"bep-20.sol\":14708:14802  isOverLiquified(... */\n      tag_551\n        /* \"bep-20.sol\":14737:14752  targetLiquidity */\n      sload(0x12)\n        /* \"bep-20.sol\":14766:14792  targetLiquidityDenominator */\n      sload(0x13)\n        /* \"bep-20.sol\":14708:14723  isOverLiquified */\n      tag_92\n        /* \"bep-20.sol\":14708:14802  isOverLiquified(... */\n      jump\t// in\n    tag_551:\n        /* \"bep-20.sol\":14708:14845  isOverLiquified(... */\n      tag_552\n      jumpi\n        /* \"bep-20.sol\":14833:14845  liquidityFee */\n      sload(0x07)\n        /* \"bep-20.sol\":14708:14845  isOverLiquified(... */\n      jump(tag_553)\n    tag_552:\n        /* \"bep-20.sol\":14817:14818  0 */\n      0x00\n        /* \"bep-20.sol\":14708:14845  isOverLiquified(... */\n    tag_553:\n        /* \"bep-20.sol\":14678:14845  uint256 dynamicLiquidityFee = isOverLiquified(... */\n      swap1\n      pop\n        /* \"bep-20.sol\":14855:14883  uint256 contractTokenBalance */\n      0x00\n        /* \"bep-20.sol\":14886:14957  _gonBalances[address(this)].div(... */\n      tag_554\n        /* \"bep-20.sol\":14931:14947  _gonsPerFragment */\n      sload(0x19)\n        /* \"bep-20.sol\":14886:14898  _gonBalances */\n      0x1a\n        /* \"bep-20.sol\":14886:14913  _gonBalances[address(this)] */\n      0x00\n        /* \"bep-20.sol\":14907:14911  this */\n      address\n        /* \"bep-20.sol\":14886:14913  _gonBalances[address(this)] */\n      0xffffffffffffffffffffffffffffffffffffffff\n      and\n      0xffffffffffffffffffffffffffffffffffffffff\n      and\n      dup2\n      mstore\n      0x20\n      add\n      swap1\n      dup2\n      mstore\n      0x20\n      add\n      0x00\n      keccak256\n      sload\n        /* \"bep-20.sol\":14886:14917  _gonBalances[address(this)].div */\n      tag_282\n      swap1\n        /* \"bep-20.sol\":14886:14957  _gonBalances[address(this)].div(... */\n      swap2\n      swap1\n      0xffffffff\n      and\n      jump\t// in\n    tag_554:\n        /* \"bep-20.sol\":14855:14957  uint256 contractTokenBalance = _gonBalances[address(this)].div(... */\n      swap1\n      pop\n        /* \"bep-20.sol\":14967:14990  uint256 amountToLiquify */\n      0x00\n        /* \"bep-20.sol\":14993:15098  contractTokenBalance... */\n      tag_555\n        /* \"bep-20.sol\":15096:15097  2 */\n      0x02\n        /* \"bep-20.sol\":14993:15078  contractTokenBalance... */\n      tag_556\n        /* \"bep-20.sol\":15069:15077  totalFee */\n      sload(0x0b)\n        /* \"bep-20.sol\":14993:15051  contractTokenBalance... */\n      tag_557\n        /* \"bep-20.sol\":15031:15050  dynamicLiquidityFee */\n      dup8\n        /* \"bep-20.sol\":14993:15013  contractTokenBalance */\n      dup8\n        /* \"bep-20.sol\":14993:15030  contractTokenBalance... */\n      tag_451\n      swap1\n        /* \"bep-20.sol\":14993:15051  contractTokenBalance... */\n      swap2\n      swap1\n      0xffffffff\n      and\n      jump\t// in\n    tag_557:\n        /* \"bep-20.sol\":14993:15068  contractTokenBalance... */\n      tag_282\n      swap1\n        /* \"bep-20.sol\":14993:15078  contractTokenBalance... */\n      swap2\n      swap1\n      0xffffffff\n      and\n      jump\t// in\n    tag_556:\n        /* \"bep-20.sol\":14993:15095  contractTokenBalance... */\n      tag_282\n      swap1\n        /* \"bep-20.sol\":14993:15098  contractTokenBalance... */\n      swap2\n      swap1\n      0xffffffff\n      and\n      jump\t// in\n    tag_555:\n        /* \"bep-20.sol\":14967:15098  uint256 amountToLiquify = contractTokenBalance... */\n      swap1\n      pop\n        /* \"bep-20.sol\":15108:15128  uint256 amountToSwap */\n      0x00\n        /* \"bep-20.sol\":15131:15172  contractTokenBalance.sub(amountToLiquify) */\n      tag_558\n        /* \"bep-20.sol\":15156:15171  amountToLiquify */\n      dup3\n        /* \"bep-20.sol\":15131:15151  contractTokenBalance */\n      dup5\n        /* \"bep-20.sol\":15131:15155  contractTokenBalance.sub */\n      tag_322\n      swap1\n        /* \"bep-20.sol\":15131:15172  contractTokenBalance.sub(amountToLiquify) */\n      swap2\n      swap1\n      0xffffffff\n      and\n      jump\t// in\n    tag_558:\n        /* \"bep-20.sol\":15108:15172  uint256 amountToSwap = contractTokenBalance.sub(amountToLiquify) */\n      swap1\n      pop\n        /* \"bep-20.sol\":15183:15204  address[] memory path */\n      0x00\n        /* \"bep-20.sol\":15221:15222  2 */\n      0x02\n        /* \"bep-20.sol\":15207:15223  new address[](2) */\n      0xffffffffffffffff\n      dup2\n      gt\n      dup1\n      iszero\n      tag_559\n      jumpi\n      0x00\n      dup1\n      revert\n    tag_559:\n      pop\n      mload(0x40)\n      swap1\n      dup1\n      dup3\n      mstore\n      dup1\n      0x20\n      mul\n      0x20\n      add\n      dup3\n      add\n      0x40\n      mstore\n      dup1\n      iszero\n      tag_560\n      jumpi\n      dup2\n      0x20\n      add\n      0x20\n      dup3\n      mul\n      dup1\n      calldatasize\n      dup4\n      calldatacopy\n      dup1\n      dup3\n      add\n      swap2\n      pop\n      pop\n      swap1\n      pop\n    tag_560:\n      pop\n        /* \"bep-20.sol\":15183:15223  address[] memory path = new address[](2) */\n      swap1\n      pop\n        /* \"bep-20.sol\":15251:15255  this */\n      address\n        /* \"bep-20.sol\":15233:15237  path */\n      dup2\n        /* \"bep-20.sol\":15238:15239  0 */\n      0x00\n        /* \"bep-20.sol\":15233:15240  path[0] */\n      dup2\n      mload\n      dup2\n      lt\n      tag_561\n      jumpi\n      invalid\n    tag_561:\n      0x20\n      mul\n      0x20\n      add\n      add\n        /* \"bep-20.sol\":15233:15256  path[0] = address(this) */\n      swap1\n      0xffffffffffffffffffffffffffffffffffffffff\n      and\n      swap1\n      dup2\n      0xffffffffffffffffffffffffffffffffffffffff\n      and\n      dup2\n      mstore\n      pop\n      pop\n        /* \"bep-20.sol\":15276:15282  router */\n      0x14\n      0x00\n      swap1\n      sload\n      swap1\n      0x0100\n      exp\n      swap1\n      div\n      0xffffffffffffffffffffffffffffffffffffffff\n      and\n        /* \"bep-20.sol\":15276:15287  router.WETH */\n      0xffffffffffffffffffffffffffffffffffffffff\n      and\n      0xad5c4648\n        /* \"bep-20.sol\":15276:15289  router.WETH() */\n      mload(0x40)\n      dup2\n      0xffffffff\n      and\n      0xe0\n      shl\n      dup2\n      mstore\n      0x04\n      add\n      0x20\n      mload(0x40)\n      dup1\n      dup4\n      sub\n      dup2\n      dup7\n      dup1\n      extcodesize\n      iszero\n      dup1\n      iszero\n      tag_562\n      jumpi\n      0x00\n      dup1\n      revert\n    tag_562:\n      pop\n      gas\n      staticcall\n      iszero\n      dup1\n      iszero\n      tag_564\n      jumpi\n      returndatasize\n      0x00\n      dup1\n      returndatacopy\n      revert(0x00, returndatasize)\n    tag_564:\n      pop\n      pop\n      pop\n      pop\n      mload(0x40)\n      returndatasize\n      0x20\n      dup2\n      lt\n      iszero\n      tag_565\n      jumpi\n      0x00\n      dup1\n      revert\n    tag_565:\n      dup2\n      add\n      swap1\n      dup1\n      dup1\n      mload\n      swap1\n      0x20\n      add\n      swap1\n      swap3\n      swap2\n      swap1\n      pop\n      pop\n      pop\n        /* \"bep-20.sol\":15266:15270  path */\n      dup2\n        /* \"bep-20.sol\":15271:15272  1 */\n      0x01\n        /* \"bep-20.sol\":15266:15273  path[1] */\n      dup2\n      mload\n      dup2\n      lt\n      tag_566\n      jumpi\n      invalid\n    tag_566:\n      0x20\n      mul\n      0x20\n      add\n      add\n        /* \"bep-20.sol\":15266:15289  path[1] = router.WETH() */\n      swap1\n      0xffffffffffffffffffffffffffffffffffffffff\n      and\n      swap1\n      dup2\n      0xffffffffffffffffffffffffffffffffffffffff\n      and\n      dup2\n      mstore\n      pop\n      pop\n        /* \"bep-20.sol\":15300:15321  uint256 balanceBefore */\n      0x00\n        /* \"bep-20.sol\":15324:15345  address(this).balance */\n      selfbalance\n        /* \"bep-20.sol\":15300:15345  uint256 balanceBefore = address(this).balance */\n      swap1\n      pop\n        /* \"bep-20.sol\":15356:15362  router */\n      0x14\n      0x00\n      swap1\n      sload\n      swap1\n      0x0100\n      exp\n      swap1\n      div\n      0xffffffffffffffffffffffffffffffffffffffff\n      and\n        /* \"bep-20.sol\":15356:15413  router.swapExactTokensForETHSupportingFeeOnTransferTokens */\n      0xffffffffffffffffffffffffffffffffffffffff\n      and\n      0x791ac947\n        /* \"bep-20.sol\":15427:15439  amountToSwap */\n      dup5\n        /* \"bep-20.sol\":15453:15454  0 */\n      0x00\n        /* \"bep-20.sol\":15468:15472  path */\n      dup6\n        /* \"bep-20.sol\":15494:15498  this */\n      address\n        /* \"bep-20.sol\":15513:15528  block.timestamp */\n      timestamp\n        /* \"bep-20.sol\":15356:15538  router.swapExactTokensForETHSupportingFeeOnTransferTokens(... */\n      mload(0x40)\n      dup7\n      0xffffffff\n      and\n      0xe0\n      shl\n      dup2\n      mstore\n      0x04\n      add\n      dup1\n      dup7\n      dup2\n      mstore\n      0x20\n      add\n      dup6\n      dup2\n      mstore\n      0x20\n      add\n      dup1\n      0x20\n      add\n      dup5\n      0xffffffffffffffffffffffffffffffffffffffff\n      and\n      dup2\n      mstore\n      0x20\n      add\n      dup4\n      dup2\n      mstore\n      0x20\n      add\n      dup3\n      dup2\n      sub\n      dup3\n      mstore\n      dup6\n      dup2\n      dup2\n      mload\n      dup2\n      mstore\n      0x20\n      add\n      swap2\n      pop\n      dup1\n      mload\n      swap1\n      0x20\n      add\n      swap1\n      0x20\n      mul\n      dup1\n      dup4\n      dup4\n      0x00\n    tag_567:\n      dup4\n      dup2\n      lt\n      iszero\n      tag_569\n      jumpi\n      dup1\n      dup3\n      add\n      mload\n      dup2\n      dup5\n      add\n      mstore\n      0x20\n      dup2\n      add\n      swap1\n      pop\n      jump(tag_567)\n    tag_569:\n      pop\n      pop\n      pop\n      pop\n      swap1\n      pop\n      add\n      swap7\n      pop\n      pop\n      pop\n      pop\n      pop\n      pop\n      pop\n      0x00\n      mload(0x40)\n      dup1\n      dup4\n      sub\n      dup2\n      0x00\n      dup8\n      dup1\n      extcodesize\n      iszero\n      dup1\n      iszero\n      tag_570\n      jumpi\n      0x00\n      dup1\n      revert\n    tag_570:\n      pop\n      gas\n      call\n      iszero\n      dup1\n      iszero\n      tag_572\n      jumpi\n      returndatasize\n      0x00\n      dup1\n      returndatacopy\n      revert(0x00, returndatasize)\n    tag_572:\n      pop\n      pop\n      pop\n      pop\n        /* \"bep-20.sol\":15549:15566  uint256 amountETH */\n      0x00\n        /* \"bep-20.sol\":15569:15609  address(this).balance.sub(balanceBefore) */\n      tag_573\n        /* \"bep-20.sol\":15595:15608  balanceBefore */\n      dup3\n        /* \"bep-20.sol\":15569:15590  address(this).balance */\n      selfbalance\n        /* \"bep-20.sol\":15569:15594  address(this).balance.sub */\n      tag_322\n      swap1\n        /* \"bep-20.sol\":15569:15609  address(this).balance.sub(balanceBefore) */\n      swap2\n      swap1\n      0xffffffff\n      and\n      jump\t// in\n    tag_573:\n        /* \"bep-20.sol\":15549:15609  uint256 amountETH = address(this).balance.sub(balanceBefore) */\n      swap1\n      pop\n        /* \"bep-20.sol\":15620:15639  uint256 totalETHFee */\n      0x00\n        /* \"bep-20.sol\":15642:15682  totalFee.sub(dynamicLiquidityFee.div(2)) */\n      tag_574\n        /* \"bep-20.sol\":15655:15681  dynamicLiquidityFee.div(2) */\n      tag_575\n        /* \"bep-20.sol\":15679:15680  2 */\n      0x02\n        /* \"bep-20.sol\":15655:15674  dynamicLiquidityFee */\n      dup11\n        /* \"bep-20.sol\":15655:15678  dynamicLiquidityFee.div */\n      tag_282\n      swap1\n        /* \"bep-20.sol\":15655:15681  dynamicLiquidityFee.div(2) */\n      swap2\n      swap1\n      0xffffffff\n      and\n      jump\t// in\n    tag_575:\n        /* \"bep-20.sol\":15642:15650  totalFee */\n      sload(0x0b)\n        /* \"bep-20.sol\":15642:15654  totalFee.sub */\n      tag_322\n      swap1\n        /* \"bep-20.sol\":15642:15682  totalFee.sub(dynamicLiquidityFee.div(2)) */\n      swap2\n      swap1\n      0xffffffff\n      and\n      jump\t// in\n    tag_574:\n        /* \"bep-20.sol\":15620:15682  uint256 totalETHFee = totalFee.sub(dynamicLiquidityFee.div(2)) */\n      swap1\n      pop\n        /* \"bep-20.sol\":15693:15719  uint256 amountETHLiquidity */\n      0x00\n        /* \"bep-20.sol\":15722:15819  amountETH... */\n      tag_576\n        /* \"bep-20.sol\":15817:15818  2 */\n      0x02\n        /* \"bep-20.sol\":15722:15799  amountETH... */\n      tag_577\n        /* \"bep-20.sol\":15787:15798  totalETHFee */\n      dup5\n        /* \"bep-20.sol\":15722:15769  amountETH... */\n      tag_578\n        /* \"bep-20.sol\":15749:15768  dynamicLiquidityFee */\n      dup14\n        /* \"bep-20.sol\":15722:15731  amountETH */\n      dup9\n        /* \"bep-20.sol\":15722:15748  amountETH... */\n      tag_451\n      swap1\n        /* \"bep-20.sol\":15722:15769  amountETH... */\n      swap2\n      swap1\n      0xffffffff\n      and\n      jump\t// in\n    tag_578:\n        /* \"bep-20.sol\":15722:15786  amountETH... */\n      tag_282\n      swap1\n        /* \"bep-20.sol\":15722:15799  amountETH... */\n      swap2\n      swap1\n      0xffffffff\n      and\n      jump\t// in\n    tag_577:\n        /* \"bep-20.sol\":15722:15816  amountETH... */\n      tag_282\n      swap1\n        /* \"bep-20.sol\":15722:15819  amountETH... */\n      swap2\n      swap1\n      0xffffffff\n      and\n      jump\t// in\n    tag_576:\n        /* \"bep-20.sol\":15693:15819  uint256 amountETHLiquidity = amountETH... */\n      swap1\n      pop\n        /* \"bep-20.sol\":15829:15859  uint256 amountETHRiskFreeValue */\n      0x00\n        /* \"bep-20.sol\":15862:15907  amountETH.mul(RiskFreeValue).div(totalETHFee) */\n      tag_579\n        /* \"bep-20.sol\":15895:15906  totalETHFee */\n      dup4\n        /* \"bep-20.sol\":15862:15890  amountETH.mul(RiskFreeValue) */\n      tag_580\n        /* \"bep-20.sol\":15876:15889  RiskFreeValue */\n      sload(0x09)\n        /* \"bep-20.sol\":15862:15871  amountETH */\n      dup8\n        /* \"bep-20.sol\":15862:15875  amountETH.mul */\n      tag_451\n      swap1\n        /* \"bep-20.sol\":15862:15890  amountETH.mul(RiskFreeValue) */\n      swap2\n      swap1\n      0xffffffff\n      and\n      jump\t// in\n    tag_580:\n        /* \"bep-20.sol\":15862:15894  amountETH.mul(RiskFreeValue).div */\n      tag_282\n      swap1\n        /* \"bep-20.sol\":15862:15907  amountETH.mul(RiskFreeValue).div(totalETHFee) */\n      swap2\n      swap1\n      0xffffffff\n      and\n      jump\t// in\n    tag_579:\n        /* \"bep-20.sol\":15829:15907  uint256 amountETHRiskFreeValue = amountETH.mul(RiskFreeValue).div(totalETHFee) */\n      swap1\n      pop\n        /* \"bep-20.sol\":15917:15942  uint256 amountETHTreasury */\n      0x00\n        /* \"bep-20.sol\":15945:16007  amountETH.mul(Treasury).div(... */\n      tag_581\n        /* \"bep-20.sol\":15986:15997  totalETHFee */\n      dup5\n        /* \"bep-20.sol\":15945:15968  amountETH.mul(Treasury) */\n      tag_582\n        /* \"bep-20.sol\":15959:15967  Treasury */\n      sload(0x08)\n        /* \"bep-20.sol\":15945:15954  amountETH */\n      dup9\n        /* \"bep-20.sol\":15945:15958  amountETH.mul */\n      tag_451\n      swap1\n        /* \"bep-20.sol\":15945:15968  amountETH.mul(Treasury) */\n      swap2\n      swap1\n      0xffffffff\n      and\n      jump\t// in\n    tag_582:\n        /* \"bep-20.sol\":15945:15972  amountETH.mul(Treasury).div */\n      tag_282\n      swap1\n        /* \"bep-20.sol\":15945:16007  amountETH.mul(Treasury).div(... */\n      swap2\n      swap1\n      0xffffffff\n      and\n      jump\t// in\n    tag_581:\n        /* \"bep-20.sol\":15917:16007  uint256 amountETHTreasury = amountETH.mul(Treasury).div(... */\n      swap1\n      pop\n        /* \"bep-20.sol\":16019:16031  bool success */\n      0x00\n        /* \"bep-20.sol\":16045:16061  TreasuryReceiver */\n      0x10\n      0x00\n      swap1\n      sload\n      swap1\n      0x0100\n      exp\n      swap1\n      div\n      0xffffffffffffffffffffffffffffffffffffffff\n      and\n        /* \"bep-20.sol\":16037:16067  payable(TreasuryReceiver).call */\n      0xffffffffffffffffffffffffffffffffffffffff\n      and\n        /* \"bep-20.sol\":16088:16105  amountETHTreasury */\n      dup3\n        /* \"bep-20.sol\":16124:16129  30000 */\n      0x7530\n        /* \"bep-20.sol\":16037:16143  payable(TreasuryReceiver).call{... */\n      swap1\n      mload(0x40)\n      dup1\n      0x00\n      add\n      swap1\n      pop\n      0x00\n      mload(0x40)\n      dup1\n      dup4\n      sub\n      dup2\n      dup6\n      dup9\n      dup9\n      call\n      swap4\n      pop\n      pop\n      pop\n      pop\n      returndatasize\n      dup1\n      0x00\n      dup2\n      eq\n      tag_585\n      jumpi\n      mload(0x40)\n      swap2\n      pop\n      and(add(returndatasize, 0x3f), not(0x1f))\n      dup3\n      add\n      0x40\n      mstore\n      returndatasize\n      dup3\n      mstore\n      returndatasize\n      0x00\n      0x20\n      dup5\n      add\n      returndatacopy\n      jump(tag_584)\n    tag_585:\n      0x60\n      swap2\n      pop\n    tag_584:\n      pop\n        /* \"bep-20.sol\":16018:16143  (bool success, ) = payable(TreasuryReceiver).call{... */\n      pop\n      swap1\n      pop\n        /* \"bep-20.sol\":16175:16196  RiskFreeValueReceiver */\n      0x11\n      0x00\n      swap1\n      sload\n      swap1\n      0x0100\n      exp\n      swap1\n      div\n      0xffffffffffffffffffffffffffffffffffffffff\n      and\n        /* \"bep-20.sol\":16167:16202  payable(RiskFreeValueReceiver).call */\n      0xffffffffffffffffffffffffffffffffffffffff\n      and\n        /* \"bep-20.sol\":16223:16245  amountETHRiskFreeValue */\n      dup4\n        /* \"bep-20.sol\":16264:16269  30000 */\n      0x7530\n        /* \"bep-20.sol\":16167:16283  payable(RiskFreeValueReceiver).call{... */\n      swap1\n      mload(0x40)\n      dup1\n      0x00\n      add\n      swap1\n      pop\n      0x00\n      mload(0x40)\n      dup1\n      dup4\n      sub\n      dup2\n      dup6\n      dup9\n      dup9\n      call\n      swap4\n      pop\n      pop\n      pop\n      pop\n      returndatasize\n      dup1\n      0x00\n      dup2\n      eq\n      tag_588\n      jumpi\n      mload(0x40)\n      swap2\n      pop\n      and(add(returndatasize, 0x3f), not(0x1f))\n      dup3\n      add\n      0x40\n      mstore\n      returndatasize\n      dup3\n      mstore\n      returndatasize\n      0x00\n      0x20\n      dup5\n      add\n      returndatacopy\n      jump(tag_587)\n    tag_588:\n      0x60\n      swap2\n      pop\n    tag_587:\n      pop\n        /* \"bep-20.sol\":16153:16283  (success, ) = payable(RiskFreeValueReceiver).call{... */\n      pop\n      dup1\n      swap2\n      pop\n      pop\n        /* \"bep-20.sol\":16304:16309  false */\n      0x00\n        /* \"bep-20.sol\":16294:16309  success = false */\n      swap1\n      pop\n        /* \"bep-20.sol\":16342:16343  0 */\n      0x00\n        /* \"bep-20.sol\":16324:16339  amountToLiquify */\n      dup11\n        /* \"bep-20.sol\":16324:16343  amountToLiquify > 0 */\n      gt\n        /* \"bep-20.sol\":16320:16607  if (amountToLiquify > 0) {... */\n      iszero\n      tag_589\n      jumpi\n        /* \"bep-20.sol\":16359:16365  router */\n      0x14\n      0x00\n      swap1\n      sload\n      swap1\n      0x0100\n      exp\n      swap1\n      div\n      0xffffffffffffffffffffffffffffffffffffffff\n      and\n        /* \"bep-20.sol\":16359:16381  router.addLiquidityETH */\n      0xffffffffffffffffffffffffffffffffffffffff\n      and\n      0xf305d719\n        /* \"bep-20.sol\":16389:16407  amountETHLiquidity */\n      dup6\n        /* \"bep-20.sol\":16434:16438  this */\n      address\n        /* \"bep-20.sol\":16457:16472  amountToLiquify */\n      dup14\n        /* \"bep-20.sol\":16490:16491  0 */\n      0x00\n        /* \"bep-20.sol\":16509:16510  0 */\n      dup1\n        /* \"bep-20.sol\":16528:16549  autoLiquidityReceiver */\n      0x0f\n      0x00\n      swap1\n      sload\n      swap1\n      0x0100\n      exp\n      swap1\n      div\n      0xffffffffffffffffffffffffffffffffffffffff\n      and\n        /* \"bep-20.sol\":16567:16582  block.timestamp */\n      timestamp\n        /* \"bep-20.sol\":16359:16596  router.addLiquidityETH{value: amountETHLiquidity}(... */\n      mload(0x40)\n      dup9\n      0xffffffff\n      and\n      0xe0\n      shl\n      dup2\n      mstore\n      0x04\n      add\n      dup1\n      dup8\n      0xffffffffffffffffffffffffffffffffffffffff\n      and\n      dup2\n      mstore\n      0x20\n      add\n      dup7\n      dup2\n      mstore\n      0x20\n      add\n      dup6\n      dup2\n      mstore\n      0x20\n      add\n      dup5\n      dup2\n      mstore\n      0x20\n      add\n      dup4\n      0xffffffffffffffffffffffffffffffffffffffff\n      and\n      dup2\n      mstore\n      0x20\n      add\n      dup3\n      dup2\n      mstore\n      0x20\n      add\n      swap7\n      pop\n      pop\n      pop\n      pop\n      pop\n      pop\n      pop\n      0x60\n      mload(0x40)\n      dup1\n      dup4\n      sub\n      dup2\n      dup6\n      dup9\n      dup1\n      extcodesize\n      iszero\n      dup1\n      iszero\n      tag_590\n      jumpi\n      0x00\n      dup1\n      revert\n    tag_590:\n      pop\n      gas\n      call\n      iszero\n      dup1\n      iszero\n      tag_592\n      jumpi\n      returndatasize\n      0x00\n      dup1\n      returndatacopy\n      revert(0x00, returndatasize)\n    tag_592:\n      pop\n      pop\n      pop\n      pop\n      pop\n      mload(0x40)\n      returndatasize\n      0x60\n      dup2\n      lt\n      iszero\n      tag_593\n      jumpi\n      0x00\n      dup1\n      revert\n    tag_593:\n      dup2\n      add\n      swap1\n      dup1\n      dup1\n      mload\n      swap1\n      0x20\n      add\n      swap1\n      swap3\n      swap2\n      swap1\n      dup1\n      mload\n      swap1\n      0x20\n      add\n      swap1\n      swap3\n      swap2\n      swap1\n      dup1\n      mload\n      swap1\n      0x20\n      add\n      swap1\n      swap3\n      swap2\n      swap1\n      pop\n      pop\n      pop\n      pop\n      pop\n      pop\n        /* \"bep-20.sol\":16320:16607  if (amountToLiquify > 0) {... */\n    tag_589:\n        /* \"bep-20.sol\":9712:9713  _ */\n      pop\n      pop\n      pop\n      pop\n      pop\n      pop\n      pop\n      pop\n      pop\n      pop\n      pop\n      pop\n        /* \"bep-20.sol\":9732:9737  false */\n      0x00\n        /* \"bep-20.sol\":9723:9729  inSwap */\n      0x17\n      0x00\n        /* \"bep-20.sol\":9723:9737  inSwap = false */\n      0x0100\n      exp\n      dup2\n      sload\n      dup2\n      0xff\n      mul\n      not\n      and\n      swap1\n      dup4\n      iszero\n      iszero\n      mul\n      or\n      swap1\n      sstore\n      pop\n        /* \"bep-20.sol\":14630:16613  function swapBack() internal swapping {... */\n      jump\t// out\n        /* \"bep-20.sol\":18937:19092  function shouldTakeFee(address from, address to) internal view returns (bool) {... */\n    tag_512:\n        /* \"bep-20.sol\":19009:19013  bool */\n      0x00\n        /* \"bep-20.sol\":19041:19045  from */\n      dup3\n        /* \"bep-20.sol\":19033:19045  pair == from */\n      0xffffffffffffffffffffffffffffffffffffffff\n      and\n        /* \"bep-20.sol\":19033:19037  pair */\n      0x15\n      0x00\n      swap1\n      sload\n      swap1\n      0x0100\n      exp\n      swap1\n      div\n      0xffffffffffffffffffffffffffffffffffffffff\n      and\n        /* \"bep-20.sol\":19033:19045  pair == from */\n      0xffffffffffffffffffffffffffffffffffffffff\n      and\n      eq\n        /* \"bep-20.sol\":19033:19059  pair == from || pair == to */\n      dup1\n      tag_595\n      jumpi\n      pop\n        /* \"bep-20.sol\":19057:19059  to */\n      dup2\n        /* \"bep-20.sol\":19049:19059  pair == to */\n      0xffffffffffffffffffffffffffffffffffffffff\n      and\n        /* \"bep-20.sol\":19049:19053  pair */\n      0x15\n      0x00\n      swap1\n      sload\n      swap1\n      0x0100\n      exp\n      swap1\n      div\n      0xffffffffffffffffffffffffffffffffffffffff\n      and\n        /* \"bep-20.sol\":19049:19059  pair == to */\n      0xffffffffffffffffffffffffffffffffffffffff\n      and\n      eq\n        /* \"bep-20.sol\":19033:19059  pair == from || pair == to */\n    tag_595:\n        /* \"bep-20.sol\":19032:19085  (pair == from || pair == to) && (!_isFeeExempt[from]) */\n      dup1\n      iszero\n      tag_596\n      jumpi\n      pop\n        /* \"bep-20.sol\":19066:19078  _isFeeExempt */\n      0x06\n        /* \"bep-20.sol\":19066:19084  _isFeeExempt[from] */\n      0x00\n        /* \"bep-20.sol\":19079:19083  from */\n      dup5\n        /* \"bep-20.sol\":19066:19084  _isFeeExempt[from] */\n      0xffffffffffffffffffffffffffffffffffffffff\n      and\n      0xffffffffffffffffffffffffffffffffffffffff\n      and\n      dup2\n      mstore\n      0x20\n      add\n      swap1\n      dup2\n      mstore\n      0x20\n      add\n      0x00\n      keccak256\n      0x00\n      swap1\n      sload\n      swap1\n      0x0100\n      exp\n      swap1\n      div\n      0xff\n      and\n        /* \"bep-20.sol\":19065:19084  !_isFeeExempt[from] */\n      iszero\n        /* \"bep-20.sol\":19032:19085  (pair == from || pair == to) && (!_isFeeExempt[from]) */\n    tag_596:\n        /* \"bep-20.sol\":19025:19085  return (pair == from || pair == to) && (!_isFeeExempt[from]) */\n      swap1\n      pop\n        /* \"bep-20.sol\":18937:19092  function shouldTakeFee(address from, address to) internal view returns (bool) {... */\n      swap3\n      swap2\n      pop\n      pop\n      jump\t// out\n        /* \"bep-20.sol\":16619:17149  function takeFee(address sender, address recipient, uint256 gonAmount)... */\n    tag_516:\n        /* \"bep-20.sol\":16724:16731  uint256 */\n      0x00\n        /* \"bep-20.sol\":16747:16764  uint256 _totalFee */\n      dup1\n        /* \"bep-20.sol\":16767:16775  totalFee */\n      sload(0x0b)\n        /* \"bep-20.sol\":16747:16775  uint256 _totalFee = totalFee */\n      swap1\n      pop\n        /* \"bep-20.sol\":16801:16805  pair */\n      0x15\n      0x00\n      swap1\n      sload\n      swap1\n      0x0100\n      exp\n      swap1\n      div\n      0xffffffffffffffffffffffffffffffffffffffff\n      and\n        /* \"bep-20.sol\":16788:16805  recipient == pair */\n      0xffffffffffffffffffffffffffffffffffffffff\n      and\n        /* \"bep-20.sol\":16788:16797  recipient */\n      dup5\n        /* \"bep-20.sol\":16788:16805  recipient == pair */\n      0xffffffffffffffffffffffffffffffffffffffff\n      and\n      eq\n        /* \"bep-20.sol\":16785:16841  if(recipient == pair) _totalFee = _totalFee.add(sellFee) */\n      iszero\n      tag_598\n      jumpi\n        /* \"bep-20.sol\":16819:16841  _totalFee.add(sellFee) */\n      tag_599\n        /* \"bep-20.sol\":16833:16840  sellFee */\n      sload(0x0a)\n        /* \"bep-20.sol\":16819:16828  _totalFee */\n      dup3\n        /* \"bep-20.sol\":16819:16832  _totalFee.add */\n      tag_281\n      swap1\n        /* \"bep-20.sol\":16819:16841  _totalFee.add(sellFee) */\n      swap2\n      swap1\n      0xffffffff\n      and\n      jump\t// in\n    tag_599:\n        /* \"bep-20.sol\":16807:16841  _totalFee = _totalFee.add(sellFee) */\n      swap1\n      pop\n        /* \"bep-20.sol\":16785:16841  if(recipient == pair) _totalFee = _totalFee.add(sellFee) */\n    tag_598:\n        /* \"bep-20.sol\":16852:16869  uint256 feeAmount */\n      0x00\n        /* \"bep-20.sol\":16872:16916  gonAmount.mul(_totalFee).div(feeDenominator) */\n      tag_600\n        /* \"bep-20.sol\":16901:16915  feeDenominator */\n      sload(0x0c)\n        /* \"bep-20.sol\":16872:16896  gonAmount.mul(_totalFee) */\n      tag_601\n        /* \"bep-20.sol\":16886:16895  _totalFee */\n      dup5\n        /* \"bep-20.sol\":16872:16881  gonAmount */\n      dup8\n        /* \"bep-20.sol\":16872:16885  gonAmount.mul */\n      tag_451\n      swap1\n        /* \"bep-20.sol\":16872:16896  gonAmount.mul(_totalFee) */\n      swap2\n      swap1\n      0xffffffff\n      and\n      jump\t// in\n    tag_601:\n        /* \"bep-20.sol\":16872:16900  gonAmount.mul(_totalFee).div */\n      tag_282\n      swap1\n        /* \"bep-20.sol\":16872:16916  gonAmount.mul(_totalFee).div(feeDenominator) */\n      swap2\n      swap1\n      0xffffffff\n      and\n      jump\t// in\n    tag_600:\n        /* \"bep-20.sol\":16852:16916  uint256 feeAmount = gonAmount.mul(_totalFee).div(feeDenominator) */\n      swap1\n      pop\n        /* \"bep-20.sol\":16957:17021  _gonBalances[address(this)].add(... */\n      tag_602\n        /* \"bep-20.sol\":17002:17011  feeAmount */\n      dup2\n        /* \"bep-20.sol\":16957:16969  _gonBalances */\n      0x1a\n        /* \"bep-20.sol\":16957:16984  _gonBalances[address(this)] */\n      0x00\n        /* \"bep-20.sol\":16978:16982  this */\n      address\n        /* \"bep-20.sol\":16957:16984  _gonBalances[address(this)] */\n      0xffffffffffffffffffffffffffffffffffffffff\n      and\n      0xffffffffffffffffffffffffffffffffffffffff\n      and\n      dup2\n      mstore\n      0x20\n      add\n      swap1\n      dup2\n      mstore\n      0x20\n      add\n      0x00\n      keccak256\n      sload\n        /* \"bep-20.sol\":16957:16988  _gonBalances[address(this)].add */\n      tag_281\n      swap1\n        /* \"bep-20.sol\":16957:17021  _gonBalances[address(this)].add(... */\n      swap2\n      swap1\n      0xffffffff\n      and\n      jump\t// in\n    tag_602:\n        /* \"bep-20.sol\":16927:16939  _gonBalances */\n      0x1a\n        /* \"bep-20.sol\":16927:16954  _gonBalances[address(this)] */\n      0x00\n        /* \"bep-20.sol\":16948:16952  this */\n      address\n        /* \"bep-20.sol\":16927:16954  _gonBalances[address(this)] */\n      0xffffffffffffffffffffffffffffffffffffffff\n      and\n      0xffffffffffffffffffffffffffffffffffffffff\n      and\n      dup2\n      mstore\n      0x20\n      add\n      swap1\n      dup2\n      mstore\n      0x20\n      add\n      0x00\n      keccak256\n        /* \"bep-20.sol\":16927:17021  _gonBalances[address(this)] = _gonBalances[address(this)].add(... */\n      dup2\n      swap1\n      sstore\n      pop\n        /* \"bep-20.sol\":17061:17065  this */\n      address\n        /* \"bep-20.sol\":17036:17100  Transfer(sender, address(this), feeAmount.div(_gonsPerFragment)) */\n      0xffffffffffffffffffffffffffffffffffffffff\n      and\n        /* \"bep-20.sol\":17045:17051  sender */\n      dup7\n        /* \"bep-20.sol\":17036:17100  Transfer(sender, address(this), feeAmount.div(_gonsPerFragment)) */\n      0xffffffffffffffffffffffffffffffffffffffff\n      and\n      0xddf252ad1be2c89b69c2b068fc378daa952ba7f163c4a11628f55a4df523b3ef\n        /* \"bep-20.sol\":17068:17099  feeAmount.div(_gonsPerFragment) */\n      tag_603\n        /* \"bep-20.sol\":17082:17098  _gonsPerFragment */\n      sload(0x19)\n        /* \"bep-20.sol\":17068:17077  feeAmount */\n      dup6\n        /* \"bep-20.sol\":17068:17081  feeAmount.div */\n      tag_282\n      swap1\n        /* \"bep-20.sol\":17068:17099  feeAmount.div(_gonsPerFragment) */\n      swap2\n      swap1\n      0xffffffff\n      and\n      jump\t// in\n    tag_603:\n        /* \"bep-20.sol\":17036:17100  Transfer(sender, address(this), feeAmount.div(_gonsPerFragment)) */\n      mload(0x40)\n      dup1\n      dup3\n      dup2\n      mstore\n      0x20\n      add\n      swap2\n      pop\n      pop\n      mload(0x40)\n      dup1\n      swap2\n      sub\n      swap1\n      log3\n        /* \"bep-20.sol\":17118:17142  gonAmount.sub(feeAmount) */\n      tag_604\n        /* \"bep-20.sol\":17132:17141  feeAmount */\n      dup2\n        /* \"bep-20.sol\":17118:17127  gonAmount */\n      dup6\n        /* \"bep-20.sol\":17118:17131  gonAmount.sub */\n      tag_322\n      swap1\n        /* \"bep-20.sol\":17118:17142  gonAmount.sub(feeAmount) */\n      swap2\n      swap1\n      0xffffffff\n      and\n      jump\t// in\n    tag_604:\n        /* \"bep-20.sol\":17111:17142  return gonAmount.sub(feeAmount) */\n      swap3\n      pop\n      pop\n      pop\n        /* \"bep-20.sol\":16619:17149  function takeFee(address sender, address recipient, uint256 gonAmount)... */\n      swap4\n      swap3\n      pop\n      pop\n      pop\n      jump\t// out\n        /* \"bep-20.sol\":3534:3714  function remove(Role storage role, address account) internal {... */\n    tag_523:\n        /* \"bep-20.sol\":3613:3631  has(role, account) */\n      tag_606\n        /* \"bep-20.sol\":3617:3621  role */\n      dup3\n        /* \"bep-20.sol\":3623:3630  account */\n      dup3\n        /* \"bep-20.sol\":3613:3616  has */\n      tag_443\n        /* \"bep-20.sol\":3613:3631  has(role, account) */\n      jump\t// in\n    tag_606:\n        /* \"bep-20.sol\":3605:3669  require(has(role, account), \"Roles: account does not have role\") */\n      tag_607\n      jumpi\n      mload(0x40)\n      0x08c379a000000000000000000000000000000000000000000000000000000000\n      dup2\n      mstore\n      0x04\n      add\n      dup1\n      dup1\n      0x20\n      add\n      dup3\n      dup2\n      sub\n      dup3\n      mstore\n      0x21\n      dup2\n      mstore\n      0x20\n      add\n      dup1\n      data_7bd893145ac435f339bb7c288622d270324b7033b011f693aca172f5cbc3c257\n      0x21\n      swap2\n      codecopy\n      0x40\n      add\n      swap2\n      pop\n      pop\n      mload(0x40)\n      dup1\n      swap2\n      sub\n      swap1\n      revert\n    tag_607:\n        /* \"bep-20.sol\":3702:3707  false */\n      0x00\n        /* \"bep-20.sol\":3679:3683  role */\n      dup3\n        /* \"bep-20.sol\":3679:3690  role.bearer */\n      0x00\n      add\n        /* \"bep-20.sol\":3679:3699  role.bearer[account] */\n      0x00\n        /* \"bep-20.sol\":3691:3698  account */\n      dup4\n        /* \"bep-20.sol\":3679:3699  role.bearer[account] */\n      0xffffffffffffffffffffffffffffffffffffffff\n      and\n      0xffffffffffffffffffffffffffffffffffffffff\n      and\n      dup2\n      mstore\n      0x20\n      add\n      swap1\n      dup2\n      mstore\n      0x20\n      add\n      0x00\n      keccak256\n      0x00\n        /* \"bep-20.sol\":3679:3707  role.bearer[account] = false */\n      0x0100\n      exp\n      dup2\n      sload\n      dup2\n      0xff\n      mul\n      not\n      and\n      swap1\n      dup4\n      iszero\n      iszero\n      mul\n      or\n      swap1\n      sstore\n      pop\n        /* \"bep-20.sol\":3534:3714  function remove(Role storage role, address account) internal {... */\n      pop\n      pop\n      jump\t// out\n    stop\n    data_79ecb50133735b20228dea9d08fe36a462bbc1350f591a146908848db91104cd 4d696e746572526f6c653a2063616c6c657220646f6573206e6f74206861766520746865204d696e74657220726f6c65\n    data_7bd893145ac435f339bb7c288622d270324b7033b011f693aca172f5cbc3c257 526f6c65733a206163636f756e7420646f6573206e6f74206861766520726f6c65\n    data_9113bb53c2876a3805b2c9242029423fc540a728243ce887ab24c82cf119fba3 536166654d6174683a206d756c7469706c69636174696f6e206f766572666c6f77\n    data_9d214fa89563f4e6456a3929327e54500ea1cde2c0ba9fb2035ec106190d682f 526f6c65733a206163636f756e7420697320746865207a65726f2061646472657373\n\n    auxdata: 0xa26469706673582212201e9234ea8884d9288e0331691f0005b81aa0dd07b77e54c9e446786df3d024ca64736f6c63430007060033\n}\n",
				"bytecode": {
					"linkReferences": {},
					"object": "60806040526005600755600360085560056009556005600a55620000516009546200003d6008546007546200099460201b620030bd1790919060201c565b6200099460201b620030bd1790919060201c565b600b556064600c5561dead600d60006101000a81548173ffffffffffffffffffffffffffffffffffffffff021916908373ffffffffffffffffffffffffffffffffffffffff1602179055506000600e60006101000a81548173ffffffffffffffffffffffffffffffffffffffff021916908373ffffffffffffffffffffffffffffffffffffffff160217905550603260125560646013556001601560146101000a81548160ff021916908315150217905550612710600a6012600a0a63ee6b280002600019816200011e57fe5b066000190302816200012c57fe5b046016553480156200013d57600080fd5b506040518060400160405280600a81526020017f526176656e746f6b656e000000000000000000000000000000000000000000008152506040518060400160405280600a81526020017f526176656e746f6b656e0000000000000000000000000000000000000000000081525060128260009080519060200190620001c492919062000e5a565b508160019080519060200190620001dd92919062000e5a565b5080600260006101000a81548160ff021916908360ff16021790555050505033600260016101000a81548173ffffffffffffffffffffffffffffffffffffffff021916908373ffffffffffffffffffffffffffffffffffffffff1602179055506200024e3362000a1d60201b60201c565b7310ed43c718714eb63d5aa57b78b54704e256024e601460006101000a81548173ffffffffffffffffffffffffffffffffffffffff021916908373ffffffffffffffffffffffffffffffffffffffff160217905550601460009054906101000a900473ffffffffffffffffffffffffffffffffffffffff1673ffffffffffffffffffffffffffffffffffffffff1663c45a01556040518163ffffffff1660e01b815260040160206040518083038186803b1580156200030c57600080fd5b505afa15801562000321573d6000803e3d6000fd5b505050506040513d60208110156200033857600080fd5b810190808051906020019092919050505073ffffffffffffffffffffffffffffffffffffffff1663c9c65396601460009054906101000a900473ffffffffffffffffffffffffffffffffffffffff1673ffffffffffffffffffffffffffffffffffffffff1663ad5c46486040518163ffffffff1660e01b815260040160206040518083038186803b158015620003cd57600080fd5b505afa158015620003e2573d6000803e3d6000fd5b505050506040513d6020811015620003f957600080fd5b8101908080519060200190929190505050306040518363ffffffff1660e01b8152600401808373ffffffffffffffffffffffffffffffffffffffff1681526020018273ffffffffffffffffffffffffffffffffffffffff16815260200192505050602060405180830381600087803b1580156200047557600080fd5b505af11580156200048a573d6000803e3d6000fd5b505050506040513d6020811015620004a157600080fd5b8101908080519060200190929190505050601560006101000a81548173ffffffffffffffffffffffffffffffffffffffff021916908373ffffffffffffffffffffffffffffffffffffffff160217905550732efebb6c26e709b9240a9c102116d1831bac6319600f60006101000a81548173ffffffffffffffffffffffffffffffffffffffff021916908373ffffffffffffffffffffffffffffffffffffffff160217905550732efebb6c26e709b9240a9c102116d1831bac6319601060006101000a81548173ffffffffffffffffffffffffffffffffffffffff021916908373ffffffffffffffffffffffffffffffffffffffff160217905550732efebb6c26e709b9240a9c102116d1831bac6319601160006101000a81548173ffffffffffffffffffffffffffffffffffffffff021916908373ffffffffffffffffffffffffffffffffffffffff1602179055507fffffffffffffffffffffffffffffffffffffffffffffffffffffffffffffffff601b60003073ffffffffffffffffffffffffffffffffffffffff1673ffffffffffffffffffffffffffffffffffffffff1681526020019081526020016000206000601460009054906101000a900473ffffffffffffffffffffffffffffffffffffffff1673ffffffffffffffffffffffffffffffffffffffff1673ffffffffffffffffffffffffffffffffffffffff16815260200190815260200160002081905550601560009054906101000a900473ffffffffffffffffffffffffffffffffffffffff16600460006101000a81548173ffffffffffffffffffffffffffffffffffffffff021916908373ffffffffffffffffffffffffffffffffffffffff1602179055506012600a0a63ee6b2800026018819055506012600a0a63ee6b280002600019816200073e57fe5b0660001903601a6000601060009054906101000a900473ffffffffffffffffffffffffffffffffffffffff1673ffffffffffffffffffffffffffffffffffffffff1673ffffffffffffffffffffffffffffffffffffffff16815260200190815260200160002081905550620007de6018546012600a0a63ee6b28000260001981620007c557fe5b066000190362000a7e60201b620031451790919060201c565b6019819055506000600460146101000a81548160ff021916908315150217905550600160066000601060009054906101000a900473ffffffffffffffffffffffffffffffffffffffff1673ffffffffffffffffffffffffffffffffffffffff1673ffffffffffffffffffffffffffffffffffffffff16815260200190815260200160002060006101000a81548160ff0219169083151502179055506001600660003073ffffffffffffffffffffffffffffffffffffffff1673ffffffffffffffffffffffffffffffffffffffff16815260200190815260200160002060006101000a81548160ff02191690831515021790555062000904601060009054906101000a900473ffffffffffffffffffffffffffffffffffffffff1662000ad060201b60201c565b601060009054906101000a900473ffffffffffffffffffffffffffffffffffffffff1673ffffffffffffffffffffffffffffffffffffffff16600073ffffffffffffffffffffffffffffffffffffffff167fddf252ad1be2c89b69c2b068fc378daa952ba7f163c4a11628f55a4df523b3ef6018546040518082815260200191505060405180910390a362000f10565b60008082840190508381101562000a13576040517f08c379a000000000000000000000000000000000000000000000000000000000815260040180806020018281038252601b8152602001807f536166654d6174683a206164646974696f6e206f766572666c6f77000000000081525060200191505060405180910390fd5b8091505092915050565b62000a3881600362000bcb60201b6200318f1790919060201c565b8073ffffffffffffffffffffffffffffffffffffffff167f6ae172837ea30b801fbfcdd4108aa1d5bf8ff775444fd70256b44e6bf3dfc3f660405160405180910390a250565b600062000ac883836040518060400160405280601a81526020017f536166654d6174683a206469766973696f6e206279207a65726f00000000000081525062000caf60201b60201c565b905092915050565b600073ffffffffffffffffffffffffffffffffffffffff168173ffffffffffffffffffffffffffffffffffffffff16141562000b0b57600080fd5b8073ffffffffffffffffffffffffffffffffffffffff16600260019054906101000a900473ffffffffffffffffffffffffffffffffffffffff1673ffffffffffffffffffffffffffffffffffffffff167f8be0079c531659141344cd1fd0a4f28419497f9722a3daafe3b4186f6b6457e060405160405180910390a380600260016101000a81548173ffffffffffffffffffffffffffffffffffffffff021916908373ffffffffffffffffffffffffffffffffffffffff16021790555050565b62000bdd828262000d7a60201b60201c565b1562000c51576040517f08c379a000000000000000000000000000000000000000000000000000000000815260040180806020018281038252601f8152602001807f526f6c65733a206163636f756e7420616c72656164792068617320726f6c650081525060200191505060405180910390fd5b60018260000160008373ffffffffffffffffffffffffffffffffffffffff1673ffffffffffffffffffffffffffffffffffffffff16815260200190815260200160002060006101000a81548160ff0219169083151502179055505050565b6000808311829062000d5f576040517f08c379a00000000000000000000000000000000000000000000000000000000081526004018080602001828103825283818151815260200191508051906020019080838360005b8381101562000d2357808201518184015260208101905062000d06565b50505050905090810190601f16801562000d515780820380516001836020036101000a031916815260200191505b509250505060405180910390fd5b50600083858162000d6c57fe5b049050809150509392505050565b60008073ffffffffffffffffffffffffffffffffffffffff168273ffffffffffffffffffffffffffffffffffffffff16141562000e03576040517f08c379a00000000000000000000000000000000000000000000000000000000081526004018080602001828103825260228152602001806200570f6022913960400191505060405180910390fd5b8260000160008373ffffffffffffffffffffffffffffffffffffffff1673ffffffffffffffffffffffffffffffffffffffff16815260200190815260200160002060009054906101000a900460ff16905092915050565b828054600181600116156101000203166002900490600052602060002090601f01602090048101928262000e92576000855562000ede565b82601f1062000ead57805160ff191683800117855562000ede565b8280016001018555821562000ede579182015b8281111562000edd57825182559160200191906001019062000ec0565b5b50905062000eed919062000ef1565b5090565b5b8082111562000f0c57600081600090555060010162000ef2565b5090565b6147ef8062000f206000396000f3fe6080604052600436106103545760003560e01c80637a43e23f116101c6578063bda5c8bb116100f7578063d5938aac11610095578063dd62ed3e1161006f578063dd62ed3e146112d0578063f2fde38b14611355578063f887ea40146113a6578063f9f92be4146113e75761035b565b8063d5938aac146111ad578063d7ac6585146111fe578063d7c010321461123f5761035b565b8063d1fce264116100d1578063d1fce26414610fef578063d37e219d1461101c578063d4399790146110f7578063d51ed1c81461115e5761035b565b8063bda5c8bb14610f32578063ca33e64c14610f5d578063d088935814610f9e5761035b565b806398118cb411610164578063a457c2d71161013e578063a457c2d714610da8578063a8aa1b3114610e19578063a9059cbb14610e5a578063aa271e1a14610ecb5761035b565b806398118cb414610d15578063983b2d5614610d405780639865027514610d915761035b565b80638da5cb5b116101a05780638da5cb5b14610bba5780638f32d59b14610bfb5780639155e08314610c2857806395d89b4114610c855761035b565b80637a43e23f14610af3578063800cee5114610b4c57806383b4ac6814610b8d5761035b565b80633092afd5116102a057806356a227f21161023e57806370a082311161021857806370a0823114610a0f578063715018a614610a74578063749796a514610a8b578063753d02a114610adc5761035b565b806356a227f21461095c5780636d351d1a146109b75780636ddd1713146109e25761035b565b8063395093511161027a578063395093511461082457806340c10f19146108955780634d709adf146108f0578063563df32f146109315761035b565b80633092afd514610734578063313ce5671461078557806333f3d628146107b35761035b565b80631df4ccfc1161030d5780632b112e49116102e75780632b112e49146106765780632b14ca56146106a15780632be6937d146106cc5780632f34d282146106e35761035b565b80631df4ccfc14610575578063201e7991146105a057806323b872dd146105e55761035b565b806304a66b481461036057806306fdde03146103c3578063095ea7b3146104535780631161ae39146104c4578063180b0d7e1461051f57806318160ddd1461054a5761035b565b3661035b57005b600080fd5b34801561036c57600080fd5b506103c1600480360360a081101561038357600080fd5b81019080803590602001909291908035906020019092919080359060200190929190803590602001909291908035906020019092919050505061144e565b005b3480156103cf57600080fd5b506103d86114d4565b6040518080602001828103825283818151815260200191508051906020019080838360005b838110156104185780820151818401526020810190506103fd565b50505050905090810190601f1680156104455780820380516001836020036101000a031916815260200191505b509250505060405180910390f35b34801561045f57600080fd5b506104ac6004803603604081101561047657600080fd5b81019080803573ffffffffffffffffffffffffffffffffffffffff16906020019092919080359060200190929190505050611576565b60405180821515815260200191505060405180910390f35b3480156104d057600080fd5b50610507600480360360408110156104e757600080fd5b8101908080359060200190929190803590602001909291905050506116e4565b60405180821515815260200191505060405180910390f35b34801561052b57600080fd5b506105346116f9565b6040518082815260200191505060405180910390f35b34801561055657600080fd5b5061055f6116ff565b6040518082815260200191505060405180910390f35b34801561058157600080fd5b5061058a611709565b6040518082815260200191505060405180910390f35b3480156105ac57600080fd5b506105e3600480360360408110156105c357600080fd5b81019080803590602001909291908035906020019092919050505061170f565b005b3480156105f157600080fd5b5061065e6004803603606081101561060857600080fd5b81019080803573ffffffffffffffffffffffffffffffffffffffff169060200190929190803573ffffffffffffffffffffffffffffffffffffffff16906020019092919080359060200190929190505050611732565b60405180821515815260200191505060405180910390f35b34801561068257600080fd5b5061068b611971565b6040518082815260200191505060405180910390f35b3480156106ad57600080fd5b506106b6611a8c565b6040518082815260200191505060405180910390f35b3480156106d857600080fd5b506106e1611a92565b005b3480156106ef57600080fd5b506107326004803603602081101561070657600080fd5b81019080803573ffffffffffffffffffffffffffffffffffffffff169060200190929190505050611ac0565b005b34801561074057600080fd5b506107836004803603602081101561075757600080fd5b81019080803573ffffffffffffffffffffffffffffffffffffffff169060200190929190505050611b60565b005b34801561079157600080fd5b5061079a611b7d565b604051808260ff16815260200191505060405180910390f35b3480156107bf57600080fd5b5061080c600480360360408110156107d657600080fd5b81019080803573ffffffffffffffffffffffffffffffffffffffff16906020019092919080359060200190929190505050611b94565b60405180821515815260200191505060405180910390f35b34801561083057600080fd5b5061087d6004803603604081101561084757600080fd5b81019080803573ffffffffffffffffffffffffffffffffffffffff16906020019092919080359060200190929190505050611c5b565b60405180821515815260200191505060405180910390f35b3480156108a157600080fd5b506108ee600480360360408110156108b857600080fd5b81019080803573ffffffffffffffffffffffffffffffffffffffff16906020019092919080359060200190929190505050611ed3565b005b3480156108fc57600080fd5b506109056120d5565b604051808273ffffffffffffffffffffffffffffffffffffffff16815260200191505060405180910390f35b34801561093d57600080fd5b506109466120fb565b6040518082815260200191505060405180910390f35b34801561096857600080fd5b506109b56004803603604081101561097f57600080fd5b8101908080359060200190929190803573ffffffffffffffffffffffffffffffffffffffff169060200190929190505050612101565b005b3480156109c357600080fd5b506109cc61216f565b6040518082815260200191505060405180910390f35b3480156109ee57600080fd5b506109f761218d565b60405180821515815260200191505060405180910390f35b348015610a1b57600080fd5b50610a5e60048036036020811015610a3257600080fd5b81019080803573ffffffffffffffffffffffffffffffffffffffff1690602001909291905050506121a0565b6040518082815260200191505060405180910390f35b348015610a8057600080fd5b50610a896121fd565b005b348015610a9757600080fd5b50610ada60048036036020811015610aae57600080fd5b81019080803573ffffffffffffffffffffffffffffffffffffffff1690602001909291905050506122b7565b005b348015610ae857600080fd5b50610af1612323565b005b348015610aff57600080fd5b50610b3660048036036040811015610b1657600080fd5b8101908080359060200190929190803590602001909291905050506123a7565b6040518082815260200191505060405180910390f35b348015610b5857600080fd5b50610b61612608565b604051808273ffffffffffffffffffffffffffffffffffffffff16815260200191505060405180910390f35b348015610b9957600080fd5b50610ba261262e565b60405180821515815260200191505060405180910390f35b348015610bc657600080fd5b50610bcf612646565b604051808273ffffffffffffffffffffffffffffffffffffffff16815260200191505060405180910390f35b348015610c0757600080fd5b50610c10612670565b60405180821515815260200191505060405180910390f35b348015610c3457600080fd5b50610c8360048036036040811015610c4b57600080fd5b81019080803573ffffffffffffffffffffffffffffffffffffffff1690602001909291908035151590602001909291905050506126c8565b005b348015610c9157600080fd5b50610c9a612734565b6040518080602001828103825283818151815260200191508051906020019080838360005b83811015610cda578082015181840152602081019050610cbf565b50505050905090810190601f168015610d075780820380516001836020036101000a031916815260200191505b509250505060405180910390f35b348015610d2157600080fd5b50610d2a6127d6565b6040518082815260200191505060405180910390f35b348015610d4c57600080fd5b50610d8f60048036036020811015610d6357600080fd5b81019080803573ffffffffffffffffffffffffffffffffffffffff1690602001909291905050506127dc565b005b348015610d9d57600080fd5b50610da66127f9565b005b348015610db457600080fd5b50610e0160048036036040811015610dcb57600080fd5b81019080803573ffffffffffffffffffffffffffffffffffffffff16906020019092919080359060200190929190505050612804565b60405180821515815260200191505060405180910390f35b348015610e2557600080fd5b50610e2e612b11565b604051808273ffffffffffffffffffffffffffffffffffffffff16815260200191505060405180910390f35b348015610e6657600080fd5b50610eb360048036036040811015610e7d57600080fd5b81019080803573ffffffffffffffffffffffffffffffffffffffff16906020019092919080359060200190929190505050612b37565b60405180821515815260200191505060405180910390f35b348015610ed757600080fd5b50610f1a60048036036020811015610eee57600080fd5b81019080803573ffffffffffffffffffffffffffffffffffffffff169060200190929190505050612c07565b60405180821515815260200191505060405180910390f35b348015610f3e57600080fd5b50610f47612c24565b6040518082815260200191505060405180910390f35b348015610f6957600080fd5b50610f72612c2a565b604051808273ffffffffffffffffffffffffffffffffffffffff16815260200191505060405180910390f35b348015610faa57600080fd5b50610fed60048036036060811015610fc157600080fd5b810190808035151590602001909291908035906020019092919080359060200190929190505050612c50565b005b348015610ffb57600080fd5b50611004612cc4565b60405180821515815260200191505060405180910390f35b34801561102857600080fd5b506110f56004803603604081101561103f57600080fd5b810190808035906020019064010000000081111561105c57600080fd5b82018360208201111561106e57600080fd5b8035906020019184602083028401116401000000008311171561109057600080fd5b9091929391929390803590602001906401000000008111156110b157600080fd5b8201836020820111156110c357600080fd5b803590602001918460208302840111640100000000831117156110e557600080fd5b9091929391929390505050612cd7565b005b34801561110357600080fd5b506111466004803603602081101561111a57600080fd5b81019080803573ffffffffffffffffffffffffffffffffffffffff169060200190929190505050612d50565b60405180821515815260200191505060405180910390f35b34801561116a57600080fd5b506111976004803603602081101561118157600080fd5b8101908080359060200190929190505050612da6565b6040518082815260200191505060405180910390f35b3480156111b957600080fd5b506111fc600480360360208110156111d057600080fd5b81019080803573ffffffffffffffffffffffffffffffffffffffff169060200190929190505050612e68565b005b34801561120a57600080fd5b50611213612ed4565b604051808273ffffffffffffffffffffffffffffffffffffffff16815260200191505060405180910390f35b34801561124b57600080fd5b506112ce6004803603606081101561126257600080fd5b81019080803573ffffffffffffffffffffffffffffffffffffffff169060200190929190803573ffffffffffffffffffffffffffffffffffffffff169060200190929190803573ffffffffffffffffffffffffffffffffffffffff169060200190929190505050612efa565b005b3480156112dc57600080fd5b5061133f600480360360408110156112f357600080fd5b81019080803573ffffffffffffffffffffffffffffffffffffffff169060200190929190803573ffffffffffffffffffffffffffffffffffffffff169060200190929190505050612fd3565b6040518082815260200191505060405180910390f35b34801561136157600080fd5b506113a46004803603602081101561137857600080fd5b81019080803573ffffffffffffffffffffffffffffffffffffffff16906020019092919050505061305a565b005b3480156113b257600080fd5b506113bb613077565b604051808273ffffffffffffffffffffffffffffffffffffffff16815260200191505060405180910390f35b3480156113f357600080fd5b506114366004803603602081101561140a57600080fd5b81019080803573ffffffffffffffffffffffffffffffffffffffff16906020019092919050505061309d565b60405180821515815260200191505060405180910390f35b611456612670565b61145f57600080fd5b84600781905550836009819055508260088190555081600a819055506114a66009546114986008546007546130bd90919063ffffffff16565b6130bd90919063ffffffff16565b600b8190555080600c819055506004600c54816114bf57fe5b04600b54106114cd57600080fd5b5050505050565b606060008054600181600116156101000203166002900480601f01602080910402602001604051908101604052809291908181526020018280546001816001161561010002031660029004801561156c5780601f106115415761010080835404028352916020019161156c565b820191906000526020600020905b81548152906001019060200180831161154f57829003601f168201915b5050505050905090565b6000600460149054906101000a900460ff16806115975750611596612670565b5b806115eb5750600560003373ffffffffffffffffffffffffffffffffffffffff1673ffffffffffffffffffffffffffffffffffffffff16815260200190815260200160002060009054906101000a900460ff165b6115f457600080fd5b81601b60003373ffffffffffffffffffffffffffffffffffffffff1673ffffffffffffffffffffffffffffffffffffffff16815260200190815260200160002060008573ffffffffffffffffffffffffffffffffffffffff1673ffffffffffffffffffffffffffffffffffffffff168152602001908152602001600020819055508273ffffffffffffffffffffffffffffffffffffffff163373ffffffffffffffffffffffffffffffffffffffff167f8c5be1e5ebec7d5bd14f71427d1e84f3dd0314c0f7b2291e5b200ac8c7c3b925846040518082815260200191505060405180910390a36001905092915050565b6000826116f083612da6565b11905092915050565b600c5481565b6000601854905090565b600b5481565b611717612670565b61172057600080fd5b81601281905550806013819055505050565b600082600073ffffffffffffffffffffffffffffffffffffffff168173ffffffffffffffffffffffffffffffffffffffff16141561176f57600080fd5b7fffffffffffffffffffffffffffffffffffffffffffffffffffffffffffffffff601b60008773ffffffffffffffffffffffffffffffffffffffff1673ffffffffffffffffffffffffffffffffffffffff16815260200190815260200160002060003373ffffffffffffffffffffffffffffffffffffffff1673ffffffffffffffffffffffffffffffffffffffff1681526020019081526020016000205414611959576118d8836040518060400160405280601681526020017f496e73756666696369656e7420416c6c6f77616e636500000000000000000000815250601b60008973ffffffffffffffffffffffffffffffffffffffff1673ffffffffffffffffffffffffffffffffffffffff16815260200190815260200160002060003373ffffffffffffffffffffffffffffffffffffffff1673ffffffffffffffffffffffffffffffffffffffff1681526020019081526020016000205461326a9092919063ffffffff16565b601b60008773ffffffffffffffffffffffffffffffffffffffff1673ffffffffffffffffffffffffffffffffffffffff16815260200190815260200160002060003373ffffffffffffffffffffffffffffffffffffffff1673ffffffffffffffffffffffffffffffffffffffff168152602001908152602001600020819055505b61196485858561332a565b5060019150509392505050565b6000611a87601954611a79601a6000600e60009054906101000a900473ffffffffffffffffffffffffffffffffffffffff1673ffffffffffffffffffffffffffffffffffffffff1673ffffffffffffffffffffffffffffffffffffffff16815260200190815260200160002054611a6b601a6000600d60009054906101000a900473ffffffffffffffffffffffffffffffffffffffff1673ffffffffffffffffffffffffffffffffffffffff1673ffffffffffffffffffffffffffffffffffffffff168152602001908152602001600020546012600a0a63ee6b28000260001981611a5857fe5b066000190361366d90919063ffffffff16565b61366d90919063ffffffff16565b61314590919063ffffffff16565b905090565b600a5481565b611a9a612670565b611aa357600080fd5b6001600460146101000a81548160ff021916908315150217905550565b611ac8612670565b611ad157600080fd5b80600460006101000a81548173ffffffffffffffffffffffffffffffffffffffff021916908373ffffffffffffffffffffffffffffffffffffffff160217905550600660008273ffffffffffffffffffffffffffffffffffffffff1673ffffffffffffffffffffffffffffffffffffffff16815260200190815260200160002060009054906101000a90505050565b611b68612670565b611b7157600080fd5b611b7a816136b7565b50565b6000600260009054906101000a900460ff16905090565b6000611b9e612670565b611ba757600080fd5b8273ffffffffffffffffffffffffffffffffffffffff1663a9059cbb33846040518363ffffffff1660e01b8152600401808373ffffffffffffffffffffffffffffffffffffffff16815260200182815260200192505050602060405180830381600087803b158015611c1857600080fd5b505af1158015611c2c573d6000803e3d6000fd5b505050506040513d6020811015611c4257600080fd5b8101908080519060200190929190505050905092915050565b6000600460149054906101000a900460ff1680611c7c5750611c7b612670565b5b80611cd05750600560003373ffffffffffffffffffffffffffffffffffffffff1673ffffffffffffffffffffffffffffffffffffffff16815260200190815260200160002060009054906101000a900460ff165b611cd957600080fd5b611d6882601b60003373ffffffffffffffffffffffffffffffffffffffff1673ffffffffffffffffffffffffffffffffffffffff16815260200190815260200160002060008673ffffffffffffffffffffffffffffffffffffffff1673ffffffffffffffffffffffffffffffffffffffff168152602001908152602001600020546130bd90919063ffffffff16565b601b60003373ffffffffffffffffffffffffffffffffffffffff1673ffffffffffffffffffffffffffffffffffffffff16815260200190815260200160002060008573ffffffffffffffffffffffffffffffffffffffff1673ffffffffffffffffffffffffffffffffffffffff168152602001908152602001600020819055508273ffffffffffffffffffffffffffffffffffffffff163373ffffffffffffffffffffffffffffffffffffffff167f8c5be1e5ebec7d5bd14f71427d1e84f3dd0314c0f7b2291e5b200ac8c7c3b925601b60003373ffffffffffffffffffffffffffffffffffffffff1673ffffffffffffffffffffffffffffffffffffffff16815260200190815260200160002060008773ffffffffffffffffffffffffffffffffffffffff1673ffffffffffffffffffffffffffffffffffffffff168152602001908152602001600020546040518082815260200191505060405180910390a36001905092915050565b611edc33612c07565b611f31576040517f08c379a00000000000000000000000000000000000000000000000000000000081526004018080602001828103825260308152602001806147266030913960400191505060405180910390fd5b611f46816018546130bd90919063ffffffff16565b6018819055506000196fffffffffffffffffffffffffffffffff166018541115611f86576000196fffffffffffffffffffffffffffffffff166018819055505b611fb46018546012600a0a63ee6b28000260001981611fa157fe5b066000190361314590919063ffffffff16565b601981905550600460009054906101000a900473ffffffffffffffffffffffffffffffffffffffff1673ffffffffffffffffffffffffffffffffffffffff1663fff6cae96040518163ffffffff1660e01b8152600401600060405180830381600087803b15801561202457600080fd5b505af1158015612038573d6000803e3d6000fd5b5050505061208e81601a60008573ffffffffffffffffffffffffffffffffffffffff1673ffffffffffffffffffffffffffffffffffffffff168152602001908152602001600020546130bd90919063ffffffff16565b601a60008473ffffffffffffffffffffffffffffffffffffffff1673ffffffffffffffffffffffffffffffffffffffff168152602001908152602001600020819055505050565b600460009054906101000a900473ffffffffffffffffffffffffffffffffffffffff1681565b60085481565b612109612670565b61211257600080fd5b60004790508173ffffffffffffffffffffffffffffffffffffffff166108fc60648584028161213d57fe5b049081150290604051600060405180830381858888f19350505050158015612169573d6000803e3d6000fd5b50505050565b600061218860195460165461314590919063ffffffff16565b905090565b601560149054906101000a900460ff1681565b60006121f6601954601a60008573ffffffffffffffffffffffffffffffffffffffff1673ffffffffffffffffffffffffffffffffffffffff1681526020019081526020016000205461314590919063ffffffff16565b9050919050565b612205612670565b61220e57600080fd5b600260019054906101000a900473ffffffffffffffffffffffffffffffffffffffff1673ffffffffffffffffffffffffffffffffffffffff167ff8df31144d9c2f0f6b59d69b8b98abd5459d07f2742c4df920b25aae33c6482060405160405180910390a26000600260016101000a81548173ffffffffffffffffffffffffffffffffffffffff021916908373ffffffffffffffffffffffffffffffffffffffff160217905550565b6122bf612670565b6122c857600080fd5b6001600660008373ffffffffffffffffffffffffffffffffffffffff1673ffffffffffffffffffffffffffffffffffffffff16815260200190815260200160002060006101000a81548160ff02191690831515021790555050565b601560009054906101000a900473ffffffffffffffffffffffffffffffffffffffff1673ffffffffffffffffffffffffffffffffffffffff1663fff6cae96040518163ffffffff1660e01b8152600401600060405180830381600087803b15801561238d57600080fd5b505af11580156123a1573d6000803e3d6000fd5b50505050565b60006123b1612670565b6123ba57600080fd5b601760009054906101000a900460ff161561243d576040517f08c379a00000000000000000000000000000000000000000000000000000000081526004018080602001828103825260098152602001807f54727920616761696e000000000000000000000000000000000000000000000081525060200191505060405180910390fd5b600082141561248a57827f72725a3b1e5bd622d6bcd1339bb31279c351abe8f541ac7fd320f24e1b1641f26018546040518082815260200191505060405180910390a26018549050612602565b60008212156124b6576124ab8260000360185461366d90919063ffffffff16565b6018819055506124d2565b6124cb826018546130bd90919063ffffffff16565b6018819055505b6000196fffffffffffffffffffffffffffffffff16601854111561250c576000196fffffffffffffffffffffffffffffffff166018819055505b61253a6018546012600a0a63ee6b2800026000198161252757fe5b066000190361314590919063ffffffff16565b601981905550600460009054906101000a900473ffffffffffffffffffffffffffffffffffffffff1673ffffffffffffffffffffffffffffffffffffffff1663fff6cae96040518163ffffffff1660e01b8152600401600060405180830381600087803b1580156125aa57600080fd5b505af11580156125be573d6000803e3d6000fd5b50505050827f72725a3b1e5bd622d6bcd1339bb31279c351abe8f541ac7fd320f24e1b1641f26018546040518082815260200191505060405180910390a260185490505b92915050565b601060009054906101000a900473ffffffffffffffffffffffffffffffffffffffff1681565b6000601760009054906101000a900460ff1615905090565b6000600260019054906101000a900473ffffffffffffffffffffffffffffffffffffffff16905090565b6000600260019054906101000a900473ffffffffffffffffffffffffffffffffffffffff1673ffffffffffffffffffffffffffffffffffffffff163373ffffffffffffffffffffffffffffffffffffffff1614905090565b6126d0612670565b6126d957600080fd5b80601c60008473ffffffffffffffffffffffffffffffffffffffff1673ffffffffffffffffffffffffffffffffffffffff16815260200190815260200160002060006101000a81548160ff0219169083151502179055505050565b606060018054600181600116156101000203166002900480601f0160208091040260200160405190810160405280929190818152602001828054600181600116156101000203166002900480156127cc5780601f106127a1576101008083540402835291602001916127cc565b820191906000526020600020905b8154815290600101906020018083116127af57829003601f168201915b5050505050905090565b60075481565b6127e4612670565b6127ed57600080fd5b6127f681613711565b50565b612802336136b7565b565b6000600460149054906101000a900460ff16806128255750612824612670565b5b806128795750600560003373ffffffffffffffffffffffffffffffffffffffff1673ffffffffffffffffffffffffffffffffffffffff16815260200190815260200160002060009054906101000a900460ff165b61288257600080fd5b6000601b60003373ffffffffffffffffffffffffffffffffffffffff1673ffffffffffffffffffffffffffffffffffffffff16815260200190815260200160002060008573ffffffffffffffffffffffffffffffffffffffff1673ffffffffffffffffffffffffffffffffffffffff168152602001908152602001600020549050808310612991576000601b60003373ffffffffffffffffffffffffffffffffffffffff1673ffffffffffffffffffffffffffffffffffffffff16815260200190815260200160002060008673ffffffffffffffffffffffffffffffffffffffff1673ffffffffffffffffffffffffffffffffffffffff16815260200190815260200160002081905550612a25565b6129a4838261366d90919063ffffffff16565b601b60003373ffffffffffffffffffffffffffffffffffffffff1673ffffffffffffffffffffffffffffffffffffffff16815260200190815260200160002060008673ffffffffffffffffffffffffffffffffffffffff1673ffffffffffffffffffffffffffffffffffffffff168152602001908152602001600020819055505b8373ffffffffffffffffffffffffffffffffffffffff163373ffffffffffffffffffffffffffffffffffffffff167f8c5be1e5ebec7d5bd14f71427d1e84f3dd0314c0f7b2291e5b200ac8c7c3b925601b60003373ffffffffffffffffffffffffffffffffffffffff1673ffffffffffffffffffffffffffffffffffffffff16815260200190815260200160002060008873ffffffffffffffffffffffffffffffffffffffff1673ffffffffffffffffffffffffffffffffffffffff168152602001908152602001600020546040518082815260200191505060405180910390a3600191505092915050565b601560009054906101000a900473ffffffffffffffffffffffffffffffffffffffff1681565b600082600073ffffffffffffffffffffffffffffffffffffffff168173ffffffffffffffffffffffffffffffffffffffff161415612b7457600080fd5b600460149054906101000a900460ff1680612b935750612b92612670565b5b80612be75750600560003373ffffffffffffffffffffffffffffffffffffffff1673ffffffffffffffffffffffffffffffffffffffff16815260200190815260200160002060009054906101000a900460ff165b612bf057600080fd5b612bfb33858561332a565b50600191505092915050565b6000612c1d82600361376b90919063ffffffff16565b9050919050565b60095481565b600f60009054906101000a900473ffffffffffffffffffffffffffffffffffffffff1681565b612c58612670565b612c6157600080fd5b82601560146101000a81548160ff021916908315150217905550612cb982612cab836012600a0a63ee6b28000260001981612c9857fe5b066000190361314590919063ffffffff16565b61384990919063ffffffff16565b601681905550505050565b600460149054906101000a900460ff1681565b612cdf612670565b612ce857600080fd5b60005b84849050811015612d4957612d3b33868684818110612d0657fe5b9050602002013573ffffffffffffffffffffffffffffffffffffffff16858585818110612d2f57fe5b9050602002013561332a565b508080600101915050612ceb565b5050505050565b6000600660008373ffffffffffffffffffffffffffffffffffffffff1673ffffffffffffffffffffffffffffffffffffffff16815260200190815260200160002060009054906101000a900460ff169050919050565b600080612e1f601954601a6000601560009054906101000a900473ffffffffffffffffffffffffffffffffffffffff1673ffffffffffffffffffffffffffffffffffffffff1673ffffffffffffffffffffffffffffffffffffffff1681526020019081526020016000205461314590919063ffffffff16565b9050612e60612e2c611971565b612e52612e4360028561384990919063ffffffff16565b8661384990919063ffffffff16565b61314590919063ffffffff16565b915050919050565b612e70612670565b612e7957600080fd5b6001600560008373ffffffffffffffffffffffffffffffffffffffff1673ffffffffffffffffffffffffffffffffffffffff16815260200190815260200160002060006101000a81548160ff02191690831515021790555050565b601160009054906101000a900473ffffffffffffffffffffffffffffffffffffffff1681565b612f02612670565b612f0b57600080fd5b82600f60006101000a81548173ffffffffffffffffffffffffffffffffffffffff021916908373ffffffffffffffffffffffffffffffffffffffff16021790555081601060006101000a81548173ffffffffffffffffffffffffffffffffffffffff021916908373ffffffffffffffffffffffffffffffffffffffff16021790555080601160006101000a81548173ffffffffffffffffffffffffffffffffffffffff021916908373ffffffffffffffffffffffffffffffffffffffff160217905550505050565b6000601b60008473ffffffffffffffffffffffffffffffffffffffff1673ffffffffffffffffffffffffffffffffffffffff16815260200190815260200160002060008373ffffffffffffffffffffffffffffffffffffffff1673ffffffffffffffffffffffffffffffffffffffff16815260200190815260200160002054905092915050565b613062612670565b61306b57600080fd5b613074816138cf565b50565b601460009054906101000a900473ffffffffffffffffffffffffffffffffffffffff1681565b601c6020528060005260406000206000915054906101000a900460ff1681565b60008082840190508381101561313b576040517f08c379a000000000000000000000000000000000000000000000000000000000815260040180806020018281038252601b8152602001807f536166654d6174683a206164646974696f6e206f766572666c6f77000000000081525060200191505060405180910390fd5b8091505092915050565b600061318783836040518060400160405280601a81526020017f536166654d6174683a206469766973696f6e206279207a65726f0000000000008152506139c9565b905092915050565b613199828261376b565b1561320c576040517f08c379a000000000000000000000000000000000000000000000000000000000815260040180806020018281038252601f8152602001807f526f6c65733a206163636f756e7420616c72656164792068617320726f6c650081525060200191505060405180910390fd5b60018260000160008373ffffffffffffffffffffffffffffffffffffffff1673ffffffffffffffffffffffffffffffffffffffff16815260200190815260200160002060006101000a81548160ff0219169083151502179055505050565b6000838311158290613317576040517f08c379a00000000000000000000000000000000000000000000000000000000081526004018080602001828103825283818151815260200191508051906020019080838360005b838110156132dc5780820151818401526020810190506132c1565b50505050905090810190601f1680156133095780820380516001836020036101000a031916815260200191505b509250505060405180910390fd5b5060008385039050809150509392505050565b6000601c60008573ffffffffffffffffffffffffffffffffffffffff1673ffffffffffffffffffffffffffffffffffffffff16815260200190815260200160002060009054906101000a900460ff161580156133d05750601c60008473ffffffffffffffffffffffffffffffffffffffff1673ffffffffffffffffffffffffffffffffffffffff16815260200190815260200160002060009054906101000a900460ff16155b613442576040517f08c379a000000000000000000000000000000000000000000000000000000000815260040180806020018281038252600c8152602001807f696e5f626c61636b6c697374000000000000000000000000000000000000000081525060200191505060405180910390fd5b601760009054906101000a900460ff161561346957613462848484613a8f565b9050613666565b60006134806019548461384990919063ffffffff16565b905061348a613bdf565b1561349857613497613cb6565b5b6134ea81601a60008873ffffffffffffffffffffffffffffffffffffffff1673ffffffffffffffffffffffffffffffffffffffff1681526020019081526020016000205461366d90919063ffffffff16565b601a60008773ffffffffffffffffffffffffffffffffffffffff1673ffffffffffffffffffffffffffffffffffffffff1681526020019081526020016000208190555060006135398686614392565b613543578161354f565b61354e86868461449b565b5b90506135a381601a60008873ffffffffffffffffffffffffffffffffffffffff1673ffffffffffffffffffffffffffffffffffffffff168152602001908152602001600020546130bd90919063ffffffff16565b601a60008773ffffffffffffffffffffffffffffffffffffffff1673ffffffffffffffffffffffffffffffffffffffff168152602001908152602001600020819055508473ffffffffffffffffffffffffffffffffffffffff168673ffffffffffffffffffffffffffffffffffffffff167fddf252ad1be2c89b69c2b068fc378daa952ba7f163c4a11628f55a4df523b3ef61364a6019548561314590919063ffffffff16565b6040518082815260200191505060405180910390a36001925050505b9392505050565b60006136af83836040518060400160405280601e81526020017f536166654d6174683a207375627472616374696f6e206f766572666c6f77000081525061326a565b905092915050565b6136cb81600361466890919063ffffffff16565b8073ffffffffffffffffffffffffffffffffffffffff167fe94479a9f7e1952cc78f2d6baab678adc1b772d936c6583def489e524cb6669260405160405180910390a250565b61372581600361318f90919063ffffffff16565b8073ffffffffffffffffffffffffffffffffffffffff167f6ae172837ea30b801fbfcdd4108aa1d5bf8ff775444fd70256b44e6bf3dfc3f660405160405180910390a250565b60008073ffffffffffffffffffffffffffffffffffffffff168273ffffffffffffffffffffffffffffffffffffffff1614156137f2576040517f08c379a00000000000000000000000000000000000000000000000000000000081526004018080602001828103825260228152602001806147986022913960400191505060405180910390fd5b8260000160008373ffffffffffffffffffffffffffffffffffffffff1673ffffffffffffffffffffffffffffffffffffffff16815260200190815260200160002060009054906101000a900460ff16905092915050565b60008083141561385c57600090506138c9565b600082840290508284828161386d57fe5b04146138c4576040517f08c379a00000000000000000000000000000000000000000000000000000000081526004018080602001828103825260218152602001806147776021913960400191505060405180910390fd5b809150505b92915050565b600073ffffffffffffffffffffffffffffffffffffffff168173ffffffffffffffffffffffffffffffffffffffff16141561390957600080fd5b8073ffffffffffffffffffffffffffffffffffffffff16600260019054906101000a900473ffffffffffffffffffffffffffffffffffffffff1673ffffffffffffffffffffffffffffffffffffffff167f8be0079c531659141344cd1fd0a4f28419497f9722a3daafe3b4186f6b6457e060405160405180910390a380600260016101000a81548173ffffffffffffffffffffffffffffffffffffffff021916908373ffffffffffffffffffffffffffffffffffffffff16021790555050565b60008083118290613a75576040517f08c379a00000000000000000000000000000000000000000000000000000000081526004018080602001828103825283818151815260200191508051906020019080838360005b83811015613a3a578082015181840152602081019050613a1f565b50505050905090810190601f168015613a675780820380516001836020036101000a031916815260200191505b509250505060405180910390fd5b506000838581613a8157fe5b049050809150509392505050565b600080613aa76019548461384990919063ffffffff16565b9050613afb81601a60008873ffffffffffffffffffffffffffffffffffffffff1673ffffffffffffffffffffffffffffffffffffffff1681526020019081526020016000205461366d90919063ffffffff16565b601a60008773ffffffffffffffffffffffffffffffffffffffff1673ffffffffffffffffffffffffffffffffffffffff16815260200190815260200160002081905550613b9081601a60008773ffffffffffffffffffffffffffffffffffffffff1673ffffffffffffffffffffffffffffffffffffffff168152602001908152602001600020546130bd90919063ffffffff16565b601a60008673ffffffffffffffffffffffffffffffffffffffff1673ffffffffffffffffffffffffffffffffffffffff1681526020019081526020016000208190555060019150509392505050565b6000601560009054906101000a900473ffffffffffffffffffffffffffffffffffffffff1673ffffffffffffffffffffffffffffffffffffffff163373ffffffffffffffffffffffffffffffffffffffff1614158015613c4c5750601760009054906101000a900460ff16155b8015613c645750601560149054906101000a900460ff165b8015613cb15750601654601a60003073ffffffffffffffffffffffffffffffffffffffff1673ffffffffffffffffffffffffffffffffffffffff1681526020019081526020016000205410155b905090565b6001601760006101000a81548160ff0219169083151502179055506000613ce16012546013546116e4565b613ced57600754613cf0565b60005b90506000613d48601954601a60003073ffffffffffffffffffffffffffffffffffffffff1673ffffffffffffffffffffffffffffffffffffffff1681526020019081526020016000205461314590919063ffffffff16565b90506000613d866002613d78600b54613d6a878761384990919063ffffffff16565b61314590919063ffffffff16565b61314590919063ffffffff16565b90506000613d9d828461366d90919063ffffffff16565b90506000600267ffffffffffffffff81118015613db957600080fd5b50604051908082528060200260200182016040528015613de85781602001602082028036833780820191505090505b5090503081600081518110613df957fe5b602002602001019073ffffffffffffffffffffffffffffffffffffffff16908173ffffffffffffffffffffffffffffffffffffffff1681525050601460009054906101000a900473ffffffffffffffffffffffffffffffffffffffff1673ffffffffffffffffffffffffffffffffffffffff1663ad5c46486040518163ffffffff1660e01b815260040160206040518083038186803b158015613e9b57600080fd5b505afa158015613eaf573d6000803e3d6000fd5b505050506040513d6020811015613ec557600080fd5b810190808051906020019092919050505081600181518110613ee357fe5b602002602001019073ffffffffffffffffffffffffffffffffffffffff16908173ffffffffffffffffffffffffffffffffffffffff16815250506000479050601460009054906101000a900473ffffffffffffffffffffffffffffffffffffffff1673ffffffffffffffffffffffffffffffffffffffff1663791ac9478460008530426040518663ffffffff1660e01b815260040180868152602001858152602001806020018473ffffffffffffffffffffffffffffffffffffffff168152602001838152602001828103825285818151815260200191508051906020019060200280838360005b83811015613fe6578082015181840152602081019050613fcb565b505050509050019650505050505050600060405180830381600087803b15801561400f57600080fd5b505af1158015614023573d6000803e3d6000fd5b50505050600061403c824761366d90919063ffffffff16565b9050600061406861405760028a61314590919063ffffffff16565b600b5461366d90919063ffffffff16565b905060006140a46002614096846140888d8861384990919063ffffffff16565b61314590919063ffffffff16565b61314590919063ffffffff16565b905060006140cf836140c16009548761384990919063ffffffff16565b61314590919063ffffffff16565b905060006140fa846140ec6008548861384990919063ffffffff16565b61314590919063ffffffff16565b90506000601060009054906101000a900473ffffffffffffffffffffffffffffffffffffffff1673ffffffffffffffffffffffffffffffffffffffff168261753090604051806000019050600060405180830381858888f193505050503d8060008114614183576040519150601f19603f3d011682016040523d82523d6000602084013e614188565b606091505b50509050601160009054906101000a900473ffffffffffffffffffffffffffffffffffffffff1673ffffffffffffffffffffffffffffffffffffffff168361753090604051806000019050600060405180830381858888f193505050503d8060008114614211576040519150601f19603f3d011682016040523d82523d6000602084013e614216565b606091505b5050809150506000905060008a111561436957601460009054906101000a900473ffffffffffffffffffffffffffffffffffffffff1673ffffffffffffffffffffffffffffffffffffffff1663f305d71985308d600080600f60009054906101000a900473ffffffffffffffffffffffffffffffffffffffff16426040518863ffffffff1660e01b8152600401808773ffffffffffffffffffffffffffffffffffffffff1681526020018681526020018581526020018481526020018373ffffffffffffffffffffffffffffffffffffffff16815260200182815260200196505050505050506060604051808303818588803b15801561431557600080fd5b505af1158015614329573d6000803e3d6000fd5b50505050506040513d606081101561434057600080fd5b810190808051906020019092919080519060200190929190805190602001909291905050505050505b5050505050505050505050506000601760006101000a81548160ff021916908315150217905550565b60008273ffffffffffffffffffffffffffffffffffffffff16601560009054906101000a900473ffffffffffffffffffffffffffffffffffffffff1673ffffffffffffffffffffffffffffffffffffffff16148061443d57508173ffffffffffffffffffffffffffffffffffffffff16601560009054906101000a900473ffffffffffffffffffffffffffffffffffffffff1673ffffffffffffffffffffffffffffffffffffffff16145b80156144935750600660008473ffffffffffffffffffffffffffffffffffffffff1673ffffffffffffffffffffffffffffffffffffffff16815260200190815260200160002060009054906101000a900460ff16155b905092915050565b600080600b549050601560009054906101000a900473ffffffffffffffffffffffffffffffffffffffff1673ffffffffffffffffffffffffffffffffffffffff168473ffffffffffffffffffffffffffffffffffffffff1614156145115761450e600a54826130bd90919063ffffffff16565b90505b600061453a600c5461452c848761384990919063ffffffff16565b61314590919063ffffffff16565b905061458e81601a60003073ffffffffffffffffffffffffffffffffffffffff1673ffffffffffffffffffffffffffffffffffffffff168152602001908152602001600020546130bd90919063ffffffff16565b601a60003073ffffffffffffffffffffffffffffffffffffffff1673ffffffffffffffffffffffffffffffffffffffff168152602001908152602001600020819055503073ffffffffffffffffffffffffffffffffffffffff168673ffffffffffffffffffffffffffffffffffffffff167fddf252ad1be2c89b69c2b068fc378daa952ba7f163c4a11628f55a4df523b3ef6146356019548561314590919063ffffffff16565b6040518082815260200191505060405180910390a361465d818561366d90919063ffffffff16565b925050509392505050565b614672828261376b565b6146c7576040517f08c379a00000000000000000000000000000000000000000000000000000000081526004018080602001828103825260218152602001806147566021913960400191505060405180910390fd5b60008260000160008373ffffffffffffffffffffffffffffffffffffffff1673ffffffffffffffffffffffffffffffffffffffff16815260200190815260200160002060006101000a81548160ff021916908315150217905550505056fe4d696e746572526f6c653a2063616c6c657220646f6573206e6f74206861766520746865204d696e74657220726f6c65526f6c65733a206163636f756e7420646f6573206e6f74206861766520726f6c65536166654d6174683a206d756c7469706c69636174696f6e206f766572666c6f77526f6c65733a206163636f756e7420697320746865207a65726f2061646472657373a26469706673582212201e9234ea8884d9288e0331691f0005b81aa0dd07b77e54c9e446786df3d024ca64736f6c63430007060033526f6c65733a206163636f756e7420697320746865207a65726f2061646472657373",
					"opcodes": "PUSH1 0x80 PUSH1 0x40 MSTORE PUSH1 0x5 PUSH1 0x7 SSTORE PUSH1 0x3 PUSH1 0x8 SSTORE PUSH1 0x5 PUSH1 0x9 SSTORE PUSH1 0x5 PUSH1 0xA SSTORE PUSH3 0x51 PUSH1 0x9 SLOAD PUSH3 0x3D PUSH1 0x8 SLOAD PUSH1 0x7 SLOAD PUSH3 0x994 PUSH1 0x20 SHL PUSH3 0x30BD OR SWAP1 SWAP2 SWAP1 PUSH1 0x20 SHR JUMP JUMPDEST PUSH3 0x994 PUSH1 0x20 SHL PUSH3 0x30BD OR SWAP1 SWAP2 SWAP1 PUSH1 0x20 SHR JUMP JUMPDEST PUSH1 0xB SSTORE PUSH1 0x64 PUSH1 0xC SSTORE PUSH2 0xDEAD PUSH1 0xD PUSH1 0x0 PUSH2 0x100 EXP DUP2 SLOAD DUP2 PUSH20 0xFFFFFFFFFFFFFFFFFFFFFFFFFFFFFFFFFFFFFFFF MUL NOT AND SWAP1 DUP4 PUSH20 0xFFFFFFFFFFFFFFFFFFFFFFFFFFFFFFFFFFFFFFFF AND MUL OR SWAP1 SSTORE POP PUSH1 0x0 PUSH1 0xE PUSH1 0x0 PUSH2 0x100 EXP DUP2 SLOAD DUP2 PUSH20 0xFFFFFFFFFFFFFFFFFFFFFFFFFFFFFFFFFFFFFFFF MUL NOT AND SWAP1 DUP4 PUSH20 0xFFFFFFFFFFFFFFFFFFFFFFFFFFFFFFFFFFFFFFFF AND MUL OR SWAP1 SSTORE POP PUSH1 0x32 PUSH1 0x12 SSTORE PUSH1 0x64 PUSH1 0x13 SSTORE PUSH1 0x1 PUSH1 0x15 PUSH1 0x14 PUSH2 0x100 EXP DUP2 SLOAD DUP2 PUSH1 0xFF MUL NOT AND SWAP1 DUP4 ISZERO ISZERO MUL OR SWAP1 SSTORE POP PUSH2 0x2710 PUSH1 0xA PUSH1 0x12 PUSH1 0xA EXP PUSH4 0xEE6B2800 MUL PUSH1 0x0 NOT DUP2 PUSH3 0x11E JUMPI INVALID JUMPDEST MOD PUSH1 0x0 NOT SUB MUL DUP2 PUSH3 0x12C JUMPI INVALID JUMPDEST DIV PUSH1 0x16 SSTORE CALLVALUE DUP1 ISZERO PUSH3 0x13D JUMPI PUSH1 0x0 DUP1 REVERT JUMPDEST POP PUSH1 0x40 MLOAD DUP1 PUSH1 0x40 ADD PUSH1 0x40 MSTORE DUP1 PUSH1 0xA DUP2 MSTORE PUSH1 0x20 ADD PUSH32 0x526176656E746F6B656E00000000000000000000000000000000000000000000 DUP2 MSTORE POP PUSH1 0x40 MLOAD DUP1 PUSH1 0x40 ADD PUSH1 0x40 MSTORE DUP1 PUSH1 0xA DUP2 MSTORE PUSH1 0x20 ADD PUSH32 0x526176656E746F6B656E00000000000000000000000000000000000000000000 DUP2 MSTORE POP PUSH1 0x12 DUP3 PUSH1 0x0 SWAP1 DUP1 MLOAD SWAP1 PUSH1 0x20 ADD SWAP1 PUSH3 0x1C4 SWAP3 SWAP2 SWAP1 PUSH3 0xE5A JUMP JUMPDEST POP DUP2 PUSH1 0x1 SWAP1 DUP1 MLOAD SWAP1 PUSH1 0x20 ADD SWAP1 PUSH3 0x1DD SWAP3 SWAP2 SWAP1 PUSH3 0xE5A JUMP JUMPDEST POP DUP1 PUSH1 0x2 PUSH1 0x0 PUSH2 0x100 EXP DUP2 SLOAD DUP2 PUSH1 0xFF MUL NOT AND SWAP1 DUP4 PUSH1 0xFF AND MUL OR SWAP1 SSTORE POP POP POP POP CALLER PUSH1 0x2 PUSH1 0x1 PUSH2 0x100 EXP DUP2 SLOAD DUP2 PUSH20 0xFFFFFFFFFFFFFFFFFFFFFFFFFFFFFFFFFFFFFFFF MUL NOT AND SWAP1 DUP4 PUSH20 0xFFFFFFFFFFFFFFFFFFFFFFFFFFFFFFFFFFFFFFFF AND MUL OR SWAP1 SSTORE POP PUSH3 0x24E CALLER PUSH3 0xA1D PUSH1 0x20 SHL PUSH1 0x20 SHR JUMP JUMPDEST PUSH20 0x10ED43C718714EB63D5AA57B78B54704E256024E PUSH1 0x14 PUSH1 0x0 PUSH2 0x100 EXP DUP2 SLOAD DUP2 PUSH20 0xFFFFFFFFFFFFFFFFFFFFFFFFFFFFFFFFFFFFFFFF MUL NOT AND SWAP1 DUP4 PUSH20 0xFFFFFFFFFFFFFFFFFFFFFFFFFFFFFFFFFFFFFFFF AND MUL OR SWAP1 SSTORE POP PUSH1 0x14 PUSH1 0x0 SWAP1 SLOAD SWAP1 PUSH2 0x100 EXP SWAP1 DIV PUSH20 0xFFFFFFFFFFFFFFFFFFFFFFFFFFFFFFFFFFFFFFFF AND PUSH20 0xFFFFFFFFFFFFFFFFFFFFFFFFFFFFFFFFFFFFFFFF AND PUSH4 0xC45A0155 PUSH1 0x40 MLOAD DUP2 PUSH4 0xFFFFFFFF AND PUSH1 0xE0 SHL DUP2 MSTORE PUSH1 0x4 ADD PUSH1 0x20 PUSH1 0x40 MLOAD DUP1 DUP4 SUB DUP2 DUP7 DUP1 EXTCODESIZE ISZERO DUP1 ISZERO PUSH3 0x30C JUMPI PUSH1 0x0 DUP1 REVERT JUMPDEST POP GAS STATICCALL ISZERO DUP1 ISZERO PUSH3 0x321 JUMPI RETURNDATASIZE PUSH1 0x0 DUP1 RETURNDATACOPY RETURNDATASIZE PUSH1 0x0 REVERT JUMPDEST POP POP POP POP PUSH1 0x40 MLOAD RETURNDATASIZE PUSH1 0x20 DUP2 LT ISZERO PUSH3 0x338 JUMPI PUSH1 0x0 DUP1 REVERT JUMPDEST DUP2 ADD SWAP1 DUP1 DUP1 MLOAD SWAP1 PUSH1 0x20 ADD SWAP1 SWAP3 SWAP2 SWAP1 POP POP POP PUSH20 0xFFFFFFFFFFFFFFFFFFFFFFFFFFFFFFFFFFFFFFFF AND PUSH4 0xC9C65396 PUSH1 0x14 PUSH1 0x0 SWAP1 SLOAD SWAP1 PUSH2 0x100 EXP SWAP1 DIV PUSH20 0xFFFFFFFFFFFFFFFFFFFFFFFFFFFFFFFFFFFFFFFF AND PUSH20 0xFFFFFFFFFFFFFFFFFFFFFFFFFFFFFFFFFFFFFFFF AND PUSH4 0xAD5C4648 PUSH1 0x40 MLOAD DUP2 PUSH4 0xFFFFFFFF AND PUSH1 0xE0 SHL DUP2 MSTORE PUSH1 0x4 ADD PUSH1 0x20 PUSH1 0x40 MLOAD DUP1 DUP4 SUB DUP2 DUP7 DUP1 EXTCODESIZE ISZERO DUP1 ISZERO PUSH3 0x3CD JUMPI PUSH1 0x0 DUP1 REVERT JUMPDEST POP GAS STATICCALL ISZERO DUP1 ISZERO PUSH3 0x3E2 JUMPI RETURNDATASIZE PUSH1 0x0 DUP1 RETURNDATACOPY RETURNDATASIZE PUSH1 0x0 REVERT JUMPDEST POP POP POP POP PUSH1 0x40 MLOAD RETURNDATASIZE PUSH1 0x20 DUP2 LT ISZERO PUSH3 0x3F9 JUMPI PUSH1 0x0 DUP1 REVERT JUMPDEST DUP2 ADD SWAP1 DUP1 DUP1 MLOAD SWAP1 PUSH1 0x20 ADD SWAP1 SWAP3 SWAP2 SWAP1 POP POP POP ADDRESS PUSH1 0x40 MLOAD DUP4 PUSH4 0xFFFFFFFF AND PUSH1 0xE0 SHL DUP2 MSTORE PUSH1 0x4 ADD DUP1 DUP4 PUSH20 0xFFFFFFFFFFFFFFFFFFFFFFFFFFFFFFFFFFFFFFFF AND DUP2 MSTORE PUSH1 0x20 ADD DUP3 PUSH20 0xFFFFFFFFFFFFFFFFFFFFFFFFFFFFFFFFFFFFFFFF AND DUP2 MSTORE PUSH1 0x20 ADD SWAP3 POP POP POP PUSH1 0x20 PUSH1 0x40 MLOAD DUP1 DUP4 SUB DUP2 PUSH1 0x0 DUP8 DUP1 EXTCODESIZE ISZERO DUP1 ISZERO PUSH3 0x475 JUMPI PUSH1 0x0 DUP1 REVERT JUMPDEST POP GAS CALL ISZERO DUP1 ISZERO PUSH3 0x48A JUMPI RETURNDATASIZE PUSH1 0x0 DUP1 RETURNDATACOPY RETURNDATASIZE PUSH1 0x0 REVERT JUMPDEST POP POP POP POP PUSH1 0x40 MLOAD RETURNDATASIZE PUSH1 0x20 DUP2 LT ISZERO PUSH3 0x4A1 JUMPI PUSH1 0x0 DUP1 REVERT JUMPDEST DUP2 ADD SWAP1 DUP1 DUP1 MLOAD SWAP1 PUSH1 0x20 ADD SWAP1 SWAP3 SWAP2 SWAP1 POP POP POP PUSH1 0x15 PUSH1 0x0 PUSH2 0x100 EXP DUP2 SLOAD DUP2 PUSH20 0xFFFFFFFFFFFFFFFFFFFFFFFFFFFFFFFFFFFFFFFF MUL NOT AND SWAP1 DUP4 PUSH20 0xFFFFFFFFFFFFFFFFFFFFFFFFFFFFFFFFFFFFFFFF AND MUL OR SWAP1 SSTORE POP PUSH20 0x2EFEBB6C26E709B9240A9C102116D1831BAC6319 PUSH1 0xF PUSH1 0x0 PUSH2 0x100 EXP DUP2 SLOAD DUP2 PUSH20 0xFFFFFFFFFFFFFFFFFFFFFFFFFFFFFFFFFFFFFFFF MUL NOT AND SWAP1 DUP4 PUSH20 0xFFFFFFFFFFFFFFFFFFFFFFFFFFFFFFFFFFFFFFFF AND MUL OR SWAP1 SSTORE POP PUSH20 0x2EFEBB6C26E709B9240A9C102116D1831BAC6319 PUSH1 0x10 PUSH1 0x0 PUSH2 0x100 EXP DUP2 SLOAD DUP2 PUSH20 0xFFFFFFFFFFFFFFFFFFFFFFFFFFFFFFFFFFFFFFFF MUL NOT AND SWAP1 DUP4 PUSH20 0xFFFFFFFFFFFFFFFFFFFFFFFFFFFFFFFFFFFFFFFF AND MUL OR SWAP1 SSTORE POP PUSH20 0x2EFEBB6C26E709B9240A9C102116D1831BAC6319 PUSH1 0x11 PUSH1 0x0 PUSH2 0x100 EXP DUP2 SLOAD DUP2 PUSH20 0xFFFFFFFFFFFFFFFFFFFFFFFFFFFFFFFFFFFFFFFF MUL NOT AND SWAP1 DUP4 PUSH20 0xFFFFFFFFFFFFFFFFFFFFFFFFFFFFFFFFFFFFFFFF AND MUL OR SWAP1 SSTORE POP PUSH32 0xFFFFFFFFFFFFFFFFFFFFFFFFFFFFFFFFFFFFFFFFFFFFFFFFFFFFFFFFFFFFFFFF PUSH1 0x1B PUSH1 0x0 ADDRESS PUSH20 0xFFFFFFFFFFFFFFFFFFFFFFFFFFFFFFFFFFFFFFFF AND PUSH20 0xFFFFFFFFFFFFFFFFFFFFFFFFFFFFFFFFFFFFFFFF AND DUP2 MSTORE PUSH1 0x20 ADD SWAP1 DUP2 MSTORE PUSH1 0x20 ADD PUSH1 0x0 KECCAK256 PUSH1 0x0 PUSH1 0x14 PUSH1 0x0 SWAP1 SLOAD SWAP1 PUSH2 0x100 EXP SWAP1 DIV PUSH20 0xFFFFFFFFFFFFFFFFFFFFFFFFFFFFFFFFFFFFFFFF AND PUSH20 0xFFFFFFFFFFFFFFFFFFFFFFFFFFFFFFFFFFFFFFFF AND PUSH20 0xFFFFFFFFFFFFFFFFFFFFFFFFFFFFFFFFFFFFFFFF AND DUP2 MSTORE PUSH1 0x20 ADD SWAP1 DUP2 MSTORE PUSH1 0x20 ADD PUSH1 0x0 KECCAK256 DUP2 SWAP1 SSTORE POP PUSH1 0x15 PUSH1 0x0 SWAP1 SLOAD SWAP1 PUSH2 0x100 EXP SWAP1 DIV PUSH20 0xFFFFFFFFFFFFFFFFFFFFFFFFFFFFFFFFFFFFFFFF AND PUSH1 0x4 PUSH1 0x0 PUSH2 0x100 EXP DUP2 SLOAD DUP2 PUSH20 0xFFFFFFFFFFFFFFFFFFFFFFFFFFFFFFFFFFFFFFFF MUL NOT AND SWAP1 DUP4 PUSH20 0xFFFFFFFFFFFFFFFFFFFFFFFFFFFFFFFFFFFFFFFF AND MUL OR SWAP1 SSTORE POP PUSH1 0x12 PUSH1 0xA EXP PUSH4 0xEE6B2800 MUL PUSH1 0x18 DUP2 SWAP1 SSTORE POP PUSH1 0x12 PUSH1 0xA EXP PUSH4 0xEE6B2800 MUL PUSH1 0x0 NOT DUP2 PUSH3 0x73E JUMPI INVALID JUMPDEST MOD PUSH1 0x0 NOT SUB PUSH1 0x1A PUSH1 0x0 PUSH1 0x10 PUSH1 0x0 SWAP1 SLOAD SWAP1 PUSH2 0x100 EXP SWAP1 DIV PUSH20 0xFFFFFFFFFFFFFFFFFFFFFFFFFFFFFFFFFFFFFFFF AND PUSH20 0xFFFFFFFFFFFFFFFFFFFFFFFFFFFFFFFFFFFFFFFF AND PUSH20 0xFFFFFFFFFFFFFFFFFFFFFFFFFFFFFFFFFFFFFFFF AND DUP2 MSTORE PUSH1 0x20 ADD SWAP1 DUP2 MSTORE PUSH1 0x20 ADD PUSH1 0x0 KECCAK256 DUP2 SWAP1 SSTORE POP PUSH3 0x7DE PUSH1 0x18 SLOAD PUSH1 0x12 PUSH1 0xA EXP PUSH4 0xEE6B2800 MUL PUSH1 0x0 NOT DUP2 PUSH3 0x7C5 JUMPI INVALID JUMPDEST MOD PUSH1 0x0 NOT SUB PUSH3 0xA7E PUSH1 0x20 SHL PUSH3 0x3145 OR SWAP1 SWAP2 SWAP1 PUSH1 0x20 SHR JUMP JUMPDEST PUSH1 0x19 DUP2 SWAP1 SSTORE POP PUSH1 0x0 PUSH1 0x4 PUSH1 0x14 PUSH2 0x100 EXP DUP2 SLOAD DUP2 PUSH1 0xFF MUL NOT AND SWAP1 DUP4 ISZERO ISZERO MUL OR SWAP1 SSTORE POP PUSH1 0x1 PUSH1 0x6 PUSH1 0x0 PUSH1 0x10 PUSH1 0x0 SWAP1 SLOAD SWAP1 PUSH2 0x100 EXP SWAP1 DIV PUSH20 0xFFFFFFFFFFFFFFFFFFFFFFFFFFFFFFFFFFFFFFFF AND PUSH20 0xFFFFFFFFFFFFFFFFFFFFFFFFFFFFFFFFFFFFFFFF AND PUSH20 0xFFFFFFFFFFFFFFFFFFFFFFFFFFFFFFFFFFFFFFFF AND DUP2 MSTORE PUSH1 0x20 ADD SWAP1 DUP2 MSTORE PUSH1 0x20 ADD PUSH1 0x0 KECCAK256 PUSH1 0x0 PUSH2 0x100 EXP DUP2 SLOAD DUP2 PUSH1 0xFF MUL NOT AND SWAP1 DUP4 ISZERO ISZERO MUL OR SWAP1 SSTORE POP PUSH1 0x1 PUSH1 0x6 PUSH1 0x0 ADDRESS PUSH20 0xFFFFFFFFFFFFFFFFFFFFFFFFFFFFFFFFFFFFFFFF AND PUSH20 0xFFFFFFFFFFFFFFFFFFFFFFFFFFFFFFFFFFFFFFFF AND DUP2 MSTORE PUSH1 0x20 ADD SWAP1 DUP2 MSTORE PUSH1 0x20 ADD PUSH1 0x0 KECCAK256 PUSH1 0x0 PUSH2 0x100 EXP DUP2 SLOAD DUP2 PUSH1 0xFF MUL NOT AND SWAP1 DUP4 ISZERO ISZERO MUL OR SWAP1 SSTORE POP PUSH3 0x904 PUSH1 0x10 PUSH1 0x0 SWAP1 SLOAD SWAP1 PUSH2 0x100 EXP SWAP1 DIV PUSH20 0xFFFFFFFFFFFFFFFFFFFFFFFFFFFFFFFFFFFFFFFF AND PUSH3 0xAD0 PUSH1 0x20 SHL PUSH1 0x20 SHR JUMP JUMPDEST PUSH1 0x10 PUSH1 0x0 SWAP1 SLOAD SWAP1 PUSH2 0x100 EXP SWAP1 DIV PUSH20 0xFFFFFFFFFFFFFFFFFFFFFFFFFFFFFFFFFFFFFFFF AND PUSH20 0xFFFFFFFFFFFFFFFFFFFFFFFFFFFFFFFFFFFFFFFF AND PUSH1 0x0 PUSH20 0xFFFFFFFFFFFFFFFFFFFFFFFFFFFFFFFFFFFFFFFF AND PUSH32 0xDDF252AD1BE2C89B69C2B068FC378DAA952BA7F163C4A11628F55A4DF523B3EF PUSH1 0x18 SLOAD PUSH1 0x40 MLOAD DUP1 DUP3 DUP2 MSTORE PUSH1 0x20 ADD SWAP2 POP POP PUSH1 0x40 MLOAD DUP1 SWAP2 SUB SWAP1 LOG3 PUSH3 0xF10 JUMP JUMPDEST PUSH1 0x0 DUP1 DUP3 DUP5 ADD SWAP1 POP DUP4 DUP2 LT ISZERO PUSH3 0xA13 JUMPI PUSH1 0x40 MLOAD PUSH32 0x8C379A000000000000000000000000000000000000000000000000000000000 DUP2 MSTORE PUSH1 0x4 ADD DUP1 DUP1 PUSH1 0x20 ADD DUP3 DUP2 SUB DUP3 MSTORE PUSH1 0x1B DUP2 MSTORE PUSH1 0x20 ADD DUP1 PUSH32 0x536166654D6174683A206164646974696F6E206F766572666C6F770000000000 DUP2 MSTORE POP PUSH1 0x20 ADD SWAP2 POP POP PUSH1 0x40 MLOAD DUP1 SWAP2 SUB SWAP1 REVERT JUMPDEST DUP1 SWAP2 POP POP SWAP3 SWAP2 POP POP JUMP JUMPDEST PUSH3 0xA38 DUP2 PUSH1 0x3 PUSH3 0xBCB PUSH1 0x20 SHL PUSH3 0x318F OR SWAP1 SWAP2 SWAP1 PUSH1 0x20 SHR JUMP JUMPDEST DUP1 PUSH20 0xFFFFFFFFFFFFFFFFFFFFFFFFFFFFFFFFFFFFFFFF AND PUSH32 0x6AE172837EA30B801FBFCDD4108AA1D5BF8FF775444FD70256B44E6BF3DFC3F6 PUSH1 0x40 MLOAD PUSH1 0x40 MLOAD DUP1 SWAP2 SUB SWAP1 LOG2 POP JUMP JUMPDEST PUSH1 0x0 PUSH3 0xAC8 DUP4 DUP4 PUSH1 0x40 MLOAD DUP1 PUSH1 0x40 ADD PUSH1 0x40 MSTORE DUP1 PUSH1 0x1A DUP2 MSTORE PUSH1 0x20 ADD PUSH32 0x536166654D6174683A206469766973696F6E206279207A65726F000000000000 DUP2 MSTORE POP PUSH3 0xCAF PUSH1 0x20 SHL PUSH1 0x20 SHR JUMP JUMPDEST SWAP1 POP SWAP3 SWAP2 POP POP JUMP JUMPDEST PUSH1 0x0 PUSH20 0xFFFFFFFFFFFFFFFFFFFFFFFFFFFFFFFFFFFFFFFF AND DUP2 PUSH20 0xFFFFFFFFFFFFFFFFFFFFFFFFFFFFFFFFFFFFFFFF AND EQ ISZERO PUSH3 0xB0B JUMPI PUSH1 0x0 DUP1 REVERT JUMPDEST DUP1 PUSH20 0xFFFFFFFFFFFFFFFFFFFFFFFFFFFFFFFFFFFFFFFF AND PUSH1 0x2 PUSH1 0x1 SWAP1 SLOAD SWAP1 PUSH2 0x100 EXP SWAP1 DIV PUSH20 0xFFFFFFFFFFFFFFFFFFFFFFFFFFFFFFFFFFFFFFFF AND PUSH20 0xFFFFFFFFFFFFFFFFFFFFFFFFFFFFFFFFFFFFFFFF AND PUSH32 0x8BE0079C531659141344CD1FD0A4F28419497F9722A3DAAFE3B4186F6B6457E0 PUSH1 0x40 MLOAD PUSH1 0x40 MLOAD DUP1 SWAP2 SUB SWAP1 LOG3 DUP1 PUSH1 0x2 PUSH1 0x1 PUSH2 0x100 EXP DUP2 SLOAD DUP2 PUSH20 0xFFFFFFFFFFFFFFFFFFFFFFFFFFFFFFFFFFFFFFFF MUL NOT AND SWAP1 DUP4 PUSH20 0xFFFFFFFFFFFFFFFFFFFFFFFFFFFFFFFFFFFFFFFF AND MUL OR SWAP1 SSTORE POP POP JUMP JUMPDEST PUSH3 0xBDD DUP3 DUP3 PUSH3 0xD7A PUSH1 0x20 SHL PUSH1 0x20 SHR JUMP JUMPDEST ISZERO PUSH3 0xC51 JUMPI PUSH1 0x40 MLOAD PUSH32 0x8C379A000000000000000000000000000000000000000000000000000000000 DUP2 MSTORE PUSH1 0x4 ADD DUP1 DUP1 PUSH1 0x20 ADD DUP3 DUP2 SUB DUP3 MSTORE PUSH1 0x1F DUP2 MSTORE PUSH1 0x20 ADD DUP1 PUSH32 0x526F6C65733A206163636F756E7420616C72656164792068617320726F6C6500 DUP2 MSTORE POP PUSH1 0x20 ADD SWAP2 POP POP PUSH1 0x40 MLOAD DUP1 SWAP2 SUB SWAP1 REVERT JUMPDEST PUSH1 0x1 DUP3 PUSH1 0x0 ADD PUSH1 0x0 DUP4 PUSH20 0xFFFFFFFFFFFFFFFFFFFFFFFFFFFFFFFFFFFFFFFF AND PUSH20 0xFFFFFFFFFFFFFFFFFFFFFFFFFFFFFFFFFFFFFFFF AND DUP2 MSTORE PUSH1 0x20 ADD SWAP1 DUP2 MSTORE PUSH1 0x20 ADD PUSH1 0x0 KECCAK256 PUSH1 0x0 PUSH2 0x100 EXP DUP2 SLOAD DUP2 PUSH1 0xFF MUL NOT AND SWAP1 DUP4 ISZERO ISZERO MUL OR SWAP1 SSTORE POP POP POP JUMP JUMPDEST PUSH1 0x0 DUP1 DUP4 GT DUP3 SWAP1 PUSH3 0xD5F JUMPI PUSH1 0x40 MLOAD PUSH32 0x8C379A000000000000000000000000000000000000000000000000000000000 DUP2 MSTORE PUSH1 0x4 ADD DUP1 DUP1 PUSH1 0x20 ADD DUP3 DUP2 SUB DUP3 MSTORE DUP4 DUP2 DUP2 MLOAD DUP2 MSTORE PUSH1 0x20 ADD SWAP2 POP DUP1 MLOAD SWAP1 PUSH1 0x20 ADD SWAP1 DUP1 DUP4 DUP4 PUSH1 0x0 JUMPDEST DUP4 DUP2 LT ISZERO PUSH3 0xD23 JUMPI DUP1 DUP3 ADD MLOAD DUP2 DUP5 ADD MSTORE PUSH1 0x20 DUP2 ADD SWAP1 POP PUSH3 0xD06 JUMP JUMPDEST POP POP POP POP SWAP1 POP SWAP1 DUP2 ADD SWAP1 PUSH1 0x1F AND DUP1 ISZERO PUSH3 0xD51 JUMPI DUP1 DUP3 SUB DUP1 MLOAD PUSH1 0x1 DUP4 PUSH1 0x20 SUB PUSH2 0x100 EXP SUB NOT AND DUP2 MSTORE PUSH1 0x20 ADD SWAP2 POP JUMPDEST POP SWAP3 POP POP POP PUSH1 0x40 MLOAD DUP1 SWAP2 SUB SWAP1 REVERT JUMPDEST POP PUSH1 0x0 DUP4 DUP6 DUP2 PUSH3 0xD6C JUMPI INVALID JUMPDEST DIV SWAP1 POP DUP1 SWAP2 POP POP SWAP4 SWAP3 POP POP POP JUMP JUMPDEST PUSH1 0x0 DUP1 PUSH20 0xFFFFFFFFFFFFFFFFFFFFFFFFFFFFFFFFFFFFFFFF AND DUP3 PUSH20 0xFFFFFFFFFFFFFFFFFFFFFFFFFFFFFFFFFFFFFFFF AND EQ ISZERO PUSH3 0xE03 JUMPI PUSH1 0x40 MLOAD PUSH32 0x8C379A000000000000000000000000000000000000000000000000000000000 DUP2 MSTORE PUSH1 0x4 ADD DUP1 DUP1 PUSH1 0x20 ADD DUP3 DUP2 SUB DUP3 MSTORE PUSH1 0x22 DUP2 MSTORE PUSH1 0x20 ADD DUP1 PUSH3 0x570F PUSH1 0x22 SWAP2 CODECOPY PUSH1 0x40 ADD SWAP2 POP POP PUSH1 0x40 MLOAD DUP1 SWAP2 SUB SWAP1 REVERT JUMPDEST DUP3 PUSH1 0x0 ADD PUSH1 0x0 DUP4 PUSH20 0xFFFFFFFFFFFFFFFFFFFFFFFFFFFFFFFFFFFFFFFF AND PUSH20 0xFFFFFFFFFFFFFFFFFFFFFFFFFFFFFFFFFFFFFFFF AND DUP2 MSTORE PUSH1 0x20 ADD SWAP1 DUP2 MSTORE PUSH1 0x20 ADD PUSH1 0x0 KECCAK256 PUSH1 0x0 SWAP1 SLOAD SWAP1 PUSH2 0x100 EXP SWAP1 DIV PUSH1 0xFF AND SWAP1 POP SWAP3 SWAP2 POP POP JUMP JUMPDEST DUP3 DUP1 SLOAD PUSH1 0x1 DUP2 PUSH1 0x1 AND ISZERO PUSH2 0x100 MUL SUB AND PUSH1 0x2 SWAP1 DIV SWAP1 PUSH1 0x0 MSTORE PUSH1 0x20 PUSH1 0x0 KECCAK256 SWAP1 PUSH1 0x1F ADD PUSH1 0x20 SWAP1 DIV DUP2 ADD SWAP3 DUP3 PUSH3 0xE92 JUMPI PUSH1 0x0 DUP6 SSTORE PUSH3 0xEDE JUMP JUMPDEST DUP3 PUSH1 0x1F LT PUSH3 0xEAD JUMPI DUP1 MLOAD PUSH1 0xFF NOT AND DUP4 DUP1 ADD OR DUP6 SSTORE PUSH3 0xEDE JUMP JUMPDEST DUP3 DUP1 ADD PUSH1 0x1 ADD DUP6 SSTORE DUP3 ISZERO PUSH3 0xEDE JUMPI SWAP2 DUP3 ADD JUMPDEST DUP3 DUP2 GT ISZERO PUSH3 0xEDD JUMPI DUP3 MLOAD DUP3 SSTORE SWAP2 PUSH1 0x20 ADD SWAP2 SWAP1 PUSH1 0x1 ADD SWAP1 PUSH3 0xEC0 JUMP JUMPDEST JUMPDEST POP SWAP1 POP PUSH3 0xEED SWAP2 SWAP1 PUSH3 0xEF1 JUMP JUMPDEST POP SWAP1 JUMP JUMPDEST JUMPDEST DUP1 DUP3 GT ISZERO PUSH3 0xF0C JUMPI PUSH1 0x0 DUP2 PUSH1 0x0 SWAP1 SSTORE POP PUSH1 0x1 ADD PUSH3 0xEF2 JUMP JUMPDEST POP SWAP1 JUMP JUMPDEST PUSH2 0x47EF DUP1 PUSH3 0xF20 PUSH1 0x0 CODECOPY PUSH1 0x0 RETURN INVALID PUSH1 0x80 PUSH1 0x40 MSTORE PUSH1 0x4 CALLDATASIZE LT PUSH2 0x354 JUMPI PUSH1 0x0 CALLDATALOAD PUSH1 0xE0 SHR DUP1 PUSH4 0x7A43E23F GT PUSH2 0x1C6 JUMPI DUP1 PUSH4 0xBDA5C8BB GT PUSH2 0xF7 JUMPI DUP1 PUSH4 0xD5938AAC GT PUSH2 0x95 JUMPI DUP1 PUSH4 0xDD62ED3E GT PUSH2 0x6F JUMPI DUP1 PUSH4 0xDD62ED3E EQ PUSH2 0x12D0 JUMPI DUP1 PUSH4 0xF2FDE38B EQ PUSH2 0x1355 JUMPI DUP1 PUSH4 0xF887EA40 EQ PUSH2 0x13A6 JUMPI DUP1 PUSH4 0xF9F92BE4 EQ PUSH2 0x13E7 JUMPI PUSH2 0x35B JUMP JUMPDEST DUP1 PUSH4 0xD5938AAC EQ PUSH2 0x11AD JUMPI DUP1 PUSH4 0xD7AC6585 EQ PUSH2 0x11FE JUMPI DUP1 PUSH4 0xD7C01032 EQ PUSH2 0x123F JUMPI PUSH2 0x35B JUMP JUMPDEST DUP1 PUSH4 0xD1FCE264 GT PUSH2 0xD1 JUMPI DUP1 PUSH4 0xD1FCE264 EQ PUSH2 0xFEF JUMPI DUP1 PUSH4 0xD37E219D EQ PUSH2 0x101C JUMPI DUP1 PUSH4 0xD4399790 EQ PUSH2 0x10F7 JUMPI DUP1 PUSH4 0xD51ED1C8 EQ PUSH2 0x115E JUMPI PUSH2 0x35B JUMP JUMPDEST DUP1 PUSH4 0xBDA5C8BB EQ PUSH2 0xF32 JUMPI DUP1 PUSH4 0xCA33E64C EQ PUSH2 0xF5D JUMPI DUP1 PUSH4 0xD0889358 EQ PUSH2 0xF9E JUMPI PUSH2 0x35B JUMP JUMPDEST DUP1 PUSH4 0x98118CB4 GT PUSH2 0x164 JUMPI DUP1 PUSH4 0xA457C2D7 GT PUSH2 0x13E JUMPI DUP1 PUSH4 0xA457C2D7 EQ PUSH2 0xDA8 JUMPI DUP1 PUSH4 0xA8AA1B31 EQ PUSH2 0xE19 JUMPI DUP1 PUSH4 0xA9059CBB EQ PUSH2 0xE5A JUMPI DUP1 PUSH4 0xAA271E1A EQ PUSH2 0xECB JUMPI PUSH2 0x35B JUMP JUMPDEST DUP1 PUSH4 0x98118CB4 EQ PUSH2 0xD15 JUMPI DUP1 PUSH4 0x983B2D56 EQ PUSH2 0xD40 JUMPI DUP1 PUSH4 0x98650275 EQ PUSH2 0xD91 JUMPI PUSH2 0x35B JUMP JUMPDEST DUP1 PUSH4 0x8DA5CB5B GT PUSH2 0x1A0 JUMPI DUP1 PUSH4 0x8DA5CB5B EQ PUSH2 0xBBA JUMPI DUP1 PUSH4 0x8F32D59B EQ PUSH2 0xBFB JUMPI DUP1 PUSH4 0x9155E083 EQ PUSH2 0xC28 JUMPI DUP1 PUSH4 0x95D89B41 EQ PUSH2 0xC85 JUMPI PUSH2 0x35B JUMP JUMPDEST DUP1 PUSH4 0x7A43E23F EQ PUSH2 0xAF3 JUMPI DUP1 PUSH4 0x800CEE51 EQ PUSH2 0xB4C JUMPI DUP1 PUSH4 0x83B4AC68 EQ PUSH2 0xB8D JUMPI PUSH2 0x35B JUMP JUMPDEST DUP1 PUSH4 0x3092AFD5 GT PUSH2 0x2A0 JUMPI DUP1 PUSH4 0x56A227F2 GT PUSH2 0x23E JUMPI DUP1 PUSH4 0x70A08231 GT PUSH2 0x218 JUMPI DUP1 PUSH4 0x70A08231 EQ PUSH2 0xA0F JUMPI DUP1 PUSH4 0x715018A6 EQ PUSH2 0xA74 JUMPI DUP1 PUSH4 0x749796A5 EQ PUSH2 0xA8B JUMPI DUP1 PUSH4 0x753D02A1 EQ PUSH2 0xADC JUMPI PUSH2 0x35B JUMP JUMPDEST DUP1 PUSH4 0x56A227F2 EQ PUSH2 0x95C JUMPI DUP1 PUSH4 0x6D351D1A EQ PUSH2 0x9B7 JUMPI DUP1 PUSH4 0x6DDD1713 EQ PUSH2 0x9E2 JUMPI PUSH2 0x35B JUMP JUMPDEST DUP1 PUSH4 0x39509351 GT PUSH2 0x27A JUMPI DUP1 PUSH4 0x39509351 EQ PUSH2 0x824 JUMPI DUP1 PUSH4 0x40C10F19 EQ PUSH2 0x895 JUMPI DUP1 PUSH4 0x4D709ADF EQ PUSH2 0x8F0 JUMPI DUP1 PUSH4 0x563DF32F EQ PUSH2 0x931 JUMPI PUSH2 0x35B JUMP JUMPDEST DUP1 PUSH4 0x3092AFD5 EQ PUSH2 0x734 JUMPI DUP1 PUSH4 0x313CE567 EQ PUSH2 0x785 JUMPI DUP1 PUSH4 0x33F3D628 EQ PUSH2 0x7B3 JUMPI PUSH2 0x35B JUMP JUMPDEST DUP1 PUSH4 0x1DF4CCFC GT PUSH2 0x30D JUMPI DUP1 PUSH4 0x2B112E49 GT PUSH2 0x2E7 JUMPI DUP1 PUSH4 0x2B112E49 EQ PUSH2 0x676 JUMPI DUP1 PUSH4 0x2B14CA56 EQ PUSH2 0x6A1 JUMPI DUP1 PUSH4 0x2BE6937D EQ PUSH2 0x6CC JUMPI DUP1 PUSH4 0x2F34D282 EQ PUSH2 0x6E3 JUMPI PUSH2 0x35B JUMP JUMPDEST DUP1 PUSH4 0x1DF4CCFC EQ PUSH2 0x575 JUMPI DUP1 PUSH4 0x201E7991 EQ PUSH2 0x5A0 JUMPI DUP1 PUSH4 0x23B872DD EQ PUSH2 0x5E5 JUMPI PUSH2 0x35B JUMP JUMPDEST DUP1 PUSH4 0x4A66B48 EQ PUSH2 0x360 JUMPI DUP1 PUSH4 0x6FDDE03 EQ PUSH2 0x3C3 JUMPI DUP1 PUSH4 0x95EA7B3 EQ PUSH2 0x453 JUMPI DUP1 PUSH4 0x1161AE39 EQ PUSH2 0x4C4 JUMPI DUP1 PUSH4 0x180B0D7E EQ PUSH2 0x51F JUMPI DUP1 PUSH4 0x18160DDD EQ PUSH2 0x54A JUMPI PUSH2 0x35B JUMP JUMPDEST CALLDATASIZE PUSH2 0x35B JUMPI STOP JUMPDEST PUSH1 0x0 DUP1 REVERT JUMPDEST CALLVALUE DUP1 ISZERO PUSH2 0x36C JUMPI PUSH1 0x0 DUP1 REVERT JUMPDEST POP PUSH2 0x3C1 PUSH1 0x4 DUP1 CALLDATASIZE SUB PUSH1 0xA0 DUP2 LT ISZERO PUSH2 0x383 JUMPI PUSH1 0x0 DUP1 REVERT JUMPDEST DUP2 ADD SWAP1 DUP1 DUP1 CALLDATALOAD SWAP1 PUSH1 0x20 ADD SWAP1 SWAP3 SWAP2 SWAP1 DUP1 CALLDATALOAD SWAP1 PUSH1 0x20 ADD SWAP1 SWAP3 SWAP2 SWAP1 DUP1 CALLDATALOAD SWAP1 PUSH1 0x20 ADD SWAP1 SWAP3 SWAP2 SWAP1 DUP1 CALLDATALOAD SWAP1 PUSH1 0x20 ADD SWAP1 SWAP3 SWAP2 SWAP1 DUP1 CALLDATALOAD SWAP1 PUSH1 0x20 ADD SWAP1 SWAP3 SWAP2 SWAP1 POP POP POP PUSH2 0x144E JUMP JUMPDEST STOP JUMPDEST CALLVALUE DUP1 ISZERO PUSH2 0x3CF JUMPI PUSH1 0x0 DUP1 REVERT JUMPDEST POP PUSH2 0x3D8 PUSH2 0x14D4 JUMP JUMPDEST PUSH1 0x40 MLOAD DUP1 DUP1 PUSH1 0x20 ADD DUP3 DUP2 SUB DUP3 MSTORE DUP4 DUP2 DUP2 MLOAD DUP2 MSTORE PUSH1 0x20 ADD SWAP2 POP DUP1 MLOAD SWAP1 PUSH1 0x20 ADD SWAP1 DUP1 DUP4 DUP4 PUSH1 0x0 JUMPDEST DUP4 DUP2 LT ISZERO PUSH2 0x418 JUMPI DUP1 DUP3 ADD MLOAD DUP2 DUP5 ADD MSTORE PUSH1 0x20 DUP2 ADD SWAP1 POP PUSH2 0x3FD JUMP JUMPDEST POP POP POP POP SWAP1 POP SWAP1 DUP2 ADD SWAP1 PUSH1 0x1F AND DUP1 ISZERO PUSH2 0x445 JUMPI DUP1 DUP3 SUB DUP1 MLOAD PUSH1 0x1 DUP4 PUSH1 0x20 SUB PUSH2 0x100 EXP SUB NOT AND DUP2 MSTORE PUSH1 0x20 ADD SWAP2 POP JUMPDEST POP SWAP3 POP POP POP PUSH1 0x40 MLOAD DUP1 SWAP2 SUB SWAP1 RETURN JUMPDEST CALLVALUE DUP1 ISZERO PUSH2 0x45F JUMPI PUSH1 0x0 DUP1 REVERT JUMPDEST POP PUSH2 0x4AC PUSH1 0x4 DUP1 CALLDATASIZE SUB PUSH1 0x40 DUP2 LT ISZERO PUSH2 0x476 JUMPI PUSH1 0x0 DUP1 REVERT JUMPDEST DUP2 ADD SWAP1 DUP1 DUP1 CALLDATALOAD PUSH20 0xFFFFFFFFFFFFFFFFFFFFFFFFFFFFFFFFFFFFFFFF AND SWAP1 PUSH1 0x20 ADD SWAP1 SWAP3 SWAP2 SWAP1 DUP1 CALLDATALOAD SWAP1 PUSH1 0x20 ADD SWAP1 SWAP3 SWAP2 SWAP1 POP POP POP PUSH2 0x1576 JUMP JUMPDEST PUSH1 0x40 MLOAD DUP1 DUP3 ISZERO ISZERO DUP2 MSTORE PUSH1 0x20 ADD SWAP2 POP POP PUSH1 0x40 MLOAD DUP1 SWAP2 SUB SWAP1 RETURN JUMPDEST CALLVALUE DUP1 ISZERO PUSH2 0x4D0 JUMPI PUSH1 0x0 DUP1 REVERT JUMPDEST POP PUSH2 0x507 PUSH1 0x4 DUP1 CALLDATASIZE SUB PUSH1 0x40 DUP2 LT ISZERO PUSH2 0x4E7 JUMPI PUSH1 0x0 DUP1 REVERT JUMPDEST DUP2 ADD SWAP1 DUP1 DUP1 CALLDATALOAD SWAP1 PUSH1 0x20 ADD SWAP1 SWAP3 SWAP2 SWAP1 DUP1 CALLDATALOAD SWAP1 PUSH1 0x20 ADD SWAP1 SWAP3 SWAP2 SWAP1 POP POP POP PUSH2 0x16E4 JUMP JUMPDEST PUSH1 0x40 MLOAD DUP1 DUP3 ISZERO ISZERO DUP2 MSTORE PUSH1 0x20 ADD SWAP2 POP POP PUSH1 0x40 MLOAD DUP1 SWAP2 SUB SWAP1 RETURN JUMPDEST CALLVALUE DUP1 ISZERO PUSH2 0x52B JUMPI PUSH1 0x0 DUP1 REVERT JUMPDEST POP PUSH2 0x534 PUSH2 0x16F9 JUMP JUMPDEST PUSH1 0x40 MLOAD DUP1 DUP3 DUP2 MSTORE PUSH1 0x20 ADD SWAP2 POP POP PUSH1 0x40 MLOAD DUP1 SWAP2 SUB SWAP1 RETURN JUMPDEST CALLVALUE DUP1 ISZERO PUSH2 0x556 JUMPI PUSH1 0x0 DUP1 REVERT JUMPDEST POP PUSH2 0x55F PUSH2 0x16FF JUMP JUMPDEST PUSH1 0x40 MLOAD DUP1 DUP3 DUP2 MSTORE PUSH1 0x20 ADD SWAP2 POP POP PUSH1 0x40 MLOAD DUP1 SWAP2 SUB SWAP1 RETURN JUMPDEST CALLVALUE DUP1 ISZERO PUSH2 0x581 JUMPI PUSH1 0x0 DUP1 REVERT JUMPDEST POP PUSH2 0x58A PUSH2 0x1709 JUMP JUMPDEST PUSH1 0x40 MLOAD DUP1 DUP3 DUP2 MSTORE PUSH1 0x20 ADD SWAP2 POP POP PUSH1 0x40 MLOAD DUP1 SWAP2 SUB SWAP1 RETURN JUMPDEST CALLVALUE DUP1 ISZERO PUSH2 0x5AC JUMPI PUSH1 0x0 DUP1 REVERT JUMPDEST POP PUSH2 0x5E3 PUSH1 0x4 DUP1 CALLDATASIZE SUB PUSH1 0x40 DUP2 LT ISZERO PUSH2 0x5C3 JUMPI PUSH1 0x0 DUP1 REVERT JUMPDEST DUP2 ADD SWAP1 DUP1 DUP1 CALLDATALOAD SWAP1 PUSH1 0x20 ADD SWAP1 SWAP3 SWAP2 SWAP1 DUP1 CALLDATALOAD SWAP1 PUSH1 0x20 ADD SWAP1 SWAP3 SWAP2 SWAP1 POP POP POP PUSH2 0x170F JUMP JUMPDEST STOP JUMPDEST CALLVALUE DUP1 ISZERO PUSH2 0x5F1 JUMPI PUSH1 0x0 DUP1 REVERT JUMPDEST POP PUSH2 0x65E PUSH1 0x4 DUP1 CALLDATASIZE SUB PUSH1 0x60 DUP2 LT ISZERO PUSH2 0x608 JUMPI PUSH1 0x0 DUP1 REVERT JUMPDEST DUP2 ADD SWAP1 DUP1 DUP1 CALLDATALOAD PUSH20 0xFFFFFFFFFFFFFFFFFFFFFFFFFFFFFFFFFFFFFFFF AND SWAP1 PUSH1 0x20 ADD SWAP1 SWAP3 SWAP2 SWAP1 DUP1 CALLDATALOAD PUSH20 0xFFFFFFFFFFFFFFFFFFFFFFFFFFFFFFFFFFFFFFFF AND SWAP1 PUSH1 0x20 ADD SWAP1 SWAP3 SWAP2 SWAP1 DUP1 CALLDATALOAD SWAP1 PUSH1 0x20 ADD SWAP1 SWAP3 SWAP2 SWAP1 POP POP POP PUSH2 0x1732 JUMP JUMPDEST PUSH1 0x40 MLOAD DUP1 DUP3 ISZERO ISZERO DUP2 MSTORE PUSH1 0x20 ADD SWAP2 POP POP PUSH1 0x40 MLOAD DUP1 SWAP2 SUB SWAP1 RETURN JUMPDEST CALLVALUE DUP1 ISZERO PUSH2 0x682 JUMPI PUSH1 0x0 DUP1 REVERT JUMPDEST POP PUSH2 0x68B PUSH2 0x1971 JUMP JUMPDEST PUSH1 0x40 MLOAD DUP1 DUP3 DUP2 MSTORE PUSH1 0x20 ADD SWAP2 POP POP PUSH1 0x40 MLOAD DUP1 SWAP2 SUB SWAP1 RETURN JUMPDEST CALLVALUE DUP1 ISZERO PUSH2 0x6AD JUMPI PUSH1 0x0 DUP1 REVERT JUMPDEST POP PUSH2 0x6B6 PUSH2 0x1A8C JUMP JUMPDEST PUSH1 0x40 MLOAD DUP1 DUP3 DUP2 MSTORE PUSH1 0x20 ADD SWAP2 POP POP PUSH1 0x40 MLOAD DUP1 SWAP2 SUB SWAP1 RETURN JUMPDEST CALLVALUE DUP1 ISZERO PUSH2 0x6D8 JUMPI PUSH1 0x0 DUP1 REVERT JUMPDEST POP PUSH2 0x6E1 PUSH2 0x1A92 JUMP JUMPDEST STOP JUMPDEST CALLVALUE DUP1 ISZERO PUSH2 0x6EF JUMPI PUSH1 0x0 DUP1 REVERT JUMPDEST POP PUSH2 0x732 PUSH1 0x4 DUP1 CALLDATASIZE SUB PUSH1 0x20 DUP2 LT ISZERO PUSH2 0x706 JUMPI PUSH1 0x0 DUP1 REVERT JUMPDEST DUP2 ADD SWAP1 DUP1 DUP1 CALLDATALOAD PUSH20 0xFFFFFFFFFFFFFFFFFFFFFFFFFFFFFFFFFFFFFFFF AND SWAP1 PUSH1 0x20 ADD SWAP1 SWAP3 SWAP2 SWAP1 POP POP POP PUSH2 0x1AC0 JUMP JUMPDEST STOP JUMPDEST CALLVALUE DUP1 ISZERO PUSH2 0x740 JUMPI PUSH1 0x0 DUP1 REVERT JUMPDEST POP PUSH2 0x783 PUSH1 0x4 DUP1 CALLDATASIZE SUB PUSH1 0x20 DUP2 LT ISZERO PUSH2 0x757 JUMPI PUSH1 0x0 DUP1 REVERT JUMPDEST DUP2 ADD SWAP1 DUP1 DUP1 CALLDATALOAD PUSH20 0xFFFFFFFFFFFFFFFFFFFFFFFFFFFFFFFFFFFFFFFF AND SWAP1 PUSH1 0x20 ADD SWAP1 SWAP3 SWAP2 SWAP1 POP POP POP PUSH2 0x1B60 JUMP JUMPDEST STOP JUMPDEST CALLVALUE DUP1 ISZERO PUSH2 0x791 JUMPI PUSH1 0x0 DUP1 REVERT JUMPDEST POP PUSH2 0x79A PUSH2 0x1B7D JUMP JUMPDEST PUSH1 0x40 MLOAD DUP1 DUP3 PUSH1 0xFF AND DUP2 MSTORE PUSH1 0x20 ADD SWAP2 POP POP PUSH1 0x40 MLOAD DUP1 SWAP2 SUB SWAP1 RETURN JUMPDEST CALLVALUE DUP1 ISZERO PUSH2 0x7BF JUMPI PUSH1 0x0 DUP1 REVERT JUMPDEST POP PUSH2 0x80C PUSH1 0x4 DUP1 CALLDATASIZE SUB PUSH1 0x40 DUP2 LT ISZERO PUSH2 0x7D6 JUMPI PUSH1 0x0 DUP1 REVERT JUMPDEST DUP2 ADD SWAP1 DUP1 DUP1 CALLDATALOAD PUSH20 0xFFFFFFFFFFFFFFFFFFFFFFFFFFFFFFFFFFFFFFFF AND SWAP1 PUSH1 0x20 ADD SWAP1 SWAP3 SWAP2 SWAP1 DUP1 CALLDATALOAD SWAP1 PUSH1 0x20 ADD SWAP1 SWAP3 SWAP2 SWAP1 POP POP POP PUSH2 0x1B94 JUMP JUMPDEST PUSH1 0x40 MLOAD DUP1 DUP3 ISZERO ISZERO DUP2 MSTORE PUSH1 0x20 ADD SWAP2 POP POP PUSH1 0x40 MLOAD DUP1 SWAP2 SUB SWAP1 RETURN JUMPDEST CALLVALUE DUP1 ISZERO PUSH2 0x830 JUMPI PUSH1 0x0 DUP1 REVERT JUMPDEST POP PUSH2 0x87D PUSH1 0x4 DUP1 CALLDATASIZE SUB PUSH1 0x40 DUP2 LT ISZERO PUSH2 0x847 JUMPI PUSH1 0x0 DUP1 REVERT JUMPDEST DUP2 ADD SWAP1 DUP1 DUP1 CALLDATALOAD PUSH20 0xFFFFFFFFFFFFFFFFFFFFFFFFFFFFFFFFFFFFFFFF AND SWAP1 PUSH1 0x20 ADD SWAP1 SWAP3 SWAP2 SWAP1 DUP1 CALLDATALOAD SWAP1 PUSH1 0x20 ADD SWAP1 SWAP3 SWAP2 SWAP1 POP POP POP PUSH2 0x1C5B JUMP JUMPDEST PUSH1 0x40 MLOAD DUP1 DUP3 ISZERO ISZERO DUP2 MSTORE PUSH1 0x20 ADD SWAP2 POP POP PUSH1 0x40 MLOAD DUP1 SWAP2 SUB SWAP1 RETURN JUMPDEST CALLVALUE DUP1 ISZERO PUSH2 0x8A1 JUMPI PUSH1 0x0 DUP1 REVERT JUMPDEST POP PUSH2 0x8EE PUSH1 0x4 DUP1 CALLDATASIZE SUB PUSH1 0x40 DUP2 LT ISZERO PUSH2 0x8B8 JUMPI PUSH1 0x0 DUP1 REVERT JUMPDEST DUP2 ADD SWAP1 DUP1 DUP1 CALLDATALOAD PUSH20 0xFFFFFFFFFFFFFFFFFFFFFFFFFFFFFFFFFFFFFFFF AND SWAP1 PUSH1 0x20 ADD SWAP1 SWAP3 SWAP2 SWAP1 DUP1 CALLDATALOAD SWAP1 PUSH1 0x20 ADD SWAP1 SWAP3 SWAP2 SWAP1 POP POP POP PUSH2 0x1ED3 JUMP JUMPDEST STOP JUMPDEST CALLVALUE DUP1 ISZERO PUSH2 0x8FC JUMPI PUSH1 0x0 DUP1 REVERT JUMPDEST POP PUSH2 0x905 PUSH2 0x20D5 JUMP JUMPDEST PUSH1 0x40 MLOAD DUP1 DUP3 PUSH20 0xFFFFFFFFFFFFFFFFFFFFFFFFFFFFFFFFFFFFFFFF AND DUP2 MSTORE PUSH1 0x20 ADD SWAP2 POP POP PUSH1 0x40 MLOAD DUP1 SWAP2 SUB SWAP1 RETURN JUMPDEST CALLVALUE DUP1 ISZERO PUSH2 0x93D JUMPI PUSH1 0x0 DUP1 REVERT JUMPDEST POP PUSH2 0x946 PUSH2 0x20FB JUMP JUMPDEST PUSH1 0x40 MLOAD DUP1 DUP3 DUP2 MSTORE PUSH1 0x20 ADD SWAP2 POP POP PUSH1 0x40 MLOAD DUP1 SWAP2 SUB SWAP1 RETURN JUMPDEST CALLVALUE DUP1 ISZERO PUSH2 0x968 JUMPI PUSH1 0x0 DUP1 REVERT JUMPDEST POP PUSH2 0x9B5 PUSH1 0x4 DUP1 CALLDATASIZE SUB PUSH1 0x40 DUP2 LT ISZERO PUSH2 0x97F JUMPI PUSH1 0x0 DUP1 REVERT JUMPDEST DUP2 ADD SWAP1 DUP1 DUP1 CALLDATALOAD SWAP1 PUSH1 0x20 ADD SWAP1 SWAP3 SWAP2 SWAP1 DUP1 CALLDATALOAD PUSH20 0xFFFFFFFFFFFFFFFFFFFFFFFFFFFFFFFFFFFFFFFF AND SWAP1 PUSH1 0x20 ADD SWAP1 SWAP3 SWAP2 SWAP1 POP POP POP PUSH2 0x2101 JUMP JUMPDEST STOP JUMPDEST CALLVALUE DUP1 ISZERO PUSH2 0x9C3 JUMPI PUSH1 0x0 DUP1 REVERT JUMPDEST POP PUSH2 0x9CC PUSH2 0x216F JUMP JUMPDEST PUSH1 0x40 MLOAD DUP1 DUP3 DUP2 MSTORE PUSH1 0x20 ADD SWAP2 POP POP PUSH1 0x40 MLOAD DUP1 SWAP2 SUB SWAP1 RETURN JUMPDEST CALLVALUE DUP1 ISZERO PUSH2 0x9EE JUMPI PUSH1 0x0 DUP1 REVERT JUMPDEST POP PUSH2 0x9F7 PUSH2 0x218D JUMP JUMPDEST PUSH1 0x40 MLOAD DUP1 DUP3 ISZERO ISZERO DUP2 MSTORE PUSH1 0x20 ADD SWAP2 POP POP PUSH1 0x40 MLOAD DUP1 SWAP2 SUB SWAP1 RETURN JUMPDEST CALLVALUE DUP1 ISZERO PUSH2 0xA1B JUMPI PUSH1 0x0 DUP1 REVERT JUMPDEST POP PUSH2 0xA5E PUSH1 0x4 DUP1 CALLDATASIZE SUB PUSH1 0x20 DUP2 LT ISZERO PUSH2 0xA32 JUMPI PUSH1 0x0 DUP1 REVERT JUMPDEST DUP2 ADD SWAP1 DUP1 DUP1 CALLDATALOAD PUSH20 0xFFFFFFFFFFFFFFFFFFFFFFFFFFFFFFFFFFFFFFFF AND SWAP1 PUSH1 0x20 ADD SWAP1 SWAP3 SWAP2 SWAP1 POP POP POP PUSH2 0x21A0 JUMP JUMPDEST PUSH1 0x40 MLOAD DUP1 DUP3 DUP2 MSTORE PUSH1 0x20 ADD SWAP2 POP POP PUSH1 0x40 MLOAD DUP1 SWAP2 SUB SWAP1 RETURN JUMPDEST CALLVALUE DUP1 ISZERO PUSH2 0xA80 JUMPI PUSH1 0x0 DUP1 REVERT JUMPDEST POP PUSH2 0xA89 PUSH2 0x21FD JUMP JUMPDEST STOP JUMPDEST CALLVALUE DUP1 ISZERO PUSH2 0xA97 JUMPI PUSH1 0x0 DUP1 REVERT JUMPDEST POP PUSH2 0xADA PUSH1 0x4 DUP1 CALLDATASIZE SUB PUSH1 0x20 DUP2 LT ISZERO PUSH2 0xAAE JUMPI PUSH1 0x0 DUP1 REVERT JUMPDEST DUP2 ADD SWAP1 DUP1 DUP1 CALLDATALOAD PUSH20 0xFFFFFFFFFFFFFFFFFFFFFFFFFFFFFFFFFFFFFFFF AND SWAP1 PUSH1 0x20 ADD SWAP1 SWAP3 SWAP2 SWAP1 POP POP POP PUSH2 0x22B7 JUMP JUMPDEST STOP JUMPDEST CALLVALUE DUP1 ISZERO PUSH2 0xAE8 JUMPI PUSH1 0x0 DUP1 REVERT JUMPDEST POP PUSH2 0xAF1 PUSH2 0x2323 JUMP JUMPDEST STOP JUMPDEST CALLVALUE DUP1 ISZERO PUSH2 0xAFF JUMPI PUSH1 0x0 DUP1 REVERT JUMPDEST POP PUSH2 0xB36 PUSH1 0x4 DUP1 CALLDATASIZE SUB PUSH1 0x40 DUP2 LT ISZERO PUSH2 0xB16 JUMPI PUSH1 0x0 DUP1 REVERT JUMPDEST DUP2 ADD SWAP1 DUP1 DUP1 CALLDATALOAD SWAP1 PUSH1 0x20 ADD SWAP1 SWAP3 SWAP2 SWAP1 DUP1 CALLDATALOAD SWAP1 PUSH1 0x20 ADD SWAP1 SWAP3 SWAP2 SWAP1 POP POP POP PUSH2 0x23A7 JUMP JUMPDEST PUSH1 0x40 MLOAD DUP1 DUP3 DUP2 MSTORE PUSH1 0x20 ADD SWAP2 POP POP PUSH1 0x40 MLOAD DUP1 SWAP2 SUB SWAP1 RETURN JUMPDEST CALLVALUE DUP1 ISZERO PUSH2 0xB58 JUMPI PUSH1 0x0 DUP1 REVERT JUMPDEST POP PUSH2 0xB61 PUSH2 0x2608 JUMP JUMPDEST PUSH1 0x40 MLOAD DUP1 DUP3 PUSH20 0xFFFFFFFFFFFFFFFFFFFFFFFFFFFFFFFFFFFFFFFF AND DUP2 MSTORE PUSH1 0x20 ADD SWAP2 POP POP PUSH1 0x40 MLOAD DUP1 SWAP2 SUB SWAP1 RETURN JUMPDEST CALLVALUE DUP1 ISZERO PUSH2 0xB99 JUMPI PUSH1 0x0 DUP1 REVERT JUMPDEST POP PUSH2 0xBA2 PUSH2 0x262E JUMP JUMPDEST PUSH1 0x40 MLOAD DUP1 DUP3 ISZERO ISZERO DUP2 MSTORE PUSH1 0x20 ADD SWAP2 POP POP PUSH1 0x40 MLOAD DUP1 SWAP2 SUB SWAP1 RETURN JUMPDEST CALLVALUE DUP1 ISZERO PUSH2 0xBC6 JUMPI PUSH1 0x0 DUP1 REVERT JUMPDEST POP PUSH2 0xBCF PUSH2 0x2646 JUMP JUMPDEST PUSH1 0x40 MLOAD DUP1 DUP3 PUSH20 0xFFFFFFFFFFFFFFFFFFFFFFFFFFFFFFFFFFFFFFFF AND DUP2 MSTORE PUSH1 0x20 ADD SWAP2 POP POP PUSH1 0x40 MLOAD DUP1 SWAP2 SUB SWAP1 RETURN JUMPDEST CALLVALUE DUP1 ISZERO PUSH2 0xC07 JUMPI PUSH1 0x0 DUP1 REVERT JUMPDEST POP PUSH2 0xC10 PUSH2 0x2670 JUMP JUMPDEST PUSH1 0x40 MLOAD DUP1 DUP3 ISZERO ISZERO DUP2 MSTORE PUSH1 0x20 ADD SWAP2 POP POP PUSH1 0x40 MLOAD DUP1 SWAP2 SUB SWAP1 RETURN JUMPDEST CALLVALUE DUP1 ISZERO PUSH2 0xC34 JUMPI PUSH1 0x0 DUP1 REVERT JUMPDEST POP PUSH2 0xC83 PUSH1 0x4 DUP1 CALLDATASIZE SUB PUSH1 0x40 DUP2 LT ISZERO PUSH2 0xC4B JUMPI PUSH1 0x0 DUP1 REVERT JUMPDEST DUP2 ADD SWAP1 DUP1 DUP1 CALLDATALOAD PUSH20 0xFFFFFFFFFFFFFFFFFFFFFFFFFFFFFFFFFFFFFFFF AND SWAP1 PUSH1 0x20 ADD SWAP1 SWAP3 SWAP2 SWAP1 DUP1 CALLDATALOAD ISZERO ISZERO SWAP1 PUSH1 0x20 ADD SWAP1 SWAP3 SWAP2 SWAP1 POP POP POP PUSH2 0x26C8 JUMP JUMPDEST STOP JUMPDEST CALLVALUE DUP1 ISZERO PUSH2 0xC91 JUMPI PUSH1 0x0 DUP1 REVERT JUMPDEST POP PUSH2 0xC9A PUSH2 0x2734 JUMP JUMPDEST PUSH1 0x40 MLOAD DUP1 DUP1 PUSH1 0x20 ADD DUP3 DUP2 SUB DUP3 MSTORE DUP4 DUP2 DUP2 MLOAD DUP2 MSTORE PUSH1 0x20 ADD SWAP2 POP DUP1 MLOAD SWAP1 PUSH1 0x20 ADD SWAP1 DUP1 DUP4 DUP4 PUSH1 0x0 JUMPDEST DUP4 DUP2 LT ISZERO PUSH2 0xCDA JUMPI DUP1 DUP3 ADD MLOAD DUP2 DUP5 ADD MSTORE PUSH1 0x20 DUP2 ADD SWAP1 POP PUSH2 0xCBF JUMP JUMPDEST POP POP POP POP SWAP1 POP SWAP1 DUP2 ADD SWAP1 PUSH1 0x1F AND DUP1 ISZERO PUSH2 0xD07 JUMPI DUP1 DUP3 SUB DUP1 MLOAD PUSH1 0x1 DUP4 PUSH1 0x20 SUB PUSH2 0x100 EXP SUB NOT AND DUP2 MSTORE PUSH1 0x20 ADD SWAP2 POP JUMPDEST POP SWAP3 POP POP POP PUSH1 0x40 MLOAD DUP1 SWAP2 SUB SWAP1 RETURN JUMPDEST CALLVALUE DUP1 ISZERO PUSH2 0xD21 JUMPI PUSH1 0x0 DUP1 REVERT JUMPDEST POP PUSH2 0xD2A PUSH2 0x27D6 JUMP JUMPDEST PUSH1 0x40 MLOAD DUP1 DUP3 DUP2 MSTORE PUSH1 0x20 ADD SWAP2 POP POP PUSH1 0x40 MLOAD DUP1 SWAP2 SUB SWAP1 RETURN JUMPDEST CALLVALUE DUP1 ISZERO PUSH2 0xD4C JUMPI PUSH1 0x0 DUP1 REVERT JUMPDEST POP PUSH2 0xD8F PUSH1 0x4 DUP1 CALLDATASIZE SUB PUSH1 0x20 DUP2 LT ISZERO PUSH2 0xD63 JUMPI PUSH1 0x0 DUP1 REVERT JUMPDEST DUP2 ADD SWAP1 DUP1 DUP1 CALLDATALOAD PUSH20 0xFFFFFFFFFFFFFFFFFFFFFFFFFFFFFFFFFFFFFFFF AND SWAP1 PUSH1 0x20 ADD SWAP1 SWAP3 SWAP2 SWAP1 POP POP POP PUSH2 0x27DC JUMP JUMPDEST STOP JUMPDEST CALLVALUE DUP1 ISZERO PUSH2 0xD9D JUMPI PUSH1 0x0 DUP1 REVERT JUMPDEST POP PUSH2 0xDA6 PUSH2 0x27F9 JUMP JUMPDEST STOP JUMPDEST CALLVALUE DUP1 ISZERO PUSH2 0xDB4 JUMPI PUSH1 0x0 DUP1 REVERT JUMPDEST POP PUSH2 0xE01 PUSH1 0x4 DUP1 CALLDATASIZE SUB PUSH1 0x40 DUP2 LT ISZERO PUSH2 0xDCB JUMPI PUSH1 0x0 DUP1 REVERT JUMPDEST DUP2 ADD SWAP1 DUP1 DUP1 CALLDATALOAD PUSH20 0xFFFFFFFFFFFFFFFFFFFFFFFFFFFFFFFFFFFFFFFF AND SWAP1 PUSH1 0x20 ADD SWAP1 SWAP3 SWAP2 SWAP1 DUP1 CALLDATALOAD SWAP1 PUSH1 0x20 ADD SWAP1 SWAP3 SWAP2 SWAP1 POP POP POP PUSH2 0x2804 JUMP JUMPDEST PUSH1 0x40 MLOAD DUP1 DUP3 ISZERO ISZERO DUP2 MSTORE PUSH1 0x20 ADD SWAP2 POP POP PUSH1 0x40 MLOAD DUP1 SWAP2 SUB SWAP1 RETURN JUMPDEST CALLVALUE DUP1 ISZERO PUSH2 0xE25 JUMPI PUSH1 0x0 DUP1 REVERT JUMPDEST POP PUSH2 0xE2E PUSH2 0x2B11 JUMP JUMPDEST PUSH1 0x40 MLOAD DUP1 DUP3 PUSH20 0xFFFFFFFFFFFFFFFFFFFFFFFFFFFFFFFFFFFFFFFF AND DUP2 MSTORE PUSH1 0x20 ADD SWAP2 POP POP PUSH1 0x40 MLOAD DUP1 SWAP2 SUB SWAP1 RETURN JUMPDEST CALLVALUE DUP1 ISZERO PUSH2 0xE66 JUMPI PUSH1 0x0 DUP1 REVERT JUMPDEST POP PUSH2 0xEB3 PUSH1 0x4 DUP1 CALLDATASIZE SUB PUSH1 0x40 DUP2 LT ISZERO PUSH2 0xE7D JUMPI PUSH1 0x0 DUP1 REVERT JUMPDEST DUP2 ADD SWAP1 DUP1 DUP1 CALLDATALOAD PUSH20 0xFFFFFFFFFFFFFFFFFFFFFFFFFFFFFFFFFFFFFFFF AND SWAP1 PUSH1 0x20 ADD SWAP1 SWAP3 SWAP2 SWAP1 DUP1 CALLDATALOAD SWAP1 PUSH1 0x20 ADD SWAP1 SWAP3 SWAP2 SWAP1 POP POP POP PUSH2 0x2B37 JUMP JUMPDEST PUSH1 0x40 MLOAD DUP1 DUP3 ISZERO ISZERO DUP2 MSTORE PUSH1 0x20 ADD SWAP2 POP POP PUSH1 0x40 MLOAD DUP1 SWAP2 SUB SWAP1 RETURN JUMPDEST CALLVALUE DUP1 ISZERO PUSH2 0xED7 JUMPI PUSH1 0x0 DUP1 REVERT JUMPDEST POP PUSH2 0xF1A PUSH1 0x4 DUP1 CALLDATASIZE SUB PUSH1 0x20 DUP2 LT ISZERO PUSH2 0xEEE JUMPI PUSH1 0x0 DUP1 REVERT JUMPDEST DUP2 ADD SWAP1 DUP1 DUP1 CALLDATALOAD PUSH20 0xFFFFFFFFFFFFFFFFFFFFFFFFFFFFFFFFFFFFFFFF AND SWAP1 PUSH1 0x20 ADD SWAP1 SWAP3 SWAP2 SWAP1 POP POP POP PUSH2 0x2C07 JUMP JUMPDEST PUSH1 0x40 MLOAD DUP1 DUP3 ISZERO ISZERO DUP2 MSTORE PUSH1 0x20 ADD SWAP2 POP POP PUSH1 0x40 MLOAD DUP1 SWAP2 SUB SWAP1 RETURN JUMPDEST CALLVALUE DUP1 ISZERO PUSH2 0xF3E JUMPI PUSH1 0x0 DUP1 REVERT JUMPDEST POP PUSH2 0xF47 PUSH2 0x2C24 JUMP JUMPDEST PUSH1 0x40 MLOAD DUP1 DUP3 DUP2 MSTORE PUSH1 0x20 ADD SWAP2 POP POP PUSH1 0x40 MLOAD DUP1 SWAP2 SUB SWAP1 RETURN JUMPDEST CALLVALUE DUP1 ISZERO PUSH2 0xF69 JUMPI PUSH1 0x0 DUP1 REVERT JUMPDEST POP PUSH2 0xF72 PUSH2 0x2C2A JUMP JUMPDEST PUSH1 0x40 MLOAD DUP1 DUP3 PUSH20 0xFFFFFFFFFFFFFFFFFFFFFFFFFFFFFFFFFFFFFFFF AND DUP2 MSTORE PUSH1 0x20 ADD SWAP2 POP POP PUSH1 0x40 MLOAD DUP1 SWAP2 SUB SWAP1 RETURN JUMPDEST CALLVALUE DUP1 ISZERO PUSH2 0xFAA JUMPI PUSH1 0x0 DUP1 REVERT JUMPDEST POP PUSH2 0xFED PUSH1 0x4 DUP1 CALLDATASIZE SUB PUSH1 0x60 DUP2 LT ISZERO PUSH2 0xFC1 JUMPI PUSH1 0x0 DUP1 REVERT JUMPDEST DUP2 ADD SWAP1 DUP1 DUP1 CALLDATALOAD ISZERO ISZERO SWAP1 PUSH1 0x20 ADD SWAP1 SWAP3 SWAP2 SWAP1 DUP1 CALLDATALOAD SWAP1 PUSH1 0x20 ADD SWAP1 SWAP3 SWAP2 SWAP1 DUP1 CALLDATALOAD SWAP1 PUSH1 0x20 ADD SWAP1 SWAP3 SWAP2 SWAP1 POP POP POP PUSH2 0x2C50 JUMP JUMPDEST STOP JUMPDEST CALLVALUE DUP1 ISZERO PUSH2 0xFFB JUMPI PUSH1 0x0 DUP1 REVERT JUMPDEST POP PUSH2 0x1004 PUSH2 0x2CC4 JUMP JUMPDEST PUSH1 0x40 MLOAD DUP1 DUP3 ISZERO ISZERO DUP2 MSTORE PUSH1 0x20 ADD SWAP2 POP POP PUSH1 0x40 MLOAD DUP1 SWAP2 SUB SWAP1 RETURN JUMPDEST CALLVALUE DUP1 ISZERO PUSH2 0x1028 JUMPI PUSH1 0x0 DUP1 REVERT JUMPDEST POP PUSH2 0x10F5 PUSH1 0x4 DUP1 CALLDATASIZE SUB PUSH1 0x40 DUP2 LT ISZERO PUSH2 0x103F JUMPI PUSH1 0x0 DUP1 REVERT JUMPDEST DUP2 ADD SWAP1 DUP1 DUP1 CALLDATALOAD SWAP1 PUSH1 0x20 ADD SWAP1 PUSH5 0x100000000 DUP2 GT ISZERO PUSH2 0x105C JUMPI PUSH1 0x0 DUP1 REVERT JUMPDEST DUP3 ADD DUP4 PUSH1 0x20 DUP3 ADD GT ISZERO PUSH2 0x106E JUMPI PUSH1 0x0 DUP1 REVERT JUMPDEST DUP1 CALLDATALOAD SWAP1 PUSH1 0x20 ADD SWAP2 DUP5 PUSH1 0x20 DUP4 MUL DUP5 ADD GT PUSH5 0x100000000 DUP4 GT OR ISZERO PUSH2 0x1090 JUMPI PUSH1 0x0 DUP1 REVERT JUMPDEST SWAP1 SWAP2 SWAP3 SWAP4 SWAP2 SWAP3 SWAP4 SWAP1 DUP1 CALLDATALOAD SWAP1 PUSH1 0x20 ADD SWAP1 PUSH5 0x100000000 DUP2 GT ISZERO PUSH2 0x10B1 JUMPI PUSH1 0x0 DUP1 REVERT JUMPDEST DUP3 ADD DUP4 PUSH1 0x20 DUP3 ADD GT ISZERO PUSH2 0x10C3 JUMPI PUSH1 0x0 DUP1 REVERT JUMPDEST DUP1 CALLDATALOAD SWAP1 PUSH1 0x20 ADD SWAP2 DUP5 PUSH1 0x20 DUP4 MUL DUP5 ADD GT PUSH5 0x100000000 DUP4 GT OR ISZERO PUSH2 0x10E5 JUMPI PUSH1 0x0 DUP1 REVERT JUMPDEST SWAP1 SWAP2 SWAP3 SWAP4 SWAP2 SWAP3 SWAP4 SWAP1 POP POP POP PUSH2 0x2CD7 JUMP JUMPDEST STOP JUMPDEST CALLVALUE DUP1 ISZERO PUSH2 0x1103 JUMPI PUSH1 0x0 DUP1 REVERT JUMPDEST POP PUSH2 0x1146 PUSH1 0x4 DUP1 CALLDATASIZE SUB PUSH1 0x20 DUP2 LT ISZERO PUSH2 0x111A JUMPI PUSH1 0x0 DUP1 REVERT JUMPDEST DUP2 ADD SWAP1 DUP1 DUP1 CALLDATALOAD PUSH20 0xFFFFFFFFFFFFFFFFFFFFFFFFFFFFFFFFFFFFFFFF AND SWAP1 PUSH1 0x20 ADD SWAP1 SWAP3 SWAP2 SWAP1 POP POP POP PUSH2 0x2D50 JUMP JUMPDEST PUSH1 0x40 MLOAD DUP1 DUP3 ISZERO ISZERO DUP2 MSTORE PUSH1 0x20 ADD SWAP2 POP POP PUSH1 0x40 MLOAD DUP1 SWAP2 SUB SWAP1 RETURN JUMPDEST CALLVALUE DUP1 ISZERO PUSH2 0x116A JUMPI PUSH1 0x0 DUP1 REVERT JUMPDEST POP PUSH2 0x1197 PUSH1 0x4 DUP1 CALLDATASIZE SUB PUSH1 0x20 DUP2 LT ISZERO PUSH2 0x1181 JUMPI PUSH1 0x0 DUP1 REVERT JUMPDEST DUP2 ADD SWAP1 DUP1 DUP1 CALLDATALOAD SWAP1 PUSH1 0x20 ADD SWAP1 SWAP3 SWAP2 SWAP1 POP POP POP PUSH2 0x2DA6 JUMP JUMPDEST PUSH1 0x40 MLOAD DUP1 DUP3 DUP2 MSTORE PUSH1 0x20 ADD SWAP2 POP POP PUSH1 0x40 MLOAD DUP1 SWAP2 SUB SWAP1 RETURN JUMPDEST CALLVALUE DUP1 ISZERO PUSH2 0x11B9 JUMPI PUSH1 0x0 DUP1 REVERT JUMPDEST POP PUSH2 0x11FC PUSH1 0x4 DUP1 CALLDATASIZE SUB PUSH1 0x20 DUP2 LT ISZERO PUSH2 0x11D0 JUMPI PUSH1 0x0 DUP1 REVERT JUMPDEST DUP2 ADD SWAP1 DUP1 DUP1 CALLDATALOAD PUSH20 0xFFFFFFFFFFFFFFFFFFFFFFFFFFFFFFFFFFFFFFFF AND SWAP1 PUSH1 0x20 ADD SWAP1 SWAP3 SWAP2 SWAP1 POP POP POP PUSH2 0x2E68 JUMP JUMPDEST STOP JUMPDEST CALLVALUE DUP1 ISZERO PUSH2 0x120A JUMPI PUSH1 0x0 DUP1 REVERT JUMPDEST POP PUSH2 0x1213 PUSH2 0x2ED4 JUMP JUMPDEST PUSH1 0x40 MLOAD DUP1 DUP3 PUSH20 0xFFFFFFFFFFFFFFFFFFFFFFFFFFFFFFFFFFFFFFFF AND DUP2 MSTORE PUSH1 0x20 ADD SWAP2 POP POP PUSH1 0x40 MLOAD DUP1 SWAP2 SUB SWAP1 RETURN JUMPDEST CALLVALUE DUP1 ISZERO PUSH2 0x124B JUMPI PUSH1 0x0 DUP1 REVERT JUMPDEST POP PUSH2 0x12CE PUSH1 0x4 DUP1 CALLDATASIZE SUB PUSH1 0x60 DUP2 LT ISZERO PUSH2 0x1262 JUMPI PUSH1 0x0 DUP1 REVERT JUMPDEST DUP2 ADD SWAP1 DUP1 DUP1 CALLDATALOAD PUSH20 0xFFFFFFFFFFFFFFFFFFFFFFFFFFFFFFFFFFFFFFFF AND SWAP1 PUSH1 0x20 ADD SWAP1 SWAP3 SWAP2 SWAP1 DUP1 CALLDATALOAD PUSH20 0xFFFFFFFFFFFFFFFFFFFFFFFFFFFFFFFFFFFFFFFF AND SWAP1 PUSH1 0x20 ADD SWAP1 SWAP3 SWAP2 SWAP1 DUP1 CALLDATALOAD PUSH20 0xFFFFFFFFFFFFFFFFFFFFFFFFFFFFFFFFFFFFFFFF AND SWAP1 PUSH1 0x20 ADD SWAP1 SWAP3 SWAP2 SWAP1 POP POP POP PUSH2 0x2EFA JUMP JUMPDEST STOP JUMPDEST CALLVALUE DUP1 ISZERO PUSH2 0x12DC JUMPI PUSH1 0x0 DUP1 REVERT JUMPDEST POP PUSH2 0x133F PUSH1 0x4 DUP1 CALLDATASIZE SUB PUSH1 0x40 DUP2 LT ISZERO PUSH2 0x12F3 JUMPI PUSH1 0x0 DUP1 REVERT JUMPDEST DUP2 ADD SWAP1 DUP1 DUP1 CALLDATALOAD PUSH20 0xFFFFFFFFFFFFFFFFFFFFFFFFFFFFFFFFFFFFFFFF AND SWAP1 PUSH1 0x20 ADD SWAP1 SWAP3 SWAP2 SWAP1 DUP1 CALLDATALOAD PUSH20 0xFFFFFFFFFFFFFFFFFFFFFFFFFFFFFFFFFFFFFFFF AND SWAP1 PUSH1 0x20 ADD SWAP1 SWAP3 SWAP2 SWAP1 POP POP POP PUSH2 0x2FD3 JUMP JUMPDEST PUSH1 0x40 MLOAD DUP1 DUP3 DUP2 MSTORE PUSH1 0x20 ADD SWAP2 POP POP PUSH1 0x40 MLOAD DUP1 SWAP2 SUB SWAP1 RETURN JUMPDEST CALLVALUE DUP1 ISZERO PUSH2 0x1361 JUMPI PUSH1 0x0 DUP1 REVERT JUMPDEST POP PUSH2 0x13A4 PUSH1 0x4 DUP1 CALLDATASIZE SUB PUSH1 0x20 DUP2 LT ISZERO PUSH2 0x1378 JUMPI PUSH1 0x0 DUP1 REVERT JUMPDEST DUP2 ADD SWAP1 DUP1 DUP1 CALLDATALOAD PUSH20 0xFFFFFFFFFFFFFFFFFFFFFFFFFFFFFFFFFFFFFFFF AND SWAP1 PUSH1 0x20 ADD SWAP1 SWAP3 SWAP2 SWAP1 POP POP POP PUSH2 0x305A JUMP JUMPDEST STOP JUMPDEST CALLVALUE DUP1 ISZERO PUSH2 0x13B2 JUMPI PUSH1 0x0 DUP1 REVERT JUMPDEST POP PUSH2 0x13BB PUSH2 0x3077 JUMP JUMPDEST PUSH1 0x40 MLOAD DUP1 DUP3 PUSH20 0xFFFFFFFFFFFFFFFFFFFFFFFFFFFFFFFFFFFFFFFF AND DUP2 MSTORE PUSH1 0x20 ADD SWAP2 POP POP PUSH1 0x40 MLOAD DUP1 SWAP2 SUB SWAP1 RETURN JUMPDEST CALLVALUE DUP1 ISZERO PUSH2 0x13F3 JUMPI PUSH1 0x0 DUP1 REVERT JUMPDEST POP PUSH2 0x1436 PUSH1 0x4 DUP1 CALLDATASIZE SUB PUSH1 0x20 DUP2 LT ISZERO PUSH2 0x140A JUMPI PUSH1 0x0 DUP1 REVERT JUMPDEST DUP2 ADD SWAP1 DUP1 DUP1 CALLDATALOAD PUSH20 0xFFFFFFFFFFFFFFFFFFFFFFFFFFFFFFFFFFFFFFFF AND SWAP1 PUSH1 0x20 ADD SWAP1 SWAP3 SWAP2 SWAP1 POP POP POP PUSH2 0x309D JUMP JUMPDEST PUSH1 0x40 MLOAD DUP1 DUP3 ISZERO ISZERO DUP2 MSTORE PUSH1 0x20 ADD SWAP2 POP POP PUSH1 0x40 MLOAD DUP1 SWAP2 SUB SWAP1 RETURN JUMPDEST PUSH2 0x1456 PUSH2 0x2670 JUMP JUMPDEST PUSH2 0x145F JUMPI PUSH1 0x0 DUP1 REVERT JUMPDEST DUP5 PUSH1 0x7 DUP2 SWAP1 SSTORE POP DUP4 PUSH1 0x9 DUP2 SWAP1 SSTORE POP DUP3 PUSH1 0x8 DUP2 SWAP1 SSTORE POP DUP2 PUSH1 0xA DUP2 SWAP1 SSTORE POP PUSH2 0x14A6 PUSH1 0x9 SLOAD PUSH2 0x1498 PUSH1 0x8 SLOAD PUSH1 0x7 SLOAD PUSH2 0x30BD SWAP1 SWAP2 SWAP1 PUSH4 0xFFFFFFFF AND JUMP JUMPDEST PUSH2 0x30BD SWAP1 SWAP2 SWAP1 PUSH4 0xFFFFFFFF AND JUMP JUMPDEST PUSH1 0xB DUP2 SWAP1 SSTORE POP DUP1 PUSH1 0xC DUP2 SWAP1 SSTORE POP PUSH1 0x4 PUSH1 0xC SLOAD DUP2 PUSH2 0x14BF JUMPI INVALID JUMPDEST DIV PUSH1 0xB SLOAD LT PUSH2 0x14CD JUMPI PUSH1 0x0 DUP1 REVERT JUMPDEST POP POP POP POP POP JUMP JUMPDEST PUSH1 0x60 PUSH1 0x0 DUP1 SLOAD PUSH1 0x1 DUP2 PUSH1 0x1 AND ISZERO PUSH2 0x100 MUL SUB AND PUSH1 0x2 SWAP1 DIV DUP1 PUSH1 0x1F ADD PUSH1 0x20 DUP1 SWAP2 DIV MUL PUSH1 0x20 ADD PUSH1 0x40 MLOAD SWAP1 DUP2 ADD PUSH1 0x40 MSTORE DUP1 SWAP3 SWAP2 SWAP1 DUP2 DUP2 MSTORE PUSH1 0x20 ADD DUP3 DUP1 SLOAD PUSH1 0x1 DUP2 PUSH1 0x1 AND ISZERO PUSH2 0x100 MUL SUB AND PUSH1 0x2 SWAP1 DIV DUP1 ISZERO PUSH2 0x156C JUMPI DUP1 PUSH1 0x1F LT PUSH2 0x1541 JUMPI PUSH2 0x100 DUP1 DUP4 SLOAD DIV MUL DUP4 MSTORE SWAP2 PUSH1 0x20 ADD SWAP2 PUSH2 0x156C JUMP JUMPDEST DUP3 ADD SWAP2 SWAP1 PUSH1 0x0 MSTORE PUSH1 0x20 PUSH1 0x0 KECCAK256 SWAP1 JUMPDEST DUP2 SLOAD DUP2 MSTORE SWAP1 PUSH1 0x1 ADD SWAP1 PUSH1 0x20 ADD DUP1 DUP4 GT PUSH2 0x154F JUMPI DUP3 SWAP1 SUB PUSH1 0x1F AND DUP3 ADD SWAP2 JUMPDEST POP POP POP POP POP SWAP1 POP SWAP1 JUMP JUMPDEST PUSH1 0x0 PUSH1 0x4 PUSH1 0x14 SWAP1 SLOAD SWAP1 PUSH2 0x100 EXP SWAP1 DIV PUSH1 0xFF AND DUP1 PUSH2 0x1597 JUMPI POP PUSH2 0x1596 PUSH2 0x2670 JUMP JUMPDEST JUMPDEST DUP1 PUSH2 0x15EB JUMPI POP PUSH1 0x5 PUSH1 0x0 CALLER PUSH20 0xFFFFFFFFFFFFFFFFFFFFFFFFFFFFFFFFFFFFFFFF AND PUSH20 0xFFFFFFFFFFFFFFFFFFFFFFFFFFFFFFFFFFFFFFFF AND DUP2 MSTORE PUSH1 0x20 ADD SWAP1 DUP2 MSTORE PUSH1 0x20 ADD PUSH1 0x0 KECCAK256 PUSH1 0x0 SWAP1 SLOAD SWAP1 PUSH2 0x100 EXP SWAP1 DIV PUSH1 0xFF AND JUMPDEST PUSH2 0x15F4 JUMPI PUSH1 0x0 DUP1 REVERT JUMPDEST DUP2 PUSH1 0x1B PUSH1 0x0 CALLER PUSH20 0xFFFFFFFFFFFFFFFFFFFFFFFFFFFFFFFFFFFFFFFF AND PUSH20 0xFFFFFFFFFFFFFFFFFFFFFFFFFFFFFFFFFFFFFFFF AND DUP2 MSTORE PUSH1 0x20 ADD SWAP1 DUP2 MSTORE PUSH1 0x20 ADD PUSH1 0x0 KECCAK256 PUSH1 0x0 DUP6 PUSH20 0xFFFFFFFFFFFFFFFFFFFFFFFFFFFFFFFFFFFFFFFF AND PUSH20 0xFFFFFFFFFFFFFFFFFFFFFFFFFFFFFFFFFFFFFFFF AND DUP2 MSTORE PUSH1 0x20 ADD SWAP1 DUP2 MSTORE PUSH1 0x20 ADD PUSH1 0x0 KECCAK256 DUP2 SWAP1 SSTORE POP DUP3 PUSH20 0xFFFFFFFFFFFFFFFFFFFFFFFFFFFFFFFFFFFFFFFF AND CALLER PUSH20 0xFFFFFFFFFFFFFFFFFFFFFFFFFFFFFFFFFFFFFFFF AND PUSH32 0x8C5BE1E5EBEC7D5BD14F71427D1E84F3DD0314C0F7B2291E5B200AC8C7C3B925 DUP5 PUSH1 0x40 MLOAD DUP1 DUP3 DUP2 MSTORE PUSH1 0x20 ADD SWAP2 POP POP PUSH1 0x40 MLOAD DUP1 SWAP2 SUB SWAP1 LOG3 PUSH1 0x1 SWAP1 POP SWAP3 SWAP2 POP POP JUMP JUMPDEST PUSH1 0x0 DUP3 PUSH2 0x16F0 DUP4 PUSH2 0x2DA6 JUMP JUMPDEST GT SWAP1 POP SWAP3 SWAP2 POP POP JUMP JUMPDEST PUSH1 0xC SLOAD DUP2 JUMP JUMPDEST PUSH1 0x0 PUSH1 0x18 SLOAD SWAP1 POP SWAP1 JUMP JUMPDEST PUSH1 0xB SLOAD DUP2 JUMP JUMPDEST PUSH2 0x1717 PUSH2 0x2670 JUMP JUMPDEST PUSH2 0x1720 JUMPI PUSH1 0x0 DUP1 REVERT JUMPDEST DUP2 PUSH1 0x12 DUP2 SWAP1 SSTORE POP DUP1 PUSH1 0x13 DUP2 SWAP1 SSTORE POP POP POP JUMP JUMPDEST PUSH1 0x0 DUP3 PUSH1 0x0 PUSH20 0xFFFFFFFFFFFFFFFFFFFFFFFFFFFFFFFFFFFFFFFF AND DUP2 PUSH20 0xFFFFFFFFFFFFFFFFFFFFFFFFFFFFFFFFFFFFFFFF AND EQ ISZERO PUSH2 0x176F JUMPI PUSH1 0x0 DUP1 REVERT JUMPDEST PUSH32 0xFFFFFFFFFFFFFFFFFFFFFFFFFFFFFFFFFFFFFFFFFFFFFFFFFFFFFFFFFFFFFFFF PUSH1 0x1B PUSH1 0x0 DUP8 PUSH20 0xFFFFFFFFFFFFFFFFFFFFFFFFFFFFFFFFFFFFFFFF AND PUSH20 0xFFFFFFFFFFFFFFFFFFFFFFFFFFFFFFFFFFFFFFFF AND DUP2 MSTORE PUSH1 0x20 ADD SWAP1 DUP2 MSTORE PUSH1 0x20 ADD PUSH1 0x0 KECCAK256 PUSH1 0x0 CALLER PUSH20 0xFFFFFFFFFFFFFFFFFFFFFFFFFFFFFFFFFFFFFFFF AND PUSH20 0xFFFFFFFFFFFFFFFFFFFFFFFFFFFFFFFFFFFFFFFF AND DUP2 MSTORE PUSH1 0x20 ADD SWAP1 DUP2 MSTORE PUSH1 0x20 ADD PUSH1 0x0 KECCAK256 SLOAD EQ PUSH2 0x1959 JUMPI PUSH2 0x18D8 DUP4 PUSH1 0x40 MLOAD DUP1 PUSH1 0x40 ADD PUSH1 0x40 MSTORE DUP1 PUSH1 0x16 DUP2 MSTORE PUSH1 0x20 ADD PUSH32 0x496E73756666696369656E7420416C6C6F77616E636500000000000000000000 DUP2 MSTORE POP PUSH1 0x1B PUSH1 0x0 DUP10 PUSH20 0xFFFFFFFFFFFFFFFFFFFFFFFFFFFFFFFFFFFFFFFF AND PUSH20 0xFFFFFFFFFFFFFFFFFFFFFFFFFFFFFFFFFFFFFFFF AND DUP2 MSTORE PUSH1 0x20 ADD SWAP1 DUP2 MSTORE PUSH1 0x20 ADD PUSH1 0x0 KECCAK256 PUSH1 0x0 CALLER PUSH20 0xFFFFFFFFFFFFFFFFFFFFFFFFFFFFFFFFFFFFFFFF AND PUSH20 0xFFFFFFFFFFFFFFFFFFFFFFFFFFFFFFFFFFFFFFFF AND DUP2 MSTORE PUSH1 0x20 ADD SWAP1 DUP2 MSTORE PUSH1 0x20 ADD PUSH1 0x0 KECCAK256 SLOAD PUSH2 0x326A SWAP1 SWAP3 SWAP2 SWAP1 PUSH4 0xFFFFFFFF AND JUMP JUMPDEST PUSH1 0x1B PUSH1 0x0 DUP8 PUSH20 0xFFFFFFFFFFFFFFFFFFFFFFFFFFFFFFFFFFFFFFFF AND PUSH20 0xFFFFFFFFFFFFFFFFFFFFFFFFFFFFFFFFFFFFFFFF AND DUP2 MSTORE PUSH1 0x20 ADD SWAP1 DUP2 MSTORE PUSH1 0x20 ADD PUSH1 0x0 KECCAK256 PUSH1 0x0 CALLER PUSH20 0xFFFFFFFFFFFFFFFFFFFFFFFFFFFFFFFFFFFFFFFF AND PUSH20 0xFFFFFFFFFFFFFFFFFFFFFFFFFFFFFFFFFFFFFFFF AND DUP2 MSTORE PUSH1 0x20 ADD SWAP1 DUP2 MSTORE PUSH1 0x20 ADD PUSH1 0x0 KECCAK256 DUP2 SWAP1 SSTORE POP JUMPDEST PUSH2 0x1964 DUP6 DUP6 DUP6 PUSH2 0x332A JUMP JUMPDEST POP PUSH1 0x1 SWAP2 POP POP SWAP4 SWAP3 POP POP POP JUMP JUMPDEST PUSH1 0x0 PUSH2 0x1A87 PUSH1 0x19 SLOAD PUSH2 0x1A79 PUSH1 0x1A PUSH1 0x0 PUSH1 0xE PUSH1 0x0 SWAP1 SLOAD SWAP1 PUSH2 0x100 EXP SWAP1 DIV PUSH20 0xFFFFFFFFFFFFFFFFFFFFFFFFFFFFFFFFFFFFFFFF AND PUSH20 0xFFFFFFFFFFFFFFFFFFFFFFFFFFFFFFFFFFFFFFFF AND PUSH20 0xFFFFFFFFFFFFFFFFFFFFFFFFFFFFFFFFFFFFFFFF AND DUP2 MSTORE PUSH1 0x20 ADD SWAP1 DUP2 MSTORE PUSH1 0x20 ADD PUSH1 0x0 KECCAK256 SLOAD PUSH2 0x1A6B PUSH1 0x1A PUSH1 0x0 PUSH1 0xD PUSH1 0x0 SWAP1 SLOAD SWAP1 PUSH2 0x100 EXP SWAP1 DIV PUSH20 0xFFFFFFFFFFFFFFFFFFFFFFFFFFFFFFFFFFFFFFFF AND PUSH20 0xFFFFFFFFFFFFFFFFFFFFFFFFFFFFFFFFFFFFFFFF AND PUSH20 0xFFFFFFFFFFFFFFFFFFFFFFFFFFFFFFFFFFFFFFFF AND DUP2 MSTORE PUSH1 0x20 ADD SWAP1 DUP2 MSTORE PUSH1 0x20 ADD PUSH1 0x0 KECCAK256 SLOAD PUSH1 0x12 PUSH1 0xA EXP PUSH4 0xEE6B2800 MUL PUSH1 0x0 NOT DUP2 PUSH2 0x1A58 JUMPI INVALID JUMPDEST MOD PUSH1 0x0 NOT SUB PUSH2 0x366D SWAP1 SWAP2 SWAP1 PUSH4 0xFFFFFFFF AND JUMP JUMPDEST PUSH2 0x366D SWAP1 SWAP2 SWAP1 PUSH4 0xFFFFFFFF AND JUMP JUMPDEST PUSH2 0x3145 SWAP1 SWAP2 SWAP1 PUSH4 0xFFFFFFFF AND JUMP JUMPDEST SWAP1 POP SWAP1 JUMP JUMPDEST PUSH1 0xA SLOAD DUP2 JUMP JUMPDEST PUSH2 0x1A9A PUSH2 0x2670 JUMP JUMPDEST PUSH2 0x1AA3 JUMPI PUSH1 0x0 DUP1 REVERT JUMPDEST PUSH1 0x1 PUSH1 0x4 PUSH1 0x14 PUSH2 0x100 EXP DUP2 SLOAD DUP2 PUSH1 0xFF MUL NOT AND SWAP1 DUP4 ISZERO ISZERO MUL OR SWAP1 SSTORE POP JUMP JUMPDEST PUSH2 0x1AC8 PUSH2 0x2670 JUMP JUMPDEST PUSH2 0x1AD1 JUMPI PUSH1 0x0 DUP1 REVERT JUMPDEST DUP1 PUSH1 0x4 PUSH1 0x0 PUSH2 0x100 EXP DUP2 SLOAD DUP2 PUSH20 0xFFFFFFFFFFFFFFFFFFFFFFFFFFFFFFFFFFFFFFFF MUL NOT AND SWAP1 DUP4 PUSH20 0xFFFFFFFFFFFFFFFFFFFFFFFFFFFFFFFFFFFFFFFF AND MUL OR SWAP1 SSTORE POP PUSH1 0x6 PUSH1 0x0 DUP3 PUSH20 0xFFFFFFFFFFFFFFFFFFFFFFFFFFFFFFFFFFFFFFFF AND PUSH20 0xFFFFFFFFFFFFFFFFFFFFFFFFFFFFFFFFFFFFFFFF AND DUP2 MSTORE PUSH1 0x20 ADD SWAP1 DUP2 MSTORE PUSH1 0x20 ADD PUSH1 0x0 KECCAK256 PUSH1 0x0 SWAP1 SLOAD SWAP1 PUSH2 0x100 EXP SWAP1 POP POP POP JUMP JUMPDEST PUSH2 0x1B68 PUSH2 0x2670 JUMP JUMPDEST PUSH2 0x1B71 JUMPI PUSH1 0x0 DUP1 REVERT JUMPDEST PUSH2 0x1B7A DUP2 PUSH2 0x36B7 JUMP JUMPDEST POP JUMP JUMPDEST PUSH1 0x0 PUSH1 0x2 PUSH1 0x0 SWAP1 SLOAD SWAP1 PUSH2 0x100 EXP SWAP1 DIV PUSH1 0xFF AND SWAP1 POP SWAP1 JUMP JUMPDEST PUSH1 0x0 PUSH2 0x1B9E PUSH2 0x2670 JUMP JUMPDEST PUSH2 0x1BA7 JUMPI PUSH1 0x0 DUP1 REVERT JUMPDEST DUP3 PUSH20 0xFFFFFFFFFFFFFFFFFFFFFFFFFFFFFFFFFFFFFFFF AND PUSH4 0xA9059CBB CALLER DUP5 PUSH1 0x40 MLOAD DUP4 PUSH4 0xFFFFFFFF AND PUSH1 0xE0 SHL DUP2 MSTORE PUSH1 0x4 ADD DUP1 DUP4 PUSH20 0xFFFFFFFFFFFFFFFFFFFFFFFFFFFFFFFFFFFFFFFF AND DUP2 MSTORE PUSH1 0x20 ADD DUP3 DUP2 MSTORE PUSH1 0x20 ADD SWAP3 POP POP POP PUSH1 0x20 PUSH1 0x40 MLOAD DUP1 DUP4 SUB DUP2 PUSH1 0x0 DUP8 DUP1 EXTCODESIZE ISZERO DUP1 ISZERO PUSH2 0x1C18 JUMPI PUSH1 0x0 DUP1 REVERT JUMPDEST POP GAS CALL ISZERO DUP1 ISZERO PUSH2 0x1C2C JUMPI RETURNDATASIZE PUSH1 0x0 DUP1 RETURNDATACOPY RETURNDATASIZE PUSH1 0x0 REVERT JUMPDEST POP POP POP POP PUSH1 0x40 MLOAD RETURNDATASIZE PUSH1 0x20 DUP2 LT ISZERO PUSH2 0x1C42 JUMPI PUSH1 0x0 DUP1 REVERT JUMPDEST DUP2 ADD SWAP1 DUP1 DUP1 MLOAD SWAP1 PUSH1 0x20 ADD SWAP1 SWAP3 SWAP2 SWAP1 POP POP POP SWAP1 POP SWAP3 SWAP2 POP POP JUMP JUMPDEST PUSH1 0x0 PUSH1 0x4 PUSH1 0x14 SWAP1 SLOAD SWAP1 PUSH2 0x100 EXP SWAP1 DIV PUSH1 0xFF AND DUP1 PUSH2 0x1C7C JUMPI POP PUSH2 0x1C7B PUSH2 0x2670 JUMP JUMPDEST JUMPDEST DUP1 PUSH2 0x1CD0 JUMPI POP PUSH1 0x5 PUSH1 0x0 CALLER PUSH20 0xFFFFFFFFFFFFFFFFFFFFFFFFFFFFFFFFFFFFFFFF AND PUSH20 0xFFFFFFFFFFFFFFFFFFFFFFFFFFFFFFFFFFFFFFFF AND DUP2 MSTORE PUSH1 0x20 ADD SWAP1 DUP2 MSTORE PUSH1 0x20 ADD PUSH1 0x0 KECCAK256 PUSH1 0x0 SWAP1 SLOAD SWAP1 PUSH2 0x100 EXP SWAP1 DIV PUSH1 0xFF AND JUMPDEST PUSH2 0x1CD9 JUMPI PUSH1 0x0 DUP1 REVERT JUMPDEST PUSH2 0x1D68 DUP3 PUSH1 0x1B PUSH1 0x0 CALLER PUSH20 0xFFFFFFFFFFFFFFFFFFFFFFFFFFFFFFFFFFFFFFFF AND PUSH20 0xFFFFFFFFFFFFFFFFFFFFFFFFFFFFFFFFFFFFFFFF AND DUP2 MSTORE PUSH1 0x20 ADD SWAP1 DUP2 MSTORE PUSH1 0x20 ADD PUSH1 0x0 KECCAK256 PUSH1 0x0 DUP7 PUSH20 0xFFFFFFFFFFFFFFFFFFFFFFFFFFFFFFFFFFFFFFFF AND PUSH20 0xFFFFFFFFFFFFFFFFFFFFFFFFFFFFFFFFFFFFFFFF AND DUP2 MSTORE PUSH1 0x20 ADD SWAP1 DUP2 MSTORE PUSH1 0x20 ADD PUSH1 0x0 KECCAK256 SLOAD PUSH2 0x30BD SWAP1 SWAP2 SWAP1 PUSH4 0xFFFFFFFF AND JUMP JUMPDEST PUSH1 0x1B PUSH1 0x0 CALLER PUSH20 0xFFFFFFFFFFFFFFFFFFFFFFFFFFFFFFFFFFFFFFFF AND PUSH20 0xFFFFFFFFFFFFFFFFFFFFFFFFFFFFFFFFFFFFFFFF AND DUP2 MSTORE PUSH1 0x20 ADD SWAP1 DUP2 MSTORE PUSH1 0x20 ADD PUSH1 0x0 KECCAK256 PUSH1 0x0 DUP6 PUSH20 0xFFFFFFFFFFFFFFFFFFFFFFFFFFFFFFFFFFFFFFFF AND PUSH20 0xFFFFFFFFFFFFFFFFFFFFFFFFFFFFFFFFFFFFFFFF AND DUP2 MSTORE PUSH1 0x20 ADD SWAP1 DUP2 MSTORE PUSH1 0x20 ADD PUSH1 0x0 KECCAK256 DUP2 SWAP1 SSTORE POP DUP3 PUSH20 0xFFFFFFFFFFFFFFFFFFFFFFFFFFFFFFFFFFFFFFFF AND CALLER PUSH20 0xFFFFFFFFFFFFFFFFFFFFFFFFFFFFFFFFFFFFFFFF AND PUSH32 0x8C5BE1E5EBEC7D5BD14F71427D1E84F3DD0314C0F7B2291E5B200AC8C7C3B925 PUSH1 0x1B PUSH1 0x0 CALLER PUSH20 0xFFFFFFFFFFFFFFFFFFFFFFFFFFFFFFFFFFFFFFFF AND PUSH20 0xFFFFFFFFFFFFFFFFFFFFFFFFFFFFFFFFFFFFFFFF AND DUP2 MSTORE PUSH1 0x20 ADD SWAP1 DUP2 MSTORE PUSH1 0x20 ADD PUSH1 0x0 KECCAK256 PUSH1 0x0 DUP8 PUSH20 0xFFFFFFFFFFFFFFFFFFFFFFFFFFFFFFFFFFFFFFFF AND PUSH20 0xFFFFFFFFFFFFFFFFFFFFFFFFFFFFFFFFFFFFFFFF AND DUP2 MSTORE PUSH1 0x20 ADD SWAP1 DUP2 MSTORE PUSH1 0x20 ADD PUSH1 0x0 KECCAK256 SLOAD PUSH1 0x40 MLOAD DUP1 DUP3 DUP2 MSTORE PUSH1 0x20 ADD SWAP2 POP POP PUSH1 0x40 MLOAD DUP1 SWAP2 SUB SWAP1 LOG3 PUSH1 0x1 SWAP1 POP SWAP3 SWAP2 POP POP JUMP JUMPDEST PUSH2 0x1EDC CALLER PUSH2 0x2C07 JUMP JUMPDEST PUSH2 0x1F31 JUMPI PUSH1 0x40 MLOAD PUSH32 0x8C379A000000000000000000000000000000000000000000000000000000000 DUP2 MSTORE PUSH1 0x4 ADD DUP1 DUP1 PUSH1 0x20 ADD DUP3 DUP2 SUB DUP3 MSTORE PUSH1 0x30 DUP2 MSTORE PUSH1 0x20 ADD DUP1 PUSH2 0x4726 PUSH1 0x30 SWAP2 CODECOPY PUSH1 0x40 ADD SWAP2 POP POP PUSH1 0x40 MLOAD DUP1 SWAP2 SUB SWAP1 REVERT JUMPDEST PUSH2 0x1F46 DUP2 PUSH1 0x18 SLOAD PUSH2 0x30BD SWAP1 SWAP2 SWAP1 PUSH4 0xFFFFFFFF AND JUMP JUMPDEST PUSH1 0x18 DUP2 SWAP1 SSTORE POP PUSH1 0x0 NOT PUSH16 0xFFFFFFFFFFFFFFFFFFFFFFFFFFFFFFFF AND PUSH1 0x18 SLOAD GT ISZERO PUSH2 0x1F86 JUMPI PUSH1 0x0 NOT PUSH16 0xFFFFFFFFFFFFFFFFFFFFFFFFFFFFFFFF AND PUSH1 0x18 DUP2 SWAP1 SSTORE POP JUMPDEST PUSH2 0x1FB4 PUSH1 0x18 SLOAD PUSH1 0x12 PUSH1 0xA EXP PUSH4 0xEE6B2800 MUL PUSH1 0x0 NOT DUP2 PUSH2 0x1FA1 JUMPI INVALID JUMPDEST MOD PUSH1 0x0 NOT SUB PUSH2 0x3145 SWAP1 SWAP2 SWAP1 PUSH4 0xFFFFFFFF AND JUMP JUMPDEST PUSH1 0x19 DUP2 SWAP1 SSTORE POP PUSH1 0x4 PUSH1 0x0 SWAP1 SLOAD SWAP1 PUSH2 0x100 EXP SWAP1 DIV PUSH20 0xFFFFFFFFFFFFFFFFFFFFFFFFFFFFFFFFFFFFFFFF AND PUSH20 0xFFFFFFFFFFFFFFFFFFFFFFFFFFFFFFFFFFFFFFFF AND PUSH4 0xFFF6CAE9 PUSH1 0x40 MLOAD DUP2 PUSH4 0xFFFFFFFF AND PUSH1 0xE0 SHL DUP2 MSTORE PUSH1 0x4 ADD PUSH1 0x0 PUSH1 0x40 MLOAD DUP1 DUP4 SUB DUP2 PUSH1 0x0 DUP8 DUP1 EXTCODESIZE ISZERO DUP1 ISZERO PUSH2 0x2024 JUMPI PUSH1 0x0 DUP1 REVERT JUMPDEST POP GAS CALL ISZERO DUP1 ISZERO PUSH2 0x2038 JUMPI RETURNDATASIZE PUSH1 0x0 DUP1 RETURNDATACOPY RETURNDATASIZE PUSH1 0x0 REVERT JUMPDEST POP POP POP POP PUSH2 0x208E DUP2 PUSH1 0x1A PUSH1 0x0 DUP6 PUSH20 0xFFFFFFFFFFFFFFFFFFFFFFFFFFFFFFFFFFFFFFFF AND PUSH20 0xFFFFFFFFFFFFFFFFFFFFFFFFFFFFFFFFFFFFFFFF AND DUP2 MSTORE PUSH1 0x20 ADD SWAP1 DUP2 MSTORE PUSH1 0x20 ADD PUSH1 0x0 KECCAK256 SLOAD PUSH2 0x30BD SWAP1 SWAP2 SWAP1 PUSH4 0xFFFFFFFF AND JUMP JUMPDEST PUSH1 0x1A PUSH1 0x0 DUP5 PUSH20 0xFFFFFFFFFFFFFFFFFFFFFFFFFFFFFFFFFFFFFFFF AND PUSH20 0xFFFFFFFFFFFFFFFFFFFFFFFFFFFFFFFFFFFFFFFF AND DUP2 MSTORE PUSH1 0x20 ADD SWAP1 DUP2 MSTORE PUSH1 0x20 ADD PUSH1 0x0 KECCAK256 DUP2 SWAP1 SSTORE POP POP POP JUMP JUMPDEST PUSH1 0x4 PUSH1 0x0 SWAP1 SLOAD SWAP1 PUSH2 0x100 EXP SWAP1 DIV PUSH20 0xFFFFFFFFFFFFFFFFFFFFFFFFFFFFFFFFFFFFFFFF AND DUP2 JUMP JUMPDEST PUSH1 0x8 SLOAD DUP2 JUMP JUMPDEST PUSH2 0x2109 PUSH2 0x2670 JUMP JUMPDEST PUSH2 0x2112 JUMPI PUSH1 0x0 DUP1 REVERT JUMPDEST PUSH1 0x0 SELFBALANCE SWAP1 POP DUP2 PUSH20 0xFFFFFFFFFFFFFFFFFFFFFFFFFFFFFFFFFFFFFFFF AND PUSH2 0x8FC PUSH1 0x64 DUP6 DUP5 MUL DUP2 PUSH2 0x213D JUMPI INVALID JUMPDEST DIV SWAP1 DUP2 ISZERO MUL SWAP1 PUSH1 0x40 MLOAD PUSH1 0x0 PUSH1 0x40 MLOAD DUP1 DUP4 SUB DUP2 DUP6 DUP9 DUP9 CALL SWAP4 POP POP POP POP ISZERO DUP1 ISZERO PUSH2 0x2169 JUMPI RETURNDATASIZE PUSH1 0x0 DUP1 RETURNDATACOPY RETURNDATASIZE PUSH1 0x0 REVERT JUMPDEST POP POP POP POP JUMP JUMPDEST PUSH1 0x0 PUSH2 0x2188 PUSH1 0x19 SLOAD PUSH1 0x16 SLOAD PUSH2 0x3145 SWAP1 SWAP2 SWAP1 PUSH4 0xFFFFFFFF AND JUMP JUMPDEST SWAP1 POP SWAP1 JUMP JUMPDEST PUSH1 0x15 PUSH1 0x14 SWAP1 SLOAD SWAP1 PUSH2 0x100 EXP SWAP1 DIV PUSH1 0xFF AND DUP2 JUMP JUMPDEST PUSH1 0x0 PUSH2 0x21F6 PUSH1 0x19 SLOAD PUSH1 0x1A PUSH1 0x0 DUP6 PUSH20 0xFFFFFFFFFFFFFFFFFFFFFFFFFFFFFFFFFFFFFFFF AND PUSH20 0xFFFFFFFFFFFFFFFFFFFFFFFFFFFFFFFFFFFFFFFF AND DUP2 MSTORE PUSH1 0x20 ADD SWAP1 DUP2 MSTORE PUSH1 0x20 ADD PUSH1 0x0 KECCAK256 SLOAD PUSH2 0x3145 SWAP1 SWAP2 SWAP1 PUSH4 0xFFFFFFFF AND JUMP JUMPDEST SWAP1 POP SWAP2 SWAP1 POP JUMP JUMPDEST PUSH2 0x2205 PUSH2 0x2670 JUMP JUMPDEST PUSH2 0x220E JUMPI PUSH1 0x0 DUP1 REVERT JUMPDEST PUSH1 0x2 PUSH1 0x1 SWAP1 SLOAD SWAP1 PUSH2 0x100 EXP SWAP1 DIV PUSH20 0xFFFFFFFFFFFFFFFFFFFFFFFFFFFFFFFFFFFFFFFF AND PUSH20 0xFFFFFFFFFFFFFFFFFFFFFFFFFFFFFFFFFFFFFFFF AND PUSH32 0xF8DF31144D9C2F0F6B59D69B8B98ABD5459D07F2742C4DF920B25AAE33C64820 PUSH1 0x40 MLOAD PUSH1 0x40 MLOAD DUP1 SWAP2 SUB SWAP1 LOG2 PUSH1 0x0 PUSH1 0x2 PUSH1 0x1 PUSH2 0x100 EXP DUP2 SLOAD DUP2 PUSH20 0xFFFFFFFFFFFFFFFFFFFFFFFFFFFFFFFFFFFFFFFF MUL NOT AND SWAP1 DUP4 PUSH20 0xFFFFFFFFFFFFFFFFFFFFFFFFFFFFFFFFFFFFFFFF AND MUL OR SWAP1 SSTORE POP JUMP JUMPDEST PUSH2 0x22BF PUSH2 0x2670 JUMP JUMPDEST PUSH2 0x22C8 JUMPI PUSH1 0x0 DUP1 REVERT JUMPDEST PUSH1 0x1 PUSH1 0x6 PUSH1 0x0 DUP4 PUSH20 0xFFFFFFFFFFFFFFFFFFFFFFFFFFFFFFFFFFFFFFFF AND PUSH20 0xFFFFFFFFFFFFFFFFFFFFFFFFFFFFFFFFFFFFFFFF AND DUP2 MSTORE PUSH1 0x20 ADD SWAP1 DUP2 MSTORE PUSH1 0x20 ADD PUSH1 0x0 KECCAK256 PUSH1 0x0 PUSH2 0x100 EXP DUP2 SLOAD DUP2 PUSH1 0xFF MUL NOT AND SWAP1 DUP4 ISZERO ISZERO MUL OR SWAP1 SSTORE POP POP JUMP JUMPDEST PUSH1 0x15 PUSH1 0x0 SWAP1 SLOAD SWAP1 PUSH2 0x100 EXP SWAP1 DIV PUSH20 0xFFFFFFFFFFFFFFFFFFFFFFFFFFFFFFFFFFFFFFFF AND PUSH20 0xFFFFFFFFFFFFFFFFFFFFFFFFFFFFFFFFFFFFFFFF AND PUSH4 0xFFF6CAE9 PUSH1 0x40 MLOAD DUP2 PUSH4 0xFFFFFFFF AND PUSH1 0xE0 SHL DUP2 MSTORE PUSH1 0x4 ADD PUSH1 0x0 PUSH1 0x40 MLOAD DUP1 DUP4 SUB DUP2 PUSH1 0x0 DUP8 DUP1 EXTCODESIZE ISZERO DUP1 ISZERO PUSH2 0x238D JUMPI PUSH1 0x0 DUP1 REVERT JUMPDEST POP GAS CALL ISZERO DUP1 ISZERO PUSH2 0x23A1 JUMPI RETURNDATASIZE PUSH1 0x0 DUP1 RETURNDATACOPY RETURNDATASIZE PUSH1 0x0 REVERT JUMPDEST POP POP POP POP JUMP JUMPDEST PUSH1 0x0 PUSH2 0x23B1 PUSH2 0x2670 JUMP JUMPDEST PUSH2 0x23BA JUMPI PUSH1 0x0 DUP1 REVERT JUMPDEST PUSH1 0x17 PUSH1 0x0 SWAP1 SLOAD SWAP1 PUSH2 0x100 EXP SWAP1 DIV PUSH1 0xFF AND ISZERO PUSH2 0x243D JUMPI PUSH1 0x40 MLOAD PUSH32 0x8C379A000000000000000000000000000000000000000000000000000000000 DUP2 MSTORE PUSH1 0x4 ADD DUP1 DUP1 PUSH1 0x20 ADD DUP3 DUP2 SUB DUP3 MSTORE PUSH1 0x9 DUP2 MSTORE PUSH1 0x20 ADD DUP1 PUSH32 0x54727920616761696E0000000000000000000000000000000000000000000000 DUP2 MSTORE POP PUSH1 0x20 ADD SWAP2 POP POP PUSH1 0x40 MLOAD DUP1 SWAP2 SUB SWAP1 REVERT JUMPDEST PUSH1 0x0 DUP3 EQ ISZERO PUSH2 0x248A JUMPI DUP3 PUSH32 0x72725A3B1E5BD622D6BCD1339BB31279C351ABE8F541AC7FD320F24E1B1641F2 PUSH1 0x18 SLOAD PUSH1 0x40 MLOAD DUP1 DUP3 DUP2 MSTORE PUSH1 0x20 ADD SWAP2 POP POP PUSH1 0x40 MLOAD DUP1 SWAP2 SUB SWAP1 LOG2 PUSH1 0x18 SLOAD SWAP1 POP PUSH2 0x2602 JUMP JUMPDEST PUSH1 0x0 DUP3 SLT ISZERO PUSH2 0x24B6 JUMPI PUSH2 0x24AB DUP3 PUSH1 0x0 SUB PUSH1 0x18 SLOAD PUSH2 0x366D SWAP1 SWAP2 SWAP1 PUSH4 0xFFFFFFFF AND JUMP JUMPDEST PUSH1 0x18 DUP2 SWAP1 SSTORE POP PUSH2 0x24D2 JUMP JUMPDEST PUSH2 0x24CB DUP3 PUSH1 0x18 SLOAD PUSH2 0x30BD SWAP1 SWAP2 SWAP1 PUSH4 0xFFFFFFFF AND JUMP JUMPDEST PUSH1 0x18 DUP2 SWAP1 SSTORE POP JUMPDEST PUSH1 0x0 NOT PUSH16 0xFFFFFFFFFFFFFFFFFFFFFFFFFFFFFFFF AND PUSH1 0x18 SLOAD GT ISZERO PUSH2 0x250C JUMPI PUSH1 0x0 NOT PUSH16 0xFFFFFFFFFFFFFFFFFFFFFFFFFFFFFFFF AND PUSH1 0x18 DUP2 SWAP1 SSTORE POP JUMPDEST PUSH2 0x253A PUSH1 0x18 SLOAD PUSH1 0x12 PUSH1 0xA EXP PUSH4 0xEE6B2800 MUL PUSH1 0x0 NOT DUP2 PUSH2 0x2527 JUMPI INVALID JUMPDEST MOD PUSH1 0x0 NOT SUB PUSH2 0x3145 SWAP1 SWAP2 SWAP1 PUSH4 0xFFFFFFFF AND JUMP JUMPDEST PUSH1 0x19 DUP2 SWAP1 SSTORE POP PUSH1 0x4 PUSH1 0x0 SWAP1 SLOAD SWAP1 PUSH2 0x100 EXP SWAP1 DIV PUSH20 0xFFFFFFFFFFFFFFFFFFFFFFFFFFFFFFFFFFFFFFFF AND PUSH20 0xFFFFFFFFFFFFFFFFFFFFFFFFFFFFFFFFFFFFFFFF AND PUSH4 0xFFF6CAE9 PUSH1 0x40 MLOAD DUP2 PUSH4 0xFFFFFFFF AND PUSH1 0xE0 SHL DUP2 MSTORE PUSH1 0x4 ADD PUSH1 0x0 PUSH1 0x40 MLOAD DUP1 DUP4 SUB DUP2 PUSH1 0x0 DUP8 DUP1 EXTCODESIZE ISZERO DUP1 ISZERO PUSH2 0x25AA JUMPI PUSH1 0x0 DUP1 REVERT JUMPDEST POP GAS CALL ISZERO DUP1 ISZERO PUSH2 0x25BE JUMPI RETURNDATASIZE PUSH1 0x0 DUP1 RETURNDATACOPY RETURNDATASIZE PUSH1 0x0 REVERT JUMPDEST POP POP POP POP DUP3 PUSH32 0x72725A3B1E5BD622D6BCD1339BB31279C351ABE8F541AC7FD320F24E1B1641F2 PUSH1 0x18 SLOAD PUSH1 0x40 MLOAD DUP1 DUP3 DUP2 MSTORE PUSH1 0x20 ADD SWAP2 POP POP PUSH1 0x40 MLOAD DUP1 SWAP2 SUB SWAP1 LOG2 PUSH1 0x18 SLOAD SWAP1 POP JUMPDEST SWAP3 SWAP2 POP POP JUMP JUMPDEST PUSH1 0x10 PUSH1 0x0 SWAP1 SLOAD SWAP1 PUSH2 0x100 EXP SWAP1 DIV PUSH20 0xFFFFFFFFFFFFFFFFFFFFFFFFFFFFFFFFFFFFFFFF AND DUP2 JUMP JUMPDEST PUSH1 0x0 PUSH1 0x17 PUSH1 0x0 SWAP1 SLOAD SWAP1 PUSH2 0x100 EXP SWAP1 DIV PUSH1 0xFF AND ISZERO SWAP1 POP SWAP1 JUMP JUMPDEST PUSH1 0x0 PUSH1 0x2 PUSH1 0x1 SWAP1 SLOAD SWAP1 PUSH2 0x100 EXP SWAP1 DIV PUSH20 0xFFFFFFFFFFFFFFFFFFFFFFFFFFFFFFFFFFFFFFFF AND SWAP1 POP SWAP1 JUMP JUMPDEST PUSH1 0x0 PUSH1 0x2 PUSH1 0x1 SWAP1 SLOAD SWAP1 PUSH2 0x100 EXP SWAP1 DIV PUSH20 0xFFFFFFFFFFFFFFFFFFFFFFFFFFFFFFFFFFFFFFFF AND PUSH20 0xFFFFFFFFFFFFFFFFFFFFFFFFFFFFFFFFFFFFFFFF AND CALLER PUSH20 0xFFFFFFFFFFFFFFFFFFFFFFFFFFFFFFFFFFFFFFFF AND EQ SWAP1 POP SWAP1 JUMP JUMPDEST PUSH2 0x26D0 PUSH2 0x2670 JUMP JUMPDEST PUSH2 0x26D9 JUMPI PUSH1 0x0 DUP1 REVERT JUMPDEST DUP1 PUSH1 0x1C PUSH1 0x0 DUP5 PUSH20 0xFFFFFFFFFFFFFFFFFFFFFFFFFFFFFFFFFFFFFFFF AND PUSH20 0xFFFFFFFFFFFFFFFFFFFFFFFFFFFFFFFFFFFFFFFF AND DUP2 MSTORE PUSH1 0x20 ADD SWAP1 DUP2 MSTORE PUSH1 0x20 ADD PUSH1 0x0 KECCAK256 PUSH1 0x0 PUSH2 0x100 EXP DUP2 SLOAD DUP2 PUSH1 0xFF MUL NOT AND SWAP1 DUP4 ISZERO ISZERO MUL OR SWAP1 SSTORE POP POP POP JUMP JUMPDEST PUSH1 0x60 PUSH1 0x1 DUP1 SLOAD PUSH1 0x1 DUP2 PUSH1 0x1 AND ISZERO PUSH2 0x100 MUL SUB AND PUSH1 0x2 SWAP1 DIV DUP1 PUSH1 0x1F ADD PUSH1 0x20 DUP1 SWAP2 DIV MUL PUSH1 0x20 ADD PUSH1 0x40 MLOAD SWAP1 DUP2 ADD PUSH1 0x40 MSTORE DUP1 SWAP3 SWAP2 SWAP1 DUP2 DUP2 MSTORE PUSH1 0x20 ADD DUP3 DUP1 SLOAD PUSH1 0x1 DUP2 PUSH1 0x1 AND ISZERO PUSH2 0x100 MUL SUB AND PUSH1 0x2 SWAP1 DIV DUP1 ISZERO PUSH2 0x27CC JUMPI DUP1 PUSH1 0x1F LT PUSH2 0x27A1 JUMPI PUSH2 0x100 DUP1 DUP4 SLOAD DIV MUL DUP4 MSTORE SWAP2 PUSH1 0x20 ADD SWAP2 PUSH2 0x27CC JUMP JUMPDEST DUP3 ADD SWAP2 SWAP1 PUSH1 0x0 MSTORE PUSH1 0x20 PUSH1 0x0 KECCAK256 SWAP1 JUMPDEST DUP2 SLOAD DUP2 MSTORE SWAP1 PUSH1 0x1 ADD SWAP1 PUSH1 0x20 ADD DUP1 DUP4 GT PUSH2 0x27AF JUMPI DUP3 SWAP1 SUB PUSH1 0x1F AND DUP3 ADD SWAP2 JUMPDEST POP POP POP POP POP SWAP1 POP SWAP1 JUMP JUMPDEST PUSH1 0x7 SLOAD DUP2 JUMP JUMPDEST PUSH2 0x27E4 PUSH2 0x2670 JUMP JUMPDEST PUSH2 0x27ED JUMPI PUSH1 0x0 DUP1 REVERT JUMPDEST PUSH2 0x27F6 DUP2 PUSH2 0x3711 JUMP JUMPDEST POP JUMP JUMPDEST PUSH2 0x2802 CALLER PUSH2 0x36B7 JUMP JUMPDEST JUMP JUMPDEST PUSH1 0x0 PUSH1 0x4 PUSH1 0x14 SWAP1 SLOAD SWAP1 PUSH2 0x100 EXP SWAP1 DIV PUSH1 0xFF AND DUP1 PUSH2 0x2825 JUMPI POP PUSH2 0x2824 PUSH2 0x2670 JUMP JUMPDEST JUMPDEST DUP1 PUSH2 0x2879 JUMPI POP PUSH1 0x5 PUSH1 0x0 CALLER PUSH20 0xFFFFFFFFFFFFFFFFFFFFFFFFFFFFFFFFFFFFFFFF AND PUSH20 0xFFFFFFFFFFFFFFFFFFFFFFFFFFFFFFFFFFFFFFFF AND DUP2 MSTORE PUSH1 0x20 ADD SWAP1 DUP2 MSTORE PUSH1 0x20 ADD PUSH1 0x0 KECCAK256 PUSH1 0x0 SWAP1 SLOAD SWAP1 PUSH2 0x100 EXP SWAP1 DIV PUSH1 0xFF AND JUMPDEST PUSH2 0x2882 JUMPI PUSH1 0x0 DUP1 REVERT JUMPDEST PUSH1 0x0 PUSH1 0x1B PUSH1 0x0 CALLER PUSH20 0xFFFFFFFFFFFFFFFFFFFFFFFFFFFFFFFFFFFFFFFF AND PUSH20 0xFFFFFFFFFFFFFFFFFFFFFFFFFFFFFFFFFFFFFFFF AND DUP2 MSTORE PUSH1 0x20 ADD SWAP1 DUP2 MSTORE PUSH1 0x20 ADD PUSH1 0x0 KECCAK256 PUSH1 0x0 DUP6 PUSH20 0xFFFFFFFFFFFFFFFFFFFFFFFFFFFFFFFFFFFFFFFF AND PUSH20 0xFFFFFFFFFFFFFFFFFFFFFFFFFFFFFFFFFFFFFFFF AND DUP2 MSTORE PUSH1 0x20 ADD SWAP1 DUP2 MSTORE PUSH1 0x20 ADD PUSH1 0x0 KECCAK256 SLOAD SWAP1 POP DUP1 DUP4 LT PUSH2 0x2991 JUMPI PUSH1 0x0 PUSH1 0x1B PUSH1 0x0 CALLER PUSH20 0xFFFFFFFFFFFFFFFFFFFFFFFFFFFFFFFFFFFFFFFF AND PUSH20 0xFFFFFFFFFFFFFFFFFFFFFFFFFFFFFFFFFFFFFFFF AND DUP2 MSTORE PUSH1 0x20 ADD SWAP1 DUP2 MSTORE PUSH1 0x20 ADD PUSH1 0x0 KECCAK256 PUSH1 0x0 DUP7 PUSH20 0xFFFFFFFFFFFFFFFFFFFFFFFFFFFFFFFFFFFFFFFF AND PUSH20 0xFFFFFFFFFFFFFFFFFFFFFFFFFFFFFFFFFFFFFFFF AND DUP2 MSTORE PUSH1 0x20 ADD SWAP1 DUP2 MSTORE PUSH1 0x20 ADD PUSH1 0x0 KECCAK256 DUP2 SWAP1 SSTORE POP PUSH2 0x2A25 JUMP JUMPDEST PUSH2 0x29A4 DUP4 DUP3 PUSH2 0x366D SWAP1 SWAP2 SWAP1 PUSH4 0xFFFFFFFF AND JUMP JUMPDEST PUSH1 0x1B PUSH1 0x0 CALLER PUSH20 0xFFFFFFFFFFFFFFFFFFFFFFFFFFFFFFFFFFFFFFFF AND PUSH20 0xFFFFFFFFFFFFFFFFFFFFFFFFFFFFFFFFFFFFFFFF AND DUP2 MSTORE PUSH1 0x20 ADD SWAP1 DUP2 MSTORE PUSH1 0x20 ADD PUSH1 0x0 KECCAK256 PUSH1 0x0 DUP7 PUSH20 0xFFFFFFFFFFFFFFFFFFFFFFFFFFFFFFFFFFFFFFFF AND PUSH20 0xFFFFFFFFFFFFFFFFFFFFFFFFFFFFFFFFFFFFFFFF AND DUP2 MSTORE PUSH1 0x20 ADD SWAP1 DUP2 MSTORE PUSH1 0x20 ADD PUSH1 0x0 KECCAK256 DUP2 SWAP1 SSTORE POP JUMPDEST DUP4 PUSH20 0xFFFFFFFFFFFFFFFFFFFFFFFFFFFFFFFFFFFFFFFF AND CALLER PUSH20 0xFFFFFFFFFFFFFFFFFFFFFFFFFFFFFFFFFFFFFFFF AND PUSH32 0x8C5BE1E5EBEC7D5BD14F71427D1E84F3DD0314C0F7B2291E5B200AC8C7C3B925 PUSH1 0x1B PUSH1 0x0 CALLER PUSH20 0xFFFFFFFFFFFFFFFFFFFFFFFFFFFFFFFFFFFFFFFF AND PUSH20 0xFFFFFFFFFFFFFFFFFFFFFFFFFFFFFFFFFFFFFFFF AND DUP2 MSTORE PUSH1 0x20 ADD SWAP1 DUP2 MSTORE PUSH1 0x20 ADD PUSH1 0x0 KECCAK256 PUSH1 0x0 DUP9 PUSH20 0xFFFFFFFFFFFFFFFFFFFFFFFFFFFFFFFFFFFFFFFF AND PUSH20 0xFFFFFFFFFFFFFFFFFFFFFFFFFFFFFFFFFFFFFFFF AND DUP2 MSTORE PUSH1 0x20 ADD SWAP1 DUP2 MSTORE PUSH1 0x20 ADD PUSH1 0x0 KECCAK256 SLOAD PUSH1 0x40 MLOAD DUP1 DUP3 DUP2 MSTORE PUSH1 0x20 ADD SWAP2 POP POP PUSH1 0x40 MLOAD DUP1 SWAP2 SUB SWAP1 LOG3 PUSH1 0x1 SWAP2 POP POP SWAP3 SWAP2 POP POP JUMP JUMPDEST PUSH1 0x15 PUSH1 0x0 SWAP1 SLOAD SWAP1 PUSH2 0x100 EXP SWAP1 DIV PUSH20 0xFFFFFFFFFFFFFFFFFFFFFFFFFFFFFFFFFFFFFFFF AND DUP2 JUMP JUMPDEST PUSH1 0x0 DUP3 PUSH1 0x0 PUSH20 0xFFFFFFFFFFFFFFFFFFFFFFFFFFFFFFFFFFFFFFFF AND DUP2 PUSH20 0xFFFFFFFFFFFFFFFFFFFFFFFFFFFFFFFFFFFFFFFF AND EQ ISZERO PUSH2 0x2B74 JUMPI PUSH1 0x0 DUP1 REVERT JUMPDEST PUSH1 0x4 PUSH1 0x14 SWAP1 SLOAD SWAP1 PUSH2 0x100 EXP SWAP1 DIV PUSH1 0xFF AND DUP1 PUSH2 0x2B93 JUMPI POP PUSH2 0x2B92 PUSH2 0x2670 JUMP JUMPDEST JUMPDEST DUP1 PUSH2 0x2BE7 JUMPI POP PUSH1 0x5 PUSH1 0x0 CALLER PUSH20 0xFFFFFFFFFFFFFFFFFFFFFFFFFFFFFFFFFFFFFFFF AND PUSH20 0xFFFFFFFFFFFFFFFFFFFFFFFFFFFFFFFFFFFFFFFF AND DUP2 MSTORE PUSH1 0x20 ADD SWAP1 DUP2 MSTORE PUSH1 0x20 ADD PUSH1 0x0 KECCAK256 PUSH1 0x0 SWAP1 SLOAD SWAP1 PUSH2 0x100 EXP SWAP1 DIV PUSH1 0xFF AND JUMPDEST PUSH2 0x2BF0 JUMPI PUSH1 0x0 DUP1 REVERT JUMPDEST PUSH2 0x2BFB CALLER DUP6 DUP6 PUSH2 0x332A JUMP JUMPDEST POP PUSH1 0x1 SWAP2 POP POP SWAP3 SWAP2 POP POP JUMP JUMPDEST PUSH1 0x0 PUSH2 0x2C1D DUP3 PUSH1 0x3 PUSH2 0x376B SWAP1 SWAP2 SWAP1 PUSH4 0xFFFFFFFF AND JUMP JUMPDEST SWAP1 POP SWAP2 SWAP1 POP JUMP JUMPDEST PUSH1 0x9 SLOAD DUP2 JUMP JUMPDEST PUSH1 0xF PUSH1 0x0 SWAP1 SLOAD SWAP1 PUSH2 0x100 EXP SWAP1 DIV PUSH20 0xFFFFFFFFFFFFFFFFFFFFFFFFFFFFFFFFFFFFFFFF AND DUP2 JUMP JUMPDEST PUSH2 0x2C58 PUSH2 0x2670 JUMP JUMPDEST PUSH2 0x2C61 JUMPI PUSH1 0x0 DUP1 REVERT JUMPDEST DUP3 PUSH1 0x15 PUSH1 0x14 PUSH2 0x100 EXP DUP2 SLOAD DUP2 PUSH1 0xFF MUL NOT AND SWAP1 DUP4 ISZERO ISZERO MUL OR SWAP1 SSTORE POP PUSH2 0x2CB9 DUP3 PUSH2 0x2CAB DUP4 PUSH1 0x12 PUSH1 0xA EXP PUSH4 0xEE6B2800 MUL PUSH1 0x0 NOT DUP2 PUSH2 0x2C98 JUMPI INVALID JUMPDEST MOD PUSH1 0x0 NOT SUB PUSH2 0x3145 SWAP1 SWAP2 SWAP1 PUSH4 0xFFFFFFFF AND JUMP JUMPDEST PUSH2 0x3849 SWAP1 SWAP2 SWAP1 PUSH4 0xFFFFFFFF AND JUMP JUMPDEST PUSH1 0x16 DUP2 SWAP1 SSTORE POP POP POP POP JUMP JUMPDEST PUSH1 0x4 PUSH1 0x14 SWAP1 SLOAD SWAP1 PUSH2 0x100 EXP SWAP1 DIV PUSH1 0xFF AND DUP2 JUMP JUMPDEST PUSH2 0x2CDF PUSH2 0x2670 JUMP JUMPDEST PUSH2 0x2CE8 JUMPI PUSH1 0x0 DUP1 REVERT JUMPDEST PUSH1 0x0 JUMPDEST DUP5 DUP5 SWAP1 POP DUP2 LT ISZERO PUSH2 0x2D49 JUMPI PUSH2 0x2D3B CALLER DUP7 DUP7 DUP5 DUP2 DUP2 LT PUSH2 0x2D06 JUMPI INVALID JUMPDEST SWAP1 POP PUSH1 0x20 MUL ADD CALLDATALOAD PUSH20 0xFFFFFFFFFFFFFFFFFFFFFFFFFFFFFFFFFFFFFFFF AND DUP6 DUP6 DUP6 DUP2 DUP2 LT PUSH2 0x2D2F JUMPI INVALID JUMPDEST SWAP1 POP PUSH1 0x20 MUL ADD CALLDATALOAD PUSH2 0x332A JUMP JUMPDEST POP DUP1 DUP1 PUSH1 0x1 ADD SWAP2 POP POP PUSH2 0x2CEB JUMP JUMPDEST POP POP POP POP POP JUMP JUMPDEST PUSH1 0x0 PUSH1 0x6 PUSH1 0x0 DUP4 PUSH20 0xFFFFFFFFFFFFFFFFFFFFFFFFFFFFFFFFFFFFFFFF AND PUSH20 0xFFFFFFFFFFFFFFFFFFFFFFFFFFFFFFFFFFFFFFFF AND DUP2 MSTORE PUSH1 0x20 ADD SWAP1 DUP2 MSTORE PUSH1 0x20 ADD PUSH1 0x0 KECCAK256 PUSH1 0x0 SWAP1 SLOAD SWAP1 PUSH2 0x100 EXP SWAP1 DIV PUSH1 0xFF AND SWAP1 POP SWAP2 SWAP1 POP JUMP JUMPDEST PUSH1 0x0 DUP1 PUSH2 0x2E1F PUSH1 0x19 SLOAD PUSH1 0x1A PUSH1 0x0 PUSH1 0x15 PUSH1 0x0 SWAP1 SLOAD SWAP1 PUSH2 0x100 EXP SWAP1 DIV PUSH20 0xFFFFFFFFFFFFFFFFFFFFFFFFFFFFFFFFFFFFFFFF AND PUSH20 0xFFFFFFFFFFFFFFFFFFFFFFFFFFFFFFFFFFFFFFFF AND PUSH20 0xFFFFFFFFFFFFFFFFFFFFFFFFFFFFFFFFFFFFFFFF AND DUP2 MSTORE PUSH1 0x20 ADD SWAP1 DUP2 MSTORE PUSH1 0x20 ADD PUSH1 0x0 KECCAK256 SLOAD PUSH2 0x3145 SWAP1 SWAP2 SWAP1 PUSH4 0xFFFFFFFF AND JUMP JUMPDEST SWAP1 POP PUSH2 0x2E60 PUSH2 0x2E2C PUSH2 0x1971 JUMP JUMPDEST PUSH2 0x2E52 PUSH2 0x2E43 PUSH1 0x2 DUP6 PUSH2 0x3849 SWAP1 SWAP2 SWAP1 PUSH4 0xFFFFFFFF AND JUMP JUMPDEST DUP7 PUSH2 0x3849 SWAP1 SWAP2 SWAP1 PUSH4 0xFFFFFFFF AND JUMP JUMPDEST PUSH2 0x3145 SWAP1 SWAP2 SWAP1 PUSH4 0xFFFFFFFF AND JUMP JUMPDEST SWAP2 POP POP SWAP2 SWAP1 POP JUMP JUMPDEST PUSH2 0x2E70 PUSH2 0x2670 JUMP JUMPDEST PUSH2 0x2E79 JUMPI PUSH1 0x0 DUP1 REVERT JUMPDEST PUSH1 0x1 PUSH1 0x5 PUSH1 0x0 DUP4 PUSH20 0xFFFFFFFFFFFFFFFFFFFFFFFFFFFFFFFFFFFFFFFF AND PUSH20 0xFFFFFFFFFFFFFFFFFFFFFFFFFFFFFFFFFFFFFFFF AND DUP2 MSTORE PUSH1 0x20 ADD SWAP1 DUP2 MSTORE PUSH1 0x20 ADD PUSH1 0x0 KECCAK256 PUSH1 0x0 PUSH2 0x100 EXP DUP2 SLOAD DUP2 PUSH1 0xFF MUL NOT AND SWAP1 DUP4 ISZERO ISZERO MUL OR SWAP1 SSTORE POP POP JUMP JUMPDEST PUSH1 0x11 PUSH1 0x0 SWAP1 SLOAD SWAP1 PUSH2 0x100 EXP SWAP1 DIV PUSH20 0xFFFFFFFFFFFFFFFFFFFFFFFFFFFFFFFFFFFFFFFF AND DUP2 JUMP JUMPDEST PUSH2 0x2F02 PUSH2 0x2670 JUMP JUMPDEST PUSH2 0x2F0B JUMPI PUSH1 0x0 DUP1 REVERT JUMPDEST DUP3 PUSH1 0xF PUSH1 0x0 PUSH2 0x100 EXP DUP2 SLOAD DUP2 PUSH20 0xFFFFFFFFFFFFFFFFFFFFFFFFFFFFFFFFFFFFFFFF MUL NOT AND SWAP1 DUP4 PUSH20 0xFFFFFFFFFFFFFFFFFFFFFFFFFFFFFFFFFFFFFFFF AND MUL OR SWAP1 SSTORE POP DUP2 PUSH1 0x10 PUSH1 0x0 PUSH2 0x100 EXP DUP2 SLOAD DUP2 PUSH20 0xFFFFFFFFFFFFFFFFFFFFFFFFFFFFFFFFFFFFFFFF MUL NOT AND SWAP1 DUP4 PUSH20 0xFFFFFFFFFFFFFFFFFFFFFFFFFFFFFFFFFFFFFFFF AND MUL OR SWAP1 SSTORE POP DUP1 PUSH1 0x11 PUSH1 0x0 PUSH2 0x100 EXP DUP2 SLOAD DUP2 PUSH20 0xFFFFFFFFFFFFFFFFFFFFFFFFFFFFFFFFFFFFFFFF MUL NOT AND SWAP1 DUP4 PUSH20 0xFFFFFFFFFFFFFFFFFFFFFFFFFFFFFFFFFFFFFFFF AND MUL OR SWAP1 SSTORE POP POP POP POP JUMP JUMPDEST PUSH1 0x0 PUSH1 0x1B PUSH1 0x0 DUP5 PUSH20 0xFFFFFFFFFFFFFFFFFFFFFFFFFFFFFFFFFFFFFFFF AND PUSH20 0xFFFFFFFFFFFFFFFFFFFFFFFFFFFFFFFFFFFFFFFF AND DUP2 MSTORE PUSH1 0x20 ADD SWAP1 DUP2 MSTORE PUSH1 0x20 ADD PUSH1 0x0 KECCAK256 PUSH1 0x0 DUP4 PUSH20 0xFFFFFFFFFFFFFFFFFFFFFFFFFFFFFFFFFFFFFFFF AND PUSH20 0xFFFFFFFFFFFFFFFFFFFFFFFFFFFFFFFFFFFFFFFF AND DUP2 MSTORE PUSH1 0x20 ADD SWAP1 DUP2 MSTORE PUSH1 0x20 ADD PUSH1 0x0 KECCAK256 SLOAD SWAP1 POP SWAP3 SWAP2 POP POP JUMP JUMPDEST PUSH2 0x3062 PUSH2 0x2670 JUMP JUMPDEST PUSH2 0x306B JUMPI PUSH1 0x0 DUP1 REVERT JUMPDEST PUSH2 0x3074 DUP2 PUSH2 0x38CF JUMP JUMPDEST POP JUMP JUMPDEST PUSH1 0x14 PUSH1 0x0 SWAP1 SLOAD SWAP1 PUSH2 0x100 EXP SWAP1 DIV PUSH20 0xFFFFFFFFFFFFFFFFFFFFFFFFFFFFFFFFFFFFFFFF AND DUP2 JUMP JUMPDEST PUSH1 0x1C PUSH1 0x20 MSTORE DUP1 PUSH1 0x0 MSTORE PUSH1 0x40 PUSH1 0x0 KECCAK256 PUSH1 0x0 SWAP2 POP SLOAD SWAP1 PUSH2 0x100 EXP SWAP1 DIV PUSH1 0xFF AND DUP2 JUMP JUMPDEST PUSH1 0x0 DUP1 DUP3 DUP5 ADD SWAP1 POP DUP4 DUP2 LT ISZERO PUSH2 0x313B JUMPI PUSH1 0x40 MLOAD PUSH32 0x8C379A000000000000000000000000000000000000000000000000000000000 DUP2 MSTORE PUSH1 0x4 ADD DUP1 DUP1 PUSH1 0x20 ADD DUP3 DUP2 SUB DUP3 MSTORE PUSH1 0x1B DUP2 MSTORE PUSH1 0x20 ADD DUP1 PUSH32 0x536166654D6174683A206164646974696F6E206F766572666C6F770000000000 DUP2 MSTORE POP PUSH1 0x20 ADD SWAP2 POP POP PUSH1 0x40 MLOAD DUP1 SWAP2 SUB SWAP1 REVERT JUMPDEST DUP1 SWAP2 POP POP SWAP3 SWAP2 POP POP JUMP JUMPDEST PUSH1 0x0 PUSH2 0x3187 DUP4 DUP4 PUSH1 0x40 MLOAD DUP1 PUSH1 0x40 ADD PUSH1 0x40 MSTORE DUP1 PUSH1 0x1A DUP2 MSTORE PUSH1 0x20 ADD PUSH32 0x536166654D6174683A206469766973696F6E206279207A65726F000000000000 DUP2 MSTORE POP PUSH2 0x39C9 JUMP JUMPDEST SWAP1 POP SWAP3 SWAP2 POP POP JUMP JUMPDEST PUSH2 0x3199 DUP3 DUP3 PUSH2 0x376B JUMP JUMPDEST ISZERO PUSH2 0x320C JUMPI PUSH1 0x40 MLOAD PUSH32 0x8C379A000000000000000000000000000000000000000000000000000000000 DUP2 MSTORE PUSH1 0x4 ADD DUP1 DUP1 PUSH1 0x20 ADD DUP3 DUP2 SUB DUP3 MSTORE PUSH1 0x1F DUP2 MSTORE PUSH1 0x20 ADD DUP1 PUSH32 0x526F6C65733A206163636F756E7420616C72656164792068617320726F6C6500 DUP2 MSTORE POP PUSH1 0x20 ADD SWAP2 POP POP PUSH1 0x40 MLOAD DUP1 SWAP2 SUB SWAP1 REVERT JUMPDEST PUSH1 0x1 DUP3 PUSH1 0x0 ADD PUSH1 0x0 DUP4 PUSH20 0xFFFFFFFFFFFFFFFFFFFFFFFFFFFFFFFFFFFFFFFF AND PUSH20 0xFFFFFFFFFFFFFFFFFFFFFFFFFFFFFFFFFFFFFFFF AND DUP2 MSTORE PUSH1 0x20 ADD SWAP1 DUP2 MSTORE PUSH1 0x20 ADD PUSH1 0x0 KECCAK256 PUSH1 0x0 PUSH2 0x100 EXP DUP2 SLOAD DUP2 PUSH1 0xFF MUL NOT AND SWAP1 DUP4 ISZERO ISZERO MUL OR SWAP1 SSTORE POP POP POP JUMP JUMPDEST PUSH1 0x0 DUP4 DUP4 GT ISZERO DUP3 SWAP1 PUSH2 0x3317 JUMPI PUSH1 0x40 MLOAD PUSH32 0x8C379A000000000000000000000000000000000000000000000000000000000 DUP2 MSTORE PUSH1 0x4 ADD DUP1 DUP1 PUSH1 0x20 ADD DUP3 DUP2 SUB DUP3 MSTORE DUP4 DUP2 DUP2 MLOAD DUP2 MSTORE PUSH1 0x20 ADD SWAP2 POP DUP1 MLOAD SWAP1 PUSH1 0x20 ADD SWAP1 DUP1 DUP4 DUP4 PUSH1 0x0 JUMPDEST DUP4 DUP2 LT ISZERO PUSH2 0x32DC JUMPI DUP1 DUP3 ADD MLOAD DUP2 DUP5 ADD MSTORE PUSH1 0x20 DUP2 ADD SWAP1 POP PUSH2 0x32C1 JUMP JUMPDEST POP POP POP POP SWAP1 POP SWAP1 DUP2 ADD SWAP1 PUSH1 0x1F AND DUP1 ISZERO PUSH2 0x3309 JUMPI DUP1 DUP3 SUB DUP1 MLOAD PUSH1 0x1 DUP4 PUSH1 0x20 SUB PUSH2 0x100 EXP SUB NOT AND DUP2 MSTORE PUSH1 0x20 ADD SWAP2 POP JUMPDEST POP SWAP3 POP POP POP PUSH1 0x40 MLOAD DUP1 SWAP2 SUB SWAP1 REVERT JUMPDEST POP PUSH1 0x0 DUP4 DUP6 SUB SWAP1 POP DUP1 SWAP2 POP POP SWAP4 SWAP3 POP POP POP JUMP JUMPDEST PUSH1 0x0 PUSH1 0x1C PUSH1 0x0 DUP6 PUSH20 0xFFFFFFFFFFFFFFFFFFFFFFFFFFFFFFFFFFFFFFFF AND PUSH20 0xFFFFFFFFFFFFFFFFFFFFFFFFFFFFFFFFFFFFFFFF AND DUP2 MSTORE PUSH1 0x20 ADD SWAP1 DUP2 MSTORE PUSH1 0x20 ADD PUSH1 0x0 KECCAK256 PUSH1 0x0 SWAP1 SLOAD SWAP1 PUSH2 0x100 EXP SWAP1 DIV PUSH1 0xFF AND ISZERO DUP1 ISZERO PUSH2 0x33D0 JUMPI POP PUSH1 0x1C PUSH1 0x0 DUP5 PUSH20 0xFFFFFFFFFFFFFFFFFFFFFFFFFFFFFFFFFFFFFFFF AND PUSH20 0xFFFFFFFFFFFFFFFFFFFFFFFFFFFFFFFFFFFFFFFF AND DUP2 MSTORE PUSH1 0x20 ADD SWAP1 DUP2 MSTORE PUSH1 0x20 ADD PUSH1 0x0 KECCAK256 PUSH1 0x0 SWAP1 SLOAD SWAP1 PUSH2 0x100 EXP SWAP1 DIV PUSH1 0xFF AND ISZERO JUMPDEST PUSH2 0x3442 JUMPI PUSH1 0x40 MLOAD PUSH32 0x8C379A000000000000000000000000000000000000000000000000000000000 DUP2 MSTORE PUSH1 0x4 ADD DUP1 DUP1 PUSH1 0x20 ADD DUP3 DUP2 SUB DUP3 MSTORE PUSH1 0xC DUP2 MSTORE PUSH1 0x20 ADD DUP1 PUSH32 0x696E5F626C61636B6C6973740000000000000000000000000000000000000000 DUP2 MSTORE POP PUSH1 0x20 ADD SWAP2 POP POP PUSH1 0x40 MLOAD DUP1 SWAP2 SUB SWAP1 REVERT JUMPDEST PUSH1 0x17 PUSH1 0x0 SWAP1 SLOAD SWAP1 PUSH2 0x100 EXP SWAP1 DIV PUSH1 0xFF AND ISZERO PUSH2 0x3469 JUMPI PUSH2 0x3462 DUP5 DUP5 DUP5 PUSH2 0x3A8F JUMP JUMPDEST SWAP1 POP PUSH2 0x3666 JUMP JUMPDEST PUSH1 0x0 PUSH2 0x3480 PUSH1 0x19 SLOAD DUP5 PUSH2 0x3849 SWAP1 SWAP2 SWAP1 PUSH4 0xFFFFFFFF AND JUMP JUMPDEST SWAP1 POP PUSH2 0x348A PUSH2 0x3BDF JUMP JUMPDEST ISZERO PUSH2 0x3498 JUMPI PUSH2 0x3497 PUSH2 0x3CB6 JUMP JUMPDEST JUMPDEST PUSH2 0x34EA DUP2 PUSH1 0x1A PUSH1 0x0 DUP9 PUSH20 0xFFFFFFFFFFFFFFFFFFFFFFFFFFFFFFFFFFFFFFFF AND PUSH20 0xFFFFFFFFFFFFFFFFFFFFFFFFFFFFFFFFFFFFFFFF AND DUP2 MSTORE PUSH1 0x20 ADD SWAP1 DUP2 MSTORE PUSH1 0x20 ADD PUSH1 0x0 KECCAK256 SLOAD PUSH2 0x366D SWAP1 SWAP2 SWAP1 PUSH4 0xFFFFFFFF AND JUMP JUMPDEST PUSH1 0x1A PUSH1 0x0 DUP8 PUSH20 0xFFFFFFFFFFFFFFFFFFFFFFFFFFFFFFFFFFFFFFFF AND PUSH20 0xFFFFFFFFFFFFFFFFFFFFFFFFFFFFFFFFFFFFFFFF AND DUP2 MSTORE PUSH1 0x20 ADD SWAP1 DUP2 MSTORE PUSH1 0x20 ADD PUSH1 0x0 KECCAK256 DUP2 SWAP1 SSTORE POP PUSH1 0x0 PUSH2 0x3539 DUP7 DUP7 PUSH2 0x4392 JUMP JUMPDEST PUSH2 0x3543 JUMPI DUP2 PUSH2 0x354F JUMP JUMPDEST PUSH2 0x354E DUP7 DUP7 DUP5 PUSH2 0x449B JUMP JUMPDEST JUMPDEST SWAP1 POP PUSH2 0x35A3 DUP2 PUSH1 0x1A PUSH1 0x0 DUP9 PUSH20 0xFFFFFFFFFFFFFFFFFFFFFFFFFFFFFFFFFFFFFFFF AND PUSH20 0xFFFFFFFFFFFFFFFFFFFFFFFFFFFFFFFFFFFFFFFF AND DUP2 MSTORE PUSH1 0x20 ADD SWAP1 DUP2 MSTORE PUSH1 0x20 ADD PUSH1 0x0 KECCAK256 SLOAD PUSH2 0x30BD SWAP1 SWAP2 SWAP1 PUSH4 0xFFFFFFFF AND JUMP JUMPDEST PUSH1 0x1A PUSH1 0x0 DUP8 PUSH20 0xFFFFFFFFFFFFFFFFFFFFFFFFFFFFFFFFFFFFFFFF AND PUSH20 0xFFFFFFFFFFFFFFFFFFFFFFFFFFFFFFFFFFFFFFFF AND DUP2 MSTORE PUSH1 0x20 ADD SWAP1 DUP2 MSTORE PUSH1 0x20 ADD PUSH1 0x0 KECCAK256 DUP2 SWAP1 SSTORE POP DUP5 PUSH20 0xFFFFFFFFFFFFFFFFFFFFFFFFFFFFFFFFFFFFFFFF AND DUP7 PUSH20 0xFFFFFFFFFFFFFFFFFFFFFFFFFFFFFFFFFFFFFFFF AND PUSH32 0xDDF252AD1BE2C89B69C2B068FC378DAA952BA7F163C4A11628F55A4DF523B3EF PUSH2 0x364A PUSH1 0x19 SLOAD DUP6 PUSH2 0x3145 SWAP1 SWAP2 SWAP1 PUSH4 0xFFFFFFFF AND JUMP JUMPDEST PUSH1 0x40 MLOAD DUP1 DUP3 DUP2 MSTORE PUSH1 0x20 ADD SWAP2 POP POP PUSH1 0x40 MLOAD DUP1 SWAP2 SUB SWAP1 LOG3 PUSH1 0x1 SWAP3 POP POP POP JUMPDEST SWAP4 SWAP3 POP POP POP JUMP JUMPDEST PUSH1 0x0 PUSH2 0x36AF DUP4 DUP4 PUSH1 0x40 MLOAD DUP1 PUSH1 0x40 ADD PUSH1 0x40 MSTORE DUP1 PUSH1 0x1E DUP2 MSTORE PUSH1 0x20 ADD PUSH32 0x536166654D6174683A207375627472616374696F6E206F766572666C6F770000 DUP2 MSTORE POP PUSH2 0x326A JUMP JUMPDEST SWAP1 POP SWAP3 SWAP2 POP POP JUMP JUMPDEST PUSH2 0x36CB DUP2 PUSH1 0x3 PUSH2 0x4668 SWAP1 SWAP2 SWAP1 PUSH4 0xFFFFFFFF AND JUMP JUMPDEST DUP1 PUSH20 0xFFFFFFFFFFFFFFFFFFFFFFFFFFFFFFFFFFFFFFFF AND PUSH32 0xE94479A9F7E1952CC78F2D6BAAB678ADC1B772D936C6583DEF489E524CB66692 PUSH1 0x40 MLOAD PUSH1 0x40 MLOAD DUP1 SWAP2 SUB SWAP1 LOG2 POP JUMP JUMPDEST PUSH2 0x3725 DUP2 PUSH1 0x3 PUSH2 0x318F SWAP1 SWAP2 SWAP1 PUSH4 0xFFFFFFFF AND JUMP JUMPDEST DUP1 PUSH20 0xFFFFFFFFFFFFFFFFFFFFFFFFFFFFFFFFFFFFFFFF AND PUSH32 0x6AE172837EA30B801FBFCDD4108AA1D5BF8FF775444FD70256B44E6BF3DFC3F6 PUSH1 0x40 MLOAD PUSH1 0x40 MLOAD DUP1 SWAP2 SUB SWAP1 LOG2 POP JUMP JUMPDEST PUSH1 0x0 DUP1 PUSH20 0xFFFFFFFFFFFFFFFFFFFFFFFFFFFFFFFFFFFFFFFF AND DUP3 PUSH20 0xFFFFFFFFFFFFFFFFFFFFFFFFFFFFFFFFFFFFFFFF AND EQ ISZERO PUSH2 0x37F2 JUMPI PUSH1 0x40 MLOAD PUSH32 0x8C379A000000000000000000000000000000000000000000000000000000000 DUP2 MSTORE PUSH1 0x4 ADD DUP1 DUP1 PUSH1 0x20 ADD DUP3 DUP2 SUB DUP3 MSTORE PUSH1 0x22 DUP2 MSTORE PUSH1 0x20 ADD DUP1 PUSH2 0x4798 PUSH1 0x22 SWAP2 CODECOPY PUSH1 0x40 ADD SWAP2 POP POP PUSH1 0x40 MLOAD DUP1 SWAP2 SUB SWAP1 REVERT JUMPDEST DUP3 PUSH1 0x0 ADD PUSH1 0x0 DUP4 PUSH20 0xFFFFFFFFFFFFFFFFFFFFFFFFFFFFFFFFFFFFFFFF AND PUSH20 0xFFFFFFFFFFFFFFFFFFFFFFFFFFFFFFFFFFFFFFFF AND DUP2 MSTORE PUSH1 0x20 ADD SWAP1 DUP2 MSTORE PUSH1 0x20 ADD PUSH1 0x0 KECCAK256 PUSH1 0x0 SWAP1 SLOAD SWAP1 PUSH2 0x100 EXP SWAP1 DIV PUSH1 0xFF AND SWAP1 POP SWAP3 SWAP2 POP POP JUMP JUMPDEST PUSH1 0x0 DUP1 DUP4 EQ ISZERO PUSH2 0x385C JUMPI PUSH1 0x0 SWAP1 POP PUSH2 0x38C9 JUMP JUMPDEST PUSH1 0x0 DUP3 DUP5 MUL SWAP1 POP DUP3 DUP5 DUP3 DUP2 PUSH2 0x386D JUMPI INVALID JUMPDEST DIV EQ PUSH2 0x38C4 JUMPI PUSH1 0x40 MLOAD PUSH32 0x8C379A000000000000000000000000000000000000000000000000000000000 DUP2 MSTORE PUSH1 0x4 ADD DUP1 DUP1 PUSH1 0x20 ADD DUP3 DUP2 SUB DUP3 MSTORE PUSH1 0x21 DUP2 MSTORE PUSH1 0x20 ADD DUP1 PUSH2 0x4777 PUSH1 0x21 SWAP2 CODECOPY PUSH1 0x40 ADD SWAP2 POP POP PUSH1 0x40 MLOAD DUP1 SWAP2 SUB SWAP1 REVERT JUMPDEST DUP1 SWAP2 POP POP JUMPDEST SWAP3 SWAP2 POP POP JUMP JUMPDEST PUSH1 0x0 PUSH20 0xFFFFFFFFFFFFFFFFFFFFFFFFFFFFFFFFFFFFFFFF AND DUP2 PUSH20 0xFFFFFFFFFFFFFFFFFFFFFFFFFFFFFFFFFFFFFFFF AND EQ ISZERO PUSH2 0x3909 JUMPI PUSH1 0x0 DUP1 REVERT JUMPDEST DUP1 PUSH20 0xFFFFFFFFFFFFFFFFFFFFFFFFFFFFFFFFFFFFFFFF AND PUSH1 0x2 PUSH1 0x1 SWAP1 SLOAD SWAP1 PUSH2 0x100 EXP SWAP1 DIV PUSH20 0xFFFFFFFFFFFFFFFFFFFFFFFFFFFFFFFFFFFFFFFF AND PUSH20 0xFFFFFFFFFFFFFFFFFFFFFFFFFFFFFFFFFFFFFFFF AND PUSH32 0x8BE0079C531659141344CD1FD0A4F28419497F9722A3DAAFE3B4186F6B6457E0 PUSH1 0x40 MLOAD PUSH1 0x40 MLOAD DUP1 SWAP2 SUB SWAP1 LOG3 DUP1 PUSH1 0x2 PUSH1 0x1 PUSH2 0x100 EXP DUP2 SLOAD DUP2 PUSH20 0xFFFFFFFFFFFFFFFFFFFFFFFFFFFFFFFFFFFFFFFF MUL NOT AND SWAP1 DUP4 PUSH20 0xFFFFFFFFFFFFFFFFFFFFFFFFFFFFFFFFFFFFFFFF AND MUL OR SWAP1 SSTORE POP POP JUMP JUMPDEST PUSH1 0x0 DUP1 DUP4 GT DUP3 SWAP1 PUSH2 0x3A75 JUMPI PUSH1 0x40 MLOAD PUSH32 0x8C379A000000000000000000000000000000000000000000000000000000000 DUP2 MSTORE PUSH1 0x4 ADD DUP1 DUP1 PUSH1 0x20 ADD DUP3 DUP2 SUB DUP3 MSTORE DUP4 DUP2 DUP2 MLOAD DUP2 MSTORE PUSH1 0x20 ADD SWAP2 POP DUP1 MLOAD SWAP1 PUSH1 0x20 ADD SWAP1 DUP1 DUP4 DUP4 PUSH1 0x0 JUMPDEST DUP4 DUP2 LT ISZERO PUSH2 0x3A3A JUMPI DUP1 DUP3 ADD MLOAD DUP2 DUP5 ADD MSTORE PUSH1 0x20 DUP2 ADD SWAP1 POP PUSH2 0x3A1F JUMP JUMPDEST POP POP POP POP SWAP1 POP SWAP1 DUP2 ADD SWAP1 PUSH1 0x1F AND DUP1 ISZERO PUSH2 0x3A67 JUMPI DUP1 DUP3 SUB DUP1 MLOAD PUSH1 0x1 DUP4 PUSH1 0x20 SUB PUSH2 0x100 EXP SUB NOT AND DUP2 MSTORE PUSH1 0x20 ADD SWAP2 POP JUMPDEST POP SWAP3 POP POP POP PUSH1 0x40 MLOAD DUP1 SWAP2 SUB SWAP1 REVERT JUMPDEST POP PUSH1 0x0 DUP4 DUP6 DUP2 PUSH2 0x3A81 JUMPI INVALID JUMPDEST DIV SWAP1 POP DUP1 SWAP2 POP POP SWAP4 SWAP3 POP POP POP JUMP JUMPDEST PUSH1 0x0 DUP1 PUSH2 0x3AA7 PUSH1 0x19 SLOAD DUP5 PUSH2 0x3849 SWAP1 SWAP2 SWAP1 PUSH4 0xFFFFFFFF AND JUMP JUMPDEST SWAP1 POP PUSH2 0x3AFB DUP2 PUSH1 0x1A PUSH1 0x0 DUP9 PUSH20 0xFFFFFFFFFFFFFFFFFFFFFFFFFFFFFFFFFFFFFFFF AND PUSH20 0xFFFFFFFFFFFFFFFFFFFFFFFFFFFFFFFFFFFFFFFF AND DUP2 MSTORE PUSH1 0x20 ADD SWAP1 DUP2 MSTORE PUSH1 0x20 ADD PUSH1 0x0 KECCAK256 SLOAD PUSH2 0x366D SWAP1 SWAP2 SWAP1 PUSH4 0xFFFFFFFF AND JUMP JUMPDEST PUSH1 0x1A PUSH1 0x0 DUP8 PUSH20 0xFFFFFFFFFFFFFFFFFFFFFFFFFFFFFFFFFFFFFFFF AND PUSH20 0xFFFFFFFFFFFFFFFFFFFFFFFFFFFFFFFFFFFFFFFF AND DUP2 MSTORE PUSH1 0x20 ADD SWAP1 DUP2 MSTORE PUSH1 0x20 ADD PUSH1 0x0 KECCAK256 DUP2 SWAP1 SSTORE POP PUSH2 0x3B90 DUP2 PUSH1 0x1A PUSH1 0x0 DUP8 PUSH20 0xFFFFFFFFFFFFFFFFFFFFFFFFFFFFFFFFFFFFFFFF AND PUSH20 0xFFFFFFFFFFFFFFFFFFFFFFFFFFFFFFFFFFFFFFFF AND DUP2 MSTORE PUSH1 0x20 ADD SWAP1 DUP2 MSTORE PUSH1 0x20 ADD PUSH1 0x0 KECCAK256 SLOAD PUSH2 0x30BD SWAP1 SWAP2 SWAP1 PUSH4 0xFFFFFFFF AND JUMP JUMPDEST PUSH1 0x1A PUSH1 0x0 DUP7 PUSH20 0xFFFFFFFFFFFFFFFFFFFFFFFFFFFFFFFFFFFFFFFF AND PUSH20 0xFFFFFFFFFFFFFFFFFFFFFFFFFFFFFFFFFFFFFFFF AND DUP2 MSTORE PUSH1 0x20 ADD SWAP1 DUP2 MSTORE PUSH1 0x20 ADD PUSH1 0x0 KECCAK256 DUP2 SWAP1 SSTORE POP PUSH1 0x1 SWAP2 POP POP SWAP4 SWAP3 POP POP POP JUMP JUMPDEST PUSH1 0x0 PUSH1 0x15 PUSH1 0x0 SWAP1 SLOAD SWAP1 PUSH2 0x100 EXP SWAP1 DIV PUSH20 0xFFFFFFFFFFFFFFFFFFFFFFFFFFFFFFFFFFFFFFFF AND PUSH20 0xFFFFFFFFFFFFFFFFFFFFFFFFFFFFFFFFFFFFFFFF AND CALLER PUSH20 0xFFFFFFFFFFFFFFFFFFFFFFFFFFFFFFFFFFFFFFFF AND EQ ISZERO DUP1 ISZERO PUSH2 0x3C4C JUMPI POP PUSH1 0x17 PUSH1 0x0 SWAP1 SLOAD SWAP1 PUSH2 0x100 EXP SWAP1 DIV PUSH1 0xFF AND ISZERO JUMPDEST DUP1 ISZERO PUSH2 0x3C64 JUMPI POP PUSH1 0x15 PUSH1 0x14 SWAP1 SLOAD SWAP1 PUSH2 0x100 EXP SWAP1 DIV PUSH1 0xFF AND JUMPDEST DUP1 ISZERO PUSH2 0x3CB1 JUMPI POP PUSH1 0x16 SLOAD PUSH1 0x1A PUSH1 0x0 ADDRESS PUSH20 0xFFFFFFFFFFFFFFFFFFFFFFFFFFFFFFFFFFFFFFFF AND PUSH20 0xFFFFFFFFFFFFFFFFFFFFFFFFFFFFFFFFFFFFFFFF AND DUP2 MSTORE PUSH1 0x20 ADD SWAP1 DUP2 MSTORE PUSH1 0x20 ADD PUSH1 0x0 KECCAK256 SLOAD LT ISZERO JUMPDEST SWAP1 POP SWAP1 JUMP JUMPDEST PUSH1 0x1 PUSH1 0x17 PUSH1 0x0 PUSH2 0x100 EXP DUP2 SLOAD DUP2 PUSH1 0xFF MUL NOT AND SWAP1 DUP4 ISZERO ISZERO MUL OR SWAP1 SSTORE POP PUSH1 0x0 PUSH2 0x3CE1 PUSH1 0x12 SLOAD PUSH1 0x13 SLOAD PUSH2 0x16E4 JUMP JUMPDEST PUSH2 0x3CED JUMPI PUSH1 0x7 SLOAD PUSH2 0x3CF0 JUMP JUMPDEST PUSH1 0x0 JUMPDEST SWAP1 POP PUSH1 0x0 PUSH2 0x3D48 PUSH1 0x19 SLOAD PUSH1 0x1A PUSH1 0x0 ADDRESS PUSH20 0xFFFFFFFFFFFFFFFFFFFFFFFFFFFFFFFFFFFFFFFF AND PUSH20 0xFFFFFFFFFFFFFFFFFFFFFFFFFFFFFFFFFFFFFFFF AND DUP2 MSTORE PUSH1 0x20 ADD SWAP1 DUP2 MSTORE PUSH1 0x20 ADD PUSH1 0x0 KECCAK256 SLOAD PUSH2 0x3145 SWAP1 SWAP2 SWAP1 PUSH4 0xFFFFFFFF AND JUMP JUMPDEST SWAP1 POP PUSH1 0x0 PUSH2 0x3D86 PUSH1 0x2 PUSH2 0x3D78 PUSH1 0xB SLOAD PUSH2 0x3D6A DUP8 DUP8 PUSH2 0x3849 SWAP1 SWAP2 SWAP1 PUSH4 0xFFFFFFFF AND JUMP JUMPDEST PUSH2 0x3145 SWAP1 SWAP2 SWAP1 PUSH4 0xFFFFFFFF AND JUMP JUMPDEST PUSH2 0x3145 SWAP1 SWAP2 SWAP1 PUSH4 0xFFFFFFFF AND JUMP JUMPDEST SWAP1 POP PUSH1 0x0 PUSH2 0x3D9D DUP3 DUP5 PUSH2 0x366D SWAP1 SWAP2 SWAP1 PUSH4 0xFFFFFFFF AND JUMP JUMPDEST SWAP1 POP PUSH1 0x0 PUSH1 0x2 PUSH8 0xFFFFFFFFFFFFFFFF DUP2 GT DUP1 ISZERO PUSH2 0x3DB9 JUMPI PUSH1 0x0 DUP1 REVERT JUMPDEST POP PUSH1 0x40 MLOAD SWAP1 DUP1 DUP3 MSTORE DUP1 PUSH1 0x20 MUL PUSH1 0x20 ADD DUP3 ADD PUSH1 0x40 MSTORE DUP1 ISZERO PUSH2 0x3DE8 JUMPI DUP2 PUSH1 0x20 ADD PUSH1 0x20 DUP3 MUL DUP1 CALLDATASIZE DUP4 CALLDATACOPY DUP1 DUP3 ADD SWAP2 POP POP SWAP1 POP JUMPDEST POP SWAP1 POP ADDRESS DUP2 PUSH1 0x0 DUP2 MLOAD DUP2 LT PUSH2 0x3DF9 JUMPI INVALID JUMPDEST PUSH1 0x20 MUL PUSH1 0x20 ADD ADD SWAP1 PUSH20 0xFFFFFFFFFFFFFFFFFFFFFFFFFFFFFFFFFFFFFFFF AND SWAP1 DUP2 PUSH20 0xFFFFFFFFFFFFFFFFFFFFFFFFFFFFFFFFFFFFFFFF AND DUP2 MSTORE POP POP PUSH1 0x14 PUSH1 0x0 SWAP1 SLOAD SWAP1 PUSH2 0x100 EXP SWAP1 DIV PUSH20 0xFFFFFFFFFFFFFFFFFFFFFFFFFFFFFFFFFFFFFFFF AND PUSH20 0xFFFFFFFFFFFFFFFFFFFFFFFFFFFFFFFFFFFFFFFF AND PUSH4 0xAD5C4648 PUSH1 0x40 MLOAD DUP2 PUSH4 0xFFFFFFFF AND PUSH1 0xE0 SHL DUP2 MSTORE PUSH1 0x4 ADD PUSH1 0x20 PUSH1 0x40 MLOAD DUP1 DUP4 SUB DUP2 DUP7 DUP1 EXTCODESIZE ISZERO DUP1 ISZERO PUSH2 0x3E9B JUMPI PUSH1 0x0 DUP1 REVERT JUMPDEST POP GAS STATICCALL ISZERO DUP1 ISZERO PUSH2 0x3EAF JUMPI RETURNDATASIZE PUSH1 0x0 DUP1 RETURNDATACOPY RETURNDATASIZE PUSH1 0x0 REVERT JUMPDEST POP POP POP POP PUSH1 0x40 MLOAD RETURNDATASIZE PUSH1 0x20 DUP2 LT ISZERO PUSH2 0x3EC5 JUMPI PUSH1 0x0 DUP1 REVERT JUMPDEST DUP2 ADD SWAP1 DUP1 DUP1 MLOAD SWAP1 PUSH1 0x20 ADD SWAP1 SWAP3 SWAP2 SWAP1 POP POP POP DUP2 PUSH1 0x1 DUP2 MLOAD DUP2 LT PUSH2 0x3EE3 JUMPI INVALID JUMPDEST PUSH1 0x20 MUL PUSH1 0x20 ADD ADD SWAP1 PUSH20 0xFFFFFFFFFFFFFFFFFFFFFFFFFFFFFFFFFFFFFFFF AND SWAP1 DUP2 PUSH20 0xFFFFFFFFFFFFFFFFFFFFFFFFFFFFFFFFFFFFFFFF AND DUP2 MSTORE POP POP PUSH1 0x0 SELFBALANCE SWAP1 POP PUSH1 0x14 PUSH1 0x0 SWAP1 SLOAD SWAP1 PUSH2 0x100 EXP SWAP1 DIV PUSH20 0xFFFFFFFFFFFFFFFFFFFFFFFFFFFFFFFFFFFFFFFF AND PUSH20 0xFFFFFFFFFFFFFFFFFFFFFFFFFFFFFFFFFFFFFFFF AND PUSH4 0x791AC947 DUP5 PUSH1 0x0 DUP6 ADDRESS TIMESTAMP PUSH1 0x40 MLOAD DUP7 PUSH4 0xFFFFFFFF AND PUSH1 0xE0 SHL DUP2 MSTORE PUSH1 0x4 ADD DUP1 DUP7 DUP2 MSTORE PUSH1 0x20 ADD DUP6 DUP2 MSTORE PUSH1 0x20 ADD DUP1 PUSH1 0x20 ADD DUP5 PUSH20 0xFFFFFFFFFFFFFFFFFFFFFFFFFFFFFFFFFFFFFFFF AND DUP2 MSTORE PUSH1 0x20 ADD DUP4 DUP2 MSTORE PUSH1 0x20 ADD DUP3 DUP2 SUB DUP3 MSTORE DUP6 DUP2 DUP2 MLOAD DUP2 MSTORE PUSH1 0x20 ADD SWAP2 POP DUP1 MLOAD SWAP1 PUSH1 0x20 ADD SWAP1 PUSH1 0x20 MUL DUP1 DUP4 DUP4 PUSH1 0x0 JUMPDEST DUP4 DUP2 LT ISZERO PUSH2 0x3FE6 JUMPI DUP1 DUP3 ADD MLOAD DUP2 DUP5 ADD MSTORE PUSH1 0x20 DUP2 ADD SWAP1 POP PUSH2 0x3FCB JUMP JUMPDEST POP POP POP POP SWAP1 POP ADD SWAP7 POP POP POP POP POP POP POP PUSH1 0x0 PUSH1 0x40 MLOAD DUP1 DUP4 SUB DUP2 PUSH1 0x0 DUP8 DUP1 EXTCODESIZE ISZERO DUP1 ISZERO PUSH2 0x400F JUMPI PUSH1 0x0 DUP1 REVERT JUMPDEST POP GAS CALL ISZERO DUP1 ISZERO PUSH2 0x4023 JUMPI RETURNDATASIZE PUSH1 0x0 DUP1 RETURNDATACOPY RETURNDATASIZE PUSH1 0x0 REVERT JUMPDEST POP POP POP POP PUSH1 0x0 PUSH2 0x403C DUP3 SELFBALANCE PUSH2 0x366D SWAP1 SWAP2 SWAP1 PUSH4 0xFFFFFFFF AND JUMP JUMPDEST SWAP1 POP PUSH1 0x0 PUSH2 0x4068 PUSH2 0x4057 PUSH1 0x2 DUP11 PUSH2 0x3145 SWAP1 SWAP2 SWAP1 PUSH4 0xFFFFFFFF AND JUMP JUMPDEST PUSH1 0xB SLOAD PUSH2 0x366D SWAP1 SWAP2 SWAP1 PUSH4 0xFFFFFFFF AND JUMP JUMPDEST SWAP1 POP PUSH1 0x0 PUSH2 0x40A4 PUSH1 0x2 PUSH2 0x4096 DUP5 PUSH2 0x4088 DUP14 DUP9 PUSH2 0x3849 SWAP1 SWAP2 SWAP1 PUSH4 0xFFFFFFFF AND JUMP JUMPDEST PUSH2 0x3145 SWAP1 SWAP2 SWAP1 PUSH4 0xFFFFFFFF AND JUMP JUMPDEST PUSH2 0x3145 SWAP1 SWAP2 SWAP1 PUSH4 0xFFFFFFFF AND JUMP JUMPDEST SWAP1 POP PUSH1 0x0 PUSH2 0x40CF DUP4 PUSH2 0x40C1 PUSH1 0x9 SLOAD DUP8 PUSH2 0x3849 SWAP1 SWAP2 SWAP1 PUSH4 0xFFFFFFFF AND JUMP JUMPDEST PUSH2 0x3145 SWAP1 SWAP2 SWAP1 PUSH4 0xFFFFFFFF AND JUMP JUMPDEST SWAP1 POP PUSH1 0x0 PUSH2 0x40FA DUP5 PUSH2 0x40EC PUSH1 0x8 SLOAD DUP9 PUSH2 0x3849 SWAP1 SWAP2 SWAP1 PUSH4 0xFFFFFFFF AND JUMP JUMPDEST PUSH2 0x3145 SWAP1 SWAP2 SWAP1 PUSH4 0xFFFFFFFF AND JUMP JUMPDEST SWAP1 POP PUSH1 0x0 PUSH1 0x10 PUSH1 0x0 SWAP1 SLOAD SWAP1 PUSH2 0x100 EXP SWAP1 DIV PUSH20 0xFFFFFFFFFFFFFFFFFFFFFFFFFFFFFFFFFFFFFFFF AND PUSH20 0xFFFFFFFFFFFFFFFFFFFFFFFFFFFFFFFFFFFFFFFF AND DUP3 PUSH2 0x7530 SWAP1 PUSH1 0x40 MLOAD DUP1 PUSH1 0x0 ADD SWAP1 POP PUSH1 0x0 PUSH1 0x40 MLOAD DUP1 DUP4 SUB DUP2 DUP6 DUP9 DUP9 CALL SWAP4 POP POP POP POP RETURNDATASIZE DUP1 PUSH1 0x0 DUP2 EQ PUSH2 0x4183 JUMPI PUSH1 0x40 MLOAD SWAP2 POP PUSH1 0x1F NOT PUSH1 0x3F RETURNDATASIZE ADD AND DUP3 ADD PUSH1 0x40 MSTORE RETURNDATASIZE DUP3 MSTORE RETURNDATASIZE PUSH1 0x0 PUSH1 0x20 DUP5 ADD RETURNDATACOPY PUSH2 0x4188 JUMP JUMPDEST PUSH1 0x60 SWAP2 POP JUMPDEST POP POP SWAP1 POP PUSH1 0x11 PUSH1 0x0 SWAP1 SLOAD SWAP1 PUSH2 0x100 EXP SWAP1 DIV PUSH20 0xFFFFFFFFFFFFFFFFFFFFFFFFFFFFFFFFFFFFFFFF AND PUSH20 0xFFFFFFFFFFFFFFFFFFFFFFFFFFFFFFFFFFFFFFFF AND DUP4 PUSH2 0x7530 SWAP1 PUSH1 0x40 MLOAD DUP1 PUSH1 0x0 ADD SWAP1 POP PUSH1 0x0 PUSH1 0x40 MLOAD DUP1 DUP4 SUB DUP2 DUP6 DUP9 DUP9 CALL SWAP4 POP POP POP POP RETURNDATASIZE DUP1 PUSH1 0x0 DUP2 EQ PUSH2 0x4211 JUMPI PUSH1 0x40 MLOAD SWAP2 POP PUSH1 0x1F NOT PUSH1 0x3F RETURNDATASIZE ADD AND DUP3 ADD PUSH1 0x40 MSTORE RETURNDATASIZE DUP3 MSTORE RETURNDATASIZE PUSH1 0x0 PUSH1 0x20 DUP5 ADD RETURNDATACOPY PUSH2 0x4216 JUMP JUMPDEST PUSH1 0x60 SWAP2 POP JUMPDEST POP POP DUP1 SWAP2 POP POP PUSH1 0x0 SWAP1 POP PUSH1 0x0 DUP11 GT ISZERO PUSH2 0x4369 JUMPI PUSH1 0x14 PUSH1 0x0 SWAP1 SLOAD SWAP1 PUSH2 0x100 EXP SWAP1 DIV PUSH20 0xFFFFFFFFFFFFFFFFFFFFFFFFFFFFFFFFFFFFFFFF AND PUSH20 0xFFFFFFFFFFFFFFFFFFFFFFFFFFFFFFFFFFFFFFFF AND PUSH4 0xF305D719 DUP6 ADDRESS DUP14 PUSH1 0x0 DUP1 PUSH1 0xF PUSH1 0x0 SWAP1 SLOAD SWAP1 PUSH2 0x100 EXP SWAP1 DIV PUSH20 0xFFFFFFFFFFFFFFFFFFFFFFFFFFFFFFFFFFFFFFFF AND TIMESTAMP PUSH1 0x40 MLOAD DUP9 PUSH4 0xFFFFFFFF AND PUSH1 0xE0 SHL DUP2 MSTORE PUSH1 0x4 ADD DUP1 DUP8 PUSH20 0xFFFFFFFFFFFFFFFFFFFFFFFFFFFFFFFFFFFFFFFF AND DUP2 MSTORE PUSH1 0x20 ADD DUP7 DUP2 MSTORE PUSH1 0x20 ADD DUP6 DUP2 MSTORE PUSH1 0x20 ADD DUP5 DUP2 MSTORE PUSH1 0x20 ADD DUP4 PUSH20 0xFFFFFFFFFFFFFFFFFFFFFFFFFFFFFFFFFFFFFFFF AND DUP2 MSTORE PUSH1 0x20 ADD DUP3 DUP2 MSTORE PUSH1 0x20 ADD SWAP7 POP POP POP POP POP POP POP PUSH1 0x60 PUSH1 0x40 MLOAD DUP1 DUP4 SUB DUP2 DUP6 DUP9 DUP1 EXTCODESIZE ISZERO DUP1 ISZERO PUSH2 0x4315 JUMPI PUSH1 0x0 DUP1 REVERT JUMPDEST POP GAS CALL ISZERO DUP1 ISZERO PUSH2 0x4329 JUMPI RETURNDATASIZE PUSH1 0x0 DUP1 RETURNDATACOPY RETURNDATASIZE PUSH1 0x0 REVERT JUMPDEST POP POP POP POP POP PUSH1 0x40 MLOAD RETURNDATASIZE PUSH1 0x60 DUP2 LT ISZERO PUSH2 0x4340 JUMPI PUSH1 0x0 DUP1 REVERT JUMPDEST DUP2 ADD SWAP1 DUP1 DUP1 MLOAD SWAP1 PUSH1 0x20 ADD SWAP1 SWAP3 SWAP2 SWAP1 DUP1 MLOAD SWAP1 PUSH1 0x20 ADD SWAP1 SWAP3 SWAP2 SWAP1 DUP1 MLOAD SWAP1 PUSH1 0x20 ADD SWAP1 SWAP3 SWAP2 SWAP1 POP POP POP POP POP POP JUMPDEST POP POP POP POP POP POP POP POP POP POP POP POP PUSH1 0x0 PUSH1 0x17 PUSH1 0x0 PUSH2 0x100 EXP DUP2 SLOAD DUP2 PUSH1 0xFF MUL NOT AND SWAP1 DUP4 ISZERO ISZERO MUL OR SWAP1 SSTORE POP JUMP JUMPDEST PUSH1 0x0 DUP3 PUSH20 0xFFFFFFFFFFFFFFFFFFFFFFFFFFFFFFFFFFFFFFFF AND PUSH1 0x15 PUSH1 0x0 SWAP1 SLOAD SWAP1 PUSH2 0x100 EXP SWAP1 DIV PUSH20 0xFFFFFFFFFFFFFFFFFFFFFFFFFFFFFFFFFFFFFFFF AND PUSH20 0xFFFFFFFFFFFFFFFFFFFFFFFFFFFFFFFFFFFFFFFF AND EQ DUP1 PUSH2 0x443D JUMPI POP DUP2 PUSH20 0xFFFFFFFFFFFFFFFFFFFFFFFFFFFFFFFFFFFFFFFF AND PUSH1 0x15 PUSH1 0x0 SWAP1 SLOAD SWAP1 PUSH2 0x100 EXP SWAP1 DIV PUSH20 0xFFFFFFFFFFFFFFFFFFFFFFFFFFFFFFFFFFFFFFFF AND PUSH20 0xFFFFFFFFFFFFFFFFFFFFFFFFFFFFFFFFFFFFFFFF AND EQ JUMPDEST DUP1 ISZERO PUSH2 0x4493 JUMPI POP PUSH1 0x6 PUSH1 0x0 DUP5 PUSH20 0xFFFFFFFFFFFFFFFFFFFFFFFFFFFFFFFFFFFFFFFF AND PUSH20 0xFFFFFFFFFFFFFFFFFFFFFFFFFFFFFFFFFFFFFFFF AND DUP2 MSTORE PUSH1 0x20 ADD SWAP1 DUP2 MSTORE PUSH1 0x20 ADD PUSH1 0x0 KECCAK256 PUSH1 0x0 SWAP1 SLOAD SWAP1 PUSH2 0x100 EXP SWAP1 DIV PUSH1 0xFF AND ISZERO JUMPDEST SWAP1 POP SWAP3 SWAP2 POP POP JUMP JUMPDEST PUSH1 0x0 DUP1 PUSH1 0xB SLOAD SWAP1 POP PUSH1 0x15 PUSH1 0x0 SWAP1 SLOAD SWAP1 PUSH2 0x100 EXP SWAP1 DIV PUSH20 0xFFFFFFFFFFFFFFFFFFFFFFFFFFFFFFFFFFFFFFFF AND PUSH20 0xFFFFFFFFFFFFFFFFFFFFFFFFFFFFFFFFFFFFFFFF AND DUP5 PUSH20 0xFFFFFFFFFFFFFFFFFFFFFFFFFFFFFFFFFFFFFFFF AND EQ ISZERO PUSH2 0x4511 JUMPI PUSH2 0x450E PUSH1 0xA SLOAD DUP3 PUSH2 0x30BD SWAP1 SWAP2 SWAP1 PUSH4 0xFFFFFFFF AND JUMP JUMPDEST SWAP1 POP JUMPDEST PUSH1 0x0 PUSH2 0x453A PUSH1 0xC SLOAD PUSH2 0x452C DUP5 DUP8 PUSH2 0x3849 SWAP1 SWAP2 SWAP1 PUSH4 0xFFFFFFFF AND JUMP JUMPDEST PUSH2 0x3145 SWAP1 SWAP2 SWAP1 PUSH4 0xFFFFFFFF AND JUMP JUMPDEST SWAP1 POP PUSH2 0x458E DUP2 PUSH1 0x1A PUSH1 0x0 ADDRESS PUSH20 0xFFFFFFFFFFFFFFFFFFFFFFFFFFFFFFFFFFFFFFFF AND PUSH20 0xFFFFFFFFFFFFFFFFFFFFFFFFFFFFFFFFFFFFFFFF AND DUP2 MSTORE PUSH1 0x20 ADD SWAP1 DUP2 MSTORE PUSH1 0x20 ADD PUSH1 0x0 KECCAK256 SLOAD PUSH2 0x30BD SWAP1 SWAP2 SWAP1 PUSH4 0xFFFFFFFF AND JUMP JUMPDEST PUSH1 0x1A PUSH1 0x0 ADDRESS PUSH20 0xFFFFFFFFFFFFFFFFFFFFFFFFFFFFFFFFFFFFFFFF AND PUSH20 0xFFFFFFFFFFFFFFFFFFFFFFFFFFFFFFFFFFFFFFFF AND DUP2 MSTORE PUSH1 0x20 ADD SWAP1 DUP2 MSTORE PUSH1 0x20 ADD PUSH1 0x0 KECCAK256 DUP2 SWAP1 SSTORE POP ADDRESS PUSH20 0xFFFFFFFFFFFFFFFFFFFFFFFFFFFFFFFFFFFFFFFF AND DUP7 PUSH20 0xFFFFFFFFFFFFFFFFFFFFFFFFFFFFFFFFFFFFFFFF AND PUSH32 0xDDF252AD1BE2C89B69C2B068FC378DAA952BA7F163C4A11628F55A4DF523B3EF PUSH2 0x4635 PUSH1 0x19 SLOAD DUP6 PUSH2 0x3145 SWAP1 SWAP2 SWAP1 PUSH4 0xFFFFFFFF AND JUMP JUMPDEST PUSH1 0x40 MLOAD DUP1 DUP3 DUP2 MSTORE PUSH1 0x20 ADD SWAP2 POP POP PUSH1 0x40 MLOAD DUP1 SWAP2 SUB SWAP1 LOG3 PUSH2 0x465D DUP2 DUP6 PUSH2 0x366D SWAP1 SWAP2 SWAP1 PUSH4 0xFFFFFFFF AND JUMP JUMPDEST SWAP3 POP POP POP SWAP4 SWAP3 POP POP POP JUMP JUMPDEST PUSH2 0x4672 DUP3 DUP3 PUSH2 0x376B JUMP JUMPDEST PUSH2 0x46C7 JUMPI PUSH1 0x40 MLOAD PUSH32 0x8C379A000000000000000000000000000000000000000000000000000000000 DUP2 MSTORE PUSH1 0x4 ADD DUP1 DUP1 PUSH1 0x20 ADD DUP3 DUP2 SUB DUP3 MSTORE PUSH1 0x21 DUP2 MSTORE PUSH1 0x20 ADD DUP1 PUSH2 0x4756 PUSH1 0x21 SWAP2 CODECOPY PUSH1 0x40 ADD SWAP2 POP POP PUSH1 0x40 MLOAD DUP1 SWAP2 SUB SWAP1 REVERT JUMPDEST PUSH1 0x0 DUP3 PUSH1 0x0 ADD PUSH1 0x0 DUP4 PUSH20 0xFFFFFFFFFFFFFFFFFFFFFFFFFFFFFFFFFFFFFFFF AND PUSH20 0xFFFFFFFFFFFFFFFFFFFFFFFFFFFFFFFFFFFFFFFF AND DUP2 MSTORE PUSH1 0x20 ADD SWAP1 DUP2 MSTORE PUSH1 0x20 ADD PUSH1 0x0 KECCAK256 PUSH1 0x0 PUSH2 0x100 EXP DUP2 SLOAD DUP2 PUSH1 0xFF MUL NOT AND SWAP1 DUP4 ISZERO ISZERO MUL OR SWAP1 SSTORE POP POP POP JUMP INVALID 0x4D PUSH10 0x6E746572526F6C653A20 PUSH4 0x616C6C65 PUSH19 0x20646F6573206E6F7420686176652074686520 0x4D PUSH10 0x6E74657220726F6C6552 PUSH16 0x6C65733A206163636F756E7420646F65 PUSH20 0x206E6F74206861766520726F6C65536166654D61 PUSH21 0x683A206D756C7469706C69636174696F6E206F7665 PUSH19 0x666C6F77526F6C65733A206163636F756E7420 PUSH10 0x7320746865207A65726F KECCAK256 PUSH2 0x6464 PUSH19 0x657373A26469706673582212201E9234EA8884 0xD9 0x28 DUP15 SUB BALANCE PUSH10 0x1F0005B81AA0DD07B77E SLOAD 0xC9 0xE4 CHAINID PUSH25 0x6DF3D024CA64736F6C63430007060033526F6C65733A206163 PUSH4 0x6F756E74 KECCAK256 PUSH10 0x7320746865207A65726F KECCAK256 PUSH2 0x6464 PUSH19 0x65737300000000000000000000000000000000 "
				},
				"gasEstimates": {
					"creation": {
						"codeDepositCost": "3683000",
						"executionCost": "infinite",
						"totalCost": "infinite"
					},
					"external": {
						"RiskFreeValue()": "1073",
						"RiskFreeValueReceiver()": "1136",
						"Treasury()": "1139",
						"TreasuryReceiver()": "1138",
						"addMinter(address)": "infinite",
						"allowance(address,address)": "1387",
						"approve(address,uint256)": "25263",
						"autoLiquidityReceiver()": "1137",
						"balanceOf(address)": "infinite",
						"blacklist(address)": "1332",
						"checkFeeExempt(address)": "1349",
						"checkSwapThreshold()": "infinite",
						"clearStuckBalance(uint256,address)": "infinite",
						"decimals()": "1146",
						"decreaseAllowance(address,uint256)": "infinite",
						"enableTransfer(address)": "22213",
						"feeDenominator()": "1140",
						"getCirculatingSupply()": "infinite",
						"getLiquidityBacking(uint256)": "infinite",
						"increaseAllowance(address,uint256)": "infinite",
						"initialDistributionFinished()": "1164",
						"isMinter(address)": "infinite",
						"isNotInSwap()": "1171",
						"isOverLiquified(uint256,uint256)": "infinite",
						"isOwner()": "1212",
						"liquidityFee()": "1073",
						"manualSync()": "infinite",
						"mint(address,uint256)": "infinite",
						"name()": "infinite",
						"owner()": "1173",
						"pair()": "1136",
						"pairContract()": "1159",
						"rebase(uint256,int256)": "infinite",
						"removeMinter(address)": "infinite",
						"renounceMinter()": "infinite",
						"renounceOwnership()": "24152",
						"rescueToken(address,uint256)": "infinite",
						"router()": "1157",
						"sellFee()": "1095",
						"sendPresale(address[],uint256[])": "infinite",
						"setFeeExempt(address)": "22257",
						"setFeeReceivers(address,address,address)": "63971",
						"setFees(uint256,uint256,uint256,uint256,uint256)": "infinite",
						"setInitialDistributionFinished()": "22128",
						"setLP(address)": "23112",
						"setSwapBackSettings(bool,uint256,uint256)": "infinite",
						"setTargetLiquidity(uint256,uint256)": "41331",
						"swapEnabled()": "1209",
						"symbol()": "infinite",
						"totalFee()": "1074",
						"totalSupply()": "1170",
						"transfer(address,uint256)": "infinite",
						"transferFrom(address,address,uint256)": "infinite",
						"transferOwnership(address)": "24692",
						"updateBlacklist(address,bool)": "22293"
					},
					"internal": {
						"_basicTransfer(address,address,uint256)": "infinite",
						"_transferFrom(address,address,uint256)": "infinite",
						"shouldSwapBack()": "4383",
						"shouldTakeFee(address,address)": "2720",
						"swapBack()": "infinite",
						"takeFee(address,address,uint256)": "infinite",
						"transferToAddressETH(address payable,uint256)": "infinite"
					}
				},
				"methodIdentifiers": {
					"RiskFreeValue()": "bda5c8bb",
					"RiskFreeValueReceiver()": "d7ac6585",
					"Treasury()": "563df32f",
					"TreasuryReceiver()": "800cee51",
					"addMinter(address)": "983b2d56",
					"allowance(address,address)": "dd62ed3e",
					"approve(address,uint256)": "095ea7b3",
					"autoLiquidityReceiver()": "ca33e64c",
					"balanceOf(address)": "70a08231",
					"blacklist(address)": "f9f92be4",
					"checkFeeExempt(address)": "d4399790",
					"checkSwapThreshold()": "6d351d1a",
					"clearStuckBalance(uint256,address)": "56a227f2",
					"decimals()": "313ce567",
					"decreaseAllowance(address,uint256)": "a457c2d7",
					"enableTransfer(address)": "d5938aac",
					"feeDenominator()": "180b0d7e",
					"getCirculatingSupply()": "2b112e49",
					"getLiquidityBacking(uint256)": "d51ed1c8",
					"increaseAllowance(address,uint256)": "39509351",
					"initialDistributionFinished()": "d1fce264",
					"isMinter(address)": "aa271e1a",
					"isNotInSwap()": "83b4ac68",
					"isOverLiquified(uint256,uint256)": "1161ae39",
					"isOwner()": "8f32d59b",
					"liquidityFee()": "98118cb4",
					"manualSync()": "753d02a1",
					"mint(address,uint256)": "40c10f19",
					"name()": "06fdde03",
					"owner()": "8da5cb5b",
					"pair()": "a8aa1b31",
					"pairContract()": "4d709adf",
					"rebase(uint256,int256)": "7a43e23f",
					"removeMinter(address)": "3092afd5",
					"renounceMinter()": "98650275",
					"renounceOwnership()": "715018a6",
					"rescueToken(address,uint256)": "33f3d628",
					"router()": "f887ea40",
					"sellFee()": "2b14ca56",
					"sendPresale(address[],uint256[])": "d37e219d",
					"setFeeExempt(address)": "749796a5",
					"setFeeReceivers(address,address,address)": "d7c01032",
					"setFees(uint256,uint256,uint256,uint256,uint256)": "04a66b48",
					"setInitialDistributionFinished()": "2be6937d",
					"setLP(address)": "2f34d282",
					"setSwapBackSettings(bool,uint256,uint256)": "d0889358",
					"setTargetLiquidity(uint256,uint256)": "201e7991",
					"swapEnabled()": "6ddd1713",
					"symbol()": "95d89b41",
					"totalFee()": "1df4ccfc",
					"totalSupply()": "18160ddd",
					"transfer(address,uint256)": "a9059cbb",
					"transferFrom(address,address,uint256)": "23b872dd",
					"transferOwnership(address)": "f2fde38b",
					"updateBlacklist(address,bool)": "9155e083"
				}
			},
			"storageLayout": {
				"storage": [
					{
						"astId": 604,
						"contract": "bep-20.sol:Raventoken",
						"label": "_name",
						"offset": 0,
						"slot": "0",
						"type": "t_string_storage"
					},
					{
						"astId": 606,
						"contract": "bep-20.sol:Raventoken",
						"label": "_symbol",
						"offset": 0,
						"slot": "1",
						"type": "t_string_storage"
					},
					{
						"astId": 608,
						"contract": "bep-20.sol:Raventoken",
						"label": "_decimals",
						"offset": 0,
						"slot": "2",
						"type": "t_uint8"
					},
					{
						"astId": 764,
						"contract": "bep-20.sol:Raventoken",
						"label": "_owner",
						"offset": 1,
						"slot": "2",
						"type": "t_address"
					},
					{
						"astId": 524,
						"contract": "bep-20.sol:Raventoken",
						"label": "_minters",
						"offset": 0,
						"slot": "3",
						"type": "t_struct(Role)433_storage"
					},
					{
						"astId": 885,
						"contract": "bep-20.sol:Raventoken",
						"label": "pairContract",
						"offset": 0,
						"slot": "4",
						"type": "t_contract(InterfaceLP)428"
					},
					{
						"astId": 887,
						"contract": "bep-20.sol:Raventoken",
						"label": "initialDistributionFinished",
						"offset": 20,
						"slot": "4",
						"type": "t_bool"
					},
					{
						"astId": 891,
						"contract": "bep-20.sol:Raventoken",
						"label": "allowTransfer",
						"offset": 0,
						"slot": "5",
						"type": "t_mapping(t_address,t_bool)"
					},
					{
						"astId": 895,
						"contract": "bep-20.sol:Raventoken",
						"label": "_isFeeExempt",
						"offset": 0,
						"slot": "6",
						"type": "t_mapping(t_address,t_bool)"
					},
					{
						"astId": 950,
						"contract": "bep-20.sol:Raventoken",
						"label": "liquidityFee",
						"offset": 0,
						"slot": "7",
						"type": "t_uint256"
					},
					{
						"astId": 953,
						"contract": "bep-20.sol:Raventoken",
						"label": "Treasury",
						"offset": 0,
						"slot": "8",
						"type": "t_uint256"
					},
					{
						"astId": 956,
						"contract": "bep-20.sol:Raventoken",
						"label": "RiskFreeValue",
						"offset": 0,
						"slot": "9",
						"type": "t_uint256"
					},
					{
						"astId": 959,
						"contract": "bep-20.sol:Raventoken",
						"label": "sellFee",
						"offset": 0,
						"slot": "10",
						"type": "t_uint256"
					},
					{
						"astId": 968,
						"contract": "bep-20.sol:Raventoken",
						"label": "totalFee",
						"offset": 0,
						"slot": "11",
						"type": "t_uint256"
					},
					{
						"astId": 971,
						"contract": "bep-20.sol:Raventoken",
						"label": "feeDenominator",
						"offset": 0,
						"slot": "12",
						"type": "t_uint256"
					},
					{
						"astId": 974,
						"contract": "bep-20.sol:Raventoken",
						"label": "DEAD",
						"offset": 0,
						"slot": "13",
						"type": "t_address"
					},
					{
						"astId": 977,
						"contract": "bep-20.sol:Raventoken",
						"label": "ZERO",
						"offset": 0,
						"slot": "14",
						"type": "t_address"
					},
					{
						"astId": 979,
						"contract": "bep-20.sol:Raventoken",
						"label": "autoLiquidityReceiver",
						"offset": 0,
						"slot": "15",
						"type": "t_address"
					},
					{
						"astId": 981,
						"contract": "bep-20.sol:Raventoken",
						"label": "TreasuryReceiver",
						"offset": 0,
						"slot": "16",
						"type": "t_address"
					},
					{
						"astId": 983,
						"contract": "bep-20.sol:Raventoken",
						"label": "RiskFreeValueReceiver",
						"offset": 0,
						"slot": "17",
						"type": "t_address"
					},
					{
						"astId": 986,
						"contract": "bep-20.sol:Raventoken",
						"label": "targetLiquidity",
						"offset": 0,
						"slot": "18",
						"type": "t_uint256"
					},
					{
						"astId": 989,
						"contract": "bep-20.sol:Raventoken",
						"label": "targetLiquidityDenominator",
						"offset": 0,
						"slot": "19",
						"type": "t_uint256"
					},
					{
						"astId": 991,
						"contract": "bep-20.sol:Raventoken",
						"label": "router",
						"offset": 0,
						"slot": "20",
						"type": "t_contract(IDEXRouter)752"
					},
					{
						"astId": 993,
						"contract": "bep-20.sol:Raventoken",
						"label": "pair",
						"offset": 0,
						"slot": "21",
						"type": "t_address"
					},
					{
						"astId": 996,
						"contract": "bep-20.sol:Raventoken",
						"label": "swapEnabled",
						"offset": 20,
						"slot": "21",
						"type": "t_bool"
					},
					{
						"astId": 1004,
						"contract": "bep-20.sol:Raventoken",
						"label": "gonSwapThreshold",
						"offset": 0,
						"slot": "22",
						"type": "t_uint256"
					},
					{
						"astId": 1006,
						"contract": "bep-20.sol:Raventoken",
						"label": "inSwap",
						"offset": 0,
						"slot": "23",
						"type": "t_bool"
					},
					{
						"astId": 1035,
						"contract": "bep-20.sol:Raventoken",
						"label": "_totalSupply",
						"offset": 0,
						"slot": "24",
						"type": "t_uint256"
					},
					{
						"astId": 1037,
						"contract": "bep-20.sol:Raventoken",
						"label": "_gonsPerFragment",
						"offset": 0,
						"slot": "25",
						"type": "t_uint256"
					},
					{
						"astId": 1041,
						"contract": "bep-20.sol:Raventoken",
						"label": "_gonBalances",
						"offset": 0,
						"slot": "26",
						"type": "t_mapping(t_address,t_uint256)"
					},
					{
						"astId": 1047,
						"contract": "bep-20.sol:Raventoken",
						"label": "_allowedFragments",
						"offset": 0,
						"slot": "27",
						"type": "t_mapping(t_address,t_mapping(t_address,t_uint256))"
					},
					{
						"astId": 1051,
						"contract": "bep-20.sol:Raventoken",
						"label": "blacklist",
						"offset": 0,
						"slot": "28",
						"type": "t_mapping(t_address,t_bool)"
					}
				],
				"types": {
					"t_address": {
						"encoding": "inplace",
						"label": "address",
						"numberOfBytes": "20"
					},
					"t_bool": {
						"encoding": "inplace",
						"label": "bool",
						"numberOfBytes": "1"
					},
					"t_contract(IDEXRouter)752": {
						"encoding": "inplace",
						"label": "contract IDEXRouter",
						"numberOfBytes": "20"
					},
					"t_contract(InterfaceLP)428": {
						"encoding": "inplace",
						"label": "contract InterfaceLP",
						"numberOfBytes": "20"
					},
					"t_mapping(t_address,t_bool)": {
						"encoding": "mapping",
						"key": "t_address",
						"label": "mapping(address => bool)",
						"numberOfBytes": "32",
						"value": "t_bool"
					},
					"t_mapping(t_address,t_mapping(t_address,t_uint256))": {
						"encoding": "mapping",
						"key": "t_address",
						"label": "mapping(address => mapping(address => uint256))",
						"numberOfBytes": "32",
						"value": "t_mapping(t_address,t_uint256)"
					},
					"t_mapping(t_address,t_uint256)": {
						"encoding": "mapping",
						"key": "t_address",
						"label": "mapping(address => uint256)",
						"numberOfBytes": "32",
						"value": "t_uint256"
					},
					"t_string_storage": {
						"encoding": "bytes",
						"label": "string",
						"numberOfBytes": "32"
					},
					"t_struct(Role)433_storage": {
						"encoding": "inplace",
						"label": "struct Roles.Role",
						"members": [
							{
								"astId": 432,
								"contract": "bep-20.sol:Raventoken",
								"label": "bearer",
								"offset": 0,
								"slot": "0",
								"type": "t_mapping(t_address,t_bool)"
							}
						],
						"numberOfBytes": "32"
					},
					"t_uint256": {
						"encoding": "inplace",
						"label": "uint256",
						"numberOfBytes": "32"
					},
					"t_uint8": {
						"encoding": "inplace",
						"label": "uint8",
						"numberOfBytes": "1"
					}
				}
			},
			"userdoc": {
				"kind": "user",
				"methods": {},
				"version": 1
			}
		}
	}
}