{
	"bep-20.sol": {
		"MinterRole": {
			"abi": [
				{
					"inputs": [],
					"stateMutability": "nonpayable",
					"type": "constructor"
				},
				{
					"anonymous": false,
					"inputs": [
						{
							"indexed": true,
							"internalType": "address",
							"name": "account",
							"type": "address"
						}
					],
					"name": "MinterAdded",
					"type": "event"
				},
				{
					"anonymous": false,
					"inputs": [
						{
							"indexed": true,
							"internalType": "address",
							"name": "account",
							"type": "address"
						}
					],
					"name": "MinterRemoved",
					"type": "event"
				},
				{
					"inputs": [
						{
							"internalType": "address",
							"name": "account",
							"type": "address"
						}
					],
					"name": "isMinter",
					"outputs": [
						{
							"internalType": "bool",
							"name": "",
							"type": "bool"
						}
					],
					"stateMutability": "view",
					"type": "function"
				},
				{
					"inputs": [],
					"name": "renounceMinter",
					"outputs": [],
					"stateMutability": "nonpayable",
					"type": "function"
				}
			],
			"devdoc": {
				"kind": "dev",
				"methods": {},
				"version": 1
			},
			"evm": {
				"assembly": "    /* \"bep-20.sol\":4007:4844  contract MinterRole {... */\n  mstore(0x40, 0x80)\n    /* \"bep-20.sol\":4199:4253  constructor () {... */\n  callvalue\n  dup1\n  iszero\n  tag_1\n  jumpi\n  0x00\n  dup1\n  revert\ntag_1:\n  pop\n    /* \"bep-20.sol\":4224:4246  _addMinter(msg.sender) */\n  tag_4\n    /* \"bep-20.sol\":4235:4245  msg.sender */\n  caller\n    /* \"bep-20.sol\":4224:4234  _addMinter */\n  shl(0x20, tag_5)\n    /* \"bep-20.sol\":4224:4246  _addMinter(msg.sender) */\n  0x20\n  shr\n  jump\t// in\ntag_4:\n    /* \"bep-20.sol\":4007:4844  contract MinterRole {... */\n  jump(tag_6)\n    /* \"bep-20.sol\":4590:4709  function _addMinter(address account) internal {... */\ntag_5:\n    /* \"bep-20.sol\":4646:4667  _minters.add(account) */\n  tag_8\n    /* \"bep-20.sol\":4659:4666  account */\n  dup2\n    /* \"bep-20.sol\":4646:4654  _minters */\n  0x00\n    /* \"bep-20.sol\":4646:4658  _minters.add */\n  or(tag_0_10, shl(0x20, tag_9))\n  swap1\n    /* \"bep-20.sol\":4646:4667  _minters.add(account) */\n  swap2\n  swap1\n  0x20\n  shr\n  jump\t// in\ntag_8:\n    /* \"bep-20.sol\":4694:4701  account */\n  dup1\n    /* \"bep-20.sol\":4682:4702  MinterAdded(account) */\n  0xffffffffffffffffffffffffffffffffffffffff\n  and\n  0x6ae172837ea30b801fbfcdd4108aa1d5bf8ff775444fd70256b44e6bf3dfc3f6\n  mload(0x40)\n  mload(0x40)\n  dup1\n  swap2\n  sub\n  swap1\n  log2\n    /* \"bep-20.sol\":4590:4709  function _addMinter(address account) internal {... */\n  pop\n  jump\t// out\n    /* \"bep-20.sol\":3284:3459  function add(Role storage role, address account) internal {... */\ntag_9:\n    /* \"bep-20.sol\":3361:3379  has(role, account) */\n  tag_11\n    /* \"bep-20.sol\":3365:3369  role */\n  dup3\n    /* \"bep-20.sol\":3371:3378  account */\n  dup3\n    /* \"bep-20.sol\":3361:3364  has */\n  shl(0x20, tag_12)\n    /* \"bep-20.sol\":3361:3379  has(role, account) */\n  0x20\n  shr\n  jump\t// in\ntag_11:\n    /* \"bep-20.sol\":3360:3379  !has(role, account) */\n  iszero\n    /* \"bep-20.sol\":3352:3415  require(!has(role, account), \"Roles: account already has role\") */\n  tag_13\n  jumpi\n  mload(0x40)\n  0x08c379a000000000000000000000000000000000000000000000000000000000\n  dup2\n  mstore\n  0x04\n  add\n  dup1\n  dup1\n  0x20\n  add\n  dup3\n  dup2\n  sub\n  dup3\n  mstore\n  0x1f\n  dup2\n  mstore\n  0x20\n  add\n  dup1\n  0x526f6c65733a206163636f756e7420616c72656164792068617320726f6c6500\n  dup2\n  mstore\n  pop\n  0x20\n  add\n  swap2\n  pop\n  pop\n  mload(0x40)\n  dup1\n  swap2\n  sub\n  swap1\n  revert\ntag_13:\n    /* \"bep-20.sol\":3448:3452  true */\n  0x01\n    /* \"bep-20.sol\":3425:3429  role */\n  dup3\n    /* \"bep-20.sol\":3425:3436  role.bearer */\n  0x00\n  add\n    /* \"bep-20.sol\":3425:3445  role.bearer[account] */\n  0x00\n    /* \"bep-20.sol\":3437:3444  account */\n  dup4\n    /* \"bep-20.sol\":3425:3445  role.bearer[account] */\n  0xffffffffffffffffffffffffffffffffffffffff\n  and\n  0xffffffffffffffffffffffffffffffffffffffff\n  and\n  dup2\n  mstore\n  0x20\n  add\n  swap1\n  dup2\n  mstore\n  0x20\n  add\n  0x00\n  keccak256\n  0x00\n    /* \"bep-20.sol\":3425:3452  role.bearer[account] = true */\n  0x0100\n  exp\n  dup2\n  sload\n  dup2\n  0xff\n  mul\n  not\n  and\n  swap1\n  dup4\n  iszero\n  iszero\n  mul\n  or\n  swap1\n  sstore\n  pop\n    /* \"bep-20.sol\":3284:3459  function add(Role storage role, address account) internal {... */\n  pop\n  pop\n  jump\t// out\n    /* \"bep-20.sol\":3803:4003  function has(Role storage role, address account) internal view returns (bool) {... */\ntag_12:\n    /* \"bep-20.sol\":3875:3879  bool */\n  0x00\n    /* \"bep-20.sol\":3918:3919  0 */\n  dup1\n    /* \"bep-20.sol\":3899:3920  account != address(0) */\n  0xffffffffffffffffffffffffffffffffffffffff\n  and\n    /* \"bep-20.sol\":3899:3906  account */\n  dup3\n    /* \"bep-20.sol\":3899:3920  account != address(0) */\n  0xffffffffffffffffffffffffffffffffffffffff\n  and\n  eq\n  iszero\n    /* \"bep-20.sol\":3891:3959  require(account != address(0), \"Roles: account is the zero address\") */\n  tag_15\n  jumpi\n  mload(0x40)\n  0x08c379a000000000000000000000000000000000000000000000000000000000\n  dup2\n  mstore\n  0x04\n  add\n  dup1\n  dup1\n  0x20\n  add\n  dup3\n  dup2\n  sub\n  dup3\n  mstore\n  0x22\n  dup2\n  mstore\n  0x20\n  add\n  dup1\n  data_9d214fa89563f4e6456a3929327e54500ea1cde2c0ba9fb2035ec106190d682f\n  0x22\n  swap2\n  codecopy\n  0x40\n  add\n  swap2\n  pop\n  pop\n  mload(0x40)\n  dup1\n  swap2\n  sub\n  swap1\n  revert\ntag_15:\n    /* \"bep-20.sol\":3976:3980  role */\n  dup3\n    /* \"bep-20.sol\":3976:3987  role.bearer */\n  0x00\n  add\n    /* \"bep-20.sol\":3976:3996  role.bearer[account] */\n  0x00\n    /* \"bep-20.sol\":3988:3995  account */\n  dup4\n    /* \"bep-20.sol\":3976:3996  role.bearer[account] */\n  0xffffffffffffffffffffffffffffffffffffffff\n  and\n  0xffffffffffffffffffffffffffffffffffffffff\n  and\n  dup2\n  mstore\n  0x20\n  add\n  swap1\n  dup2\n  mstore\n  0x20\n  add\n  0x00\n  keccak256\n  0x00\n  swap1\n  sload\n  swap1\n  0x0100\n  exp\n  swap1\n  div\n  0xff\n  and\n    /* \"bep-20.sol\":3969:3996  return role.bearer[account] */\n  swap1\n  pop\n    /* \"bep-20.sol\":3803:4003  function has(Role storage role, address account) internal view returns (bool) {... */\n  swap3\n  swap2\n  pop\n  pop\n  jump\t// out\n    /* \"bep-20.sol\":4007:4844  contract MinterRole {... */\ntag_6:\n  dataSize(sub_0)\n  dup1\n  dataOffset(sub_0)\n  0x00\n  codecopy\n  0x00\n  return\nstop\ndata_9d214fa89563f4e6456a3929327e54500ea1cde2c0ba9fb2035ec106190d682f 526f6c65733a206163636f756e7420697320746865207a65726f2061646472657373\n\nsub_0: assembly {\n        /* \"bep-20.sol\":4007:4844  contract MinterRole {... */\n      mstore(0x40, 0x80)\n      callvalue\n      dup1\n      iszero\n      tag_1\n      jumpi\n      0x00\n      dup1\n      revert\n    tag_1:\n      pop\n      jumpi(tag_2, lt(calldatasize, 0x04))\n      shr(0xe0, calldataload(0x00))\n      dup1\n      0x98650275\n      eq\n      tag_3\n      jumpi\n      dup1\n      0xaa271e1a\n      eq\n      tag_4\n      jumpi\n    tag_2:\n      0x00\n      dup1\n      revert\n        /* \"bep-20.sol\":4509:4584  function renounceMinter() public {... */\n    tag_3:\n      tag_5\n      tag_6\n      jump\t// in\n    tag_5:\n      stop\n        /* \"bep-20.sol\":4396:4503  function isMinter(address account) public view returns (bool) {... */\n    tag_4:\n      tag_7\n      0x04\n      dup1\n      calldatasize\n      sub\n      0x20\n      dup2\n      lt\n      iszero\n      tag_8\n      jumpi\n      0x00\n      dup1\n      revert\n    tag_8:\n      dup2\n      add\n      swap1\n      dup1\n      dup1\n      calldataload\n      0xffffffffffffffffffffffffffffffffffffffff\n      and\n      swap1\n      0x20\n      add\n      swap1\n      swap3\n      swap2\n      swap1\n      pop\n      pop\n      pop\n      tag_9\n      jump\t// in\n    tag_7:\n      mload(0x40)\n      dup1\n      dup3\n      iszero\n      iszero\n      dup2\n      mstore\n      0x20\n      add\n      swap2\n      pop\n      pop\n      mload(0x40)\n      dup1\n      swap2\n      sub\n      swap1\n      return\n        /* \"bep-20.sol\":4509:4584  function renounceMinter() public {... */\n    tag_6:\n        /* \"bep-20.sol\":4552:4577  _removeMinter(msg.sender) */\n      tag_12\n        /* \"bep-20.sol\":4566:4576  msg.sender */\n      caller\n        /* \"bep-20.sol\":4552:4565  _removeMinter */\n      tag_13\n        /* \"bep-20.sol\":4552:4577  _removeMinter(msg.sender) */\n      jump\t// in\n    tag_12:\n        /* \"bep-20.sol\":4509:4584  function renounceMinter() public {... */\n      jump\t// out\n        /* \"bep-20.sol\":4396:4503  function isMinter(address account) public view returns (bool) {... */\n    tag_9:\n        /* \"bep-20.sol\":4452:4456  bool */\n      0x00\n        /* \"bep-20.sol\":4475:4496  _minters.has(account) */\n      tag_15\n        /* \"bep-20.sol\":4488:4495  account */\n      dup3\n        /* \"bep-20.sol\":4475:4483  _minters */\n      0x00\n        /* \"bep-20.sol\":4475:4487  _minters.has */\n      tag_16\n      swap1\n        /* \"bep-20.sol\":4475:4496  _minters.has(account) */\n      swap2\n      swap1\n      0xffffffff\n      and\n      jump\t// in\n    tag_15:\n        /* \"bep-20.sol\":4468:4496  return _minters.has(account) */\n      swap1\n      pop\n        /* \"bep-20.sol\":4396:4503  function isMinter(address account) public view returns (bool) {... */\n      swap2\n      swap1\n      pop\n      jump\t// out\n        /* \"bep-20.sol\":3284:3459  function add(Role storage role, address account) internal {... */\n    tag_10:\n        /* \"bep-20.sol\":3361:3379  has(role, account) */\n      tag_18\n        /* \"bep-20.sol\":3365:3369  role */\n      dup3\n        /* \"bep-20.sol\":3371:3378  account */\n      dup3\n        /* \"bep-20.sol\":3361:3364  has */\n      tag_16\n        /* \"bep-20.sol\":3361:3379  has(role, account) */\n      jump\t// in\n    tag_18:\n        /* \"bep-20.sol\":3360:3379  !has(role, account) */\n      iszero\n        /* \"bep-20.sol\":3352:3415  require(!has(role, account), \"Roles: account already has role\") */\n      tag_19\n      jumpi\n      mload(0x40)\n      0x08c379a000000000000000000000000000000000000000000000000000000000\n      dup2\n      mstore\n      0x04\n      add\n      dup1\n      dup1\n      0x20\n      add\n      dup3\n      dup2\n      sub\n      dup3\n      mstore\n      0x1f\n      dup2\n      mstore\n      0x20\n      add\n      dup1\n      0x526f6c65733a206163636f756e7420616c72656164792068617320726f6c6500\n      dup2\n      mstore\n      pop\n      0x20\n      add\n      swap2\n      pop\n      pop\n      mload(0x40)\n      dup1\n      swap2\n      sub\n      swap1\n      revert\n    tag_19:\n        /* \"bep-20.sol\":3448:3452  true */\n      0x01\n        /* \"bep-20.sol\":3425:3429  role */\n      dup3\n        /* \"bep-20.sol\":3425:3436  role.bearer */\n      0x00\n      add\n        /* \"bep-20.sol\":3425:3445  role.bearer[account] */\n      0x00\n        /* \"bep-20.sol\":3437:3444  account */\n      dup4\n        /* \"bep-20.sol\":3425:3445  role.bearer[account] */\n      0xffffffffffffffffffffffffffffffffffffffff\n      and\n      0xffffffffffffffffffffffffffffffffffffffff\n      and\n      dup2\n      mstore\n      0x20\n      add\n      swap1\n      dup2\n      mstore\n      0x20\n      add\n      0x00\n      keccak256\n      0x00\n        /* \"bep-20.sol\":3425:3452  role.bearer[account] = true */\n      0x0100\n      exp\n      dup2\n      sload\n      dup2\n      0xff\n      mul\n      not\n      and\n      swap1\n      dup4\n      iszero\n      iszero\n      mul\n      or\n      swap1\n      sstore\n      pop\n        /* \"bep-20.sol\":3284:3459  function add(Role storage role, address account) internal {... */\n      pop\n      pop\n      jump\t// out\n        /* \"bep-20.sol\":4715:4842  function _removeMinter(address account) internal {... */\n    tag_13:\n        /* \"bep-20.sol\":4774:4798  _minters.remove(account) */\n      tag_21\n        /* \"bep-20.sol\":4790:4797  account */\n      dup2\n        /* \"bep-20.sol\":4774:4782  _minters */\n      0x00\n        /* \"bep-20.sol\":4774:4789  _minters.remove */\n      tag_22\n      swap1\n        /* \"bep-20.sol\":4774:4798  _minters.remove(account) */\n      swap2\n      swap1\n      0xffffffff\n      and\n      jump\t// in\n    tag_21:\n        /* \"bep-20.sol\":4827:4834  account */\n      dup1\n        /* \"bep-20.sol\":4813:4835  MinterRemoved(account) */\n      0xffffffffffffffffffffffffffffffffffffffff\n      and\n      0xe94479a9f7e1952cc78f2d6baab678adc1b772d936c6583def489e524cb66692\n      mload(0x40)\n      mload(0x40)\n      dup1\n      swap2\n      sub\n      swap1\n      log2\n        /* \"bep-20.sol\":4715:4842  function _removeMinter(address account) internal {... */\n      pop\n      jump\t// out\n        /* \"bep-20.sol\":3803:4003  function has(Role storage role, address account) internal view returns (bool) {... */\n    tag_16:\n        /* \"bep-20.sol\":3875:3879  bool */\n      0x00\n        /* \"bep-20.sol\":3918:3919  0 */\n      dup1\n        /* \"bep-20.sol\":3899:3920  account != address(0) */\n      0xffffffffffffffffffffffffffffffffffffffff\n      and\n        /* \"bep-20.sol\":3899:3906  account */\n      dup3\n        /* \"bep-20.sol\":3899:3920  account != address(0) */\n      0xffffffffffffffffffffffffffffffffffffffff\n      and\n      eq\n      iszero\n        /* \"bep-20.sol\":3891:3959  require(account != address(0), \"Roles: account is the zero address\") */\n      tag_24\n      jumpi\n      mload(0x40)\n      0x08c379a000000000000000000000000000000000000000000000000000000000\n      dup2\n      mstore\n      0x04\n      add\n      dup1\n      dup1\n      0x20\n      add\n      dup3\n      dup2\n      sub\n      dup3\n      mstore\n      0x22\n      dup2\n      mstore\n      0x20\n      add\n      dup1\n      data_9d214fa89563f4e6456a3929327e54500ea1cde2c0ba9fb2035ec106190d682f\n      0x22\n      swap2\n      codecopy\n      0x40\n      add\n      swap2\n      pop\n      pop\n      mload(0x40)\n      dup1\n      swap2\n      sub\n      swap1\n      revert\n    tag_24:\n        /* \"bep-20.sol\":3976:3980  role */\n      dup3\n        /* \"bep-20.sol\":3976:3987  role.bearer */\n      0x00\n      add\n        /* \"bep-20.sol\":3976:3996  role.bearer[account] */\n      0x00\n        /* \"bep-20.sol\":3988:3995  account */\n      dup4\n        /* \"bep-20.sol\":3976:3996  role.bearer[account] */\n      0xffffffffffffffffffffffffffffffffffffffff\n      and\n      0xffffffffffffffffffffffffffffffffffffffff\n      and\n      dup2\n      mstore\n      0x20\n      add\n      swap1\n      dup2\n      mstore\n      0x20\n      add\n      0x00\n      keccak256\n      0x00\n      swap1\n      sload\n      swap1\n      0x0100\n      exp\n      swap1\n      div\n      0xff\n      and\n        /* \"bep-20.sol\":3969:3996  return role.bearer[account] */\n      swap1\n      pop\n        /* \"bep-20.sol\":3803:4003  function has(Role storage role, address account) internal view returns (bool) {... */\n      swap3\n      swap2\n      pop\n      pop\n      jump\t// out\n        /* \"bep-20.sol\":3534:3714  function remove(Role storage role, address account) internal {... */\n    tag_22:\n        /* \"bep-20.sol\":3613:3631  has(role, account) */\n      tag_26\n        /* \"bep-20.sol\":3617:3621  role */\n      dup3\n        /* \"bep-20.sol\":3623:3630  account */\n      dup3\n        /* \"bep-20.sol\":3613:3616  has */\n      tag_16\n        /* \"bep-20.sol\":3613:3631  has(role, account) */\n      jump\t// in\n    tag_26:\n        /* \"bep-20.sol\":3605:3669  require(has(role, account), \"Roles: account does not have role\") */\n      tag_27\n      jumpi\n      mload(0x40)\n      0x08c379a000000000000000000000000000000000000000000000000000000000\n      dup2\n      mstore\n      0x04\n      add\n      dup1\n      dup1\n      0x20\n      add\n      dup3\n      dup2\n      sub\n      dup3\n      mstore\n      0x21\n      dup2\n      mstore\n      0x20\n      add\n      dup1\n      data_7bd893145ac435f339bb7c288622d270324b7033b011f693aca172f5cbc3c257\n      0x21\n      swap2\n      codecopy\n      0x40\n      add\n      swap2\n      pop\n      pop\n      mload(0x40)\n      dup1\n      swap2\n      sub\n      swap1\n      revert\n    tag_27:\n        /* \"bep-20.sol\":3702:3707  false */\n      0x00\n        /* \"bep-20.sol\":3679:3683  role */\n      dup3\n        /* \"bep-20.sol\":3679:3690  role.bearer */\n      0x00\n      add\n        /* \"bep-20.sol\":3679:3699  role.bearer[account] */\n      0x00\n        /* \"bep-20.sol\":3691:3698  account */\n      dup4\n        /* \"bep-20.sol\":3679:3699  role.bearer[account] */\n      0xffffffffffffffffffffffffffffffffffffffff\n      and\n      0xffffffffffffffffffffffffffffffffffffffff\n      and\n      dup2\n      mstore\n      0x20\n      add\n      swap1\n      dup2\n      mstore\n      0x20\n      add\n      0x00\n      keccak256\n      0x00\n        /* \"bep-20.sol\":3679:3707  role.bearer[account] = false */\n      0x0100\n      exp\n      dup2\n      sload\n      dup2\n      0xff\n      mul\n      not\n      and\n      swap1\n      dup4\n      iszero\n      iszero\n      mul\n      or\n      swap1\n      sstore\n      pop\n        /* \"bep-20.sol\":3534:3714  function remove(Role storage role, address account) internal {... */\n      pop\n      pop\n      jump\t// out\n    stop\n    data_7bd893145ac435f339bb7c288622d270324b7033b011f693aca172f5cbc3c257 526f6c65733a206163636f756e7420646f6573206e6f74206861766520726f6c65\n    data_9d214fa89563f4e6456a3929327e54500ea1cde2c0ba9fb2035ec106190d682f 526f6c65733a206163636f756e7420697320746865207a65726f2061646472657373\n\n    auxdata: 0xa26469706673582212204d6d0e4f0aeaa07cab5a522cf77207fa1f72fbcc0dec1c8cb71f149d6ecf34e664736f6c63430007060033\n}\n",
				"bytecode": {
					"linkReferences": {},
					"object": "608060405234801561001057600080fd5b506100203361002560201b60201c565b610242565b61003d81600061008360201b6100c71790919060201c565b8073ffffffffffffffffffffffffffffffffffffffff167f6ae172837ea30b801fbfcdd4108aa1d5bf8ff775444fd70256b44e6bf3dfc3f660405160405180910390a250565b610093828261016460201b60201c565b15610106576040517f08c379a000000000000000000000000000000000000000000000000000000000815260040180806020018281038252601f8152602001807f526f6c65733a206163636f756e7420616c72656164792068617320726f6c650081525060200191505060405180910390fd5b60018260000160008373ffffffffffffffffffffffffffffffffffffffff1673ffffffffffffffffffffffffffffffffffffffff16815260200190815260200160002060006101000a81548160ff0219169083151502179055505050565b60008073ffffffffffffffffffffffffffffffffffffffff168273ffffffffffffffffffffffffffffffffffffffff1614156101eb576040517f08c379a00000000000000000000000000000000000000000000000000000000081526004018080602001828103825260228152602001806106616022913960400191505060405180910390fd5b8260000160008373ffffffffffffffffffffffffffffffffffffffff1673ffffffffffffffffffffffffffffffffffffffff16815260200190815260200160002060009054906101000a900460ff16905092915050565b610410806102516000396000f3fe608060405234801561001057600080fd5b50600436106100365760003560e01c8063986502751461003b578063aa271e1a14610045575b600080fd5b61004361009f565b005b6100876004803603602081101561005b57600080fd5b81019080803573ffffffffffffffffffffffffffffffffffffffff1690602001909291905050506100aa565b60405180821515815260200191505060405180910390f35b6100a8336101a2565b565b60006100c08260006101fc90919063ffffffff16565b9050919050565b6100d182826101fc565b15610144576040517f08c379a000000000000000000000000000000000000000000000000000000000815260040180806020018281038252601f8152602001807f526f6c65733a206163636f756e7420616c72656164792068617320726f6c650081525060200191505060405180910390fd5b60018260000160008373ffffffffffffffffffffffffffffffffffffffff1673ffffffffffffffffffffffffffffffffffffffff16815260200190815260200160002060006101000a81548160ff0219169083151502179055505050565b6101b68160006102da90919063ffffffff16565b8073ffffffffffffffffffffffffffffffffffffffff167fe94479a9f7e1952cc78f2d6baab678adc1b772d936c6583def489e524cb6669260405160405180910390a250565b60008073ffffffffffffffffffffffffffffffffffffffff168273ffffffffffffffffffffffffffffffffffffffff161415610283576040517f08c379a00000000000000000000000000000000000000000000000000000000081526004018080602001828103825260228152602001806103b96022913960400191505060405180910390fd5b8260000160008373ffffffffffffffffffffffffffffffffffffffff1673ffffffffffffffffffffffffffffffffffffffff16815260200190815260200160002060009054906101000a900460ff16905092915050565b6102e482826101fc565b610339576040517f08c379a00000000000000000000000000000000000000000000000000000000081526004018080602001828103825260218152602001806103986021913960400191505060405180910390fd5b60008260000160008373ffffffffffffffffffffffffffffffffffffffff1673ffffffffffffffffffffffffffffffffffffffff16815260200190815260200160002060006101000a81548160ff021916908315150217905550505056fe526f6c65733a206163636f756e7420646f6573206e6f74206861766520726f6c65526f6c65733a206163636f756e7420697320746865207a65726f2061646472657373a26469706673582212204d6d0e4f0aeaa07cab5a522cf77207fa1f72fbcc0dec1c8cb71f149d6ecf34e664736f6c63430007060033526f6c65733a206163636f756e7420697320746865207a65726f2061646472657373",
					"opcodes": "PUSH1 0x80 PUSH1 0x40 MSTORE CALLVALUE DUP1 ISZERO PUSH2 0x10 JUMPI PUSH1 0x0 DUP1 REVERT JUMPDEST POP PUSH2 0x20 CALLER PUSH2 0x25 PUSH1 0x20 SHL PUSH1 0x20 SHR JUMP JUMPDEST PUSH2 0x242 JUMP JUMPDEST PUSH2 0x3D DUP2 PUSH1 0x0 PUSH2 0x83 PUSH1 0x20 SHL PUSH2 0xC7 OR SWAP1 SWAP2 SWAP1 PUSH1 0x20 SHR JUMP JUMPDEST DUP1 PUSH20 0xFFFFFFFFFFFFFFFFFFFFFFFFFFFFFFFFFFFFFFFF AND PUSH32 0x6AE172837EA30B801FBFCDD4108AA1D5BF8FF775444FD70256B44E6BF3DFC3F6 PUSH1 0x40 MLOAD PUSH1 0x40 MLOAD DUP1 SWAP2 SUB SWAP1 LOG2 POP JUMP JUMPDEST PUSH2 0x93 DUP3 DUP3 PUSH2 0x164 PUSH1 0x20 SHL PUSH1 0x20 SHR JUMP JUMPDEST ISZERO PUSH2 0x106 JUMPI PUSH1 0x40 MLOAD PUSH32 0x8C379A000000000000000000000000000000000000000000000000000000000 DUP2 MSTORE PUSH1 0x4 ADD DUP1 DUP1 PUSH1 0x20 ADD DUP3 DUP2 SUB DUP3 MSTORE PUSH1 0x1F DUP2 MSTORE PUSH1 0x20 ADD DUP1 PUSH32 0x526F6C65733A206163636F756E7420616C72656164792068617320726F6C6500 DUP2 MSTORE POP PUSH1 0x20 ADD SWAP2 POP POP PUSH1 0x40 MLOAD DUP1 SWAP2 SUB SWAP1 REVERT JUMPDEST PUSH1 0x1 DUP3 PUSH1 0x0 ADD PUSH1 0x0 DUP4 PUSH20 0xFFFFFFFFFFFFFFFFFFFFFFFFFFFFFFFFFFFFFFFF AND PUSH20 0xFFFFFFFFFFFFFFFFFFFFFFFFFFFFFFFFFFFFFFFF AND DUP2 MSTORE PUSH1 0x20 ADD SWAP1 DUP2 MSTORE PUSH1 0x20 ADD PUSH1 0x0 KECCAK256 PUSH1 0x0 PUSH2 0x100 EXP DUP2 SLOAD DUP2 PUSH1 0xFF MUL NOT AND SWAP1 DUP4 ISZERO ISZERO MUL OR SWAP1 SSTORE POP POP POP JUMP JUMPDEST PUSH1 0x0 DUP1 PUSH20 0xFFFFFFFFFFFFFFFFFFFFFFFFFFFFFFFFFFFFFFFF AND DUP3 PUSH20 0xFFFFFFFFFFFFFFFFFFFFFFFFFFFFFFFFFFFFFFFF AND EQ ISZERO PUSH2 0x1EB JUMPI PUSH1 0x40 MLOAD PUSH32 0x8C379A000000000000000000000000000000000000000000000000000000000 DUP2 MSTORE PUSH1 0x4 ADD DUP1 DUP1 PUSH1 0x20 ADD DUP3 DUP2 SUB DUP3 MSTORE PUSH1 0x22 DUP2 MSTORE PUSH1 0x20 ADD DUP1 PUSH2 0x661 PUSH1 0x22 SWAP2 CODECOPY PUSH1 0x40 ADD SWAP2 POP POP PUSH1 0x40 MLOAD DUP1 SWAP2 SUB SWAP1 REVERT JUMPDEST DUP3 PUSH1 0x0 ADD PUSH1 0x0 DUP4 PUSH20 0xFFFFFFFFFFFFFFFFFFFFFFFFFFFFFFFFFFFFFFFF AND PUSH20 0xFFFFFFFFFFFFFFFFFFFFFFFFFFFFFFFFFFFFFFFF AND DUP2 MSTORE PUSH1 0x20 ADD SWAP1 DUP2 MSTORE PUSH1 0x20 ADD PUSH1 0x0 KECCAK256 PUSH1 0x0 SWAP1 SLOAD SWAP1 PUSH2 0x100 EXP SWAP1 DIV PUSH1 0xFF AND SWAP1 POP SWAP3 SWAP2 POP POP JUMP JUMPDEST PUSH2 0x410 DUP1 PUSH2 0x251 PUSH1 0x0 CODECOPY PUSH1 0x0 RETURN INVALID PUSH1 0x80 PUSH1 0x40 MSTORE CALLVALUE DUP1 ISZERO PUSH2 0x10 JUMPI PUSH1 0x0 DUP1 REVERT JUMPDEST POP PUSH1 0x4 CALLDATASIZE LT PUSH2 0x36 JUMPI PUSH1 0x0 CALLDATALOAD PUSH1 0xE0 SHR DUP1 PUSH4 0x98650275 EQ PUSH2 0x3B JUMPI DUP1 PUSH4 0xAA271E1A EQ PUSH2 0x45 JUMPI JUMPDEST PUSH1 0x0 DUP1 REVERT JUMPDEST PUSH2 0x43 PUSH2 0x9F JUMP JUMPDEST STOP JUMPDEST PUSH2 0x87 PUSH1 0x4 DUP1 CALLDATASIZE SUB PUSH1 0x20 DUP2 LT ISZERO PUSH2 0x5B JUMPI PUSH1 0x0 DUP1 REVERT JUMPDEST DUP2 ADD SWAP1 DUP1 DUP1 CALLDATALOAD PUSH20 0xFFFFFFFFFFFFFFFFFFFFFFFFFFFFFFFFFFFFFFFF AND SWAP1 PUSH1 0x20 ADD SWAP1 SWAP3 SWAP2 SWAP1 POP POP POP PUSH2 0xAA JUMP JUMPDEST PUSH1 0x40 MLOAD DUP1 DUP3 ISZERO ISZERO DUP2 MSTORE PUSH1 0x20 ADD SWAP2 POP POP PUSH1 0x40 MLOAD DUP1 SWAP2 SUB SWAP1 RETURN JUMPDEST PUSH2 0xA8 CALLER PUSH2 0x1A2 JUMP JUMPDEST JUMP JUMPDEST PUSH1 0x0 PUSH2 0xC0 DUP3 PUSH1 0x0 PUSH2 0x1FC SWAP1 SWAP2 SWAP1 PUSH4 0xFFFFFFFF AND JUMP JUMPDEST SWAP1 POP SWAP2 SWAP1 POP JUMP JUMPDEST PUSH2 0xD1 DUP3 DUP3 PUSH2 0x1FC JUMP JUMPDEST ISZERO PUSH2 0x144 JUMPI PUSH1 0x40 MLOAD PUSH32 0x8C379A000000000000000000000000000000000000000000000000000000000 DUP2 MSTORE PUSH1 0x4 ADD DUP1 DUP1 PUSH1 0x20 ADD DUP3 DUP2 SUB DUP3 MSTORE PUSH1 0x1F DUP2 MSTORE PUSH1 0x20 ADD DUP1 PUSH32 0x526F6C65733A206163636F756E7420616C72656164792068617320726F6C6500 DUP2 MSTORE POP PUSH1 0x20 ADD SWAP2 POP POP PUSH1 0x40 MLOAD DUP1 SWAP2 SUB SWAP1 REVERT JUMPDEST PUSH1 0x1 DUP3 PUSH1 0x0 ADD PUSH1 0x0 DUP4 PUSH20 0xFFFFFFFFFFFFFFFFFFFFFFFFFFFFFFFFFFFFFFFF AND PUSH20 0xFFFFFFFFFFFFFFFFFFFFFFFFFFFFFFFFFFFFFFFF AND DUP2 MSTORE PUSH1 0x20 ADD SWAP1 DUP2 MSTORE PUSH1 0x20 ADD PUSH1 0x0 KECCAK256 PUSH1 0x0 PUSH2 0x100 EXP DUP2 SLOAD DUP2 PUSH1 0xFF MUL NOT AND SWAP1 DUP4 ISZERO ISZERO MUL OR SWAP1 SSTORE POP POP POP JUMP JUMPDEST PUSH2 0x1B6 DUP2 PUSH1 0x0 PUSH2 0x2DA SWAP1 SWAP2 SWAP1 PUSH4 0xFFFFFFFF AND JUMP JUMPDEST DUP1 PUSH20 0xFFFFFFFFFFFFFFFFFFFFFFFFFFFFFFFFFFFFFFFF AND PUSH32 0xE94479A9F7E1952CC78F2D6BAAB678ADC1B772D936C6583DEF489E524CB66692 PUSH1 0x40 MLOAD PUSH1 0x40 MLOAD DUP1 SWAP2 SUB SWAP1 LOG2 POP JUMP JUMPDEST PUSH1 0x0 DUP1 PUSH20 0xFFFFFFFFFFFFFFFFFFFFFFFFFFFFFFFFFFFFFFFF AND DUP3 PUSH20 0xFFFFFFFFFFFFFFFFFFFFFFFFFFFFFFFFFFFFFFFF AND EQ ISZERO PUSH2 0x283 JUMPI PUSH1 0x40 MLOAD PUSH32 0x8C379A000000000000000000000000000000000000000000000000000000000 DUP2 MSTORE PUSH1 0x4 ADD DUP1 DUP1 PUSH1 0x20 ADD DUP3 DUP2 SUB DUP3 MSTORE PUSH1 0x22 DUP2 MSTORE PUSH1 0x20 ADD DUP1 PUSH2 0x3B9 PUSH1 0x22 SWAP2 CODECOPY PUSH1 0x40 ADD SWAP2 POP POP PUSH1 0x40 MLOAD DUP1 SWAP2 SUB SWAP1 REVERT JUMPDEST DUP3 PUSH1 0x0 ADD PUSH1 0x0 DUP4 PUSH20 0xFFFFFFFFFFFFFFFFFFFFFFFFFFFFFFFFFFFFFFFF AND PUSH20 0xFFFFFFFFFFFFFFFFFFFFFFFFFFFFFFFFFFFFFFFF AND DUP2 MSTORE PUSH1 0x20 ADD SWAP1 DUP2 MSTORE PUSH1 0x20 ADD PUSH1 0x0 KECCAK256 PUSH1 0x0 SWAP1 SLOAD SWAP1 PUSH2 0x100 EXP SWAP1 DIV PUSH1 0xFF AND SWAP1 POP SWAP3 SWAP2 POP POP JUMP JUMPDEST PUSH2 0x2E4 DUP3 DUP3 PUSH2 0x1FC JUMP JUMPDEST PUSH2 0x339 JUMPI PUSH1 0x40 MLOAD PUSH32 0x8C379A000000000000000000000000000000000000000000000000000000000 DUP2 MSTORE PUSH1 0x4 ADD DUP1 DUP1 PUSH1 0x20 ADD DUP3 DUP2 SUB DUP3 MSTORE PUSH1 0x21 DUP2 MSTORE PUSH1 0x20 ADD DUP1 PUSH2 0x398 PUSH1 0x21 SWAP2 CODECOPY PUSH1 0x40 ADD SWAP2 POP POP PUSH1 0x40 MLOAD DUP1 SWAP2 SUB SWAP1 REVERT JUMPDEST PUSH1 0x0 DUP3 PUSH1 0x0 ADD PUSH1 0x0 DUP4 PUSH20 0xFFFFFFFFFFFFFFFFFFFFFFFFFFFFFFFFFFFFFFFF AND PUSH20 0xFFFFFFFFFFFFFFFFFFFFFFFFFFFFFFFFFFFFFFFF AND DUP2 MSTORE PUSH1 0x20 ADD SWAP1 DUP2 MSTORE PUSH1 0x20 ADD PUSH1 0x0 KECCAK256 PUSH1 0x0 PUSH2 0x100 EXP DUP2 SLOAD DUP2 PUSH1 0xFF MUL NOT AND SWAP1 DUP4 ISZERO ISZERO MUL OR SWAP1 SSTORE POP POP POP JUMP INVALID MSTORE PUSH16 0x6C65733A206163636F756E7420646F65 PUSH20 0x206E6F74206861766520726F6C65526F6C65733A KECCAK256 PUSH2 0x6363 PUSH16 0x756E7420697320746865207A65726F20 PUSH2 0x6464 PUSH19 0x657373A26469706673582212204D6D0E4F0AEA LOG0 PUSH29 0xAB5A522CF77207FA1F72FBCC0DEC1C8CB71F149D6ECF34E664736F6C63 NUMBER STOP SMOD MOD STOP CALLER MSTORE PUSH16 0x6C65733A206163636F756E7420697320 PUSH21 0x6865207A65726F2061646472657373000000000000 "
				},
				"gasEstimates": {
					"creation": {
						"codeDepositCost": "208000",
						"executionCost": "infinite",
						"totalCost": "infinite"
					},
					"external": {
						"isMinter(address)": "infinite",
						"renounceMinter()": "infinite"
					},
					"internal": {
						"_addMinter(address)": "infinite",
						"_removeMinter(address)": "infinite"
					}
				},
				"methodIdentifiers": {
					"isMinter(address)": "aa271e1a",
					"renounceMinter()": "98650275"
				}
			},
			"storageLayout": {
				"storage": [
					{
						"astId": 524,
						"contract": "bep-20.sol:MinterRole",
						"label": "_minters",
						"offset": 0,
						"slot": "0",
						"type": "t_struct(Role)433_storage"
					}
				],
				"types": {
					"t_address": {
						"encoding": "inplace",
						"label": "address",
						"numberOfBytes": "20"
					},
					"t_bool": {
						"encoding": "inplace",
						"label": "bool",
						"numberOfBytes": "1"
					},
					"t_mapping(t_address,t_bool)": {
						"encoding": "mapping",
						"key": "t_address",
						"label": "mapping(address => bool)",
						"numberOfBytes": "32",
						"value": "t_bool"
					},
					"t_struct(Role)433_storage": {
						"encoding": "inplace",
						"label": "struct Roles.Role",
						"members": [
							{
								"astId": 432,
								"contract": "bep-20.sol:MinterRole",
								"label": "bearer",
								"offset": 0,
								"slot": "0",
								"type": "t_mapping(t_address,t_bool)"
							}
						],
						"numberOfBytes": "32"
					}
				}
			},
			"userdoc": {
				"kind": "user",
				"methods": {},
				"version": 1
			}
		}
	}
}