{
	"lost-20.sol": {
		"HelloBEP20": {
			"abi": [
				{
					"inputs": [
						{
							"internalType": "string",
							"name": "name_",
							"type": "string"
						},
						{
							"internalType": "string",
							"name": "symbol_",
							"type": "string"
						},
						{
							"internalType": "address payable",
							"name": "feeReceiver_",
							"type": "address"
						}
					],
					"stateMutability": "payable",
					"type": "constructor"
				},
				{
					"anonymous": false,
					"inputs": [
						{
							"indexed": true,
							"internalType": "address",
							"name": "owner",
							"type": "address"
						},
						{
							"indexed": true,
							"internalType": "address",
							"name": "spender",
							"type": "address"
						},
						{
							"indexed": false,
							"internalType": "uint256",
							"name": "value",
							"type": "uint256"
						}
					],
					"name": "Approval",
					"type": "event"
				},
				{
					"anonymous": false,
					"inputs": [
						{
							"indexed": true,
							"internalType": "address",
							"name": "previousOwner",
							"type": "address"
						},
						{
							"indexed": true,
							"internalType": "address",
							"name": "newOwner",
							"type": "address"
						}
					],
					"name": "OwnershipTransferred",
					"type": "event"
				},
				{
					"anonymous": false,
					"inputs": [
						{
							"indexed": true,
							"internalType": "address",
							"name": "from",
							"type": "address"
						},
						{
							"indexed": true,
							"internalType": "address",
							"name": "to",
							"type": "address"
						},
						{
							"indexed": false,
							"internalType": "uint256",
							"name": "value",
							"type": "uint256"
						}
					],
					"name": "Transfer",
					"type": "event"
				},
				{
					"inputs": [
						{
							"internalType": "address",
							"name": "owner",
							"type": "address"
						},
						{
							"internalType": "address",
							"name": "spender",
							"type": "address"
						}
					],
					"name": "allowance",
					"outputs": [
						{
							"internalType": "uint256",
							"name": "",
							"type": "uint256"
						}
					],
					"stateMutability": "view",
					"type": "function"
				},
				{
					"inputs": [
						{
							"internalType": "address",
							"name": "spender",
							"type": "address"
						},
						{
							"internalType": "uint256",
							"name": "amount",
							"type": "uint256"
						}
					],
					"name": "approve",
					"outputs": [
						{
							"internalType": "bool",
							"name": "",
							"type": "bool"
						}
					],
					"stateMutability": "nonpayable",
					"type": "function"
				},
				{
					"inputs": [
						{
							"internalType": "address",
							"name": "account",
							"type": "address"
						}
					],
					"name": "balanceOf",
					"outputs": [
						{
							"internalType": "uint256",
							"name": "",
							"type": "uint256"
						}
					],
					"stateMutability": "view",
					"type": "function"
				},
				{
					"inputs": [],
					"name": "decimals",
					"outputs": [
						{
							"internalType": "uint8",
							"name": "",
							"type": "uint8"
						}
					],
					"stateMutability": "view",
					"type": "function"
				},
				{
					"inputs": [
						{
							"internalType": "address",
							"name": "spender",
							"type": "address"
						},
						{
							"internalType": "uint256",
							"name": "subtractedValue",
							"type": "uint256"
						}
					],
					"name": "decreaseAllowance",
					"outputs": [
						{
							"internalType": "bool",
							"name": "",
							"type": "bool"
						}
					],
					"stateMutability": "nonpayable",
					"type": "function"
				},
				{
					"inputs": [],
					"name": "generator",
					"outputs": [
						{
							"internalType": "string",
							"name": "",
							"type": "string"
						}
					],
					"stateMutability": "pure",
					"type": "function"
				},
				{
					"inputs": [],
					"name": "getOwner",
					"outputs": [
						{
							"internalType": "address",
							"name": "",
							"type": "address"
						}
					],
					"stateMutability": "view",
					"type": "function"
				},
				{
					"inputs": [
						{
							"internalType": "address",
							"name": "spender",
							"type": "address"
						},
						{
							"internalType": "uint256",
							"name": "addedValue",
							"type": "uint256"
						}
					],
					"name": "increaseAllowance",
					"outputs": [
						{
							"internalType": "bool",
							"name": "",
							"type": "bool"
						}
					],
					"stateMutability": "nonpayable",
					"type": "function"
				},
				{
					"inputs": [],
					"name": "name",
					"outputs": [
						{
							"internalType": "string",
							"name": "",
							"type": "string"
						}
					],
					"stateMutability": "view",
					"type": "function"
				},
				{
					"inputs": [],
					"name": "owner",
					"outputs": [
						{
							"internalType": "address",
							"name": "",
							"type": "address"
						}
					],
					"stateMutability": "view",
					"type": "function"
				},
				{
					"inputs": [],
					"name": "renounceOwnership",
					"outputs": [],
					"stateMutability": "nonpayable",
					"type": "function"
				},
				{
					"inputs": [],
					"name": "symbol",
					"outputs": [
						{
							"internalType": "string",
							"name": "",
							"type": "string"
						}
					],
					"stateMutability": "view",
					"type": "function"
				},
				{
					"inputs": [],
					"name": "totalSupply",
					"outputs": [
						{
							"internalType": "uint256",
							"name": "",
							"type": "uint256"
						}
					],
					"stateMutability": "view",
					"type": "function"
				},
				{
					"inputs": [
						{
							"internalType": "address",
							"name": "recipient",
							"type": "address"
						},
						{
							"internalType": "uint256",
							"name": "amount",
							"type": "uint256"
						}
					],
					"name": "transfer",
					"outputs": [
						{
							"internalType": "bool",
							"name": "",
							"type": "bool"
						}
					],
					"stateMutability": "nonpayable",
					"type": "function"
				},
				{
					"inputs": [
						{
							"internalType": "address",
							"name": "sender",
							"type": "address"
						},
						{
							"internalType": "address",
							"name": "recipient",
							"type": "address"
						},
						{
							"internalType": "uint256",
							"name": "amount",
							"type": "uint256"
						}
					],
					"name": "transferFrom",
					"outputs": [
						{
							"internalType": "bool",
							"name": "",
							"type": "bool"
						}
					],
					"stateMutability": "nonpayable",
					"type": "function"
				},
				{
					"inputs": [
						{
							"internalType": "address",
							"name": "newOwner",
							"type": "address"
						}
					],
					"name": "transferOwnership",
					"outputs": [],
					"stateMutability": "nonpayable",
					"type": "function"
				},
				{
					"inputs": [],
					"name": "version",
					"outputs": [
						{
							"internalType": "string",
							"name": "",
							"type": "string"
						}
					],
					"stateMutability": "view",
					"type": "function"
				}
			],
			"devdoc": {
				"author": "BEP20 Generator (https://vittominacori.github.io/bep20-generator)",
				"details": "Implementation of the HelloBEP20",
				"kind": "dev",
				"methods": {
					"allowance(address,address)": {
						"details": "See {IBEP20-allowance}."
					},
					"approve(address,uint256)": {
						"details": "See {IBEP20-approve}. Requirements: - `spender` cannot be the zero address."
					},
					"balanceOf(address)": {
						"details": "See {IBEP20-balanceOf}."
					},
					"decimals()": {
						"details": "Returns the number of decimals used to get its user representation. For example, if `decimals` equals `2`, a balance of `505` tokens should be displayed to a user as `5,05` (`505 / 10 ** 2`). Tokens usually opt for a value of 18, imitating the relationship between Ether and Wei. This is the value {BEP20} uses, unless {_setupDecimals} is called. NOTE: This information is only used for _display_ purposes: it in no way affects any of the arithmetic of the contract, including {IBEP20-balanceOf} and {IBEP20-transfer}."
					},
					"decreaseAllowance(address,uint256)": {
						"details": "Atomically decreases the allowance granted to `spender` by the caller. This is an alternative to {approve} that can be used as a mitigation for problems described in {IBEP20-approve}. Emits an {Approval} event indicating the updated allowance. Requirements: - `spender` cannot be the zero address. - `spender` must have allowance for the caller of at least `subtractedValue`."
					},
					"generator()": {
						"details": "Returns the token generator tool."
					},
					"getOwner()": {
						"details": "See {IBEP20-getOwner}."
					},
					"increaseAllowance(address,uint256)": {
						"details": "Atomically increases the allowance granted to `spender` by the caller. This is an alternative to {approve} that can be used as a mitigation for problems described in {IBEP20-approve}. Emits an {Approval} event indicating the updated allowance. Requirements: - `spender` cannot be the zero address."
					},
					"name()": {
						"details": "Returns the name of the token."
					},
					"owner()": {
						"details": "Returns the address of the current owner."
					},
					"renounceOwnership()": {
						"details": "Leaves the contract without owner. It will not be possible to call `onlyOwner` functions anymore. Can only be called by the current owner. NOTE: Renouncing ownership will leave the contract without an owner, thereby removing any functionality that is only available to the owner."
					},
					"symbol()": {
						"details": "Returns the symbol of the token, usually a shorter version of the name."
					},
					"totalSupply()": {
						"details": "See {IBEP20-totalSupply}."
					},
					"transfer(address,uint256)": {
						"details": "See {IBEP20-transfer}. Requirements: - `recipient` cannot be the zero address. - the caller must have a balance of at least `amount`."
					},
					"transferFrom(address,address,uint256)": {
						"details": "See {IBEP20-transferFrom}. Emits an {Approval} event indicating the updated allowance. This is not required by the EIP. See the note at the beginning of {BEP20}. Requirements: - `sender` and `recipient` cannot be the zero address. - `sender` must have a balance of at least `amount`. - the caller must have allowance for ``sender``'s tokens of at least `amount`."
					},
					"transferOwnership(address)": {
						"details": "Transfers ownership of the contract to a new account (`newOwner`). Can only be called by the current owner."
					},
					"version()": {
						"details": "Returns the token generator version."
					}
				},
				"title": "HelloBEP20",
				"version": 1
			},
			"evm": {
				"assembly": "    /* \"lost-20.sol\":19905:20219  contract HelloBEP20 is BEP20, ServicePayer, GeneratorCopyright(\"v3.0.0\") {... */\n  mstore(0x40, 0x80)\n    /* \"lost-20.sol\":19984:20217  constructor(... */\n  mload(0x40)\n  sub(codesize, bytecodeSize)\n  dup1\n  bytecodeSize\n  dup4\n  codecopy\n  dup2\n  dup2\n  add\n  0x40\n  mstore\n  dup2\n  add\n  swap1\n  tag_1\n  swap2\n  swap1\n  tag_2\n  jump\t// in\ntag_1:\n    /* \"lost-20.sol\":19288:19360  constructor(string memory version_) {... */\n  mload(0x40)\n  dup1\n  0x40\n  add\n  0x40\n  mstore\n  dup1\n  0x06\n  dup2\n  mstore\n  0x20\n  add\n  0x76332e302e300000000000000000000000000000000000000000000000000000\n  dup2\n  mstore\n  pop\n    /* \"lost-20.sol\":20143:20155  feeReceiver_ */\n  dup2\n    /* \"lost-20.sol\":18774:18917  constructor(address payable receiver, string memory serviceName) payable {... */\n  mload(0x40)\n  dup1\n  0x40\n  add\n  0x40\n  mstore\n  dup1\n  0x0a\n  dup2\n  mstore\n  0x20\n  add\n  0x48656c6c6f424550323000000000000000000000000000000000000000000000\n  dup2\n  mstore\n  pop\n    /* \"lost-20.sol\":20114:20119  name_ */\n  dup6\n    /* \"lost-20.sol\":20121:20128  symbol_ */\n  dup6\n    /* \"lost-20.sol\":2876:2908  _transferOwnership(_msgSender()) */\n  tag_9\n    /* \"lost-20.sol\":2895:2907  _msgSender() */\n  tag_10\n    /* \"lost-20.sol\":2895:2905  _msgSender */\n  shl(0x20, tag_11)\n    /* \"lost-20.sol\":2895:2907  _msgSender() */\n  0x20\n  shr\n  jump\t// in\ntag_10:\n    /* \"lost-20.sol\":2876:2894  _transferOwnership */\n  shl(0x20, tag_12)\n    /* \"lost-20.sol\":2876:2908  _transferOwnership(_msgSender()) */\n  0x20\n  shr\n  jump\t// in\ntag_9:\n    /* \"lost-20.sol\":9271:9276  name_ */\n  dup2\n    /* \"lost-20.sol\":9263:9268  _name */\n  0x04\n    /* \"lost-20.sol\":9263:9276  _name = name_ */\n  swap1\n  dup1\n  mload\n  swap1\n  0x20\n  add\n  swap1\n  tag_14\n  swap3\n  swap2\n  swap1\n  tag_15\n  jump\t// in\ntag_14:\n  pop\n    /* \"lost-20.sol\":9296:9303  symbol_ */\n  dup1\n    /* \"lost-20.sol\":9286:9293  _symbol */\n  0x05\n    /* \"lost-20.sol\":9286:9303  _symbol = symbol_ */\n  swap1\n  dup1\n  mload\n  swap1\n  0x20\n  add\n  swap1\n  tag_16\n  swap3\n  swap2\n  swap1\n  tag_15\n  jump\t// in\ntag_16:\n  pop\n    /* \"lost-20.sol\":9325:9327  18 */\n  0x12\n    /* \"lost-20.sol\":9313:9322  _decimals */\n  0x06\n  0x00\n    /* \"lost-20.sol\":9313:9327  _decimals = 18 */\n  0x0100\n  exp\n  dup2\n  sload\n  dup2\n  0xff\n  mul\n  not\n  and\n  swap1\n  dup4\n  0xff\n  and\n  mul\n  or\n  swap1\n  sstore\n  pop\n    /* \"lost-20.sol\":9197:9334  constructor(string memory name_, string memory symbol_) {... */\n  pop\n  pop\n    /* \"lost-20.sol\":18866:18874  receiver */\n  dup2\n    /* \"lost-20.sol\":18857:18879  IPayable(receiver).pay */\n  0xffffffffffffffffffffffffffffffffffffffff\n  and\n  0x2b66d72e\n    /* \"lost-20.sol\":18887:18896  msg.value */\n  callvalue\n    /* \"lost-20.sol\":18898:18909  serviceName */\n  dup4\n    /* \"lost-20.sol\":18857:18910  IPayable(receiver).pay{value: msg.value}(serviceName) */\n  mload(0x40)\n  dup4\n  0xffffffff\n  and\n  0xe0\n  shl\n  dup2\n  mstore\n  0x04\n  add\n  tag_18\n  swap2\n  swap1\n  tag_19\n  jump\t// in\ntag_18:\n  0x00\n  mload(0x40)\n  dup1\n  dup4\n  sub\n  dup2\n  dup6\n  dup9\n  dup1\n  extcodesize\n  iszero\n  dup1\n  iszero\n  tag_20\n  jumpi\n  0x00\n  dup1\n  revert\ntag_20:\n  pop\n  gas\n  call\n  iszero\n  dup1\n  iszero\n  tag_22\n  jumpi\n  returndatasize\n  0x00\n  dup1\n  returndatacopy\n  revert(0x00, returndatasize)\ntag_22:\n  pop\n  pop\n  pop\n  pop\n  pop\n    /* \"lost-20.sol\":18774:18917  constructor(address payable receiver, string memory serviceName) payable {... */\n  pop\n  pop\n    /* \"lost-20.sol\":19345:19353  version_ */\n  dup1\n    /* \"lost-20.sol\":19334:19342  _version */\n  0x07\n    /* \"lost-20.sol\":19334:19353  _version = version_ */\n  swap1\n  dup1\n  mload\n  swap1\n  0x20\n  add\n  swap1\n  tag_24\n  swap3\n  swap2\n  swap1\n  tag_15\n  jump\t// in\ntag_24:\n  pop\n    /* \"lost-20.sol\":19288:19360  constructor(string memory version_) {... */\n  pop\n    /* \"lost-20.sol\":20181:20210  _mint(_msgSender(), 10000e18) */\n  tag_26\n    /* \"lost-20.sol\":20187:20199  _msgSender() */\n  tag_27\n    /* \"lost-20.sol\":20187:20197  _msgSender */\n  shl(0x20, tag_11)\n    /* \"lost-20.sol\":20187:20199  _msgSender() */\n  0x20\n  shr\n  jump\t// in\ntag_27:\n    /* \"lost-20.sol\":20201:20209  10000e18 */\n  0x021e19e0c9bab2400000\n    /* \"lost-20.sol\":20181:20186  _mint */\n  shl(0x20, tag_28)\n    /* \"lost-20.sol\":20181:20210  _mint(_msgSender(), 10000e18) */\n  0x20\n  shr\n  jump\t// in\ntag_26:\n    /* \"lost-20.sol\":19984:20217  constructor(... */\n  pop\n  pop\n  pop\n    /* \"lost-20.sol\":19905:20219  contract HelloBEP20 is BEP20, ServicePayer, GeneratorCopyright(\"v3.0.0\") {... */\n  jump(tag_29)\n    /* \"lost-20.sol\":1759:1855  function _msgSender() internal view virtual returns (address) {... */\ntag_11:\n    /* \"lost-20.sol\":1812:1819  address */\n  0x00\n    /* \"lost-20.sol\":1838:1848  msg.sender */\n  caller\n    /* \"lost-20.sol\":1831:1848  return msg.sender */\n  swap1\n  pop\n    /* \"lost-20.sol\":1759:1855  function _msgSender() internal view virtual returns (address) {... */\n  swap1\n  jump\t// out\n    /* \"lost-20.sol\":4225:4412  function _transferOwnership(address newOwner) internal virtual {... */\ntag_12:\n    /* \"lost-20.sol\":4298:4314  address oldOwner */\n  0x00\n    /* \"lost-20.sol\":4317:4323  _owner */\n  dup1\n  0x00\n  swap1\n  sload\n  swap1\n  0x0100\n  exp\n  swap1\n  div\n  0xffffffffffffffffffffffffffffffffffffffff\n  and\n    /* \"lost-20.sol\":4298:4323  address oldOwner = _owner */\n  swap1\n  pop\n    /* \"lost-20.sol\":4342:4350  newOwner */\n  dup2\n    /* \"lost-20.sol\":4333:4339  _owner */\n  0x00\n  dup1\n    /* \"lost-20.sol\":4333:4350  _owner = newOwner */\n  0x0100\n  exp\n  dup2\n  sload\n  dup2\n  0xffffffffffffffffffffffffffffffffffffffff\n  mul\n  not\n  and\n  swap1\n  dup4\n  0xffffffffffffffffffffffffffffffffffffffff\n  and\n  mul\n  or\n  swap1\n  sstore\n  pop\n    /* \"lost-20.sol\":4396:4404  newOwner */\n  dup2\n    /* \"lost-20.sol\":4365:4405  OwnershipTransferred(oldOwner, newOwner) */\n  0xffffffffffffffffffffffffffffffffffffffff\n  and\n    /* \"lost-20.sol\":4386:4394  oldOwner */\n  dup2\n    /* \"lost-20.sol\":4365:4405  OwnershipTransferred(oldOwner, newOwner) */\n  0xffffffffffffffffffffffffffffffffffffffff\n  and\n  0x8be0079c531659141344cd1fd0a4f28419497f9722a3daafe3b4186f6b6457e0\n  mload(0x40)\n  mload(0x40)\n  dup1\n  swap2\n  sub\n  swap1\n  log3\n    /* \"lost-20.sol\":4288:4412  {... */\n  pop\n    /* \"lost-20.sol\":4225:4412  function _transferOwnership(address newOwner) internal virtual {... */\n  pop\n  jump\t// out\n    /* \"lost-20.sol\":15566:15896  function _mint(address account, uint256 amount) internal virtual {... */\ntag_28:\n    /* \"lost-20.sol\":15668:15669  0 */\n  0x00\n    /* \"lost-20.sol\":15649:15670  account != address(0) */\n  0xffffffffffffffffffffffffffffffffffffffff\n  and\n    /* \"lost-20.sol\":15649:15656  account */\n  dup3\n    /* \"lost-20.sol\":15649:15670  account != address(0) */\n  0xffffffffffffffffffffffffffffffffffffffff\n  and\n  eq\n  iszero\n    /* \"lost-20.sol\":15641:15706  require(account != address(0), \"BEP20: mint to the zero address\") */\n  tag_33\n  jumpi\n  mload(0x40)\n  0x08c379a000000000000000000000000000000000000000000000000000000000\n  dup2\n  mstore\n  0x04\n  add\n  tag_34\n  swap1\n  tag_35\n  jump\t// in\ntag_34:\n  mload(0x40)\n  dup1\n  swap2\n  sub\n  swap1\n  revert\ntag_33:\n    /* \"lost-20.sol\":15717:15766  _beforeTokenTransfer(address(0), account, amount) */\n  tag_36\n    /* \"lost-20.sol\":15746:15747  0 */\n  0x00\n    /* \"lost-20.sol\":15750:15757  account */\n  dup4\n    /* \"lost-20.sol\":15759:15765  amount */\n  dup4\n    /* \"lost-20.sol\":15717:15737  _beforeTokenTransfer */\n  shl(0x20, tag_37)\n    /* \"lost-20.sol\":15717:15766  _beforeTokenTransfer(address(0), account, amount) */\n  0x20\n  shr\n  jump\t// in\ntag_36:\n    /* \"lost-20.sol\":15793:15799  amount */\n  dup1\n    /* \"lost-20.sol\":15777:15789  _totalSupply */\n  0x03\n  0x00\n    /* \"lost-20.sol\":15777:15799  _totalSupply += amount */\n  dup3\n  dup3\n  sload\n  tag_38\n  swap2\n  swap1\n  tag_39\n  jump\t// in\ntag_38:\n  swap3\n  pop\n  pop\n  dup2\n  swap1\n  sstore\n  pop\n    /* \"lost-20.sol\":15831:15837  amount */\n  dup1\n    /* \"lost-20.sol\":15809:15818  _balances */\n  0x01\n    /* \"lost-20.sol\":15809:15827  _balances[account] */\n  0x00\n    /* \"lost-20.sol\":15819:15826  account */\n  dup5\n    /* \"lost-20.sol\":15809:15827  _balances[account] */\n  0xffffffffffffffffffffffffffffffffffffffff\n  and\n  0xffffffffffffffffffffffffffffffffffffffff\n  and\n  dup2\n  mstore\n  0x20\n  add\n  swap1\n  dup2\n  mstore\n  0x20\n  add\n  0x00\n  keccak256\n  0x00\n    /* \"lost-20.sol\":15809:15837  _balances[account] += amount */\n  dup3\n  dup3\n  sload\n  tag_40\n  swap2\n  swap1\n  tag_39\n  jump\t// in\ntag_40:\n  swap3\n  pop\n  pop\n  dup2\n  swap1\n  sstore\n  pop\n    /* \"lost-20.sol\":15873:15880  account */\n  dup2\n    /* \"lost-20.sol\":15852:15889  Transfer(address(0), account, amount) */\n  0xffffffffffffffffffffffffffffffffffffffff\n  and\n    /* \"lost-20.sol\":15869:15870  0 */\n  0x00\n    /* \"lost-20.sol\":15852:15889  Transfer(address(0), account, amount) */\n  0xffffffffffffffffffffffffffffffffffffffff\n  and\n  0xddf252ad1be2c89b69c2b068fc378daa952ba7f163c4a11628f55a4df523b3ef\n    /* \"lost-20.sol\":15882:15888  amount */\n  dup4\n    /* \"lost-20.sol\":15852:15889  Transfer(address(0), account, amount) */\n  mload(0x40)\n  tag_41\n  swap2\n  swap1\n  tag_42\n  jump\t// in\ntag_41:\n  mload(0x40)\n  dup1\n  swap2\n  sub\n  swap1\n  log3\n    /* \"lost-20.sol\":15566:15896  function _mint(address account, uint256 amount) internal virtual {... */\n  pop\n  pop\n  jump\t// out\n    /* \"lost-20.sol\":18380:18501  function _beforeTokenTransfer(... */\ntag_37:\n  pop\n  pop\n  pop\n  jump\t// out\n    /* \"lost-20.sol\":19905:20219  contract HelloBEP20 is BEP20, ServicePayer, GeneratorCopyright(\"v3.0.0\") {... */\ntag_15:\n  dup3\n  dup1\n  sload\n  tag_44\n  swap1\n  tag_45\n  jump\t// in\ntag_44:\n  swap1\n  0x00\n  mstore\n  keccak256(0x00, 0x20)\n  swap1\n  0x1f\n  add\n  0x20\n  swap1\n  div\n  dup2\n  add\n  swap3\n  dup3\n  tag_47\n  jumpi\n  0x00\n  dup6\n  sstore\n  jump(tag_46)\ntag_47:\n  dup3\n  0x1f\n  lt\n  tag_48\n  jumpi\n  dup1\n  mload\n  not(0xff)\n  and\n  dup4\n  dup1\n  add\n  or\n  dup6\n  sstore\n  jump(tag_46)\ntag_48:\n  dup3\n  dup1\n  add\n  0x01\n  add\n  dup6\n  sstore\n  dup3\n  iszero\n  tag_46\n  jumpi\n  swap2\n  dup3\n  add\ntag_49:\n  dup3\n  dup2\n  gt\n  iszero\n  tag_50\n  jumpi\n  dup3\n  mload\n  dup3\n  sstore\n  swap2\n  0x20\n  add\n  swap2\n  swap1\n  0x01\n  add\n  swap1\n  jump(tag_49)\ntag_50:\ntag_46:\n  pop\n  swap1\n  pop\n  tag_51\n  swap2\n  swap1\n  tag_52\n  jump\t// in\ntag_51:\n  pop\n  swap1\n  jump\t// out\ntag_52:\ntag_53:\n  dup1\n  dup3\n  gt\n  iszero\n  tag_54\n  jumpi\n  0x00\n  dup2\n  0x00\n  swap1\n  sstore\n  pop\n  0x01\n  add\n  jump(tag_53)\ntag_54:\n  pop\n  swap1\n  jump\t// out\n    /* \"#utility.yul\":7:428   */\ntag_56:\n    /* \"#utility.yul\":96:101   */\n  0x00\n    /* \"#utility.yul\":121:187   */\n  tag_58\n    /* \"#utility.yul\":137:186   */\n  tag_59\n    /* \"#utility.yul\":179:185   */\n  dup5\n    /* \"#utility.yul\":137:186   */\n  tag_60\n  jump\t// in\ntag_59:\n    /* \"#utility.yul\":121:187   */\n  tag_61\n  jump\t// in\ntag_58:\n    /* \"#utility.yul\":112:187   */\n  swap1\n  pop\n    /* \"#utility.yul\":210:216   */\n  dup3\n    /* \"#utility.yul\":203:208   */\n  dup2\n    /* \"#utility.yul\":196:217   */\n  mstore\n    /* \"#utility.yul\":248:252   */\n  0x20\n    /* \"#utility.yul\":241:246   */\n  dup2\n    /* \"#utility.yul\":237:253   */\n  add\n    /* \"#utility.yul\":286:289   */\n  dup5\n    /* \"#utility.yul\":277:283   */\n  dup5\n    /* \"#utility.yul\":272:275   */\n  dup5\n    /* \"#utility.yul\":268:284   */\n  add\n    /* \"#utility.yul\":265:290   */\n  gt\n    /* \"#utility.yul\":262:374   */\n  iszero\n  tag_62\n  jumpi\n    /* \"#utility.yul\":293:372   */\n  tag_63\n  tag_64\n  jump\t// in\ntag_63:\n    /* \"#utility.yul\":262:374   */\ntag_62:\n    /* \"#utility.yul\":383:422   */\n  tag_65\n    /* \"#utility.yul\":415:421   */\n  dup5\n    /* \"#utility.yul\":410:413   */\n  dup3\n    /* \"#utility.yul\":405:408   */\n  dup6\n    /* \"#utility.yul\":383:422   */\n  tag_66\n  jump\t// in\ntag_65:\n    /* \"#utility.yul\":102:428   */\n  pop\n    /* \"#utility.yul\":7:428   */\n  swap4\n  swap3\n  pop\n  pop\n  pop\n  jump\t// out\n    /* \"#utility.yul\":434:593   */\ntag_67:\n    /* \"#utility.yul\":499:504   */\n  0x00\n    /* \"#utility.yul\":530:536   */\n  dup2\n    /* \"#utility.yul\":524:537   */\n  mload\n    /* \"#utility.yul\":515:537   */\n  swap1\n  pop\n    /* \"#utility.yul\":546:587   */\n  tag_69\n    /* \"#utility.yul\":581:586   */\n  dup2\n    /* \"#utility.yul\":546:587   */\n  tag_70\n  jump\t// in\ntag_69:\n    /* \"#utility.yul\":434:593   */\n  swap3\n  swap2\n  pop\n  pop\n  jump\t// out\n    /* \"#utility.yul\":613:968   */\ntag_71:\n    /* \"#utility.yul\":680:685   */\n  0x00\n    /* \"#utility.yul\":729:732   */\n  dup3\n    /* \"#utility.yul\":722:726   */\n  0x1f\n    /* \"#utility.yul\":714:720   */\n  dup4\n    /* \"#utility.yul\":710:727   */\n  add\n    /* \"#utility.yul\":706:733   */\n  slt\n    /* \"#utility.yul\":696:818   */\n  tag_73\n  jumpi\n    /* \"#utility.yul\":737:816   */\n  tag_74\n  tag_75\n  jump\t// in\ntag_74:\n    /* \"#utility.yul\":696:818   */\ntag_73:\n    /* \"#utility.yul\":847:853   */\n  dup2\n    /* \"#utility.yul\":841:854   */\n  mload\n    /* \"#utility.yul\":872:962   */\n  tag_76\n    /* \"#utility.yul\":958:961   */\n  dup5\n    /* \"#utility.yul\":950:956   */\n  dup3\n    /* \"#utility.yul\":943:947   */\n  0x20\n    /* \"#utility.yul\":935:941   */\n  dup7\n    /* \"#utility.yul\":931:948   */\n  add\n    /* \"#utility.yul\":872:962   */\n  tag_56\n  jump\t// in\ntag_76:\n    /* \"#utility.yul\":863:962   */\n  swap2\n  pop\n    /* \"#utility.yul\":686:968   */\n  pop\n    /* \"#utility.yul\":613:968   */\n  swap3\n  swap2\n  pop\n  pop\n  jump\t// out\n    /* \"#utility.yul\":974:1999   */\ntag_2:\n    /* \"#utility.yul\":1090:1096   */\n  0x00\n    /* \"#utility.yul\":1098:1104   */\n  dup1\n    /* \"#utility.yul\":1106:1112   */\n  0x00\n    /* \"#utility.yul\":1155:1157   */\n  0x60\n    /* \"#utility.yul\":1143:1152   */\n  dup5\n    /* \"#utility.yul\":1134:1141   */\n  dup7\n    /* \"#utility.yul\":1130:1153   */\n  sub\n    /* \"#utility.yul\":1126:1158   */\n  slt\n    /* \"#utility.yul\":1123:1242   */\n  iszero\n  tag_78\n  jumpi\n    /* \"#utility.yul\":1161:1240   */\n  tag_79\n  tag_80\n  jump\t// in\ntag_79:\n    /* \"#utility.yul\":1123:1242   */\ntag_78:\n    /* \"#utility.yul\":1302:1303   */\n  0x00\n    /* \"#utility.yul\":1291:1300   */\n  dup5\n    /* \"#utility.yul\":1287:1304   */\n  add\n    /* \"#utility.yul\":1281:1305   */\n  mload\n    /* \"#utility.yul\":1332:1350   */\n  0xffffffffffffffff\n    /* \"#utility.yul\":1324:1330   */\n  dup2\n    /* \"#utility.yul\":1321:1351   */\n  gt\n    /* \"#utility.yul\":1318:1435   */\n  iszero\n  tag_81\n  jumpi\n    /* \"#utility.yul\":1354:1433   */\n  tag_82\n  tag_83\n  jump\t// in\ntag_82:\n    /* \"#utility.yul\":1318:1435   */\ntag_81:\n    /* \"#utility.yul\":1459:1533   */\n  tag_84\n    /* \"#utility.yul\":1525:1532   */\n  dup7\n    /* \"#utility.yul\":1516:1522   */\n  dup3\n    /* \"#utility.yul\":1505:1514   */\n  dup8\n    /* \"#utility.yul\":1501:1523   */\n  add\n    /* \"#utility.yul\":1459:1533   */\n  tag_71\n  jump\t// in\ntag_84:\n    /* \"#utility.yul\":1449:1533   */\n  swap4\n  pop\n    /* \"#utility.yul\":1252:1543   */\n  pop\n    /* \"#utility.yul\":1603:1605   */\n  0x20\n    /* \"#utility.yul\":1592:1601   */\n  dup5\n    /* \"#utility.yul\":1588:1606   */\n  add\n    /* \"#utility.yul\":1582:1607   */\n  mload\n    /* \"#utility.yul\":1634:1652   */\n  0xffffffffffffffff\n    /* \"#utility.yul\":1626:1632   */\n  dup2\n    /* \"#utility.yul\":1623:1653   */\n  gt\n    /* \"#utility.yul\":1620:1737   */\n  iszero\n  tag_85\n  jumpi\n    /* \"#utility.yul\":1656:1735   */\n  tag_86\n  tag_83\n  jump\t// in\ntag_86:\n    /* \"#utility.yul\":1620:1737   */\ntag_85:\n    /* \"#utility.yul\":1761:1835   */\n  tag_87\n    /* \"#utility.yul\":1827:1834   */\n  dup7\n    /* \"#utility.yul\":1818:1824   */\n  dup3\n    /* \"#utility.yul\":1807:1816   */\n  dup8\n    /* \"#utility.yul\":1803:1825   */\n  add\n    /* \"#utility.yul\":1761:1835   */\n  tag_71\n  jump\t// in\ntag_87:\n    /* \"#utility.yul\":1751:1835   */\n  swap3\n  pop\n    /* \"#utility.yul\":1553:1845   */\n  pop\n    /* \"#utility.yul\":1884:1886   */\n  0x40\n    /* \"#utility.yul\":1910:1982   */\n  tag_88\n    /* \"#utility.yul\":1974:1981   */\n  dup7\n    /* \"#utility.yul\":1965:1971   */\n  dup3\n    /* \"#utility.yul\":1954:1963   */\n  dup8\n    /* \"#utility.yul\":1950:1972   */\n  add\n    /* \"#utility.yul\":1910:1982   */\n  tag_67\n  jump\t// in\ntag_88:\n    /* \"#utility.yul\":1900:1982   */\n  swap2\n  pop\n    /* \"#utility.yul\":1855:1992   */\n  pop\n    /* \"#utility.yul\":974:1999   */\n  swap3\n  pop\n  swap3\n  pop\n  swap3\n  jump\t// out\n    /* \"#utility.yul\":2005:2369   */\ntag_89:\n    /* \"#utility.yul\":2093:2096   */\n  0x00\n    /* \"#utility.yul\":2121:2160   */\n  tag_91\n    /* \"#utility.yul\":2154:2159   */\n  dup3\n    /* \"#utility.yul\":2121:2160   */\n  tag_92\n  jump\t// in\ntag_91:\n    /* \"#utility.yul\":2176:2247   */\n  tag_93\n    /* \"#utility.yul\":2240:2246   */\n  dup2\n    /* \"#utility.yul\":2235:2238   */\n  dup6\n    /* \"#utility.yul\":2176:2247   */\n  tag_94\n  jump\t// in\ntag_93:\n    /* \"#utility.yul\":2169:2247   */\n  swap4\n  pop\n    /* \"#utility.yul\":2256:2308   */\n  tag_95\n    /* \"#utility.yul\":2301:2307   */\n  dup2\n    /* \"#utility.yul\":2296:2299   */\n  dup6\n    /* \"#utility.yul\":2289:2293   */\n  0x20\n    /* \"#utility.yul\":2282:2287   */\n  dup7\n    /* \"#utility.yul\":2278:2294   */\n  add\n    /* \"#utility.yul\":2256:2308   */\n  tag_66\n  jump\t// in\ntag_95:\n    /* \"#utility.yul\":2333:2362   */\n  tag_96\n    /* \"#utility.yul\":2355:2361   */\n  dup2\n    /* \"#utility.yul\":2333:2362   */\n  tag_97\n  jump\t// in\ntag_96:\n    /* \"#utility.yul\":2328:2331   */\n  dup5\n    /* \"#utility.yul\":2324:2363   */\n  add\n    /* \"#utility.yul\":2317:2363   */\n  swap2\n  pop\n    /* \"#utility.yul\":2097:2369   */\n  pop\n    /* \"#utility.yul\":2005:2369   */\n  swap3\n  swap2\n  pop\n  pop\n  jump\t// out\n    /* \"#utility.yul\":2375:2741   */\ntag_98:\n    /* \"#utility.yul\":2517:2520   */\n  0x00\n    /* \"#utility.yul\":2538:2605   */\n  tag_100\n    /* \"#utility.yul\":2602:2604   */\n  0x1f\n    /* \"#utility.yul\":2597:2600   */\n  dup4\n    /* \"#utility.yul\":2538:2605   */\n  tag_94\n  jump\t// in\ntag_100:\n    /* \"#utility.yul\":2531:2605   */\n  swap2\n  pop\n    /* \"#utility.yul\":2614:2707   */\n  tag_101\n    /* \"#utility.yul\":2703:2706   */\n  dup3\n    /* \"#utility.yul\":2614:2707   */\n  tag_102\n  jump\t// in\ntag_101:\n    /* \"#utility.yul\":2732:2734   */\n  0x20\n    /* \"#utility.yul\":2727:2730   */\n  dup3\n    /* \"#utility.yul\":2723:2735   */\n  add\n    /* \"#utility.yul\":2716:2735   */\n  swap1\n  pop\n    /* \"#utility.yul\":2375:2741   */\n  swap2\n  swap1\n  pop\n  jump\t// out\n    /* \"#utility.yul\":2747:2865   */\ntag_103:\n    /* \"#utility.yul\":2834:2858   */\n  tag_105\n    /* \"#utility.yul\":2852:2857   */\n  dup2\n    /* \"#utility.yul\":2834:2858   */\n  tag_106\n  jump\t// in\ntag_105:\n    /* \"#utility.yul\":2829:2832   */\n  dup3\n    /* \"#utility.yul\":2822:2859   */\n  mstore\n    /* \"#utility.yul\":2747:2865   */\n  pop\n  pop\n  jump\t// out\n    /* \"#utility.yul\":2871:3184   */\ntag_19:\n    /* \"#utility.yul\":2984:2988   */\n  0x00\n    /* \"#utility.yul\":3022:3024   */\n  0x20\n    /* \"#utility.yul\":3011:3020   */\n  dup3\n    /* \"#utility.yul\":3007:3025   */\n  add\n    /* \"#utility.yul\":2999:3025   */\n  swap1\n  pop\n    /* \"#utility.yul\":3071:3080   */\n  dup2\n    /* \"#utility.yul\":3065:3069   */\n  dup2\n    /* \"#utility.yul\":3061:3081   */\n  sub\n    /* \"#utility.yul\":3057:3058   */\n  0x00\n    /* \"#utility.yul\":3046:3055   */\n  dup4\n    /* \"#utility.yul\":3042:3059   */\n  add\n    /* \"#utility.yul\":3035:3082   */\n  mstore\n    /* \"#utility.yul\":3099:3177   */\n  tag_108\n    /* \"#utility.yul\":3172:3176   */\n  dup2\n    /* \"#utility.yul\":3163:3169   */\n  dup5\n    /* \"#utility.yul\":3099:3177   */\n  tag_89\n  jump\t// in\ntag_108:\n    /* \"#utility.yul\":3091:3177   */\n  swap1\n  pop\n    /* \"#utility.yul\":2871:3184   */\n  swap3\n  swap2\n  pop\n  pop\n  jump\t// out\n    /* \"#utility.yul\":3190:3609   */\ntag_35:\n    /* \"#utility.yul\":3356:3360   */\n  0x00\n    /* \"#utility.yul\":3394:3396   */\n  0x20\n    /* \"#utility.yul\":3383:3392   */\n  dup3\n    /* \"#utility.yul\":3379:3397   */\n  add\n    /* \"#utility.yul\":3371:3397   */\n  swap1\n  pop\n    /* \"#utility.yul\":3443:3452   */\n  dup2\n    /* \"#utility.yul\":3437:3441   */\n  dup2\n    /* \"#utility.yul\":3433:3453   */\n  sub\n    /* \"#utility.yul\":3429:3430   */\n  0x00\n    /* \"#utility.yul\":3418:3427   */\n  dup4\n    /* \"#utility.yul\":3414:3431   */\n  add\n    /* \"#utility.yul\":3407:3454   */\n  mstore\n    /* \"#utility.yul\":3471:3602   */\n  tag_110\n    /* \"#utility.yul\":3597:3601   */\n  dup2\n    /* \"#utility.yul\":3471:3602   */\n  tag_98\n  jump\t// in\ntag_110:\n    /* \"#utility.yul\":3463:3602   */\n  swap1\n  pop\n    /* \"#utility.yul\":3190:3609   */\n  swap2\n  swap1\n  pop\n  jump\t// out\n    /* \"#utility.yul\":3615:3837   */\ntag_42:\n    /* \"#utility.yul\":3708:3712   */\n  0x00\n    /* \"#utility.yul\":3746:3748   */\n  0x20\n    /* \"#utility.yul\":3735:3744   */\n  dup3\n    /* \"#utility.yul\":3731:3749   */\n  add\n    /* \"#utility.yul\":3723:3749   */\n  swap1\n  pop\n    /* \"#utility.yul\":3759:3830   */\n  tag_112\n    /* \"#utility.yul\":3827:3828   */\n  0x00\n    /* \"#utility.yul\":3816:3825   */\n  dup4\n    /* \"#utility.yul\":3812:3829   */\n  add\n    /* \"#utility.yul\":3803:3809   */\n  dup5\n    /* \"#utility.yul\":3759:3830   */\n  tag_103\n  jump\t// in\ntag_112:\n    /* \"#utility.yul\":3615:3837   */\n  swap3\n  swap2\n  pop\n  pop\n  jump\t// out\n    /* \"#utility.yul\":3843:3972   */\ntag_61:\n    /* \"#utility.yul\":3877:3883   */\n  0x00\n    /* \"#utility.yul\":3904:3924   */\n  tag_114\n  tag_115\n  jump\t// in\ntag_114:\n    /* \"#utility.yul\":3894:3924   */\n  swap1\n  pop\n    /* \"#utility.yul\":3933:3966   */\n  tag_116\n    /* \"#utility.yul\":3961:3965   */\n  dup3\n    /* \"#utility.yul\":3953:3959   */\n  dup3\n    /* \"#utility.yul\":3933:3966   */\n  tag_117\n  jump\t// in\ntag_116:\n    /* \"#utility.yul\":3843:3972   */\n  swap2\n  swap1\n  pop\n  jump\t// out\n    /* \"#utility.yul\":3978:4053   */\ntag_115:\n    /* \"#utility.yul\":4011:4017   */\n  0x00\n    /* \"#utility.yul\":4044:4046   */\n  0x40\n    /* \"#utility.yul\":4038:4047   */\n  mload\n    /* \"#utility.yul\":4028:4047   */\n  swap1\n  pop\n    /* \"#utility.yul\":3978:4053   */\n  swap1\n  jump\t// out\n    /* \"#utility.yul\":4059:4367   */\ntag_60:\n    /* \"#utility.yul\":4121:4125   */\n  0x00\n    /* \"#utility.yul\":4211:4229   */\n  0xffffffffffffffff\n    /* \"#utility.yul\":4203:4209   */\n  dup3\n    /* \"#utility.yul\":4200:4230   */\n  gt\n    /* \"#utility.yul\":4197:4253   */\n  iszero\n  tag_120\n  jumpi\n    /* \"#utility.yul\":4233:4251   */\n  tag_121\n  tag_122\n  jump\t// in\ntag_121:\n    /* \"#utility.yul\":4197:4253   */\ntag_120:\n    /* \"#utility.yul\":4271:4300   */\n  tag_123\n    /* \"#utility.yul\":4293:4299   */\n  dup3\n    /* \"#utility.yul\":4271:4300   */\n  tag_97\n  jump\t// in\ntag_123:\n    /* \"#utility.yul\":4263:4300   */\n  swap1\n  pop\n    /* \"#utility.yul\":4355:4359   */\n  0x20\n    /* \"#utility.yul\":4349:4353   */\n  dup2\n    /* \"#utility.yul\":4345:4360   */\n  add\n    /* \"#utility.yul\":4337:4360   */\n  swap1\n  pop\n    /* \"#utility.yul\":4059:4367   */\n  swap2\n  swap1\n  pop\n  jump\t// out\n    /* \"#utility.yul\":4373:4472   */\ntag_92:\n    /* \"#utility.yul\":4425:4431   */\n  0x00\n    /* \"#utility.yul\":4459:4464   */\n  dup2\n    /* \"#utility.yul\":4453:4465   */\n  mload\n    /* \"#utility.yul\":4443:4465   */\n  swap1\n  pop\n    /* \"#utility.yul\":4373:4472   */\n  swap2\n  swap1\n  pop\n  jump\t// out\n    /* \"#utility.yul\":4478:4647   */\ntag_94:\n    /* \"#utility.yul\":4562:4573   */\n  0x00\n    /* \"#utility.yul\":4596:4602   */\n  dup3\n    /* \"#utility.yul\":4591:4594   */\n  dup3\n    /* \"#utility.yul\":4584:4603   */\n  mstore\n    /* \"#utility.yul\":4636:4640   */\n  0x20\n    /* \"#utility.yul\":4631:4634   */\n  dup3\n    /* \"#utility.yul\":4627:4641   */\n  add\n    /* \"#utility.yul\":4612:4641   */\n  swap1\n  pop\n    /* \"#utility.yul\":4478:4647   */\n  swap3\n  swap2\n  pop\n  pop\n  jump\t// out\n    /* \"#utility.yul\":4653:4958   */\ntag_39:\n    /* \"#utility.yul\":4693:4696   */\n  0x00\n    /* \"#utility.yul\":4712:4732   */\n  tag_127\n    /* \"#utility.yul\":4730:4731   */\n  dup3\n    /* \"#utility.yul\":4712:4732   */\n  tag_106\n  jump\t// in\ntag_127:\n    /* \"#utility.yul\":4707:4732   */\n  swap2\n  pop\n    /* \"#utility.yul\":4746:4766   */\n  tag_128\n    /* \"#utility.yul\":4764:4765   */\n  dup4\n    /* \"#utility.yul\":4746:4766   */\n  tag_106\n  jump\t// in\ntag_128:\n    /* \"#utility.yul\":4741:4766   */\n  swap3\n  pop\n    /* \"#utility.yul\":4900:4901   */\n  dup3\n    /* \"#utility.yul\":4832:4898   */\n  0xffffffffffffffffffffffffffffffffffffffffffffffffffffffffffffffff\n    /* \"#utility.yul\":4828:4902   */\n  sub\n    /* \"#utility.yul\":4825:4826   */\n  dup3\n    /* \"#utility.yul\":4822:4903   */\n  gt\n    /* \"#utility.yul\":4819:4926   */\n  iszero\n  tag_129\n  jumpi\n    /* \"#utility.yul\":4906:4924   */\n  tag_130\n  tag_131\n  jump\t// in\ntag_130:\n    /* \"#utility.yul\":4819:4926   */\ntag_129:\n    /* \"#utility.yul\":4950:4951   */\n  dup3\n    /* \"#utility.yul\":4947:4948   */\n  dup3\n    /* \"#utility.yul\":4943:4952   */\n  add\n    /* \"#utility.yul\":4936:4952   */\n  swap1\n  pop\n    /* \"#utility.yul\":4653:4958   */\n  swap3\n  swap2\n  pop\n  pop\n  jump\t// out\n    /* \"#utility.yul\":4964:5068   */\ntag_132:\n    /* \"#utility.yul\":5009:5016   */\n  0x00\n    /* \"#utility.yul\":5038:5062   */\n  tag_134\n    /* \"#utility.yul\":5056:5061   */\n  dup3\n    /* \"#utility.yul\":5038:5062   */\n  tag_135\n  jump\t// in\ntag_134:\n    /* \"#utility.yul\":5027:5062   */\n  swap1\n  pop\n    /* \"#utility.yul\":4964:5068   */\n  swap2\n  swap1\n  pop\n  jump\t// out\n    /* \"#utility.yul\":5074:5200   */\ntag_135:\n    /* \"#utility.yul\":5111:5118   */\n  0x00\n    /* \"#utility.yul\":5151:5193   */\n  0xffffffffffffffffffffffffffffffffffffffff\n    /* \"#utility.yul\":5144:5149   */\n  dup3\n    /* \"#utility.yul\":5140:5194   */\n  and\n    /* \"#utility.yul\":5129:5194   */\n  swap1\n  pop\n    /* \"#utility.yul\":5074:5200   */\n  swap2\n  swap1\n  pop\n  jump\t// out\n    /* \"#utility.yul\":5206:5283   */\ntag_106:\n    /* \"#utility.yul\":5243:5250   */\n  0x00\n    /* \"#utility.yul\":5272:5277   */\n  dup2\n    /* \"#utility.yul\":5261:5277   */\n  swap1\n  pop\n    /* \"#utility.yul\":5206:5283   */\n  swap2\n  swap1\n  pop\n  jump\t// out\n    /* \"#utility.yul\":5289:5596   */\ntag_66:\n    /* \"#utility.yul\":5357:5358   */\n  0x00\n    /* \"#utility.yul\":5367:5480   */\ntag_139:\n    /* \"#utility.yul\":5381:5387   */\n  dup4\n    /* \"#utility.yul\":5378:5379   */\n  dup2\n    /* \"#utility.yul\":5375:5388   */\n  lt\n    /* \"#utility.yul\":5367:5480   */\n  iszero\n  tag_141\n  jumpi\n    /* \"#utility.yul\":5466:5467   */\n  dup1\n    /* \"#utility.yul\":5461:5464   */\n  dup3\n    /* \"#utility.yul\":5457:5468   */\n  add\n    /* \"#utility.yul\":5451:5469   */\n  mload\n    /* \"#utility.yul\":5447:5448   */\n  dup2\n    /* \"#utility.yul\":5442:5445   */\n  dup5\n    /* \"#utility.yul\":5438:5449   */\n  add\n    /* \"#utility.yul\":5431:5470   */\n  mstore\n    /* \"#utility.yul\":5403:5405   */\n  0x20\n    /* \"#utility.yul\":5400:5401   */\n  dup2\n    /* \"#utility.yul\":5396:5406   */\n  add\n    /* \"#utility.yul\":5391:5406   */\n  swap1\n  pop\n    /* \"#utility.yul\":5367:5480   */\n  jump(tag_139)\ntag_141:\n    /* \"#utility.yul\":5498:5504   */\n  dup4\n    /* \"#utility.yul\":5495:5496   */\n  dup2\n    /* \"#utility.yul\":5492:5505   */\n  gt\n    /* \"#utility.yul\":5489:5590   */\n  iszero\n  tag_142\n  jumpi\n    /* \"#utility.yul\":5578:5579   */\n  0x00\n    /* \"#utility.yul\":5569:5575   */\n  dup5\n    /* \"#utility.yul\":5564:5567   */\n  dup5\n    /* \"#utility.yul\":5560:5576   */\n  add\n    /* \"#utility.yul\":5553:5580   */\n  mstore\n    /* \"#utility.yul\":5489:5590   */\ntag_142:\n    /* \"#utility.yul\":5338:5596   */\n  pop\n    /* \"#utility.yul\":5289:5596   */\n  pop\n  pop\n  pop\n  jump\t// out\n    /* \"#utility.yul\":5602:5922   */\ntag_45:\n    /* \"#utility.yul\":5646:5652   */\n  0x00\n    /* \"#utility.yul\":5683:5684   */\n  0x02\n    /* \"#utility.yul\":5677:5681   */\n  dup3\n    /* \"#utility.yul\":5673:5685   */\n  div\n    /* \"#utility.yul\":5663:5685   */\n  swap1\n  pop\n    /* \"#utility.yul\":5730:5731   */\n  0x01\n    /* \"#utility.yul\":5724:5728   */\n  dup3\n    /* \"#utility.yul\":5720:5732   */\n  and\n    /* \"#utility.yul\":5751:5769   */\n  dup1\n    /* \"#utility.yul\":5741:5822   */\n  tag_144\n  jumpi\n    /* \"#utility.yul\":5807:5811   */\n  0x7f\n    /* \"#utility.yul\":5799:5805   */\n  dup3\n    /* \"#utility.yul\":5795:5812   */\n  and\n    /* \"#utility.yul\":5785:5812   */\n  swap2\n  pop\n    /* \"#utility.yul\":5741:5822   */\ntag_144:\n    /* \"#utility.yul\":5869:5871   */\n  0x20\n    /* \"#utility.yul\":5861:5867   */\n  dup3\n    /* \"#utility.yul\":5858:5872   */\n  lt\n    /* \"#utility.yul\":5838:5856   */\n  dup2\n    /* \"#utility.yul\":5835:5873   */\n  eq\n    /* \"#utility.yul\":5832:5916   */\n  iszero\n  tag_145\n  jumpi\n    /* \"#utility.yul\":5888:5906   */\n  tag_146\n  tag_147\n  jump\t// in\ntag_146:\n    /* \"#utility.yul\":5832:5916   */\ntag_145:\n    /* \"#utility.yul\":5653:5922   */\n  pop\n    /* \"#utility.yul\":5602:5922   */\n  swap2\n  swap1\n  pop\n  jump\t// out\n    /* \"#utility.yul\":5928:6209   */\ntag_117:\n    /* \"#utility.yul\":6011:6038   */\n  tag_149\n    /* \"#utility.yul\":6033:6037   */\n  dup3\n    /* \"#utility.yul\":6011:6038   */\n  tag_97\n  jump\t// in\ntag_149:\n    /* \"#utility.yul\":6003:6009   */\n  dup2\n    /* \"#utility.yul\":5999:6039   */\n  add\n    /* \"#utility.yul\":6141:6147   */\n  dup2\n    /* \"#utility.yul\":6129:6139   */\n  dup2\n    /* \"#utility.yul\":6126:6148   */\n  lt\n    /* \"#utility.yul\":6105:6123   */\n  0xffffffffffffffff\n    /* \"#utility.yul\":6093:6103   */\n  dup3\n    /* \"#utility.yul\":6090:6124   */\n  gt\n    /* \"#utility.yul\":6087:6149   */\n  or\n    /* \"#utility.yul\":6084:6172   */\n  iszero\n  tag_150\n  jumpi\n    /* \"#utility.yul\":6152:6170   */\n  tag_151\n  tag_122\n  jump\t// in\ntag_151:\n    /* \"#utility.yul\":6084:6172   */\ntag_150:\n    /* \"#utility.yul\":6192:6202   */\n  dup1\n    /* \"#utility.yul\":6188:6190   */\n  0x40\n    /* \"#utility.yul\":6181:6203   */\n  mstore\n    /* \"#utility.yul\":5971:6209   */\n  pop\n    /* \"#utility.yul\":5928:6209   */\n  pop\n  pop\n  jump\t// out\n    /* \"#utility.yul\":6215:6395   */\ntag_131:\n    /* \"#utility.yul\":6263:6340   */\n  0x4e487b7100000000000000000000000000000000000000000000000000000000\n    /* \"#utility.yul\":6260:6261   */\n  0x00\n    /* \"#utility.yul\":6253:6341   */\n  mstore\n    /* \"#utility.yul\":6360:6364   */\n  0x11\n    /* \"#utility.yul\":6357:6358   */\n  0x04\n    /* \"#utility.yul\":6350:6365   */\n  mstore\n    /* \"#utility.yul\":6384:6388   */\n  0x24\n    /* \"#utility.yul\":6381:6382   */\n  0x00\n    /* \"#utility.yul\":6374:6389   */\n  revert\n    /* \"#utility.yul\":6401:6581   */\ntag_147:\n    /* \"#utility.yul\":6449:6526   */\n  0x4e487b7100000000000000000000000000000000000000000000000000000000\n    /* \"#utility.yul\":6446:6447   */\n  0x00\n    /* \"#utility.yul\":6439:6527   */\n  mstore\n    /* \"#utility.yul\":6546:6550   */\n  0x22\n    /* \"#utility.yul\":6543:6544   */\n  0x04\n    /* \"#utility.yul\":6536:6551   */\n  mstore\n    /* \"#utility.yul\":6570:6574   */\n  0x24\n    /* \"#utility.yul\":6567:6568   */\n  0x00\n    /* \"#utility.yul\":6560:6575   */\n  revert\n    /* \"#utility.yul\":6587:6767   */\ntag_122:\n    /* \"#utility.yul\":6635:6712   */\n  0x4e487b7100000000000000000000000000000000000000000000000000000000\n    /* \"#utility.yul\":6632:6633   */\n  0x00\n    /* \"#utility.yul\":6625:6713   */\n  mstore\n    /* \"#utility.yul\":6732:6736   */\n  0x41\n    /* \"#utility.yul\":6729:6730   */\n  0x04\n    /* \"#utility.yul\":6722:6737   */\n  mstore\n    /* \"#utility.yul\":6756:6760   */\n  0x24\n    /* \"#utility.yul\":6753:6754   */\n  0x00\n    /* \"#utility.yul\":6746:6761   */\n  revert\n    /* \"#utility.yul\":6773:6890   */\ntag_75:\n    /* \"#utility.yul\":6882:6883   */\n  0x00\n    /* \"#utility.yul\":6879:6880   */\n  dup1\n    /* \"#utility.yul\":6872:6884   */\n  revert\n    /* \"#utility.yul\":6896:7013   */\ntag_64:\n    /* \"#utility.yul\":7005:7006   */\n  0x00\n    /* \"#utility.yul\":7002:7003   */\n  dup1\n    /* \"#utility.yul\":6995:7007   */\n  revert\n    /* \"#utility.yul\":7019:7136   */\ntag_83:\n    /* \"#utility.yul\":7128:7129   */\n  0x00\n    /* \"#utility.yul\":7125:7126   */\n  dup1\n    /* \"#utility.yul\":7118:7130   */\n  revert\n    /* \"#utility.yul\":7142:7259   */\ntag_80:\n    /* \"#utility.yul\":7251:7252   */\n  0x00\n    /* \"#utility.yul\":7248:7249   */\n  dup1\n    /* \"#utility.yul\":7241:7253   */\n  revert\n    /* \"#utility.yul\":7265:7367   */\ntag_97:\n    /* \"#utility.yul\":7306:7312   */\n  0x00\n    /* \"#utility.yul\":7357:7359   */\n  0x1f\n    /* \"#utility.yul\":7353:7360   */\n  not\n    /* \"#utility.yul\":7348:7350   */\n  0x1f\n    /* \"#utility.yul\":7341:7346   */\n  dup4\n    /* \"#utility.yul\":7337:7351   */\n  add\n    /* \"#utility.yul\":7333:7361   */\n  and\n    /* \"#utility.yul\":7323:7361   */\n  swap1\n  pop\n    /* \"#utility.yul\":7265:7367   */\n  swap2\n  swap1\n  pop\n  jump\t// out\n    /* \"#utility.yul\":7373:7554   */\ntag_102:\n    /* \"#utility.yul\":7513:7546   */\n  0x42455032303a206d696e7420746f20746865207a65726f206164647265737300\n    /* \"#utility.yul\":7509:7510   */\n  0x00\n    /* \"#utility.yul\":7501:7507   */\n  dup3\n    /* \"#utility.yul\":7497:7511   */\n  add\n    /* \"#utility.yul\":7490:7547   */\n  mstore\n    /* \"#utility.yul\":7373:7554   */\n  pop\n  jump\t// out\n    /* \"#utility.yul\":7560:7698   */\ntag_70:\n    /* \"#utility.yul\":7641:7673   */\n  tag_162\n    /* \"#utility.yul\":7667:7672   */\n  dup2\n    /* \"#utility.yul\":7641:7673   */\n  tag_132\n  jump\t// in\ntag_162:\n    /* \"#utility.yul\":7634:7639   */\n  dup2\n    /* \"#utility.yul\":7631:7674   */\n  eq\n    /* \"#utility.yul\":7621:7692   */\n  tag_163\n  jumpi\n    /* \"#utility.yul\":7688:7689   */\n  0x00\n    /* \"#utility.yul\":7685:7686   */\n  dup1\n    /* \"#utility.yul\":7678:7690   */\n  revert\n    /* \"#utility.yul\":7621:7692   */\ntag_163:\n    /* \"#utility.yul\":7560:7698   */\n  pop\n  jump\t// out\n    /* \"lost-20.sol\":19905:20219  contract HelloBEP20 is BEP20, ServicePayer, GeneratorCopyright(\"v3.0.0\") {... */\ntag_29:\n  dataSize(sub_0)\n  dup1\n  dataOffset(sub_0)\n  0x00\n  codecopy\n  0x00\n  return\nstop\n\nsub_0: assembly {\n        /* \"lost-20.sol\":19905:20219  contract HelloBEP20 is BEP20, ServicePayer, GeneratorCopyright(\"v3.0.0\") {... */\n      mstore(0x40, 0x80)\n      callvalue\n      dup1\n      iszero\n      tag_1\n      jumpi\n      0x00\n      dup1\n      revert\n    tag_1:\n      pop\n      jumpi(tag_2, lt(calldatasize, 0x04))\n      shr(0xe0, calldataload(0x00))\n      dup1\n      0x715018a6\n      gt\n      tag_20\n      jumpi\n      dup1\n      0x95d89b41\n      gt\n      tag_21\n      jumpi\n      dup1\n      0x95d89b41\n      eq\n      tag_15\n      jumpi\n      dup1\n      0xa457c2d7\n      eq\n      tag_16\n      jumpi\n      dup1\n      0xa9059cbb\n      eq\n      tag_17\n      jumpi\n      dup1\n      0xdd62ed3e\n      eq\n      tag_18\n      jumpi\n      dup1\n      0xf2fde38b\n      eq\n      tag_19\n      jumpi\n      jump(tag_2)\n    tag_21:\n      dup1\n      0x715018a6\n      eq\n      tag_11\n      jumpi\n      dup1\n      0x7afa1eed\n      eq\n      tag_12\n      jumpi\n      dup1\n      0x893d20e8\n      eq\n      tag_13\n      jumpi\n      dup1\n      0x8da5cb5b\n      eq\n      tag_14\n      jumpi\n      jump(tag_2)\n    tag_20:\n      dup1\n      0x313ce567\n      gt\n      tag_22\n      jumpi\n      dup1\n      0x313ce567\n      eq\n      tag_7\n      jumpi\n      dup1\n      0x39509351\n      eq\n      tag_8\n      jumpi\n      dup1\n      0x54fd4d50\n      eq\n      tag_9\n      jumpi\n      dup1\n      0x70a08231\n      eq\n      tag_10\n      jumpi\n      jump(tag_2)\n    tag_22:\n      dup1\n      0x06fdde03\n      eq\n      tag_3\n      jumpi\n      dup1\n      0x095ea7b3\n      eq\n      tag_4\n      jumpi\n      dup1\n      0x18160ddd\n      eq\n      tag_5\n      jumpi\n      dup1\n      0x23b872dd\n      eq\n      tag_6\n      jumpi\n    tag_2:\n      0x00\n      dup1\n      revert\n        /* \"lost-20.sol\":9399:9497  function name() public view virtual override returns (string memory) {... */\n    tag_3:\n      tag_23\n      tag_24\n      jump\t// in\n    tag_23:\n      mload(0x40)\n      tag_25\n      swap2\n      swap1\n      tag_26\n      jump\t// in\n    tag_25:\n      mload(0x40)\n      dup1\n      swap2\n      sub\n      swap1\n      return\n        /* \"lost-20.sol\":12361:12527  function approve(address spender, uint256 amount) public virtual override returns (bool) {... */\n    tag_4:\n      tag_27\n      0x04\n      dup1\n      calldatasize\n      sub\n      dup2\n      add\n      swap1\n      tag_28\n      swap2\n      swap1\n      tag_29\n      jump\t// in\n    tag_28:\n      tag_30\n      jump\t// in\n    tag_27:\n      mload(0x40)\n      tag_31\n      swap2\n      swap1\n      tag_32\n      jump\t// in\n    tag_31:\n      mload(0x40)\n      dup1\n      swap2\n      sub\n      swap1\n      return\n        /* \"lost-20.sol\":10493:10599  function totalSupply() public view virtual override returns (uint256) {... */\n    tag_5:\n      tag_33\n      tag_34\n      jump\t// in\n    tag_33:\n      mload(0x40)\n      tag_35\n      swap2\n      swap1\n      tag_36\n      jump\t// in\n    tag_35:\n      mload(0x40)\n      dup1\n      swap2\n      sub\n      swap1\n      return\n        /* \"lost-20.sol\":11779:12223  function transferFrom(... */\n    tag_6:\n      tag_37\n      0x04\n      dup1\n      calldatasize\n      sub\n      dup2\n      add\n      swap1\n      tag_38\n      swap2\n      swap1\n      tag_39\n      jump\t// in\n    tag_38:\n      tag_40\n      jump\t// in\n    tag_37:\n      mload(0x40)\n      tag_41\n      swap2\n      swap1\n      tag_32\n      jump\t// in\n    tag_41:\n      mload(0x40)\n      dup1\n      swap2\n      sub\n      swap1\n      return\n        /* \"lost-20.sol\":10335:10433  function decimals() public view virtual override returns (uint8) {... */\n    tag_7:\n      tag_42\n      tag_43\n      jump\t// in\n    tag_42:\n      mload(0x40)\n      tag_44\n      swap2\n      swap1\n      tag_45\n      jump\t// in\n    tag_44:\n      mload(0x40)\n      dup1\n      swap2\n      sub\n      swap1\n      return\n        /* \"lost-20.sol\":13129:13341  function increaseAllowance(address spender, uint256 addedValue) public virtual returns (bool) {... */\n    tag_8:\n      tag_46\n      0x04\n      dup1\n      calldatasize\n      sub\n      dup2\n      add\n      swap1\n      tag_47\n      swap2\n      swap1\n      tag_29\n      jump\t// in\n    tag_47:\n      tag_48\n      jump\t// in\n    tag_46:\n      mload(0x40)\n      tag_49\n      swap2\n      swap1\n      tag_32\n      jump\t// in\n    tag_49:\n      mload(0x40)\n      dup1\n      swap2\n      sub\n      swap1\n      return\n        /* \"lost-20.sol\":19590:19677  function version() public view returns (string memory) {... */\n    tag_9:\n      tag_50\n      tag_51\n      jump\t// in\n    tag_50:\n      mload(0x40)\n      tag_52\n      swap2\n      swap1\n      tag_26\n      jump\t// in\n    tag_52:\n      mload(0x40)\n      dup1\n      swap2\n      sub\n      swap1\n      return\n        /* \"lost-20.sol\":10657:10782  function balanceOf(address account) public view virtual override returns (uint256) {... */\n    tag_10:\n      tag_53\n      0x04\n      dup1\n      calldatasize\n      sub\n      dup2\n      add\n      swap1\n      tag_54\n      swap2\n      swap1\n      tag_55\n      jump\t// in\n    tag_54:\n      tag_56\n      jump\t// in\n    tag_53:\n      mload(0x40)\n      tag_57\n      swap2\n      swap1\n      tag_36\n      jump\t// in\n    tag_57:\n      mload(0x40)\n      dup1\n      swap2\n      sub\n      swap1\n      return\n        /* \"lost-20.sol\":3623:3724  function renounceOwnership() public virtual onlyOwner {... */\n    tag_11:\n      tag_58\n      tag_59\n      jump\t// in\n    tag_58:\n      stop\n        /* \"lost-20.sol\":19428:19519  function generator() public pure returns (string memory) {... */\n    tag_12:\n      tag_60\n      tag_61\n      jump\t// in\n    tag_60:\n      mload(0x40)\n      tag_62\n      swap2\n      swap1\n      tag_26\n      jump\t// in\n    tag_62:\n      mload(0x40)\n      dup1\n      swap2\n      sub\n      swap1\n      return\n        /* \"lost-20.sol\":10839:10937  function getOwner() public view virtual override returns (address) {... */\n    tag_13:\n      tag_63\n      tag_64\n      jump\t// in\n    tag_63:\n      mload(0x40)\n      tag_65\n      swap2\n      swap1\n      tag_66\n      jump\t// in\n    tag_65:\n      mload(0x40)\n      dup1\n      swap2\n      sub\n      swap1\n      return\n        /* \"lost-20.sol\":2991:3076  function owner() public view virtual returns (address) {... */\n    tag_14:\n      tag_67\n      tag_68\n      jump\t// in\n    tag_67:\n      mload(0x40)\n      tag_69\n      swap2\n      swap1\n      tag_66\n      jump\t// in\n    tag_69:\n      mload(0x40)\n      dup1\n      swap2\n      sub\n      swap1\n      return\n        /* \"lost-20.sol\":9610:9712  function symbol() public view virtual override returns (string memory) {... */\n    tag_15:\n      tag_70\n      tag_71\n      jump\t// in\n    tag_70:\n      mload(0x40)\n      tag_72\n      swap2\n      swap1\n      tag_26\n      jump\t// in\n    tag_72:\n      mload(0x40)\n      dup1\n      swap2\n      sub\n      swap1\n      return\n        /* \"lost-20.sol\":13828:14199  function decreaseAllowance(address spender, uint256 subtractedValue) public virtual returns (bool) {... */\n    tag_16:\n      tag_73\n      0x04\n      dup1\n      calldatasize\n      sub\n      dup2\n      add\n      swap1\n      tag_74\n      swap2\n      swap1\n      tag_29\n      jump\t// in\n    tag_74:\n      tag_75\n      jump\t// in\n    tag_73:\n      mload(0x40)\n      tag_76\n      swap2\n      swap1\n      tag_32\n      jump\t// in\n    tag_76:\n      mload(0x40)\n      dup1\n      swap2\n      sub\n      swap1\n      return\n        /* \"lost-20.sol\":11140:11312  function transfer(address recipient, uint256 amount) public virtual override returns (bool) {... */\n    tag_17:\n      tag_77\n      0x04\n      dup1\n      calldatasize\n      sub\n      dup2\n      add\n      swap1\n      tag_78\n      swap2\n      swap1\n      tag_29\n      jump\t// in\n    tag_78:\n      tag_79\n      jump\t// in\n    tag_77:\n      mload(0x40)\n      tag_80\n      swap2\n      swap1\n      tag_32\n      jump\t// in\n    tag_80:\n      mload(0x40)\n      dup1\n      swap2\n      sub\n      swap1\n      return\n        /* \"lost-20.sol\":12585:12734  function allowance(address owner, address spender) public view virtual override returns (uint256) {... */\n    tag_18:\n      tag_81\n      0x04\n      dup1\n      calldatasize\n      sub\n      dup2\n      add\n      swap1\n      tag_82\n      swap2\n      swap1\n      tag_83\n      jump\t// in\n    tag_82:\n      tag_84\n      jump\t// in\n    tag_81:\n      mload(0x40)\n      tag_85\n      swap2\n      swap1\n      tag_36\n      jump\t// in\n    tag_85:\n      mload(0x40)\n      dup1\n      swap2\n      sub\n      swap1\n      return\n        /* \"lost-20.sol\":3873:4071  function transferOwnership(address newOwner) public virtual onlyOwner {... */\n    tag_19:\n      tag_86\n      0x04\n      dup1\n      calldatasize\n      sub\n      dup2\n      add\n      swap1\n      tag_87\n      swap2\n      swap1\n      tag_55\n      jump\t// in\n    tag_87:\n      tag_88\n      jump\t// in\n    tag_86:\n      stop\n        /* \"lost-20.sol\":9399:9497  function name() public view virtual override returns (string memory) {... */\n    tag_24:\n        /* \"lost-20.sol\":9453:9466  string memory */\n      0x60\n        /* \"lost-20.sol\":9485:9490  _name */\n      0x04\n        /* \"lost-20.sol\":9478:9490  return _name */\n      dup1\n      sload\n      tag_90\n      swap1\n      tag_91\n      jump\t// in\n    tag_90:\n      dup1\n      0x1f\n      add\n      0x20\n      dup1\n      swap2\n      div\n      mul\n      0x20\n      add\n      mload(0x40)\n      swap1\n      dup2\n      add\n      0x40\n      mstore\n      dup1\n      swap3\n      swap2\n      swap1\n      dup2\n      dup2\n      mstore\n      0x20\n      add\n      dup3\n      dup1\n      sload\n      tag_92\n      swap1\n      tag_91\n      jump\t// in\n    tag_92:\n      dup1\n      iszero\n      tag_93\n      jumpi\n      dup1\n      0x1f\n      lt\n      tag_94\n      jumpi\n      0x0100\n      dup1\n      dup4\n      sload\n      div\n      mul\n      dup4\n      mstore\n      swap2\n      0x20\n      add\n      swap2\n      jump(tag_93)\n    tag_94:\n      dup3\n      add\n      swap2\n      swap1\n      0x00\n      mstore\n      keccak256(0x00, 0x20)\n      swap1\n    tag_95:\n      dup2\n      sload\n      dup2\n      mstore\n      swap1\n      0x01\n      add\n      swap1\n      0x20\n      add\n      dup1\n      dup4\n      gt\n      tag_95\n      jumpi\n      dup3\n      swap1\n      sub\n      0x1f\n      and\n      dup3\n      add\n      swap2\n    tag_93:\n      pop\n      pop\n      pop\n      pop\n      pop\n      swap1\n      pop\n        /* \"lost-20.sol\":9399:9497  function name() public view virtual override returns (string memory) {... */\n      swap1\n      jump\t// out\n        /* \"lost-20.sol\":12361:12527  function approve(address spender, uint256 amount) public virtual override returns (bool) {... */\n    tag_30:\n        /* \"lost-20.sol\":12444:12448  bool */\n      0x00\n        /* \"lost-20.sol\":12460:12499  _approve(_msgSender(), spender, amount) */\n      tag_97\n        /* \"lost-20.sol\":12469:12481  _msgSender() */\n      tag_98\n        /* \"lost-20.sol\":12469:12479  _msgSender */\n      tag_99\n        /* \"lost-20.sol\":12469:12481  _msgSender() */\n      jump\t// in\n    tag_98:\n        /* \"lost-20.sol\":12483:12490  spender */\n      dup5\n        /* \"lost-20.sol\":12492:12498  amount */\n      dup5\n        /* \"lost-20.sol\":12460:12468  _approve */\n      tag_100\n        /* \"lost-20.sol\":12460:12499  _approve(_msgSender(), spender, amount) */\n      jump\t// in\n    tag_97:\n        /* \"lost-20.sol\":12516:12520  true */\n      0x01\n        /* \"lost-20.sol\":12509:12520  return true */\n      swap1\n      pop\n        /* \"lost-20.sol\":12361:12527  function approve(address spender, uint256 amount) public virtual override returns (bool) {... */\n      swap3\n      swap2\n      pop\n      pop\n      jump\t// out\n        /* \"lost-20.sol\":10493:10599  function totalSupply() public view virtual override returns (uint256) {... */\n    tag_34:\n        /* \"lost-20.sol\":10554:10561  uint256 */\n      0x00\n        /* \"lost-20.sol\":10580:10592  _totalSupply */\n      sload(0x03)\n        /* \"lost-20.sol\":10573:10592  return _totalSupply */\n      swap1\n      pop\n        /* \"lost-20.sol\":10493:10599  function totalSupply() public view virtual override returns (uint256) {... */\n      swap1\n      jump\t// out\n        /* \"lost-20.sol\":11779:12223  function transferFrom(... */\n    tag_40:\n        /* \"lost-20.sol\":11915:11919  bool */\n      0x00\n        /* \"lost-20.sol\":11931:11967  _transfer(sender, recipient, amount) */\n      tag_103\n        /* \"lost-20.sol\":11941:11947  sender */\n      dup5\n        /* \"lost-20.sol\":11949:11958  recipient */\n      dup5\n        /* \"lost-20.sol\":11960:11966  amount */\n      dup5\n        /* \"lost-20.sol\":11931:11940  _transfer */\n      tag_104\n        /* \"lost-20.sol\":11931:11967  _transfer(sender, recipient, amount) */\n      jump\t// in\n    tag_103:\n        /* \"lost-20.sol\":11978:12002  uint256 currentAllowance */\n      0x00\n        /* \"lost-20.sol\":12005:12016  _allowances */\n      0x02\n        /* \"lost-20.sol\":12005:12024  _allowances[sender] */\n      0x00\n        /* \"lost-20.sol\":12017:12023  sender */\n      dup7\n        /* \"lost-20.sol\":12005:12024  _allowances[sender] */\n      0xffffffffffffffffffffffffffffffffffffffff\n      and\n      0xffffffffffffffffffffffffffffffffffffffff\n      and\n      dup2\n      mstore\n      0x20\n      add\n      swap1\n      dup2\n      mstore\n      0x20\n      add\n      0x00\n      keccak256\n        /* \"lost-20.sol\":12005:12038  _allowances[sender][_msgSender()] */\n      0x00\n        /* \"lost-20.sol\":12025:12037  _msgSender() */\n      tag_105\n        /* \"lost-20.sol\":12025:12035  _msgSender */\n      tag_99\n        /* \"lost-20.sol\":12025:12037  _msgSender() */\n      jump\t// in\n    tag_105:\n        /* \"lost-20.sol\":12005:12038  _allowances[sender][_msgSender()] */\n      0xffffffffffffffffffffffffffffffffffffffff\n      and\n      0xffffffffffffffffffffffffffffffffffffffff\n      and\n      dup2\n      mstore\n      0x20\n      add\n      swap1\n      dup2\n      mstore\n      0x20\n      add\n      0x00\n      keccak256\n      sload\n        /* \"lost-20.sol\":11978:12038  uint256 currentAllowance = _allowances[sender][_msgSender()] */\n      swap1\n      pop\n        /* \"lost-20.sol\":12076:12082  amount */\n      dup3\n        /* \"lost-20.sol\":12056:12072  currentAllowance */\n      dup2\n        /* \"lost-20.sol\":12056:12082  currentAllowance >= amount */\n      lt\n      iszero\n        /* \"lost-20.sol\":12048:12127  require(currentAllowance >= amount, \"BEP20: transfer amount exceeds allowance\") */\n      tag_106\n      jumpi\n      mload(0x40)\n      0x08c379a000000000000000000000000000000000000000000000000000000000\n      dup2\n      mstore\n      0x04\n      add\n      tag_107\n      swap1\n      tag_108\n      jump\t// in\n    tag_107:\n      mload(0x40)\n      dup1\n      swap2\n      sub\n      swap1\n      revert\n    tag_106:\n        /* \"lost-20.sol\":12137:12194  _approve(sender, _msgSender(), currentAllowance - amount) */\n      tag_109\n        /* \"lost-20.sol\":12146:12152  sender */\n      dup6\n        /* \"lost-20.sol\":12154:12166  _msgSender() */\n      tag_110\n        /* \"lost-20.sol\":12154:12164  _msgSender */\n      tag_99\n        /* \"lost-20.sol\":12154:12166  _msgSender() */\n      jump\t// in\n    tag_110:\n        /* \"lost-20.sol\":12187:12193  amount */\n      dup6\n        /* \"lost-20.sol\":12168:12184  currentAllowance */\n      dup5\n        /* \"lost-20.sol\":12168:12193  currentAllowance - amount */\n      tag_111\n      swap2\n      swap1\n      tag_112\n      jump\t// in\n    tag_111:\n        /* \"lost-20.sol\":12137:12145  _approve */\n      tag_100\n        /* \"lost-20.sol\":12137:12194  _approve(sender, _msgSender(), currentAllowance - amount) */\n      jump\t// in\n    tag_109:\n        /* \"lost-20.sol\":12212:12216  true */\n      0x01\n        /* \"lost-20.sol\":12205:12216  return true */\n      swap2\n      pop\n      pop\n        /* \"lost-20.sol\":11779:12223  function transferFrom(... */\n      swap4\n      swap3\n      pop\n      pop\n      pop\n      jump\t// out\n        /* \"lost-20.sol\":10335:10433  function decimals() public view virtual override returns (uint8) {... */\n    tag_43:\n        /* \"lost-20.sol\":10393:10398  uint8 */\n      0x00\n        /* \"lost-20.sol\":10417:10426  _decimals */\n      0x06\n      0x00\n      swap1\n      sload\n      swap1\n      0x0100\n      exp\n      swap1\n      div\n      0xff\n      and\n        /* \"lost-20.sol\":10410:10426  return _decimals */\n      swap1\n      pop\n        /* \"lost-20.sol\":10335:10433  function decimals() public view virtual override returns (uint8) {... */\n      swap1\n      jump\t// out\n        /* \"lost-20.sol\":13129:13341  function increaseAllowance(address spender, uint256 addedValue) public virtual returns (bool) {... */\n    tag_48:\n        /* \"lost-20.sol\":13217:13221  bool */\n      0x00\n        /* \"lost-20.sol\":13233:13313  _approve(_msgSender(), spender, _allowances[_msgSender()][spender] + addedValue) */\n      tag_115\n        /* \"lost-20.sol\":13242:13254  _msgSender() */\n      tag_116\n        /* \"lost-20.sol\":13242:13252  _msgSender */\n      tag_99\n        /* \"lost-20.sol\":13242:13254  _msgSender() */\n      jump\t// in\n    tag_116:\n        /* \"lost-20.sol\":13256:13263  spender */\n      dup5\n        /* \"lost-20.sol\":13302:13312  addedValue */\n      dup5\n        /* \"lost-20.sol\":13265:13276  _allowances */\n      0x02\n        /* \"lost-20.sol\":13265:13290  _allowances[_msgSender()] */\n      0x00\n        /* \"lost-20.sol\":13277:13289  _msgSender() */\n      tag_117\n        /* \"lost-20.sol\":13277:13287  _msgSender */\n      tag_99\n        /* \"lost-20.sol\":13277:13289  _msgSender() */\n      jump\t// in\n    tag_117:\n        /* \"lost-20.sol\":13265:13290  _allowances[_msgSender()] */\n      0xffffffffffffffffffffffffffffffffffffffff\n      and\n      0xffffffffffffffffffffffffffffffffffffffff\n      and\n      dup2\n      mstore\n      0x20\n      add\n      swap1\n      dup2\n      mstore\n      0x20\n      add\n      0x00\n      keccak256\n        /* \"lost-20.sol\":13265:13299  _allowances[_msgSender()][spender] */\n      0x00\n        /* \"lost-20.sol\":13291:13298  spender */\n      dup9\n        /* \"lost-20.sol\":13265:13299  _allowances[_msgSender()][spender] */\n      0xffffffffffffffffffffffffffffffffffffffff\n      and\n      0xffffffffffffffffffffffffffffffffffffffff\n      and\n      dup2\n      mstore\n      0x20\n      add\n      swap1\n      dup2\n      mstore\n      0x20\n      add\n      0x00\n      keccak256\n      sload\n        /* \"lost-20.sol\":13265:13312  _allowances[_msgSender()][spender] + addedValue */\n      tag_118\n      swap2\n      swap1\n      tag_119\n      jump\t// in\n    tag_118:\n        /* \"lost-20.sol\":13233:13241  _approve */\n      tag_100\n        /* \"lost-20.sol\":13233:13313  _approve(_msgSender(), spender, _allowances[_msgSender()][spender] + addedValue) */\n      jump\t// in\n    tag_115:\n        /* \"lost-20.sol\":13330:13334  true */\n      0x01\n        /* \"lost-20.sol\":13323:13334  return true */\n      swap1\n      pop\n        /* \"lost-20.sol\":13129:13341  function increaseAllowance(address spender, uint256 addedValue) public virtual returns (bool) {... */\n      swap3\n      swap2\n      pop\n      pop\n      jump\t// out\n        /* \"lost-20.sol\":19590:19677  function version() public view returns (string memory) {... */\n    tag_51:\n        /* \"lost-20.sol\":19630:19643  string memory */\n      0x60\n        /* \"lost-20.sol\":19662:19670  _version */\n      0x07\n        /* \"lost-20.sol\":19655:19670  return _version */\n      dup1\n      sload\n      tag_121\n      swap1\n      tag_91\n      jump\t// in\n    tag_121:\n      dup1\n      0x1f\n      add\n      0x20\n      dup1\n      swap2\n      div\n      mul\n      0x20\n      add\n      mload(0x40)\n      swap1\n      dup2\n      add\n      0x40\n      mstore\n      dup1\n      swap3\n      swap2\n      swap1\n      dup2\n      dup2\n      mstore\n      0x20\n      add\n      dup3\n      dup1\n      sload\n      tag_122\n      swap1\n      tag_91\n      jump\t// in\n    tag_122:\n      dup1\n      iszero\n      tag_123\n      jumpi\n      dup1\n      0x1f\n      lt\n      tag_124\n      jumpi\n      0x0100\n      dup1\n      dup4\n      sload\n      div\n      mul\n      dup4\n      mstore\n      swap2\n      0x20\n      add\n      swap2\n      jump(tag_123)\n    tag_124:\n      dup3\n      add\n      swap2\n      swap1\n      0x00\n      mstore\n      keccak256(0x00, 0x20)\n      swap1\n    tag_125:\n      dup2\n      sload\n      dup2\n      mstore\n      swap1\n      0x01\n      add\n      swap1\n      0x20\n      add\n      dup1\n      dup4\n      gt\n      tag_125\n      jumpi\n      dup3\n      swap1\n      sub\n      0x1f\n      and\n      dup3\n      add\n      swap2\n    tag_123:\n      pop\n      pop\n      pop\n      pop\n      pop\n      swap1\n      pop\n        /* \"lost-20.sol\":19590:19677  function version() public view returns (string memory) {... */\n      swap1\n      jump\t// out\n        /* \"lost-20.sol\":10657:10782  function balanceOf(address account) public view virtual override returns (uint256) {... */\n    tag_56:\n        /* \"lost-20.sol\":10731:10738  uint256 */\n      0x00\n        /* \"lost-20.sol\":10757:10766  _balances */\n      0x01\n        /* \"lost-20.sol\":10757:10775  _balances[account] */\n      0x00\n        /* \"lost-20.sol\":10767:10774  account */\n      dup4\n        /* \"lost-20.sol\":10757:10775  _balances[account] */\n      0xffffffffffffffffffffffffffffffffffffffff\n      and\n      0xffffffffffffffffffffffffffffffffffffffff\n      and\n      dup2\n      mstore\n      0x20\n      add\n      swap1\n      dup2\n      mstore\n      0x20\n      add\n      0x00\n      keccak256\n      sload\n        /* \"lost-20.sol\":10750:10775  return _balances[account] */\n      swap1\n      pop\n        /* \"lost-20.sol\":10657:10782  function balanceOf(address account) public view virtual override returns (uint256) {... */\n      swap2\n      swap1\n      pop\n      jump\t// out\n        /* \"lost-20.sol\":3623:3724  function renounceOwnership() public virtual onlyOwner {... */\n    tag_59:\n        /* \"lost-20.sol\":3214:3226  _msgSender() */\n      tag_128\n        /* \"lost-20.sol\":3214:3224  _msgSender */\n      tag_99\n        /* \"lost-20.sol\":3214:3226  _msgSender() */\n      jump\t// in\n    tag_128:\n        /* \"lost-20.sol\":3203:3226  owner() == _msgSender() */\n      0xffffffffffffffffffffffffffffffffffffffff\n      and\n        /* \"lost-20.sol\":3203:3210  owner() */\n      tag_129\n        /* \"lost-20.sol\":3203:3208  owner */\n      tag_68\n        /* \"lost-20.sol\":3203:3210  owner() */\n      jump\t// in\n    tag_129:\n        /* \"lost-20.sol\":3203:3226  owner() == _msgSender() */\n      0xffffffffffffffffffffffffffffffffffffffff\n      and\n      eq\n        /* \"lost-20.sol\":3195:3263  require(owner() == _msgSender(), \"Ownable: caller is not the owner\") */\n      tag_130\n      jumpi\n      mload(0x40)\n      0x08c379a000000000000000000000000000000000000000000000000000000000\n      dup2\n      mstore\n      0x04\n      add\n      tag_131\n      swap1\n      tag_132\n      jump\t// in\n    tag_131:\n      mload(0x40)\n      dup1\n      swap2\n      sub\n      swap1\n      revert\n    tag_130:\n        /* \"lost-20.sol\":3687:3717  _transferOwnership(address(0)) */\n      tag_134\n        /* \"lost-20.sol\":3714:3715  0 */\n      0x00\n        /* \"lost-20.sol\":3687:3705  _transferOwnership */\n      tag_135\n        /* \"lost-20.sol\":3687:3717  _transferOwnership(address(0)) */\n      jump\t// in\n    tag_134:\n        /* \"lost-20.sol\":3623:3724  function renounceOwnership() public virtual onlyOwner {... */\n      jump\t// out\n        /* \"lost-20.sol\":19428:19519  function generator() public pure returns (string memory) {... */\n    tag_61:\n        /* \"lost-20.sol\":19470:19483  string memory */\n      0x60\n        /* \"lost-20.sol\":19502:19512  _GENERATOR */\n      mload(0x40)\n      dup1\n      0x40\n      add\n      0x40\n      mstore\n      dup1\n      0x13\n      dup2\n      mstore\n      0x20\n      add\n      0x4c6f73742047656e657261746f7220436f6d7000000000000000000000000000\n      dup2\n      mstore\n      pop\n        /* \"lost-20.sol\":19495:19512  return _GENERATOR */\n      swap1\n      pop\n        /* \"lost-20.sol\":19428:19519  function generator() public pure returns (string memory) {... */\n      swap1\n      jump\t// out\n        /* \"lost-20.sol\":10839:10937  function getOwner() public view virtual override returns (address) {... */\n    tag_64:\n        /* \"lost-20.sol\":10897:10904  address */\n      0x00\n        /* \"lost-20.sol\":10923:10930  owner() */\n      tag_138\n        /* \"lost-20.sol\":10923:10928  owner */\n      tag_68\n        /* \"lost-20.sol\":10923:10930  owner() */\n      jump\t// in\n    tag_138:\n        /* \"lost-20.sol\":10916:10930  return owner() */\n      swap1\n      pop\n        /* \"lost-20.sol\":10839:10937  function getOwner() public view virtual override returns (address) {... */\n      swap1\n      jump\t// out\n        /* \"lost-20.sol\":2991:3076  function owner() public view virtual returns (address) {... */\n    tag_68:\n        /* \"lost-20.sol\":3037:3044  address */\n      0x00\n        /* \"lost-20.sol\":3063:3069  _owner */\n      dup1\n      0x00\n      swap1\n      sload\n      swap1\n      0x0100\n      exp\n      swap1\n      div\n      0xffffffffffffffffffffffffffffffffffffffff\n      and\n        /* \"lost-20.sol\":3056:3069  return _owner */\n      swap1\n      pop\n        /* \"lost-20.sol\":2991:3076  function owner() public view virtual returns (address) {... */\n      swap1\n      jump\t// out\n        /* \"lost-20.sol\":9610:9712  function symbol() public view virtual override returns (string memory) {... */\n    tag_71:\n        /* \"lost-20.sol\":9666:9679  string memory */\n      0x60\n        /* \"lost-20.sol\":9698:9705  _symbol */\n      0x05\n        /* \"lost-20.sol\":9691:9705  return _symbol */\n      dup1\n      sload\n      tag_141\n      swap1\n      tag_91\n      jump\t// in\n    tag_141:\n      dup1\n      0x1f\n      add\n      0x20\n      dup1\n      swap2\n      div\n      mul\n      0x20\n      add\n      mload(0x40)\n      swap1\n      dup2\n      add\n      0x40\n      mstore\n      dup1\n      swap3\n      swap2\n      swap1\n      dup2\n      dup2\n      mstore\n      0x20\n      add\n      dup3\n      dup1\n      sload\n      tag_142\n      swap1\n      tag_91\n      jump\t// in\n    tag_142:\n      dup1\n      iszero\n      tag_143\n      jumpi\n      dup1\n      0x1f\n      lt\n      tag_144\n      jumpi\n      0x0100\n      dup1\n      dup4\n      sload\n      div\n      mul\n      dup4\n      mstore\n      swap2\n      0x20\n      add\n      swap2\n      jump(tag_143)\n    tag_144:\n      dup3\n      add\n      swap2\n      swap1\n      0x00\n      mstore\n      keccak256(0x00, 0x20)\n      swap1\n    tag_145:\n      dup2\n      sload\n      dup2\n      mstore\n      swap1\n      0x01\n      add\n      swap1\n      0x20\n      add\n      dup1\n      dup4\n      gt\n      tag_145\n      jumpi\n      dup3\n      swap1\n      sub\n      0x1f\n      and\n      dup3\n      add\n      swap2\n    tag_143:\n      pop\n      pop\n      pop\n      pop\n      pop\n      swap1\n      pop\n        /* \"lost-20.sol\":9610:9712  function symbol() public view virtual override returns (string memory) {... */\n      swap1\n      jump\t// out\n        /* \"lost-20.sol\":13828:14199  function decreaseAllowance(address spender, uint256 subtractedValue) public virtual returns (bool) {... */\n    tag_75:\n        /* \"lost-20.sol\":13921:13925  bool */\n      0x00\n        /* \"lost-20.sol\":13937:13961  uint256 currentAllowance */\n      dup1\n        /* \"lost-20.sol\":13964:13975  _allowances */\n      0x02\n        /* \"lost-20.sol\":13964:13989  _allowances[_msgSender()] */\n      0x00\n        /* \"lost-20.sol\":13976:13988  _msgSender() */\n      tag_147\n        /* \"lost-20.sol\":13976:13986  _msgSender */\n      tag_99\n        /* \"lost-20.sol\":13976:13988  _msgSender() */\n      jump\t// in\n    tag_147:\n        /* \"lost-20.sol\":13964:13989  _allowances[_msgSender()] */\n      0xffffffffffffffffffffffffffffffffffffffff\n      and\n      0xffffffffffffffffffffffffffffffffffffffff\n      and\n      dup2\n      mstore\n      0x20\n      add\n      swap1\n      dup2\n      mstore\n      0x20\n      add\n      0x00\n      keccak256\n        /* \"lost-20.sol\":13964:13998  _allowances[_msgSender()][spender] */\n      0x00\n        /* \"lost-20.sol\":13990:13997  spender */\n      dup6\n        /* \"lost-20.sol\":13964:13998  _allowances[_msgSender()][spender] */\n      0xffffffffffffffffffffffffffffffffffffffff\n      and\n      0xffffffffffffffffffffffffffffffffffffffff\n      and\n      dup2\n      mstore\n      0x20\n      add\n      swap1\n      dup2\n      mstore\n      0x20\n      add\n      0x00\n      keccak256\n      sload\n        /* \"lost-20.sol\":13937:13998  uint256 currentAllowance = _allowances[_msgSender()][spender] */\n      swap1\n      pop\n        /* \"lost-20.sol\":14036:14051  subtractedValue */\n      dup3\n        /* \"lost-20.sol\":14016:14032  currentAllowance */\n      dup2\n        /* \"lost-20.sol\":14016:14051  currentAllowance >= subtractedValue */\n      lt\n      iszero\n        /* \"lost-20.sol\":14008:14093  require(currentAllowance >= subtractedValue, \"BEP20: decreased allowance below zero\") */\n      tag_148\n      jumpi\n      mload(0x40)\n      0x08c379a000000000000000000000000000000000000000000000000000000000\n      dup2\n      mstore\n      0x04\n      add\n      tag_149\n      swap1\n      tag_150\n      jump\t// in\n    tag_149:\n      mload(0x40)\n      dup1\n      swap2\n      sub\n      swap1\n      revert\n    tag_148:\n        /* \"lost-20.sol\":14103:14170  _approve(_msgSender(), spender, currentAllowance - subtractedValue) */\n      tag_151\n        /* \"lost-20.sol\":14112:14124  _msgSender() */\n      tag_152\n        /* \"lost-20.sol\":14112:14122  _msgSender */\n      tag_99\n        /* \"lost-20.sol\":14112:14124  _msgSender() */\n      jump\t// in\n    tag_152:\n        /* \"lost-20.sol\":14126:14133  spender */\n      dup6\n        /* \"lost-20.sol\":14154:14169  subtractedValue */\n      dup6\n        /* \"lost-20.sol\":14135:14151  currentAllowance */\n      dup5\n        /* \"lost-20.sol\":14135:14169  currentAllowance - subtractedValue */\n      tag_153\n      swap2\n      swap1\n      tag_112\n      jump\t// in\n    tag_153:\n        /* \"lost-20.sol\":14103:14111  _approve */\n      tag_100\n        /* \"lost-20.sol\":14103:14170  _approve(_msgSender(), spender, currentAllowance - subtractedValue) */\n      jump\t// in\n    tag_151:\n        /* \"lost-20.sol\":14188:14192  true */\n      0x01\n        /* \"lost-20.sol\":14181:14192  return true */\n      swap2\n      pop\n      pop\n        /* \"lost-20.sol\":13828:14199  function decreaseAllowance(address spender, uint256 subtractedValue) public virtual returns (bool) {... */\n      swap3\n      swap2\n      pop\n      pop\n      jump\t// out\n        /* \"lost-20.sol\":11140:11312  function transfer(address recipient, uint256 amount) public virtual override returns (bool) {... */\n    tag_79:\n        /* \"lost-20.sol\":11226:11230  bool */\n      0x00\n        /* \"lost-20.sol\":11242:11284  _transfer(_msgSender(), recipient, amount) */\n      tag_155\n        /* \"lost-20.sol\":11252:11264  _msgSender() */\n      tag_156\n        /* \"lost-20.sol\":11252:11262  _msgSender */\n      tag_99\n        /* \"lost-20.sol\":11252:11264  _msgSender() */\n      jump\t// in\n    tag_156:\n        /* \"lost-20.sol\":11266:11275  recipient */\n      dup5\n        /* \"lost-20.sol\":11277:11283  amount */\n      dup5\n        /* \"lost-20.sol\":11242:11251  _transfer */\n      tag_104\n        /* \"lost-20.sol\":11242:11284  _transfer(_msgSender(), recipient, amount) */\n      jump\t// in\n    tag_155:\n        /* \"lost-20.sol\":11301:11305  true */\n      0x01\n        /* \"lost-20.sol\":11294:11305  return true */\n      swap1\n      pop\n        /* \"lost-20.sol\":11140:11312  function transfer(address recipient, uint256 amount) public virtual override returns (bool) {... */\n      swap3\n      swap2\n      pop\n      pop\n      jump\t// out\n        /* \"lost-20.sol\":12585:12734  function allowance(address owner, address spender) public view virtual override returns (uint256) {... */\n    tag_84:\n        /* \"lost-20.sol\":12674:12681  uint256 */\n      0x00\n        /* \"lost-20.sol\":12700:12711  _allowances */\n      0x02\n        /* \"lost-20.sol\":12700:12718  _allowances[owner] */\n      0x00\n        /* \"lost-20.sol\":12712:12717  owner */\n      dup5\n        /* \"lost-20.sol\":12700:12718  _allowances[owner] */\n      0xffffffffffffffffffffffffffffffffffffffff\n      and\n      0xffffffffffffffffffffffffffffffffffffffff\n      and\n      dup2\n      mstore\n      0x20\n      add\n      swap1\n      dup2\n      mstore\n      0x20\n      add\n      0x00\n      keccak256\n        /* \"lost-20.sol\":12700:12727  _allowances[owner][spender] */\n      0x00\n        /* \"lost-20.sol\":12719:12726  spender */\n      dup4\n        /* \"lost-20.sol\":12700:12727  _allowances[owner][spender] */\n      0xffffffffffffffffffffffffffffffffffffffff\n      and\n      0xffffffffffffffffffffffffffffffffffffffff\n      and\n      dup2\n      mstore\n      0x20\n      add\n      swap1\n      dup2\n      mstore\n      0x20\n      add\n      0x00\n      keccak256\n      sload\n        /* \"lost-20.sol\":12693:12727  return _allowances[owner][spender] */\n      swap1\n      pop\n        /* \"lost-20.sol\":12585:12734  function allowance(address owner, address spender) public view virtual override returns (uint256) {... */\n      swap3\n      swap2\n      pop\n      pop\n      jump\t// out\n        /* \"lost-20.sol\":3873:4071  function transferOwnership(address newOwner) public virtual onlyOwner {... */\n    tag_88:\n        /* \"lost-20.sol\":3214:3226  _msgSender() */\n      tag_159\n        /* \"lost-20.sol\":3214:3224  _msgSender */\n      tag_99\n        /* \"lost-20.sol\":3214:3226  _msgSender() */\n      jump\t// in\n    tag_159:\n        /* \"lost-20.sol\":3203:3226  owner() == _msgSender() */\n      0xffffffffffffffffffffffffffffffffffffffff\n      and\n        /* \"lost-20.sol\":3203:3210  owner() */\n      tag_160\n        /* \"lost-20.sol\":3203:3208  owner */\n      tag_68\n        /* \"lost-20.sol\":3203:3210  owner() */\n      jump\t// in\n    tag_160:\n        /* \"lost-20.sol\":3203:3226  owner() == _msgSender() */\n      0xffffffffffffffffffffffffffffffffffffffff\n      and\n      eq\n        /* \"lost-20.sol\":3195:3263  require(owner() == _msgSender(), \"Ownable: caller is not the owner\") */\n      tag_161\n      jumpi\n      mload(0x40)\n      0x08c379a000000000000000000000000000000000000000000000000000000000\n      dup2\n      mstore\n      0x04\n      add\n      tag_162\n      swap1\n      tag_132\n      jump\t// in\n    tag_162:\n      mload(0x40)\n      dup1\n      swap2\n      sub\n      swap1\n      revert\n    tag_161:\n        /* \"lost-20.sol\":3981:3982  0 */\n      0x00\n        /* \"lost-20.sol\":3961:3983  newOwner != address(0) */\n      0xffffffffffffffffffffffffffffffffffffffff\n      and\n        /* \"lost-20.sol\":3961:3969  newOwner */\n      dup2\n        /* \"lost-20.sol\":3961:3983  newOwner != address(0) */\n      0xffffffffffffffffffffffffffffffffffffffff\n      and\n      eq\n      iszero\n        /* \"lost-20.sol\":3953:4026  require(newOwner != address(0), \"Ownable: new owner is the zero address\") */\n      tag_164\n      jumpi\n      mload(0x40)\n      0x08c379a000000000000000000000000000000000000000000000000000000000\n      dup2\n      mstore\n      0x04\n      add\n      tag_165\n      swap1\n      tag_166\n      jump\t// in\n    tag_165:\n      mload(0x40)\n      dup1\n      swap2\n      sub\n      swap1\n      revert\n    tag_164:\n        /* \"lost-20.sol\":4036:4064  _transferOwnership(newOwner) */\n      tag_167\n        /* \"lost-20.sol\":4055:4063  newOwner */\n      dup2\n        /* \"lost-20.sol\":4036:4054  _transferOwnership */\n      tag_135\n        /* \"lost-20.sol\":4036:4064  _transferOwnership(newOwner) */\n      jump\t// in\n    tag_167:\n        /* \"lost-20.sol\":3873:4071  function transferOwnership(address newOwner) public virtual onlyOwner {... */\n      pop\n      jump\t// out\n        /* \"lost-20.sol\":1759:1855  function _msgSender() internal view virtual returns (address) {... */\n    tag_99:\n        /* \"lost-20.sol\":1812:1819  address */\n      0x00\n        /* \"lost-20.sol\":1838:1848  msg.sender */\n      caller\n        /* \"lost-20.sol\":1831:1848  return msg.sender */\n      swap1\n      pop\n        /* \"lost-20.sol\":1759:1855  function _msgSender() internal view virtual returns (address) {... */\n      swap1\n      jump\t// out\n        /* \"lost-20.sol\":17122:17492  function _approve(... */\n    tag_100:\n        /* \"lost-20.sol\":17270:17271  0 */\n      0x00\n        /* \"lost-20.sol\":17253:17272  owner != address(0) */\n      0xffffffffffffffffffffffffffffffffffffffff\n      and\n        /* \"lost-20.sol\":17253:17258  owner */\n      dup4\n        /* \"lost-20.sol\":17253:17272  owner != address(0) */\n      0xffffffffffffffffffffffffffffffffffffffff\n      and\n      eq\n      iszero\n        /* \"lost-20.sol\":17245:17313  require(owner != address(0), \"BEP20: approve from the zero address\") */\n      tag_170\n      jumpi\n      mload(0x40)\n      0x08c379a000000000000000000000000000000000000000000000000000000000\n      dup2\n      mstore\n      0x04\n      add\n      tag_171\n      swap1\n      tag_172\n      jump\t// in\n    tag_171:\n      mload(0x40)\n      dup1\n      swap2\n      sub\n      swap1\n      revert\n    tag_170:\n        /* \"lost-20.sol\":17350:17351  0 */\n      0x00\n        /* \"lost-20.sol\":17331:17352  spender != address(0) */\n      0xffffffffffffffffffffffffffffffffffffffff\n      and\n        /* \"lost-20.sol\":17331:17338  spender */\n      dup3\n        /* \"lost-20.sol\":17331:17352  spender != address(0) */\n      0xffffffffffffffffffffffffffffffffffffffff\n      and\n      eq\n      iszero\n        /* \"lost-20.sol\":17323:17391  require(spender != address(0), \"BEP20: approve to the zero address\") */\n      tag_173\n      jumpi\n      mload(0x40)\n      0x08c379a000000000000000000000000000000000000000000000000000000000\n      dup2\n      mstore\n      0x04\n      add\n      tag_174\n      swap1\n      tag_175\n      jump\t// in\n    tag_174:\n      mload(0x40)\n      dup1\n      swap2\n      sub\n      swap1\n      revert\n    tag_173:\n        /* \"lost-20.sol\":17432:17438  amount */\n      dup1\n        /* \"lost-20.sol\":17402:17413  _allowances */\n      0x02\n        /* \"lost-20.sol\":17402:17420  _allowances[owner] */\n      0x00\n        /* \"lost-20.sol\":17414:17419  owner */\n      dup6\n        /* \"lost-20.sol\":17402:17420  _allowances[owner] */\n      0xffffffffffffffffffffffffffffffffffffffff\n      and\n      0xffffffffffffffffffffffffffffffffffffffff\n      and\n      dup2\n      mstore\n      0x20\n      add\n      swap1\n      dup2\n      mstore\n      0x20\n      add\n      0x00\n      keccak256\n        /* \"lost-20.sol\":17402:17429  _allowances[owner][spender] */\n      0x00\n        /* \"lost-20.sol\":17421:17428  spender */\n      dup5\n        /* \"lost-20.sol\":17402:17429  _allowances[owner][spender] */\n      0xffffffffffffffffffffffffffffffffffffffff\n      and\n      0xffffffffffffffffffffffffffffffffffffffff\n      and\n      dup2\n      mstore\n      0x20\n      add\n      swap1\n      dup2\n      mstore\n      0x20\n      add\n      0x00\n      keccak256\n        /* \"lost-20.sol\":17402:17438  _allowances[owner][spender] = amount */\n      dup2\n      swap1\n      sstore\n      pop\n        /* \"lost-20.sol\":17469:17476  spender */\n      dup2\n        /* \"lost-20.sol\":17453:17485  Approval(owner, spender, amount) */\n      0xffffffffffffffffffffffffffffffffffffffff\n      and\n        /* \"lost-20.sol\":17462:17467  owner */\n      dup4\n        /* \"lost-20.sol\":17453:17485  Approval(owner, spender, amount) */\n      0xffffffffffffffffffffffffffffffffffffffff\n      and\n      0x8c5be1e5ebec7d5bd14f71427d1e84f3dd0314c0f7b2291e5b200ac8c7c3b925\n        /* \"lost-20.sol\":17478:17484  amount */\n      dup4\n        /* \"lost-20.sol\":17453:17485  Approval(owner, spender, amount) */\n      mload(0x40)\n      tag_176\n      swap2\n      swap1\n      tag_36\n      jump\t// in\n    tag_176:\n      mload(0x40)\n      dup1\n      swap2\n      sub\n      swap1\n      log3\n        /* \"lost-20.sol\":17122:17492  function _approve(... */\n      pop\n      pop\n      pop\n      jump\t// out\n        /* \"lost-20.sol\":14673:15295  function _transfer(... */\n    tag_104:\n        /* \"lost-20.sol\":14826:14827  0 */\n      0x00\n        /* \"lost-20.sol\":14808:14828  sender != address(0) */\n      0xffffffffffffffffffffffffffffffffffffffff\n      and\n        /* \"lost-20.sol\":14808:14814  sender */\n      dup4\n        /* \"lost-20.sol\":14808:14828  sender != address(0) */\n      0xffffffffffffffffffffffffffffffffffffffff\n      and\n      eq\n      iszero\n        /* \"lost-20.sol\":14800:14870  require(sender != address(0), \"BEP20: transfer from the zero address\") */\n      tag_178\n      jumpi\n      mload(0x40)\n      0x08c379a000000000000000000000000000000000000000000000000000000000\n      dup2\n      mstore\n      0x04\n      add\n      tag_179\n      swap1\n      tag_180\n      jump\t// in\n    tag_179:\n      mload(0x40)\n      dup1\n      swap2\n      sub\n      swap1\n      revert\n    tag_178:\n        /* \"lost-20.sol\":14909:14910  0 */\n      0x00\n        /* \"lost-20.sol\":14888:14911  recipient != address(0) */\n      0xffffffffffffffffffffffffffffffffffffffff\n      and\n        /* \"lost-20.sol\":14888:14897  recipient */\n      dup3\n        /* \"lost-20.sol\":14888:14911  recipient != address(0) */\n      0xffffffffffffffffffffffffffffffffffffffff\n      and\n      eq\n      iszero\n        /* \"lost-20.sol\":14880:14951  require(recipient != address(0), \"BEP20: transfer to the zero address\") */\n      tag_181\n      jumpi\n      mload(0x40)\n      0x08c379a000000000000000000000000000000000000000000000000000000000\n      dup2\n      mstore\n      0x04\n      add\n      tag_182\n      swap1\n      tag_183\n      jump\t// in\n    tag_182:\n      mload(0x40)\n      dup1\n      swap2\n      sub\n      swap1\n      revert\n    tag_181:\n        /* \"lost-20.sol\":14962:15009  _beforeTokenTransfer(sender, recipient, amount) */\n      tag_184\n        /* \"lost-20.sol\":14983:14989  sender */\n      dup4\n        /* \"lost-20.sol\":14991:15000  recipient */\n      dup4\n        /* \"lost-20.sol\":15002:15008  amount */\n      dup4\n        /* \"lost-20.sol\":14962:14982  _beforeTokenTransfer */\n      tag_185\n        /* \"lost-20.sol\":14962:15009  _beforeTokenTransfer(sender, recipient, amount) */\n      jump\t// in\n    tag_184:\n        /* \"lost-20.sol\":15020:15041  uint256 senderBalance */\n      0x00\n        /* \"lost-20.sol\":15044:15053  _balances */\n      0x01\n        /* \"lost-20.sol\":15044:15061  _balances[sender] */\n      0x00\n        /* \"lost-20.sol\":15054:15060  sender */\n      dup6\n        /* \"lost-20.sol\":15044:15061  _balances[sender] */\n      0xffffffffffffffffffffffffffffffffffffffff\n      and\n      0xffffffffffffffffffffffffffffffffffffffff\n      and\n      dup2\n      mstore\n      0x20\n      add\n      swap1\n      dup2\n      mstore\n      0x20\n      add\n      0x00\n      keccak256\n      sload\n        /* \"lost-20.sol\":15020:15061  uint256 senderBalance = _balances[sender] */\n      swap1\n      pop\n        /* \"lost-20.sol\":15096:15102  amount */\n      dup2\n        /* \"lost-20.sol\":15079:15092  senderBalance */\n      dup2\n        /* \"lost-20.sol\":15079:15102  senderBalance >= amount */\n      lt\n      iszero\n        /* \"lost-20.sol\":15071:15145  require(senderBalance >= amount, \"BEP20: transfer amount exceeds balance\") */\n      tag_186\n      jumpi\n      mload(0x40)\n      0x08c379a000000000000000000000000000000000000000000000000000000000\n      dup2\n      mstore\n      0x04\n      add\n      tag_187\n      swap1\n      tag_188\n      jump\t// in\n    tag_187:\n      mload(0x40)\n      dup1\n      swap2\n      sub\n      swap1\n      revert\n    tag_186:\n        /* \"lost-20.sol\":15191:15197  amount */\n      dup2\n        /* \"lost-20.sol\":15175:15188  senderBalance */\n      dup2\n        /* \"lost-20.sol\":15175:15197  senderBalance - amount */\n      tag_189\n      swap2\n      swap1\n      tag_112\n      jump\t// in\n    tag_189:\n        /* \"lost-20.sol\":15155:15164  _balances */\n      0x01\n        /* \"lost-20.sol\":15155:15172  _balances[sender] */\n      0x00\n        /* \"lost-20.sol\":15165:15171  sender */\n      dup7\n        /* \"lost-20.sol\":15155:15172  _balances[sender] */\n      0xffffffffffffffffffffffffffffffffffffffff\n      and\n      0xffffffffffffffffffffffffffffffffffffffff\n      and\n      dup2\n      mstore\n      0x20\n      add\n      swap1\n      dup2\n      mstore\n      0x20\n      add\n      0x00\n      keccak256\n        /* \"lost-20.sol\":15155:15197  _balances[sender] = senderBalance - amount */\n      dup2\n      swap1\n      sstore\n      pop\n        /* \"lost-20.sol\":15231:15237  amount */\n      dup2\n        /* \"lost-20.sol\":15207:15216  _balances */\n      0x01\n        /* \"lost-20.sol\":15207:15227  _balances[recipient] */\n      0x00\n        /* \"lost-20.sol\":15217:15226  recipient */\n      dup6\n        /* \"lost-20.sol\":15207:15227  _balances[recipient] */\n      0xffffffffffffffffffffffffffffffffffffffff\n      and\n      0xffffffffffffffffffffffffffffffffffffffff\n      and\n      dup2\n      mstore\n      0x20\n      add\n      swap1\n      dup2\n      mstore\n      0x20\n      add\n      0x00\n      keccak256\n      0x00\n        /* \"lost-20.sol\":15207:15237  _balances[recipient] += amount */\n      dup3\n      dup3\n      sload\n      tag_190\n      swap2\n      swap1\n      tag_119\n      jump\t// in\n    tag_190:\n      swap3\n      pop\n      pop\n      dup2\n      swap1\n      sstore\n      pop\n        /* \"lost-20.sol\":15270:15279  recipient */\n      dup3\n        /* \"lost-20.sol\":15253:15288  Transfer(sender, recipient, amount) */\n      0xffffffffffffffffffffffffffffffffffffffff\n      and\n        /* \"lost-20.sol\":15262:15268  sender */\n      dup5\n        /* \"lost-20.sol\":15253:15288  Transfer(sender, recipient, amount) */\n      0xffffffffffffffffffffffffffffffffffffffff\n      and\n      0xddf252ad1be2c89b69c2b068fc378daa952ba7f163c4a11628f55a4df523b3ef\n        /* \"lost-20.sol\":15281:15287  amount */\n      dup5\n        /* \"lost-20.sol\":15253:15288  Transfer(sender, recipient, amount) */\n      mload(0x40)\n      tag_191\n      swap2\n      swap1\n      tag_36\n      jump\t// in\n    tag_191:\n      mload(0x40)\n      dup1\n      swap2\n      sub\n      swap1\n      log3\n        /* \"lost-20.sol\":14790:15295  {... */\n      pop\n        /* \"lost-20.sol\":14673:15295  function _transfer(... */\n      pop\n      pop\n      pop\n      jump\t// out\n        /* \"lost-20.sol\":4225:4412  function _transferOwnership(address newOwner) internal virtual {... */\n    tag_135:\n        /* \"lost-20.sol\":4298:4314  address oldOwner */\n      0x00\n        /* \"lost-20.sol\":4317:4323  _owner */\n      dup1\n      0x00\n      swap1\n      sload\n      swap1\n      0x0100\n      exp\n      swap1\n      div\n      0xffffffffffffffffffffffffffffffffffffffff\n      and\n        /* \"lost-20.sol\":4298:4323  address oldOwner = _owner */\n      swap1\n      pop\n        /* \"lost-20.sol\":4342:4350  newOwner */\n      dup2\n        /* \"lost-20.sol\":4333:4339  _owner */\n      0x00\n      dup1\n        /* \"lost-20.sol\":4333:4350  _owner = newOwner */\n      0x0100\n      exp\n      dup2\n      sload\n      dup2\n      0xffffffffffffffffffffffffffffffffffffffff\n      mul\n      not\n      and\n      swap1\n      dup4\n      0xffffffffffffffffffffffffffffffffffffffff\n      and\n      mul\n      or\n      swap1\n      sstore\n      pop\n        /* \"lost-20.sol\":4396:4404  newOwner */\n      dup2\n        /* \"lost-20.sol\":4365:4405  OwnershipTransferred(oldOwner, newOwner) */\n      0xffffffffffffffffffffffffffffffffffffffff\n      and\n        /* \"lost-20.sol\":4386:4394  oldOwner */\n      dup2\n        /* \"lost-20.sol\":4365:4405  OwnershipTransferred(oldOwner, newOwner) */\n      0xffffffffffffffffffffffffffffffffffffffff\n      and\n      0x8be0079c531659141344cd1fd0a4f28419497f9722a3daafe3b4186f6b6457e0\n      mload(0x40)\n      mload(0x40)\n      dup1\n      swap2\n      sub\n      swap1\n      log3\n        /* \"lost-20.sol\":4288:4412  {... */\n      pop\n        /* \"lost-20.sol\":4225:4412  function _transferOwnership(address newOwner) internal virtual {... */\n      pop\n      jump\t// out\n        /* \"lost-20.sol\":18380:18501  function _beforeTokenTransfer(... */\n    tag_185:\n      pop\n      pop\n      pop\n      jump\t// out\n        /* \"#utility.yul\":7:146   */\n    tag_195:\n        /* \"#utility.yul\":53:58   */\n      0x00\n        /* \"#utility.yul\":91:97   */\n      dup2\n        /* \"#utility.yul\":78:98   */\n      calldataload\n        /* \"#utility.yul\":69:98   */\n      swap1\n      pop\n        /* \"#utility.yul\":107:140   */\n      tag_197\n        /* \"#utility.yul\":134:139   */\n      dup2\n        /* \"#utility.yul\":107:140   */\n      tag_198\n      jump\t// in\n    tag_197:\n        /* \"#utility.yul\":7:146   */\n      swap3\n      swap2\n      pop\n      pop\n      jump\t// out\n        /* \"#utility.yul\":152:291   */\n    tag_199:\n        /* \"#utility.yul\":198:203   */\n      0x00\n        /* \"#utility.yul\":236:242   */\n      dup2\n        /* \"#utility.yul\":223:243   */\n      calldataload\n        /* \"#utility.yul\":214:243   */\n      swap1\n      pop\n        /* \"#utility.yul\":252:285   */\n      tag_201\n        /* \"#utility.yul\":279:284   */\n      dup2\n        /* \"#utility.yul\":252:285   */\n      tag_202\n      jump\t// in\n    tag_201:\n        /* \"#utility.yul\":152:291   */\n      swap3\n      swap2\n      pop\n      pop\n      jump\t// out\n        /* \"#utility.yul\":297:626   */\n    tag_55:\n        /* \"#utility.yul\":356:362   */\n      0x00\n        /* \"#utility.yul\":405:407   */\n      0x20\n        /* \"#utility.yul\":393:402   */\n      dup3\n        /* \"#utility.yul\":384:391   */\n      dup5\n        /* \"#utility.yul\":380:403   */\n      sub\n        /* \"#utility.yul\":376:408   */\n      slt\n        /* \"#utility.yul\":373:492   */\n      iszero\n      tag_204\n      jumpi\n        /* \"#utility.yul\":411:490   */\n      tag_205\n      tag_206\n      jump\t// in\n    tag_205:\n        /* \"#utility.yul\":373:492   */\n    tag_204:\n        /* \"#utility.yul\":531:532   */\n      0x00\n        /* \"#utility.yul\":556:609   */\n      tag_207\n        /* \"#utility.yul\":601:608   */\n      dup5\n        /* \"#utility.yul\":592:598   */\n      dup3\n        /* \"#utility.yul\":581:590   */\n      dup6\n        /* \"#utility.yul\":577:599   */\n      add\n        /* \"#utility.yul\":556:609   */\n      tag_195\n      jump\t// in\n    tag_207:\n        /* \"#utility.yul\":546:609   */\n      swap2\n      pop\n        /* \"#utility.yul\":502:619   */\n      pop\n        /* \"#utility.yul\":297:626   */\n      swap3\n      swap2\n      pop\n      pop\n      jump\t// out\n        /* \"#utility.yul\":632:1106   */\n    tag_83:\n        /* \"#utility.yul\":700:706   */\n      0x00\n        /* \"#utility.yul\":708:714   */\n      dup1\n        /* \"#utility.yul\":757:759   */\n      0x40\n        /* \"#utility.yul\":745:754   */\n      dup4\n        /* \"#utility.yul\":736:743   */\n      dup6\n        /* \"#utility.yul\":732:755   */\n      sub\n        /* \"#utility.yul\":728:760   */\n      slt\n        /* \"#utility.yul\":725:844   */\n      iszero\n      tag_209\n      jumpi\n        /* \"#utility.yul\":763:842   */\n      tag_210\n      tag_206\n      jump\t// in\n    tag_210:\n        /* \"#utility.yul\":725:844   */\n    tag_209:\n        /* \"#utility.yul\":883:884   */\n      0x00\n        /* \"#utility.yul\":908:961   */\n      tag_211\n        /* \"#utility.yul\":953:960   */\n      dup6\n        /* \"#utility.yul\":944:950   */\n      dup3\n        /* \"#utility.yul\":933:942   */\n      dup7\n        /* \"#utility.yul\":929:951   */\n      add\n        /* \"#utility.yul\":908:961   */\n      tag_195\n      jump\t// in\n    tag_211:\n        /* \"#utility.yul\":898:961   */\n      swap3\n      pop\n        /* \"#utility.yul\":854:971   */\n      pop\n        /* \"#utility.yul\":1010:1012   */\n      0x20\n        /* \"#utility.yul\":1036:1089   */\n      tag_212\n        /* \"#utility.yul\":1081:1088   */\n      dup6\n        /* \"#utility.yul\":1072:1078   */\n      dup3\n        /* \"#utility.yul\":1061:1070   */\n      dup7\n        /* \"#utility.yul\":1057:1079   */\n      add\n        /* \"#utility.yul\":1036:1089   */\n      tag_195\n      jump\t// in\n    tag_212:\n        /* \"#utility.yul\":1026:1089   */\n      swap2\n      pop\n        /* \"#utility.yul\":981:1099   */\n      pop\n        /* \"#utility.yul\":632:1106   */\n      swap3\n      pop\n      swap3\n      swap1\n      pop\n      jump\t// out\n        /* \"#utility.yul\":1112:1731   */\n    tag_39:\n        /* \"#utility.yul\":1189:1195   */\n      0x00\n        /* \"#utility.yul\":1197:1203   */\n      dup1\n        /* \"#utility.yul\":1205:1211   */\n      0x00\n        /* \"#utility.yul\":1254:1256   */\n      0x60\n        /* \"#utility.yul\":1242:1251   */\n      dup5\n        /* \"#utility.yul\":1233:1240   */\n      dup7\n        /* \"#utility.yul\":1229:1252   */\n      sub\n        /* \"#utility.yul\":1225:1257   */\n      slt\n        /* \"#utility.yul\":1222:1341   */\n      iszero\n      tag_214\n      jumpi\n        /* \"#utility.yul\":1260:1339   */\n      tag_215\n      tag_206\n      jump\t// in\n    tag_215:\n        /* \"#utility.yul\":1222:1341   */\n    tag_214:\n        /* \"#utility.yul\":1380:1381   */\n      0x00\n        /* \"#utility.yul\":1405:1458   */\n      tag_216\n        /* \"#utility.yul\":1450:1457   */\n      dup7\n        /* \"#utility.yul\":1441:1447   */\n      dup3\n        /* \"#utility.yul\":1430:1439   */\n      dup8\n        /* \"#utility.yul\":1426:1448   */\n      add\n        /* \"#utility.yul\":1405:1458   */\n      tag_195\n      jump\t// in\n    tag_216:\n        /* \"#utility.yul\":1395:1458   */\n      swap4\n      pop\n        /* \"#utility.yul\":1351:1468   */\n      pop\n        /* \"#utility.yul\":1507:1509   */\n      0x20\n        /* \"#utility.yul\":1533:1586   */\n      tag_217\n        /* \"#utility.yul\":1578:1585   */\n      dup7\n        /* \"#utility.yul\":1569:1575   */\n      dup3\n        /* \"#utility.yul\":1558:1567   */\n      dup8\n        /* \"#utility.yul\":1554:1576   */\n      add\n        /* \"#utility.yul\":1533:1586   */\n      tag_195\n      jump\t// in\n    tag_217:\n        /* \"#utility.yul\":1523:1586   */\n      swap3\n      pop\n        /* \"#utility.yul\":1478:1596   */\n      pop\n        /* \"#utility.yul\":1635:1637   */\n      0x40\n        /* \"#utility.yul\":1661:1714   */\n      tag_218\n        /* \"#utility.yul\":1706:1713   */\n      dup7\n        /* \"#utility.yul\":1697:1703   */\n      dup3\n        /* \"#utility.yul\":1686:1695   */\n      dup8\n        /* \"#utility.yul\":1682:1704   */\n      add\n        /* \"#utility.yul\":1661:1714   */\n      tag_199\n      jump\t// in\n    tag_218:\n        /* \"#utility.yul\":1651:1714   */\n      swap2\n      pop\n        /* \"#utility.yul\":1606:1724   */\n      pop\n        /* \"#utility.yul\":1112:1731   */\n      swap3\n      pop\n      swap3\n      pop\n      swap3\n      jump\t// out\n        /* \"#utility.yul\":1737:2211   */\n    tag_29:\n        /* \"#utility.yul\":1805:1811   */\n      0x00\n        /* \"#utility.yul\":1813:1819   */\n      dup1\n        /* \"#utility.yul\":1862:1864   */\n      0x40\n        /* \"#utility.yul\":1850:1859   */\n      dup4\n        /* \"#utility.yul\":1841:1848   */\n      dup6\n        /* \"#utility.yul\":1837:1860   */\n      sub\n        /* \"#utility.yul\":1833:1865   */\n      slt\n        /* \"#utility.yul\":1830:1949   */\n      iszero\n      tag_220\n      jumpi\n        /* \"#utility.yul\":1868:1947   */\n      tag_221\n      tag_206\n      jump\t// in\n    tag_221:\n        /* \"#utility.yul\":1830:1949   */\n    tag_220:\n        /* \"#utility.yul\":1988:1989   */\n      0x00\n        /* \"#utility.yul\":2013:2066   */\n      tag_222\n        /* \"#utility.yul\":2058:2065   */\n      dup6\n        /* \"#utility.yul\":2049:2055   */\n      dup3\n        /* \"#utility.yul\":2038:2047   */\n      dup7\n        /* \"#utility.yul\":2034:2056   */\n      add\n        /* \"#utility.yul\":2013:2066   */\n      tag_195\n      jump\t// in\n    tag_222:\n        /* \"#utility.yul\":2003:2066   */\n      swap3\n      pop\n        /* \"#utility.yul\":1959:2076   */\n      pop\n        /* \"#utility.yul\":2115:2117   */\n      0x20\n        /* \"#utility.yul\":2141:2194   */\n      tag_223\n        /* \"#utility.yul\":2186:2193   */\n      dup6\n        /* \"#utility.yul\":2177:2183   */\n      dup3\n        /* \"#utility.yul\":2166:2175   */\n      dup7\n        /* \"#utility.yul\":2162:2184   */\n      add\n        /* \"#utility.yul\":2141:2194   */\n      tag_199\n      jump\t// in\n    tag_223:\n        /* \"#utility.yul\":2131:2194   */\n      swap2\n      pop\n        /* \"#utility.yul\":2086:2204   */\n      pop\n        /* \"#utility.yul\":1737:2211   */\n      swap3\n      pop\n      swap3\n      swap1\n      pop\n      jump\t// out\n        /* \"#utility.yul\":2217:2335   */\n    tag_224:\n        /* \"#utility.yul\":2304:2328   */\n      tag_226\n        /* \"#utility.yul\":2322:2327   */\n      dup2\n        /* \"#utility.yul\":2304:2328   */\n      tag_227\n      jump\t// in\n    tag_226:\n        /* \"#utility.yul\":2299:2302   */\n      dup3\n        /* \"#utility.yul\":2292:2329   */\n      mstore\n        /* \"#utility.yul\":2217:2335   */\n      pop\n      pop\n      jump\t// out\n        /* \"#utility.yul\":2341:2450   */\n    tag_228:\n        /* \"#utility.yul\":2422:2443   */\n      tag_230\n        /* \"#utility.yul\":2437:2442   */\n      dup2\n        /* \"#utility.yul\":2422:2443   */\n      tag_231\n      jump\t// in\n    tag_230:\n        /* \"#utility.yul\":2417:2420   */\n      dup3\n        /* \"#utility.yul\":2410:2444   */\n      mstore\n        /* \"#utility.yul\":2341:2450   */\n      pop\n      pop\n      jump\t// out\n        /* \"#utility.yul\":2456:2820   */\n    tag_232:\n        /* \"#utility.yul\":2544:2547   */\n      0x00\n        /* \"#utility.yul\":2572:2611   */\n      tag_234\n        /* \"#utility.yul\":2605:2610   */\n      dup3\n        /* \"#utility.yul\":2572:2611   */\n      tag_235\n      jump\t// in\n    tag_234:\n        /* \"#utility.yul\":2627:2698   */\n      tag_236\n        /* \"#utility.yul\":2691:2697   */\n      dup2\n        /* \"#utility.yul\":2686:2689   */\n      dup6\n        /* \"#utility.yul\":2627:2698   */\n      tag_237\n      jump\t// in\n    tag_236:\n        /* \"#utility.yul\":2620:2698   */\n      swap4\n      pop\n        /* \"#utility.yul\":2707:2759   */\n      tag_238\n        /* \"#utility.yul\":2752:2758   */\n      dup2\n        /* \"#utility.yul\":2747:2750   */\n      dup6\n        /* \"#utility.yul\":2740:2744   */\n      0x20\n        /* \"#utility.yul\":2733:2738   */\n      dup7\n        /* \"#utility.yul\":2729:2745   */\n      add\n        /* \"#utility.yul\":2707:2759   */\n      tag_239\n      jump\t// in\n    tag_238:\n        /* \"#utility.yul\":2784:2813   */\n      tag_240\n        /* \"#utility.yul\":2806:2812   */\n      dup2\n        /* \"#utility.yul\":2784:2813   */\n      tag_241\n      jump\t// in\n    tag_240:\n        /* \"#utility.yul\":2779:2782   */\n      dup5\n        /* \"#utility.yul\":2775:2814   */\n      add\n        /* \"#utility.yul\":2768:2814   */\n      swap2\n      pop\n        /* \"#utility.yul\":2548:2820   */\n      pop\n        /* \"#utility.yul\":2456:2820   */\n      swap3\n      swap2\n      pop\n      pop\n      jump\t// out\n        /* \"#utility.yul\":2826:3192   */\n    tag_242:\n        /* \"#utility.yul\":2968:2971   */\n      0x00\n        /* \"#utility.yul\":2989:3056   */\n      tag_244\n        /* \"#utility.yul\":3053:3055   */\n      0x25\n        /* \"#utility.yul\":3048:3051   */\n      dup4\n        /* \"#utility.yul\":2989:3056   */\n      tag_237\n      jump\t// in\n    tag_244:\n        /* \"#utility.yul\":2982:3056   */\n      swap2\n      pop\n        /* \"#utility.yul\":3065:3158   */\n      tag_245\n        /* \"#utility.yul\":3154:3157   */\n      dup3\n        /* \"#utility.yul\":3065:3158   */\n      tag_246\n      jump\t// in\n    tag_245:\n        /* \"#utility.yul\":3183:3185   */\n      0x40\n        /* \"#utility.yul\":3178:3181   */\n      dup3\n        /* \"#utility.yul\":3174:3186   */\n      add\n        /* \"#utility.yul\":3167:3186   */\n      swap1\n      pop\n        /* \"#utility.yul\":2826:3192   */\n      swap2\n      swap1\n      pop\n      jump\t// out\n        /* \"#utility.yul\":3198:3564   */\n    tag_247:\n        /* \"#utility.yul\":3340:3343   */\n      0x00\n        /* \"#utility.yul\":3361:3428   */\n      tag_249\n        /* \"#utility.yul\":3425:3427   */\n      0x24\n        /* \"#utility.yul\":3420:3423   */\n      dup4\n        /* \"#utility.yul\":3361:3428   */\n      tag_237\n      jump\t// in\n    tag_249:\n        /* \"#utility.yul\":3354:3428   */\n      swap2\n      pop\n        /* \"#utility.yul\":3437:3530   */\n      tag_250\n        /* \"#utility.yul\":3526:3529   */\n      dup3\n        /* \"#utility.yul\":3437:3530   */\n      tag_251\n      jump\t// in\n    tag_250:\n        /* \"#utility.yul\":3555:3557   */\n      0x40\n        /* \"#utility.yul\":3550:3553   */\n      dup3\n        /* \"#utility.yul\":3546:3558   */\n      add\n        /* \"#utility.yul\":3539:3558   */\n      swap1\n      pop\n        /* \"#utility.yul\":3198:3564   */\n      swap2\n      swap1\n      pop\n      jump\t// out\n        /* \"#utility.yul\":3570:3936   */\n    tag_252:\n        /* \"#utility.yul\":3712:3715   */\n      0x00\n        /* \"#utility.yul\":3733:3800   */\n      tag_254\n        /* \"#utility.yul\":3797:3799   */\n      0x26\n        /* \"#utility.yul\":3792:3795   */\n      dup4\n        /* \"#utility.yul\":3733:3800   */\n      tag_237\n      jump\t// in\n    tag_254:\n        /* \"#utility.yul\":3726:3800   */\n      swap2\n      pop\n        /* \"#utility.yul\":3809:3902   */\n      tag_255\n        /* \"#utility.yul\":3898:3901   */\n      dup3\n        /* \"#utility.yul\":3809:3902   */\n      tag_256\n      jump\t// in\n    tag_255:\n        /* \"#utility.yul\":3927:3929   */\n      0x40\n        /* \"#utility.yul\":3922:3925   */\n      dup3\n        /* \"#utility.yul\":3918:3930   */\n      add\n        /* \"#utility.yul\":3911:3930   */\n      swap1\n      pop\n        /* \"#utility.yul\":3570:3936   */\n      swap2\n      swap1\n      pop\n      jump\t// out\n        /* \"#utility.yul\":3942:4308   */\n    tag_257:\n        /* \"#utility.yul\":4084:4087   */\n      0x00\n        /* \"#utility.yul\":4105:4172   */\n      tag_259\n        /* \"#utility.yul\":4169:4171   */\n      0x28\n        /* \"#utility.yul\":4164:4167   */\n      dup4\n        /* \"#utility.yul\":4105:4172   */\n      tag_237\n      jump\t// in\n    tag_259:\n        /* \"#utility.yul\":4098:4172   */\n      swap2\n      pop\n        /* \"#utility.yul\":4181:4274   */\n      tag_260\n        /* \"#utility.yul\":4270:4273   */\n      dup3\n        /* \"#utility.yul\":4181:4274   */\n      tag_261\n      jump\t// in\n    tag_260:\n        /* \"#utility.yul\":4299:4301   */\n      0x40\n        /* \"#utility.yul\":4294:4297   */\n      dup3\n        /* \"#utility.yul\":4290:4302   */\n      add\n        /* \"#utility.yul\":4283:4302   */\n      swap1\n      pop\n        /* \"#utility.yul\":3942:4308   */\n      swap2\n      swap1\n      pop\n      jump\t// out\n        /* \"#utility.yul\":4314:4680   */\n    tag_262:\n        /* \"#utility.yul\":4456:4459   */\n      0x00\n        /* \"#utility.yul\":4477:4544   */\n      tag_264\n        /* \"#utility.yul\":4541:4543   */\n      0x20\n        /* \"#utility.yul\":4536:4539   */\n      dup4\n        /* \"#utility.yul\":4477:4544   */\n      tag_237\n      jump\t// in\n    tag_264:\n        /* \"#utility.yul\":4470:4544   */\n      swap2\n      pop\n        /* \"#utility.yul\":4553:4646   */\n      tag_265\n        /* \"#utility.yul\":4642:4645   */\n      dup3\n        /* \"#utility.yul\":4553:4646   */\n      tag_266\n      jump\t// in\n    tag_265:\n        /* \"#utility.yul\":4671:4673   */\n      0x20\n        /* \"#utility.yul\":4666:4669   */\n      dup3\n        /* \"#utility.yul\":4662:4674   */\n      add\n        /* \"#utility.yul\":4655:4674   */\n      swap1\n      pop\n        /* \"#utility.yul\":4314:4680   */\n      swap2\n      swap1\n      pop\n      jump\t// out\n        /* \"#utility.yul\":4686:5052   */\n    tag_267:\n        /* \"#utility.yul\":4828:4831   */\n      0x00\n        /* \"#utility.yul\":4849:4916   */\n      tag_269\n        /* \"#utility.yul\":4913:4915   */\n      0x26\n        /* \"#utility.yul\":4908:4911   */\n      dup4\n        /* \"#utility.yul\":4849:4916   */\n      tag_237\n      jump\t// in\n    tag_269:\n        /* \"#utility.yul\":4842:4916   */\n      swap2\n      pop\n        /* \"#utility.yul\":4925:5018   */\n      tag_270\n        /* \"#utility.yul\":5014:5017   */\n      dup3\n        /* \"#utility.yul\":4925:5018   */\n      tag_271\n      jump\t// in\n    tag_270:\n        /* \"#utility.yul\":5043:5045   */\n      0x40\n        /* \"#utility.yul\":5038:5041   */\n      dup3\n        /* \"#utility.yul\":5034:5046   */\n      add\n        /* \"#utility.yul\":5027:5046   */\n      swap1\n      pop\n        /* \"#utility.yul\":4686:5052   */\n      swap2\n      swap1\n      pop\n      jump\t// out\n        /* \"#utility.yul\":5058:5424   */\n    tag_272:\n        /* \"#utility.yul\":5200:5203   */\n      0x00\n        /* \"#utility.yul\":5221:5288   */\n      tag_274\n        /* \"#utility.yul\":5285:5287   */\n      0x23\n        /* \"#utility.yul\":5280:5283   */\n      dup4\n        /* \"#utility.yul\":5221:5288   */\n      tag_237\n      jump\t// in\n    tag_274:\n        /* \"#utility.yul\":5214:5288   */\n      swap2\n      pop\n        /* \"#utility.yul\":5297:5390   */\n      tag_275\n        /* \"#utility.yul\":5386:5389   */\n      dup3\n        /* \"#utility.yul\":5297:5390   */\n      tag_276\n      jump\t// in\n    tag_275:\n        /* \"#utility.yul\":5415:5417   */\n      0x40\n        /* \"#utility.yul\":5410:5413   */\n      dup3\n        /* \"#utility.yul\":5406:5418   */\n      add\n        /* \"#utility.yul\":5399:5418   */\n      swap1\n      pop\n        /* \"#utility.yul\":5058:5424   */\n      swap2\n      swap1\n      pop\n      jump\t// out\n        /* \"#utility.yul\":5430:5796   */\n    tag_277:\n        /* \"#utility.yul\":5572:5575   */\n      0x00\n        /* \"#utility.yul\":5593:5660   */\n      tag_279\n        /* \"#utility.yul\":5657:5659   */\n      0x25\n        /* \"#utility.yul\":5652:5655   */\n      dup4\n        /* \"#utility.yul\":5593:5660   */\n      tag_237\n      jump\t// in\n    tag_279:\n        /* \"#utility.yul\":5586:5660   */\n      swap2\n      pop\n        /* \"#utility.yul\":5669:5762   */\n      tag_280\n        /* \"#utility.yul\":5758:5761   */\n      dup3\n        /* \"#utility.yul\":5669:5762   */\n      tag_281\n      jump\t// in\n    tag_280:\n        /* \"#utility.yul\":5787:5789   */\n      0x40\n        /* \"#utility.yul\":5782:5785   */\n      dup3\n        /* \"#utility.yul\":5778:5790   */\n      add\n        /* \"#utility.yul\":5771:5790   */\n      swap1\n      pop\n        /* \"#utility.yul\":5430:5796   */\n      swap2\n      swap1\n      pop\n      jump\t// out\n        /* \"#utility.yul\":5802:6168   */\n    tag_282:\n        /* \"#utility.yul\":5944:5947   */\n      0x00\n        /* \"#utility.yul\":5965:6032   */\n      tag_284\n        /* \"#utility.yul\":6029:6031   */\n      0x22\n        /* \"#utility.yul\":6024:6027   */\n      dup4\n        /* \"#utility.yul\":5965:6032   */\n      tag_237\n      jump\t// in\n    tag_284:\n        /* \"#utility.yul\":5958:6032   */\n      swap2\n      pop\n        /* \"#utility.yul\":6041:6134   */\n      tag_285\n        /* \"#utility.yul\":6130:6133   */\n      dup3\n        /* \"#utility.yul\":6041:6134   */\n      tag_286\n      jump\t// in\n    tag_285:\n        /* \"#utility.yul\":6159:6161   */\n      0x40\n        /* \"#utility.yul\":6154:6157   */\n      dup3\n        /* \"#utility.yul\":6150:6162   */\n      add\n        /* \"#utility.yul\":6143:6162   */\n      swap1\n      pop\n        /* \"#utility.yul\":5802:6168   */\n      swap2\n      swap1\n      pop\n      jump\t// out\n        /* \"#utility.yul\":6174:6292   */\n    tag_287:\n        /* \"#utility.yul\":6261:6285   */\n      tag_289\n        /* \"#utility.yul\":6279:6284   */\n      dup2\n        /* \"#utility.yul\":6261:6285   */\n      tag_290\n      jump\t// in\n    tag_289:\n        /* \"#utility.yul\":6256:6259   */\n      dup3\n        /* \"#utility.yul\":6249:6286   */\n      mstore\n        /* \"#utility.yul\":6174:6292   */\n      pop\n      pop\n      jump\t// out\n        /* \"#utility.yul\":6298:6410   */\n    tag_291:\n        /* \"#utility.yul\":6381:6403   */\n      tag_293\n        /* \"#utility.yul\":6397:6402   */\n      dup2\n        /* \"#utility.yul\":6381:6403   */\n      tag_294\n      jump\t// in\n    tag_293:\n        /* \"#utility.yul\":6376:6379   */\n      dup3\n        /* \"#utility.yul\":6369:6404   */\n      mstore\n        /* \"#utility.yul\":6298:6410   */\n      pop\n      pop\n      jump\t// out\n        /* \"#utility.yul\":6416:6638   */\n    tag_66:\n        /* \"#utility.yul\":6509:6513   */\n      0x00\n        /* \"#utility.yul\":6547:6549   */\n      0x20\n        /* \"#utility.yul\":6536:6545   */\n      dup3\n        /* \"#utility.yul\":6532:6550   */\n      add\n        /* \"#utility.yul\":6524:6550   */\n      swap1\n      pop\n        /* \"#utility.yul\":6560:6631   */\n      tag_296\n        /* \"#utility.yul\":6628:6629   */\n      0x00\n        /* \"#utility.yul\":6617:6626   */\n      dup4\n        /* \"#utility.yul\":6613:6630   */\n      add\n        /* \"#utility.yul\":6604:6610   */\n      dup5\n        /* \"#utility.yul\":6560:6631   */\n      tag_224\n      jump\t// in\n    tag_296:\n        /* \"#utility.yul\":6416:6638   */\n      swap3\n      swap2\n      pop\n      pop\n      jump\t// out\n        /* \"#utility.yul\":6644:6854   */\n    tag_32:\n        /* \"#utility.yul\":6731:6735   */\n      0x00\n        /* \"#utility.yul\":6769:6771   */\n      0x20\n        /* \"#utility.yul\":6758:6767   */\n      dup3\n        /* \"#utility.yul\":6754:6772   */\n      add\n        /* \"#utility.yul\":6746:6772   */\n      swap1\n      pop\n        /* \"#utility.yul\":6782:6847   */\n      tag_298\n        /* \"#utility.yul\":6844:6845   */\n      0x00\n        /* \"#utility.yul\":6833:6842   */\n      dup4\n        /* \"#utility.yul\":6829:6846   */\n      add\n        /* \"#utility.yul\":6820:6826   */\n      dup5\n        /* \"#utility.yul\":6782:6847   */\n      tag_228\n      jump\t// in\n    tag_298:\n        /* \"#utility.yul\":6644:6854   */\n      swap3\n      swap2\n      pop\n      pop\n      jump\t// out\n        /* \"#utility.yul\":6860:7173   */\n    tag_26:\n        /* \"#utility.yul\":6973:6977   */\n      0x00\n        /* \"#utility.yul\":7011:7013   */\n      0x20\n        /* \"#utility.yul\":7000:7009   */\n      dup3\n        /* \"#utility.yul\":6996:7014   */\n      add\n        /* \"#utility.yul\":6988:7014   */\n      swap1\n      pop\n        /* \"#utility.yul\":7060:7069   */\n      dup2\n        /* \"#utility.yul\":7054:7058   */\n      dup2\n        /* \"#utility.yul\":7050:7070   */\n      sub\n        /* \"#utility.yul\":7046:7047   */\n      0x00\n        /* \"#utility.yul\":7035:7044   */\n      dup4\n        /* \"#utility.yul\":7031:7048   */\n      add\n        /* \"#utility.yul\":7024:7071   */\n      mstore\n        /* \"#utility.yul\":7088:7166   */\n      tag_300\n        /* \"#utility.yul\":7161:7165   */\n      dup2\n        /* \"#utility.yul\":7152:7158   */\n      dup5\n        /* \"#utility.yul\":7088:7166   */\n      tag_232\n      jump\t// in\n    tag_300:\n        /* \"#utility.yul\":7080:7166   */\n      swap1\n      pop\n        /* \"#utility.yul\":6860:7173   */\n      swap3\n      swap2\n      pop\n      pop\n      jump\t// out\n        /* \"#utility.yul\":7179:7598   */\n    tag_180:\n        /* \"#utility.yul\":7345:7349   */\n      0x00\n        /* \"#utility.yul\":7383:7385   */\n      0x20\n        /* \"#utility.yul\":7372:7381   */\n      dup3\n        /* \"#utility.yul\":7368:7386   */\n      add\n        /* \"#utility.yul\":7360:7386   */\n      swap1\n      pop\n        /* \"#utility.yul\":7432:7441   */\n      dup2\n        /* \"#utility.yul\":7426:7430   */\n      dup2\n        /* \"#utility.yul\":7422:7442   */\n      sub\n        /* \"#utility.yul\":7418:7419   */\n      0x00\n        /* \"#utility.yul\":7407:7416   */\n      dup4\n        /* \"#utility.yul\":7403:7420   */\n      add\n        /* \"#utility.yul\":7396:7443   */\n      mstore\n        /* \"#utility.yul\":7460:7591   */\n      tag_302\n        /* \"#utility.yul\":7586:7590   */\n      dup2\n        /* \"#utility.yul\":7460:7591   */\n      tag_242\n      jump\t// in\n    tag_302:\n        /* \"#utility.yul\":7452:7591   */\n      swap1\n      pop\n        /* \"#utility.yul\":7179:7598   */\n      swap2\n      swap1\n      pop\n      jump\t// out\n        /* \"#utility.yul\":7604:8023   */\n    tag_172:\n        /* \"#utility.yul\":7770:7774   */\n      0x00\n        /* \"#utility.yul\":7808:7810   */\n      0x20\n        /* \"#utility.yul\":7797:7806   */\n      dup3\n        /* \"#utility.yul\":7793:7811   */\n      add\n        /* \"#utility.yul\":7785:7811   */\n      swap1\n      pop\n        /* \"#utility.yul\":7857:7866   */\n      dup2\n        /* \"#utility.yul\":7851:7855   */\n      dup2\n        /* \"#utility.yul\":7847:7867   */\n      sub\n        /* \"#utility.yul\":7843:7844   */\n      0x00\n        /* \"#utility.yul\":7832:7841   */\n      dup4\n        /* \"#utility.yul\":7828:7845   */\n      add\n        /* \"#utility.yul\":7821:7868   */\n      mstore\n        /* \"#utility.yul\":7885:8016   */\n      tag_304\n        /* \"#utility.yul\":8011:8015   */\n      dup2\n        /* \"#utility.yul\":7885:8016   */\n      tag_247\n      jump\t// in\n    tag_304:\n        /* \"#utility.yul\":7877:8016   */\n      swap1\n      pop\n        /* \"#utility.yul\":7604:8023   */\n      swap2\n      swap1\n      pop\n      jump\t// out\n        /* \"#utility.yul\":8029:8448   */\n    tag_166:\n        /* \"#utility.yul\":8195:8199   */\n      0x00\n        /* \"#utility.yul\":8233:8235   */\n      0x20\n        /* \"#utility.yul\":8222:8231   */\n      dup3\n        /* \"#utility.yul\":8218:8236   */\n      add\n        /* \"#utility.yul\":8210:8236   */\n      swap1\n      pop\n        /* \"#utility.yul\":8282:8291   */\n      dup2\n        /* \"#utility.yul\":8276:8280   */\n      dup2\n        /* \"#utility.yul\":8272:8292   */\n      sub\n        /* \"#utility.yul\":8268:8269   */\n      0x00\n        /* \"#utility.yul\":8257:8266   */\n      dup4\n        /* \"#utility.yul\":8253:8270   */\n      add\n        /* \"#utility.yul\":8246:8293   */\n      mstore\n        /* \"#utility.yul\":8310:8441   */\n      tag_306\n        /* \"#utility.yul\":8436:8440   */\n      dup2\n        /* \"#utility.yul\":8310:8441   */\n      tag_252\n      jump\t// in\n    tag_306:\n        /* \"#utility.yul\":8302:8441   */\n      swap1\n      pop\n        /* \"#utility.yul\":8029:8448   */\n      swap2\n      swap1\n      pop\n      jump\t// out\n        /* \"#utility.yul\":8454:8873   */\n    tag_108:\n        /* \"#utility.yul\":8620:8624   */\n      0x00\n        /* \"#utility.yul\":8658:8660   */\n      0x20\n        /* \"#utility.yul\":8647:8656   */\n      dup3\n        /* \"#utility.yul\":8643:8661   */\n      add\n        /* \"#utility.yul\":8635:8661   */\n      swap1\n      pop\n        /* \"#utility.yul\":8707:8716   */\n      dup2\n        /* \"#utility.yul\":8701:8705   */\n      dup2\n        /* \"#utility.yul\":8697:8717   */\n      sub\n        /* \"#utility.yul\":8693:8694   */\n      0x00\n        /* \"#utility.yul\":8682:8691   */\n      dup4\n        /* \"#utility.yul\":8678:8695   */\n      add\n        /* \"#utility.yul\":8671:8718   */\n      mstore\n        /* \"#utility.yul\":8735:8866   */\n      tag_308\n        /* \"#utility.yul\":8861:8865   */\n      dup2\n        /* \"#utility.yul\":8735:8866   */\n      tag_257\n      jump\t// in\n    tag_308:\n        /* \"#utility.yul\":8727:8866   */\n      swap1\n      pop\n        /* \"#utility.yul\":8454:8873   */\n      swap2\n      swap1\n      pop\n      jump\t// out\n        /* \"#utility.yul\":8879:9298   */\n    tag_132:\n        /* \"#utility.yul\":9045:9049   */\n      0x00\n        /* \"#utility.yul\":9083:9085   */\n      0x20\n        /* \"#utility.yul\":9072:9081   */\n      dup3\n        /* \"#utility.yul\":9068:9086   */\n      add\n        /* \"#utility.yul\":9060:9086   */\n      swap1\n      pop\n        /* \"#utility.yul\":9132:9141   */\n      dup2\n        /* \"#utility.yul\":9126:9130   */\n      dup2\n        /* \"#utility.yul\":9122:9142   */\n      sub\n        /* \"#utility.yul\":9118:9119   */\n      0x00\n        /* \"#utility.yul\":9107:9116   */\n      dup4\n        /* \"#utility.yul\":9103:9120   */\n      add\n        /* \"#utility.yul\":9096:9143   */\n      mstore\n        /* \"#utility.yul\":9160:9291   */\n      tag_310\n        /* \"#utility.yul\":9286:9290   */\n      dup2\n        /* \"#utility.yul\":9160:9291   */\n      tag_262\n      jump\t// in\n    tag_310:\n        /* \"#utility.yul\":9152:9291   */\n      swap1\n      pop\n        /* \"#utility.yul\":8879:9298   */\n      swap2\n      swap1\n      pop\n      jump\t// out\n        /* \"#utility.yul\":9304:9723   */\n    tag_188:\n        /* \"#utility.yul\":9470:9474   */\n      0x00\n        /* \"#utility.yul\":9508:9510   */\n      0x20\n        /* \"#utility.yul\":9497:9506   */\n      dup3\n        /* \"#utility.yul\":9493:9511   */\n      add\n        /* \"#utility.yul\":9485:9511   */\n      swap1\n      pop\n        /* \"#utility.yul\":9557:9566   */\n      dup2\n        /* \"#utility.yul\":9551:9555   */\n      dup2\n        /* \"#utility.yul\":9547:9567   */\n      sub\n        /* \"#utility.yul\":9543:9544   */\n      0x00\n        /* \"#utility.yul\":9532:9541   */\n      dup4\n        /* \"#utility.yul\":9528:9545   */\n      add\n        /* \"#utility.yul\":9521:9568   */\n      mstore\n        /* \"#utility.yul\":9585:9716   */\n      tag_312\n        /* \"#utility.yul\":9711:9715   */\n      dup2\n        /* \"#utility.yul\":9585:9716   */\n      tag_267\n      jump\t// in\n    tag_312:\n        /* \"#utility.yul\":9577:9716   */\n      swap1\n      pop\n        /* \"#utility.yul\":9304:9723   */\n      swap2\n      swap1\n      pop\n      jump\t// out\n        /* \"#utility.yul\":9729:10148   */\n    tag_183:\n        /* \"#utility.yul\":9895:9899   */\n      0x00\n        /* \"#utility.yul\":9933:9935   */\n      0x20\n        /* \"#utility.yul\":9922:9931   */\n      dup3\n        /* \"#utility.yul\":9918:9936   */\n      add\n        /* \"#utility.yul\":9910:9936   */\n      swap1\n      pop\n        /* \"#utility.yul\":9982:9991   */\n      dup2\n        /* \"#utility.yul\":9976:9980   */\n      dup2\n        /* \"#utility.yul\":9972:9992   */\n      sub\n        /* \"#utility.yul\":9968:9969   */\n      0x00\n        /* \"#utility.yul\":9957:9966   */\n      dup4\n        /* \"#utility.yul\":9953:9970   */\n      add\n        /* \"#utility.yul\":9946:9993   */\n      mstore\n        /* \"#utility.yul\":10010:10141   */\n      tag_314\n        /* \"#utility.yul\":10136:10140   */\n      dup2\n        /* \"#utility.yul\":10010:10141   */\n      tag_272\n      jump\t// in\n    tag_314:\n        /* \"#utility.yul\":10002:10141   */\n      swap1\n      pop\n        /* \"#utility.yul\":9729:10148   */\n      swap2\n      swap1\n      pop\n      jump\t// out\n        /* \"#utility.yul\":10154:10573   */\n    tag_150:\n        /* \"#utility.yul\":10320:10324   */\n      0x00\n        /* \"#utility.yul\":10358:10360   */\n      0x20\n        /* \"#utility.yul\":10347:10356   */\n      dup3\n        /* \"#utility.yul\":10343:10361   */\n      add\n        /* \"#utility.yul\":10335:10361   */\n      swap1\n      pop\n        /* \"#utility.yul\":10407:10416   */\n      dup2\n        /* \"#utility.yul\":10401:10405   */\n      dup2\n        /* \"#utility.yul\":10397:10417   */\n      sub\n        /* \"#utility.yul\":10393:10394   */\n      0x00\n        /* \"#utility.yul\":10382:10391   */\n      dup4\n        /* \"#utility.yul\":10378:10395   */\n      add\n        /* \"#utility.yul\":10371:10418   */\n      mstore\n        /* \"#utility.yul\":10435:10566   */\n      tag_316\n        /* \"#utility.yul\":10561:10565   */\n      dup2\n        /* \"#utility.yul\":10435:10566   */\n      tag_277\n      jump\t// in\n    tag_316:\n        /* \"#utility.yul\":10427:10566   */\n      swap1\n      pop\n        /* \"#utility.yul\":10154:10573   */\n      swap2\n      swap1\n      pop\n      jump\t// out\n        /* \"#utility.yul\":10579:10998   */\n    tag_175:\n        /* \"#utility.yul\":10745:10749   */\n      0x00\n        /* \"#utility.yul\":10783:10785   */\n      0x20\n        /* \"#utility.yul\":10772:10781   */\n      dup3\n        /* \"#utility.yul\":10768:10786   */\n      add\n        /* \"#utility.yul\":10760:10786   */\n      swap1\n      pop\n        /* \"#utility.yul\":10832:10841   */\n      dup2\n        /* \"#utility.yul\":10826:10830   */\n      dup2\n        /* \"#utility.yul\":10822:10842   */\n      sub\n        /* \"#utility.yul\":10818:10819   */\n      0x00\n        /* \"#utility.yul\":10807:10816   */\n      dup4\n        /* \"#utility.yul\":10803:10820   */\n      add\n        /* \"#utility.yul\":10796:10843   */\n      mstore\n        /* \"#utility.yul\":10860:10991   */\n      tag_318\n        /* \"#utility.yul\":10986:10990   */\n      dup2\n        /* \"#utility.yul\":10860:10991   */\n      tag_282\n      jump\t// in\n    tag_318:\n        /* \"#utility.yul\":10852:10991   */\n      swap1\n      pop\n        /* \"#utility.yul\":10579:10998   */\n      swap2\n      swap1\n      pop\n      jump\t// out\n        /* \"#utility.yul\":11004:11226   */\n    tag_36:\n        /* \"#utility.yul\":11097:11101   */\n      0x00\n        /* \"#utility.yul\":11135:11137   */\n      0x20\n        /* \"#utility.yul\":11124:11133   */\n      dup3\n        /* \"#utility.yul\":11120:11138   */\n      add\n        /* \"#utility.yul\":11112:11138   */\n      swap1\n      pop\n        /* \"#utility.yul\":11148:11219   */\n      tag_320\n        /* \"#utility.yul\":11216:11217   */\n      0x00\n        /* \"#utility.yul\":11205:11214   */\n      dup4\n        /* \"#utility.yul\":11201:11218   */\n      add\n        /* \"#utility.yul\":11192:11198   */\n      dup5\n        /* \"#utility.yul\":11148:11219   */\n      tag_287\n      jump\t// in\n    tag_320:\n        /* \"#utility.yul\":11004:11226   */\n      swap3\n      swap2\n      pop\n      pop\n      jump\t// out\n        /* \"#utility.yul\":11232:11446   */\n    tag_45:\n        /* \"#utility.yul\":11321:11325   */\n      0x00\n        /* \"#utility.yul\":11359:11361   */\n      0x20\n        /* \"#utility.yul\":11348:11357   */\n      dup3\n        /* \"#utility.yul\":11344:11362   */\n      add\n        /* \"#utility.yul\":11336:11362   */\n      swap1\n      pop\n        /* \"#utility.yul\":11372:11439   */\n      tag_322\n        /* \"#utility.yul\":11436:11437   */\n      0x00\n        /* \"#utility.yul\":11425:11434   */\n      dup4\n        /* \"#utility.yul\":11421:11438   */\n      add\n        /* \"#utility.yul\":11412:11418   */\n      dup5\n        /* \"#utility.yul\":11372:11439   */\n      tag_291\n      jump\t// in\n    tag_322:\n        /* \"#utility.yul\":11232:11446   */\n      swap3\n      swap2\n      pop\n      pop\n      jump\t// out\n        /* \"#utility.yul\":11533:11632   */\n    tag_235:\n        /* \"#utility.yul\":11585:11591   */\n      0x00\n        /* \"#utility.yul\":11619:11624   */\n      dup2\n        /* \"#utility.yul\":11613:11625   */\n      mload\n        /* \"#utility.yul\":11603:11625   */\n      swap1\n      pop\n        /* \"#utility.yul\":11533:11632   */\n      swap2\n      swap1\n      pop\n      jump\t// out\n        /* \"#utility.yul\":11638:11807   */\n    tag_237:\n        /* \"#utility.yul\":11722:11733   */\n      0x00\n        /* \"#utility.yul\":11756:11762   */\n      dup3\n        /* \"#utility.yul\":11751:11754   */\n      dup3\n        /* \"#utility.yul\":11744:11763   */\n      mstore\n        /* \"#utility.yul\":11796:11800   */\n      0x20\n        /* \"#utility.yul\":11791:11794   */\n      dup3\n        /* \"#utility.yul\":11787:11801   */\n      add\n        /* \"#utility.yul\":11772:11801   */\n      swap1\n      pop\n        /* \"#utility.yul\":11638:11807   */\n      swap3\n      swap2\n      pop\n      pop\n      jump\t// out\n        /* \"#utility.yul\":11813:12118   */\n    tag_119:\n        /* \"#utility.yul\":11853:11856   */\n      0x00\n        /* \"#utility.yul\":11872:11892   */\n      tag_328\n        /* \"#utility.yul\":11890:11891   */\n      dup3\n        /* \"#utility.yul\":11872:11892   */\n      tag_290\n      jump\t// in\n    tag_328:\n        /* \"#utility.yul\":11867:11892   */\n      swap2\n      pop\n        /* \"#utility.yul\":11906:11926   */\n      tag_329\n        /* \"#utility.yul\":11924:11925   */\n      dup4\n        /* \"#utility.yul\":11906:11926   */\n      tag_290\n      jump\t// in\n    tag_329:\n        /* \"#utility.yul\":11901:11926   */\n      swap3\n      pop\n        /* \"#utility.yul\":12060:12061   */\n      dup3\n        /* \"#utility.yul\":11992:12058   */\n      0xffffffffffffffffffffffffffffffffffffffffffffffffffffffffffffffff\n        /* \"#utility.yul\":11988:12062   */\n      sub\n        /* \"#utility.yul\":11985:11986   */\n      dup3\n        /* \"#utility.yul\":11982:12063   */\n      gt\n        /* \"#utility.yul\":11979:12086   */\n      iszero\n      tag_330\n      jumpi\n        /* \"#utility.yul\":12066:12084   */\n      tag_331\n      tag_332\n      jump\t// in\n    tag_331:\n        /* \"#utility.yul\":11979:12086   */\n    tag_330:\n        /* \"#utility.yul\":12110:12111   */\n      dup3\n        /* \"#utility.yul\":12107:12108   */\n      dup3\n        /* \"#utility.yul\":12103:12112   */\n      add\n        /* \"#utility.yul\":12096:12112   */\n      swap1\n      pop\n        /* \"#utility.yul\":11813:12118   */\n      swap3\n      swap2\n      pop\n      pop\n      jump\t// out\n        /* \"#utility.yul\":12124:12315   */\n    tag_112:\n        /* \"#utility.yul\":12164:12168   */\n      0x00\n        /* \"#utility.yul\":12184:12204   */\n      tag_334\n        /* \"#utility.yul\":12202:12203   */\n      dup3\n        /* \"#utility.yul\":12184:12204   */\n      tag_290\n      jump\t// in\n    tag_334:\n        /* \"#utility.yul\":12179:12204   */\n      swap2\n      pop\n        /* \"#utility.yul\":12218:12238   */\n      tag_335\n        /* \"#utility.yul\":12236:12237   */\n      dup4\n        /* \"#utility.yul\":12218:12238   */\n      tag_290\n      jump\t// in\n    tag_335:\n        /* \"#utility.yul\":12213:12238   */\n      swap3\n      pop\n        /* \"#utility.yul\":12257:12258   */\n      dup3\n        /* \"#utility.yul\":12254:12255   */\n      dup3\n        /* \"#utility.yul\":12251:12259   */\n      lt\n        /* \"#utility.yul\":12248:12282   */\n      iszero\n      tag_336\n      jumpi\n        /* \"#utility.yul\":12262:12280   */\n      tag_337\n      tag_332\n      jump\t// in\n    tag_337:\n        /* \"#utility.yul\":12248:12282   */\n    tag_336:\n        /* \"#utility.yul\":12307:12308   */\n      dup3\n        /* \"#utility.yul\":12304:12305   */\n      dup3\n        /* \"#utility.yul\":12300:12309   */\n      sub\n        /* \"#utility.yul\":12292:12309   */\n      swap1\n      pop\n        /* \"#utility.yul\":12124:12315   */\n      swap3\n      swap2\n      pop\n      pop\n      jump\t// out\n        /* \"#utility.yul\":12321:12417   */\n    tag_227:\n        /* \"#utility.yul\":12358:12365   */\n      0x00\n        /* \"#utility.yul\":12387:12411   */\n      tag_339\n        /* \"#utility.yul\":12405:12410   */\n      dup3\n        /* \"#utility.yul\":12387:12411   */\n      tag_340\n      jump\t// in\n    tag_339:\n        /* \"#utility.yul\":12376:12411   */\n      swap1\n      pop\n        /* \"#utility.yul\":12321:12417   */\n      swap2\n      swap1\n      pop\n      jump\t// out\n        /* \"#utility.yul\":12423:12513   */\n    tag_231:\n        /* \"#utility.yul\":12457:12464   */\n      0x00\n        /* \"#utility.yul\":12500:12505   */\n      dup2\n        /* \"#utility.yul\":12493:12506   */\n      iszero\n        /* \"#utility.yul\":12486:12507   */\n      iszero\n        /* \"#utility.yul\":12475:12507   */\n      swap1\n      pop\n        /* \"#utility.yul\":12423:12513   */\n      swap2\n      swap1\n      pop\n      jump\t// out\n        /* \"#utility.yul\":12519:12645   */\n    tag_340:\n        /* \"#utility.yul\":12556:12563   */\n      0x00\n        /* \"#utility.yul\":12596:12638   */\n      0xffffffffffffffffffffffffffffffffffffffff\n        /* \"#utility.yul\":12589:12594   */\n      dup3\n        /* \"#utility.yul\":12585:12639   */\n      and\n        /* \"#utility.yul\":12574:12639   */\n      swap1\n      pop\n        /* \"#utility.yul\":12519:12645   */\n      swap2\n      swap1\n      pop\n      jump\t// out\n        /* \"#utility.yul\":12651:12728   */\n    tag_290:\n        /* \"#utility.yul\":12688:12695   */\n      0x00\n        /* \"#utility.yul\":12717:12722   */\n      dup2\n        /* \"#utility.yul\":12706:12722   */\n      swap1\n      pop\n        /* \"#utility.yul\":12651:12728   */\n      swap2\n      swap1\n      pop\n      jump\t// out\n        /* \"#utility.yul\":12734:12820   */\n    tag_294:\n        /* \"#utility.yul\":12769:12776   */\n      0x00\n        /* \"#utility.yul\":12809:12813   */\n      0xff\n        /* \"#utility.yul\":12802:12807   */\n      dup3\n        /* \"#utility.yul\":12798:12814   */\n      and\n        /* \"#utility.yul\":12787:12814   */\n      swap1\n      pop\n        /* \"#utility.yul\":12734:12820   */\n      swap2\n      swap1\n      pop\n      jump\t// out\n        /* \"#utility.yul\":12826:13133   */\n    tag_239:\n        /* \"#utility.yul\":12894:12895   */\n      0x00\n        /* \"#utility.yul\":12904:13017   */\n    tag_346:\n        /* \"#utility.yul\":12918:12924   */\n      dup4\n        /* \"#utility.yul\":12915:12916   */\n      dup2\n        /* \"#utility.yul\":12912:12925   */\n      lt\n        /* \"#utility.yul\":12904:13017   */\n      iszero\n      tag_348\n      jumpi\n        /* \"#utility.yul\":13003:13004   */\n      dup1\n        /* \"#utility.yul\":12998:13001   */\n      dup3\n        /* \"#utility.yul\":12994:13005   */\n      add\n        /* \"#utility.yul\":12988:13006   */\n      mload\n        /* \"#utility.yul\":12984:12985   */\n      dup2\n        /* \"#utility.yul\":12979:12982   */\n      dup5\n        /* \"#utility.yul\":12975:12986   */\n      add\n        /* \"#utility.yul\":12968:13007   */\n      mstore\n        /* \"#utility.yul\":12940:12942   */\n      0x20\n        /* \"#utility.yul\":12937:12938   */\n      dup2\n        /* \"#utility.yul\":12933:12943   */\n      add\n        /* \"#utility.yul\":12928:12943   */\n      swap1\n      pop\n        /* \"#utility.yul\":12904:13017   */\n      jump(tag_346)\n    tag_348:\n        /* \"#utility.yul\":13035:13041   */\n      dup4\n        /* \"#utility.yul\":13032:13033   */\n      dup2\n        /* \"#utility.yul\":13029:13042   */\n      gt\n        /* \"#utility.yul\":13026:13127   */\n      iszero\n      tag_349\n      jumpi\n        /* \"#utility.yul\":13115:13116   */\n      0x00\n        /* \"#utility.yul\":13106:13112   */\n      dup5\n        /* \"#utility.yul\":13101:13104   */\n      dup5\n        /* \"#utility.yul\":13097:13113   */\n      add\n        /* \"#utility.yul\":13090:13117   */\n      mstore\n        /* \"#utility.yul\":13026:13127   */\n    tag_349:\n        /* \"#utility.yul\":12875:13133   */\n      pop\n        /* \"#utility.yul\":12826:13133   */\n      pop\n      pop\n      pop\n      jump\t// out\n        /* \"#utility.yul\":13139:13459   */\n    tag_91:\n        /* \"#utility.yul\":13183:13189   */\n      0x00\n        /* \"#utility.yul\":13220:13221   */\n      0x02\n        /* \"#utility.yul\":13214:13218   */\n      dup3\n        /* \"#utility.yul\":13210:13222   */\n      div\n        /* \"#utility.yul\":13200:13222   */\n      swap1\n      pop\n        /* \"#utility.yul\":13267:13268   */\n      0x01\n        /* \"#utility.yul\":13261:13265   */\n      dup3\n        /* \"#utility.yul\":13257:13269   */\n      and\n        /* \"#utility.yul\":13288:13306   */\n      dup1\n        /* \"#utility.yul\":13278:13359   */\n      tag_351\n      jumpi\n        /* \"#utility.yul\":13344:13348   */\n      0x7f\n        /* \"#utility.yul\":13336:13342   */\n      dup3\n        /* \"#utility.yul\":13332:13349   */\n      and\n        /* \"#utility.yul\":13322:13349   */\n      swap2\n      pop\n        /* \"#utility.yul\":13278:13359   */\n    tag_351:\n        /* \"#utility.yul\":13406:13408   */\n      0x20\n        /* \"#utility.yul\":13398:13404   */\n      dup3\n        /* \"#utility.yul\":13395:13409   */\n      lt\n        /* \"#utility.yul\":13375:13393   */\n      dup2\n        /* \"#utility.yul\":13372:13410   */\n      eq\n        /* \"#utility.yul\":13369:13453   */\n      iszero\n      tag_352\n      jumpi\n        /* \"#utility.yul\":13425:13443   */\n      tag_353\n      tag_354\n      jump\t// in\n    tag_353:\n        /* \"#utility.yul\":13369:13453   */\n    tag_352:\n        /* \"#utility.yul\":13190:13459   */\n      pop\n        /* \"#utility.yul\":13139:13459   */\n      swap2\n      swap1\n      pop\n      jump\t// out\n        /* \"#utility.yul\":13465:13645   */\n    tag_332:\n        /* \"#utility.yul\":13513:13590   */\n      0x4e487b7100000000000000000000000000000000000000000000000000000000\n        /* \"#utility.yul\":13510:13511   */\n      0x00\n        /* \"#utility.yul\":13503:13591   */\n      mstore\n        /* \"#utility.yul\":13610:13614   */\n      0x11\n        /* \"#utility.yul\":13607:13608   */\n      0x04\n        /* \"#utility.yul\":13600:13615   */\n      mstore\n        /* \"#utility.yul\":13634:13638   */\n      0x24\n        /* \"#utility.yul\":13631:13632   */\n      0x00\n        /* \"#utility.yul\":13624:13639   */\n      revert\n        /* \"#utility.yul\":13651:13831   */\n    tag_354:\n        /* \"#utility.yul\":13699:13776   */\n      0x4e487b7100000000000000000000000000000000000000000000000000000000\n        /* \"#utility.yul\":13696:13697   */\n      0x00\n        /* \"#utility.yul\":13689:13777   */\n      mstore\n        /* \"#utility.yul\":13796:13800   */\n      0x22\n        /* \"#utility.yul\":13793:13794   */\n      0x04\n        /* \"#utility.yul\":13786:13801   */\n      mstore\n        /* \"#utility.yul\":13820:13824   */\n      0x24\n        /* \"#utility.yul\":13817:13818   */\n      0x00\n        /* \"#utility.yul\":13810:13825   */\n      revert\n        /* \"#utility.yul\":13960:14077   */\n    tag_206:\n        /* \"#utility.yul\":14069:14070   */\n      0x00\n        /* \"#utility.yul\":14066:14067   */\n      dup1\n        /* \"#utility.yul\":14059:14071   */\n      revert\n        /* \"#utility.yul\":14083:14185   */\n    tag_241:\n        /* \"#utility.yul\":14124:14130   */\n      0x00\n        /* \"#utility.yul\":14175:14177   */\n      0x1f\n        /* \"#utility.yul\":14171:14178   */\n      not\n        /* \"#utility.yul\":14166:14168   */\n      0x1f\n        /* \"#utility.yul\":14159:14164   */\n      dup4\n        /* \"#utility.yul\":14155:14169   */\n      add\n        /* \"#utility.yul\":14151:14179   */\n      and\n        /* \"#utility.yul\":14141:14179   */\n      swap1\n      pop\n        /* \"#utility.yul\":14083:14185   */\n      swap2\n      swap1\n      pop\n      jump\t// out\n        /* \"#utility.yul\":14191:14415   */\n    tag_246:\n        /* \"#utility.yul\":14331:14365   */\n      0x42455032303a207472616e736665722066726f6d20746865207a65726f206164\n        /* \"#utility.yul\":14327:14328   */\n      0x00\n        /* \"#utility.yul\":14319:14325   */\n      dup3\n        /* \"#utility.yul\":14315:14329   */\n      add\n        /* \"#utility.yul\":14308:14366   */\n      mstore\n        /* \"#utility.yul\":14400:14407   */\n      0x6472657373000000000000000000000000000000000000000000000000000000\n        /* \"#utility.yul\":14395:14397   */\n      0x20\n        /* \"#utility.yul\":14387:14393   */\n      dup3\n        /* \"#utility.yul\":14383:14398   */\n      add\n        /* \"#utility.yul\":14376:14408   */\n      mstore\n        /* \"#utility.yul\":14191:14415   */\n      pop\n      jump\t// out\n        /* \"#utility.yul\":14421:14644   */\n    tag_251:\n        /* \"#utility.yul\":14561:14595   */\n      0x42455032303a20617070726f76652066726f6d20746865207a65726f20616464\n        /* \"#utility.yul\":14557:14558   */\n      0x00\n        /* \"#utility.yul\":14549:14555   */\n      dup3\n        /* \"#utility.yul\":14545:14559   */\n      add\n        /* \"#utility.yul\":14538:14596   */\n      mstore\n        /* \"#utility.yul\":14630:14636   */\n      0x7265737300000000000000000000000000000000000000000000000000000000\n        /* \"#utility.yul\":14625:14627   */\n      0x20\n        /* \"#utility.yul\":14617:14623   */\n      dup3\n        /* \"#utility.yul\":14613:14628   */\n      add\n        /* \"#utility.yul\":14606:14637   */\n      mstore\n        /* \"#utility.yul\":14421:14644   */\n      pop\n      jump\t// out\n        /* \"#utility.yul\":14650:14875   */\n    tag_256:\n        /* \"#utility.yul\":14790:14824   */\n      0x4f776e61626c653a206e6577206f776e657220697320746865207a65726f2061\n        /* \"#utility.yul\":14786:14787   */\n      0x00\n        /* \"#utility.yul\":14778:14784   */\n      dup3\n        /* \"#utility.yul\":14774:14788   */\n      add\n        /* \"#utility.yul\":14767:14825   */\n      mstore\n        /* \"#utility.yul\":14859:14867   */\n      0x6464726573730000000000000000000000000000000000000000000000000000\n        /* \"#utility.yul\":14854:14856   */\n      0x20\n        /* \"#utility.yul\":14846:14852   */\n      dup3\n        /* \"#utility.yul\":14842:14857   */\n      add\n        /* \"#utility.yul\":14835:14868   */\n      mstore\n        /* \"#utility.yul\":14650:14875   */\n      pop\n      jump\t// out\n        /* \"#utility.yul\":14881:15108   */\n    tag_261:\n        /* \"#utility.yul\":15021:15055   */\n      0x42455032303a207472616e7366657220616d6f756e7420657863656564732061\n        /* \"#utility.yul\":15017:15018   */\n      0x00\n        /* \"#utility.yul\":15009:15015   */\n      dup3\n        /* \"#utility.yul\":15005:15019   */\n      add\n        /* \"#utility.yul\":14998:15056   */\n      mstore\n        /* \"#utility.yul\":15090:15100   */\n      0x6c6c6f77616e6365000000000000000000000000000000000000000000000000\n        /* \"#utility.yul\":15085:15087   */\n      0x20\n        /* \"#utility.yul\":15077:15083   */\n      dup3\n        /* \"#utility.yul\":15073:15088   */\n      add\n        /* \"#utility.yul\":15066:15101   */\n      mstore\n        /* \"#utility.yul\":14881:15108   */\n      pop\n      jump\t// out\n        /* \"#utility.yul\":15114:15296   */\n    tag_266:\n        /* \"#utility.yul\":15254:15288   */\n      0x4f776e61626c653a2063616c6c6572206973206e6f7420746865206f776e6572\n        /* \"#utility.yul\":15250:15251   */\n      0x00\n        /* \"#utility.yul\":15242:15248   */\n      dup3\n        /* \"#utility.yul\":15238:15252   */\n      add\n        /* \"#utility.yul\":15231:15289   */\n      mstore\n        /* \"#utility.yul\":15114:15296   */\n      pop\n      jump\t// out\n        /* \"#utility.yul\":15302:15527   */\n    tag_271:\n        /* \"#utility.yul\":15442:15476   */\n      0x42455032303a207472616e7366657220616d6f756e7420657863656564732062\n        /* \"#utility.yul\":15438:15439   */\n      0x00\n        /* \"#utility.yul\":15430:15436   */\n      dup3\n        /* \"#utility.yul\":15426:15440   */\n      add\n        /* \"#utility.yul\":15419:15477   */\n      mstore\n        /* \"#utility.yul\":15511:15519   */\n      0x616c616e63650000000000000000000000000000000000000000000000000000\n        /* \"#utility.yul\":15506:15508   */\n      0x20\n        /* \"#utility.yul\":15498:15504   */\n      dup3\n        /* \"#utility.yul\":15494:15509   */\n      add\n        /* \"#utility.yul\":15487:15520   */\n      mstore\n        /* \"#utility.yul\":15302:15527   */\n      pop\n      jump\t// out\n        /* \"#utility.yul\":15533:15755   */\n    tag_276:\n        /* \"#utility.yul\":15673:15707   */\n      0x42455032303a207472616e7366657220746f20746865207a65726f2061646472\n        /* \"#utility.yul\":15669:15670   */\n      0x00\n        /* \"#utility.yul\":15661:15667   */\n      dup3\n        /* \"#utility.yul\":15657:15671   */\n      add\n        /* \"#utility.yul\":15650:15708   */\n      mstore\n        /* \"#utility.yul\":15742:15747   */\n      0x6573730000000000000000000000000000000000000000000000000000000000\n        /* \"#utility.yul\":15737:15739   */\n      0x20\n        /* \"#utility.yul\":15729:15735   */\n      dup3\n        /* \"#utility.yul\":15725:15740   */\n      add\n        /* \"#utility.yul\":15718:15748   */\n      mstore\n        /* \"#utility.yul\":15533:15755   */\n      pop\n      jump\t// out\n        /* \"#utility.yul\":15761:15985   */\n    tag_281:\n        /* \"#utility.yul\":15901:15935   */\n      0x42455032303a2064656372656173656420616c6c6f77616e63652062656c6f77\n        /* \"#utility.yul\":15897:15898   */\n      0x00\n        /* \"#utility.yul\":15889:15895   */\n      dup3\n        /* \"#utility.yul\":15885:15899   */\n      add\n        /* \"#utility.yul\":15878:15936   */\n      mstore\n        /* \"#utility.yul\":15970:15977   */\n      0x207a65726f000000000000000000000000000000000000000000000000000000\n        /* \"#utility.yul\":15965:15967   */\n      0x20\n        /* \"#utility.yul\":15957:15963   */\n      dup3\n        /* \"#utility.yul\":15953:15968   */\n      add\n        /* \"#utility.yul\":15946:15978   */\n      mstore\n        /* \"#utility.yul\":15761:15985   */\n      pop\n      jump\t// out\n        /* \"#utility.yul\":15991:16212   */\n    tag_286:\n        /* \"#utility.yul\":16131:16165   */\n      0x42455032303a20617070726f766520746f20746865207a65726f206164647265\n        /* \"#utility.yul\":16127:16128   */\n      0x00\n        /* \"#utility.yul\":16119:16125   */\n      dup3\n        /* \"#utility.yul\":16115:16129   */\n      add\n        /* \"#utility.yul\":16108:16166   */\n      mstore\n        /* \"#utility.yul\":16200:16204   */\n      0x7373000000000000000000000000000000000000000000000000000000000000\n        /* \"#utility.yul\":16195:16197   */\n      0x20\n        /* \"#utility.yul\":16187:16193   */\n      dup3\n        /* \"#utility.yul\":16183:16198   */\n      add\n        /* \"#utility.yul\":16176:16205   */\n      mstore\n        /* \"#utility.yul\":15991:16212   */\n      pop\n      jump\t// out\n        /* \"#utility.yul\":16218:16340   */\n    tag_198:\n        /* \"#utility.yul\":16291:16315   */\n      tag_371\n        /* \"#utility.yul\":16309:16314   */\n      dup2\n        /* \"#utility.yul\":16291:16315   */\n      tag_227\n      jump\t// in\n    tag_371:\n        /* \"#utility.yul\":16284:16289   */\n      dup2\n        /* \"#utility.yul\":16281:16316   */\n      eq\n        /* \"#utility.yul\":16271:16334   */\n      tag_372\n      jumpi\n        /* \"#utility.yul\":16330:16331   */\n      0x00\n        /* \"#utility.yul\":16327:16328   */\n      dup1\n        /* \"#utility.yul\":16320:16332   */\n      revert\n        /* \"#utility.yul\":16271:16334   */\n    tag_372:\n        /* \"#utility.yul\":16218:16340   */\n      pop\n      jump\t// out\n        /* \"#utility.yul\":16346:16468   */\n    tag_202:\n        /* \"#utility.yul\":16419:16443   */\n      tag_374\n        /* \"#utility.yul\":16437:16442   */\n      dup2\n        /* \"#utility.yul\":16419:16443   */\n      tag_290\n      jump\t// in\n    tag_374:\n        /* \"#utility.yul\":16412:16417   */\n      dup2\n        /* \"#utility.yul\":16409:16444   */\n      eq\n        /* \"#utility.yul\":16399:16462   */\n      tag_375\n      jumpi\n        /* \"#utility.yul\":16458:16459   */\n      0x00\n        /* \"#utility.yul\":16455:16456   */\n      dup1\n        /* \"#utility.yul\":16448:16460   */\n      revert\n        /* \"#utility.yul\":16399:16462   */\n    tag_375:\n        /* \"#utility.yul\":16346:16468   */\n      pop\n      jump\t// out\n\n    auxdata: 0xa26469706673582212206f043c2eb9835a7ae68ca99add1c7c3a35509e6285b7bb3ab7f199edd96915cb64736f6c63430008070033\n}\n",
				"bytecode": {
					"linkReferences": {},
					"object": "6080604052604051620022e5380380620022e5833981810160405281019062000029919062000544565b6040518060400160405280600681526020017f76332e302e300000000000000000000000000000000000000000000000000000815250816040518060400160405280600a81526020017f48656c6c6f4245503230000000000000000000000000000000000000000000008152508585620000b8620000ac620001c860201b60201c565b620001d060201b60201c565b8160049080519060200190620000d0929190620003ff565b508060059080519060200190620000e9929190620003ff565b506012600660006101000a81548160ff021916908360ff16021790555050508173ffffffffffffffffffffffffffffffffffffffff16632b66d72e34836040518363ffffffff1660e01b815260040162000144919062000657565b6000604051808303818588803b1580156200015e57600080fd5b505af115801562000173573d6000803e3d6000fd5b50505050505050806007908051906020019062000192929190620003ff565b5050620001bf620001a8620001c860201b60201c565b69021e19e0c9bab24000006200029460201b60201c565b50505062000967565b600033905090565b60008060009054906101000a900473ffffffffffffffffffffffffffffffffffffffff169050816000806101000a81548173ffffffffffffffffffffffffffffffffffffffff021916908373ffffffffffffffffffffffffffffffffffffffff1602179055508173ffffffffffffffffffffffffffffffffffffffff168173ffffffffffffffffffffffffffffffffffffffff167f8be0079c531659141344cd1fd0a4f28419497f9722a3daafe3b4186f6b6457e060405160405180910390a35050565b600073ffffffffffffffffffffffffffffffffffffffff168273ffffffffffffffffffffffffffffffffffffffff16141562000307576040517f08c379a0000000000000000000000000000000000000000000000000000000008152600401620002fe906200067b565b60405180910390fd5b6200031b60008383620003fa60201b60201c565b80600360008282546200032f919062000735565b9250508190555080600160008473ffffffffffffffffffffffffffffffffffffffff1673ffffffffffffffffffffffffffffffffffffffff168152602001908152602001600020600082825462000387919062000735565b925050819055508173ffffffffffffffffffffffffffffffffffffffff16600073ffffffffffffffffffffffffffffffffffffffff167fddf252ad1be2c89b69c2b068fc378daa952ba7f163c4a11628f55a4df523b3ef83604051620003ee91906200069d565b60405180910390a35050565b505050565b8280546200040d9062000806565b90600052602060002090601f0160209004810192826200043157600085556200047d565b82601f106200044c57805160ff19168380011785556200047d565b828001600101855582156200047d579182015b828111156200047c5782518255916020019190600101906200045f565b5b5090506200048c919062000490565b5090565b5b80821115620004ab57600081600090555060010162000491565b5090565b6000620004c6620004c084620006e3565b620006ba565b905082815260208101848484011115620004e557620004e462000904565b5b620004f2848285620007d0565b509392505050565b6000815190506200050b816200094d565b92915050565b600082601f830112620005295762000528620008ff565b5b81516200053b848260208601620004af565b91505092915050565b60008060006060848603121562000560576200055f6200090e565b5b600084015167ffffffffffffffff81111562000581576200058062000909565b5b6200058f8682870162000511565b935050602084015167ffffffffffffffff811115620005b357620005b262000909565b5b620005c18682870162000511565b9250506040620005d486828701620004fa565b9150509250925092565b6000620005eb8262000719565b620005f7818562000724565b935062000609818560208601620007d0565b620006148162000913565b840191505092915050565b60006200062e601f8362000724565b91506200063b8262000924565b602082019050919050565b6200065181620007c6565b82525050565b60006020820190508181036000830152620006738184620005de565b905092915050565b6000602082019050818103600083015262000696816200061f565b9050919050565b6000602082019050620006b4600083018462000646565b92915050565b6000620006c6620006d9565b9050620006d482826200083c565b919050565b6000604051905090565b600067ffffffffffffffff821115620007015762000700620008d0565b5b6200070c8262000913565b9050602081019050919050565b600081519050919050565b600082825260208201905092915050565b60006200074282620007c6565b91506200074f83620007c6565b9250827fffffffffffffffffffffffffffffffffffffffffffffffffffffffffffffffff0382111562000787576200078662000872565b5b828201905092915050565b60006200079f82620007a6565b9050919050565b600073ffffffffffffffffffffffffffffffffffffffff82169050919050565b6000819050919050565b60005b83811015620007f0578082015181840152602081019050620007d3565b8381111562000800576000848401525b50505050565b600060028204905060018216806200081f57607f821691505b60208210811415620008365762000835620008a1565b5b50919050565b620008478262000913565b810181811067ffffffffffffffff82111715620008695762000868620008d0565b5b80604052505050565b7f4e487b7100000000000000000000000000000000000000000000000000000000600052601160045260246000fd5b7f4e487b7100000000000000000000000000000000000000000000000000000000600052602260045260246000fd5b7f4e487b7100000000000000000000000000000000000000000000000000000000600052604160045260246000fd5b600080fd5b600080fd5b600080fd5b600080fd5b6000601f19601f8301169050919050565b7f42455032303a206d696e7420746f20746865207a65726f206164647265737300600082015250565b620009588162000792565b81146200096457600080fd5b50565b61196e80620009776000396000f3fe608060405234801561001057600080fd5b506004361061010b5760003560e01c8063715018a6116100a257806395d89b411161007157806395d89b41146102ac578063a457c2d7146102ca578063a9059cbb146102fa578063dd62ed3e1461032a578063f2fde38b1461035a5761010b565b8063715018a6146102485780637afa1eed14610252578063893d20e8146102705780638da5cb5b1461028e5761010b565b8063313ce567116100de578063313ce567146101ac57806339509351146101ca57806354fd4d50146101fa57806370a08231146102185761010b565b806306fdde0314610110578063095ea7b31461012e57806318160ddd1461015e57806323b872dd1461017c575b600080fd5b610118610376565b604051610125919061131d565b60405180910390f35b610148600480360381019061014391906110f7565b610408565b6040516101559190611302565b60405180910390f35b610166610426565b604051610173919061145f565b60405180910390f35b610196600480360381019061019191906110a4565b610430565b6040516101a39190611302565b60405180910390f35b6101b4610531565b6040516101c1919061147a565b60405180910390f35b6101e460048036038101906101df91906110f7565b610548565b6040516101f19190611302565b60405180910390f35b6102026105f4565b60405161020f919061131d565b60405180910390f35b610232600480360381019061022d9190611037565b610686565b60405161023f919061145f565b60405180910390f35b6102506106cf565b005b61025a610757565b604051610267919061131d565b60405180910390f35b610278610794565b60405161028591906112e7565b60405180910390f35b6102966107a3565b6040516102a391906112e7565b60405180910390f35b6102b46107cc565b6040516102c1919061131d565b60405180910390f35b6102e460048036038101906102df91906110f7565b61085e565b6040516102f19190611302565b60405180910390f35b610314600480360381019061030f91906110f7565b610952565b6040516103219190611302565b60405180910390f35b610344600480360381019061033f9190611064565b610970565b604051610351919061145f565b60405180910390f35b610374600480360381019061036f9190611037565b6109f7565b005b606060048054610385906115c3565b80601f01602080910402602001604051908101604052809291908181526020018280546103b1906115c3565b80156103fe5780601f106103d3576101008083540402835291602001916103fe565b820191906000526020600020905b8154815290600101906020018083116103e157829003601f168201915b5050505050905090565b600061041c610415610aef565b8484610af7565b6001905092915050565b6000600354905090565b600061043d848484610cc2565b6000600260008673ffffffffffffffffffffffffffffffffffffffff1673ffffffffffffffffffffffffffffffffffffffff1681526020019081526020016000206000610488610aef565b73ffffffffffffffffffffffffffffffffffffffff1673ffffffffffffffffffffffffffffffffffffffff16815260200190815260200160002054905082811015610508576040517f08c379a00000000000000000000000000000000000000000000000000000000081526004016104ff9061139f565b60405180910390fd5b61052585610514610aef565b85846105209190611507565b610af7565b60019150509392505050565b6000600660009054906101000a900460ff16905090565b60006105ea610555610aef565b848460026000610563610aef565b73ffffffffffffffffffffffffffffffffffffffff1673ffffffffffffffffffffffffffffffffffffffff16815260200190815260200160002060008873ffffffffffffffffffffffffffffffffffffffff1673ffffffffffffffffffffffffffffffffffffffff168152602001908152602001600020546105e591906114b1565b610af7565b6001905092915050565b606060078054610603906115c3565b80601f016020809104026020016040519081016040528092919081815260200182805461062f906115c3565b801561067c5780601f106106515761010080835404028352916020019161067c565b820191906000526020600020905b81548152906001019060200180831161065f57829003601f168201915b5050505050905090565b6000600160008373ffffffffffffffffffffffffffffffffffffffff1673ffffffffffffffffffffffffffffffffffffffff168152602001908152602001600020549050919050565b6106d7610aef565b73ffffffffffffffffffffffffffffffffffffffff166106f56107a3565b73ffffffffffffffffffffffffffffffffffffffff161461074b576040517f08c379a0000000000000000000000000000000000000000000000000000000008152600401610742906113bf565b60405180910390fd5b6107556000610f44565b565b60606040518060400160405280601381526020017f4c6f73742047656e657261746f7220436f6d7000000000000000000000000000815250905090565b600061079e6107a3565b905090565b60008060009054906101000a900473ffffffffffffffffffffffffffffffffffffffff16905090565b6060600580546107db906115c3565b80601f0160208091040260200160405190810160405280929190818152602001828054610807906115c3565b80156108545780601f1061082957610100808354040283529160200191610854565b820191906000526020600020905b81548152906001019060200180831161083757829003601f168201915b5050505050905090565b6000806002600061086d610aef565b73ffffffffffffffffffffffffffffffffffffffff1673ffffffffffffffffffffffffffffffffffffffff16815260200190815260200160002060008573ffffffffffffffffffffffffffffffffffffffff1673ffffffffffffffffffffffffffffffffffffffff1681526020019081526020016000205490508281101561092a576040517f08c379a00000000000000000000000000000000000000000000000000000000081526004016109219061141f565b60405180910390fd5b610947610935610aef565b8585846109429190611507565b610af7565b600191505092915050565b600061096661095f610aef565b8484610cc2565b6001905092915050565b6000600260008473ffffffffffffffffffffffffffffffffffffffff1673ffffffffffffffffffffffffffffffffffffffff16815260200190815260200160002060008373ffffffffffffffffffffffffffffffffffffffff1673ffffffffffffffffffffffffffffffffffffffff16815260200190815260200160002054905092915050565b6109ff610aef565b73ffffffffffffffffffffffffffffffffffffffff16610a1d6107a3565b73ffffffffffffffffffffffffffffffffffffffff1614610a73576040517f08c379a0000000000000000000000000000000000000000000000000000000008152600401610a6a906113bf565b60405180910390fd5b600073ffffffffffffffffffffffffffffffffffffffff168173ffffffffffffffffffffffffffffffffffffffff161415610ae3576040517f08c379a0000000000000000000000000000000000000000000000000000000008152600401610ada9061137f565b60405180910390fd5b610aec81610f44565b50565b600033905090565b600073ffffffffffffffffffffffffffffffffffffffff168373ffffffffffffffffffffffffffffffffffffffff161415610b67576040517f08c379a0000000000000000000000000000000000000000000000000000000008152600401610b5e9061135f565b60405180910390fd5b600073ffffffffffffffffffffffffffffffffffffffff168273ffffffffffffffffffffffffffffffffffffffff161415610bd7576040517f08c379a0000000000000000000000000000000000000000000000000000000008152600401610bce9061143f565b60405180910390fd5b80600260008573ffffffffffffffffffffffffffffffffffffffff1673ffffffffffffffffffffffffffffffffffffffff16815260200190815260200160002060008473ffffffffffffffffffffffffffffffffffffffff1673ffffffffffffffffffffffffffffffffffffffff168152602001908152602001600020819055508173ffffffffffffffffffffffffffffffffffffffff168373ffffffffffffffffffffffffffffffffffffffff167f8c5be1e5ebec7d5bd14f71427d1e84f3dd0314c0f7b2291e5b200ac8c7c3b92583604051610cb5919061145f565b60405180910390a3505050565b600073ffffffffffffffffffffffffffffffffffffffff168373ffffffffffffffffffffffffffffffffffffffff161415610d32576040517f08c379a0000000000000000000000000000000000000000000000000000000008152600401610d299061133f565b60405180910390fd5b600073ffffffffffffffffffffffffffffffffffffffff168273ffffffffffffffffffffffffffffffffffffffff161415610da2576040517f08c379a0000000000000000000000000000000000000000000000000000000008152600401610d99906113ff565b60405180910390fd5b610dad838383611008565b6000600160008573ffffffffffffffffffffffffffffffffffffffff1673ffffffffffffffffffffffffffffffffffffffff16815260200190815260200160002054905081811015610e34576040517f08c379a0000000000000000000000000000000000000000000000000000000008152600401610e2b906113df565b60405180910390fd5b8181610e409190611507565b600160008673ffffffffffffffffffffffffffffffffffffffff1673ffffffffffffffffffffffffffffffffffffffff1681526020019081526020016000208190555081600160008573ffffffffffffffffffffffffffffffffffffffff1673ffffffffffffffffffffffffffffffffffffffff1681526020019081526020016000206000828254610ed291906114b1565b925050819055508273ffffffffffffffffffffffffffffffffffffffff168473ffffffffffffffffffffffffffffffffffffffff167fddf252ad1be2c89b69c2b068fc378daa952ba7f163c4a11628f55a4df523b3ef84604051610f36919061145f565b60405180910390a350505050565b60008060009054906101000a900473ffffffffffffffffffffffffffffffffffffffff169050816000806101000a81548173ffffffffffffffffffffffffffffffffffffffff021916908373ffffffffffffffffffffffffffffffffffffffff1602179055508173ffffffffffffffffffffffffffffffffffffffff168173ffffffffffffffffffffffffffffffffffffffff167f8be0079c531659141344cd1fd0a4f28419497f9722a3daafe3b4186f6b6457e060405160405180910390a35050565b505050565b60008135905061101c8161190a565b92915050565b60008135905061103181611921565b92915050565b60006020828403121561104d5761104c611653565b5b600061105b8482850161100d565b91505092915050565b6000806040838503121561107b5761107a611653565b5b60006110898582860161100d565b925050602061109a8582860161100d565b9150509250929050565b6000806000606084860312156110bd576110bc611653565b5b60006110cb8682870161100d565b93505060206110dc8682870161100d565b92505060406110ed86828701611022565b9150509250925092565b6000806040838503121561110e5761110d611653565b5b600061111c8582860161100d565b925050602061112d85828601611022565b9150509250929050565b6111408161153b565b82525050565b61114f8161154d565b82525050565b600061116082611495565b61116a81856114a0565b935061117a818560208601611590565b61118381611658565b840191505092915050565b600061119b6025836114a0565b91506111a682611669565b604082019050919050565b60006111be6024836114a0565b91506111c9826116b8565b604082019050919050565b60006111e16026836114a0565b91506111ec82611707565b604082019050919050565b60006112046028836114a0565b915061120f82611756565b604082019050919050565b60006112276020836114a0565b9150611232826117a5565b602082019050919050565b600061124a6026836114a0565b9150611255826117ce565b604082019050919050565b600061126d6023836114a0565b91506112788261181d565b604082019050919050565b60006112906025836114a0565b915061129b8261186c565b604082019050919050565b60006112b36022836114a0565b91506112be826118bb565b604082019050919050565b6112d281611579565b82525050565b6112e181611583565b82525050565b60006020820190506112fc6000830184611137565b92915050565b60006020820190506113176000830184611146565b92915050565b600060208201905081810360008301526113378184611155565b905092915050565b600060208201905081810360008301526113588161118e565b9050919050565b60006020820190508181036000830152611378816111b1565b9050919050565b60006020820190508181036000830152611398816111d4565b9050919050565b600060208201905081810360008301526113b8816111f7565b9050919050565b600060208201905081810360008301526113d88161121a565b9050919050565b600060208201905081810360008301526113f88161123d565b9050919050565b6000602082019050818103600083015261141881611260565b9050919050565b6000602082019050818103600083015261143881611283565b9050919050565b60006020820190508181036000830152611458816112a6565b9050919050565b600060208201905061147460008301846112c9565b92915050565b600060208201905061148f60008301846112d8565b92915050565b600081519050919050565b600082825260208201905092915050565b60006114bc82611579565b91506114c783611579565b9250827fffffffffffffffffffffffffffffffffffffffffffffffffffffffffffffffff038211156114fc576114fb6115f5565b5b828201905092915050565b600061151282611579565b915061151d83611579565b9250828210156115305761152f6115f5565b5b828203905092915050565b600061154682611559565b9050919050565b60008115159050919050565b600073ffffffffffffffffffffffffffffffffffffffff82169050919050565b6000819050919050565b600060ff82169050919050565b60005b838110156115ae578082015181840152602081019050611593565b838111156115bd576000848401525b50505050565b600060028204905060018216806115db57607f821691505b602082108114156115ef576115ee611624565b5b50919050565b7f4e487b7100000000000000000000000000000000000000000000000000000000600052601160045260246000fd5b7f4e487b7100000000000000000000000000000000000000000000000000000000600052602260045260246000fd5b600080fd5b6000601f19601f8301169050919050565b7f42455032303a207472616e736665722066726f6d20746865207a65726f20616460008201527f6472657373000000000000000000000000000000000000000000000000000000602082015250565b7f42455032303a20617070726f76652066726f6d20746865207a65726f2061646460008201527f7265737300000000000000000000000000000000000000000000000000000000602082015250565b7f4f776e61626c653a206e6577206f776e657220697320746865207a65726f206160008201527f6464726573730000000000000000000000000000000000000000000000000000602082015250565b7f42455032303a207472616e7366657220616d6f756e742065786365656473206160008201527f6c6c6f77616e6365000000000000000000000000000000000000000000000000602082015250565b7f4f776e61626c653a2063616c6c6572206973206e6f7420746865206f776e6572600082015250565b7f42455032303a207472616e7366657220616d6f756e742065786365656473206260008201527f616c616e63650000000000000000000000000000000000000000000000000000602082015250565b7f42455032303a207472616e7366657220746f20746865207a65726f206164647260008201527f6573730000000000000000000000000000000000000000000000000000000000602082015250565b7f42455032303a2064656372656173656420616c6c6f77616e63652062656c6f7760008201527f207a65726f000000000000000000000000000000000000000000000000000000602082015250565b7f42455032303a20617070726f766520746f20746865207a65726f20616464726560008201527f7373000000000000000000000000000000000000000000000000000000000000602082015250565b6119138161153b565b811461191e57600080fd5b50565b61192a81611579565b811461193557600080fd5b5056fea26469706673582212206f043c2eb9835a7ae68ca99add1c7c3a35509e6285b7bb3ab7f199edd96915cb64736f6c63430008070033",
					"opcodes": "PUSH1 0x80 PUSH1 0x40 MSTORE PUSH1 0x40 MLOAD PUSH3 0x22E5 CODESIZE SUB DUP1 PUSH3 0x22E5 DUP4 CODECOPY DUP2 DUP2 ADD PUSH1 0x40 MSTORE DUP2 ADD SWAP1 PUSH3 0x29 SWAP2 SWAP1 PUSH3 0x544 JUMP JUMPDEST PUSH1 0x40 MLOAD DUP1 PUSH1 0x40 ADD PUSH1 0x40 MSTORE DUP1 PUSH1 0x6 DUP2 MSTORE PUSH1 0x20 ADD PUSH32 0x76332E302E300000000000000000000000000000000000000000000000000000 DUP2 MSTORE POP DUP2 PUSH1 0x40 MLOAD DUP1 PUSH1 0x40 ADD PUSH1 0x40 MSTORE DUP1 PUSH1 0xA DUP2 MSTORE PUSH1 0x20 ADD PUSH32 0x48656C6C6F424550323000000000000000000000000000000000000000000000 DUP2 MSTORE POP DUP6 DUP6 PUSH3 0xB8 PUSH3 0xAC PUSH3 0x1C8 PUSH1 0x20 SHL PUSH1 0x20 SHR JUMP JUMPDEST PUSH3 0x1D0 PUSH1 0x20 SHL PUSH1 0x20 SHR JUMP JUMPDEST DUP2 PUSH1 0x4 SWAP1 DUP1 MLOAD SWAP1 PUSH1 0x20 ADD SWAP1 PUSH3 0xD0 SWAP3 SWAP2 SWAP1 PUSH3 0x3FF JUMP JUMPDEST POP DUP1 PUSH1 0x5 SWAP1 DUP1 MLOAD SWAP1 PUSH1 0x20 ADD SWAP1 PUSH3 0xE9 SWAP3 SWAP2 SWAP1 PUSH3 0x3FF JUMP JUMPDEST POP PUSH1 0x12 PUSH1 0x6 PUSH1 0x0 PUSH2 0x100 EXP DUP2 SLOAD DUP2 PUSH1 0xFF MUL NOT AND SWAP1 DUP4 PUSH1 0xFF AND MUL OR SWAP1 SSTORE POP POP POP DUP2 PUSH20 0xFFFFFFFFFFFFFFFFFFFFFFFFFFFFFFFFFFFFFFFF AND PUSH4 0x2B66D72E CALLVALUE DUP4 PUSH1 0x40 MLOAD DUP4 PUSH4 0xFFFFFFFF AND PUSH1 0xE0 SHL DUP2 MSTORE PUSH1 0x4 ADD PUSH3 0x144 SWAP2 SWAP1 PUSH3 0x657 JUMP JUMPDEST PUSH1 0x0 PUSH1 0x40 MLOAD DUP1 DUP4 SUB DUP2 DUP6 DUP9 DUP1 EXTCODESIZE ISZERO DUP1 ISZERO PUSH3 0x15E JUMPI PUSH1 0x0 DUP1 REVERT JUMPDEST POP GAS CALL ISZERO DUP1 ISZERO PUSH3 0x173 JUMPI RETURNDATASIZE PUSH1 0x0 DUP1 RETURNDATACOPY RETURNDATASIZE PUSH1 0x0 REVERT JUMPDEST POP POP POP POP POP POP POP DUP1 PUSH1 0x7 SWAP1 DUP1 MLOAD SWAP1 PUSH1 0x20 ADD SWAP1 PUSH3 0x192 SWAP3 SWAP2 SWAP1 PUSH3 0x3FF JUMP JUMPDEST POP POP PUSH3 0x1BF PUSH3 0x1A8 PUSH3 0x1C8 PUSH1 0x20 SHL PUSH1 0x20 SHR JUMP JUMPDEST PUSH10 0x21E19E0C9BAB2400000 PUSH3 0x294 PUSH1 0x20 SHL PUSH1 0x20 SHR JUMP JUMPDEST POP POP POP PUSH3 0x967 JUMP JUMPDEST PUSH1 0x0 CALLER SWAP1 POP SWAP1 JUMP JUMPDEST PUSH1 0x0 DUP1 PUSH1 0x0 SWAP1 SLOAD SWAP1 PUSH2 0x100 EXP SWAP1 DIV PUSH20 0xFFFFFFFFFFFFFFFFFFFFFFFFFFFFFFFFFFFFFFFF AND SWAP1 POP DUP2 PUSH1 0x0 DUP1 PUSH2 0x100 EXP DUP2 SLOAD DUP2 PUSH20 0xFFFFFFFFFFFFFFFFFFFFFFFFFFFFFFFFFFFFFFFF MUL NOT AND SWAP1 DUP4 PUSH20 0xFFFFFFFFFFFFFFFFFFFFFFFFFFFFFFFFFFFFFFFF AND MUL OR SWAP1 SSTORE POP DUP2 PUSH20 0xFFFFFFFFFFFFFFFFFFFFFFFFFFFFFFFFFFFFFFFF AND DUP2 PUSH20 0xFFFFFFFFFFFFFFFFFFFFFFFFFFFFFFFFFFFFFFFF AND PUSH32 0x8BE0079C531659141344CD1FD0A4F28419497F9722A3DAAFE3B4186F6B6457E0 PUSH1 0x40 MLOAD PUSH1 0x40 MLOAD DUP1 SWAP2 SUB SWAP1 LOG3 POP POP JUMP JUMPDEST PUSH1 0x0 PUSH20 0xFFFFFFFFFFFFFFFFFFFFFFFFFFFFFFFFFFFFFFFF AND DUP3 PUSH20 0xFFFFFFFFFFFFFFFFFFFFFFFFFFFFFFFFFFFFFFFF AND EQ ISZERO PUSH3 0x307 JUMPI PUSH1 0x40 MLOAD PUSH32 0x8C379A000000000000000000000000000000000000000000000000000000000 DUP2 MSTORE PUSH1 0x4 ADD PUSH3 0x2FE SWAP1 PUSH3 0x67B JUMP JUMPDEST PUSH1 0x40 MLOAD DUP1 SWAP2 SUB SWAP1 REVERT JUMPDEST PUSH3 0x31B PUSH1 0x0 DUP4 DUP4 PUSH3 0x3FA PUSH1 0x20 SHL PUSH1 0x20 SHR JUMP JUMPDEST DUP1 PUSH1 0x3 PUSH1 0x0 DUP3 DUP3 SLOAD PUSH3 0x32F SWAP2 SWAP1 PUSH3 0x735 JUMP JUMPDEST SWAP3 POP POP DUP2 SWAP1 SSTORE POP DUP1 PUSH1 0x1 PUSH1 0x0 DUP5 PUSH20 0xFFFFFFFFFFFFFFFFFFFFFFFFFFFFFFFFFFFFFFFF AND PUSH20 0xFFFFFFFFFFFFFFFFFFFFFFFFFFFFFFFFFFFFFFFF AND DUP2 MSTORE PUSH1 0x20 ADD SWAP1 DUP2 MSTORE PUSH1 0x20 ADD PUSH1 0x0 KECCAK256 PUSH1 0x0 DUP3 DUP3 SLOAD PUSH3 0x387 SWAP2 SWAP1 PUSH3 0x735 JUMP JUMPDEST SWAP3 POP POP DUP2 SWAP1 SSTORE POP DUP2 PUSH20 0xFFFFFFFFFFFFFFFFFFFFFFFFFFFFFFFFFFFFFFFF AND PUSH1 0x0 PUSH20 0xFFFFFFFFFFFFFFFFFFFFFFFFFFFFFFFFFFFFFFFF AND PUSH32 0xDDF252AD1BE2C89B69C2B068FC378DAA952BA7F163C4A11628F55A4DF523B3EF DUP4 PUSH1 0x40 MLOAD PUSH3 0x3EE SWAP2 SWAP1 PUSH3 0x69D JUMP JUMPDEST PUSH1 0x40 MLOAD DUP1 SWAP2 SUB SWAP1 LOG3 POP POP JUMP JUMPDEST POP POP POP JUMP JUMPDEST DUP3 DUP1 SLOAD PUSH3 0x40D SWAP1 PUSH3 0x806 JUMP JUMPDEST SWAP1 PUSH1 0x0 MSTORE PUSH1 0x20 PUSH1 0x0 KECCAK256 SWAP1 PUSH1 0x1F ADD PUSH1 0x20 SWAP1 DIV DUP2 ADD SWAP3 DUP3 PUSH3 0x431 JUMPI PUSH1 0x0 DUP6 SSTORE PUSH3 0x47D JUMP JUMPDEST DUP3 PUSH1 0x1F LT PUSH3 0x44C JUMPI DUP1 MLOAD PUSH1 0xFF NOT AND DUP4 DUP1 ADD OR DUP6 SSTORE PUSH3 0x47D JUMP JUMPDEST DUP3 DUP1 ADD PUSH1 0x1 ADD DUP6 SSTORE DUP3 ISZERO PUSH3 0x47D JUMPI SWAP2 DUP3 ADD JUMPDEST DUP3 DUP2 GT ISZERO PUSH3 0x47C JUMPI DUP3 MLOAD DUP3 SSTORE SWAP2 PUSH1 0x20 ADD SWAP2 SWAP1 PUSH1 0x1 ADD SWAP1 PUSH3 0x45F JUMP JUMPDEST JUMPDEST POP SWAP1 POP PUSH3 0x48C SWAP2 SWAP1 PUSH3 0x490 JUMP JUMPDEST POP SWAP1 JUMP JUMPDEST JUMPDEST DUP1 DUP3 GT ISZERO PUSH3 0x4AB JUMPI PUSH1 0x0 DUP2 PUSH1 0x0 SWAP1 SSTORE POP PUSH1 0x1 ADD PUSH3 0x491 JUMP JUMPDEST POP SWAP1 JUMP JUMPDEST PUSH1 0x0 PUSH3 0x4C6 PUSH3 0x4C0 DUP5 PUSH3 0x6E3 JUMP JUMPDEST PUSH3 0x6BA JUMP JUMPDEST SWAP1 POP DUP3 DUP2 MSTORE PUSH1 0x20 DUP2 ADD DUP5 DUP5 DUP5 ADD GT ISZERO PUSH3 0x4E5 JUMPI PUSH3 0x4E4 PUSH3 0x904 JUMP JUMPDEST JUMPDEST PUSH3 0x4F2 DUP5 DUP3 DUP6 PUSH3 0x7D0 JUMP JUMPDEST POP SWAP4 SWAP3 POP POP POP JUMP JUMPDEST PUSH1 0x0 DUP2 MLOAD SWAP1 POP PUSH3 0x50B DUP2 PUSH3 0x94D JUMP JUMPDEST SWAP3 SWAP2 POP POP JUMP JUMPDEST PUSH1 0x0 DUP3 PUSH1 0x1F DUP4 ADD SLT PUSH3 0x529 JUMPI PUSH3 0x528 PUSH3 0x8FF JUMP JUMPDEST JUMPDEST DUP2 MLOAD PUSH3 0x53B DUP5 DUP3 PUSH1 0x20 DUP7 ADD PUSH3 0x4AF JUMP JUMPDEST SWAP2 POP POP SWAP3 SWAP2 POP POP JUMP JUMPDEST PUSH1 0x0 DUP1 PUSH1 0x0 PUSH1 0x60 DUP5 DUP7 SUB SLT ISZERO PUSH3 0x560 JUMPI PUSH3 0x55F PUSH3 0x90E JUMP JUMPDEST JUMPDEST PUSH1 0x0 DUP5 ADD MLOAD PUSH8 0xFFFFFFFFFFFFFFFF DUP2 GT ISZERO PUSH3 0x581 JUMPI PUSH3 0x580 PUSH3 0x909 JUMP JUMPDEST JUMPDEST PUSH3 0x58F DUP7 DUP3 DUP8 ADD PUSH3 0x511 JUMP JUMPDEST SWAP4 POP POP PUSH1 0x20 DUP5 ADD MLOAD PUSH8 0xFFFFFFFFFFFFFFFF DUP2 GT ISZERO PUSH3 0x5B3 JUMPI PUSH3 0x5B2 PUSH3 0x909 JUMP JUMPDEST JUMPDEST PUSH3 0x5C1 DUP7 DUP3 DUP8 ADD PUSH3 0x511 JUMP JUMPDEST SWAP3 POP POP PUSH1 0x40 PUSH3 0x5D4 DUP7 DUP3 DUP8 ADD PUSH3 0x4FA JUMP JUMPDEST SWAP2 POP POP SWAP3 POP SWAP3 POP SWAP3 JUMP JUMPDEST PUSH1 0x0 PUSH3 0x5EB DUP3 PUSH3 0x719 JUMP JUMPDEST PUSH3 0x5F7 DUP2 DUP6 PUSH3 0x724 JUMP JUMPDEST SWAP4 POP PUSH3 0x609 DUP2 DUP6 PUSH1 0x20 DUP7 ADD PUSH3 0x7D0 JUMP JUMPDEST PUSH3 0x614 DUP2 PUSH3 0x913 JUMP JUMPDEST DUP5 ADD SWAP2 POP POP SWAP3 SWAP2 POP POP JUMP JUMPDEST PUSH1 0x0 PUSH3 0x62E PUSH1 0x1F DUP4 PUSH3 0x724 JUMP JUMPDEST SWAP2 POP PUSH3 0x63B DUP3 PUSH3 0x924 JUMP JUMPDEST PUSH1 0x20 DUP3 ADD SWAP1 POP SWAP2 SWAP1 POP JUMP JUMPDEST PUSH3 0x651 DUP2 PUSH3 0x7C6 JUMP JUMPDEST DUP3 MSTORE POP POP JUMP JUMPDEST PUSH1 0x0 PUSH1 0x20 DUP3 ADD SWAP1 POP DUP2 DUP2 SUB PUSH1 0x0 DUP4 ADD MSTORE PUSH3 0x673 DUP2 DUP5 PUSH3 0x5DE JUMP JUMPDEST SWAP1 POP SWAP3 SWAP2 POP POP JUMP JUMPDEST PUSH1 0x0 PUSH1 0x20 DUP3 ADD SWAP1 POP DUP2 DUP2 SUB PUSH1 0x0 DUP4 ADD MSTORE PUSH3 0x696 DUP2 PUSH3 0x61F JUMP JUMPDEST SWAP1 POP SWAP2 SWAP1 POP JUMP JUMPDEST PUSH1 0x0 PUSH1 0x20 DUP3 ADD SWAP1 POP PUSH3 0x6B4 PUSH1 0x0 DUP4 ADD DUP5 PUSH3 0x646 JUMP JUMPDEST SWAP3 SWAP2 POP POP JUMP JUMPDEST PUSH1 0x0 PUSH3 0x6C6 PUSH3 0x6D9 JUMP JUMPDEST SWAP1 POP PUSH3 0x6D4 DUP3 DUP3 PUSH3 0x83C JUMP JUMPDEST SWAP2 SWAP1 POP JUMP JUMPDEST PUSH1 0x0 PUSH1 0x40 MLOAD SWAP1 POP SWAP1 JUMP JUMPDEST PUSH1 0x0 PUSH8 0xFFFFFFFFFFFFFFFF DUP3 GT ISZERO PUSH3 0x701 JUMPI PUSH3 0x700 PUSH3 0x8D0 JUMP JUMPDEST JUMPDEST PUSH3 0x70C DUP3 PUSH3 0x913 JUMP JUMPDEST SWAP1 POP PUSH1 0x20 DUP2 ADD SWAP1 POP SWAP2 SWAP1 POP JUMP JUMPDEST PUSH1 0x0 DUP2 MLOAD SWAP1 POP SWAP2 SWAP1 POP JUMP JUMPDEST PUSH1 0x0 DUP3 DUP3 MSTORE PUSH1 0x20 DUP3 ADD SWAP1 POP SWAP3 SWAP2 POP POP JUMP JUMPDEST PUSH1 0x0 PUSH3 0x742 DUP3 PUSH3 0x7C6 JUMP JUMPDEST SWAP2 POP PUSH3 0x74F DUP4 PUSH3 0x7C6 JUMP JUMPDEST SWAP3 POP DUP3 PUSH32 0xFFFFFFFFFFFFFFFFFFFFFFFFFFFFFFFFFFFFFFFFFFFFFFFFFFFFFFFFFFFFFFFF SUB DUP3 GT ISZERO PUSH3 0x787 JUMPI PUSH3 0x786 PUSH3 0x872 JUMP JUMPDEST JUMPDEST DUP3 DUP3 ADD SWAP1 POP SWAP3 SWAP2 POP POP JUMP JUMPDEST PUSH1 0x0 PUSH3 0x79F DUP3 PUSH3 0x7A6 JUMP JUMPDEST SWAP1 POP SWAP2 SWAP1 POP JUMP JUMPDEST PUSH1 0x0 PUSH20 0xFFFFFFFFFFFFFFFFFFFFFFFFFFFFFFFFFFFFFFFF DUP3 AND SWAP1 POP SWAP2 SWAP1 POP JUMP JUMPDEST PUSH1 0x0 DUP2 SWAP1 POP SWAP2 SWAP1 POP JUMP JUMPDEST PUSH1 0x0 JUMPDEST DUP4 DUP2 LT ISZERO PUSH3 0x7F0 JUMPI DUP1 DUP3 ADD MLOAD DUP2 DUP5 ADD MSTORE PUSH1 0x20 DUP2 ADD SWAP1 POP PUSH3 0x7D3 JUMP JUMPDEST DUP4 DUP2 GT ISZERO PUSH3 0x800 JUMPI PUSH1 0x0 DUP5 DUP5 ADD MSTORE JUMPDEST POP POP POP POP JUMP JUMPDEST PUSH1 0x0 PUSH1 0x2 DUP3 DIV SWAP1 POP PUSH1 0x1 DUP3 AND DUP1 PUSH3 0x81F JUMPI PUSH1 0x7F DUP3 AND SWAP2 POP JUMPDEST PUSH1 0x20 DUP3 LT DUP2 EQ ISZERO PUSH3 0x836 JUMPI PUSH3 0x835 PUSH3 0x8A1 JUMP JUMPDEST JUMPDEST POP SWAP2 SWAP1 POP JUMP JUMPDEST PUSH3 0x847 DUP3 PUSH3 0x913 JUMP JUMPDEST DUP2 ADD DUP2 DUP2 LT PUSH8 0xFFFFFFFFFFFFFFFF DUP3 GT OR ISZERO PUSH3 0x869 JUMPI PUSH3 0x868 PUSH3 0x8D0 JUMP JUMPDEST JUMPDEST DUP1 PUSH1 0x40 MSTORE POP POP POP JUMP JUMPDEST PUSH32 0x4E487B7100000000000000000000000000000000000000000000000000000000 PUSH1 0x0 MSTORE PUSH1 0x11 PUSH1 0x4 MSTORE PUSH1 0x24 PUSH1 0x0 REVERT JUMPDEST PUSH32 0x4E487B7100000000000000000000000000000000000000000000000000000000 PUSH1 0x0 MSTORE PUSH1 0x22 PUSH1 0x4 MSTORE PUSH1 0x24 PUSH1 0x0 REVERT JUMPDEST PUSH32 0x4E487B7100000000000000000000000000000000000000000000000000000000 PUSH1 0x0 MSTORE PUSH1 0x41 PUSH1 0x4 MSTORE PUSH1 0x24 PUSH1 0x0 REVERT JUMPDEST PUSH1 0x0 DUP1 REVERT JUMPDEST PUSH1 0x0 DUP1 REVERT JUMPDEST PUSH1 0x0 DUP1 REVERT JUMPDEST PUSH1 0x0 DUP1 REVERT JUMPDEST PUSH1 0x0 PUSH1 0x1F NOT PUSH1 0x1F DUP4 ADD AND SWAP1 POP SWAP2 SWAP1 POP JUMP JUMPDEST PUSH32 0x42455032303A206D696E7420746F20746865207A65726F206164647265737300 PUSH1 0x0 DUP3 ADD MSTORE POP JUMP JUMPDEST PUSH3 0x958 DUP2 PUSH3 0x792 JUMP JUMPDEST DUP2 EQ PUSH3 0x964 JUMPI PUSH1 0x0 DUP1 REVERT JUMPDEST POP JUMP JUMPDEST PUSH2 0x196E DUP1 PUSH3 0x977 PUSH1 0x0 CODECOPY PUSH1 0x0 RETURN INVALID PUSH1 0x80 PUSH1 0x40 MSTORE CALLVALUE DUP1 ISZERO PUSH2 0x10 JUMPI PUSH1 0x0 DUP1 REVERT JUMPDEST POP PUSH1 0x4 CALLDATASIZE LT PUSH2 0x10B JUMPI PUSH1 0x0 CALLDATALOAD PUSH1 0xE0 SHR DUP1 PUSH4 0x715018A6 GT PUSH2 0xA2 JUMPI DUP1 PUSH4 0x95D89B41 GT PUSH2 0x71 JUMPI DUP1 PUSH4 0x95D89B41 EQ PUSH2 0x2AC JUMPI DUP1 PUSH4 0xA457C2D7 EQ PUSH2 0x2CA JUMPI DUP1 PUSH4 0xA9059CBB EQ PUSH2 0x2FA JUMPI DUP1 PUSH4 0xDD62ED3E EQ PUSH2 0x32A JUMPI DUP1 PUSH4 0xF2FDE38B EQ PUSH2 0x35A JUMPI PUSH2 0x10B JUMP JUMPDEST DUP1 PUSH4 0x715018A6 EQ PUSH2 0x248 JUMPI DUP1 PUSH4 0x7AFA1EED EQ PUSH2 0x252 JUMPI DUP1 PUSH4 0x893D20E8 EQ PUSH2 0x270 JUMPI DUP1 PUSH4 0x8DA5CB5B EQ PUSH2 0x28E JUMPI PUSH2 0x10B JUMP JUMPDEST DUP1 PUSH4 0x313CE567 GT PUSH2 0xDE JUMPI DUP1 PUSH4 0x313CE567 EQ PUSH2 0x1AC JUMPI DUP1 PUSH4 0x39509351 EQ PUSH2 0x1CA JUMPI DUP1 PUSH4 0x54FD4D50 EQ PUSH2 0x1FA JUMPI DUP1 PUSH4 0x70A08231 EQ PUSH2 0x218 JUMPI PUSH2 0x10B JUMP JUMPDEST DUP1 PUSH4 0x6FDDE03 EQ PUSH2 0x110 JUMPI DUP1 PUSH4 0x95EA7B3 EQ PUSH2 0x12E JUMPI DUP1 PUSH4 0x18160DDD EQ PUSH2 0x15E JUMPI DUP1 PUSH4 0x23B872DD EQ PUSH2 0x17C JUMPI JUMPDEST PUSH1 0x0 DUP1 REVERT JUMPDEST PUSH2 0x118 PUSH2 0x376 JUMP JUMPDEST PUSH1 0x40 MLOAD PUSH2 0x125 SWAP2 SWAP1 PUSH2 0x131D JUMP JUMPDEST PUSH1 0x40 MLOAD DUP1 SWAP2 SUB SWAP1 RETURN JUMPDEST PUSH2 0x148 PUSH1 0x4 DUP1 CALLDATASIZE SUB DUP2 ADD SWAP1 PUSH2 0x143 SWAP2 SWAP1 PUSH2 0x10F7 JUMP JUMPDEST PUSH2 0x408 JUMP JUMPDEST PUSH1 0x40 MLOAD PUSH2 0x155 SWAP2 SWAP1 PUSH2 0x1302 JUMP JUMPDEST PUSH1 0x40 MLOAD DUP1 SWAP2 SUB SWAP1 RETURN JUMPDEST PUSH2 0x166 PUSH2 0x426 JUMP JUMPDEST PUSH1 0x40 MLOAD PUSH2 0x173 SWAP2 SWAP1 PUSH2 0x145F JUMP JUMPDEST PUSH1 0x40 MLOAD DUP1 SWAP2 SUB SWAP1 RETURN JUMPDEST PUSH2 0x196 PUSH1 0x4 DUP1 CALLDATASIZE SUB DUP2 ADD SWAP1 PUSH2 0x191 SWAP2 SWAP1 PUSH2 0x10A4 JUMP JUMPDEST PUSH2 0x430 JUMP JUMPDEST PUSH1 0x40 MLOAD PUSH2 0x1A3 SWAP2 SWAP1 PUSH2 0x1302 JUMP JUMPDEST PUSH1 0x40 MLOAD DUP1 SWAP2 SUB SWAP1 RETURN JUMPDEST PUSH2 0x1B4 PUSH2 0x531 JUMP JUMPDEST PUSH1 0x40 MLOAD PUSH2 0x1C1 SWAP2 SWAP1 PUSH2 0x147A JUMP JUMPDEST PUSH1 0x40 MLOAD DUP1 SWAP2 SUB SWAP1 RETURN JUMPDEST PUSH2 0x1E4 PUSH1 0x4 DUP1 CALLDATASIZE SUB DUP2 ADD SWAP1 PUSH2 0x1DF SWAP2 SWAP1 PUSH2 0x10F7 JUMP JUMPDEST PUSH2 0x548 JUMP JUMPDEST PUSH1 0x40 MLOAD PUSH2 0x1F1 SWAP2 SWAP1 PUSH2 0x1302 JUMP JUMPDEST PUSH1 0x40 MLOAD DUP1 SWAP2 SUB SWAP1 RETURN JUMPDEST PUSH2 0x202 PUSH2 0x5F4 JUMP JUMPDEST PUSH1 0x40 MLOAD PUSH2 0x20F SWAP2 SWAP1 PUSH2 0x131D JUMP JUMPDEST PUSH1 0x40 MLOAD DUP1 SWAP2 SUB SWAP1 RETURN JUMPDEST PUSH2 0x232 PUSH1 0x4 DUP1 CALLDATASIZE SUB DUP2 ADD SWAP1 PUSH2 0x22D SWAP2 SWAP1 PUSH2 0x1037 JUMP JUMPDEST PUSH2 0x686 JUMP JUMPDEST PUSH1 0x40 MLOAD PUSH2 0x23F SWAP2 SWAP1 PUSH2 0x145F JUMP JUMPDEST PUSH1 0x40 MLOAD DUP1 SWAP2 SUB SWAP1 RETURN JUMPDEST PUSH2 0x250 PUSH2 0x6CF JUMP JUMPDEST STOP JUMPDEST PUSH2 0x25A PUSH2 0x757 JUMP JUMPDEST PUSH1 0x40 MLOAD PUSH2 0x267 SWAP2 SWAP1 PUSH2 0x131D JUMP JUMPDEST PUSH1 0x40 MLOAD DUP1 SWAP2 SUB SWAP1 RETURN JUMPDEST PUSH2 0x278 PUSH2 0x794 JUMP JUMPDEST PUSH1 0x40 MLOAD PUSH2 0x285 SWAP2 SWAP1 PUSH2 0x12E7 JUMP JUMPDEST PUSH1 0x40 MLOAD DUP1 SWAP2 SUB SWAP1 RETURN JUMPDEST PUSH2 0x296 PUSH2 0x7A3 JUMP JUMPDEST PUSH1 0x40 MLOAD PUSH2 0x2A3 SWAP2 SWAP1 PUSH2 0x12E7 JUMP JUMPDEST PUSH1 0x40 MLOAD DUP1 SWAP2 SUB SWAP1 RETURN JUMPDEST PUSH2 0x2B4 PUSH2 0x7CC JUMP JUMPDEST PUSH1 0x40 MLOAD PUSH2 0x2C1 SWAP2 SWAP1 PUSH2 0x131D JUMP JUMPDEST PUSH1 0x40 MLOAD DUP1 SWAP2 SUB SWAP1 RETURN JUMPDEST PUSH2 0x2E4 PUSH1 0x4 DUP1 CALLDATASIZE SUB DUP2 ADD SWAP1 PUSH2 0x2DF SWAP2 SWAP1 PUSH2 0x10F7 JUMP JUMPDEST PUSH2 0x85E JUMP JUMPDEST PUSH1 0x40 MLOAD PUSH2 0x2F1 SWAP2 SWAP1 PUSH2 0x1302 JUMP JUMPDEST PUSH1 0x40 MLOAD DUP1 SWAP2 SUB SWAP1 RETURN JUMPDEST PUSH2 0x314 PUSH1 0x4 DUP1 CALLDATASIZE SUB DUP2 ADD SWAP1 PUSH2 0x30F SWAP2 SWAP1 PUSH2 0x10F7 JUMP JUMPDEST PUSH2 0x952 JUMP JUMPDEST PUSH1 0x40 MLOAD PUSH2 0x321 SWAP2 SWAP1 PUSH2 0x1302 JUMP JUMPDEST PUSH1 0x40 MLOAD DUP1 SWAP2 SUB SWAP1 RETURN JUMPDEST PUSH2 0x344 PUSH1 0x4 DUP1 CALLDATASIZE SUB DUP2 ADD SWAP1 PUSH2 0x33F SWAP2 SWAP1 PUSH2 0x1064 JUMP JUMPDEST PUSH2 0x970 JUMP JUMPDEST PUSH1 0x40 MLOAD PUSH2 0x351 SWAP2 SWAP1 PUSH2 0x145F JUMP JUMPDEST PUSH1 0x40 MLOAD DUP1 SWAP2 SUB SWAP1 RETURN JUMPDEST PUSH2 0x374 PUSH1 0x4 DUP1 CALLDATASIZE SUB DUP2 ADD SWAP1 PUSH2 0x36F SWAP2 SWAP1 PUSH2 0x1037 JUMP JUMPDEST PUSH2 0x9F7 JUMP JUMPDEST STOP JUMPDEST PUSH1 0x60 PUSH1 0x4 DUP1 SLOAD PUSH2 0x385 SWAP1 PUSH2 0x15C3 JUMP JUMPDEST DUP1 PUSH1 0x1F ADD PUSH1 0x20 DUP1 SWAP2 DIV MUL PUSH1 0x20 ADD PUSH1 0x40 MLOAD SWAP1 DUP2 ADD PUSH1 0x40 MSTORE DUP1 SWAP3 SWAP2 SWAP1 DUP2 DUP2 MSTORE PUSH1 0x20 ADD DUP3 DUP1 SLOAD PUSH2 0x3B1 SWAP1 PUSH2 0x15C3 JUMP JUMPDEST DUP1 ISZERO PUSH2 0x3FE JUMPI DUP1 PUSH1 0x1F LT PUSH2 0x3D3 JUMPI PUSH2 0x100 DUP1 DUP4 SLOAD DIV MUL DUP4 MSTORE SWAP2 PUSH1 0x20 ADD SWAP2 PUSH2 0x3FE JUMP JUMPDEST DUP3 ADD SWAP2 SWAP1 PUSH1 0x0 MSTORE PUSH1 0x20 PUSH1 0x0 KECCAK256 SWAP1 JUMPDEST DUP2 SLOAD DUP2 MSTORE SWAP1 PUSH1 0x1 ADD SWAP1 PUSH1 0x20 ADD DUP1 DUP4 GT PUSH2 0x3E1 JUMPI DUP3 SWAP1 SUB PUSH1 0x1F AND DUP3 ADD SWAP2 JUMPDEST POP POP POP POP POP SWAP1 POP SWAP1 JUMP JUMPDEST PUSH1 0x0 PUSH2 0x41C PUSH2 0x415 PUSH2 0xAEF JUMP JUMPDEST DUP5 DUP5 PUSH2 0xAF7 JUMP JUMPDEST PUSH1 0x1 SWAP1 POP SWAP3 SWAP2 POP POP JUMP JUMPDEST PUSH1 0x0 PUSH1 0x3 SLOAD SWAP1 POP SWAP1 JUMP JUMPDEST PUSH1 0x0 PUSH2 0x43D DUP5 DUP5 DUP5 PUSH2 0xCC2 JUMP JUMPDEST PUSH1 0x0 PUSH1 0x2 PUSH1 0x0 DUP7 PUSH20 0xFFFFFFFFFFFFFFFFFFFFFFFFFFFFFFFFFFFFFFFF AND PUSH20 0xFFFFFFFFFFFFFFFFFFFFFFFFFFFFFFFFFFFFFFFF AND DUP2 MSTORE PUSH1 0x20 ADD SWAP1 DUP2 MSTORE PUSH1 0x20 ADD PUSH1 0x0 KECCAK256 PUSH1 0x0 PUSH2 0x488 PUSH2 0xAEF JUMP JUMPDEST PUSH20 0xFFFFFFFFFFFFFFFFFFFFFFFFFFFFFFFFFFFFFFFF AND PUSH20 0xFFFFFFFFFFFFFFFFFFFFFFFFFFFFFFFFFFFFFFFF AND DUP2 MSTORE PUSH1 0x20 ADD SWAP1 DUP2 MSTORE PUSH1 0x20 ADD PUSH1 0x0 KECCAK256 SLOAD SWAP1 POP DUP3 DUP2 LT ISZERO PUSH2 0x508 JUMPI PUSH1 0x40 MLOAD PUSH32 0x8C379A000000000000000000000000000000000000000000000000000000000 DUP2 MSTORE PUSH1 0x4 ADD PUSH2 0x4FF SWAP1 PUSH2 0x139F JUMP JUMPDEST PUSH1 0x40 MLOAD DUP1 SWAP2 SUB SWAP1 REVERT JUMPDEST PUSH2 0x525 DUP6 PUSH2 0x514 PUSH2 0xAEF JUMP JUMPDEST DUP6 DUP5 PUSH2 0x520 SWAP2 SWAP1 PUSH2 0x1507 JUMP JUMPDEST PUSH2 0xAF7 JUMP JUMPDEST PUSH1 0x1 SWAP2 POP POP SWAP4 SWAP3 POP POP POP JUMP JUMPDEST PUSH1 0x0 PUSH1 0x6 PUSH1 0x0 SWAP1 SLOAD SWAP1 PUSH2 0x100 EXP SWAP1 DIV PUSH1 0xFF AND SWAP1 POP SWAP1 JUMP JUMPDEST PUSH1 0x0 PUSH2 0x5EA PUSH2 0x555 PUSH2 0xAEF JUMP JUMPDEST DUP5 DUP5 PUSH1 0x2 PUSH1 0x0 PUSH2 0x563 PUSH2 0xAEF JUMP JUMPDEST PUSH20 0xFFFFFFFFFFFFFFFFFFFFFFFFFFFFFFFFFFFFFFFF AND PUSH20 0xFFFFFFFFFFFFFFFFFFFFFFFFFFFFFFFFFFFFFFFF AND DUP2 MSTORE PUSH1 0x20 ADD SWAP1 DUP2 MSTORE PUSH1 0x20 ADD PUSH1 0x0 KECCAK256 PUSH1 0x0 DUP9 PUSH20 0xFFFFFFFFFFFFFFFFFFFFFFFFFFFFFFFFFFFFFFFF AND PUSH20 0xFFFFFFFFFFFFFFFFFFFFFFFFFFFFFFFFFFFFFFFF AND DUP2 MSTORE PUSH1 0x20 ADD SWAP1 DUP2 MSTORE PUSH1 0x20 ADD PUSH1 0x0 KECCAK256 SLOAD PUSH2 0x5E5 SWAP2 SWAP1 PUSH2 0x14B1 JUMP JUMPDEST PUSH2 0xAF7 JUMP JUMPDEST PUSH1 0x1 SWAP1 POP SWAP3 SWAP2 POP POP JUMP JUMPDEST PUSH1 0x60 PUSH1 0x7 DUP1 SLOAD PUSH2 0x603 SWAP1 PUSH2 0x15C3 JUMP JUMPDEST DUP1 PUSH1 0x1F ADD PUSH1 0x20 DUP1 SWAP2 DIV MUL PUSH1 0x20 ADD PUSH1 0x40 MLOAD SWAP1 DUP2 ADD PUSH1 0x40 MSTORE DUP1 SWAP3 SWAP2 SWAP1 DUP2 DUP2 MSTORE PUSH1 0x20 ADD DUP3 DUP1 SLOAD PUSH2 0x62F SWAP1 PUSH2 0x15C3 JUMP JUMPDEST DUP1 ISZERO PUSH2 0x67C JUMPI DUP1 PUSH1 0x1F LT PUSH2 0x651 JUMPI PUSH2 0x100 DUP1 DUP4 SLOAD DIV MUL DUP4 MSTORE SWAP2 PUSH1 0x20 ADD SWAP2 PUSH2 0x67C JUMP JUMPDEST DUP3 ADD SWAP2 SWAP1 PUSH1 0x0 MSTORE PUSH1 0x20 PUSH1 0x0 KECCAK256 SWAP1 JUMPDEST DUP2 SLOAD DUP2 MSTORE SWAP1 PUSH1 0x1 ADD SWAP1 PUSH1 0x20 ADD DUP1 DUP4 GT PUSH2 0x65F JUMPI DUP3 SWAP1 SUB PUSH1 0x1F AND DUP3 ADD SWAP2 JUMPDEST POP POP POP POP POP SWAP1 POP SWAP1 JUMP JUMPDEST PUSH1 0x0 PUSH1 0x1 PUSH1 0x0 DUP4 PUSH20 0xFFFFFFFFFFFFFFFFFFFFFFFFFFFFFFFFFFFFFFFF AND PUSH20 0xFFFFFFFFFFFFFFFFFFFFFFFFFFFFFFFFFFFFFFFF AND DUP2 MSTORE PUSH1 0x20 ADD SWAP1 DUP2 MSTORE PUSH1 0x20 ADD PUSH1 0x0 KECCAK256 SLOAD SWAP1 POP SWAP2 SWAP1 POP JUMP JUMPDEST PUSH2 0x6D7 PUSH2 0xAEF JUMP JUMPDEST PUSH20 0xFFFFFFFFFFFFFFFFFFFFFFFFFFFFFFFFFFFFFFFF AND PUSH2 0x6F5 PUSH2 0x7A3 JUMP JUMPDEST PUSH20 0xFFFFFFFFFFFFFFFFFFFFFFFFFFFFFFFFFFFFFFFF AND EQ PUSH2 0x74B JUMPI PUSH1 0x40 MLOAD PUSH32 0x8C379A000000000000000000000000000000000000000000000000000000000 DUP2 MSTORE PUSH1 0x4 ADD PUSH2 0x742 SWAP1 PUSH2 0x13BF JUMP JUMPDEST PUSH1 0x40 MLOAD DUP1 SWAP2 SUB SWAP1 REVERT JUMPDEST PUSH2 0x755 PUSH1 0x0 PUSH2 0xF44 JUMP JUMPDEST JUMP JUMPDEST PUSH1 0x60 PUSH1 0x40 MLOAD DUP1 PUSH1 0x40 ADD PUSH1 0x40 MSTORE DUP1 PUSH1 0x13 DUP2 MSTORE PUSH1 0x20 ADD PUSH32 0x4C6F73742047656E657261746F7220436F6D7000000000000000000000000000 DUP2 MSTORE POP SWAP1 POP SWAP1 JUMP JUMPDEST PUSH1 0x0 PUSH2 0x79E PUSH2 0x7A3 JUMP JUMPDEST SWAP1 POP SWAP1 JUMP JUMPDEST PUSH1 0x0 DUP1 PUSH1 0x0 SWAP1 SLOAD SWAP1 PUSH2 0x100 EXP SWAP1 DIV PUSH20 0xFFFFFFFFFFFFFFFFFFFFFFFFFFFFFFFFFFFFFFFF AND SWAP1 POP SWAP1 JUMP JUMPDEST PUSH1 0x60 PUSH1 0x5 DUP1 SLOAD PUSH2 0x7DB SWAP1 PUSH2 0x15C3 JUMP JUMPDEST DUP1 PUSH1 0x1F ADD PUSH1 0x20 DUP1 SWAP2 DIV MUL PUSH1 0x20 ADD PUSH1 0x40 MLOAD SWAP1 DUP2 ADD PUSH1 0x40 MSTORE DUP1 SWAP3 SWAP2 SWAP1 DUP2 DUP2 MSTORE PUSH1 0x20 ADD DUP3 DUP1 SLOAD PUSH2 0x807 SWAP1 PUSH2 0x15C3 JUMP JUMPDEST DUP1 ISZERO PUSH2 0x854 JUMPI DUP1 PUSH1 0x1F LT PUSH2 0x829 JUMPI PUSH2 0x100 DUP1 DUP4 SLOAD DIV MUL DUP4 MSTORE SWAP2 PUSH1 0x20 ADD SWAP2 PUSH2 0x854 JUMP JUMPDEST DUP3 ADD SWAP2 SWAP1 PUSH1 0x0 MSTORE PUSH1 0x20 PUSH1 0x0 KECCAK256 SWAP1 JUMPDEST DUP2 SLOAD DUP2 MSTORE SWAP1 PUSH1 0x1 ADD SWAP1 PUSH1 0x20 ADD DUP1 DUP4 GT PUSH2 0x837 JUMPI DUP3 SWAP1 SUB PUSH1 0x1F AND DUP3 ADD SWAP2 JUMPDEST POP POP POP POP POP SWAP1 POP SWAP1 JUMP JUMPDEST PUSH1 0x0 DUP1 PUSH1 0x2 PUSH1 0x0 PUSH2 0x86D PUSH2 0xAEF JUMP JUMPDEST PUSH20 0xFFFFFFFFFFFFFFFFFFFFFFFFFFFFFFFFFFFFFFFF AND PUSH20 0xFFFFFFFFFFFFFFFFFFFFFFFFFFFFFFFFFFFFFFFF AND DUP2 MSTORE PUSH1 0x20 ADD SWAP1 DUP2 MSTORE PUSH1 0x20 ADD PUSH1 0x0 KECCAK256 PUSH1 0x0 DUP6 PUSH20 0xFFFFFFFFFFFFFFFFFFFFFFFFFFFFFFFFFFFFFFFF AND PUSH20 0xFFFFFFFFFFFFFFFFFFFFFFFFFFFFFFFFFFFFFFFF AND DUP2 MSTORE PUSH1 0x20 ADD SWAP1 DUP2 MSTORE PUSH1 0x20 ADD PUSH1 0x0 KECCAK256 SLOAD SWAP1 POP DUP3 DUP2 LT ISZERO PUSH2 0x92A JUMPI PUSH1 0x40 MLOAD PUSH32 0x8C379A000000000000000000000000000000000000000000000000000000000 DUP2 MSTORE PUSH1 0x4 ADD PUSH2 0x921 SWAP1 PUSH2 0x141F JUMP JUMPDEST PUSH1 0x40 MLOAD DUP1 SWAP2 SUB SWAP1 REVERT JUMPDEST PUSH2 0x947 PUSH2 0x935 PUSH2 0xAEF JUMP JUMPDEST DUP6 DUP6 DUP5 PUSH2 0x942 SWAP2 SWAP1 PUSH2 0x1507 JUMP JUMPDEST PUSH2 0xAF7 JUMP JUMPDEST PUSH1 0x1 SWAP2 POP POP SWAP3 SWAP2 POP POP JUMP JUMPDEST PUSH1 0x0 PUSH2 0x966 PUSH2 0x95F PUSH2 0xAEF JUMP JUMPDEST DUP5 DUP5 PUSH2 0xCC2 JUMP JUMPDEST PUSH1 0x1 SWAP1 POP SWAP3 SWAP2 POP POP JUMP JUMPDEST PUSH1 0x0 PUSH1 0x2 PUSH1 0x0 DUP5 PUSH20 0xFFFFFFFFFFFFFFFFFFFFFFFFFFFFFFFFFFFFFFFF AND PUSH20 0xFFFFFFFFFFFFFFFFFFFFFFFFFFFFFFFFFFFFFFFF AND DUP2 MSTORE PUSH1 0x20 ADD SWAP1 DUP2 MSTORE PUSH1 0x20 ADD PUSH1 0x0 KECCAK256 PUSH1 0x0 DUP4 PUSH20 0xFFFFFFFFFFFFFFFFFFFFFFFFFFFFFFFFFFFFFFFF AND PUSH20 0xFFFFFFFFFFFFFFFFFFFFFFFFFFFFFFFFFFFFFFFF AND DUP2 MSTORE PUSH1 0x20 ADD SWAP1 DUP2 MSTORE PUSH1 0x20 ADD PUSH1 0x0 KECCAK256 SLOAD SWAP1 POP SWAP3 SWAP2 POP POP JUMP JUMPDEST PUSH2 0x9FF PUSH2 0xAEF JUMP JUMPDEST PUSH20 0xFFFFFFFFFFFFFFFFFFFFFFFFFFFFFFFFFFFFFFFF AND PUSH2 0xA1D PUSH2 0x7A3 JUMP JUMPDEST PUSH20 0xFFFFFFFFFFFFFFFFFFFFFFFFFFFFFFFFFFFFFFFF AND EQ PUSH2 0xA73 JUMPI PUSH1 0x40 MLOAD PUSH32 0x8C379A000000000000000000000000000000000000000000000000000000000 DUP2 MSTORE PUSH1 0x4 ADD PUSH2 0xA6A SWAP1 PUSH2 0x13BF JUMP JUMPDEST PUSH1 0x40 MLOAD DUP1 SWAP2 SUB SWAP1 REVERT JUMPDEST PUSH1 0x0 PUSH20 0xFFFFFFFFFFFFFFFFFFFFFFFFFFFFFFFFFFFFFFFF AND DUP2 PUSH20 0xFFFFFFFFFFFFFFFFFFFFFFFFFFFFFFFFFFFFFFFF AND EQ ISZERO PUSH2 0xAE3 JUMPI PUSH1 0x40 MLOAD PUSH32 0x8C379A000000000000000000000000000000000000000000000000000000000 DUP2 MSTORE PUSH1 0x4 ADD PUSH2 0xADA SWAP1 PUSH2 0x137F JUMP JUMPDEST PUSH1 0x40 MLOAD DUP1 SWAP2 SUB SWAP1 REVERT JUMPDEST PUSH2 0xAEC DUP2 PUSH2 0xF44 JUMP JUMPDEST POP JUMP JUMPDEST PUSH1 0x0 CALLER SWAP1 POP SWAP1 JUMP JUMPDEST PUSH1 0x0 PUSH20 0xFFFFFFFFFFFFFFFFFFFFFFFFFFFFFFFFFFFFFFFF AND DUP4 PUSH20 0xFFFFFFFFFFFFFFFFFFFFFFFFFFFFFFFFFFFFFFFF AND EQ ISZERO PUSH2 0xB67 JUMPI PUSH1 0x40 MLOAD PUSH32 0x8C379A000000000000000000000000000000000000000000000000000000000 DUP2 MSTORE PUSH1 0x4 ADD PUSH2 0xB5E SWAP1 PUSH2 0x135F JUMP JUMPDEST PUSH1 0x40 MLOAD DUP1 SWAP2 SUB SWAP1 REVERT JUMPDEST PUSH1 0x0 PUSH20 0xFFFFFFFFFFFFFFFFFFFFFFFFFFFFFFFFFFFFFFFF AND DUP3 PUSH20 0xFFFFFFFFFFFFFFFFFFFFFFFFFFFFFFFFFFFFFFFF AND EQ ISZERO PUSH2 0xBD7 JUMPI PUSH1 0x40 MLOAD PUSH32 0x8C379A000000000000000000000000000000000000000000000000000000000 DUP2 MSTORE PUSH1 0x4 ADD PUSH2 0xBCE SWAP1 PUSH2 0x143F JUMP JUMPDEST PUSH1 0x40 MLOAD DUP1 SWAP2 SUB SWAP1 REVERT JUMPDEST DUP1 PUSH1 0x2 PUSH1 0x0 DUP6 PUSH20 0xFFFFFFFFFFFFFFFFFFFFFFFFFFFFFFFFFFFFFFFF AND PUSH20 0xFFFFFFFFFFFFFFFFFFFFFFFFFFFFFFFFFFFFFFFF AND DUP2 MSTORE PUSH1 0x20 ADD SWAP1 DUP2 MSTORE PUSH1 0x20 ADD PUSH1 0x0 KECCAK256 PUSH1 0x0 DUP5 PUSH20 0xFFFFFFFFFFFFFFFFFFFFFFFFFFFFFFFFFFFFFFFF AND PUSH20 0xFFFFFFFFFFFFFFFFFFFFFFFFFFFFFFFFFFFFFFFF AND DUP2 MSTORE PUSH1 0x20 ADD SWAP1 DUP2 MSTORE PUSH1 0x20 ADD PUSH1 0x0 KECCAK256 DUP2 SWAP1 SSTORE POP DUP2 PUSH20 0xFFFFFFFFFFFFFFFFFFFFFFFFFFFFFFFFFFFFFFFF AND DUP4 PUSH20 0xFFFFFFFFFFFFFFFFFFFFFFFFFFFFFFFFFFFFFFFF AND PUSH32 0x8C5BE1E5EBEC7D5BD14F71427D1E84F3DD0314C0F7B2291E5B200AC8C7C3B925 DUP4 PUSH1 0x40 MLOAD PUSH2 0xCB5 SWAP2 SWAP1 PUSH2 0x145F JUMP JUMPDEST PUSH1 0x40 MLOAD DUP1 SWAP2 SUB SWAP1 LOG3 POP POP POP JUMP JUMPDEST PUSH1 0x0 PUSH20 0xFFFFFFFFFFFFFFFFFFFFFFFFFFFFFFFFFFFFFFFF AND DUP4 PUSH20 0xFFFFFFFFFFFFFFFFFFFFFFFFFFFFFFFFFFFFFFFF AND EQ ISZERO PUSH2 0xD32 JUMPI PUSH1 0x40 MLOAD PUSH32 0x8C379A000000000000000000000000000000000000000000000000000000000 DUP2 MSTORE PUSH1 0x4 ADD PUSH2 0xD29 SWAP1 PUSH2 0x133F JUMP JUMPDEST PUSH1 0x40 MLOAD DUP1 SWAP2 SUB SWAP1 REVERT JUMPDEST PUSH1 0x0 PUSH20 0xFFFFFFFFFFFFFFFFFFFFFFFFFFFFFFFFFFFFFFFF AND DUP3 PUSH20 0xFFFFFFFFFFFFFFFFFFFFFFFFFFFFFFFFFFFFFFFF AND EQ ISZERO PUSH2 0xDA2 JUMPI PUSH1 0x40 MLOAD PUSH32 0x8C379A000000000000000000000000000000000000000000000000000000000 DUP2 MSTORE PUSH1 0x4 ADD PUSH2 0xD99 SWAP1 PUSH2 0x13FF JUMP JUMPDEST PUSH1 0x40 MLOAD DUP1 SWAP2 SUB SWAP1 REVERT JUMPDEST PUSH2 0xDAD DUP4 DUP4 DUP4 PUSH2 0x1008 JUMP JUMPDEST PUSH1 0x0 PUSH1 0x1 PUSH1 0x0 DUP6 PUSH20 0xFFFFFFFFFFFFFFFFFFFFFFFFFFFFFFFFFFFFFFFF AND PUSH20 0xFFFFFFFFFFFFFFFFFFFFFFFFFFFFFFFFFFFFFFFF AND DUP2 MSTORE PUSH1 0x20 ADD SWAP1 DUP2 MSTORE PUSH1 0x20 ADD PUSH1 0x0 KECCAK256 SLOAD SWAP1 POP DUP2 DUP2 LT ISZERO PUSH2 0xE34 JUMPI PUSH1 0x40 MLOAD PUSH32 0x8C379A000000000000000000000000000000000000000000000000000000000 DUP2 MSTORE PUSH1 0x4 ADD PUSH2 0xE2B SWAP1 PUSH2 0x13DF JUMP JUMPDEST PUSH1 0x40 MLOAD DUP1 SWAP2 SUB SWAP1 REVERT JUMPDEST DUP2 DUP2 PUSH2 0xE40 SWAP2 SWAP1 PUSH2 0x1507 JUMP JUMPDEST PUSH1 0x1 PUSH1 0x0 DUP7 PUSH20 0xFFFFFFFFFFFFFFFFFFFFFFFFFFFFFFFFFFFFFFFF AND PUSH20 0xFFFFFFFFFFFFFFFFFFFFFFFFFFFFFFFFFFFFFFFF AND DUP2 MSTORE PUSH1 0x20 ADD SWAP1 DUP2 MSTORE PUSH1 0x20 ADD PUSH1 0x0 KECCAK256 DUP2 SWAP1 SSTORE POP DUP2 PUSH1 0x1 PUSH1 0x0 DUP6 PUSH20 0xFFFFFFFFFFFFFFFFFFFFFFFFFFFFFFFFFFFFFFFF AND PUSH20 0xFFFFFFFFFFFFFFFFFFFFFFFFFFFFFFFFFFFFFFFF AND DUP2 MSTORE PUSH1 0x20 ADD SWAP1 DUP2 MSTORE PUSH1 0x20 ADD PUSH1 0x0 KECCAK256 PUSH1 0x0 DUP3 DUP3 SLOAD PUSH2 0xED2 SWAP2 SWAP1 PUSH2 0x14B1 JUMP JUMPDEST SWAP3 POP POP DUP2 SWAP1 SSTORE POP DUP3 PUSH20 0xFFFFFFFFFFFFFFFFFFFFFFFFFFFFFFFFFFFFFFFF AND DUP5 PUSH20 0xFFFFFFFFFFFFFFFFFFFFFFFFFFFFFFFFFFFFFFFF AND PUSH32 0xDDF252AD1BE2C89B69C2B068FC378DAA952BA7F163C4A11628F55A4DF523B3EF DUP5 PUSH1 0x40 MLOAD PUSH2 0xF36 SWAP2 SWAP1 PUSH2 0x145F JUMP JUMPDEST PUSH1 0x40 MLOAD DUP1 SWAP2 SUB SWAP1 LOG3 POP POP POP POP JUMP JUMPDEST PUSH1 0x0 DUP1 PUSH1 0x0 SWAP1 SLOAD SWAP1 PUSH2 0x100 EXP SWAP1 DIV PUSH20 0xFFFFFFFFFFFFFFFFFFFFFFFFFFFFFFFFFFFFFFFF AND SWAP1 POP DUP2 PUSH1 0x0 DUP1 PUSH2 0x100 EXP DUP2 SLOAD DUP2 PUSH20 0xFFFFFFFFFFFFFFFFFFFFFFFFFFFFFFFFFFFFFFFF MUL NOT AND SWAP1 DUP4 PUSH20 0xFFFFFFFFFFFFFFFFFFFFFFFFFFFFFFFFFFFFFFFF AND MUL OR SWAP1 SSTORE POP DUP2 PUSH20 0xFFFFFFFFFFFFFFFFFFFFFFFFFFFFFFFFFFFFFFFF AND DUP2 PUSH20 0xFFFFFFFFFFFFFFFFFFFFFFFFFFFFFFFFFFFFFFFF AND PUSH32 0x8BE0079C531659141344CD1FD0A4F28419497F9722A3DAAFE3B4186F6B6457E0 PUSH1 0x40 MLOAD PUSH1 0x40 MLOAD DUP1 SWAP2 SUB SWAP1 LOG3 POP POP JUMP JUMPDEST POP POP POP JUMP JUMPDEST PUSH1 0x0 DUP2 CALLDATALOAD SWAP1 POP PUSH2 0x101C DUP2 PUSH2 0x190A JUMP JUMPDEST SWAP3 SWAP2 POP POP JUMP JUMPDEST PUSH1 0x0 DUP2 CALLDATALOAD SWAP1 POP PUSH2 0x1031 DUP2 PUSH2 0x1921 JUMP JUMPDEST SWAP3 SWAP2 POP POP JUMP JUMPDEST PUSH1 0x0 PUSH1 0x20 DUP3 DUP5 SUB SLT ISZERO PUSH2 0x104D JUMPI PUSH2 0x104C PUSH2 0x1653 JUMP JUMPDEST JUMPDEST PUSH1 0x0 PUSH2 0x105B DUP5 DUP3 DUP6 ADD PUSH2 0x100D JUMP JUMPDEST SWAP2 POP POP SWAP3 SWAP2 POP POP JUMP JUMPDEST PUSH1 0x0 DUP1 PUSH1 0x40 DUP4 DUP6 SUB SLT ISZERO PUSH2 0x107B JUMPI PUSH2 0x107A PUSH2 0x1653 JUMP JUMPDEST JUMPDEST PUSH1 0x0 PUSH2 0x1089 DUP6 DUP3 DUP7 ADD PUSH2 0x100D JUMP JUMPDEST SWAP3 POP POP PUSH1 0x20 PUSH2 0x109A DUP6 DUP3 DUP7 ADD PUSH2 0x100D JUMP JUMPDEST SWAP2 POP POP SWAP3 POP SWAP3 SWAP1 POP JUMP JUMPDEST PUSH1 0x0 DUP1 PUSH1 0x0 PUSH1 0x60 DUP5 DUP7 SUB SLT ISZERO PUSH2 0x10BD JUMPI PUSH2 0x10BC PUSH2 0x1653 JUMP JUMPDEST JUMPDEST PUSH1 0x0 PUSH2 0x10CB DUP7 DUP3 DUP8 ADD PUSH2 0x100D JUMP JUMPDEST SWAP4 POP POP PUSH1 0x20 PUSH2 0x10DC DUP7 DUP3 DUP8 ADD PUSH2 0x100D JUMP JUMPDEST SWAP3 POP POP PUSH1 0x40 PUSH2 0x10ED DUP7 DUP3 DUP8 ADD PUSH2 0x1022 JUMP JUMPDEST SWAP2 POP POP SWAP3 POP SWAP3 POP SWAP3 JUMP JUMPDEST PUSH1 0x0 DUP1 PUSH1 0x40 DUP4 DUP6 SUB SLT ISZERO PUSH2 0x110E JUMPI PUSH2 0x110D PUSH2 0x1653 JUMP JUMPDEST JUMPDEST PUSH1 0x0 PUSH2 0x111C DUP6 DUP3 DUP7 ADD PUSH2 0x100D JUMP JUMPDEST SWAP3 POP POP PUSH1 0x20 PUSH2 0x112D DUP6 DUP3 DUP7 ADD PUSH2 0x1022 JUMP JUMPDEST SWAP2 POP POP SWAP3 POP SWAP3 SWAP1 POP JUMP JUMPDEST PUSH2 0x1140 DUP2 PUSH2 0x153B JUMP JUMPDEST DUP3 MSTORE POP POP JUMP JUMPDEST PUSH2 0x114F DUP2 PUSH2 0x154D JUMP JUMPDEST DUP3 MSTORE POP POP JUMP JUMPDEST PUSH1 0x0 PUSH2 0x1160 DUP3 PUSH2 0x1495 JUMP JUMPDEST PUSH2 0x116A DUP2 DUP6 PUSH2 0x14A0 JUMP JUMPDEST SWAP4 POP PUSH2 0x117A DUP2 DUP6 PUSH1 0x20 DUP7 ADD PUSH2 0x1590 JUMP JUMPDEST PUSH2 0x1183 DUP2 PUSH2 0x1658 JUMP JUMPDEST DUP5 ADD SWAP2 POP POP SWAP3 SWAP2 POP POP JUMP JUMPDEST PUSH1 0x0 PUSH2 0x119B PUSH1 0x25 DUP4 PUSH2 0x14A0 JUMP JUMPDEST SWAP2 POP PUSH2 0x11A6 DUP3 PUSH2 0x1669 JUMP JUMPDEST PUSH1 0x40 DUP3 ADD SWAP1 POP SWAP2 SWAP1 POP JUMP JUMPDEST PUSH1 0x0 PUSH2 0x11BE PUSH1 0x24 DUP4 PUSH2 0x14A0 JUMP JUMPDEST SWAP2 POP PUSH2 0x11C9 DUP3 PUSH2 0x16B8 JUMP JUMPDEST PUSH1 0x40 DUP3 ADD SWAP1 POP SWAP2 SWAP1 POP JUMP JUMPDEST PUSH1 0x0 PUSH2 0x11E1 PUSH1 0x26 DUP4 PUSH2 0x14A0 JUMP JUMPDEST SWAP2 POP PUSH2 0x11EC DUP3 PUSH2 0x1707 JUMP JUMPDEST PUSH1 0x40 DUP3 ADD SWAP1 POP SWAP2 SWAP1 POP JUMP JUMPDEST PUSH1 0x0 PUSH2 0x1204 PUSH1 0x28 DUP4 PUSH2 0x14A0 JUMP JUMPDEST SWAP2 POP PUSH2 0x120F DUP3 PUSH2 0x1756 JUMP JUMPDEST PUSH1 0x40 DUP3 ADD SWAP1 POP SWAP2 SWAP1 POP JUMP JUMPDEST PUSH1 0x0 PUSH2 0x1227 PUSH1 0x20 DUP4 PUSH2 0x14A0 JUMP JUMPDEST SWAP2 POP PUSH2 0x1232 DUP3 PUSH2 0x17A5 JUMP JUMPDEST PUSH1 0x20 DUP3 ADD SWAP1 POP SWAP2 SWAP1 POP JUMP JUMPDEST PUSH1 0x0 PUSH2 0x124A PUSH1 0x26 DUP4 PUSH2 0x14A0 JUMP JUMPDEST SWAP2 POP PUSH2 0x1255 DUP3 PUSH2 0x17CE JUMP JUMPDEST PUSH1 0x40 DUP3 ADD SWAP1 POP SWAP2 SWAP1 POP JUMP JUMPDEST PUSH1 0x0 PUSH2 0x126D PUSH1 0x23 DUP4 PUSH2 0x14A0 JUMP JUMPDEST SWAP2 POP PUSH2 0x1278 DUP3 PUSH2 0x181D JUMP JUMPDEST PUSH1 0x40 DUP3 ADD SWAP1 POP SWAP2 SWAP1 POP JUMP JUMPDEST PUSH1 0x0 PUSH2 0x1290 PUSH1 0x25 DUP4 PUSH2 0x14A0 JUMP JUMPDEST SWAP2 POP PUSH2 0x129B DUP3 PUSH2 0x186C JUMP JUMPDEST PUSH1 0x40 DUP3 ADD SWAP1 POP SWAP2 SWAP1 POP JUMP JUMPDEST PUSH1 0x0 PUSH2 0x12B3 PUSH1 0x22 DUP4 PUSH2 0x14A0 JUMP JUMPDEST SWAP2 POP PUSH2 0x12BE DUP3 PUSH2 0x18BB JUMP JUMPDEST PUSH1 0x40 DUP3 ADD SWAP1 POP SWAP2 SWAP1 POP JUMP JUMPDEST PUSH2 0x12D2 DUP2 PUSH2 0x1579 JUMP JUMPDEST DUP3 MSTORE POP POP JUMP JUMPDEST PUSH2 0x12E1 DUP2 PUSH2 0x1583 JUMP JUMPDEST DUP3 MSTORE POP POP JUMP JUMPDEST PUSH1 0x0 PUSH1 0x20 DUP3 ADD SWAP1 POP PUSH2 0x12FC PUSH1 0x0 DUP4 ADD DUP5 PUSH2 0x1137 JUMP JUMPDEST SWAP3 SWAP2 POP POP JUMP JUMPDEST PUSH1 0x0 PUSH1 0x20 DUP3 ADD SWAP1 POP PUSH2 0x1317 PUSH1 0x0 DUP4 ADD DUP5 PUSH2 0x1146 JUMP JUMPDEST SWAP3 SWAP2 POP POP JUMP JUMPDEST PUSH1 0x0 PUSH1 0x20 DUP3 ADD SWAP1 POP DUP2 DUP2 SUB PUSH1 0x0 DUP4 ADD MSTORE PUSH2 0x1337 DUP2 DUP5 PUSH2 0x1155 JUMP JUMPDEST SWAP1 POP SWAP3 SWAP2 POP POP JUMP JUMPDEST PUSH1 0x0 PUSH1 0x20 DUP3 ADD SWAP1 POP DUP2 DUP2 SUB PUSH1 0x0 DUP4 ADD MSTORE PUSH2 0x1358 DUP2 PUSH2 0x118E JUMP JUMPDEST SWAP1 POP SWAP2 SWAP1 POP JUMP JUMPDEST PUSH1 0x0 PUSH1 0x20 DUP3 ADD SWAP1 POP DUP2 DUP2 SUB PUSH1 0x0 DUP4 ADD MSTORE PUSH2 0x1378 DUP2 PUSH2 0x11B1 JUMP JUMPDEST SWAP1 POP SWAP2 SWAP1 POP JUMP JUMPDEST PUSH1 0x0 PUSH1 0x20 DUP3 ADD SWAP1 POP DUP2 DUP2 SUB PUSH1 0x0 DUP4 ADD MSTORE PUSH2 0x1398 DUP2 PUSH2 0x11D4 JUMP JUMPDEST SWAP1 POP SWAP2 SWAP1 POP JUMP JUMPDEST PUSH1 0x0 PUSH1 0x20 DUP3 ADD SWAP1 POP DUP2 DUP2 SUB PUSH1 0x0 DUP4 ADD MSTORE PUSH2 0x13B8 DUP2 PUSH2 0x11F7 JUMP JUMPDEST SWAP1 POP SWAP2 SWAP1 POP JUMP JUMPDEST PUSH1 0x0 PUSH1 0x20 DUP3 ADD SWAP1 POP DUP2 DUP2 SUB PUSH1 0x0 DUP4 ADD MSTORE PUSH2 0x13D8 DUP2 PUSH2 0x121A JUMP JUMPDEST SWAP1 POP SWAP2 SWAP1 POP JUMP JUMPDEST PUSH1 0x0 PUSH1 0x20 DUP3 ADD SWAP1 POP DUP2 DUP2 SUB PUSH1 0x0 DUP4 ADD MSTORE PUSH2 0x13F8 DUP2 PUSH2 0x123D JUMP JUMPDEST SWAP1 POP SWAP2 SWAP1 POP JUMP JUMPDEST PUSH1 0x0 PUSH1 0x20 DUP3 ADD SWAP1 POP DUP2 DUP2 SUB PUSH1 0x0 DUP4 ADD MSTORE PUSH2 0x1418 DUP2 PUSH2 0x1260 JUMP JUMPDEST SWAP1 POP SWAP2 SWAP1 POP JUMP JUMPDEST PUSH1 0x0 PUSH1 0x20 DUP3 ADD SWAP1 POP DUP2 DUP2 SUB PUSH1 0x0 DUP4 ADD MSTORE PUSH2 0x1438 DUP2 PUSH2 0x1283 JUMP JUMPDEST SWAP1 POP SWAP2 SWAP1 POP JUMP JUMPDEST PUSH1 0x0 PUSH1 0x20 DUP3 ADD SWAP1 POP DUP2 DUP2 SUB PUSH1 0x0 DUP4 ADD MSTORE PUSH2 0x1458 DUP2 PUSH2 0x12A6 JUMP JUMPDEST SWAP1 POP SWAP2 SWAP1 POP JUMP JUMPDEST PUSH1 0x0 PUSH1 0x20 DUP3 ADD SWAP1 POP PUSH2 0x1474 PUSH1 0x0 DUP4 ADD DUP5 PUSH2 0x12C9 JUMP JUMPDEST SWAP3 SWAP2 POP POP JUMP JUMPDEST PUSH1 0x0 PUSH1 0x20 DUP3 ADD SWAP1 POP PUSH2 0x148F PUSH1 0x0 DUP4 ADD DUP5 PUSH2 0x12D8 JUMP JUMPDEST SWAP3 SWAP2 POP POP JUMP JUMPDEST PUSH1 0x0 DUP2 MLOAD SWAP1 POP SWAP2 SWAP1 POP JUMP JUMPDEST PUSH1 0x0 DUP3 DUP3 MSTORE PUSH1 0x20 DUP3 ADD SWAP1 POP SWAP3 SWAP2 POP POP JUMP JUMPDEST PUSH1 0x0 PUSH2 0x14BC DUP3 PUSH2 0x1579 JUMP JUMPDEST SWAP2 POP PUSH2 0x14C7 DUP4 PUSH2 0x1579 JUMP JUMPDEST SWAP3 POP DUP3 PUSH32 0xFFFFFFFFFFFFFFFFFFFFFFFFFFFFFFFFFFFFFFFFFFFFFFFFFFFFFFFFFFFFFFFF SUB DUP3 GT ISZERO PUSH2 0x14FC JUMPI PUSH2 0x14FB PUSH2 0x15F5 JUMP JUMPDEST JUMPDEST DUP3 DUP3 ADD SWAP1 POP SWAP3 SWAP2 POP POP JUMP JUMPDEST PUSH1 0x0 PUSH2 0x1512 DUP3 PUSH2 0x1579 JUMP JUMPDEST SWAP2 POP PUSH2 0x151D DUP4 PUSH2 0x1579 JUMP JUMPDEST SWAP3 POP DUP3 DUP3 LT ISZERO PUSH2 0x1530 JUMPI PUSH2 0x152F PUSH2 0x15F5 JUMP JUMPDEST JUMPDEST DUP3 DUP3 SUB SWAP1 POP SWAP3 SWAP2 POP POP JUMP JUMPDEST PUSH1 0x0 PUSH2 0x1546 DUP3 PUSH2 0x1559 JUMP JUMPDEST SWAP1 POP SWAP2 SWAP1 POP JUMP JUMPDEST PUSH1 0x0 DUP2 ISZERO ISZERO SWAP1 POP SWAP2 SWAP1 POP JUMP JUMPDEST PUSH1 0x0 PUSH20 0xFFFFFFFFFFFFFFFFFFFFFFFFFFFFFFFFFFFFFFFF DUP3 AND SWAP1 POP SWAP2 SWAP1 POP JUMP JUMPDEST PUSH1 0x0 DUP2 SWAP1 POP SWAP2 SWAP1 POP JUMP JUMPDEST PUSH1 0x0 PUSH1 0xFF DUP3 AND SWAP1 POP SWAP2 SWAP1 POP JUMP JUMPDEST PUSH1 0x0 JUMPDEST DUP4 DUP2 LT ISZERO PUSH2 0x15AE JUMPI DUP1 DUP3 ADD MLOAD DUP2 DUP5 ADD MSTORE PUSH1 0x20 DUP2 ADD SWAP1 POP PUSH2 0x1593 JUMP JUMPDEST DUP4 DUP2 GT ISZERO PUSH2 0x15BD JUMPI PUSH1 0x0 DUP5 DUP5 ADD MSTORE JUMPDEST POP POP POP POP JUMP JUMPDEST PUSH1 0x0 PUSH1 0x2 DUP3 DIV SWAP1 POP PUSH1 0x1 DUP3 AND DUP1 PUSH2 0x15DB JUMPI PUSH1 0x7F DUP3 AND SWAP2 POP JUMPDEST PUSH1 0x20 DUP3 LT DUP2 EQ ISZERO PUSH2 0x15EF JUMPI PUSH2 0x15EE PUSH2 0x1624 JUMP JUMPDEST JUMPDEST POP SWAP2 SWAP1 POP JUMP JUMPDEST PUSH32 0x4E487B7100000000000000000000000000000000000000000000000000000000 PUSH1 0x0 MSTORE PUSH1 0x11 PUSH1 0x4 MSTORE PUSH1 0x24 PUSH1 0x0 REVERT JUMPDEST PUSH32 0x4E487B7100000000000000000000000000000000000000000000000000000000 PUSH1 0x0 MSTORE PUSH1 0x22 PUSH1 0x4 MSTORE PUSH1 0x24 PUSH1 0x0 REVERT JUMPDEST PUSH1 0x0 DUP1 REVERT JUMPDEST PUSH1 0x0 PUSH1 0x1F NOT PUSH1 0x1F DUP4 ADD AND SWAP1 POP SWAP2 SWAP1 POP JUMP JUMPDEST PUSH32 0x42455032303A207472616E736665722066726F6D20746865207A65726F206164 PUSH1 0x0 DUP3 ADD MSTORE PUSH32 0x6472657373000000000000000000000000000000000000000000000000000000 PUSH1 0x20 DUP3 ADD MSTORE POP JUMP JUMPDEST PUSH32 0x42455032303A20617070726F76652066726F6D20746865207A65726F20616464 PUSH1 0x0 DUP3 ADD MSTORE PUSH32 0x7265737300000000000000000000000000000000000000000000000000000000 PUSH1 0x20 DUP3 ADD MSTORE POP JUMP JUMPDEST PUSH32 0x4F776E61626C653A206E6577206F776E657220697320746865207A65726F2061 PUSH1 0x0 DUP3 ADD MSTORE PUSH32 0x6464726573730000000000000000000000000000000000000000000000000000 PUSH1 0x20 DUP3 ADD MSTORE POP JUMP JUMPDEST PUSH32 0x42455032303A207472616E7366657220616D6F756E7420657863656564732061 PUSH1 0x0 DUP3 ADD MSTORE PUSH32 0x6C6C6F77616E6365000000000000000000000000000000000000000000000000 PUSH1 0x20 DUP3 ADD MSTORE POP JUMP JUMPDEST PUSH32 0x4F776E61626C653A2063616C6C6572206973206E6F7420746865206F776E6572 PUSH1 0x0 DUP3 ADD MSTORE POP JUMP JUMPDEST PUSH32 0x42455032303A207472616E7366657220616D6F756E7420657863656564732062 PUSH1 0x0 DUP3 ADD MSTORE PUSH32 0x616C616E63650000000000000000000000000000000000000000000000000000 PUSH1 0x20 DUP3 ADD MSTORE POP JUMP JUMPDEST PUSH32 0x42455032303A207472616E7366657220746F20746865207A65726F2061646472 PUSH1 0x0 DUP3 ADD MSTORE PUSH32 0x6573730000000000000000000000000000000000000000000000000000000000 PUSH1 0x20 DUP3 ADD MSTORE POP JUMP JUMPDEST PUSH32 0x42455032303A2064656372656173656420616C6C6F77616E63652062656C6F77 PUSH1 0x0 DUP3 ADD MSTORE PUSH32 0x207A65726F000000000000000000000000000000000000000000000000000000 PUSH1 0x20 DUP3 ADD MSTORE POP JUMP JUMPDEST PUSH32 0x42455032303A20617070726F766520746F20746865207A65726F206164647265 PUSH1 0x0 DUP3 ADD MSTORE PUSH32 0x7373000000000000000000000000000000000000000000000000000000000000 PUSH1 0x20 DUP3 ADD MSTORE POP JUMP JUMPDEST PUSH2 0x1913 DUP2 PUSH2 0x153B JUMP JUMPDEST DUP2 EQ PUSH2 0x191E JUMPI PUSH1 0x0 DUP1 REVERT JUMPDEST POP JUMP JUMPDEST PUSH2 0x192A DUP2 PUSH2 0x1579 JUMP JUMPDEST DUP2 EQ PUSH2 0x1935 JUMPI PUSH1 0x0 DUP1 REVERT JUMPDEST POP JUMP INVALID LOG2 PUSH5 0x6970667358 0x22 SLT KECCAK256 PUSH16 0x43C2EB9835A7AE68CA99ADD1C7C3A35 POP SWAP15 PUSH3 0x85B7BB GASPRICE 0xB7 CALL SWAP10 0xED 0xD9 PUSH10 0x15CB64736F6C63430008 SMOD STOP CALLER "
				},
				"gasEstimates": {
					"creation": {
						"codeDepositCost": "1302000",
						"executionCost": "infinite",
						"totalCost": "infinite"
					},
					"external": {
						"allowance(address,address)": "infinite",
						"approve(address,uint256)": "infinite",
						"balanceOf(address)": "2930",
						"decimals()": "2502",
						"decreaseAllowance(address,uint256)": "infinite",
						"generator()": "infinite",
						"getOwner()": "2624",
						"increaseAllowance(address,uint256)": "infinite",
						"name()": "infinite",
						"owner()": "2611",
						"renounceOwnership()": "30397",
						"symbol()": "infinite",
						"totalSupply()": "2505",
						"transfer(address,uint256)": "infinite",
						"transferFrom(address,address,uint256)": "infinite",
						"transferOwnership(address)": "30833",
						"version()": "infinite"
					}
				},
				"methodIdentifiers": {
					"allowance(address,address)": "dd62ed3e",
					"approve(address,uint256)": "095ea7b3",
					"balanceOf(address)": "70a08231",
					"decimals()": "313ce567",
					"decreaseAllowance(address,uint256)": "a457c2d7",
					"generator()": "7afa1eed",
					"getOwner()": "893d20e8",
					"increaseAllowance(address,uint256)": "39509351",
					"name()": "06fdde03",
					"owner()": "8da5cb5b",
					"renounceOwnership()": "715018a6",
					"symbol()": "95d89b41",
					"totalSupply()": "18160ddd",
					"transfer(address,uint256)": "a9059cbb",
					"transferFrom(address,address,uint256)": "23b872dd",
					"transferOwnership(address)": "f2fde38b",
					"version()": "54fd4d50"
				}
			},
			"storageLayout": {
				"storage": [
					{
						"astId": 27,
						"contract": "lost-20.sol:HelloBEP20",
						"label": "_owner",
						"offset": 0,
						"slot": "0",
						"type": "t_address"
					},
					{
						"astId": 235,
						"contract": "lost-20.sol:HelloBEP20",
						"label": "_balances",
						"offset": 0,
						"slot": "1",
						"type": "t_mapping(t_address,t_uint256)"
					},
					{
						"astId": 241,
						"contract": "lost-20.sol:HelloBEP20",
						"label": "_allowances",
						"offset": 0,
						"slot": "2",
						"type": "t_mapping(t_address,t_mapping(t_address,t_uint256))"
					},
					{
						"astId": 243,
						"contract": "lost-20.sol:HelloBEP20",
						"label": "_totalSupply",
						"offset": 0,
						"slot": "3",
						"type": "t_uint256"
					},
					{
						"astId": 245,
						"contract": "lost-20.sol:HelloBEP20",
						"label": "_name",
						"offset": 0,
						"slot": "4",
						"type": "t_string_storage"
					},
					{
						"astId": 247,
						"contract": "lost-20.sol:HelloBEP20",
						"label": "_symbol",
						"offset": 0,
						"slot": "5",
						"type": "t_string_storage"
					},
					{
						"astId": 249,
						"contract": "lost-20.sol:HelloBEP20",
						"label": "_decimals",
						"offset": 0,
						"slot": "6",
						"type": "t_uint8"
					},
					{
						"astId": 788,
						"contract": "lost-20.sol:HelloBEP20",
						"label": "_version",
						"offset": 0,
						"slot": "7",
						"type": "t_string_storage"
					}
				],
				"types": {
					"t_address": {
						"encoding": "inplace",
						"label": "address",
						"numberOfBytes": "20"
					},
					"t_mapping(t_address,t_mapping(t_address,t_uint256))": {
						"encoding": "mapping",
						"key": "t_address",
						"label": "mapping(address => mapping(address => uint256))",
						"numberOfBytes": "32",
						"value": "t_mapping(t_address,t_uint256)"
					},
					"t_mapping(t_address,t_uint256)": {
						"encoding": "mapping",
						"key": "t_address",
						"label": "mapping(address => uint256)",
						"numberOfBytes": "32",
						"value": "t_uint256"
					},
					"t_string_storage": {
						"encoding": "bytes",
						"label": "string",
						"numberOfBytes": "32"
					},
					"t_uint256": {
						"encoding": "inplace",
						"label": "uint256",
						"numberOfBytes": "32"
					},
					"t_uint8": {
						"encoding": "inplace",
						"label": "uint8",
						"numberOfBytes": "1"
					}
				}
			},
			"userdoc": {
				"kind": "user",
				"methods": {},
				"version": 1
			}
		}
	}
}