{
	"bep-20.sol": {
		"Raventoken": {
			"abi": [
				{
					"inputs": [],
					"stateMutability": "nonpayable",
					"type": "constructor"
				},
				{
					"anonymous": false,
					"inputs": [
						{
							"indexed": true,
							"internalType": "address",
							"name": "owner",
							"type": "address"
						},
						{
							"indexed": true,
							"internalType": "address",
							"name": "spender",
							"type": "address"
						},
						{
							"indexed": false,
							"internalType": "uint256",
							"name": "value",
							"type": "uint256"
						}
					],
					"name": "Approval",
					"type": "event"
				},
				{
					"anonymous": false,
					"inputs": [
						{
							"indexed": true,
							"internalType": "uint256",
							"name": "epoch",
							"type": "uint256"
						},
						{
							"indexed": false,
							"internalType": "uint256",
							"name": "totalSupply",
							"type": "uint256"
						}
					],
					"name": "LogRebase",
					"type": "event"
				},
				{
					"anonymous": false,
					"inputs": [
						{
							"indexed": true,
							"internalType": "address",
							"name": "account",
							"type": "address"
						}
					],
					"name": "MinterAdded",
					"type": "event"
				},
				{
					"anonymous": false,
					"inputs": [
						{
							"indexed": true,
							"internalType": "address",
							"name": "account",
							"type": "address"
						}
					],
					"name": "MinterRemoved",
					"type": "event"
				},
				{
					"anonymous": false,
					"inputs": [
						{
							"indexed": true,
							"internalType": "address",
							"name": "previousOwner",
							"type": "address"
						}
					],
					"name": "OwnershipRenounced",
					"type": "event"
				},
				{
					"anonymous": false,
					"inputs": [
						{
							"indexed": true,
							"internalType": "address",
							"name": "previousOwner",
							"type": "address"
						},
						{
							"indexed": true,
							"internalType": "address",
							"name": "newOwner",
							"type": "address"
						}
					],
					"name": "OwnershipTransferred",
					"type": "event"
				},
				{
					"anonymous": false,
					"inputs": [
						{
							"indexed": true,
							"internalType": "address",
							"name": "from",
							"type": "address"
						},
						{
							"indexed": true,
							"internalType": "address",
							"name": "to",
							"type": "address"
						},
						{
							"indexed": false,
							"internalType": "uint256",
							"name": "value",
							"type": "uint256"
						}
					],
					"name": "Transfer",
					"type": "event"
				},
				{
					"inputs": [],
					"name": "RiskFreeValue",
					"outputs": [
						{
							"internalType": "uint256",
							"name": "",
							"type": "uint256"
						}
					],
					"stateMutability": "view",
					"type": "function"
				},
				{
					"inputs": [],
					"name": "RiskFreeValueReceiver",
					"outputs": [
						{
							"internalType": "address",
							"name": "",
							"type": "address"
						}
					],
					"stateMutability": "view",
					"type": "function"
				},
				{
					"inputs": [],
					"name": "Treasury",
					"outputs": [
						{
							"internalType": "uint256",
							"name": "",
							"type": "uint256"
						}
					],
					"stateMutability": "view",
					"type": "function"
				},
				{
					"inputs": [],
					"name": "TreasuryReceiver",
					"outputs": [
						{
							"internalType": "address",
							"name": "",
							"type": "address"
						}
					],
					"stateMutability": "view",
					"type": "function"
				},
				{
					"inputs": [
						{
							"internalType": "address",
							"name": "account",
							"type": "address"
						}
					],
					"name": "addMinter",
					"outputs": [],
					"stateMutability": "nonpayable",
					"type": "function"
				},
				{
					"inputs": [
						{
							"internalType": "address",
							"name": "owner_",
							"type": "address"
						},
						{
							"internalType": "address",
							"name": "spender",
							"type": "address"
						}
					],
					"name": "allowance",
					"outputs": [
						{
							"internalType": "uint256",
							"name": "",
							"type": "uint256"
						}
					],
					"stateMutability": "view",
					"type": "function"
				},
				{
					"inputs": [
						{
							"internalType": "address",
							"name": "spender",
							"type": "address"
						},
						{
							"internalType": "uint256",
							"name": "value",
							"type": "uint256"
						}
					],
					"name": "approve",
					"outputs": [
						{
							"internalType": "bool",
							"name": "",
							"type": "bool"
						}
					],
					"stateMutability": "nonpayable",
					"type": "function"
				},
				{
					"inputs": [],
					"name": "autoLiquidityReceiver",
					"outputs": [
						{
							"internalType": "address",
							"name": "",
							"type": "address"
						}
					],
					"stateMutability": "view",
					"type": "function"
				},
				{
					"inputs": [
						{
							"internalType": "address",
							"name": "who",
							"type": "address"
						}
					],
					"name": "balanceOf",
					"outputs": [
						{
							"internalType": "uint256",
							"name": "",
							"type": "uint256"
						}
					],
					"stateMutability": "view",
					"type": "function"
				},
				{
					"inputs": [
						{
							"internalType": "address",
							"name": "",
							"type": "address"
						}
					],
					"name": "blacklist",
					"outputs": [
						{
							"internalType": "bool",
							"name": "",
							"type": "bool"
						}
					],
					"stateMutability": "view",
					"type": "function"
				},
				{
					"inputs": [
						{
							"internalType": "address",
							"name": "_addr",
							"type": "address"
						}
					],
					"name": "checkFeeExempt",
					"outputs": [
						{
							"internalType": "bool",
							"name": "",
							"type": "bool"
						}
					],
					"stateMutability": "view",
					"type": "function"
				},
				{
					"inputs": [],
					"name": "checkSwapThreshold",
					"outputs": [
						{
							"internalType": "uint256",
							"name": "",
							"type": "uint256"
						}
					],
					"stateMutability": "view",
					"type": "function"
				},
				{
					"inputs": [
						{
							"internalType": "uint256",
							"name": "amountPercentage",
							"type": "uint256"
						},
						{
							"internalType": "address",
							"name": "adr",
							"type": "address"
						}
					],
					"name": "clearStuckBalance",
					"outputs": [],
					"stateMutability": "nonpayable",
					"type": "function"
				},
				{
					"inputs": [],
					"name": "decimals",
					"outputs": [
						{
							"internalType": "uint8",
							"name": "",
							"type": "uint8"
						}
					],
					"stateMutability": "view",
					"type": "function"
				},
				{
					"inputs": [
						{
							"internalType": "address",
							"name": "spender",
							"type": "address"
						},
						{
							"internalType": "uint256",
							"name": "subtractedValue",
							"type": "uint256"
						}
					],
					"name": "decreaseAllowance",
					"outputs": [
						{
							"internalType": "bool",
							"name": "",
							"type": "bool"
						}
					],
					"stateMutability": "nonpayable",
					"type": "function"
				},
				{
					"inputs": [
						{
							"internalType": "address",
							"name": "_addr",
							"type": "address"
						}
					],
					"name": "enableTransfer",
					"outputs": [],
					"stateMutability": "nonpayable",
					"type": "function"
				},
				{
					"inputs": [],
					"name": "feeDenominator",
					"outputs": [
						{
							"internalType": "uint256",
							"name": "",
							"type": "uint256"
						}
					],
					"stateMutability": "view",
					"type": "function"
				},
				{
					"inputs": [],
					"name": "getCirculatingSupply",
					"outputs": [
						{
							"internalType": "uint256",
							"name": "",
							"type": "uint256"
						}
					],
					"stateMutability": "view",
					"type": "function"
				},
				{
					"inputs": [
						{
							"internalType": "uint256",
							"name": "accuracy",
							"type": "uint256"
						}
					],
					"name": "getLiquidityBacking",
					"outputs": [
						{
							"internalType": "uint256",
							"name": "",
							"type": "uint256"
						}
					],
					"stateMutability": "view",
					"type": "function"
				},
				{
					"inputs": [
						{
							"internalType": "address",
							"name": "spender",
							"type": "address"
						},
						{
							"internalType": "uint256",
							"name": "addedValue",
							"type": "uint256"
						}
					],
					"name": "increaseAllowance",
					"outputs": [
						{
							"internalType": "bool",
							"name": "",
							"type": "bool"
						}
					],
					"stateMutability": "nonpayable",
					"type": "function"
				},
				{
					"inputs": [],
					"name": "initialDistributionFinished",
					"outputs": [
						{
							"internalType": "bool",
							"name": "",
							"type": "bool"
						}
					],
					"stateMutability": "view",
					"type": "function"
				},
				{
					"inputs": [
						{
							"internalType": "address",
							"name": "account",
							"type": "address"
						}
					],
					"name": "isMinter",
					"outputs": [
						{
							"internalType": "bool",
							"name": "",
							"type": "bool"
						}
					],
					"stateMutability": "view",
					"type": "function"
				},
				{
					"inputs": [],
					"name": "isNotInSwap",
					"outputs": [
						{
							"internalType": "bool",
							"name": "",
							"type": "bool"
						}
					],
					"stateMutability": "view",
					"type": "function"
				},
				{
					"inputs": [
						{
							"internalType": "uint256",
							"name": "target",
							"type": "uint256"
						},
						{
							"internalType": "uint256",
							"name": "accuracy",
							"type": "uint256"
						}
					],
					"name": "isOverLiquified",
					"outputs": [
						{
							"internalType": "bool",
							"name": "",
							"type": "bool"
						}
					],
					"stateMutability": "view",
					"type": "function"
				},
				{
					"inputs": [],
					"name": "isOwner",
					"outputs": [
						{
							"internalType": "bool",
							"name": "",
							"type": "bool"
						}
					],
					"stateMutability": "view",
					"type": "function"
				},
				{
					"inputs": [],
					"name": "liquidityFee",
					"outputs": [
						{
							"internalType": "uint256",
							"name": "",
							"type": "uint256"
						}
					],
					"stateMutability": "view",
					"type": "function"
				},
				{
					"inputs": [],
					"name": "manualSync",
					"outputs": [],
					"stateMutability": "nonpayable",
					"type": "function"
				},
				{
					"inputs": [
						{
							"internalType": "address",
							"name": "recipient",
							"type": "address"
						},
						{
							"internalType": "uint256",
							"name": "amount",
							"type": "uint256"
						}
					],
					"name": "mint",
					"outputs": [],
					"stateMutability": "nonpayable",
					"type": "function"
				},
				{
					"inputs": [],
					"name": "name",
					"outputs": [
						{
							"internalType": "string",
							"name": "",
							"type": "string"
						}
					],
					"stateMutability": "view",
					"type": "function"
				},
				{
					"inputs": [],
					"name": "owner",
					"outputs": [
						{
							"internalType": "address",
							"name": "",
							"type": "address"
						}
					],
					"stateMutability": "view",
					"type": "function"
				},
				{
					"inputs": [],
					"name": "pair",
					"outputs": [
						{
							"internalType": "address",
							"name": "",
							"type": "address"
						}
					],
					"stateMutability": "view",
					"type": "function"
				},
				{
					"inputs": [],
					"name": "pairContract",
					"outputs": [
						{
							"internalType": "contract InterfaceLP",
							"name": "",
							"type": "address"
						}
					],
					"stateMutability": "view",
					"type": "function"
				},
				{
					"inputs": [
						{
							"internalType": "address",
							"name": "account",
							"type": "address"
						}
					],
					"name": "removeMinter",
					"outputs": [],
					"stateMutability": "nonpayable",
					"type": "function"
				},
				{
					"inputs": [],
					"name": "renounceMinter",
					"outputs": [],
					"stateMutability": "nonpayable",
					"type": "function"
				},
				{
					"inputs": [],
					"name": "renounceOwnership",
					"outputs": [],
					"stateMutability": "nonpayable",
					"type": "function"
				},
				{
					"inputs": [
						{
							"internalType": "address",
							"name": "tokenAddress",
							"type": "address"
						},
						{
							"internalType": "uint256",
							"name": "tokens",
							"type": "uint256"
						}
					],
					"name": "rescueToken",
					"outputs": [
						{
							"internalType": "bool",
							"name": "success",
							"type": "bool"
						}
					],
					"stateMutability": "nonpayable",
					"type": "function"
				},
				{
					"inputs": [],
					"name": "router",
					"outputs": [
						{
							"internalType": "contract IDEXRouter",
							"name": "",
							"type": "address"
						}
					],
					"stateMutability": "view",
					"type": "function"
				},
				{
					"inputs": [],
					"name": "sellFee",
					"outputs": [
						{
							"internalType": "uint256",
							"name": "",
							"type": "uint256"
						}
					],
					"stateMutability": "view",
					"type": "function"
				},
				{
					"inputs": [
						{
							"internalType": "address[]",
							"name": "recipients",
							"type": "address[]"
						},
						{
							"internalType": "uint256[]",
							"name": "values",
							"type": "uint256[]"
						}
					],
					"name": "sendPresale",
					"outputs": [],
					"stateMutability": "nonpayable",
					"type": "function"
				},
				{
					"inputs": [
						{
							"internalType": "address",
							"name": "_addr",
							"type": "address"
						}
					],
					"name": "setFeeExempt",
					"outputs": [],
					"stateMutability": "nonpayable",
					"type": "function"
				},
				{
					"inputs": [
						{
							"internalType": "address",
							"name": "_autoLiquidityReceiver",
							"type": "address"
						},
						{
							"internalType": "address",
							"name": "_TreasuryReceiver",
							"type": "address"
						},
						{
							"internalType": "address",
							"name": "_RiskFreeValueReceiver",
							"type": "address"
						}
					],
					"name": "setFeeReceivers",
					"outputs": [],
					"stateMutability": "nonpayable",
					"type": "function"
				},
				{
					"inputs": [
						{
							"internalType": "uint256",
							"name": "_liquidityFee",
							"type": "uint256"
						},
						{
							"internalType": "uint256",
							"name": "_RiskFreeValue",
							"type": "uint256"
						},
						{
							"internalType": "uint256",
							"name": "_Treasury",
							"type": "uint256"
						},
						{
							"internalType": "uint256",
							"name": "_sellFee",
							"type": "uint256"
						},
						{
							"internalType": "uint256",
							"name": "_feeDenominator",
							"type": "uint256"
						}
					],
					"name": "setFees",
					"outputs": [],
					"stateMutability": "nonpayable",
					"type": "function"
				},
				{
					"inputs": [],
					"name": "setInitialDistributionFinished",
					"outputs": [],
					"stateMutability": "nonpayable",
					"type": "function"
				},
				{
					"inputs": [
						{
							"internalType": "address",
							"name": "_address",
							"type": "address"
						}
					],
					"name": "setLP",
					"outputs": [],
					"stateMutability": "nonpayable",
					"type": "function"
				},
				{
					"inputs": [
						{
							"internalType": "bool",
							"name": "_enabled",
							"type": "bool"
						},
						{
							"internalType": "uint256",
							"name": "_num",
							"type": "uint256"
						},
						{
							"internalType": "uint256",
							"name": "_denom",
							"type": "uint256"
						}
					],
					"name": "setSwapBackSettings",
					"outputs": [],
					"stateMutability": "nonpayable",
					"type": "function"
				},
				{
					"inputs": [
						{
							"internalType": "uint256",
							"name": "target",
							"type": "uint256"
						},
						{
							"internalType": "uint256",
							"name": "accuracy",
							"type": "uint256"
						}
					],
					"name": "setTargetLiquidity",
					"outputs": [],
					"stateMutability": "nonpayable",
					"type": "function"
				},
				{
					"inputs": [],
					"name": "swapEnabled",
					"outputs": [
						{
							"internalType": "bool",
							"name": "",
							"type": "bool"
						}
					],
					"stateMutability": "view",
					"type": "function"
				},
				{
					"inputs": [],
					"name": "symbol",
					"outputs": [
						{
							"internalType": "string",
							"name": "",
							"type": "string"
						}
					],
					"stateMutability": "view",
					"type": "function"
				},
				{
					"inputs": [],
					"name": "totalFee",
					"outputs": [
						{
							"internalType": "uint256",
							"name": "",
							"type": "uint256"
						}
					],
					"stateMutability": "view",
					"type": "function"
				},
				{
					"inputs": [],
					"name": "totalSupply",
					"outputs": [
						{
							"internalType": "uint256",
							"name": "",
							"type": "uint256"
						}
					],
					"stateMutability": "view",
					"type": "function"
				},
				{
					"inputs": [
						{
							"internalType": "address",
							"name": "to",
							"type": "address"
						},
						{
							"internalType": "uint256",
							"name": "value",
							"type": "uint256"
						}
					],
					"name": "transfer",
					"outputs": [
						{
							"internalType": "bool",
							"name": "",
							"type": "bool"
						}
					],
					"stateMutability": "nonpayable",
					"type": "function"
				},
				{
					"inputs": [
						{
							"internalType": "address",
							"name": "from",
							"type": "address"
						},
						{
							"internalType": "address",
							"name": "to",
							"type": "address"
						},
						{
							"internalType": "uint256",
							"name": "value",
							"type": "uint256"
						}
					],
					"name": "transferFrom",
					"outputs": [
						{
							"internalType": "bool",
							"name": "",
							"type": "bool"
						}
					],
					"stateMutability": "nonpayable",
					"type": "function"
				},
				{
					"inputs": [
						{
							"internalType": "address",
							"name": "newOwner",
							"type": "address"
						}
					],
					"name": "transferOwnership",
					"outputs": [],
					"stateMutability": "nonpayable",
					"type": "function"
				},
				{
					"inputs": [
						{
							"internalType": "address",
							"name": "_user",
							"type": "address"
						},
						{
							"internalType": "bool",
							"name": "_flag",
							"type": "bool"
						}
					],
					"name": "updateBlacklist",
					"outputs": [],
					"stateMutability": "nonpayable",
					"type": "function"
				},
				{
					"stateMutability": "payable",
					"type": "receive"
				}
			],
			"devdoc": {
				"kind": "dev",
				"methods": {},
				"version": 1
			},
			"evm": {
				"assembly": "    /* \"bep-20.sol\":8036:22284  contract Raventoken is ERC20Detailed, Ownable, MinterRole {... */\n  mstore(0x40, 0x80)\n    /* \"bep-20.sol\":8917:8918  5 */\n  0x05\n    /* \"bep-20.sol\":8887:8918  uint256 public liquidityFee = 5 */\n  0x07\n  sstore\n    /* \"bep-20.sol\":8950:8951  3 */\n  0x03\n    /* \"bep-20.sol\":8924:8951  uint256 public Treasury = 3 */\n  0x08\n  sstore\n    /* \"bep-20.sol\":8988:8989  5 */\n  0x05\n    /* \"bep-20.sol\":8957:8989  uint256 public RiskFreeValue = 5 */\n  0x09\n  sstore\n    /* \"bep-20.sol\":9020:9021  5 */\n  0x05\n    /* \"bep-20.sol\":8995:9021  uint256 public sellFee = 5 */\n  0x0a\n  sstore\n    /* \"bep-20.sol\":9061:9106  liquidityFee.add(Treasury).add(RiskFreeValue) */\n  tag_1\n    /* \"bep-20.sol\":9092:9105  RiskFreeValue */\n  sload(0x09)\n    /* \"bep-20.sol\":9061:9087  liquidityFee.add(Treasury) */\n  tag_2\n    /* \"bep-20.sol\":9078:9086  Treasury */\n  sload(0x08)\n    /* \"bep-20.sol\":9061:9073  liquidityFee */\n  sload(0x07)\n    /* \"bep-20.sol\":9061:9077  liquidityFee.add */\n  or(tag_0_275, shl(0x20, tag_3))\n  swap1\n    /* \"bep-20.sol\":9061:9087  liquidityFee.add(Treasury) */\n  swap2\n  swap1\n  0x20\n  shr\n  jump\t// in\ntag_2:\n    /* \"bep-20.sol\":9061:9091  liquidityFee.add(Treasury).add */\n  or(tag_0_275, shl(0x20, tag_3))\n  swap1\n    /* \"bep-20.sol\":9061:9106  liquidityFee.add(Treasury).add(RiskFreeValue) */\n  swap2\n  swap1\n  0x20\n  shr\n  jump\t// in\ntag_1:\n    /* \"bep-20.sol\":9027:9106  uint256 public totalFee =... */\n  0x0b\n  sstore\n    /* \"bep-20.sol\":9144:9147  100 */\n  0x64\n    /* \"bep-20.sol\":9112:9147  uint256 public feeDenominator = 100 */\n  0x0c\n  sstore\n    /* \"bep-20.sol\":9169:9211  0x000000000000000000000000000000000000dEaD */\n  0xdead\n    /* \"bep-20.sol\":9154:9211  address DEAD = 0x000000000000000000000000000000000000dEaD */\n  0x0d\n  exp(0x0100, 0x00)\n  dup2\n  sload\n  dup2\n  0xffffffffffffffffffffffffffffffffffffffff\n  mul\n  not\n  and\n  swap1\n  dup4\n  0xffffffffffffffffffffffffffffffffffffffff\n  and\n  mul\n  or\n  swap1\n  sstore\n  pop\n    /* \"bep-20.sol\":9232:9274  0x0000000000000000000000000000000000000000 */\n  0x00\n    /* \"bep-20.sol\":9217:9274  address ZERO = 0x0000000000000000000000000000000000000000 */\n  0x0e\n  exp(0x0100, 0x00)\n  dup2\n  sload\n  dup2\n  0xffffffffffffffffffffffffffffffffffffffff\n  mul\n  not\n  and\n  swap1\n  dup4\n  0xffffffffffffffffffffffffffffffffffffffff\n  and\n  mul\n  or\n  swap1\n  sstore\n  pop\n    /* \"bep-20.sol\":9429:9431  50 */\n  0x32\n    /* \"bep-20.sol\":9403:9431  uint256 targetLiquidity = 50 */\n  0x12\n  sstore\n    /* \"bep-20.sol\":9474:9477  100 */\n  0x64\n    /* \"bep-20.sol\":9437:9477  uint256 targetLiquidityDenominator = 100 */\n  0x13\n  sstore\n    /* \"bep-20.sol\":9566:9570  true */\n  0x01\n    /* \"bep-20.sol\":9540:9570  bool public swapEnabled = true */\n  0x15\n  exp(0x0100, 0x14)\n  dup2\n  sload\n  dup2\n  0xff\n  mul\n  not\n  and\n  swap1\n  dup4\n  iszero\n  iszero\n  mul\n  or\n  swap1\n  sstore\n  pop\n    /* \"bep-20.sol\":9631:9636  10000 */\n  0x2710\n    /* \"bep-20.sol\":9625:9627  10 */\n  0x0a\n    /* \"bep-20.sol\":8739:8741  18 */\n  0x12\n    /* \"bep-20.sol\":8868:8870  10 */\n  0x0a\n    /* \"bep-20.sol\":8868:8880  10**DECIMALS */\n  exp\n    /* \"bep-20.sol\":8856:8865  4 * 10**9 */\n  0xee6b2800\n    /* \"bep-20.sol\":8856:8880  4 * 10**9 * 10**DECIMALS */\n  mul\n    /* \"bep-20.sol\":8795:8796  0 */\n  0x00\n    /* \"bep-20.sol\":8786:8797  ~uint256(0) */\n  not\n    /* \"bep-20.sol\":9811:9849  MAX_UINT256 % INITIAL_FRAGMENTS_SUPPLY */\n  dup2\n  tag_4\n  jumpi\n  invalid\ntag_4:\n  mod\n    /* \"bep-20.sol\":8795:8796  0 */\n  0x00\n    /* \"bep-20.sol\":8786:8797  ~uint256(0) */\n  not\n    /* \"bep-20.sol\":9796:9850  MAX_UINT256 - (MAX_UINT256 % INITIAL_FRAGMENTS_SUPPLY) */\n  sub\n    /* \"bep-20.sol\":9612:9627  TOTAL_GONS * 10 */\n  mul\n    /* \"bep-20.sol\":9611:9636  (TOTAL_GONS * 10) / 10000 */\n  dup2\n  tag_5\n  jumpi\n  invalid\ntag_5:\n  div\n    /* \"bep-20.sol\":9576:9636  uint256 private gonSwapThreshold = (TOTAL_GONS * 10) / 10000 */\n  0x16\n  sstore\n    /* \"bep-20.sol\":10167:11245  constructor() ERC20Detailed(\"Raventoken\", \"Raventoken\", uint8(DECIMALS)) {... */\n  callvalue\n  dup1\n  iszero\n  tag_6\n  jumpi\n  0x00\n  dup1\n  revert\ntag_6:\n  pop\n    /* \"bep-20.sol\":4978:5163  constructor(... */\n  mload(0x40)\n  dup1\n  0x40\n  add\n  0x40\n  mstore\n  dup1\n  0x0a\n  dup2\n  mstore\n  0x20\n  add\n  0x526176656e746f6b656e00000000000000000000000000000000000000000000\n  dup2\n  mstore\n  pop\n  mload(0x40)\n  dup1\n  0x40\n  add\n  0x40\n  mstore\n  dup1\n  0x0a\n  dup2\n  mstore\n  0x20\n  add\n  0x526176656e746f6b656e00000000000000000000000000000000000000000000\n  dup2\n  mstore\n  pop\n    /* \"bep-20.sol\":8739:8741  18 */\n  0x12\n    /* \"bep-20.sol\":5096:5100  name */\n  dup3\n    /* \"bep-20.sol\":5088:5093  _name */\n  0x00\n    /* \"bep-20.sol\":5088:5100  _name = name */\n  swap1\n  dup1\n  mload\n  swap1\n  0x20\n  add\n  swap1\n  tag_12\n  swap3\n  swap2\n  swap1\n  tag_13\n  jump\t// in\ntag_12:\n  pop\n    /* \"bep-20.sol\":5120:5126  symbol */\n  dup2\n    /* \"bep-20.sol\":5110:5117  _symbol */\n  0x01\n    /* \"bep-20.sol\":5110:5126  _symbol = symbol */\n  swap1\n  dup1\n  mload\n  swap1\n  0x20\n  add\n  swap1\n  tag_14\n  swap3\n  swap2\n  swap1\n  tag_13\n  jump\t// in\ntag_14:\n  pop\n    /* \"bep-20.sol\":5148:5156  decimals */\n  dup1\n    /* \"bep-20.sol\":5136:5145  _decimals */\n  0x02\n  0x00\n    /* \"bep-20.sol\":5136:5156  _decimals = decimals */\n  0x0100\n  exp\n  dup2\n  sload\n  dup2\n  0xff\n  mul\n  not\n  and\n  swap1\n  dup4\n  0xff\n  and\n  mul\n  or\n  swap1\n  sstore\n  pop\n    /* \"bep-20.sol\":4978:5163  constructor(... */\n  pop\n  pop\n  pop\n    /* \"bep-20.sol\":7332:7342  msg.sender */\n  caller\n    /* \"bep-20.sol\":7323:7329  _owner */\n  0x02\n  0x01\n    /* \"bep-20.sol\":7323:7342  _owner = msg.sender */\n  0x0100\n  exp\n  dup2\n  sload\n  dup2\n  0xffffffffffffffffffffffffffffffffffffffff\n  mul\n  not\n  and\n  swap1\n  dup4\n  0xffffffffffffffffffffffffffffffffffffffff\n  and\n  mul\n  or\n  swap1\n  sstore\n  pop\n    /* \"bep-20.sol\":4224:4246  _addMinter(msg.sender) */\n  tag_17\n    /* \"bep-20.sol\":4235:4245  msg.sender */\n  caller\n    /* \"bep-20.sol\":4224:4234  _addMinter */\n  shl(0x20, tag_18)\n    /* \"bep-20.sol\":4224:4246  _addMinter(msg.sender) */\n  0x20\n  shr\n  jump\t// in\ntag_17:\n    /* \"bep-20.sol\":10270:10312  0x10ED43C718714eb63d5aA57B78B54704E256024E */\n  0x10ed43c718714eb63d5aa57b78b54704e256024e\n    /* \"bep-20.sol\":10250:10256  router */\n  0x14\n  0x00\n    /* \"bep-20.sol\":10250:10313  router = IDEXRouter(0x10ED43C718714eb63d5aA57B78B54704E256024E) */\n  0x0100\n  exp\n  dup2\n  sload\n  dup2\n  0xffffffffffffffffffffffffffffffffffffffff\n  mul\n  not\n  and\n  swap1\n  dup4\n  0xffffffffffffffffffffffffffffffffffffffff\n  and\n  mul\n  or\n  swap1\n  sstore\n  pop\n    /* \"bep-20.sol\":10393:10399  router */\n  0x14\n  0x00\n  swap1\n  sload\n  swap1\n  0x0100\n  exp\n  swap1\n  div\n  0xffffffffffffffffffffffffffffffffffffffff\n  and\n    /* \"bep-20.sol\":10393:10407  router.factory */\n  0xffffffffffffffffffffffffffffffffffffffff\n  and\n  0xc45a0155\n    /* \"bep-20.sol\":10393:10409  router.factory() */\n  mload(0x40)\n  dup2\n  0xffffffff\n  and\n  0xe0\n  shl\n  dup2\n  mstore\n  0x04\n  add\n  0x20\n  mload(0x40)\n  dup1\n  dup4\n  sub\n  dup2\n  dup7\n  dup1\n  extcodesize\n  iszero\n  dup1\n  iszero\n  tag_20\n  jumpi\n  0x00\n  dup1\n  revert\ntag_20:\n  pop\n  gas\n  staticcall\n  iszero\n  dup1\n  iszero\n  tag_22\n  jumpi\n  returndatasize\n  0x00\n  dup1\n  returndatacopy\n  revert(0x00, returndatasize)\ntag_22:\n  pop\n  pop\n  pop\n  pop\n  mload(0x40)\n  returndatasize\n  0x20\n  dup2\n  lt\n  iszero\n  tag_23\n  jumpi\n  0x00\n  dup1\n  revert\ntag_23:\n  dup2\n  add\n  swap1\n  dup1\n  dup1\n  mload\n  swap1\n  0x20\n  add\n  swap1\n  swap3\n  swap2\n  swap1\n  pop\n  pop\n  pop\n    /* \"bep-20.sol\":10381:10421  IDEXFactory(router.factory()).createPair */\n  0xffffffffffffffffffffffffffffffffffffffff\n  and\n  0xc9c65396\n    /* \"bep-20.sol\":10435:10441  router */\n  0x14\n  0x00\n  swap1\n  sload\n  swap1\n  0x0100\n  exp\n  swap1\n  div\n  0xffffffffffffffffffffffffffffffffffffffff\n  and\n    /* \"bep-20.sol\":10435:10446  router.WETH */\n  0xffffffffffffffffffffffffffffffffffffffff\n  and\n  0xad5c4648\n    /* \"bep-20.sol\":10435:10448  router.WETH() */\n  mload(0x40)\n  dup2\n  0xffffffff\n  and\n  0xe0\n  shl\n  dup2\n  mstore\n  0x04\n  add\n  0x20\n  mload(0x40)\n  dup1\n  dup4\n  sub\n  dup2\n  dup7\n  dup1\n  extcodesize\n  iszero\n  dup1\n  iszero\n  tag_24\n  jumpi\n  0x00\n  dup1\n  revert\ntag_24:\n  pop\n  gas\n  staticcall\n  iszero\n  dup1\n  iszero\n  tag_26\n  jumpi\n  returndatasize\n  0x00\n  dup1\n  returndatacopy\n  revert(0x00, returndatasize)\ntag_26:\n  pop\n  pop\n  pop\n  pop\n  mload(0x40)\n  returndatasize\n  0x20\n  dup2\n  lt\n  iszero\n  tag_27\n  jumpi\n  0x00\n  dup1\n  revert\ntag_27:\n  dup2\n  add\n  swap1\n  dup1\n  dup1\n  mload\n  swap1\n  0x20\n  add\n  swap1\n  swap3\n  swap2\n  swap1\n  pop\n  pop\n  pop\n    /* \"bep-20.sol\":10470:10474  this */\n  address\n    /* \"bep-20.sol\":10381:10485  IDEXFactory(router.factory()).createPair(... */\n  mload(0x40)\n  dup4\n  0xffffffff\n  and\n  0xe0\n  shl\n  dup2\n  mstore\n  0x04\n  add\n  dup1\n  dup4\n  0xffffffffffffffffffffffffffffffffffffffff\n  and\n  dup2\n  mstore\n  0x20\n  add\n  dup3\n  0xffffffffffffffffffffffffffffffffffffffff\n  and\n  dup2\n  mstore\n  0x20\n  add\n  swap3\n  pop\n  pop\n  pop\n  0x20\n  mload(0x40)\n  dup1\n  dup4\n  sub\n  dup2\n  0x00\n  dup8\n  dup1\n  extcodesize\n  iszero\n  dup1\n  iszero\n  tag_28\n  jumpi\n  0x00\n  dup1\n  revert\ntag_28:\n  pop\n  gas\n  call\n  iszero\n  dup1\n  iszero\n  tag_30\n  jumpi\n  returndatasize\n  0x00\n  dup1\n  returndatacopy\n  revert(0x00, returndatasize)\ntag_30:\n  pop\n  pop\n  pop\n  pop\n  mload(0x40)\n  returndatasize\n  0x20\n  dup2\n  lt\n  iszero\n  tag_31\n  jumpi\n  0x00\n  dup1\n  revert\ntag_31:\n  dup2\n  add\n  swap1\n  dup1\n  dup1\n  mload\n  swap1\n  0x20\n  add\n  swap1\n  swap3\n  swap2\n  swap1\n  pop\n  pop\n  pop\n    /* \"bep-20.sol\":10374:10378  pair */\n  0x15\n  0x00\n    /* \"bep-20.sol\":10374:10485  pair = IDEXFactory(router.factory()).createPair(... */\n  0x0100\n  exp\n  dup2\n  sload\n  dup2\n  0xffffffffffffffffffffffffffffffffffffffff\n  mul\n  not\n  and\n  swap1\n  dup4\n  0xffffffffffffffffffffffffffffffffffffffff\n  and\n  mul\n  or\n  swap1\n  sstore\n  pop\n    /* \"bep-20.sol\":10520:10562  0x2efEBB6C26E709b9240A9c102116D1831BAC6319 */\n  0x2efebb6c26e709b9240a9c102116d1831bac6319\n    /* \"bep-20.sol\":10496:10517  autoLiquidityReceiver */\n  0x0f\n  0x00\n    /* \"bep-20.sol\":10496:10562  autoLiquidityReceiver = 0x2efEBB6C26E709b9240A9c102116D1831BAC6319 */\n  0x0100\n  exp\n  dup2\n  sload\n  dup2\n  0xffffffffffffffffffffffffffffffffffffffff\n  mul\n  not\n  and\n  swap1\n  dup4\n  0xffffffffffffffffffffffffffffffffffffffff\n  and\n  mul\n  or\n  swap1\n  sstore\n  pop\n    /* \"bep-20.sol\":10591:10633  0x2efEBB6C26E709b9240A9c102116D1831BAC6319 */\n  0x2efebb6c26e709b9240a9c102116d1831bac6319\n    /* \"bep-20.sol\":10572:10588  TreasuryReceiver */\n  0x10\n  0x00\n    /* \"bep-20.sol\":10572:10633  TreasuryReceiver = 0x2efEBB6C26E709b9240A9c102116D1831BAC6319 */\n  0x0100\n  exp\n  dup2\n  sload\n  dup2\n  0xffffffffffffffffffffffffffffffffffffffff\n  mul\n  not\n  and\n  swap1\n  dup4\n  0xffffffffffffffffffffffffffffffffffffffff\n  and\n  mul\n  or\n  swap1\n  sstore\n  pop\n    /* \"bep-20.sol\":10667:10709  0x2efEBB6C26E709b9240A9c102116D1831BAC6319 */\n  0x2efebb6c26e709b9240a9c102116d1831bac6319\n    /* \"bep-20.sol\":10643:10664  RiskFreeValueReceiver */\n  0x11\n  0x00\n    /* \"bep-20.sol\":10643:10709  RiskFreeValueReceiver = 0x2efEBB6C26E709b9240A9c102116D1831BAC6319 */\n  0x0100\n  exp\n  dup2\n  sload\n  dup2\n  0xffffffffffffffffffffffffffffffffffffffff\n  mul\n  not\n  and\n  swap1\n  dup4\n  0xffffffffffffffffffffffffffffffffffffffff\n  and\n  mul\n  or\n  swap1\n  sstore\n  pop\n    /* \"bep-20.sol\":10780:10782  -1 */\n  0xffffffffffffffffffffffffffffffffffffffffffffffffffffffffffffffff\n    /* \"bep-20.sol\":10720:10737  _allowedFragments */\n  0x1b\n    /* \"bep-20.sol\":10720:10752  _allowedFragments[address(this)] */\n  0x00\n    /* \"bep-20.sol\":10746:10750  this */\n  address\n    /* \"bep-20.sol\":10720:10752  _allowedFragments[address(this)] */\n  0xffffffffffffffffffffffffffffffffffffffff\n  and\n  0xffffffffffffffffffffffffffffffffffffffff\n  and\n  dup2\n  mstore\n  0x20\n  add\n  swap1\n  dup2\n  mstore\n  0x20\n  add\n  0x00\n  keccak256\n    /* \"bep-20.sol\":10720:10769  _allowedFragments[address(this)][address(router)] */\n  0x00\n    /* \"bep-20.sol\":10761:10767  router */\n  0x14\n  0x00\n  swap1\n  sload\n  swap1\n  0x0100\n  exp\n  swap1\n  div\n  0xffffffffffffffffffffffffffffffffffffffff\n  and\n    /* \"bep-20.sol\":10720:10769  _allowedFragments[address(this)][address(router)] */\n  0xffffffffffffffffffffffffffffffffffffffff\n  and\n  0xffffffffffffffffffffffffffffffffffffffff\n  and\n  dup2\n  mstore\n  0x20\n  add\n  swap1\n  dup2\n  mstore\n  0x20\n  add\n  0x00\n  keccak256\n    /* \"bep-20.sol\":10720:10783  _allowedFragments[address(this)][address(router)] = uint256(-1) */\n  dup2\n  swap1\n  sstore\n  pop\n    /* \"bep-20.sol\":10820:10824  pair */\n  0x15\n  0x00\n  swap1\n  sload\n  swap1\n  0x0100\n  exp\n  swap1\n  div\n  0xffffffffffffffffffffffffffffffffffffffff\n  and\n    /* \"bep-20.sol\":10793:10805  pairContract */\n  0x04\n  0x00\n    /* \"bep-20.sol\":10793:10825  pairContract = InterfaceLP(pair) */\n  0x0100\n  exp\n  dup2\n  sload\n  dup2\n  0xffffffffffffffffffffffffffffffffffffffff\n  mul\n  not\n  and\n  swap1\n  dup4\n  0xffffffffffffffffffffffffffffffffffffffff\n  and\n  mul\n  or\n  swap1\n  sstore\n  pop\n    /* \"bep-20.sol\":8739:8741  18 */\n  0x12\n    /* \"bep-20.sol\":8868:8870  10 */\n  0x0a\n    /* \"bep-20.sol\":8868:8880  10**DECIMALS */\n  exp\n    /* \"bep-20.sol\":8856:8865  4 * 10**9 */\n  0xee6b2800\n    /* \"bep-20.sol\":8856:8880  4 * 10**9 * 10**DECIMALS */\n  mul\n    /* \"bep-20.sol\":10836:10848  _totalSupply */\n  0x18\n    /* \"bep-20.sol\":10836:10875  _totalSupply = INITIAL_FRAGMENTS_SUPPLY */\n  dup2\n  swap1\n  sstore\n  pop\n    /* \"bep-20.sol\":8739:8741  18 */\n  0x12\n    /* \"bep-20.sol\":8868:8870  10 */\n  0x0a\n    /* \"bep-20.sol\":8868:8880  10**DECIMALS */\n  exp\n    /* \"bep-20.sol\":8856:8865  4 * 10**9 */\n  0xee6b2800\n    /* \"bep-20.sol\":8856:8880  4 * 10**9 * 10**DECIMALS */\n  mul\n    /* \"bep-20.sol\":8795:8796  0 */\n  0x00\n    /* \"bep-20.sol\":8786:8797  ~uint256(0) */\n  not\n    /* \"bep-20.sol\":9811:9849  MAX_UINT256 % INITIAL_FRAGMENTS_SUPPLY */\n  dup2\n  tag_32\n  jumpi\n  invalid\ntag_32:\n  mod\n    /* \"bep-20.sol\":8795:8796  0 */\n  0x00\n    /* \"bep-20.sol\":8786:8797  ~uint256(0) */\n  not\n    /* \"bep-20.sol\":9796:9850  MAX_UINT256 - (MAX_UINT256 % INITIAL_FRAGMENTS_SUPPLY) */\n  sub\n    /* \"bep-20.sol\":10885:10897  _gonBalances */\n  0x1a\n    /* \"bep-20.sol\":10885:10915  _gonBalances[TreasuryReceiver] */\n  0x00\n    /* \"bep-20.sol\":10898:10914  TreasuryReceiver */\n  0x10\n  0x00\n  swap1\n  sload\n  swap1\n  0x0100\n  exp\n  swap1\n  div\n  0xffffffffffffffffffffffffffffffffffffffff\n  and\n    /* \"bep-20.sol\":10885:10915  _gonBalances[TreasuryReceiver] */\n  0xffffffffffffffffffffffffffffffffffffffff\n  and\n  0xffffffffffffffffffffffffffffffffffffffff\n  and\n  dup2\n  mstore\n  0x20\n  add\n  swap1\n  dup2\n  mstore\n  0x20\n  add\n  0x00\n  keccak256\n    /* \"bep-20.sol\":10885:10928  _gonBalances[TreasuryReceiver] = TOTAL_GONS */\n  dup2\n  swap1\n  sstore\n  pop\n    /* \"bep-20.sol\":10957:10985  TOTAL_GONS.div(_totalSupply) */\n  tag_33\n    /* \"bep-20.sol\":10972:10984  _totalSupply */\n  sload(0x18)\n    /* \"bep-20.sol\":8739:8741  18 */\n  0x12\n    /* \"bep-20.sol\":8868:8870  10 */\n  0x0a\n    /* \"bep-20.sol\":8868:8880  10**DECIMALS */\n  exp\n    /* \"bep-20.sol\":8856:8865  4 * 10**9 */\n  0xee6b2800\n    /* \"bep-20.sol\":8856:8880  4 * 10**9 * 10**DECIMALS */\n  mul\n    /* \"bep-20.sol\":8795:8796  0 */\n  0x00\n    /* \"bep-20.sol\":8786:8797  ~uint256(0) */\n  not\n    /* \"bep-20.sol\":9811:9849  MAX_UINT256 % INITIAL_FRAGMENTS_SUPPLY */\n  dup2\n  tag_34\n  jumpi\n  invalid\ntag_34:\n  mod\n    /* \"bep-20.sol\":8795:8796  0 */\n  0x00\n    /* \"bep-20.sol\":8786:8797  ~uint256(0) */\n  not\n    /* \"bep-20.sol\":9796:9850  MAX_UINT256 - (MAX_UINT256 % INITIAL_FRAGMENTS_SUPPLY) */\n  sub\n    /* \"bep-20.sol\":10957:10971  TOTAL_GONS.div */\n  or(tag_0_276, shl(0x20, tag_35))\n  swap1\n    /* \"bep-20.sol\":10957:10985  TOTAL_GONS.div(_totalSupply) */\n  swap2\n  swap1\n  0x20\n  shr\n  jump\t// in\ntag_33:\n    /* \"bep-20.sol\":10938:10954  _gonsPerFragment */\n  0x19\n    /* \"bep-20.sol\":10938:10985  _gonsPerFragment = TOTAL_GONS.div(_totalSupply) */\n  dup2\n  swap1\n  sstore\n  pop\n    /* \"bep-20.sol\":11026:11031  false */\n  0x00\n    /* \"bep-20.sol\":10996:11023  initialDistributionFinished */\n  0x04\n  0x14\n    /* \"bep-20.sol\":10996:11031  initialDistributionFinished = false */\n  0x0100\n  exp\n  dup2\n  sload\n  dup2\n  0xff\n  mul\n  not\n  and\n  swap1\n  dup4\n  iszero\n  iszero\n  mul\n  or\n  swap1\n  sstore\n  pop\n    /* \"bep-20.sol\":11074:11078  true */\n  0x01\n    /* \"bep-20.sol\":11041:11053  _isFeeExempt */\n  0x06\n    /* \"bep-20.sol\":11041:11071  _isFeeExempt[TreasuryReceiver] */\n  0x00\n    /* \"bep-20.sol\":11054:11070  TreasuryReceiver */\n  0x10\n  0x00\n  swap1\n  sload\n  swap1\n  0x0100\n  exp\n  swap1\n  div\n  0xffffffffffffffffffffffffffffffffffffffff\n  and\n    /* \"bep-20.sol\":11041:11071  _isFeeExempt[TreasuryReceiver] */\n  0xffffffffffffffffffffffffffffffffffffffff\n  and\n  0xffffffffffffffffffffffffffffffffffffffff\n  and\n  dup2\n  mstore\n  0x20\n  add\n  swap1\n  dup2\n  mstore\n  0x20\n  add\n  0x00\n  keccak256\n  0x00\n    /* \"bep-20.sol\":11041:11078  _isFeeExempt[TreasuryReceiver] = true */\n  0x0100\n  exp\n  dup2\n  sload\n  dup2\n  0xff\n  mul\n  not\n  and\n  swap1\n  dup4\n  iszero\n  iszero\n  mul\n  or\n  swap1\n  sstore\n  pop\n    /* \"bep-20.sol\":11118:11122  true */\n  0x01\n    /* \"bep-20.sol\":11088:11100  _isFeeExempt */\n  0x06\n    /* \"bep-20.sol\":11088:11115  _isFeeExempt[address(this)] */\n  0x00\n    /* \"bep-20.sol\":11109:11113  this */\n  address\n    /* \"bep-20.sol\":11088:11115  _isFeeExempt[address(this)] */\n  0xffffffffffffffffffffffffffffffffffffffff\n  and\n  0xffffffffffffffffffffffffffffffffffffffff\n  and\n  dup2\n  mstore\n  0x20\n  add\n  swap1\n  dup2\n  mstore\n  0x20\n  add\n  0x00\n  keccak256\n  0x00\n    /* \"bep-20.sol\":11088:11122  _isFeeExempt[address(this)] = true */\n  0x0100\n  exp\n  dup2\n  sload\n  dup2\n  0xff\n  mul\n  not\n  and\n  swap1\n  dup4\n  iszero\n  iszero\n  mul\n  or\n  swap1\n  sstore\n  pop\n    /* \"bep-20.sol\":11133:11169  _transferOwnership(TreasuryReceiver) */\n  tag_36\n    /* \"bep-20.sol\":11152:11168  TreasuryReceiver */\n  0x10\n  0x00\n  swap1\n  sload\n  swap1\n  0x0100\n  exp\n  swap1\n  div\n  0xffffffffffffffffffffffffffffffffffffffff\n  and\n    /* \"bep-20.sol\":11133:11151  _transferOwnership */\n  shl(0x20, tag_37)\n    /* \"bep-20.sol\":11133:11169  _transferOwnership(TreasuryReceiver) */\n  0x20\n  shr\n  jump\t// in\ntag_36:\n    /* \"bep-20.sol\":11207:11223  TreasuryReceiver */\n  0x10\n  0x00\n  swap1\n  sload\n  swap1\n  0x0100\n  exp\n  swap1\n  div\n  0xffffffffffffffffffffffffffffffffffffffff\n  and\n    /* \"bep-20.sol\":11184:11238  Transfer(address(0x0), TreasuryReceiver, _totalSupply) */\n  0xffffffffffffffffffffffffffffffffffffffff\n  and\n    /* \"bep-20.sol\":11201:11204  0x0 */\n  0x00\n    /* \"bep-20.sol\":11184:11238  Transfer(address(0x0), TreasuryReceiver, _totalSupply) */\n  0xffffffffffffffffffffffffffffffffffffffff\n  and\n  0xddf252ad1be2c89b69c2b068fc378daa952ba7f163c4a11628f55a4df523b3ef\n    /* \"bep-20.sol\":11225:11237  _totalSupply */\n  sload(0x18)\n    /* \"bep-20.sol\":11184:11238  Transfer(address(0x0), TreasuryReceiver, _totalSupply) */\n  mload(0x40)\n  dup1\n  dup3\n  dup2\n  mstore\n  0x20\n  add\n  swap2\n  pop\n  pop\n  mload(0x40)\n  dup1\n  swap2\n  sub\n  swap1\n  log3\n    /* \"bep-20.sol\":8036:22284  contract Raventoken is ERC20Detailed, Ownable, MinterRole {... */\n  jump(tag_38)\n    /* \"bep-20.sol\":1800:1976  function add(uint256 a, uint256 b) internal pure returns (uint256) {... */\ntag_3:\n    /* \"bep-20.sol\":1858:1865  uint256 */\n  0x00\n    /* \"bep-20.sol\":1877:1886  uint256 c */\n  dup1\n    /* \"bep-20.sol\":1893:1894  b */\n  dup3\n    /* \"bep-20.sol\":1889:1890  a */\n  dup5\n    /* \"bep-20.sol\":1889:1894  a + b */\n  add\n    /* \"bep-20.sol\":1877:1894  uint256 c = a + b */\n  swap1\n  pop\n    /* \"bep-20.sol\":1917:1918  a */\n  dup4\n    /* \"bep-20.sol\":1912:1913  c */\n  dup2\n    /* \"bep-20.sol\":1912:1918  c >= a */\n  lt\n  iszero\n    /* \"bep-20.sol\":1904:1950  require(c >= a, \"SafeMath: addition overflow\") */\n  tag_40\n  jumpi\n  mload(0x40)\n  0x08c379a000000000000000000000000000000000000000000000000000000000\n  dup2\n  mstore\n  0x04\n  add\n  dup1\n  dup1\n  0x20\n  add\n  dup3\n  dup2\n  sub\n  dup3\n  mstore\n  0x1b\n  dup2\n  mstore\n  0x20\n  add\n  dup1\n  0x536166654d6174683a206164646974696f6e206f766572666c6f770000000000\n  dup2\n  mstore\n  pop\n  0x20\n  add\n  swap2\n  pop\n  pop\n  mload(0x40)\n  dup1\n  swap2\n  sub\n  swap1\n  revert\ntag_40:\n    /* \"bep-20.sol\":1968:1969  c */\n  dup1\n    /* \"bep-20.sol\":1961:1969  return c */\n  swap2\n  pop\n  pop\n    /* \"bep-20.sol\":1800:1976  function add(uint256 a, uint256 b) internal pure returns (uint256) {... */\n  swap3\n  swap2\n  pop\n  pop\n  jump\t// out\n    /* \"bep-20.sol\":4590:4709  function _addMinter(address account) internal {... */\ntag_18:\n    /* \"bep-20.sol\":4646:4667  _minters.add(account) */\n  tag_42\n    /* \"bep-20.sol\":4659:4666  account */\n  dup2\n    /* \"bep-20.sol\":4646:4654  _minters */\n  0x03\n    /* \"bep-20.sol\":4646:4658  _minters.add */\n  or(tag_0_277, shl(0x20, tag_43))\n  swap1\n    /* \"bep-20.sol\":4646:4667  _minters.add(account) */\n  swap2\n  swap1\n  0x20\n  shr\n  jump\t// in\ntag_42:\n    /* \"bep-20.sol\":4694:4701  account */\n  dup1\n    /* \"bep-20.sol\":4682:4702  MinterAdded(account) */\n  0xffffffffffffffffffffffffffffffffffffffff\n  and\n  0x6ae172837ea30b801fbfcdd4108aa1d5bf8ff775444fd70256b44e6bf3dfc3f6\n  mload(0x40)\n  mload(0x40)\n  dup1\n  swap2\n  sub\n  swap1\n  log2\n    /* \"bep-20.sol\":4590:4709  function _addMinter(address account) internal {... */\n  pop\n  jump\t// out\n    /* \"bep-20.sol\":2592:2722  function div(uint256 a, uint256 b) internal pure returns (uint256) {... */\ntag_35:\n    /* \"bep-20.sol\":2650:2657  uint256 */\n  0x00\n    /* \"bep-20.sol\":2676:2715  div(a, b, \"SafeMath: division by zero\") */\n  tag_45\n    /* \"bep-20.sol\":2680:2681  a */\n  dup4\n    /* \"bep-20.sol\":2683:2684  b */\n  dup4\n    /* \"bep-20.sol\":2676:2715  div(a, b, \"SafeMath: division by zero\") */\n  mload(0x40)\n  dup1\n  0x40\n  add\n  0x40\n  mstore\n  dup1\n  0x1a\n  dup2\n  mstore\n  0x20\n  add\n  0x536166654d6174683a206469766973696f6e206279207a65726f000000000000\n  dup2\n  mstore\n  pop\n    /* \"bep-20.sol\":2676:2679  div */\n  shl(0x20, tag_46)\n    /* \"bep-20.sol\":2676:2715  div(a, b, \"SafeMath: division by zero\") */\n  0x20\n  shr\n  jump\t// in\ntag_45:\n    /* \"bep-20.sol\":2669:2715  return div(a, b, \"SafeMath: division by zero\") */\n  swap1\n  pop\n    /* \"bep-20.sol\":2592:2722  function div(uint256 a, uint256 b) internal pure returns (uint256) {... */\n  swap3\n  swap2\n  pop\n  pop\n  jump\t// out\n    /* \"bep-20.sol\":7849:8032  function _transferOwnership(address newOwner) internal {... */\ntag_37:\n    /* \"bep-20.sol\":7942:7943  0 */\n  0x00\n    /* \"bep-20.sol\":7922:7944  newOwner != address(0) */\n  0xffffffffffffffffffffffffffffffffffffffff\n  and\n    /* \"bep-20.sol\":7922:7930  newOwner */\n  dup2\n    /* \"bep-20.sol\":7922:7944  newOwner != address(0) */\n  0xffffffffffffffffffffffffffffffffffffffff\n  and\n  eq\n  iszero\n    /* \"bep-20.sol\":7914:7945  require(newOwner != address(0)) */\n  tag_48\n  jumpi\n  0x00\n  dup1\n  revert\ntag_48:\n    /* \"bep-20.sol\":7989:7997  newOwner */\n  dup1\n    /* \"bep-20.sol\":7960:7998  OwnershipTransferred(_owner, newOwner) */\n  0xffffffffffffffffffffffffffffffffffffffff\n  and\n    /* \"bep-20.sol\":7981:7987  _owner */\n  0x02\n  0x01\n  swap1\n  sload\n  swap1\n  0x0100\n  exp\n  swap1\n  div\n  0xffffffffffffffffffffffffffffffffffffffff\n  and\n    /* \"bep-20.sol\":7960:7998  OwnershipTransferred(_owner, newOwner) */\n  0xffffffffffffffffffffffffffffffffffffffff\n  and\n  0x8be0079c531659141344cd1fd0a4f28419497f9722a3daafe3b4186f6b6457e0\n  mload(0x40)\n  mload(0x40)\n  dup1\n  swap2\n  sub\n  swap1\n  log3\n    /* \"bep-20.sol\":8017:8025  newOwner */\n  dup1\n    /* \"bep-20.sol\":8008:8014  _owner */\n  0x02\n  0x01\n    /* \"bep-20.sol\":8008:8025  _owner = newOwner */\n  0x0100\n  exp\n  dup2\n  sload\n  dup2\n  0xffffffffffffffffffffffffffffffffffffffff\n  mul\n  not\n  and\n  swap1\n  dup4\n  0xffffffffffffffffffffffffffffffffffffffff\n  and\n  mul\n  or\n  swap1\n  sstore\n  pop\n    /* \"bep-20.sol\":7849:8032  function _transferOwnership(address newOwner) internal {... */\n  pop\n  jump\t// out\n    /* \"bep-20.sol\":3284:3459  function add(Role storage role, address account) internal {... */\ntag_43:\n    /* \"bep-20.sol\":3361:3379  has(role, account) */\n  tag_50\n    /* \"bep-20.sol\":3365:3369  role */\n  dup3\n    /* \"bep-20.sol\":3371:3378  account */\n  dup3\n    /* \"bep-20.sol\":3361:3364  has */\n  shl(0x20, tag_51)\n    /* \"bep-20.sol\":3361:3379  has(role, account) */\n  0x20\n  shr\n  jump\t// in\ntag_50:\n    /* \"bep-20.sol\":3360:3379  !has(role, account) */\n  iszero\n    /* \"bep-20.sol\":3352:3415  require(!has(role, account), \"Roles: account already has role\") */\n  tag_52\n  jumpi\n  mload(0x40)\n  0x08c379a000000000000000000000000000000000000000000000000000000000\n  dup2\n  mstore\n  0x04\n  add\n  dup1\n  dup1\n  0x20\n  add\n  dup3\n  dup2\n  sub\n  dup3\n  mstore\n  0x1f\n  dup2\n  mstore\n  0x20\n  add\n  dup1\n  0x526f6c65733a206163636f756e7420616c72656164792068617320726f6c6500\n  dup2\n  mstore\n  pop\n  0x20\n  add\n  swap2\n  pop\n  pop\n  mload(0x40)\n  dup1\n  swap2\n  sub\n  swap1\n  revert\ntag_52:\n    /* \"bep-20.sol\":3448:3452  true */\n  0x01\n    /* \"bep-20.sol\":3425:3429  role */\n  dup3\n    /* \"bep-20.sol\":3425:3436  role.bearer */\n  0x00\n  add\n    /* \"bep-20.sol\":3425:3445  role.bearer[account] */\n  0x00\n    /* \"bep-20.sol\":3437:3444  account */\n  dup4\n    /* \"bep-20.sol\":3425:3445  role.bearer[account] */\n  0xffffffffffffffffffffffffffffffffffffffff\n  and\n  0xffffffffffffffffffffffffffffffffffffffff\n  and\n  dup2\n  mstore\n  0x20\n  add\n  swap1\n  dup2\n  mstore\n  0x20\n  add\n  0x00\n  keccak256\n  0x00\n    /* \"bep-20.sol\":3425:3452  role.bearer[account] = true */\n  0x0100\n  exp\n  dup2\n  sload\n  dup2\n  0xff\n  mul\n  not\n  and\n  swap1\n  dup4\n  iszero\n  iszero\n  mul\n  or\n  swap1\n  sstore\n  pop\n    /* \"bep-20.sol\":3284:3459  function add(Role storage role, address account) internal {... */\n  pop\n  pop\n  jump\t// out\n    /* \"bep-20.sol\":2728:2944  function div(... */\ntag_46:\n    /* \"bep-20.sol\":2844:2851  uint256 */\n  0x00\n    /* \"bep-20.sol\":2875:2876  0 */\n  dup1\n    /* \"bep-20.sol\":2871:2872  b */\n  dup4\n    /* \"bep-20.sol\":2871:2876  b > 0 */\n  gt\n    /* \"bep-20.sol\":2878:2890  errorMessage */\n  dup3\n    /* \"bep-20.sol\":2863:2891  require(b > 0, errorMessage) */\n  swap1\n  tag_54\n  jumpi\n  mload(0x40)\n  0x08c379a000000000000000000000000000000000000000000000000000000000\n  dup2\n  mstore\n  0x04\n  add\n  dup1\n  dup1\n  0x20\n  add\n  dup3\n  dup2\n  sub\n  dup3\n  mstore\n  dup4\n  dup2\n  dup2\n  mload\n  dup2\n  mstore\n  0x20\n  add\n  swap2\n  pop\n  dup1\n  mload\n  swap1\n  0x20\n  add\n  swap1\n  dup1\n  dup4\n  dup4\n  0x00\ntag_55:\n  dup4\n  dup2\n  lt\n  iszero\n  tag_57\n  jumpi\n  dup1\n  dup3\n  add\n  mload\n  dup2\n  dup5\n  add\n  mstore\n  0x20\n  dup2\n  add\n  swap1\n  pop\n  jump(tag_55)\ntag_57:\n  pop\n  pop\n  pop\n  pop\n  swap1\n  pop\n  swap1\n  dup2\n  add\n  swap1\n  0x1f\n  and\n  dup1\n  iszero\n  tag_58\n  jumpi\n  dup1\n  dup3\n  sub\n  dup1\n  mload\n  0x01\n  dup4\n  0x20\n  sub\n  0x0100\n  exp\n  sub\n  not\n  and\n  dup2\n  mstore\n  0x20\n  add\n  swap2\n  pop\ntag_58:\n  pop\n  swap3\n  pop\n  pop\n  pop\n  mload(0x40)\n  dup1\n  swap2\n  sub\n  swap1\n  revert\ntag_54:\n  pop\n    /* \"bep-20.sol\":2901:2910  uint256 c */\n  0x00\n    /* \"bep-20.sol\":2917:2918  b */\n  dup4\n    /* \"bep-20.sol\":2913:2914  a */\n  dup6\n    /* \"bep-20.sol\":2913:2918  a / b */\n  dup2\n  tag_59\n  jumpi\n  invalid\ntag_59:\n  div\n    /* \"bep-20.sol\":2901:2918  uint256 c = a / b */\n  swap1\n  pop\n    /* \"bep-20.sol\":2936:2937  c */\n  dup1\n    /* \"bep-20.sol\":2929:2937  return c */\n  swap2\n  pop\n  pop\n    /* \"bep-20.sol\":2728:2944  function div(... */\n  swap4\n  swap3\n  pop\n  pop\n  pop\n  jump\t// out\n    /* \"bep-20.sol\":3803:4003  function has(Role storage role, address account) internal view returns (bool) {... */\ntag_51:\n    /* \"bep-20.sol\":3875:3879  bool */\n  0x00\n    /* \"bep-20.sol\":3918:3919  0 */\n  dup1\n    /* \"bep-20.sol\":3899:3920  account != address(0) */\n  0xffffffffffffffffffffffffffffffffffffffff\n  and\n    /* \"bep-20.sol\":3899:3906  account */\n  dup3\n    /* \"bep-20.sol\":3899:3920  account != address(0) */\n  0xffffffffffffffffffffffffffffffffffffffff\n  and\n  eq\n  iszero\n    /* \"bep-20.sol\":3891:3959  require(account != address(0), \"Roles: account is the zero address\") */\n  tag_61\n  jumpi\n  mload(0x40)\n  0x08c379a000000000000000000000000000000000000000000000000000000000\n  dup2\n  mstore\n  0x04\n  add\n  dup1\n  dup1\n  0x20\n  add\n  dup3\n  dup2\n  sub\n  dup3\n  mstore\n  0x22\n  dup2\n  mstore\n  0x20\n  add\n  dup1\n  data_9d214fa89563f4e6456a3929327e54500ea1cde2c0ba9fb2035ec106190d682f\n  0x22\n  swap2\n  codecopy\n  0x40\n  add\n  swap2\n  pop\n  pop\n  mload(0x40)\n  dup1\n  swap2\n  sub\n  swap1\n  revert\ntag_61:\n    /* \"bep-20.sol\":3976:3980  role */\n  dup3\n    /* \"bep-20.sol\":3976:3987  role.bearer */\n  0x00\n  add\n    /* \"bep-20.sol\":3976:3996  role.bearer[account] */\n  0x00\n    /* \"bep-20.sol\":3988:3995  account */\n  dup4\n    /* \"bep-20.sol\":3976:3996  role.bearer[account] */\n  0xffffffffffffffffffffffffffffffffffffffff\n  and\n  0xffffffffffffffffffffffffffffffffffffffff\n  and\n  dup2\n  mstore\n  0x20\n  add\n  swap1\n  dup2\n  mstore\n  0x20\n  add\n  0x00\n  keccak256\n  0x00\n  swap1\n  sload\n  swap1\n  0x0100\n  exp\n  swap1\n  div\n  0xff\n  and\n    /* \"bep-20.sol\":3969:3996  return role.bearer[account] */\n  swap1\n  pop\n    /* \"bep-20.sol\":3803:4003  function has(Role storage role, address account) internal view returns (bool) {... */\n  swap3\n  swap2\n  pop\n  pop\n  jump\t// out\n    /* \"bep-20.sol\":8036:22284  contract Raventoken is ERC20Detailed, Ownable, MinterRole {... */\ntag_13:\n  dup3\n  dup1\n  sload\n  0x01\n  dup2\n  0x01\n  and\n  iszero\n  0x0100\n  mul\n  sub\n  and\n  0x02\n  swap1\n  div\n  swap1\n  0x00\n  mstore\n  keccak256(0x00, 0x20)\n  swap1\n  0x1f\n  add\n  0x20\n  swap1\n  div\n  dup2\n  add\n  swap3\n  dup3\n  tag_63\n  jumpi\n  0x00\n  dup6\n  sstore\n  jump(tag_62)\ntag_63:\n  dup3\n  0x1f\n  lt\n  tag_64\n  jumpi\n  dup1\n  mload\n  not(0xff)\n  and\n  dup4\n  dup1\n  add\n  or\n  dup6\n  sstore\n  jump(tag_62)\ntag_64:\n  dup3\n  dup1\n  add\n  0x01\n  add\n  dup6\n  sstore\n  dup3\n  iszero\n  tag_62\n  jumpi\n  swap2\n  dup3\n  add\ntag_65:\n  dup3\n  dup2\n  gt\n  iszero\n  tag_66\n  jumpi\n  dup3\n  mload\n  dup3\n  sstore\n  swap2\n  0x20\n  add\n  swap2\n  swap1\n  0x01\n  add\n  swap1\n  jump(tag_65)\ntag_66:\ntag_62:\n  pop\n  swap1\n  pop\n  tag_67\n  swap2\n  swap1\n  tag_68\n  jump\t// in\ntag_67:\n  pop\n  swap1\n  jump\t// out\ntag_68:\ntag_69:\n  dup1\n  dup3\n  gt\n  iszero\n  tag_70\n  jumpi\n  0x00\n  dup2\n  0x00\n  swap1\n  sstore\n  pop\n  0x01\n  add\n  jump(tag_69)\ntag_70:\n  pop\n  swap1\n  jump\t// out\ntag_38:\n  dataSize(sub_0)\n  dup1\n  dataOffset(sub_0)\n  0x00\n  codecopy\n  0x00\n  return\nstop\ndata_9d214fa89563f4e6456a3929327e54500ea1cde2c0ba9fb2035ec106190d682f 526f6c65733a206163636f756e7420697320746865207a65726f2061646472657373\n\nsub_0: assembly {\n        /* \"bep-20.sol\":8036:22284  contract Raventoken is ERC20Detailed, Ownable, MinterRole {... */\n      mstore(0x40, 0x80)\n      jumpi(tag_1, lt(calldatasize, 0x04))\n      shr(0xe0, calldataload(0x00))\n      dup1\n      0x800cee51\n      gt\n      tag_57\n      jumpi\n      dup1\n      0xbda5c8bb\n      gt\n      tag_58\n      jumpi\n      dup1\n      0xd5938aac\n      gt\n      tag_59\n      jumpi\n      dup1\n      0xdd62ed3e\n      gt\n      tag_60\n      jumpi\n      dup1\n      0xdd62ed3e\n      eq\n      tag_53\n      jumpi\n      dup1\n      0xf2fde38b\n      eq\n      tag_54\n      jumpi\n      dup1\n      0xf887ea40\n      eq\n      tag_55\n      jumpi\n      dup1\n      0xf9f92be4\n      eq\n      tag_56\n      jumpi\n      jump(tag_2)\n    tag_60:\n      dup1\n      0xd5938aac\n      eq\n      tag_50\n      jumpi\n      dup1\n      0xd7ac6585\n      eq\n      tag_51\n      jumpi\n      dup1\n      0xd7c01032\n      eq\n      tag_52\n      jumpi\n      jump(tag_2)\n    tag_59:\n      dup1\n      0xd1fce264\n      gt\n      tag_61\n      jumpi\n      dup1\n      0xd1fce264\n      eq\n      tag_46\n      jumpi\n      dup1\n      0xd37e219d\n      eq\n      tag_47\n      jumpi\n      dup1\n      0xd4399790\n      eq\n      tag_48\n      jumpi\n      dup1\n      0xd51ed1c8\n      eq\n      tag_49\n      jumpi\n      jump(tag_2)\n    tag_61:\n      dup1\n      0xbda5c8bb\n      eq\n      tag_43\n      jumpi\n      dup1\n      0xca33e64c\n      eq\n      tag_44\n      jumpi\n      dup1\n      0xd0889358\n      eq\n      tag_45\n      jumpi\n      jump(tag_2)\n    tag_58:\n      dup1\n      0x98118cb4\n      gt\n      tag_62\n      jumpi\n      dup1\n      0xa457c2d7\n      gt\n      tag_63\n      jumpi\n      dup1\n      0xa457c2d7\n      eq\n      tag_39\n      jumpi\n      dup1\n      0xa8aa1b31\n      eq\n      tag_40\n      jumpi\n      dup1\n      0xa9059cbb\n      eq\n      tag_41\n      jumpi\n      dup1\n      0xaa271e1a\n      eq\n      tag_42\n      jumpi\n      jump(tag_2)\n    tag_63:\n      dup1\n      0x98118cb4\n      eq\n      tag_36\n      jumpi\n      dup1\n      0x983b2d56\n      eq\n      tag_37\n      jumpi\n      dup1\n      0x98650275\n      eq\n      tag_38\n      jumpi\n      jump(tag_2)\n    tag_62:\n      dup1\n      0x800cee51\n      eq\n      tag_30\n      jumpi\n      dup1\n      0x83b4ac68\n      eq\n      tag_31\n      jumpi\n      dup1\n      0x8da5cb5b\n      eq\n      tag_32\n      jumpi\n      dup1\n      0x8f32d59b\n      eq\n      tag_33\n      jumpi\n      dup1\n      0x9155e083\n      eq\n      tag_34\n      jumpi\n      dup1\n      0x95d89b41\n      eq\n      tag_35\n      jumpi\n      jump(tag_2)\n    tag_57:\n      dup1\n      0x3092afd5\n      gt\n      tag_64\n      jumpi\n      dup1\n      0x56a227f2\n      gt\n      tag_65\n      jumpi\n      dup1\n      0x70a08231\n      gt\n      tag_66\n      jumpi\n      dup1\n      0x70a08231\n      eq\n      tag_26\n      jumpi\n      dup1\n      0x715018a6\n      eq\n      tag_27\n      jumpi\n      dup1\n      0x749796a5\n      eq\n      tag_28\n      jumpi\n      dup1\n      0x753d02a1\n      eq\n      tag_29\n      jumpi\n      jump(tag_2)\n    tag_66:\n      dup1\n      0x56a227f2\n      eq\n      tag_23\n      jumpi\n      dup1\n      0x6d351d1a\n      eq\n      tag_24\n      jumpi\n      dup1\n      0x6ddd1713\n      eq\n      tag_25\n      jumpi\n      jump(tag_2)\n    tag_65:\n      dup1\n      0x39509351\n      gt\n      tag_67\n      jumpi\n      dup1\n      0x39509351\n      eq\n      tag_19\n      jumpi\n      dup1\n      0x40c10f19\n      eq\n      tag_20\n      jumpi\n      dup1\n      0x4d709adf\n      eq\n      tag_21\n      jumpi\n      dup1\n      0x563df32f\n      eq\n      tag_22\n      jumpi\n      jump(tag_2)\n    tag_67:\n      dup1\n      0x3092afd5\n      eq\n      tag_16\n      jumpi\n      dup1\n      0x313ce567\n      eq\n      tag_17\n      jumpi\n      dup1\n      0x33f3d628\n      eq\n      tag_18\n      jumpi\n      jump(tag_2)\n    tag_64:\n      dup1\n      0x1df4ccfc\n      gt\n      tag_68\n      jumpi\n      dup1\n      0x2b112e49\n      gt\n      tag_69\n      jumpi\n      dup1\n      0x2b112e49\n      eq\n      tag_12\n      jumpi\n      dup1\n      0x2b14ca56\n      eq\n      tag_13\n      jumpi\n      dup1\n      0x2be6937d\n      eq\n      tag_14\n      jumpi\n      dup1\n      0x2f34d282\n      eq\n      tag_15\n      jumpi\n      jump(tag_2)\n    tag_69:\n      dup1\n      0x1df4ccfc\n      eq\n      tag_9\n      jumpi\n      dup1\n      0x201e7991\n      eq\n      tag_10\n      jumpi\n      dup1\n      0x23b872dd\n      eq\n      tag_11\n      jumpi\n      jump(tag_2)\n    tag_68:\n      dup1\n      0x04a66b48\n      eq\n      tag_3\n      jumpi\n      dup1\n      0x06fdde03\n      eq\n      tag_4\n      jumpi\n      dup1\n      0x095ea7b3\n      eq\n      tag_5\n      jumpi\n      dup1\n      0x1161ae39\n      eq\n      tag_6\n      jumpi\n      dup1\n      0x180b0d7e\n      eq\n      tag_7\n      jumpi\n      dup1\n      0x18160ddd\n      eq\n      tag_8\n      jumpi\n      jump(tag_2)\n    tag_1:\n      jumpi(tag_2, calldatasize)\n      stop\n    tag_2:\n      0x00\n      dup1\n      revert\n        /* \"bep-20.sol\":20687:21177  function setFees(... */\n    tag_3:\n      callvalue\n      dup1\n      iszero\n      tag_72\n      jumpi\n      0x00\n      dup1\n      revert\n    tag_72:\n      pop\n      tag_73\n      0x04\n      dup1\n      calldatasize\n      sub\n      0xa0\n      dup2\n      lt\n      iszero\n      tag_74\n      jumpi\n      0x00\n      dup1\n      revert\n    tag_74:\n      dup2\n      add\n      swap1\n      dup1\n      dup1\n      calldataload\n      swap1\n      0x20\n      add\n      swap1\n      swap3\n      swap2\n      swap1\n      dup1\n      calldataload\n      swap1\n      0x20\n      add\n      swap1\n      swap3\n      swap2\n      swap1\n      dup1\n      calldataload\n      swap1\n      0x20\n      add\n      swap1\n      swap3\n      swap2\n      swap1\n      dup1\n      calldataload\n      swap1\n      0x20\n      add\n      swap1\n      swap3\n      swap2\n      swap1\n      dup1\n      calldataload\n      swap1\n      0x20\n      add\n      swap1\n      swap3\n      swap2\n      swap1\n      pop\n      pop\n      pop\n      tag_75\n      jump\t// in\n    tag_73:\n      stop\n        /* \"bep-20.sol\":5169:5250  function name() public view returns (string memory) {... */\n    tag_4:\n      callvalue\n      dup1\n      iszero\n      tag_76\n      jumpi\n      0x00\n      dup1\n      revert\n    tag_76:\n      pop\n      tag_77\n      tag_78\n      jump\t// in\n    tag_77:\n      mload(0x40)\n      dup1\n      dup1\n      0x20\n      add\n      dup3\n      dup2\n      sub\n      dup3\n      mstore\n      dup4\n      dup2\n      dup2\n      mload\n      dup2\n      mstore\n      0x20\n      add\n      swap2\n      pop\n      dup1\n      mload\n      swap1\n      0x20\n      add\n      swap1\n      dup1\n      dup4\n      dup4\n      0x00\n    tag_79:\n      dup4\n      dup2\n      lt\n      iszero\n      tag_81\n      jumpi\n      dup1\n      dup3\n      add\n      mload\n      dup2\n      dup5\n      add\n      mstore\n      0x20\n      dup2\n      add\n      swap1\n      pop\n      jump(tag_79)\n    tag_81:\n      pop\n      pop\n      pop\n      pop\n      swap1\n      pop\n      swap1\n      dup2\n      add\n      swap1\n      0x1f\n      and\n      dup1\n      iszero\n      tag_82\n      jumpi\n      dup1\n      dup3\n      sub\n      dup1\n      mload\n      0x01\n      dup4\n      0x20\n      sub\n      0x0100\n      exp\n      sub\n      not\n      and\n      dup2\n      mstore\n      0x20\n      add\n      swap2\n      pop\n    tag_82:\n      pop\n      swap3\n      pop\n      pop\n      pop\n      mload(0x40)\n      dup1\n      swap2\n      sub\n      swap1\n      return\n        /* \"bep-20.sol\":17472:17749  function approve(address spender, uint256 value)... */\n    tag_5:\n      callvalue\n      dup1\n      iszero\n      tag_83\n      jumpi\n      0x00\n      dup1\n      revert\n    tag_83:\n      pop\n      tag_84\n      0x04\n      dup1\n      calldatasize\n      sub\n      0x40\n      dup2\n      lt\n      iszero\n      tag_85\n      jumpi\n      0x00\n      dup1\n      revert\n    tag_85:\n      dup2\n      add\n      swap1\n      dup1\n      dup1\n      calldataload\n      0xffffffffffffffffffffffffffffffffffffffff\n      and\n      swap1\n      0x20\n      add\n      swap1\n      swap3\n      swap2\n      swap1\n      dup1\n      calldataload\n      swap1\n      0x20\n      add\n      swap1\n      swap3\n      swap2\n      swap1\n      pop\n      pop\n      pop\n      tag_86\n      jump\t// in\n    tag_84:\n      mload(0x40)\n      dup1\n      dup3\n      iszero\n      iszero\n      dup2\n      mstore\n      0x20\n      add\n      swap2\n      pop\n      pop\n      mload(0x40)\n      dup1\n      swap2\n      sub\n      swap1\n      return\n        /* \"bep-20.sol\":22071:22247  function isOverLiquified(uint256 target, uint256 accuracy)... */\n    tag_6:\n      callvalue\n      dup1\n      iszero\n      tag_87\n      jumpi\n      0x00\n      dup1\n      revert\n    tag_87:\n      pop\n      tag_88\n      0x04\n      dup1\n      calldatasize\n      sub\n      0x40\n      dup2\n      lt\n      iszero\n      tag_89\n      jumpi\n      0x00\n      dup1\n      revert\n    tag_89:\n      dup2\n      add\n      swap1\n      dup1\n      dup1\n      calldataload\n      swap1\n      0x20\n      add\n      swap1\n      swap3\n      swap2\n      swap1\n      dup1\n      calldataload\n      swap1\n      0x20\n      add\n      swap1\n      swap3\n      swap2\n      swap1\n      pop\n      pop\n      pop\n      tag_90\n      jump\t// in\n    tag_88:\n      mload(0x40)\n      dup1\n      dup3\n      iszero\n      iszero\n      dup2\n      mstore\n      0x20\n      add\n      swap2\n      pop\n      pop\n      mload(0x40)\n      dup1\n      swap2\n      sub\n      swap1\n      return\n        /* \"bep-20.sol\":9112:9147  uint256 public feeDenominator = 100 */\n    tag_7:\n      callvalue\n      dup1\n      iszero\n      tag_91\n      jumpi\n      0x00\n      dup1\n      revert\n    tag_91:\n      pop\n      tag_92\n      tag_93\n      jump\t// in\n    tag_92:\n      mload(0x40)\n      dup1\n      dup3\n      dup2\n      mstore\n      0x20\n      add\n      swap2\n      pop\n      pop\n      mload(0x40)\n      dup1\n      swap2\n      sub\n      swap1\n      return\n        /* \"bep-20.sol\":11371:11471  function totalSupply() external view override returns (uint256) {... */\n    tag_8:\n      callvalue\n      dup1\n      iszero\n      tag_94\n      jumpi\n      0x00\n      dup1\n      revert\n    tag_94:\n      pop\n      tag_95\n      tag_96\n      jump\t// in\n    tag_95:\n      mload(0x40)\n      dup1\n      dup3\n      dup2\n      mstore\n      0x20\n      add\n      swap2\n      pop\n      pop\n      mload(0x40)\n      dup1\n      swap2\n      sub\n      swap1\n      return\n        /* \"bep-20.sol\":9027:9106  uint256 public totalFee =... */\n    tag_9:\n      callvalue\n      dup1\n      iszero\n      tag_97\n      jumpi\n      0x00\n      dup1\n      revert\n    tag_97:\n      pop\n      tag_98\n      tag_99\n      jump\t// in\n    tag_98:\n      mload(0x40)\n      dup1\n      dup3\n      dup2\n      mstore\n      0x20\n      add\n      swap2\n      pop\n      pop\n      mload(0x40)\n      dup1\n      swap2\n      sub\n      swap1\n      return\n        /* \"bep-20.sol\":19427:19596  function setTargetLiquidity(uint256 target, uint256 accuracy) external onlyOwner {... */\n    tag_10:\n      callvalue\n      dup1\n      iszero\n      tag_100\n      jumpi\n      0x00\n      dup1\n      revert\n    tag_100:\n      pop\n      tag_101\n      0x04\n      dup1\n      calldatasize\n      sub\n      0x40\n      dup2\n      lt\n      iszero\n      tag_102\n      jumpi\n      0x00\n      dup1\n      revert\n    tag_102:\n      dup2\n      add\n      swap1\n      dup1\n      dup1\n      calldataload\n      swap1\n      0x20\n      add\n      swap1\n      swap3\n      swap2\n      swap1\n      dup1\n      calldataload\n      swap1\n      0x20\n      add\n      swap1\n      swap3\n      swap2\n      swap1\n      pop\n      pop\n      pop\n      tag_103\n      jump\t// in\n    tag_101:\n      stop\n        /* \"bep-20.sol\":13446:13890  function transferFrom(... */\n    tag_11:\n      callvalue\n      dup1\n      iszero\n      tag_104\n      jumpi\n      0x00\n      dup1\n      revert\n    tag_104:\n      pop\n      tag_105\n      0x04\n      dup1\n      calldatasize\n      sub\n      0x60\n      dup2\n      lt\n      iszero\n      tag_106\n      jumpi\n      0x00\n      dup1\n      revert\n    tag_106:\n      dup2\n      add\n      swap1\n      dup1\n      dup1\n      calldataload\n      0xffffffffffffffffffffffffffffffffffffffff\n      and\n      swap1\n      0x20\n      add\n      swap1\n      swap3\n      swap2\n      swap1\n      dup1\n      calldataload\n      0xffffffffffffffffffffffffffffffffffffffff\n      and\n      swap1\n      0x20\n      add\n      swap1\n      swap3\n      swap2\n      swap1\n      dup1\n      calldataload\n      swap1\n      0x20\n      add\n      swap1\n      swap3\n      swap2\n      swap1\n      pop\n      pop\n      pop\n      tag_107\n      jump\t// in\n    tag_105:\n      mload(0x40)\n      dup1\n      dup3\n      iszero\n      iszero\n      dup2\n      mstore\n      0x20\n      add\n      swap2\n      pop\n      pop\n      mload(0x40)\n      dup1\n      swap2\n      sub\n      swap1\n      return\n        /* \"bep-20.sol\":19211:19421  function getCirculatingSupply() public view returns (uint256) {... */\n    tag_12:\n      callvalue\n      dup1\n      iszero\n      tag_108\n      jumpi\n      0x00\n      dup1\n      revert\n    tag_108:\n      pop\n      tag_109\n      tag_110\n      jump\t// in\n    tag_109:\n      mload(0x40)\n      dup1\n      dup3\n      dup2\n      mstore\n      0x20\n      add\n      swap2\n      pop\n      pop\n      mload(0x40)\n      dup1\n      swap2\n      sub\n      swap1\n      return\n        /* \"bep-20.sol\":8995:9021  uint256 public sellFee = 5 */\n    tag_13:\n      callvalue\n      dup1\n      iszero\n      tag_111\n      jumpi\n      0x00\n      dup1\n      revert\n    tag_111:\n      pop\n      tag_112\n      tag_113\n      jump\t// in\n    tag_112:\n      mload(0x40)\n      dup1\n      dup3\n      dup2\n      mstore\n      0x20\n      add\n      swap2\n      pop\n      pop\n      mload(0x40)\n      dup1\n      swap2\n      sub\n      swap1\n      return\n        /* \"bep-20.sol\":17872:17984  function setInitialDistributionFinished() external onlyOwner {... */\n    tag_14:\n      callvalue\n      dup1\n      iszero\n      tag_114\n      jumpi\n      0x00\n      dup1\n      revert\n    tag_114:\n      pop\n      tag_115\n      tag_116\n      jump\t// in\n    tag_115:\n      stop\n        /* \"bep-20.sol\":11722:11859  function setLP(address _address) external onlyOwner {... */\n    tag_15:\n      callvalue\n      dup1\n      iszero\n      tag_117\n      jumpi\n      0x00\n      dup1\n      revert\n    tag_117:\n      pop\n      tag_118\n      0x04\n      dup1\n      calldatasize\n      sub\n      0x20\n      dup2\n      lt\n      iszero\n      tag_119\n      jumpi\n      0x00\n      dup1\n      revert\n    tag_119:\n      dup2\n      add\n      swap1\n      dup1\n      dup1\n      calldataload\n      0xffffffffffffffffffffffffffffffffffffffff\n      and\n      swap1\n      0x20\n      add\n      swap1\n      swap3\n      swap2\n      swap1\n      pop\n      pop\n      pop\n      tag_120\n      jump\t// in\n    tag_118:\n      stop\n        /* \"bep-20.sol\":19697:19792  function removeMinter(address account) public onlyOwner {... */\n    tag_16:\n      callvalue\n      dup1\n      iszero\n      tag_121\n      jumpi\n      0x00\n      dup1\n      revert\n    tag_121:\n      pop\n      tag_122\n      0x04\n      dup1\n      calldatasize\n      sub\n      0x20\n      dup2\n      lt\n      iszero\n      tag_123\n      jumpi\n      0x00\n      dup1\n      revert\n    tag_123:\n      dup2\n      add\n      swap1\n      dup1\n      dup1\n      calldataload\n      0xffffffffffffffffffffffffffffffffffffffff\n      and\n      swap1\n      0x20\n      add\n      swap1\n      swap3\n      swap2\n      swap1\n      pop\n      pop\n      pop\n      tag_124\n      jump\t// in\n    tag_122:\n      stop\n        /* \"bep-20.sol\":5347:5428  function decimals() public view returns (uint8) {... */\n    tag_17:\n      callvalue\n      dup1\n      iszero\n      tag_125\n      jumpi\n      0x00\n      dup1\n      revert\n    tag_125:\n      pop\n      tag_126\n      tag_127\n      jump\t// in\n    tag_126:\n      mload(0x40)\n      dup1\n      dup3\n      0xff\n      and\n      dup2\n      mstore\n      0x20\n      add\n      swap2\n      pop\n      pop\n      mload(0x40)\n      dup1\n      swap2\n      sub\n      swap1\n      return\n        /* \"bep-20.sol\":21423:21630  function rescueToken(address tokenAddress, uint256 tokens)... */\n    tag_18:\n      callvalue\n      dup1\n      iszero\n      tag_128\n      jumpi\n      0x00\n      dup1\n      revert\n    tag_128:\n      pop\n      tag_129\n      0x04\n      dup1\n      calldatasize\n      sub\n      0x40\n      dup2\n      lt\n      iszero\n      tag_130\n      jumpi\n      0x00\n      dup1\n      revert\n    tag_130:\n      dup2\n      add\n      swap1\n      dup1\n      dup1\n      calldataload\n      0xffffffffffffffffffffffffffffffffffffffff\n      and\n      swap1\n      0x20\n      add\n      swap1\n      swap3\n      swap2\n      swap1\n      dup1\n      calldataload\n      swap1\n      0x20\n      add\n      swap1\n      swap3\n      swap2\n      swap1\n      pop\n      pop\n      pop\n      tag_131\n      jump\t// in\n    tag_129:\n      mload(0x40)\n      dup1\n      dup3\n      iszero\n      iszero\n      dup2\n      mstore\n      0x20\n      add\n      swap2\n      pop\n      pop\n      mload(0x40)\n      dup1\n      swap2\n      sub\n      swap1\n      return\n        /* \"bep-20.sol\":17041:17466  function increaseAllowance(address spender, uint256 addedValue)... */\n    tag_19:\n      callvalue\n      dup1\n      iszero\n      tag_132\n      jumpi\n      0x00\n      dup1\n      revert\n    tag_132:\n      pop\n      tag_133\n      0x04\n      dup1\n      calldatasize\n      sub\n      0x40\n      dup2\n      lt\n      iszero\n      tag_134\n      jumpi\n      0x00\n      dup1\n      revert\n    tag_134:\n      dup2\n      add\n      swap1\n      dup1\n      dup1\n      calldataload\n      0xffffffffffffffffffffffffffffffffffffffff\n      and\n      swap1\n      0x20\n      add\n      swap1\n      swap3\n      swap2\n      swap1\n      dup1\n      calldataload\n      swap1\n      0x20\n      add\n      swap1\n      swap3\n      swap2\n      swap1\n      pop\n      pop\n      pop\n      tag_135\n      jump\t// in\n    tag_133:\n      mload(0x40)\n      dup1\n      dup3\n      iszero\n      iszero\n      dup2\n      mstore\n      0x20\n      add\n      swap2\n      pop\n      pop\n      mload(0x40)\n      dup1\n      swap2\n      sub\n      swap1\n      return\n        /* \"bep-20.sol\":18364:18748  function mint(address recipient, uint256 amount) external onlyMinter {... */\n    tag_20:\n      callvalue\n      dup1\n      iszero\n      tag_136\n      jumpi\n      0x00\n      dup1\n      revert\n    tag_136:\n      pop\n      tag_137\n      0x04\n      dup1\n      calldatasize\n      sub\n      0x40\n      dup2\n      lt\n      iszero\n      tag_138\n      jumpi\n      0x00\n      dup1\n      revert\n    tag_138:\n      dup2\n      add\n      swap1\n      dup1\n      dup1\n      calldataload\n      0xffffffffffffffffffffffffffffffffffffffff\n      and\n      swap1\n      0x20\n      add\n      swap1\n      swap3\n      swap2\n      swap1\n      dup1\n      calldataload\n      swap1\n      0x20\n      add\n      swap1\n      swap3\n      swap2\n      swap1\n      pop\n      pop\n      pop\n      tag_139\n      jump\t// in\n    tag_137:\n      stop\n        /* \"bep-20.sol\":8233:8264  InterfaceLP public pairContract */\n    tag_21:\n      callvalue\n      dup1\n      iszero\n      tag_140\n      jumpi\n      0x00\n      dup1\n      revert\n    tag_140:\n      pop\n      tag_141\n      tag_142\n      jump\t// in\n    tag_141:\n      mload(0x40)\n      dup1\n      dup3\n      0xffffffffffffffffffffffffffffffffffffffff\n      and\n      dup2\n      mstore\n      0x20\n      add\n      swap2\n      pop\n      pop\n      mload(0x40)\n      dup1\n      swap2\n      sub\n      swap1\n      return\n        /* \"bep-20.sol\":8924:8951  uint256 public Treasury = 3 */\n    tag_22:\n      callvalue\n      dup1\n      iszero\n      tag_143\n      jumpi\n      0x00\n      dup1\n      revert\n    tag_143:\n      pop\n      tag_144\n      tag_145\n      jump\t// in\n    tag_144:\n      mload(0x40)\n      dup1\n      dup3\n      dup2\n      mstore\n      0x20\n      add\n      swap2\n      pop\n      pop\n      mload(0x40)\n      dup1\n      swap2\n      sub\n      swap1\n      return\n        /* \"bep-20.sol\":21183:21417  function clearStuckBalance(uint256 amountPercentage, address adr) external onlyOwner {... */\n    tag_23:\n      callvalue\n      dup1\n      iszero\n      tag_146\n      jumpi\n      0x00\n      dup1\n      revert\n    tag_146:\n      pop\n      tag_147\n      0x04\n      dup1\n      calldatasize\n      sub\n      0x40\n      dup2\n      lt\n      iszero\n      tag_148\n      jumpi\n      0x00\n      dup1\n      revert\n    tag_148:\n      dup2\n      add\n      swap1\n      dup1\n      dup1\n      calldataload\n      swap1\n      0x20\n      add\n      swap1\n      swap3\n      swap2\n      swap1\n      dup1\n      calldataload\n      0xffffffffffffffffffffffffffffffffffffffff\n      and\n      swap1\n      0x20\n      add\n      swap1\n      swap3\n      swap2\n      swap1\n      pop\n      pop\n      pop\n      tag_149\n      jump\t// in\n    tag_147:\n      stop\n        /* \"bep-20.sol\":20143:20267  function checkSwapThreshold() external view returns (uint256) {... */\n    tag_24:\n      callvalue\n      dup1\n      iszero\n      tag_150\n      jumpi\n      0x00\n      dup1\n      revert\n    tag_150:\n      pop\n      tag_151\n      tag_152\n      jump\t// in\n    tag_151:\n      mload(0x40)\n      dup1\n      dup3\n      dup2\n      mstore\n      0x20\n      add\n      swap2\n      pop\n      pop\n      mload(0x40)\n      dup1\n      swap2\n      sub\n      swap1\n      return\n        /* \"bep-20.sol\":9540:9570  bool public swapEnabled = true */\n    tag_25:\n      callvalue\n      dup1\n      iszero\n      tag_153\n      jumpi\n      0x00\n      dup1\n      revert\n    tag_153:\n      pop\n      tag_154\n      tag_155\n      jump\t// in\n    tag_154:\n      mload(0x40)\n      dup1\n      dup3\n      iszero\n      iszero\n      dup2\n      mstore\n      0x20\n      add\n      swap2\n      pop\n      pop\n      mload(0x40)\n      dup1\n      swap2\n      sub\n      swap1\n      return\n        /* \"bep-20.sol\":12058:12194  function balanceOf(address who) external view override returns (uint256) {... */\n    tag_26:\n      callvalue\n      dup1\n      iszero\n      tag_156\n      jumpi\n      0x00\n      dup1\n      revert\n    tag_156:\n      pop\n      tag_157\n      0x04\n      dup1\n      calldatasize\n      sub\n      0x20\n      dup2\n      lt\n      iszero\n      tag_158\n      jumpi\n      0x00\n      dup1\n      revert\n    tag_158:\n      dup2\n      add\n      swap1\n      dup1\n      dup1\n      calldataload\n      0xffffffffffffffffffffffffffffffffffffffff\n      and\n      swap1\n      0x20\n      add\n      swap1\n      swap3\n      swap2\n      swap1\n      pop\n      pop\n      pop\n      tag_159\n      jump\t// in\n    tag_157:\n      mload(0x40)\n      dup1\n      dup3\n      dup2\n      mstore\n      0x20\n      add\n      swap2\n      pop\n      pop\n      mload(0x40)\n      dup1\n      swap2\n      sub\n      swap1\n      return\n        /* \"bep-20.sol\":7607:7730  function renounceOwnership() public onlyOwner {... */\n    tag_27:\n      callvalue\n      dup1\n      iszero\n      tag_160\n      jumpi\n      0x00\n      dup1\n      revert\n    tag_160:\n      pop\n      tag_161\n      tag_162\n      jump\t// in\n    tag_161:\n      stop\n        /* \"bep-20.sol\":18098:18197  function setFeeExempt(address _addr) external onlyOwner {... */\n    tag_28:\n      callvalue\n      dup1\n      iszero\n      tag_163\n      jumpi\n      0x00\n      dup1\n      revert\n    tag_163:\n      pop\n      tag_164\n      0x04\n      dup1\n      calldatasize\n      sub\n      0x20\n      dup2\n      lt\n      iszero\n      tag_165\n      jumpi\n      0x00\n      dup1\n      revert\n    tag_165:\n      dup2\n      add\n      swap1\n      dup1\n      dup1\n      calldataload\n      0xffffffffffffffffffffffffffffffffffffffff\n      and\n      swap1\n      0x20\n      add\n      swap1\n      swap3\n      swap2\n      swap1\n      pop\n      pop\n      pop\n      tag_166\n      jump\t// in\n    tag_164:\n      stop\n        /* \"bep-20.sol\":20273:20345  function manualSync() external {... */\n    tag_29:\n      callvalue\n      dup1\n      iszero\n      tag_167\n      jumpi\n      0x00\n      dup1\n      revert\n    tag_167:\n      pop\n      tag_168\n      tag_169\n      jump\t// in\n    tag_168:\n      stop\n        /* \"bep-20.sol\":9323:9354  address public TreasuryReceiver */\n    tag_30:\n      callvalue\n      dup1\n      iszero\n      tag_170\n      jumpi\n      0x00\n      dup1\n      revert\n    tag_170:\n      pop\n      tag_171\n      tag_172\n      jump\t// in\n    tag_171:\n      mload(0x40)\n      dup1\n      dup3\n      0xffffffffffffffffffffffffffffffffffffffff\n      and\n      dup2\n      mstore\n      0x20\n      add\n      swap2\n      pop\n      pop\n      mload(0x40)\n      dup1\n      swap2\n      sub\n      swap1\n      return\n        /* \"bep-20.sol\":19798:19881  function isNotInSwap() external view returns (bool) {... */\n    tag_31:\n      callvalue\n      dup1\n      iszero\n      tag_173\n      jumpi\n      0x00\n      dup1\n      revert\n    tag_173:\n      pop\n      tag_174\n      tag_175\n      jump\t// in\n    tag_174:\n      mload(0x40)\n      dup1\n      dup3\n      iszero\n      iszero\n      dup2\n      mstore\n      0x20\n      add\n      swap2\n      pop\n      pop\n      mload(0x40)\n      dup1\n      swap2\n      sub\n      swap1\n      return\n        /* \"bep-20.sol\":7355:7432  function owner() public view returns (address) {... */\n    tag_32:\n      callvalue\n      dup1\n      iszero\n      tag_176\n      jumpi\n      0x00\n      dup1\n      revert\n    tag_176:\n      pop\n      tag_177\n      tag_178\n      jump\t// in\n    tag_177:\n      mload(0x40)\n      dup1\n      dup3\n      0xffffffffffffffffffffffffffffffffffffffff\n      and\n      dup2\n      mstore\n      0x20\n      add\n      swap2\n      pop\n      pop\n      mload(0x40)\n      dup1\n      swap2\n      sub\n      swap1\n      return\n        /* \"bep-20.sol\":7511:7601  function isOwner() public view returns (bool) {... */\n    tag_33:\n      callvalue\n      dup1\n      iszero\n      tag_179\n      jumpi\n      0x00\n      dup1\n      revert\n    tag_179:\n      pop\n      tag_180\n      tag_181\n      jump\t// in\n    tag_180:\n      mload(0x40)\n      dup1\n      dup3\n      iszero\n      iszero\n      dup2\n      mstore\n      0x20\n      add\n      swap2\n      pop\n      pop\n      mload(0x40)\n      dup1\n      swap2\n      sub\n      swap1\n      return\n        /* \"bep-20.sol\":11251:11360  function updateBlacklist(address _user, bool _flag) public onlyOwner{... */\n    tag_34:\n      callvalue\n      dup1\n      iszero\n      tag_182\n      jumpi\n      0x00\n      dup1\n      revert\n    tag_182:\n      pop\n      tag_183\n      0x04\n      dup1\n      calldatasize\n      sub\n      0x40\n      dup2\n      lt\n      iszero\n      tag_184\n      jumpi\n      0x00\n      dup1\n      revert\n    tag_184:\n      dup2\n      add\n      swap1\n      dup1\n      dup1\n      calldataload\n      0xffffffffffffffffffffffffffffffffffffffff\n      and\n      swap1\n      0x20\n      add\n      swap1\n      swap3\n      swap2\n      swap1\n      dup1\n      calldataload\n      iszero\n      iszero\n      swap1\n      0x20\n      add\n      swap1\n      swap3\n      swap2\n      swap1\n      pop\n      pop\n      pop\n      tag_185\n      jump\t// in\n    tag_183:\n      stop\n        /* \"bep-20.sol\":5256:5341  function symbol() public view returns (string memory) {... */\n    tag_35:\n      callvalue\n      dup1\n      iszero\n      tag_186\n      jumpi\n      0x00\n      dup1\n      revert\n    tag_186:\n      pop\n      tag_187\n      tag_188\n      jump\t// in\n    tag_187:\n      mload(0x40)\n      dup1\n      dup1\n      0x20\n      add\n      dup3\n      dup2\n      sub\n      dup3\n      mstore\n      dup4\n      dup2\n      dup2\n      mload\n      dup2\n      mstore\n      0x20\n      add\n      swap2\n      pop\n      dup1\n      mload\n      swap1\n      0x20\n      add\n      swap1\n      dup1\n      dup4\n      dup4\n      0x00\n    tag_189:\n      dup4\n      dup2\n      lt\n      iszero\n      tag_191\n      jumpi\n      dup1\n      dup3\n      add\n      mload\n      dup2\n      dup5\n      add\n      mstore\n      0x20\n      dup2\n      add\n      swap1\n      pop\n      jump(tag_189)\n    tag_191:\n      pop\n      pop\n      pop\n      pop\n      swap1\n      pop\n      swap1\n      dup2\n      add\n      swap1\n      0x1f\n      and\n      dup1\n      iszero\n      tag_192\n      jumpi\n      dup1\n      dup3\n      sub\n      dup1\n      mload\n      0x01\n      dup4\n      0x20\n      sub\n      0x0100\n      exp\n      sub\n      not\n      and\n      dup2\n      mstore\n      0x20\n      add\n      swap2\n      pop\n    tag_192:\n      pop\n      swap3\n      pop\n      pop\n      pop\n      mload(0x40)\n      dup1\n      swap2\n      sub\n      swap1\n      return\n        /* \"bep-20.sol\":8887:8918  uint256 public liquidityFee = 5 */\n    tag_36:\n      callvalue\n      dup1\n      iszero\n      tag_193\n      jumpi\n      0x00\n      dup1\n      revert\n    tag_193:\n      pop\n      tag_194\n      tag_195\n      jump\t// in\n    tag_194:\n      mload(0x40)\n      dup1\n      dup3\n      dup2\n      mstore\n      0x20\n      add\n      swap2\n      pop\n      pop\n      mload(0x40)\n      dup1\n      swap2\n      sub\n      swap1\n      return\n        /* \"bep-20.sol\":19602:19691  function addMinter(address account) public onlyOwner {... */\n    tag_37:\n      callvalue\n      dup1\n      iszero\n      tag_196\n      jumpi\n      0x00\n      dup1\n      revert\n    tag_196:\n      pop\n      tag_197\n      0x04\n      dup1\n      calldatasize\n      sub\n      0x20\n      dup2\n      lt\n      iszero\n      tag_198\n      jumpi\n      0x00\n      dup1\n      revert\n    tag_198:\n      dup2\n      add\n      swap1\n      dup1\n      dup1\n      calldataload\n      0xffffffffffffffffffffffffffffffffffffffff\n      and\n      swap1\n      0x20\n      add\n      swap1\n      swap3\n      swap2\n      swap1\n      pop\n      pop\n      pop\n      tag_199\n      jump\t// in\n    tag_197:\n      stop\n        /* \"bep-20.sol\":4509:4584  function renounceMinter() public {... */\n    tag_38:\n      callvalue\n      dup1\n      iszero\n      tag_200\n      jumpi\n      0x00\n      dup1\n      revert\n    tag_200:\n      pop\n      tag_201\n      tag_202\n      jump\t// in\n    tag_201:\n      stop\n        /* \"bep-20.sol\":16425:17035  function decreaseAllowance(address spender, uint256 subtractedValue)... */\n    tag_39:\n      callvalue\n      dup1\n      iszero\n      tag_203\n      jumpi\n      0x00\n      dup1\n      revert\n    tag_203:\n      pop\n      tag_204\n      0x04\n      dup1\n      calldatasize\n      sub\n      0x40\n      dup2\n      lt\n      iszero\n      tag_205\n      jumpi\n      0x00\n      dup1\n      revert\n    tag_205:\n      dup2\n      add\n      swap1\n      dup1\n      dup1\n      calldataload\n      0xffffffffffffffffffffffffffffffffffffffff\n      and\n      swap1\n      0x20\n      add\n      swap1\n      swap3\n      swap2\n      swap1\n      dup1\n      calldataload\n      swap1\n      0x20\n      add\n      swap1\n      swap3\n      swap2\n      swap1\n      pop\n      pop\n      pop\n      tag_206\n      jump\t// in\n    tag_204:\n      mload(0x40)\n      dup1\n      dup3\n      iszero\n      iszero\n      dup2\n      mstore\n      0x20\n      add\n      swap2\n      pop\n      pop\n      mload(0x40)\n      dup1\n      swap2\n      sub\n      swap1\n      return\n        /* \"bep-20.sol\":9514:9533  address public pair */\n    tag_40:\n      callvalue\n      dup1\n      iszero\n      tag_207\n      jumpi\n      0x00\n      dup1\n      revert\n    tag_207:\n      pop\n      tag_208\n      tag_209\n      jump\t// in\n    tag_208:\n      mload(0x40)\n      dup1\n      dup3\n      0xffffffffffffffffffffffffffffffffffffffff\n      and\n      dup2\n      mstore\n      0x20\n      add\n      swap2\n      pop\n      pop\n      mload(0x40)\n      dup1\n      swap2\n      sub\n      swap1\n      return\n        /* \"bep-20.sol\":11477:11716  function transfer(address to, uint256 value)... */\n    tag_41:\n      callvalue\n      dup1\n      iszero\n      tag_210\n      jumpi\n      0x00\n      dup1\n      revert\n    tag_210:\n      pop\n      tag_211\n      0x04\n      dup1\n      calldatasize\n      sub\n      0x40\n      dup2\n      lt\n      iszero\n      tag_212\n      jumpi\n      0x00\n      dup1\n      revert\n    tag_212:\n      dup2\n      add\n      swap1\n      dup1\n      dup1\n      calldataload\n      0xffffffffffffffffffffffffffffffffffffffff\n      and\n      swap1\n      0x20\n      add\n      swap1\n      swap3\n      swap2\n      swap1\n      dup1\n      calldataload\n      swap1\n      0x20\n      add\n      swap1\n      swap3\n      swap2\n      swap1\n      pop\n      pop\n      pop\n      tag_213\n      jump\t// in\n    tag_211:\n      mload(0x40)\n      dup1\n      dup3\n      iszero\n      iszero\n      dup2\n      mstore\n      0x20\n      add\n      swap2\n      pop\n      pop\n      mload(0x40)\n      dup1\n      swap2\n      sub\n      swap1\n      return\n        /* \"bep-20.sol\":4396:4503  function isMinter(address account) public view returns (bool) {... */\n    tag_42:\n      callvalue\n      dup1\n      iszero\n      tag_214\n      jumpi\n      0x00\n      dup1\n      revert\n    tag_214:\n      pop\n      tag_215\n      0x04\n      dup1\n      calldatasize\n      sub\n      0x20\n      dup2\n      lt\n      iszero\n      tag_216\n      jumpi\n      0x00\n      dup1\n      revert\n    tag_216:\n      dup2\n      add\n      swap1\n      dup1\n      dup1\n      calldataload\n      0xffffffffffffffffffffffffffffffffffffffff\n      and\n      swap1\n      0x20\n      add\n      swap1\n      swap3\n      swap2\n      swap1\n      pop\n      pop\n      pop\n      tag_217\n      jump\t// in\n    tag_215:\n      mload(0x40)\n      dup1\n      dup3\n      iszero\n      iszero\n      dup2\n      mstore\n      0x20\n      add\n      swap2\n      pop\n      pop\n      mload(0x40)\n      dup1\n      swap2\n      sub\n      swap1\n      return\n        /* \"bep-20.sol\":8957:8989  uint256 public RiskFreeValue = 5 */\n    tag_43:\n      callvalue\n      dup1\n      iszero\n      tag_218\n      jumpi\n      0x00\n      dup1\n      revert\n    tag_218:\n      pop\n      tag_219\n      tag_220\n      jump\t// in\n    tag_219:\n      mload(0x40)\n      dup1\n      dup3\n      dup2\n      mstore\n      0x20\n      add\n      swap2\n      pop\n      pop\n      mload(0x40)\n      dup1\n      swap2\n      sub\n      swap1\n      return\n        /* \"bep-20.sol\":9281:9317  address public autoLiquidityReceiver */\n    tag_44:\n      callvalue\n      dup1\n      iszero\n      tag_221\n      jumpi\n      0x00\n      dup1\n      revert\n    tag_221:\n      pop\n      tag_222\n      tag_223\n      jump\t// in\n    tag_222:\n      mload(0x40)\n      dup1\n      dup3\n      0xffffffffffffffffffffffffffffffffffffffff\n      and\n      dup2\n      mstore\n      0x20\n      add\n      swap2\n      pop\n      pop\n      mload(0x40)\n      dup1\n      swap2\n      sub\n      swap1\n      return\n        /* \"bep-20.sol\":18754:18977  function setSwapBackSettings(... */\n    tag_45:\n      callvalue\n      dup1\n      iszero\n      tag_224\n      jumpi\n      0x00\n      dup1\n      revert\n    tag_224:\n      pop\n      tag_225\n      0x04\n      dup1\n      calldatasize\n      sub\n      0x60\n      dup2\n      lt\n      iszero\n      tag_226\n      jumpi\n      0x00\n      dup1\n      revert\n    tag_226:\n      dup2\n      add\n      swap1\n      dup1\n      dup1\n      calldataload\n      iszero\n      iszero\n      swap1\n      0x20\n      add\n      swap1\n      swap3\n      swap2\n      swap1\n      dup1\n      calldataload\n      swap1\n      0x20\n      add\n      swap1\n      swap3\n      swap2\n      swap1\n      dup1\n      calldataload\n      swap1\n      0x20\n      add\n      swap1\n      swap3\n      swap2\n      swap1\n      pop\n      pop\n      pop\n      tag_227\n      jump\t// in\n    tag_225:\n      stop\n        /* \"bep-20.sol\":8271:8310  bool public initialDistributionFinished */\n    tag_46:\n      callvalue\n      dup1\n      iszero\n      tag_228\n      jumpi\n      0x00\n      dup1\n      revert\n    tag_228:\n      pop\n      tag_229\n      tag_230\n      jump\t// in\n    tag_229:\n      mload(0x40)\n      dup1\n      dup3\n      iszero\n      iszero\n      dup2\n      mstore\n      0x20\n      add\n      swap2\n      pop\n      pop\n      mload(0x40)\n      dup1\n      swap2\n      sub\n      swap1\n      return\n        /* \"bep-20.sol\":19887:20137  function sendPresale(address[] calldata recipients, uint256[] calldata values)... */\n    tag_47:\n      callvalue\n      dup1\n      iszero\n      tag_231\n      jumpi\n      0x00\n      dup1\n      revert\n    tag_231:\n      pop\n      tag_232\n      0x04\n      dup1\n      calldatasize\n      sub\n      0x40\n      dup2\n      lt\n      iszero\n      tag_233\n      jumpi\n      0x00\n      dup1\n      revert\n    tag_233:\n      dup2\n      add\n      swap1\n      dup1\n      dup1\n      calldataload\n      swap1\n      0x20\n      add\n      swap1\n      0x0100000000\n      dup2\n      gt\n      iszero\n      tag_234\n      jumpi\n      0x00\n      dup1\n      revert\n    tag_234:\n      dup3\n      add\n      dup4\n      0x20\n      dup3\n      add\n      gt\n      iszero\n      tag_235\n      jumpi\n      0x00\n      dup1\n      revert\n    tag_235:\n      dup1\n      calldataload\n      swap1\n      0x20\n      add\n      swap2\n      dup5\n      0x20\n      dup4\n      mul\n      dup5\n      add\n      gt\n      0x0100000000\n      dup4\n      gt\n      or\n      iszero\n      tag_236\n      jumpi\n      0x00\n      dup1\n      revert\n    tag_236:\n      swap1\n      swap2\n      swap3\n      swap4\n      swap2\n      swap3\n      swap4\n      swap1\n      dup1\n      calldataload\n      swap1\n      0x20\n      add\n      swap1\n      0x0100000000\n      dup2\n      gt\n      iszero\n      tag_237\n      jumpi\n      0x00\n      dup1\n      revert\n    tag_237:\n      dup3\n      add\n      dup4\n      0x20\n      dup3\n      add\n      gt\n      iszero\n      tag_238\n      jumpi\n      0x00\n      dup1\n      revert\n    tag_238:\n      dup1\n      calldataload\n      swap1\n      0x20\n      add\n      swap2\n      dup5\n      0x20\n      dup4\n      mul\n      dup5\n      add\n      gt\n      0x0100000000\n      dup4\n      gt\n      or\n      iszero\n      tag_239\n      jumpi\n      0x00\n      dup1\n      revert\n    tag_239:\n      swap1\n      swap2\n      swap3\n      swap4\n      swap2\n      swap3\n      swap4\n      swap1\n      pop\n      pop\n      pop\n      tag_240\n      jump\t// in\n    tag_232:\n      stop\n        /* \"bep-20.sol\":17755:17866  function checkFeeExempt(address _addr) external view returns (bool) {... */\n    tag_48:\n      callvalue\n      dup1\n      iszero\n      tag_241\n      jumpi\n      0x00\n      dup1\n      revert\n    tag_241:\n      pop\n      tag_242\n      0x04\n      dup1\n      calldatasize\n      sub\n      0x20\n      dup2\n      lt\n      iszero\n      tag_243\n      jumpi\n      0x00\n      dup1\n      revert\n    tag_243:\n      dup2\n      add\n      swap1\n      dup1\n      dup1\n      calldataload\n      0xffffffffffffffffffffffffffffffffffffffff\n      and\n      swap1\n      0x20\n      add\n      swap1\n      swap3\n      swap2\n      swap1\n      pop\n      pop\n      pop\n      tag_244\n      jump\t// in\n    tag_242:\n      mload(0x40)\n      dup1\n      dup3\n      iszero\n      iszero\n      dup2\n      mstore\n      0x20\n      add\n      swap2\n      pop\n      pop\n      mload(0x40)\n      dup1\n      swap2\n      sub\n      swap1\n      return\n        /* \"bep-20.sol\":21778:22061  function getLiquidityBacking(uint256 accuracy)... */\n    tag_49:\n      callvalue\n      dup1\n      iszero\n      tag_245\n      jumpi\n      0x00\n      dup1\n      revert\n    tag_245:\n      pop\n      tag_246\n      0x04\n      dup1\n      calldatasize\n      sub\n      0x20\n      dup2\n      lt\n      iszero\n      tag_247\n      jumpi\n      0x00\n      dup1\n      revert\n    tag_247:\n      dup2\n      add\n      swap1\n      dup1\n      dup1\n      calldataload\n      swap1\n      0x20\n      add\n      swap1\n      swap3\n      swap2\n      swap1\n      pop\n      pop\n      pop\n      tag_248\n      jump\t// in\n    tag_246:\n      mload(0x40)\n      dup1\n      dup3\n      dup2\n      mstore\n      0x20\n      add\n      swap2\n      pop\n      pop\n      mload(0x40)\n      dup1\n      swap2\n      sub\n      swap1\n      return\n        /* \"bep-20.sol\":17990:18092  function enableTransfer(address _addr) external onlyOwner {... */\n    tag_50:\n      callvalue\n      dup1\n      iszero\n      tag_249\n      jumpi\n      0x00\n      dup1\n      revert\n    tag_249:\n      pop\n      tag_250\n      0x04\n      dup1\n      calldatasize\n      sub\n      0x20\n      dup2\n      lt\n      iszero\n      tag_251\n      jumpi\n      0x00\n      dup1\n      revert\n    tag_251:\n      dup2\n      add\n      swap1\n      dup1\n      dup1\n      calldataload\n      0xffffffffffffffffffffffffffffffffffffffff\n      and\n      swap1\n      0x20\n      add\n      swap1\n      swap3\n      swap2\n      swap1\n      pop\n      pop\n      pop\n      tag_252\n      jump\t// in\n    tag_250:\n      stop\n        /* \"bep-20.sol\":9360:9396  address public RiskFreeValueReceiver */\n    tag_51:\n      callvalue\n      dup1\n      iszero\n      tag_253\n      jumpi\n      0x00\n      dup1\n      revert\n    tag_253:\n      pop\n      tag_254\n      tag_255\n      jump\t// in\n    tag_254:\n      mload(0x40)\n      dup1\n      dup3\n      0xffffffffffffffffffffffffffffffffffffffff\n      and\n      dup2\n      mstore\n      0x20\n      add\n      swap2\n      pop\n      pop\n      mload(0x40)\n      dup1\n      swap2\n      sub\n      swap1\n      return\n        /* \"bep-20.sol\":20351:20681  function setFeeReceivers(... */\n    tag_52:\n      callvalue\n      dup1\n      iszero\n      tag_256\n      jumpi\n      0x00\n      dup1\n      revert\n    tag_256:\n      pop\n      tag_257\n      0x04\n      dup1\n      calldatasize\n      sub\n      0x60\n      dup2\n      lt\n      iszero\n      tag_258\n      jumpi\n      0x00\n      dup1\n      revert\n    tag_258:\n      dup2\n      add\n      swap1\n      dup1\n      dup1\n      calldataload\n      0xffffffffffffffffffffffffffffffffffffffff\n      and\n      swap1\n      0x20\n      add\n      swap1\n      swap3\n      swap2\n      swap1\n      dup1\n      calldataload\n      0xffffffffffffffffffffffffffffffffffffffff\n      and\n      swap1\n      0x20\n      add\n      swap1\n      swap3\n      swap2\n      swap1\n      dup1\n      calldataload\n      0xffffffffffffffffffffffffffffffffffffffff\n      and\n      swap1\n      0x20\n      add\n      swap1\n      swap3\n      swap2\n      swap1\n      pop\n      pop\n      pop\n      tag_259\n      jump\t// in\n    tag_257:\n      stop\n        /* \"bep-20.sol\":11865:12052  function allowance(address owner_, address spender)... */\n    tag_53:\n      callvalue\n      dup1\n      iszero\n      tag_260\n      jumpi\n      0x00\n      dup1\n      revert\n    tag_260:\n      pop\n      tag_261\n      0x04\n      dup1\n      calldatasize\n      sub\n      0x40\n      dup2\n      lt\n      iszero\n      tag_262\n      jumpi\n      0x00\n      dup1\n      revert\n    tag_262:\n      dup2\n      add\n      swap1\n      dup1\n      dup1\n      calldataload\n      0xffffffffffffffffffffffffffffffffffffffff\n      and\n      swap1\n      0x20\n      add\n      swap1\n      swap3\n      swap2\n      swap1\n      dup1\n      calldataload\n      0xffffffffffffffffffffffffffffffffffffffff\n      and\n      swap1\n      0x20\n      add\n      swap1\n      swap3\n      swap2\n      swap1\n      pop\n      pop\n      pop\n      tag_263\n      jump\t// in\n    tag_261:\n      mload(0x40)\n      dup1\n      dup3\n      dup2\n      mstore\n      0x20\n      add\n      swap2\n      pop\n      pop\n      mload(0x40)\n      dup1\n      swap2\n      sub\n      swap1\n      return\n        /* \"bep-20.sol\":7736:7843  function transferOwnership(address newOwner) public onlyOwner {... */\n    tag_54:\n      callvalue\n      dup1\n      iszero\n      tag_264\n      jumpi\n      0x00\n      dup1\n      revert\n    tag_264:\n      pop\n      tag_265\n      0x04\n      dup1\n      calldatasize\n      sub\n      0x20\n      dup2\n      lt\n      iszero\n      tag_266\n      jumpi\n      0x00\n      dup1\n      revert\n    tag_266:\n      dup2\n      add\n      swap1\n      dup1\n      dup1\n      calldataload\n      0xffffffffffffffffffffffffffffffffffffffff\n      and\n      swap1\n      0x20\n      add\n      swap1\n      swap3\n      swap2\n      swap1\n      pop\n      pop\n      pop\n      tag_267\n      jump\t// in\n    tag_265:\n      stop\n        /* \"bep-20.sol\":9484:9508  IDEXRouter public router */\n    tag_55:\n      callvalue\n      dup1\n      iszero\n      tag_268\n      jumpi\n      0x00\n      dup1\n      revert\n    tag_268:\n      pop\n      tag_269\n      tag_270\n      jump\t// in\n    tag_269:\n      mload(0x40)\n      dup1\n      dup3\n      0xffffffffffffffffffffffffffffffffffffffff\n      and\n      dup2\n      mstore\n      0x20\n      add\n      swap2\n      pop\n      pop\n      mload(0x40)\n      dup1\n      swap2\n      sub\n      swap1\n      return\n        /* \"bep-20.sol\":10119:10160  mapping(address => bool) public blacklist */\n    tag_56:\n      callvalue\n      dup1\n      iszero\n      tag_271\n      jumpi\n      0x00\n      dup1\n      revert\n    tag_271:\n      pop\n      tag_272\n      0x04\n      dup1\n      calldatasize\n      sub\n      0x20\n      dup2\n      lt\n      iszero\n      tag_273\n      jumpi\n      0x00\n      dup1\n      revert\n    tag_273:\n      dup2\n      add\n      swap1\n      dup1\n      dup1\n      calldataload\n      0xffffffffffffffffffffffffffffffffffffffff\n      and\n      swap1\n      0x20\n      add\n      swap1\n      swap3\n      swap2\n      swap1\n      pop\n      pop\n      pop\n      tag_274\n      jump\t// in\n    tag_272:\n      mload(0x40)\n      dup1\n      dup3\n      iszero\n      iszero\n      dup2\n      mstore\n      0x20\n      add\n      swap2\n      pop\n      pop\n      mload(0x40)\n      dup1\n      swap2\n      sub\n      swap1\n      return\n        /* \"bep-20.sol\":20687:21177  function setFees(... */\n    tag_75:\n        /* \"bep-20.sol\":7477:7486  isOwner() */\n      tag_279\n        /* \"bep-20.sol\":7477:7484  isOwner */\n      tag_181\n        /* \"bep-20.sol\":7477:7486  isOwner() */\n      jump\t// in\n    tag_279:\n        /* \"bep-20.sol\":7469:7487  require(isOwner()) */\n      tag_280\n      jumpi\n      0x00\n      dup1\n      revert\n    tag_280:\n        /* \"bep-20.sol\":20903:20916  _liquidityFee */\n      dup5\n        /* \"bep-20.sol\":20888:20900  liquidityFee */\n      0x07\n        /* \"bep-20.sol\":20888:20916  liquidityFee = _liquidityFee */\n      dup2\n      swap1\n      sstore\n      pop\n        /* \"bep-20.sol\":20942:20956  _RiskFreeValue */\n      dup4\n        /* \"bep-20.sol\":20926:20939  RiskFreeValue */\n      0x09\n        /* \"bep-20.sol\":20926:20956  RiskFreeValue = _RiskFreeValue */\n      dup2\n      swap1\n      sstore\n      pop\n        /* \"bep-20.sol\":20977:20986  _Treasury */\n      dup3\n        /* \"bep-20.sol\":20966:20974  Treasury */\n      0x08\n        /* \"bep-20.sol\":20966:20986  Treasury = _Treasury */\n      dup2\n      swap1\n      sstore\n      pop\n        /* \"bep-20.sol\":21006:21014  _sellFee */\n      dup2\n        /* \"bep-20.sol\":20996:21003  sellFee */\n      0x0a\n        /* \"bep-20.sol\":20996:21014  sellFee = _sellFee */\n      dup2\n      swap1\n      sstore\n      pop\n        /* \"bep-20.sol\":21035:21080  liquidityFee.add(Treasury).add(RiskFreeValue) */\n      tag_282\n        /* \"bep-20.sol\":21066:21079  RiskFreeValue */\n      sload(0x09)\n        /* \"bep-20.sol\":21035:21061  liquidityFee.add(Treasury) */\n      tag_283\n        /* \"bep-20.sol\":21052:21060  Treasury */\n      sload(0x08)\n        /* \"bep-20.sol\":21035:21047  liquidityFee */\n      sload(0x07)\n        /* \"bep-20.sol\":21035:21051  liquidityFee.add */\n      tag_275\n      swap1\n        /* \"bep-20.sol\":21035:21061  liquidityFee.add(Treasury) */\n      swap2\n      swap1\n      0xffffffff\n      and\n      jump\t// in\n    tag_283:\n        /* \"bep-20.sol\":21035:21065  liquidityFee.add(Treasury).add */\n      tag_275\n      swap1\n        /* \"bep-20.sol\":21035:21080  liquidityFee.add(Treasury).add(RiskFreeValue) */\n      swap2\n      swap1\n      0xffffffff\n      and\n      jump\t// in\n    tag_282:\n        /* \"bep-20.sol\":21024:21032  totalFee */\n      0x0b\n        /* \"bep-20.sol\":21024:21080  totalFee = liquidityFee.add(Treasury).add(RiskFreeValue) */\n      dup2\n      swap1\n      sstore\n      pop\n        /* \"bep-20.sol\":21107:21122  _feeDenominator */\n      dup1\n        /* \"bep-20.sol\":21090:21104  feeDenominator */\n      0x0c\n        /* \"bep-20.sol\":21090:21122  feeDenominator = _feeDenominator */\n      dup2\n      swap1\n      sstore\n      pop\n        /* \"bep-20.sol\":21168:21169  4 */\n      0x04\n        /* \"bep-20.sol\":21151:21165  feeDenominator */\n      sload(0x0c)\n        /* \"bep-20.sol\":21151:21169  feeDenominator / 4 */\n      dup2\n      tag_284\n      jumpi\n      invalid\n    tag_284:\n      div\n        /* \"bep-20.sol\":21140:21148  totalFee */\n      sload(0x0b)\n        /* \"bep-20.sol\":21140:21169  totalFee < feeDenominator / 4 */\n      lt\n        /* \"bep-20.sol\":21132:21170  require(totalFee < feeDenominator / 4) */\n      tag_285\n      jumpi\n      0x00\n      dup1\n      revert\n    tag_285:\n        /* \"bep-20.sol\":20687:21177  function setFees(... */\n      pop\n      pop\n      pop\n      pop\n      pop\n      jump\t// out\n        /* \"bep-20.sol\":5169:5250  function name() public view returns (string memory) {... */\n    tag_78:\n        /* \"bep-20.sol\":5206:5219  string memory */\n      0x60\n        /* \"bep-20.sol\":5238:5243  _name */\n      0x00\n        /* \"bep-20.sol\":5231:5243  return _name */\n      dup1\n      sload\n      0x01\n      dup2\n      0x01\n      and\n      iszero\n      0x0100\n      mul\n      sub\n      and\n      0x02\n      swap1\n      div\n      dup1\n      0x1f\n      add\n      0x20\n      dup1\n      swap2\n      div\n      mul\n      0x20\n      add\n      mload(0x40)\n      swap1\n      dup2\n      add\n      0x40\n      mstore\n      dup1\n      swap3\n      swap2\n      swap1\n      dup2\n      dup2\n      mstore\n      0x20\n      add\n      dup3\n      dup1\n      sload\n      0x01\n      dup2\n      0x01\n      and\n      iszero\n      0x0100\n      mul\n      sub\n      and\n      0x02\n      swap1\n      div\n      dup1\n      iszero\n      tag_287\n      jumpi\n      dup1\n      0x1f\n      lt\n      tag_288\n      jumpi\n      0x0100\n      dup1\n      dup4\n      sload\n      div\n      mul\n      dup4\n      mstore\n      swap2\n      0x20\n      add\n      swap2\n      jump(tag_287)\n    tag_288:\n      dup3\n      add\n      swap2\n      swap1\n      0x00\n      mstore\n      keccak256(0x00, 0x20)\n      swap1\n    tag_289:\n      dup2\n      sload\n      dup2\n      mstore\n      swap1\n      0x01\n      add\n      swap1\n      0x20\n      add\n      dup1\n      dup4\n      gt\n      tag_289\n      jumpi\n      dup3\n      swap1\n      sub\n      0x1f\n      and\n      dup3\n      add\n      swap2\n    tag_287:\n      pop\n      pop\n      pop\n      pop\n      pop\n      swap1\n      pop\n        /* \"bep-20.sol\":5169:5250  function name() public view returns (string memory) {... */\n      swap1\n      jump\t// out\n        /* \"bep-20.sol\":17472:17749  function approve(address spender, uint256 value)... */\n    tag_86:\n        /* \"bep-20.sol\":17604:17608  bool */\n      0x00\n        /* \"bep-20.sol\":8471:8498  initialDistributionFinished */\n      0x04\n      0x14\n      swap1\n      sload\n      swap1\n      0x0100\n      exp\n      swap1\n      div\n      0xff\n      and\n        /* \"bep-20.sol\":8471:8527  initialDistributionFinished ||... */\n      dup1\n      tag_291\n      jumpi\n      pop\n        /* \"bep-20.sol\":8518:8527  isOwner() */\n      tag_292\n        /* \"bep-20.sol\":8518:8525  isOwner */\n      tag_181\n        /* \"bep-20.sol\":8518:8527  isOwner() */\n      jump\t// in\n    tag_292:\n        /* \"bep-20.sol\":8471:8527  initialDistributionFinished ||... */\n    tag_291:\n        /* \"bep-20.sol\":8471:8572  initialDistributionFinished ||... */\n      dup1\n      tag_293\n      jumpi\n      pop\n        /* \"bep-20.sol\":8547:8560  allowTransfer */\n      0x05\n        /* \"bep-20.sol\":8547:8572  allowTransfer[msg.sender] */\n      0x00\n        /* \"bep-20.sol\":8561:8571  msg.sender */\n      caller\n        /* \"bep-20.sol\":8547:8572  allowTransfer[msg.sender] */\n      0xffffffffffffffffffffffffffffffffffffffff\n      and\n      0xffffffffffffffffffffffffffffffffffffffff\n      and\n      dup2\n      mstore\n      0x20\n      add\n      swap1\n      dup2\n      mstore\n      0x20\n      add\n      0x00\n      keccak256\n      0x00\n      swap1\n      sload\n      swap1\n      0x0100\n      exp\n      swap1\n      div\n      0xff\n      and\n        /* \"bep-20.sol\":8471:8572  initialDistributionFinished ||... */\n    tag_293:\n        /* \"bep-20.sol\":8450:8582  require(... */\n      tag_294\n      jumpi\n      0x00\n      dup1\n      revert\n    tag_294:\n        /* \"bep-20.sol\":17665:17670  value */\n      dup2\n        /* \"bep-20.sol\":17624:17641  _allowedFragments */\n      0x1b\n        /* \"bep-20.sol\":17624:17653  _allowedFragments[msg.sender] */\n      0x00\n        /* \"bep-20.sol\":17642:17652  msg.sender */\n      caller\n        /* \"bep-20.sol\":17624:17653  _allowedFragments[msg.sender] */\n      0xffffffffffffffffffffffffffffffffffffffff\n      and\n      0xffffffffffffffffffffffffffffffffffffffff\n      and\n      dup2\n      mstore\n      0x20\n      add\n      swap1\n      dup2\n      mstore\n      0x20\n      add\n      0x00\n      keccak256\n        /* \"bep-20.sol\":17624:17662  _allowedFragments[msg.sender][spender] */\n      0x00\n        /* \"bep-20.sol\":17654:17661  spender */\n      dup6\n        /* \"bep-20.sol\":17624:17662  _allowedFragments[msg.sender][spender] */\n      0xffffffffffffffffffffffffffffffffffffffff\n      and\n      0xffffffffffffffffffffffffffffffffffffffff\n      and\n      dup2\n      mstore\n      0x20\n      add\n      swap1\n      dup2\n      mstore\n      0x20\n      add\n      0x00\n      keccak256\n        /* \"bep-20.sol\":17624:17670  _allowedFragments[msg.sender][spender] = value */\n      dup2\n      swap1\n      sstore\n      pop\n        /* \"bep-20.sol\":17706:17713  spender */\n      dup3\n        /* \"bep-20.sol\":17685:17721  Approval(msg.sender, spender, value) */\n      0xffffffffffffffffffffffffffffffffffffffff\n      and\n        /* \"bep-20.sol\":17694:17704  msg.sender */\n      caller\n        /* \"bep-20.sol\":17685:17721  Approval(msg.sender, spender, value) */\n      0xffffffffffffffffffffffffffffffffffffffff\n      and\n      0x8c5be1e5ebec7d5bd14f71427d1e84f3dd0314c0f7b2291e5b200ac8c7c3b925\n        /* \"bep-20.sol\":17715:17720  value */\n      dup5\n        /* \"bep-20.sol\":17685:17721  Approval(msg.sender, spender, value) */\n      mload(0x40)\n      dup1\n      dup3\n      dup2\n      mstore\n      0x20\n      add\n      swap2\n      pop\n      pop\n      mload(0x40)\n      dup1\n      swap2\n      sub\n      swap1\n      log3\n        /* \"bep-20.sol\":17738:17742  true */\n      0x01\n        /* \"bep-20.sol\":17731:17742  return true */\n      swap1\n      pop\n        /* \"bep-20.sol\":17472:17749  function approve(address spender, uint256 value)... */\n      swap3\n      swap2\n      pop\n      pop\n      jump\t// out\n        /* \"bep-20.sol\":22071:22247  function isOverLiquified(uint256 target, uint256 accuracy)... */\n    tag_90:\n        /* \"bep-20.sol\":22175:22179  bool */\n      0x00\n        /* \"bep-20.sol\":22234:22240  target */\n      dup3\n        /* \"bep-20.sol\":22202:22231  getLiquidityBacking(accuracy) */\n      tag_297\n        /* \"bep-20.sol\":22222:22230  accuracy */\n      dup4\n        /* \"bep-20.sol\":22202:22221  getLiquidityBacking */\n      tag_248\n        /* \"bep-20.sol\":22202:22231  getLiquidityBacking(accuracy) */\n      jump\t// in\n    tag_297:\n        /* \"bep-20.sol\":22202:22240  getLiquidityBacking(accuracy) > target */\n      gt\n        /* \"bep-20.sol\":22195:22240  return getLiquidityBacking(accuracy) > target */\n      swap1\n      pop\n        /* \"bep-20.sol\":22071:22247  function isOverLiquified(uint256 target, uint256 accuracy)... */\n      swap3\n      swap2\n      pop\n      pop\n      jump\t// out\n        /* \"bep-20.sol\":9112:9147  uint256 public feeDenominator = 100 */\n    tag_93:\n      sload(0x0c)\n      dup2\n      jump\t// out\n        /* \"bep-20.sol\":11371:11471  function totalSupply() external view override returns (uint256) {... */\n    tag_96:\n        /* \"bep-20.sol\":11426:11433  uint256 */\n      0x00\n        /* \"bep-20.sol\":11452:11464  _totalSupply */\n      sload(0x18)\n        /* \"bep-20.sol\":11445:11464  return _totalSupply */\n      swap1\n      pop\n        /* \"bep-20.sol\":11371:11471  function totalSupply() external view override returns (uint256) {... */\n      swap1\n      jump\t// out\n        /* \"bep-20.sol\":9027:9106  uint256 public totalFee =... */\n    tag_99:\n      sload(0x0b)\n      dup2\n      jump\t// out\n        /* \"bep-20.sol\":19427:19596  function setTargetLiquidity(uint256 target, uint256 accuracy) external onlyOwner {... */\n    tag_103:\n        /* \"bep-20.sol\":7477:7486  isOwner() */\n      tag_300\n        /* \"bep-20.sol\":7477:7484  isOwner */\n      tag_181\n        /* \"bep-20.sol\":7477:7486  isOwner() */\n      jump\t// in\n    tag_300:\n        /* \"bep-20.sol\":7469:7487  require(isOwner()) */\n      tag_301\n      jumpi\n      0x00\n      dup1\n      revert\n    tag_301:\n        /* \"bep-20.sol\":19536:19542  target */\n      dup2\n        /* \"bep-20.sol\":19518:19533  targetLiquidity */\n      0x12\n        /* \"bep-20.sol\":19518:19542  targetLiquidity = target */\n      dup2\n      swap1\n      sstore\n      pop\n        /* \"bep-20.sol\":19581:19589  accuracy */\n      dup1\n        /* \"bep-20.sol\":19552:19578  targetLiquidityDenominator */\n      0x13\n        /* \"bep-20.sol\":19552:19589  targetLiquidityDenominator = accuracy */\n      dup2\n      swap1\n      sstore\n      pop\n        /* \"bep-20.sol\":19427:19596  function setTargetLiquidity(uint256 target, uint256 accuracy) external onlyOwner {... */\n      pop\n      pop\n      jump\t// out\n        /* \"bep-20.sol\":13446:13890  function transferFrom(... */\n    tag_107:\n        /* \"bep-20.sol\":13585:13589  bool */\n      0x00\n        /* \"bep-20.sol\":13572:13574  to */\n      dup3\n        /* \"bep-20.sol\":8674:8677  0x0 */\n      0x00\n        /* \"bep-20.sol\":8660:8678  to != address(0x0) */\n      0xffffffffffffffffffffffffffffffffffffffff\n      and\n        /* \"bep-20.sol\":8660:8662  to */\n      dup2\n        /* \"bep-20.sol\":8660:8678  to != address(0x0) */\n      0xffffffffffffffffffffffffffffffffffffffff\n      and\n      eq\n      iszero\n        /* \"bep-20.sol\":8652:8679  require(to != address(0x0)) */\n      tag_304\n      jumpi\n      0x00\n      dup1\n      revert\n    tag_304:\n        /* \"bep-20.sol\":13652:13654  -1 */\n      0xffffffffffffffffffffffffffffffffffffffffffffffffffffffffffffffff\n        /* \"bep-20.sol\":13605:13622  _allowedFragments */\n      0x1b\n        /* \"bep-20.sol\":13605:13628  _allowedFragments[from] */\n      0x00\n        /* \"bep-20.sol\":13623:13627  from */\n      dup8\n        /* \"bep-20.sol\":13605:13628  _allowedFragments[from] */\n      0xffffffffffffffffffffffffffffffffffffffff\n      and\n      0xffffffffffffffffffffffffffffffffffffffff\n      and\n      dup2\n      mstore\n      0x20\n      add\n      swap1\n      dup2\n      mstore\n      0x20\n      add\n      0x00\n      keccak256\n        /* \"bep-20.sol\":13605:13640  _allowedFragments[from][msg.sender] */\n      0x00\n        /* \"bep-20.sol\":13629:13639  msg.sender */\n      caller\n        /* \"bep-20.sol\":13605:13640  _allowedFragments[from][msg.sender] */\n      0xffffffffffffffffffffffffffffffffffffffff\n      and\n      0xffffffffffffffffffffffffffffffffffffffff\n      and\n      dup2\n      mstore\n      0x20\n      add\n      swap1\n      dup2\n      mstore\n      0x20\n      add\n      0x00\n      keccak256\n      sload\n        /* \"bep-20.sol\":13605:13655  _allowedFragments[from][msg.sender] != uint256(-1) */\n      eq\n        /* \"bep-20.sol\":13601:13822  if (_allowedFragments[from][msg.sender] != uint256(-1)) {... */\n      tag_306\n      jumpi\n        /* \"bep-20.sol\":13709:13811  _allowedFragments[from][... */\n      tag_307\n        /* \"bep-20.sol\":13779:13784  value */\n      dup4\n        /* \"bep-20.sol\":13709:13811  _allowedFragments[from][... */\n      mload(0x40)\n      dup1\n      0x40\n      add\n      0x40\n      mstore\n      dup1\n      0x16\n      dup2\n      mstore\n      0x20\n      add\n      0x496e73756666696369656e7420416c6c6f77616e636500000000000000000000\n      dup2\n      mstore\n      pop\n        /* \"bep-20.sol\":13709:13726  _allowedFragments */\n      0x1b\n        /* \"bep-20.sol\":13709:13732  _allowedFragments[from] */\n      0x00\n        /* \"bep-20.sol\":13727:13731  from */\n      dup10\n        /* \"bep-20.sol\":13709:13732  _allowedFragments[from] */\n      0xffffffffffffffffffffffffffffffffffffffff\n      and\n      0xffffffffffffffffffffffffffffffffffffffff\n      and\n      dup2\n      mstore\n      0x20\n      add\n      swap1\n      dup2\n      mstore\n      0x20\n      add\n      0x00\n      keccak256\n        /* \"bep-20.sol\":13709:13774  _allowedFragments[from][... */\n      0x00\n        /* \"bep-20.sol\":13750:13760  msg.sender */\n      caller\n        /* \"bep-20.sol\":13709:13774  _allowedFragments[from][... */\n      0xffffffffffffffffffffffffffffffffffffffff\n      and\n      0xffffffffffffffffffffffffffffffffffffffff\n      and\n      dup2\n      mstore\n      0x20\n      add\n      swap1\n      dup2\n      mstore\n      0x20\n      add\n      0x00\n      keccak256\n      sload\n        /* \"bep-20.sol\":13709:13778  _allowedFragments[from][... */\n      tag_308\n      swap1\n        /* \"bep-20.sol\":13709:13811  _allowedFragments[from][... */\n      swap3\n      swap2\n      swap1\n      0xffffffff\n      and\n      jump\t// in\n    tag_307:\n        /* \"bep-20.sol\":13671:13688  _allowedFragments */\n      0x1b\n        /* \"bep-20.sol\":13671:13694  _allowedFragments[from] */\n      0x00\n        /* \"bep-20.sol\":13689:13693  from */\n      dup8\n        /* \"bep-20.sol\":13671:13694  _allowedFragments[from] */\n      0xffffffffffffffffffffffffffffffffffffffff\n      and\n      0xffffffffffffffffffffffffffffffffffffffff\n      and\n      dup2\n      mstore\n      0x20\n      add\n      swap1\n      dup2\n      mstore\n      0x20\n      add\n      0x00\n      keccak256\n        /* \"bep-20.sol\":13671:13706  _allowedFragments[from][msg.sender] */\n      0x00\n        /* \"bep-20.sol\":13695:13705  msg.sender */\n      caller\n        /* \"bep-20.sol\":13671:13706  _allowedFragments[from][msg.sender] */\n      0xffffffffffffffffffffffffffffffffffffffff\n      and\n      0xffffffffffffffffffffffffffffffffffffffff\n      and\n      dup2\n      mstore\n      0x20\n      add\n      swap1\n      dup2\n      mstore\n      0x20\n      add\n      0x00\n      keccak256\n        /* \"bep-20.sol\":13671:13811  _allowedFragments[from][msg.sender] = _allowedFragments[from][... */\n      dup2\n      swap1\n      sstore\n      pop\n        /* \"bep-20.sol\":13601:13822  if (_allowedFragments[from][msg.sender] != uint256(-1)) {... */\n    tag_306:\n        /* \"bep-20.sol\":13832:13862  _transferFrom(from, to, value) */\n      tag_309\n        /* \"bep-20.sol\":13846:13850  from */\n      dup6\n        /* \"bep-20.sol\":13852:13854  to */\n      dup6\n        /* \"bep-20.sol\":13856:13861  value */\n      dup6\n        /* \"bep-20.sol\":13832:13845  _transferFrom */\n      tag_310\n        /* \"bep-20.sol\":13832:13862  _transferFrom(from, to, value) */\n      jump\t// in\n    tag_309:\n      pop\n        /* \"bep-20.sol\":13879:13883  true */\n      0x01\n        /* \"bep-20.sol\":13872:13883  return true */\n      swap2\n      pop\n        /* \"bep-20.sol\":13446:13890  function transferFrom(... */\n      pop\n      swap4\n      swap3\n      pop\n      pop\n      pop\n      jump\t// out\n        /* \"bep-20.sol\":19211:19421  function getCirculatingSupply() public view returns (uint256) {... */\n    tag_110:\n        /* \"bep-20.sol\":19264:19271  uint256 */\n      0x00\n        /* \"bep-20.sol\":19302:19414  (TOTAL_GONS.sub(_gonBalances[DEAD]).sub(_gonBalances[ZERO])).div(... */\n      tag_312\n        /* \"bep-20.sol\":19384:19400  _gonsPerFragment */\n      sload(0x19)\n        /* \"bep-20.sol\":19303:19361  TOTAL_GONS.sub(_gonBalances[DEAD]).sub(_gonBalances[ZERO]) */\n      tag_313\n        /* \"bep-20.sol\":19342:19354  _gonBalances */\n      0x1a\n        /* \"bep-20.sol\":19342:19360  _gonBalances[ZERO] */\n      0x00\n        /* \"bep-20.sol\":19355:19359  ZERO */\n      0x0e\n      0x00\n      swap1\n      sload\n      swap1\n      0x0100\n      exp\n      swap1\n      div\n      0xffffffffffffffffffffffffffffffffffffffff\n      and\n        /* \"bep-20.sol\":19342:19360  _gonBalances[ZERO] */\n      0xffffffffffffffffffffffffffffffffffffffff\n      and\n      0xffffffffffffffffffffffffffffffffffffffff\n      and\n      dup2\n      mstore\n      0x20\n      add\n      swap1\n      dup2\n      mstore\n      0x20\n      add\n      0x00\n      keccak256\n      sload\n        /* \"bep-20.sol\":19303:19337  TOTAL_GONS.sub(_gonBalances[DEAD]) */\n      tag_314\n        /* \"bep-20.sol\":19318:19330  _gonBalances */\n      0x1a\n        /* \"bep-20.sol\":19318:19336  _gonBalances[DEAD] */\n      0x00\n        /* \"bep-20.sol\":19331:19335  DEAD */\n      0x0d\n      0x00\n      swap1\n      sload\n      swap1\n      0x0100\n      exp\n      swap1\n      div\n      0xffffffffffffffffffffffffffffffffffffffff\n      and\n        /* \"bep-20.sol\":19318:19336  _gonBalances[DEAD] */\n      0xffffffffffffffffffffffffffffffffffffffff\n      and\n      0xffffffffffffffffffffffffffffffffffffffff\n      and\n      dup2\n      mstore\n      0x20\n      add\n      swap1\n      dup2\n      mstore\n      0x20\n      add\n      0x00\n      keccak256\n      sload\n        /* \"bep-20.sol\":8739:8741  18 */\n      0x12\n        /* \"bep-20.sol\":8868:8870  10 */\n      0x0a\n        /* \"bep-20.sol\":8868:8880  10**DECIMALS */\n      exp\n        /* \"bep-20.sol\":8856:8865  4 * 10**9 */\n      0xee6b2800\n        /* \"bep-20.sol\":8856:8880  4 * 10**9 * 10**DECIMALS */\n      mul\n        /* \"bep-20.sol\":8795:8796  0 */\n      0x00\n        /* \"bep-20.sol\":8786:8797  ~uint256(0) */\n      not\n        /* \"bep-20.sol\":9811:9849  MAX_UINT256 % INITIAL_FRAGMENTS_SUPPLY */\n      dup2\n      tag_315\n      jumpi\n      invalid\n    tag_315:\n      mod\n        /* \"bep-20.sol\":8795:8796  0 */\n      0x00\n        /* \"bep-20.sol\":8786:8797  ~uint256(0) */\n      not\n        /* \"bep-20.sol\":9796:9850  MAX_UINT256 - (MAX_UINT256 % INITIAL_FRAGMENTS_SUPPLY) */\n      sub\n        /* \"bep-20.sol\":19303:19317  TOTAL_GONS.sub */\n      tag_316\n      swap1\n        /* \"bep-20.sol\":19303:19337  TOTAL_GONS.sub(_gonBalances[DEAD]) */\n      swap2\n      swap1\n      0xffffffff\n      and\n      jump\t// in\n    tag_314:\n        /* \"bep-20.sol\":19303:19341  TOTAL_GONS.sub(_gonBalances[DEAD]).sub */\n      tag_316\n      swap1\n        /* \"bep-20.sol\":19303:19361  TOTAL_GONS.sub(_gonBalances[DEAD]).sub(_gonBalances[ZERO]) */\n      swap2\n      swap1\n      0xffffffff\n      and\n      jump\t// in\n    tag_313:\n        /* \"bep-20.sol\":19302:19366  (TOTAL_GONS.sub(_gonBalances[DEAD]).sub(_gonBalances[ZERO])).div */\n      tag_276\n      swap1\n        /* \"bep-20.sol\":19302:19414  (TOTAL_GONS.sub(_gonBalances[DEAD]).sub(_gonBalances[ZERO])).div(... */\n      swap2\n      swap1\n      0xffffffff\n      and\n      jump\t// in\n    tag_312:\n        /* \"bep-20.sol\":19283:19414  return... */\n      swap1\n      pop\n        /* \"bep-20.sol\":19211:19421  function getCirculatingSupply() public view returns (uint256) {... */\n      swap1\n      jump\t// out\n        /* \"bep-20.sol\":8995:9021  uint256 public sellFee = 5 */\n    tag_113:\n      sload(0x0a)\n      dup2\n      jump\t// out\n        /* \"bep-20.sol\":17872:17984  function setInitialDistributionFinished() external onlyOwner {... */\n    tag_116:\n        /* \"bep-20.sol\":7477:7486  isOwner() */\n      tag_318\n        /* \"bep-20.sol\":7477:7484  isOwner */\n      tag_181\n        /* \"bep-20.sol\":7477:7486  isOwner() */\n      jump\t// in\n    tag_318:\n        /* \"bep-20.sol\":7469:7487  require(isOwner()) */\n      tag_319\n      jumpi\n      0x00\n      dup1\n      revert\n    tag_319:\n        /* \"bep-20.sol\":17973:17977  true */\n      0x01\n        /* \"bep-20.sol\":17943:17970  initialDistributionFinished */\n      0x04\n      0x14\n        /* \"bep-20.sol\":17943:17977  initialDistributionFinished = true */\n      0x0100\n      exp\n      dup2\n      sload\n      dup2\n      0xff\n      mul\n      not\n      and\n      swap1\n      dup4\n      iszero\n      iszero\n      mul\n      or\n      swap1\n      sstore\n      pop\n        /* \"bep-20.sol\":17872:17984  function setInitialDistributionFinished() external onlyOwner {... */\n      jump\t// out\n        /* \"bep-20.sol\":11722:11859  function setLP(address _address) external onlyOwner {... */\n    tag_120:\n        /* \"bep-20.sol\":7477:7486  isOwner() */\n      tag_322\n        /* \"bep-20.sol\":7477:7484  isOwner */\n      tag_181\n        /* \"bep-20.sol\":7477:7486  isOwner() */\n      jump\t// in\n    tag_322:\n        /* \"bep-20.sol\":7469:7487  require(isOwner()) */\n      tag_323\n      jumpi\n      0x00\n      dup1\n      revert\n    tag_323:\n        /* \"bep-20.sol\":11811:11819  _address */\n      dup1\n        /* \"bep-20.sol\":11784:11796  pairContract */\n      0x04\n      0x00\n        /* \"bep-20.sol\":11784:11820  pairContract = InterfaceLP(_address) */\n      0x0100\n      exp\n      dup2\n      sload\n      dup2\n      0xffffffffffffffffffffffffffffffffffffffff\n      mul\n      not\n      and\n      swap1\n      dup4\n      0xffffffffffffffffffffffffffffffffffffffff\n      and\n      mul\n      or\n      swap1\n      sstore\n      pop\n        /* \"bep-20.sol\":11830:11842  _isFeeExempt */\n      0x06\n        /* \"bep-20.sol\":11830:11852  _isFeeExempt[_address] */\n      0x00\n        /* \"bep-20.sol\":11843:11851  _address */\n      dup3\n        /* \"bep-20.sol\":11830:11852  _isFeeExempt[_address] */\n      0xffffffffffffffffffffffffffffffffffffffff\n      and\n      0xffffffffffffffffffffffffffffffffffffffff\n      and\n      dup2\n      mstore\n      0x20\n      add\n      swap1\n      dup2\n      mstore\n      0x20\n      add\n      0x00\n      keccak256\n      0x00\n      swap1\n      sload\n      swap1\n      0x0100\n      exp\n      swap1\n      pop\n      pop\n        /* \"bep-20.sol\":11722:11859  function setLP(address _address) external onlyOwner {... */\n      pop\n      jump\t// out\n        /* \"bep-20.sol\":19697:19792  function removeMinter(address account) public onlyOwner {... */\n    tag_124:\n        /* \"bep-20.sol\":7477:7486  isOwner() */\n      tag_326\n        /* \"bep-20.sol\":7477:7484  isOwner */\n      tag_181\n        /* \"bep-20.sol\":7477:7486  isOwner() */\n      jump\t// in\n    tag_326:\n        /* \"bep-20.sol\":7469:7487  require(isOwner()) */\n      tag_327\n      jumpi\n      0x00\n      dup1\n      revert\n    tag_327:\n        /* \"bep-20.sol\":19763:19785  _removeMinter(account) */\n      tag_329\n        /* \"bep-20.sol\":19777:19784  account */\n      dup2\n        /* \"bep-20.sol\":19763:19776  _removeMinter */\n      tag_330\n        /* \"bep-20.sol\":19763:19785  _removeMinter(account) */\n      jump\t// in\n    tag_329:\n        /* \"bep-20.sol\":19697:19792  function removeMinter(address account) public onlyOwner {... */\n      pop\n      jump\t// out\n        /* \"bep-20.sol\":5347:5428  function decimals() public view returns (uint8) {... */\n    tag_127:\n        /* \"bep-20.sol\":5388:5393  uint8 */\n      0x00\n        /* \"bep-20.sol\":5412:5421  _decimals */\n      0x02\n      0x00\n      swap1\n      sload\n      swap1\n      0x0100\n      exp\n      swap1\n      div\n      0xff\n      and\n        /* \"bep-20.sol\":5405:5421  return _decimals */\n      swap1\n      pop\n        /* \"bep-20.sol\":5347:5428  function decimals() public view returns (uint8) {... */\n      swap1\n      jump\t// out\n        /* \"bep-20.sol\":21423:21630  function rescueToken(address tokenAddress, uint256 tokens)... */\n    tag_131:\n        /* \"bep-20.sol\":21532:21544  bool success */\n      0x00\n        /* \"bep-20.sol\":7477:7486  isOwner() */\n      tag_333\n        /* \"bep-20.sol\":7477:7484  isOwner */\n      tag_181\n        /* \"bep-20.sol\":7477:7486  isOwner() */\n      jump\t// in\n    tag_333:\n        /* \"bep-20.sol\":7469:7487  require(isOwner()) */\n      tag_334\n      jumpi\n      0x00\n      dup1\n      revert\n    tag_334:\n        /* \"bep-20.sol\":21581:21593  tokenAddress */\n      dup3\n        /* \"bep-20.sol\":21567:21603  ERC20Detailed(tokenAddress).transfer */\n      0xffffffffffffffffffffffffffffffffffffffff\n      and\n      0xa9059cbb\n        /* \"bep-20.sol\":21604:21614  msg.sender */\n      caller\n        /* \"bep-20.sol\":21616:21622  tokens */\n      dup5\n        /* \"bep-20.sol\":21567:21623  ERC20Detailed(tokenAddress).transfer(msg.sender, tokens) */\n      mload(0x40)\n      dup4\n      0xffffffff\n      and\n      0xe0\n      shl\n      dup2\n      mstore\n      0x04\n      add\n      dup1\n      dup4\n      0xffffffffffffffffffffffffffffffffffffffff\n      and\n      dup2\n      mstore\n      0x20\n      add\n      dup3\n      dup2\n      mstore\n      0x20\n      add\n      swap3\n      pop\n      pop\n      pop\n      0x20\n      mload(0x40)\n      dup1\n      dup4\n      sub\n      dup2\n      0x00\n      dup8\n      dup1\n      extcodesize\n      iszero\n      dup1\n      iszero\n      tag_336\n      jumpi\n      0x00\n      dup1\n      revert\n    tag_336:\n      pop\n      gas\n      call\n      iszero\n      dup1\n      iszero\n      tag_338\n      jumpi\n      returndatasize\n      0x00\n      dup1\n      returndatacopy\n      revert(0x00, returndatasize)\n    tag_338:\n      pop\n      pop\n      pop\n      pop\n      mload(0x40)\n      returndatasize\n      0x20\n      dup2\n      lt\n      iszero\n      tag_339\n      jumpi\n      0x00\n      dup1\n      revert\n    tag_339:\n      dup2\n      add\n      swap1\n      dup1\n      dup1\n      mload\n      swap1\n      0x20\n      add\n      swap1\n      swap3\n      swap2\n      swap1\n      pop\n      pop\n      pop\n        /* \"bep-20.sol\":21560:21623  return ERC20Detailed(tokenAddress).transfer(msg.sender, tokens) */\n      swap1\n      pop\n        /* \"bep-20.sol\":21423:21630  function rescueToken(address tokenAddress, uint256 tokens)... */\n      swap3\n      swap2\n      pop\n      pop\n      jump\t// out\n        /* \"bep-20.sol\":17041:17466  function increaseAllowance(address spender, uint256 addedValue)... */\n    tag_135:\n        /* \"bep-20.sol\":17171:17175  bool */\n      0x00\n        /* \"bep-20.sol\":8471:8498  initialDistributionFinished */\n      0x04\n      0x14\n      swap1\n      sload\n      swap1\n      0x0100\n      exp\n      swap1\n      div\n      0xff\n      and\n        /* \"bep-20.sol\":8471:8527  initialDistributionFinished ||... */\n      dup1\n      tag_341\n      jumpi\n      pop\n        /* \"bep-20.sol\":8518:8527  isOwner() */\n      tag_342\n        /* \"bep-20.sol\":8518:8525  isOwner */\n      tag_181\n        /* \"bep-20.sol\":8518:8527  isOwner() */\n      jump\t// in\n    tag_342:\n        /* \"bep-20.sol\":8471:8527  initialDistributionFinished ||... */\n    tag_341:\n        /* \"bep-20.sol\":8471:8572  initialDistributionFinished ||... */\n      dup1\n      tag_343\n      jumpi\n      pop\n        /* \"bep-20.sol\":8547:8560  allowTransfer */\n      0x05\n        /* \"bep-20.sol\":8547:8572  allowTransfer[msg.sender] */\n      0x00\n        /* \"bep-20.sol\":8561:8571  msg.sender */\n      caller\n        /* \"bep-20.sol\":8547:8572  allowTransfer[msg.sender] */\n      0xffffffffffffffffffffffffffffffffffffffff\n      and\n      0xffffffffffffffffffffffffffffffffffffffff\n      and\n      dup2\n      mstore\n      0x20\n      add\n      swap1\n      dup2\n      mstore\n      0x20\n      add\n      0x00\n      keccak256\n      0x00\n      swap1\n      sload\n      swap1\n      0x0100\n      exp\n      swap1\n      div\n      0xff\n      and\n        /* \"bep-20.sol\":8471:8572  initialDistributionFinished ||... */\n    tag_343:\n        /* \"bep-20.sol\":8450:8582  require(... */\n      tag_344\n      jumpi\n      0x00\n      dup1\n      revert\n    tag_344:\n        /* \"bep-20.sol\":17232:17308  _allowedFragments[msg.sender][... */\n      tag_346\n        /* \"bep-20.sol\":17297:17307  addedValue */\n      dup3\n        /* \"bep-20.sol\":17232:17249  _allowedFragments */\n      0x1b\n        /* \"bep-20.sol\":17232:17261  _allowedFragments[msg.sender] */\n      0x00\n        /* \"bep-20.sol\":17250:17260  msg.sender */\n      caller\n        /* \"bep-20.sol\":17232:17261  _allowedFragments[msg.sender] */\n      0xffffffffffffffffffffffffffffffffffffffff\n      and\n      0xffffffffffffffffffffffffffffffffffffffff\n      and\n      dup2\n      mstore\n      0x20\n      add\n      swap1\n      dup2\n      mstore\n      0x20\n      add\n      0x00\n      keccak256\n        /* \"bep-20.sol\":17232:17292  _allowedFragments[msg.sender][... */\n      0x00\n        /* \"bep-20.sol\":17275:17282  spender */\n      dup7\n        /* \"bep-20.sol\":17232:17292  _allowedFragments[msg.sender][... */\n      0xffffffffffffffffffffffffffffffffffffffff\n      and\n      0xffffffffffffffffffffffffffffffffffffffff\n      and\n      dup2\n      mstore\n      0x20\n      add\n      swap1\n      dup2\n      mstore\n      0x20\n      add\n      0x00\n      keccak256\n      sload\n        /* \"bep-20.sol\":17232:17296  _allowedFragments[msg.sender][... */\n      tag_275\n      swap1\n        /* \"bep-20.sol\":17232:17308  _allowedFragments[msg.sender][... */\n      swap2\n      swap1\n      0xffffffff\n      and\n      jump\t// in\n    tag_346:\n        /* \"bep-20.sol\":17191:17208  _allowedFragments */\n      0x1b\n        /* \"bep-20.sol\":17191:17220  _allowedFragments[msg.sender] */\n      0x00\n        /* \"bep-20.sol\":17209:17219  msg.sender */\n      caller\n        /* \"bep-20.sol\":17191:17220  _allowedFragments[msg.sender] */\n      0xffffffffffffffffffffffffffffffffffffffff\n      and\n      0xffffffffffffffffffffffffffffffffffffffff\n      and\n      dup2\n      mstore\n      0x20\n      add\n      swap1\n      dup2\n      mstore\n      0x20\n      add\n      0x00\n      keccak256\n        /* \"bep-20.sol\":17191:17229  _allowedFragments[msg.sender][spender] */\n      0x00\n        /* \"bep-20.sol\":17221:17228  spender */\n      dup6\n        /* \"bep-20.sol\":17191:17229  _allowedFragments[msg.sender][spender] */\n      0xffffffffffffffffffffffffffffffffffffffff\n      and\n      0xffffffffffffffffffffffffffffffffffffffff\n      and\n      dup2\n      mstore\n      0x20\n      add\n      swap1\n      dup2\n      mstore\n      0x20\n      add\n      0x00\n      keccak256\n        /* \"bep-20.sol\":17191:17308  _allowedFragments[msg.sender][spender] = _allowedFragments[msg.sender][... */\n      dup2\n      swap1\n      sstore\n      pop\n        /* \"bep-20.sol\":17369:17376  spender */\n      dup3\n        /* \"bep-20.sol\":17323:17438  Approval(... */\n      0xffffffffffffffffffffffffffffffffffffffff\n      and\n        /* \"bep-20.sol\":17345:17355  msg.sender */\n      caller\n        /* \"bep-20.sol\":17323:17438  Approval(... */\n      0xffffffffffffffffffffffffffffffffffffffff\n      and\n      0x8c5be1e5ebec7d5bd14f71427d1e84f3dd0314c0f7b2291e5b200ac8c7c3b925\n        /* \"bep-20.sol\":17390:17407  _allowedFragments */\n      0x1b\n        /* \"bep-20.sol\":17390:17419  _allowedFragments[msg.sender] */\n      0x00\n        /* \"bep-20.sol\":17408:17418  msg.sender */\n      caller\n        /* \"bep-20.sol\":17390:17419  _allowedFragments[msg.sender] */\n      0xffffffffffffffffffffffffffffffffffffffff\n      and\n      0xffffffffffffffffffffffffffffffffffffffff\n      and\n      dup2\n      mstore\n      0x20\n      add\n      swap1\n      dup2\n      mstore\n      0x20\n      add\n      0x00\n      keccak256\n        /* \"bep-20.sol\":17390:17428  _allowedFragments[msg.sender][spender] */\n      0x00\n        /* \"bep-20.sol\":17420:17427  spender */\n      dup8\n        /* \"bep-20.sol\":17390:17428  _allowedFragments[msg.sender][spender] */\n      0xffffffffffffffffffffffffffffffffffffffff\n      and\n      0xffffffffffffffffffffffffffffffffffffffff\n      and\n      dup2\n      mstore\n      0x20\n      add\n      swap1\n      dup2\n      mstore\n      0x20\n      add\n      0x00\n      keccak256\n      sload\n        /* \"bep-20.sol\":17323:17438  Approval(... */\n      mload(0x40)\n      dup1\n      dup3\n      dup2\n      mstore\n      0x20\n      add\n      swap2\n      pop\n      pop\n      mload(0x40)\n      dup1\n      swap2\n      sub\n      swap1\n      log3\n        /* \"bep-20.sol\":17455:17459  true */\n      0x01\n        /* \"bep-20.sol\":17448:17459  return true */\n      swap1\n      pop\n        /* \"bep-20.sol\":17041:17466  function increaseAllowance(address spender, uint256 addedValue)... */\n      swap3\n      swap2\n      pop\n      pop\n      jump\t// out\n        /* \"bep-20.sol\":18364:18748  function mint(address recipient, uint256 amount) external onlyMinter {... */\n    tag_139:\n        /* \"bep-20.sol\":4299:4319  isMinter(msg.sender) */\n      tag_348\n        /* \"bep-20.sol\":4308:4318  msg.sender */\n      caller\n        /* \"bep-20.sol\":4299:4307  isMinter */\n      tag_217\n        /* \"bep-20.sol\":4299:4319  isMinter(msg.sender) */\n      jump\t// in\n    tag_348:\n        /* \"bep-20.sol\":4291:4372  require(isMinter(msg.sender), \"MinterRole: caller does not have the Minter role\") */\n      tag_349\n      jumpi\n      mload(0x40)\n      0x08c379a000000000000000000000000000000000000000000000000000000000\n      dup2\n      mstore\n      0x04\n      add\n      dup1\n      dup1\n      0x20\n      add\n      dup3\n      dup2\n      sub\n      dup3\n      mstore\n      0x30\n      dup2\n      mstore\n      0x20\n      add\n      dup1\n      data_79ecb50133735b20228dea9d08fe36a462bbc1350f591a146908848db91104cd\n      0x30\n      swap2\n      codecopy\n      0x40\n      add\n      swap2\n      pop\n      pop\n      mload(0x40)\n      dup1\n      swap2\n      sub\n      swap1\n      revert\n    tag_349:\n        /* \"bep-20.sol\":18458:18491  _totalSupply.add(uint256(amount)) */\n      tag_351\n        /* \"bep-20.sol\":18483:18489  amount */\n      dup2\n        /* \"bep-20.sol\":18458:18470  _totalSupply */\n      sload(0x18)\n        /* \"bep-20.sol\":18458:18474  _totalSupply.add */\n      tag_275\n      swap1\n        /* \"bep-20.sol\":18458:18491  _totalSupply.add(uint256(amount)) */\n      swap2\n      swap1\n      0xffffffff\n      and\n      jump\t// in\n    tag_351:\n        /* \"bep-20.sol\":18443:18455  _totalSupply */\n      0x18\n        /* \"bep-20.sol\":18443:18491  _totalSupply = _totalSupply.add(uint256(amount)) */\n      dup2\n      swap1\n      sstore\n      pop\n        /* \"bep-20.sol\":9904:9905  0 */\n      0x00\n        /* \"bep-20.sol\":9895:9906  ~uint128(0) */\n      not\n        /* \"bep-20.sol\":18521:18531  MAX_SUPPLY */\n      0xffffffffffffffffffffffffffffffff\n      and\n        /* \"bep-20.sol\":18506:18518  _totalSupply */\n      sload(0x18)\n        /* \"bep-20.sol\":18506:18531  _totalSupply > MAX_SUPPLY */\n      gt\n        /* \"bep-20.sol\":18502:18583  if (_totalSupply > MAX_SUPPLY) {... */\n      iszero\n      tag_352\n      jumpi\n        /* \"bep-20.sol\":9904:9905  0 */\n      0x00\n        /* \"bep-20.sol\":9895:9906  ~uint128(0) */\n      not\n        /* \"bep-20.sol\":18562:18572  MAX_SUPPLY */\n      0xffffffffffffffffffffffffffffffff\n      and\n        /* \"bep-20.sol\":18547:18559  _totalSupply */\n      0x18\n        /* \"bep-20.sol\":18547:18572  _totalSupply = MAX_SUPPLY */\n      dup2\n      swap1\n      sstore\n      pop\n        /* \"bep-20.sol\":18502:18583  if (_totalSupply > MAX_SUPPLY) {... */\n    tag_352:\n        /* \"bep-20.sol\":18612:18640  TOTAL_GONS.div(_totalSupply) */\n      tag_353\n        /* \"bep-20.sol\":18627:18639  _totalSupply */\n      sload(0x18)\n        /* \"bep-20.sol\":8739:8741  18 */\n      0x12\n        /* \"bep-20.sol\":8868:8870  10 */\n      0x0a\n        /* \"bep-20.sol\":8868:8880  10**DECIMALS */\n      exp\n        /* \"bep-20.sol\":8856:8865  4 * 10**9 */\n      0xee6b2800\n        /* \"bep-20.sol\":8856:8880  4 * 10**9 * 10**DECIMALS */\n      mul\n        /* \"bep-20.sol\":8795:8796  0 */\n      0x00\n        /* \"bep-20.sol\":8786:8797  ~uint256(0) */\n      not\n        /* \"bep-20.sol\":9811:9849  MAX_UINT256 % INITIAL_FRAGMENTS_SUPPLY */\n      dup2\n      tag_354\n      jumpi\n      invalid\n    tag_354:\n      mod\n        /* \"bep-20.sol\":8795:8796  0 */\n      0x00\n        /* \"bep-20.sol\":8786:8797  ~uint256(0) */\n      not\n        /* \"bep-20.sol\":9796:9850  MAX_UINT256 - (MAX_UINT256 % INITIAL_FRAGMENTS_SUPPLY) */\n      sub\n        /* \"bep-20.sol\":18612:18626  TOTAL_GONS.div */\n      tag_276\n      swap1\n        /* \"bep-20.sol\":18612:18640  TOTAL_GONS.div(_totalSupply) */\n      swap2\n      swap1\n      0xffffffff\n      and\n      jump\t// in\n    tag_353:\n        /* \"bep-20.sol\":18593:18609  _gonsPerFragment */\n      0x19\n        /* \"bep-20.sol\":18593:18640  _gonsPerFragment = TOTAL_GONS.div(_totalSupply) */\n      dup2\n      swap1\n      sstore\n      pop\n        /* \"bep-20.sol\":18650:18662  pairContract */\n      0x04\n      0x00\n      swap1\n      sload\n      swap1\n      0x0100\n      exp\n      swap1\n      div\n      0xffffffffffffffffffffffffffffffffffffffff\n      and\n        /* \"bep-20.sol\":18650:18667  pairContract.sync */\n      0xffffffffffffffffffffffffffffffffffffffff\n      and\n      0xfff6cae9\n        /* \"bep-20.sol\":18650:18669  pairContract.sync() */\n      mload(0x40)\n      dup2\n      0xffffffff\n      and\n      0xe0\n      shl\n      dup2\n      mstore\n      0x04\n      add\n      0x00\n      mload(0x40)\n      dup1\n      dup4\n      sub\n      dup2\n      0x00\n      dup8\n      dup1\n      extcodesize\n      iszero\n      dup1\n      iszero\n      tag_355\n      jumpi\n      0x00\n      dup1\n      revert\n    tag_355:\n      pop\n      gas\n      call\n      iszero\n      dup1\n      iszero\n      tag_357\n      jumpi\n      returndatasize\n      0x00\n      dup1\n      returndatacopy\n      revert(0x00, returndatasize)\n    tag_357:\n      pop\n      pop\n      pop\n      pop\n        /* \"bep-20.sol\":18706:18741  _gonBalances[recipient].add(amount) */\n      tag_358\n        /* \"bep-20.sol\":18734:18740  amount */\n      dup2\n        /* \"bep-20.sol\":18706:18718  _gonBalances */\n      0x1a\n        /* \"bep-20.sol\":18706:18729  _gonBalances[recipient] */\n      0x00\n        /* \"bep-20.sol\":18719:18728  recipient */\n      dup6\n        /* \"bep-20.sol\":18706:18729  _gonBalances[recipient] */\n      0xffffffffffffffffffffffffffffffffffffffff\n      and\n      0xffffffffffffffffffffffffffffffffffffffff\n      and\n      dup2\n      mstore\n      0x20\n      add\n      swap1\n      dup2\n      mstore\n      0x20\n      add\n      0x00\n      keccak256\n      sload\n        /* \"bep-20.sol\":18706:18733  _gonBalances[recipient].add */\n      tag_275\n      swap1\n        /* \"bep-20.sol\":18706:18741  _gonBalances[recipient].add(amount) */\n      swap2\n      swap1\n      0xffffffff\n      and\n      jump\t// in\n    tag_358:\n        /* \"bep-20.sol\":18680:18692  _gonBalances */\n      0x1a\n        /* \"bep-20.sol\":18680:18703  _gonBalances[recipient] */\n      0x00\n        /* \"bep-20.sol\":18693:18702  recipient */\n      dup5\n        /* \"bep-20.sol\":18680:18703  _gonBalances[recipient] */\n      0xffffffffffffffffffffffffffffffffffffffff\n      and\n      0xffffffffffffffffffffffffffffffffffffffff\n      and\n      dup2\n      mstore\n      0x20\n      add\n      swap1\n      dup2\n      mstore\n      0x20\n      add\n      0x00\n      keccak256\n        /* \"bep-20.sol\":18680:18741  _gonBalances[recipient] = _gonBalances[recipient].add(amount) */\n      dup2\n      swap1\n      sstore\n      pop\n        /* \"bep-20.sol\":18364:18748  function mint(address recipient, uint256 amount) external onlyMinter {... */\n      pop\n      pop\n      jump\t// out\n        /* \"bep-20.sol\":8233:8264  InterfaceLP public pairContract */\n    tag_142:\n      0x04\n      0x00\n      swap1\n      sload\n      swap1\n      0x0100\n      exp\n      swap1\n      div\n      0xffffffffffffffffffffffffffffffffffffffff\n      and\n      dup2\n      jump\t// out\n        /* \"bep-20.sol\":8924:8951  uint256 public Treasury = 3 */\n    tag_145:\n      sload(0x08)\n      dup2\n      jump\t// out\n        /* \"bep-20.sol\":21183:21417  function clearStuckBalance(uint256 amountPercentage, address adr) external onlyOwner {... */\n    tag_149:\n        /* \"bep-20.sol\":7477:7486  isOwner() */\n      tag_360\n        /* \"bep-20.sol\":7477:7484  isOwner */\n      tag_181\n        /* \"bep-20.sol\":7477:7486  isOwner() */\n      jump\t// in\n    tag_360:\n        /* \"bep-20.sol\":7469:7487  require(isOwner()) */\n      tag_361\n      jumpi\n      0x00\n      dup1\n      revert\n    tag_361:\n        /* \"bep-20.sol\":21278:21295  uint256 amountETH */\n      0x00\n        /* \"bep-20.sol\":21298:21319  address(this).balance */\n      selfbalance\n        /* \"bep-20.sol\":21278:21319  uint256 amountETH = address(this).balance */\n      swap1\n      pop\n        /* \"bep-20.sol\":21337:21340  adr */\n      dup2\n        /* \"bep-20.sol\":21329:21350  payable(adr).transfer */\n      0xffffffffffffffffffffffffffffffffffffffff\n      and\n        /* \"bep-20.sol\":21329:21410  payable(adr).transfer(... */\n      0x08fc\n        /* \"bep-20.sol\":21397:21400  100 */\n      0x64\n        /* \"bep-20.sol\":21377:21393  amountPercentage */\n      dup6\n        /* \"bep-20.sol\":21365:21374  amountETH */\n      dup5\n        /* \"bep-20.sol\":21365:21393  amountETH * amountPercentage */\n      mul\n        /* \"bep-20.sol\":21364:21400  (amountETH * amountPercentage) / 100 */\n      dup2\n      tag_363\n      jumpi\n      invalid\n    tag_363:\n      div\n        /* \"bep-20.sol\":21329:21410  payable(adr).transfer(... */\n      swap1\n      dup2\n      iszero\n      mul\n      swap1\n      mload(0x40)\n      0x00\n      mload(0x40)\n      dup1\n      dup4\n      sub\n      dup2\n      dup6\n      dup9\n      dup9\n      call\n      swap4\n      pop\n      pop\n      pop\n      pop\n      iszero\n      dup1\n      iszero\n      tag_365\n      jumpi\n      returndatasize\n      0x00\n      dup1\n      returndatacopy\n      revert(0x00, returndatasize)\n    tag_365:\n      pop\n        /* \"bep-20.sol\":7497:7498  _ */\n      pop\n        /* \"bep-20.sol\":21183:21417  function clearStuckBalance(uint256 amountPercentage, address adr) external onlyOwner {... */\n      pop\n      pop\n      jump\t// out\n        /* \"bep-20.sol\":20143:20267  function checkSwapThreshold() external view returns (uint256) {... */\n    tag_152:\n        /* \"bep-20.sol\":20196:20203  uint256 */\n      0x00\n        /* \"bep-20.sol\":20222:20260  gonSwapThreshold.div(_gonsPerFragment) */\n      tag_367\n        /* \"bep-20.sol\":20243:20259  _gonsPerFragment */\n      sload(0x19)\n        /* \"bep-20.sol\":20222:20238  gonSwapThreshold */\n      sload(0x16)\n        /* \"bep-20.sol\":20222:20242  gonSwapThreshold.div */\n      tag_276\n      swap1\n        /* \"bep-20.sol\":20222:20260  gonSwapThreshold.div(_gonsPerFragment) */\n      swap2\n      swap1\n      0xffffffff\n      and\n      jump\t// in\n    tag_367:\n        /* \"bep-20.sol\":20215:20260  return gonSwapThreshold.div(_gonsPerFragment) */\n      swap1\n      pop\n        /* \"bep-20.sol\":20143:20267  function checkSwapThreshold() external view returns (uint256) {... */\n      swap1\n      jump\t// out\n        /* \"bep-20.sol\":9540:9570  bool public swapEnabled = true */\n    tag_155:\n      0x15\n      0x14\n      swap1\n      sload\n      swap1\n      0x0100\n      exp\n      swap1\n      div\n      0xff\n      and\n      dup2\n      jump\t// out\n        /* \"bep-20.sol\":12058:12194  function balanceOf(address who) external view override returns (uint256) {... */\n    tag_159:\n        /* \"bep-20.sol\":12122:12129  uint256 */\n      0x00\n        /* \"bep-20.sol\":12148:12187  _gonBalances[who].div(_gonsPerFragment) */\n      tag_369\n        /* \"bep-20.sol\":12170:12186  _gonsPerFragment */\n      sload(0x19)\n        /* \"bep-20.sol\":12148:12160  _gonBalances */\n      0x1a\n        /* \"bep-20.sol\":12148:12165  _gonBalances[who] */\n      0x00\n        /* \"bep-20.sol\":12161:12164  who */\n      dup6\n        /* \"bep-20.sol\":12148:12165  _gonBalances[who] */\n      0xffffffffffffffffffffffffffffffffffffffff\n      and\n      0xffffffffffffffffffffffffffffffffffffffff\n      and\n      dup2\n      mstore\n      0x20\n      add\n      swap1\n      dup2\n      mstore\n      0x20\n      add\n      0x00\n      keccak256\n      sload\n        /* \"bep-20.sol\":12148:12169  _gonBalances[who].div */\n      tag_276\n      swap1\n        /* \"bep-20.sol\":12148:12187  _gonBalances[who].div(_gonsPerFragment) */\n      swap2\n      swap1\n      0xffffffff\n      and\n      jump\t// in\n    tag_369:\n        /* \"bep-20.sol\":12141:12187  return _gonBalances[who].div(_gonsPerFragment) */\n      swap1\n      pop\n        /* \"bep-20.sol\":12058:12194  function balanceOf(address who) external view override returns (uint256) {... */\n      swap2\n      swap1\n      pop\n      jump\t// out\n        /* \"bep-20.sol\":7607:7730  function renounceOwnership() public onlyOwner {... */\n    tag_162:\n        /* \"bep-20.sol\":7477:7486  isOwner() */\n      tag_371\n        /* \"bep-20.sol\":7477:7484  isOwner */\n      tag_181\n        /* \"bep-20.sol\":7477:7486  isOwner() */\n      jump\t// in\n    tag_371:\n        /* \"bep-20.sol\":7469:7487  require(isOwner()) */\n      tag_372\n      jumpi\n      0x00\n      dup1\n      revert\n    tag_372:\n        /* \"bep-20.sol\":7687:7693  _owner */\n      0x02\n      0x01\n      swap1\n      sload\n      swap1\n      0x0100\n      exp\n      swap1\n      div\n      0xffffffffffffffffffffffffffffffffffffffff\n      and\n        /* \"bep-20.sol\":7668:7694  OwnershipRenounced(_owner) */\n      0xffffffffffffffffffffffffffffffffffffffff\n      and\n      0xf8df31144d9c2f0f6b59d69b8b98abd5459d07f2742c4df920b25aae33c64820\n      mload(0x40)\n      mload(0x40)\n      dup1\n      swap2\n      sub\n      swap1\n      log2\n        /* \"bep-20.sol\":7721:7722  0 */\n      0x00\n        /* \"bep-20.sol\":7704:7710  _owner */\n      0x02\n      0x01\n        /* \"bep-20.sol\":7704:7723  _owner = address(0) */\n      0x0100\n      exp\n      dup2\n      sload\n      dup2\n      0xffffffffffffffffffffffffffffffffffffffff\n      mul\n      not\n      and\n      swap1\n      dup4\n      0xffffffffffffffffffffffffffffffffffffffff\n      and\n      mul\n      or\n      swap1\n      sstore\n      pop\n        /* \"bep-20.sol\":7607:7730  function renounceOwnership() public onlyOwner {... */\n      jump\t// out\n        /* \"bep-20.sol\":18098:18197  function setFeeExempt(address _addr) external onlyOwner {... */\n    tag_166:\n        /* \"bep-20.sol\":7477:7486  isOwner() */\n      tag_375\n        /* \"bep-20.sol\":7477:7484  isOwner */\n      tag_181\n        /* \"bep-20.sol\":7477:7486  isOwner() */\n      jump\t// in\n    tag_375:\n        /* \"bep-20.sol\":7469:7487  require(isOwner()) */\n      tag_376\n      jumpi\n      0x00\n      dup1\n      revert\n    tag_376:\n        /* \"bep-20.sol\":18186:18190  true */\n      0x01\n        /* \"bep-20.sol\":18164:18176  _isFeeExempt */\n      0x06\n        /* \"bep-20.sol\":18164:18183  _isFeeExempt[_addr] */\n      0x00\n        /* \"bep-20.sol\":18177:18182  _addr */\n      dup4\n        /* \"bep-20.sol\":18164:18183  _isFeeExempt[_addr] */\n      0xffffffffffffffffffffffffffffffffffffffff\n      and\n      0xffffffffffffffffffffffffffffffffffffffff\n      and\n      dup2\n      mstore\n      0x20\n      add\n      swap1\n      dup2\n      mstore\n      0x20\n      add\n      0x00\n      keccak256\n      0x00\n        /* \"bep-20.sol\":18164:18190  _isFeeExempt[_addr] = true */\n      0x0100\n      exp\n      dup2\n      sload\n      dup2\n      0xff\n      mul\n      not\n      and\n      swap1\n      dup4\n      iszero\n      iszero\n      mul\n      or\n      swap1\n      sstore\n      pop\n        /* \"bep-20.sol\":18098:18197  function setFeeExempt(address _addr) external onlyOwner {... */\n      pop\n      jump\t// out\n        /* \"bep-20.sol\":20273:20345  function manualSync() external {... */\n    tag_169:\n        /* \"bep-20.sol\":20326:20330  pair */\n      0x15\n      0x00\n      swap1\n      sload\n      swap1\n      0x0100\n      exp\n      swap1\n      div\n      0xffffffffffffffffffffffffffffffffffffffff\n      and\n        /* \"bep-20.sol\":20314:20336  InterfaceLP(pair).sync */\n      0xffffffffffffffffffffffffffffffffffffffff\n      and\n      0xfff6cae9\n        /* \"bep-20.sol\":20314:20338  InterfaceLP(pair).sync() */\n      mload(0x40)\n      dup2\n      0xffffffff\n      and\n      0xe0\n      shl\n      dup2\n      mstore\n      0x04\n      add\n      0x00\n      mload(0x40)\n      dup1\n      dup4\n      sub\n      dup2\n      0x00\n      dup8\n      dup1\n      extcodesize\n      iszero\n      dup1\n      iszero\n      tag_379\n      jumpi\n      0x00\n      dup1\n      revert\n    tag_379:\n      pop\n      gas\n      call\n      iszero\n      dup1\n      iszero\n      tag_381\n      jumpi\n      returndatasize\n      0x00\n      dup1\n      returndatacopy\n      revert(0x00, returndatasize)\n    tag_381:\n      pop\n      pop\n      pop\n      pop\n        /* \"bep-20.sol\":20273:20345  function manualSync() external {... */\n      jump\t// out\n        /* \"bep-20.sol\":9323:9354  address public TreasuryReceiver */\n    tag_172:\n      0x10\n      0x00\n      swap1\n      sload\n      swap1\n      0x0100\n      exp\n      swap1\n      div\n      0xffffffffffffffffffffffffffffffffffffffff\n      and\n      dup2\n      jump\t// out\n        /* \"bep-20.sol\":19798:19881  function isNotInSwap() external view returns (bool) {... */\n    tag_175:\n        /* \"bep-20.sol\":19844:19848  bool */\n      0x00\n        /* \"bep-20.sol\":19868:19874  inSwap */\n      0x17\n      0x00\n      swap1\n      sload\n      swap1\n      0x0100\n      exp\n      swap1\n      div\n      0xff\n      and\n        /* \"bep-20.sol\":19867:19874  !inSwap */\n      iszero\n        /* \"bep-20.sol\":19860:19874  return !inSwap */\n      swap1\n      pop\n        /* \"bep-20.sol\":19798:19881  function isNotInSwap() external view returns (bool) {... */\n      swap1\n      jump\t// out\n        /* \"bep-20.sol\":7355:7432  function owner() public view returns (address) {... */\n    tag_178:\n        /* \"bep-20.sol\":7393:7400  address */\n      0x00\n        /* \"bep-20.sol\":7419:7425  _owner */\n      0x02\n      0x01\n      swap1\n      sload\n      swap1\n      0x0100\n      exp\n      swap1\n      div\n      0xffffffffffffffffffffffffffffffffffffffff\n      and\n        /* \"bep-20.sol\":7412:7425  return _owner */\n      swap1\n      pop\n        /* \"bep-20.sol\":7355:7432  function owner() public view returns (address) {... */\n      swap1\n      jump\t// out\n        /* \"bep-20.sol\":7511:7601  function isOwner() public view returns (bool) {... */\n    tag_181:\n        /* \"bep-20.sol\":7551:7555  bool */\n      0x00\n        /* \"bep-20.sol\":7588:7594  _owner */\n      0x02\n      0x01\n      swap1\n      sload\n      swap1\n      0x0100\n      exp\n      swap1\n      div\n      0xffffffffffffffffffffffffffffffffffffffff\n      and\n        /* \"bep-20.sol\":7574:7594  msg.sender == _owner */\n      0xffffffffffffffffffffffffffffffffffffffff\n      and\n        /* \"bep-20.sol\":7574:7584  msg.sender */\n      caller\n        /* \"bep-20.sol\":7574:7594  msg.sender == _owner */\n      0xffffffffffffffffffffffffffffffffffffffff\n      and\n      eq\n        /* \"bep-20.sol\":7567:7594  return msg.sender == _owner */\n      swap1\n      pop\n        /* \"bep-20.sol\":7511:7601  function isOwner() public view returns (bool) {... */\n      swap1\n      jump\t// out\n        /* \"bep-20.sol\":11251:11360  function updateBlacklist(address _user, bool _flag) public onlyOwner{... */\n    tag_185:\n        /* \"bep-20.sol\":7477:7486  isOwner() */\n      tag_386\n        /* \"bep-20.sol\":7477:7484  isOwner */\n      tag_181\n        /* \"bep-20.sol\":7477:7486  isOwner() */\n      jump\t// in\n    tag_386:\n        /* \"bep-20.sol\":7469:7487  require(isOwner()) */\n      tag_387\n      jumpi\n      0x00\n      dup1\n      revert\n    tag_387:\n        /* \"bep-20.sol\":11348:11353  _flag */\n      dup1\n        /* \"bep-20.sol\":11329:11338  blacklist */\n      0x1c\n        /* \"bep-20.sol\":11329:11345  blacklist[_user] */\n      0x00\n        /* \"bep-20.sol\":11339:11344  _user */\n      dup5\n        /* \"bep-20.sol\":11329:11345  blacklist[_user] */\n      0xffffffffffffffffffffffffffffffffffffffff\n      and\n      0xffffffffffffffffffffffffffffffffffffffff\n      and\n      dup2\n      mstore\n      0x20\n      add\n      swap1\n      dup2\n      mstore\n      0x20\n      add\n      0x00\n      keccak256\n      0x00\n        /* \"bep-20.sol\":11329:11353  blacklist[_user] = _flag */\n      0x0100\n      exp\n      dup2\n      sload\n      dup2\n      0xff\n      mul\n      not\n      and\n      swap1\n      dup4\n      iszero\n      iszero\n      mul\n      or\n      swap1\n      sstore\n      pop\n        /* \"bep-20.sol\":11251:11360  function updateBlacklist(address _user, bool _flag) public onlyOwner{... */\n      pop\n      pop\n      jump\t// out\n        /* \"bep-20.sol\":5256:5341  function symbol() public view returns (string memory) {... */\n    tag_188:\n        /* \"bep-20.sol\":5295:5308  string memory */\n      0x60\n        /* \"bep-20.sol\":5327:5334  _symbol */\n      0x01\n        /* \"bep-20.sol\":5320:5334  return _symbol */\n      dup1\n      sload\n      0x01\n      dup2\n      0x01\n      and\n      iszero\n      0x0100\n      mul\n      sub\n      and\n      0x02\n      swap1\n      div\n      dup1\n      0x1f\n      add\n      0x20\n      dup1\n      swap2\n      div\n      mul\n      0x20\n      add\n      mload(0x40)\n      swap1\n      dup2\n      add\n      0x40\n      mstore\n      dup1\n      swap3\n      swap2\n      swap1\n      dup2\n      dup2\n      mstore\n      0x20\n      add\n      dup3\n      dup1\n      sload\n      0x01\n      dup2\n      0x01\n      and\n      iszero\n      0x0100\n      mul\n      sub\n      and\n      0x02\n      swap1\n      div\n      dup1\n      iszero\n      tag_390\n      jumpi\n      dup1\n      0x1f\n      lt\n      tag_391\n      jumpi\n      0x0100\n      dup1\n      dup4\n      sload\n      div\n      mul\n      dup4\n      mstore\n      swap2\n      0x20\n      add\n      swap2\n      jump(tag_390)\n    tag_391:\n      dup3\n      add\n      swap2\n      swap1\n      0x00\n      mstore\n      keccak256(0x00, 0x20)\n      swap1\n    tag_392:\n      dup2\n      sload\n      dup2\n      mstore\n      swap1\n      0x01\n      add\n      swap1\n      0x20\n      add\n      dup1\n      dup4\n      gt\n      tag_392\n      jumpi\n      dup3\n      swap1\n      sub\n      0x1f\n      and\n      dup3\n      add\n      swap2\n    tag_390:\n      pop\n      pop\n      pop\n      pop\n      pop\n      swap1\n      pop\n        /* \"bep-20.sol\":5256:5341  function symbol() public view returns (string memory) {... */\n      swap1\n      jump\t// out\n        /* \"bep-20.sol\":8887:8918  uint256 public liquidityFee = 5 */\n    tag_195:\n      sload(0x07)\n      dup2\n      jump\t// out\n        /* \"bep-20.sol\":19602:19691  function addMinter(address account) public onlyOwner {... */\n    tag_199:\n        /* \"bep-20.sol\":7477:7486  isOwner() */\n      tag_394\n        /* \"bep-20.sol\":7477:7484  isOwner */\n      tag_181\n        /* \"bep-20.sol\":7477:7486  isOwner() */\n      jump\t// in\n    tag_394:\n        /* \"bep-20.sol\":7469:7487  require(isOwner()) */\n      tag_395\n      jumpi\n      0x00\n      dup1\n      revert\n    tag_395:\n        /* \"bep-20.sol\":19665:19684  _addMinter(account) */\n      tag_397\n        /* \"bep-20.sol\":19676:19683  account */\n      dup2\n        /* \"bep-20.sol\":19665:19675  _addMinter */\n      tag_398\n        /* \"bep-20.sol\":19665:19684  _addMinter(account) */\n      jump\t// in\n    tag_397:\n        /* \"bep-20.sol\":19602:19691  function addMinter(address account) public onlyOwner {... */\n      pop\n      jump\t// out\n        /* \"bep-20.sol\":4509:4584  function renounceMinter() public {... */\n    tag_202:\n        /* \"bep-20.sol\":4552:4577  _removeMinter(msg.sender) */\n      tag_400\n        /* \"bep-20.sol\":4566:4576  msg.sender */\n      caller\n        /* \"bep-20.sol\":4552:4565  _removeMinter */\n      tag_330\n        /* \"bep-20.sol\":4552:4577  _removeMinter(msg.sender) */\n      jump\t// in\n    tag_400:\n        /* \"bep-20.sol\":4509:4584  function renounceMinter() public {... */\n      jump\t// out\n        /* \"bep-20.sol\":16425:17035  function decreaseAllowance(address spender, uint256 subtractedValue)... */\n    tag_206:\n        /* \"bep-20.sol\":16560:16564  bool */\n      0x00\n        /* \"bep-20.sol\":8471:8498  initialDistributionFinished */\n      0x04\n      0x14\n      swap1\n      sload\n      swap1\n      0x0100\n      exp\n      swap1\n      div\n      0xff\n      and\n        /* \"bep-20.sol\":8471:8527  initialDistributionFinished ||... */\n      dup1\n      tag_402\n      jumpi\n      pop\n        /* \"bep-20.sol\":8518:8527  isOwner() */\n      tag_403\n        /* \"bep-20.sol\":8518:8525  isOwner */\n      tag_181\n        /* \"bep-20.sol\":8518:8527  isOwner() */\n      jump\t// in\n    tag_403:\n        /* \"bep-20.sol\":8471:8527  initialDistributionFinished ||... */\n    tag_402:\n        /* \"bep-20.sol\":8471:8572  initialDistributionFinished ||... */\n      dup1\n      tag_404\n      jumpi\n      pop\n        /* \"bep-20.sol\":8547:8560  allowTransfer */\n      0x05\n        /* \"bep-20.sol\":8547:8572  allowTransfer[msg.sender] */\n      0x00\n        /* \"bep-20.sol\":8561:8571  msg.sender */\n      caller\n        /* \"bep-20.sol\":8547:8572  allowTransfer[msg.sender] */\n      0xffffffffffffffffffffffffffffffffffffffff\n      and\n      0xffffffffffffffffffffffffffffffffffffffff\n      and\n      dup2\n      mstore\n      0x20\n      add\n      swap1\n      dup2\n      mstore\n      0x20\n      add\n      0x00\n      keccak256\n      0x00\n      swap1\n      sload\n      swap1\n      0x0100\n      exp\n      swap1\n      div\n      0xff\n      and\n        /* \"bep-20.sol\":8471:8572  initialDistributionFinished ||... */\n    tag_404:\n        /* \"bep-20.sol\":8450:8582  require(... */\n      tag_405\n      jumpi\n      0x00\n      dup1\n      revert\n    tag_405:\n        /* \"bep-20.sol\":16580:16596  uint256 oldValue */\n      0x00\n        /* \"bep-20.sol\":16599:16616  _allowedFragments */\n      0x1b\n        /* \"bep-20.sol\":16599:16628  _allowedFragments[msg.sender] */\n      0x00\n        /* \"bep-20.sol\":16617:16627  msg.sender */\n      caller\n        /* \"bep-20.sol\":16599:16628  _allowedFragments[msg.sender] */\n      0xffffffffffffffffffffffffffffffffffffffff\n      and\n      0xffffffffffffffffffffffffffffffffffffffff\n      and\n      dup2\n      mstore\n      0x20\n      add\n      swap1\n      dup2\n      mstore\n      0x20\n      add\n      0x00\n      keccak256\n        /* \"bep-20.sol\":16599:16637  _allowedFragments[msg.sender][spender] */\n      0x00\n        /* \"bep-20.sol\":16629:16636  spender */\n      dup6\n        /* \"bep-20.sol\":16599:16637  _allowedFragments[msg.sender][spender] */\n      0xffffffffffffffffffffffffffffffffffffffff\n      and\n      0xffffffffffffffffffffffffffffffffffffffff\n      and\n      dup2\n      mstore\n      0x20\n      add\n      swap1\n      dup2\n      mstore\n      0x20\n      add\n      0x00\n      keccak256\n      sload\n        /* \"bep-20.sol\":16580:16637  uint256 oldValue = _allowedFragments[msg.sender][spender] */\n      swap1\n      pop\n        /* \"bep-20.sol\":16670:16678  oldValue */\n      dup1\n        /* \"bep-20.sol\":16651:16666  subtractedValue */\n      dup4\n        /* \"bep-20.sol\":16651:16678  subtractedValue >= oldValue */\n      lt\n        /* \"bep-20.sol\":16647:16878  if (subtractedValue >= oldValue) {... */\n      tag_407\n      jumpi\n        /* \"bep-20.sol\":16735:16736  0 */\n      0x00\n        /* \"bep-20.sol\":16694:16711  _allowedFragments */\n      0x1b\n        /* \"bep-20.sol\":16694:16723  _allowedFragments[msg.sender] */\n      0x00\n        /* \"bep-20.sol\":16712:16722  msg.sender */\n      caller\n        /* \"bep-20.sol\":16694:16723  _allowedFragments[msg.sender] */\n      0xffffffffffffffffffffffffffffffffffffffff\n      and\n      0xffffffffffffffffffffffffffffffffffffffff\n      and\n      dup2\n      mstore\n      0x20\n      add\n      swap1\n      dup2\n      mstore\n      0x20\n      add\n      0x00\n      keccak256\n        /* \"bep-20.sol\":16694:16732  _allowedFragments[msg.sender][spender] */\n      0x00\n        /* \"bep-20.sol\":16724:16731  spender */\n      dup7\n        /* \"bep-20.sol\":16694:16732  _allowedFragments[msg.sender][spender] */\n      0xffffffffffffffffffffffffffffffffffffffff\n      and\n      0xffffffffffffffffffffffffffffffffffffffff\n      and\n      dup2\n      mstore\n      0x20\n      add\n      swap1\n      dup2\n      mstore\n      0x20\n      add\n      0x00\n      keccak256\n        /* \"bep-20.sol\":16694:16736  _allowedFragments[msg.sender][spender] = 0 */\n      dup2\n      swap1\n      sstore\n      pop\n        /* \"bep-20.sol\":16647:16878  if (subtractedValue >= oldValue) {... */\n      jump(tag_408)\n    tag_407:\n        /* \"bep-20.sol\":16808:16867  oldValue.sub(... */\n      tag_409\n        /* \"bep-20.sol\":16838:16853  subtractedValue */\n      dup4\n        /* \"bep-20.sol\":16808:16816  oldValue */\n      dup3\n        /* \"bep-20.sol\":16808:16820  oldValue.sub */\n      tag_316\n      swap1\n        /* \"bep-20.sol\":16808:16867  oldValue.sub(... */\n      swap2\n      swap1\n      0xffffffff\n      and\n      jump\t// in\n    tag_409:\n        /* \"bep-20.sol\":16767:16784  _allowedFragments */\n      0x1b\n        /* \"bep-20.sol\":16767:16796  _allowedFragments[msg.sender] */\n      0x00\n        /* \"bep-20.sol\":16785:16795  msg.sender */\n      caller\n        /* \"bep-20.sol\":16767:16796  _allowedFragments[msg.sender] */\n      0xffffffffffffffffffffffffffffffffffffffff\n      and\n      0xffffffffffffffffffffffffffffffffffffffff\n      and\n      dup2\n      mstore\n      0x20\n      add\n      swap1\n      dup2\n      mstore\n      0x20\n      add\n      0x00\n      keccak256\n        /* \"bep-20.sol\":16767:16805  _allowedFragments[msg.sender][spender] */\n      0x00\n        /* \"bep-20.sol\":16797:16804  spender */\n      dup7\n        /* \"bep-20.sol\":16767:16805  _allowedFragments[msg.sender][spender] */\n      0xffffffffffffffffffffffffffffffffffffffff\n      and\n      0xffffffffffffffffffffffffffffffffffffffff\n      and\n      dup2\n      mstore\n      0x20\n      add\n      swap1\n      dup2\n      mstore\n      0x20\n      add\n      0x00\n      keccak256\n        /* \"bep-20.sol\":16767:16867  _allowedFragments[msg.sender][spender] = oldValue.sub(... */\n      dup2\n      swap1\n      sstore\n      pop\n        /* \"bep-20.sol\":16647:16878  if (subtractedValue >= oldValue) {... */\n    tag_408:\n        /* \"bep-20.sol\":16938:16945  spender */\n      dup4\n        /* \"bep-20.sol\":16892:17007  Approval(... */\n      0xffffffffffffffffffffffffffffffffffffffff\n      and\n        /* \"bep-20.sol\":16914:16924  msg.sender */\n      caller\n        /* \"bep-20.sol\":16892:17007  Approval(... */\n      0xffffffffffffffffffffffffffffffffffffffff\n      and\n      0x8c5be1e5ebec7d5bd14f71427d1e84f3dd0314c0f7b2291e5b200ac8c7c3b925\n        /* \"bep-20.sol\":16959:16976  _allowedFragments */\n      0x1b\n        /* \"bep-20.sol\":16959:16988  _allowedFragments[msg.sender] */\n      0x00\n        /* \"bep-20.sol\":16977:16987  msg.sender */\n      caller\n        /* \"bep-20.sol\":16959:16988  _allowedFragments[msg.sender] */\n      0xffffffffffffffffffffffffffffffffffffffff\n      and\n      0xffffffffffffffffffffffffffffffffffffffff\n      and\n      dup2\n      mstore\n      0x20\n      add\n      swap1\n      dup2\n      mstore\n      0x20\n      add\n      0x00\n      keccak256\n        /* \"bep-20.sol\":16959:16997  _allowedFragments[msg.sender][spender] */\n      0x00\n        /* \"bep-20.sol\":16989:16996  spender */\n      dup9\n        /* \"bep-20.sol\":16959:16997  _allowedFragments[msg.sender][spender] */\n      0xffffffffffffffffffffffffffffffffffffffff\n      and\n      0xffffffffffffffffffffffffffffffffffffffff\n      and\n      dup2\n      mstore\n      0x20\n      add\n      swap1\n      dup2\n      mstore\n      0x20\n      add\n      0x00\n      keccak256\n      sload\n        /* \"bep-20.sol\":16892:17007  Approval(... */\n      mload(0x40)\n      dup1\n      dup3\n      dup2\n      mstore\n      0x20\n      add\n      swap2\n      pop\n      pop\n      mload(0x40)\n      dup1\n      swap2\n      sub\n      swap1\n      log3\n        /* \"bep-20.sol\":17024:17028  true */\n      0x01\n        /* \"bep-20.sol\":17017:17028  return true */\n      swap2\n      pop\n      pop\n        /* \"bep-20.sol\":16425:17035  function decreaseAllowance(address spender, uint256 subtractedValue)... */\n      swap3\n      swap2\n      pop\n      pop\n      jump\t// out\n        /* \"bep-20.sol\":9514:9533  address public pair */\n    tag_209:\n      0x15\n      0x00\n      swap1\n      sload\n      swap1\n      0x0100\n      exp\n      swap1\n      div\n      0xffffffffffffffffffffffffffffffffffffffff\n      and\n      dup2\n      jump\t// out\n        /* \"bep-20.sol\":11477:11716  function transfer(address to, uint256 value)... */\n    tag_213:\n        /* \"bep-20.sol\":11632:11636  bool */\n      0x00\n        /* \"bep-20.sol\":11579:11581  to */\n      dup3\n        /* \"bep-20.sol\":8674:8677  0x0 */\n      0x00\n        /* \"bep-20.sol\":8660:8678  to != address(0x0) */\n      0xffffffffffffffffffffffffffffffffffffffff\n      and\n        /* \"bep-20.sol\":8660:8662  to */\n      dup2\n        /* \"bep-20.sol\":8660:8678  to != address(0x0) */\n      0xffffffffffffffffffffffffffffffffffffffff\n      and\n      eq\n      iszero\n        /* \"bep-20.sol\":8652:8679  require(to != address(0x0)) */\n      tag_411\n      jumpi\n      0x00\n      dup1\n      revert\n    tag_411:\n        /* \"bep-20.sol\":8471:8498  initialDistributionFinished */\n      0x04\n      0x14\n      swap1\n      sload\n      swap1\n      0x0100\n      exp\n      swap1\n      div\n      0xff\n      and\n        /* \"bep-20.sol\":8471:8527  initialDistributionFinished ||... */\n      dup1\n      tag_413\n      jumpi\n      pop\n        /* \"bep-20.sol\":8518:8527  isOwner() */\n      tag_414\n        /* \"bep-20.sol\":8518:8525  isOwner */\n      tag_181\n        /* \"bep-20.sol\":8518:8527  isOwner() */\n      jump\t// in\n    tag_414:\n        /* \"bep-20.sol\":8471:8527  initialDistributionFinished ||... */\n    tag_413:\n        /* \"bep-20.sol\":8471:8572  initialDistributionFinished ||... */\n      dup1\n      tag_415\n      jumpi\n      pop\n        /* \"bep-20.sol\":8547:8560  allowTransfer */\n      0x05\n        /* \"bep-20.sol\":8547:8572  allowTransfer[msg.sender] */\n      0x00\n        /* \"bep-20.sol\":8561:8571  msg.sender */\n      caller\n        /* \"bep-20.sol\":8547:8572  allowTransfer[msg.sender] */\n      0xffffffffffffffffffffffffffffffffffffffff\n      and\n      0xffffffffffffffffffffffffffffffffffffffff\n      and\n      dup2\n      mstore\n      0x20\n      add\n      swap1\n      dup2\n      mstore\n      0x20\n      add\n      0x00\n      keccak256\n      0x00\n      swap1\n      sload\n      swap1\n      0x0100\n      exp\n      swap1\n      div\n      0xff\n      and\n        /* \"bep-20.sol\":8471:8572  initialDistributionFinished ||... */\n    tag_415:\n        /* \"bep-20.sol\":8450:8582  require(... */\n      tag_416\n      jumpi\n      0x00\n      dup1\n      revert\n    tag_416:\n        /* \"bep-20.sol\":11652:11688  _transferFrom(msg.sender, to, value) */\n      tag_418\n        /* \"bep-20.sol\":11666:11676  msg.sender */\n      caller\n        /* \"bep-20.sol\":11678:11680  to */\n      dup6\n        /* \"bep-20.sol\":11682:11687  value */\n      dup6\n        /* \"bep-20.sol\":11652:11665  _transferFrom */\n      tag_310\n        /* \"bep-20.sol\":11652:11688  _transferFrom(msg.sender, to, value) */\n      jump\t// in\n    tag_418:\n      pop\n        /* \"bep-20.sol\":11705:11709  true */\n      0x01\n        /* \"bep-20.sol\":11698:11709  return true */\n      swap2\n      pop\n        /* \"bep-20.sol\":11477:11716  function transfer(address to, uint256 value)... */\n      pop\n      swap3\n      swap2\n      pop\n      pop\n      jump\t// out\n        /* \"bep-20.sol\":4396:4503  function isMinter(address account) public view returns (bool) {... */\n    tag_217:\n        /* \"bep-20.sol\":4452:4456  bool */\n      0x00\n        /* \"bep-20.sol\":4475:4496  _minters.has(account) */\n      tag_420\n        /* \"bep-20.sol\":4488:4495  account */\n      dup3\n        /* \"bep-20.sol\":4475:4483  _minters */\n      0x03\n        /* \"bep-20.sol\":4475:4487  _minters.has */\n      tag_421\n      swap1\n        /* \"bep-20.sol\":4475:4496  _minters.has(account) */\n      swap2\n      swap1\n      0xffffffff\n      and\n      jump\t// in\n    tag_420:\n        /* \"bep-20.sol\":4468:4496  return _minters.has(account) */\n      swap1\n      pop\n        /* \"bep-20.sol\":4396:4503  function isMinter(address account) public view returns (bool) {... */\n      swap2\n      swap1\n      pop\n      jump\t// out\n        /* \"bep-20.sol\":8957:8989  uint256 public RiskFreeValue = 5 */\n    tag_220:\n      sload(0x09)\n      dup2\n      jump\t// out\n        /* \"bep-20.sol\":9281:9317  address public autoLiquidityReceiver */\n    tag_223:\n      0x0f\n      0x00\n      swap1\n      sload\n      swap1\n      0x0100\n      exp\n      swap1\n      div\n      0xffffffffffffffffffffffffffffffffffffffff\n      and\n      dup2\n      jump\t// out\n        /* \"bep-20.sol\":18754:18977  function setSwapBackSettings(... */\n    tag_227:\n        /* \"bep-20.sol\":7477:7486  isOwner() */\n      tag_423\n        /* \"bep-20.sol\":7477:7484  isOwner */\n      tag_181\n        /* \"bep-20.sol\":7477:7486  isOwner() */\n      jump\t// in\n    tag_423:\n        /* \"bep-20.sol\":7469:7487  require(isOwner()) */\n      tag_424\n      jumpi\n      0x00\n      dup1\n      revert\n    tag_424:\n        /* \"bep-20.sol\":18901:18909  _enabled */\n      dup3\n        /* \"bep-20.sol\":18887:18898  swapEnabled */\n      0x15\n      0x14\n        /* \"bep-20.sol\":18887:18909  swapEnabled = _enabled */\n      0x0100\n      exp\n      dup2\n      sload\n      dup2\n      0xff\n      mul\n      not\n      and\n      swap1\n      dup4\n      iszero\n      iszero\n      mul\n      or\n      swap1\n      sstore\n      pop\n        /* \"bep-20.sol\":18938:18970  TOTAL_GONS.div(_denom).mul(_num) */\n      tag_426\n        /* \"bep-20.sol\":18965:18969  _num */\n      dup3\n        /* \"bep-20.sol\":18938:18960  TOTAL_GONS.div(_denom) */\n      tag_427\n        /* \"bep-20.sol\":18953:18959  _denom */\n      dup4\n        /* \"bep-20.sol\":8739:8741  18 */\n      0x12\n        /* \"bep-20.sol\":8868:8870  10 */\n      0x0a\n        /* \"bep-20.sol\":8868:8880  10**DECIMALS */\n      exp\n        /* \"bep-20.sol\":8856:8865  4 * 10**9 */\n      0xee6b2800\n        /* \"bep-20.sol\":8856:8880  4 * 10**9 * 10**DECIMALS */\n      mul\n        /* \"bep-20.sol\":8795:8796  0 */\n      0x00\n        /* \"bep-20.sol\":8786:8797  ~uint256(0) */\n      not\n        /* \"bep-20.sol\":9811:9849  MAX_UINT256 % INITIAL_FRAGMENTS_SUPPLY */\n      dup2\n      tag_428\n      jumpi\n      invalid\n    tag_428:\n      mod\n        /* \"bep-20.sol\":8795:8796  0 */\n      0x00\n        /* \"bep-20.sol\":8786:8797  ~uint256(0) */\n      not\n        /* \"bep-20.sol\":9796:9850  MAX_UINT256 - (MAX_UINT256 % INITIAL_FRAGMENTS_SUPPLY) */\n      sub\n        /* \"bep-20.sol\":18938:18952  TOTAL_GONS.div */\n      tag_276\n      swap1\n        /* \"bep-20.sol\":18938:18960  TOTAL_GONS.div(_denom) */\n      swap2\n      swap1\n      0xffffffff\n      and\n      jump\t// in\n    tag_427:\n        /* \"bep-20.sol\":18938:18964  TOTAL_GONS.div(_denom).mul */\n      tag_429\n      swap1\n        /* \"bep-20.sol\":18938:18970  TOTAL_GONS.div(_denom).mul(_num) */\n      swap2\n      swap1\n      0xffffffff\n      and\n      jump\t// in\n    tag_426:\n        /* \"bep-20.sol\":18919:18935  gonSwapThreshold */\n      0x16\n        /* \"bep-20.sol\":18919:18970  gonSwapThreshold = TOTAL_GONS.div(_denom).mul(_num) */\n      dup2\n      swap1\n      sstore\n      pop\n        /* \"bep-20.sol\":18754:18977  function setSwapBackSettings(... */\n      pop\n      pop\n      pop\n      jump\t// out\n        /* \"bep-20.sol\":8271:8310  bool public initialDistributionFinished */\n    tag_230:\n      0x04\n      0x14\n      swap1\n      sload\n      swap1\n      0x0100\n      exp\n      swap1\n      div\n      0xff\n      and\n      dup2\n      jump\t// out\n        /* \"bep-20.sol\":19887:20137  function sendPresale(address[] calldata recipients, uint256[] calldata values)... */\n    tag_240:\n        /* \"bep-20.sol\":7477:7486  isOwner() */\n      tag_431\n        /* \"bep-20.sol\":7477:7484  isOwner */\n      tag_181\n        /* \"bep-20.sol\":7477:7486  isOwner() */\n      jump\t// in\n    tag_431:\n        /* \"bep-20.sol\":7469:7487  require(isOwner()) */\n      tag_432\n      jumpi\n      0x00\n      dup1\n      revert\n    tag_432:\n        /* \"bep-20.sol\":20018:20027  uint256 i */\n      0x00\n        /* \"bep-20.sol\":20013:20131  for (uint256 i = 0; i < recipients.length; i++) {... */\n    tag_434:\n        /* \"bep-20.sol\":20037:20047  recipients */\n      dup5\n      dup5\n        /* \"bep-20.sol\":20037:20054  recipients.length */\n      swap1\n      pop\n        /* \"bep-20.sol\":20033:20034  i */\n      dup2\n        /* \"bep-20.sol\":20033:20054  i < recipients.length */\n      lt\n        /* \"bep-20.sol\":20013:20131  for (uint256 i = 0; i < recipients.length; i++) {... */\n      iszero\n      tag_435\n      jumpi\n        /* \"bep-20.sol\":20071:20122  _transferFrom(msg.sender, recipients[i], values[i]) */\n      tag_437\n        /* \"bep-20.sol\":20085:20095  msg.sender */\n      caller\n        /* \"bep-20.sol\":20097:20107  recipients */\n      dup7\n      dup7\n        /* \"bep-20.sol\":20108:20109  i */\n      dup5\n        /* \"bep-20.sol\":20097:20110  recipients[i] */\n      dup2\n      dup2\n      lt\n      tag_438\n      jumpi\n      invalid\n    tag_438:\n      swap1\n      pop\n      0x20\n      mul\n      add\n      calldataload\n      0xffffffffffffffffffffffffffffffffffffffff\n      and\n        /* \"bep-20.sol\":20112:20118  values */\n      dup6\n      dup6\n        /* \"bep-20.sol\":20119:20120  i */\n      dup6\n        /* \"bep-20.sol\":20112:20121  values[i] */\n      dup2\n      dup2\n      lt\n      tag_439\n      jumpi\n      invalid\n    tag_439:\n      swap1\n      pop\n      0x20\n      mul\n      add\n      calldataload\n        /* \"bep-20.sol\":20071:20084  _transferFrom */\n      tag_310\n        /* \"bep-20.sol\":20071:20122  _transferFrom(msg.sender, recipients[i], values[i]) */\n      jump\t// in\n    tag_437:\n      pop\n        /* \"bep-20.sol\":20056:20059  i++ */\n      dup1\n      dup1\n      0x01\n      add\n      swap2\n      pop\n      pop\n        /* \"bep-20.sol\":20013:20131  for (uint256 i = 0; i < recipients.length; i++) {... */\n      jump(tag_434)\n    tag_435:\n      pop\n        /* \"bep-20.sol\":19887:20137  function sendPresale(address[] calldata recipients, uint256[] calldata values)... */\n      pop\n      pop\n      pop\n      pop\n      jump\t// out\n        /* \"bep-20.sol\":17755:17866  function checkFeeExempt(address _addr) external view returns (bool) {... */\n    tag_244:\n        /* \"bep-20.sol\":17817:17821  bool */\n      0x00\n        /* \"bep-20.sol\":17840:17852  _isFeeExempt */\n      0x06\n        /* \"bep-20.sol\":17840:17859  _isFeeExempt[_addr] */\n      0x00\n        /* \"bep-20.sol\":17853:17858  _addr */\n      dup4\n        /* \"bep-20.sol\":17840:17859  _isFeeExempt[_addr] */\n      0xffffffffffffffffffffffffffffffffffffffff\n      and\n      0xffffffffffffffffffffffffffffffffffffffff\n      and\n      dup2\n      mstore\n      0x20\n      add\n      swap1\n      dup2\n      mstore\n      0x20\n      add\n      0x00\n      keccak256\n      0x00\n      swap1\n      sload\n      swap1\n      0x0100\n      exp\n      swap1\n      div\n      0xff\n      and\n        /* \"bep-20.sol\":17833:17859  return _isFeeExempt[_addr] */\n      swap1\n      pop\n        /* \"bep-20.sol\":17755:17866  function checkFeeExempt(address _addr) external view returns (bool) {... */\n      swap2\n      swap1\n      pop\n      jump\t// out\n        /* \"bep-20.sol\":21778:22061  function getLiquidityBacking(uint256 accuracy)... */\n    tag_248:\n        /* \"bep-20.sol\":21870:21877  uint256 */\n      0x00\n        /* \"bep-20.sol\":21893:21917  uint256 liquidityBalance */\n      dup1\n        /* \"bep-20.sol\":21920:21960  _gonBalances[pair].div(_gonsPerFragment) */\n      tag_442\n        /* \"bep-20.sol\":21943:21959  _gonsPerFragment */\n      sload(0x19)\n        /* \"bep-20.sol\":21920:21932  _gonBalances */\n      0x1a\n        /* \"bep-20.sol\":21920:21938  _gonBalances[pair] */\n      0x00\n        /* \"bep-20.sol\":21933:21937  pair */\n      0x15\n      0x00\n      swap1\n      sload\n      swap1\n      0x0100\n      exp\n      swap1\n      div\n      0xffffffffffffffffffffffffffffffffffffffff\n      and\n        /* \"bep-20.sol\":21920:21938  _gonBalances[pair] */\n      0xffffffffffffffffffffffffffffffffffffffff\n      and\n      0xffffffffffffffffffffffffffffffffffffffff\n      and\n      dup2\n      mstore\n      0x20\n      add\n      swap1\n      dup2\n      mstore\n      0x20\n      add\n      0x00\n      keccak256\n      sload\n        /* \"bep-20.sol\":21920:21942  _gonBalances[pair].div */\n      tag_276\n      swap1\n        /* \"bep-20.sol\":21920:21960  _gonBalances[pair].div(_gonsPerFragment) */\n      swap2\n      swap1\n      0xffffffff\n      and\n      jump\t// in\n    tag_442:\n        /* \"bep-20.sol\":21893:21960  uint256 liquidityBalance = _gonBalances[pair].div(_gonsPerFragment) */\n      swap1\n      pop\n        /* \"bep-20.sol\":21989:22054  accuracy.mul(liquidityBalance.mul(2)).div(getCirculatingSupply()) */\n      tag_443\n        /* \"bep-20.sol\":22031:22053  getCirculatingSupply() */\n      tag_444\n        /* \"bep-20.sol\":22031:22051  getCirculatingSupply */\n      tag_110\n        /* \"bep-20.sol\":22031:22053  getCirculatingSupply() */\n      jump\t// in\n    tag_444:\n        /* \"bep-20.sol\":21989:22026  accuracy.mul(liquidityBalance.mul(2)) */\n      tag_445\n        /* \"bep-20.sol\":22002:22025  liquidityBalance.mul(2) */\n      tag_446\n        /* \"bep-20.sol\":22023:22024  2 */\n      0x02\n        /* \"bep-20.sol\":22002:22018  liquidityBalance */\n      dup6\n        /* \"bep-20.sol\":22002:22022  liquidityBalance.mul */\n      tag_429\n      swap1\n        /* \"bep-20.sol\":22002:22025  liquidityBalance.mul(2) */\n      swap2\n      swap1\n      0xffffffff\n      and\n      jump\t// in\n    tag_446:\n        /* \"bep-20.sol\":21989:21997  accuracy */\n      dup7\n        /* \"bep-20.sol\":21989:22001  accuracy.mul */\n      tag_429\n      swap1\n        /* \"bep-20.sol\":21989:22026  accuracy.mul(liquidityBalance.mul(2)) */\n      swap2\n      swap1\n      0xffffffff\n      and\n      jump\t// in\n    tag_445:\n        /* \"bep-20.sol\":21989:22030  accuracy.mul(liquidityBalance.mul(2)).div */\n      tag_276\n      swap1\n        /* \"bep-20.sol\":21989:22054  accuracy.mul(liquidityBalance.mul(2)).div(getCirculatingSupply()) */\n      swap2\n      swap1\n      0xffffffff\n      and\n      jump\t// in\n    tag_443:\n        /* \"bep-20.sol\":21970:22054  return... */\n      swap2\n      pop\n      pop\n        /* \"bep-20.sol\":21778:22061  function getLiquidityBacking(uint256 accuracy)... */\n      swap2\n      swap1\n      pop\n      jump\t// out\n        /* \"bep-20.sol\":17990:18092  function enableTransfer(address _addr) external onlyOwner {... */\n    tag_252:\n        /* \"bep-20.sol\":7477:7486  isOwner() */\n      tag_448\n        /* \"bep-20.sol\":7477:7484  isOwner */\n      tag_181\n        /* \"bep-20.sol\":7477:7486  isOwner() */\n      jump\t// in\n    tag_448:\n        /* \"bep-20.sol\":7469:7487  require(isOwner()) */\n      tag_449\n      jumpi\n      0x00\n      dup1\n      revert\n    tag_449:\n        /* \"bep-20.sol\":18081:18085  true */\n      0x01\n        /* \"bep-20.sol\":18058:18071  allowTransfer */\n      0x05\n        /* \"bep-20.sol\":18058:18078  allowTransfer[_addr] */\n      0x00\n        /* \"bep-20.sol\":18072:18077  _addr */\n      dup4\n        /* \"bep-20.sol\":18058:18078  allowTransfer[_addr] */\n      0xffffffffffffffffffffffffffffffffffffffff\n      and\n      0xffffffffffffffffffffffffffffffffffffffff\n      and\n      dup2\n      mstore\n      0x20\n      add\n      swap1\n      dup2\n      mstore\n      0x20\n      add\n      0x00\n      keccak256\n      0x00\n        /* \"bep-20.sol\":18058:18085  allowTransfer[_addr] = true */\n      0x0100\n      exp\n      dup2\n      sload\n      dup2\n      0xff\n      mul\n      not\n      and\n      swap1\n      dup4\n      iszero\n      iszero\n      mul\n      or\n      swap1\n      sstore\n      pop\n        /* \"bep-20.sol\":17990:18092  function enableTransfer(address _addr) external onlyOwner {... */\n      pop\n      jump\t// out\n        /* \"bep-20.sol\":9360:9396  address public RiskFreeValueReceiver */\n    tag_255:\n      0x11\n      0x00\n      swap1\n      sload\n      swap1\n      0x0100\n      exp\n      swap1\n      div\n      0xffffffffffffffffffffffffffffffffffffffff\n      and\n      dup2\n      jump\t// out\n        /* \"bep-20.sol\":20351:20681  function setFeeReceivers(... */\n    tag_259:\n        /* \"bep-20.sol\":7477:7486  isOwner() */\n      tag_452\n        /* \"bep-20.sol\":7477:7484  isOwner */\n      tag_181\n        /* \"bep-20.sol\":7477:7486  isOwner() */\n      jump\t// in\n    tag_452:\n        /* \"bep-20.sol\":7469:7487  require(isOwner()) */\n      tag_453\n      jumpi\n      0x00\n      dup1\n      revert\n    tag_453:\n        /* \"bep-20.sol\":20550:20572  _autoLiquidityReceiver */\n      dup3\n        /* \"bep-20.sol\":20526:20547  autoLiquidityReceiver */\n      0x0f\n      0x00\n        /* \"bep-20.sol\":20526:20572  autoLiquidityReceiver = _autoLiquidityReceiver */\n      0x0100\n      exp\n      dup2\n      sload\n      dup2\n      0xffffffffffffffffffffffffffffffffffffffff\n      mul\n      not\n      and\n      swap1\n      dup4\n      0xffffffffffffffffffffffffffffffffffffffff\n      and\n      mul\n      or\n      swap1\n      sstore\n      pop\n        /* \"bep-20.sol\":20601:20618  _TreasuryReceiver */\n      dup2\n        /* \"bep-20.sol\":20582:20598  TreasuryReceiver */\n      0x10\n      0x00\n        /* \"bep-20.sol\":20582:20618  TreasuryReceiver = _TreasuryReceiver */\n      0x0100\n      exp\n      dup2\n      sload\n      dup2\n      0xffffffffffffffffffffffffffffffffffffffff\n      mul\n      not\n      and\n      swap1\n      dup4\n      0xffffffffffffffffffffffffffffffffffffffff\n      and\n      mul\n      or\n      swap1\n      sstore\n      pop\n        /* \"bep-20.sol\":20652:20674  _RiskFreeValueReceiver */\n      dup1\n        /* \"bep-20.sol\":20628:20649  RiskFreeValueReceiver */\n      0x11\n      0x00\n        /* \"bep-20.sol\":20628:20674  RiskFreeValueReceiver = _RiskFreeValueReceiver */\n      0x0100\n      exp\n      dup2\n      sload\n      dup2\n      0xffffffffffffffffffffffffffffffffffffffff\n      mul\n      not\n      and\n      swap1\n      dup4\n      0xffffffffffffffffffffffffffffffffffffffff\n      and\n      mul\n      or\n      swap1\n      sstore\n      pop\n        /* \"bep-20.sol\":20351:20681  function setFeeReceivers(... */\n      pop\n      pop\n      pop\n      jump\t// out\n        /* \"bep-20.sol\":11865:12052  function allowance(address owner_, address spender)... */\n    tag_263:\n        /* \"bep-20.sol\":11981:11988  uint256 */\n      0x00\n        /* \"bep-20.sol\":12011:12028  _allowedFragments */\n      0x1b\n        /* \"bep-20.sol\":12011:12036  _allowedFragments[owner_] */\n      0x00\n        /* \"bep-20.sol\":12029:12035  owner_ */\n      dup5\n        /* \"bep-20.sol\":12011:12036  _allowedFragments[owner_] */\n      0xffffffffffffffffffffffffffffffffffffffff\n      and\n      0xffffffffffffffffffffffffffffffffffffffff\n      and\n      dup2\n      mstore\n      0x20\n      add\n      swap1\n      dup2\n      mstore\n      0x20\n      add\n      0x00\n      keccak256\n        /* \"bep-20.sol\":12011:12045  _allowedFragments[owner_][spender] */\n      0x00\n        /* \"bep-20.sol\":12037:12044  spender */\n      dup4\n        /* \"bep-20.sol\":12011:12045  _allowedFragments[owner_][spender] */\n      0xffffffffffffffffffffffffffffffffffffffff\n      and\n      0xffffffffffffffffffffffffffffffffffffffff\n      and\n      dup2\n      mstore\n      0x20\n      add\n      swap1\n      dup2\n      mstore\n      0x20\n      add\n      0x00\n      keccak256\n      sload\n        /* \"bep-20.sol\":12004:12045  return _allowedFragments[owner_][spender] */\n      swap1\n      pop\n        /* \"bep-20.sol\":11865:12052  function allowance(address owner_, address spender)... */\n      swap3\n      swap2\n      pop\n      pop\n      jump\t// out\n        /* \"bep-20.sol\":7736:7843  function transferOwnership(address newOwner) public onlyOwner {... */\n    tag_267:\n        /* \"bep-20.sol\":7477:7486  isOwner() */\n      tag_457\n        /* \"bep-20.sol\":7477:7484  isOwner */\n      tag_181\n        /* \"bep-20.sol\":7477:7486  isOwner() */\n      jump\t// in\n    tag_457:\n        /* \"bep-20.sol\":7469:7487  require(isOwner()) */\n      tag_458\n      jumpi\n      0x00\n      dup1\n      revert\n    tag_458:\n        /* \"bep-20.sol\":7808:7836  _transferOwnership(newOwner) */\n      tag_460\n        /* \"bep-20.sol\":7827:7835  newOwner */\n      dup2\n        /* \"bep-20.sol\":7808:7826  _transferOwnership */\n      tag_461\n        /* \"bep-20.sol\":7808:7836  _transferOwnership(newOwner) */\n      jump\t// in\n    tag_460:\n        /* \"bep-20.sol\":7736:7843  function transferOwnership(address newOwner) public onlyOwner {... */\n      pop\n      jump\t// out\n        /* \"bep-20.sol\":9484:9508  IDEXRouter public router */\n    tag_270:\n      0x14\n      0x00\n      swap1\n      sload\n      swap1\n      0x0100\n      exp\n      swap1\n      div\n      0xffffffffffffffffffffffffffffffffffffffff\n      and\n      dup2\n      jump\t// out\n        /* \"bep-20.sol\":10119:10160  mapping(address => bool) public blacklist */\n    tag_274:\n      mstore(0x20, 0x1c)\n      dup1\n      0x00\n      mstore\n      keccak256(0x00, 0x40)\n      0x00\n      swap2\n      pop\n      sload\n      swap1\n      0x0100\n      exp\n      swap1\n      div\n      0xff\n      and\n      dup2\n      jump\t// out\n        /* \"bep-20.sol\":1800:1976  function add(uint256 a, uint256 b) internal pure returns (uint256) {... */\n    tag_275:\n        /* \"bep-20.sol\":1858:1865  uint256 */\n      0x00\n        /* \"bep-20.sol\":1877:1886  uint256 c */\n      dup1\n        /* \"bep-20.sol\":1893:1894  b */\n      dup3\n        /* \"bep-20.sol\":1889:1890  a */\n      dup5\n        /* \"bep-20.sol\":1889:1894  a + b */\n      add\n        /* \"bep-20.sol\":1877:1894  uint256 c = a + b */\n      swap1\n      pop\n        /* \"bep-20.sol\":1917:1918  a */\n      dup4\n        /* \"bep-20.sol\":1912:1913  c */\n      dup2\n        /* \"bep-20.sol\":1912:1918  c >= a */\n      lt\n      iszero\n        /* \"bep-20.sol\":1904:1950  require(c >= a, \"SafeMath: addition overflow\") */\n      tag_463\n      jumpi\n      mload(0x40)\n      0x08c379a000000000000000000000000000000000000000000000000000000000\n      dup2\n      mstore\n      0x04\n      add\n      dup1\n      dup1\n      0x20\n      add\n      dup3\n      dup2\n      sub\n      dup3\n      mstore\n      0x1b\n      dup2\n      mstore\n      0x20\n      add\n      dup1\n      0x536166654d6174683a206164646974696f6e206f766572666c6f770000000000\n      dup2\n      mstore\n      pop\n      0x20\n      add\n      swap2\n      pop\n      pop\n      mload(0x40)\n      dup1\n      swap2\n      sub\n      swap1\n      revert\n    tag_463:\n        /* \"bep-20.sol\":1968:1969  c */\n      dup1\n        /* \"bep-20.sol\":1961:1969  return c */\n      swap2\n      pop\n      pop\n        /* \"bep-20.sol\":1800:1976  function add(uint256 a, uint256 b) internal pure returns (uint256) {... */\n      swap3\n      swap2\n      pop\n      pop\n      jump\t// out\n        /* \"bep-20.sol\":2592:2722  function div(uint256 a, uint256 b) internal pure returns (uint256) {... */\n    tag_276:\n        /* \"bep-20.sol\":2650:2657  uint256 */\n      0x00\n        /* \"bep-20.sol\":2676:2715  div(a, b, \"SafeMath: division by zero\") */\n      tag_465\n        /* \"bep-20.sol\":2680:2681  a */\n      dup4\n        /* \"bep-20.sol\":2683:2684  b */\n      dup4\n        /* \"bep-20.sol\":2676:2715  div(a, b, \"SafeMath: division by zero\") */\n      mload(0x40)\n      dup1\n      0x40\n      add\n      0x40\n      mstore\n      dup1\n      0x1a\n      dup2\n      mstore\n      0x20\n      add\n      0x536166654d6174683a206469766973696f6e206279207a65726f000000000000\n      dup2\n      mstore\n      pop\n        /* \"bep-20.sol\":2676:2679  div */\n      tag_466\n        /* \"bep-20.sol\":2676:2715  div(a, b, \"SafeMath: division by zero\") */\n      jump\t// in\n    tag_465:\n        /* \"bep-20.sol\":2669:2715  return div(a, b, \"SafeMath: division by zero\") */\n      swap1\n      pop\n        /* \"bep-20.sol\":2592:2722  function div(uint256 a, uint256 b) internal pure returns (uint256) {... */\n      swap3\n      swap2\n      pop\n      pop\n      jump\t// out\n        /* \"bep-20.sol\":3284:3459  function add(Role storage role, address account) internal {... */\n    tag_277:\n        /* \"bep-20.sol\":3361:3379  has(role, account) */\n      tag_468\n        /* \"bep-20.sol\":3365:3369  role */\n      dup3\n        /* \"bep-20.sol\":3371:3378  account */\n      dup3\n        /* \"bep-20.sol\":3361:3364  has */\n      tag_421\n        /* \"bep-20.sol\":3361:3379  has(role, account) */\n      jump\t// in\n    tag_468:\n        /* \"bep-20.sol\":3360:3379  !has(role, account) */\n      iszero\n        /* \"bep-20.sol\":3352:3415  require(!has(role, account), \"Roles: account already has role\") */\n      tag_469\n      jumpi\n      mload(0x40)\n      0x08c379a000000000000000000000000000000000000000000000000000000000\n      dup2\n      mstore\n      0x04\n      add\n      dup1\n      dup1\n      0x20\n      add\n      dup3\n      dup2\n      sub\n      dup3\n      mstore\n      0x1f\n      dup2\n      mstore\n      0x20\n      add\n      dup1\n      0x526f6c65733a206163636f756e7420616c72656164792068617320726f6c6500\n      dup2\n      mstore\n      pop\n      0x20\n      add\n      swap2\n      pop\n      pop\n      mload(0x40)\n      dup1\n      swap2\n      sub\n      swap1\n      revert\n    tag_469:\n        /* \"bep-20.sol\":3448:3452  true */\n      0x01\n        /* \"bep-20.sol\":3425:3429  role */\n      dup3\n        /* \"bep-20.sol\":3425:3436  role.bearer */\n      0x00\n      add\n        /* \"bep-20.sol\":3425:3445  role.bearer[account] */\n      0x00\n        /* \"bep-20.sol\":3437:3444  account */\n      dup4\n        /* \"bep-20.sol\":3425:3445  role.bearer[account] */\n      0xffffffffffffffffffffffffffffffffffffffff\n      and\n      0xffffffffffffffffffffffffffffffffffffffff\n      and\n      dup2\n      mstore\n      0x20\n      add\n      swap1\n      dup2\n      mstore\n      0x20\n      add\n      0x00\n      keccak256\n      0x00\n        /* \"bep-20.sol\":3425:3452  role.bearer[account] = true */\n      0x0100\n      exp\n      dup2\n      sload\n      dup2\n      0xff\n      mul\n      not\n      and\n      swap1\n      dup4\n      iszero\n      iszero\n      mul\n      or\n      swap1\n      sstore\n      pop\n        /* \"bep-20.sol\":3284:3459  function add(Role storage role, address account) internal {... */\n      pop\n      pop\n      jump\t// out\n        /* \"bep-20.sol\":2122:2339  function sub(... */\n    tag_308:\n        /* \"bep-20.sol\":2238:2245  uint256 */\n      0x00\n        /* \"bep-20.sol\":2270:2271  a */\n      dup4\n        /* \"bep-20.sol\":2265:2266  b */\n      dup4\n        /* \"bep-20.sol\":2265:2271  b <= a */\n      gt\n      iszero\n        /* \"bep-20.sol\":2273:2285  errorMessage */\n      dup3\n        /* \"bep-20.sol\":2257:2286  require(b <= a, errorMessage) */\n      swap1\n      tag_471\n      jumpi\n      mload(0x40)\n      0x08c379a000000000000000000000000000000000000000000000000000000000\n      dup2\n      mstore\n      0x04\n      add\n      dup1\n      dup1\n      0x20\n      add\n      dup3\n      dup2\n      sub\n      dup3\n      mstore\n      dup4\n      dup2\n      dup2\n      mload\n      dup2\n      mstore\n      0x20\n      add\n      swap2\n      pop\n      dup1\n      mload\n      swap1\n      0x20\n      add\n      swap1\n      dup1\n      dup4\n      dup4\n      0x00\n    tag_472:\n      dup4\n      dup2\n      lt\n      iszero\n      tag_474\n      jumpi\n      dup1\n      dup3\n      add\n      mload\n      dup2\n      dup5\n      add\n      mstore\n      0x20\n      dup2\n      add\n      swap1\n      pop\n      jump(tag_472)\n    tag_474:\n      pop\n      pop\n      pop\n      pop\n      swap1\n      pop\n      swap1\n      dup2\n      add\n      swap1\n      0x1f\n      and\n      dup1\n      iszero\n      tag_475\n      jumpi\n      dup1\n      dup3\n      sub\n      dup1\n      mload\n      0x01\n      dup4\n      0x20\n      sub\n      0x0100\n      exp\n      sub\n      not\n      and\n      dup2\n      mstore\n      0x20\n      add\n      swap2\n      pop\n    tag_475:\n      pop\n      swap3\n      pop\n      pop\n      pop\n      mload(0x40)\n      dup1\n      swap2\n      sub\n      swap1\n      revert\n    tag_471:\n      pop\n        /* \"bep-20.sol\":2296:2305  uint256 c */\n      0x00\n        /* \"bep-20.sol\":2312:2313  b */\n      dup4\n        /* \"bep-20.sol\":2308:2309  a */\n      dup6\n        /* \"bep-20.sol\":2308:2313  a - b */\n      sub\n        /* \"bep-20.sol\":2296:2313  uint256 c = a - b */\n      swap1\n      pop\n        /* \"bep-20.sol\":2331:2332  c */\n      dup1\n        /* \"bep-20.sol\":2324:2332  return c */\n      swap2\n      pop\n      pop\n        /* \"bep-20.sol\":2122:2339  function sub(... */\n      swap4\n      swap3\n      pop\n      pop\n      pop\n      jump\t// out\n        /* \"bep-20.sol\":12536:13440  function _transferFrom(... */\n    tag_310:\n        /* \"bep-20.sol\":12658:12662  bool */\n      0x00\n        /* \"bep-20.sol\":12683:12692  blacklist */\n      0x1c\n        /* \"bep-20.sol\":12683:12700  blacklist[sender] */\n      0x00\n        /* \"bep-20.sol\":12693:12699  sender */\n      dup6\n        /* \"bep-20.sol\":12683:12700  blacklist[sender] */\n      0xffffffffffffffffffffffffffffffffffffffff\n      and\n      0xffffffffffffffffffffffffffffffffffffffff\n      and\n      dup2\n      mstore\n      0x20\n      add\n      swap1\n      dup2\n      mstore\n      0x20\n      add\n      0x00\n      keccak256\n      0x00\n      swap1\n      sload\n      swap1\n      0x0100\n      exp\n      swap1\n      div\n      0xff\n      and\n        /* \"bep-20.sol\":12682:12700  !blacklist[sender] */\n      iszero\n        /* \"bep-20.sol\":12682:12725  !blacklist[sender] && !blacklist[recipient] */\n      dup1\n      iszero\n      tag_477\n      jumpi\n      pop\n        /* \"bep-20.sol\":12705:12714  blacklist */\n      0x1c\n        /* \"bep-20.sol\":12705:12725  blacklist[recipient] */\n      0x00\n        /* \"bep-20.sol\":12715:12724  recipient */\n      dup5\n        /* \"bep-20.sol\":12705:12725  blacklist[recipient] */\n      0xffffffffffffffffffffffffffffffffffffffff\n      and\n      0xffffffffffffffffffffffffffffffffffffffff\n      and\n      dup2\n      mstore\n      0x20\n      add\n      swap1\n      dup2\n      mstore\n      0x20\n      add\n      0x00\n      keccak256\n      0x00\n      swap1\n      sload\n      swap1\n      0x0100\n      exp\n      swap1\n      div\n      0xff\n      and\n        /* \"bep-20.sol\":12704:12725  !blacklist[recipient] */\n      iszero\n        /* \"bep-20.sol\":12682:12725  !blacklist[sender] && !blacklist[recipient] */\n    tag_477:\n        /* \"bep-20.sol\":12674:12742  require(!blacklist[sender] && !blacklist[recipient], 'in_blacklist') */\n      tag_478\n      jumpi\n      mload(0x40)\n      0x08c379a000000000000000000000000000000000000000000000000000000000\n      dup2\n      mstore\n      0x04\n      add\n      dup1\n      dup1\n      0x20\n      add\n      dup3\n      dup2\n      sub\n      dup3\n      mstore\n      0x0c\n      dup2\n      mstore\n      0x20\n      add\n      dup1\n      0x696e5f626c61636b6c6973740000000000000000000000000000000000000000\n      dup2\n      mstore\n      pop\n      0x20\n      add\n      swap2\n      pop\n      pop\n      mload(0x40)\n      dup1\n      swap2\n      sub\n      swap1\n      revert\n    tag_478:\n        /* \"bep-20.sol\":12756:12762  inSwap */\n      0x17\n      0x00\n      swap1\n      sload\n      swap1\n      0x0100\n      exp\n      swap1\n      div\n      0xff\n      and\n        /* \"bep-20.sol\":12752:12837  if (inSwap) {... */\n      iszero\n      tag_479\n      jumpi\n        /* \"bep-20.sol\":12785:12826  _basicTransfer(sender, recipient, amount) */\n      tag_480\n        /* \"bep-20.sol\":12800:12806  sender */\n      dup5\n        /* \"bep-20.sol\":12808:12817  recipient */\n      dup5\n        /* \"bep-20.sol\":12819:12825  amount */\n      dup5\n        /* \"bep-20.sol\":12785:12799  _basicTransfer */\n      tag_481\n        /* \"bep-20.sol\":12785:12826  _basicTransfer(sender, recipient, amount) */\n      jump\t// in\n    tag_480:\n        /* \"bep-20.sol\":12778:12826  return _basicTransfer(sender, recipient, amount) */\n      swap1\n      pop\n      jump(tag_476)\n        /* \"bep-20.sol\":12752:12837  if (inSwap) {... */\n    tag_479:\n        /* \"bep-20.sol\":12847:12864  uint256 gonAmount */\n      0x00\n        /* \"bep-20.sol\":12867:12895  amount.mul(_gonsPerFragment) */\n      tag_482\n        /* \"bep-20.sol\":12878:12894  _gonsPerFragment */\n      sload(0x19)\n        /* \"bep-20.sol\":12867:12873  amount */\n      dup5\n        /* \"bep-20.sol\":12867:12877  amount.mul */\n      tag_429\n      swap1\n        /* \"bep-20.sol\":12867:12895  amount.mul(_gonsPerFragment) */\n      swap2\n      swap1\n      0xffffffff\n      and\n      jump\t// in\n    tag_482:\n        /* \"bep-20.sol\":12847:12895  uint256 gonAmount = amount.mul(_gonsPerFragment) */\n      swap1\n      pop\n        /* \"bep-20.sol\":12910:12926  shouldSwapBack() */\n      tag_483\n        /* \"bep-20.sol\":12910:12924  shouldSwapBack */\n      tag_484\n        /* \"bep-20.sol\":12910:12926  shouldSwapBack() */\n      jump\t// in\n    tag_483:\n        /* \"bep-20.sol\":12906:12963  if (shouldSwapBack()) {... */\n      iszero\n      tag_485\n      jumpi\n        /* \"bep-20.sol\":12942:12952  swapBack() */\n      tag_486\n        /* \"bep-20.sol\":12942:12950  swapBack */\n      tag_487\n        /* \"bep-20.sol\":12942:12952  swapBack() */\n      jump\t// in\n    tag_486:\n        /* \"bep-20.sol\":12906:12963  if (shouldSwapBack()) {... */\n    tag_485:\n        /* \"bep-20.sol\":12996:13031  _gonBalances[sender].sub(gonAmount) */\n      tag_488\n        /* \"bep-20.sol\":13021:13030  gonAmount */\n      dup2\n        /* \"bep-20.sol\":12996:13008  _gonBalances */\n      0x1a\n        /* \"bep-20.sol\":12996:13016  _gonBalances[sender] */\n      0x00\n        /* \"bep-20.sol\":13009:13015  sender */\n      dup9\n        /* \"bep-20.sol\":12996:13016  _gonBalances[sender] */\n      0xffffffffffffffffffffffffffffffffffffffff\n      and\n      0xffffffffffffffffffffffffffffffffffffffff\n      and\n      dup2\n      mstore\n      0x20\n      add\n      swap1\n      dup2\n      mstore\n      0x20\n      add\n      0x00\n      keccak256\n      sload\n        /* \"bep-20.sol\":12996:13020  _gonBalances[sender].sub */\n      tag_316\n      swap1\n        /* \"bep-20.sol\":12996:13031  _gonBalances[sender].sub(gonAmount) */\n      swap2\n      swap1\n      0xffffffff\n      and\n      jump\t// in\n    tag_488:\n        /* \"bep-20.sol\":12973:12985  _gonBalances */\n      0x1a\n        /* \"bep-20.sol\":12973:12993  _gonBalances[sender] */\n      0x00\n        /* \"bep-20.sol\":12986:12992  sender */\n      dup8\n        /* \"bep-20.sol\":12973:12993  _gonBalances[sender] */\n      0xffffffffffffffffffffffffffffffffffffffff\n      and\n      0xffffffffffffffffffffffffffffffffffffffff\n      and\n      dup2\n      mstore\n      0x20\n      add\n      swap1\n      dup2\n      mstore\n      0x20\n      add\n      0x00\n      keccak256\n        /* \"bep-20.sol\":12973:13031  _gonBalances[sender] = _gonBalances[sender].sub(gonAmount) */\n      dup2\n      swap1\n      sstore\n      pop\n        /* \"bep-20.sol\":13042:13067  uint256 gonAmountReceived */\n      0x00\n        /* \"bep-20.sol\":13070:13102  shouldTakeFee(sender, recipient) */\n      tag_489\n        /* \"bep-20.sol\":13084:13090  sender */\n      dup7\n        /* \"bep-20.sol\":13092:13101  recipient */\n      dup7\n        /* \"bep-20.sol\":13070:13083  shouldTakeFee */\n      tag_490\n        /* \"bep-20.sol\":13070:13102  shouldTakeFee(sender, recipient) */\n      jump\t// in\n    tag_489:\n        /* \"bep-20.sol\":13070:13178  shouldTakeFee(sender, recipient)... */\n      tag_491\n      jumpi\n        /* \"bep-20.sol\":13169:13178  gonAmount */\n      dup2\n        /* \"bep-20.sol\":13070:13178  shouldTakeFee(sender, recipient)... */\n      jump(tag_492)\n    tag_491:\n        /* \"bep-20.sol\":13117:13154  takeFee(sender, recipient, gonAmount) */\n      tag_493\n        /* \"bep-20.sol\":13125:13131  sender */\n      dup7\n        /* \"bep-20.sol\":13133:13142  recipient */\n      dup7\n        /* \"bep-20.sol\":13144:13153  gonAmount */\n      dup5\n        /* \"bep-20.sol\":13117:13124  takeFee */\n      tag_494\n        /* \"bep-20.sol\":13117:13154  takeFee(sender, recipient, gonAmount) */\n      jump\t// in\n    tag_493:\n        /* \"bep-20.sol\":13070:13178  shouldTakeFee(sender, recipient)... */\n    tag_492:\n        /* \"bep-20.sol\":13042:13178  uint256 gonAmountReceived = shouldTakeFee(sender, recipient)... */\n      swap1\n      pop\n        /* \"bep-20.sol\":13214:13282  _gonBalances[recipient].add(... */\n      tag_495\n        /* \"bep-20.sol\":13255:13272  gonAmountReceived */\n      dup2\n        /* \"bep-20.sol\":13214:13226  _gonBalances */\n      0x1a\n        /* \"bep-20.sol\":13214:13237  _gonBalances[recipient] */\n      0x00\n        /* \"bep-20.sol\":13227:13236  recipient */\n      dup9\n        /* \"bep-20.sol\":13214:13237  _gonBalances[recipient] */\n      0xffffffffffffffffffffffffffffffffffffffff\n      and\n      0xffffffffffffffffffffffffffffffffffffffff\n      and\n      dup2\n      mstore\n      0x20\n      add\n      swap1\n      dup2\n      mstore\n      0x20\n      add\n      0x00\n      keccak256\n      sload\n        /* \"bep-20.sol\":13214:13241  _gonBalances[recipient].add */\n      tag_275\n      swap1\n        /* \"bep-20.sol\":13214:13282  _gonBalances[recipient].add(... */\n      swap2\n      swap1\n      0xffffffff\n      and\n      jump\t// in\n    tag_495:\n        /* \"bep-20.sol\":13188:13200  _gonBalances */\n      0x1a\n        /* \"bep-20.sol\":13188:13211  _gonBalances[recipient] */\n      0x00\n        /* \"bep-20.sol\":13201:13210  recipient */\n      dup8\n        /* \"bep-20.sol\":13188:13211  _gonBalances[recipient] */\n      0xffffffffffffffffffffffffffffffffffffffff\n      and\n      0xffffffffffffffffffffffffffffffffffffffff\n      and\n      dup2\n      mstore\n      0x20\n      add\n      swap1\n      dup2\n      mstore\n      0x20\n      add\n      0x00\n      keccak256\n        /* \"bep-20.sol\":13188:13282  _gonBalances[recipient] = _gonBalances[recipient].add(... */\n      dup2\n      swap1\n      sstore\n      pop\n        /* \"bep-20.sol\":13340:13349  recipient */\n      dup5\n        /* \"bep-20.sol\":13298:13412  Transfer(... */\n      0xffffffffffffffffffffffffffffffffffffffff\n      and\n        /* \"bep-20.sol\":13320:13326  sender */\n      dup7\n        /* \"bep-20.sol\":13298:13412  Transfer(... */\n      0xffffffffffffffffffffffffffffffffffffffff\n      and\n      0xddf252ad1be2c89b69c2b068fc378daa952ba7f163c4a11628f55a4df523b3ef\n        /* \"bep-20.sol\":13363:13402  gonAmountReceived.div(_gonsPerFragment) */\n      tag_496\n        /* \"bep-20.sol\":13385:13401  _gonsPerFragment */\n      sload(0x19)\n        /* \"bep-20.sol\":13363:13380  gonAmountReceived */\n      dup6\n        /* \"bep-20.sol\":13363:13384  gonAmountReceived.div */\n      tag_276\n      swap1\n        /* \"bep-20.sol\":13363:13402  gonAmountReceived.div(_gonsPerFragment) */\n      swap2\n      swap1\n      0xffffffff\n      and\n      jump\t// in\n    tag_496:\n        /* \"bep-20.sol\":13298:13412  Transfer(... */\n      mload(0x40)\n      dup1\n      dup3\n      dup2\n      mstore\n      0x20\n      add\n      swap2\n      pop\n      pop\n      mload(0x40)\n      dup1\n      swap2\n      sub\n      swap1\n      log3\n        /* \"bep-20.sol\":13429:13433  true */\n      0x01\n        /* \"bep-20.sol\":13422:13433  return true */\n      swap3\n      pop\n      pop\n      pop\n        /* \"bep-20.sol\":12536:13440  function _transferFrom(... */\n    tag_476:\n      swap4\n      swap3\n      pop\n      pop\n      pop\n      jump\t// out\n        /* \"bep-20.sol\":1982:2116  function sub(uint256 a, uint256 b) internal pure returns (uint256) {... */\n    tag_316:\n        /* \"bep-20.sol\":2040:2047  uint256 */\n      0x00\n        /* \"bep-20.sol\":2066:2109  sub(a, b, \"SafeMath: subtraction overflow\") */\n      tag_498\n        /* \"bep-20.sol\":2070:2071  a */\n      dup4\n        /* \"bep-20.sol\":2073:2074  b */\n      dup4\n        /* \"bep-20.sol\":2066:2109  sub(a, b, \"SafeMath: subtraction overflow\") */\n      mload(0x40)\n      dup1\n      0x40\n      add\n      0x40\n      mstore\n      dup1\n      0x1e\n      dup2\n      mstore\n      0x20\n      add\n      0x536166654d6174683a207375627472616374696f6e206f766572666c6f770000\n      dup2\n      mstore\n      pop\n        /* \"bep-20.sol\":2066:2069  sub */\n      tag_308\n        /* \"bep-20.sol\":2066:2109  sub(a, b, \"SafeMath: subtraction overflow\") */\n      jump\t// in\n    tag_498:\n        /* \"bep-20.sol\":2059:2109  return sub(a, b, \"SafeMath: subtraction overflow\") */\n      swap1\n      pop\n        /* \"bep-20.sol\":1982:2116  function sub(uint256 a, uint256 b) internal pure returns (uint256) {... */\n      swap3\n      swap2\n      pop\n      pop\n      jump\t// out\n        /* \"bep-20.sol\":4715:4842  function _removeMinter(address account) internal {... */\n    tag_330:\n        /* \"bep-20.sol\":4774:4798  _minters.remove(account) */\n      tag_500\n        /* \"bep-20.sol\":4790:4797  account */\n      dup2\n        /* \"bep-20.sol\":4774:4782  _minters */\n      0x03\n        /* \"bep-20.sol\":4774:4789  _minters.remove */\n      tag_501\n      swap1\n        /* \"bep-20.sol\":4774:4798  _minters.remove(account) */\n      swap2\n      swap1\n      0xffffffff\n      and\n      jump\t// in\n    tag_500:\n        /* \"bep-20.sol\":4827:4834  account */\n      dup1\n        /* \"bep-20.sol\":4813:4835  MinterRemoved(account) */\n      0xffffffffffffffffffffffffffffffffffffffff\n      and\n      0xe94479a9f7e1952cc78f2d6baab678adc1b772d936c6583def489e524cb66692\n      mload(0x40)\n      mload(0x40)\n      dup1\n      swap2\n      sub\n      swap1\n      log2\n        /* \"bep-20.sol\":4715:4842  function _removeMinter(address account) internal {... */\n      pop\n      jump\t// out\n        /* \"bep-20.sol\":4590:4709  function _addMinter(address account) internal {... */\n    tag_398:\n        /* \"bep-20.sol\":4646:4667  _minters.add(account) */\n      tag_503\n        /* \"bep-20.sol\":4659:4666  account */\n      dup2\n        /* \"bep-20.sol\":4646:4654  _minters */\n      0x03\n        /* \"bep-20.sol\":4646:4658  _minters.add */\n      tag_277\n      swap1\n        /* \"bep-20.sol\":4646:4667  _minters.add(account) */\n      swap2\n      swap1\n      0xffffffff\n      and\n      jump\t// in\n    tag_503:\n        /* \"bep-20.sol\":4694:4701  account */\n      dup1\n        /* \"bep-20.sol\":4682:4702  MinterAdded(account) */\n      0xffffffffffffffffffffffffffffffffffffffff\n      and\n      0x6ae172837ea30b801fbfcdd4108aa1d5bf8ff775444fd70256b44e6bf3dfc3f6\n      mload(0x40)\n      mload(0x40)\n      dup1\n      swap2\n      sub\n      swap1\n      log2\n        /* \"bep-20.sol\":4590:4709  function _addMinter(address account) internal {... */\n      pop\n      jump\t// out\n        /* \"bep-20.sol\":3803:4003  function has(Role storage role, address account) internal view returns (bool) {... */\n    tag_421:\n        /* \"bep-20.sol\":3875:3879  bool */\n      0x00\n        /* \"bep-20.sol\":3918:3919  0 */\n      dup1\n        /* \"bep-20.sol\":3899:3920  account != address(0) */\n      0xffffffffffffffffffffffffffffffffffffffff\n      and\n        /* \"bep-20.sol\":3899:3906  account */\n      dup3\n        /* \"bep-20.sol\":3899:3920  account != address(0) */\n      0xffffffffffffffffffffffffffffffffffffffff\n      and\n      eq\n      iszero\n        /* \"bep-20.sol\":3891:3959  require(account != address(0), \"Roles: account is the zero address\") */\n      tag_505\n      jumpi\n      mload(0x40)\n      0x08c379a000000000000000000000000000000000000000000000000000000000\n      dup2\n      mstore\n      0x04\n      add\n      dup1\n      dup1\n      0x20\n      add\n      dup3\n      dup2\n      sub\n      dup3\n      mstore\n      0x22\n      dup2\n      mstore\n      0x20\n      add\n      dup1\n      data_9d214fa89563f4e6456a3929327e54500ea1cde2c0ba9fb2035ec106190d682f\n      0x22\n      swap2\n      codecopy\n      0x40\n      add\n      swap2\n      pop\n      pop\n      mload(0x40)\n      dup1\n      swap2\n      sub\n      swap1\n      revert\n    tag_505:\n        /* \"bep-20.sol\":3976:3980  role */\n      dup3\n        /* \"bep-20.sol\":3976:3987  role.bearer */\n      0x00\n      add\n        /* \"bep-20.sol\":3976:3996  role.bearer[account] */\n      0x00\n        /* \"bep-20.sol\":3988:3995  account */\n      dup4\n        /* \"bep-20.sol\":3976:3996  role.bearer[account] */\n      0xffffffffffffffffffffffffffffffffffffffff\n      and\n      0xffffffffffffffffffffffffffffffffffffffff\n      and\n      dup2\n      mstore\n      0x20\n      add\n      swap1\n      dup2\n      mstore\n      0x20\n      add\n      0x00\n      keccak256\n      0x00\n      swap1\n      sload\n      swap1\n      0x0100\n      exp\n      swap1\n      div\n      0xff\n      and\n        /* \"bep-20.sol\":3969:3996  return role.bearer[account] */\n      swap1\n      pop\n        /* \"bep-20.sol\":3803:4003  function has(Role storage role, address account) internal view returns (bool) {... */\n      swap3\n      swap2\n      pop\n      pop\n      jump\t// out\n        /* \"bep-20.sol\":2345:2586  function mul(uint256 a, uint256 b) internal pure returns (uint256) {... */\n    tag_429:\n        /* \"bep-20.sol\":2403:2410  uint256 */\n      0x00\n        /* \"bep-20.sol\":2431:2432  0 */\n      dup1\n        /* \"bep-20.sol\":2426:2427  a */\n      dup4\n        /* \"bep-20.sol\":2426:2432  a == 0 */\n      eq\n        /* \"bep-20.sol\":2422:2467  if (a == 0) {... */\n      iszero\n      tag_507\n      jumpi\n        /* \"bep-20.sol\":2455:2456  0 */\n      0x00\n        /* \"bep-20.sol\":2448:2456  return 0 */\n      swap1\n      pop\n      jump(tag_506)\n        /* \"bep-20.sol\":2422:2467  if (a == 0) {... */\n    tag_507:\n        /* \"bep-20.sol\":2477:2486  uint256 c */\n      0x00\n        /* \"bep-20.sol\":2493:2494  b */\n      dup3\n        /* \"bep-20.sol\":2489:2490  a */\n      dup5\n        /* \"bep-20.sol\":2489:2494  a * b */\n      mul\n        /* \"bep-20.sol\":2477:2494  uint256 c = a * b */\n      swap1\n      pop\n        /* \"bep-20.sol\":2521:2522  b */\n      dup3\n        /* \"bep-20.sol\":2516:2517  a */\n      dup5\n        /* \"bep-20.sol\":2512:2513  c */\n      dup3\n        /* \"bep-20.sol\":2512:2517  c / a */\n      dup2\n      tag_508\n      jumpi\n      invalid\n    tag_508:\n      div\n        /* \"bep-20.sol\":2512:2522  c / a == b */\n      eq\n        /* \"bep-20.sol\":2504:2560  require(c / a == b, \"SafeMath: multiplication overflow\") */\n      tag_509\n      jumpi\n      mload(0x40)\n      0x08c379a000000000000000000000000000000000000000000000000000000000\n      dup2\n      mstore\n      0x04\n      add\n      dup1\n      dup1\n      0x20\n      add\n      dup3\n      dup2\n      sub\n      dup3\n      mstore\n      0x21\n      dup2\n      mstore\n      0x20\n      add\n      dup1\n      data_9113bb53c2876a3805b2c9242029423fc540a728243ce887ab24c82cf119fba3\n      0x21\n      swap2\n      codecopy\n      0x40\n      add\n      swap2\n      pop\n      pop\n      mload(0x40)\n      dup1\n      swap2\n      sub\n      swap1\n      revert\n    tag_509:\n        /* \"bep-20.sol\":2578:2579  c */\n      dup1\n        /* \"bep-20.sol\":2571:2579  return c */\n      swap2\n      pop\n      pop\n        /* \"bep-20.sol\":2345:2586  function mul(uint256 a, uint256 b) internal pure returns (uint256) {... */\n    tag_506:\n      swap3\n      swap2\n      pop\n      pop\n      jump\t// out\n        /* \"bep-20.sol\":7849:8032  function _transferOwnership(address newOwner) internal {... */\n    tag_461:\n        /* \"bep-20.sol\":7942:7943  0 */\n      0x00\n        /* \"bep-20.sol\":7922:7944  newOwner != address(0) */\n      0xffffffffffffffffffffffffffffffffffffffff\n      and\n        /* \"bep-20.sol\":7922:7930  newOwner */\n      dup2\n        /* \"bep-20.sol\":7922:7944  newOwner != address(0) */\n      0xffffffffffffffffffffffffffffffffffffffff\n      and\n      eq\n      iszero\n        /* \"bep-20.sol\":7914:7945  require(newOwner != address(0)) */\n      tag_511\n      jumpi\n      0x00\n      dup1\n      revert\n    tag_511:\n        /* \"bep-20.sol\":7989:7997  newOwner */\n      dup1\n        /* \"bep-20.sol\":7960:7998  OwnershipTransferred(_owner, newOwner) */\n      0xffffffffffffffffffffffffffffffffffffffff\n      and\n        /* \"bep-20.sol\":7981:7987  _owner */\n      0x02\n      0x01\n      swap1\n      sload\n      swap1\n      0x0100\n      exp\n      swap1\n      div\n      0xffffffffffffffffffffffffffffffffffffffff\n      and\n        /* \"bep-20.sol\":7960:7998  OwnershipTransferred(_owner, newOwner) */\n      0xffffffffffffffffffffffffffffffffffffffff\n      and\n      0x8be0079c531659141344cd1fd0a4f28419497f9722a3daafe3b4186f6b6457e0\n      mload(0x40)\n      mload(0x40)\n      dup1\n      swap2\n      sub\n      swap1\n      log3\n        /* \"bep-20.sol\":8017:8025  newOwner */\n      dup1\n        /* \"bep-20.sol\":8008:8014  _owner */\n      0x02\n      0x01\n        /* \"bep-20.sol\":8008:8025  _owner = newOwner */\n      0x0100\n      exp\n      dup2\n      sload\n      dup2\n      0xffffffffffffffffffffffffffffffffffffffff\n      mul\n      not\n      and\n      swap1\n      dup4\n      0xffffffffffffffffffffffffffffffffffffffff\n      and\n      mul\n      or\n      swap1\n      sstore\n      pop\n        /* \"bep-20.sol\":7849:8032  function _transferOwnership(address newOwner) internal {... */\n      pop\n      jump\t// out\n        /* \"bep-20.sol\":2728:2944  function div(... */\n    tag_466:\n        /* \"bep-20.sol\":2844:2851  uint256 */\n      0x00\n        /* \"bep-20.sol\":2875:2876  0 */\n      dup1\n        /* \"bep-20.sol\":2871:2872  b */\n      dup4\n        /* \"bep-20.sol\":2871:2876  b > 0 */\n      gt\n        /* \"bep-20.sol\":2878:2890  errorMessage */\n      dup3\n        /* \"bep-20.sol\":2863:2891  require(b > 0, errorMessage) */\n      swap1\n      tag_513\n      jumpi\n      mload(0x40)\n      0x08c379a000000000000000000000000000000000000000000000000000000000\n      dup2\n      mstore\n      0x04\n      add\n      dup1\n      dup1\n      0x20\n      add\n      dup3\n      dup2\n      sub\n      dup3\n      mstore\n      dup4\n      dup2\n      dup2\n      mload\n      dup2\n      mstore\n      0x20\n      add\n      swap2\n      pop\n      dup1\n      mload\n      swap1\n      0x20\n      add\n      swap1\n      dup1\n      dup4\n      dup4\n      0x00\n    tag_514:\n      dup4\n      dup2\n      lt\n      iszero\n      tag_516\n      jumpi\n      dup1\n      dup3\n      add\n      mload\n      dup2\n      dup5\n      add\n      mstore\n      0x20\n      dup2\n      add\n      swap1\n      pop\n      jump(tag_514)\n    tag_516:\n      pop\n      pop\n      pop\n      pop\n      swap1\n      pop\n      swap1\n      dup2\n      add\n      swap1\n      0x1f\n      and\n      dup1\n      iszero\n      tag_517\n      jumpi\n      dup1\n      dup3\n      sub\n      dup1\n      mload\n      0x01\n      dup4\n      0x20\n      sub\n      0x0100\n      exp\n      sub\n      not\n      and\n      dup2\n      mstore\n      0x20\n      add\n      swap2\n      pop\n    tag_517:\n      pop\n      swap3\n      pop\n      pop\n      pop\n      mload(0x40)\n      dup1\n      swap2\n      sub\n      swap1\n      revert\n    tag_513:\n      pop\n        /* \"bep-20.sol\":2901:2910  uint256 c */\n      0x00\n        /* \"bep-20.sol\":2917:2918  b */\n      dup4\n        /* \"bep-20.sol\":2913:2914  a */\n      dup6\n        /* \"bep-20.sol\":2913:2918  a / b */\n      dup2\n      tag_518\n      jumpi\n      invalid\n    tag_518:\n      div\n        /* \"bep-20.sol\":2901:2918  uint256 c = a / b */\n      swap1\n      pop\n        /* \"bep-20.sol\":2936:2937  c */\n      dup1\n        /* \"bep-20.sol\":2929:2937  return c */\n      swap2\n      pop\n      pop\n        /* \"bep-20.sol\":2728:2944  function div(... */\n      swap4\n      swap3\n      pop\n      pop\n      pop\n      jump\t// out\n        /* \"bep-20.sol\":12200:12530  function _basicTransfer(... */\n    tag_481:\n        /* \"bep-20.sol\":12314:12318  bool */\n      0x00\n        /* \"bep-20.sol\":12330:12347  uint256 gonAmount */\n      dup1\n        /* \"bep-20.sol\":12350:12378  amount.mul(_gonsPerFragment) */\n      tag_520\n        /* \"bep-20.sol\":12361:12377  _gonsPerFragment */\n      sload(0x19)\n        /* \"bep-20.sol\":12350:12356  amount */\n      dup5\n        /* \"bep-20.sol\":12350:12360  amount.mul */\n      tag_429\n      swap1\n        /* \"bep-20.sol\":12350:12378  amount.mul(_gonsPerFragment) */\n      swap2\n      swap1\n      0xffffffff\n      and\n      jump\t// in\n    tag_520:\n        /* \"bep-20.sol\":12330:12378  uint256 gonAmount = amount.mul(_gonsPerFragment) */\n      swap1\n      pop\n        /* \"bep-20.sol\":12409:12442  _gonBalances[from].sub(gonAmount) */\n      tag_521\n        /* \"bep-20.sol\":12432:12441  gonAmount */\n      dup2\n        /* \"bep-20.sol\":12409:12421  _gonBalances */\n      0x1a\n        /* \"bep-20.sol\":12409:12427  _gonBalances[from] */\n      0x00\n        /* \"bep-20.sol\":12422:12426  from */\n      dup9\n        /* \"bep-20.sol\":12409:12427  _gonBalances[from] */\n      0xffffffffffffffffffffffffffffffffffffffff\n      and\n      0xffffffffffffffffffffffffffffffffffffffff\n      and\n      dup2\n      mstore\n      0x20\n      add\n      swap1\n      dup2\n      mstore\n      0x20\n      add\n      0x00\n      keccak256\n      sload\n        /* \"bep-20.sol\":12409:12431  _gonBalances[from].sub */\n      tag_316\n      swap1\n        /* \"bep-20.sol\":12409:12442  _gonBalances[from].sub(gonAmount) */\n      swap2\n      swap1\n      0xffffffff\n      and\n      jump\t// in\n    tag_521:\n        /* \"bep-20.sol\":12388:12400  _gonBalances */\n      0x1a\n        /* \"bep-20.sol\":12388:12406  _gonBalances[from] */\n      0x00\n        /* \"bep-20.sol\":12401:12405  from */\n      dup8\n        /* \"bep-20.sol\":12388:12406  _gonBalances[from] */\n      0xffffffffffffffffffffffffffffffffffffffff\n      and\n      0xffffffffffffffffffffffffffffffffffffffff\n      and\n      dup2\n      mstore\n      0x20\n      add\n      swap1\n      dup2\n      mstore\n      0x20\n      add\n      0x00\n      keccak256\n        /* \"bep-20.sol\":12388:12442  _gonBalances[from] = _gonBalances[from].sub(gonAmount) */\n      dup2\n      swap1\n      sstore\n      pop\n        /* \"bep-20.sol\":12471:12502  _gonBalances[to].add(gonAmount) */\n      tag_522\n        /* \"bep-20.sol\":12492:12501  gonAmount */\n      dup2\n        /* \"bep-20.sol\":12471:12483  _gonBalances */\n      0x1a\n        /* \"bep-20.sol\":12471:12487  _gonBalances[to] */\n      0x00\n        /* \"bep-20.sol\":12484:12486  to */\n      dup8\n        /* \"bep-20.sol\":12471:12487  _gonBalances[to] */\n      0xffffffffffffffffffffffffffffffffffffffff\n      and\n      0xffffffffffffffffffffffffffffffffffffffff\n      and\n      dup2\n      mstore\n      0x20\n      add\n      swap1\n      dup2\n      mstore\n      0x20\n      add\n      0x00\n      keccak256\n      sload\n        /* \"bep-20.sol\":12471:12491  _gonBalances[to].add */\n      tag_275\n      swap1\n        /* \"bep-20.sol\":12471:12502  _gonBalances[to].add(gonAmount) */\n      swap2\n      swap1\n      0xffffffff\n      and\n      jump\t// in\n    tag_522:\n        /* \"bep-20.sol\":12452:12464  _gonBalances */\n      0x1a\n        /* \"bep-20.sol\":12452:12468  _gonBalances[to] */\n      0x00\n        /* \"bep-20.sol\":12465:12467  to */\n      dup7\n        /* \"bep-20.sol\":12452:12468  _gonBalances[to] */\n      0xffffffffffffffffffffffffffffffffffffffff\n      and\n      0xffffffffffffffffffffffffffffffffffffffff\n      and\n      dup2\n      mstore\n      0x20\n      add\n      swap1\n      dup2\n      mstore\n      0x20\n      add\n      0x00\n      keccak256\n        /* \"bep-20.sol\":12452:12502  _gonBalances[to] = _gonBalances[to].add(gonAmount) */\n      dup2\n      swap1\n      sstore\n      pop\n        /* \"bep-20.sol\":12519:12523  true */\n      0x01\n        /* \"bep-20.sol\":12512:12523  return true */\n      swap2\n      pop\n      pop\n        /* \"bep-20.sol\":12200:12530  function _basicTransfer(... */\n      swap4\n      swap3\n      pop\n      pop\n      pop\n      jump\t// out\n        /* \"bep-20.sol\":18983:19205  function shouldSwapBack() internal view returns (bool) {... */\n    tag_484:\n        /* \"bep-20.sol\":19032:19036  bool */\n      0x00\n        /* \"bep-20.sol\":19081:19085  pair */\n      0x15\n      0x00\n      swap1\n      sload\n      swap1\n      0x0100\n      exp\n      swap1\n      div\n      0xffffffffffffffffffffffffffffffffffffffff\n      and\n        /* \"bep-20.sol\":19067:19085  msg.sender != pair */\n      0xffffffffffffffffffffffffffffffffffffffff\n      and\n        /* \"bep-20.sol\":19067:19077  msg.sender */\n      caller\n        /* \"bep-20.sol\":19067:19085  msg.sender != pair */\n      0xffffffffffffffffffffffffffffffffffffffff\n      and\n      eq\n      iszero\n        /* \"bep-20.sol\":19067:19108  msg.sender != pair &&... */\n      dup1\n      iszero\n      tag_524\n      jumpi\n      pop\n        /* \"bep-20.sol\":19102:19108  inSwap */\n      0x17\n      0x00\n      swap1\n      sload\n      swap1\n      0x0100\n      exp\n      swap1\n      div\n      0xff\n      and\n        /* \"bep-20.sol\":19101:19108  !inSwap */\n      iszero\n        /* \"bep-20.sol\":19067:19108  msg.sender != pair &&... */\n    tag_524:\n        /* \"bep-20.sol\":19067:19135  msg.sender != pair &&... */\n      dup1\n      iszero\n      tag_525\n      jumpi\n      pop\n        /* \"bep-20.sol\":19124:19135  swapEnabled */\n      0x15\n      0x14\n      swap1\n      sload\n      swap1\n      0x0100\n      exp\n      swap1\n      div\n      0xff\n      and\n        /* \"bep-20.sol\":19067:19135  msg.sender != pair &&... */\n    tag_525:\n        /* \"bep-20.sol\":19067:19198  msg.sender != pair &&... */\n      dup1\n      iszero\n      tag_526\n      jumpi\n      pop\n        /* \"bep-20.sol\":19182:19198  gonSwapThreshold */\n      sload(0x16)\n        /* \"bep-20.sol\":19151:19163  _gonBalances */\n      0x1a\n        /* \"bep-20.sol\":19151:19178  _gonBalances[address(this)] */\n      0x00\n        /* \"bep-20.sol\":19172:19176  this */\n      address\n        /* \"bep-20.sol\":19151:19178  _gonBalances[address(this)] */\n      0xffffffffffffffffffffffffffffffffffffffff\n      and\n      0xffffffffffffffffffffffffffffffffffffffff\n      and\n      dup2\n      mstore\n      0x20\n      add\n      swap1\n      dup2\n      mstore\n      0x20\n      add\n      0x00\n      keccak256\n      sload\n        /* \"bep-20.sol\":19151:19198  _gonBalances[address(this)] >= gonSwapThreshold */\n      lt\n      iszero\n        /* \"bep-20.sol\":19067:19198  msg.sender != pair &&... */\n    tag_526:\n        /* \"bep-20.sol\":19048:19198  return... */\n      swap1\n      pop\n        /* \"bep-20.sol\":18983:19205  function shouldSwapBack() internal view returns (bool) {... */\n      swap1\n      jump\t// out\n        /* \"bep-20.sol\":13896:15879  function swapBack() internal swapping {... */\n    tag_487:\n        /* \"bep-20.sol\":9698:9702  true */\n      0x01\n        /* \"bep-20.sol\":9689:9695  inSwap */\n      0x17\n      0x00\n        /* \"bep-20.sol\":9689:9702  inSwap = true */\n      0x0100\n      exp\n      dup2\n      sload\n      dup2\n      0xff\n      mul\n      not\n      and\n      swap1\n      dup4\n      iszero\n      iszero\n      mul\n      or\n      swap1\n      sstore\n      pop\n        /* \"bep-20.sol\":13944:13971  uint256 dynamicLiquidityFee */\n      0x00\n        /* \"bep-20.sol\":13974:14068  isOverLiquified(... */\n      tag_529\n        /* \"bep-20.sol\":14003:14018  targetLiquidity */\n      sload(0x12)\n        /* \"bep-20.sol\":14032:14058  targetLiquidityDenominator */\n      sload(0x13)\n        /* \"bep-20.sol\":13974:13989  isOverLiquified */\n      tag_90\n        /* \"bep-20.sol\":13974:14068  isOverLiquified(... */\n      jump\t// in\n    tag_529:\n        /* \"bep-20.sol\":13974:14111  isOverLiquified(... */\n      tag_530\n      jumpi\n        /* \"bep-20.sol\":14099:14111  liquidityFee */\n      sload(0x07)\n        /* \"bep-20.sol\":13974:14111  isOverLiquified(... */\n      jump(tag_531)\n    tag_530:\n        /* \"bep-20.sol\":14083:14084  0 */\n      0x00\n        /* \"bep-20.sol\":13974:14111  isOverLiquified(... */\n    tag_531:\n        /* \"bep-20.sol\":13944:14111  uint256 dynamicLiquidityFee = isOverLiquified(... */\n      swap1\n      pop\n        /* \"bep-20.sol\":14121:14149  uint256 contractTokenBalance */\n      0x00\n        /* \"bep-20.sol\":14152:14223  _gonBalances[address(this)].div(... */\n      tag_532\n        /* \"bep-20.sol\":14197:14213  _gonsPerFragment */\n      sload(0x19)\n        /* \"bep-20.sol\":14152:14164  _gonBalances */\n      0x1a\n        /* \"bep-20.sol\":14152:14179  _gonBalances[address(this)] */\n      0x00\n        /* \"bep-20.sol\":14173:14177  this */\n      address\n        /* \"bep-20.sol\":14152:14179  _gonBalances[address(this)] */\n      0xffffffffffffffffffffffffffffffffffffffff\n      and\n      0xffffffffffffffffffffffffffffffffffffffff\n      and\n      dup2\n      mstore\n      0x20\n      add\n      swap1\n      dup2\n      mstore\n      0x20\n      add\n      0x00\n      keccak256\n      sload\n        /* \"bep-20.sol\":14152:14183  _gonBalances[address(this)].div */\n      tag_276\n      swap1\n        /* \"bep-20.sol\":14152:14223  _gonBalances[address(this)].div(... */\n      swap2\n      swap1\n      0xffffffff\n      and\n      jump\t// in\n    tag_532:\n        /* \"bep-20.sol\":14121:14223  uint256 contractTokenBalance = _gonBalances[address(this)].div(... */\n      swap1\n      pop\n        /* \"bep-20.sol\":14233:14256  uint256 amountToLiquify */\n      0x00\n        /* \"bep-20.sol\":14259:14364  contractTokenBalance... */\n      tag_533\n        /* \"bep-20.sol\":14362:14363  2 */\n      0x02\n        /* \"bep-20.sol\":14259:14344  contractTokenBalance... */\n      tag_534\n        /* \"bep-20.sol\":14335:14343  totalFee */\n      sload(0x0b)\n        /* \"bep-20.sol\":14259:14317  contractTokenBalance... */\n      tag_535\n        /* \"bep-20.sol\":14297:14316  dynamicLiquidityFee */\n      dup8\n        /* \"bep-20.sol\":14259:14279  contractTokenBalance */\n      dup8\n        /* \"bep-20.sol\":14259:14296  contractTokenBalance... */\n      tag_429\n      swap1\n        /* \"bep-20.sol\":14259:14317  contractTokenBalance... */\n      swap2\n      swap1\n      0xffffffff\n      and\n      jump\t// in\n    tag_535:\n        /* \"bep-20.sol\":14259:14334  contractTokenBalance... */\n      tag_276\n      swap1\n        /* \"bep-20.sol\":14259:14344  contractTokenBalance... */\n      swap2\n      swap1\n      0xffffffff\n      and\n      jump\t// in\n    tag_534:\n        /* \"bep-20.sol\":14259:14361  contractTokenBalance... */\n      tag_276\n      swap1\n        /* \"bep-20.sol\":14259:14364  contractTokenBalance... */\n      swap2\n      swap1\n      0xffffffff\n      and\n      jump\t// in\n    tag_533:\n        /* \"bep-20.sol\":14233:14364  uint256 amountToLiquify = contractTokenBalance... */\n      swap1\n      pop\n        /* \"bep-20.sol\":14374:14394  uint256 amountToSwap */\n      0x00\n        /* \"bep-20.sol\":14397:14438  contractTokenBalance.sub(amountToLiquify) */\n      tag_536\n        /* \"bep-20.sol\":14422:14437  amountToLiquify */\n      dup3\n        /* \"bep-20.sol\":14397:14417  contractTokenBalance */\n      dup5\n        /* \"bep-20.sol\":14397:14421  contractTokenBalance.sub */\n      tag_316\n      swap1\n        /* \"bep-20.sol\":14397:14438  contractTokenBalance.sub(amountToLiquify) */\n      swap2\n      swap1\n      0xffffffff\n      and\n      jump\t// in\n    tag_536:\n        /* \"bep-20.sol\":14374:14438  uint256 amountToSwap = contractTokenBalance.sub(amountToLiquify) */\n      swap1\n      pop\n        /* \"bep-20.sol\":14449:14470  address[] memory path */\n      0x00\n        /* \"bep-20.sol\":14487:14488  2 */\n      0x02\n        /* \"bep-20.sol\":14473:14489  new address[](2) */\n      0xffffffffffffffff\n      dup2\n      gt\n      dup1\n      iszero\n      tag_537\n      jumpi\n      0x00\n      dup1\n      revert\n    tag_537:\n      pop\n      mload(0x40)\n      swap1\n      dup1\n      dup3\n      mstore\n      dup1\n      0x20\n      mul\n      0x20\n      add\n      dup3\n      add\n      0x40\n      mstore\n      dup1\n      iszero\n      tag_538\n      jumpi\n      dup2\n      0x20\n      add\n      0x20\n      dup3\n      mul\n      dup1\n      calldatasize\n      dup4\n      calldatacopy\n      dup1\n      dup3\n      add\n      swap2\n      pop\n      pop\n      swap1\n      pop\n    tag_538:\n      pop\n        /* \"bep-20.sol\":14449:14489  address[] memory path = new address[](2) */\n      swap1\n      pop\n        /* \"bep-20.sol\":14517:14521  this */\n      address\n        /* \"bep-20.sol\":14499:14503  path */\n      dup2\n        /* \"bep-20.sol\":14504:14505  0 */\n      0x00\n        /* \"bep-20.sol\":14499:14506  path[0] */\n      dup2\n      mload\n      dup2\n      lt\n      tag_539\n      jumpi\n      invalid\n    tag_539:\n      0x20\n      mul\n      0x20\n      add\n      add\n        /* \"bep-20.sol\":14499:14522  path[0] = address(this) */\n      swap1\n      0xffffffffffffffffffffffffffffffffffffffff\n      and\n      swap1\n      dup2\n      0xffffffffffffffffffffffffffffffffffffffff\n      and\n      dup2\n      mstore\n      pop\n      pop\n        /* \"bep-20.sol\":14542:14548  router */\n      0x14\n      0x00\n      swap1\n      sload\n      swap1\n      0x0100\n      exp\n      swap1\n      div\n      0xffffffffffffffffffffffffffffffffffffffff\n      and\n        /* \"bep-20.sol\":14542:14553  router.WETH */\n      0xffffffffffffffffffffffffffffffffffffffff\n      and\n      0xad5c4648\n        /* \"bep-20.sol\":14542:14555  router.WETH() */\n      mload(0x40)\n      dup2\n      0xffffffff\n      and\n      0xe0\n      shl\n      dup2\n      mstore\n      0x04\n      add\n      0x20\n      mload(0x40)\n      dup1\n      dup4\n      sub\n      dup2\n      dup7\n      dup1\n      extcodesize\n      iszero\n      dup1\n      iszero\n      tag_540\n      jumpi\n      0x00\n      dup1\n      revert\n    tag_540:\n      pop\n      gas\n      staticcall\n      iszero\n      dup1\n      iszero\n      tag_542\n      jumpi\n      returndatasize\n      0x00\n      dup1\n      returndatacopy\n      revert(0x00, returndatasize)\n    tag_542:\n      pop\n      pop\n      pop\n      pop\n      mload(0x40)\n      returndatasize\n      0x20\n      dup2\n      lt\n      iszero\n      tag_543\n      jumpi\n      0x00\n      dup1\n      revert\n    tag_543:\n      dup2\n      add\n      swap1\n      dup1\n      dup1\n      mload\n      swap1\n      0x20\n      add\n      swap1\n      swap3\n      swap2\n      swap1\n      pop\n      pop\n      pop\n        /* \"bep-20.sol\":14532:14536  path */\n      dup2\n        /* \"bep-20.sol\":14537:14538  1 */\n      0x01\n        /* \"bep-20.sol\":14532:14539  path[1] */\n      dup2\n      mload\n      dup2\n      lt\n      tag_544\n      jumpi\n      invalid\n    tag_544:\n      0x20\n      mul\n      0x20\n      add\n      add\n        /* \"bep-20.sol\":14532:14555  path[1] = router.WETH() */\n      swap1\n      0xffffffffffffffffffffffffffffffffffffffff\n      and\n      swap1\n      dup2\n      0xffffffffffffffffffffffffffffffffffffffff\n      and\n      dup2\n      mstore\n      pop\n      pop\n        /* \"bep-20.sol\":14566:14587  uint256 balanceBefore */\n      0x00\n        /* \"bep-20.sol\":14590:14611  address(this).balance */\n      selfbalance\n        /* \"bep-20.sol\":14566:14611  uint256 balanceBefore = address(this).balance */\n      swap1\n      pop\n        /* \"bep-20.sol\":14622:14628  router */\n      0x14\n      0x00\n      swap1\n      sload\n      swap1\n      0x0100\n      exp\n      swap1\n      div\n      0xffffffffffffffffffffffffffffffffffffffff\n      and\n        /* \"bep-20.sol\":14622:14679  router.swapExactTokensForETHSupportingFeeOnTransferTokens */\n      0xffffffffffffffffffffffffffffffffffffffff\n      and\n      0x791ac947\n        /* \"bep-20.sol\":14693:14705  amountToSwap */\n      dup5\n        /* \"bep-20.sol\":14719:14720  0 */\n      0x00\n        /* \"bep-20.sol\":14734:14738  path */\n      dup6\n        /* \"bep-20.sol\":14760:14764  this */\n      address\n        /* \"bep-20.sol\":14779:14794  block.timestamp */\n      timestamp\n        /* \"bep-20.sol\":14622:14804  router.swapExactTokensForETHSupportingFeeOnTransferTokens(... */\n      mload(0x40)\n      dup7\n      0xffffffff\n      and\n      0xe0\n      shl\n      dup2\n      mstore\n      0x04\n      add\n      dup1\n      dup7\n      dup2\n      mstore\n      0x20\n      add\n      dup6\n      dup2\n      mstore\n      0x20\n      add\n      dup1\n      0x20\n      add\n      dup5\n      0xffffffffffffffffffffffffffffffffffffffff\n      and\n      dup2\n      mstore\n      0x20\n      add\n      dup4\n      dup2\n      mstore\n      0x20\n      add\n      dup3\n      dup2\n      sub\n      dup3\n      mstore\n      dup6\n      dup2\n      dup2\n      mload\n      dup2\n      mstore\n      0x20\n      add\n      swap2\n      pop\n      dup1\n      mload\n      swap1\n      0x20\n      add\n      swap1\n      0x20\n      mul\n      dup1\n      dup4\n      dup4\n      0x00\n    tag_545:\n      dup4\n      dup2\n      lt\n      iszero\n      tag_547\n      jumpi\n      dup1\n      dup3\n      add\n      mload\n      dup2\n      dup5\n      add\n      mstore\n      0x20\n      dup2\n      add\n      swap1\n      pop\n      jump(tag_545)\n    tag_547:\n      pop\n      pop\n      pop\n      pop\n      swap1\n      pop\n      add\n      swap7\n      pop\n      pop\n      pop\n      pop\n      pop\n      pop\n      pop\n      0x00\n      mload(0x40)\n      dup1\n      dup4\n      sub\n      dup2\n      0x00\n      dup8\n      dup1\n      extcodesize\n      iszero\n      dup1\n      iszero\n      tag_548\n      jumpi\n      0x00\n      dup1\n      revert\n    tag_548:\n      pop\n      gas\n      call\n      iszero\n      dup1\n      iszero\n      tag_550\n      jumpi\n      returndatasize\n      0x00\n      dup1\n      returndatacopy\n      revert(0x00, returndatasize)\n    tag_550:\n      pop\n      pop\n      pop\n      pop\n        /* \"bep-20.sol\":14815:14832  uint256 amountETH */\n      0x00\n        /* \"bep-20.sol\":14835:14875  address(this).balance.sub(balanceBefore) */\n      tag_551\n        /* \"bep-20.sol\":14861:14874  balanceBefore */\n      dup3\n        /* \"bep-20.sol\":14835:14856  address(this).balance */\n      selfbalance\n        /* \"bep-20.sol\":14835:14860  address(this).balance.sub */\n      tag_316\n      swap1\n        /* \"bep-20.sol\":14835:14875  address(this).balance.sub(balanceBefore) */\n      swap2\n      swap1\n      0xffffffff\n      and\n      jump\t// in\n    tag_551:\n        /* \"bep-20.sol\":14815:14875  uint256 amountETH = address(this).balance.sub(balanceBefore) */\n      swap1\n      pop\n        /* \"bep-20.sol\":14886:14905  uint256 totalETHFee */\n      0x00\n        /* \"bep-20.sol\":14908:14948  totalFee.sub(dynamicLiquidityFee.div(2)) */\n      tag_552\n        /* \"bep-20.sol\":14921:14947  dynamicLiquidityFee.div(2) */\n      tag_553\n        /* \"bep-20.sol\":14945:14946  2 */\n      0x02\n        /* \"bep-20.sol\":14921:14940  dynamicLiquidityFee */\n      dup11\n        /* \"bep-20.sol\":14921:14944  dynamicLiquidityFee.div */\n      tag_276\n      swap1\n        /* \"bep-20.sol\":14921:14947  dynamicLiquidityFee.div(2) */\n      swap2\n      swap1\n      0xffffffff\n      and\n      jump\t// in\n    tag_553:\n        /* \"bep-20.sol\":14908:14916  totalFee */\n      sload(0x0b)\n        /* \"bep-20.sol\":14908:14920  totalFee.sub */\n      tag_316\n      swap1\n        /* \"bep-20.sol\":14908:14948  totalFee.sub(dynamicLiquidityFee.div(2)) */\n      swap2\n      swap1\n      0xffffffff\n      and\n      jump\t// in\n    tag_552:\n        /* \"bep-20.sol\":14886:14948  uint256 totalETHFee = totalFee.sub(dynamicLiquidityFee.div(2)) */\n      swap1\n      pop\n        /* \"bep-20.sol\":14959:14985  uint256 amountETHLiquidity */\n      0x00\n        /* \"bep-20.sol\":14988:15085  amountETH... */\n      tag_554\n        /* \"bep-20.sol\":15083:15084  2 */\n      0x02\n        /* \"bep-20.sol\":14988:15065  amountETH... */\n      tag_555\n        /* \"bep-20.sol\":15053:15064  totalETHFee */\n      dup5\n        /* \"bep-20.sol\":14988:15035  amountETH... */\n      tag_556\n        /* \"bep-20.sol\":15015:15034  dynamicLiquidityFee */\n      dup14\n        /* \"bep-20.sol\":14988:14997  amountETH */\n      dup9\n        /* \"bep-20.sol\":14988:15014  amountETH... */\n      tag_429\n      swap1\n        /* \"bep-20.sol\":14988:15035  amountETH... */\n      swap2\n      swap1\n      0xffffffff\n      and\n      jump\t// in\n    tag_556:\n        /* \"bep-20.sol\":14988:15052  amountETH... */\n      tag_276\n      swap1\n        /* \"bep-20.sol\":14988:15065  amountETH... */\n      swap2\n      swap1\n      0xffffffff\n      and\n      jump\t// in\n    tag_555:\n        /* \"bep-20.sol\":14988:15082  amountETH... */\n      tag_276\n      swap1\n        /* \"bep-20.sol\":14988:15085  amountETH... */\n      swap2\n      swap1\n      0xffffffff\n      and\n      jump\t// in\n    tag_554:\n        /* \"bep-20.sol\":14959:15085  uint256 amountETHLiquidity = amountETH... */\n      swap1\n      pop\n        /* \"bep-20.sol\":15095:15125  uint256 amountETHRiskFreeValue */\n      0x00\n        /* \"bep-20.sol\":15128:15173  amountETH.mul(RiskFreeValue).div(totalETHFee) */\n      tag_557\n        /* \"bep-20.sol\":15161:15172  totalETHFee */\n      dup4\n        /* \"bep-20.sol\":15128:15156  amountETH.mul(RiskFreeValue) */\n      tag_558\n        /* \"bep-20.sol\":15142:15155  RiskFreeValue */\n      sload(0x09)\n        /* \"bep-20.sol\":15128:15137  amountETH */\n      dup8\n        /* \"bep-20.sol\":15128:15141  amountETH.mul */\n      tag_429\n      swap1\n        /* \"bep-20.sol\":15128:15156  amountETH.mul(RiskFreeValue) */\n      swap2\n      swap1\n      0xffffffff\n      and\n      jump\t// in\n    tag_558:\n        /* \"bep-20.sol\":15128:15160  amountETH.mul(RiskFreeValue).div */\n      tag_276\n      swap1\n        /* \"bep-20.sol\":15128:15173  amountETH.mul(RiskFreeValue).div(totalETHFee) */\n      swap2\n      swap1\n      0xffffffff\n      and\n      jump\t// in\n    tag_557:\n        /* \"bep-20.sol\":15095:15173  uint256 amountETHRiskFreeValue = amountETH.mul(RiskFreeValue).div(totalETHFee) */\n      swap1\n      pop\n        /* \"bep-20.sol\":15183:15208  uint256 amountETHTreasury */\n      0x00\n        /* \"bep-20.sol\":15211:15273  amountETH.mul(Treasury).div(... */\n      tag_559\n        /* \"bep-20.sol\":15252:15263  totalETHFee */\n      dup5\n        /* \"bep-20.sol\":15211:15234  amountETH.mul(Treasury) */\n      tag_560\n        /* \"bep-20.sol\":15225:15233  Treasury */\n      sload(0x08)\n        /* \"bep-20.sol\":15211:15220  amountETH */\n      dup9\n        /* \"bep-20.sol\":15211:15224  amountETH.mul */\n      tag_429\n      swap1\n        /* \"bep-20.sol\":15211:15234  amountETH.mul(Treasury) */\n      swap2\n      swap1\n      0xffffffff\n      and\n      jump\t// in\n    tag_560:\n        /* \"bep-20.sol\":15211:15238  amountETH.mul(Treasury).div */\n      tag_276\n      swap1\n        /* \"bep-20.sol\":15211:15273  amountETH.mul(Treasury).div(... */\n      swap2\n      swap1\n      0xffffffff\n      and\n      jump\t// in\n    tag_559:\n        /* \"bep-20.sol\":15183:15273  uint256 amountETHTreasury = amountETH.mul(Treasury).div(... */\n      swap1\n      pop\n        /* \"bep-20.sol\":15285:15297  bool success */\n      0x00\n        /* \"bep-20.sol\":15311:15327  TreasuryReceiver */\n      0x10\n      0x00\n      swap1\n      sload\n      swap1\n      0x0100\n      exp\n      swap1\n      div\n      0xffffffffffffffffffffffffffffffffffffffff\n      and\n        /* \"bep-20.sol\":15303:15333  payable(TreasuryReceiver).call */\n      0xffffffffffffffffffffffffffffffffffffffff\n      and\n        /* \"bep-20.sol\":15354:15371  amountETHTreasury */\n      dup3\n        /* \"bep-20.sol\":15390:15395  30000 */\n      0x7530\n        /* \"bep-20.sol\":15303:15409  payable(TreasuryReceiver).call{... */\n      swap1\n      mload(0x40)\n      dup1\n      0x00\n      add\n      swap1\n      pop\n      0x00\n      mload(0x40)\n      dup1\n      dup4\n      sub\n      dup2\n      dup6\n      dup9\n      dup9\n      call\n      swap4\n      pop\n      pop\n      pop\n      pop\n      returndatasize\n      dup1\n      0x00\n      dup2\n      eq\n      tag_563\n      jumpi\n      mload(0x40)\n      swap2\n      pop\n      and(add(returndatasize, 0x3f), not(0x1f))\n      dup3\n      add\n      0x40\n      mstore\n      returndatasize\n      dup3\n      mstore\n      returndatasize\n      0x00\n      0x20\n      dup5\n      add\n      returndatacopy\n      jump(tag_562)\n    tag_563:\n      0x60\n      swap2\n      pop\n    tag_562:\n      pop\n        /* \"bep-20.sol\":15284:15409  (bool success, ) = payable(TreasuryReceiver).call{... */\n      pop\n      swap1\n      pop\n        /* \"bep-20.sol\":15441:15462  RiskFreeValueReceiver */\n      0x11\n      0x00\n      swap1\n      sload\n      swap1\n      0x0100\n      exp\n      swap1\n      div\n      0xffffffffffffffffffffffffffffffffffffffff\n      and\n        /* \"bep-20.sol\":15433:15468  payable(RiskFreeValueReceiver).call */\n      0xffffffffffffffffffffffffffffffffffffffff\n      and\n        /* \"bep-20.sol\":15489:15511  amountETHRiskFreeValue */\n      dup4\n        /* \"bep-20.sol\":15530:15535  30000 */\n      0x7530\n        /* \"bep-20.sol\":15433:15549  payable(RiskFreeValueReceiver).call{... */\n      swap1\n      mload(0x40)\n      dup1\n      0x00\n      add\n      swap1\n      pop\n      0x00\n      mload(0x40)\n      dup1\n      dup4\n      sub\n      dup2\n      dup6\n      dup9\n      dup9\n      call\n      swap4\n      pop\n      pop\n      pop\n      pop\n      returndatasize\n      dup1\n      0x00\n      dup2\n      eq\n      tag_566\n      jumpi\n      mload(0x40)\n      swap2\n      pop\n      and(add(returndatasize, 0x3f), not(0x1f))\n      dup3\n      add\n      0x40\n      mstore\n      returndatasize\n      dup3\n      mstore\n      returndatasize\n      0x00\n      0x20\n      dup5\n      add\n      returndatacopy\n      jump(tag_565)\n    tag_566:\n      0x60\n      swap2\n      pop\n    tag_565:\n      pop\n        /* \"bep-20.sol\":15419:15549  (success, ) = payable(RiskFreeValueReceiver).call{... */\n      pop\n      dup1\n      swap2\n      pop\n      pop\n        /* \"bep-20.sol\":15570:15575  false */\n      0x00\n        /* \"bep-20.sol\":15560:15575  success = false */\n      swap1\n      pop\n        /* \"bep-20.sol\":15608:15609  0 */\n      0x00\n        /* \"bep-20.sol\":15590:15605  amountToLiquify */\n      dup11\n        /* \"bep-20.sol\":15590:15609  amountToLiquify > 0 */\n      gt\n        /* \"bep-20.sol\":15586:15873  if (amountToLiquify > 0) {... */\n      iszero\n      tag_567\n      jumpi\n        /* \"bep-20.sol\":15625:15631  router */\n      0x14\n      0x00\n      swap1\n      sload\n      swap1\n      0x0100\n      exp\n      swap1\n      div\n      0xffffffffffffffffffffffffffffffffffffffff\n      and\n        /* \"bep-20.sol\":15625:15647  router.addLiquidityETH */\n      0xffffffffffffffffffffffffffffffffffffffff\n      and\n      0xf305d719\n        /* \"bep-20.sol\":15655:15673  amountETHLiquidity */\n      dup6\n        /* \"bep-20.sol\":15700:15704  this */\n      address\n        /* \"bep-20.sol\":15723:15738  amountToLiquify */\n      dup14\n        /* \"bep-20.sol\":15756:15757  0 */\n      0x00\n        /* \"bep-20.sol\":15775:15776  0 */\n      dup1\n        /* \"bep-20.sol\":15794:15815  autoLiquidityReceiver */\n      0x0f\n      0x00\n      swap1\n      sload\n      swap1\n      0x0100\n      exp\n      swap1\n      div\n      0xffffffffffffffffffffffffffffffffffffffff\n      and\n        /* \"bep-20.sol\":15833:15848  block.timestamp */\n      timestamp\n        /* \"bep-20.sol\":15625:15862  router.addLiquidityETH{value: amountETHLiquidity}(... */\n      mload(0x40)\n      dup9\n      0xffffffff\n      and\n      0xe0\n      shl\n      dup2\n      mstore\n      0x04\n      add\n      dup1\n      dup8\n      0xffffffffffffffffffffffffffffffffffffffff\n      and\n      dup2\n      mstore\n      0x20\n      add\n      dup7\n      dup2\n      mstore\n      0x20\n      add\n      dup6\n      dup2\n      mstore\n      0x20\n      add\n      dup5\n      dup2\n      mstore\n      0x20\n      add\n      dup4\n      0xffffffffffffffffffffffffffffffffffffffff\n      and\n      dup2\n      mstore\n      0x20\n      add\n      dup3\n      dup2\n      mstore\n      0x20\n      add\n      swap7\n      pop\n      pop\n      pop\n      pop\n      pop\n      pop\n      pop\n      0x60\n      mload(0x40)\n      dup1\n      dup4\n      sub\n      dup2\n      dup6\n      dup9\n      dup1\n      extcodesize\n      iszero\n      dup1\n      iszero\n      tag_568\n      jumpi\n      0x00\n      dup1\n      revert\n    tag_568:\n      pop\n      gas\n      call\n      iszero\n      dup1\n      iszero\n      tag_570\n      jumpi\n      returndatasize\n      0x00\n      dup1\n      returndatacopy\n      revert(0x00, returndatasize)\n    tag_570:\n      pop\n      pop\n      pop\n      pop\n      pop\n      mload(0x40)\n      returndatasize\n      0x60\n      dup2\n      lt\n      iszero\n      tag_571\n      jumpi\n      0x00\n      dup1\n      revert\n    tag_571:\n      dup2\n      add\n      swap1\n      dup1\n      dup1\n      mload\n      swap1\n      0x20\n      add\n      swap1\n      swap3\n      swap2\n      swap1\n      dup1\n      mload\n      swap1\n      0x20\n      add\n      swap1\n      swap3\n      swap2\n      swap1\n      dup1\n      mload\n      swap1\n      0x20\n      add\n      swap1\n      swap3\n      swap2\n      swap1\n      pop\n      pop\n      pop\n      pop\n      pop\n      pop\n        /* \"bep-20.sol\":15586:15873  if (amountToLiquify > 0) {... */\n    tag_567:\n        /* \"bep-20.sol\":9712:9713  _ */\n      pop\n      pop\n      pop\n      pop\n      pop\n      pop\n      pop\n      pop\n      pop\n      pop\n      pop\n      pop\n        /* \"bep-20.sol\":9732:9737  false */\n      0x00\n        /* \"bep-20.sol\":9723:9729  inSwap */\n      0x17\n      0x00\n        /* \"bep-20.sol\":9723:9737  inSwap = false */\n      0x0100\n      exp\n      dup2\n      sload\n      dup2\n      0xff\n      mul\n      not\n      and\n      swap1\n      dup4\n      iszero\n      iszero\n      mul\n      or\n      swap1\n      sstore\n      pop\n        /* \"bep-20.sol\":13896:15879  function swapBack() internal swapping {... */\n      jump\t// out\n        /* \"bep-20.sol\":18203:18358  function shouldTakeFee(address from, address to) internal view returns (bool) {... */\n    tag_490:\n        /* \"bep-20.sol\":18275:18279  bool */\n      0x00\n        /* \"bep-20.sol\":18307:18311  from */\n      dup3\n        /* \"bep-20.sol\":18299:18311  pair == from */\n      0xffffffffffffffffffffffffffffffffffffffff\n      and\n        /* \"bep-20.sol\":18299:18303  pair */\n      0x15\n      0x00\n      swap1\n      sload\n      swap1\n      0x0100\n      exp\n      swap1\n      div\n      0xffffffffffffffffffffffffffffffffffffffff\n      and\n        /* \"bep-20.sol\":18299:18311  pair == from */\n      0xffffffffffffffffffffffffffffffffffffffff\n      and\n      eq\n        /* \"bep-20.sol\":18299:18325  pair == from || pair == to */\n      dup1\n      tag_573\n      jumpi\n      pop\n        /* \"bep-20.sol\":18323:18325  to */\n      dup2\n        /* \"bep-20.sol\":18315:18325  pair == to */\n      0xffffffffffffffffffffffffffffffffffffffff\n      and\n        /* \"bep-20.sol\":18315:18319  pair */\n      0x15\n      0x00\n      swap1\n      sload\n      swap1\n      0x0100\n      exp\n      swap1\n      div\n      0xffffffffffffffffffffffffffffffffffffffff\n      and\n        /* \"bep-20.sol\":18315:18325  pair == to */\n      0xffffffffffffffffffffffffffffffffffffffff\n      and\n      eq\n        /* \"bep-20.sol\":18299:18325  pair == from || pair == to */\n    tag_573:\n        /* \"bep-20.sol\":18298:18351  (pair == from || pair == to) && (!_isFeeExempt[from]) */\n      dup1\n      iszero\n      tag_574\n      jumpi\n      pop\n        /* \"bep-20.sol\":18332:18344  _isFeeExempt */\n      0x06\n        /* \"bep-20.sol\":18332:18350  _isFeeExempt[from] */\n      0x00\n        /* \"bep-20.sol\":18345:18349  from */\n      dup5\n        /* \"bep-20.sol\":18332:18350  _isFeeExempt[from] */\n      0xffffffffffffffffffffffffffffffffffffffff\n      and\n      0xffffffffffffffffffffffffffffffffffffffff\n      and\n      dup2\n      mstore\n      0x20\n      add\n      swap1\n      dup2\n      mstore\n      0x20\n      add\n      0x00\n      keccak256\n      0x00\n      swap1\n      sload\n      swap1\n      0x0100\n      exp\n      swap1\n      div\n      0xff\n      and\n        /* \"bep-20.sol\":18331:18350  !_isFeeExempt[from] */\n      iszero\n        /* \"bep-20.sol\":18298:18351  (pair == from || pair == to) && (!_isFeeExempt[from]) */\n    tag_574:\n        /* \"bep-20.sol\":18291:18351  return (pair == from || pair == to) && (!_isFeeExempt[from]) */\n      swap1\n      pop\n        /* \"bep-20.sol\":18203:18358  function shouldTakeFee(address from, address to) internal view returns (bool) {... */\n      swap3\n      swap2\n      pop\n      pop\n      jump\t// out\n        /* \"bep-20.sol\":15885:16415  function takeFee(address sender, address recipient, uint256 gonAmount)... */\n    tag_494:\n        /* \"bep-20.sol\":15990:15997  uint256 */\n      0x00\n        /* \"bep-20.sol\":16013:16030  uint256 _totalFee */\n      dup1\n        /* \"bep-20.sol\":16033:16041  totalFee */\n      sload(0x0b)\n        /* \"bep-20.sol\":16013:16041  uint256 _totalFee = totalFee */\n      swap1\n      pop\n        /* \"bep-20.sol\":16067:16071  pair */\n      0x15\n      0x00\n      swap1\n      sload\n      swap1\n      0x0100\n      exp\n      swap1\n      div\n      0xffffffffffffffffffffffffffffffffffffffff\n      and\n        /* \"bep-20.sol\":16054:16071  recipient == pair */\n      0xffffffffffffffffffffffffffffffffffffffff\n      and\n        /* \"bep-20.sol\":16054:16063  recipient */\n      dup5\n        /* \"bep-20.sol\":16054:16071  recipient == pair */\n      0xffffffffffffffffffffffffffffffffffffffff\n      and\n      eq\n        /* \"bep-20.sol\":16051:16107  if(recipient == pair) _totalFee = _totalFee.add(sellFee) */\n      iszero\n      tag_576\n      jumpi\n        /* \"bep-20.sol\":16085:16107  _totalFee.add(sellFee) */\n      tag_577\n        /* \"bep-20.sol\":16099:16106  sellFee */\n      sload(0x0a)\n        /* \"bep-20.sol\":16085:16094  _totalFee */\n      dup3\n        /* \"bep-20.sol\":16085:16098  _totalFee.add */\n      tag_275\n      swap1\n        /* \"bep-20.sol\":16085:16107  _totalFee.add(sellFee) */\n      swap2\n      swap1\n      0xffffffff\n      and\n      jump\t// in\n    tag_577:\n        /* \"bep-20.sol\":16073:16107  _totalFee = _totalFee.add(sellFee) */\n      swap1\n      pop\n        /* \"bep-20.sol\":16051:16107  if(recipient == pair) _totalFee = _totalFee.add(sellFee) */\n    tag_576:\n        /* \"bep-20.sol\":16118:16135  uint256 feeAmount */\n      0x00\n        /* \"bep-20.sol\":16138:16182  gonAmount.mul(_totalFee).div(feeDenominator) */\n      tag_578\n        /* \"bep-20.sol\":16167:16181  feeDenominator */\n      sload(0x0c)\n        /* \"bep-20.sol\":16138:16162  gonAmount.mul(_totalFee) */\n      tag_579\n        /* \"bep-20.sol\":16152:16161  _totalFee */\n      dup5\n        /* \"bep-20.sol\":16138:16147  gonAmount */\n      dup8\n        /* \"bep-20.sol\":16138:16151  gonAmount.mul */\n      tag_429\n      swap1\n        /* \"bep-20.sol\":16138:16162  gonAmount.mul(_totalFee) */\n      swap2\n      swap1\n      0xffffffff\n      and\n      jump\t// in\n    tag_579:\n        /* \"bep-20.sol\":16138:16166  gonAmount.mul(_totalFee).div */\n      tag_276\n      swap1\n        /* \"bep-20.sol\":16138:16182  gonAmount.mul(_totalFee).div(feeDenominator) */\n      swap2\n      swap1\n      0xffffffff\n      and\n      jump\t// in\n    tag_578:\n        /* \"bep-20.sol\":16118:16182  uint256 feeAmount = gonAmount.mul(_totalFee).div(feeDenominator) */\n      swap1\n      pop\n        /* \"bep-20.sol\":16223:16287  _gonBalances[address(this)].add(... */\n      tag_580\n        /* \"bep-20.sol\":16268:16277  feeAmount */\n      dup2\n        /* \"bep-20.sol\":16223:16235  _gonBalances */\n      0x1a\n        /* \"bep-20.sol\":16223:16250  _gonBalances[address(this)] */\n      0x00\n        /* \"bep-20.sol\":16244:16248  this */\n      address\n        /* \"bep-20.sol\":16223:16250  _gonBalances[address(this)] */\n      0xffffffffffffffffffffffffffffffffffffffff\n      and\n      0xffffffffffffffffffffffffffffffffffffffff\n      and\n      dup2\n      mstore\n      0x20\n      add\n      swap1\n      dup2\n      mstore\n      0x20\n      add\n      0x00\n      keccak256\n      sload\n        /* \"bep-20.sol\":16223:16254  _gonBalances[address(this)].add */\n      tag_275\n      swap1\n        /* \"bep-20.sol\":16223:16287  _gonBalances[address(this)].add(... */\n      swap2\n      swap1\n      0xffffffff\n      and\n      jump\t// in\n    tag_580:\n        /* \"bep-20.sol\":16193:16205  _gonBalances */\n      0x1a\n        /* \"bep-20.sol\":16193:16220  _gonBalances[address(this)] */\n      0x00\n        /* \"bep-20.sol\":16214:16218  this */\n      address\n        /* \"bep-20.sol\":16193:16220  _gonBalances[address(this)] */\n      0xffffffffffffffffffffffffffffffffffffffff\n      and\n      0xffffffffffffffffffffffffffffffffffffffff\n      and\n      dup2\n      mstore\n      0x20\n      add\n      swap1\n      dup2\n      mstore\n      0x20\n      add\n      0x00\n      keccak256\n        /* \"bep-20.sol\":16193:16287  _gonBalances[address(this)] = _gonBalances[address(this)].add(... */\n      dup2\n      swap1\n      sstore\n      pop\n        /* \"bep-20.sol\":16327:16331  this */\n      address\n        /* \"bep-20.sol\":16302:16366  Transfer(sender, address(this), feeAmount.div(_gonsPerFragment)) */\n      0xffffffffffffffffffffffffffffffffffffffff\n      and\n        /* \"bep-20.sol\":16311:16317  sender */\n      dup7\n        /* \"bep-20.sol\":16302:16366  Transfer(sender, address(this), feeAmount.div(_gonsPerFragment)) */\n      0xffffffffffffffffffffffffffffffffffffffff\n      and\n      0xddf252ad1be2c89b69c2b068fc378daa952ba7f163c4a11628f55a4df523b3ef\n        /* \"bep-20.sol\":16334:16365  feeAmount.div(_gonsPerFragment) */\n      tag_581\n        /* \"bep-20.sol\":16348:16364  _gonsPerFragment */\n      sload(0x19)\n        /* \"bep-20.sol\":16334:16343  feeAmount */\n      dup6\n        /* \"bep-20.sol\":16334:16347  feeAmount.div */\n      tag_276\n      swap1\n        /* \"bep-20.sol\":16334:16365  feeAmount.div(_gonsPerFragment) */\n      swap2\n      swap1\n      0xffffffff\n      and\n      jump\t// in\n    tag_581:\n        /* \"bep-20.sol\":16302:16366  Transfer(sender, address(this), feeAmount.div(_gonsPerFragment)) */\n      mload(0x40)\n      dup1\n      dup3\n      dup2\n      mstore\n      0x20\n      add\n      swap2\n      pop\n      pop\n      mload(0x40)\n      dup1\n      swap2\n      sub\n      swap1\n      log3\n        /* \"bep-20.sol\":16384:16408  gonAmount.sub(feeAmount) */\n      tag_582\n        /* \"bep-20.sol\":16398:16407  feeAmount */\n      dup2\n        /* \"bep-20.sol\":16384:16393  gonAmount */\n      dup6\n        /* \"bep-20.sol\":16384:16397  gonAmount.sub */\n      tag_316\n      swap1\n        /* \"bep-20.sol\":16384:16408  gonAmount.sub(feeAmount) */\n      swap2\n      swap1\n      0xffffffff\n      and\n      jump\t// in\n    tag_582:\n        /* \"bep-20.sol\":16377:16408  return gonAmount.sub(feeAmount) */\n      swap3\n      pop\n      pop\n      pop\n        /* \"bep-20.sol\":15885:16415  function takeFee(address sender, address recipient, uint256 gonAmount)... */\n      swap4\n      swap3\n      pop\n      pop\n      pop\n      jump\t// out\n        /* \"bep-20.sol\":3534:3714  function remove(Role storage role, address account) internal {... */\n    tag_501:\n        /* \"bep-20.sol\":3613:3631  has(role, account) */\n      tag_584\n        /* \"bep-20.sol\":3617:3621  role */\n      dup3\n        /* \"bep-20.sol\":3623:3630  account */\n      dup3\n        /* \"bep-20.sol\":3613:3616  has */\n      tag_421\n        /* \"bep-20.sol\":3613:3631  has(role, account) */\n      jump\t// in\n    tag_584:\n        /* \"bep-20.sol\":3605:3669  require(has(role, account), \"Roles: account does not have role\") */\n      tag_585\n      jumpi\n      mload(0x40)\n      0x08c379a000000000000000000000000000000000000000000000000000000000\n      dup2\n      mstore\n      0x04\n      add\n      dup1\n      dup1\n      0x20\n      add\n      dup3\n      dup2\n      sub\n      dup3\n      mstore\n      0x21\n      dup2\n      mstore\n      0x20\n      add\n      dup1\n      data_7bd893145ac435f339bb7c288622d270324b7033b011f693aca172f5cbc3c257\n      0x21\n      swap2\n      codecopy\n      0x40\n      add\n      swap2\n      pop\n      pop\n      mload(0x40)\n      dup1\n      swap2\n      sub\n      swap1\n      revert\n    tag_585:\n        /* \"bep-20.sol\":3702:3707  false */\n      0x00\n        /* \"bep-20.sol\":3679:3683  role */\n      dup3\n        /* \"bep-20.sol\":3679:3690  role.bearer */\n      0x00\n      add\n        /* \"bep-20.sol\":3679:3699  role.bearer[account] */\n      0x00\n        /* \"bep-20.sol\":3691:3698  account */\n      dup4\n        /* \"bep-20.sol\":3679:3699  role.bearer[account] */\n      0xffffffffffffffffffffffffffffffffffffffff\n      and\n      0xffffffffffffffffffffffffffffffffffffffff\n      and\n      dup2\n      mstore\n      0x20\n      add\n      swap1\n      dup2\n      mstore\n      0x20\n      add\n      0x00\n      keccak256\n      0x00\n        /* \"bep-20.sol\":3679:3707  role.bearer[account] = false */\n      0x0100\n      exp\n      dup2\n      sload\n      dup2\n      0xff\n      mul\n      not\n      and\n      swap1\n      dup4\n      iszero\n      iszero\n      mul\n      or\n      swap1\n      sstore\n      pop\n        /* \"bep-20.sol\":3534:3714  function remove(Role storage role, address account) internal {... */\n      pop\n      pop\n      jump\t// out\n    stop\n    data_79ecb50133735b20228dea9d08fe36a462bbc1350f591a146908848db91104cd 4d696e746572526f6c653a2063616c6c657220646f6573206e6f74206861766520746865204d696e74657220726f6c65\n    data_7bd893145ac435f339bb7c288622d270324b7033b011f693aca172f5cbc3c257 526f6c65733a206163636f756e7420646f6573206e6f74206861766520726f6c65\n    data_9113bb53c2876a3805b2c9242029423fc540a728243ce887ab24c82cf119fba3 536166654d6174683a206d756c7469706c69636174696f6e206f766572666c6f77\n    data_9d214fa89563f4e6456a3929327e54500ea1cde2c0ba9fb2035ec106190d682f 526f6c65733a206163636f756e7420697320746865207a65726f2061646472657373\n\n    auxdata: 0xa26469706673582212209e16a7b56cd6e692ece73ce41e27c29ee865af4c1265c761b81bb5e8baa5621f64736f6c63430007060033\n}\n",
				"bytecode": {
					"linkReferences": {},
					"object": "60806040526005600755600360085560056009556005600a55620000516009546200003d6008546007546200099460201b62002de81790919060201c565b6200099460201b62002de81790919060201c565b600b556064600c5561dead600d60006101000a81548173ffffffffffffffffffffffffffffffffffffffff021916908373ffffffffffffffffffffffffffffffffffffffff1602179055506000600e60006101000a81548173ffffffffffffffffffffffffffffffffffffffff021916908373ffffffffffffffffffffffffffffffffffffffff160217905550603260125560646013556001601560146101000a81548160ff021916908315150217905550612710600a6012600a0a63ee6b280002600019816200011e57fe5b066000190302816200012c57fe5b046016553480156200013d57600080fd5b506040518060400160405280600a81526020017f526176656e746f6b656e000000000000000000000000000000000000000000008152506040518060400160405280600a81526020017f526176656e746f6b656e0000000000000000000000000000000000000000000081525060128260009080519060200190620001c492919062000e5a565b508160019080519060200190620001dd92919062000e5a565b5080600260006101000a81548160ff021916908360ff16021790555050505033600260016101000a81548173ffffffffffffffffffffffffffffffffffffffff021916908373ffffffffffffffffffffffffffffffffffffffff1602179055506200024e3362000a1d60201b60201c565b7310ed43c718714eb63d5aa57b78b54704e256024e601460006101000a81548173ffffffffffffffffffffffffffffffffffffffff021916908373ffffffffffffffffffffffffffffffffffffffff160217905550601460009054906101000a900473ffffffffffffffffffffffffffffffffffffffff1673ffffffffffffffffffffffffffffffffffffffff1663c45a01556040518163ffffffff1660e01b815260040160206040518083038186803b1580156200030c57600080fd5b505afa15801562000321573d6000803e3d6000fd5b505050506040513d60208110156200033857600080fd5b810190808051906020019092919050505073ffffffffffffffffffffffffffffffffffffffff1663c9c65396601460009054906101000a900473ffffffffffffffffffffffffffffffffffffffff1673ffffffffffffffffffffffffffffffffffffffff1663ad5c46486040518163ffffffff1660e01b815260040160206040518083038186803b158015620003cd57600080fd5b505afa158015620003e2573d6000803e3d6000fd5b505050506040513d6020811015620003f957600080fd5b8101908080519060200190929190505050306040518363ffffffff1660e01b8152600401808373ffffffffffffffffffffffffffffffffffffffff1681526020018273ffffffffffffffffffffffffffffffffffffffff16815260200192505050602060405180830381600087803b1580156200047557600080fd5b505af11580156200048a573d6000803e3d6000fd5b505050506040513d6020811015620004a157600080fd5b8101908080519060200190929190505050601560006101000a81548173ffffffffffffffffffffffffffffffffffffffff021916908373ffffffffffffffffffffffffffffffffffffffff160217905550732efebb6c26e709b9240a9c102116d1831bac6319600f60006101000a81548173ffffffffffffffffffffffffffffffffffffffff021916908373ffffffffffffffffffffffffffffffffffffffff160217905550732efebb6c26e709b9240a9c102116d1831bac6319601060006101000a81548173ffffffffffffffffffffffffffffffffffffffff021916908373ffffffffffffffffffffffffffffffffffffffff160217905550732efebb6c26e709b9240a9c102116d1831bac6319601160006101000a81548173ffffffffffffffffffffffffffffffffffffffff021916908373ffffffffffffffffffffffffffffffffffffffff1602179055507fffffffffffffffffffffffffffffffffffffffffffffffffffffffffffffffff601b60003073ffffffffffffffffffffffffffffffffffffffff1673ffffffffffffffffffffffffffffffffffffffff1681526020019081526020016000206000601460009054906101000a900473ffffffffffffffffffffffffffffffffffffffff1673ffffffffffffffffffffffffffffffffffffffff1673ffffffffffffffffffffffffffffffffffffffff16815260200190815260200160002081905550601560009054906101000a900473ffffffffffffffffffffffffffffffffffffffff16600460006101000a81548173ffffffffffffffffffffffffffffffffffffffff021916908373ffffffffffffffffffffffffffffffffffffffff1602179055506012600a0a63ee6b2800026018819055506012600a0a63ee6b280002600019816200073e57fe5b0660001903601a6000601060009054906101000a900473ffffffffffffffffffffffffffffffffffffffff1673ffffffffffffffffffffffffffffffffffffffff1673ffffffffffffffffffffffffffffffffffffffff16815260200190815260200160002081905550620007de6018546012600a0a63ee6b28000260001981620007c557fe5b066000190362000a7e60201b62002e701790919060201c565b6019819055506000600460146101000a81548160ff021916908315150217905550600160066000601060009054906101000a900473ffffffffffffffffffffffffffffffffffffffff1673ffffffffffffffffffffffffffffffffffffffff1673ffffffffffffffffffffffffffffffffffffffff16815260200190815260200160002060006101000a81548160ff0219169083151502179055506001600660003073ffffffffffffffffffffffffffffffffffffffff1673ffffffffffffffffffffffffffffffffffffffff16815260200190815260200160002060006101000a81548160ff02191690831515021790555062000904601060009054906101000a900473ffffffffffffffffffffffffffffffffffffffff1662000ad060201b60201c565b601060009054906101000a900473ffffffffffffffffffffffffffffffffffffffff1673ffffffffffffffffffffffffffffffffffffffff16600073ffffffffffffffffffffffffffffffffffffffff167fddf252ad1be2c89b69c2b068fc378daa952ba7f163c4a11628f55a4df523b3ef6018546040518082815260200191505060405180910390a362000f10565b60008082840190508381101562000a13576040517f08c379a000000000000000000000000000000000000000000000000000000000815260040180806020018281038252601b8152602001807f536166654d6174683a206164646974696f6e206f766572666c6f77000000000081525060200191505060405180910390fd5b8091505092915050565b62000a3881600362000bcb60201b62002eba1790919060201c565b8073ffffffffffffffffffffffffffffffffffffffff167f6ae172837ea30b801fbfcdd4108aa1d5bf8ff775444fd70256b44e6bf3dfc3f660405160405180910390a250565b600062000ac883836040518060400160405280601a81526020017f536166654d6174683a206469766973696f6e206279207a65726f00000000000081525062000caf60201b60201c565b905092915050565b600073ffffffffffffffffffffffffffffffffffffffff168173ffffffffffffffffffffffffffffffffffffffff16141562000b0b57600080fd5b8073ffffffffffffffffffffffffffffffffffffffff16600260019054906101000a900473ffffffffffffffffffffffffffffffffffffffff1673ffffffffffffffffffffffffffffffffffffffff167f8be0079c531659141344cd1fd0a4f28419497f9722a3daafe3b4186f6b6457e060405160405180910390a380600260016101000a81548173ffffffffffffffffffffffffffffffffffffffff021916908373ffffffffffffffffffffffffffffffffffffffff16021790555050565b62000bdd828262000d7a60201b60201c565b1562000c51576040517f08c379a000000000000000000000000000000000000000000000000000000000815260040180806020018281038252601f8152602001807f526f6c65733a206163636f756e7420616c72656164792068617320726f6c650081525060200191505060405180910390fd5b60018260000160008373ffffffffffffffffffffffffffffffffffffffff1673ffffffffffffffffffffffffffffffffffffffff16815260200190815260200160002060006101000a81548160ff0219169083151502179055505050565b6000808311829062000d5f576040517f08c379a00000000000000000000000000000000000000000000000000000000081526004018080602001828103825283818151815260200191508051906020019080838360005b8381101562000d2357808201518184015260208101905062000d06565b50505050905090810190601f16801562000d515780820380516001836020036101000a031916815260200191505b509250505060405180910390fd5b50600083858162000d6c57fe5b049050809150509392505050565b60008073ffffffffffffffffffffffffffffffffffffffff168273ffffffffffffffffffffffffffffffffffffffff16141562000e03576040517f08c379a00000000000000000000000000000000000000000000000000000000081526004018080602001828103825260228152602001806200543a6022913960400191505060405180910390fd5b8260000160008373ffffffffffffffffffffffffffffffffffffffff1673ffffffffffffffffffffffffffffffffffffffff16815260200190815260200160002060009054906101000a900460ff16905092915050565b828054600181600116156101000203166002900490600052602060002090601f01602090048101928262000e92576000855562000ede565b82601f1062000ead57805160ff191683800117855562000ede565b8280016001018555821562000ede579182015b8281111562000edd57825182559160200191906001019062000ec0565b5b50905062000eed919062000ef1565b5090565b5b8082111562000f0c57600081600090555060010162000ef2565b5090565b61451a8062000f206000396000f3fe6080604052600436106103395760003560e01c8063800cee51116101ab578063bda5c8bb116100f7578063d5938aac11610095578063dd62ed3e1161006f578063dd62ed3e1461125c578063f2fde38b146112e1578063f887ea4014611332578063f9f92be41461137357610340565b8063d5938aac14611139578063d7ac65851461118a578063d7c01032146111cb57610340565b8063d1fce264116100d1578063d1fce26414610f7b578063d37e219d14610fa8578063d439979014611083578063d51ed1c8146110ea57610340565b8063bda5c8bb14610ebe578063ca33e64c14610ee9578063d088935814610f2a57610340565b806398118cb411610164578063a457c2d71161013e578063a457c2d714610d34578063a8aa1b3114610da5578063a9059cbb14610de6578063aa271e1a14610e5757610340565b806398118cb414610ca1578063983b2d5614610ccc5780639865027514610d1d57610340565b8063800cee5114610ad857806383b4ac6814610b195780638da5cb5b14610b465780638f32d59b14610b875780639155e08314610bb457806395d89b4114610c1157610340565b80633092afd51161028557806356a227f21161022357806370a08231116101fd57806370a08231146109f4578063715018a614610a59578063749796a514610a70578063753d02a114610ac157610340565b806356a227f2146109415780636d351d1a1461099c5780636ddd1713146109c757610340565b8063395093511161025f578063395093511461080957806340c10f191461087a5780634d709adf146108d5578063563df32f1461091657610340565b80633092afd514610719578063313ce5671461076a57806333f3d6281461079857610340565b80631df4ccfc116102f25780632b112e49116102cc5780632b112e491461065b5780632b14ca56146106865780632be6937d146106b15780632f34d282146106c857610340565b80631df4ccfc1461055a578063201e79911461058557806323b872dd146105ca57610340565b806304a66b481461034557806306fdde03146103a8578063095ea7b3146104385780631161ae39146104a9578063180b0d7e1461050457806318160ddd1461052f57610340565b3661034057005b600080fd5b34801561035157600080fd5b506103a6600480360360a081101561036857600080fd5b8101908080359060200190929190803590602001909291908035906020019092919080359060200190929190803590602001909291905050506113da565b005b3480156103b457600080fd5b506103bd611460565b6040518080602001828103825283818151815260200191508051906020019080838360005b838110156103fd5780820151818401526020810190506103e2565b50505050905090810190601f16801561042a5780820380516001836020036101000a031916815260200191505b509250505060405180910390f35b34801561044457600080fd5b506104916004803603604081101561045b57600080fd5b81019080803573ffffffffffffffffffffffffffffffffffffffff16906020019092919080359060200190929190505050611502565b60405180821515815260200191505060405180910390f35b3480156104b557600080fd5b506104ec600480360360408110156104cc57600080fd5b810190808035906020019092919080359060200190929190505050611670565b60405180821515815260200191505060405180910390f35b34801561051057600080fd5b50610519611685565b6040518082815260200191505060405180910390f35b34801561053b57600080fd5b5061054461168b565b6040518082815260200191505060405180910390f35b34801561056657600080fd5b5061056f611695565b6040518082815260200191505060405180910390f35b34801561059157600080fd5b506105c8600480360360408110156105a857600080fd5b81019080803590602001909291908035906020019092919050505061169b565b005b3480156105d657600080fd5b50610643600480360360608110156105ed57600080fd5b81019080803573ffffffffffffffffffffffffffffffffffffffff169060200190929190803573ffffffffffffffffffffffffffffffffffffffff169060200190929190803590602001909291905050506116be565b60405180821515815260200191505060405180910390f35b34801561066757600080fd5b506106706118fd565b6040518082815260200191505060405180910390f35b34801561069257600080fd5b5061069b611a18565b6040518082815260200191505060405180910390f35b3480156106bd57600080fd5b506106c6611a1e565b005b3480156106d457600080fd5b50610717600480360360208110156106eb57600080fd5b81019080803573ffffffffffffffffffffffffffffffffffffffff169060200190929190505050611a4c565b005b34801561072557600080fd5b506107686004803603602081101561073c57600080fd5b81019080803573ffffffffffffffffffffffffffffffffffffffff169060200190929190505050611aec565b005b34801561077657600080fd5b5061077f611b09565b604051808260ff16815260200191505060405180910390f35b3480156107a457600080fd5b506107f1600480360360408110156107bb57600080fd5b81019080803573ffffffffffffffffffffffffffffffffffffffff16906020019092919080359060200190929190505050611b20565b60405180821515815260200191505060405180910390f35b34801561081557600080fd5b506108626004803603604081101561082c57600080fd5b81019080803573ffffffffffffffffffffffffffffffffffffffff16906020019092919080359060200190929190505050611be7565b60405180821515815260200191505060405180910390f35b34801561088657600080fd5b506108d36004803603604081101561089d57600080fd5b81019080803573ffffffffffffffffffffffffffffffffffffffff16906020019092919080359060200190929190505050611e5f565b005b3480156108e157600080fd5b506108ea612061565b604051808273ffffffffffffffffffffffffffffffffffffffff16815260200191505060405180910390f35b34801561092257600080fd5b5061092b612087565b6040518082815260200191505060405180910390f35b34801561094d57600080fd5b5061099a6004803603604081101561096457600080fd5b8101908080359060200190929190803573ffffffffffffffffffffffffffffffffffffffff16906020019092919050505061208d565b005b3480156109a857600080fd5b506109b16120fb565b6040518082815260200191505060405180910390f35b3480156109d357600080fd5b506109dc612119565b60405180821515815260200191505060405180910390f35b348015610a0057600080fd5b50610a4360048036036020811015610a1757600080fd5b81019080803573ffffffffffffffffffffffffffffffffffffffff16906020019092919050505061212c565b6040518082815260200191505060405180910390f35b348015610a6557600080fd5b50610a6e612189565b005b348015610a7c57600080fd5b50610abf60048036036020811015610a9357600080fd5b81019080803573ffffffffffffffffffffffffffffffffffffffff169060200190929190505050612243565b005b348015610acd57600080fd5b50610ad66122af565b005b348015610ae457600080fd5b50610aed612333565b604051808273ffffffffffffffffffffffffffffffffffffffff16815260200191505060405180910390f35b348015610b2557600080fd5b50610b2e612359565b60405180821515815260200191505060405180910390f35b348015610b5257600080fd5b50610b5b612371565b604051808273ffffffffffffffffffffffffffffffffffffffff16815260200191505060405180910390f35b348015610b9357600080fd5b50610b9c61239b565b60405180821515815260200191505060405180910390f35b348015610bc057600080fd5b50610c0f60048036036040811015610bd757600080fd5b81019080803573ffffffffffffffffffffffffffffffffffffffff1690602001909291908035151590602001909291905050506123f3565b005b348015610c1d57600080fd5b50610c2661245f565b6040518080602001828103825283818151815260200191508051906020019080838360005b83811015610c66578082015181840152602081019050610c4b565b50505050905090810190601f168015610c935780820380516001836020036101000a031916815260200191505b509250505060405180910390f35b348015610cad57600080fd5b50610cb6612501565b6040518082815260200191505060405180910390f35b348015610cd857600080fd5b50610d1b60048036036020811015610cef57600080fd5b81019080803573ffffffffffffffffffffffffffffffffffffffff169060200190929190505050612507565b005b348015610d2957600080fd5b50610d32612524565b005b348015610d4057600080fd5b50610d8d60048036036040811015610d5757600080fd5b81019080803573ffffffffffffffffffffffffffffffffffffffff1690602001909291908035906020019092919050505061252f565b60405180821515815260200191505060405180910390f35b348015610db157600080fd5b50610dba61283c565b604051808273ffffffffffffffffffffffffffffffffffffffff16815260200191505060405180910390f35b348015610df257600080fd5b50610e3f60048036036040811015610e0957600080fd5b81019080803573ffffffffffffffffffffffffffffffffffffffff16906020019092919080359060200190929190505050612862565b60405180821515815260200191505060405180910390f35b348015610e6357600080fd5b50610ea660048036036020811015610e7a57600080fd5b81019080803573ffffffffffffffffffffffffffffffffffffffff169060200190929190505050612932565b60405180821515815260200191505060405180910390f35b348015610eca57600080fd5b50610ed361294f565b6040518082815260200191505060405180910390f35b348015610ef557600080fd5b50610efe612955565b604051808273ffffffffffffffffffffffffffffffffffffffff16815260200191505060405180910390f35b348015610f3657600080fd5b50610f7960048036036060811015610f4d57600080fd5b81019080803515159060200190929190803590602001909291908035906020019092919050505061297b565b005b348015610f8757600080fd5b50610f906129ef565b60405180821515815260200191505060405180910390f35b348015610fb457600080fd5b5061108160048036036040811015610fcb57600080fd5b8101908080359060200190640100000000811115610fe857600080fd5b820183602082011115610ffa57600080fd5b8035906020019184602083028401116401000000008311171561101c57600080fd5b90919293919293908035906020019064010000000081111561103d57600080fd5b82018360208201111561104f57600080fd5b8035906020019184602083028401116401000000008311171561107157600080fd5b9091929391929390505050612a02565b005b34801561108f57600080fd5b506110d2600480360360208110156110a657600080fd5b81019080803573ffffffffffffffffffffffffffffffffffffffff169060200190929190505050612a7b565b60405180821515815260200191505060405180910390f35b3480156110f657600080fd5b506111236004803603602081101561110d57600080fd5b8101908080359060200190929190505050612ad1565b6040518082815260200191505060405180910390f35b34801561114557600080fd5b506111886004803603602081101561115c57600080fd5b81019080803573ffffffffffffffffffffffffffffffffffffffff169060200190929190505050612b93565b005b34801561119657600080fd5b5061119f612bff565b604051808273ffffffffffffffffffffffffffffffffffffffff16815260200191505060405180910390f35b3480156111d757600080fd5b5061125a600480360360608110156111ee57600080fd5b81019080803573ffffffffffffffffffffffffffffffffffffffff169060200190929190803573ffffffffffffffffffffffffffffffffffffffff169060200190929190803573ffffffffffffffffffffffffffffffffffffffff169060200190929190505050612c25565b005b34801561126857600080fd5b506112cb6004803603604081101561127f57600080fd5b81019080803573ffffffffffffffffffffffffffffffffffffffff169060200190929190803573ffffffffffffffffffffffffffffffffffffffff169060200190929190505050612cfe565b6040518082815260200191505060405180910390f35b3480156112ed57600080fd5b506113306004803603602081101561130457600080fd5b81019080803573ffffffffffffffffffffffffffffffffffffffff169060200190929190505050612d85565b005b34801561133e57600080fd5b50611347612da2565b604051808273ffffffffffffffffffffffffffffffffffffffff16815260200191505060405180910390f35b34801561137f57600080fd5b506113c26004803603602081101561139657600080fd5b81019080803573ffffffffffffffffffffffffffffffffffffffff169060200190929190505050612dc8565b60405180821515815260200191505060405180910390f35b6113e261239b565b6113eb57600080fd5b84600781905550836009819055508260088190555081600a81905550611432600954611424600854600754612de890919063ffffffff16565b612de890919063ffffffff16565b600b8190555080600c819055506004600c548161144b57fe5b04600b541061145957600080fd5b5050505050565b606060008054600181600116156101000203166002900480601f0160208091040260200160405190810160405280929190818152602001828054600181600116156101000203166002900480156114f85780601f106114cd576101008083540402835291602001916114f8565b820191906000526020600020905b8154815290600101906020018083116114db57829003601f168201915b5050505050905090565b6000600460149054906101000a900460ff1680611523575061152261239b565b5b806115775750600560003373ffffffffffffffffffffffffffffffffffffffff1673ffffffffffffffffffffffffffffffffffffffff16815260200190815260200160002060009054906101000a900460ff165b61158057600080fd5b81601b60003373ffffffffffffffffffffffffffffffffffffffff1673ffffffffffffffffffffffffffffffffffffffff16815260200190815260200160002060008573ffffffffffffffffffffffffffffffffffffffff1673ffffffffffffffffffffffffffffffffffffffff168152602001908152602001600020819055508273ffffffffffffffffffffffffffffffffffffffff163373ffffffffffffffffffffffffffffffffffffffff167f8c5be1e5ebec7d5bd14f71427d1e84f3dd0314c0f7b2291e5b200ac8c7c3b925846040518082815260200191505060405180910390a36001905092915050565b60008261167c83612ad1565b11905092915050565b600c5481565b6000601854905090565b600b5481565b6116a361239b565b6116ac57600080fd5b81601281905550806013819055505050565b600082600073ffffffffffffffffffffffffffffffffffffffff168173ffffffffffffffffffffffffffffffffffffffff1614156116fb57600080fd5b7fffffffffffffffffffffffffffffffffffffffffffffffffffffffffffffffff601b60008773ffffffffffffffffffffffffffffffffffffffff1673ffffffffffffffffffffffffffffffffffffffff16815260200190815260200160002060003373ffffffffffffffffffffffffffffffffffffffff1673ffffffffffffffffffffffffffffffffffffffff16815260200190815260200160002054146118e557611864836040518060400160405280601681526020017f496e73756666696369656e7420416c6c6f77616e636500000000000000000000815250601b60008973ffffffffffffffffffffffffffffffffffffffff1673ffffffffffffffffffffffffffffffffffffffff16815260200190815260200160002060003373ffffffffffffffffffffffffffffffffffffffff1673ffffffffffffffffffffffffffffffffffffffff16815260200190815260200160002054612f959092919063ffffffff16565b601b60008773ffffffffffffffffffffffffffffffffffffffff1673ffffffffffffffffffffffffffffffffffffffff16815260200190815260200160002060003373ffffffffffffffffffffffffffffffffffffffff1673ffffffffffffffffffffffffffffffffffffffff168152602001908152602001600020819055505b6118f0858585613055565b5060019150509392505050565b6000611a13601954611a05601a6000600e60009054906101000a900473ffffffffffffffffffffffffffffffffffffffff1673ffffffffffffffffffffffffffffffffffffffff1673ffffffffffffffffffffffffffffffffffffffff168152602001908152602001600020546119f7601a6000600d60009054906101000a900473ffffffffffffffffffffffffffffffffffffffff1673ffffffffffffffffffffffffffffffffffffffff1673ffffffffffffffffffffffffffffffffffffffff168152602001908152602001600020546012600a0a63ee6b280002600019816119e457fe5b066000190361339890919063ffffffff16565b61339890919063ffffffff16565b612e7090919063ffffffff16565b905090565b600a5481565b611a2661239b565b611a2f57600080fd5b6001600460146101000a81548160ff021916908315150217905550565b611a5461239b565b611a5d57600080fd5b80600460006101000a81548173ffffffffffffffffffffffffffffffffffffffff021916908373ffffffffffffffffffffffffffffffffffffffff160217905550600660008273ffffffffffffffffffffffffffffffffffffffff1673ffffffffffffffffffffffffffffffffffffffff16815260200190815260200160002060009054906101000a90505050565b611af461239b565b611afd57600080fd5b611b06816133e2565b50565b6000600260009054906101000a900460ff16905090565b6000611b2a61239b565b611b3357600080fd5b8273ffffffffffffffffffffffffffffffffffffffff1663a9059cbb33846040518363ffffffff1660e01b8152600401808373ffffffffffffffffffffffffffffffffffffffff16815260200182815260200192505050602060405180830381600087803b158015611ba457600080fd5b505af1158015611bb8573d6000803e3d6000fd5b505050506040513d6020811015611bce57600080fd5b8101908080519060200190929190505050905092915050565b6000600460149054906101000a900460ff1680611c085750611c0761239b565b5b80611c5c5750600560003373ffffffffffffffffffffffffffffffffffffffff1673ffffffffffffffffffffffffffffffffffffffff16815260200190815260200160002060009054906101000a900460ff165b611c6557600080fd5b611cf482601b60003373ffffffffffffffffffffffffffffffffffffffff1673ffffffffffffffffffffffffffffffffffffffff16815260200190815260200160002060008673ffffffffffffffffffffffffffffffffffffffff1673ffffffffffffffffffffffffffffffffffffffff16815260200190815260200160002054612de890919063ffffffff16565b601b60003373ffffffffffffffffffffffffffffffffffffffff1673ffffffffffffffffffffffffffffffffffffffff16815260200190815260200160002060008573ffffffffffffffffffffffffffffffffffffffff1673ffffffffffffffffffffffffffffffffffffffff168152602001908152602001600020819055508273ffffffffffffffffffffffffffffffffffffffff163373ffffffffffffffffffffffffffffffffffffffff167f8c5be1e5ebec7d5bd14f71427d1e84f3dd0314c0f7b2291e5b200ac8c7c3b925601b60003373ffffffffffffffffffffffffffffffffffffffff1673ffffffffffffffffffffffffffffffffffffffff16815260200190815260200160002060008773ffffffffffffffffffffffffffffffffffffffff1673ffffffffffffffffffffffffffffffffffffffff168152602001908152602001600020546040518082815260200191505060405180910390a36001905092915050565b611e6833612932565b611ebd576040517f08c379a00000000000000000000000000000000000000000000000000000000081526004018080602001828103825260308152602001806144516030913960400191505060405180910390fd5b611ed281601854612de890919063ffffffff16565b6018819055506000196fffffffffffffffffffffffffffffffff166018541115611f12576000196fffffffffffffffffffffffffffffffff166018819055505b611f406018546012600a0a63ee6b28000260001981611f2d57fe5b0660001903612e7090919063ffffffff16565b601981905550600460009054906101000a900473ffffffffffffffffffffffffffffffffffffffff1673ffffffffffffffffffffffffffffffffffffffff1663fff6cae96040518163ffffffff1660e01b8152600401600060405180830381600087803b158015611fb057600080fd5b505af1158015611fc4573d6000803e3d6000fd5b5050505061201a81601a60008573ffffffffffffffffffffffffffffffffffffffff1673ffffffffffffffffffffffffffffffffffffffff16815260200190815260200160002054612de890919063ffffffff16565b601a60008473ffffffffffffffffffffffffffffffffffffffff1673ffffffffffffffffffffffffffffffffffffffff168152602001908152602001600020819055505050565b600460009054906101000a900473ffffffffffffffffffffffffffffffffffffffff1681565b60085481565b61209561239b565b61209e57600080fd5b60004790508173ffffffffffffffffffffffffffffffffffffffff166108fc6064858402816120c957fe5b049081150290604051600060405180830381858888f193505050501580156120f5573d6000803e3d6000fd5b50505050565b6000612114601954601654612e7090919063ffffffff16565b905090565b601560149054906101000a900460ff1681565b6000612182601954601a60008573ffffffffffffffffffffffffffffffffffffffff1673ffffffffffffffffffffffffffffffffffffffff16815260200190815260200160002054612e7090919063ffffffff16565b9050919050565b61219161239b565b61219a57600080fd5b600260019054906101000a900473ffffffffffffffffffffffffffffffffffffffff1673ffffffffffffffffffffffffffffffffffffffff167ff8df31144d9c2f0f6b59d69b8b98abd5459d07f2742c4df920b25aae33c6482060405160405180910390a26000600260016101000a81548173ffffffffffffffffffffffffffffffffffffffff021916908373ffffffffffffffffffffffffffffffffffffffff160217905550565b61224b61239b565b61225457600080fd5b6001600660008373ffffffffffffffffffffffffffffffffffffffff1673ffffffffffffffffffffffffffffffffffffffff16815260200190815260200160002060006101000a81548160ff02191690831515021790555050565b601560009054906101000a900473ffffffffffffffffffffffffffffffffffffffff1673ffffffffffffffffffffffffffffffffffffffff1663fff6cae96040518163ffffffff1660e01b8152600401600060405180830381600087803b15801561231957600080fd5b505af115801561232d573d6000803e3d6000fd5b50505050565b601060009054906101000a900473ffffffffffffffffffffffffffffffffffffffff1681565b6000601760009054906101000a900460ff1615905090565b6000600260019054906101000a900473ffffffffffffffffffffffffffffffffffffffff16905090565b6000600260019054906101000a900473ffffffffffffffffffffffffffffffffffffffff1673ffffffffffffffffffffffffffffffffffffffff163373ffffffffffffffffffffffffffffffffffffffff1614905090565b6123fb61239b565b61240457600080fd5b80601c60008473ffffffffffffffffffffffffffffffffffffffff1673ffffffffffffffffffffffffffffffffffffffff16815260200190815260200160002060006101000a81548160ff0219169083151502179055505050565b606060018054600181600116156101000203166002900480601f0160208091040260200160405190810160405280929190818152602001828054600181600116156101000203166002900480156124f75780601f106124cc576101008083540402835291602001916124f7565b820191906000526020600020905b8154815290600101906020018083116124da57829003601f168201915b5050505050905090565b60075481565b61250f61239b565b61251857600080fd5b6125218161343c565b50565b61252d336133e2565b565b6000600460149054906101000a900460ff1680612550575061254f61239b565b5b806125a45750600560003373ffffffffffffffffffffffffffffffffffffffff1673ffffffffffffffffffffffffffffffffffffffff16815260200190815260200160002060009054906101000a900460ff165b6125ad57600080fd5b6000601b60003373ffffffffffffffffffffffffffffffffffffffff1673ffffffffffffffffffffffffffffffffffffffff16815260200190815260200160002060008573ffffffffffffffffffffffffffffffffffffffff1673ffffffffffffffffffffffffffffffffffffffff1681526020019081526020016000205490508083106126bc576000601b60003373ffffffffffffffffffffffffffffffffffffffff1673ffffffffffffffffffffffffffffffffffffffff16815260200190815260200160002060008673ffffffffffffffffffffffffffffffffffffffff1673ffffffffffffffffffffffffffffffffffffffff16815260200190815260200160002081905550612750565b6126cf838261339890919063ffffffff16565b601b60003373ffffffffffffffffffffffffffffffffffffffff1673ffffffffffffffffffffffffffffffffffffffff16815260200190815260200160002060008673ffffffffffffffffffffffffffffffffffffffff1673ffffffffffffffffffffffffffffffffffffffff168152602001908152602001600020819055505b8373ffffffffffffffffffffffffffffffffffffffff163373ffffffffffffffffffffffffffffffffffffffff167f8c5be1e5ebec7d5bd14f71427d1e84f3dd0314c0f7b2291e5b200ac8c7c3b925601b60003373ffffffffffffffffffffffffffffffffffffffff1673ffffffffffffffffffffffffffffffffffffffff16815260200190815260200160002060008873ffffffffffffffffffffffffffffffffffffffff1673ffffffffffffffffffffffffffffffffffffffff168152602001908152602001600020546040518082815260200191505060405180910390a3600191505092915050565b601560009054906101000a900473ffffffffffffffffffffffffffffffffffffffff1681565b600082600073ffffffffffffffffffffffffffffffffffffffff168173ffffffffffffffffffffffffffffffffffffffff16141561289f57600080fd5b600460149054906101000a900460ff16806128be57506128bd61239b565b5b806129125750600560003373ffffffffffffffffffffffffffffffffffffffff1673ffffffffffffffffffffffffffffffffffffffff16815260200190815260200160002060009054906101000a900460ff165b61291b57600080fd5b612926338585613055565b50600191505092915050565b600061294882600361349690919063ffffffff16565b9050919050565b60095481565b600f60009054906101000a900473ffffffffffffffffffffffffffffffffffffffff1681565b61298361239b565b61298c57600080fd5b82601560146101000a81548160ff0219169083151502179055506129e4826129d6836012600a0a63ee6b280002600019816129c357fe5b0660001903612e7090919063ffffffff16565b61357490919063ffffffff16565b601681905550505050565b600460149054906101000a900460ff1681565b612a0a61239b565b612a1357600080fd5b60005b84849050811015612a7457612a6633868684818110612a3157fe5b9050602002013573ffffffffffffffffffffffffffffffffffffffff16858585818110612a5a57fe5b90506020020135613055565b508080600101915050612a16565b5050505050565b6000600660008373ffffffffffffffffffffffffffffffffffffffff1673ffffffffffffffffffffffffffffffffffffffff16815260200190815260200160002060009054906101000a900460ff169050919050565b600080612b4a601954601a6000601560009054906101000a900473ffffffffffffffffffffffffffffffffffffffff1673ffffffffffffffffffffffffffffffffffffffff1673ffffffffffffffffffffffffffffffffffffffff16815260200190815260200160002054612e7090919063ffffffff16565b9050612b8b612b576118fd565b612b7d612b6e60028561357490919063ffffffff16565b8661357490919063ffffffff16565b612e7090919063ffffffff16565b915050919050565b612b9b61239b565b612ba457600080fd5b6001600560008373ffffffffffffffffffffffffffffffffffffffff1673ffffffffffffffffffffffffffffffffffffffff16815260200190815260200160002060006101000a81548160ff02191690831515021790555050565b601160009054906101000a900473ffffffffffffffffffffffffffffffffffffffff1681565b612c2d61239b565b612c3657600080fd5b82600f60006101000a81548173ffffffffffffffffffffffffffffffffffffffff021916908373ffffffffffffffffffffffffffffffffffffffff16021790555081601060006101000a81548173ffffffffffffffffffffffffffffffffffffffff021916908373ffffffffffffffffffffffffffffffffffffffff16021790555080601160006101000a81548173ffffffffffffffffffffffffffffffffffffffff021916908373ffffffffffffffffffffffffffffffffffffffff160217905550505050565b6000601b60008473ffffffffffffffffffffffffffffffffffffffff1673ffffffffffffffffffffffffffffffffffffffff16815260200190815260200160002060008373ffffffffffffffffffffffffffffffffffffffff1673ffffffffffffffffffffffffffffffffffffffff16815260200190815260200160002054905092915050565b612d8d61239b565b612d9657600080fd5b612d9f816135fa565b50565b601460009054906101000a900473ffffffffffffffffffffffffffffffffffffffff1681565b601c6020528060005260406000206000915054906101000a900460ff1681565b600080828401905083811015612e66576040517f08c379a000000000000000000000000000000000000000000000000000000000815260040180806020018281038252601b8152602001807f536166654d6174683a206164646974696f6e206f766572666c6f77000000000081525060200191505060405180910390fd5b8091505092915050565b6000612eb283836040518060400160405280601a81526020017f536166654d6174683a206469766973696f6e206279207a65726f0000000000008152506136f4565b905092915050565b612ec48282613496565b15612f37576040517f08c379a000000000000000000000000000000000000000000000000000000000815260040180806020018281038252601f8152602001807f526f6c65733a206163636f756e7420616c72656164792068617320726f6c650081525060200191505060405180910390fd5b60018260000160008373ffffffffffffffffffffffffffffffffffffffff1673ffffffffffffffffffffffffffffffffffffffff16815260200190815260200160002060006101000a81548160ff0219169083151502179055505050565b6000838311158290613042576040517f08c379a00000000000000000000000000000000000000000000000000000000081526004018080602001828103825283818151815260200191508051906020019080838360005b83811015613007578082015181840152602081019050612fec565b50505050905090810190601f1680156130345780820380516001836020036101000a031916815260200191505b509250505060405180910390fd5b5060008385039050809150509392505050565b6000601c60008573ffffffffffffffffffffffffffffffffffffffff1673ffffffffffffffffffffffffffffffffffffffff16815260200190815260200160002060009054906101000a900460ff161580156130fb5750601c60008473ffffffffffffffffffffffffffffffffffffffff1673ffffffffffffffffffffffffffffffffffffffff16815260200190815260200160002060009054906101000a900460ff16155b61316d576040517f08c379a000000000000000000000000000000000000000000000000000000000815260040180806020018281038252600c8152602001807f696e5f626c61636b6c697374000000000000000000000000000000000000000081525060200191505060405180910390fd5b601760009054906101000a900460ff16156131945761318d8484846137ba565b9050613391565b60006131ab6019548461357490919063ffffffff16565b90506131b561390a565b156131c3576131c26139e1565b5b61321581601a60008873ffffffffffffffffffffffffffffffffffffffff1673ffffffffffffffffffffffffffffffffffffffff1681526020019081526020016000205461339890919063ffffffff16565b601a60008773ffffffffffffffffffffffffffffffffffffffff1673ffffffffffffffffffffffffffffffffffffffff16815260200190815260200160002081905550600061326486866140bd565b61326e578161327a565b6132798686846141c6565b5b90506132ce81601a60008873ffffffffffffffffffffffffffffffffffffffff1673ffffffffffffffffffffffffffffffffffffffff16815260200190815260200160002054612de890919063ffffffff16565b601a60008773ffffffffffffffffffffffffffffffffffffffff1673ffffffffffffffffffffffffffffffffffffffff168152602001908152602001600020819055508473ffffffffffffffffffffffffffffffffffffffff168673ffffffffffffffffffffffffffffffffffffffff167fddf252ad1be2c89b69c2b068fc378daa952ba7f163c4a11628f55a4df523b3ef61337560195485612e7090919063ffffffff16565b6040518082815260200191505060405180910390a36001925050505b9392505050565b60006133da83836040518060400160405280601e81526020017f536166654d6174683a207375627472616374696f6e206f766572666c6f770000815250612f95565b905092915050565b6133f681600361439390919063ffffffff16565b8073ffffffffffffffffffffffffffffffffffffffff167fe94479a9f7e1952cc78f2d6baab678adc1b772d936c6583def489e524cb6669260405160405180910390a250565b613450816003612eba90919063ffffffff16565b8073ffffffffffffffffffffffffffffffffffffffff167f6ae172837ea30b801fbfcdd4108aa1d5bf8ff775444fd70256b44e6bf3dfc3f660405160405180910390a250565b60008073ffffffffffffffffffffffffffffffffffffffff168273ffffffffffffffffffffffffffffffffffffffff16141561351d576040517f08c379a00000000000000000000000000000000000000000000000000000000081526004018080602001828103825260228152602001806144c36022913960400191505060405180910390fd5b8260000160008373ffffffffffffffffffffffffffffffffffffffff1673ffffffffffffffffffffffffffffffffffffffff16815260200190815260200160002060009054906101000a900460ff16905092915050565b60008083141561358757600090506135f4565b600082840290508284828161359857fe5b04146135ef576040517f08c379a00000000000000000000000000000000000000000000000000000000081526004018080602001828103825260218152602001806144a26021913960400191505060405180910390fd5b809150505b92915050565b600073ffffffffffffffffffffffffffffffffffffffff168173ffffffffffffffffffffffffffffffffffffffff16141561363457600080fd5b8073ffffffffffffffffffffffffffffffffffffffff16600260019054906101000a900473ffffffffffffffffffffffffffffffffffffffff1673ffffffffffffffffffffffffffffffffffffffff167f8be0079c531659141344cd1fd0a4f28419497f9722a3daafe3b4186f6b6457e060405160405180910390a380600260016101000a81548173ffffffffffffffffffffffffffffffffffffffff021916908373ffffffffffffffffffffffffffffffffffffffff16021790555050565b600080831182906137a0576040517f08c379a00000000000000000000000000000000000000000000000000000000081526004018080602001828103825283818151815260200191508051906020019080838360005b8381101561376557808201518184015260208101905061374a565b50505050905090810190601f1680156137925780820380516001836020036101000a031916815260200191505b509250505060405180910390fd5b5060008385816137ac57fe5b049050809150509392505050565b6000806137d26019548461357490919063ffffffff16565b905061382681601a60008873ffffffffffffffffffffffffffffffffffffffff1673ffffffffffffffffffffffffffffffffffffffff1681526020019081526020016000205461339890919063ffffffff16565b601a60008773ffffffffffffffffffffffffffffffffffffffff1673ffffffffffffffffffffffffffffffffffffffff168152602001908152602001600020819055506138bb81601a60008773ffffffffffffffffffffffffffffffffffffffff1673ffffffffffffffffffffffffffffffffffffffff16815260200190815260200160002054612de890919063ffffffff16565b601a60008673ffffffffffffffffffffffffffffffffffffffff1673ffffffffffffffffffffffffffffffffffffffff1681526020019081526020016000208190555060019150509392505050565b6000601560009054906101000a900473ffffffffffffffffffffffffffffffffffffffff1673ffffffffffffffffffffffffffffffffffffffff163373ffffffffffffffffffffffffffffffffffffffff16141580156139775750601760009054906101000a900460ff16155b801561398f5750601560149054906101000a900460ff165b80156139dc5750601654601a60003073ffffffffffffffffffffffffffffffffffffffff1673ffffffffffffffffffffffffffffffffffffffff1681526020019081526020016000205410155b905090565b6001601760006101000a81548160ff0219169083151502179055506000613a0c601254601354611670565b613a1857600754613a1b565b60005b90506000613a73601954601a60003073ffffffffffffffffffffffffffffffffffffffff1673ffffffffffffffffffffffffffffffffffffffff16815260200190815260200160002054612e7090919063ffffffff16565b90506000613ab16002613aa3600b54613a95878761357490919063ffffffff16565b612e7090919063ffffffff16565b612e7090919063ffffffff16565b90506000613ac8828461339890919063ffffffff16565b90506000600267ffffffffffffffff81118015613ae457600080fd5b50604051908082528060200260200182016040528015613b135781602001602082028036833780820191505090505b5090503081600081518110613b2457fe5b602002602001019073ffffffffffffffffffffffffffffffffffffffff16908173ffffffffffffffffffffffffffffffffffffffff1681525050601460009054906101000a900473ffffffffffffffffffffffffffffffffffffffff1673ffffffffffffffffffffffffffffffffffffffff1663ad5c46486040518163ffffffff1660e01b815260040160206040518083038186803b158015613bc657600080fd5b505afa158015613bda573d6000803e3d6000fd5b505050506040513d6020811015613bf057600080fd5b810190808051906020019092919050505081600181518110613c0e57fe5b602002602001019073ffffffffffffffffffffffffffffffffffffffff16908173ffffffffffffffffffffffffffffffffffffffff16815250506000479050601460009054906101000a900473ffffffffffffffffffffffffffffffffffffffff1673ffffffffffffffffffffffffffffffffffffffff1663791ac9478460008530426040518663ffffffff1660e01b815260040180868152602001858152602001806020018473ffffffffffffffffffffffffffffffffffffffff168152602001838152602001828103825285818151815260200191508051906020019060200280838360005b83811015613d11578082015181840152602081019050613cf6565b505050509050019650505050505050600060405180830381600087803b158015613d3a57600080fd5b505af1158015613d4e573d6000803e3d6000fd5b505050506000613d67824761339890919063ffffffff16565b90506000613d93613d8260028a612e7090919063ffffffff16565b600b5461339890919063ffffffff16565b90506000613dcf6002613dc184613db38d8861357490919063ffffffff16565b612e7090919063ffffffff16565b612e7090919063ffffffff16565b90506000613dfa83613dec6009548761357490919063ffffffff16565b612e7090919063ffffffff16565b90506000613e2584613e176008548861357490919063ffffffff16565b612e7090919063ffffffff16565b90506000601060009054906101000a900473ffffffffffffffffffffffffffffffffffffffff1673ffffffffffffffffffffffffffffffffffffffff168261753090604051806000019050600060405180830381858888f193505050503d8060008114613eae576040519150601f19603f3d011682016040523d82523d6000602084013e613eb3565b606091505b50509050601160009054906101000a900473ffffffffffffffffffffffffffffffffffffffff1673ffffffffffffffffffffffffffffffffffffffff168361753090604051806000019050600060405180830381858888f193505050503d8060008114613f3c576040519150601f19603f3d011682016040523d82523d6000602084013e613f41565b606091505b5050809150506000905060008a111561409457601460009054906101000a900473ffffffffffffffffffffffffffffffffffffffff1673ffffffffffffffffffffffffffffffffffffffff1663f305d71985308d600080600f60009054906101000a900473ffffffffffffffffffffffffffffffffffffffff16426040518863ffffffff1660e01b8152600401808773ffffffffffffffffffffffffffffffffffffffff1681526020018681526020018581526020018481526020018373ffffffffffffffffffffffffffffffffffffffff16815260200182815260200196505050505050506060604051808303818588803b15801561404057600080fd5b505af1158015614054573d6000803e3d6000fd5b50505050506040513d606081101561406b57600080fd5b810190808051906020019092919080519060200190929190805190602001909291905050505050505b5050505050505050505050506000601760006101000a81548160ff021916908315150217905550565b60008273ffffffffffffffffffffffffffffffffffffffff16601560009054906101000a900473ffffffffffffffffffffffffffffffffffffffff1673ffffffffffffffffffffffffffffffffffffffff16148061416857508173ffffffffffffffffffffffffffffffffffffffff16601560009054906101000a900473ffffffffffffffffffffffffffffffffffffffff1673ffffffffffffffffffffffffffffffffffffffff16145b80156141be5750600660008473ffffffffffffffffffffffffffffffffffffffff1673ffffffffffffffffffffffffffffffffffffffff16815260200190815260200160002060009054906101000a900460ff16155b905092915050565b600080600b549050601560009054906101000a900473ffffffffffffffffffffffffffffffffffffffff1673ffffffffffffffffffffffffffffffffffffffff168473ffffffffffffffffffffffffffffffffffffffff16141561423c57614239600a5482612de890919063ffffffff16565b90505b6000614265600c54614257848761357490919063ffffffff16565b612e7090919063ffffffff16565b90506142b981601a60003073ffffffffffffffffffffffffffffffffffffffff1673ffffffffffffffffffffffffffffffffffffffff16815260200190815260200160002054612de890919063ffffffff16565b601a60003073ffffffffffffffffffffffffffffffffffffffff1673ffffffffffffffffffffffffffffffffffffffff168152602001908152602001600020819055503073ffffffffffffffffffffffffffffffffffffffff168673ffffffffffffffffffffffffffffffffffffffff167fddf252ad1be2c89b69c2b068fc378daa952ba7f163c4a11628f55a4df523b3ef61436060195485612e7090919063ffffffff16565b6040518082815260200191505060405180910390a3614388818561339890919063ffffffff16565b925050509392505050565b61439d8282613496565b6143f2576040517f08c379a00000000000000000000000000000000000000000000000000000000081526004018080602001828103825260218152602001806144816021913960400191505060405180910390fd5b60008260000160008373ffffffffffffffffffffffffffffffffffffffff1673ffffffffffffffffffffffffffffffffffffffff16815260200190815260200160002060006101000a81548160ff021916908315150217905550505056fe4d696e746572526f6c653a2063616c6c657220646f6573206e6f74206861766520746865204d696e74657220726f6c65526f6c65733a206163636f756e7420646f6573206e6f74206861766520726f6c65536166654d6174683a206d756c7469706c69636174696f6e206f766572666c6f77526f6c65733a206163636f756e7420697320746865207a65726f2061646472657373a26469706673582212209e16a7b56cd6e692ece73ce41e27c29ee865af4c1265c761b81bb5e8baa5621f64736f6c63430007060033526f6c65733a206163636f756e7420697320746865207a65726f2061646472657373",
					"opcodes": "PUSH1 0x80 PUSH1 0x40 MSTORE PUSH1 0x5 PUSH1 0x7 SSTORE PUSH1 0x3 PUSH1 0x8 SSTORE PUSH1 0x5 PUSH1 0x9 SSTORE PUSH1 0x5 PUSH1 0xA SSTORE PUSH3 0x51 PUSH1 0x9 SLOAD PUSH3 0x3D PUSH1 0x8 SLOAD PUSH1 0x7 SLOAD PUSH3 0x994 PUSH1 0x20 SHL PUSH3 0x2DE8 OR SWAP1 SWAP2 SWAP1 PUSH1 0x20 SHR JUMP JUMPDEST PUSH3 0x994 PUSH1 0x20 SHL PUSH3 0x2DE8 OR SWAP1 SWAP2 SWAP1 PUSH1 0x20 SHR JUMP JUMPDEST PUSH1 0xB SSTORE PUSH1 0x64 PUSH1 0xC SSTORE PUSH2 0xDEAD PUSH1 0xD PUSH1 0x0 PUSH2 0x100 EXP DUP2 SLOAD DUP2 PUSH20 0xFFFFFFFFFFFFFFFFFFFFFFFFFFFFFFFFFFFFFFFF MUL NOT AND SWAP1 DUP4 PUSH20 0xFFFFFFFFFFFFFFFFFFFFFFFFFFFFFFFFFFFFFFFF AND MUL OR SWAP1 SSTORE POP PUSH1 0x0 PUSH1 0xE PUSH1 0x0 PUSH2 0x100 EXP DUP2 SLOAD DUP2 PUSH20 0xFFFFFFFFFFFFFFFFFFFFFFFFFFFFFFFFFFFFFFFF MUL NOT AND SWAP1 DUP4 PUSH20 0xFFFFFFFFFFFFFFFFFFFFFFFFFFFFFFFFFFFFFFFF AND MUL OR SWAP1 SSTORE POP PUSH1 0x32 PUSH1 0x12 SSTORE PUSH1 0x64 PUSH1 0x13 SSTORE PUSH1 0x1 PUSH1 0x15 PUSH1 0x14 PUSH2 0x100 EXP DUP2 SLOAD DUP2 PUSH1 0xFF MUL NOT AND SWAP1 DUP4 ISZERO ISZERO MUL OR SWAP1 SSTORE POP PUSH2 0x2710 PUSH1 0xA PUSH1 0x12 PUSH1 0xA EXP PUSH4 0xEE6B2800 MUL PUSH1 0x0 NOT DUP2 PUSH3 0x11E JUMPI INVALID JUMPDEST MOD PUSH1 0x0 NOT SUB MUL DUP2 PUSH3 0x12C JUMPI INVALID JUMPDEST DIV PUSH1 0x16 SSTORE CALLVALUE DUP1 ISZERO PUSH3 0x13D JUMPI PUSH1 0x0 DUP1 REVERT JUMPDEST POP PUSH1 0x40 MLOAD DUP1 PUSH1 0x40 ADD PUSH1 0x40 MSTORE DUP1 PUSH1 0xA DUP2 MSTORE PUSH1 0x20 ADD PUSH32 0x526176656E746F6B656E00000000000000000000000000000000000000000000 DUP2 MSTORE POP PUSH1 0x40 MLOAD DUP1 PUSH1 0x40 ADD PUSH1 0x40 MSTORE DUP1 PUSH1 0xA DUP2 MSTORE PUSH1 0x20 ADD PUSH32 0x526176656E746F6B656E00000000000000000000000000000000000000000000 DUP2 MSTORE POP PUSH1 0x12 DUP3 PUSH1 0x0 SWAP1 DUP1 MLOAD SWAP1 PUSH1 0x20 ADD SWAP1 PUSH3 0x1C4 SWAP3 SWAP2 SWAP1 PUSH3 0xE5A JUMP JUMPDEST POP DUP2 PUSH1 0x1 SWAP1 DUP1 MLOAD SWAP1 PUSH1 0x20 ADD SWAP1 PUSH3 0x1DD SWAP3 SWAP2 SWAP1 PUSH3 0xE5A JUMP JUMPDEST POP DUP1 PUSH1 0x2 PUSH1 0x0 PUSH2 0x100 EXP DUP2 SLOAD DUP2 PUSH1 0xFF MUL NOT AND SWAP1 DUP4 PUSH1 0xFF AND MUL OR SWAP1 SSTORE POP POP POP POP CALLER PUSH1 0x2 PUSH1 0x1 PUSH2 0x100 EXP DUP2 SLOAD DUP2 PUSH20 0xFFFFFFFFFFFFFFFFFFFFFFFFFFFFFFFFFFFFFFFF MUL NOT AND SWAP1 DUP4 PUSH20 0xFFFFFFFFFFFFFFFFFFFFFFFFFFFFFFFFFFFFFFFF AND MUL OR SWAP1 SSTORE POP PUSH3 0x24E CALLER PUSH3 0xA1D PUSH1 0x20 SHL PUSH1 0x20 SHR JUMP JUMPDEST PUSH20 0x10ED43C718714EB63D5AA57B78B54704E256024E PUSH1 0x14 PUSH1 0x0 PUSH2 0x100 EXP DUP2 SLOAD DUP2 PUSH20 0xFFFFFFFFFFFFFFFFFFFFFFFFFFFFFFFFFFFFFFFF MUL NOT AND SWAP1 DUP4 PUSH20 0xFFFFFFFFFFFFFFFFFFFFFFFFFFFFFFFFFFFFFFFF AND MUL OR SWAP1 SSTORE POP PUSH1 0x14 PUSH1 0x0 SWAP1 SLOAD SWAP1 PUSH2 0x100 EXP SWAP1 DIV PUSH20 0xFFFFFFFFFFFFFFFFFFFFFFFFFFFFFFFFFFFFFFFF AND PUSH20 0xFFFFFFFFFFFFFFFFFFFFFFFFFFFFFFFFFFFFFFFF AND PUSH4 0xC45A0155 PUSH1 0x40 MLOAD DUP2 PUSH4 0xFFFFFFFF AND PUSH1 0xE0 SHL DUP2 MSTORE PUSH1 0x4 ADD PUSH1 0x20 PUSH1 0x40 MLOAD DUP1 DUP4 SUB DUP2 DUP7 DUP1 EXTCODESIZE ISZERO DUP1 ISZERO PUSH3 0x30C JUMPI PUSH1 0x0 DUP1 REVERT JUMPDEST POP GAS STATICCALL ISZERO DUP1 ISZERO PUSH3 0x321 JUMPI RETURNDATASIZE PUSH1 0x0 DUP1 RETURNDATACOPY RETURNDATASIZE PUSH1 0x0 REVERT JUMPDEST POP POP POP POP PUSH1 0x40 MLOAD RETURNDATASIZE PUSH1 0x20 DUP2 LT ISZERO PUSH3 0x338 JUMPI PUSH1 0x0 DUP1 REVERT JUMPDEST DUP2 ADD SWAP1 DUP1 DUP1 MLOAD SWAP1 PUSH1 0x20 ADD SWAP1 SWAP3 SWAP2 SWAP1 POP POP POP PUSH20 0xFFFFFFFFFFFFFFFFFFFFFFFFFFFFFFFFFFFFFFFF AND PUSH4 0xC9C65396 PUSH1 0x14 PUSH1 0x0 SWAP1 SLOAD SWAP1 PUSH2 0x100 EXP SWAP1 DIV PUSH20 0xFFFFFFFFFFFFFFFFFFFFFFFFFFFFFFFFFFFFFFFF AND PUSH20 0xFFFFFFFFFFFFFFFFFFFFFFFFFFFFFFFFFFFFFFFF AND PUSH4 0xAD5C4648 PUSH1 0x40 MLOAD DUP2 PUSH4 0xFFFFFFFF AND PUSH1 0xE0 SHL DUP2 MSTORE PUSH1 0x4 ADD PUSH1 0x20 PUSH1 0x40 MLOAD DUP1 DUP4 SUB DUP2 DUP7 DUP1 EXTCODESIZE ISZERO DUP1 ISZERO PUSH3 0x3CD JUMPI PUSH1 0x0 DUP1 REVERT JUMPDEST POP GAS STATICCALL ISZERO DUP1 ISZERO PUSH3 0x3E2 JUMPI RETURNDATASIZE PUSH1 0x0 DUP1 RETURNDATACOPY RETURNDATASIZE PUSH1 0x0 REVERT JUMPDEST POP POP POP POP PUSH1 0x40 MLOAD RETURNDATASIZE PUSH1 0x20 DUP2 LT ISZERO PUSH3 0x3F9 JUMPI PUSH1 0x0 DUP1 REVERT JUMPDEST DUP2 ADD SWAP1 DUP1 DUP1 MLOAD SWAP1 PUSH1 0x20 ADD SWAP1 SWAP3 SWAP2 SWAP1 POP POP POP ADDRESS PUSH1 0x40 MLOAD DUP4 PUSH4 0xFFFFFFFF AND PUSH1 0xE0 SHL DUP2 MSTORE PUSH1 0x4 ADD DUP1 DUP4 PUSH20 0xFFFFFFFFFFFFFFFFFFFFFFFFFFFFFFFFFFFFFFFF AND DUP2 MSTORE PUSH1 0x20 ADD DUP3 PUSH20 0xFFFFFFFFFFFFFFFFFFFFFFFFFFFFFFFFFFFFFFFF AND DUP2 MSTORE PUSH1 0x20 ADD SWAP3 POP POP POP PUSH1 0x20 PUSH1 0x40 MLOAD DUP1 DUP4 SUB DUP2 PUSH1 0x0 DUP8 DUP1 EXTCODESIZE ISZERO DUP1 ISZERO PUSH3 0x475 JUMPI PUSH1 0x0 DUP1 REVERT JUMPDEST POP GAS CALL ISZERO DUP1 ISZERO PUSH3 0x48A JUMPI RETURNDATASIZE PUSH1 0x0 DUP1 RETURNDATACOPY RETURNDATASIZE PUSH1 0x0 REVERT JUMPDEST POP POP POP POP PUSH1 0x40 MLOAD RETURNDATASIZE PUSH1 0x20 DUP2 LT ISZERO PUSH3 0x4A1 JUMPI PUSH1 0x0 DUP1 REVERT JUMPDEST DUP2 ADD SWAP1 DUP1 DUP1 MLOAD SWAP1 PUSH1 0x20 ADD SWAP1 SWAP3 SWAP2 SWAP1 POP POP POP PUSH1 0x15 PUSH1 0x0 PUSH2 0x100 EXP DUP2 SLOAD DUP2 PUSH20 0xFFFFFFFFFFFFFFFFFFFFFFFFFFFFFFFFFFFFFFFF MUL NOT AND SWAP1 DUP4 PUSH20 0xFFFFFFFFFFFFFFFFFFFFFFFFFFFFFFFFFFFFFFFF AND MUL OR SWAP1 SSTORE POP PUSH20 0x2EFEBB6C26E709B9240A9C102116D1831BAC6319 PUSH1 0xF PUSH1 0x0 PUSH2 0x100 EXP DUP2 SLOAD DUP2 PUSH20 0xFFFFFFFFFFFFFFFFFFFFFFFFFFFFFFFFFFFFFFFF MUL NOT AND SWAP1 DUP4 PUSH20 0xFFFFFFFFFFFFFFFFFFFFFFFFFFFFFFFFFFFFFFFF AND MUL OR SWAP1 SSTORE POP PUSH20 0x2EFEBB6C26E709B9240A9C102116D1831BAC6319 PUSH1 0x10 PUSH1 0x0 PUSH2 0x100 EXP DUP2 SLOAD DUP2 PUSH20 0xFFFFFFFFFFFFFFFFFFFFFFFFFFFFFFFFFFFFFFFF MUL NOT AND SWAP1 DUP4 PUSH20 0xFFFFFFFFFFFFFFFFFFFFFFFFFFFFFFFFFFFFFFFF AND MUL OR SWAP1 SSTORE POP PUSH20 0x2EFEBB6C26E709B9240A9C102116D1831BAC6319 PUSH1 0x11 PUSH1 0x0 PUSH2 0x100 EXP DUP2 SLOAD DUP2 PUSH20 0xFFFFFFFFFFFFFFFFFFFFFFFFFFFFFFFFFFFFFFFF MUL NOT AND SWAP1 DUP4 PUSH20 0xFFFFFFFFFFFFFFFFFFFFFFFFFFFFFFFFFFFFFFFF AND MUL OR SWAP1 SSTORE POP PUSH32 0xFFFFFFFFFFFFFFFFFFFFFFFFFFFFFFFFFFFFFFFFFFFFFFFFFFFFFFFFFFFFFFFF PUSH1 0x1B PUSH1 0x0 ADDRESS PUSH20 0xFFFFFFFFFFFFFFFFFFFFFFFFFFFFFFFFFFFFFFFF AND PUSH20 0xFFFFFFFFFFFFFFFFFFFFFFFFFFFFFFFFFFFFFFFF AND DUP2 MSTORE PUSH1 0x20 ADD SWAP1 DUP2 MSTORE PUSH1 0x20 ADD PUSH1 0x0 KECCAK256 PUSH1 0x0 PUSH1 0x14 PUSH1 0x0 SWAP1 SLOAD SWAP1 PUSH2 0x100 EXP SWAP1 DIV PUSH20 0xFFFFFFFFFFFFFFFFFFFFFFFFFFFFFFFFFFFFFFFF AND PUSH20 0xFFFFFFFFFFFFFFFFFFFFFFFFFFFFFFFFFFFFFFFF AND PUSH20 0xFFFFFFFFFFFFFFFFFFFFFFFFFFFFFFFFFFFFFFFF AND DUP2 MSTORE PUSH1 0x20 ADD SWAP1 DUP2 MSTORE PUSH1 0x20 ADD PUSH1 0x0 KECCAK256 DUP2 SWAP1 SSTORE POP PUSH1 0x15 PUSH1 0x0 SWAP1 SLOAD SWAP1 PUSH2 0x100 EXP SWAP1 DIV PUSH20 0xFFFFFFFFFFFFFFFFFFFFFFFFFFFFFFFFFFFFFFFF AND PUSH1 0x4 PUSH1 0x0 PUSH2 0x100 EXP DUP2 SLOAD DUP2 PUSH20 0xFFFFFFFFFFFFFFFFFFFFFFFFFFFFFFFFFFFFFFFF MUL NOT AND SWAP1 DUP4 PUSH20 0xFFFFFFFFFFFFFFFFFFFFFFFFFFFFFFFFFFFFFFFF AND MUL OR SWAP1 SSTORE POP PUSH1 0x12 PUSH1 0xA EXP PUSH4 0xEE6B2800 MUL PUSH1 0x18 DUP2 SWAP1 SSTORE POP PUSH1 0x12 PUSH1 0xA EXP PUSH4 0xEE6B2800 MUL PUSH1 0x0 NOT DUP2 PUSH3 0x73E JUMPI INVALID JUMPDEST MOD PUSH1 0x0 NOT SUB PUSH1 0x1A PUSH1 0x0 PUSH1 0x10 PUSH1 0x0 SWAP1 SLOAD SWAP1 PUSH2 0x100 EXP SWAP1 DIV PUSH20 0xFFFFFFFFFFFFFFFFFFFFFFFFFFFFFFFFFFFFFFFF AND PUSH20 0xFFFFFFFFFFFFFFFFFFFFFFFFFFFFFFFFFFFFFFFF AND PUSH20 0xFFFFFFFFFFFFFFFFFFFFFFFFFFFFFFFFFFFFFFFF AND DUP2 MSTORE PUSH1 0x20 ADD SWAP1 DUP2 MSTORE PUSH1 0x20 ADD PUSH1 0x0 KECCAK256 DUP2 SWAP1 SSTORE POP PUSH3 0x7DE PUSH1 0x18 SLOAD PUSH1 0x12 PUSH1 0xA EXP PUSH4 0xEE6B2800 MUL PUSH1 0x0 NOT DUP2 PUSH3 0x7C5 JUMPI INVALID JUMPDEST MOD PUSH1 0x0 NOT SUB PUSH3 0xA7E PUSH1 0x20 SHL PUSH3 0x2E70 OR SWAP1 SWAP2 SWAP1 PUSH1 0x20 SHR JUMP JUMPDEST PUSH1 0x19 DUP2 SWAP1 SSTORE POP PUSH1 0x0 PUSH1 0x4 PUSH1 0x14 PUSH2 0x100 EXP DUP2 SLOAD DUP2 PUSH1 0xFF MUL NOT AND SWAP1 DUP4 ISZERO ISZERO MUL OR SWAP1 SSTORE POP PUSH1 0x1 PUSH1 0x6 PUSH1 0x0 PUSH1 0x10 PUSH1 0x0 SWAP1 SLOAD SWAP1 PUSH2 0x100 EXP SWAP1 DIV PUSH20 0xFFFFFFFFFFFFFFFFFFFFFFFFFFFFFFFFFFFFFFFF AND PUSH20 0xFFFFFFFFFFFFFFFFFFFFFFFFFFFFFFFFFFFFFFFF AND PUSH20 0xFFFFFFFFFFFFFFFFFFFFFFFFFFFFFFFFFFFFFFFF AND DUP2 MSTORE PUSH1 0x20 ADD SWAP1 DUP2 MSTORE PUSH1 0x20 ADD PUSH1 0x0 KECCAK256 PUSH1 0x0 PUSH2 0x100 EXP DUP2 SLOAD DUP2 PUSH1 0xFF MUL NOT AND SWAP1 DUP4 ISZERO ISZERO MUL OR SWAP1 SSTORE POP PUSH1 0x1 PUSH1 0x6 PUSH1 0x0 ADDRESS PUSH20 0xFFFFFFFFFFFFFFFFFFFFFFFFFFFFFFFFFFFFFFFF AND PUSH20 0xFFFFFFFFFFFFFFFFFFFFFFFFFFFFFFFFFFFFFFFF AND DUP2 MSTORE PUSH1 0x20 ADD SWAP1 DUP2 MSTORE PUSH1 0x20 ADD PUSH1 0x0 KECCAK256 PUSH1 0x0 PUSH2 0x100 EXP DUP2 SLOAD DUP2 PUSH1 0xFF MUL NOT AND SWAP1 DUP4 ISZERO ISZERO MUL OR SWAP1 SSTORE POP PUSH3 0x904 PUSH1 0x10 PUSH1 0x0 SWAP1 SLOAD SWAP1 PUSH2 0x100 EXP SWAP1 DIV PUSH20 0xFFFFFFFFFFFFFFFFFFFFFFFFFFFFFFFFFFFFFFFF AND PUSH3 0xAD0 PUSH1 0x20 SHL PUSH1 0x20 SHR JUMP JUMPDEST PUSH1 0x10 PUSH1 0x0 SWAP1 SLOAD SWAP1 PUSH2 0x100 EXP SWAP1 DIV PUSH20 0xFFFFFFFFFFFFFFFFFFFFFFFFFFFFFFFFFFFFFFFF AND PUSH20 0xFFFFFFFFFFFFFFFFFFFFFFFFFFFFFFFFFFFFFFFF AND PUSH1 0x0 PUSH20 0xFFFFFFFFFFFFFFFFFFFFFFFFFFFFFFFFFFFFFFFF AND PUSH32 0xDDF252AD1BE2C89B69C2B068FC378DAA952BA7F163C4A11628F55A4DF523B3EF PUSH1 0x18 SLOAD PUSH1 0x40 MLOAD DUP1 DUP3 DUP2 MSTORE PUSH1 0x20 ADD SWAP2 POP POP PUSH1 0x40 MLOAD DUP1 SWAP2 SUB SWAP1 LOG3 PUSH3 0xF10 JUMP JUMPDEST PUSH1 0x0 DUP1 DUP3 DUP5 ADD SWAP1 POP DUP4 DUP2 LT ISZERO PUSH3 0xA13 JUMPI PUSH1 0x40 MLOAD PUSH32 0x8C379A000000000000000000000000000000000000000000000000000000000 DUP2 MSTORE PUSH1 0x4 ADD DUP1 DUP1 PUSH1 0x20 ADD DUP3 DUP2 SUB DUP3 MSTORE PUSH1 0x1B DUP2 MSTORE PUSH1 0x20 ADD DUP1 PUSH32 0x536166654D6174683A206164646974696F6E206F766572666C6F770000000000 DUP2 MSTORE POP PUSH1 0x20 ADD SWAP2 POP POP PUSH1 0x40 MLOAD DUP1 SWAP2 SUB SWAP1 REVERT JUMPDEST DUP1 SWAP2 POP POP SWAP3 SWAP2 POP POP JUMP JUMPDEST PUSH3 0xA38 DUP2 PUSH1 0x3 PUSH3 0xBCB PUSH1 0x20 SHL PUSH3 0x2EBA OR SWAP1 SWAP2 SWAP1 PUSH1 0x20 SHR JUMP JUMPDEST DUP1 PUSH20 0xFFFFFFFFFFFFFFFFFFFFFFFFFFFFFFFFFFFFFFFF AND PUSH32 0x6AE172837EA30B801FBFCDD4108AA1D5BF8FF775444FD70256B44E6BF3DFC3F6 PUSH1 0x40 MLOAD PUSH1 0x40 MLOAD DUP1 SWAP2 SUB SWAP1 LOG2 POP JUMP JUMPDEST PUSH1 0x0 PUSH3 0xAC8 DUP4 DUP4 PUSH1 0x40 MLOAD DUP1 PUSH1 0x40 ADD PUSH1 0x40 MSTORE DUP1 PUSH1 0x1A DUP2 MSTORE PUSH1 0x20 ADD PUSH32 0x536166654D6174683A206469766973696F6E206279207A65726F000000000000 DUP2 MSTORE POP PUSH3 0xCAF PUSH1 0x20 SHL PUSH1 0x20 SHR JUMP JUMPDEST SWAP1 POP SWAP3 SWAP2 POP POP JUMP JUMPDEST PUSH1 0x0 PUSH20 0xFFFFFFFFFFFFFFFFFFFFFFFFFFFFFFFFFFFFFFFF AND DUP2 PUSH20 0xFFFFFFFFFFFFFFFFFFFFFFFFFFFFFFFFFFFFFFFF AND EQ ISZERO PUSH3 0xB0B JUMPI PUSH1 0x0 DUP1 REVERT JUMPDEST DUP1 PUSH20 0xFFFFFFFFFFFFFFFFFFFFFFFFFFFFFFFFFFFFFFFF AND PUSH1 0x2 PUSH1 0x1 SWAP1 SLOAD SWAP1 PUSH2 0x100 EXP SWAP1 DIV PUSH20 0xFFFFFFFFFFFFFFFFFFFFFFFFFFFFFFFFFFFFFFFF AND PUSH20 0xFFFFFFFFFFFFFFFFFFFFFFFFFFFFFFFFFFFFFFFF AND PUSH32 0x8BE0079C531659141344CD1FD0A4F28419497F9722A3DAAFE3B4186F6B6457E0 PUSH1 0x40 MLOAD PUSH1 0x40 MLOAD DUP1 SWAP2 SUB SWAP1 LOG3 DUP1 PUSH1 0x2 PUSH1 0x1 PUSH2 0x100 EXP DUP2 SLOAD DUP2 PUSH20 0xFFFFFFFFFFFFFFFFFFFFFFFFFFFFFFFFFFFFFFFF MUL NOT AND SWAP1 DUP4 PUSH20 0xFFFFFFFFFFFFFFFFFFFFFFFFFFFFFFFFFFFFFFFF AND MUL OR SWAP1 SSTORE POP POP JUMP JUMPDEST PUSH3 0xBDD DUP3 DUP3 PUSH3 0xD7A PUSH1 0x20 SHL PUSH1 0x20 SHR JUMP JUMPDEST ISZERO PUSH3 0xC51 JUMPI PUSH1 0x40 MLOAD PUSH32 0x8C379A000000000000000000000000000000000000000000000000000000000 DUP2 MSTORE PUSH1 0x4 ADD DUP1 DUP1 PUSH1 0x20 ADD DUP3 DUP2 SUB DUP3 MSTORE PUSH1 0x1F DUP2 MSTORE PUSH1 0x20 ADD DUP1 PUSH32 0x526F6C65733A206163636F756E7420616C72656164792068617320726F6C6500 DUP2 MSTORE POP PUSH1 0x20 ADD SWAP2 POP POP PUSH1 0x40 MLOAD DUP1 SWAP2 SUB SWAP1 REVERT JUMPDEST PUSH1 0x1 DUP3 PUSH1 0x0 ADD PUSH1 0x0 DUP4 PUSH20 0xFFFFFFFFFFFFFFFFFFFFFFFFFFFFFFFFFFFFFFFF AND PUSH20 0xFFFFFFFFFFFFFFFFFFFFFFFFFFFFFFFFFFFFFFFF AND DUP2 MSTORE PUSH1 0x20 ADD SWAP1 DUP2 MSTORE PUSH1 0x20 ADD PUSH1 0x0 KECCAK256 PUSH1 0x0 PUSH2 0x100 EXP DUP2 SLOAD DUP2 PUSH1 0xFF MUL NOT AND SWAP1 DUP4 ISZERO ISZERO MUL OR SWAP1 SSTORE POP POP POP JUMP JUMPDEST PUSH1 0x0 DUP1 DUP4 GT DUP3 SWAP1 PUSH3 0xD5F JUMPI PUSH1 0x40 MLOAD PUSH32 0x8C379A000000000000000000000000000000000000000000000000000000000 DUP2 MSTORE PUSH1 0x4 ADD DUP1 DUP1 PUSH1 0x20 ADD DUP3 DUP2 SUB DUP3 MSTORE DUP4 DUP2 DUP2 MLOAD DUP2 MSTORE PUSH1 0x20 ADD SWAP2 POP DUP1 MLOAD SWAP1 PUSH1 0x20 ADD SWAP1 DUP1 DUP4 DUP4 PUSH1 0x0 JUMPDEST DUP4 DUP2 LT ISZERO PUSH3 0xD23 JUMPI DUP1 DUP3 ADD MLOAD DUP2 DUP5 ADD MSTORE PUSH1 0x20 DUP2 ADD SWAP1 POP PUSH3 0xD06 JUMP JUMPDEST POP POP POP POP SWAP1 POP SWAP1 DUP2 ADD SWAP1 PUSH1 0x1F AND DUP1 ISZERO PUSH3 0xD51 JUMPI DUP1 DUP3 SUB DUP1 MLOAD PUSH1 0x1 DUP4 PUSH1 0x20 SUB PUSH2 0x100 EXP SUB NOT AND DUP2 MSTORE PUSH1 0x20 ADD SWAP2 POP JUMPDEST POP SWAP3 POP POP POP PUSH1 0x40 MLOAD DUP1 SWAP2 SUB SWAP1 REVERT JUMPDEST POP PUSH1 0x0 DUP4 DUP6 DUP2 PUSH3 0xD6C JUMPI INVALID JUMPDEST DIV SWAP1 POP DUP1 SWAP2 POP POP SWAP4 SWAP3 POP POP POP JUMP JUMPDEST PUSH1 0x0 DUP1 PUSH20 0xFFFFFFFFFFFFFFFFFFFFFFFFFFFFFFFFFFFFFFFF AND DUP3 PUSH20 0xFFFFFFFFFFFFFFFFFFFFFFFFFFFFFFFFFFFFFFFF AND EQ ISZERO PUSH3 0xE03 JUMPI PUSH1 0x40 MLOAD PUSH32 0x8C379A000000000000000000000000000000000000000000000000000000000 DUP2 MSTORE PUSH1 0x4 ADD DUP1 DUP1 PUSH1 0x20 ADD DUP3 DUP2 SUB DUP3 MSTORE PUSH1 0x22 DUP2 MSTORE PUSH1 0x20 ADD DUP1 PUSH3 0x543A PUSH1 0x22 SWAP2 CODECOPY PUSH1 0x40 ADD SWAP2 POP POP PUSH1 0x40 MLOAD DUP1 SWAP2 SUB SWAP1 REVERT JUMPDEST DUP3 PUSH1 0x0 ADD PUSH1 0x0 DUP4 PUSH20 0xFFFFFFFFFFFFFFFFFFFFFFFFFFFFFFFFFFFFFFFF AND PUSH20 0xFFFFFFFFFFFFFFFFFFFFFFFFFFFFFFFFFFFFFFFF AND DUP2 MSTORE PUSH1 0x20 ADD SWAP1 DUP2 MSTORE PUSH1 0x20 ADD PUSH1 0x0 KECCAK256 PUSH1 0x0 SWAP1 SLOAD SWAP1 PUSH2 0x100 EXP SWAP1 DIV PUSH1 0xFF AND SWAP1 POP SWAP3 SWAP2 POP POP JUMP JUMPDEST DUP3 DUP1 SLOAD PUSH1 0x1 DUP2 PUSH1 0x1 AND ISZERO PUSH2 0x100 MUL SUB AND PUSH1 0x2 SWAP1 DIV SWAP1 PUSH1 0x0 MSTORE PUSH1 0x20 PUSH1 0x0 KECCAK256 SWAP1 PUSH1 0x1F ADD PUSH1 0x20 SWAP1 DIV DUP2 ADD SWAP3 DUP3 PUSH3 0xE92 JUMPI PUSH1 0x0 DUP6 SSTORE PUSH3 0xEDE JUMP JUMPDEST DUP3 PUSH1 0x1F LT PUSH3 0xEAD JUMPI DUP1 MLOAD PUSH1 0xFF NOT AND DUP4 DUP1 ADD OR DUP6 SSTORE PUSH3 0xEDE JUMP JUMPDEST DUP3 DUP1 ADD PUSH1 0x1 ADD DUP6 SSTORE DUP3 ISZERO PUSH3 0xEDE JUMPI SWAP2 DUP3 ADD JUMPDEST DUP3 DUP2 GT ISZERO PUSH3 0xEDD JUMPI DUP3 MLOAD DUP3 SSTORE SWAP2 PUSH1 0x20 ADD SWAP2 SWAP1 PUSH1 0x1 ADD SWAP1 PUSH3 0xEC0 JUMP JUMPDEST JUMPDEST POP SWAP1 POP PUSH3 0xEED SWAP2 SWAP1 PUSH3 0xEF1 JUMP JUMPDEST POP SWAP1 JUMP JUMPDEST JUMPDEST DUP1 DUP3 GT ISZERO PUSH3 0xF0C JUMPI PUSH1 0x0 DUP2 PUSH1 0x0 SWAP1 SSTORE POP PUSH1 0x1 ADD PUSH3 0xEF2 JUMP JUMPDEST POP SWAP1 JUMP JUMPDEST PUSH2 0x451A DUP1 PUSH3 0xF20 PUSH1 0x0 CODECOPY PUSH1 0x0 RETURN INVALID PUSH1 0x80 PUSH1 0x40 MSTORE PUSH1 0x4 CALLDATASIZE LT PUSH2 0x339 JUMPI PUSH1 0x0 CALLDATALOAD PUSH1 0xE0 SHR DUP1 PUSH4 0x800CEE51 GT PUSH2 0x1AB JUMPI DUP1 PUSH4 0xBDA5C8BB GT PUSH2 0xF7 JUMPI DUP1 PUSH4 0xD5938AAC GT PUSH2 0x95 JUMPI DUP1 PUSH4 0xDD62ED3E GT PUSH2 0x6F JUMPI DUP1 PUSH4 0xDD62ED3E EQ PUSH2 0x125C JUMPI DUP1 PUSH4 0xF2FDE38B EQ PUSH2 0x12E1 JUMPI DUP1 PUSH4 0xF887EA40 EQ PUSH2 0x1332 JUMPI DUP1 PUSH4 0xF9F92BE4 EQ PUSH2 0x1373 JUMPI PUSH2 0x340 JUMP JUMPDEST DUP1 PUSH4 0xD5938AAC EQ PUSH2 0x1139 JUMPI DUP1 PUSH4 0xD7AC6585 EQ PUSH2 0x118A JUMPI DUP1 PUSH4 0xD7C01032 EQ PUSH2 0x11CB JUMPI PUSH2 0x340 JUMP JUMPDEST DUP1 PUSH4 0xD1FCE264 GT PUSH2 0xD1 JUMPI DUP1 PUSH4 0xD1FCE264 EQ PUSH2 0xF7B JUMPI DUP1 PUSH4 0xD37E219D EQ PUSH2 0xFA8 JUMPI DUP1 PUSH4 0xD4399790 EQ PUSH2 0x1083 JUMPI DUP1 PUSH4 0xD51ED1C8 EQ PUSH2 0x10EA JUMPI PUSH2 0x340 JUMP JUMPDEST DUP1 PUSH4 0xBDA5C8BB EQ PUSH2 0xEBE JUMPI DUP1 PUSH4 0xCA33E64C EQ PUSH2 0xEE9 JUMPI DUP1 PUSH4 0xD0889358 EQ PUSH2 0xF2A JUMPI PUSH2 0x340 JUMP JUMPDEST DUP1 PUSH4 0x98118CB4 GT PUSH2 0x164 JUMPI DUP1 PUSH4 0xA457C2D7 GT PUSH2 0x13E JUMPI DUP1 PUSH4 0xA457C2D7 EQ PUSH2 0xD34 JUMPI DUP1 PUSH4 0xA8AA1B31 EQ PUSH2 0xDA5 JUMPI DUP1 PUSH4 0xA9059CBB EQ PUSH2 0xDE6 JUMPI DUP1 PUSH4 0xAA271E1A EQ PUSH2 0xE57 JUMPI PUSH2 0x340 JUMP JUMPDEST DUP1 PUSH4 0x98118CB4 EQ PUSH2 0xCA1 JUMPI DUP1 PUSH4 0x983B2D56 EQ PUSH2 0xCCC JUMPI DUP1 PUSH4 0x98650275 EQ PUSH2 0xD1D JUMPI PUSH2 0x340 JUMP JUMPDEST DUP1 PUSH4 0x800CEE51 EQ PUSH2 0xAD8 JUMPI DUP1 PUSH4 0x83B4AC68 EQ PUSH2 0xB19 JUMPI DUP1 PUSH4 0x8DA5CB5B EQ PUSH2 0xB46 JUMPI DUP1 PUSH4 0x8F32D59B EQ PUSH2 0xB87 JUMPI DUP1 PUSH4 0x9155E083 EQ PUSH2 0xBB4 JUMPI DUP1 PUSH4 0x95D89B41 EQ PUSH2 0xC11 JUMPI PUSH2 0x340 JUMP JUMPDEST DUP1 PUSH4 0x3092AFD5 GT PUSH2 0x285 JUMPI DUP1 PUSH4 0x56A227F2 GT PUSH2 0x223 JUMPI DUP1 PUSH4 0x70A08231 GT PUSH2 0x1FD JUMPI DUP1 PUSH4 0x70A08231 EQ PUSH2 0x9F4 JUMPI DUP1 PUSH4 0x715018A6 EQ PUSH2 0xA59 JUMPI DUP1 PUSH4 0x749796A5 EQ PUSH2 0xA70 JUMPI DUP1 PUSH4 0x753D02A1 EQ PUSH2 0xAC1 JUMPI PUSH2 0x340 JUMP JUMPDEST DUP1 PUSH4 0x56A227F2 EQ PUSH2 0x941 JUMPI DUP1 PUSH4 0x6D351D1A EQ PUSH2 0x99C JUMPI DUP1 PUSH4 0x6DDD1713 EQ PUSH2 0x9C7 JUMPI PUSH2 0x340 JUMP JUMPDEST DUP1 PUSH4 0x39509351 GT PUSH2 0x25F JUMPI DUP1 PUSH4 0x39509351 EQ PUSH2 0x809 JUMPI DUP1 PUSH4 0x40C10F19 EQ PUSH2 0x87A JUMPI DUP1 PUSH4 0x4D709ADF EQ PUSH2 0x8D5 JUMPI DUP1 PUSH4 0x563DF32F EQ PUSH2 0x916 JUMPI PUSH2 0x340 JUMP JUMPDEST DUP1 PUSH4 0x3092AFD5 EQ PUSH2 0x719 JUMPI DUP1 PUSH4 0x313CE567 EQ PUSH2 0x76A JUMPI DUP1 PUSH4 0x33F3D628 EQ PUSH2 0x798 JUMPI PUSH2 0x340 JUMP JUMPDEST DUP1 PUSH4 0x1DF4CCFC GT PUSH2 0x2F2 JUMPI DUP1 PUSH4 0x2B112E49 GT PUSH2 0x2CC JUMPI DUP1 PUSH4 0x2B112E49 EQ PUSH2 0x65B JUMPI DUP1 PUSH4 0x2B14CA56 EQ PUSH2 0x686 JUMPI DUP1 PUSH4 0x2BE6937D EQ PUSH2 0x6B1 JUMPI DUP1 PUSH4 0x2F34D282 EQ PUSH2 0x6C8 JUMPI PUSH2 0x340 JUMP JUMPDEST DUP1 PUSH4 0x1DF4CCFC EQ PUSH2 0x55A JUMPI DUP1 PUSH4 0x201E7991 EQ PUSH2 0x585 JUMPI DUP1 PUSH4 0x23B872DD EQ PUSH2 0x5CA JUMPI PUSH2 0x340 JUMP JUMPDEST DUP1 PUSH4 0x4A66B48 EQ PUSH2 0x345 JUMPI DUP1 PUSH4 0x6FDDE03 EQ PUSH2 0x3A8 JUMPI DUP1 PUSH4 0x95EA7B3 EQ PUSH2 0x438 JUMPI DUP1 PUSH4 0x1161AE39 EQ PUSH2 0x4A9 JUMPI DUP1 PUSH4 0x180B0D7E EQ PUSH2 0x504 JUMPI DUP1 PUSH4 0x18160DDD EQ PUSH2 0x52F JUMPI PUSH2 0x340 JUMP JUMPDEST CALLDATASIZE PUSH2 0x340 JUMPI STOP JUMPDEST PUSH1 0x0 DUP1 REVERT JUMPDEST CALLVALUE DUP1 ISZERO PUSH2 0x351 JUMPI PUSH1 0x0 DUP1 REVERT JUMPDEST POP PUSH2 0x3A6 PUSH1 0x4 DUP1 CALLDATASIZE SUB PUSH1 0xA0 DUP2 LT ISZERO PUSH2 0x368 JUMPI PUSH1 0x0 DUP1 REVERT JUMPDEST DUP2 ADD SWAP1 DUP1 DUP1 CALLDATALOAD SWAP1 PUSH1 0x20 ADD SWAP1 SWAP3 SWAP2 SWAP1 DUP1 CALLDATALOAD SWAP1 PUSH1 0x20 ADD SWAP1 SWAP3 SWAP2 SWAP1 DUP1 CALLDATALOAD SWAP1 PUSH1 0x20 ADD SWAP1 SWAP3 SWAP2 SWAP1 DUP1 CALLDATALOAD SWAP1 PUSH1 0x20 ADD SWAP1 SWAP3 SWAP2 SWAP1 DUP1 CALLDATALOAD SWAP1 PUSH1 0x20 ADD SWAP1 SWAP3 SWAP2 SWAP1 POP POP POP PUSH2 0x13DA JUMP JUMPDEST STOP JUMPDEST CALLVALUE DUP1 ISZERO PUSH2 0x3B4 JUMPI PUSH1 0x0 DUP1 REVERT JUMPDEST POP PUSH2 0x3BD PUSH2 0x1460 JUMP JUMPDEST PUSH1 0x40 MLOAD DUP1 DUP1 PUSH1 0x20 ADD DUP3 DUP2 SUB DUP3 MSTORE DUP4 DUP2 DUP2 MLOAD DUP2 MSTORE PUSH1 0x20 ADD SWAP2 POP DUP1 MLOAD SWAP1 PUSH1 0x20 ADD SWAP1 DUP1 DUP4 DUP4 PUSH1 0x0 JUMPDEST DUP4 DUP2 LT ISZERO PUSH2 0x3FD JUMPI DUP1 DUP3 ADD MLOAD DUP2 DUP5 ADD MSTORE PUSH1 0x20 DUP2 ADD SWAP1 POP PUSH2 0x3E2 JUMP JUMPDEST POP POP POP POP SWAP1 POP SWAP1 DUP2 ADD SWAP1 PUSH1 0x1F AND DUP1 ISZERO PUSH2 0x42A JUMPI DUP1 DUP3 SUB DUP1 MLOAD PUSH1 0x1 DUP4 PUSH1 0x20 SUB PUSH2 0x100 EXP SUB NOT AND DUP2 MSTORE PUSH1 0x20 ADD SWAP2 POP JUMPDEST POP SWAP3 POP POP POP PUSH1 0x40 MLOAD DUP1 SWAP2 SUB SWAP1 RETURN JUMPDEST CALLVALUE DUP1 ISZERO PUSH2 0x444 JUMPI PUSH1 0x0 DUP1 REVERT JUMPDEST POP PUSH2 0x491 PUSH1 0x4 DUP1 CALLDATASIZE SUB PUSH1 0x40 DUP2 LT ISZERO PUSH2 0x45B JUMPI PUSH1 0x0 DUP1 REVERT JUMPDEST DUP2 ADD SWAP1 DUP1 DUP1 CALLDATALOAD PUSH20 0xFFFFFFFFFFFFFFFFFFFFFFFFFFFFFFFFFFFFFFFF AND SWAP1 PUSH1 0x20 ADD SWAP1 SWAP3 SWAP2 SWAP1 DUP1 CALLDATALOAD SWAP1 PUSH1 0x20 ADD SWAP1 SWAP3 SWAP2 SWAP1 POP POP POP PUSH2 0x1502 JUMP JUMPDEST PUSH1 0x40 MLOAD DUP1 DUP3 ISZERO ISZERO DUP2 MSTORE PUSH1 0x20 ADD SWAP2 POP POP PUSH1 0x40 MLOAD DUP1 SWAP2 SUB SWAP1 RETURN JUMPDEST CALLVALUE DUP1 ISZERO PUSH2 0x4B5 JUMPI PUSH1 0x0 DUP1 REVERT JUMPDEST POP PUSH2 0x4EC PUSH1 0x4 DUP1 CALLDATASIZE SUB PUSH1 0x40 DUP2 LT ISZERO PUSH2 0x4CC JUMPI PUSH1 0x0 DUP1 REVERT JUMPDEST DUP2 ADD SWAP1 DUP1 DUP1 CALLDATALOAD SWAP1 PUSH1 0x20 ADD SWAP1 SWAP3 SWAP2 SWAP1 DUP1 CALLDATALOAD SWAP1 PUSH1 0x20 ADD SWAP1 SWAP3 SWAP2 SWAP1 POP POP POP PUSH2 0x1670 JUMP JUMPDEST PUSH1 0x40 MLOAD DUP1 DUP3 ISZERO ISZERO DUP2 MSTORE PUSH1 0x20 ADD SWAP2 POP POP PUSH1 0x40 MLOAD DUP1 SWAP2 SUB SWAP1 RETURN JUMPDEST CALLVALUE DUP1 ISZERO PUSH2 0x510 JUMPI PUSH1 0x0 DUP1 REVERT JUMPDEST POP PUSH2 0x519 PUSH2 0x1685 JUMP JUMPDEST PUSH1 0x40 MLOAD DUP1 DUP3 DUP2 MSTORE PUSH1 0x20 ADD SWAP2 POP POP PUSH1 0x40 MLOAD DUP1 SWAP2 SUB SWAP1 RETURN JUMPDEST CALLVALUE DUP1 ISZERO PUSH2 0x53B JUMPI PUSH1 0x0 DUP1 REVERT JUMPDEST POP PUSH2 0x544 PUSH2 0x168B JUMP JUMPDEST PUSH1 0x40 MLOAD DUP1 DUP3 DUP2 MSTORE PUSH1 0x20 ADD SWAP2 POP POP PUSH1 0x40 MLOAD DUP1 SWAP2 SUB SWAP1 RETURN JUMPDEST CALLVALUE DUP1 ISZERO PUSH2 0x566 JUMPI PUSH1 0x0 DUP1 REVERT JUMPDEST POP PUSH2 0x56F PUSH2 0x1695 JUMP JUMPDEST PUSH1 0x40 MLOAD DUP1 DUP3 DUP2 MSTORE PUSH1 0x20 ADD SWAP2 POP POP PUSH1 0x40 MLOAD DUP1 SWAP2 SUB SWAP1 RETURN JUMPDEST CALLVALUE DUP1 ISZERO PUSH2 0x591 JUMPI PUSH1 0x0 DUP1 REVERT JUMPDEST POP PUSH2 0x5C8 PUSH1 0x4 DUP1 CALLDATASIZE SUB PUSH1 0x40 DUP2 LT ISZERO PUSH2 0x5A8 JUMPI PUSH1 0x0 DUP1 REVERT JUMPDEST DUP2 ADD SWAP1 DUP1 DUP1 CALLDATALOAD SWAP1 PUSH1 0x20 ADD SWAP1 SWAP3 SWAP2 SWAP1 DUP1 CALLDATALOAD SWAP1 PUSH1 0x20 ADD SWAP1 SWAP3 SWAP2 SWAP1 POP POP POP PUSH2 0x169B JUMP JUMPDEST STOP JUMPDEST CALLVALUE DUP1 ISZERO PUSH2 0x5D6 JUMPI PUSH1 0x0 DUP1 REVERT JUMPDEST POP PUSH2 0x643 PUSH1 0x4 DUP1 CALLDATASIZE SUB PUSH1 0x60 DUP2 LT ISZERO PUSH2 0x5ED JUMPI PUSH1 0x0 DUP1 REVERT JUMPDEST DUP2 ADD SWAP1 DUP1 DUP1 CALLDATALOAD PUSH20 0xFFFFFFFFFFFFFFFFFFFFFFFFFFFFFFFFFFFFFFFF AND SWAP1 PUSH1 0x20 ADD SWAP1 SWAP3 SWAP2 SWAP1 DUP1 CALLDATALOAD PUSH20 0xFFFFFFFFFFFFFFFFFFFFFFFFFFFFFFFFFFFFFFFF AND SWAP1 PUSH1 0x20 ADD SWAP1 SWAP3 SWAP2 SWAP1 DUP1 CALLDATALOAD SWAP1 PUSH1 0x20 ADD SWAP1 SWAP3 SWAP2 SWAP1 POP POP POP PUSH2 0x16BE JUMP JUMPDEST PUSH1 0x40 MLOAD DUP1 DUP3 ISZERO ISZERO DUP2 MSTORE PUSH1 0x20 ADD SWAP2 POP POP PUSH1 0x40 MLOAD DUP1 SWAP2 SUB SWAP1 RETURN JUMPDEST CALLVALUE DUP1 ISZERO PUSH2 0x667 JUMPI PUSH1 0x0 DUP1 REVERT JUMPDEST POP PUSH2 0x670 PUSH2 0x18FD JUMP JUMPDEST PUSH1 0x40 MLOAD DUP1 DUP3 DUP2 MSTORE PUSH1 0x20 ADD SWAP2 POP POP PUSH1 0x40 MLOAD DUP1 SWAP2 SUB SWAP1 RETURN JUMPDEST CALLVALUE DUP1 ISZERO PUSH2 0x692 JUMPI PUSH1 0x0 DUP1 REVERT JUMPDEST POP PUSH2 0x69B PUSH2 0x1A18 JUMP JUMPDEST PUSH1 0x40 MLOAD DUP1 DUP3 DUP2 MSTORE PUSH1 0x20 ADD SWAP2 POP POP PUSH1 0x40 MLOAD DUP1 SWAP2 SUB SWAP1 RETURN JUMPDEST CALLVALUE DUP1 ISZERO PUSH2 0x6BD JUMPI PUSH1 0x0 DUP1 REVERT JUMPDEST POP PUSH2 0x6C6 PUSH2 0x1A1E JUMP JUMPDEST STOP JUMPDEST CALLVALUE DUP1 ISZERO PUSH2 0x6D4 JUMPI PUSH1 0x0 DUP1 REVERT JUMPDEST POP PUSH2 0x717 PUSH1 0x4 DUP1 CALLDATASIZE SUB PUSH1 0x20 DUP2 LT ISZERO PUSH2 0x6EB JUMPI PUSH1 0x0 DUP1 REVERT JUMPDEST DUP2 ADD SWAP1 DUP1 DUP1 CALLDATALOAD PUSH20 0xFFFFFFFFFFFFFFFFFFFFFFFFFFFFFFFFFFFFFFFF AND SWAP1 PUSH1 0x20 ADD SWAP1 SWAP3 SWAP2 SWAP1 POP POP POP PUSH2 0x1A4C JUMP JUMPDEST STOP JUMPDEST CALLVALUE DUP1 ISZERO PUSH2 0x725 JUMPI PUSH1 0x0 DUP1 REVERT JUMPDEST POP PUSH2 0x768 PUSH1 0x4 DUP1 CALLDATASIZE SUB PUSH1 0x20 DUP2 LT ISZERO PUSH2 0x73C JUMPI PUSH1 0x0 DUP1 REVERT JUMPDEST DUP2 ADD SWAP1 DUP1 DUP1 CALLDATALOAD PUSH20 0xFFFFFFFFFFFFFFFFFFFFFFFFFFFFFFFFFFFFFFFF AND SWAP1 PUSH1 0x20 ADD SWAP1 SWAP3 SWAP2 SWAP1 POP POP POP PUSH2 0x1AEC JUMP JUMPDEST STOP JUMPDEST CALLVALUE DUP1 ISZERO PUSH2 0x776 JUMPI PUSH1 0x0 DUP1 REVERT JUMPDEST POP PUSH2 0x77F PUSH2 0x1B09 JUMP JUMPDEST PUSH1 0x40 MLOAD DUP1 DUP3 PUSH1 0xFF AND DUP2 MSTORE PUSH1 0x20 ADD SWAP2 POP POP PUSH1 0x40 MLOAD DUP1 SWAP2 SUB SWAP1 RETURN JUMPDEST CALLVALUE DUP1 ISZERO PUSH2 0x7A4 JUMPI PUSH1 0x0 DUP1 REVERT JUMPDEST POP PUSH2 0x7F1 PUSH1 0x4 DUP1 CALLDATASIZE SUB PUSH1 0x40 DUP2 LT ISZERO PUSH2 0x7BB JUMPI PUSH1 0x0 DUP1 REVERT JUMPDEST DUP2 ADD SWAP1 DUP1 DUP1 CALLDATALOAD PUSH20 0xFFFFFFFFFFFFFFFFFFFFFFFFFFFFFFFFFFFFFFFF AND SWAP1 PUSH1 0x20 ADD SWAP1 SWAP3 SWAP2 SWAP1 DUP1 CALLDATALOAD SWAP1 PUSH1 0x20 ADD SWAP1 SWAP3 SWAP2 SWAP1 POP POP POP PUSH2 0x1B20 JUMP JUMPDEST PUSH1 0x40 MLOAD DUP1 DUP3 ISZERO ISZERO DUP2 MSTORE PUSH1 0x20 ADD SWAP2 POP POP PUSH1 0x40 MLOAD DUP1 SWAP2 SUB SWAP1 RETURN JUMPDEST CALLVALUE DUP1 ISZERO PUSH2 0x815 JUMPI PUSH1 0x0 DUP1 REVERT JUMPDEST POP PUSH2 0x862 PUSH1 0x4 DUP1 CALLDATASIZE SUB PUSH1 0x40 DUP2 LT ISZERO PUSH2 0x82C JUMPI PUSH1 0x0 DUP1 REVERT JUMPDEST DUP2 ADD SWAP1 DUP1 DUP1 CALLDATALOAD PUSH20 0xFFFFFFFFFFFFFFFFFFFFFFFFFFFFFFFFFFFFFFFF AND SWAP1 PUSH1 0x20 ADD SWAP1 SWAP3 SWAP2 SWAP1 DUP1 CALLDATALOAD SWAP1 PUSH1 0x20 ADD SWAP1 SWAP3 SWAP2 SWAP1 POP POP POP PUSH2 0x1BE7 JUMP JUMPDEST PUSH1 0x40 MLOAD DUP1 DUP3 ISZERO ISZERO DUP2 MSTORE PUSH1 0x20 ADD SWAP2 POP POP PUSH1 0x40 MLOAD DUP1 SWAP2 SUB SWAP1 RETURN JUMPDEST CALLVALUE DUP1 ISZERO PUSH2 0x886 JUMPI PUSH1 0x0 DUP1 REVERT JUMPDEST POP PUSH2 0x8D3 PUSH1 0x4 DUP1 CALLDATASIZE SUB PUSH1 0x40 DUP2 LT ISZERO PUSH2 0x89D JUMPI PUSH1 0x0 DUP1 REVERT JUMPDEST DUP2 ADD SWAP1 DUP1 DUP1 CALLDATALOAD PUSH20 0xFFFFFFFFFFFFFFFFFFFFFFFFFFFFFFFFFFFFFFFF AND SWAP1 PUSH1 0x20 ADD SWAP1 SWAP3 SWAP2 SWAP1 DUP1 CALLDATALOAD SWAP1 PUSH1 0x20 ADD SWAP1 SWAP3 SWAP2 SWAP1 POP POP POP PUSH2 0x1E5F JUMP JUMPDEST STOP JUMPDEST CALLVALUE DUP1 ISZERO PUSH2 0x8E1 JUMPI PUSH1 0x0 DUP1 REVERT JUMPDEST POP PUSH2 0x8EA PUSH2 0x2061 JUMP JUMPDEST PUSH1 0x40 MLOAD DUP1 DUP3 PUSH20 0xFFFFFFFFFFFFFFFFFFFFFFFFFFFFFFFFFFFFFFFF AND DUP2 MSTORE PUSH1 0x20 ADD SWAP2 POP POP PUSH1 0x40 MLOAD DUP1 SWAP2 SUB SWAP1 RETURN JUMPDEST CALLVALUE DUP1 ISZERO PUSH2 0x922 JUMPI PUSH1 0x0 DUP1 REVERT JUMPDEST POP PUSH2 0x92B PUSH2 0x2087 JUMP JUMPDEST PUSH1 0x40 MLOAD DUP1 DUP3 DUP2 MSTORE PUSH1 0x20 ADD SWAP2 POP POP PUSH1 0x40 MLOAD DUP1 SWAP2 SUB SWAP1 RETURN JUMPDEST CALLVALUE DUP1 ISZERO PUSH2 0x94D JUMPI PUSH1 0x0 DUP1 REVERT JUMPDEST POP PUSH2 0x99A PUSH1 0x4 DUP1 CALLDATASIZE SUB PUSH1 0x40 DUP2 LT ISZERO PUSH2 0x964 JUMPI PUSH1 0x0 DUP1 REVERT JUMPDEST DUP2 ADD SWAP1 DUP1 DUP1 CALLDATALOAD SWAP1 PUSH1 0x20 ADD SWAP1 SWAP3 SWAP2 SWAP1 DUP1 CALLDATALOAD PUSH20 0xFFFFFFFFFFFFFFFFFFFFFFFFFFFFFFFFFFFFFFFF AND SWAP1 PUSH1 0x20 ADD SWAP1 SWAP3 SWAP2 SWAP1 POP POP POP PUSH2 0x208D JUMP JUMPDEST STOP JUMPDEST CALLVALUE DUP1 ISZERO PUSH2 0x9A8 JUMPI PUSH1 0x0 DUP1 REVERT JUMPDEST POP PUSH2 0x9B1 PUSH2 0x20FB JUMP JUMPDEST PUSH1 0x40 MLOAD DUP1 DUP3 DUP2 MSTORE PUSH1 0x20 ADD SWAP2 POP POP PUSH1 0x40 MLOAD DUP1 SWAP2 SUB SWAP1 RETURN JUMPDEST CALLVALUE DUP1 ISZERO PUSH2 0x9D3 JUMPI PUSH1 0x0 DUP1 REVERT JUMPDEST POP PUSH2 0x9DC PUSH2 0x2119 JUMP JUMPDEST PUSH1 0x40 MLOAD DUP1 DUP3 ISZERO ISZERO DUP2 MSTORE PUSH1 0x20 ADD SWAP2 POP POP PUSH1 0x40 MLOAD DUP1 SWAP2 SUB SWAP1 RETURN JUMPDEST CALLVALUE DUP1 ISZERO PUSH2 0xA00 JUMPI PUSH1 0x0 DUP1 REVERT JUMPDEST POP PUSH2 0xA43 PUSH1 0x4 DUP1 CALLDATASIZE SUB PUSH1 0x20 DUP2 LT ISZERO PUSH2 0xA17 JUMPI PUSH1 0x0 DUP1 REVERT JUMPDEST DUP2 ADD SWAP1 DUP1 DUP1 CALLDATALOAD PUSH20 0xFFFFFFFFFFFFFFFFFFFFFFFFFFFFFFFFFFFFFFFF AND SWAP1 PUSH1 0x20 ADD SWAP1 SWAP3 SWAP2 SWAP1 POP POP POP PUSH2 0x212C JUMP JUMPDEST PUSH1 0x40 MLOAD DUP1 DUP3 DUP2 MSTORE PUSH1 0x20 ADD SWAP2 POP POP PUSH1 0x40 MLOAD DUP1 SWAP2 SUB SWAP1 RETURN JUMPDEST CALLVALUE DUP1 ISZERO PUSH2 0xA65 JUMPI PUSH1 0x0 DUP1 REVERT JUMPDEST POP PUSH2 0xA6E PUSH2 0x2189 JUMP JUMPDEST STOP JUMPDEST CALLVALUE DUP1 ISZERO PUSH2 0xA7C JUMPI PUSH1 0x0 DUP1 REVERT JUMPDEST POP PUSH2 0xABF PUSH1 0x4 DUP1 CALLDATASIZE SUB PUSH1 0x20 DUP2 LT ISZERO PUSH2 0xA93 JUMPI PUSH1 0x0 DUP1 REVERT JUMPDEST DUP2 ADD SWAP1 DUP1 DUP1 CALLDATALOAD PUSH20 0xFFFFFFFFFFFFFFFFFFFFFFFFFFFFFFFFFFFFFFFF AND SWAP1 PUSH1 0x20 ADD SWAP1 SWAP3 SWAP2 SWAP1 POP POP POP PUSH2 0x2243 JUMP JUMPDEST STOP JUMPDEST CALLVALUE DUP1 ISZERO PUSH2 0xACD JUMPI PUSH1 0x0 DUP1 REVERT JUMPDEST POP PUSH2 0xAD6 PUSH2 0x22AF JUMP JUMPDEST STOP JUMPDEST CALLVALUE DUP1 ISZERO PUSH2 0xAE4 JUMPI PUSH1 0x0 DUP1 REVERT JUMPDEST POP PUSH2 0xAED PUSH2 0x2333 JUMP JUMPDEST PUSH1 0x40 MLOAD DUP1 DUP3 PUSH20 0xFFFFFFFFFFFFFFFFFFFFFFFFFFFFFFFFFFFFFFFF AND DUP2 MSTORE PUSH1 0x20 ADD SWAP2 POP POP PUSH1 0x40 MLOAD DUP1 SWAP2 SUB SWAP1 RETURN JUMPDEST CALLVALUE DUP1 ISZERO PUSH2 0xB25 JUMPI PUSH1 0x0 DUP1 REVERT JUMPDEST POP PUSH2 0xB2E PUSH2 0x2359 JUMP JUMPDEST PUSH1 0x40 MLOAD DUP1 DUP3 ISZERO ISZERO DUP2 MSTORE PUSH1 0x20 ADD SWAP2 POP POP PUSH1 0x40 MLOAD DUP1 SWAP2 SUB SWAP1 RETURN JUMPDEST CALLVALUE DUP1 ISZERO PUSH2 0xB52 JUMPI PUSH1 0x0 DUP1 REVERT JUMPDEST POP PUSH2 0xB5B PUSH2 0x2371 JUMP JUMPDEST PUSH1 0x40 MLOAD DUP1 DUP3 PUSH20 0xFFFFFFFFFFFFFFFFFFFFFFFFFFFFFFFFFFFFFFFF AND DUP2 MSTORE PUSH1 0x20 ADD SWAP2 POP POP PUSH1 0x40 MLOAD DUP1 SWAP2 SUB SWAP1 RETURN JUMPDEST CALLVALUE DUP1 ISZERO PUSH2 0xB93 JUMPI PUSH1 0x0 DUP1 REVERT JUMPDEST POP PUSH2 0xB9C PUSH2 0x239B JUMP JUMPDEST PUSH1 0x40 MLOAD DUP1 DUP3 ISZERO ISZERO DUP2 MSTORE PUSH1 0x20 ADD SWAP2 POP POP PUSH1 0x40 MLOAD DUP1 SWAP2 SUB SWAP1 RETURN JUMPDEST CALLVALUE DUP1 ISZERO PUSH2 0xBC0 JUMPI PUSH1 0x0 DUP1 REVERT JUMPDEST POP PUSH2 0xC0F PUSH1 0x4 DUP1 CALLDATASIZE SUB PUSH1 0x40 DUP2 LT ISZERO PUSH2 0xBD7 JUMPI PUSH1 0x0 DUP1 REVERT JUMPDEST DUP2 ADD SWAP1 DUP1 DUP1 CALLDATALOAD PUSH20 0xFFFFFFFFFFFFFFFFFFFFFFFFFFFFFFFFFFFFFFFF AND SWAP1 PUSH1 0x20 ADD SWAP1 SWAP3 SWAP2 SWAP1 DUP1 CALLDATALOAD ISZERO ISZERO SWAP1 PUSH1 0x20 ADD SWAP1 SWAP3 SWAP2 SWAP1 POP POP POP PUSH2 0x23F3 JUMP JUMPDEST STOP JUMPDEST CALLVALUE DUP1 ISZERO PUSH2 0xC1D JUMPI PUSH1 0x0 DUP1 REVERT JUMPDEST POP PUSH2 0xC26 PUSH2 0x245F JUMP JUMPDEST PUSH1 0x40 MLOAD DUP1 DUP1 PUSH1 0x20 ADD DUP3 DUP2 SUB DUP3 MSTORE DUP4 DUP2 DUP2 MLOAD DUP2 MSTORE PUSH1 0x20 ADD SWAP2 POP DUP1 MLOAD SWAP1 PUSH1 0x20 ADD SWAP1 DUP1 DUP4 DUP4 PUSH1 0x0 JUMPDEST DUP4 DUP2 LT ISZERO PUSH2 0xC66 JUMPI DUP1 DUP3 ADD MLOAD DUP2 DUP5 ADD MSTORE PUSH1 0x20 DUP2 ADD SWAP1 POP PUSH2 0xC4B JUMP JUMPDEST POP POP POP POP SWAP1 POP SWAP1 DUP2 ADD SWAP1 PUSH1 0x1F AND DUP1 ISZERO PUSH2 0xC93 JUMPI DUP1 DUP3 SUB DUP1 MLOAD PUSH1 0x1 DUP4 PUSH1 0x20 SUB PUSH2 0x100 EXP SUB NOT AND DUP2 MSTORE PUSH1 0x20 ADD SWAP2 POP JUMPDEST POP SWAP3 POP POP POP PUSH1 0x40 MLOAD DUP1 SWAP2 SUB SWAP1 RETURN JUMPDEST CALLVALUE DUP1 ISZERO PUSH2 0xCAD JUMPI PUSH1 0x0 DUP1 REVERT JUMPDEST POP PUSH2 0xCB6 PUSH2 0x2501 JUMP JUMPDEST PUSH1 0x40 MLOAD DUP1 DUP3 DUP2 MSTORE PUSH1 0x20 ADD SWAP2 POP POP PUSH1 0x40 MLOAD DUP1 SWAP2 SUB SWAP1 RETURN JUMPDEST CALLVALUE DUP1 ISZERO PUSH2 0xCD8 JUMPI PUSH1 0x0 DUP1 REVERT JUMPDEST POP PUSH2 0xD1B PUSH1 0x4 DUP1 CALLDATASIZE SUB PUSH1 0x20 DUP2 LT ISZERO PUSH2 0xCEF JUMPI PUSH1 0x0 DUP1 REVERT JUMPDEST DUP2 ADD SWAP1 DUP1 DUP1 CALLDATALOAD PUSH20 0xFFFFFFFFFFFFFFFFFFFFFFFFFFFFFFFFFFFFFFFF AND SWAP1 PUSH1 0x20 ADD SWAP1 SWAP3 SWAP2 SWAP1 POP POP POP PUSH2 0x2507 JUMP JUMPDEST STOP JUMPDEST CALLVALUE DUP1 ISZERO PUSH2 0xD29 JUMPI PUSH1 0x0 DUP1 REVERT JUMPDEST POP PUSH2 0xD32 PUSH2 0x2524 JUMP JUMPDEST STOP JUMPDEST CALLVALUE DUP1 ISZERO PUSH2 0xD40 JUMPI PUSH1 0x0 DUP1 REVERT JUMPDEST POP PUSH2 0xD8D PUSH1 0x4 DUP1 CALLDATASIZE SUB PUSH1 0x40 DUP2 LT ISZERO PUSH2 0xD57 JUMPI PUSH1 0x0 DUP1 REVERT JUMPDEST DUP2 ADD SWAP1 DUP1 DUP1 CALLDATALOAD PUSH20 0xFFFFFFFFFFFFFFFFFFFFFFFFFFFFFFFFFFFFFFFF AND SWAP1 PUSH1 0x20 ADD SWAP1 SWAP3 SWAP2 SWAP1 DUP1 CALLDATALOAD SWAP1 PUSH1 0x20 ADD SWAP1 SWAP3 SWAP2 SWAP1 POP POP POP PUSH2 0x252F JUMP JUMPDEST PUSH1 0x40 MLOAD DUP1 DUP3 ISZERO ISZERO DUP2 MSTORE PUSH1 0x20 ADD SWAP2 POP POP PUSH1 0x40 MLOAD DUP1 SWAP2 SUB SWAP1 RETURN JUMPDEST CALLVALUE DUP1 ISZERO PUSH2 0xDB1 JUMPI PUSH1 0x0 DUP1 REVERT JUMPDEST POP PUSH2 0xDBA PUSH2 0x283C JUMP JUMPDEST PUSH1 0x40 MLOAD DUP1 DUP3 PUSH20 0xFFFFFFFFFFFFFFFFFFFFFFFFFFFFFFFFFFFFFFFF AND DUP2 MSTORE PUSH1 0x20 ADD SWAP2 POP POP PUSH1 0x40 MLOAD DUP1 SWAP2 SUB SWAP1 RETURN JUMPDEST CALLVALUE DUP1 ISZERO PUSH2 0xDF2 JUMPI PUSH1 0x0 DUP1 REVERT JUMPDEST POP PUSH2 0xE3F PUSH1 0x4 DUP1 CALLDATASIZE SUB PUSH1 0x40 DUP2 LT ISZERO PUSH2 0xE09 JUMPI PUSH1 0x0 DUP1 REVERT JUMPDEST DUP2 ADD SWAP1 DUP1 DUP1 CALLDATALOAD PUSH20 0xFFFFFFFFFFFFFFFFFFFFFFFFFFFFFFFFFFFFFFFF AND SWAP1 PUSH1 0x20 ADD SWAP1 SWAP3 SWAP2 SWAP1 DUP1 CALLDATALOAD SWAP1 PUSH1 0x20 ADD SWAP1 SWAP3 SWAP2 SWAP1 POP POP POP PUSH2 0x2862 JUMP JUMPDEST PUSH1 0x40 MLOAD DUP1 DUP3 ISZERO ISZERO DUP2 MSTORE PUSH1 0x20 ADD SWAP2 POP POP PUSH1 0x40 MLOAD DUP1 SWAP2 SUB SWAP1 RETURN JUMPDEST CALLVALUE DUP1 ISZERO PUSH2 0xE63 JUMPI PUSH1 0x0 DUP1 REVERT JUMPDEST POP PUSH2 0xEA6 PUSH1 0x4 DUP1 CALLDATASIZE SUB PUSH1 0x20 DUP2 LT ISZERO PUSH2 0xE7A JUMPI PUSH1 0x0 DUP1 REVERT JUMPDEST DUP2 ADD SWAP1 DUP1 DUP1 CALLDATALOAD PUSH20 0xFFFFFFFFFFFFFFFFFFFFFFFFFFFFFFFFFFFFFFFF AND SWAP1 PUSH1 0x20 ADD SWAP1 SWAP3 SWAP2 SWAP1 POP POP POP PUSH2 0x2932 JUMP JUMPDEST PUSH1 0x40 MLOAD DUP1 DUP3 ISZERO ISZERO DUP2 MSTORE PUSH1 0x20 ADD SWAP2 POP POP PUSH1 0x40 MLOAD DUP1 SWAP2 SUB SWAP1 RETURN JUMPDEST CALLVALUE DUP1 ISZERO PUSH2 0xECA JUMPI PUSH1 0x0 DUP1 REVERT JUMPDEST POP PUSH2 0xED3 PUSH2 0x294F JUMP JUMPDEST PUSH1 0x40 MLOAD DUP1 DUP3 DUP2 MSTORE PUSH1 0x20 ADD SWAP2 POP POP PUSH1 0x40 MLOAD DUP1 SWAP2 SUB SWAP1 RETURN JUMPDEST CALLVALUE DUP1 ISZERO PUSH2 0xEF5 JUMPI PUSH1 0x0 DUP1 REVERT JUMPDEST POP PUSH2 0xEFE PUSH2 0x2955 JUMP JUMPDEST PUSH1 0x40 MLOAD DUP1 DUP3 PUSH20 0xFFFFFFFFFFFFFFFFFFFFFFFFFFFFFFFFFFFFFFFF AND DUP2 MSTORE PUSH1 0x20 ADD SWAP2 POP POP PUSH1 0x40 MLOAD DUP1 SWAP2 SUB SWAP1 RETURN JUMPDEST CALLVALUE DUP1 ISZERO PUSH2 0xF36 JUMPI PUSH1 0x0 DUP1 REVERT JUMPDEST POP PUSH2 0xF79 PUSH1 0x4 DUP1 CALLDATASIZE SUB PUSH1 0x60 DUP2 LT ISZERO PUSH2 0xF4D JUMPI PUSH1 0x0 DUP1 REVERT JUMPDEST DUP2 ADD SWAP1 DUP1 DUP1 CALLDATALOAD ISZERO ISZERO SWAP1 PUSH1 0x20 ADD SWAP1 SWAP3 SWAP2 SWAP1 DUP1 CALLDATALOAD SWAP1 PUSH1 0x20 ADD SWAP1 SWAP3 SWAP2 SWAP1 DUP1 CALLDATALOAD SWAP1 PUSH1 0x20 ADD SWAP1 SWAP3 SWAP2 SWAP1 POP POP POP PUSH2 0x297B JUMP JUMPDEST STOP JUMPDEST CALLVALUE DUP1 ISZERO PUSH2 0xF87 JUMPI PUSH1 0x0 DUP1 REVERT JUMPDEST POP PUSH2 0xF90 PUSH2 0x29EF JUMP JUMPDEST PUSH1 0x40 MLOAD DUP1 DUP3 ISZERO ISZERO DUP2 MSTORE PUSH1 0x20 ADD SWAP2 POP POP PUSH1 0x40 MLOAD DUP1 SWAP2 SUB SWAP1 RETURN JUMPDEST CALLVALUE DUP1 ISZERO PUSH2 0xFB4 JUMPI PUSH1 0x0 DUP1 REVERT JUMPDEST POP PUSH2 0x1081 PUSH1 0x4 DUP1 CALLDATASIZE SUB PUSH1 0x40 DUP2 LT ISZERO PUSH2 0xFCB JUMPI PUSH1 0x0 DUP1 REVERT JUMPDEST DUP2 ADD SWAP1 DUP1 DUP1 CALLDATALOAD SWAP1 PUSH1 0x20 ADD SWAP1 PUSH5 0x100000000 DUP2 GT ISZERO PUSH2 0xFE8 JUMPI PUSH1 0x0 DUP1 REVERT JUMPDEST DUP3 ADD DUP4 PUSH1 0x20 DUP3 ADD GT ISZERO PUSH2 0xFFA JUMPI PUSH1 0x0 DUP1 REVERT JUMPDEST DUP1 CALLDATALOAD SWAP1 PUSH1 0x20 ADD SWAP2 DUP5 PUSH1 0x20 DUP4 MUL DUP5 ADD GT PUSH5 0x100000000 DUP4 GT OR ISZERO PUSH2 0x101C JUMPI PUSH1 0x0 DUP1 REVERT JUMPDEST SWAP1 SWAP2 SWAP3 SWAP4 SWAP2 SWAP3 SWAP4 SWAP1 DUP1 CALLDATALOAD SWAP1 PUSH1 0x20 ADD SWAP1 PUSH5 0x100000000 DUP2 GT ISZERO PUSH2 0x103D JUMPI PUSH1 0x0 DUP1 REVERT JUMPDEST DUP3 ADD DUP4 PUSH1 0x20 DUP3 ADD GT ISZERO PUSH2 0x104F JUMPI PUSH1 0x0 DUP1 REVERT JUMPDEST DUP1 CALLDATALOAD SWAP1 PUSH1 0x20 ADD SWAP2 DUP5 PUSH1 0x20 DUP4 MUL DUP5 ADD GT PUSH5 0x100000000 DUP4 GT OR ISZERO PUSH2 0x1071 JUMPI PUSH1 0x0 DUP1 REVERT JUMPDEST SWAP1 SWAP2 SWAP3 SWAP4 SWAP2 SWAP3 SWAP4 SWAP1 POP POP POP PUSH2 0x2A02 JUMP JUMPDEST STOP JUMPDEST CALLVALUE DUP1 ISZERO PUSH2 0x108F JUMPI PUSH1 0x0 DUP1 REVERT JUMPDEST POP PUSH2 0x10D2 PUSH1 0x4 DUP1 CALLDATASIZE SUB PUSH1 0x20 DUP2 LT ISZERO PUSH2 0x10A6 JUMPI PUSH1 0x0 DUP1 REVERT JUMPDEST DUP2 ADD SWAP1 DUP1 DUP1 CALLDATALOAD PUSH20 0xFFFFFFFFFFFFFFFFFFFFFFFFFFFFFFFFFFFFFFFF AND SWAP1 PUSH1 0x20 ADD SWAP1 SWAP3 SWAP2 SWAP1 POP POP POP PUSH2 0x2A7B JUMP JUMPDEST PUSH1 0x40 MLOAD DUP1 DUP3 ISZERO ISZERO DUP2 MSTORE PUSH1 0x20 ADD SWAP2 POP POP PUSH1 0x40 MLOAD DUP1 SWAP2 SUB SWAP1 RETURN JUMPDEST CALLVALUE DUP1 ISZERO PUSH2 0x10F6 JUMPI PUSH1 0x0 DUP1 REVERT JUMPDEST POP PUSH2 0x1123 PUSH1 0x4 DUP1 CALLDATASIZE SUB PUSH1 0x20 DUP2 LT ISZERO PUSH2 0x110D JUMPI PUSH1 0x0 DUP1 REVERT JUMPDEST DUP2 ADD SWAP1 DUP1 DUP1 CALLDATALOAD SWAP1 PUSH1 0x20 ADD SWAP1 SWAP3 SWAP2 SWAP1 POP POP POP PUSH2 0x2AD1 JUMP JUMPDEST PUSH1 0x40 MLOAD DUP1 DUP3 DUP2 MSTORE PUSH1 0x20 ADD SWAP2 POP POP PUSH1 0x40 MLOAD DUP1 SWAP2 SUB SWAP1 RETURN JUMPDEST CALLVALUE DUP1 ISZERO PUSH2 0x1145 JUMPI PUSH1 0x0 DUP1 REVERT JUMPDEST POP PUSH2 0x1188 PUSH1 0x4 DUP1 CALLDATASIZE SUB PUSH1 0x20 DUP2 LT ISZERO PUSH2 0x115C JUMPI PUSH1 0x0 DUP1 REVERT JUMPDEST DUP2 ADD SWAP1 DUP1 DUP1 CALLDATALOAD PUSH20 0xFFFFFFFFFFFFFFFFFFFFFFFFFFFFFFFFFFFFFFFF AND SWAP1 PUSH1 0x20 ADD SWAP1 SWAP3 SWAP2 SWAP1 POP POP POP PUSH2 0x2B93 JUMP JUMPDEST STOP JUMPDEST CALLVALUE DUP1 ISZERO PUSH2 0x1196 JUMPI PUSH1 0x0 DUP1 REVERT JUMPDEST POP PUSH2 0x119F PUSH2 0x2BFF JUMP JUMPDEST PUSH1 0x40 MLOAD DUP1 DUP3 PUSH20 0xFFFFFFFFFFFFFFFFFFFFFFFFFFFFFFFFFFFFFFFF AND DUP2 MSTORE PUSH1 0x20 ADD SWAP2 POP POP PUSH1 0x40 MLOAD DUP1 SWAP2 SUB SWAP1 RETURN JUMPDEST CALLVALUE DUP1 ISZERO PUSH2 0x11D7 JUMPI PUSH1 0x0 DUP1 REVERT JUMPDEST POP PUSH2 0x125A PUSH1 0x4 DUP1 CALLDATASIZE SUB PUSH1 0x60 DUP2 LT ISZERO PUSH2 0x11EE JUMPI PUSH1 0x0 DUP1 REVERT JUMPDEST DUP2 ADD SWAP1 DUP1 DUP1 CALLDATALOAD PUSH20 0xFFFFFFFFFFFFFFFFFFFFFFFFFFFFFFFFFFFFFFFF AND SWAP1 PUSH1 0x20 ADD SWAP1 SWAP3 SWAP2 SWAP1 DUP1 CALLDATALOAD PUSH20 0xFFFFFFFFFFFFFFFFFFFFFFFFFFFFFFFFFFFFFFFF AND SWAP1 PUSH1 0x20 ADD SWAP1 SWAP3 SWAP2 SWAP1 DUP1 CALLDATALOAD PUSH20 0xFFFFFFFFFFFFFFFFFFFFFFFFFFFFFFFFFFFFFFFF AND SWAP1 PUSH1 0x20 ADD SWAP1 SWAP3 SWAP2 SWAP1 POP POP POP PUSH2 0x2C25 JUMP JUMPDEST STOP JUMPDEST CALLVALUE DUP1 ISZERO PUSH2 0x1268 JUMPI PUSH1 0x0 DUP1 REVERT JUMPDEST POP PUSH2 0x12CB PUSH1 0x4 DUP1 CALLDATASIZE SUB PUSH1 0x40 DUP2 LT ISZERO PUSH2 0x127F JUMPI PUSH1 0x0 DUP1 REVERT JUMPDEST DUP2 ADD SWAP1 DUP1 DUP1 CALLDATALOAD PUSH20 0xFFFFFFFFFFFFFFFFFFFFFFFFFFFFFFFFFFFFFFFF AND SWAP1 PUSH1 0x20 ADD SWAP1 SWAP3 SWAP2 SWAP1 DUP1 CALLDATALOAD PUSH20 0xFFFFFFFFFFFFFFFFFFFFFFFFFFFFFFFFFFFFFFFF AND SWAP1 PUSH1 0x20 ADD SWAP1 SWAP3 SWAP2 SWAP1 POP POP POP PUSH2 0x2CFE JUMP JUMPDEST PUSH1 0x40 MLOAD DUP1 DUP3 DUP2 MSTORE PUSH1 0x20 ADD SWAP2 POP POP PUSH1 0x40 MLOAD DUP1 SWAP2 SUB SWAP1 RETURN JUMPDEST CALLVALUE DUP1 ISZERO PUSH2 0x12ED JUMPI PUSH1 0x0 DUP1 REVERT JUMPDEST POP PUSH2 0x1330 PUSH1 0x4 DUP1 CALLDATASIZE SUB PUSH1 0x20 DUP2 LT ISZERO PUSH2 0x1304 JUMPI PUSH1 0x0 DUP1 REVERT JUMPDEST DUP2 ADD SWAP1 DUP1 DUP1 CALLDATALOAD PUSH20 0xFFFFFFFFFFFFFFFFFFFFFFFFFFFFFFFFFFFFFFFF AND SWAP1 PUSH1 0x20 ADD SWAP1 SWAP3 SWAP2 SWAP1 POP POP POP PUSH2 0x2D85 JUMP JUMPDEST STOP JUMPDEST CALLVALUE DUP1 ISZERO PUSH2 0x133E JUMPI PUSH1 0x0 DUP1 REVERT JUMPDEST POP PUSH2 0x1347 PUSH2 0x2DA2 JUMP JUMPDEST PUSH1 0x40 MLOAD DUP1 DUP3 PUSH20 0xFFFFFFFFFFFFFFFFFFFFFFFFFFFFFFFFFFFFFFFF AND DUP2 MSTORE PUSH1 0x20 ADD SWAP2 POP POP PUSH1 0x40 MLOAD DUP1 SWAP2 SUB SWAP1 RETURN JUMPDEST CALLVALUE DUP1 ISZERO PUSH2 0x137F JUMPI PUSH1 0x0 DUP1 REVERT JUMPDEST POP PUSH2 0x13C2 PUSH1 0x4 DUP1 CALLDATASIZE SUB PUSH1 0x20 DUP2 LT ISZERO PUSH2 0x1396 JUMPI PUSH1 0x0 DUP1 REVERT JUMPDEST DUP2 ADD SWAP1 DUP1 DUP1 CALLDATALOAD PUSH20 0xFFFFFFFFFFFFFFFFFFFFFFFFFFFFFFFFFFFFFFFF AND SWAP1 PUSH1 0x20 ADD SWAP1 SWAP3 SWAP2 SWAP1 POP POP POP PUSH2 0x2DC8 JUMP JUMPDEST PUSH1 0x40 MLOAD DUP1 DUP3 ISZERO ISZERO DUP2 MSTORE PUSH1 0x20 ADD SWAP2 POP POP PUSH1 0x40 MLOAD DUP1 SWAP2 SUB SWAP1 RETURN JUMPDEST PUSH2 0x13E2 PUSH2 0x239B JUMP JUMPDEST PUSH2 0x13EB JUMPI PUSH1 0x0 DUP1 REVERT JUMPDEST DUP5 PUSH1 0x7 DUP2 SWAP1 SSTORE POP DUP4 PUSH1 0x9 DUP2 SWAP1 SSTORE POP DUP3 PUSH1 0x8 DUP2 SWAP1 SSTORE POP DUP2 PUSH1 0xA DUP2 SWAP1 SSTORE POP PUSH2 0x1432 PUSH1 0x9 SLOAD PUSH2 0x1424 PUSH1 0x8 SLOAD PUSH1 0x7 SLOAD PUSH2 0x2DE8 SWAP1 SWAP2 SWAP1 PUSH4 0xFFFFFFFF AND JUMP JUMPDEST PUSH2 0x2DE8 SWAP1 SWAP2 SWAP1 PUSH4 0xFFFFFFFF AND JUMP JUMPDEST PUSH1 0xB DUP2 SWAP1 SSTORE POP DUP1 PUSH1 0xC DUP2 SWAP1 SSTORE POP PUSH1 0x4 PUSH1 0xC SLOAD DUP2 PUSH2 0x144B JUMPI INVALID JUMPDEST DIV PUSH1 0xB SLOAD LT PUSH2 0x1459 JUMPI PUSH1 0x0 DUP1 REVERT JUMPDEST POP POP POP POP POP JUMP JUMPDEST PUSH1 0x60 PUSH1 0x0 DUP1 SLOAD PUSH1 0x1 DUP2 PUSH1 0x1 AND ISZERO PUSH2 0x100 MUL SUB AND PUSH1 0x2 SWAP1 DIV DUP1 PUSH1 0x1F ADD PUSH1 0x20 DUP1 SWAP2 DIV MUL PUSH1 0x20 ADD PUSH1 0x40 MLOAD SWAP1 DUP2 ADD PUSH1 0x40 MSTORE DUP1 SWAP3 SWAP2 SWAP1 DUP2 DUP2 MSTORE PUSH1 0x20 ADD DUP3 DUP1 SLOAD PUSH1 0x1 DUP2 PUSH1 0x1 AND ISZERO PUSH2 0x100 MUL SUB AND PUSH1 0x2 SWAP1 DIV DUP1 ISZERO PUSH2 0x14F8 JUMPI DUP1 PUSH1 0x1F LT PUSH2 0x14CD JUMPI PUSH2 0x100 DUP1 DUP4 SLOAD DIV MUL DUP4 MSTORE SWAP2 PUSH1 0x20 ADD SWAP2 PUSH2 0x14F8 JUMP JUMPDEST DUP3 ADD SWAP2 SWAP1 PUSH1 0x0 MSTORE PUSH1 0x20 PUSH1 0x0 KECCAK256 SWAP1 JUMPDEST DUP2 SLOAD DUP2 MSTORE SWAP1 PUSH1 0x1 ADD SWAP1 PUSH1 0x20 ADD DUP1 DUP4 GT PUSH2 0x14DB JUMPI DUP3 SWAP1 SUB PUSH1 0x1F AND DUP3 ADD SWAP2 JUMPDEST POP POP POP POP POP SWAP1 POP SWAP1 JUMP JUMPDEST PUSH1 0x0 PUSH1 0x4 PUSH1 0x14 SWAP1 SLOAD SWAP1 PUSH2 0x100 EXP SWAP1 DIV PUSH1 0xFF AND DUP1 PUSH2 0x1523 JUMPI POP PUSH2 0x1522 PUSH2 0x239B JUMP JUMPDEST JUMPDEST DUP1 PUSH2 0x1577 JUMPI POP PUSH1 0x5 PUSH1 0x0 CALLER PUSH20 0xFFFFFFFFFFFFFFFFFFFFFFFFFFFFFFFFFFFFFFFF AND PUSH20 0xFFFFFFFFFFFFFFFFFFFFFFFFFFFFFFFFFFFFFFFF AND DUP2 MSTORE PUSH1 0x20 ADD SWAP1 DUP2 MSTORE PUSH1 0x20 ADD PUSH1 0x0 KECCAK256 PUSH1 0x0 SWAP1 SLOAD SWAP1 PUSH2 0x100 EXP SWAP1 DIV PUSH1 0xFF AND JUMPDEST PUSH2 0x1580 JUMPI PUSH1 0x0 DUP1 REVERT JUMPDEST DUP2 PUSH1 0x1B PUSH1 0x0 CALLER PUSH20 0xFFFFFFFFFFFFFFFFFFFFFFFFFFFFFFFFFFFFFFFF AND PUSH20 0xFFFFFFFFFFFFFFFFFFFFFFFFFFFFFFFFFFFFFFFF AND DUP2 MSTORE PUSH1 0x20 ADD SWAP1 DUP2 MSTORE PUSH1 0x20 ADD PUSH1 0x0 KECCAK256 PUSH1 0x0 DUP6 PUSH20 0xFFFFFFFFFFFFFFFFFFFFFFFFFFFFFFFFFFFFFFFF AND PUSH20 0xFFFFFFFFFFFFFFFFFFFFFFFFFFFFFFFFFFFFFFFF AND DUP2 MSTORE PUSH1 0x20 ADD SWAP1 DUP2 MSTORE PUSH1 0x20 ADD PUSH1 0x0 KECCAK256 DUP2 SWAP1 SSTORE POP DUP3 PUSH20 0xFFFFFFFFFFFFFFFFFFFFFFFFFFFFFFFFFFFFFFFF AND CALLER PUSH20 0xFFFFFFFFFFFFFFFFFFFFFFFFFFFFFFFFFFFFFFFF AND PUSH32 0x8C5BE1E5EBEC7D5BD14F71427D1E84F3DD0314C0F7B2291E5B200AC8C7C3B925 DUP5 PUSH1 0x40 MLOAD DUP1 DUP3 DUP2 MSTORE PUSH1 0x20 ADD SWAP2 POP POP PUSH1 0x40 MLOAD DUP1 SWAP2 SUB SWAP1 LOG3 PUSH1 0x1 SWAP1 POP SWAP3 SWAP2 POP POP JUMP JUMPDEST PUSH1 0x0 DUP3 PUSH2 0x167C DUP4 PUSH2 0x2AD1 JUMP JUMPDEST GT SWAP1 POP SWAP3 SWAP2 POP POP JUMP JUMPDEST PUSH1 0xC SLOAD DUP2 JUMP JUMPDEST PUSH1 0x0 PUSH1 0x18 SLOAD SWAP1 POP SWAP1 JUMP JUMPDEST PUSH1 0xB SLOAD DUP2 JUMP JUMPDEST PUSH2 0x16A3 PUSH2 0x239B JUMP JUMPDEST PUSH2 0x16AC JUMPI PUSH1 0x0 DUP1 REVERT JUMPDEST DUP2 PUSH1 0x12 DUP2 SWAP1 SSTORE POP DUP1 PUSH1 0x13 DUP2 SWAP1 SSTORE POP POP POP JUMP JUMPDEST PUSH1 0x0 DUP3 PUSH1 0x0 PUSH20 0xFFFFFFFFFFFFFFFFFFFFFFFFFFFFFFFFFFFFFFFF AND DUP2 PUSH20 0xFFFFFFFFFFFFFFFFFFFFFFFFFFFFFFFFFFFFFFFF AND EQ ISZERO PUSH2 0x16FB JUMPI PUSH1 0x0 DUP1 REVERT JUMPDEST PUSH32 0xFFFFFFFFFFFFFFFFFFFFFFFFFFFFFFFFFFFFFFFFFFFFFFFFFFFFFFFFFFFFFFFF PUSH1 0x1B PUSH1 0x0 DUP8 PUSH20 0xFFFFFFFFFFFFFFFFFFFFFFFFFFFFFFFFFFFFFFFF AND PUSH20 0xFFFFFFFFFFFFFFFFFFFFFFFFFFFFFFFFFFFFFFFF AND DUP2 MSTORE PUSH1 0x20 ADD SWAP1 DUP2 MSTORE PUSH1 0x20 ADD PUSH1 0x0 KECCAK256 PUSH1 0x0 CALLER PUSH20 0xFFFFFFFFFFFFFFFFFFFFFFFFFFFFFFFFFFFFFFFF AND PUSH20 0xFFFFFFFFFFFFFFFFFFFFFFFFFFFFFFFFFFFFFFFF AND DUP2 MSTORE PUSH1 0x20 ADD SWAP1 DUP2 MSTORE PUSH1 0x20 ADD PUSH1 0x0 KECCAK256 SLOAD EQ PUSH2 0x18E5 JUMPI PUSH2 0x1864 DUP4 PUSH1 0x40 MLOAD DUP1 PUSH1 0x40 ADD PUSH1 0x40 MSTORE DUP1 PUSH1 0x16 DUP2 MSTORE PUSH1 0x20 ADD PUSH32 0x496E73756666696369656E7420416C6C6F77616E636500000000000000000000 DUP2 MSTORE POP PUSH1 0x1B PUSH1 0x0 DUP10 PUSH20 0xFFFFFFFFFFFFFFFFFFFFFFFFFFFFFFFFFFFFFFFF AND PUSH20 0xFFFFFFFFFFFFFFFFFFFFFFFFFFFFFFFFFFFFFFFF AND DUP2 MSTORE PUSH1 0x20 ADD SWAP1 DUP2 MSTORE PUSH1 0x20 ADD PUSH1 0x0 KECCAK256 PUSH1 0x0 CALLER PUSH20 0xFFFFFFFFFFFFFFFFFFFFFFFFFFFFFFFFFFFFFFFF AND PUSH20 0xFFFFFFFFFFFFFFFFFFFFFFFFFFFFFFFFFFFFFFFF AND DUP2 MSTORE PUSH1 0x20 ADD SWAP1 DUP2 MSTORE PUSH1 0x20 ADD PUSH1 0x0 KECCAK256 SLOAD PUSH2 0x2F95 SWAP1 SWAP3 SWAP2 SWAP1 PUSH4 0xFFFFFFFF AND JUMP JUMPDEST PUSH1 0x1B PUSH1 0x0 DUP8 PUSH20 0xFFFFFFFFFFFFFFFFFFFFFFFFFFFFFFFFFFFFFFFF AND PUSH20 0xFFFFFFFFFFFFFFFFFFFFFFFFFFFFFFFFFFFFFFFF AND DUP2 MSTORE PUSH1 0x20 ADD SWAP1 DUP2 MSTORE PUSH1 0x20 ADD PUSH1 0x0 KECCAK256 PUSH1 0x0 CALLER PUSH20 0xFFFFFFFFFFFFFFFFFFFFFFFFFFFFFFFFFFFFFFFF AND PUSH20 0xFFFFFFFFFFFFFFFFFFFFFFFFFFFFFFFFFFFFFFFF AND DUP2 MSTORE PUSH1 0x20 ADD SWAP1 DUP2 MSTORE PUSH1 0x20 ADD PUSH1 0x0 KECCAK256 DUP2 SWAP1 SSTORE POP JUMPDEST PUSH2 0x18F0 DUP6 DUP6 DUP6 PUSH2 0x3055 JUMP JUMPDEST POP PUSH1 0x1 SWAP2 POP POP SWAP4 SWAP3 POP POP POP JUMP JUMPDEST PUSH1 0x0 PUSH2 0x1A13 PUSH1 0x19 SLOAD PUSH2 0x1A05 PUSH1 0x1A PUSH1 0x0 PUSH1 0xE PUSH1 0x0 SWAP1 SLOAD SWAP1 PUSH2 0x100 EXP SWAP1 DIV PUSH20 0xFFFFFFFFFFFFFFFFFFFFFFFFFFFFFFFFFFFFFFFF AND PUSH20 0xFFFFFFFFFFFFFFFFFFFFFFFFFFFFFFFFFFFFFFFF AND PUSH20 0xFFFFFFFFFFFFFFFFFFFFFFFFFFFFFFFFFFFFFFFF AND DUP2 MSTORE PUSH1 0x20 ADD SWAP1 DUP2 MSTORE PUSH1 0x20 ADD PUSH1 0x0 KECCAK256 SLOAD PUSH2 0x19F7 PUSH1 0x1A PUSH1 0x0 PUSH1 0xD PUSH1 0x0 SWAP1 SLOAD SWAP1 PUSH2 0x100 EXP SWAP1 DIV PUSH20 0xFFFFFFFFFFFFFFFFFFFFFFFFFFFFFFFFFFFFFFFF AND PUSH20 0xFFFFFFFFFFFFFFFFFFFFFFFFFFFFFFFFFFFFFFFF AND PUSH20 0xFFFFFFFFFFFFFFFFFFFFFFFFFFFFFFFFFFFFFFFF AND DUP2 MSTORE PUSH1 0x20 ADD SWAP1 DUP2 MSTORE PUSH1 0x20 ADD PUSH1 0x0 KECCAK256 SLOAD PUSH1 0x12 PUSH1 0xA EXP PUSH4 0xEE6B2800 MUL PUSH1 0x0 NOT DUP2 PUSH2 0x19E4 JUMPI INVALID JUMPDEST MOD PUSH1 0x0 NOT SUB PUSH2 0x3398 SWAP1 SWAP2 SWAP1 PUSH4 0xFFFFFFFF AND JUMP JUMPDEST PUSH2 0x3398 SWAP1 SWAP2 SWAP1 PUSH4 0xFFFFFFFF AND JUMP JUMPDEST PUSH2 0x2E70 SWAP1 SWAP2 SWAP1 PUSH4 0xFFFFFFFF AND JUMP JUMPDEST SWAP1 POP SWAP1 JUMP JUMPDEST PUSH1 0xA SLOAD DUP2 JUMP JUMPDEST PUSH2 0x1A26 PUSH2 0x239B JUMP JUMPDEST PUSH2 0x1A2F JUMPI PUSH1 0x0 DUP1 REVERT JUMPDEST PUSH1 0x1 PUSH1 0x4 PUSH1 0x14 PUSH2 0x100 EXP DUP2 SLOAD DUP2 PUSH1 0xFF MUL NOT AND SWAP1 DUP4 ISZERO ISZERO MUL OR SWAP1 SSTORE POP JUMP JUMPDEST PUSH2 0x1A54 PUSH2 0x239B JUMP JUMPDEST PUSH2 0x1A5D JUMPI PUSH1 0x0 DUP1 REVERT JUMPDEST DUP1 PUSH1 0x4 PUSH1 0x0 PUSH2 0x100 EXP DUP2 SLOAD DUP2 PUSH20 0xFFFFFFFFFFFFFFFFFFFFFFFFFFFFFFFFFFFFFFFF MUL NOT AND SWAP1 DUP4 PUSH20 0xFFFFFFFFFFFFFFFFFFFFFFFFFFFFFFFFFFFFFFFF AND MUL OR SWAP1 SSTORE POP PUSH1 0x6 PUSH1 0x0 DUP3 PUSH20 0xFFFFFFFFFFFFFFFFFFFFFFFFFFFFFFFFFFFFFFFF AND PUSH20 0xFFFFFFFFFFFFFFFFFFFFFFFFFFFFFFFFFFFFFFFF AND DUP2 MSTORE PUSH1 0x20 ADD SWAP1 DUP2 MSTORE PUSH1 0x20 ADD PUSH1 0x0 KECCAK256 PUSH1 0x0 SWAP1 SLOAD SWAP1 PUSH2 0x100 EXP SWAP1 POP POP POP JUMP JUMPDEST PUSH2 0x1AF4 PUSH2 0x239B JUMP JUMPDEST PUSH2 0x1AFD JUMPI PUSH1 0x0 DUP1 REVERT JUMPDEST PUSH2 0x1B06 DUP2 PUSH2 0x33E2 JUMP JUMPDEST POP JUMP JUMPDEST PUSH1 0x0 PUSH1 0x2 PUSH1 0x0 SWAP1 SLOAD SWAP1 PUSH2 0x100 EXP SWAP1 DIV PUSH1 0xFF AND SWAP1 POP SWAP1 JUMP JUMPDEST PUSH1 0x0 PUSH2 0x1B2A PUSH2 0x239B JUMP JUMPDEST PUSH2 0x1B33 JUMPI PUSH1 0x0 DUP1 REVERT JUMPDEST DUP3 PUSH20 0xFFFFFFFFFFFFFFFFFFFFFFFFFFFFFFFFFFFFFFFF AND PUSH4 0xA9059CBB CALLER DUP5 PUSH1 0x40 MLOAD DUP4 PUSH4 0xFFFFFFFF AND PUSH1 0xE0 SHL DUP2 MSTORE PUSH1 0x4 ADD DUP1 DUP4 PUSH20 0xFFFFFFFFFFFFFFFFFFFFFFFFFFFFFFFFFFFFFFFF AND DUP2 MSTORE PUSH1 0x20 ADD DUP3 DUP2 MSTORE PUSH1 0x20 ADD SWAP3 POP POP POP PUSH1 0x20 PUSH1 0x40 MLOAD DUP1 DUP4 SUB DUP2 PUSH1 0x0 DUP8 DUP1 EXTCODESIZE ISZERO DUP1 ISZERO PUSH2 0x1BA4 JUMPI PUSH1 0x0 DUP1 REVERT JUMPDEST POP GAS CALL ISZERO DUP1 ISZERO PUSH2 0x1BB8 JUMPI RETURNDATASIZE PUSH1 0x0 DUP1 RETURNDATACOPY RETURNDATASIZE PUSH1 0x0 REVERT JUMPDEST POP POP POP POP PUSH1 0x40 MLOAD RETURNDATASIZE PUSH1 0x20 DUP2 LT ISZERO PUSH2 0x1BCE JUMPI PUSH1 0x0 DUP1 REVERT JUMPDEST DUP2 ADD SWAP1 DUP1 DUP1 MLOAD SWAP1 PUSH1 0x20 ADD SWAP1 SWAP3 SWAP2 SWAP1 POP POP POP SWAP1 POP SWAP3 SWAP2 POP POP JUMP JUMPDEST PUSH1 0x0 PUSH1 0x4 PUSH1 0x14 SWAP1 SLOAD SWAP1 PUSH2 0x100 EXP SWAP1 DIV PUSH1 0xFF AND DUP1 PUSH2 0x1C08 JUMPI POP PUSH2 0x1C07 PUSH2 0x239B JUMP JUMPDEST JUMPDEST DUP1 PUSH2 0x1C5C JUMPI POP PUSH1 0x5 PUSH1 0x0 CALLER PUSH20 0xFFFFFFFFFFFFFFFFFFFFFFFFFFFFFFFFFFFFFFFF AND PUSH20 0xFFFFFFFFFFFFFFFFFFFFFFFFFFFFFFFFFFFFFFFF AND DUP2 MSTORE PUSH1 0x20 ADD SWAP1 DUP2 MSTORE PUSH1 0x20 ADD PUSH1 0x0 KECCAK256 PUSH1 0x0 SWAP1 SLOAD SWAP1 PUSH2 0x100 EXP SWAP1 DIV PUSH1 0xFF AND JUMPDEST PUSH2 0x1C65 JUMPI PUSH1 0x0 DUP1 REVERT JUMPDEST PUSH2 0x1CF4 DUP3 PUSH1 0x1B PUSH1 0x0 CALLER PUSH20 0xFFFFFFFFFFFFFFFFFFFFFFFFFFFFFFFFFFFFFFFF AND PUSH20 0xFFFFFFFFFFFFFFFFFFFFFFFFFFFFFFFFFFFFFFFF AND DUP2 MSTORE PUSH1 0x20 ADD SWAP1 DUP2 MSTORE PUSH1 0x20 ADD PUSH1 0x0 KECCAK256 PUSH1 0x0 DUP7 PUSH20 0xFFFFFFFFFFFFFFFFFFFFFFFFFFFFFFFFFFFFFFFF AND PUSH20 0xFFFFFFFFFFFFFFFFFFFFFFFFFFFFFFFFFFFFFFFF AND DUP2 MSTORE PUSH1 0x20 ADD SWAP1 DUP2 MSTORE PUSH1 0x20 ADD PUSH1 0x0 KECCAK256 SLOAD PUSH2 0x2DE8 SWAP1 SWAP2 SWAP1 PUSH4 0xFFFFFFFF AND JUMP JUMPDEST PUSH1 0x1B PUSH1 0x0 CALLER PUSH20 0xFFFFFFFFFFFFFFFFFFFFFFFFFFFFFFFFFFFFFFFF AND PUSH20 0xFFFFFFFFFFFFFFFFFFFFFFFFFFFFFFFFFFFFFFFF AND DUP2 MSTORE PUSH1 0x20 ADD SWAP1 DUP2 MSTORE PUSH1 0x20 ADD PUSH1 0x0 KECCAK256 PUSH1 0x0 DUP6 PUSH20 0xFFFFFFFFFFFFFFFFFFFFFFFFFFFFFFFFFFFFFFFF AND PUSH20 0xFFFFFFFFFFFFFFFFFFFFFFFFFFFFFFFFFFFFFFFF AND DUP2 MSTORE PUSH1 0x20 ADD SWAP1 DUP2 MSTORE PUSH1 0x20 ADD PUSH1 0x0 KECCAK256 DUP2 SWAP1 SSTORE POP DUP3 PUSH20 0xFFFFFFFFFFFFFFFFFFFFFFFFFFFFFFFFFFFFFFFF AND CALLER PUSH20 0xFFFFFFFFFFFFFFFFFFFFFFFFFFFFFFFFFFFFFFFF AND PUSH32 0x8C5BE1E5EBEC7D5BD14F71427D1E84F3DD0314C0F7B2291E5B200AC8C7C3B925 PUSH1 0x1B PUSH1 0x0 CALLER PUSH20 0xFFFFFFFFFFFFFFFFFFFFFFFFFFFFFFFFFFFFFFFF AND PUSH20 0xFFFFFFFFFFFFFFFFFFFFFFFFFFFFFFFFFFFFFFFF AND DUP2 MSTORE PUSH1 0x20 ADD SWAP1 DUP2 MSTORE PUSH1 0x20 ADD PUSH1 0x0 KECCAK256 PUSH1 0x0 DUP8 PUSH20 0xFFFFFFFFFFFFFFFFFFFFFFFFFFFFFFFFFFFFFFFF AND PUSH20 0xFFFFFFFFFFFFFFFFFFFFFFFFFFFFFFFFFFFFFFFF AND DUP2 MSTORE PUSH1 0x20 ADD SWAP1 DUP2 MSTORE PUSH1 0x20 ADD PUSH1 0x0 KECCAK256 SLOAD PUSH1 0x40 MLOAD DUP1 DUP3 DUP2 MSTORE PUSH1 0x20 ADD SWAP2 POP POP PUSH1 0x40 MLOAD DUP1 SWAP2 SUB SWAP1 LOG3 PUSH1 0x1 SWAP1 POP SWAP3 SWAP2 POP POP JUMP JUMPDEST PUSH2 0x1E68 CALLER PUSH2 0x2932 JUMP JUMPDEST PUSH2 0x1EBD JUMPI PUSH1 0x40 MLOAD PUSH32 0x8C379A000000000000000000000000000000000000000000000000000000000 DUP2 MSTORE PUSH1 0x4 ADD DUP1 DUP1 PUSH1 0x20 ADD DUP3 DUP2 SUB DUP3 MSTORE PUSH1 0x30 DUP2 MSTORE PUSH1 0x20 ADD DUP1 PUSH2 0x4451 PUSH1 0x30 SWAP2 CODECOPY PUSH1 0x40 ADD SWAP2 POP POP PUSH1 0x40 MLOAD DUP1 SWAP2 SUB SWAP1 REVERT JUMPDEST PUSH2 0x1ED2 DUP2 PUSH1 0x18 SLOAD PUSH2 0x2DE8 SWAP1 SWAP2 SWAP1 PUSH4 0xFFFFFFFF AND JUMP JUMPDEST PUSH1 0x18 DUP2 SWAP1 SSTORE POP PUSH1 0x0 NOT PUSH16 0xFFFFFFFFFFFFFFFFFFFFFFFFFFFFFFFF AND PUSH1 0x18 SLOAD GT ISZERO PUSH2 0x1F12 JUMPI PUSH1 0x0 NOT PUSH16 0xFFFFFFFFFFFFFFFFFFFFFFFFFFFFFFFF AND PUSH1 0x18 DUP2 SWAP1 SSTORE POP JUMPDEST PUSH2 0x1F40 PUSH1 0x18 SLOAD PUSH1 0x12 PUSH1 0xA EXP PUSH4 0xEE6B2800 MUL PUSH1 0x0 NOT DUP2 PUSH2 0x1F2D JUMPI INVALID JUMPDEST MOD PUSH1 0x0 NOT SUB PUSH2 0x2E70 SWAP1 SWAP2 SWAP1 PUSH4 0xFFFFFFFF AND JUMP JUMPDEST PUSH1 0x19 DUP2 SWAP1 SSTORE POP PUSH1 0x4 PUSH1 0x0 SWAP1 SLOAD SWAP1 PUSH2 0x100 EXP SWAP1 DIV PUSH20 0xFFFFFFFFFFFFFFFFFFFFFFFFFFFFFFFFFFFFFFFF AND PUSH20 0xFFFFFFFFFFFFFFFFFFFFFFFFFFFFFFFFFFFFFFFF AND PUSH4 0xFFF6CAE9 PUSH1 0x40 MLOAD DUP2 PUSH4 0xFFFFFFFF AND PUSH1 0xE0 SHL DUP2 MSTORE PUSH1 0x4 ADD PUSH1 0x0 PUSH1 0x40 MLOAD DUP1 DUP4 SUB DUP2 PUSH1 0x0 DUP8 DUP1 EXTCODESIZE ISZERO DUP1 ISZERO PUSH2 0x1FB0 JUMPI PUSH1 0x0 DUP1 REVERT JUMPDEST POP GAS CALL ISZERO DUP1 ISZERO PUSH2 0x1FC4 JUMPI RETURNDATASIZE PUSH1 0x0 DUP1 RETURNDATACOPY RETURNDATASIZE PUSH1 0x0 REVERT JUMPDEST POP POP POP POP PUSH2 0x201A DUP2 PUSH1 0x1A PUSH1 0x0 DUP6 PUSH20 0xFFFFFFFFFFFFFFFFFFFFFFFFFFFFFFFFFFFFFFFF AND PUSH20 0xFFFFFFFFFFFFFFFFFFFFFFFFFFFFFFFFFFFFFFFF AND DUP2 MSTORE PUSH1 0x20 ADD SWAP1 DUP2 MSTORE PUSH1 0x20 ADD PUSH1 0x0 KECCAK256 SLOAD PUSH2 0x2DE8 SWAP1 SWAP2 SWAP1 PUSH4 0xFFFFFFFF AND JUMP JUMPDEST PUSH1 0x1A PUSH1 0x0 DUP5 PUSH20 0xFFFFFFFFFFFFFFFFFFFFFFFFFFFFFFFFFFFFFFFF AND PUSH20 0xFFFFFFFFFFFFFFFFFFFFFFFFFFFFFFFFFFFFFFFF AND DUP2 MSTORE PUSH1 0x20 ADD SWAP1 DUP2 MSTORE PUSH1 0x20 ADD PUSH1 0x0 KECCAK256 DUP2 SWAP1 SSTORE POP POP POP JUMP JUMPDEST PUSH1 0x4 PUSH1 0x0 SWAP1 SLOAD SWAP1 PUSH2 0x100 EXP SWAP1 DIV PUSH20 0xFFFFFFFFFFFFFFFFFFFFFFFFFFFFFFFFFFFFFFFF AND DUP2 JUMP JUMPDEST PUSH1 0x8 SLOAD DUP2 JUMP JUMPDEST PUSH2 0x2095 PUSH2 0x239B JUMP JUMPDEST PUSH2 0x209E JUMPI PUSH1 0x0 DUP1 REVERT JUMPDEST PUSH1 0x0 SELFBALANCE SWAP1 POP DUP2 PUSH20 0xFFFFFFFFFFFFFFFFFFFFFFFFFFFFFFFFFFFFFFFF AND PUSH2 0x8FC PUSH1 0x64 DUP6 DUP5 MUL DUP2 PUSH2 0x20C9 JUMPI INVALID JUMPDEST DIV SWAP1 DUP2 ISZERO MUL SWAP1 PUSH1 0x40 MLOAD PUSH1 0x0 PUSH1 0x40 MLOAD DUP1 DUP4 SUB DUP2 DUP6 DUP9 DUP9 CALL SWAP4 POP POP POP POP ISZERO DUP1 ISZERO PUSH2 0x20F5 JUMPI RETURNDATASIZE PUSH1 0x0 DUP1 RETURNDATACOPY RETURNDATASIZE PUSH1 0x0 REVERT JUMPDEST POP POP POP POP JUMP JUMPDEST PUSH1 0x0 PUSH2 0x2114 PUSH1 0x19 SLOAD PUSH1 0x16 SLOAD PUSH2 0x2E70 SWAP1 SWAP2 SWAP1 PUSH4 0xFFFFFFFF AND JUMP JUMPDEST SWAP1 POP SWAP1 JUMP JUMPDEST PUSH1 0x15 PUSH1 0x14 SWAP1 SLOAD SWAP1 PUSH2 0x100 EXP SWAP1 DIV PUSH1 0xFF AND DUP2 JUMP JUMPDEST PUSH1 0x0 PUSH2 0x2182 PUSH1 0x19 SLOAD PUSH1 0x1A PUSH1 0x0 DUP6 PUSH20 0xFFFFFFFFFFFFFFFFFFFFFFFFFFFFFFFFFFFFFFFF AND PUSH20 0xFFFFFFFFFFFFFFFFFFFFFFFFFFFFFFFFFFFFFFFF AND DUP2 MSTORE PUSH1 0x20 ADD SWAP1 DUP2 MSTORE PUSH1 0x20 ADD PUSH1 0x0 KECCAK256 SLOAD PUSH2 0x2E70 SWAP1 SWAP2 SWAP1 PUSH4 0xFFFFFFFF AND JUMP JUMPDEST SWAP1 POP SWAP2 SWAP1 POP JUMP JUMPDEST PUSH2 0x2191 PUSH2 0x239B JUMP JUMPDEST PUSH2 0x219A JUMPI PUSH1 0x0 DUP1 REVERT JUMPDEST PUSH1 0x2 PUSH1 0x1 SWAP1 SLOAD SWAP1 PUSH2 0x100 EXP SWAP1 DIV PUSH20 0xFFFFFFFFFFFFFFFFFFFFFFFFFFFFFFFFFFFFFFFF AND PUSH20 0xFFFFFFFFFFFFFFFFFFFFFFFFFFFFFFFFFFFFFFFF AND PUSH32 0xF8DF31144D9C2F0F6B59D69B8B98ABD5459D07F2742C4DF920B25AAE33C64820 PUSH1 0x40 MLOAD PUSH1 0x40 MLOAD DUP1 SWAP2 SUB SWAP1 LOG2 PUSH1 0x0 PUSH1 0x2 PUSH1 0x1 PUSH2 0x100 EXP DUP2 SLOAD DUP2 PUSH20 0xFFFFFFFFFFFFFFFFFFFFFFFFFFFFFFFFFFFFFFFF MUL NOT AND SWAP1 DUP4 PUSH20 0xFFFFFFFFFFFFFFFFFFFFFFFFFFFFFFFFFFFFFFFF AND MUL OR SWAP1 SSTORE POP JUMP JUMPDEST PUSH2 0x224B PUSH2 0x239B JUMP JUMPDEST PUSH2 0x2254 JUMPI PUSH1 0x0 DUP1 REVERT JUMPDEST PUSH1 0x1 PUSH1 0x6 PUSH1 0x0 DUP4 PUSH20 0xFFFFFFFFFFFFFFFFFFFFFFFFFFFFFFFFFFFFFFFF AND PUSH20 0xFFFFFFFFFFFFFFFFFFFFFFFFFFFFFFFFFFFFFFFF AND DUP2 MSTORE PUSH1 0x20 ADD SWAP1 DUP2 MSTORE PUSH1 0x20 ADD PUSH1 0x0 KECCAK256 PUSH1 0x0 PUSH2 0x100 EXP DUP2 SLOAD DUP2 PUSH1 0xFF MUL NOT AND SWAP1 DUP4 ISZERO ISZERO MUL OR SWAP1 SSTORE POP POP JUMP JUMPDEST PUSH1 0x15 PUSH1 0x0 SWAP1 SLOAD SWAP1 PUSH2 0x100 EXP SWAP1 DIV PUSH20 0xFFFFFFFFFFFFFFFFFFFFFFFFFFFFFFFFFFFFFFFF AND PUSH20 0xFFFFFFFFFFFFFFFFFFFFFFFFFFFFFFFFFFFFFFFF AND PUSH4 0xFFF6CAE9 PUSH1 0x40 MLOAD DUP2 PUSH4 0xFFFFFFFF AND PUSH1 0xE0 SHL DUP2 MSTORE PUSH1 0x4 ADD PUSH1 0x0 PUSH1 0x40 MLOAD DUP1 DUP4 SUB DUP2 PUSH1 0x0 DUP8 DUP1 EXTCODESIZE ISZERO DUP1 ISZERO PUSH2 0x2319 JUMPI PUSH1 0x0 DUP1 REVERT JUMPDEST POP GAS CALL ISZERO DUP1 ISZERO PUSH2 0x232D JUMPI RETURNDATASIZE PUSH1 0x0 DUP1 RETURNDATACOPY RETURNDATASIZE PUSH1 0x0 REVERT JUMPDEST POP POP POP POP JUMP JUMPDEST PUSH1 0x10 PUSH1 0x0 SWAP1 SLOAD SWAP1 PUSH2 0x100 EXP SWAP1 DIV PUSH20 0xFFFFFFFFFFFFFFFFFFFFFFFFFFFFFFFFFFFFFFFF AND DUP2 JUMP JUMPDEST PUSH1 0x0 PUSH1 0x17 PUSH1 0x0 SWAP1 SLOAD SWAP1 PUSH2 0x100 EXP SWAP1 DIV PUSH1 0xFF AND ISZERO SWAP1 POP SWAP1 JUMP JUMPDEST PUSH1 0x0 PUSH1 0x2 PUSH1 0x1 SWAP1 SLOAD SWAP1 PUSH2 0x100 EXP SWAP1 DIV PUSH20 0xFFFFFFFFFFFFFFFFFFFFFFFFFFFFFFFFFFFFFFFF AND SWAP1 POP SWAP1 JUMP JUMPDEST PUSH1 0x0 PUSH1 0x2 PUSH1 0x1 SWAP1 SLOAD SWAP1 PUSH2 0x100 EXP SWAP1 DIV PUSH20 0xFFFFFFFFFFFFFFFFFFFFFFFFFFFFFFFFFFFFFFFF AND PUSH20 0xFFFFFFFFFFFFFFFFFFFFFFFFFFFFFFFFFFFFFFFF AND CALLER PUSH20 0xFFFFFFFFFFFFFFFFFFFFFFFFFFFFFFFFFFFFFFFF AND EQ SWAP1 POP SWAP1 JUMP JUMPDEST PUSH2 0x23FB PUSH2 0x239B JUMP JUMPDEST PUSH2 0x2404 JUMPI PUSH1 0x0 DUP1 REVERT JUMPDEST DUP1 PUSH1 0x1C PUSH1 0x0 DUP5 PUSH20 0xFFFFFFFFFFFFFFFFFFFFFFFFFFFFFFFFFFFFFFFF AND PUSH20 0xFFFFFFFFFFFFFFFFFFFFFFFFFFFFFFFFFFFFFFFF AND DUP2 MSTORE PUSH1 0x20 ADD SWAP1 DUP2 MSTORE PUSH1 0x20 ADD PUSH1 0x0 KECCAK256 PUSH1 0x0 PUSH2 0x100 EXP DUP2 SLOAD DUP2 PUSH1 0xFF MUL NOT AND SWAP1 DUP4 ISZERO ISZERO MUL OR SWAP1 SSTORE POP POP POP JUMP JUMPDEST PUSH1 0x60 PUSH1 0x1 DUP1 SLOAD PUSH1 0x1 DUP2 PUSH1 0x1 AND ISZERO PUSH2 0x100 MUL SUB AND PUSH1 0x2 SWAP1 DIV DUP1 PUSH1 0x1F ADD PUSH1 0x20 DUP1 SWAP2 DIV MUL PUSH1 0x20 ADD PUSH1 0x40 MLOAD SWAP1 DUP2 ADD PUSH1 0x40 MSTORE DUP1 SWAP3 SWAP2 SWAP1 DUP2 DUP2 MSTORE PUSH1 0x20 ADD DUP3 DUP1 SLOAD PUSH1 0x1 DUP2 PUSH1 0x1 AND ISZERO PUSH2 0x100 MUL SUB AND PUSH1 0x2 SWAP1 DIV DUP1 ISZERO PUSH2 0x24F7 JUMPI DUP1 PUSH1 0x1F LT PUSH2 0x24CC JUMPI PUSH2 0x100 DUP1 DUP4 SLOAD DIV MUL DUP4 MSTORE SWAP2 PUSH1 0x20 ADD SWAP2 PUSH2 0x24F7 JUMP JUMPDEST DUP3 ADD SWAP2 SWAP1 PUSH1 0x0 MSTORE PUSH1 0x20 PUSH1 0x0 KECCAK256 SWAP1 JUMPDEST DUP2 SLOAD DUP2 MSTORE SWAP1 PUSH1 0x1 ADD SWAP1 PUSH1 0x20 ADD DUP1 DUP4 GT PUSH2 0x24DA JUMPI DUP3 SWAP1 SUB PUSH1 0x1F AND DUP3 ADD SWAP2 JUMPDEST POP POP POP POP POP SWAP1 POP SWAP1 JUMP JUMPDEST PUSH1 0x7 SLOAD DUP2 JUMP JUMPDEST PUSH2 0x250F PUSH2 0x239B JUMP JUMPDEST PUSH2 0x2518 JUMPI PUSH1 0x0 DUP1 REVERT JUMPDEST PUSH2 0x2521 DUP2 PUSH2 0x343C JUMP JUMPDEST POP JUMP JUMPDEST PUSH2 0x252D CALLER PUSH2 0x33E2 JUMP JUMPDEST JUMP JUMPDEST PUSH1 0x0 PUSH1 0x4 PUSH1 0x14 SWAP1 SLOAD SWAP1 PUSH2 0x100 EXP SWAP1 DIV PUSH1 0xFF AND DUP1 PUSH2 0x2550 JUMPI POP PUSH2 0x254F PUSH2 0x239B JUMP JUMPDEST JUMPDEST DUP1 PUSH2 0x25A4 JUMPI POP PUSH1 0x5 PUSH1 0x0 CALLER PUSH20 0xFFFFFFFFFFFFFFFFFFFFFFFFFFFFFFFFFFFFFFFF AND PUSH20 0xFFFFFFFFFFFFFFFFFFFFFFFFFFFFFFFFFFFFFFFF AND DUP2 MSTORE PUSH1 0x20 ADD SWAP1 DUP2 MSTORE PUSH1 0x20 ADD PUSH1 0x0 KECCAK256 PUSH1 0x0 SWAP1 SLOAD SWAP1 PUSH2 0x100 EXP SWAP1 DIV PUSH1 0xFF AND JUMPDEST PUSH2 0x25AD JUMPI PUSH1 0x0 DUP1 REVERT JUMPDEST PUSH1 0x0 PUSH1 0x1B PUSH1 0x0 CALLER PUSH20 0xFFFFFFFFFFFFFFFFFFFFFFFFFFFFFFFFFFFFFFFF AND PUSH20 0xFFFFFFFFFFFFFFFFFFFFFFFFFFFFFFFFFFFFFFFF AND DUP2 MSTORE PUSH1 0x20 ADD SWAP1 DUP2 MSTORE PUSH1 0x20 ADD PUSH1 0x0 KECCAK256 PUSH1 0x0 DUP6 PUSH20 0xFFFFFFFFFFFFFFFFFFFFFFFFFFFFFFFFFFFFFFFF AND PUSH20 0xFFFFFFFFFFFFFFFFFFFFFFFFFFFFFFFFFFFFFFFF AND DUP2 MSTORE PUSH1 0x20 ADD SWAP1 DUP2 MSTORE PUSH1 0x20 ADD PUSH1 0x0 KECCAK256 SLOAD SWAP1 POP DUP1 DUP4 LT PUSH2 0x26BC JUMPI PUSH1 0x0 PUSH1 0x1B PUSH1 0x0 CALLER PUSH20 0xFFFFFFFFFFFFFFFFFFFFFFFFFFFFFFFFFFFFFFFF AND PUSH20 0xFFFFFFFFFFFFFFFFFFFFFFFFFFFFFFFFFFFFFFFF AND DUP2 MSTORE PUSH1 0x20 ADD SWAP1 DUP2 MSTORE PUSH1 0x20 ADD PUSH1 0x0 KECCAK256 PUSH1 0x0 DUP7 PUSH20 0xFFFFFFFFFFFFFFFFFFFFFFFFFFFFFFFFFFFFFFFF AND PUSH20 0xFFFFFFFFFFFFFFFFFFFFFFFFFFFFFFFFFFFFFFFF AND DUP2 MSTORE PUSH1 0x20 ADD SWAP1 DUP2 MSTORE PUSH1 0x20 ADD PUSH1 0x0 KECCAK256 DUP2 SWAP1 SSTORE POP PUSH2 0x2750 JUMP JUMPDEST PUSH2 0x26CF DUP4 DUP3 PUSH2 0x3398 SWAP1 SWAP2 SWAP1 PUSH4 0xFFFFFFFF AND JUMP JUMPDEST PUSH1 0x1B PUSH1 0x0 CALLER PUSH20 0xFFFFFFFFFFFFFFFFFFFFFFFFFFFFFFFFFFFFFFFF AND PUSH20 0xFFFFFFFFFFFFFFFFFFFFFFFFFFFFFFFFFFFFFFFF AND DUP2 MSTORE PUSH1 0x20 ADD SWAP1 DUP2 MSTORE PUSH1 0x20 ADD PUSH1 0x0 KECCAK256 PUSH1 0x0 DUP7 PUSH20 0xFFFFFFFFFFFFFFFFFFFFFFFFFFFFFFFFFFFFFFFF AND PUSH20 0xFFFFFFFFFFFFFFFFFFFFFFFFFFFFFFFFFFFFFFFF AND DUP2 MSTORE PUSH1 0x20 ADD SWAP1 DUP2 MSTORE PUSH1 0x20 ADD PUSH1 0x0 KECCAK256 DUP2 SWAP1 SSTORE POP JUMPDEST DUP4 PUSH20 0xFFFFFFFFFFFFFFFFFFFFFFFFFFFFFFFFFFFFFFFF AND CALLER PUSH20 0xFFFFFFFFFFFFFFFFFFFFFFFFFFFFFFFFFFFFFFFF AND PUSH32 0x8C5BE1E5EBEC7D5BD14F71427D1E84F3DD0314C0F7B2291E5B200AC8C7C3B925 PUSH1 0x1B PUSH1 0x0 CALLER PUSH20 0xFFFFFFFFFFFFFFFFFFFFFFFFFFFFFFFFFFFFFFFF AND PUSH20 0xFFFFFFFFFFFFFFFFFFFFFFFFFFFFFFFFFFFFFFFF AND DUP2 MSTORE PUSH1 0x20 ADD SWAP1 DUP2 MSTORE PUSH1 0x20 ADD PUSH1 0x0 KECCAK256 PUSH1 0x0 DUP9 PUSH20 0xFFFFFFFFFFFFFFFFFFFFFFFFFFFFFFFFFFFFFFFF AND PUSH20 0xFFFFFFFFFFFFFFFFFFFFFFFFFFFFFFFFFFFFFFFF AND DUP2 MSTORE PUSH1 0x20 ADD SWAP1 DUP2 MSTORE PUSH1 0x20 ADD PUSH1 0x0 KECCAK256 SLOAD PUSH1 0x40 MLOAD DUP1 DUP3 DUP2 MSTORE PUSH1 0x20 ADD SWAP2 POP POP PUSH1 0x40 MLOAD DUP1 SWAP2 SUB SWAP1 LOG3 PUSH1 0x1 SWAP2 POP POP SWAP3 SWAP2 POP POP JUMP JUMPDEST PUSH1 0x15 PUSH1 0x0 SWAP1 SLOAD SWAP1 PUSH2 0x100 EXP SWAP1 DIV PUSH20 0xFFFFFFFFFFFFFFFFFFFFFFFFFFFFFFFFFFFFFFFF AND DUP2 JUMP JUMPDEST PUSH1 0x0 DUP3 PUSH1 0x0 PUSH20 0xFFFFFFFFFFFFFFFFFFFFFFFFFFFFFFFFFFFFFFFF AND DUP2 PUSH20 0xFFFFFFFFFFFFFFFFFFFFFFFFFFFFFFFFFFFFFFFF AND EQ ISZERO PUSH2 0x289F JUMPI PUSH1 0x0 DUP1 REVERT JUMPDEST PUSH1 0x4 PUSH1 0x14 SWAP1 SLOAD SWAP1 PUSH2 0x100 EXP SWAP1 DIV PUSH1 0xFF AND DUP1 PUSH2 0x28BE JUMPI POP PUSH2 0x28BD PUSH2 0x239B JUMP JUMPDEST JUMPDEST DUP1 PUSH2 0x2912 JUMPI POP PUSH1 0x5 PUSH1 0x0 CALLER PUSH20 0xFFFFFFFFFFFFFFFFFFFFFFFFFFFFFFFFFFFFFFFF AND PUSH20 0xFFFFFFFFFFFFFFFFFFFFFFFFFFFFFFFFFFFFFFFF AND DUP2 MSTORE PUSH1 0x20 ADD SWAP1 DUP2 MSTORE PUSH1 0x20 ADD PUSH1 0x0 KECCAK256 PUSH1 0x0 SWAP1 SLOAD SWAP1 PUSH2 0x100 EXP SWAP1 DIV PUSH1 0xFF AND JUMPDEST PUSH2 0x291B JUMPI PUSH1 0x0 DUP1 REVERT JUMPDEST PUSH2 0x2926 CALLER DUP6 DUP6 PUSH2 0x3055 JUMP JUMPDEST POP PUSH1 0x1 SWAP2 POP POP SWAP3 SWAP2 POP POP JUMP JUMPDEST PUSH1 0x0 PUSH2 0x2948 DUP3 PUSH1 0x3 PUSH2 0x3496 SWAP1 SWAP2 SWAP1 PUSH4 0xFFFFFFFF AND JUMP JUMPDEST SWAP1 POP SWAP2 SWAP1 POP JUMP JUMPDEST PUSH1 0x9 SLOAD DUP2 JUMP JUMPDEST PUSH1 0xF PUSH1 0x0 SWAP1 SLOAD SWAP1 PUSH2 0x100 EXP SWAP1 DIV PUSH20 0xFFFFFFFFFFFFFFFFFFFFFFFFFFFFFFFFFFFFFFFF AND DUP2 JUMP JUMPDEST PUSH2 0x2983 PUSH2 0x239B JUMP JUMPDEST PUSH2 0x298C JUMPI PUSH1 0x0 DUP1 REVERT JUMPDEST DUP3 PUSH1 0x15 PUSH1 0x14 PUSH2 0x100 EXP DUP2 SLOAD DUP2 PUSH1 0xFF MUL NOT AND SWAP1 DUP4 ISZERO ISZERO MUL OR SWAP1 SSTORE POP PUSH2 0x29E4 DUP3 PUSH2 0x29D6 DUP4 PUSH1 0x12 PUSH1 0xA EXP PUSH4 0xEE6B2800 MUL PUSH1 0x0 NOT DUP2 PUSH2 0x29C3 JUMPI INVALID JUMPDEST MOD PUSH1 0x0 NOT SUB PUSH2 0x2E70 SWAP1 SWAP2 SWAP1 PUSH4 0xFFFFFFFF AND JUMP JUMPDEST PUSH2 0x3574 SWAP1 SWAP2 SWAP1 PUSH4 0xFFFFFFFF AND JUMP JUMPDEST PUSH1 0x16 DUP2 SWAP1 SSTORE POP POP POP POP JUMP JUMPDEST PUSH1 0x4 PUSH1 0x14 SWAP1 SLOAD SWAP1 PUSH2 0x100 EXP SWAP1 DIV PUSH1 0xFF AND DUP2 JUMP JUMPDEST PUSH2 0x2A0A PUSH2 0x239B JUMP JUMPDEST PUSH2 0x2A13 JUMPI PUSH1 0x0 DUP1 REVERT JUMPDEST PUSH1 0x0 JUMPDEST DUP5 DUP5 SWAP1 POP DUP2 LT ISZERO PUSH2 0x2A74 JUMPI PUSH2 0x2A66 CALLER DUP7 DUP7 DUP5 DUP2 DUP2 LT PUSH2 0x2A31 JUMPI INVALID JUMPDEST SWAP1 POP PUSH1 0x20 MUL ADD CALLDATALOAD PUSH20 0xFFFFFFFFFFFFFFFFFFFFFFFFFFFFFFFFFFFFFFFF AND DUP6 DUP6 DUP6 DUP2 DUP2 LT PUSH2 0x2A5A JUMPI INVALID JUMPDEST SWAP1 POP PUSH1 0x20 MUL ADD CALLDATALOAD PUSH2 0x3055 JUMP JUMPDEST POP DUP1 DUP1 PUSH1 0x1 ADD SWAP2 POP POP PUSH2 0x2A16 JUMP JUMPDEST POP POP POP POP POP JUMP JUMPDEST PUSH1 0x0 PUSH1 0x6 PUSH1 0x0 DUP4 PUSH20 0xFFFFFFFFFFFFFFFFFFFFFFFFFFFFFFFFFFFFFFFF AND PUSH20 0xFFFFFFFFFFFFFFFFFFFFFFFFFFFFFFFFFFFFFFFF AND DUP2 MSTORE PUSH1 0x20 ADD SWAP1 DUP2 MSTORE PUSH1 0x20 ADD PUSH1 0x0 KECCAK256 PUSH1 0x0 SWAP1 SLOAD SWAP1 PUSH2 0x100 EXP SWAP1 DIV PUSH1 0xFF AND SWAP1 POP SWAP2 SWAP1 POP JUMP JUMPDEST PUSH1 0x0 DUP1 PUSH2 0x2B4A PUSH1 0x19 SLOAD PUSH1 0x1A PUSH1 0x0 PUSH1 0x15 PUSH1 0x0 SWAP1 SLOAD SWAP1 PUSH2 0x100 EXP SWAP1 DIV PUSH20 0xFFFFFFFFFFFFFFFFFFFFFFFFFFFFFFFFFFFFFFFF AND PUSH20 0xFFFFFFFFFFFFFFFFFFFFFFFFFFFFFFFFFFFFFFFF AND PUSH20 0xFFFFFFFFFFFFFFFFFFFFFFFFFFFFFFFFFFFFFFFF AND DUP2 MSTORE PUSH1 0x20 ADD SWAP1 DUP2 MSTORE PUSH1 0x20 ADD PUSH1 0x0 KECCAK256 SLOAD PUSH2 0x2E70 SWAP1 SWAP2 SWAP1 PUSH4 0xFFFFFFFF AND JUMP JUMPDEST SWAP1 POP PUSH2 0x2B8B PUSH2 0x2B57 PUSH2 0x18FD JUMP JUMPDEST PUSH2 0x2B7D PUSH2 0x2B6E PUSH1 0x2 DUP6 PUSH2 0x3574 SWAP1 SWAP2 SWAP1 PUSH4 0xFFFFFFFF AND JUMP JUMPDEST DUP7 PUSH2 0x3574 SWAP1 SWAP2 SWAP1 PUSH4 0xFFFFFFFF AND JUMP JUMPDEST PUSH2 0x2E70 SWAP1 SWAP2 SWAP1 PUSH4 0xFFFFFFFF AND JUMP JUMPDEST SWAP2 POP POP SWAP2 SWAP1 POP JUMP JUMPDEST PUSH2 0x2B9B PUSH2 0x239B JUMP JUMPDEST PUSH2 0x2BA4 JUMPI PUSH1 0x0 DUP1 REVERT JUMPDEST PUSH1 0x1 PUSH1 0x5 PUSH1 0x0 DUP4 PUSH20 0xFFFFFFFFFFFFFFFFFFFFFFFFFFFFFFFFFFFFFFFF AND PUSH20 0xFFFFFFFFFFFFFFFFFFFFFFFFFFFFFFFFFFFFFFFF AND DUP2 MSTORE PUSH1 0x20 ADD SWAP1 DUP2 MSTORE PUSH1 0x20 ADD PUSH1 0x0 KECCAK256 PUSH1 0x0 PUSH2 0x100 EXP DUP2 SLOAD DUP2 PUSH1 0xFF MUL NOT AND SWAP1 DUP4 ISZERO ISZERO MUL OR SWAP1 SSTORE POP POP JUMP JUMPDEST PUSH1 0x11 PUSH1 0x0 SWAP1 SLOAD SWAP1 PUSH2 0x100 EXP SWAP1 DIV PUSH20 0xFFFFFFFFFFFFFFFFFFFFFFFFFFFFFFFFFFFFFFFF AND DUP2 JUMP JUMPDEST PUSH2 0x2C2D PUSH2 0x239B JUMP JUMPDEST PUSH2 0x2C36 JUMPI PUSH1 0x0 DUP1 REVERT JUMPDEST DUP3 PUSH1 0xF PUSH1 0x0 PUSH2 0x100 EXP DUP2 SLOAD DUP2 PUSH20 0xFFFFFFFFFFFFFFFFFFFFFFFFFFFFFFFFFFFFFFFF MUL NOT AND SWAP1 DUP4 PUSH20 0xFFFFFFFFFFFFFFFFFFFFFFFFFFFFFFFFFFFFFFFF AND MUL OR SWAP1 SSTORE POP DUP2 PUSH1 0x10 PUSH1 0x0 PUSH2 0x100 EXP DUP2 SLOAD DUP2 PUSH20 0xFFFFFFFFFFFFFFFFFFFFFFFFFFFFFFFFFFFFFFFF MUL NOT AND SWAP1 DUP4 PUSH20 0xFFFFFFFFFFFFFFFFFFFFFFFFFFFFFFFFFFFFFFFF AND MUL OR SWAP1 SSTORE POP DUP1 PUSH1 0x11 PUSH1 0x0 PUSH2 0x100 EXP DUP2 SLOAD DUP2 PUSH20 0xFFFFFFFFFFFFFFFFFFFFFFFFFFFFFFFFFFFFFFFF MUL NOT AND SWAP1 DUP4 PUSH20 0xFFFFFFFFFFFFFFFFFFFFFFFFFFFFFFFFFFFFFFFF AND MUL OR SWAP1 SSTORE POP POP POP POP JUMP JUMPDEST PUSH1 0x0 PUSH1 0x1B PUSH1 0x0 DUP5 PUSH20 0xFFFFFFFFFFFFFFFFFFFFFFFFFFFFFFFFFFFFFFFF AND PUSH20 0xFFFFFFFFFFFFFFFFFFFFFFFFFFFFFFFFFFFFFFFF AND DUP2 MSTORE PUSH1 0x20 ADD SWAP1 DUP2 MSTORE PUSH1 0x20 ADD PUSH1 0x0 KECCAK256 PUSH1 0x0 DUP4 PUSH20 0xFFFFFFFFFFFFFFFFFFFFFFFFFFFFFFFFFFFFFFFF AND PUSH20 0xFFFFFFFFFFFFFFFFFFFFFFFFFFFFFFFFFFFFFFFF AND DUP2 MSTORE PUSH1 0x20 ADD SWAP1 DUP2 MSTORE PUSH1 0x20 ADD PUSH1 0x0 KECCAK256 SLOAD SWAP1 POP SWAP3 SWAP2 POP POP JUMP JUMPDEST PUSH2 0x2D8D PUSH2 0x239B JUMP JUMPDEST PUSH2 0x2D96 JUMPI PUSH1 0x0 DUP1 REVERT JUMPDEST PUSH2 0x2D9F DUP2 PUSH2 0x35FA JUMP JUMPDEST POP JUMP JUMPDEST PUSH1 0x14 PUSH1 0x0 SWAP1 SLOAD SWAP1 PUSH2 0x100 EXP SWAP1 DIV PUSH20 0xFFFFFFFFFFFFFFFFFFFFFFFFFFFFFFFFFFFFFFFF AND DUP2 JUMP JUMPDEST PUSH1 0x1C PUSH1 0x20 MSTORE DUP1 PUSH1 0x0 MSTORE PUSH1 0x40 PUSH1 0x0 KECCAK256 PUSH1 0x0 SWAP2 POP SLOAD SWAP1 PUSH2 0x100 EXP SWAP1 DIV PUSH1 0xFF AND DUP2 JUMP JUMPDEST PUSH1 0x0 DUP1 DUP3 DUP5 ADD SWAP1 POP DUP4 DUP2 LT ISZERO PUSH2 0x2E66 JUMPI PUSH1 0x40 MLOAD PUSH32 0x8C379A000000000000000000000000000000000000000000000000000000000 DUP2 MSTORE PUSH1 0x4 ADD DUP1 DUP1 PUSH1 0x20 ADD DUP3 DUP2 SUB DUP3 MSTORE PUSH1 0x1B DUP2 MSTORE PUSH1 0x20 ADD DUP1 PUSH32 0x536166654D6174683A206164646974696F6E206F766572666C6F770000000000 DUP2 MSTORE POP PUSH1 0x20 ADD SWAP2 POP POP PUSH1 0x40 MLOAD DUP1 SWAP2 SUB SWAP1 REVERT JUMPDEST DUP1 SWAP2 POP POP SWAP3 SWAP2 POP POP JUMP JUMPDEST PUSH1 0x0 PUSH2 0x2EB2 DUP4 DUP4 PUSH1 0x40 MLOAD DUP1 PUSH1 0x40 ADD PUSH1 0x40 MSTORE DUP1 PUSH1 0x1A DUP2 MSTORE PUSH1 0x20 ADD PUSH32 0x536166654D6174683A206469766973696F6E206279207A65726F000000000000 DUP2 MSTORE POP PUSH2 0x36F4 JUMP JUMPDEST SWAP1 POP SWAP3 SWAP2 POP POP JUMP JUMPDEST PUSH2 0x2EC4 DUP3 DUP3 PUSH2 0x3496 JUMP JUMPDEST ISZERO PUSH2 0x2F37 JUMPI PUSH1 0x40 MLOAD PUSH32 0x8C379A000000000000000000000000000000000000000000000000000000000 DUP2 MSTORE PUSH1 0x4 ADD DUP1 DUP1 PUSH1 0x20 ADD DUP3 DUP2 SUB DUP3 MSTORE PUSH1 0x1F DUP2 MSTORE PUSH1 0x20 ADD DUP1 PUSH32 0x526F6C65733A206163636F756E7420616C72656164792068617320726F6C6500 DUP2 MSTORE POP PUSH1 0x20 ADD SWAP2 POP POP PUSH1 0x40 MLOAD DUP1 SWAP2 SUB SWAP1 REVERT JUMPDEST PUSH1 0x1 DUP3 PUSH1 0x0 ADD PUSH1 0x0 DUP4 PUSH20 0xFFFFFFFFFFFFFFFFFFFFFFFFFFFFFFFFFFFFFFFF AND PUSH20 0xFFFFFFFFFFFFFFFFFFFFFFFFFFFFFFFFFFFFFFFF AND DUP2 MSTORE PUSH1 0x20 ADD SWAP1 DUP2 MSTORE PUSH1 0x20 ADD PUSH1 0x0 KECCAK256 PUSH1 0x0 PUSH2 0x100 EXP DUP2 SLOAD DUP2 PUSH1 0xFF MUL NOT AND SWAP1 DUP4 ISZERO ISZERO MUL OR SWAP1 SSTORE POP POP POP JUMP JUMPDEST PUSH1 0x0 DUP4 DUP4 GT ISZERO DUP3 SWAP1 PUSH2 0x3042 JUMPI PUSH1 0x40 MLOAD PUSH32 0x8C379A000000000000000000000000000000000000000000000000000000000 DUP2 MSTORE PUSH1 0x4 ADD DUP1 DUP1 PUSH1 0x20 ADD DUP3 DUP2 SUB DUP3 MSTORE DUP4 DUP2 DUP2 MLOAD DUP2 MSTORE PUSH1 0x20 ADD SWAP2 POP DUP1 MLOAD SWAP1 PUSH1 0x20 ADD SWAP1 DUP1 DUP4 DUP4 PUSH1 0x0 JUMPDEST DUP4 DUP2 LT ISZERO PUSH2 0x3007 JUMPI DUP1 DUP3 ADD MLOAD DUP2 DUP5 ADD MSTORE PUSH1 0x20 DUP2 ADD SWAP1 POP PUSH2 0x2FEC JUMP JUMPDEST POP POP POP POP SWAP1 POP SWAP1 DUP2 ADD SWAP1 PUSH1 0x1F AND DUP1 ISZERO PUSH2 0x3034 JUMPI DUP1 DUP3 SUB DUP1 MLOAD PUSH1 0x1 DUP4 PUSH1 0x20 SUB PUSH2 0x100 EXP SUB NOT AND DUP2 MSTORE PUSH1 0x20 ADD SWAP2 POP JUMPDEST POP SWAP3 POP POP POP PUSH1 0x40 MLOAD DUP1 SWAP2 SUB SWAP1 REVERT JUMPDEST POP PUSH1 0x0 DUP4 DUP6 SUB SWAP1 POP DUP1 SWAP2 POP POP SWAP4 SWAP3 POP POP POP JUMP JUMPDEST PUSH1 0x0 PUSH1 0x1C PUSH1 0x0 DUP6 PUSH20 0xFFFFFFFFFFFFFFFFFFFFFFFFFFFFFFFFFFFFFFFF AND PUSH20 0xFFFFFFFFFFFFFFFFFFFFFFFFFFFFFFFFFFFFFFFF AND DUP2 MSTORE PUSH1 0x20 ADD SWAP1 DUP2 MSTORE PUSH1 0x20 ADD PUSH1 0x0 KECCAK256 PUSH1 0x0 SWAP1 SLOAD SWAP1 PUSH2 0x100 EXP SWAP1 DIV PUSH1 0xFF AND ISZERO DUP1 ISZERO PUSH2 0x30FB JUMPI POP PUSH1 0x1C PUSH1 0x0 DUP5 PUSH20 0xFFFFFFFFFFFFFFFFFFFFFFFFFFFFFFFFFFFFFFFF AND PUSH20 0xFFFFFFFFFFFFFFFFFFFFFFFFFFFFFFFFFFFFFFFF AND DUP2 MSTORE PUSH1 0x20 ADD SWAP1 DUP2 MSTORE PUSH1 0x20 ADD PUSH1 0x0 KECCAK256 PUSH1 0x0 SWAP1 SLOAD SWAP1 PUSH2 0x100 EXP SWAP1 DIV PUSH1 0xFF AND ISZERO JUMPDEST PUSH2 0x316D JUMPI PUSH1 0x40 MLOAD PUSH32 0x8C379A000000000000000000000000000000000000000000000000000000000 DUP2 MSTORE PUSH1 0x4 ADD DUP1 DUP1 PUSH1 0x20 ADD DUP3 DUP2 SUB DUP3 MSTORE PUSH1 0xC DUP2 MSTORE PUSH1 0x20 ADD DUP1 PUSH32 0x696E5F626C61636B6C6973740000000000000000000000000000000000000000 DUP2 MSTORE POP PUSH1 0x20 ADD SWAP2 POP POP PUSH1 0x40 MLOAD DUP1 SWAP2 SUB SWAP1 REVERT JUMPDEST PUSH1 0x17 PUSH1 0x0 SWAP1 SLOAD SWAP1 PUSH2 0x100 EXP SWAP1 DIV PUSH1 0xFF AND ISZERO PUSH2 0x3194 JUMPI PUSH2 0x318D DUP5 DUP5 DUP5 PUSH2 0x37BA JUMP JUMPDEST SWAP1 POP PUSH2 0x3391 JUMP JUMPDEST PUSH1 0x0 PUSH2 0x31AB PUSH1 0x19 SLOAD DUP5 PUSH2 0x3574 SWAP1 SWAP2 SWAP1 PUSH4 0xFFFFFFFF AND JUMP JUMPDEST SWAP1 POP PUSH2 0x31B5 PUSH2 0x390A JUMP JUMPDEST ISZERO PUSH2 0x31C3 JUMPI PUSH2 0x31C2 PUSH2 0x39E1 JUMP JUMPDEST JUMPDEST PUSH2 0x3215 DUP2 PUSH1 0x1A PUSH1 0x0 DUP9 PUSH20 0xFFFFFFFFFFFFFFFFFFFFFFFFFFFFFFFFFFFFFFFF AND PUSH20 0xFFFFFFFFFFFFFFFFFFFFFFFFFFFFFFFFFFFFFFFF AND DUP2 MSTORE PUSH1 0x20 ADD SWAP1 DUP2 MSTORE PUSH1 0x20 ADD PUSH1 0x0 KECCAK256 SLOAD PUSH2 0x3398 SWAP1 SWAP2 SWAP1 PUSH4 0xFFFFFFFF AND JUMP JUMPDEST PUSH1 0x1A PUSH1 0x0 DUP8 PUSH20 0xFFFFFFFFFFFFFFFFFFFFFFFFFFFFFFFFFFFFFFFF AND PUSH20 0xFFFFFFFFFFFFFFFFFFFFFFFFFFFFFFFFFFFFFFFF AND DUP2 MSTORE PUSH1 0x20 ADD SWAP1 DUP2 MSTORE PUSH1 0x20 ADD PUSH1 0x0 KECCAK256 DUP2 SWAP1 SSTORE POP PUSH1 0x0 PUSH2 0x3264 DUP7 DUP7 PUSH2 0x40BD JUMP JUMPDEST PUSH2 0x326E JUMPI DUP2 PUSH2 0x327A JUMP JUMPDEST PUSH2 0x3279 DUP7 DUP7 DUP5 PUSH2 0x41C6 JUMP JUMPDEST JUMPDEST SWAP1 POP PUSH2 0x32CE DUP2 PUSH1 0x1A PUSH1 0x0 DUP9 PUSH20 0xFFFFFFFFFFFFFFFFFFFFFFFFFFFFFFFFFFFFFFFF AND PUSH20 0xFFFFFFFFFFFFFFFFFFFFFFFFFFFFFFFFFFFFFFFF AND DUP2 MSTORE PUSH1 0x20 ADD SWAP1 DUP2 MSTORE PUSH1 0x20 ADD PUSH1 0x0 KECCAK256 SLOAD PUSH2 0x2DE8 SWAP1 SWAP2 SWAP1 PUSH4 0xFFFFFFFF AND JUMP JUMPDEST PUSH1 0x1A PUSH1 0x0 DUP8 PUSH20 0xFFFFFFFFFFFFFFFFFFFFFFFFFFFFFFFFFFFFFFFF AND PUSH20 0xFFFFFFFFFFFFFFFFFFFFFFFFFFFFFFFFFFFFFFFF AND DUP2 MSTORE PUSH1 0x20 ADD SWAP1 DUP2 MSTORE PUSH1 0x20 ADD PUSH1 0x0 KECCAK256 DUP2 SWAP1 SSTORE POP DUP5 PUSH20 0xFFFFFFFFFFFFFFFFFFFFFFFFFFFFFFFFFFFFFFFF AND DUP7 PUSH20 0xFFFFFFFFFFFFFFFFFFFFFFFFFFFFFFFFFFFFFFFF AND PUSH32 0xDDF252AD1BE2C89B69C2B068FC378DAA952BA7F163C4A11628F55A4DF523B3EF PUSH2 0x3375 PUSH1 0x19 SLOAD DUP6 PUSH2 0x2E70 SWAP1 SWAP2 SWAP1 PUSH4 0xFFFFFFFF AND JUMP JUMPDEST PUSH1 0x40 MLOAD DUP1 DUP3 DUP2 MSTORE PUSH1 0x20 ADD SWAP2 POP POP PUSH1 0x40 MLOAD DUP1 SWAP2 SUB SWAP1 LOG3 PUSH1 0x1 SWAP3 POP POP POP JUMPDEST SWAP4 SWAP3 POP POP POP JUMP JUMPDEST PUSH1 0x0 PUSH2 0x33DA DUP4 DUP4 PUSH1 0x40 MLOAD DUP1 PUSH1 0x40 ADD PUSH1 0x40 MSTORE DUP1 PUSH1 0x1E DUP2 MSTORE PUSH1 0x20 ADD PUSH32 0x536166654D6174683A207375627472616374696F6E206F766572666C6F770000 DUP2 MSTORE POP PUSH2 0x2F95 JUMP JUMPDEST SWAP1 POP SWAP3 SWAP2 POP POP JUMP JUMPDEST PUSH2 0x33F6 DUP2 PUSH1 0x3 PUSH2 0x4393 SWAP1 SWAP2 SWAP1 PUSH4 0xFFFFFFFF AND JUMP JUMPDEST DUP1 PUSH20 0xFFFFFFFFFFFFFFFFFFFFFFFFFFFFFFFFFFFFFFFF AND PUSH32 0xE94479A9F7E1952CC78F2D6BAAB678ADC1B772D936C6583DEF489E524CB66692 PUSH1 0x40 MLOAD PUSH1 0x40 MLOAD DUP1 SWAP2 SUB SWAP1 LOG2 POP JUMP JUMPDEST PUSH2 0x3450 DUP2 PUSH1 0x3 PUSH2 0x2EBA SWAP1 SWAP2 SWAP1 PUSH4 0xFFFFFFFF AND JUMP JUMPDEST DUP1 PUSH20 0xFFFFFFFFFFFFFFFFFFFFFFFFFFFFFFFFFFFFFFFF AND PUSH32 0x6AE172837EA30B801FBFCDD4108AA1D5BF8FF775444FD70256B44E6BF3DFC3F6 PUSH1 0x40 MLOAD PUSH1 0x40 MLOAD DUP1 SWAP2 SUB SWAP1 LOG2 POP JUMP JUMPDEST PUSH1 0x0 DUP1 PUSH20 0xFFFFFFFFFFFFFFFFFFFFFFFFFFFFFFFFFFFFFFFF AND DUP3 PUSH20 0xFFFFFFFFFFFFFFFFFFFFFFFFFFFFFFFFFFFFFFFF AND EQ ISZERO PUSH2 0x351D JUMPI PUSH1 0x40 MLOAD PUSH32 0x8C379A000000000000000000000000000000000000000000000000000000000 DUP2 MSTORE PUSH1 0x4 ADD DUP1 DUP1 PUSH1 0x20 ADD DUP3 DUP2 SUB DUP3 MSTORE PUSH1 0x22 DUP2 MSTORE PUSH1 0x20 ADD DUP1 PUSH2 0x44C3 PUSH1 0x22 SWAP2 CODECOPY PUSH1 0x40 ADD SWAP2 POP POP PUSH1 0x40 MLOAD DUP1 SWAP2 SUB SWAP1 REVERT JUMPDEST DUP3 PUSH1 0x0 ADD PUSH1 0x0 DUP4 PUSH20 0xFFFFFFFFFFFFFFFFFFFFFFFFFFFFFFFFFFFFFFFF AND PUSH20 0xFFFFFFFFFFFFFFFFFFFFFFFFFFFFFFFFFFFFFFFF AND DUP2 MSTORE PUSH1 0x20 ADD SWAP1 DUP2 MSTORE PUSH1 0x20 ADD PUSH1 0x0 KECCAK256 PUSH1 0x0 SWAP1 SLOAD SWAP1 PUSH2 0x100 EXP SWAP1 DIV PUSH1 0xFF AND SWAP1 POP SWAP3 SWAP2 POP POP JUMP JUMPDEST PUSH1 0x0 DUP1 DUP4 EQ ISZERO PUSH2 0x3587 JUMPI PUSH1 0x0 SWAP1 POP PUSH2 0x35F4 JUMP JUMPDEST PUSH1 0x0 DUP3 DUP5 MUL SWAP1 POP DUP3 DUP5 DUP3 DUP2 PUSH2 0x3598 JUMPI INVALID JUMPDEST DIV EQ PUSH2 0x35EF JUMPI PUSH1 0x40 MLOAD PUSH32 0x8C379A000000000000000000000000000000000000000000000000000000000 DUP2 MSTORE PUSH1 0x4 ADD DUP1 DUP1 PUSH1 0x20 ADD DUP3 DUP2 SUB DUP3 MSTORE PUSH1 0x21 DUP2 MSTORE PUSH1 0x20 ADD DUP1 PUSH2 0x44A2 PUSH1 0x21 SWAP2 CODECOPY PUSH1 0x40 ADD SWAP2 POP POP PUSH1 0x40 MLOAD DUP1 SWAP2 SUB SWAP1 REVERT JUMPDEST DUP1 SWAP2 POP POP JUMPDEST SWAP3 SWAP2 POP POP JUMP JUMPDEST PUSH1 0x0 PUSH20 0xFFFFFFFFFFFFFFFFFFFFFFFFFFFFFFFFFFFFFFFF AND DUP2 PUSH20 0xFFFFFFFFFFFFFFFFFFFFFFFFFFFFFFFFFFFFFFFF AND EQ ISZERO PUSH2 0x3634 JUMPI PUSH1 0x0 DUP1 REVERT JUMPDEST DUP1 PUSH20 0xFFFFFFFFFFFFFFFFFFFFFFFFFFFFFFFFFFFFFFFF AND PUSH1 0x2 PUSH1 0x1 SWAP1 SLOAD SWAP1 PUSH2 0x100 EXP SWAP1 DIV PUSH20 0xFFFFFFFFFFFFFFFFFFFFFFFFFFFFFFFFFFFFFFFF AND PUSH20 0xFFFFFFFFFFFFFFFFFFFFFFFFFFFFFFFFFFFFFFFF AND PUSH32 0x8BE0079C531659141344CD1FD0A4F28419497F9722A3DAAFE3B4186F6B6457E0 PUSH1 0x40 MLOAD PUSH1 0x40 MLOAD DUP1 SWAP2 SUB SWAP1 LOG3 DUP1 PUSH1 0x2 PUSH1 0x1 PUSH2 0x100 EXP DUP2 SLOAD DUP2 PUSH20 0xFFFFFFFFFFFFFFFFFFFFFFFFFFFFFFFFFFFFFFFF MUL NOT AND SWAP1 DUP4 PUSH20 0xFFFFFFFFFFFFFFFFFFFFFFFFFFFFFFFFFFFFFFFF AND MUL OR SWAP1 SSTORE POP POP JUMP JUMPDEST PUSH1 0x0 DUP1 DUP4 GT DUP3 SWAP1 PUSH2 0x37A0 JUMPI PUSH1 0x40 MLOAD PUSH32 0x8C379A000000000000000000000000000000000000000000000000000000000 DUP2 MSTORE PUSH1 0x4 ADD DUP1 DUP1 PUSH1 0x20 ADD DUP3 DUP2 SUB DUP3 MSTORE DUP4 DUP2 DUP2 MLOAD DUP2 MSTORE PUSH1 0x20 ADD SWAP2 POP DUP1 MLOAD SWAP1 PUSH1 0x20 ADD SWAP1 DUP1 DUP4 DUP4 PUSH1 0x0 JUMPDEST DUP4 DUP2 LT ISZERO PUSH2 0x3765 JUMPI DUP1 DUP3 ADD MLOAD DUP2 DUP5 ADD MSTORE PUSH1 0x20 DUP2 ADD SWAP1 POP PUSH2 0x374A JUMP JUMPDEST POP POP POP POP SWAP1 POP SWAP1 DUP2 ADD SWAP1 PUSH1 0x1F AND DUP1 ISZERO PUSH2 0x3792 JUMPI DUP1 DUP3 SUB DUP1 MLOAD PUSH1 0x1 DUP4 PUSH1 0x20 SUB PUSH2 0x100 EXP SUB NOT AND DUP2 MSTORE PUSH1 0x20 ADD SWAP2 POP JUMPDEST POP SWAP3 POP POP POP PUSH1 0x40 MLOAD DUP1 SWAP2 SUB SWAP1 REVERT JUMPDEST POP PUSH1 0x0 DUP4 DUP6 DUP2 PUSH2 0x37AC JUMPI INVALID JUMPDEST DIV SWAP1 POP DUP1 SWAP2 POP POP SWAP4 SWAP3 POP POP POP JUMP JUMPDEST PUSH1 0x0 DUP1 PUSH2 0x37D2 PUSH1 0x19 SLOAD DUP5 PUSH2 0x3574 SWAP1 SWAP2 SWAP1 PUSH4 0xFFFFFFFF AND JUMP JUMPDEST SWAP1 POP PUSH2 0x3826 DUP2 PUSH1 0x1A PUSH1 0x0 DUP9 PUSH20 0xFFFFFFFFFFFFFFFFFFFFFFFFFFFFFFFFFFFFFFFF AND PUSH20 0xFFFFFFFFFFFFFFFFFFFFFFFFFFFFFFFFFFFFFFFF AND DUP2 MSTORE PUSH1 0x20 ADD SWAP1 DUP2 MSTORE PUSH1 0x20 ADD PUSH1 0x0 KECCAK256 SLOAD PUSH2 0x3398 SWAP1 SWAP2 SWAP1 PUSH4 0xFFFFFFFF AND JUMP JUMPDEST PUSH1 0x1A PUSH1 0x0 DUP8 PUSH20 0xFFFFFFFFFFFFFFFFFFFFFFFFFFFFFFFFFFFFFFFF AND PUSH20 0xFFFFFFFFFFFFFFFFFFFFFFFFFFFFFFFFFFFFFFFF AND DUP2 MSTORE PUSH1 0x20 ADD SWAP1 DUP2 MSTORE PUSH1 0x20 ADD PUSH1 0x0 KECCAK256 DUP2 SWAP1 SSTORE POP PUSH2 0x38BB DUP2 PUSH1 0x1A PUSH1 0x0 DUP8 PUSH20 0xFFFFFFFFFFFFFFFFFFFFFFFFFFFFFFFFFFFFFFFF AND PUSH20 0xFFFFFFFFFFFFFFFFFFFFFFFFFFFFFFFFFFFFFFFF AND DUP2 MSTORE PUSH1 0x20 ADD SWAP1 DUP2 MSTORE PUSH1 0x20 ADD PUSH1 0x0 KECCAK256 SLOAD PUSH2 0x2DE8 SWAP1 SWAP2 SWAP1 PUSH4 0xFFFFFFFF AND JUMP JUMPDEST PUSH1 0x1A PUSH1 0x0 DUP7 PUSH20 0xFFFFFFFFFFFFFFFFFFFFFFFFFFFFFFFFFFFFFFFF AND PUSH20 0xFFFFFFFFFFFFFFFFFFFFFFFFFFFFFFFFFFFFFFFF AND DUP2 MSTORE PUSH1 0x20 ADD SWAP1 DUP2 MSTORE PUSH1 0x20 ADD PUSH1 0x0 KECCAK256 DUP2 SWAP1 SSTORE POP PUSH1 0x1 SWAP2 POP POP SWAP4 SWAP3 POP POP POP JUMP JUMPDEST PUSH1 0x0 PUSH1 0x15 PUSH1 0x0 SWAP1 SLOAD SWAP1 PUSH2 0x100 EXP SWAP1 DIV PUSH20 0xFFFFFFFFFFFFFFFFFFFFFFFFFFFFFFFFFFFFFFFF AND PUSH20 0xFFFFFFFFFFFFFFFFFFFFFFFFFFFFFFFFFFFFFFFF AND CALLER PUSH20 0xFFFFFFFFFFFFFFFFFFFFFFFFFFFFFFFFFFFFFFFF AND EQ ISZERO DUP1 ISZERO PUSH2 0x3977 JUMPI POP PUSH1 0x17 PUSH1 0x0 SWAP1 SLOAD SWAP1 PUSH2 0x100 EXP SWAP1 DIV PUSH1 0xFF AND ISZERO JUMPDEST DUP1 ISZERO PUSH2 0x398F JUMPI POP PUSH1 0x15 PUSH1 0x14 SWAP1 SLOAD SWAP1 PUSH2 0x100 EXP SWAP1 DIV PUSH1 0xFF AND JUMPDEST DUP1 ISZERO PUSH2 0x39DC JUMPI POP PUSH1 0x16 SLOAD PUSH1 0x1A PUSH1 0x0 ADDRESS PUSH20 0xFFFFFFFFFFFFFFFFFFFFFFFFFFFFFFFFFFFFFFFF AND PUSH20 0xFFFFFFFFFFFFFFFFFFFFFFFFFFFFFFFFFFFFFFFF AND DUP2 MSTORE PUSH1 0x20 ADD SWAP1 DUP2 MSTORE PUSH1 0x20 ADD PUSH1 0x0 KECCAK256 SLOAD LT ISZERO JUMPDEST SWAP1 POP SWAP1 JUMP JUMPDEST PUSH1 0x1 PUSH1 0x17 PUSH1 0x0 PUSH2 0x100 EXP DUP2 SLOAD DUP2 PUSH1 0xFF MUL NOT AND SWAP1 DUP4 ISZERO ISZERO MUL OR SWAP1 SSTORE POP PUSH1 0x0 PUSH2 0x3A0C PUSH1 0x12 SLOAD PUSH1 0x13 SLOAD PUSH2 0x1670 JUMP JUMPDEST PUSH2 0x3A18 JUMPI PUSH1 0x7 SLOAD PUSH2 0x3A1B JUMP JUMPDEST PUSH1 0x0 JUMPDEST SWAP1 POP PUSH1 0x0 PUSH2 0x3A73 PUSH1 0x19 SLOAD PUSH1 0x1A PUSH1 0x0 ADDRESS PUSH20 0xFFFFFFFFFFFFFFFFFFFFFFFFFFFFFFFFFFFFFFFF AND PUSH20 0xFFFFFFFFFFFFFFFFFFFFFFFFFFFFFFFFFFFFFFFF AND DUP2 MSTORE PUSH1 0x20 ADD SWAP1 DUP2 MSTORE PUSH1 0x20 ADD PUSH1 0x0 KECCAK256 SLOAD PUSH2 0x2E70 SWAP1 SWAP2 SWAP1 PUSH4 0xFFFFFFFF AND JUMP JUMPDEST SWAP1 POP PUSH1 0x0 PUSH2 0x3AB1 PUSH1 0x2 PUSH2 0x3AA3 PUSH1 0xB SLOAD PUSH2 0x3A95 DUP8 DUP8 PUSH2 0x3574 SWAP1 SWAP2 SWAP1 PUSH4 0xFFFFFFFF AND JUMP JUMPDEST PUSH2 0x2E70 SWAP1 SWAP2 SWAP1 PUSH4 0xFFFFFFFF AND JUMP JUMPDEST PUSH2 0x2E70 SWAP1 SWAP2 SWAP1 PUSH4 0xFFFFFFFF AND JUMP JUMPDEST SWAP1 POP PUSH1 0x0 PUSH2 0x3AC8 DUP3 DUP5 PUSH2 0x3398 SWAP1 SWAP2 SWAP1 PUSH4 0xFFFFFFFF AND JUMP JUMPDEST SWAP1 POP PUSH1 0x0 PUSH1 0x2 PUSH8 0xFFFFFFFFFFFFFFFF DUP2 GT DUP1 ISZERO PUSH2 0x3AE4 JUMPI PUSH1 0x0 DUP1 REVERT JUMPDEST POP PUSH1 0x40 MLOAD SWAP1 DUP1 DUP3 MSTORE DUP1 PUSH1 0x20 MUL PUSH1 0x20 ADD DUP3 ADD PUSH1 0x40 MSTORE DUP1 ISZERO PUSH2 0x3B13 JUMPI DUP2 PUSH1 0x20 ADD PUSH1 0x20 DUP3 MUL DUP1 CALLDATASIZE DUP4 CALLDATACOPY DUP1 DUP3 ADD SWAP2 POP POP SWAP1 POP JUMPDEST POP SWAP1 POP ADDRESS DUP2 PUSH1 0x0 DUP2 MLOAD DUP2 LT PUSH2 0x3B24 JUMPI INVALID JUMPDEST PUSH1 0x20 MUL PUSH1 0x20 ADD ADD SWAP1 PUSH20 0xFFFFFFFFFFFFFFFFFFFFFFFFFFFFFFFFFFFFFFFF AND SWAP1 DUP2 PUSH20 0xFFFFFFFFFFFFFFFFFFFFFFFFFFFFFFFFFFFFFFFF AND DUP2 MSTORE POP POP PUSH1 0x14 PUSH1 0x0 SWAP1 SLOAD SWAP1 PUSH2 0x100 EXP SWAP1 DIV PUSH20 0xFFFFFFFFFFFFFFFFFFFFFFFFFFFFFFFFFFFFFFFF AND PUSH20 0xFFFFFFFFFFFFFFFFFFFFFFFFFFFFFFFFFFFFFFFF AND PUSH4 0xAD5C4648 PUSH1 0x40 MLOAD DUP2 PUSH4 0xFFFFFFFF AND PUSH1 0xE0 SHL DUP2 MSTORE PUSH1 0x4 ADD PUSH1 0x20 PUSH1 0x40 MLOAD DUP1 DUP4 SUB DUP2 DUP7 DUP1 EXTCODESIZE ISZERO DUP1 ISZERO PUSH2 0x3BC6 JUMPI PUSH1 0x0 DUP1 REVERT JUMPDEST POP GAS STATICCALL ISZERO DUP1 ISZERO PUSH2 0x3BDA JUMPI RETURNDATASIZE PUSH1 0x0 DUP1 RETURNDATACOPY RETURNDATASIZE PUSH1 0x0 REVERT JUMPDEST POP POP POP POP PUSH1 0x40 MLOAD RETURNDATASIZE PUSH1 0x20 DUP2 LT ISZERO PUSH2 0x3BF0 JUMPI PUSH1 0x0 DUP1 REVERT JUMPDEST DUP2 ADD SWAP1 DUP1 DUP1 MLOAD SWAP1 PUSH1 0x20 ADD SWAP1 SWAP3 SWAP2 SWAP1 POP POP POP DUP2 PUSH1 0x1 DUP2 MLOAD DUP2 LT PUSH2 0x3C0E JUMPI INVALID JUMPDEST PUSH1 0x20 MUL PUSH1 0x20 ADD ADD SWAP1 PUSH20 0xFFFFFFFFFFFFFFFFFFFFFFFFFFFFFFFFFFFFFFFF AND SWAP1 DUP2 PUSH20 0xFFFFFFFFFFFFFFFFFFFFFFFFFFFFFFFFFFFFFFFF AND DUP2 MSTORE POP POP PUSH1 0x0 SELFBALANCE SWAP1 POP PUSH1 0x14 PUSH1 0x0 SWAP1 SLOAD SWAP1 PUSH2 0x100 EXP SWAP1 DIV PUSH20 0xFFFFFFFFFFFFFFFFFFFFFFFFFFFFFFFFFFFFFFFF AND PUSH20 0xFFFFFFFFFFFFFFFFFFFFFFFFFFFFFFFFFFFFFFFF AND PUSH4 0x791AC947 DUP5 PUSH1 0x0 DUP6 ADDRESS TIMESTAMP PUSH1 0x40 MLOAD DUP7 PUSH4 0xFFFFFFFF AND PUSH1 0xE0 SHL DUP2 MSTORE PUSH1 0x4 ADD DUP1 DUP7 DUP2 MSTORE PUSH1 0x20 ADD DUP6 DUP2 MSTORE PUSH1 0x20 ADD DUP1 PUSH1 0x20 ADD DUP5 PUSH20 0xFFFFFFFFFFFFFFFFFFFFFFFFFFFFFFFFFFFFFFFF AND DUP2 MSTORE PUSH1 0x20 ADD DUP4 DUP2 MSTORE PUSH1 0x20 ADD DUP3 DUP2 SUB DUP3 MSTORE DUP6 DUP2 DUP2 MLOAD DUP2 MSTORE PUSH1 0x20 ADD SWAP2 POP DUP1 MLOAD SWAP1 PUSH1 0x20 ADD SWAP1 PUSH1 0x20 MUL DUP1 DUP4 DUP4 PUSH1 0x0 JUMPDEST DUP4 DUP2 LT ISZERO PUSH2 0x3D11 JUMPI DUP1 DUP3 ADD MLOAD DUP2 DUP5 ADD MSTORE PUSH1 0x20 DUP2 ADD SWAP1 POP PUSH2 0x3CF6 JUMP JUMPDEST POP POP POP POP SWAP1 POP ADD SWAP7 POP POP POP POP POP POP POP PUSH1 0x0 PUSH1 0x40 MLOAD DUP1 DUP4 SUB DUP2 PUSH1 0x0 DUP8 DUP1 EXTCODESIZE ISZERO DUP1 ISZERO PUSH2 0x3D3A JUMPI PUSH1 0x0 DUP1 REVERT JUMPDEST POP GAS CALL ISZERO DUP1 ISZERO PUSH2 0x3D4E JUMPI RETURNDATASIZE PUSH1 0x0 DUP1 RETURNDATACOPY RETURNDATASIZE PUSH1 0x0 REVERT JUMPDEST POP POP POP POP PUSH1 0x0 PUSH2 0x3D67 DUP3 SELFBALANCE PUSH2 0x3398 SWAP1 SWAP2 SWAP1 PUSH4 0xFFFFFFFF AND JUMP JUMPDEST SWAP1 POP PUSH1 0x0 PUSH2 0x3D93 PUSH2 0x3D82 PUSH1 0x2 DUP11 PUSH2 0x2E70 SWAP1 SWAP2 SWAP1 PUSH4 0xFFFFFFFF AND JUMP JUMPDEST PUSH1 0xB SLOAD PUSH2 0x3398 SWAP1 SWAP2 SWAP1 PUSH4 0xFFFFFFFF AND JUMP JUMPDEST SWAP1 POP PUSH1 0x0 PUSH2 0x3DCF PUSH1 0x2 PUSH2 0x3DC1 DUP5 PUSH2 0x3DB3 DUP14 DUP9 PUSH2 0x3574 SWAP1 SWAP2 SWAP1 PUSH4 0xFFFFFFFF AND JUMP JUMPDEST PUSH2 0x2E70 SWAP1 SWAP2 SWAP1 PUSH4 0xFFFFFFFF AND JUMP JUMPDEST PUSH2 0x2E70 SWAP1 SWAP2 SWAP1 PUSH4 0xFFFFFFFF AND JUMP JUMPDEST SWAP1 POP PUSH1 0x0 PUSH2 0x3DFA DUP4 PUSH2 0x3DEC PUSH1 0x9 SLOAD DUP8 PUSH2 0x3574 SWAP1 SWAP2 SWAP1 PUSH4 0xFFFFFFFF AND JUMP JUMPDEST PUSH2 0x2E70 SWAP1 SWAP2 SWAP1 PUSH4 0xFFFFFFFF AND JUMP JUMPDEST SWAP1 POP PUSH1 0x0 PUSH2 0x3E25 DUP5 PUSH2 0x3E17 PUSH1 0x8 SLOAD DUP9 PUSH2 0x3574 SWAP1 SWAP2 SWAP1 PUSH4 0xFFFFFFFF AND JUMP JUMPDEST PUSH2 0x2E70 SWAP1 SWAP2 SWAP1 PUSH4 0xFFFFFFFF AND JUMP JUMPDEST SWAP1 POP PUSH1 0x0 PUSH1 0x10 PUSH1 0x0 SWAP1 SLOAD SWAP1 PUSH2 0x100 EXP SWAP1 DIV PUSH20 0xFFFFFFFFFFFFFFFFFFFFFFFFFFFFFFFFFFFFFFFF AND PUSH20 0xFFFFFFFFFFFFFFFFFFFFFFFFFFFFFFFFFFFFFFFF AND DUP3 PUSH2 0x7530 SWAP1 PUSH1 0x40 MLOAD DUP1 PUSH1 0x0 ADD SWAP1 POP PUSH1 0x0 PUSH1 0x40 MLOAD DUP1 DUP4 SUB DUP2 DUP6 DUP9 DUP9 CALL SWAP4 POP POP POP POP RETURNDATASIZE DUP1 PUSH1 0x0 DUP2 EQ PUSH2 0x3EAE JUMPI PUSH1 0x40 MLOAD SWAP2 POP PUSH1 0x1F NOT PUSH1 0x3F RETURNDATASIZE ADD AND DUP3 ADD PUSH1 0x40 MSTORE RETURNDATASIZE DUP3 MSTORE RETURNDATASIZE PUSH1 0x0 PUSH1 0x20 DUP5 ADD RETURNDATACOPY PUSH2 0x3EB3 JUMP JUMPDEST PUSH1 0x60 SWAP2 POP JUMPDEST POP POP SWAP1 POP PUSH1 0x11 PUSH1 0x0 SWAP1 SLOAD SWAP1 PUSH2 0x100 EXP SWAP1 DIV PUSH20 0xFFFFFFFFFFFFFFFFFFFFFFFFFFFFFFFFFFFFFFFF AND PUSH20 0xFFFFFFFFFFFFFFFFFFFFFFFFFFFFFFFFFFFFFFFF AND DUP4 PUSH2 0x7530 SWAP1 PUSH1 0x40 MLOAD DUP1 PUSH1 0x0 ADD SWAP1 POP PUSH1 0x0 PUSH1 0x40 MLOAD DUP1 DUP4 SUB DUP2 DUP6 DUP9 DUP9 CALL SWAP4 POP POP POP POP RETURNDATASIZE DUP1 PUSH1 0x0 DUP2 EQ PUSH2 0x3F3C JUMPI PUSH1 0x40 MLOAD SWAP2 POP PUSH1 0x1F NOT PUSH1 0x3F RETURNDATASIZE ADD AND DUP3 ADD PUSH1 0x40 MSTORE RETURNDATASIZE DUP3 MSTORE RETURNDATASIZE PUSH1 0x0 PUSH1 0x20 DUP5 ADD RETURNDATACOPY PUSH2 0x3F41 JUMP JUMPDEST PUSH1 0x60 SWAP2 POP JUMPDEST POP POP DUP1 SWAP2 POP POP PUSH1 0x0 SWAP1 POP PUSH1 0x0 DUP11 GT ISZERO PUSH2 0x4094 JUMPI PUSH1 0x14 PUSH1 0x0 SWAP1 SLOAD SWAP1 PUSH2 0x100 EXP SWAP1 DIV PUSH20 0xFFFFFFFFFFFFFFFFFFFFFFFFFFFFFFFFFFFFFFFF AND PUSH20 0xFFFFFFFFFFFFFFFFFFFFFFFFFFFFFFFFFFFFFFFF AND PUSH4 0xF305D719 DUP6 ADDRESS DUP14 PUSH1 0x0 DUP1 PUSH1 0xF PUSH1 0x0 SWAP1 SLOAD SWAP1 PUSH2 0x100 EXP SWAP1 DIV PUSH20 0xFFFFFFFFFFFFFFFFFFFFFFFFFFFFFFFFFFFFFFFF AND TIMESTAMP PUSH1 0x40 MLOAD DUP9 PUSH4 0xFFFFFFFF AND PUSH1 0xE0 SHL DUP2 MSTORE PUSH1 0x4 ADD DUP1 DUP8 PUSH20 0xFFFFFFFFFFFFFFFFFFFFFFFFFFFFFFFFFFFFFFFF AND DUP2 MSTORE PUSH1 0x20 ADD DUP7 DUP2 MSTORE PUSH1 0x20 ADD DUP6 DUP2 MSTORE PUSH1 0x20 ADD DUP5 DUP2 MSTORE PUSH1 0x20 ADD DUP4 PUSH20 0xFFFFFFFFFFFFFFFFFFFFFFFFFFFFFFFFFFFFFFFF AND DUP2 MSTORE PUSH1 0x20 ADD DUP3 DUP2 MSTORE PUSH1 0x20 ADD SWAP7 POP POP POP POP POP POP POP PUSH1 0x60 PUSH1 0x40 MLOAD DUP1 DUP4 SUB DUP2 DUP6 DUP9 DUP1 EXTCODESIZE ISZERO DUP1 ISZERO PUSH2 0x4040 JUMPI PUSH1 0x0 DUP1 REVERT JUMPDEST POP GAS CALL ISZERO DUP1 ISZERO PUSH2 0x4054 JUMPI RETURNDATASIZE PUSH1 0x0 DUP1 RETURNDATACOPY RETURNDATASIZE PUSH1 0x0 REVERT JUMPDEST POP POP POP POP POP PUSH1 0x40 MLOAD RETURNDATASIZE PUSH1 0x60 DUP2 LT ISZERO PUSH2 0x406B JUMPI PUSH1 0x0 DUP1 REVERT JUMPDEST DUP2 ADD SWAP1 DUP1 DUP1 MLOAD SWAP1 PUSH1 0x20 ADD SWAP1 SWAP3 SWAP2 SWAP1 DUP1 MLOAD SWAP1 PUSH1 0x20 ADD SWAP1 SWAP3 SWAP2 SWAP1 DUP1 MLOAD SWAP1 PUSH1 0x20 ADD SWAP1 SWAP3 SWAP2 SWAP1 POP POP POP POP POP POP JUMPDEST POP POP POP POP POP POP POP POP POP POP POP POP PUSH1 0x0 PUSH1 0x17 PUSH1 0x0 PUSH2 0x100 EXP DUP2 SLOAD DUP2 PUSH1 0xFF MUL NOT AND SWAP1 DUP4 ISZERO ISZERO MUL OR SWAP1 SSTORE POP JUMP JUMPDEST PUSH1 0x0 DUP3 PUSH20 0xFFFFFFFFFFFFFFFFFFFFFFFFFFFFFFFFFFFFFFFF AND PUSH1 0x15 PUSH1 0x0 SWAP1 SLOAD SWAP1 PUSH2 0x100 EXP SWAP1 DIV PUSH20 0xFFFFFFFFFFFFFFFFFFFFFFFFFFFFFFFFFFFFFFFF AND PUSH20 0xFFFFFFFFFFFFFFFFFFFFFFFFFFFFFFFFFFFFFFFF AND EQ DUP1 PUSH2 0x4168 JUMPI POP DUP2 PUSH20 0xFFFFFFFFFFFFFFFFFFFFFFFFFFFFFFFFFFFFFFFF AND PUSH1 0x15 PUSH1 0x0 SWAP1 SLOAD SWAP1 PUSH2 0x100 EXP SWAP1 DIV PUSH20 0xFFFFFFFFFFFFFFFFFFFFFFFFFFFFFFFFFFFFFFFF AND PUSH20 0xFFFFFFFFFFFFFFFFFFFFFFFFFFFFFFFFFFFFFFFF AND EQ JUMPDEST DUP1 ISZERO PUSH2 0x41BE JUMPI POP PUSH1 0x6 PUSH1 0x0 DUP5 PUSH20 0xFFFFFFFFFFFFFFFFFFFFFFFFFFFFFFFFFFFFFFFF AND PUSH20 0xFFFFFFFFFFFFFFFFFFFFFFFFFFFFFFFFFFFFFFFF AND DUP2 MSTORE PUSH1 0x20 ADD SWAP1 DUP2 MSTORE PUSH1 0x20 ADD PUSH1 0x0 KECCAK256 PUSH1 0x0 SWAP1 SLOAD SWAP1 PUSH2 0x100 EXP SWAP1 DIV PUSH1 0xFF AND ISZERO JUMPDEST SWAP1 POP SWAP3 SWAP2 POP POP JUMP JUMPDEST PUSH1 0x0 DUP1 PUSH1 0xB SLOAD SWAP1 POP PUSH1 0x15 PUSH1 0x0 SWAP1 SLOAD SWAP1 PUSH2 0x100 EXP SWAP1 DIV PUSH20 0xFFFFFFFFFFFFFFFFFFFFFFFFFFFFFFFFFFFFFFFF AND PUSH20 0xFFFFFFFFFFFFFFFFFFFFFFFFFFFFFFFFFFFFFFFF AND DUP5 PUSH20 0xFFFFFFFFFFFFFFFFFFFFFFFFFFFFFFFFFFFFFFFF AND EQ ISZERO PUSH2 0x423C JUMPI PUSH2 0x4239 PUSH1 0xA SLOAD DUP3 PUSH2 0x2DE8 SWAP1 SWAP2 SWAP1 PUSH4 0xFFFFFFFF AND JUMP JUMPDEST SWAP1 POP JUMPDEST PUSH1 0x0 PUSH2 0x4265 PUSH1 0xC SLOAD PUSH2 0x4257 DUP5 DUP8 PUSH2 0x3574 SWAP1 SWAP2 SWAP1 PUSH4 0xFFFFFFFF AND JUMP JUMPDEST PUSH2 0x2E70 SWAP1 SWAP2 SWAP1 PUSH4 0xFFFFFFFF AND JUMP JUMPDEST SWAP1 POP PUSH2 0x42B9 DUP2 PUSH1 0x1A PUSH1 0x0 ADDRESS PUSH20 0xFFFFFFFFFFFFFFFFFFFFFFFFFFFFFFFFFFFFFFFF AND PUSH20 0xFFFFFFFFFFFFFFFFFFFFFFFFFFFFFFFFFFFFFFFF AND DUP2 MSTORE PUSH1 0x20 ADD SWAP1 DUP2 MSTORE PUSH1 0x20 ADD PUSH1 0x0 KECCAK256 SLOAD PUSH2 0x2DE8 SWAP1 SWAP2 SWAP1 PUSH4 0xFFFFFFFF AND JUMP JUMPDEST PUSH1 0x1A PUSH1 0x0 ADDRESS PUSH20 0xFFFFFFFFFFFFFFFFFFFFFFFFFFFFFFFFFFFFFFFF AND PUSH20 0xFFFFFFFFFFFFFFFFFFFFFFFFFFFFFFFFFFFFFFFF AND DUP2 MSTORE PUSH1 0x20 ADD SWAP1 DUP2 MSTORE PUSH1 0x20 ADD PUSH1 0x0 KECCAK256 DUP2 SWAP1 SSTORE POP ADDRESS PUSH20 0xFFFFFFFFFFFFFFFFFFFFFFFFFFFFFFFFFFFFFFFF AND DUP7 PUSH20 0xFFFFFFFFFFFFFFFFFFFFFFFFFFFFFFFFFFFFFFFF AND PUSH32 0xDDF252AD1BE2C89B69C2B068FC378DAA952BA7F163C4A11628F55A4DF523B3EF PUSH2 0x4360 PUSH1 0x19 SLOAD DUP6 PUSH2 0x2E70 SWAP1 SWAP2 SWAP1 PUSH4 0xFFFFFFFF AND JUMP JUMPDEST PUSH1 0x40 MLOAD DUP1 DUP3 DUP2 MSTORE PUSH1 0x20 ADD SWAP2 POP POP PUSH1 0x40 MLOAD DUP1 SWAP2 SUB SWAP1 LOG3 PUSH2 0x4388 DUP2 DUP6 PUSH2 0x3398 SWAP1 SWAP2 SWAP1 PUSH4 0xFFFFFFFF AND JUMP JUMPDEST SWAP3 POP POP POP SWAP4 SWAP3 POP POP POP JUMP JUMPDEST PUSH2 0x439D DUP3 DUP3 PUSH2 0x3496 JUMP JUMPDEST PUSH2 0x43F2 JUMPI PUSH1 0x40 MLOAD PUSH32 0x8C379A000000000000000000000000000000000000000000000000000000000 DUP2 MSTORE PUSH1 0x4 ADD DUP1 DUP1 PUSH1 0x20 ADD DUP3 DUP2 SUB DUP3 MSTORE PUSH1 0x21 DUP2 MSTORE PUSH1 0x20 ADD DUP1 PUSH2 0x4481 PUSH1 0x21 SWAP2 CODECOPY PUSH1 0x40 ADD SWAP2 POP POP PUSH1 0x40 MLOAD DUP1 SWAP2 SUB SWAP1 REVERT JUMPDEST PUSH1 0x0 DUP3 PUSH1 0x0 ADD PUSH1 0x0 DUP4 PUSH20 0xFFFFFFFFFFFFFFFFFFFFFFFFFFFFFFFFFFFFFFFF AND PUSH20 0xFFFFFFFFFFFFFFFFFFFFFFFFFFFFFFFFFFFFFFFF AND DUP2 MSTORE PUSH1 0x20 ADD SWAP1 DUP2 MSTORE PUSH1 0x20 ADD PUSH1 0x0 KECCAK256 PUSH1 0x0 PUSH2 0x100 EXP DUP2 SLOAD DUP2 PUSH1 0xFF MUL NOT AND SWAP1 DUP4 ISZERO ISZERO MUL OR SWAP1 SSTORE POP POP POP JUMP INVALID 0x4D PUSH10 0x6E746572526F6C653A20 PUSH4 0x616C6C65 PUSH19 0x20646F6573206E6F7420686176652074686520 0x4D PUSH10 0x6E74657220726F6C6552 PUSH16 0x6C65733A206163636F756E7420646F65 PUSH20 0x206E6F74206861766520726F6C65536166654D61 PUSH21 0x683A206D756C7469706C69636174696F6E206F7665 PUSH19 0x666C6F77526F6C65733A206163636F756E7420 PUSH10 0x7320746865207A65726F KECCAK256 PUSH2 0x6464 PUSH19 0x657373A26469706673582212209E16A7B56CD6 0xE6 SWAP3 0xEC 0xE7 EXTCODECOPY 0xE4 0x1E 0x27 0xC2 SWAP15 0xE8 PUSH6 0xAF4C1265C761 0xB8 SHL 0xB5 0xE8 0xBA 0xA5 PUSH3 0x1F6473 PUSH16 0x6C63430007060033526F6C65733A2061 PUSH4 0x636F756E PUSH21 0x20697320746865207A65726F206164647265737300 "
				},
				"gasEstimates": {
					"creation": {
						"codeDepositCost": "3538000",
						"executionCost": "infinite",
						"totalCost": "infinite"
					},
					"external": {
						"RiskFreeValue()": "1073",
						"RiskFreeValueReceiver()": "1136",
						"Treasury()": "1139",
						"TreasuryReceiver()": "1093",
						"addMinter(address)": "infinite",
						"allowance(address,address)": "1387",
						"approve(address,uint256)": "25263",
						"autoLiquidityReceiver()": "1137",
						"balanceOf(address)": "infinite",
						"blacklist(address)": "1332",
						"checkFeeExempt(address)": "1349",
						"checkSwapThreshold()": "infinite",
						"clearStuckBalance(uint256,address)": "infinite",
						"decimals()": "1146",
						"decreaseAllowance(address,uint256)": "infinite",
						"enableTransfer(address)": "22213",
						"feeDenominator()": "1140",
						"getCirculatingSupply()": "infinite",
						"getLiquidityBacking(uint256)": "infinite",
						"increaseAllowance(address,uint256)": "infinite",
						"initialDistributionFinished()": "1164",
						"isMinter(address)": "infinite",
						"isNotInSwap()": "1126",
						"isOverLiquified(uint256,uint256)": "infinite",
						"isOwner()": "1234",
						"liquidityFee()": "1073",
						"manualSync()": "infinite",
						"mint(address,uint256)": "infinite",
						"name()": "infinite",
						"owner()": "1195",
						"pair()": "1136",
						"pairContract()": "1159",
						"removeMinter(address)": "infinite",
						"renounceMinter()": "infinite",
						"renounceOwnership()": "24152",
						"rescueToken(address,uint256)": "infinite",
						"router()": "1157",
						"sellFee()": "1095",
						"sendPresale(address[],uint256[])": "infinite",
						"setFeeExempt(address)": "22257",
						"setFeeReceivers(address,address,address)": "63971",
						"setFees(uint256,uint256,uint256,uint256,uint256)": "infinite",
						"setInitialDistributionFinished()": "22128",
						"setLP(address)": "23112",
						"setSwapBackSettings(bool,uint256,uint256)": "infinite",
						"setTargetLiquidity(uint256,uint256)": "41331",
						"swapEnabled()": "1209",
						"symbol()": "infinite",
						"totalFee()": "1074",
						"totalSupply()": "1170",
						"transfer(address,uint256)": "infinite",
						"transferFrom(address,address,uint256)": "infinite",
						"transferOwnership(address)": "24692",
						"updateBlacklist(address,bool)": "22315"
					},
					"internal": {
						"_basicTransfer(address,address,uint256)": "infinite",
						"_transferFrom(address,address,uint256)": "infinite",
						"shouldSwapBack()": "4383",
						"shouldTakeFee(address,address)": "2720",
						"swapBack()": "infinite",
						"takeFee(address,address,uint256)": "infinite",
						"transferToAddressETH(address payable,uint256)": "infinite"
					}
				},
				"methodIdentifiers": {
					"RiskFreeValue()": "bda5c8bb",
					"RiskFreeValueReceiver()": "d7ac6585",
					"Treasury()": "563df32f",
					"TreasuryReceiver()": "800cee51",
					"addMinter(address)": "983b2d56",
					"allowance(address,address)": "dd62ed3e",
					"approve(address,uint256)": "095ea7b3",
					"autoLiquidityReceiver()": "ca33e64c",
					"balanceOf(address)": "70a08231",
					"blacklist(address)": "f9f92be4",
					"checkFeeExempt(address)": "d4399790",
					"checkSwapThreshold()": "6d351d1a",
					"clearStuckBalance(uint256,address)": "56a227f2",
					"decimals()": "313ce567",
					"decreaseAllowance(address,uint256)": "a457c2d7",
					"enableTransfer(address)": "d5938aac",
					"feeDenominator()": "180b0d7e",
					"getCirculatingSupply()": "2b112e49",
					"getLiquidityBacking(uint256)": "d51ed1c8",
					"increaseAllowance(address,uint256)": "39509351",
					"initialDistributionFinished()": "d1fce264",
					"isMinter(address)": "aa271e1a",
					"isNotInSwap()": "83b4ac68",
					"isOverLiquified(uint256,uint256)": "1161ae39",
					"isOwner()": "8f32d59b",
					"liquidityFee()": "98118cb4",
					"manualSync()": "753d02a1",
					"mint(address,uint256)": "40c10f19",
					"name()": "06fdde03",
					"owner()": "8da5cb5b",
					"pair()": "a8aa1b31",
					"pairContract()": "4d709adf",
					"removeMinter(address)": "3092afd5",
					"renounceMinter()": "98650275",
					"renounceOwnership()": "715018a6",
					"rescueToken(address,uint256)": "33f3d628",
					"router()": "f887ea40",
					"sellFee()": "2b14ca56",
					"sendPresale(address[],uint256[])": "d37e219d",
					"setFeeExempt(address)": "749796a5",
					"setFeeReceivers(address,address,address)": "d7c01032",
					"setFees(uint256,uint256,uint256,uint256,uint256)": "04a66b48",
					"setInitialDistributionFinished()": "2be6937d",
					"setLP(address)": "2f34d282",
					"setSwapBackSettings(bool,uint256,uint256)": "d0889358",
					"setTargetLiquidity(uint256,uint256)": "201e7991",
					"swapEnabled()": "6ddd1713",
					"symbol()": "95d89b41",
					"totalFee()": "1df4ccfc",
					"totalSupply()": "18160ddd",
					"transfer(address,uint256)": "a9059cbb",
					"transferFrom(address,address,uint256)": "23b872dd",
					"transferOwnership(address)": "f2fde38b",
					"updateBlacklist(address,bool)": "9155e083"
				}
			},
			"storageLayout": {
				"storage": [
					{
						"astId": 604,
						"contract": "bep-20.sol:Raventoken",
						"label": "_name",
						"offset": 0,
						"slot": "0",
						"type": "t_string_storage"
					},
					{
						"astId": 606,
						"contract": "bep-20.sol:Raventoken",
						"label": "_symbol",
						"offset": 0,
						"slot": "1",
						"type": "t_string_storage"
					},
					{
						"astId": 608,
						"contract": "bep-20.sol:Raventoken",
						"label": "_decimals",
						"offset": 0,
						"slot": "2",
						"type": "t_uint8"
					},
					{
						"astId": 764,
						"contract": "bep-20.sol:Raventoken",
						"label": "_owner",
						"offset": 1,
						"slot": "2",
						"type": "t_address"
					},
					{
						"astId": 524,
						"contract": "bep-20.sol:Raventoken",
						"label": "_minters",
						"offset": 0,
						"slot": "3",
						"type": "t_struct(Role)433_storage"
					},
					{
						"astId": 885,
						"contract": "bep-20.sol:Raventoken",
						"label": "pairContract",
						"offset": 0,
						"slot": "4",
						"type": "t_contract(InterfaceLP)428"
					},
					{
						"astId": 887,
						"contract": "bep-20.sol:Raventoken",
						"label": "initialDistributionFinished",
						"offset": 20,
						"slot": "4",
						"type": "t_bool"
					},
					{
						"astId": 891,
						"contract": "bep-20.sol:Raventoken",
						"label": "allowTransfer",
						"offset": 0,
						"slot": "5",
						"type": "t_mapping(t_address,t_bool)"
					},
					{
						"astId": 895,
						"contract": "bep-20.sol:Raventoken",
						"label": "_isFeeExempt",
						"offset": 0,
						"slot": "6",
						"type": "t_mapping(t_address,t_bool)"
					},
					{
						"astId": 950,
						"contract": "bep-20.sol:Raventoken",
						"label": "liquidityFee",
						"offset": 0,
						"slot": "7",
						"type": "t_uint256"
					},
					{
						"astId": 953,
						"contract": "bep-20.sol:Raventoken",
						"label": "Treasury",
						"offset": 0,
						"slot": "8",
						"type": "t_uint256"
					},
					{
						"astId": 956,
						"contract": "bep-20.sol:Raventoken",
						"label": "RiskFreeValue",
						"offset": 0,
						"slot": "9",
						"type": "t_uint256"
					},
					{
						"astId": 959,
						"contract": "bep-20.sol:Raventoken",
						"label": "sellFee",
						"offset": 0,
						"slot": "10",
						"type": "t_uint256"
					},
					{
						"astId": 968,
						"contract": "bep-20.sol:Raventoken",
						"label": "totalFee",
						"offset": 0,
						"slot": "11",
						"type": "t_uint256"
					},
					{
						"astId": 971,
						"contract": "bep-20.sol:Raventoken",
						"label": "feeDenominator",
						"offset": 0,
						"slot": "12",
						"type": "t_uint256"
					},
					{
						"astId": 974,
						"contract": "bep-20.sol:Raventoken",
						"label": "DEAD",
						"offset": 0,
						"slot": "13",
						"type": "t_address"
					},
					{
						"astId": 977,
						"contract": "bep-20.sol:Raventoken",
						"label": "ZERO",
						"offset": 0,
						"slot": "14",
						"type": "t_address"
					},
					{
						"astId": 979,
						"contract": "bep-20.sol:Raventoken",
						"label": "autoLiquidityReceiver",
						"offset": 0,
						"slot": "15",
						"type": "t_address"
					},
					{
						"astId": 981,
						"contract": "bep-20.sol:Raventoken",
						"label": "TreasuryReceiver",
						"offset": 0,
						"slot": "16",
						"type": "t_address"
					},
					{
						"astId": 983,
						"contract": "bep-20.sol:Raventoken",
						"label": "RiskFreeValueReceiver",
						"offset": 0,
						"slot": "17",
						"type": "t_address"
					},
					{
						"astId": 986,
						"contract": "bep-20.sol:Raventoken",
						"label": "targetLiquidity",
						"offset": 0,
						"slot": "18",
						"type": "t_uint256"
					},
					{
						"astId": 989,
						"contract": "bep-20.sol:Raventoken",
						"label": "targetLiquidityDenominator",
						"offset": 0,
						"slot": "19",
						"type": "t_uint256"
					},
					{
						"astId": 991,
						"contract": "bep-20.sol:Raventoken",
						"label": "router",
						"offset": 0,
						"slot": "20",
						"type": "t_contract(IDEXRouter)752"
					},
					{
						"astId": 993,
						"contract": "bep-20.sol:Raventoken",
						"label": "pair",
						"offset": 0,
						"slot": "21",
						"type": "t_address"
					},
					{
						"astId": 996,
						"contract": "bep-20.sol:Raventoken",
						"label": "swapEnabled",
						"offset": 20,
						"slot": "21",
						"type": "t_bool"
					},
					{
						"astId": 1004,
						"contract": "bep-20.sol:Raventoken",
						"label": "gonSwapThreshold",
						"offset": 0,
						"slot": "22",
						"type": "t_uint256"
					},
					{
						"astId": 1006,
						"contract": "bep-20.sol:Raventoken",
						"label": "inSwap",
						"offset": 0,
						"slot": "23",
						"type": "t_bool"
					},
					{
						"astId": 1035,
						"contract": "bep-20.sol:Raventoken",
						"label": "_totalSupply",
						"offset": 0,
						"slot": "24",
						"type": "t_uint256"
					},
					{
						"astId": 1037,
						"contract": "bep-20.sol:Raventoken",
						"label": "_gonsPerFragment",
						"offset": 0,
						"slot": "25",
						"type": "t_uint256"
					},
					{
						"astId": 1041,
						"contract": "bep-20.sol:Raventoken",
						"label": "_gonBalances",
						"offset": 0,
						"slot": "26",
						"type": "t_mapping(t_address,t_uint256)"
					},
					{
						"astId": 1047,
						"contract": "bep-20.sol:Raventoken",
						"label": "_allowedFragments",
						"offset": 0,
						"slot": "27",
						"type": "t_mapping(t_address,t_mapping(t_address,t_uint256))"
					},
					{
						"astId": 1051,
						"contract": "bep-20.sol:Raventoken",
						"label": "blacklist",
						"offset": 0,
						"slot": "28",
						"type": "t_mapping(t_address,t_bool)"
					}
				],
				"types": {
					"t_address": {
						"encoding": "inplace",
						"label": "address",
						"numberOfBytes": "20"
					},
					"t_bool": {
						"encoding": "inplace",
						"label": "bool",
						"numberOfBytes": "1"
					},
					"t_contract(IDEXRouter)752": {
						"encoding": "inplace",
						"label": "contract IDEXRouter",
						"numberOfBytes": "20"
					},
					"t_contract(InterfaceLP)428": {
						"encoding": "inplace",
						"label": "contract InterfaceLP",
						"numberOfBytes": "20"
					},
					"t_mapping(t_address,t_bool)": {
						"encoding": "mapping",
						"key": "t_address",
						"label": "mapping(address => bool)",
						"numberOfBytes": "32",
						"value": "t_bool"
					},
					"t_mapping(t_address,t_mapping(t_address,t_uint256))": {
						"encoding": "mapping",
						"key": "t_address",
						"label": "mapping(address => mapping(address => uint256))",
						"numberOfBytes": "32",
						"value": "t_mapping(t_address,t_uint256)"
					},
					"t_mapping(t_address,t_uint256)": {
						"encoding": "mapping",
						"key": "t_address",
						"label": "mapping(address => uint256)",
						"numberOfBytes": "32",
						"value": "t_uint256"
					},
					"t_string_storage": {
						"encoding": "bytes",
						"label": "string",
						"numberOfBytes": "32"
					},
					"t_struct(Role)433_storage": {
						"encoding": "inplace",
						"label": "struct Roles.Role",
						"members": [
							{
								"astId": 432,
								"contract": "bep-20.sol:Raventoken",
								"label": "bearer",
								"offset": 0,
								"slot": "0",
								"type": "t_mapping(t_address,t_bool)"
							}
						],
						"numberOfBytes": "32"
					},
					"t_uint256": {
						"encoding": "inplace",
						"label": "uint256",
						"numberOfBytes": "32"
					},
					"t_uint8": {
						"encoding": "inplace",
						"label": "uint8",
						"numberOfBytes": "1"
					}
				}
			},
			"userdoc": {
				"kind": "user",
				"methods": {},
				"version": 1
			}
		}
	}
}